{"abi":[{"anonymous":false,"inputs":[{"indexed":false,"internalType":"string","name":"message","type":"string"}],"name":"FehlerBeimGruenden","type":"event"},{"anonymous":false,"inputs":[{"indexed":false,"internalType":"address","name":"lottogemeinschaftAdresse","type":"address"},{"indexed":false,"internalType":"string","name":"name","type":"string"}],"name":"LottogemeinschaftGegruendet","type":"event"},{"inputs":[],"name":"getGegruendeteLottogemeinschaften","outputs":[{"internalType":"address payable[]","name":"","type":"address[]"}],"stateMutability":"view","type":"function"},{"inputs":[],"name":"getLottogemeinschaftsnamen","outputs":[{"internalType":"string[]","name":"","type":"string[]"}],"stateMutability":"view","type":"function"},{"inputs":[{"internalType":"string","name":"name","type":"string"},{"internalType":"uint16","name":"anzahl","type":"uint16"},{"internalType":"uint32","name":"preis","type":"uint32"},{"internalType":"string","name":"scheinNummer","type":"string"},{"internalType":"bool","name":"mitspielerBestimmen","type":"bool"}],"name":"gruendeLottogemeinschaft","outputs":[],"stateMutability":"nonpayable","type":"function"},{"inputs":[{"internalType":"uint256","name":"","type":"uint256"}],"name":"lottogemeinschaften","outputs":[{"internalType":"address payable","name":"","type":"address"}],"stateMutability":"view","type":"function"},{"inputs":[{"internalType":"uint256","name":"","type":"uint256"}],"name":"lottogemeinschaftsnamen","outputs":[{"internalType":"string","name":"","type":"string"}],"stateMutability":"view","type":"function"},{"inputs":[{"internalType":"string","name":"","type":"string"}],"name":"lottogemeinschaftsnamenmapping","outputs":[{"internalType":"address","name":"","type":"address"}],"stateMutability":"view","type":"function"}],"devdoc":{"kind":"dev","methods":{},"version":1},"evm":{"assembly":"    /* \"Lottogemeinschaft.sol\":70:1707  contract LottogemeinschaftFabrik{... */\n  mstore(0x40, 0x80)\n  callvalue\n  dup1\n  iszero\n  tag_1\n  jumpi\n  0x00\n  dup1\n  revert\ntag_1:\n  pop\n  dataSize(sub_0)\n  dup1\n  dataOffset(sub_0)\n  0x00\n  codecopy\n  0x00\n  return\nstop\n\nsub_0: assembly {\n        /* \"Lottogemeinschaft.sol\":70:1707  contract LottogemeinschaftFabrik{... */\n      mstore(0x40, 0x80)\n      callvalue\n      dup1\n      iszero\n      tag_1\n      jumpi\n      0x00\n      dup1\n      revert\n    tag_1:\n      pop\n      jumpi(tag_2, lt(calldatasize, 0x04))\n      shr(0xe0, calldataload(0x00))\n      dup1\n      0x33abbcbc\n      eq\n      tag_3\n      jumpi\n      dup1\n      0x535da87c\n      eq\n      tag_4\n      jumpi\n      dup1\n      0x95097fe1\n      eq\n      tag_5\n      jumpi\n      dup1\n      0xad6eb6d9\n      eq\n      tag_6\n      jumpi\n      dup1\n      0xfb670056\n      eq\n      tag_7\n      jumpi\n      dup1\n      0xfde55044\n      eq\n      tag_8\n      jumpi\n    tag_2:\n      0x00\n      dup1\n      revert\n        /* \"Lottogemeinschaft.sol\":1582:1705  function getLottogemeinschaftsnamen() public view returns (string[] memory) {... */\n    tag_3:\n      tag_9\n      tag_10\n      jump\t// in\n    tag_9:\n      mload(0x40)\n      tag_11\n      swap2\n      swap1\n      tag_12\n      jump\t// in\n    tag_11:\n      mload(0x40)\n      dup1\n      swap2\n      sub\n      swap1\n      return\n        /* \"Lottogemeinschaft.sol\":1441:1576  function getGegruendeteLottogemeinschaften() public view returns (address payable[] memory) {... */\n    tag_4:\n      tag_13\n      tag_14\n      jump\t// in\n    tag_13:\n      mload(0x40)\n      tag_15\n      swap2\n      swap1\n      tag_16\n      jump\t// in\n    tag_15:\n      mload(0x40)\n      dup1\n      swap2\n      sub\n      swap1\n      return\n        /* \"Lottogemeinschaft.sol\":372:436  mapping(string => address) public lottogemeinschaftsnamenmapping */\n    tag_5:\n      tag_17\n      0x04\n      dup1\n      calldatasize\n      sub\n      dup2\n      add\n      swap1\n      tag_18\n      swap2\n      swap1\n      tag_19\n      jump\t// in\n    tag_18:\n      tag_20\n      jump\t// in\n    tag_17:\n      mload(0x40)\n      tag_21\n      swap2\n      swap1\n      tag_22\n      jump\t// in\n    tag_21:\n      mload(0x40)\n      dup1\n      swap2\n      sub\n      swap1\n      return\n        /* \"Lottogemeinschaft.sol\":327:366  string[] public lottogemeinschaftsnamen */\n    tag_6:\n      tag_23\n      0x04\n      dup1\n      calldatasize\n      sub\n      dup2\n      add\n      swap1\n      tag_24\n      swap2\n      swap1\n      tag_25\n      jump\t// in\n    tag_24:\n      tag_26\n      jump\t// in\n    tag_23:\n      mload(0x40)\n      tag_27\n      swap2\n      swap1\n      tag_28\n      jump\t// in\n    tag_27:\n      mload(0x40)\n      dup1\n      swap2\n      sub\n      swap1\n      return\n        /* \"Lottogemeinschaft.sol\":277:321  address payable[] public lottogemeinschaften */\n    tag_7:\n      tag_29\n      0x04\n      dup1\n      calldatasize\n      sub\n      dup2\n      add\n      swap1\n      tag_30\n      swap2\n      swap1\n      tag_25\n      jump\t// in\n    tag_30:\n      tag_31\n      jump\t// in\n    tag_29:\n      mload(0x40)\n      tag_32\n      swap2\n      swap1\n      tag_33\n      jump\t// in\n    tag_32:\n      mload(0x40)\n      dup1\n      swap2\n      sub\n      swap1\n      return\n        /* \"Lottogemeinschaft.sol\":443:1435  function gruendeLottogemeinschaft (string memory name, uint16 anzahl, uint32 preis, string memory scheinNummer, bool mitspielerBestimmen) public {... */\n    tag_8:\n      tag_34\n      0x04\n      dup1\n      calldatasize\n      sub\n      dup2\n      add\n      swap1\n      tag_35\n      swap2\n      swap1\n      tag_36\n      jump\t// in\n    tag_35:\n      tag_37\n      jump\t// in\n    tag_34:\n      stop\n        /* \"Lottogemeinschaft.sol\":1582:1705  function getLottogemeinschaftsnamen() public view returns (string[] memory) {... */\n    tag_10:\n        /* \"Lottogemeinschaft.sol\":1641:1656  string[] memory */\n      0x60\n        /* \"Lottogemeinschaft.sol\":1675:1698  lottogemeinschaftsnamen */\n      0x01\n        /* \"Lottogemeinschaft.sol\":1668:1698  return lottogemeinschaftsnamen */\n      dup1\n      sload\n      dup1\n      0x20\n      mul\n      0x20\n      add\n      mload(0x40)\n      swap1\n      dup2\n      add\n      0x40\n      mstore\n      dup1\n      swap3\n      swap2\n      swap1\n      dup2\n      dup2\n      mstore\n      0x20\n      add\n      0x00\n      swap1\n    tag_39:\n      dup3\n      dup3\n      lt\n      iszero\n      tag_40\n      jumpi\n      dup4\n      dup3\n      swap1\n      0x00\n      mstore\n      keccak256(0x00, 0x20)\n      add\n      dup1\n      sload\n      tag_42\n      swap1\n      tag_43\n      jump\t// in\n    tag_42:\n      dup1\n      0x1f\n      add\n      0x20\n      dup1\n      swap2\n      div\n      mul\n      0x20\n      add\n      mload(0x40)\n      swap1\n      dup2\n      add\n      0x40\n      mstore\n      dup1\n      swap3\n      swap2\n      swap1\n      dup2\n      dup2\n      mstore\n      0x20\n      add\n      dup3\n      dup1\n      sload\n      tag_44\n      swap1\n      tag_43\n      jump\t// in\n    tag_44:\n      dup1\n      iszero\n      tag_45\n      jumpi\n      dup1\n      0x1f\n      lt\n      tag_46\n      jumpi\n      0x0100\n      dup1\n      dup4\n      sload\n      div\n      mul\n      dup4\n      mstore\n      swap2\n      0x20\n      add\n      swap2\n      jump(tag_45)\n    tag_46:\n      dup3\n      add\n      swap2\n      swap1\n      0x00\n      mstore\n      keccak256(0x00, 0x20)\n      swap1\n    tag_47:\n      dup2\n      sload\n      dup2\n      mstore\n      swap1\n      0x01\n      add\n      swap1\n      0x20\n      add\n      dup1\n      dup4\n      gt\n      tag_47\n      jumpi\n      dup3\n      swap1\n      sub\n      0x1f\n      and\n      dup3\n      add\n      swap2\n    tag_45:\n      pop\n      pop\n      pop\n      pop\n      pop\n      dup2\n      mstore\n      0x20\n      add\n      swap1\n      0x01\n      add\n      swap1\n      jump(tag_39)\n    tag_40:\n      pop\n      pop\n      pop\n      pop\n      swap1\n      pop\n        /* \"Lottogemeinschaft.sol\":1582:1705  function getLottogemeinschaftsnamen() public view returns (string[] memory) {... */\n      swap1\n      jump\t// out\n        /* \"Lottogemeinschaft.sol\":1441:1576  function getGegruendeteLottogemeinschaften() public view returns (address payable[] memory) {... */\n    tag_14:\n        /* \"Lottogemeinschaft.sol\":1507:1531  address payable[] memory */\n      0x60\n        /* \"Lottogemeinschaft.sol\":1550:1569  lottogemeinschaften */\n      0x00\n        /* \"Lottogemeinschaft.sol\":1543:1569  return lottogemeinschaften */\n      dup1\n      sload\n      dup1\n      0x20\n      mul\n      0x20\n      add\n      mload(0x40)\n      swap1\n      dup2\n      add\n      0x40\n      mstore\n      dup1\n      swap3\n      swap2\n      swap1\n      dup2\n      dup2\n      mstore\n      0x20\n      add\n      dup3\n      dup1\n      sload\n      dup1\n      iszero\n      tag_49\n      jumpi\n      0x20\n      mul\n      dup3\n      add\n      swap2\n      swap1\n      0x00\n      mstore\n      keccak256(0x00, 0x20)\n      swap1\n    tag_50:\n      dup2\n      0x00\n      swap1\n      sload\n      swap1\n      0x0100\n      exp\n      swap1\n      div\n      0xffffffffffffffffffffffffffffffffffffffff\n      and\n      0xffffffffffffffffffffffffffffffffffffffff\n      and\n      dup2\n      mstore\n      0x20\n      add\n      swap1\n      0x01\n      add\n      swap1\n      dup1\n      dup4\n      gt\n      tag_50\n      jumpi\n    tag_49:\n      pop\n      pop\n      pop\n      pop\n      pop\n      swap1\n      pop\n        /* \"Lottogemeinschaft.sol\":1441:1576  function getGegruendeteLottogemeinschaften() public view returns (address payable[] memory) {... */\n      swap1\n      jump\t// out\n        /* \"Lottogemeinschaft.sol\":372:436  mapping(string => address) public lottogemeinschaftsnamenmapping */\n    tag_20:\n      0x02\n      dup2\n      dup1\n      mload\n      0x20\n      dup2\n      add\n      dup3\n      add\n      dup1\n      mload\n      dup5\n      dup3\n      mstore\n      0x20\n      dup4\n      add\n      0x20\n      dup6\n      add\n      keccak256\n      dup2\n      dup4\n      mstore\n      dup1\n      swap6\n      pop\n      pop\n      pop\n      pop\n      pop\n      pop\n      0x00\n      swap2\n      pop\n      sload\n      swap1\n      0x0100\n      exp\n      swap1\n      div\n      0xffffffffffffffffffffffffffffffffffffffff\n      and\n      dup2\n      jump\t// out\n        /* \"Lottogemeinschaft.sol\":327:366  string[] public lottogemeinschaftsnamen */\n    tag_26:\n      0x01\n      dup2\n      dup2\n      sload\n      dup2\n      lt\n      tag_51\n      jumpi\n      0x00\n      dup1\n      revert\n    tag_51:\n      swap1\n      0x00\n      mstore\n      keccak256(0x00, 0x20)\n      add\n      0x00\n      swap2\n      pop\n      swap1\n      pop\n      dup1\n      sload\n      tag_53\n      swap1\n      tag_43\n      jump\t// in\n    tag_53:\n      dup1\n      0x1f\n      add\n      0x20\n      dup1\n      swap2\n      div\n      mul\n      0x20\n      add\n      mload(0x40)\n      swap1\n      dup2\n      add\n      0x40\n      mstore\n      dup1\n      swap3\n      swap2\n      swap1\n      dup2\n      dup2\n      mstore\n      0x20\n      add\n      dup3\n      dup1\n      sload\n      tag_54\n      swap1\n      tag_43\n      jump\t// in\n    tag_54:\n      dup1\n      iszero\n      tag_55\n      jumpi\n      dup1\n      0x1f\n      lt\n      tag_56\n      jumpi\n      0x0100\n      dup1\n      dup4\n      sload\n      div\n      mul\n      dup4\n      mstore\n      swap2\n      0x20\n      add\n      swap2\n      jump(tag_55)\n    tag_56:\n      dup3\n      add\n      swap2\n      swap1\n      0x00\n      mstore\n      keccak256(0x00, 0x20)\n      swap1\n    tag_57:\n      dup2\n      sload\n      dup2\n      mstore\n      swap1\n      0x01\n      add\n      swap1\n      0x20\n      add\n      dup1\n      dup4\n      gt\n      tag_57\n      jumpi\n      dup3\n      swap1\n      sub\n      0x1f\n      and\n      dup3\n      add\n      swap2\n    tag_55:\n      pop\n      pop\n      pop\n      pop\n      pop\n      dup2\n      jump\t// out\n        /* \"Lottogemeinschaft.sol\":277:321  address payable[] public lottogemeinschaften */\n    tag_31:\n      0x00\n      dup2\n      dup2\n      sload\n      dup2\n      lt\n      tag_58\n      jumpi\n      0x00\n      dup1\n      revert\n    tag_58:\n      swap1\n      0x00\n      mstore\n      keccak256(0x00, 0x20)\n      add\n      0x00\n      swap2\n      pop\n      sload\n      swap1\n      0x0100\n      exp\n      swap1\n      div\n      0xffffffffffffffffffffffffffffffffffffffff\n      and\n      dup2\n      jump\t// out\n        /* \"Lottogemeinschaft.sol\":443:1435  function gruendeLottogemeinschaft (string memory name, uint16 anzahl, uint32 preis, string memory scheinNummer, bool mitspielerBestimmen) public {... */\n    tag_37:\n        /* \"Lottogemeinschaft.sol\":623:624  0 */\n      0x00\n        /* \"Lottogemeinschaft.sol\":608:612  name */\n      dup6\n        /* \"Lottogemeinschaft.sol\":602:620  bytes(name).length */\n      mload\n        /* \"Lottogemeinschaft.sol\":602:624  bytes(name).length > 0 */\n      gt\n        /* \"Lottogemeinschaft.sol\":594:654  require(bytes(name).length > 0, \"Name darf nicht leer sein\") */\n      tag_61\n      jumpi\n      mload(0x40)\n      0x08c379a000000000000000000000000000000000000000000000000000000000\n      dup2\n      mstore\n      0x04\n      add\n      tag_62\n      swap1\n      tag_63\n      jump\t// in\n    tag_62:\n      mload(0x40)\n      dup1\n      swap2\n      sub\n      swap1\n      revert\n    tag_61:\n        /* \"Lottogemeinschaft.sol\":689:691  30 */\n      0x1e\n        /* \"Lottogemeinschaft.sol\":674:678  name */\n      dup6\n        /* \"Lottogemeinschaft.sol\":668:686  bytes(name).length */\n      mload\n        /* \"Lottogemeinschaft.sol\":668:691  bytes(name).length < 30 */\n      lt\n        /* \"Lottogemeinschaft.sol\":660:714  require(bytes(name).length < 30, \"Maximal 30 Zeichen\") */\n      tag_64\n      jumpi\n      mload(0x40)\n      0x08c379a000000000000000000000000000000000000000000000000000000000\n      dup2\n      mstore\n      0x04\n      add\n      tag_65\n      swap1\n      tag_66\n      jump\t// in\n    tag_65:\n      mload(0x40)\n      dup1\n      swap2\n      sub\n      swap1\n      revert\n    tag_64:\n        /* \"Lottogemeinschaft.sol\":737:738  0 */\n      0x00\n        /* \"Lottogemeinschaft.sol\":728:734  anzahl */\n      dup5\n        /* \"Lottogemeinschaft.sol\":728:738  anzahl > 0 */\n      0xffff\n      and\n      gt\n        /* \"Lottogemeinschaft.sol\":720:774  require(anzahl > 0, \"Anzahl muss groesser als 0 sein\") */\n      tag_67\n      jumpi\n      mload(0x40)\n      0x08c379a000000000000000000000000000000000000000000000000000000000\n      dup2\n      mstore\n      0x04\n      add\n      tag_68\n      swap1\n      tag_69\n      jump\t// in\n    tag_68:\n      mload(0x40)\n      dup1\n      swap2\n      sub\n      swap1\n      revert\n    tag_67:\n        /* \"Lottogemeinschaft.sol\":797:802  65535 */\n      0xffff\n        /* \"Lottogemeinschaft.sol\":788:794  anzahl */\n      dup5\n        /* \"Lottogemeinschaft.sol\":788:802  anzahl < 65535 */\n      0xffff\n      and\n      lt\n        /* \"Lottogemeinschaft.sol\":780:841  require(anzahl < 65535, \"Anzahl muss kleiner als 65535 sein\") */\n      tag_70\n      jumpi\n      mload(0x40)\n      0x08c379a000000000000000000000000000000000000000000000000000000000\n      dup2\n      mstore\n      0x04\n      add\n      tag_71\n      swap1\n      tag_72\n      jump\t// in\n    tag_71:\n      mload(0x40)\n      dup1\n      swap2\n      sub\n      swap1\n      revert\n    tag_70:\n        /* \"Lottogemeinschaft.sol\":863:864  0 */\n      0x00\n        /* \"Lottogemeinschaft.sol\":855:860  preis */\n      dup4\n        /* \"Lottogemeinschaft.sol\":855:864  preis > 0 */\n      0xffffffff\n      and\n      gt\n        /* \"Lottogemeinschaft.sol\":847:899  require(preis > 0, \"Preis muss groesser als 0 sein\") */\n      tag_73\n      jumpi\n      mload(0x40)\n      0x08c379a000000000000000000000000000000000000000000000000000000000\n      dup2\n      mstore\n      0x04\n      add\n      tag_74\n      swap1\n      tag_75\n      jump\t// in\n    tag_74:\n      mload(0x40)\n      dup1\n      swap2\n      sub\n      swap1\n      revert\n    tag_73:\n        /* \"Lottogemeinschaft.sol\":921:931  4294967295 */\n      0xffffffff\n        /* \"Lottogemeinschaft.sol\":913:918  preis */\n      dup4\n        /* \"Lottogemeinschaft.sol\":913:931  preis < 4294967295 */\n      0xffffffff\n      and\n      lt\n        /* \"Lottogemeinschaft.sol\":905:974  require(preis < 4294967295, \"Preis muss kleiner als 4294967295 sein\") */\n      tag_76\n      jumpi\n      mload(0x40)\n      0x08c379a000000000000000000000000000000000000000000000000000000000\n      dup2\n      mstore\n      0x04\n      add\n      tag_77\n      swap1\n      tag_78\n      jump\t// in\n    tag_77:\n      mload(0x40)\n      dup1\n      swap2\n      sub\n      swap1\n      revert\n    tag_76:\n        /* \"Lottogemeinschaft.sol\":1018:1020  16 */\n      0x10\n        /* \"Lottogemeinschaft.sol\":994:1006  scheinNummer */\n      dup3\n        /* \"Lottogemeinschaft.sol\":988:1014  bytes(scheinNummer).length */\n      mload\n        /* \"Lottogemeinschaft.sol\":988:1020  bytes(scheinNummer).length == 16 */\n      eq\n        /* \"Lottogemeinschaft.sol\":980:1059  require(bytes(scheinNummer).length == 16, \"ScheinNummer muss 16 Ziffern haben\") */\n      tag_79\n      jumpi\n      mload(0x40)\n      0x08c379a000000000000000000000000000000000000000000000000000000000\n      dup2\n      mstore\n      0x04\n      add\n      tag_80\n      swap1\n      tag_81\n      jump\t// in\n    tag_80:\n      mload(0x40)\n      dup1\n      swap2\n      sub\n      swap1\n      revert\n    tag_79:\n        /* \"Lottogemeinschaft.sol\":1066:1095  address neueLottogemeinschaft */\n      0x00\n        /* \"Lottogemeinschaft.sol\":1128:1132  name */\n      dup6\n        /* \"Lottogemeinschaft.sol\":1134:1144  msg.sender */\n      caller\n        /* \"Lottogemeinschaft.sol\":1146:1152  anzahl */\n      dup7\n        /* \"Lottogemeinschaft.sol\":1154:1159  preis */\n      dup7\n        /* \"Lottogemeinschaft.sol\":1161:1173  scheinNummer */\n      dup7\n        /* \"Lottogemeinschaft.sol\":1175:1194  mitspielerBestimmen */\n      dup7\n        /* \"Lottogemeinschaft.sol\":1106:1195  new Lottogemeinschaft(name, msg.sender, anzahl, preis, scheinNummer, mitspielerBestimmen) */\n      mload(0x40)\n      tag_82\n      swap1\n      tag_83\n      jump\t// in\n    tag_82:\n      tag_84\n      swap7\n      swap6\n      swap5\n      swap4\n      swap3\n      swap2\n      swap1\n      tag_85\n      jump\t// in\n    tag_84:\n      mload(0x40)\n      dup1\n      swap2\n      sub\n      swap1\n      0x00\n      create\n      dup1\n      iszero\n      dup1\n      iszero\n      tag_86\n      jumpi\n      returndatasize\n      0x00\n      dup1\n      returndatacopy\n      revert(0x00, returndatasize)\n    tag_86:\n      pop\n        /* \"Lottogemeinschaft.sol\":1066:1196  address neueLottogemeinschaft = address(new Lottogemeinschaft(name, msg.sender, anzahl, preis, scheinNummer, mitspielerBestimmen)) */\n      swap1\n      pop\n        /* \"Lottogemeinschaft.sol\":1202:1221  lottogemeinschaften */\n      0x00\n        /* \"Lottogemeinschaft.sol\":1235:1256  neueLottogemeinschaft */\n      dup2\n        /* \"Lottogemeinschaft.sol\":1202:1258  lottogemeinschaften.push(payable(neueLottogemeinschaft)) */\n      swap1\n      dup1\n      0x01\n      dup2\n      sload\n      add\n      dup1\n      dup3\n      sstore\n      dup1\n      swap2\n      pop\n      pop\n      0x01\n      swap1\n      sub\n      swap1\n      0x00\n      mstore\n      keccak256(0x00, 0x20)\n      add\n      0x00\n      swap1\n      swap2\n      swap1\n      swap2\n      swap1\n      swap2\n      0x0100\n      exp\n      dup2\n      sload\n      dup2\n      0xffffffffffffffffffffffffffffffffffffffff\n      mul\n      not\n      and\n      swap1\n      dup4\n      0xffffffffffffffffffffffffffffffffffffffff\n      and\n      mul\n      or\n      swap1\n      sstore\n      pop\n        /* \"Lottogemeinschaft.sol\":1264:1287  lottogemeinschaftsnamen */\n      0x01\n        /* \"Lottogemeinschaft.sol\":1293:1297  name */\n      dup7\n        /* \"Lottogemeinschaft.sol\":1264:1298  lottogemeinschaftsnamen.push(name) */\n      swap1\n      dup1\n      0x01\n      dup2\n      sload\n      add\n      dup1\n      dup3\n      sstore\n      dup1\n      swap2\n      pop\n      pop\n      0x01\n      swap1\n      sub\n      swap1\n      0x00\n      mstore\n      keccak256(0x00, 0x20)\n      add\n      0x00\n      swap1\n      swap2\n      swap1\n      swap2\n      swap1\n      swap2\n      pop\n      swap1\n      dup2\n      tag_89\n      swap2\n      swap1\n      tag_90\n      jump\t// in\n    tag_89:\n      pop\n        /* \"Lottogemeinschaft.sol\":1343:1364  neueLottogemeinschaft */\n      dup1\n        /* \"Lottogemeinschaft.sol\":1304:1334  lottogemeinschaftsnamenmapping */\n      0x02\n        /* \"Lottogemeinschaft.sol\":1335:1339  name */\n      dup8\n        /* \"Lottogemeinschaft.sol\":1304:1340  lottogemeinschaftsnamenmapping[name] */\n      mload(0x40)\n      tag_91\n      swap2\n      swap1\n      tag_92\n      jump\t// in\n    tag_91:\n      swap1\n      dup2\n      mstore\n      0x20\n      add\n      mload(0x40)\n      dup1\n      swap2\n      sub\n      swap1\n      keccak256\n      0x00\n        /* \"Lottogemeinschaft.sol\":1304:1364  lottogemeinschaftsnamenmapping[name] = neueLottogemeinschaft */\n      0x0100\n      exp\n      dup2\n      sload\n      dup2\n      0xffffffffffffffffffffffffffffffffffffffff\n      mul\n      not\n      and\n      swap1\n      dup4\n      0xffffffffffffffffffffffffffffffffffffffff\n      and\n      mul\n      or\n      swap1\n      sstore\n      pop\n        /* \"Lottogemeinschaft.sol\":1376:1432  LottogemeinschaftGegruendet(neueLottogemeinschaft, name) */\n      0x5f745e716eea01cc31d0e70c2af2ecc8792f321db40cbcd16b2c9d2ae97cb5f2\n        /* \"Lottogemeinschaft.sol\":1404:1425  neueLottogemeinschaft */\n      dup2\n        /* \"Lottogemeinschaft.sol\":1427:1431  name */\n      dup8\n        /* \"Lottogemeinschaft.sol\":1376:1432  LottogemeinschaftGegruendet(neueLottogemeinschaft, name) */\n      mload(0x40)\n      tag_93\n      swap3\n      swap2\n      swap1\n      tag_94\n      jump\t// in\n    tag_93:\n      mload(0x40)\n      dup1\n      swap2\n      sub\n      swap1\n      log1\n        /* \"Lottogemeinschaft.sol\":588:1435  {... */\n      pop\n        /* \"Lottogemeinschaft.sol\":443:1435  function gruendeLottogemeinschaft (string memory name, uint16 anzahl, uint32 preis, string memory scheinNummer, bool mitspielerBestimmen) public {... */\n      pop\n      pop\n      pop\n      pop\n      pop\n      jump\t// out\n    tag_83:\n      dataSize(sub_0)\n      dup1\n      dataOffset(sub_0)\n      dup4\n      codecopy\n      add\n      swap1\n      jump\t// out\n        /* \"#utility.yul\":7:131   */\n    tag_95:\n        /* \"#utility.yul\":84:90   */\n      0x00\n        /* \"#utility.yul\":118:123   */\n      dup2\n        /* \"#utility.yul\":112:124   */\n      mload\n        /* \"#utility.yul\":102:124   */\n      swap1\n      pop\n        /* \"#utility.yul\":7:131   */\n      swap2\n      swap1\n      pop\n      jump\t// out\n        /* \"#utility.yul\":137:331   */\n    tag_96:\n        /* \"#utility.yul\":246:257   */\n      0x00\n        /* \"#utility.yul\":280:286   */\n      dup3\n        /* \"#utility.yul\":275:278   */\n      dup3\n        /* \"#utility.yul\":268:287   */\n      mstore\n        /* \"#utility.yul\":320:324   */\n      0x20\n        /* \"#utility.yul\":315:318   */\n      dup3\n        /* \"#utility.yul\":311:325   */\n      add\n        /* \"#utility.yul\":296:325   */\n      swap1\n      pop\n        /* \"#utility.yul\":137:331   */\n      swap3\n      swap2\n      pop\n      pop\n      jump\t// out\n        /* \"#utility.yul\":337:479   */\n    tag_97:\n        /* \"#utility.yul\":414:418   */\n      0x00\n        /* \"#utility.yul\":437:440   */\n      dup2\n        /* \"#utility.yul\":429:440   */\n      swap1\n      pop\n        /* \"#utility.yul\":467:471   */\n      0x20\n        /* \"#utility.yul\":462:465   */\n      dup3\n        /* \"#utility.yul\":458:472   */\n      add\n        /* \"#utility.yul\":450:472   */\n      swap1\n      pop\n        /* \"#utility.yul\":337:479   */\n      swap2\n      swap1\n      pop\n      jump\t// out\n        /* \"#utility.yul\":485:584   */\n    tag_98:\n        /* \"#utility.yul\":537:543   */\n      0x00\n        /* \"#utility.yul\":571:576   */\n      dup2\n        /* \"#utility.yul\":565:577   */\n      mload\n        /* \"#utility.yul\":555:577   */\n      swap1\n      pop\n        /* \"#utility.yul\":485:584   */\n      swap2\n      swap1\n      pop\n      jump\t// out\n        /* \"#utility.yul\":590:749   */\n    tag_99:\n        /* \"#utility.yul\":664:675   */\n      0x00\n        /* \"#utility.yul\":698:704   */\n      dup3\n        /* \"#utility.yul\":693:696   */\n      dup3\n        /* \"#utility.yul\":686:705   */\n      mstore\n        /* \"#utility.yul\":738:742   */\n      0x20\n        /* \"#utility.yul\":733:736   */\n      dup3\n        /* \"#utility.yul\":729:743   */\n      add\n        /* \"#utility.yul\":714:743   */\n      swap1\n      pop\n        /* \"#utility.yul\":590:749   */\n      swap3\n      swap2\n      pop\n      pop\n      jump\t// out\n        /* \"#utility.yul\":755:1001   */\n    tag_100:\n        /* \"#utility.yul\":836:837   */\n      0x00\n        /* \"#utility.yul\":846:959   */\n    tag_186:\n        /* \"#utility.yul\":860:866   */\n      dup4\n        /* \"#utility.yul\":857:858   */\n      dup2\n        /* \"#utility.yul\":854:867   */\n      lt\n        /* \"#utility.yul\":846:959   */\n      iszero\n      tag_188\n      jumpi\n        /* \"#utility.yul\":945:946   */\n      dup1\n        /* \"#utility.yul\":940:943   */\n      dup3\n        /* \"#utility.yul\":936:947   */\n      add\n        /* \"#utility.yul\":930:948   */\n      mload\n        /* \"#utility.yul\":926:927   */\n      dup2\n        /* \"#utility.yul\":921:924   */\n      dup5\n        /* \"#utility.yul\":917:928   */\n      add\n        /* \"#utility.yul\":910:949   */\n      mstore\n        /* \"#utility.yul\":882:884   */\n      0x20\n        /* \"#utility.yul\":879:880   */\n      dup2\n        /* \"#utility.yul\":875:885   */\n      add\n        /* \"#utility.yul\":870:885   */\n      swap1\n      pop\n        /* \"#utility.yul\":846:959   */\n      jump(tag_186)\n    tag_188:\n        /* \"#utility.yul\":993:994   */\n      0x00\n        /* \"#utility.yul\":984:990   */\n      dup5\n        /* \"#utility.yul\":979:982   */\n      dup5\n        /* \"#utility.yul\":975:991   */\n      add\n        /* \"#utility.yul\":968:995   */\n      mstore\n        /* \"#utility.yul\":817:1001   */\n      pop\n        /* \"#utility.yul\":755:1001   */\n      pop\n      pop\n      pop\n      jump\t// out\n        /* \"#utility.yul\":1007:1109   */\n    tag_101:\n        /* \"#utility.yul\":1048:1054   */\n      0x00\n        /* \"#utility.yul\":1099:1101   */\n      0x1f\n        /* \"#utility.yul\":1095:1102   */\n      not\n        /* \"#utility.yul\":1090:1092   */\n      0x1f\n        /* \"#utility.yul\":1083:1088   */\n      dup4\n        /* \"#utility.yul\":1079:1093   */\n      add\n        /* \"#utility.yul\":1075:1103   */\n      and\n        /* \"#utility.yul\":1065:1103   */\n      swap1\n      pop\n        /* \"#utility.yul\":1007:1109   */\n      swap2\n      swap1\n      pop\n      jump\t// out\n        /* \"#utility.yul\":1115:1472   */\n    tag_102:\n        /* \"#utility.yul\":1193:1196   */\n      0x00\n        /* \"#utility.yul\":1221:1260   */\n      tag_191\n        /* \"#utility.yul\":1254:1259   */\n      dup3\n        /* \"#utility.yul\":1221:1260   */\n      tag_98\n      jump\t// in\n    tag_191:\n        /* \"#utility.yul\":1276:1337   */\n      tag_192\n        /* \"#utility.yul\":1330:1336   */\n      dup2\n        /* \"#utility.yul\":1325:1328   */\n      dup6\n        /* \"#utility.yul\":1276:1337   */\n      tag_99\n      jump\t// in\n    tag_192:\n        /* \"#utility.yul\":1269:1337   */\n      swap4\n      pop\n        /* \"#utility.yul\":1346:1411   */\n      tag_193\n        /* \"#utility.yul\":1404:1410   */\n      dup2\n        /* \"#utility.yul\":1399:1402   */\n      dup6\n        /* \"#utility.yul\":1392:1396   */\n      0x20\n        /* \"#utility.yul\":1385:1390   */\n      dup7\n        /* \"#utility.yul\":1381:1397   */\n      add\n        /* \"#utility.yul\":1346:1411   */\n      tag_100\n      jump\t// in\n    tag_193:\n        /* \"#utility.yul\":1436:1465   */\n      tag_194\n        /* \"#utility.yul\":1458:1464   */\n      dup2\n        /* \"#utility.yul\":1436:1465   */\n      tag_101\n      jump\t// in\n    tag_194:\n        /* \"#utility.yul\":1431:1434   */\n      dup5\n        /* \"#utility.yul\":1427:1466   */\n      add\n        /* \"#utility.yul\":1420:1466   */\n      swap2\n      pop\n        /* \"#utility.yul\":1197:1472   */\n      pop\n        /* \"#utility.yul\":1115:1472   */\n      swap3\n      swap2\n      pop\n      pop\n      jump\t// out\n        /* \"#utility.yul\":1478:1674   */\n    tag_103:\n        /* \"#utility.yul\":1567:1577   */\n      0x00\n        /* \"#utility.yul\":1602:1668   */\n      tag_196\n        /* \"#utility.yul\":1664:1667   */\n      dup4\n        /* \"#utility.yul\":1656:1662   */\n      dup4\n        /* \"#utility.yul\":1602:1668   */\n      tag_102\n      jump\t// in\n    tag_196:\n        /* \"#utility.yul\":1588:1668   */\n      swap1\n      pop\n        /* \"#utility.yul\":1478:1674   */\n      swap3\n      swap2\n      pop\n      pop\n      jump\t// out\n        /* \"#utility.yul\":1680:1803   */\n    tag_104:\n        /* \"#utility.yul\":1760:1764   */\n      0x00\n        /* \"#utility.yul\":1792:1796   */\n      0x20\n        /* \"#utility.yul\":1787:1790   */\n      dup3\n        /* \"#utility.yul\":1783:1797   */\n      add\n        /* \"#utility.yul\":1775:1797   */\n      swap1\n      pop\n        /* \"#utility.yul\":1680:1803   */\n      swap2\n      swap1\n      pop\n      jump\t// out\n        /* \"#utility.yul\":1837:2828   */\n    tag_105:\n        /* \"#utility.yul\":1976:1979   */\n      0x00\n        /* \"#utility.yul\":2005:2069   */\n      tag_199\n        /* \"#utility.yul\":2063:2068   */\n      dup3\n        /* \"#utility.yul\":2005:2069   */\n      tag_95\n      jump\t// in\n    tag_199:\n        /* \"#utility.yul\":2085:2181   */\n      tag_200\n        /* \"#utility.yul\":2174:2180   */\n      dup2\n        /* \"#utility.yul\":2169:2172   */\n      dup6\n        /* \"#utility.yul\":2085:2181   */\n      tag_96\n      jump\t// in\n    tag_200:\n        /* \"#utility.yul\":2078:2181   */\n      swap4\n      pop\n        /* \"#utility.yul\":2207:2210   */\n      dup4\n        /* \"#utility.yul\":2252:2256   */\n      0x20\n        /* \"#utility.yul\":2244:2250   */\n      dup3\n        /* \"#utility.yul\":2240:2257   */\n      mul\n        /* \"#utility.yul\":2235:2238   */\n      dup6\n        /* \"#utility.yul\":2231:2258   */\n      add\n        /* \"#utility.yul\":2282:2348   */\n      tag_201\n        /* \"#utility.yul\":2342:2347   */\n      dup6\n        /* \"#utility.yul\":2282:2348   */\n      tag_97\n      jump\t// in\n    tag_201:\n        /* \"#utility.yul\":2371:2378   */\n      dup1\n        /* \"#utility.yul\":2402:2403   */\n      0x00\n        /* \"#utility.yul\":2387:2783   */\n    tag_202:\n        /* \"#utility.yul\":2412:2418   */\n      dup6\n        /* \"#utility.yul\":2409:2410   */\n      dup2\n        /* \"#utility.yul\":2406:2419   */\n      lt\n        /* \"#utility.yul\":2387:2783   */\n      iszero\n      tag_204\n      jumpi\n        /* \"#utility.yul\":2483:2492   */\n      dup5\n        /* \"#utility.yul\":2477:2481   */\n      dup5\n        /* \"#utility.yul\":2473:2493   */\n      sub\n        /* \"#utility.yul\":2468:2471   */\n      dup10\n        /* \"#utility.yul\":2461:2494   */\n      mstore\n        /* \"#utility.yul\":2534:2540   */\n      dup2\n        /* \"#utility.yul\":2528:2541   */\n      mload\n        /* \"#utility.yul\":2562:2646   */\n      tag_205\n        /* \"#utility.yul\":2641:2645   */\n      dup6\n        /* \"#utility.yul\":2626:2639   */\n      dup3\n        /* \"#utility.yul\":2562:2646   */\n      tag_103\n      jump\t// in\n    tag_205:\n        /* \"#utility.yul\":2554:2646   */\n      swap5\n      pop\n        /* \"#utility.yul\":2669:2739   */\n      tag_206\n        /* \"#utility.yul\":2732:2738   */\n      dup4\n        /* \"#utility.yul\":2669:2739   */\n      tag_104\n      jump\t// in\n    tag_206:\n        /* \"#utility.yul\":2659:2739   */\n      swap3\n      pop\n        /* \"#utility.yul\":2768:2772   */\n      0x20\n        /* \"#utility.yul\":2763:2766   */\n      dup11\n        /* \"#utility.yul\":2759:2773   */\n      add\n        /* \"#utility.yul\":2752:2773   */\n      swap10\n      pop\n        /* \"#utility.yul\":2447:2783   */\n      pop\n        /* \"#utility.yul\":2434:2435   */\n      0x01\n        /* \"#utility.yul\":2431:2432   */\n      dup2\n        /* \"#utility.yul\":2427:2436   */\n      add\n        /* \"#utility.yul\":2422:2436   */\n      swap1\n      pop\n        /* \"#utility.yul\":2387:2783   */\n      jump(tag_202)\n    tag_204:\n        /* \"#utility.yul\":2391:2405   */\n      pop\n        /* \"#utility.yul\":2799:2803   */\n      dup3\n        /* \"#utility.yul\":2792:2803   */\n      swap8\n      pop\n        /* \"#utility.yul\":2819:2822   */\n      dup8\n        /* \"#utility.yul\":2812:2822   */\n      swap6\n      pop\n        /* \"#utility.yul\":1981:2828   */\n      pop\n      pop\n      pop\n      pop\n      pop\n        /* \"#utility.yul\":1837:2828   */\n      swap3\n      swap2\n      pop\n      pop\n      jump\t// out\n        /* \"#utility.yul\":2834:3247   */\n    tag_12:\n        /* \"#utility.yul\":2997:3001   */\n      0x00\n        /* \"#utility.yul\":3035:3037   */\n      0x20\n        /* \"#utility.yul\":3024:3033   */\n      dup3\n        /* \"#utility.yul\":3020:3038   */\n      add\n        /* \"#utility.yul\":3012:3038   */\n      swap1\n      pop\n        /* \"#utility.yul\":3084:3093   */\n      dup2\n        /* \"#utility.yul\":3078:3082   */\n      dup2\n        /* \"#utility.yul\":3074:3094   */\n      sub\n        /* \"#utility.yul\":3070:3071   */\n      0x00\n        /* \"#utility.yul\":3059:3068   */\n      dup4\n        /* \"#utility.yul\":3055:3072   */\n      add\n        /* \"#utility.yul\":3048:3095   */\n      mstore\n        /* \"#utility.yul\":3112:3240   */\n      tag_208\n        /* \"#utility.yul\":3235:3239   */\n      dup2\n        /* \"#utility.yul\":3226:3232   */\n      dup5\n        /* \"#utility.yul\":3112:3240   */\n      tag_105\n      jump\t// in\n    tag_208:\n        /* \"#utility.yul\":3104:3240   */\n      swap1\n      pop\n        /* \"#utility.yul\":2834:3247   */\n      swap3\n      swap2\n      pop\n      pop\n      jump\t// out\n        /* \"#utility.yul\":3253:3375   */\n    tag_106:\n        /* \"#utility.yul\":3328:3334   */\n      0x00\n        /* \"#utility.yul\":3362:3367   */\n      dup2\n        /* \"#utility.yul\":3356:3368   */\n      mload\n        /* \"#utility.yul\":3346:3368   */\n      swap1\n      pop\n        /* \"#utility.yul\":3253:3375   */\n      swap2\n      swap1\n      pop\n      jump\t// out\n        /* \"#utility.yul\":3381:3573   */\n    tag_107:\n        /* \"#utility.yul\":3488:3499   */\n      0x00\n        /* \"#utility.yul\":3522:3528   */\n      dup3\n        /* \"#utility.yul\":3517:3520   */\n      dup3\n        /* \"#utility.yul\":3510:3529   */\n      mstore\n        /* \"#utility.yul\":3562:3566   */\n      0x20\n        /* \"#utility.yul\":3557:3560   */\n      dup3\n        /* \"#utility.yul\":3553:3567   */\n      add\n        /* \"#utility.yul\":3538:3567   */\n      swap1\n      pop\n        /* \"#utility.yul\":3381:3573   */\n      swap3\n      swap2\n      pop\n      pop\n      jump\t// out\n        /* \"#utility.yul\":3579:3719   */\n    tag_108:\n        /* \"#utility.yul\":3654:3658   */\n      0x00\n        /* \"#utility.yul\":3677:3680   */\n      dup2\n        /* \"#utility.yul\":3669:3680   */\n      swap1\n      pop\n        /* \"#utility.yul\":3707:3711   */\n      0x20\n        /* \"#utility.yul\":3702:3705   */\n      dup3\n        /* \"#utility.yul\":3698:3712   */\n      add\n        /* \"#utility.yul\":3690:3712   */\n      swap1\n      pop\n        /* \"#utility.yul\":3579:3719   */\n      swap2\n      swap1\n      pop\n      jump\t// out\n        /* \"#utility.yul\":3725:3851   */\n    tag_109:\n        /* \"#utility.yul\":3762:3769   */\n      0x00\n        /* \"#utility.yul\":3802:3844   */\n      0xffffffffffffffffffffffffffffffffffffffff\n        /* \"#utility.yul\":3795:3800   */\n      dup3\n        /* \"#utility.yul\":3791:3845   */\n      and\n        /* \"#utility.yul\":3780:3845   */\n      swap1\n      pop\n        /* \"#utility.yul\":3725:3851   */\n      swap2\n      swap1\n      pop\n      jump\t// out\n        /* \"#utility.yul\":3857:3961   */\n    tag_110:\n        /* \"#utility.yul\":3902:3909   */\n      0x00\n        /* \"#utility.yul\":3931:3955   */\n      tag_214\n        /* \"#utility.yul\":3949:3954   */\n      dup3\n        /* \"#utility.yul\":3931:3955   */\n      tag_109\n      jump\t// in\n    tag_214:\n        /* \"#utility.yul\":3920:3955   */\n      swap1\n      pop\n        /* \"#utility.yul\":3857:3961   */\n      swap2\n      swap1\n      pop\n      jump\t// out\n        /* \"#utility.yul\":3967:4099   */\n    tag_111:\n        /* \"#utility.yul\":4060:4092   */\n      tag_216\n        /* \"#utility.yul\":4086:4091   */\n      dup2\n        /* \"#utility.yul\":4060:4092   */\n      tag_110\n      jump\t// in\n    tag_216:\n        /* \"#utility.yul\":4055:4058   */\n      dup3\n        /* \"#utility.yul\":4048:4093   */\n      mstore\n        /* \"#utility.yul\":3967:4099   */\n      pop\n      pop\n      jump\t// out\n        /* \"#utility.yul\":4105:4316   */\n    tag_112:\n        /* \"#utility.yul\":4190:4200   */\n      0x00\n        /* \"#utility.yul\":4211:4273   */\n      tag_218\n        /* \"#utility.yul\":4269:4272   */\n      dup4\n        /* \"#utility.yul\":4261:4267   */\n      dup4\n        /* \"#utility.yul\":4211:4273   */\n      tag_111\n      jump\t// in\n    tag_218:\n        /* \"#utility.yul\":4305:4309   */\n      0x20\n        /* \"#utility.yul\":4300:4303   */\n      dup4\n        /* \"#utility.yul\":4296:4310   */\n      add\n        /* \"#utility.yul\":4282:4310   */\n      swap1\n      pop\n        /* \"#utility.yul\":4105:4316   */\n      swap3\n      swap2\n      pop\n      pop\n      jump\t// out\n        /* \"#utility.yul\":4322:4443   */\n    tag_113:\n        /* \"#utility.yul\":4400:4404   */\n      0x00\n        /* \"#utility.yul\":4432:4436   */\n      0x20\n        /* \"#utility.yul\":4427:4430   */\n      dup3\n        /* \"#utility.yul\":4423:4437   */\n      add\n        /* \"#utility.yul\":4415:4437   */\n      swap1\n      pop\n        /* \"#utility.yul\":4322:4443   */\n      swap2\n      swap1\n      pop\n      jump\t// out\n        /* \"#utility.yul\":4495:5291   */\n    tag_114:\n        /* \"#utility.yul\":4630:4633   */\n      0x00\n        /* \"#utility.yul\":4659:4721   */\n      tag_221\n        /* \"#utility.yul\":4715:4720   */\n      dup3\n        /* \"#utility.yul\":4659:4721   */\n      tag_106\n      jump\t// in\n    tag_221:\n        /* \"#utility.yul\":4737:4831   */\n      tag_222\n        /* \"#utility.yul\":4824:4830   */\n      dup2\n        /* \"#utility.yul\":4819:4822   */\n      dup6\n        /* \"#utility.yul\":4737:4831   */\n      tag_107\n      jump\t// in\n    tag_222:\n        /* \"#utility.yul\":4730:4831   */\n      swap4\n      pop\n        /* \"#utility.yul\":4855:4919   */\n      tag_223\n        /* \"#utility.yul\":4913:4918   */\n      dup4\n        /* \"#utility.yul\":4855:4919   */\n      tag_108\n      jump\t// in\n    tag_223:\n        /* \"#utility.yul\":4942:4949   */\n      dup1\n        /* \"#utility.yul\":4973:4974   */\n      0x00\n        /* \"#utility.yul\":4958:5266   */\n    tag_224:\n        /* \"#utility.yul\":4983:4989   */\n      dup4\n        /* \"#utility.yul\":4980:4981   */\n      dup2\n        /* \"#utility.yul\":4977:4990   */\n      lt\n        /* \"#utility.yul\":4958:5266   */\n      iszero\n      tag_226\n      jumpi\n        /* \"#utility.yul\":5059:5065   */\n      dup2\n        /* \"#utility.yul\":5053:5066   */\n      mload\n        /* \"#utility.yul\":5086:5165   */\n      tag_227\n        /* \"#utility.yul\":5161:5164   */\n      dup9\n        /* \"#utility.yul\":5146:5159   */\n      dup3\n        /* \"#utility.yul\":5086:5165   */\n      tag_112\n      jump\t// in\n    tag_227:\n        /* \"#utility.yul\":5079:5165   */\n      swap8\n      pop\n        /* \"#utility.yul\":5188:5256   */\n      tag_228\n        /* \"#utility.yul\":5249:5255   */\n      dup4\n        /* \"#utility.yul\":5188:5256   */\n      tag_113\n      jump\t// in\n    tag_228:\n        /* \"#utility.yul\":5178:5256   */\n      swap3\n      pop\n        /* \"#utility.yul\":5018:5266   */\n      pop\n        /* \"#utility.yul\":5005:5006   */\n      0x01\n        /* \"#utility.yul\":5002:5003   */\n      dup2\n        /* \"#utility.yul\":4998:5007   */\n      add\n        /* \"#utility.yul\":4993:5007   */\n      swap1\n      pop\n        /* \"#utility.yul\":4958:5266   */\n      jump(tag_224)\n    tag_226:\n        /* \"#utility.yul\":4962:4976   */\n      pop\n        /* \"#utility.yul\":5282:5285   */\n      dup6\n        /* \"#utility.yul\":5275:5285   */\n      swap4\n      pop\n        /* \"#utility.yul\":4635:5291   */\n      pop\n      pop\n      pop\n        /* \"#utility.yul\":4495:5291   */\n      swap3\n      swap2\n      pop\n      pop\n      jump\t// out\n        /* \"#utility.yul\":5297:5702   */\n    tag_16:\n        /* \"#utility.yul\":5456:5460   */\n      0x00\n        /* \"#utility.yul\":5494:5496   */\n      0x20\n        /* \"#utility.yul\":5483:5492   */\n      dup3\n        /* \"#utility.yul\":5479:5497   */\n      add\n        /* \"#utility.yul\":5471:5497   */\n      swap1\n      pop\n        /* \"#utility.yul\":5543:5552   */\n      dup2\n        /* \"#utility.yul\":5537:5541   */\n      dup2\n        /* \"#utility.yul\":5533:5553   */\n      sub\n        /* \"#utility.yul\":5529:5530   */\n      0x00\n        /* \"#utility.yul\":5518:5527   */\n      dup4\n        /* \"#utility.yul\":5514:5531   */\n      add\n        /* \"#utility.yul\":5507:5554   */\n      mstore\n        /* \"#utility.yul\":5571:5695   */\n      tag_230\n        /* \"#utility.yul\":5690:5694   */\n      dup2\n        /* \"#utility.yul\":5681:5687   */\n      dup5\n        /* \"#utility.yul\":5571:5695   */\n      tag_114\n      jump\t// in\n    tag_230:\n        /* \"#utility.yul\":5563:5695   */\n      swap1\n      pop\n        /* \"#utility.yul\":5297:5702   */\n      swap3\n      swap2\n      pop\n      pop\n      jump\t// out\n        /* \"#utility.yul\":5708:5783   */\n    tag_115:\n        /* \"#utility.yul\":5741:5747   */\n      0x00\n        /* \"#utility.yul\":5774:5776   */\n      0x40\n        /* \"#utility.yul\":5768:5777   */\n      mload\n        /* \"#utility.yul\":5758:5777   */\n      swap1\n      pop\n        /* \"#utility.yul\":5708:5783   */\n      swap1\n      jump\t// out\n        /* \"#utility.yul\":5789:5906   */\n    tag_116:\n        /* \"#utility.yul\":5898:5899   */\n      0x00\n        /* \"#utility.yul\":5895:5896   */\n      dup1\n        /* \"#utility.yul\":5888:5900   */\n      revert\n        /* \"#utility.yul\":5912:6029   */\n    tag_117:\n        /* \"#utility.yul\":6021:6022   */\n      0x00\n        /* \"#utility.yul\":6018:6019   */\n      dup1\n        /* \"#utility.yul\":6011:6023   */\n      revert\n        /* \"#utility.yul\":6035:6152   */\n    tag_118:\n        /* \"#utility.yul\":6144:6145   */\n      0x00\n        /* \"#utility.yul\":6141:6142   */\n      dup1\n        /* \"#utility.yul\":6134:6146   */\n      revert\n        /* \"#utility.yul\":6158:6275   */\n    tag_119:\n        /* \"#utility.yul\":6267:6268   */\n      0x00\n        /* \"#utility.yul\":6264:6265   */\n      dup1\n        /* \"#utility.yul\":6257:6269   */\n      revert\n        /* \"#utility.yul\":6281:6461   */\n    tag_120:\n        /* \"#utility.yul\":6329:6406   */\n      0x4e487b7100000000000000000000000000000000000000000000000000000000\n        /* \"#utility.yul\":6326:6327   */\n      0x00\n        /* \"#utility.yul\":6319:6407   */\n      mstore\n        /* \"#utility.yul\":6426:6430   */\n      0x41\n        /* \"#utility.yul\":6423:6424   */\n      0x04\n        /* \"#utility.yul\":6416:6431   */\n      mstore\n        /* \"#utility.yul\":6450:6454   */\n      0x24\n        /* \"#utility.yul\":6447:6448   */\n      0x00\n        /* \"#utility.yul\":6440:6455   */\n      revert\n        /* \"#utility.yul\":6467:6748   */\n    tag_121:\n        /* \"#utility.yul\":6550:6577   */\n      tag_238\n        /* \"#utility.yul\":6572:6576   */\n      dup3\n        /* \"#utility.yul\":6550:6577   */\n      tag_101\n      jump\t// in\n    tag_238:\n        /* \"#utility.yul\":6542:6548   */\n      dup2\n        /* \"#utility.yul\":6538:6578   */\n      add\n        /* \"#utility.yul\":6680:6686   */\n      dup2\n        /* \"#utility.yul\":6668:6678   */\n      dup2\n        /* \"#utility.yul\":6665:6687   */\n      lt\n        /* \"#utility.yul\":6644:6662   */\n      0xffffffffffffffff\n        /* \"#utility.yul\":6632:6642   */\n      dup3\n        /* \"#utility.yul\":6629:6663   */\n      gt\n        /* \"#utility.yul\":6626:6688   */\n      or\n        /* \"#utility.yul\":6623:6711   */\n      iszero\n      tag_239\n      jumpi\n        /* \"#utility.yul\":6691:6709   */\n      tag_240\n      tag_120\n      jump\t// in\n    tag_240:\n        /* \"#utility.yul\":6623:6711   */\n    tag_239:\n        /* \"#utility.yul\":6731:6741   */\n      dup1\n        /* \"#utility.yul\":6727:6729   */\n      0x40\n        /* \"#utility.yul\":6720:6742   */\n      mstore\n        /* \"#utility.yul\":6510:6748   */\n      pop\n        /* \"#utility.yul\":6467:6748   */\n      pop\n      pop\n      jump\t// out\n        /* \"#utility.yul\":6754:6883   */\n    tag_122:\n        /* \"#utility.yul\":6788:6794   */\n      0x00\n        /* \"#utility.yul\":6815:6835   */\n      tag_242\n      tag_115\n      jump\t// in\n    tag_242:\n        /* \"#utility.yul\":6805:6835   */\n      swap1\n      pop\n        /* \"#utility.yul\":6844:6877   */\n      tag_243\n        /* \"#utility.yul\":6872:6876   */\n      dup3\n        /* \"#utility.yul\":6864:6870   */\n      dup3\n        /* \"#utility.yul\":6844:6877   */\n      tag_121\n      jump\t// in\n    tag_243:\n        /* \"#utility.yul\":6754:6883   */\n      swap2\n      swap1\n      pop\n      jump\t// out\n        /* \"#utility.yul\":6889:7197   */\n    tag_123:\n        /* \"#utility.yul\":6951:6955   */\n      0x00\n        /* \"#utility.yul\":7041:7059   */\n      0xffffffffffffffff\n        /* \"#utility.yul\":7033:7039   */\n      dup3\n        /* \"#utility.yul\":7030:7060   */\n      gt\n        /* \"#utility.yul\":7027:7083   */\n      iszero\n      tag_245\n      jumpi\n        /* \"#utility.yul\":7063:7081   */\n      tag_246\n      tag_120\n      jump\t// in\n    tag_246:\n        /* \"#utility.yul\":7027:7083   */\n    tag_245:\n        /* \"#utility.yul\":7101:7130   */\n      tag_247\n        /* \"#utility.yul\":7123:7129   */\n      dup3\n        /* \"#utility.yul\":7101:7130   */\n      tag_101\n      jump\t// in\n    tag_247:\n        /* \"#utility.yul\":7093:7130   */\n      swap1\n      pop\n        /* \"#utility.yul\":7185:7189   */\n      0x20\n        /* \"#utility.yul\":7179:7183   */\n      dup2\n        /* \"#utility.yul\":7175:7190   */\n      add\n        /* \"#utility.yul\":7167:7190   */\n      swap1\n      pop\n        /* \"#utility.yul\":6889:7197   */\n      swap2\n      swap1\n      pop\n      jump\t// out\n        /* \"#utility.yul\":7203:7349   */\n    tag_124:\n        /* \"#utility.yul\":7300:7306   */\n      dup3\n        /* \"#utility.yul\":7295:7298   */\n      dup2\n        /* \"#utility.yul\":7290:7293   */\n      dup4\n        /* \"#utility.yul\":7277:7307   */\n      calldatacopy\n        /* \"#utility.yul\":7341:7342   */\n      0x00\n        /* \"#utility.yul\":7332:7338   */\n      dup4\n        /* \"#utility.yul\":7327:7330   */\n      dup4\n        /* \"#utility.yul\":7323:7339   */\n      add\n        /* \"#utility.yul\":7316:7343   */\n      mstore\n        /* \"#utility.yul\":7203:7349   */\n      pop\n      pop\n      pop\n      jump\t// out\n        /* \"#utility.yul\":7355:7780   */\n    tag_125:\n        /* \"#utility.yul\":7433:7438   */\n      0x00\n        /* \"#utility.yul\":7458:7524   */\n      tag_250\n        /* \"#utility.yul\":7474:7523   */\n      tag_251\n        /* \"#utility.yul\":7516:7522   */\n      dup5\n        /* \"#utility.yul\":7474:7523   */\n      tag_123\n      jump\t// in\n    tag_251:\n        /* \"#utility.yul\":7458:7524   */\n      tag_122\n      jump\t// in\n    tag_250:\n        /* \"#utility.yul\":7449:7524   */\n      swap1\n      pop\n        /* \"#utility.yul\":7547:7553   */\n      dup3\n        /* \"#utility.yul\":7540:7545   */\n      dup2\n        /* \"#utility.yul\":7533:7554   */\n      mstore\n        /* \"#utility.yul\":7585:7589   */\n      0x20\n        /* \"#utility.yul\":7578:7583   */\n      dup2\n        /* \"#utility.yul\":7574:7590   */\n      add\n        /* \"#utility.yul\":7623:7626   */\n      dup5\n        /* \"#utility.yul\":7614:7620   */\n      dup5\n        /* \"#utility.yul\":7609:7612   */\n      dup5\n        /* \"#utility.yul\":7605:7621   */\n      add\n        /* \"#utility.yul\":7602:7627   */\n      gt\n        /* \"#utility.yul\":7599:7711   */\n      iszero\n      tag_252\n      jumpi\n        /* \"#utility.yul\":7630:7709   */\n      tag_253\n      tag_119\n      jump\t// in\n    tag_253:\n        /* \"#utility.yul\":7599:7711   */\n    tag_252:\n        /* \"#utility.yul\":7720:7774   */\n      tag_254\n        /* \"#utility.yul\":7767:7773   */\n      dup5\n        /* \"#utility.yul\":7762:7765   */\n      dup3\n        /* \"#utility.yul\":7757:7760   */\n      dup6\n        /* \"#utility.yul\":7720:7774   */\n      tag_124\n      jump\t// in\n    tag_254:\n        /* \"#utility.yul\":7439:7780   */\n      pop\n        /* \"#utility.yul\":7355:7780   */\n      swap4\n      swap3\n      pop\n      pop\n      pop\n      jump\t// out\n        /* \"#utility.yul\":7800:8140   */\n    tag_126:\n        /* \"#utility.yul\":7856:7861   */\n      0x00\n        /* \"#utility.yul\":7905:7908   */\n      dup3\n        /* \"#utility.yul\":7898:7902   */\n      0x1f\n        /* \"#utility.yul\":7890:7896   */\n      dup4\n        /* \"#utility.yul\":7886:7903   */\n      add\n        /* \"#utility.yul\":7882:7909   */\n      slt\n        /* \"#utility.yul\":7872:7994   */\n      tag_256\n      jumpi\n        /* \"#utility.yul\":7913:7992   */\n      tag_257\n      tag_118\n      jump\t// in\n    tag_257:\n        /* \"#utility.yul\":7872:7994   */\n    tag_256:\n        /* \"#utility.yul\":8030:8036   */\n      dup2\n        /* \"#utility.yul\":8017:8037   */\n      calldataload\n        /* \"#utility.yul\":8055:8134   */\n      tag_258\n        /* \"#utility.yul\":8130:8133   */\n      dup5\n        /* \"#utility.yul\":8122:8128   */\n      dup3\n        /* \"#utility.yul\":8115:8119   */\n      0x20\n        /* \"#utility.yul\":8107:8113   */\n      dup7\n        /* \"#utility.yul\":8103:8120   */\n      add\n        /* \"#utility.yul\":8055:8134   */\n      tag_125\n      jump\t// in\n    tag_258:\n        /* \"#utility.yul\":8046:8134   */\n      swap2\n      pop\n        /* \"#utility.yul\":7862:8140   */\n      pop\n        /* \"#utility.yul\":7800:8140   */\n      swap3\n      swap2\n      pop\n      pop\n      jump\t// out\n        /* \"#utility.yul\":8146:8655   */\n    tag_19:\n        /* \"#utility.yul\":8215:8221   */\n      0x00\n        /* \"#utility.yul\":8264:8266   */\n      0x20\n        /* \"#utility.yul\":8252:8261   */\n      dup3\n        /* \"#utility.yul\":8243:8250   */\n      dup5\n        /* \"#utility.yul\":8239:8262   */\n      sub\n        /* \"#utility.yul\":8235:8267   */\n      slt\n        /* \"#utility.yul\":8232:8351   */\n      iszero\n      tag_260\n      jumpi\n        /* \"#utility.yul\":8270:8349   */\n      tag_261\n      tag_116\n      jump\t// in\n    tag_261:\n        /* \"#utility.yul\":8232:8351   */\n    tag_260:\n        /* \"#utility.yul\":8418:8419   */\n      0x00\n        /* \"#utility.yul\":8407:8416   */\n      dup3\n        /* \"#utility.yul\":8403:8420   */\n      add\n        /* \"#utility.yul\":8390:8421   */\n      calldataload\n        /* \"#utility.yul\":8448:8466   */\n      0xffffffffffffffff\n        /* \"#utility.yul\":8440:8446   */\n      dup2\n        /* \"#utility.yul\":8437:8467   */\n      gt\n        /* \"#utility.yul\":8434:8551   */\n      iszero\n      tag_262\n      jumpi\n        /* \"#utility.yul\":8470:8549   */\n      tag_263\n      tag_117\n      jump\t// in\n    tag_263:\n        /* \"#utility.yul\":8434:8551   */\n    tag_262:\n        /* \"#utility.yul\":8575:8638   */\n      tag_264\n        /* \"#utility.yul\":8630:8637   */\n      dup5\n        /* \"#utility.yul\":8621:8627   */\n      dup3\n        /* \"#utility.yul\":8610:8619   */\n      dup6\n        /* \"#utility.yul\":8606:8628   */\n      add\n        /* \"#utility.yul\":8575:8638   */\n      tag_126\n      jump\t// in\n    tag_264:\n        /* \"#utility.yul\":8565:8638   */\n      swap2\n      pop\n        /* \"#utility.yul\":8361:8648   */\n      pop\n        /* \"#utility.yul\":8146:8655   */\n      swap3\n      swap2\n      pop\n      pop\n      jump\t// out\n        /* \"#utility.yul\":8661:8757   */\n    tag_127:\n        /* \"#utility.yul\":8698:8705   */\n      0x00\n        /* \"#utility.yul\":8727:8751   */\n      tag_266\n        /* \"#utility.yul\":8745:8750   */\n      dup3\n        /* \"#utility.yul\":8727:8751   */\n      tag_109\n      jump\t// in\n    tag_266:\n        /* \"#utility.yul\":8716:8751   */\n      swap1\n      pop\n        /* \"#utility.yul\":8661:8757   */\n      swap2\n      swap1\n      pop\n      jump\t// out\n        /* \"#utility.yul\":8763:8881   */\n    tag_128:\n        /* \"#utility.yul\":8850:8874   */\n      tag_268\n        /* \"#utility.yul\":8868:8873   */\n      dup2\n        /* \"#utility.yul\":8850:8874   */\n      tag_127\n      jump\t// in\n    tag_268:\n        /* \"#utility.yul\":8845:8848   */\n      dup3\n        /* \"#utility.yul\":8838:8875   */\n      mstore\n        /* \"#utility.yul\":8763:8881   */\n      pop\n      pop\n      jump\t// out\n        /* \"#utility.yul\":8887:9109   */\n    tag_22:\n        /* \"#utility.yul\":8980:8984   */\n      0x00\n        /* \"#utility.yul\":9018:9020   */\n      0x20\n        /* \"#utility.yul\":9007:9016   */\n      dup3\n        /* \"#utility.yul\":9003:9021   */\n      add\n        /* \"#utility.yul\":8995:9021   */\n      swap1\n      pop\n        /* \"#utility.yul\":9031:9102   */\n      tag_270\n        /* \"#utility.yul\":9099:9100   */\n      0x00\n        /* \"#utility.yul\":9088:9097   */\n      dup4\n        /* \"#utility.yul\":9084:9101   */\n      add\n        /* \"#utility.yul\":9075:9081   */\n      dup5\n        /* \"#utility.yul\":9031:9102   */\n      tag_128\n      jump\t// in\n    tag_270:\n        /* \"#utility.yul\":8887:9109   */\n      swap3\n      swap2\n      pop\n      pop\n      jump\t// out\n        /* \"#utility.yul\":9115:9192   */\n    tag_129:\n        /* \"#utility.yul\":9152:9159   */\n      0x00\n        /* \"#utility.yul\":9181:9186   */\n      dup2\n        /* \"#utility.yul\":9170:9186   */\n      swap1\n      pop\n        /* \"#utility.yul\":9115:9192   */\n      swap2\n      swap1\n      pop\n      jump\t// out\n        /* \"#utility.yul\":9198:9320   */\n    tag_130:\n        /* \"#utility.yul\":9271:9295   */\n      tag_273\n        /* \"#utility.yul\":9289:9294   */\n      dup2\n        /* \"#utility.yul\":9271:9295   */\n      tag_129\n      jump\t// in\n    tag_273:\n        /* \"#utility.yul\":9264:9269   */\n      dup2\n        /* \"#utility.yul\":9261:9296   */\n      eq\n        /* \"#utility.yul\":9251:9314   */\n      tag_274\n      jumpi\n        /* \"#utility.yul\":9310:9311   */\n      0x00\n        /* \"#utility.yul\":9307:9308   */\n      dup1\n        /* \"#utility.yul\":9300:9312   */\n      revert\n        /* \"#utility.yul\":9251:9314   */\n    tag_274:\n        /* \"#utility.yul\":9198:9320   */\n      pop\n      jump\t// out\n        /* \"#utility.yul\":9326:9465   */\n    tag_131:\n        /* \"#utility.yul\":9372:9377   */\n      0x00\n        /* \"#utility.yul\":9410:9416   */\n      dup2\n        /* \"#utility.yul\":9397:9417   */\n      calldataload\n        /* \"#utility.yul\":9388:9417   */\n      swap1\n      pop\n        /* \"#utility.yul\":9426:9459   */\n      tag_276\n        /* \"#utility.yul\":9453:9458   */\n      dup2\n        /* \"#utility.yul\":9426:9459   */\n      tag_130\n      jump\t// in\n    tag_276:\n        /* \"#utility.yul\":9326:9465   */\n      swap3\n      swap2\n      pop\n      pop\n      jump\t// out\n        /* \"#utility.yul\":9471:9800   */\n    tag_25:\n        /* \"#utility.yul\":9530:9536   */\n      0x00\n        /* \"#utility.yul\":9579:9581   */\n      0x20\n        /* \"#utility.yul\":9567:9576   */\n      dup3\n        /* \"#utility.yul\":9558:9565   */\n      dup5\n        /* \"#utility.yul\":9554:9577   */\n      sub\n        /* \"#utility.yul\":9550:9582   */\n      slt\n        /* \"#utility.yul\":9547:9666   */\n      iszero\n      tag_278\n      jumpi\n        /* \"#utility.yul\":9585:9664   */\n      tag_279\n      tag_116\n      jump\t// in\n    tag_279:\n        /* \"#utility.yul\":9547:9666   */\n    tag_278:\n        /* \"#utility.yul\":9705:9706   */\n      0x00\n        /* \"#utility.yul\":9730:9783   */\n      tag_280\n        /* \"#utility.yul\":9775:9782   */\n      dup5\n        /* \"#utility.yul\":9766:9772   */\n      dup3\n        /* \"#utility.yul\":9755:9764   */\n      dup6\n        /* \"#utility.yul\":9751:9773   */\n      add\n        /* \"#utility.yul\":9730:9783   */\n      tag_131\n      jump\t// in\n    tag_280:\n        /* \"#utility.yul\":9720:9783   */\n      swap2\n      pop\n        /* \"#utility.yul\":9676:9793   */\n      pop\n        /* \"#utility.yul\":9471:9800   */\n      swap3\n      swap2\n      pop\n      pop\n      jump\t// out\n        /* \"#utility.yul\":9806:9975   */\n    tag_132:\n        /* \"#utility.yul\":9890:9901   */\n      0x00\n        /* \"#utility.yul\":9924:9930   */\n      dup3\n        /* \"#utility.yul\":9919:9922   */\n      dup3\n        /* \"#utility.yul\":9912:9931   */\n      mstore\n        /* \"#utility.yul\":9964:9968   */\n      0x20\n        /* \"#utility.yul\":9959:9962   */\n      dup3\n        /* \"#utility.yul\":9955:9969   */\n      add\n        /* \"#utility.yul\":9940:9969   */\n      swap1\n      pop\n        /* \"#utility.yul\":9806:9975   */\n      swap3\n      swap2\n      pop\n      pop\n      jump\t// out\n        /* \"#utility.yul\":9981:10358   */\n    tag_133:\n        /* \"#utility.yul\":10069:10072   */\n      0x00\n        /* \"#utility.yul\":10097:10136   */\n      tag_283\n        /* \"#utility.yul\":10130:10135   */\n      dup3\n        /* \"#utility.yul\":10097:10136   */\n      tag_98\n      jump\t// in\n    tag_283:\n        /* \"#utility.yul\":10152:10223   */\n      tag_284\n        /* \"#utility.yul\":10216:10222   */\n      dup2\n        /* \"#utility.yul\":10211:10214   */\n      dup6\n        /* \"#utility.yul\":10152:10223   */\n      tag_132\n      jump\t// in\n    tag_284:\n        /* \"#utility.yul\":10145:10223   */\n      swap4\n      pop\n        /* \"#utility.yul\":10232:10297   */\n      tag_285\n        /* \"#utility.yul\":10290:10296   */\n      dup2\n        /* \"#utility.yul\":10285:10288   */\n      dup6\n        /* \"#utility.yul\":10278:10282   */\n      0x20\n        /* \"#utility.yul\":10271:10276   */\n      dup7\n        /* \"#utility.yul\":10267:10283   */\n      add\n        /* \"#utility.yul\":10232:10297   */\n      tag_100\n      jump\t// in\n    tag_285:\n        /* \"#utility.yul\":10322:10351   */\n      tag_286\n        /* \"#utility.yul\":10344:10350   */\n      dup2\n        /* \"#utility.yul\":10322:10351   */\n      tag_101\n      jump\t// in\n    tag_286:\n        /* \"#utility.yul\":10317:10320   */\n      dup5\n        /* \"#utility.yul\":10313:10352   */\n      add\n        /* \"#utility.yul\":10306:10352   */\n      swap2\n      pop\n        /* \"#utility.yul\":10073:10358   */\n      pop\n        /* \"#utility.yul\":9981:10358   */\n      swap3\n      swap2\n      pop\n      pop\n      jump\t// out\n        /* \"#utility.yul\":10364:10677   */\n    tag_28:\n        /* \"#utility.yul\":10477:10481   */\n      0x00\n        /* \"#utility.yul\":10515:10517   */\n      0x20\n        /* \"#utility.yul\":10504:10513   */\n      dup3\n        /* \"#utility.yul\":10500:10518   */\n      add\n        /* \"#utility.yul\":10492:10518   */\n      swap1\n      pop\n        /* \"#utility.yul\":10564:10573   */\n      dup2\n        /* \"#utility.yul\":10558:10562   */\n      dup2\n        /* \"#utility.yul\":10554:10574   */\n      sub\n        /* \"#utility.yul\":10550:10551   */\n      0x00\n        /* \"#utility.yul\":10539:10548   */\n      dup4\n        /* \"#utility.yul\":10535:10552   */\n      add\n        /* \"#utility.yul\":10528:10575   */\n      mstore\n        /* \"#utility.yul\":10592:10670   */\n      tag_288\n        /* \"#utility.yul\":10665:10669   */\n      dup2\n        /* \"#utility.yul\":10656:10662   */\n      dup5\n        /* \"#utility.yul\":10592:10670   */\n      tag_133\n      jump\t// in\n    tag_288:\n        /* \"#utility.yul\":10584:10670   */\n      swap1\n      pop\n        /* \"#utility.yul\":10364:10677   */\n      swap3\n      swap2\n      pop\n      pop\n      jump\t// out\n        /* \"#utility.yul\":10683:10825   */\n    tag_134:\n        /* \"#utility.yul\":10786:10818   */\n      tag_290\n        /* \"#utility.yul\":10812:10817   */\n      dup2\n        /* \"#utility.yul\":10786:10818   */\n      tag_110\n      jump\t// in\n    tag_290:\n        /* \"#utility.yul\":10781:10784   */\n      dup3\n        /* \"#utility.yul\":10774:10819   */\n      mstore\n        /* \"#utility.yul\":10683:10825   */\n      pop\n      pop\n      jump\t// out\n        /* \"#utility.yul\":10831:11085   */\n    tag_33:\n        /* \"#utility.yul\":10940:10944   */\n      0x00\n        /* \"#utility.yul\":10978:10980   */\n      0x20\n        /* \"#utility.yul\":10967:10976   */\n      dup3\n        /* \"#utility.yul\":10963:10981   */\n      add\n        /* \"#utility.yul\":10955:10981   */\n      swap1\n      pop\n        /* \"#utility.yul\":10991:11078   */\n      tag_292\n        /* \"#utility.yul\":11075:11076   */\n      0x00\n        /* \"#utility.yul\":11064:11073   */\n      dup4\n        /* \"#utility.yul\":11060:11077   */\n      add\n        /* \"#utility.yul\":11051:11057   */\n      dup5\n        /* \"#utility.yul\":10991:11078   */\n      tag_134\n      jump\t// in\n    tag_292:\n        /* \"#utility.yul\":10831:11085   */\n      swap3\n      swap2\n      pop\n      pop\n      jump\t// out\n        /* \"#utility.yul\":11091:11180   */\n    tag_135:\n        /* \"#utility.yul\":11127:11134   */\n      0x00\n        /* \"#utility.yul\":11167:11173   */\n      0xffff\n        /* \"#utility.yul\":11160:11165   */\n      dup3\n        /* \"#utility.yul\":11156:11174   */\n      and\n        /* \"#utility.yul\":11145:11174   */\n      swap1\n      pop\n        /* \"#utility.yul\":11091:11180   */\n      swap2\n      swap1\n      pop\n      jump\t// out\n        /* \"#utility.yul\":11186:11306   */\n    tag_136:\n        /* \"#utility.yul\":11258:11281   */\n      tag_295\n        /* \"#utility.yul\":11275:11280   */\n      dup2\n        /* \"#utility.yul\":11258:11281   */\n      tag_135\n      jump\t// in\n    tag_295:\n        /* \"#utility.yul\":11251:11256   */\n      dup2\n        /* \"#utility.yul\":11248:11282   */\n      eq\n        /* \"#utility.yul\":11238:11300   */\n      tag_296\n      jumpi\n        /* \"#utility.yul\":11296:11297   */\n      0x00\n        /* \"#utility.yul\":11293:11294   */\n      dup1\n        /* \"#utility.yul\":11286:11298   */\n      revert\n        /* \"#utility.yul\":11238:11300   */\n    tag_296:\n        /* \"#utility.yul\":11186:11306   */\n      pop\n      jump\t// out\n        /* \"#utility.yul\":11312:11449   */\n    tag_137:\n        /* \"#utility.yul\":11357:11362   */\n      0x00\n        /* \"#utility.yul\":11395:11401   */\n      dup2\n        /* \"#utility.yul\":11382:11402   */\n      calldataload\n        /* \"#utility.yul\":11373:11402   */\n      swap1\n      pop\n        /* \"#utility.yul\":11411:11443   */\n      tag_298\n        /* \"#utility.yul\":11437:11442   */\n      dup2\n        /* \"#utility.yul\":11411:11443   */\n      tag_136\n      jump\t// in\n    tag_298:\n        /* \"#utility.yul\":11312:11449   */\n      swap3\n      swap2\n      pop\n      pop\n      jump\t// out\n        /* \"#utility.yul\":11455:11548   */\n    tag_138:\n        /* \"#utility.yul\":11491:11498   */\n      0x00\n        /* \"#utility.yul\":11531:11541   */\n      0xffffffff\n        /* \"#utility.yul\":11524:11529   */\n      dup3\n        /* \"#utility.yul\":11520:11542   */\n      and\n        /* \"#utility.yul\":11509:11542   */\n      swap1\n      pop\n        /* \"#utility.yul\":11455:11548   */\n      swap2\n      swap1\n      pop\n      jump\t// out\n        /* \"#utility.yul\":11554:11674   */\n    tag_139:\n        /* \"#utility.yul\":11626:11649   */\n      tag_301\n        /* \"#utility.yul\":11643:11648   */\n      dup2\n        /* \"#utility.yul\":11626:11649   */\n      tag_138\n      jump\t// in\n    tag_301:\n        /* \"#utility.yul\":11619:11624   */\n      dup2\n        /* \"#utility.yul\":11616:11650   */\n      eq\n        /* \"#utility.yul\":11606:11668   */\n      tag_302\n      jumpi\n        /* \"#utility.yul\":11664:11665   */\n      0x00\n        /* \"#utility.yul\":11661:11662   */\n      dup1\n        /* \"#utility.yul\":11654:11666   */\n      revert\n        /* \"#utility.yul\":11606:11668   */\n    tag_302:\n        /* \"#utility.yul\":11554:11674   */\n      pop\n      jump\t// out\n        /* \"#utility.yul\":11680:11817   */\n    tag_140:\n        /* \"#utility.yul\":11725:11730   */\n      0x00\n        /* \"#utility.yul\":11763:11769   */\n      dup2\n        /* \"#utility.yul\":11750:11770   */\n      calldataload\n        /* \"#utility.yul\":11741:11770   */\n      swap1\n      pop\n        /* \"#utility.yul\":11779:11811   */\n      tag_304\n        /* \"#utility.yul\":11805:11810   */\n      dup2\n        /* \"#utility.yul\":11779:11811   */\n      tag_139\n      jump\t// in\n    tag_304:\n        /* \"#utility.yul\":11680:11817   */\n      swap3\n      swap2\n      pop\n      pop\n      jump\t// out\n        /* \"#utility.yul\":11823:11913   */\n    tag_141:\n        /* \"#utility.yul\":11857:11864   */\n      0x00\n        /* \"#utility.yul\":11900:11905   */\n      dup2\n        /* \"#utility.yul\":11893:11906   */\n      iszero\n        /* \"#utility.yul\":11886:11907   */\n      iszero\n        /* \"#utility.yul\":11875:11907   */\n      swap1\n      pop\n        /* \"#utility.yul\":11823:11913   */\n      swap2\n      swap1\n      pop\n      jump\t// out\n        /* \"#utility.yul\":11919:12035   */\n    tag_142:\n        /* \"#utility.yul\":11989:12010   */\n      tag_307\n        /* \"#utility.yul\":12004:12009   */\n      dup2\n        /* \"#utility.yul\":11989:12010   */\n      tag_141\n      jump\t// in\n    tag_307:\n        /* \"#utility.yul\":11982:11987   */\n      dup2\n        /* \"#utility.yul\":11979:12011   */\n      eq\n        /* \"#utility.yul\":11969:12029   */\n      tag_308\n      jumpi\n        /* \"#utility.yul\":12025:12026   */\n      0x00\n        /* \"#utility.yul\":12022:12023   */\n      dup1\n        /* \"#utility.yul\":12015:12027   */\n      revert\n        /* \"#utility.yul\":11969:12029   */\n    tag_308:\n        /* \"#utility.yul\":11919:12035   */\n      pop\n      jump\t// out\n        /* \"#utility.yul\":12041:12174   */\n    tag_143:\n        /* \"#utility.yul\":12084:12089   */\n      0x00\n        /* \"#utility.yul\":12122:12128   */\n      dup2\n        /* \"#utility.yul\":12109:12129   */\n      calldataload\n        /* \"#utility.yul\":12100:12129   */\n      swap1\n      pop\n        /* \"#utility.yul\":12138:12168   */\n      tag_310\n        /* \"#utility.yul\":12162:12167   */\n      dup2\n        /* \"#utility.yul\":12138:12168   */\n      tag_142\n      jump\t// in\n    tag_310:\n        /* \"#utility.yul\":12041:12174   */\n      swap3\n      swap2\n      pop\n      pop\n      jump\t// out\n        /* \"#utility.yul\":12180:13441   */\n    tag_36:\n        /* \"#utility.yul\":12290:12296   */\n      0x00\n        /* \"#utility.yul\":12298:12304   */\n      dup1\n        /* \"#utility.yul\":12306:12312   */\n      0x00\n        /* \"#utility.yul\":12314:12320   */\n      dup1\n        /* \"#utility.yul\":12322:12328   */\n      0x00\n        /* \"#utility.yul\":12371:12374   */\n      0xa0\n        /* \"#utility.yul\":12359:12368   */\n      dup7\n        /* \"#utility.yul\":12350:12357   */\n      dup9\n        /* \"#utility.yul\":12346:12369   */\n      sub\n        /* \"#utility.yul\":12342:12375   */\n      slt\n        /* \"#utility.yul\":12339:12459   */\n      iszero\n      tag_312\n      jumpi\n        /* \"#utility.yul\":12378:12457   */\n      tag_313\n      tag_116\n      jump\t// in\n    tag_313:\n        /* \"#utility.yul\":12339:12459   */\n    tag_312:\n        /* \"#utility.yul\":12526:12527   */\n      0x00\n        /* \"#utility.yul\":12515:12524   */\n      dup7\n        /* \"#utility.yul\":12511:12528   */\n      add\n        /* \"#utility.yul\":12498:12529   */\n      calldataload\n        /* \"#utility.yul\":12556:12574   */\n      0xffffffffffffffff\n        /* \"#utility.yul\":12548:12554   */\n      dup2\n        /* \"#utility.yul\":12545:12575   */\n      gt\n        /* \"#utility.yul\":12542:12659   */\n      iszero\n      tag_314\n      jumpi\n        /* \"#utility.yul\":12578:12657   */\n      tag_315\n      tag_117\n      jump\t// in\n    tag_315:\n        /* \"#utility.yul\":12542:12659   */\n    tag_314:\n        /* \"#utility.yul\":12683:12746   */\n      tag_316\n        /* \"#utility.yul\":12738:12745   */\n      dup9\n        /* \"#utility.yul\":12729:12735   */\n      dup3\n        /* \"#utility.yul\":12718:12727   */\n      dup10\n        /* \"#utility.yul\":12714:12736   */\n      add\n        /* \"#utility.yul\":12683:12746   */\n      tag_126\n      jump\t// in\n    tag_316:\n        /* \"#utility.yul\":12673:12746   */\n      swap6\n      pop\n        /* \"#utility.yul\":12469:12756   */\n      pop\n        /* \"#utility.yul\":12795:12797   */\n      0x20\n        /* \"#utility.yul\":12821:12873   */\n      tag_317\n        /* \"#utility.yul\":12865:12872   */\n      dup9\n        /* \"#utility.yul\":12856:12862   */\n      dup3\n        /* \"#utility.yul\":12845:12854   */\n      dup10\n        /* \"#utility.yul\":12841:12863   */\n      add\n        /* \"#utility.yul\":12821:12873   */\n      tag_137\n      jump\t// in\n    tag_317:\n        /* \"#utility.yul\":12811:12873   */\n      swap5\n      pop\n        /* \"#utility.yul\":12766:12883   */\n      pop\n        /* \"#utility.yul\":12922:12924   */\n      0x40\n        /* \"#utility.yul\":12948:13000   */\n      tag_318\n        /* \"#utility.yul\":12992:12999   */\n      dup9\n        /* \"#utility.yul\":12983:12989   */\n      dup3\n        /* \"#utility.yul\":12972:12981   */\n      dup10\n        /* \"#utility.yul\":12968:12990   */\n      add\n        /* \"#utility.yul\":12948:13000   */\n      tag_140\n      jump\t// in\n    tag_318:\n        /* \"#utility.yul\":12938:13000   */\n      swap4\n      pop\n        /* \"#utility.yul\":12893:13010   */\n      pop\n        /* \"#utility.yul\":13077:13079   */\n      0x60\n        /* \"#utility.yul\":13066:13075   */\n      dup7\n        /* \"#utility.yul\":13062:13080   */\n      add\n        /* \"#utility.yul\":13049:13081   */\n      calldataload\n        /* \"#utility.yul\":13108:13126   */\n      0xffffffffffffffff\n        /* \"#utility.yul\":13100:13106   */\n      dup2\n        /* \"#utility.yul\":13097:13127   */\n      gt\n        /* \"#utility.yul\":13094:13211   */\n      iszero\n      tag_319\n      jumpi\n        /* \"#utility.yul\":13130:13209   */\n      tag_320\n      tag_117\n      jump\t// in\n    tag_320:\n        /* \"#utility.yul\":13094:13211   */\n    tag_319:\n        /* \"#utility.yul\":13235:13298   */\n      tag_321\n        /* \"#utility.yul\":13290:13297   */\n      dup9\n        /* \"#utility.yul\":13281:13287   */\n      dup3\n        /* \"#utility.yul\":13270:13279   */\n      dup10\n        /* \"#utility.yul\":13266:13288   */\n      add\n        /* \"#utility.yul\":13235:13298   */\n      tag_126\n      jump\t// in\n    tag_321:\n        /* \"#utility.yul\":13225:13298   */\n      swap3\n      pop\n        /* \"#utility.yul\":13020:13308   */\n      pop\n        /* \"#utility.yul\":13347:13350   */\n      0x80\n        /* \"#utility.yul\":13374:13424   */\n      tag_322\n        /* \"#utility.yul\":13416:13423   */\n      dup9\n        /* \"#utility.yul\":13407:13413   */\n      dup3\n        /* \"#utility.yul\":13396:13405   */\n      dup10\n        /* \"#utility.yul\":13392:13414   */\n      add\n        /* \"#utility.yul\":13374:13424   */\n      tag_143\n      jump\t// in\n    tag_322:\n        /* \"#utility.yul\":13364:13424   */\n      swap2\n      pop\n        /* \"#utility.yul\":13318:13434   */\n      pop\n        /* \"#utility.yul\":12180:13441   */\n      swap3\n      swap6\n      pop\n      swap3\n      swap6\n      swap1\n      swap4\n      pop\n      jump\t// out\n        /* \"#utility.yul\":13447:13627   */\n    tag_144:\n        /* \"#utility.yul\":13495:13572   */\n      0x4e487b7100000000000000000000000000000000000000000000000000000000\n        /* \"#utility.yul\":13492:13493   */\n      0x00\n        /* \"#utility.yul\":13485:13573   */\n      mstore\n        /* \"#utility.yul\":13592:13596   */\n      0x22\n        /* \"#utility.yul\":13589:13590   */\n      0x04\n        /* \"#utility.yul\":13582:13597   */\n      mstore\n        /* \"#utility.yul\":13616:13620   */\n      0x24\n        /* \"#utility.yul\":13613:13614   */\n      0x00\n        /* \"#utility.yul\":13606:13621   */\n      revert\n        /* \"#utility.yul\":13633:13953   */\n    tag_43:\n        /* \"#utility.yul\":13677:13683   */\n      0x00\n        /* \"#utility.yul\":13714:13715   */\n      0x02\n        /* \"#utility.yul\":13708:13712   */\n      dup3\n        /* \"#utility.yul\":13704:13716   */\n      div\n        /* \"#utility.yul\":13694:13716   */\n      swap1\n      pop\n        /* \"#utility.yul\":13761:13762   */\n      0x01\n        /* \"#utility.yul\":13755:13759   */\n      dup3\n        /* \"#utility.yul\":13751:13763   */\n      and\n        /* \"#utility.yul\":13782:13800   */\n      dup1\n        /* \"#utility.yul\":13772:13853   */\n      tag_325\n      jumpi\n        /* \"#utility.yul\":13838:13842   */\n      0x7f\n        /* \"#utility.yul\":13830:13836   */\n      dup3\n        /* \"#utility.yul\":13826:13843   */\n      and\n        /* \"#utility.yul\":13816:13843   */\n      swap2\n      pop\n        /* \"#utility.yul\":13772:13853   */\n    tag_325:\n        /* \"#utility.yul\":13900:13902   */\n      0x20\n        /* \"#utility.yul\":13892:13898   */\n      dup3\n        /* \"#utility.yul\":13889:13903   */\n      lt\n        /* \"#utility.yul\":13869:13887   */\n      dup2\n        /* \"#utility.yul\":13866:13904   */\n      sub\n        /* \"#utility.yul\":13863:13947   */\n      tag_326\n      jumpi\n        /* \"#utility.yul\":13919:13937   */\n      tag_327\n      tag_144\n      jump\t// in\n    tag_327:\n        /* \"#utility.yul\":13863:13947   */\n    tag_326:\n        /* \"#utility.yul\":13684:13953   */\n      pop\n        /* \"#utility.yul\":13633:13953   */\n      swap2\n      swap1\n      pop\n      jump\t// out\n        /* \"#utility.yul\":13959:14134   */\n    tag_145:\n        /* \"#utility.yul\":14099:14126   */\n      0x4e616d652064617266206e69636874206c656572207365696e00000000000000\n        /* \"#utility.yul\":14095:14096   */\n      0x00\n        /* \"#utility.yul\":14087:14093   */\n      dup3\n        /* \"#utility.yul\":14083:14097   */\n      add\n        /* \"#utility.yul\":14076:14127   */\n      mstore\n        /* \"#utility.yul\":13959:14134   */\n      pop\n      jump\t// out\n        /* \"#utility.yul\":14140:14506   */\n    tag_146:\n        /* \"#utility.yul\":14282:14285   */\n      0x00\n        /* \"#utility.yul\":14303:14370   */\n      tag_330\n        /* \"#utility.yul\":14367:14369   */\n      0x19\n        /* \"#utility.yul\":14362:14365   */\n      dup4\n        /* \"#utility.yul\":14303:14370   */\n      tag_132\n      jump\t// in\n    tag_330:\n        /* \"#utility.yul\":14296:14370   */\n      swap2\n      pop\n        /* \"#utility.yul\":14379:14472   */\n      tag_331\n        /* \"#utility.yul\":14468:14471   */\n      dup3\n        /* \"#utility.yul\":14379:14472   */\n      tag_145\n      jump\t// in\n    tag_331:\n        /* \"#utility.yul\":14497:14499   */\n      0x20\n        /* \"#utility.yul\":14492:14495   */\n      dup3\n        /* \"#utility.yul\":14488:14500   */\n      add\n        /* \"#utility.yul\":14481:14500   */\n      swap1\n      pop\n        /* \"#utility.yul\":14140:14506   */\n      swap2\n      swap1\n      pop\n      jump\t// out\n        /* \"#utility.yul\":14512:14931   */\n    tag_63:\n        /* \"#utility.yul\":14678:14682   */\n      0x00\n        /* \"#utility.yul\":14716:14718   */\n      0x20\n        /* \"#utility.yul\":14705:14714   */\n      dup3\n        /* \"#utility.yul\":14701:14719   */\n      add\n        /* \"#utility.yul\":14693:14719   */\n      swap1\n      pop\n        /* \"#utility.yul\":14765:14774   */\n      dup2\n        /* \"#utility.yul\":14759:14763   */\n      dup2\n        /* \"#utility.yul\":14755:14775   */\n      sub\n        /* \"#utility.yul\":14751:14752   */\n      0x00\n        /* \"#utility.yul\":14740:14749   */\n      dup4\n        /* \"#utility.yul\":14736:14753   */\n      add\n        /* \"#utility.yul\":14729:14776   */\n      mstore\n        /* \"#utility.yul\":14793:14924   */\n      tag_333\n        /* \"#utility.yul\":14919:14923   */\n      dup2\n        /* \"#utility.yul\":14793:14924   */\n      tag_146\n      jump\t// in\n    tag_333:\n        /* \"#utility.yul\":14785:14924   */\n      swap1\n      pop\n        /* \"#utility.yul\":14512:14931   */\n      swap2\n      swap1\n      pop\n      jump\t// out\n        /* \"#utility.yul\":14937:15105   */\n    tag_147:\n        /* \"#utility.yul\":15077:15097   */\n      0x4d6178696d616c203330205a65696368656e0000000000000000000000000000\n        /* \"#utility.yul\":15073:15074   */\n      0x00\n        /* \"#utility.yul\":15065:15071   */\n      dup3\n        /* \"#utility.yul\":15061:15075   */\n      add\n        /* \"#utility.yul\":15054:15098   */\n      mstore\n        /* \"#utility.yul\":14937:15105   */\n      pop\n      jump\t// out\n        /* \"#utility.yul\":15111:15477   */\n    tag_148:\n        /* \"#utility.yul\":15253:15256   */\n      0x00\n        /* \"#utility.yul\":15274:15341   */\n      tag_336\n        /* \"#utility.yul\":15338:15340   */\n      0x12\n        /* \"#utility.yul\":15333:15336   */\n      dup4\n        /* \"#utility.yul\":15274:15341   */\n      tag_132\n      jump\t// in\n    tag_336:\n        /* \"#utility.yul\":15267:15341   */\n      swap2\n      pop\n        /* \"#utility.yul\":15350:15443   */\n      tag_337\n        /* \"#utility.yul\":15439:15442   */\n      dup3\n        /* \"#utility.yul\":15350:15443   */\n      tag_147\n      jump\t// in\n    tag_337:\n        /* \"#utility.yul\":15468:15470   */\n      0x20\n        /* \"#utility.yul\":15463:15466   */\n      dup3\n        /* \"#utility.yul\":15459:15471   */\n      add\n        /* \"#utility.yul\":15452:15471   */\n      swap1\n      pop\n        /* \"#utility.yul\":15111:15477   */\n      swap2\n      swap1\n      pop\n      jump\t// out\n        /* \"#utility.yul\":15483:15902   */\n    tag_66:\n        /* \"#utility.yul\":15649:15653   */\n      0x00\n        /* \"#utility.yul\":15687:15689   */\n      0x20\n        /* \"#utility.yul\":15676:15685   */\n      dup3\n        /* \"#utility.yul\":15672:15690   */\n      add\n        /* \"#utility.yul\":15664:15690   */\n      swap1\n      pop\n        /* \"#utility.yul\":15736:15745   */\n      dup2\n        /* \"#utility.yul\":15730:15734   */\n      dup2\n        /* \"#utility.yul\":15726:15746   */\n      sub\n        /* \"#utility.yul\":15722:15723   */\n      0x00\n        /* \"#utility.yul\":15711:15720   */\n      dup4\n        /* \"#utility.yul\":15707:15724   */\n      add\n        /* \"#utility.yul\":15700:15747   */\n      mstore\n        /* \"#utility.yul\":15764:15895   */\n      tag_339\n        /* \"#utility.yul\":15890:15894   */\n      dup2\n        /* \"#utility.yul\":15764:15895   */\n      tag_148\n      jump\t// in\n    tag_339:\n        /* \"#utility.yul\":15756:15895   */\n      swap1\n      pop\n        /* \"#utility.yul\":15483:15902   */\n      swap2\n      swap1\n      pop\n      jump\t// out\n        /* \"#utility.yul\":15908:16089   */\n    tag_149:\n        /* \"#utility.yul\":16048:16081   */\n      0x416e7a61686c206d7573732067726f657373657220616c732030207365696e00\n        /* \"#utility.yul\":16044:16045   */\n      0x00\n        /* \"#utility.yul\":16036:16042   */\n      dup3\n        /* \"#utility.yul\":16032:16046   */\n      add\n        /* \"#utility.yul\":16025:16082   */\n      mstore\n        /* \"#utility.yul\":15908:16089   */\n      pop\n      jump\t// out\n        /* \"#utility.yul\":16095:16461   */\n    tag_150:\n        /* \"#utility.yul\":16237:16240   */\n      0x00\n        /* \"#utility.yul\":16258:16325   */\n      tag_342\n        /* \"#utility.yul\":16322:16324   */\n      0x1f\n        /* \"#utility.yul\":16317:16320   */\n      dup4\n        /* \"#utility.yul\":16258:16325   */\n      tag_132\n      jump\t// in\n    tag_342:\n        /* \"#utility.yul\":16251:16325   */\n      swap2\n      pop\n        /* \"#utility.yul\":16334:16427   */\n      tag_343\n        /* \"#utility.yul\":16423:16426   */\n      dup3\n        /* \"#utility.yul\":16334:16427   */\n      tag_149\n      jump\t// in\n    tag_343:\n        /* \"#utility.yul\":16452:16454   */\n      0x20\n        /* \"#utility.yul\":16447:16450   */\n      dup3\n        /* \"#utility.yul\":16443:16455   */\n      add\n        /* \"#utility.yul\":16436:16455   */\n      swap1\n      pop\n        /* \"#utility.yul\":16095:16461   */\n      swap2\n      swap1\n      pop\n      jump\t// out\n        /* \"#utility.yul\":16467:16886   */\n    tag_69:\n        /* \"#utility.yul\":16633:16637   */\n      0x00\n        /* \"#utility.yul\":16671:16673   */\n      0x20\n        /* \"#utility.yul\":16660:16669   */\n      dup3\n        /* \"#utility.yul\":16656:16674   */\n      add\n        /* \"#utility.yul\":16648:16674   */\n      swap1\n      pop\n        /* \"#utility.yul\":16720:16729   */\n      dup2\n        /* \"#utility.yul\":16714:16718   */\n      dup2\n        /* \"#utility.yul\":16710:16730   */\n      sub\n        /* \"#utility.yul\":16706:16707   */\n      0x00\n        /* \"#utility.yul\":16695:16704   */\n      dup4\n        /* \"#utility.yul\":16691:16708   */\n      add\n        /* \"#utility.yul\":16684:16731   */\n      mstore\n        /* \"#utility.yul\":16748:16879   */\n      tag_345\n        /* \"#utility.yul\":16874:16878   */\n      dup2\n        /* \"#utility.yul\":16748:16879   */\n      tag_150\n      jump\t// in\n    tag_345:\n        /* \"#utility.yul\":16740:16879   */\n      swap1\n      pop\n        /* \"#utility.yul\":16467:16886   */\n      swap2\n      swap1\n      pop\n      jump\t// out\n        /* \"#utility.yul\":16892:17113   */\n    tag_151:\n        /* \"#utility.yul\":17032:17066   */\n      0x416e7a61686c206d757373206b6c65696e657220616c73203635353335207365\n        /* \"#utility.yul\":17028:17029   */\n      0x00\n        /* \"#utility.yul\":17020:17026   */\n      dup3\n        /* \"#utility.yul\":17016:17030   */\n      add\n        /* \"#utility.yul\":17009:17067   */\n      mstore\n        /* \"#utility.yul\":17101:17105   */\n      0x696e000000000000000000000000000000000000000000000000000000000000\n        /* \"#utility.yul\":17096:17098   */\n      0x20\n        /* \"#utility.yul\":17088:17094   */\n      dup3\n        /* \"#utility.yul\":17084:17099   */\n      add\n        /* \"#utility.yul\":17077:17106   */\n      mstore\n        /* \"#utility.yul\":16892:17113   */\n      pop\n      jump\t// out\n        /* \"#utility.yul\":17119:17485   */\n    tag_152:\n        /* \"#utility.yul\":17261:17264   */\n      0x00\n        /* \"#utility.yul\":17282:17349   */\n      tag_348\n        /* \"#utility.yul\":17346:17348   */\n      0x22\n        /* \"#utility.yul\":17341:17344   */\n      dup4\n        /* \"#utility.yul\":17282:17349   */\n      tag_132\n      jump\t// in\n    tag_348:\n        /* \"#utility.yul\":17275:17349   */\n      swap2\n      pop\n        /* \"#utility.yul\":17358:17451   */\n      tag_349\n        /* \"#utility.yul\":17447:17450   */\n      dup3\n        /* \"#utility.yul\":17358:17451   */\n      tag_151\n      jump\t// in\n    tag_349:\n        /* \"#utility.yul\":17476:17478   */\n      0x40\n        /* \"#utility.yul\":17471:17474   */\n      dup3\n        /* \"#utility.yul\":17467:17479   */\n      add\n        /* \"#utility.yul\":17460:17479   */\n      swap1\n      pop\n        /* \"#utility.yul\":17119:17485   */\n      swap2\n      swap1\n      pop\n      jump\t// out\n        /* \"#utility.yul\":17491:17910   */\n    tag_72:\n        /* \"#utility.yul\":17657:17661   */\n      0x00\n        /* \"#utility.yul\":17695:17697   */\n      0x20\n        /* \"#utility.yul\":17684:17693   */\n      dup3\n        /* \"#utility.yul\":17680:17698   */\n      add\n        /* \"#utility.yul\":17672:17698   */\n      swap1\n      pop\n        /* \"#utility.yul\":17744:17753   */\n      dup2\n        /* \"#utility.yul\":17738:17742   */\n      dup2\n        /* \"#utility.yul\":17734:17754   */\n      sub\n        /* \"#utility.yul\":17730:17731   */\n      0x00\n        /* \"#utility.yul\":17719:17728   */\n      dup4\n        /* \"#utility.yul\":17715:17732   */\n      add\n        /* \"#utility.yul\":17708:17755   */\n      mstore\n        /* \"#utility.yul\":17772:17903   */\n      tag_351\n        /* \"#utility.yul\":17898:17902   */\n      dup2\n        /* \"#utility.yul\":17772:17903   */\n      tag_152\n      jump\t// in\n    tag_351:\n        /* \"#utility.yul\":17764:17903   */\n      swap1\n      pop\n        /* \"#utility.yul\":17491:17910   */\n      swap2\n      swap1\n      pop\n      jump\t// out\n        /* \"#utility.yul\":17916:18096   */\n    tag_153:\n        /* \"#utility.yul\":18056:18088   */\n      0x5072656973206d7573732067726f657373657220616c732030207365696e0000\n        /* \"#utility.yul\":18052:18053   */\n      0x00\n        /* \"#utility.yul\":18044:18050   */\n      dup3\n        /* \"#utility.yul\":18040:18054   */\n      add\n        /* \"#utility.yul\":18033:18089   */\n      mstore\n        /* \"#utility.yul\":17916:18096   */\n      pop\n      jump\t// out\n        /* \"#utility.yul\":18102:18468   */\n    tag_154:\n        /* \"#utility.yul\":18244:18247   */\n      0x00\n        /* \"#utility.yul\":18265:18332   */\n      tag_354\n        /* \"#utility.yul\":18329:18331   */\n      0x1e\n        /* \"#utility.yul\":18324:18327   */\n      dup4\n        /* \"#utility.yul\":18265:18332   */\n      tag_132\n      jump\t// in\n    tag_354:\n        /* \"#utility.yul\":18258:18332   */\n      swap2\n      pop\n        /* \"#utility.yul\":18341:18434   */\n      tag_355\n        /* \"#utility.yul\":18430:18433   */\n      dup3\n        /* \"#utility.yul\":18341:18434   */\n      tag_153\n      jump\t// in\n    tag_355:\n        /* \"#utility.yul\":18459:18461   */\n      0x20\n        /* \"#utility.yul\":18454:18457   */\n      dup3\n        /* \"#utility.yul\":18450:18462   */\n      add\n        /* \"#utility.yul\":18443:18462   */\n      swap1\n      pop\n        /* \"#utility.yul\":18102:18468   */\n      swap2\n      swap1\n      pop\n      jump\t// out\n        /* \"#utility.yul\":18474:18893   */\n    tag_75:\n        /* \"#utility.yul\":18640:18644   */\n      0x00\n        /* \"#utility.yul\":18678:18680   */\n      0x20\n        /* \"#utility.yul\":18667:18676   */\n      dup3\n        /* \"#utility.yul\":18663:18681   */\n      add\n        /* \"#utility.yul\":18655:18681   */\n      swap1\n      pop\n        /* \"#utility.yul\":18727:18736   */\n      dup2\n        /* \"#utility.yul\":18721:18725   */\n      dup2\n        /* \"#utility.yul\":18717:18737   */\n      sub\n        /* \"#utility.yul\":18713:18714   */\n      0x00\n        /* \"#utility.yul\":18702:18711   */\n      dup4\n        /* \"#utility.yul\":18698:18715   */\n      add\n        /* \"#utility.yul\":18691:18738   */\n      mstore\n        /* \"#utility.yul\":18755:18886   */\n      tag_357\n        /* \"#utility.yul\":18881:18885   */\n      dup2\n        /* \"#utility.yul\":18755:18886   */\n      tag_154\n      jump\t// in\n    tag_357:\n        /* \"#utility.yul\":18747:18886   */\n      swap1\n      pop\n        /* \"#utility.yul\":18474:18893   */\n      swap2\n      swap1\n      pop\n      jump\t// out\n        /* \"#utility.yul\":18899:19124   */\n    tag_155:\n        /* \"#utility.yul\":19039:19073   */\n      0x5072656973206d757373206b6c65696e657220616c7320343239343936373239\n        /* \"#utility.yul\":19035:19036   */\n      0x00\n        /* \"#utility.yul\":19027:19033   */\n      dup3\n        /* \"#utility.yul\":19023:19037   */\n      add\n        /* \"#utility.yul\":19016:19074   */\n      mstore\n        /* \"#utility.yul\":19108:19116   */\n      0x35207365696e0000000000000000000000000000000000000000000000000000\n        /* \"#utility.yul\":19103:19105   */\n      0x20\n        /* \"#utility.yul\":19095:19101   */\n      dup3\n        /* \"#utility.yul\":19091:19106   */\n      add\n        /* \"#utility.yul\":19084:19117   */\n      mstore\n        /* \"#utility.yul\":18899:19124   */\n      pop\n      jump\t// out\n        /* \"#utility.yul\":19130:19496   */\n    tag_156:\n        /* \"#utility.yul\":19272:19275   */\n      0x00\n        /* \"#utility.yul\":19293:19360   */\n      tag_360\n        /* \"#utility.yul\":19357:19359   */\n      0x26\n        /* \"#utility.yul\":19352:19355   */\n      dup4\n        /* \"#utility.yul\":19293:19360   */\n      tag_132\n      jump\t// in\n    tag_360:\n        /* \"#utility.yul\":19286:19360   */\n      swap2\n      pop\n        /* \"#utility.yul\":19369:19462   */\n      tag_361\n        /* \"#utility.yul\":19458:19461   */\n      dup3\n        /* \"#utility.yul\":19369:19462   */\n      tag_155\n      jump\t// in\n    tag_361:\n        /* \"#utility.yul\":19487:19489   */\n      0x40\n        /* \"#utility.yul\":19482:19485   */\n      dup3\n        /* \"#utility.yul\":19478:19490   */\n      add\n        /* \"#utility.yul\":19471:19490   */\n      swap1\n      pop\n        /* \"#utility.yul\":19130:19496   */\n      swap2\n      swap1\n      pop\n      jump\t// out\n        /* \"#utility.yul\":19502:19921   */\n    tag_78:\n        /* \"#utility.yul\":19668:19672   */\n      0x00\n        /* \"#utility.yul\":19706:19708   */\n      0x20\n        /* \"#utility.yul\":19695:19704   */\n      dup3\n        /* \"#utility.yul\":19691:19709   */\n      add\n        /* \"#utility.yul\":19683:19709   */\n      swap1\n      pop\n        /* \"#utility.yul\":19755:19764   */\n      dup2\n        /* \"#utility.yul\":19749:19753   */\n      dup2\n        /* \"#utility.yul\":19745:19765   */\n      sub\n        /* \"#utility.yul\":19741:19742   */\n      0x00\n        /* \"#utility.yul\":19730:19739   */\n      dup4\n        /* \"#utility.yul\":19726:19743   */\n      add\n        /* \"#utility.yul\":19719:19766   */\n      mstore\n        /* \"#utility.yul\":19783:19914   */\n      tag_363\n        /* \"#utility.yul\":19909:19913   */\n      dup2\n        /* \"#utility.yul\":19783:19914   */\n      tag_156\n      jump\t// in\n    tag_363:\n        /* \"#utility.yul\":19775:19914   */\n      swap1\n      pop\n        /* \"#utility.yul\":19502:19921   */\n      swap2\n      swap1\n      pop\n      jump\t// out\n        /* \"#utility.yul\":19927:20148   */\n    tag_157:\n        /* \"#utility.yul\":20067:20101   */\n      0x53636865696e4e756d6d6572206d757373203136205a69666665726e20686162\n        /* \"#utility.yul\":20063:20064   */\n      0x00\n        /* \"#utility.yul\":20055:20061   */\n      dup3\n        /* \"#utility.yul\":20051:20065   */\n      add\n        /* \"#utility.yul\":20044:20102   */\n      mstore\n        /* \"#utility.yul\":20136:20140   */\n      0x656e000000000000000000000000000000000000000000000000000000000000\n        /* \"#utility.yul\":20131:20133   */\n      0x20\n        /* \"#utility.yul\":20123:20129   */\n      dup3\n        /* \"#utility.yul\":20119:20134   */\n      add\n        /* \"#utility.yul\":20112:20141   */\n      mstore\n        /* \"#utility.yul\":19927:20148   */\n      pop\n      jump\t// out\n        /* \"#utility.yul\":20154:20520   */\n    tag_158:\n        /* \"#utility.yul\":20296:20299   */\n      0x00\n        /* \"#utility.yul\":20317:20384   */\n      tag_366\n        /* \"#utility.yul\":20381:20383   */\n      0x22\n        /* \"#utility.yul\":20376:20379   */\n      dup4\n        /* \"#utility.yul\":20317:20384   */\n      tag_132\n      jump\t// in\n    tag_366:\n        /* \"#utility.yul\":20310:20384   */\n      swap2\n      pop\n        /* \"#utility.yul\":20393:20486   */\n      tag_367\n        /* \"#utility.yul\":20482:20485   */\n      dup3\n        /* \"#utility.yul\":20393:20486   */\n      tag_157\n      jump\t// in\n    tag_367:\n        /* \"#utility.yul\":20511:20513   */\n      0x40\n        /* \"#utility.yul\":20506:20509   */\n      dup3\n        /* \"#utility.yul\":20502:20514   */\n      add\n        /* \"#utility.yul\":20495:20514   */\n      swap1\n      pop\n        /* \"#utility.yul\":20154:20520   */\n      swap2\n      swap1\n      pop\n      jump\t// out\n        /* \"#utility.yul\":20526:20945   */\n    tag_81:\n        /* \"#utility.yul\":20692:20696   */\n      0x00\n        /* \"#utility.yul\":20730:20732   */\n      0x20\n        /* \"#utility.yul\":20719:20728   */\n      dup3\n        /* \"#utility.yul\":20715:20733   */\n      add\n        /* \"#utility.yul\":20707:20733   */\n      swap1\n      pop\n        /* \"#utility.yul\":20779:20788   */\n      dup2\n        /* \"#utility.yul\":20773:20777   */\n      dup2\n        /* \"#utility.yul\":20769:20789   */\n      sub\n        /* \"#utility.yul\":20765:20766   */\n      0x00\n        /* \"#utility.yul\":20754:20763   */\n      dup4\n        /* \"#utility.yul\":20750:20767   */\n      add\n        /* \"#utility.yul\":20743:20790   */\n      mstore\n        /* \"#utility.yul\":20807:20938   */\n      tag_369\n        /* \"#utility.yul\":20933:20937   */\n      dup2\n        /* \"#utility.yul\":20807:20938   */\n      tag_158\n      jump\t// in\n    tag_369:\n        /* \"#utility.yul\":20799:20938   */\n      swap1\n      pop\n        /* \"#utility.yul\":20526:20945   */\n      swap2\n      swap1\n      pop\n      jump\t// out\n        /* \"#utility.yul\":20951:21066   */\n    tag_159:\n        /* \"#utility.yul\":21036:21059   */\n      tag_371\n        /* \"#utility.yul\":21053:21058   */\n      dup2\n        /* \"#utility.yul\":21036:21059   */\n      tag_135\n      jump\t// in\n    tag_371:\n        /* \"#utility.yul\":21031:21034   */\n      dup3\n        /* \"#utility.yul\":21024:21060   */\n      mstore\n        /* \"#utility.yul\":20951:21066   */\n      pop\n      pop\n      jump\t// out\n        /* \"#utility.yul\":21072:21187   */\n    tag_160:\n        /* \"#utility.yul\":21157:21180   */\n      tag_373\n        /* \"#utility.yul\":21174:21179   */\n      dup2\n        /* \"#utility.yul\":21157:21180   */\n      tag_138\n      jump\t// in\n    tag_373:\n        /* \"#utility.yul\":21152:21155   */\n      dup3\n        /* \"#utility.yul\":21145:21181   */\n      mstore\n        /* \"#utility.yul\":21072:21187   */\n      pop\n      pop\n      jump\t// out\n        /* \"#utility.yul\":21193:21302   */\n    tag_161:\n        /* \"#utility.yul\":21274:21295   */\n      tag_375\n        /* \"#utility.yul\":21289:21294   */\n      dup2\n        /* \"#utility.yul\":21274:21295   */\n      tag_141\n      jump\t// in\n    tag_375:\n        /* \"#utility.yul\":21269:21272   */\n      dup3\n        /* \"#utility.yul\":21262:21296   */\n      mstore\n        /* \"#utility.yul\":21193:21302   */\n      pop\n      pop\n      jump\t// out\n        /* \"#utility.yul\":21308:22245   */\n    tag_85:\n        /* \"#utility.yul\":21571:21575   */\n      0x00\n        /* \"#utility.yul\":21609:21612   */\n      0xc0\n        /* \"#utility.yul\":21598:21607   */\n      dup3\n        /* \"#utility.yul\":21594:21613   */\n      add\n        /* \"#utility.yul\":21586:21613   */\n      swap1\n      pop\n        /* \"#utility.yul\":21659:21668   */\n      dup2\n        /* \"#utility.yul\":21653:21657   */\n      dup2\n        /* \"#utility.yul\":21649:21669   */\n      sub\n        /* \"#utility.yul\":21645:21646   */\n      0x00\n        /* \"#utility.yul\":21634:21643   */\n      dup4\n        /* \"#utility.yul\":21630:21647   */\n      add\n        /* \"#utility.yul\":21623:21670   */\n      mstore\n        /* \"#utility.yul\":21687:21765   */\n      tag_377\n        /* \"#utility.yul\":21760:21764   */\n      dup2\n        /* \"#utility.yul\":21751:21757   */\n      dup10\n        /* \"#utility.yul\":21687:21765   */\n      tag_133\n      jump\t// in\n    tag_377:\n        /* \"#utility.yul\":21679:21765   */\n      swap1\n      pop\n        /* \"#utility.yul\":21775:21847   */\n      tag_378\n        /* \"#utility.yul\":21843:21845   */\n      0x20\n        /* \"#utility.yul\":21832:21841   */\n      dup4\n        /* \"#utility.yul\":21828:21846   */\n      add\n        /* \"#utility.yul\":21819:21825   */\n      dup9\n        /* \"#utility.yul\":21775:21847   */\n      tag_128\n      jump\t// in\n    tag_378:\n        /* \"#utility.yul\":21857:21927   */\n      tag_379\n        /* \"#utility.yul\":21923:21925   */\n      0x40\n        /* \"#utility.yul\":21912:21921   */\n      dup4\n        /* \"#utility.yul\":21908:21926   */\n      add\n        /* \"#utility.yul\":21899:21905   */\n      dup8\n        /* \"#utility.yul\":21857:21927   */\n      tag_159\n      jump\t// in\n    tag_379:\n        /* \"#utility.yul\":21937:22007   */\n      tag_380\n        /* \"#utility.yul\":22003:22005   */\n      0x60\n        /* \"#utility.yul\":21992:22001   */\n      dup4\n        /* \"#utility.yul\":21988:22006   */\n      add\n        /* \"#utility.yul\":21979:21985   */\n      dup7\n        /* \"#utility.yul\":21937:22007   */\n      tag_160\n      jump\t// in\n    tag_380:\n        /* \"#utility.yul\":22055:22064   */\n      dup2\n        /* \"#utility.yul\":22049:22053   */\n      dup2\n        /* \"#utility.yul\":22045:22065   */\n      sub\n        /* \"#utility.yul\":22039:22042   */\n      0x80\n        /* \"#utility.yul\":22028:22037   */\n      dup4\n        /* \"#utility.yul\":22024:22043   */\n      add\n        /* \"#utility.yul\":22017:22066   */\n      mstore\n        /* \"#utility.yul\":22083:22161   */\n      tag_381\n        /* \"#utility.yul\":22156:22160   */\n      dup2\n        /* \"#utility.yul\":22147:22153   */\n      dup6\n        /* \"#utility.yul\":22083:22161   */\n      tag_133\n      jump\t// in\n    tag_381:\n        /* \"#utility.yul\":22075:22161   */\n      swap1\n      pop\n        /* \"#utility.yul\":22171:22238   */\n      tag_382\n        /* \"#utility.yul\":22233:22236   */\n      0xa0\n        /* \"#utility.yul\":22222:22231   */\n      dup4\n        /* \"#utility.yul\":22218:22237   */\n      add\n        /* \"#utility.yul\":22209:22215   */\n      dup5\n        /* \"#utility.yul\":22171:22238   */\n      tag_161\n      jump\t// in\n    tag_382:\n        /* \"#utility.yul\":21308:22245   */\n      swap8\n      swap7\n      pop\n      pop\n      pop\n      pop\n      pop\n      pop\n      pop\n      jump\t// out\n        /* \"#utility.yul\":22251:22392   */\n    tag_162:\n        /* \"#utility.yul\":22300:22304   */\n      0x00\n        /* \"#utility.yul\":22323:22326   */\n      dup2\n        /* \"#utility.yul\":22315:22326   */\n      swap1\n      pop\n        /* \"#utility.yul\":22346:22349   */\n      dup2\n        /* \"#utility.yul\":22343:22344   */\n      0x00\n        /* \"#utility.yul\":22336:22350   */\n      mstore\n        /* \"#utility.yul\":22380:22384   */\n      0x20\n        /* \"#utility.yul\":22377:22378   */\n      0x00\n        /* \"#utility.yul\":22367:22385   */\n      keccak256\n        /* \"#utility.yul\":22359:22385   */\n      swap1\n      pop\n        /* \"#utility.yul\":22251:22392   */\n      swap2\n      swap1\n      pop\n      jump\t// out\n        /* \"#utility.yul\":22398:22491   */\n    tag_163:\n        /* \"#utility.yul\":22435:22441   */\n      0x00\n        /* \"#utility.yul\":22482:22484   */\n      0x20\n        /* \"#utility.yul\":22477:22479   */\n      0x1f\n        /* \"#utility.yul\":22470:22475   */\n      dup4\n        /* \"#utility.yul\":22466:22480   */\n      add\n        /* \"#utility.yul\":22462:22485   */\n      div\n        /* \"#utility.yul\":22452:22485   */\n      swap1\n      pop\n        /* \"#utility.yul\":22398:22491   */\n      swap2\n      swap1\n      pop\n      jump\t// out\n        /* \"#utility.yul\":22497:22604   */\n    tag_164:\n        /* \"#utility.yul\":22541:22549   */\n      0x00\n        /* \"#utility.yul\":22591:22596   */\n      dup3\n        /* \"#utility.yul\":22585:22589   */\n      dup3\n        /* \"#utility.yul\":22581:22597   */\n      shl\n        /* \"#utility.yul\":22560:22597   */\n      swap1\n      pop\n        /* \"#utility.yul\":22497:22604   */\n      swap3\n      swap2\n      pop\n      pop\n      jump\t// out\n        /* \"#utility.yul\":22610:23003   */\n    tag_165:\n        /* \"#utility.yul\":22679:22685   */\n      0x00\n        /* \"#utility.yul\":22729:22730   */\n      0x08\n        /* \"#utility.yul\":22717:22727   */\n      dup4\n        /* \"#utility.yul\":22713:22731   */\n      mul\n        /* \"#utility.yul\":22752:22849   */\n      tag_387\n        /* \"#utility.yul\":22782:22848   */\n      0xffffffffffffffffffffffffffffffffffffffffffffffffffffffffffffffff\n        /* \"#utility.yul\":22771:22780   */\n      dup3\n        /* \"#utility.yul\":22752:22849   */\n      tag_164\n      jump\t// in\n    tag_387:\n        /* \"#utility.yul\":22870:22909   */\n      tag_388\n        /* \"#utility.yul\":22900:22908   */\n      dup7\n        /* \"#utility.yul\":22889:22898   */\n      dup4\n        /* \"#utility.yul\":22870:22909   */\n      tag_164\n      jump\t// in\n    tag_388:\n        /* \"#utility.yul\":22858:22909   */\n      swap6\n      pop\n        /* \"#utility.yul\":22942:22946   */\n      dup1\n        /* \"#utility.yul\":22938:22947   */\n      not\n        /* \"#utility.yul\":22931:22936   */\n      dup5\n        /* \"#utility.yul\":22927:22948   */\n      and\n        /* \"#utility.yul\":22918:22948   */\n      swap4\n      pop\n        /* \"#utility.yul\":22991:22995   */\n      dup1\n        /* \"#utility.yul\":22981:22989   */\n      dup7\n        /* \"#utility.yul\":22977:22996   */\n      and\n        /* \"#utility.yul\":22970:22975   */\n      dup5\n        /* \"#utility.yul\":22967:22997   */\n      or\n        /* \"#utility.yul\":22957:22997   */\n      swap3\n      pop\n        /* \"#utility.yul\":22686:23003   */\n      pop\n      pop\n        /* \"#utility.yul\":22610:23003   */\n      swap4\n      swap3\n      pop\n      pop\n      pop\n      jump\t// out\n        /* \"#utility.yul\":23009:23069   */\n    tag_166:\n        /* \"#utility.yul\":23037:23040   */\n      0x00\n        /* \"#utility.yul\":23058:23063   */\n      dup2\n        /* \"#utility.yul\":23051:23063   */\n      swap1\n      pop\n        /* \"#utility.yul\":23009:23069   */\n      swap2\n      swap1\n      pop\n      jump\t// out\n        /* \"#utility.yul\":23075:23217   */\n    tag_167:\n        /* \"#utility.yul\":23125:23134   */\n      0x00\n        /* \"#utility.yul\":23158:23211   */\n      tag_391\n        /* \"#utility.yul\":23176:23210   */\n      tag_392\n        /* \"#utility.yul\":23185:23209   */\n      tag_393\n        /* \"#utility.yul\":23203:23208   */\n      dup5\n        /* \"#utility.yul\":23185:23209   */\n      tag_129\n      jump\t// in\n    tag_393:\n        /* \"#utility.yul\":23176:23210   */\n      tag_166\n      jump\t// in\n    tag_392:\n        /* \"#utility.yul\":23158:23211   */\n      tag_129\n      jump\t// in\n    tag_391:\n        /* \"#utility.yul\":23145:23211   */\n      swap1\n      pop\n        /* \"#utility.yul\":23075:23217   */\n      swap2\n      swap1\n      pop\n      jump\t// out\n        /* \"#utility.yul\":23223:23298   */\n    tag_168:\n        /* \"#utility.yul\":23266:23269   */\n      0x00\n        /* \"#utility.yul\":23287:23292   */\n      dup2\n        /* \"#utility.yul\":23280:23292   */\n      swap1\n      pop\n        /* \"#utility.yul\":23223:23298   */\n      swap2\n      swap1\n      pop\n      jump\t// out\n        /* \"#utility.yul\":23304:23573   */\n    tag_169:\n        /* \"#utility.yul\":23414:23453   */\n      tag_396\n        /* \"#utility.yul\":23445:23452   */\n      dup4\n        /* \"#utility.yul\":23414:23453   */\n      tag_167\n      jump\t// in\n    tag_396:\n        /* \"#utility.yul\":23475:23566   */\n      tag_397\n        /* \"#utility.yul\":23524:23565   */\n      tag_398\n        /* \"#utility.yul\":23548:23564   */\n      dup3\n        /* \"#utility.yul\":23524:23565   */\n      tag_168\n      jump\t// in\n    tag_398:\n        /* \"#utility.yul\":23516:23522   */\n      dup5\n        /* \"#utility.yul\":23509:23513   */\n      dup5\n        /* \"#utility.yul\":23503:23514   */\n      sload\n        /* \"#utility.yul\":23475:23566   */\n      tag_165\n      jump\t// in\n    tag_397:\n        /* \"#utility.yul\":23469:23473   */\n      dup3\n        /* \"#utility.yul\":23462:23567   */\n      sstore\n        /* \"#utility.yul\":23380:23573   */\n      pop\n        /* \"#utility.yul\":23304:23573   */\n      pop\n      pop\n      pop\n      jump\t// out\n        /* \"#utility.yul\":23579:23652   */\n    tag_170:\n        /* \"#utility.yul\":23624:23627   */\n      0x00\n        /* \"#utility.yul\":23579:23652   */\n      swap1\n      jump\t// out\n        /* \"#utility.yul\":23658:23847   */\n    tag_171:\n        /* \"#utility.yul\":23735:23767   */\n      tag_401\n      tag_170\n      jump\t// in\n    tag_401:\n        /* \"#utility.yul\":23776:23841   */\n      tag_402\n        /* \"#utility.yul\":23834:23840   */\n      dup2\n        /* \"#utility.yul\":23826:23832   */\n      dup5\n        /* \"#utility.yul\":23820:23824   */\n      dup5\n        /* \"#utility.yul\":23776:23841   */\n      tag_169\n      jump\t// in\n    tag_402:\n        /* \"#utility.yul\":23711:23847   */\n      pop\n        /* \"#utility.yul\":23658:23847   */\n      pop\n      pop\n      jump\t// out\n        /* \"#utility.yul\":23853:24039   */\n    tag_172:\n        /* \"#utility.yul\":23913:24033   */\n    tag_404:\n        /* \"#utility.yul\":23930:23933   */\n      dup2\n        /* \"#utility.yul\":23923:23928   */\n      dup2\n        /* \"#utility.yul\":23920:23934   */\n      lt\n        /* \"#utility.yul\":23913:24033   */\n      iszero\n      tag_406\n      jumpi\n        /* \"#utility.yul\":23984:24023   */\n      tag_407\n        /* \"#utility.yul\":24021:24022   */\n      0x00\n        /* \"#utility.yul\":24014:24019   */\n      dup3\n        /* \"#utility.yul\":23984:24023   */\n      tag_171\n      jump\t// in\n    tag_407:\n        /* \"#utility.yul\":23957:23958   */\n      0x01\n        /* \"#utility.yul\":23950:23955   */\n      dup2\n        /* \"#utility.yul\":23946:23959   */\n      add\n        /* \"#utility.yul\":23937:23959   */\n      swap1\n      pop\n        /* \"#utility.yul\":23913:24033   */\n      jump(tag_404)\n    tag_406:\n        /* \"#utility.yul\":23853:24039   */\n      pop\n      pop\n      jump\t// out\n        /* \"#utility.yul\":24045:24588   */\n    tag_173:\n        /* \"#utility.yul\":24146:24148   */\n      0x1f\n        /* \"#utility.yul\":24141:24144   */\n      dup3\n        /* \"#utility.yul\":24138:24149   */\n      gt\n        /* \"#utility.yul\":24135:24581   */\n      iszero\n      tag_409\n      jumpi\n        /* \"#utility.yul\":24180:24218   */\n      tag_410\n        /* \"#utility.yul\":24212:24217   */\n      dup2\n        /* \"#utility.yul\":24180:24218   */\n      tag_162\n      jump\t// in\n    tag_410:\n        /* \"#utility.yul\":24264:24293   */\n      tag_411\n        /* \"#utility.yul\":24282:24292   */\n      dup5\n        /* \"#utility.yul\":24264:24293   */\n      tag_163\n      jump\t// in\n    tag_411:\n        /* \"#utility.yul\":24254:24262   */\n      dup2\n        /* \"#utility.yul\":24250:24294   */\n      add\n        /* \"#utility.yul\":24447:24449   */\n      0x20\n        /* \"#utility.yul\":24435:24445   */\n      dup6\n        /* \"#utility.yul\":24432:24450   */\n      lt\n        /* \"#utility.yul\":24429:24478   */\n      iszero\n      tag_412\n      jumpi\n        /* \"#utility.yul\":24468:24476   */\n      dup2\n        /* \"#utility.yul\":24453:24476   */\n      swap1\n      pop\n        /* \"#utility.yul\":24429:24478   */\n    tag_412:\n        /* \"#utility.yul\":24491:24571   */\n      tag_413\n        /* \"#utility.yul\":24547:24569   */\n      tag_414\n        /* \"#utility.yul\":24565:24568   */\n      dup6\n        /* \"#utility.yul\":24547:24569   */\n      tag_163\n      jump\t// in\n    tag_414:\n        /* \"#utility.yul\":24537:24545   */\n      dup4\n        /* \"#utility.yul\":24533:24570   */\n      add\n        /* \"#utility.yul\":24520:24531   */\n      dup3\n        /* \"#utility.yul\":24491:24571   */\n      tag_172\n      jump\t// in\n    tag_413:\n        /* \"#utility.yul\":24150:24581   */\n      pop\n      pop\n        /* \"#utility.yul\":24135:24581   */\n    tag_409:\n        /* \"#utility.yul\":24045:24588   */\n      pop\n      pop\n      pop\n      jump\t// out\n        /* \"#utility.yul\":24594:24711   */\n    tag_174:\n        /* \"#utility.yul\":24648:24656   */\n      0x00\n        /* \"#utility.yul\":24698:24703   */\n      dup3\n        /* \"#utility.yul\":24692:24696   */\n      dup3\n        /* \"#utility.yul\":24688:24704   */\n      shr\n        /* \"#utility.yul\":24667:24704   */\n      swap1\n      pop\n        /* \"#utility.yul\":24594:24711   */\n      swap3\n      swap2\n      pop\n      pop\n      jump\t// out\n        /* \"#utility.yul\":24717:24886   */\n    tag_175:\n        /* \"#utility.yul\":24761:24767   */\n      0x00\n        /* \"#utility.yul\":24794:24845   */\n      tag_417\n        /* \"#utility.yul\":24842:24843   */\n      0x00\n        /* \"#utility.yul\":24838:24844   */\n      not\n        /* \"#utility.yul\":24830:24835   */\n      dup5\n        /* \"#utility.yul\":24827:24828   */\n      0x08\n        /* \"#utility.yul\":24823:24836   */\n      mul\n        /* \"#utility.yul\":24794:24845   */\n      tag_174\n      jump\t// in\n    tag_417:\n        /* \"#utility.yul\":24790:24846   */\n      not\n        /* \"#utility.yul\":24875:24879   */\n      dup1\n        /* \"#utility.yul\":24869:24873   */\n      dup4\n        /* \"#utility.yul\":24865:24880   */\n      and\n        /* \"#utility.yul\":24855:24880   */\n      swap2\n      pop\n        /* \"#utility.yul\":24768:24886   */\n      pop\n        /* \"#utility.yul\":24717:24886   */\n      swap3\n      swap2\n      pop\n      pop\n      jump\t// out\n        /* \"#utility.yul\":24891:25186   */\n    tag_176:\n        /* \"#utility.yul\":24967:24971   */\n      0x00\n        /* \"#utility.yul\":25113:25142   */\n      tag_419\n        /* \"#utility.yul\":25138:25141   */\n      dup4\n        /* \"#utility.yul\":25132:25136   */\n      dup4\n        /* \"#utility.yul\":25113:25142   */\n      tag_175\n      jump\t// in\n    tag_419:\n        /* \"#utility.yul\":25105:25142   */\n      swap2\n      pop\n        /* \"#utility.yul\":25175:25178   */\n      dup3\n        /* \"#utility.yul\":25172:25173   */\n      0x02\n        /* \"#utility.yul\":25168:25179   */\n      mul\n        /* \"#utility.yul\":25162:25166   */\n      dup3\n        /* \"#utility.yul\":25159:25180   */\n      or\n        /* \"#utility.yul\":25151:25180   */\n      swap1\n      pop\n        /* \"#utility.yul\":24891:25186   */\n      swap3\n      swap2\n      pop\n      pop\n      jump\t// out\n        /* \"#utility.yul\":25191:26586   */\n    tag_90:\n        /* \"#utility.yul\":25308:25345   */\n      tag_421\n        /* \"#utility.yul\":25341:25344   */\n      dup3\n        /* \"#utility.yul\":25308:25345   */\n      tag_98\n      jump\t// in\n    tag_421:\n        /* \"#utility.yul\":25410:25428   */\n      0xffffffffffffffff\n        /* \"#utility.yul\":25402:25408   */\n      dup2\n        /* \"#utility.yul\":25399:25429   */\n      gt\n        /* \"#utility.yul\":25396:25452   */\n      iszero\n      tag_422\n      jumpi\n        /* \"#utility.yul\":25432:25450   */\n      tag_423\n      tag_120\n      jump\t// in\n    tag_423:\n        /* \"#utility.yul\":25396:25452   */\n    tag_422:\n        /* \"#utility.yul\":25476:25514   */\n      tag_424\n        /* \"#utility.yul\":25508:25512   */\n      dup3\n        /* \"#utility.yul\":25502:25513   */\n      sload\n        /* \"#utility.yul\":25476:25514   */\n      tag_43\n      jump\t// in\n    tag_424:\n        /* \"#utility.yul\":25561:25628   */\n      tag_425\n        /* \"#utility.yul\":25621:25627   */\n      dup3\n        /* \"#utility.yul\":25613:25619   */\n      dup3\n        /* \"#utility.yul\":25607:25611   */\n      dup6\n        /* \"#utility.yul\":25561:25628   */\n      tag_173\n      jump\t// in\n    tag_425:\n        /* \"#utility.yul\":25655:25656   */\n      0x00\n        /* \"#utility.yul\":25679:25683   */\n      0x20\n        /* \"#utility.yul\":25666:25683   */\n      swap1\n      pop\n        /* \"#utility.yul\":25711:25713   */\n      0x1f\n        /* \"#utility.yul\":25703:25709   */\n      dup4\n        /* \"#utility.yul\":25700:25714   */\n      gt\n        /* \"#utility.yul\":25728:25729   */\n      0x01\n        /* \"#utility.yul\":25723:26341   */\n      dup2\n      eq\n      tag_427\n      jumpi\n        /* \"#utility.yul\":26385:26386   */\n      0x00\n        /* \"#utility.yul\":26402:26408   */\n      dup5\n        /* \"#utility.yul\":26399:26476   */\n      iszero\n      tag_428\n      jumpi\n        /* \"#utility.yul\":26451:26460   */\n      dup3\n        /* \"#utility.yul\":26446:26449   */\n      dup8\n        /* \"#utility.yul\":26442:26461   */\n      add\n        /* \"#utility.yul\":26436:26462   */\n      mload\n        /* \"#utility.yul\":26427:26462   */\n      swap1\n      pop\n        /* \"#utility.yul\":26399:26476   */\n    tag_428:\n        /* \"#utility.yul\":26502:26569   */\n      tag_429\n        /* \"#utility.yul\":26562:26568   */\n      dup6\n        /* \"#utility.yul\":26555:26560   */\n      dup3\n        /* \"#utility.yul\":26502:26569   */\n      tag_176\n      jump\t// in\n    tag_429:\n        /* \"#utility.yul\":26496:26500   */\n      dup7\n        /* \"#utility.yul\":26489:26570   */\n      sstore\n        /* \"#utility.yul\":26358:26580   */\n      pop\n        /* \"#utility.yul\":25693:26580   */\n      jump(tag_426)\n        /* \"#utility.yul\":25723:26341   */\n    tag_427:\n        /* \"#utility.yul\":25775:25779   */\n      0x1f\n        /* \"#utility.yul\":25771:25780   */\n      not\n        /* \"#utility.yul\":25763:25769   */\n      dup5\n        /* \"#utility.yul\":25759:25781   */\n      and\n        /* \"#utility.yul\":25809:25846   */\n      tag_430\n        /* \"#utility.yul\":25841:25845   */\n      dup7\n        /* \"#utility.yul\":25809:25846   */\n      tag_162\n      jump\t// in\n    tag_430:\n        /* \"#utility.yul\":25868:25869   */\n      0x00\n        /* \"#utility.yul\":25882:26090   */\n    tag_431:\n        /* \"#utility.yul\":25896:25903   */\n      dup3\n        /* \"#utility.yul\":25893:25894   */\n      dup2\n        /* \"#utility.yul\":25890:25904   */\n      lt\n        /* \"#utility.yul\":25882:26090   */\n      iszero\n      tag_433\n      jumpi\n        /* \"#utility.yul\":25975:25984   */\n      dup5\n        /* \"#utility.yul\":25970:25973   */\n      dup10\n        /* \"#utility.yul\":25966:25985   */\n      add\n        /* \"#utility.yul\":25960:25986   */\n      mload\n        /* \"#utility.yul\":25952:25958   */\n      dup3\n        /* \"#utility.yul\":25945:25987   */\n      sstore\n        /* \"#utility.yul\":26026:26027   */\n      0x01\n        /* \"#utility.yul\":26018:26024   */\n      dup3\n        /* \"#utility.yul\":26014:26028   */\n      add\n        /* \"#utility.yul\":26004:26028   */\n      swap2\n      pop\n        /* \"#utility.yul\":26073:26075   */\n      0x20\n        /* \"#utility.yul\":26062:26071   */\n      dup6\n        /* \"#utility.yul\":26058:26076   */\n      add\n        /* \"#utility.yul\":26045:26076   */\n      swap5\n      pop\n        /* \"#utility.yul\":25919:25923   */\n      0x20\n        /* \"#utility.yul\":25916:25917   */\n      dup2\n        /* \"#utility.yul\":25912:25924   */\n      add\n        /* \"#utility.yul\":25907:25924   */\n      swap1\n      pop\n        /* \"#utility.yul\":25882:26090   */\n      jump(tag_431)\n    tag_433:\n        /* \"#utility.yul\":26118:26124   */\n      dup7\n        /* \"#utility.yul\":26109:26116   */\n      dup4\n        /* \"#utility.yul\":26106:26125   */\n      lt\n        /* \"#utility.yul\":26103:26282   */\n      iszero\n      tag_434\n      jumpi\n        /* \"#utility.yul\":26176:26185   */\n      dup5\n        /* \"#utility.yul\":26171:26174   */\n      dup10\n        /* \"#utility.yul\":26167:26186   */\n      add\n        /* \"#utility.yul\":26161:26187   */\n      mload\n        /* \"#utility.yul\":26219:26267   */\n      tag_435\n        /* \"#utility.yul\":26261:26265   */\n      0x1f\n        /* \"#utility.yul\":26253:26259   */\n      dup10\n        /* \"#utility.yul\":26249:26266   */\n      and\n        /* \"#utility.yul\":26238:26247   */\n      dup3\n        /* \"#utility.yul\":26219:26267   */\n      tag_175\n      jump\t// in\n    tag_435:\n        /* \"#utility.yul\":26211:26217   */\n      dup4\n        /* \"#utility.yul\":26204:26268   */\n      sstore\n        /* \"#utility.yul\":26126:26282   */\n      pop\n        /* \"#utility.yul\":26103:26282   */\n    tag_434:\n        /* \"#utility.yul\":26328:26329   */\n      0x01\n        /* \"#utility.yul\":26324:26325   */\n      0x02\n        /* \"#utility.yul\":26316:26322   */\n      dup9\n        /* \"#utility.yul\":26312:26326   */\n      mul\n        /* \"#utility.yul\":26308:26330   */\n      add\n        /* \"#utility.yul\":26302:26306   */\n      dup9\n        /* \"#utility.yul\":26295:26331   */\n      sstore\n        /* \"#utility.yul\":25730:26341   */\n      pop\n      pop\n      pop\n        /* \"#utility.yul\":25693:26580   */\n    tag_426:\n      pop\n        /* \"#utility.yul\":25283:26586   */\n      pop\n      pop\n      pop\n        /* \"#utility.yul\":25191:26586   */\n      pop\n      pop\n      jump\t// out\n        /* \"#utility.yul\":26592:26740   */\n    tag_177:\n        /* \"#utility.yul\":26694:26705   */\n      0x00\n        /* \"#utility.yul\":26731:26734   */\n      dup2\n        /* \"#utility.yul\":26716:26734   */\n      swap1\n      pop\n        /* \"#utility.yul\":26592:26740   */\n      swap3\n      swap2\n      pop\n      pop\n      jump\t// out\n        /* \"#utility.yul\":26746:27136   */\n    tag_178:\n        /* \"#utility.yul\":26852:26855   */\n      0x00\n        /* \"#utility.yul\":26880:26919   */\n      tag_438\n        /* \"#utility.yul\":26913:26918   */\n      dup3\n        /* \"#utility.yul\":26880:26919   */\n      tag_98\n      jump\t// in\n    tag_438:\n        /* \"#utility.yul\":26935:27024   */\n      tag_439\n        /* \"#utility.yul\":27017:27023   */\n      dup2\n        /* \"#utility.yul\":27012:27015   */\n      dup6\n        /* \"#utility.yul\":26935:27024   */\n      tag_177\n      jump\t// in\n    tag_439:\n        /* \"#utility.yul\":26928:27024   */\n      swap4\n      pop\n        /* \"#utility.yul\":27033:27098   */\n      tag_440\n        /* \"#utility.yul\":27091:27097   */\n      dup2\n        /* \"#utility.yul\":27086:27089   */\n      dup6\n        /* \"#utility.yul\":27079:27083   */\n      0x20\n        /* \"#utility.yul\":27072:27077   */\n      dup7\n        /* \"#utility.yul\":27068:27084   */\n      add\n        /* \"#utility.yul\":27033:27098   */\n      tag_100\n      jump\t// in\n    tag_440:\n        /* \"#utility.yul\":27123:27129   */\n      dup1\n        /* \"#utility.yul\":27118:27121   */\n      dup5\n        /* \"#utility.yul\":27114:27130   */\n      add\n        /* \"#utility.yul\":27107:27130   */\n      swap2\n      pop\n        /* \"#utility.yul\":26856:27136   */\n      pop\n        /* \"#utility.yul\":26746:27136   */\n      swap3\n      swap2\n      pop\n      pop\n      jump\t// out\n        /* \"#utility.yul\":27142:27417   */\n    tag_92:\n        /* \"#utility.yul\":27274:27277   */\n      0x00\n        /* \"#utility.yul\":27296:27391   */\n      tag_442\n        /* \"#utility.yul\":27387:27390   */\n      dup3\n        /* \"#utility.yul\":27378:27384   */\n      dup5\n        /* \"#utility.yul\":27296:27391   */\n      tag_178\n      jump\t// in\n    tag_442:\n        /* \"#utility.yul\":27289:27391   */\n      swap2\n      pop\n        /* \"#utility.yul\":27408:27411   */\n      dup2\n        /* \"#utility.yul\":27401:27411   */\n      swap1\n      pop\n        /* \"#utility.yul\":27142:27417   */\n      swap3\n      swap2\n      pop\n      pop\n      jump\t// out\n        /* \"#utility.yul\":27423:27846   */\n    tag_94:\n        /* \"#utility.yul\":27564:27568   */\n      0x00\n        /* \"#utility.yul\":27602:27604   */\n      0x40\n        /* \"#utility.yul\":27591:27600   */\n      dup3\n        /* \"#utility.yul\":27587:27605   */\n      add\n        /* \"#utility.yul\":27579:27605   */\n      swap1\n      pop\n        /* \"#utility.yul\":27615:27686   */\n      tag_444\n        /* \"#utility.yul\":27683:27684   */\n      0x00\n        /* \"#utility.yul\":27672:27681   */\n      dup4\n        /* \"#utility.yul\":27668:27685   */\n      add\n        /* \"#utility.yul\":27659:27665   */\n      dup6\n        /* \"#utility.yul\":27615:27686   */\n      tag_128\n      jump\t// in\n    tag_444:\n        /* \"#utility.yul\":27733:27742   */\n      dup2\n        /* \"#utility.yul\":27727:27731   */\n      dup2\n        /* \"#utility.yul\":27723:27743   */\n      sub\n        /* \"#utility.yul\":27718:27720   */\n      0x20\n        /* \"#utility.yul\":27707:27716   */\n      dup4\n        /* \"#utility.yul\":27703:27721   */\n      add\n        /* \"#utility.yul\":27696:27744   */\n      mstore\n        /* \"#utility.yul\":27761:27839   */\n      tag_445\n        /* \"#utility.yul\":27834:27838   */\n      dup2\n        /* \"#utility.yul\":27825:27831   */\n      dup5\n        /* \"#utility.yul\":27761:27839   */\n      tag_133\n      jump\t// in\n    tag_445:\n        /* \"#utility.yul\":27753:27839   */\n      swap1\n      pop\n        /* \"#utility.yul\":27423:27846   */\n      swap4\n      swap3\n      pop\n      pop\n      pop\n      jump\t// out\n    stop\n\n    sub_0: assembly {\n            /* \"Lottogemeinschaft.sol\":1709:7225  contract Lottogemeinschaft {... */\n          mstore(0x40, 0x80)\n            /* \"Lottogemeinschaft.sol\":2233:2234  0 */\n          0x00\n            /* \"Lottogemeinschaft.sol\":2199:2234  uint public gewinnProMitspieler = 0 */\n          0x09\n          sstore\n            /* \"Lottogemeinschaft.sol\":2277:2282  false */\n          0x00\n            /* \"Lottogemeinschaft.sol\":2240:2282  bool public gewinnKannAbgeholtWerden=false */\n          0x0a\n          exp(0x0100, 0x00)\n          dup2\n          sload\n          dup2\n          0xff\n          mul\n          not\n          and\n          swap1\n          dup4\n          iszero\n          iszero\n          mul\n          or\n          swap1\n          sstore\n          pop\n            /* \"Lottogemeinschaft.sol\":2322:2327  false */\n          0x00\n            /* \"Lottogemeinschaft.sol\":2288:2327  bool public nurErlaubteMitspieler=false */\n          0x0a\n          exp(0x0100, 0x01)\n          dup2\n          sload\n          dup2\n          0xff\n          mul\n          not\n          and\n          swap1\n          dup4\n          iszero\n          iszero\n          mul\n          or\n          swap1\n          sstore\n          pop\n            /* \"Lottogemeinschaft.sol\":2444:3088  constructor (string memory name, address ersteller, uint16 anzahl, uint32 preis, string memory scheinNummer, bool mitspielerBestimmen) {... */\n          callvalue\n          dup1\n          iszero\n          tag_1\n          jumpi\n          0x00\n          dup1\n          revert\n        tag_1:\n          pop\n          mload(0x40)\n          sub(codesize, bytecodeSize)\n          dup1\n          bytecodeSize\n          dup4\n          codecopy\n          dup2\n          dup2\n          add\n          0x40\n          mstore\n          dup2\n          add\n          swap1\n          tag_2\n          swap2\n          swap1\n          tag_3\n          jump\t// in\n        tag_2:\n            /* \"Lottogemeinschaft.sol\":2606:2611  65535 */\n          0xffff\n            /* \"Lottogemeinschaft.sol\":2597:2603  anzahl */\n          dup5\n            /* \"Lottogemeinschaft.sol\":2597:2611  anzahl < 65535 */\n          0xffff\n          and\n          lt\n            /* \"Lottogemeinschaft.sol\":2589:2648  require(anzahl < 65535, \"Maximal 65534 Mitspieler erlaubt\") */\n          tag_6\n          jumpi\n          mload(0x40)\n          0x08c379a000000000000000000000000000000000000000000000000000000000\n          dup2\n          mstore\n          0x04\n          add\n          tag_7\n          swap1\n          tag_8\n          jump\t// in\n        tag_7:\n          mload(0x40)\n          dup1\n          swap2\n          sub\n          swap1\n          revert\n        tag_6:\n            /* \"Lottogemeinschaft.sol\":2674:2684  4294967295 */\n          0xffffffff\n            /* \"Lottogemeinschaft.sol\":2666:2671  preis */\n          dup4\n            /* \"Lottogemeinschaft.sol\":2666:2684  preis < 4294967295 */\n          0xffffffff\n          and\n          lt\n            /* \"Lottogemeinschaft.sol\":2658:2715  require(preis < 4294967295, \"Maximaler Preis 4294967295\") */\n          tag_9\n          jumpi\n          mload(0x40)\n          0x08c379a000000000000000000000000000000000000000000000000000000000\n          dup2\n          mstore\n          0x04\n          add\n          tag_10\n          swap1\n          tag_11\n          jump\t// in\n        tag_10:\n          mload(0x40)\n          dup1\n          swap2\n          sub\n          swap1\n          revert\n        tag_9:\n            /* \"Lottogemeinschaft.sol\":2736:2745  ersteller */\n          dup5\n            /* \"Lottogemeinschaft.sol\":2725:2733  gruender */\n          0x00\n          dup1\n            /* \"Lottogemeinschaft.sol\":2725:2745  gruender = ersteller */\n          0x0100\n          exp\n          dup2\n          sload\n          dup2\n          0xffffffffffffffffffffffffffffffffffffffff\n          mul\n          not\n          and\n          swap1\n          dup4\n          0xffffffffffffffffffffffffffffffffffffffff\n          and\n          mul\n          or\n          swap1\n          sstore\n          pop\n            /* \"Lottogemeinschaft.sol\":2779:2783  name */\n          dup6\n            /* \"Lottogemeinschaft.sol\":2755:2776  tippgemeinschaftsName */\n          0x01\n            /* \"Lottogemeinschaft.sol\":2755:2783  tippgemeinschaftsName = name */\n          swap1\n          dup2\n          tag_12\n          swap2\n          swap1\n          tag_13\n          jump\t// in\n        tag_12:\n          pop\n            /* \"Lottogemeinschaft.sol\":2815:2821  anzahl */\n          dup4\n            /* \"Lottogemeinschaft.sol\":2793:2812  maxTeilnehmerAnzahl */\n          0x02\n          0x00\n            /* \"Lottogemeinschaft.sol\":2793:2821  maxTeilnehmerAnzahl = anzahl */\n          0x0100\n          exp\n          dup2\n          sload\n          dup2\n          0xffff\n          mul\n          not\n          and\n          swap1\n          dup4\n          0xffff\n          and\n          mul\n          or\n          swap1\n          sstore\n          pop\n            /* \"Lottogemeinschaft.sol\":2850:2855  preis */\n          dup3\n            /* \"Lottogemeinschaft.sol\":2831:2847  preisLottoschein */\n          0x02\n          dup1\n            /* \"Lottogemeinschaft.sol\":2831:2855  preisLottoschein = preis */\n          0x0100\n          exp\n          dup2\n          sload\n          dup2\n          0xffffffff\n          mul\n          not\n          and\n          swap1\n          dup4\n          0xffffffff\n          and\n          mul\n          or\n          swap1\n          sstore\n          pop\n            /* \"Lottogemeinschaft.sol\":2889:2908  mitspielerBestimmen */\n          dup1\n            /* \"Lottogemeinschaft.sol\":2865:2886  nurErlaubteMitspieler */\n          0x0a\n          0x01\n            /* \"Lottogemeinschaft.sol\":2865:2908  nurErlaubteMitspieler = mitspielerBestimmen */\n          0x0100\n          exp\n          dup2\n          sload\n          dup2\n          0xff\n          mul\n          not\n          and\n          swap1\n          dup4\n          iszero\n          iszero\n          mul\n          or\n          swap1\n          sstore\n          pop\n            /* \"Lottogemeinschaft.sol\":2940:2952  scheinNummer */\n          dup2\n            /* \"Lottogemeinschaft.sol\":2918:2937  spielauftragsNummer */\n          0x03\n            /* \"Lottogemeinschaft.sol\":2918:2952  spielauftragsNummer = scheinNummer */\n          swap1\n          dup2\n          tag_14\n          swap2\n          swap1\n          tag_13\n          jump\t// in\n        tag_14:\n          pop\n            /* \"Lottogemeinschaft.sol\":3047:3051  1e18 */\n          0x0de0b6b3a7640000\n            /* \"Lottogemeinschaft.sol\":3025:3044  maxTeilnehmerAnzahl */\n          0x02\n          0x00\n          swap1\n          sload\n          swap1\n          0x0100\n          exp\n          swap1\n          div\n          0xffff\n          and\n            /* \"Lottogemeinschaft.sol\":2990:3044  uint256(preisLottoschein) * 1e18 / maxTeilnehmerAnzahl */\n          0xffff\n          and\n            /* \"Lottogemeinschaft.sol\":3018:3022  1e18 */\n          0x0de0b6b3a7640000\n            /* \"Lottogemeinschaft.sol\":2998:3014  preisLottoschein */\n          0x02\n          dup1\n          sload\n          swap1\n          0x0100\n          exp\n          swap1\n          div\n          0xffffffff\n          and\n            /* \"Lottogemeinschaft.sol\":2990:3015  uint256(preisLottoschein) */\n          0xffffffff\n          and\n            /* \"Lottogemeinschaft.sol\":2990:3022  uint256(preisLottoschein) * 1e18 */\n          tag_15\n          swap2\n          swap1\n          tag_16\n          jump\t// in\n        tag_15:\n            /* \"Lottogemeinschaft.sol\":2990:3044  uint256(preisLottoschein) * 1e18 / maxTeilnehmerAnzahl */\n          tag_17\n          swap2\n          swap1\n          tag_18\n          jump\t// in\n        tag_17:\n            /* \"Lottogemeinschaft.sol\":2990:3051  uint256(preisLottoschein) * 1e18 / maxTeilnehmerAnzahl / 1e18 */\n          tag_19\n          swap2\n          swap1\n          tag_18\n          jump\t// in\n        tag_19:\n            /* \"Lottogemeinschaft.sol\":2962:2980  preisProMitspieler */\n          0x02\n          0x06\n            /* \"Lottogemeinschaft.sol\":2962:3052  preisProMitspieler = uint32(uint256(preisLottoschein) * 1e18 / maxTeilnehmerAnzahl / 1e18) */\n          0x0100\n          exp\n          dup2\n          sload\n          dup2\n          0xffffffff\n          mul\n          not\n          and\n          swap1\n          dup4\n          0xffffffff\n          and\n          mul\n          or\n          swap1\n          sstore\n          pop\n            /* \"Lottogemeinschaft.sol\":2444:3088  constructor (string memory name, address ersteller, uint16 anzahl, uint32 preis, string memory scheinNummer, bool mitspielerBestimmen) {... */\n          pop\n          pop\n          pop\n          pop\n          pop\n          pop\n            /* \"Lottogemeinschaft.sol\":1709:7225  contract Lottogemeinschaft {... */\n          jump(tag_20)\n            /* \"#utility.yul\":7:82   */\n        tag_21:\n            /* \"#utility.yul\":40:46   */\n          0x00\n            /* \"#utility.yul\":73:75   */\n          0x40\n            /* \"#utility.yul\":67:76   */\n          mload\n            /* \"#utility.yul\":57:76   */\n          swap1\n          pop\n            /* \"#utility.yul\":7:82   */\n          swap1\n          jump\t// out\n            /* \"#utility.yul\":88:205   */\n        tag_22:\n            /* \"#utility.yul\":197:198   */\n          0x00\n            /* \"#utility.yul\":194:195   */\n          dup1\n            /* \"#utility.yul\":187:199   */\n          revert\n            /* \"#utility.yul\":211:328   */\n        tag_23:\n            /* \"#utility.yul\":320:321   */\n          0x00\n            /* \"#utility.yul\":317:318   */\n          dup1\n            /* \"#utility.yul\":310:322   */\n          revert\n            /* \"#utility.yul\":334:451   */\n        tag_24:\n            /* \"#utility.yul\":443:444   */\n          0x00\n            /* \"#utility.yul\":440:441   */\n          dup1\n            /* \"#utility.yul\":433:445   */\n          revert\n            /* \"#utility.yul\":457:574   */\n        tag_25:\n            /* \"#utility.yul\":566:567   */\n          0x00\n            /* \"#utility.yul\":563:564   */\n          dup1\n            /* \"#utility.yul\":556:568   */\n          revert\n            /* \"#utility.yul\":580:682   */\n        tag_26:\n            /* \"#utility.yul\":621:627   */\n          0x00\n            /* \"#utility.yul\":672:674   */\n          0x1f\n            /* \"#utility.yul\":668:675   */\n          not\n            /* \"#utility.yul\":663:665   */\n          0x1f\n            /* \"#utility.yul\":656:661   */\n          dup4\n            /* \"#utility.yul\":652:666   */\n          add\n            /* \"#utility.yul\":648:676   */\n          and\n            /* \"#utility.yul\":638:676   */\n          swap1\n          pop\n            /* \"#utility.yul\":580:682   */\n          swap2\n          swap1\n          pop\n          jump\t// out\n            /* \"#utility.yul\":688:868   */\n        tag_27:\n            /* \"#utility.yul\":736:813   */\n          0x4e487b7100000000000000000000000000000000000000000000000000000000\n            /* \"#utility.yul\":733:734   */\n          0x00\n            /* \"#utility.yul\":726:814   */\n          mstore\n            /* \"#utility.yul\":833:837   */\n          0x41\n            /* \"#utility.yul\":830:831   */\n          0x04\n            /* \"#utility.yul\":823:838   */\n          mstore\n            /* \"#utility.yul\":857:861   */\n          0x24\n            /* \"#utility.yul\":854:855   */\n          0x00\n            /* \"#utility.yul\":847:862   */\n          revert\n            /* \"#utility.yul\":874:1155   */\n        tag_28:\n            /* \"#utility.yul\":957:984   */\n          tag_82\n            /* \"#utility.yul\":979:983   */\n          dup3\n            /* \"#utility.yul\":957:984   */\n          tag_26\n          jump\t// in\n        tag_82:\n            /* \"#utility.yul\":949:955   */\n          dup2\n            /* \"#utility.yul\":945:985   */\n          add\n            /* \"#utility.yul\":1087:1093   */\n          dup2\n            /* \"#utility.yul\":1075:1085   */\n          dup2\n            /* \"#utility.yul\":1072:1094   */\n          lt\n            /* \"#utility.yul\":1051:1069   */\n          0xffffffffffffffff\n            /* \"#utility.yul\":1039:1049   */\n          dup3\n            /* \"#utility.yul\":1036:1070   */\n          gt\n            /* \"#utility.yul\":1033:1095   */\n          or\n            /* \"#utility.yul\":1030:1118   */\n          iszero\n          tag_83\n          jumpi\n            /* \"#utility.yul\":1098:1116   */\n          tag_84\n          tag_27\n          jump\t// in\n        tag_84:\n            /* \"#utility.yul\":1030:1118   */\n        tag_83:\n            /* \"#utility.yul\":1138:1148   */\n          dup1\n            /* \"#utility.yul\":1134:1136   */\n          0x40\n            /* \"#utility.yul\":1127:1149   */\n          mstore\n            /* \"#utility.yul\":917:1155   */\n          pop\n            /* \"#utility.yul\":874:1155   */\n          pop\n          pop\n          jump\t// out\n            /* \"#utility.yul\":1161:1290   */\n        tag_29:\n            /* \"#utility.yul\":1195:1201   */\n          0x00\n            /* \"#utility.yul\":1222:1242   */\n          tag_86\n          tag_21\n          jump\t// in\n        tag_86:\n            /* \"#utility.yul\":1212:1242   */\n          swap1\n          pop\n            /* \"#utility.yul\":1251:1284   */\n          tag_87\n            /* \"#utility.yul\":1279:1283   */\n          dup3\n            /* \"#utility.yul\":1271:1277   */\n          dup3\n            /* \"#utility.yul\":1251:1284   */\n          tag_28\n          jump\t// in\n        tag_87:\n            /* \"#utility.yul\":1161:1290   */\n          swap2\n          swap1\n          pop\n          jump\t// out\n            /* \"#utility.yul\":1296:1604   */\n        tag_30:\n            /* \"#utility.yul\":1358:1362   */\n          0x00\n            /* \"#utility.yul\":1448:1466   */\n          0xffffffffffffffff\n            /* \"#utility.yul\":1440:1446   */\n          dup3\n            /* \"#utility.yul\":1437:1467   */\n          gt\n            /* \"#utility.yul\":1434:1490   */\n          iszero\n          tag_89\n          jumpi\n            /* \"#utility.yul\":1470:1488   */\n          tag_90\n          tag_27\n          jump\t// in\n        tag_90:\n            /* \"#utility.yul\":1434:1490   */\n        tag_89:\n            /* \"#utility.yul\":1508:1537   */\n          tag_91\n            /* \"#utility.yul\":1530:1536   */\n          dup3\n            /* \"#utility.yul\":1508:1537   */\n          tag_26\n          jump\t// in\n        tag_91:\n            /* \"#utility.yul\":1500:1537   */\n          swap1\n          pop\n            /* \"#utility.yul\":1592:1596   */\n          0x20\n            /* \"#utility.yul\":1586:1590   */\n          dup2\n            /* \"#utility.yul\":1582:1597   */\n          add\n            /* \"#utility.yul\":1574:1597   */\n          swap1\n          pop\n            /* \"#utility.yul\":1296:1604   */\n          swap2\n          swap1\n          pop\n          jump\t// out\n            /* \"#utility.yul\":1610:1856   */\n        tag_31:\n            /* \"#utility.yul\":1691:1692   */\n          0x00\n            /* \"#utility.yul\":1701:1814   */\n        tag_93:\n            /* \"#utility.yul\":1715:1721   */\n          dup4\n            /* \"#utility.yul\":1712:1713   */\n          dup2\n            /* \"#utility.yul\":1709:1722   */\n          lt\n            /* \"#utility.yul\":1701:1814   */\n          iszero\n          tag_95\n          jumpi\n            /* \"#utility.yul\":1800:1801   */\n          dup1\n            /* \"#utility.yul\":1795:1798   */\n          dup3\n            /* \"#utility.yul\":1791:1802   */\n          add\n            /* \"#utility.yul\":1785:1803   */\n          mload\n            /* \"#utility.yul\":1781:1782   */\n          dup2\n            /* \"#utility.yul\":1776:1779   */\n          dup5\n            /* \"#utility.yul\":1772:1783   */\n          add\n            /* \"#utility.yul\":1765:1804   */\n          mstore\n            /* \"#utility.yul\":1737:1739   */\n          0x20\n            /* \"#utility.yul\":1734:1735   */\n          dup2\n            /* \"#utility.yul\":1730:1740   */\n          add\n            /* \"#utility.yul\":1725:1740   */\n          swap1\n          pop\n            /* \"#utility.yul\":1701:1814   */\n          jump(tag_93)\n        tag_95:\n            /* \"#utility.yul\":1848:1849   */\n          0x00\n            /* \"#utility.yul\":1839:1845   */\n          dup5\n            /* \"#utility.yul\":1834:1837   */\n          dup5\n            /* \"#utility.yul\":1830:1846   */\n          add\n            /* \"#utility.yul\":1823:1850   */\n          mstore\n            /* \"#utility.yul\":1672:1856   */\n          pop\n            /* \"#utility.yul\":1610:1856   */\n          pop\n          pop\n          pop\n          jump\t// out\n            /* \"#utility.yul\":1862:2296   */\n        tag_32:\n            /* \"#utility.yul\":1951:1956   */\n          0x00\n            /* \"#utility.yul\":1976:2042   */\n          tag_97\n            /* \"#utility.yul\":1992:2041   */\n          tag_98\n            /* \"#utility.yul\":2034:2040   */\n          dup5\n            /* \"#utility.yul\":1992:2041   */\n          tag_30\n          jump\t// in\n        tag_98:\n            /* \"#utility.yul\":1976:2042   */\n          tag_29\n          jump\t// in\n        tag_97:\n            /* \"#utility.yul\":1967:2042   */\n          swap1\n          pop\n            /* \"#utility.yul\":2065:2071   */\n          dup3\n            /* \"#utility.yul\":2058:2063   */\n          dup2\n            /* \"#utility.yul\":2051:2072   */\n          mstore\n            /* \"#utility.yul\":2103:2107   */\n          0x20\n            /* \"#utility.yul\":2096:2101   */\n          dup2\n            /* \"#utility.yul\":2092:2108   */\n          add\n            /* \"#utility.yul\":2141:2144   */\n          dup5\n            /* \"#utility.yul\":2132:2138   */\n          dup5\n            /* \"#utility.yul\":2127:2130   */\n          dup5\n            /* \"#utility.yul\":2123:2139   */\n          add\n            /* \"#utility.yul\":2120:2145   */\n          gt\n            /* \"#utility.yul\":2117:2229   */\n          iszero\n          tag_99\n          jumpi\n            /* \"#utility.yul\":2148:2227   */\n          tag_100\n          tag_25\n          jump\t// in\n        tag_100:\n            /* \"#utility.yul\":2117:2229   */\n        tag_99:\n            /* \"#utility.yul\":2238:2290   */\n          tag_101\n            /* \"#utility.yul\":2283:2289   */\n          dup5\n            /* \"#utility.yul\":2278:2281   */\n          dup3\n            /* \"#utility.yul\":2273:2276   */\n          dup6\n            /* \"#utility.yul\":2238:2290   */\n          tag_31\n          jump\t// in\n        tag_101:\n            /* \"#utility.yul\":1957:2296   */\n          pop\n            /* \"#utility.yul\":1862:2296   */\n          swap4\n          swap3\n          pop\n          pop\n          pop\n          jump\t// out\n            /* \"#utility.yul\":2316:2671   */\n        tag_33:\n            /* \"#utility.yul\":2383:2388   */\n          0x00\n            /* \"#utility.yul\":2432:2435   */\n          dup3\n            /* \"#utility.yul\":2425:2429   */\n          0x1f\n            /* \"#utility.yul\":2417:2423   */\n          dup4\n            /* \"#utility.yul\":2413:2430   */\n          add\n            /* \"#utility.yul\":2409:2436   */\n          slt\n            /* \"#utility.yul\":2399:2521   */\n          tag_103\n          jumpi\n            /* \"#utility.yul\":2440:2519   */\n          tag_104\n          tag_24\n          jump\t// in\n        tag_104:\n            /* \"#utility.yul\":2399:2521   */\n        tag_103:\n            /* \"#utility.yul\":2550:2556   */\n          dup2\n            /* \"#utility.yul\":2544:2557   */\n          mload\n            /* \"#utility.yul\":2575:2665   */\n          tag_105\n            /* \"#utility.yul\":2661:2664   */\n          dup5\n            /* \"#utility.yul\":2653:2659   */\n          dup3\n            /* \"#utility.yul\":2646:2650   */\n          0x20\n            /* \"#utility.yul\":2638:2644   */\n          dup7\n            /* \"#utility.yul\":2634:2651   */\n          add\n            /* \"#utility.yul\":2575:2665   */\n          tag_32\n          jump\t// in\n        tag_105:\n            /* \"#utility.yul\":2566:2665   */\n          swap2\n          pop\n            /* \"#utility.yul\":2389:2671   */\n          pop\n            /* \"#utility.yul\":2316:2671   */\n          swap3\n          swap2\n          pop\n          pop\n          jump\t// out\n            /* \"#utility.yul\":2677:2803   */\n        tag_34:\n            /* \"#utility.yul\":2714:2721   */\n          0x00\n            /* \"#utility.yul\":2754:2796   */\n          0xffffffffffffffffffffffffffffffffffffffff\n            /* \"#utility.yul\":2747:2752   */\n          dup3\n            /* \"#utility.yul\":2743:2797   */\n          and\n            /* \"#utility.yul\":2732:2797   */\n          swap1\n          pop\n            /* \"#utility.yul\":2677:2803   */\n          swap2\n          swap1\n          pop\n          jump\t// out\n            /* \"#utility.yul\":2809:2905   */\n        tag_35:\n            /* \"#utility.yul\":2846:2853   */\n          0x00\n            /* \"#utility.yul\":2875:2899   */\n          tag_108\n            /* \"#utility.yul\":2893:2898   */\n          dup3\n            /* \"#utility.yul\":2875:2899   */\n          tag_34\n          jump\t// in\n        tag_108:\n            /* \"#utility.yul\":2864:2899   */\n          swap1\n          pop\n            /* \"#utility.yul\":2809:2905   */\n          swap2\n          swap1\n          pop\n          jump\t// out\n            /* \"#utility.yul\":2911:3033   */\n        tag_36:\n            /* \"#utility.yul\":2984:3008   */\n          tag_110\n            /* \"#utility.yul\":3002:3007   */\n          dup2\n            /* \"#utility.yul\":2984:3008   */\n          tag_35\n          jump\t// in\n        tag_110:\n            /* \"#utility.yul\":2977:2982   */\n          dup2\n            /* \"#utility.yul\":2974:3009   */\n          eq\n            /* \"#utility.yul\":2964:3027   */\n          tag_111\n          jumpi\n            /* \"#utility.yul\":3023:3024   */\n          0x00\n            /* \"#utility.yul\":3020:3021   */\n          dup1\n            /* \"#utility.yul\":3013:3025   */\n          revert\n            /* \"#utility.yul\":2964:3027   */\n        tag_111:\n            /* \"#utility.yul\":2911:3033   */\n          pop\n          jump\t// out\n            /* \"#utility.yul\":3039:3182   */\n        tag_37:\n            /* \"#utility.yul\":3096:3101   */\n          0x00\n            /* \"#utility.yul\":3127:3133   */\n          dup2\n            /* \"#utility.yul\":3121:3134   */\n          mload\n            /* \"#utility.yul\":3112:3134   */\n          swap1\n          pop\n            /* \"#utility.yul\":3143:3176   */\n          tag_113\n            /* \"#utility.yul\":3170:3175   */\n          dup2\n            /* \"#utility.yul\":3143:3176   */\n          tag_36\n          jump\t// in\n        tag_113:\n            /* \"#utility.yul\":3039:3182   */\n          swap3\n          swap2\n          pop\n          pop\n          jump\t// out\n            /* \"#utility.yul\":3188:3277   */\n        tag_38:\n            /* \"#utility.yul\":3224:3231   */\n          0x00\n            /* \"#utility.yul\":3264:3270   */\n          0xffff\n            /* \"#utility.yul\":3257:3262   */\n          dup3\n            /* \"#utility.yul\":3253:3271   */\n          and\n            /* \"#utility.yul\":3242:3271   */\n          swap1\n          pop\n            /* \"#utility.yul\":3188:3277   */\n          swap2\n          swap1\n          pop\n          jump\t// out\n            /* \"#utility.yul\":3283:3403   */\n        tag_39:\n            /* \"#utility.yul\":3355:3378   */\n          tag_116\n            /* \"#utility.yul\":3372:3377   */\n          dup2\n            /* \"#utility.yul\":3355:3378   */\n          tag_38\n          jump\t// in\n        tag_116:\n            /* \"#utility.yul\":3348:3353   */\n          dup2\n            /* \"#utility.yul\":3345:3379   */\n          eq\n            /* \"#utility.yul\":3335:3397   */\n          tag_117\n          jumpi\n            /* \"#utility.yul\":3393:3394   */\n          0x00\n            /* \"#utility.yul\":3390:3391   */\n          dup1\n            /* \"#utility.yul\":3383:3395   */\n          revert\n            /* \"#utility.yul\":3335:3397   */\n        tag_117:\n            /* \"#utility.yul\":3283:3403   */\n          pop\n          jump\t// out\n            /* \"#utility.yul\":3409:3550   */\n        tag_40:\n            /* \"#utility.yul\":3465:3470   */\n          0x00\n            /* \"#utility.yul\":3496:3502   */\n          dup2\n            /* \"#utility.yul\":3490:3503   */\n          mload\n            /* \"#utility.yul\":3481:3503   */\n          swap1\n          pop\n            /* \"#utility.yul\":3512:3544   */\n          tag_119\n            /* \"#utility.yul\":3538:3543   */\n          dup2\n            /* \"#utility.yul\":3512:3544   */\n          tag_39\n          jump\t// in\n        tag_119:\n            /* \"#utility.yul\":3409:3550   */\n          swap3\n          swap2\n          pop\n          pop\n          jump\t// out\n            /* \"#utility.yul\":3556:3649   */\n        tag_41:\n            /* \"#utility.yul\":3592:3599   */\n          0x00\n            /* \"#utility.yul\":3632:3642   */\n          0xffffffff\n            /* \"#utility.yul\":3625:3630   */\n          dup3\n            /* \"#utility.yul\":3621:3643   */\n          and\n            /* \"#utility.yul\":3610:3643   */\n          swap1\n          pop\n            /* \"#utility.yul\":3556:3649   */\n          swap2\n          swap1\n          pop\n          jump\t// out\n            /* \"#utility.yul\":3655:3775   */\n        tag_42:\n            /* \"#utility.yul\":3727:3750   */\n          tag_122\n            /* \"#utility.yul\":3744:3749   */\n          dup2\n            /* \"#utility.yul\":3727:3750   */\n          tag_41\n          jump\t// in\n        tag_122:\n            /* \"#utility.yul\":3720:3725   */\n          dup2\n            /* \"#utility.yul\":3717:3751   */\n          eq\n            /* \"#utility.yul\":3707:3769   */\n          tag_123\n          jumpi\n            /* \"#utility.yul\":3765:3766   */\n          0x00\n            /* \"#utility.yul\":3762:3763   */\n          dup1\n            /* \"#utility.yul\":3755:3767   */\n          revert\n            /* \"#utility.yul\":3707:3769   */\n        tag_123:\n            /* \"#utility.yul\":3655:3775   */\n          pop\n          jump\t// out\n            /* \"#utility.yul\":3781:3922   */\n        tag_43:\n            /* \"#utility.yul\":3837:3842   */\n          0x00\n            /* \"#utility.yul\":3868:3874   */\n          dup2\n            /* \"#utility.yul\":3862:3875   */\n          mload\n            /* \"#utility.yul\":3853:3875   */\n          swap1\n          pop\n            /* \"#utility.yul\":3884:3916   */\n          tag_125\n            /* \"#utility.yul\":3910:3915   */\n          dup2\n            /* \"#utility.yul\":3884:3916   */\n          tag_42\n          jump\t// in\n        tag_125:\n            /* \"#utility.yul\":3781:3922   */\n          swap3\n          swap2\n          pop\n          pop\n          jump\t// out\n            /* \"#utility.yul\":3928:4018   */\n        tag_44:\n            /* \"#utility.yul\":3962:3969   */\n          0x00\n            /* \"#utility.yul\":4005:4010   */\n          dup2\n            /* \"#utility.yul\":3998:4011   */\n          iszero\n            /* \"#utility.yul\":3991:4012   */\n          iszero\n            /* \"#utility.yul\":3980:4012   */\n          swap1\n          pop\n            /* \"#utility.yul\":3928:4018   */\n          swap2\n          swap1\n          pop\n          jump\t// out\n            /* \"#utility.yul\":4024:4140   */\n        tag_45:\n            /* \"#utility.yul\":4094:4115   */\n          tag_128\n            /* \"#utility.yul\":4109:4114   */\n          dup2\n            /* \"#utility.yul\":4094:4115   */\n          tag_44\n          jump\t// in\n        tag_128:\n            /* \"#utility.yul\":4087:4092   */\n          dup2\n            /* \"#utility.yul\":4084:4116   */\n          eq\n            /* \"#utility.yul\":4074:4134   */\n          tag_129\n          jumpi\n            /* \"#utility.yul\":4130:4131   */\n          0x00\n            /* \"#utility.yul\":4127:4128   */\n          dup1\n            /* \"#utility.yul\":4120:4132   */\n          revert\n            /* \"#utility.yul\":4074:4134   */\n        tag_129:\n            /* \"#utility.yul\":4024:4140   */\n          pop\n          jump\t// out\n            /* \"#utility.yul\":4146:4283   */\n        tag_46:\n            /* \"#utility.yul\":4200:4205   */\n          0x00\n            /* \"#utility.yul\":4231:4237   */\n          dup2\n            /* \"#utility.yul\":4225:4238   */\n          mload\n            /* \"#utility.yul\":4216:4238   */\n          swap1\n          pop\n            /* \"#utility.yul\":4247:4277   */\n          tag_131\n            /* \"#utility.yul\":4271:4276   */\n          dup2\n            /* \"#utility.yul\":4247:4277   */\n          tag_45\n          jump\t// in\n        tag_131:\n            /* \"#utility.yul\":4146:4283   */\n          swap3\n          swap2\n          pop\n          pop\n          jump\t// out\n            /* \"#utility.yul\":4289:5759   */\n        tag_3:\n            /* \"#utility.yul\":4419:4425   */\n          0x00\n            /* \"#utility.yul\":4427:4433   */\n          dup1\n            /* \"#utility.yul\":4435:4441   */\n          0x00\n            /* \"#utility.yul\":4443:4449   */\n          dup1\n            /* \"#utility.yul\":4451:4457   */\n          0x00\n            /* \"#utility.yul\":4459:4465   */\n          dup1\n            /* \"#utility.yul\":4508:4511   */\n          0xc0\n            /* \"#utility.yul\":4496:4505   */\n          dup8\n            /* \"#utility.yul\":4487:4494   */\n          dup10\n            /* \"#utility.yul\":4483:4506   */\n          sub\n            /* \"#utility.yul\":4479:4512   */\n          slt\n            /* \"#utility.yul\":4476:4596   */\n          iszero\n          tag_133\n          jumpi\n            /* \"#utility.yul\":4515:4594   */\n          tag_134\n          tag_22\n          jump\t// in\n        tag_134:\n            /* \"#utility.yul\":4476:4596   */\n        tag_133:\n            /* \"#utility.yul\":4656:4657   */\n          0x00\n            /* \"#utility.yul\":4645:4654   */\n          dup8\n            /* \"#utility.yul\":4641:4658   */\n          add\n            /* \"#utility.yul\":4635:4659   */\n          mload\n            /* \"#utility.yul\":4686:4704   */\n          0xffffffffffffffff\n            /* \"#utility.yul\":4678:4684   */\n          dup2\n            /* \"#utility.yul\":4675:4705   */\n          gt\n            /* \"#utility.yul\":4672:4789   */\n          iszero\n          tag_135\n          jumpi\n            /* \"#utility.yul\":4708:4787   */\n          tag_136\n          tag_23\n          jump\t// in\n        tag_136:\n            /* \"#utility.yul\":4672:4789   */\n        tag_135:\n            /* \"#utility.yul\":4813:4887   */\n          tag_137\n            /* \"#utility.yul\":4879:4886   */\n          dup10\n            /* \"#utility.yul\":4870:4876   */\n          dup3\n            /* \"#utility.yul\":4859:4868   */\n          dup11\n            /* \"#utility.yul\":4855:4877   */\n          add\n            /* \"#utility.yul\":4813:4887   */\n          tag_33\n          jump\t// in\n        tag_137:\n            /* \"#utility.yul\":4803:4887   */\n          swap7\n          pop\n            /* \"#utility.yul\":4606:4897   */\n          pop\n            /* \"#utility.yul\":4936:4938   */\n          0x20\n            /* \"#utility.yul\":4962:5026   */\n          tag_138\n            /* \"#utility.yul\":5018:5025   */\n          dup10\n            /* \"#utility.yul\":5009:5015   */\n          dup3\n            /* \"#utility.yul\":4998:5007   */\n          dup11\n            /* \"#utility.yul\":4994:5016   */\n          add\n            /* \"#utility.yul\":4962:5026   */\n          tag_37\n          jump\t// in\n        tag_138:\n            /* \"#utility.yul\":4952:5026   */\n          swap6\n          pop\n            /* \"#utility.yul\":4907:5036   */\n          pop\n            /* \"#utility.yul\":5075:5077   */\n          0x40\n            /* \"#utility.yul\":5101:5164   */\n          tag_139\n            /* \"#utility.yul\":5156:5163   */\n          dup10\n            /* \"#utility.yul\":5147:5153   */\n          dup3\n            /* \"#utility.yul\":5136:5145   */\n          dup11\n            /* \"#utility.yul\":5132:5154   */\n          add\n            /* \"#utility.yul\":5101:5164   */\n          tag_40\n          jump\t// in\n        tag_139:\n            /* \"#utility.yul\":5091:5164   */\n          swap5\n          pop\n            /* \"#utility.yul\":5046:5174   */\n          pop\n            /* \"#utility.yul\":5213:5215   */\n          0x60\n            /* \"#utility.yul\":5239:5302   */\n          tag_140\n            /* \"#utility.yul\":5294:5301   */\n          dup10\n            /* \"#utility.yul\":5285:5291   */\n          dup3\n            /* \"#utility.yul\":5274:5283   */\n          dup11\n            /* \"#utility.yul\":5270:5292   */\n          add\n            /* \"#utility.yul\":5239:5302   */\n          tag_43\n          jump\t// in\n        tag_140:\n            /* \"#utility.yul\":5229:5302   */\n          swap4\n          pop\n            /* \"#utility.yul\":5184:5312   */\n          pop\n            /* \"#utility.yul\":5372:5375   */\n          0x80\n            /* \"#utility.yul\":5361:5370   */\n          dup8\n            /* \"#utility.yul\":5357:5376   */\n          add\n            /* \"#utility.yul\":5351:5377   */\n          mload\n            /* \"#utility.yul\":5404:5422   */\n          0xffffffffffffffff\n            /* \"#utility.yul\":5396:5402   */\n          dup2\n            /* \"#utility.yul\":5393:5423   */\n          gt\n            /* \"#utility.yul\":5390:5507   */\n          iszero\n          tag_141\n          jumpi\n            /* \"#utility.yul\":5426:5505   */\n          tag_142\n          tag_23\n          jump\t// in\n        tag_142:\n            /* \"#utility.yul\":5390:5507   */\n        tag_141:\n            /* \"#utility.yul\":5531:5605   */\n          tag_143\n            /* \"#utility.yul\":5597:5604   */\n          dup10\n            /* \"#utility.yul\":5588:5594   */\n          dup3\n            /* \"#utility.yul\":5577:5586   */\n          dup11\n            /* \"#utility.yul\":5573:5595   */\n          add\n            /* \"#utility.yul\":5531:5605   */\n          tag_33\n          jump\t// in\n        tag_143:\n            /* \"#utility.yul\":5521:5605   */\n          swap3\n          pop\n            /* \"#utility.yul\":5322:5615   */\n          pop\n            /* \"#utility.yul\":5654:5657   */\n          0xa0\n            /* \"#utility.yul\":5681:5742   */\n          tag_144\n            /* \"#utility.yul\":5734:5741   */\n          dup10\n            /* \"#utility.yul\":5725:5731   */\n          dup3\n            /* \"#utility.yul\":5714:5723   */\n          dup11\n            /* \"#utility.yul\":5710:5732   */\n          add\n            /* \"#utility.yul\":5681:5742   */\n          tag_46\n          jump\t// in\n        tag_144:\n            /* \"#utility.yul\":5671:5742   */\n          swap2\n          pop\n            /* \"#utility.yul\":5625:5752   */\n          pop\n            /* \"#utility.yul\":4289:5759   */\n          swap3\n          swap6\n          pop\n          swap3\n          swap6\n          pop\n          swap3\n          swap6\n          jump\t// out\n            /* \"#utility.yul\":5765:5934   */\n        tag_47:\n            /* \"#utility.yul\":5849:5860   */\n          0x00\n            /* \"#utility.yul\":5883:5889   */\n          dup3\n            /* \"#utility.yul\":5878:5881   */\n          dup3\n            /* \"#utility.yul\":5871:5890   */\n          mstore\n            /* \"#utility.yul\":5923:5927   */\n          0x20\n            /* \"#utility.yul\":5918:5921   */\n          dup3\n            /* \"#utility.yul\":5914:5928   */\n          add\n            /* \"#utility.yul\":5899:5928   */\n          swap1\n          pop\n            /* \"#utility.yul\":5765:5934   */\n          swap3\n          swap2\n          pop\n          pop\n          jump\t// out\n            /* \"#utility.yul\":5940:6122   */\n        tag_48:\n            /* \"#utility.yul\":6080:6114   */\n          0x4d6178696d616c203635353334204d6974737069656c65722065726c61756274\n            /* \"#utility.yul\":6076:6077   */\n          0x00\n            /* \"#utility.yul\":6068:6074   */\n          dup3\n            /* \"#utility.yul\":6064:6078   */\n          add\n            /* \"#utility.yul\":6057:6115   */\n          mstore\n            /* \"#utility.yul\":5940:6122   */\n          pop\n          jump\t// out\n            /* \"#utility.yul\":6128:6494   */\n        tag_49:\n            /* \"#utility.yul\":6270:6273   */\n          0x00\n            /* \"#utility.yul\":6291:6358   */\n          tag_148\n            /* \"#utility.yul\":6355:6357   */\n          0x20\n            /* \"#utility.yul\":6350:6353   */\n          dup4\n            /* \"#utility.yul\":6291:6358   */\n          tag_47\n          jump\t// in\n        tag_148:\n            /* \"#utility.yul\":6284:6358   */\n          swap2\n          pop\n            /* \"#utility.yul\":6367:6460   */\n          tag_149\n            /* \"#utility.yul\":6456:6459   */\n          dup3\n            /* \"#utility.yul\":6367:6460   */\n          tag_48\n          jump\t// in\n        tag_149:\n            /* \"#utility.yul\":6485:6487   */\n          0x20\n            /* \"#utility.yul\":6480:6483   */\n          dup3\n            /* \"#utility.yul\":6476:6488   */\n          add\n            /* \"#utility.yul\":6469:6488   */\n          swap1\n          pop\n            /* \"#utility.yul\":6128:6494   */\n          swap2\n          swap1\n          pop\n          jump\t// out\n            /* \"#utility.yul\":6500:6919   */\n        tag_8:\n            /* \"#utility.yul\":6666:6670   */\n          0x00\n            /* \"#utility.yul\":6704:6706   */\n          0x20\n            /* \"#utility.yul\":6693:6702   */\n          dup3\n            /* \"#utility.yul\":6689:6707   */\n          add\n            /* \"#utility.yul\":6681:6707   */\n          swap1\n          pop\n            /* \"#utility.yul\":6753:6762   */\n          dup2\n            /* \"#utility.yul\":6747:6751   */\n          dup2\n            /* \"#utility.yul\":6743:6763   */\n          sub\n            /* \"#utility.yul\":6739:6740   */\n          0x00\n            /* \"#utility.yul\":6728:6737   */\n          dup4\n            /* \"#utility.yul\":6724:6741   */\n          add\n            /* \"#utility.yul\":6717:6764   */\n          mstore\n            /* \"#utility.yul\":6781:6912   */\n          tag_151\n            /* \"#utility.yul\":6907:6911   */\n          dup2\n            /* \"#utility.yul\":6781:6912   */\n          tag_49\n          jump\t// in\n        tag_151:\n            /* \"#utility.yul\":6773:6912   */\n          swap1\n          pop\n            /* \"#utility.yul\":6500:6919   */\n          swap2\n          swap1\n          pop\n          jump\t// out\n            /* \"#utility.yul\":6925:7101   */\n        tag_50:\n            /* \"#utility.yul\":7065:7093   */\n          0x4d6178696d616c65722050726569732034323934393637323935000000000000\n            /* \"#utility.yul\":7061:7062   */\n          0x00\n            /* \"#utility.yul\":7053:7059   */\n          dup3\n            /* \"#utility.yul\":7049:7063   */\n          add\n            /* \"#utility.yul\":7042:7094   */\n          mstore\n            /* \"#utility.yul\":6925:7101   */\n          pop\n          jump\t// out\n            /* \"#utility.yul\":7107:7473   */\n        tag_51:\n            /* \"#utility.yul\":7249:7252   */\n          0x00\n            /* \"#utility.yul\":7270:7337   */\n          tag_154\n            /* \"#utility.yul\":7334:7336   */\n          0x1a\n            /* \"#utility.yul\":7329:7332   */\n          dup4\n            /* \"#utility.yul\":7270:7337   */\n          tag_47\n          jump\t// in\n        tag_154:\n            /* \"#utility.yul\":7263:7337   */\n          swap2\n          pop\n            /* \"#utility.yul\":7346:7439   */\n          tag_155\n            /* \"#utility.yul\":7435:7438   */\n          dup3\n            /* \"#utility.yul\":7346:7439   */\n          tag_50\n          jump\t// in\n        tag_155:\n            /* \"#utility.yul\":7464:7466   */\n          0x20\n            /* \"#utility.yul\":7459:7462   */\n          dup3\n            /* \"#utility.yul\":7455:7467   */\n          add\n            /* \"#utility.yul\":7448:7467   */\n          swap1\n          pop\n            /* \"#utility.yul\":7107:7473   */\n          swap2\n          swap1\n          pop\n          jump\t// out\n            /* \"#utility.yul\":7479:7898   */\n        tag_11:\n            /* \"#utility.yul\":7645:7649   */\n          0x00\n            /* \"#utility.yul\":7683:7685   */\n          0x20\n            /* \"#utility.yul\":7672:7681   */\n          dup3\n            /* \"#utility.yul\":7668:7686   */\n          add\n            /* \"#utility.yul\":7660:7686   */\n          swap1\n          pop\n            /* \"#utility.yul\":7732:7741   */\n          dup2\n            /* \"#utility.yul\":7726:7730   */\n          dup2\n            /* \"#utility.yul\":7722:7742   */\n          sub\n            /* \"#utility.yul\":7718:7719   */\n          0x00\n            /* \"#utility.yul\":7707:7716   */\n          dup4\n            /* \"#utility.yul\":7703:7720   */\n          add\n            /* \"#utility.yul\":7696:7743   */\n          mstore\n            /* \"#utility.yul\":7760:7891   */\n          tag_157\n            /* \"#utility.yul\":7886:7890   */\n          dup2\n            /* \"#utility.yul\":7760:7891   */\n          tag_51\n          jump\t// in\n        tag_157:\n            /* \"#utility.yul\":7752:7891   */\n          swap1\n          pop\n            /* \"#utility.yul\":7479:7898   */\n          swap2\n          swap1\n          pop\n          jump\t// out\n            /* \"#utility.yul\":7904:8003   */\n        tag_52:\n            /* \"#utility.yul\":7956:7962   */\n          0x00\n            /* \"#utility.yul\":7990:7995   */\n          dup2\n            /* \"#utility.yul\":7984:7996   */\n          mload\n            /* \"#utility.yul\":7974:7996   */\n          swap1\n          pop\n            /* \"#utility.yul\":7904:8003   */\n          swap2\n          swap1\n          pop\n          jump\t// out\n            /* \"#utility.yul\":8009:8189   */\n        tag_53:\n            /* \"#utility.yul\":8057:8134   */\n          0x4e487b7100000000000000000000000000000000000000000000000000000000\n            /* \"#utility.yul\":8054:8055   */\n          0x00\n            /* \"#utility.yul\":8047:8135   */\n          mstore\n            /* \"#utility.yul\":8154:8158   */\n          0x22\n            /* \"#utility.yul\":8151:8152   */\n          0x04\n            /* \"#utility.yul\":8144:8159   */\n          mstore\n            /* \"#utility.yul\":8178:8182   */\n          0x24\n            /* \"#utility.yul\":8175:8176   */\n          0x00\n            /* \"#utility.yul\":8168:8183   */\n          revert\n            /* \"#utility.yul\":8195:8515   */\n        tag_54:\n            /* \"#utility.yul\":8239:8245   */\n          0x00\n            /* \"#utility.yul\":8276:8277   */\n          0x02\n            /* \"#utility.yul\":8270:8274   */\n          dup3\n            /* \"#utility.yul\":8266:8278   */\n          div\n            /* \"#utility.yul\":8256:8278   */\n          swap1\n          pop\n            /* \"#utility.yul\":8323:8324   */\n          0x01\n            /* \"#utility.yul\":8317:8321   */\n          dup3\n            /* \"#utility.yul\":8313:8325   */\n          and\n            /* \"#utility.yul\":8344:8362   */\n          dup1\n            /* \"#utility.yul\":8334:8415   */\n          tag_161\n          jumpi\n            /* \"#utility.yul\":8400:8404   */\n          0x7f\n            /* \"#utility.yul\":8392:8398   */\n          dup3\n            /* \"#utility.yul\":8388:8405   */\n          and\n            /* \"#utility.yul\":8378:8405   */\n          swap2\n          pop\n            /* \"#utility.yul\":8334:8415   */\n        tag_161:\n            /* \"#utility.yul\":8462:8464   */\n          0x20\n            /* \"#utility.yul\":8454:8460   */\n          dup3\n            /* \"#utility.yul\":8451:8465   */\n          lt\n            /* \"#utility.yul\":8431:8449   */\n          dup2\n            /* \"#utility.yul\":8428:8466   */\n          sub\n            /* \"#utility.yul\":8425:8509   */\n          tag_162\n          jumpi\n            /* \"#utility.yul\":8481:8499   */\n          tag_163\n          tag_53\n          jump\t// in\n        tag_163:\n            /* \"#utility.yul\":8425:8509   */\n        tag_162:\n            /* \"#utility.yul\":8246:8515   */\n          pop\n            /* \"#utility.yul\":8195:8515   */\n          swap2\n          swap1\n          pop\n          jump\t// out\n            /* \"#utility.yul\":8521:8662   */\n        tag_55:\n            /* \"#utility.yul\":8570:8574   */\n          0x00\n            /* \"#utility.yul\":8593:8596   */\n          dup2\n            /* \"#utility.yul\":8585:8596   */\n          swap1\n          pop\n            /* \"#utility.yul\":8616:8619   */\n          dup2\n            /* \"#utility.yul\":8613:8614   */\n          0x00\n            /* \"#utility.yul\":8606:8620   */\n          mstore\n            /* \"#utility.yul\":8650:8654   */\n          0x20\n            /* \"#utility.yul\":8647:8648   */\n          0x00\n            /* \"#utility.yul\":8637:8655   */\n          keccak256\n            /* \"#utility.yul\":8629:8655   */\n          swap1\n          pop\n            /* \"#utility.yul\":8521:8662   */\n          swap2\n          swap1\n          pop\n          jump\t// out\n            /* \"#utility.yul\":8668:8761   */\n        tag_56:\n            /* \"#utility.yul\":8705:8711   */\n          0x00\n            /* \"#utility.yul\":8752:8754   */\n          0x20\n            /* \"#utility.yul\":8747:8749   */\n          0x1f\n            /* \"#utility.yul\":8740:8745   */\n          dup4\n            /* \"#utility.yul\":8736:8750   */\n          add\n            /* \"#utility.yul\":8732:8755   */\n          div\n            /* \"#utility.yul\":8722:8755   */\n          swap1\n          pop\n            /* \"#utility.yul\":8668:8761   */\n          swap2\n          swap1\n          pop\n          jump\t// out\n            /* \"#utility.yul\":8767:8874   */\n        tag_57:\n            /* \"#utility.yul\":8811:8819   */\n          0x00\n            /* \"#utility.yul\":8861:8866   */\n          dup3\n            /* \"#utility.yul\":8855:8859   */\n          dup3\n            /* \"#utility.yul\":8851:8867   */\n          shl\n            /* \"#utility.yul\":8830:8867   */\n          swap1\n          pop\n            /* \"#utility.yul\":8767:8874   */\n          swap3\n          swap2\n          pop\n          pop\n          jump\t// out\n            /* \"#utility.yul\":8880:9273   */\n        tag_58:\n            /* \"#utility.yul\":8949:8955   */\n          0x00\n            /* \"#utility.yul\":8999:9000   */\n          0x08\n            /* \"#utility.yul\":8987:8997   */\n          dup4\n            /* \"#utility.yul\":8983:9001   */\n          mul\n            /* \"#utility.yul\":9022:9119   */\n          tag_168\n            /* \"#utility.yul\":9052:9118   */\n          0xffffffffffffffffffffffffffffffffffffffffffffffffffffffffffffffff\n            /* \"#utility.yul\":9041:9050   */\n          dup3\n            /* \"#utility.yul\":9022:9119   */\n          tag_57\n          jump\t// in\n        tag_168:\n            /* \"#utility.yul\":9140:9179   */\n          tag_169\n            /* \"#utility.yul\":9170:9178   */\n          dup7\n            /* \"#utility.yul\":9159:9168   */\n          dup4\n            /* \"#utility.yul\":9140:9179   */\n          tag_57\n          jump\t// in\n        tag_169:\n            /* \"#utility.yul\":9128:9179   */\n          swap6\n          pop\n            /* \"#utility.yul\":9212:9216   */\n          dup1\n            /* \"#utility.yul\":9208:9217   */\n          not\n            /* \"#utility.yul\":9201:9206   */\n          dup5\n            /* \"#utility.yul\":9197:9218   */\n          and\n            /* \"#utility.yul\":9188:9218   */\n          swap4\n          pop\n            /* \"#utility.yul\":9261:9265   */\n          dup1\n            /* \"#utility.yul\":9251:9259   */\n          dup7\n            /* \"#utility.yul\":9247:9266   */\n          and\n            /* \"#utility.yul\":9240:9245   */\n          dup5\n            /* \"#utility.yul\":9237:9267   */\n          or\n            /* \"#utility.yul\":9227:9267   */\n          swap3\n          pop\n            /* \"#utility.yul\":8956:9273   */\n          pop\n          pop\n            /* \"#utility.yul\":8880:9273   */\n          swap4\n          swap3\n          pop\n          pop\n          pop\n          jump\t// out\n            /* \"#utility.yul\":9279:9356   */\n        tag_59:\n            /* \"#utility.yul\":9316:9323   */\n          0x00\n            /* \"#utility.yul\":9345:9350   */\n          dup2\n            /* \"#utility.yul\":9334:9350   */\n          swap1\n          pop\n            /* \"#utility.yul\":9279:9356   */\n          swap2\n          swap1\n          pop\n          jump\t// out\n            /* \"#utility.yul\":9362:9422   */\n        tag_60:\n            /* \"#utility.yul\":9390:9393   */\n          0x00\n            /* \"#utility.yul\":9411:9416   */\n          dup2\n            /* \"#utility.yul\":9404:9416   */\n          swap1\n          pop\n            /* \"#utility.yul\":9362:9422   */\n          swap2\n          swap1\n          pop\n          jump\t// out\n            /* \"#utility.yul\":9428:9570   */\n        tag_61:\n            /* \"#utility.yul\":9478:9487   */\n          0x00\n            /* \"#utility.yul\":9511:9564   */\n          tag_173\n            /* \"#utility.yul\":9529:9563   */\n          tag_174\n            /* \"#utility.yul\":9538:9562   */\n          tag_175\n            /* \"#utility.yul\":9556:9561   */\n          dup5\n            /* \"#utility.yul\":9538:9562   */\n          tag_59\n          jump\t// in\n        tag_175:\n            /* \"#utility.yul\":9529:9563   */\n          tag_60\n          jump\t// in\n        tag_174:\n            /* \"#utility.yul\":9511:9564   */\n          tag_59\n          jump\t// in\n        tag_173:\n            /* \"#utility.yul\":9498:9564   */\n          swap1\n          pop\n            /* \"#utility.yul\":9428:9570   */\n          swap2\n          swap1\n          pop\n          jump\t// out\n            /* \"#utility.yul\":9576:9651   */\n        tag_62:\n            /* \"#utility.yul\":9619:9622   */\n          0x00\n            /* \"#utility.yul\":9640:9645   */\n          dup2\n            /* \"#utility.yul\":9633:9645   */\n          swap1\n          pop\n            /* \"#utility.yul\":9576:9651   */\n          swap2\n          swap1\n          pop\n          jump\t// out\n            /* \"#utility.yul\":9657:9926   */\n        tag_63:\n            /* \"#utility.yul\":9767:9806   */\n          tag_178\n            /* \"#utility.yul\":9798:9805   */\n          dup4\n            /* \"#utility.yul\":9767:9806   */\n          tag_61\n          jump\t// in\n        tag_178:\n            /* \"#utility.yul\":9828:9919   */\n          tag_179\n            /* \"#utility.yul\":9877:9918   */\n          tag_180\n            /* \"#utility.yul\":9901:9917   */\n          dup3\n            /* \"#utility.yul\":9877:9918   */\n          tag_62\n          jump\t// in\n        tag_180:\n            /* \"#utility.yul\":9869:9875   */\n          dup5\n            /* \"#utility.yul\":9862:9866   */\n          dup5\n            /* \"#utility.yul\":9856:9867   */\n          sload\n            /* \"#utility.yul\":9828:9919   */\n          tag_58\n          jump\t// in\n        tag_179:\n            /* \"#utility.yul\":9822:9826   */\n          dup3\n            /* \"#utility.yul\":9815:9920   */\n          sstore\n            /* \"#utility.yul\":9733:9926   */\n          pop\n            /* \"#utility.yul\":9657:9926   */\n          pop\n          pop\n          pop\n          jump\t// out\n            /* \"#utility.yul\":9932:10005   */\n        tag_64:\n            /* \"#utility.yul\":9977:9980   */\n          0x00\n            /* \"#utility.yul\":9932:10005   */\n          swap1\n          jump\t// out\n            /* \"#utility.yul\":10011:10200   */\n        tag_65:\n            /* \"#utility.yul\":10088:10120   */\n          tag_183\n          tag_64\n          jump\t// in\n        tag_183:\n            /* \"#utility.yul\":10129:10194   */\n          tag_184\n            /* \"#utility.yul\":10187:10193   */\n          dup2\n            /* \"#utility.yul\":10179:10185   */\n          dup5\n            /* \"#utility.yul\":10173:10177   */\n          dup5\n            /* \"#utility.yul\":10129:10194   */\n          tag_63\n          jump\t// in\n        tag_184:\n            /* \"#utility.yul\":10064:10200   */\n          pop\n            /* \"#utility.yul\":10011:10200   */\n          pop\n          pop\n          jump\t// out\n            /* \"#utility.yul\":10206:10392   */\n        tag_66:\n            /* \"#utility.yul\":10266:10386   */\n        tag_186:\n            /* \"#utility.yul\":10283:10286   */\n          dup2\n            /* \"#utility.yul\":10276:10281   */\n          dup2\n            /* \"#utility.yul\":10273:10287   */\n          lt\n            /* \"#utility.yul\":10266:10386   */\n          iszero\n          tag_188\n          jumpi\n            /* \"#utility.yul\":10337:10376   */\n          tag_189\n            /* \"#utility.yul\":10374:10375   */\n          0x00\n            /* \"#utility.yul\":10367:10372   */\n          dup3\n            /* \"#utility.yul\":10337:10376   */\n          tag_65\n          jump\t// in\n        tag_189:\n            /* \"#utility.yul\":10310:10311   */\n          0x01\n            /* \"#utility.yul\":10303:10308   */\n          dup2\n            /* \"#utility.yul\":10299:10312   */\n          add\n            /* \"#utility.yul\":10290:10312   */\n          swap1\n          pop\n            /* \"#utility.yul\":10266:10386   */\n          jump(tag_186)\n        tag_188:\n            /* \"#utility.yul\":10206:10392   */\n          pop\n          pop\n          jump\t// out\n            /* \"#utility.yul\":10398:10941   */\n        tag_67:\n            /* \"#utility.yul\":10499:10501   */\n          0x1f\n            /* \"#utility.yul\":10494:10497   */\n          dup3\n            /* \"#utility.yul\":10491:10502   */\n          gt\n            /* \"#utility.yul\":10488:10934   */\n          iszero\n          tag_191\n          jumpi\n            /* \"#utility.yul\":10533:10571   */\n          tag_192\n            /* \"#utility.yul\":10565:10570   */\n          dup2\n            /* \"#utility.yul\":10533:10571   */\n          tag_55\n          jump\t// in\n        tag_192:\n            /* \"#utility.yul\":10617:10646   */\n          tag_193\n            /* \"#utility.yul\":10635:10645   */\n          dup5\n            /* \"#utility.yul\":10617:10646   */\n          tag_56\n          jump\t// in\n        tag_193:\n            /* \"#utility.yul\":10607:10615   */\n          dup2\n            /* \"#utility.yul\":10603:10647   */\n          add\n            /* \"#utility.yul\":10800:10802   */\n          0x20\n            /* \"#utility.yul\":10788:10798   */\n          dup6\n            /* \"#utility.yul\":10785:10803   */\n          lt\n            /* \"#utility.yul\":10782:10831   */\n          iszero\n          tag_194\n          jumpi\n            /* \"#utility.yul\":10821:10829   */\n          dup2\n            /* \"#utility.yul\":10806:10829   */\n          swap1\n          pop\n            /* \"#utility.yul\":10782:10831   */\n        tag_194:\n            /* \"#utility.yul\":10844:10924   */\n          tag_195\n            /* \"#utility.yul\":10900:10922   */\n          tag_196\n            /* \"#utility.yul\":10918:10921   */\n          dup6\n            /* \"#utility.yul\":10900:10922   */\n          tag_56\n          jump\t// in\n        tag_196:\n            /* \"#utility.yul\":10890:10898   */\n          dup4\n            /* \"#utility.yul\":10886:10923   */\n          add\n            /* \"#utility.yul\":10873:10884   */\n          dup3\n            /* \"#utility.yul\":10844:10924   */\n          tag_66\n          jump\t// in\n        tag_195:\n            /* \"#utility.yul\":10503:10934   */\n          pop\n          pop\n            /* \"#utility.yul\":10488:10934   */\n        tag_191:\n            /* \"#utility.yul\":10398:10941   */\n          pop\n          pop\n          pop\n          jump\t// out\n            /* \"#utility.yul\":10947:11064   */\n        tag_68:\n            /* \"#utility.yul\":11001:11009   */\n          0x00\n            /* \"#utility.yul\":11051:11056   */\n          dup3\n            /* \"#utility.yul\":11045:11049   */\n          dup3\n            /* \"#utility.yul\":11041:11057   */\n          shr\n            /* \"#utility.yul\":11020:11057   */\n          swap1\n          pop\n            /* \"#utility.yul\":10947:11064   */\n          swap3\n          swap2\n          pop\n          pop\n          jump\t// out\n            /* \"#utility.yul\":11070:11239   */\n        tag_69:\n            /* \"#utility.yul\":11114:11120   */\n          0x00\n            /* \"#utility.yul\":11147:11198   */\n          tag_199\n            /* \"#utility.yul\":11195:11196   */\n          0x00\n            /* \"#utility.yul\":11191:11197   */\n          not\n            /* \"#utility.yul\":11183:11188   */\n          dup5\n            /* \"#utility.yul\":11180:11181   */\n          0x08\n            /* \"#utility.yul\":11176:11189   */\n          mul\n            /* \"#utility.yul\":11147:11198   */\n          tag_68\n          jump\t// in\n        tag_199:\n            /* \"#utility.yul\":11143:11199   */\n          not\n            /* \"#utility.yul\":11228:11232   */\n          dup1\n            /* \"#utility.yul\":11222:11226   */\n          dup4\n            /* \"#utility.yul\":11218:11233   */\n          and\n            /* \"#utility.yul\":11208:11233   */\n          swap2\n          pop\n            /* \"#utility.yul\":11121:11239   */\n          pop\n            /* \"#utility.yul\":11070:11239   */\n          swap3\n          swap2\n          pop\n          pop\n          jump\t// out\n            /* \"#utility.yul\":11244:11539   */\n        tag_70:\n            /* \"#utility.yul\":11320:11324   */\n          0x00\n            /* \"#utility.yul\":11466:11495   */\n          tag_201\n            /* \"#utility.yul\":11491:11494   */\n          dup4\n            /* \"#utility.yul\":11485:11489   */\n          dup4\n            /* \"#utility.yul\":11466:11495   */\n          tag_69\n          jump\t// in\n        tag_201:\n            /* \"#utility.yul\":11458:11495   */\n          swap2\n          pop\n            /* \"#utility.yul\":11528:11531   */\n          dup3\n            /* \"#utility.yul\":11525:11526   */\n          0x02\n            /* \"#utility.yul\":11521:11532   */\n          mul\n            /* \"#utility.yul\":11515:11519   */\n          dup3\n            /* \"#utility.yul\":11512:11533   */\n          or\n            /* \"#utility.yul\":11504:11533   */\n          swap1\n          pop\n            /* \"#utility.yul\":11244:11539   */\n          swap3\n          swap2\n          pop\n          pop\n          jump\t// out\n            /* \"#utility.yul\":11544:12939   */\n        tag_13:\n            /* \"#utility.yul\":11661:11698   */\n          tag_203\n            /* \"#utility.yul\":11694:11697   */\n          dup3\n            /* \"#utility.yul\":11661:11698   */\n          tag_52\n          jump\t// in\n        tag_203:\n            /* \"#utility.yul\":11763:11781   */\n          0xffffffffffffffff\n            /* \"#utility.yul\":11755:11761   */\n          dup2\n            /* \"#utility.yul\":11752:11782   */\n          gt\n            /* \"#utility.yul\":11749:11805   */\n          iszero\n          tag_204\n          jumpi\n            /* \"#utility.yul\":11785:11803   */\n          tag_205\n          tag_27\n          jump\t// in\n        tag_205:\n            /* \"#utility.yul\":11749:11805   */\n        tag_204:\n            /* \"#utility.yul\":11829:11867   */\n          tag_206\n            /* \"#utility.yul\":11861:11865   */\n          dup3\n            /* \"#utility.yul\":11855:11866   */\n          sload\n            /* \"#utility.yul\":11829:11867   */\n          tag_54\n          jump\t// in\n        tag_206:\n            /* \"#utility.yul\":11914:11981   */\n          tag_207\n            /* \"#utility.yul\":11974:11980   */\n          dup3\n            /* \"#utility.yul\":11966:11972   */\n          dup3\n            /* \"#utility.yul\":11960:11964   */\n          dup6\n            /* \"#utility.yul\":11914:11981   */\n          tag_67\n          jump\t// in\n        tag_207:\n            /* \"#utility.yul\":12008:12009   */\n          0x00\n            /* \"#utility.yul\":12032:12036   */\n          0x20\n            /* \"#utility.yul\":12019:12036   */\n          swap1\n          pop\n            /* \"#utility.yul\":12064:12066   */\n          0x1f\n            /* \"#utility.yul\":12056:12062   */\n          dup4\n            /* \"#utility.yul\":12053:12067   */\n          gt\n            /* \"#utility.yul\":12081:12082   */\n          0x01\n            /* \"#utility.yul\":12076:12694   */\n          dup2\n          eq\n          tag_209\n          jumpi\n            /* \"#utility.yul\":12738:12739   */\n          0x00\n            /* \"#utility.yul\":12755:12761   */\n          dup5\n            /* \"#utility.yul\":12752:12829   */\n          iszero\n          tag_210\n          jumpi\n            /* \"#utility.yul\":12804:12813   */\n          dup3\n            /* \"#utility.yul\":12799:12802   */\n          dup8\n            /* \"#utility.yul\":12795:12814   */\n          add\n            /* \"#utility.yul\":12789:12815   */\n          mload\n            /* \"#utility.yul\":12780:12815   */\n          swap1\n          pop\n            /* \"#utility.yul\":12752:12829   */\n        tag_210:\n            /* \"#utility.yul\":12855:12922   */\n          tag_211\n            /* \"#utility.yul\":12915:12921   */\n          dup6\n            /* \"#utility.yul\":12908:12913   */\n          dup3\n            /* \"#utility.yul\":12855:12922   */\n          tag_70\n          jump\t// in\n        tag_211:\n            /* \"#utility.yul\":12849:12853   */\n          dup7\n            /* \"#utility.yul\":12842:12923   */\n          sstore\n            /* \"#utility.yul\":12711:12933   */\n          pop\n            /* \"#utility.yul\":12046:12933   */\n          jump(tag_208)\n            /* \"#utility.yul\":12076:12694   */\n        tag_209:\n            /* \"#utility.yul\":12128:12132   */\n          0x1f\n            /* \"#utility.yul\":12124:12133   */\n          not\n            /* \"#utility.yul\":12116:12122   */\n          dup5\n            /* \"#utility.yul\":12112:12134   */\n          and\n            /* \"#utility.yul\":12162:12199   */\n          tag_212\n            /* \"#utility.yul\":12194:12198   */\n          dup7\n            /* \"#utility.yul\":12162:12199   */\n          tag_55\n          jump\t// in\n        tag_212:\n            /* \"#utility.yul\":12221:12222   */\n          0x00\n            /* \"#utility.yul\":12235:12443   */\n        tag_213:\n            /* \"#utility.yul\":12249:12256   */\n          dup3\n            /* \"#utility.yul\":12246:12247   */\n          dup2\n            /* \"#utility.yul\":12243:12257   */\n          lt\n            /* \"#utility.yul\":12235:12443   */\n          iszero\n          tag_215\n          jumpi\n            /* \"#utility.yul\":12328:12337   */\n          dup5\n            /* \"#utility.yul\":12323:12326   */\n          dup10\n            /* \"#utility.yul\":12319:12338   */\n          add\n            /* \"#utility.yul\":12313:12339   */\n          mload\n            /* \"#utility.yul\":12305:12311   */\n          dup3\n            /* \"#utility.yul\":12298:12340   */\n          sstore\n            /* \"#utility.yul\":12379:12380   */\n          0x01\n            /* \"#utility.yul\":12371:12377   */\n          dup3\n            /* \"#utility.yul\":12367:12381   */\n          add\n            /* \"#utility.yul\":12357:12381   */\n          swap2\n          pop\n            /* \"#utility.yul\":12426:12428   */\n          0x20\n            /* \"#utility.yul\":12415:12424   */\n          dup6\n            /* \"#utility.yul\":12411:12429   */\n          add\n            /* \"#utility.yul\":12398:12429   */\n          swap5\n          pop\n            /* \"#utility.yul\":12272:12276   */\n          0x20\n            /* \"#utility.yul\":12269:12270   */\n          dup2\n            /* \"#utility.yul\":12265:12277   */\n          add\n            /* \"#utility.yul\":12260:12277   */\n          swap1\n          pop\n            /* \"#utility.yul\":12235:12443   */\n          jump(tag_213)\n        tag_215:\n            /* \"#utility.yul\":12471:12477   */\n          dup7\n            /* \"#utility.yul\":12462:12469   */\n          dup4\n            /* \"#utility.yul\":12459:12478   */\n          lt\n            /* \"#utility.yul\":12456:12635   */\n          iszero\n          tag_216\n          jumpi\n            /* \"#utility.yul\":12529:12538   */\n          dup5\n            /* \"#utility.yul\":12524:12527   */\n          dup10\n            /* \"#utility.yul\":12520:12539   */\n          add\n            /* \"#utility.yul\":12514:12540   */\n          mload\n            /* \"#utility.yul\":12572:12620   */\n          tag_217\n            /* \"#utility.yul\":12614:12618   */\n          0x1f\n            /* \"#utility.yul\":12606:12612   */\n          dup10\n            /* \"#utility.yul\":12602:12619   */\n          and\n            /* \"#utility.yul\":12591:12600   */\n          dup3\n            /* \"#utility.yul\":12572:12620   */\n          tag_69\n          jump\t// in\n        tag_217:\n            /* \"#utility.yul\":12564:12570   */\n          dup4\n            /* \"#utility.yul\":12557:12621   */\n          sstore\n            /* \"#utility.yul\":12479:12635   */\n          pop\n            /* \"#utility.yul\":12456:12635   */\n        tag_216:\n            /* \"#utility.yul\":12681:12682   */\n          0x01\n            /* \"#utility.yul\":12677:12678   */\n          0x02\n            /* \"#utility.yul\":12669:12675   */\n          dup9\n            /* \"#utility.yul\":12665:12679   */\n          mul\n            /* \"#utility.yul\":12661:12683   */\n          add\n            /* \"#utility.yul\":12655:12659   */\n          dup9\n            /* \"#utility.yul\":12648:12684   */\n          sstore\n            /* \"#utility.yul\":12083:12694   */\n          pop\n          pop\n          pop\n            /* \"#utility.yul\":12046:12933   */\n        tag_208:\n          pop\n            /* \"#utility.yul\":11636:12939   */\n          pop\n          pop\n          pop\n            /* \"#utility.yul\":11544:12939   */\n          pop\n          pop\n          jump\t// out\n            /* \"#utility.yul\":12945:13125   */\n        tag_71:\n            /* \"#utility.yul\":12993:13070   */\n          0x4e487b7100000000000000000000000000000000000000000000000000000000\n            /* \"#utility.yul\":12990:12991   */\n          0x00\n            /* \"#utility.yul\":12983:13071   */\n          mstore\n            /* \"#utility.yul\":13090:13094   */\n          0x11\n            /* \"#utility.yul\":13087:13088   */\n          0x04\n            /* \"#utility.yul\":13080:13095   */\n          mstore\n            /* \"#utility.yul\":13114:13118   */\n          0x24\n            /* \"#utility.yul\":13111:13112   */\n          0x00\n            /* \"#utility.yul\":13104:13119   */\n          revert\n            /* \"#utility.yul\":13131:13541   */\n        tag_16:\n            /* \"#utility.yul\":13171:13178   */\n          0x00\n            /* \"#utility.yul\":13194:13214   */\n          tag_220\n            /* \"#utility.yul\":13212:13213   */\n          dup3\n            /* \"#utility.yul\":13194:13214   */\n          tag_59\n          jump\t// in\n        tag_220:\n            /* \"#utility.yul\":13189:13214   */\n          swap2\n          pop\n            /* \"#utility.yul\":13228:13248   */\n          tag_221\n            /* \"#utility.yul\":13246:13247   */\n          dup4\n            /* \"#utility.yul\":13228:13248   */\n          tag_59\n          jump\t// in\n        tag_221:\n            /* \"#utility.yul\":13223:13248   */\n          swap3\n          pop\n            /* \"#utility.yul\":13283:13284   */\n          dup3\n            /* \"#utility.yul\":13280:13281   */\n          dup3\n            /* \"#utility.yul\":13276:13285   */\n          mul\n            /* \"#utility.yul\":13305:13335   */\n          tag_222\n            /* \"#utility.yul\":13323:13334   */\n          dup2\n            /* \"#utility.yul\":13305:13335   */\n          tag_59\n          jump\t// in\n        tag_222:\n            /* \"#utility.yul\":13294:13335   */\n          swap2\n          pop\n            /* \"#utility.yul\":13484:13485   */\n          dup3\n            /* \"#utility.yul\":13475:13482   */\n          dup3\n            /* \"#utility.yul\":13471:13486   */\n          div\n            /* \"#utility.yul\":13468:13469   */\n          dup5\n            /* \"#utility.yul\":13465:13487   */\n          eq\n            /* \"#utility.yul\":13445:13446   */\n          dup4\n            /* \"#utility.yul\":13438:13447   */\n          iszero\n            /* \"#utility.yul\":13418:13501   */\n          or\n            /* \"#utility.yul\":13395:13534   */\n          tag_223\n          jumpi\n            /* \"#utility.yul\":13514:13532   */\n          tag_224\n          tag_71\n          jump\t// in\n        tag_224:\n            /* \"#utility.yul\":13395:13534   */\n        tag_223:\n            /* \"#utility.yul\":13179:13541   */\n          pop\n            /* \"#utility.yul\":13131:13541   */\n          swap3\n          swap2\n          pop\n          pop\n          jump\t// out\n            /* \"#utility.yul\":13547:13727   */\n        tag_72:\n            /* \"#utility.yul\":13595:13672   */\n          0x4e487b7100000000000000000000000000000000000000000000000000000000\n            /* \"#utility.yul\":13592:13593   */\n          0x00\n            /* \"#utility.yul\":13585:13673   */\n          mstore\n            /* \"#utility.yul\":13692:13696   */\n          0x12\n            /* \"#utility.yul\":13689:13690   */\n          0x04\n            /* \"#utility.yul\":13682:13697   */\n          mstore\n            /* \"#utility.yul\":13716:13720   */\n          0x24\n            /* \"#utility.yul\":13713:13714   */\n          0x00\n            /* \"#utility.yul\":13706:13721   */\n          revert\n            /* \"#utility.yul\":13733:13918   */\n        tag_18:\n            /* \"#utility.yul\":13773:13774   */\n          0x00\n            /* \"#utility.yul\":13790:13810   */\n          tag_227\n            /* \"#utility.yul\":13808:13809   */\n          dup3\n            /* \"#utility.yul\":13790:13810   */\n          tag_59\n          jump\t// in\n        tag_227:\n            /* \"#utility.yul\":13785:13810   */\n          swap2\n          pop\n            /* \"#utility.yul\":13824:13844   */\n          tag_228\n            /* \"#utility.yul\":13842:13843   */\n          dup4\n            /* \"#utility.yul\":13824:13844   */\n          tag_59\n          jump\t// in\n        tag_228:\n            /* \"#utility.yul\":13819:13844   */\n          swap3\n          pop\n            /* \"#utility.yul\":13863:13864   */\n          dup3\n            /* \"#utility.yul\":13853:13888   */\n          tag_229\n          jumpi\n            /* \"#utility.yul\":13868:13886   */\n          tag_230\n          tag_72\n          jump\t// in\n        tag_230:\n            /* \"#utility.yul\":13853:13888   */\n        tag_229:\n            /* \"#utility.yul\":13910:13911   */\n          dup3\n            /* \"#utility.yul\":13907:13908   */\n          dup3\n            /* \"#utility.yul\":13903:13912   */\n          div\n            /* \"#utility.yul\":13898:13912   */\n          swap1\n          pop\n            /* \"#utility.yul\":13733:13918   */\n          swap3\n          swap2\n          pop\n          pop\n          jump\t// out\n            /* \"Lottogemeinschaft.sol\":1709:7225  contract Lottogemeinschaft {... */\n        tag_20:\n          dataSize(sub_0)\n          dup1\n          dataOffset(sub_0)\n          0x00\n          codecopy\n          0x00\n          return\n        stop\n\n        sub_0: assembly {\n                /* \"Lottogemeinschaft.sol\":1709:7225  contract Lottogemeinschaft {... */\n              mstore(0x40, 0x80)\n              jumpi(tag_1, lt(calldatasize, 0x04))\n              shr(0xe0, calldataload(0x00))\n              dup1\n              0x833e92cb\n              gt\n              tag_26\n              jumpi\n              dup1\n              0xb08c7076\n              gt\n              tag_27\n              jumpi\n              dup1\n              0xb08c7076\n              eq\n              tag_20\n              jumpi\n              dup1\n              0xbb68a67f\n              eq\n              tag_21\n              jumpi\n              dup1\n              0xd27d06c0\n              eq\n              tag_22\n              jumpi\n              dup1\n              0xe068561a\n              eq\n              tag_23\n              jumpi\n              dup1\n              0xe34ad1d7\n              eq\n              tag_24\n              jumpi\n              dup1\n              0xe86c5692\n              eq\n              tag_25\n              jumpi\n              jump(tag_1)\n            tag_27:\n              dup1\n              0x833e92cb\n              eq\n              tag_14\n              jumpi\n              dup1\n              0x8acb4624\n              eq\n              tag_15\n              jumpi\n              dup1\n              0x91243239\n              eq\n              tag_16\n              jumpi\n              dup1\n              0xa299f171\n              eq\n              tag_17\n              jumpi\n              dup1\n              0xab76211e\n              eq\n              tag_18\n              jumpi\n              dup1\n              0xad2c046c\n              eq\n              tag_19\n              jumpi\n              jump(tag_1)\n            tag_26:\n              dup1\n              0x36927060\n              gt\n              tag_28\n              jumpi\n              dup1\n              0x36927060\n              eq\n              tag_8\n              jumpi\n              dup1\n              0x3babb15a\n              eq\n              tag_9\n              jumpi\n              dup1\n              0x3f0f5d51\n              eq\n              tag_10\n              jumpi\n              dup1\n              0x43767832\n              eq\n              tag_11\n              jumpi\n              dup1\n              0x526024ea\n              eq\n              tag_12\n              jumpi\n              dup1\n              0x70a41bc0\n              eq\n              tag_13\n              jumpi\n              jump(tag_1)\n            tag_28:\n              dup1\n              0x084263f5\n              eq\n              tag_2\n              jumpi\n              dup1\n              0x0f085e50\n              eq\n              tag_3\n              jumpi\n              dup1\n              0x2340983f\n              eq\n              tag_4\n              jumpi\n              dup1\n              0x2df368a5\n              eq\n              tag_5\n              jumpi\n              dup1\n              0x311e73da\n              eq\n              tag_6\n              jumpi\n              dup1\n              0x31c45120\n              eq\n              tag_7\n              jumpi\n            tag_1:\n              0x00\n              dup1\n              revert\n                /* \"Lottogemeinschaft.sol\":1965:1989  uint48 public auszahlung */\n            tag_2:\n              callvalue\n              dup1\n              iszero\n              tag_29\n              jumpi\n              0x00\n              dup1\n              revert\n            tag_29:\n              pop\n              tag_30\n              tag_31\n              jump\t// in\n            tag_30:\n              mload(0x40)\n              tag_32\n              swap2\n              swap1\n              tag_33\n              jump\t// in\n            tag_32:\n              mload(0x40)\n              dup1\n              swap2\n              sub\n              swap1\n              return\n                /* \"Lottogemeinschaft.sol\":2199:2234  uint public gewinnProMitspieler = 0 */\n            tag_3:\n              callvalue\n              dup1\n              iszero\n              tag_34\n              jumpi\n              0x00\n              dup1\n              revert\n            tag_34:\n              pop\n              tag_35\n              tag_36\n              jump\t// in\n            tag_35:\n              mload(0x40)\n              tag_37\n              swap2\n              swap1\n              tag_38\n              jump\t// in\n            tag_37:\n              mload(0x40)\n              dup1\n              swap2\n              sub\n              swap1\n              return\n                /* \"Lottogemeinschaft.sol\":2240:2282  bool public gewinnKannAbgeholtWerden=false */\n            tag_4:\n              callvalue\n              dup1\n              iszero\n              tag_39\n              jumpi\n              0x00\n              dup1\n              revert\n            tag_39:\n              pop\n              tag_40\n              tag_41\n              jump\t// in\n            tag_40:\n              mload(0x40)\n              tag_42\n              swap2\n              swap1\n              tag_43\n              jump\t// in\n            tag_42:\n              mload(0x40)\n              dup1\n              swap2\n              sub\n              swap1\n              return\n                /* \"Lottogemeinschaft.sol\":1888:1920  uint32 public preisProMitspieler */\n            tag_5:\n              callvalue\n              dup1\n              iszero\n              tag_44\n              jumpi\n              0x00\n              dup1\n              revert\n            tag_44:\n              pop\n              tag_45\n              tag_46\n              jump\t// in\n            tag_45:\n              mload(0x40)\n              tag_47\n              swap2\n              swap1\n              tag_48\n              jump\t// in\n            tag_47:\n              mload(0x40)\n              dup1\n              swap2\n              sub\n              swap1\n              return\n                /* \"Lottogemeinschaft.sol\":4314:4970  function gewinnEinzahlen(uint gewinn) public payable restictedToGruender {... */\n            tag_6:\n              tag_49\n              0x04\n              dup1\n              calldatasize\n              sub\n              dup2\n              add\n              swap1\n              tag_50\n              swap2\n              swap1\n              tag_51\n              jump\t// in\n            tag_50:\n              tag_52\n              jump\t// in\n            tag_49:\n              stop\n                /* \"Lottogemeinschaft.sol\":5509:5745  function preisLottoscheinAendern(uint32 neuerPreis) public restictedToGruender{... */\n            tag_7:\n              callvalue\n              dup1\n              iszero\n              tag_53\n              jumpi\n              0x00\n              dup1\n              revert\n            tag_53:\n              pop\n              tag_54\n              0x04\n              dup1\n              calldatasize\n              sub\n              dup2\n              add\n              swap1\n              tag_55\n              swap2\n              swap1\n              tag_56\n              jump\t// in\n            tag_55:\n              tag_57\n              jump\t// in\n            tag_54:\n              stop\n                /* \"Lottogemeinschaft.sol\":1995:2037  mapping(address => bool) public mitspieler */\n            tag_8:\n              callvalue\n              dup1\n              iszero\n              tag_58\n              jumpi\n              0x00\n              dup1\n              revert\n            tag_58:\n              pop\n              tag_59\n              0x04\n              dup1\n              calldatasize\n              sub\n              dup2\n              add\n              swap1\n              tag_60\n              swap2\n              swap1\n              tag_61\n              jump\t// in\n            tag_60:\n              tag_62\n              jump\t// in\n            tag_59:\n              mload(0x40)\n              tag_63\n              swap2\n              swap1\n              tag_43\n              jump\t// in\n            tag_63:\n              mload(0x40)\n              dup1\n              swap2\n              sub\n              swap1\n              return\n                /* \"Lottogemeinschaft.sol\":2156:2193  uint16 public anzahlTeilnehmerAktuell */\n            tag_9:\n              callvalue\n              dup1\n              iszero\n              tag_64\n              jumpi\n              0x00\n              dup1\n              revert\n            tag_64:\n              pop\n              tag_65\n              tag_66\n              jump\t// in\n            tag_65:\n              mload(0x40)\n              tag_67\n              swap2\n              swap1\n              tag_68\n              jump\t// in\n            tag_67:\n              mload(0x40)\n              dup1\n              swap2\n              sub\n              swap1\n              return\n                /* \"Lottogemeinschaft.sol\":1852:1882  uint32 public preisLottoschein */\n            tag_10:\n              callvalue\n              dup1\n              iszero\n              tag_69\n              jumpi\n              0x00\n              dup1\n              revert\n            tag_69:\n              pop\n              tag_70\n              tag_71\n              jump\t// in\n            tag_70:\n              mload(0x40)\n              tag_72\n              swap2\n              swap1\n              tag_48\n              jump\t// in\n            tag_72:\n              mload(0x40)\n              dup1\n              swap2\n              sub\n              swap1\n              return\n                /* \"Lottogemeinschaft.sol\":6043:6317  function erlaubteMitspielerAdresseHinzufuegen(address _erlaubterMitspieler) public restictedToGruender{... */\n            tag_11:\n              callvalue\n              dup1\n              iszero\n              tag_73\n              jumpi\n              0x00\n              dup1\n              revert\n            tag_73:\n              pop\n              tag_74\n              0x04\n              dup1\n              calldatasize\n              sub\n              dup2\n              add\n              swap1\n              tag_75\n              swap2\n              swap1\n              tag_61\n              jump\t// in\n            tag_75:\n              tag_76\n              jump\t// in\n            tag_74:\n              stop\n                /* \"Lottogemeinschaft.sol\":3426:4266  function mitmachen() public payable {... */\n            tag_12:\n              tag_77\n              tag_78\n              jump\t// in\n            tag_77:\n              stop\n                /* \"Lottogemeinschaft.sol\":1813:1846  uint16 public maxTeilnehmerAnzahl */\n            tag_13:\n              callvalue\n              dup1\n              iszero\n              tag_79\n              jumpi\n              0x00\n              dup1\n              revert\n            tag_79:\n              pop\n              tag_80\n              tag_81\n              jump\t// in\n            tag_80:\n              mload(0x40)\n              tag_82\n              swap2\n              swap1\n              tag_68\n              jump\t// in\n            tag_82:\n              mload(0x40)\n              dup1\n              swap2\n              sub\n              swap1\n              return\n                /* \"Lottogemeinschaft.sol\":5018:5502  function gewinnAbholen() public restictedToMitspieler nonReentrant {... */\n            tag_14:\n              callvalue\n              dup1\n              iszero\n              tag_83\n              jumpi\n              0x00\n              dup1\n              revert\n            tag_83:\n              pop\n              tag_84\n              tag_85\n              jump\t// in\n            tag_84:\n              stop\n                /* \"Lottogemeinschaft.sol\":1926:1959  string public spielauftragsNummer */\n            tag_15:\n              callvalue\n              dup1\n              iszero\n              tag_86\n              jumpi\n              0x00\n              dup1\n              revert\n            tag_86:\n              pop\n              tag_87\n              tag_88\n              jump\t// in\n            tag_87:\n              mload(0x40)\n              tag_89\n              swap2\n              swap1\n              tag_90\n              jump\t// in\n            tag_89:\n              mload(0x40)\n              dup1\n              swap2\n              sub\n              swap1\n              return\n                /* \"Lottogemeinschaft.sol\":2043:2091  mapping(address => bool) public gewinnAusgezahlt */\n            tag_16:\n              callvalue\n              dup1\n              iszero\n              tag_91\n              jumpi\n              0x00\n              dup1\n              revert\n            tag_91:\n              pop\n              tag_92\n              0x04\n              dup1\n              calldatasize\n              sub\n              dup2\n              add\n              swap1\n              tag_93\n              swap2\n              swap1\n              tag_61\n              jump\t// in\n            tag_93:\n              tag_94\n              jump\t// in\n            tag_92:\n              mload(0x40)\n              tag_95\n              swap2\n              swap1\n              tag_43\n              jump\t// in\n            tag_95:\n              mload(0x40)\n              dup1\n              swap2\n              sub\n              swap1\n              return\n                /* \"Lottogemeinschaft.sol\":6731:7221  function einsatzZurueckholen() public restictedToMitspieler nonReentrant {... */\n            tag_17:\n              callvalue\n              dup1\n              iszero\n              tag_96\n              jumpi\n              0x00\n              dup1\n              revert\n            tag_96:\n              pop\n              tag_97\n              tag_98\n              jump\t// in\n            tag_97:\n              stop\n                /* \"Lottogemeinschaft.sol\":6418:6675  function gemeinschaftAufloesen() public restictedToGruender {... */\n            tag_18:\n              callvalue\n              dup1\n              iszero\n              tag_99\n              jumpi\n              0x00\n              dup1\n              revert\n            tag_99:\n              pop\n              tag_100\n              tag_101\n              jump\t// in\n            tag_100:\n              stop\n                /* \"Lottogemeinschaft.sol\":1743:1766  address public gruender */\n            tag_19:\n              callvalue\n              dup1\n              iszero\n              tag_102\n              jumpi\n              0x00\n              dup1\n              revert\n            tag_102:\n              pop\n              tag_103\n              tag_104\n              jump\t// in\n            tag_103:\n              mload(0x40)\n              tag_105\n              swap2\n              swap1\n              tag_106\n              jump\t// in\n            tag_105:\n              mload(0x40)\n              dup1\n              swap2\n              sub\n              swap1\n              return\n                /* \"Lottogemeinschaft.sol\":2288:2327  bool public nurErlaubteMitspieler=false */\n            tag_20:\n              callvalue\n              dup1\n              iszero\n              tag_107\n              jumpi\n              0x00\n              dup1\n              revert\n            tag_107:\n              pop\n              tag_108\n              tag_109\n              jump\t// in\n            tag_108:\n              mload(0x40)\n              tag_110\n              swap2\n              swap1\n              tag_43\n              jump\t// in\n            tag_110:\n              mload(0x40)\n              dup1\n              swap2\n              sub\n              swap1\n              return\n                /* \"Lottogemeinschaft.sol\":2097:2150  mapping(address => bool) public einsatzZurueckGezahlt */\n            tag_21:\n              callvalue\n              dup1\n              iszero\n              tag_111\n              jumpi\n              0x00\n              dup1\n              revert\n            tag_111:\n              pop\n              tag_112\n              0x04\n              dup1\n              calldatasize\n              sub\n              dup2\n              add\n              swap1\n              tag_113\n              swap2\n              swap1\n              tag_61\n              jump\t// in\n            tag_113:\n              tag_114\n              jump\t// in\n            tag_112:\n              mload(0x40)\n              tag_115\n              swap2\n              swap1\n              tag_43\n              jump\t// in\n            tag_115:\n              mload(0x40)\n              dup1\n              swap2\n              sub\n              swap1\n              return\n                /* \"Lottogemeinschaft.sol\":1772:1807  string public tippgemeinschaftsName */\n            tag_22:\n              callvalue\n              dup1\n              iszero\n              tag_116\n              jumpi\n              0x00\n              dup1\n              revert\n            tag_116:\n              pop\n              tag_117\n              tag_118\n              jump\t// in\n            tag_117:\n              mload(0x40)\n              tag_119\n              swap2\n              swap1\n              tag_90\n              jump\t// in\n            tag_119:\n              mload(0x40)\n              dup1\n              swap2\n              sub\n              swap1\n              return\n                /* \"Lottogemeinschaft.sol\":5751:6037  function anzahlMitspielerAendern(uint16 neueAnzahlMaxTeilnehmer) public restictedToGruender{... */\n            tag_23:\n              callvalue\n              dup1\n              iszero\n              tag_120\n              jumpi\n              0x00\n              dup1\n              revert\n            tag_120:\n              pop\n              tag_121\n              0x04\n              dup1\n              calldatasize\n              sub\n              dup2\n              add\n              swap1\n              tag_122\n              swap2\n              swap1\n              tag_123\n              jump\t// in\n            tag_122:\n              tag_124\n              jump\t// in\n            tag_121:\n              stop\n                /* \"Lottogemeinschaft.sol\":2415:2437  bool public aufgeloest */\n            tag_24:\n              callvalue\n              dup1\n              iszero\n              tag_125\n              jumpi\n              0x00\n              dup1\n              revert\n            tag_125:\n              pop\n              tag_126\n              tag_127\n              jump\t// in\n            tag_126:\n              mload(0x40)\n              tag_128\n              swap2\n              swap1\n              tag_43\n              jump\t// in\n            tag_128:\n              mload(0x40)\n              dup1\n              swap2\n              sub\n              swap1\n              return\n                /* \"Lottogemeinschaft.sol\":2333:2384  mapping(address => bool) public erlaubterMitspieler */\n            tag_25:\n              callvalue\n              dup1\n              iszero\n              tag_129\n              jumpi\n              0x00\n              dup1\n              revert\n            tag_129:\n              pop\n              tag_130\n              0x04\n              dup1\n              calldatasize\n              sub\n              dup2\n              add\n              swap1\n              tag_131\n              swap2\n              swap1\n              tag_61\n              jump\t// in\n            tag_131:\n              tag_132\n              jump\t// in\n            tag_130:\n              mload(0x40)\n              tag_133\n              swap2\n              swap1\n              tag_43\n              jump\t// in\n            tag_133:\n              mload(0x40)\n              dup1\n              swap2\n              sub\n              swap1\n              return\n                /* \"Lottogemeinschaft.sol\":1965:1989  uint48 public auszahlung */\n            tag_31:\n              0x04\n              0x00\n              swap1\n              sload\n              swap1\n              0x0100\n              exp\n              swap1\n              div\n              0xffffffffffff\n              and\n              dup2\n              jump\t// out\n                /* \"Lottogemeinschaft.sol\":2199:2234  uint public gewinnProMitspieler = 0 */\n            tag_36:\n              sload(0x09)\n              dup2\n              jump\t// out\n                /* \"Lottogemeinschaft.sol\":2240:2282  bool public gewinnKannAbgeholtWerden=false */\n            tag_41:\n              0x0a\n              0x00\n              swap1\n              sload\n              swap1\n              0x0100\n              exp\n              swap1\n              div\n              0xff\n              and\n              dup2\n              jump\t// out\n                /* \"Lottogemeinschaft.sol\":1888:1920  uint32 public preisProMitspieler */\n            tag_46:\n              0x02\n              0x06\n              swap1\n              sload\n              swap1\n              0x0100\n              exp\n              swap1\n              div\n              0xffffffff\n              and\n              dup2\n              jump\t// out\n                /* \"Lottogemeinschaft.sol\":4314:4970  function gewinnEinzahlen(uint gewinn) public payable restictedToGruender {... */\n            tag_52:\n                /* \"Lottogemeinschaft.sol\":3157:3165  gruender */\n              0x00\n              dup1\n              sload\n              swap1\n              0x0100\n              exp\n              swap1\n              div\n              0xffffffffffffffffffffffffffffffffffffffff\n              and\n                /* \"Lottogemeinschaft.sol\":3143:3165  msg.sender == gruender */\n              0xffffffffffffffffffffffffffffffffffffffff\n              and\n                /* \"Lottogemeinschaft.sol\":3143:3153  msg.sender */\n              caller\n                /* \"Lottogemeinschaft.sol\":3143:3165  msg.sender == gruender */\n              0xffffffffffffffffffffffffffffffffffffffff\n              and\n              eq\n                /* \"Lottogemeinschaft.sol\":3135:3166  require(msg.sender == gruender) */\n              tag_135\n              jumpi\n              0x00\n              dup1\n              revert\n            tag_135:\n                /* \"Lottogemeinschaft.sol\":4503:4504  0 */\n              0x00\n                /* \"Lottogemeinschaft.sol\":4491:4500  msg.value */\n              callvalue\n                /* \"Lottogemeinschaft.sol\":4491:4504  msg.value > 0 */\n              gt\n                /* \"Lottogemeinschaft.sol\":4483:4551  require(msg.value > 0, \"Einzahlungsbetrag muss groesser als 0 sein\") */\n              tag_137\n              jumpi\n              mload(0x40)\n              0x08c379a000000000000000000000000000000000000000000000000000000000\n              dup2\n              mstore\n              0x04\n              add\n              tag_138\n              swap1\n              tag_139\n              jump\t// in\n            tag_138:\n              mload(0x40)\n              dup1\n              swap2\n              sub\n              swap1\n              revert\n            tag_137:\n                /* \"Lottogemeinschaft.sol\":4590:4591  0 */\n              0x00\n                /* \"Lottogemeinschaft.sol\":4569:4588  gewinnProMitspieler */\n              sload(0x09)\n                /* \"Lottogemeinschaft.sol\":4569:4591  gewinnProMitspieler==0 */\n              eq\n                /* \"Lottogemeinschaft.sol\":4561:4628  require(gewinnProMitspieler==0, \"Gewinn wurde bereits eingezahlt.\") */\n              tag_140\n              jumpi\n              mload(0x40)\n              0x08c379a000000000000000000000000000000000000000000000000000000000\n              dup2\n              mstore\n              0x04\n              add\n              tag_141\n              swap1\n              tag_142\n              jump\t// in\n            tag_141:\n              mload(0x40)\n              dup1\n              swap2\n              sub\n              swap1\n              revert\n            tag_140:\n                /* \"Lottogemeinschaft.sol\":4898:4921  anzahlTeilnehmerAktuell */\n              0x08\n              0x00\n              swap1\n              sload\n              swap1\n              0x0100\n              exp\n              swap1\n              div\n              0xffff\n              and\n                /* \"Lottogemeinschaft.sol\":4889:4921  gewinn / anzahlTeilnehmerAktuell */\n              0xffff\n              and\n                /* \"Lottogemeinschaft.sol\":4889:4895  gewinn */\n              dup2\n                /* \"Lottogemeinschaft.sol\":4889:4921  gewinn / anzahlTeilnehmerAktuell */\n              tag_143\n              swap2\n              swap1\n              tag_144\n              jump\t// in\n            tag_143:\n                /* \"Lottogemeinschaft.sol\":4867:4886  gewinnProMitspieler */\n              0x09\n                /* \"Lottogemeinschaft.sol\":4867:4921  gewinnProMitspieler = gewinn / anzahlTeilnehmerAktuell */\n              dup2\n              swap1\n              sstore\n              pop\n                /* \"Lottogemeinschaft.sol\":4958:4962  true */\n              0x01\n                /* \"Lottogemeinschaft.sol\":4931:4955  gewinnKannAbgeholtWerden */\n              0x0a\n              0x00\n                /* \"Lottogemeinschaft.sol\":4931:4962  gewinnKannAbgeholtWerden = true */\n              0x0100\n              exp\n              dup2\n              sload\n              dup2\n              0xff\n              mul\n              not\n              and\n              swap1\n              dup4\n              iszero\n              iszero\n              mul\n              or\n              swap1\n              sstore\n              pop\n                /* \"Lottogemeinschaft.sol\":4314:4970  function gewinnEinzahlen(uint gewinn) public payable restictedToGruender {... */\n              pop\n              jump\t// out\n                /* \"Lottogemeinschaft.sol\":5509:5745  function preisLottoscheinAendern(uint32 neuerPreis) public restictedToGruender{... */\n            tag_57:\n                /* \"Lottogemeinschaft.sol\":3157:3165  gruender */\n              0x00\n              dup1\n              sload\n              swap1\n              0x0100\n              exp\n              swap1\n              div\n              0xffffffffffffffffffffffffffffffffffffffff\n              and\n                /* \"Lottogemeinschaft.sol\":3143:3165  msg.sender == gruender */\n              0xffffffffffffffffffffffffffffffffffffffff\n              and\n                /* \"Lottogemeinschaft.sol\":3143:3153  msg.sender */\n              caller\n                /* \"Lottogemeinschaft.sol\":3143:3165  msg.sender == gruender */\n              0xffffffffffffffffffffffffffffffffffffffff\n              and\n              eq\n                /* \"Lottogemeinschaft.sol\":3135:3166  require(msg.sender == gruender) */\n              tag_146\n              jumpi\n              0x00\n              dup1\n              revert\n            tag_146:\n                /* \"Lottogemeinschaft.sol\":5630:5631  0 */\n              0x00\n                /* \"Lottogemeinschaft.sol\":5605:5628  anzahlTeilnehmerAktuell */\n              0x08\n              0x00\n              swap1\n              sload\n              swap1\n              0x0100\n              exp\n              swap1\n              div\n              0xffff\n              and\n                /* \"Lottogemeinschaft.sol\":5605:5631  anzahlTeilnehmerAktuell==0 */\n              0xffff\n              and\n              eq\n                /* \"Lottogemeinschaft.sol\":5597:5699  require(anzahlTeilnehmerAktuell==0, \"Es gibt bereits Mitspieler. Preisaenderung nicht mehr moeglich.\") */\n              tag_148\n              jumpi\n              mload(0x40)\n              0x08c379a000000000000000000000000000000000000000000000000000000000\n              dup2\n              mstore\n              0x04\n              add\n              tag_149\n              swap1\n              tag_150\n              jump\t// in\n            tag_149:\n              mload(0x40)\n              dup1\n              swap2\n              sub\n              swap1\n              revert\n            tag_148:\n                /* \"Lottogemeinschaft.sol\":5728:5738  neuerPreis */\n              dup1\n                /* \"Lottogemeinschaft.sol\":5709:5725  preisLottoschein */\n              0x02\n              dup1\n                /* \"Lottogemeinschaft.sol\":5709:5738  preisLottoschein = neuerPreis */\n              0x0100\n              exp\n              dup2\n              sload\n              dup2\n              0xffffffff\n              mul\n              not\n              and\n              swap1\n              dup4\n              0xffffffff\n              and\n              mul\n              or\n              swap1\n              sstore\n              pop\n                /* \"Lottogemeinschaft.sol\":5509:5745  function preisLottoscheinAendern(uint32 neuerPreis) public restictedToGruender{... */\n              pop\n              jump\t// out\n                /* \"Lottogemeinschaft.sol\":1995:2037  mapping(address => bool) public mitspieler */\n            tag_62:\n              mstore(0x20, 0x05)\n              dup1\n              0x00\n              mstore\n              keccak256(0x00, 0x40)\n              0x00\n              swap2\n              pop\n              sload\n              swap1\n              0x0100\n              exp\n              swap1\n              div\n              0xff\n              and\n              dup2\n              jump\t// out\n                /* \"Lottogemeinschaft.sol\":2156:2193  uint16 public anzahlTeilnehmerAktuell */\n            tag_66:\n              0x08\n              0x00\n              swap1\n              sload\n              swap1\n              0x0100\n              exp\n              swap1\n              div\n              0xffff\n              and\n              dup2\n              jump\t// out\n                /* \"Lottogemeinschaft.sol\":1852:1882  uint32 public preisLottoschein */\n            tag_71:\n              0x02\n              dup1\n              sload\n              swap1\n              0x0100\n              exp\n              swap1\n              div\n              0xffffffff\n              and\n              dup2\n              jump\t// out\n                /* \"Lottogemeinschaft.sol\":6043:6317  function erlaubteMitspielerAdresseHinzufuegen(address _erlaubterMitspieler) public restictedToGruender{... */\n            tag_76:\n                /* \"Lottogemeinschaft.sol\":3157:3165  gruender */\n              0x00\n              dup1\n              sload\n              swap1\n              0x0100\n              exp\n              swap1\n              div\n              0xffffffffffffffffffffffffffffffffffffffff\n              and\n                /* \"Lottogemeinschaft.sol\":3143:3165  msg.sender == gruender */\n              0xffffffffffffffffffffffffffffffffffffffff\n              and\n                /* \"Lottogemeinschaft.sol\":3143:3153  msg.sender */\n              caller\n                /* \"Lottogemeinschaft.sol\":3143:3165  msg.sender == gruender */\n              0xffffffffffffffffffffffffffffffffffffffff\n              and\n              eq\n                /* \"Lottogemeinschaft.sol\":3135:3166  require(msg.sender == gruender) */\n              tag_152\n              jumpi\n              0x00\n              dup1\n              revert\n            tag_152:\n                /* \"Lottogemeinschaft.sol\":6188:6189  0 */\n              0x00\n                /* \"Lottogemeinschaft.sol\":6163:6186  anzahlTeilnehmerAktuell */\n              0x08\n              0x00\n              swap1\n              sload\n              swap1\n              0x0100\n              exp\n              swap1\n              div\n              0xffff\n              and\n                /* \"Lottogemeinschaft.sol\":6163:6189  anzahlTeilnehmerAktuell==0 */\n              0xffff\n              and\n              eq\n                /* \"Lottogemeinschaft.sol\":6155:6252  require(anzahlTeilnehmerAktuell==0, \"Es gibt bereits Mitspieler. Aenderung nicht mehr moeglich.\") */\n              tag_154\n              jumpi\n              mload(0x40)\n              0x08c379a000000000000000000000000000000000000000000000000000000000\n              dup2\n              mstore\n              0x04\n              add\n              tag_155\n              swap1\n              tag_156\n              jump\t// in\n            tag_155:\n              mload(0x40)\n              dup1\n              swap2\n              sub\n              swap1\n              revert\n            tag_154:\n                /* \"Lottogemeinschaft.sol\":6306:6310  true */\n              0x01\n                /* \"Lottogemeinschaft.sol\":6262:6281  erlaubterMitspieler */\n              0x0b\n                /* \"Lottogemeinschaft.sol\":6262:6303  erlaubterMitspieler[_erlaubterMitspieler] */\n              0x00\n                /* \"Lottogemeinschaft.sol\":6282:6302  _erlaubterMitspieler */\n              dup4\n                /* \"Lottogemeinschaft.sol\":6262:6303  erlaubterMitspieler[_erlaubterMitspieler] */\n              0xffffffffffffffffffffffffffffffffffffffff\n              and\n              0xffffffffffffffffffffffffffffffffffffffff\n              and\n              dup2\n              mstore\n              0x20\n              add\n              swap1\n              dup2\n              mstore\n              0x20\n              add\n              0x00\n              keccak256\n              0x00\n                /* \"Lottogemeinschaft.sol\":6262:6310  erlaubterMitspieler[_erlaubterMitspieler] = true */\n              0x0100\n              exp\n              dup2\n              sload\n              dup2\n              0xff\n              mul\n              not\n              and\n              swap1\n              dup4\n              iszero\n              iszero\n              mul\n              or\n              swap1\n              sstore\n              pop\n                /* \"Lottogemeinschaft.sol\":6043:6317  function erlaubteMitspielerAdresseHinzufuegen(address _erlaubterMitspieler) public restictedToGruender{... */\n              pop\n              jump\t// out\n                /* \"Lottogemeinschaft.sol\":3426:4266  function mitmachen() public payable {... */\n            tag_78:\n                /* \"Lottogemeinschaft.sol\":3513:3514  0 */\n              0x00\n                /* \"Lottogemeinschaft.sol\":3494:3512  preisProMitspieler */\n              0x02\n              0x06\n              swap1\n              sload\n              swap1\n              0x0100\n              exp\n              swap1\n              div\n              0xffffffff\n              and\n                /* \"Lottogemeinschaft.sol\":3494:3514  preisProMitspieler>0 */\n              0xffffffff\n              and\n              gt\n                /* \"Lottogemeinschaft.sol\":3486:3544  require(preisProMitspieler>0, \"Kein Preis pro Mitspieler\") */\n              tag_158\n              jumpi\n              mload(0x40)\n              0x08c379a000000000000000000000000000000000000000000000000000000000\n              dup2\n              mstore\n              0x04\n              add\n              tag_159\n              swap1\n              tag_160\n              jump\t// in\n            tag_159:\n              mload(0x40)\n              dup1\n              swap2\n              sub\n              swap1\n              revert\n            tag_158:\n                /* \"Lottogemeinschaft.sol\":3575:3593  preisProMitspieler */\n              0x02\n              0x06\n              swap1\n              sload\n              swap1\n              0x0100\n              exp\n              swap1\n              div\n              0xffffffff\n              and\n                /* \"Lottogemeinschaft.sol\":3562:3593  msg.value >= preisProMitspieler */\n              0xffffffff\n              and\n                /* \"Lottogemeinschaft.sol\":3562:3571  msg.value */\n              callvalue\n                /* \"Lottogemeinschaft.sol\":3562:3593  msg.value >= preisProMitspieler */\n              lt\n              iszero\n                /* \"Lottogemeinschaft.sol\":3554:3627  require(msg.value >= preisProMitspieler, \"Zu geringer Einzahlungsbetrag\") */\n              tag_161\n              jumpi\n              mload(0x40)\n              0x08c379a000000000000000000000000000000000000000000000000000000000\n              dup2\n              mstore\n              0x04\n              add\n              tag_162\n              swap1\n              tag_163\n              jump\t// in\n            tag_162:\n              mload(0x40)\n              dup1\n              swap2\n              sub\n              swap1\n              revert\n            tag_161:\n                /* \"Lottogemeinschaft.sol\":3646:3656  mitspieler */\n              0x05\n                /* \"Lottogemeinschaft.sol\":3646:3668  mitspieler[msg.sender] */\n              0x00\n                /* \"Lottogemeinschaft.sol\":3657:3667  msg.sender */\n              caller\n                /* \"Lottogemeinschaft.sol\":3646:3668  mitspieler[msg.sender] */\n              0xffffffffffffffffffffffffffffffffffffffff\n              and\n              0xffffffffffffffffffffffffffffffffffffffff\n              and\n              dup2\n              mstore\n              0x20\n              add\n              swap1\n              dup2\n              mstore\n              0x20\n              add\n              0x00\n              keccak256\n              0x00\n              swap1\n              sload\n              swap1\n              0x0100\n              exp\n              swap1\n              div\n              0xff\n              and\n                /* \"Lottogemeinschaft.sol\":3645:3668  !mitspieler[msg.sender] */\n              iszero\n                /* \"Lottogemeinschaft.sol\":3637:3707  require(!mitspieler[msg.sender], \"Bereits als Mitspieler registriert\") */\n              tag_164\n              jumpi\n              mload(0x40)\n              0x08c379a000000000000000000000000000000000000000000000000000000000\n              dup2\n              mstore\n              0x04\n              add\n              tag_165\n              swap1\n              tag_166\n              jump\t// in\n            tag_165:\n              mload(0x40)\n              dup1\n              swap2\n              sub\n              swap1\n              revert\n            tag_164:\n                /* \"Lottogemeinschaft.sol\":3751:3770  maxTeilnehmerAnzahl */\n              0x02\n              0x00\n              swap1\n              sload\n              swap1\n              0x0100\n              exp\n              swap1\n              div\n              0xffff\n              and\n                /* \"Lottogemeinschaft.sol\":3725:3770  anzahlTeilnehmerAktuell < maxTeilnehmerAnzahl */\n              0xffff\n              and\n                /* \"Lottogemeinschaft.sol\":3725:3748  anzahlTeilnehmerAktuell */\n              0x08\n              0x00\n              swap1\n              sload\n              swap1\n              0x0100\n              exp\n              swap1\n              div\n              0xffff\n              and\n                /* \"Lottogemeinschaft.sol\":3725:3770  anzahlTeilnehmerAktuell < maxTeilnehmerAnzahl */\n              0xffff\n              and\n              lt\n                /* \"Lottogemeinschaft.sol\":3717:3807  require(anzahlTeilnehmerAktuell < maxTeilnehmerAnzahl, \"Maximale Teilnehmerzahl erreicht\") */\n              tag_167\n              jumpi\n              mload(0x40)\n              0x08c379a000000000000000000000000000000000000000000000000000000000\n              dup2\n              mstore\n              0x04\n              add\n              tag_168\n              swap1\n              tag_169\n              jump\t// in\n            tag_168:\n              mload(0x40)\n              dup1\n              swap2\n              sub\n              swap1\n              revert\n            tag_167:\n                /* \"Lottogemeinschaft.sol\":3846:3847  0 */\n              0x00\n                /* \"Lottogemeinschaft.sol\":3825:3844  gewinnProMitspieler */\n              sload(0x09)\n                /* \"Lottogemeinschaft.sol\":3825:3847  gewinnProMitspieler==0 */\n              eq\n                /* \"Lottogemeinschaft.sol\":3817:3883  require(gewinnProMitspieler==0, \"Gewinn wurde bereits eingezahlt\") */\n              tag_170\n              jumpi\n              mload(0x40)\n              0x08c379a000000000000000000000000000000000000000000000000000000000\n              dup2\n              mstore\n              0x04\n              add\n              tag_171\n              swap1\n              tag_172\n              jump\t// in\n            tag_171:\n              mload(0x40)\n              dup1\n              swap2\n              sub\n              swap1\n              revert\n            tag_170:\n                /* \"Lottogemeinschaft.sol\":3897:3918  nurErlaubteMitspieler */\n              0x0a\n              0x01\n              swap1\n              sload\n              swap1\n              0x0100\n              exp\n              swap1\n              div\n              0xff\n              and\n                /* \"Lottogemeinschaft.sol\":3893:3984  if (nurErlaubteMitspieler){... */\n              iszero\n              tag_173\n              jumpi\n                /* \"Lottogemeinschaft.sol\":3941:3960  erlaubterMitspieler */\n              0x0b\n                /* \"Lottogemeinschaft.sol\":3941:3972  erlaubterMitspieler[msg.sender] */\n              0x00\n                /* \"Lottogemeinschaft.sol\":3961:3971  msg.sender */\n              caller\n                /* \"Lottogemeinschaft.sol\":3941:3972  erlaubterMitspieler[msg.sender] */\n              0xffffffffffffffffffffffffffffffffffffffff\n              and\n              0xffffffffffffffffffffffffffffffffffffffff\n              and\n              dup2\n              mstore\n              0x20\n              add\n              swap1\n              dup2\n              mstore\n              0x20\n              add\n              0x00\n              keccak256\n              0x00\n              swap1\n              sload\n              swap1\n              0x0100\n              exp\n              swap1\n              div\n              0xff\n              and\n                /* \"Lottogemeinschaft.sol\":3933:3973  require(erlaubterMitspieler[msg.sender]) */\n              tag_174\n              jumpi\n              0x00\n              dup1\n              revert\n            tag_174:\n                /* \"Lottogemeinschaft.sol\":3893:3984  if (nurErlaubteMitspieler){... */\n            tag_173:\n                /* \"Lottogemeinschaft.sol\":4015:4031  uint ueberschuss */\n              0x00\n                /* \"Lottogemeinschaft.sol\":4046:4064  preisProMitspieler */\n              0x02\n              0x06\n              swap1\n              sload\n              swap1\n              0x0100\n              exp\n              swap1\n              div\n              0xffffffff\n              and\n                /* \"Lottogemeinschaft.sol\":4034:4064  msg.value - preisProMitspieler */\n              0xffffffff\n              and\n                /* \"Lottogemeinschaft.sol\":4034:4043  msg.value */\n              callvalue\n                /* \"Lottogemeinschaft.sol\":4034:4064  msg.value - preisProMitspieler */\n              tag_175\n              swap2\n              swap1\n              tag_176\n              jump\t// in\n            tag_175:\n                /* \"Lottogemeinschaft.sol\":4015:4064  uint ueberschuss = msg.value - preisProMitspieler */\n              swap1\n              pop\n                /* \"Lottogemeinschaft.sol\":4099:4103  true */\n              0x01\n                /* \"Lottogemeinschaft.sol\":4074:4084  mitspieler */\n              0x05\n                /* \"Lottogemeinschaft.sol\":4074:4096  mitspieler[msg.sender] */\n              0x00\n                /* \"Lottogemeinschaft.sol\":4085:4095  msg.sender */\n              caller\n                /* \"Lottogemeinschaft.sol\":4074:4096  mitspieler[msg.sender] */\n              0xffffffffffffffffffffffffffffffffffffffff\n              and\n              0xffffffffffffffffffffffffffffffffffffffff\n              and\n              dup2\n              mstore\n              0x20\n              add\n              swap1\n              dup2\n              mstore\n              0x20\n              add\n              0x00\n              keccak256\n              0x00\n                /* \"Lottogemeinschaft.sol\":4074:4103  mitspieler[msg.sender] = true */\n              0x0100\n              exp\n              dup2\n              sload\n              dup2\n              0xff\n              mul\n              not\n              and\n              swap1\n              dup4\n              iszero\n              iszero\n              mul\n              or\n              swap1\n              sstore\n              pop\n                /* \"Lottogemeinschaft.sol\":4113:4136  anzahlTeilnehmerAktuell */\n              0x08\n              0x00\n                /* \"Lottogemeinschaft.sol\":4113:4138  anzahlTeilnehmerAktuell++ */\n              dup2\n              dup2\n              swap1\n              sload\n              swap1\n              0x0100\n              exp\n              swap1\n              div\n              0xffff\n              and\n              dup1\n              swap3\n              swap2\n              swap1\n              tag_177\n              swap1\n              tag_178\n              jump\t// in\n            tag_177:\n              swap2\n              swap1\n              0x0100\n              exp\n              dup2\n              sload\n              dup2\n              0xffff\n              mul\n              not\n              and\n              swap1\n              dup4\n              0xffff\n              and\n              mul\n              or\n              swap1\n              sstore\n              pop\n              pop\n                /* \"Lottogemeinschaft.sol\":4191:4192  0 */\n              0x00\n                /* \"Lottogemeinschaft.sol\":4177:4188  ueberschuss */\n              dup2\n                /* \"Lottogemeinschaft.sol\":4177:4192  ueberschuss > 0 */\n              gt\n                /* \"Lottogemeinschaft.sol\":4173:4260  if (ueberschuss > 0) {... */\n              iszero\n              tag_179\n              jumpi\n                /* \"Lottogemeinschaft.sol\":4216:4226  msg.sender */\n              caller\n                /* \"Lottogemeinschaft.sol\":4208:4236  payable(msg.sender).transfer */\n              0xffffffffffffffffffffffffffffffffffffffff\n              and\n                /* \"Lottogemeinschaft.sol\":4208:4249  payable(msg.sender).transfer(ueberschuss) */\n              0x08fc\n                /* \"Lottogemeinschaft.sol\":4237:4248  ueberschuss */\n              dup3\n                /* \"Lottogemeinschaft.sol\":4208:4249  payable(msg.sender).transfer(ueberschuss) */\n              swap1\n              dup2\n              iszero\n              mul\n              swap1\n              mload(0x40)\n              0x00\n              mload(0x40)\n              dup1\n              dup4\n              sub\n              dup2\n              dup6\n              dup9\n              dup9\n              call\n              swap4\n              pop\n              pop\n              pop\n              pop\n              iszero\n              dup1\n              iszero\n              tag_181\n              jumpi\n              returndatasize\n              0x00\n              dup1\n              returndatacopy\n              revert(0x00, returndatasize)\n            tag_181:\n              pop\n                /* \"Lottogemeinschaft.sol\":4173:4260  if (ueberschuss > 0) {... */\n            tag_179:\n                /* \"Lottogemeinschaft.sol\":3462:4266  {... */\n              pop\n                /* \"Lottogemeinschaft.sol\":3426:4266  function mitmachen() public payable {... */\n              jump\t// out\n                /* \"Lottogemeinschaft.sol\":1813:1846  uint16 public maxTeilnehmerAnzahl */\n            tag_81:\n              0x02\n              0x00\n              swap1\n              sload\n              swap1\n              0x0100\n              exp\n              swap1\n              div\n              0xffff\n              and\n              dup2\n              jump\t// out\n                /* \"Lottogemeinschaft.sol\":5018:5502  function gewinnAbholen() public restictedToMitspieler nonReentrant {... */\n            tag_85:\n                /* \"Lottogemeinschaft.sol\":3240:3250  mitspieler */\n              0x05\n                /* \"Lottogemeinschaft.sol\":3240:3262  mitspieler[msg.sender] */\n              0x00\n                /* \"Lottogemeinschaft.sol\":3251:3261  msg.sender */\n              caller\n                /* \"Lottogemeinschaft.sol\":3240:3262  mitspieler[msg.sender] */\n              0xffffffffffffffffffffffffffffffffffffffff\n              and\n              0xffffffffffffffffffffffffffffffffffffffff\n              and\n              dup2\n              mstore\n              0x20\n              add\n              swap1\n              dup2\n              mstore\n              0x20\n              add\n              0x00\n              keccak256\n              0x00\n              swap1\n              sload\n              swap1\n              0x0100\n              exp\n              swap1\n              div\n              0xff\n              and\n                /* \"Lottogemeinschaft.sol\":3232:3263  require(mitspieler[msg.sender]) */\n              tag_183\n              jumpi\n              0x00\n              dup1\n              revert\n            tag_183:\n                /* \"Lottogemeinschaft.sol\":3330:3336  locked */\n              0x0c\n              0x00\n              swap1\n              sload\n              swap1\n              0x0100\n              exp\n              swap1\n              div\n              0xff\n              and\n                /* \"Lottogemeinschaft.sol\":3329:3336  !locked */\n              iszero\n                /* \"Lottogemeinschaft.sol\":3321:3355  require(!locked, \"No re-entrancy\") */\n              tag_185\n              jumpi\n              mload(0x40)\n              0x08c379a000000000000000000000000000000000000000000000000000000000\n              dup2\n              mstore\n              0x04\n              add\n              tag_186\n              swap1\n              tag_187\n              jump\t// in\n            tag_186:\n              mload(0x40)\n              dup1\n              swap2\n              sub\n              swap1\n              revert\n            tag_185:\n                /* \"Lottogemeinschaft.sol\":3374:3378  true */\n              0x01\n                /* \"Lottogemeinschaft.sol\":3365:3371  locked */\n              0x0c\n              0x00\n                /* \"Lottogemeinschaft.sol\":3365:3378  locked = true */\n              0x0100\n              exp\n              dup2\n              sload\n              dup2\n              0xff\n              mul\n              not\n              and\n              swap1\n              dup4\n              iszero\n              iszero\n              mul\n              or\n              swap1\n              sstore\n              pop\n                /* \"Lottogemeinschaft.sol\":5103:5127  gewinnKannAbgeholtWerden */\n              0x0a\n              0x00\n              swap1\n              sload\n              swap1\n              0x0100\n              exp\n              swap1\n              div\n              0xff\n              and\n                /* \"Lottogemeinschaft.sol\":5095:5171  require(gewinnKannAbgeholtWerden, \"Gewinn kann noch nicht abgeholt werden.\") */\n              tag_189\n              jumpi\n              mload(0x40)\n              0x08c379a000000000000000000000000000000000000000000000000000000000\n              dup2\n              mstore\n              0x04\n              add\n              tag_190\n              swap1\n              tag_191\n              jump\t// in\n            tag_190:\n              mload(0x40)\n              dup1\n              swap2\n              sub\n              swap1\n              revert\n            tag_189:\n                /* \"Lottogemeinschaft.sol\":5211:5212  0 */\n              0x00\n                /* \"Lottogemeinschaft.sol\":5189:5208  gewinnProMitspieler */\n              sload(0x09)\n                /* \"Lottogemeinschaft.sol\":5189:5212  gewinnProMitspieler > 0 */\n              gt\n                /* \"Lottogemeinschaft.sol\":5181:5255  require(gewinnProMitspieler > 0, \"Kein Gewinn zur Auszahlung verfuegbar.\") */\n              tag_192\n              jumpi\n              mload(0x40)\n              0x08c379a000000000000000000000000000000000000000000000000000000000\n              dup2\n              mstore\n              0x04\n              add\n              tag_193\n              swap1\n              tag_194\n              jump\t// in\n            tag_193:\n              mload(0x40)\n              dup1\n              swap2\n              sub\n              swap1\n              revert\n            tag_192:\n                /* \"Lottogemeinschaft.sol\":5274:5290  gewinnAusgezahlt */\n              0x06\n                /* \"Lottogemeinschaft.sol\":5274:5302  gewinnAusgezahlt[msg.sender] */\n              0x00\n                /* \"Lottogemeinschaft.sol\":5291:5301  msg.sender */\n              caller\n                /* \"Lottogemeinschaft.sol\":5274:5302  gewinnAusgezahlt[msg.sender] */\n              0xffffffffffffffffffffffffffffffffffffffff\n              and\n              0xffffffffffffffffffffffffffffffffffffffff\n              and\n              dup2\n              mstore\n              0x20\n              add\n              swap1\n              dup2\n              mstore\n              0x20\n              add\n              0x00\n              keccak256\n              0x00\n              swap1\n              sload\n              swap1\n              0x0100\n              exp\n              swap1\n              div\n              0xff\n              and\n                /* \"Lottogemeinschaft.sol\":5273:5302  !gewinnAusgezahlt[msg.sender] */\n              iszero\n                /* \"Lottogemeinschaft.sol\":5265:5337  require(!gewinnAusgezahlt[msg.sender], \"Gewinn wurde bereits abgeholt.\") */\n              tag_195\n              jumpi\n              mload(0x40)\n              0x08c379a000000000000000000000000000000000000000000000000000000000\n              dup2\n              mstore\n              0x04\n              add\n              tag_196\n              swap1\n              tag_197\n              jump\t// in\n            tag_196:\n              mload(0x40)\n              dup1\n              swap2\n              sub\n              swap1\n              revert\n            tag_195:\n                /* \"Lottogemeinschaft.sol\":5379:5383  true */\n              0x01\n                /* \"Lottogemeinschaft.sol\":5348:5364  gewinnAusgezahlt */\n              0x06\n                /* \"Lottogemeinschaft.sol\":5348:5376  gewinnAusgezahlt[msg.sender] */\n              0x00\n                /* \"Lottogemeinschaft.sol\":5365:5375  msg.sender */\n              caller\n                /* \"Lottogemeinschaft.sol\":5348:5376  gewinnAusgezahlt[msg.sender] */\n              0xffffffffffffffffffffffffffffffffffffffff\n              and\n              0xffffffffffffffffffffffffffffffffffffffff\n              and\n              dup2\n              mstore\n              0x20\n              add\n              swap1\n              dup2\n              mstore\n              0x20\n              add\n              0x00\n              keccak256\n              0x00\n                /* \"Lottogemeinschaft.sol\":5348:5383  gewinnAusgezahlt[msg.sender] = true */\n              0x0100\n              exp\n              dup2\n              sload\n              dup2\n              0xff\n              mul\n              not\n              and\n              swap1\n              dup4\n              iszero\n              iszero\n              mul\n              or\n              swap1\n              sstore\n              pop\n                /* \"Lottogemeinschaft.sol\":5394:5416  uint auszahlungsbetrag */\n              0x00\n                /* \"Lottogemeinschaft.sol\":5419:5438  gewinnProMitspieler */\n              sload(0x09)\n                /* \"Lottogemeinschaft.sol\":5394:5438  uint auszahlungsbetrag = gewinnProMitspieler */\n              swap1\n              pop\n                /* \"Lottogemeinschaft.sol\":5456:5466  msg.sender */\n              caller\n                /* \"Lottogemeinschaft.sol\":5448:5476  payable(msg.sender).transfer */\n              0xffffffffffffffffffffffffffffffffffffffff\n              and\n                /* \"Lottogemeinschaft.sol\":5448:5495  payable(msg.sender).transfer(auszahlungsbetrag) */\n              0x08fc\n                /* \"Lottogemeinschaft.sol\":5477:5494  auszahlungsbetrag */\n              dup3\n                /* \"Lottogemeinschaft.sol\":5448:5495  payable(msg.sender).transfer(auszahlungsbetrag) */\n              swap1\n              dup2\n              iszero\n              mul\n              swap1\n              mload(0x40)\n              0x00\n              mload(0x40)\n              dup1\n              dup4\n              sub\n              dup2\n              dup6\n              dup9\n              dup9\n              call\n              swap4\n              pop\n              pop\n              pop\n              pop\n              iszero\n              dup1\n              iszero\n              tag_199\n              jumpi\n              returndatasize\n              0x00\n              dup1\n              returndatacopy\n              revert(0x00, returndatasize)\n            tag_199:\n              pop\n                /* \"Lottogemeinschaft.sol\":5085:5502  {... */\n              pop\n                /* \"Lottogemeinschaft.sol\":3408:3413  false */\n              0x00\n                /* \"Lottogemeinschaft.sol\":3399:3405  locked */\n              0x0c\n              0x00\n                /* \"Lottogemeinschaft.sol\":3399:3413  locked = false */\n              0x0100\n              exp\n              dup2\n              sload\n              dup2\n              0xff\n              mul\n              not\n              and\n              swap1\n              dup4\n              iszero\n              iszero\n              mul\n              or\n              swap1\n              sstore\n              pop\n                /* \"Lottogemeinschaft.sol\":5018:5502  function gewinnAbholen() public restictedToMitspieler nonReentrant {... */\n              jump\t// out\n                /* \"Lottogemeinschaft.sol\":1926:1959  string public spielauftragsNummer */\n            tag_88:\n              0x03\n              dup1\n              sload\n              tag_200\n              swap1\n              tag_201\n              jump\t// in\n            tag_200:\n              dup1\n              0x1f\n              add\n              0x20\n              dup1\n              swap2\n              div\n              mul\n              0x20\n              add\n              mload(0x40)\n              swap1\n              dup2\n              add\n              0x40\n              mstore\n              dup1\n              swap3\n              swap2\n              swap1\n              dup2\n              dup2\n              mstore\n              0x20\n              add\n              dup3\n              dup1\n              sload\n              tag_202\n              swap1\n              tag_201\n              jump\t// in\n            tag_202:\n              dup1\n              iszero\n              tag_203\n              jumpi\n              dup1\n              0x1f\n              lt\n              tag_204\n              jumpi\n              0x0100\n              dup1\n              dup4\n              sload\n              div\n              mul\n              dup4\n              mstore\n              swap2\n              0x20\n              add\n              swap2\n              jump(tag_203)\n            tag_204:\n              dup3\n              add\n              swap2\n              swap1\n              0x00\n              mstore\n              keccak256(0x00, 0x20)\n              swap1\n            tag_205:\n              dup2\n              sload\n              dup2\n              mstore\n              swap1\n              0x01\n              add\n              swap1\n              0x20\n              add\n              dup1\n              dup4\n              gt\n              tag_205\n              jumpi\n              dup3\n              swap1\n              sub\n              0x1f\n              and\n              dup3\n              add\n              swap2\n            tag_203:\n              pop\n              pop\n              pop\n              pop\n              pop\n              dup2\n              jump\t// out\n                /* \"Lottogemeinschaft.sol\":2043:2091  mapping(address => bool) public gewinnAusgezahlt */\n            tag_94:\n              mstore(0x20, 0x06)\n              dup1\n              0x00\n              mstore\n              keccak256(0x00, 0x40)\n              0x00\n              swap2\n              pop\n              sload\n              swap1\n              0x0100\n              exp\n              swap1\n              div\n              0xff\n              and\n              dup2\n              jump\t// out\n                /* \"Lottogemeinschaft.sol\":6731:7221  function einsatzZurueckholen() public restictedToMitspieler nonReentrant {... */\n            tag_98:\n                /* \"Lottogemeinschaft.sol\":3240:3250  mitspieler */\n              0x05\n                /* \"Lottogemeinschaft.sol\":3240:3262  mitspieler[msg.sender] */\n              0x00\n                /* \"Lottogemeinschaft.sol\":3251:3261  msg.sender */\n              caller\n                /* \"Lottogemeinschaft.sol\":3240:3262  mitspieler[msg.sender] */\n              0xffffffffffffffffffffffffffffffffffffffff\n              and\n              0xffffffffffffffffffffffffffffffffffffffff\n              and\n              dup2\n              mstore\n              0x20\n              add\n              swap1\n              dup2\n              mstore\n              0x20\n              add\n              0x00\n              keccak256\n              0x00\n              swap1\n              sload\n              swap1\n              0x0100\n              exp\n              swap1\n              div\n              0xff\n              and\n                /* \"Lottogemeinschaft.sol\":3232:3263  require(mitspieler[msg.sender]) */\n              tag_207\n              jumpi\n              0x00\n              dup1\n              revert\n            tag_207:\n                /* \"Lottogemeinschaft.sol\":3330:3336  locked */\n              0x0c\n              0x00\n              swap1\n              sload\n              swap1\n              0x0100\n              exp\n              swap1\n              div\n              0xff\n              and\n                /* \"Lottogemeinschaft.sol\":3329:3336  !locked */\n              iszero\n                /* \"Lottogemeinschaft.sol\":3321:3355  require(!locked, \"No re-entrancy\") */\n              tag_209\n              jumpi\n              mload(0x40)\n              0x08c379a000000000000000000000000000000000000000000000000000000000\n              dup2\n              mstore\n              0x04\n              add\n              tag_210\n              swap1\n              tag_187\n              jump\t// in\n            tag_210:\n              mload(0x40)\n              dup1\n              swap2\n              sub\n              swap1\n              revert\n            tag_209:\n                /* \"Lottogemeinschaft.sol\":3374:3378  true */\n              0x01\n                /* \"Lottogemeinschaft.sol\":3365:3371  locked */\n              0x0c\n              0x00\n                /* \"Lottogemeinschaft.sol\":3365:3378  locked = true */\n              0x0100\n              exp\n              dup2\n              sload\n              dup2\n              0xff\n              mul\n              not\n              and\n              swap1\n              dup4\n              iszero\n              iszero\n              mul\n              or\n              swap1\n              sstore\n              pop\n                /* \"Lottogemeinschaft.sol\":6822:6832  aufgeloest */\n              0x0c\n              0x01\n              swap1\n              sload\n              swap1\n              0x0100\n              exp\n              swap1\n              div\n              0xff\n              and\n                /* \"Lottogemeinschaft.sol\":6814:6871  require(aufgeloest, \"Gemeinschaft muss aufgeloest sein.\") */\n              tag_212\n              jumpi\n              mload(0x40)\n              0x08c379a000000000000000000000000000000000000000000000000000000000\n              dup2\n              mstore\n              0x04\n              add\n              tag_213\n              swap1\n              tag_214\n              jump\t// in\n            tag_213:\n              mload(0x40)\n              dup1\n              swap2\n              sub\n              swap1\n              revert\n            tag_212:\n                /* \"Lottogemeinschaft.sol\":6890:6911  einsatzZurueckGezahlt */\n              0x07\n                /* \"Lottogemeinschaft.sol\":6890:6923  einsatzZurueckGezahlt[msg.sender] */\n              0x00\n                /* \"Lottogemeinschaft.sol\":6912:6922  msg.sender */\n              caller\n                /* \"Lottogemeinschaft.sol\":6890:6923  einsatzZurueckGezahlt[msg.sender] */\n              0xffffffffffffffffffffffffffffffffffffffff\n              and\n              0xffffffffffffffffffffffffffffffffffffffff\n              and\n              dup2\n              mstore\n              0x20\n              add\n              swap1\n              dup2\n              mstore\n              0x20\n              add\n              0x00\n              keccak256\n              0x00\n              swap1\n              sload\n              swap1\n              0x0100\n              exp\n              swap1\n              div\n              0xff\n              and\n                /* \"Lottogemeinschaft.sol\":6889:6923  !einsatzZurueckGezahlt[msg.sender] */\n              iszero\n                /* \"Lottogemeinschaft.sol\":6881:6965  require(!einsatzZurueckGezahlt[msg.sender], \"Einsatz wurde bereits zurueckgezahlt.\") */\n              tag_215\n              jumpi\n              mload(0x40)\n              0x08c379a000000000000000000000000000000000000000000000000000000000\n              dup2\n              mstore\n              0x04\n              add\n              tag_216\n              swap1\n              tag_217\n              jump\t// in\n            tag_216:\n              mload(0x40)\n              dup1\n              swap2\n              sub\n              swap1\n              revert\n            tag_215:\n                /* \"Lottogemeinschaft.sol\":7012:7016  true */\n              0x01\n                /* \"Lottogemeinschaft.sol\":6976:6997  einsatzZurueckGezahlt */\n              0x07\n                /* \"Lottogemeinschaft.sol\":6976:7009  einsatzZurueckGezahlt[msg.sender] */\n              0x00\n                /* \"Lottogemeinschaft.sol\":6998:7008  msg.sender */\n              caller\n                /* \"Lottogemeinschaft.sol\":6976:7009  einsatzZurueckGezahlt[msg.sender] */\n              0xffffffffffffffffffffffffffffffffffffffff\n              and\n              0xffffffffffffffffffffffffffffffffffffffff\n              and\n              dup2\n              mstore\n              0x20\n              add\n              swap1\n              dup2\n              mstore\n              0x20\n              add\n              0x00\n              keccak256\n              0x00\n                /* \"Lottogemeinschaft.sol\":6976:7016  einsatzZurueckGezahlt[msg.sender] = true */\n              0x0100\n              exp\n              dup2\n              sload\n              dup2\n              0xff\n              mul\n              not\n              and\n              swap1\n              dup4\n              iszero\n              iszero\n              mul\n              or\n              swap1\n              sstore\n              pop\n                /* \"Lottogemeinschaft.sol\":7027:7051  uint rueckzahlungsbetrag */\n              0x00\n                /* \"Lottogemeinschaft.sol\":7054:7072  preisProMitspieler */\n              0x02\n              0x06\n              swap1\n              sload\n              swap1\n              0x0100\n              exp\n              swap1\n              div\n              0xffffffff\n              and\n                /* \"Lottogemeinschaft.sol\":7027:7072  uint rueckzahlungsbetrag = preisProMitspieler */\n              0xffffffff\n              and\n              swap1\n              pop\n                /* \"Lottogemeinschaft.sol\":7083:7092  bool sent */\n              0x00\n                /* \"Lottogemeinschaft.sol\":7098:7108  msg.sender */\n              caller\n                /* \"Lottogemeinschaft.sol\":7098:7113  msg.sender.call */\n              0xffffffffffffffffffffffffffffffffffffffff\n              and\n                /* \"Lottogemeinschaft.sol\":7121:7140  rueckzahlungsbetrag */\n              dup3\n                /* \"Lottogemeinschaft.sol\":7098:7145  msg.sender.call{value: rueckzahlungsbetrag}(\"\") */\n              mload(0x40)\n              tag_218\n              swap1\n              tag_219\n              jump\t// in\n            tag_218:\n              0x00\n              mload(0x40)\n              dup1\n              dup4\n              sub\n              dup2\n              dup6\n              dup8\n              gas\n              call\n              swap3\n              pop\n              pop\n              pop\n              returndatasize\n              dup1\n              0x00\n              dup2\n              eq\n              tag_222\n              jumpi\n              mload(0x40)\n              swap2\n              pop\n              and(add(returndatasize, 0x3f), not(0x1f))\n              dup3\n              add\n              0x40\n              mstore\n              returndatasize\n              dup3\n              mstore\n              returndatasize\n              0x00\n              0x20\n              dup5\n              add\n              returndatacopy\n              jump(tag_221)\n            tag_222:\n              0x60\n              swap2\n              pop\n            tag_221:\n              pop\n                /* \"Lottogemeinschaft.sol\":7082:7145  (bool sent, ) = msg.sender.call{value: rueckzahlungsbetrag}(\"\") */\n              pop\n              swap1\n              pop\n                /* \"Lottogemeinschaft.sol\":7163:7167  sent */\n              dup1\n                /* \"Lottogemeinschaft.sol\":7155:7214  require(sent, \"Rueckzahlung des Einsatzes fehlgeschlagen.\") */\n              tag_223\n              jumpi\n              mload(0x40)\n              0x08c379a000000000000000000000000000000000000000000000000000000000\n              dup2\n              mstore\n              0x04\n              add\n              tag_224\n              swap1\n              tag_225\n              jump\t// in\n            tag_224:\n              mload(0x40)\n              dup1\n              swap2\n              sub\n              swap1\n              revert\n            tag_223:\n                /* \"Lottogemeinschaft.sol\":6804:7221  {... */\n              pop\n              pop\n                /* \"Lottogemeinschaft.sol\":3408:3413  false */\n              0x00\n                /* \"Lottogemeinschaft.sol\":3399:3405  locked */\n              0x0c\n              0x00\n                /* \"Lottogemeinschaft.sol\":3399:3413  locked = false */\n              0x0100\n              exp\n              dup2\n              sload\n              dup2\n              0xff\n              mul\n              not\n              and\n              swap1\n              dup4\n              iszero\n              iszero\n              mul\n              or\n              swap1\n              sstore\n              pop\n                /* \"Lottogemeinschaft.sol\":6731:7221  function einsatzZurueckholen() public restictedToMitspieler nonReentrant {... */\n              jump\t// out\n                /* \"Lottogemeinschaft.sol\":6418:6675  function gemeinschaftAufloesen() public restictedToGruender {... */\n            tag_101:\n                /* \"Lottogemeinschaft.sol\":3157:3165  gruender */\n              0x00\n              dup1\n              sload\n              swap1\n              0x0100\n              exp\n              swap1\n              div\n              0xffffffffffffffffffffffffffffffffffffffff\n              and\n                /* \"Lottogemeinschaft.sol\":3143:3165  msg.sender == gruender */\n              0xffffffffffffffffffffffffffffffffffffffff\n              and\n                /* \"Lottogemeinschaft.sol\":3143:3153  msg.sender */\n              caller\n                /* \"Lottogemeinschaft.sol\":3143:3165  msg.sender == gruender */\n              0xffffffffffffffffffffffffffffffffffffffff\n              and\n              eq\n                /* \"Lottogemeinschaft.sol\":3135:3166  require(msg.sender == gruender) */\n              tag_227\n              jumpi\n              0x00\n              dup1\n              revert\n            tag_227:\n                /* \"Lottogemeinschaft.sol\":6524:6529  false */\n              0x00\n                /* \"Lottogemeinschaft.sol\":6496:6529  gewinnKannAbgeholtWerden == false */\n              iszero\n              iszero\n                /* \"Lottogemeinschaft.sol\":6496:6520  gewinnKannAbgeholtWerden */\n              0x0a\n              0x00\n              swap1\n              sload\n              swap1\n              0x0100\n              exp\n              swap1\n              div\n              0xff\n              and\n                /* \"Lottogemeinschaft.sol\":6496:6529  gewinnKannAbgeholtWerden == false */\n              iszero\n              iszero\n              eq\n                /* \"Lottogemeinschaft.sol\":6488:6568  require(gewinnKannAbgeholtWerden == false, \"Gewinn muss noch ausgezahlt werden\") */\n              tag_229\n              jumpi\n              mload(0x40)\n              0x08c379a000000000000000000000000000000000000000000000000000000000\n              dup2\n              mstore\n              0x04\n              add\n              tag_230\n              swap1\n              tag_231\n              jump\t// in\n            tag_230:\n              mload(0x40)\n              dup1\n              swap2\n              sub\n              swap1\n              revert\n            tag_229:\n                /* \"Lottogemeinschaft.sol\":6600:6605  false */\n              0x00\n                /* \"Lottogemeinschaft.sol\":6586:6605  aufgeloest == false */\n              iszero\n              iszero\n                /* \"Lottogemeinschaft.sol\":6586:6596  aufgeloest */\n              0x0c\n              0x01\n              swap1\n              sload\n              swap1\n              0x0100\n              exp\n              swap1\n              div\n              0xff\n              and\n                /* \"Lottogemeinschaft.sol\":6586:6605  aufgeloest == false */\n              iszero\n              iszero\n              eq\n                /* \"Lottogemeinschaft.sol\":6578:6641  require(aufgeloest == false, \"Gemeinschaft bereits aufgeloest\") */\n              tag_232\n              jumpi\n              mload(0x40)\n              0x08c379a000000000000000000000000000000000000000000000000000000000\n              dup2\n              mstore\n              0x04\n              add\n              tag_233\n              swap1\n              tag_234\n              jump\t// in\n            tag_233:\n              mload(0x40)\n              dup1\n              swap2\n              sub\n              swap1\n              revert\n            tag_232:\n                /* \"Lottogemeinschaft.sol\":6664:6668  true */\n              0x01\n                /* \"Lottogemeinschaft.sol\":6651:6661  aufgeloest */\n              0x0c\n              0x01\n                /* \"Lottogemeinschaft.sol\":6651:6668  aufgeloest = true */\n              0x0100\n              exp\n              dup2\n              sload\n              dup2\n              0xff\n              mul\n              not\n              and\n              swap1\n              dup4\n              iszero\n              iszero\n              mul\n              or\n              swap1\n              sstore\n              pop\n                /* \"Lottogemeinschaft.sol\":6418:6675  function gemeinschaftAufloesen() public restictedToGruender {... */\n              jump\t// out\n                /* \"Lottogemeinschaft.sol\":1743:1766  address public gruender */\n            tag_104:\n              0x00\n              dup1\n              sload\n              swap1\n              0x0100\n              exp\n              swap1\n              div\n              0xffffffffffffffffffffffffffffffffffffffff\n              and\n              dup2\n              jump\t// out\n                /* \"Lottogemeinschaft.sol\":2288:2327  bool public nurErlaubteMitspieler=false */\n            tag_109:\n              0x0a\n              0x01\n              swap1\n              sload\n              swap1\n              0x0100\n              exp\n              swap1\n              div\n              0xff\n              and\n              dup2\n              jump\t// out\n                /* \"Lottogemeinschaft.sol\":2097:2150  mapping(address => bool) public einsatzZurueckGezahlt */\n            tag_114:\n              mstore(0x20, 0x07)\n              dup1\n              0x00\n              mstore\n              keccak256(0x00, 0x40)\n              0x00\n              swap2\n              pop\n              sload\n              swap1\n              0x0100\n              exp\n              swap1\n              div\n              0xff\n              and\n              dup2\n              jump\t// out\n                /* \"Lottogemeinschaft.sol\":1772:1807  string public tippgemeinschaftsName */\n            tag_118:\n              0x01\n              dup1\n              sload\n              tag_235\n              swap1\n              tag_201\n              jump\t// in\n            tag_235:\n              dup1\n              0x1f\n              add\n              0x20\n              dup1\n              swap2\n              div\n              mul\n              0x20\n              add\n              mload(0x40)\n              swap1\n              dup2\n              add\n              0x40\n              mstore\n              dup1\n              swap3\n              swap2\n              swap1\n              dup2\n              dup2\n              mstore\n              0x20\n              add\n              dup3\n              dup1\n              sload\n              tag_236\n              swap1\n              tag_201\n              jump\t// in\n            tag_236:\n              dup1\n              iszero\n              tag_237\n              jumpi\n              dup1\n              0x1f\n              lt\n              tag_238\n              jumpi\n              0x0100\n              dup1\n              dup4\n              sload\n              div\n              mul\n              dup4\n              mstore\n              swap2\n              0x20\n              add\n              swap2\n              jump(tag_237)\n            tag_238:\n              dup3\n              add\n              swap2\n              swap1\n              0x00\n              mstore\n              keccak256(0x00, 0x20)\n              swap1\n            tag_239:\n              dup2\n              sload\n              dup2\n              mstore\n              swap1\n              0x01\n              add\n              swap1\n              0x20\n              add\n              dup1\n              dup4\n              gt\n              tag_239\n              jumpi\n              dup3\n              swap1\n              sub\n              0x1f\n              and\n              dup3\n              add\n              swap2\n            tag_237:\n              pop\n              pop\n              pop\n              pop\n              pop\n              dup2\n              jump\t// out\n                /* \"Lottogemeinschaft.sol\":5751:6037  function anzahlMitspielerAendern(uint16 neueAnzahlMaxTeilnehmer) public restictedToGruender{... */\n            tag_124:\n                /* \"Lottogemeinschaft.sol\":3157:3165  gruender */\n              0x00\n              dup1\n              sload\n              swap1\n              0x0100\n              exp\n              swap1\n              div\n              0xffffffffffffffffffffffffffffffffffffffff\n              and\n                /* \"Lottogemeinschaft.sol\":3143:3165  msg.sender == gruender */\n              0xffffffffffffffffffffffffffffffffffffffff\n              and\n                /* \"Lottogemeinschaft.sol\":3143:3153  msg.sender */\n              caller\n                /* \"Lottogemeinschaft.sol\":3143:3165  msg.sender == gruender */\n              0xffffffffffffffffffffffffffffffffffffffff\n              and\n              eq\n                /* \"Lottogemeinschaft.sol\":3135:3166  require(msg.sender == gruender) */\n              tag_241\n              jumpi\n              0x00\n              dup1\n              revert\n            tag_241:\n                /* \"Lottogemeinschaft.sol\":5885:5886  0 */\n              0x00\n                /* \"Lottogemeinschaft.sol\":5860:5883  anzahlTeilnehmerAktuell */\n              0x08\n              0x00\n              swap1\n              sload\n              swap1\n              0x0100\n              exp\n              swap1\n              div\n              0xffff\n              and\n                /* \"Lottogemeinschaft.sol\":5860:5886  anzahlTeilnehmerAktuell==0 */\n              0xffff\n              and\n              eq\n                /* \"Lottogemeinschaft.sol\":5852:5975  require(anzahlTeilnehmerAktuell==0, \"Es gibt bereits Mitspieler. Aenderung der Anzahl an Mitspielern nicht mehr moeglich.\") */\n              tag_243\n              jumpi\n              mload(0x40)\n              0x08c379a000000000000000000000000000000000000000000000000000000000\n              dup2\n              mstore\n              0x04\n              add\n              tag_244\n              swap1\n              tag_245\n              jump\t// in\n            tag_244:\n              mload(0x40)\n              dup1\n              swap2\n              sub\n              swap1\n              revert\n            tag_243:\n                /* \"Lottogemeinschaft.sol\":6007:6030  neueAnzahlMaxTeilnehmer */\n              dup1\n                /* \"Lottogemeinschaft.sol\":5985:6004  maxTeilnehmerAnzahl */\n              0x02\n              0x00\n                /* \"Lottogemeinschaft.sol\":5985:6030  maxTeilnehmerAnzahl = neueAnzahlMaxTeilnehmer */\n              0x0100\n              exp\n              dup2\n              sload\n              dup2\n              0xffff\n              mul\n              not\n              and\n              swap1\n              dup4\n              0xffff\n              and\n              mul\n              or\n              swap1\n              sstore\n              pop\n                /* \"Lottogemeinschaft.sol\":5751:6037  function anzahlMitspielerAendern(uint16 neueAnzahlMaxTeilnehmer) public restictedToGruender{... */\n              pop\n              jump\t// out\n                /* \"Lottogemeinschaft.sol\":2415:2437  bool public aufgeloest */\n            tag_127:\n              0x0c\n              0x01\n              swap1\n              sload\n              swap1\n              0x0100\n              exp\n              swap1\n              div\n              0xff\n              and\n              dup2\n              jump\t// out\n                /* \"Lottogemeinschaft.sol\":2333:2384  mapping(address => bool) public erlaubterMitspieler */\n            tag_132:\n              mstore(0x20, 0x0b)\n              dup1\n              0x00\n              mstore\n              keccak256(0x00, 0x40)\n              0x00\n              swap2\n              pop\n              sload\n              swap1\n              0x0100\n              exp\n              swap1\n              div\n              0xff\n              and\n              dup2\n              jump\t// out\n                /* \"#utility.yul\":7:104   */\n            tag_246:\n                /* \"#utility.yul\":43:50   */\n              0x00\n                /* \"#utility.yul\":83:97   */\n              0xffffffffffff\n                /* \"#utility.yul\":76:81   */\n              dup3\n                /* \"#utility.yul\":72:98   */\n              and\n                /* \"#utility.yul\":61:98   */\n              swap1\n              pop\n                /* \"#utility.yul\":7:104   */\n              swap2\n              swap1\n              pop\n              jump\t// out\n                /* \"#utility.yul\":110:225   */\n            tag_247:\n                /* \"#utility.yul\":195:218   */\n              tag_322\n                /* \"#utility.yul\":212:217   */\n              dup2\n                /* \"#utility.yul\":195:218   */\n              tag_246\n              jump\t// in\n            tag_322:\n                /* \"#utility.yul\":190:193   */\n              dup3\n                /* \"#utility.yul\":183:219   */\n              mstore\n                /* \"#utility.yul\":110:225   */\n              pop\n              pop\n              jump\t// out\n                /* \"#utility.yul\":231:449   */\n            tag_33:\n                /* \"#utility.yul\":322:326   */\n              0x00\n                /* \"#utility.yul\":360:362   */\n              0x20\n                /* \"#utility.yul\":349:358   */\n              dup3\n                /* \"#utility.yul\":345:363   */\n              add\n                /* \"#utility.yul\":337:363   */\n              swap1\n              pop\n                /* \"#utility.yul\":373:442   */\n              tag_324\n                /* \"#utility.yul\":439:440   */\n              0x00\n                /* \"#utility.yul\":428:437   */\n              dup4\n                /* \"#utility.yul\":424:441   */\n              add\n                /* \"#utility.yul\":415:421   */\n              dup5\n                /* \"#utility.yul\":373:442   */\n              tag_247\n              jump\t// in\n            tag_324:\n                /* \"#utility.yul\":231:449   */\n              swap3\n              swap2\n              pop\n              pop\n              jump\t// out\n                /* \"#utility.yul\":455:532   */\n            tag_248:\n                /* \"#utility.yul\":492:499   */\n              0x00\n                /* \"#utility.yul\":521:526   */\n              dup2\n                /* \"#utility.yul\":510:526   */\n              swap1\n              pop\n                /* \"#utility.yul\":455:532   */\n              swap2\n              swap1\n              pop\n              jump\t// out\n                /* \"#utility.yul\":538:656   */\n            tag_249:\n                /* \"#utility.yul\":625:649   */\n              tag_327\n                /* \"#utility.yul\":643:648   */\n              dup2\n                /* \"#utility.yul\":625:649   */\n              tag_248\n              jump\t// in\n            tag_327:\n                /* \"#utility.yul\":620:623   */\n              dup3\n                /* \"#utility.yul\":613:650   */\n              mstore\n                /* \"#utility.yul\":538:656   */\n              pop\n              pop\n              jump\t// out\n                /* \"#utility.yul\":662:884   */\n            tag_38:\n                /* \"#utility.yul\":755:759   */\n              0x00\n                /* \"#utility.yul\":793:795   */\n              0x20\n                /* \"#utility.yul\":782:791   */\n              dup3\n                /* \"#utility.yul\":778:796   */\n              add\n                /* \"#utility.yul\":770:796   */\n              swap1\n              pop\n                /* \"#utility.yul\":806:877   */\n              tag_329\n                /* \"#utility.yul\":874:875   */\n              0x00\n                /* \"#utility.yul\":863:872   */\n              dup4\n                /* \"#utility.yul\":859:876   */\n              add\n                /* \"#utility.yul\":850:856   */\n              dup5\n                /* \"#utility.yul\":806:877   */\n              tag_249\n              jump\t// in\n            tag_329:\n                /* \"#utility.yul\":662:884   */\n              swap3\n              swap2\n              pop\n              pop\n              jump\t// out\n                /* \"#utility.yul\":890:980   */\n            tag_250:\n                /* \"#utility.yul\":924:931   */\n              0x00\n                /* \"#utility.yul\":967:972   */\n              dup2\n                /* \"#utility.yul\":960:973   */\n              iszero\n                /* \"#utility.yul\":953:974   */\n              iszero\n                /* \"#utility.yul\":942:974   */\n              swap1\n              pop\n                /* \"#utility.yul\":890:980   */\n              swap2\n              swap1\n              pop\n              jump\t// out\n                /* \"#utility.yul\":986:1095   */\n            tag_251:\n                /* \"#utility.yul\":1067:1088   */\n              tag_332\n                /* \"#utility.yul\":1082:1087   */\n              dup2\n                /* \"#utility.yul\":1067:1088   */\n              tag_250\n              jump\t// in\n            tag_332:\n                /* \"#utility.yul\":1062:1065   */\n              dup3\n                /* \"#utility.yul\":1055:1089   */\n              mstore\n                /* \"#utility.yul\":986:1095   */\n              pop\n              pop\n              jump\t// out\n                /* \"#utility.yul\":1101:1311   */\n            tag_43:\n                /* \"#utility.yul\":1188:1192   */\n              0x00\n                /* \"#utility.yul\":1226:1228   */\n              0x20\n                /* \"#utility.yul\":1215:1224   */\n              dup3\n                /* \"#utility.yul\":1211:1229   */\n              add\n                /* \"#utility.yul\":1203:1229   */\n              swap1\n              pop\n                /* \"#utility.yul\":1239:1304   */\n              tag_334\n                /* \"#utility.yul\":1301:1302   */\n              0x00\n                /* \"#utility.yul\":1290:1299   */\n              dup4\n                /* \"#utility.yul\":1286:1303   */\n              add\n                /* \"#utility.yul\":1277:1283   */\n              dup5\n                /* \"#utility.yul\":1239:1304   */\n              tag_251\n              jump\t// in\n            tag_334:\n                /* \"#utility.yul\":1101:1311   */\n              swap3\n              swap2\n              pop\n              pop\n              jump\t// out\n                /* \"#utility.yul\":1317:1410   */\n            tag_252:\n                /* \"#utility.yul\":1353:1360   */\n              0x00\n                /* \"#utility.yul\":1393:1403   */\n              0xffffffff\n                /* \"#utility.yul\":1386:1391   */\n              dup3\n                /* \"#utility.yul\":1382:1404   */\n              and\n                /* \"#utility.yul\":1371:1404   */\n              swap1\n              pop\n                /* \"#utility.yul\":1317:1410   */\n              swap2\n              swap1\n              pop\n              jump\t// out\n                /* \"#utility.yul\":1416:1531   */\n            tag_253:\n                /* \"#utility.yul\":1501:1524   */\n              tag_337\n                /* \"#utility.yul\":1518:1523   */\n              dup2\n                /* \"#utility.yul\":1501:1524   */\n              tag_252\n              jump\t// in\n            tag_337:\n                /* \"#utility.yul\":1496:1499   */\n              dup3\n                /* \"#utility.yul\":1489:1525   */\n              mstore\n                /* \"#utility.yul\":1416:1531   */\n              pop\n              pop\n              jump\t// out\n                /* \"#utility.yul\":1537:1755   */\n            tag_48:\n                /* \"#utility.yul\":1628:1632   */\n              0x00\n                /* \"#utility.yul\":1666:1668   */\n              0x20\n                /* \"#utility.yul\":1655:1664   */\n              dup3\n                /* \"#utility.yul\":1651:1669   */\n              add\n                /* \"#utility.yul\":1643:1669   */\n              swap1\n              pop\n                /* \"#utility.yul\":1679:1748   */\n              tag_339\n                /* \"#utility.yul\":1745:1746   */\n              0x00\n                /* \"#utility.yul\":1734:1743   */\n              dup4\n                /* \"#utility.yul\":1730:1747   */\n              add\n                /* \"#utility.yul\":1721:1727   */\n              dup5\n                /* \"#utility.yul\":1679:1748   */\n              tag_253\n              jump\t// in\n            tag_339:\n                /* \"#utility.yul\":1537:1755   */\n              swap3\n              swap2\n              pop\n              pop\n              jump\t// out\n                /* \"#utility.yul\":1842:1959   */\n            tag_255:\n                /* \"#utility.yul\":1951:1952   */\n              0x00\n                /* \"#utility.yul\":1948:1949   */\n              dup1\n                /* \"#utility.yul\":1941:1953   */\n              revert\n                /* \"#utility.yul\":2088:2210   */\n            tag_257:\n                /* \"#utility.yul\":2161:2185   */\n              tag_344\n                /* \"#utility.yul\":2179:2184   */\n              dup2\n                /* \"#utility.yul\":2161:2185   */\n              tag_248\n              jump\t// in\n            tag_344:\n                /* \"#utility.yul\":2154:2159   */\n              dup2\n                /* \"#utility.yul\":2151:2186   */\n              eq\n                /* \"#utility.yul\":2141:2204   */\n              tag_345\n              jumpi\n                /* \"#utility.yul\":2200:2201   */\n              0x00\n                /* \"#utility.yul\":2197:2198   */\n              dup1\n                /* \"#utility.yul\":2190:2202   */\n              revert\n                /* \"#utility.yul\":2141:2204   */\n            tag_345:\n                /* \"#utility.yul\":2088:2210   */\n              pop\n              jump\t// out\n                /* \"#utility.yul\":2216:2355   */\n            tag_258:\n                /* \"#utility.yul\":2262:2267   */\n              0x00\n                /* \"#utility.yul\":2300:2306   */\n              dup2\n                /* \"#utility.yul\":2287:2307   */\n              calldataload\n                /* \"#utility.yul\":2278:2307   */\n              swap1\n              pop\n                /* \"#utility.yul\":2316:2349   */\n              tag_347\n                /* \"#utility.yul\":2343:2348   */\n              dup2\n                /* \"#utility.yul\":2316:2349   */\n              tag_257\n              jump\t// in\n            tag_347:\n                /* \"#utility.yul\":2216:2355   */\n              swap3\n              swap2\n              pop\n              pop\n              jump\t// out\n                /* \"#utility.yul\":2361:2690   */\n            tag_51:\n                /* \"#utility.yul\":2420:2426   */\n              0x00\n                /* \"#utility.yul\":2469:2471   */\n              0x20\n                /* \"#utility.yul\":2457:2466   */\n              dup3\n                /* \"#utility.yul\":2448:2455   */\n              dup5\n                /* \"#utility.yul\":2444:2467   */\n              sub\n                /* \"#utility.yul\":2440:2472   */\n              slt\n                /* \"#utility.yul\":2437:2556   */\n              iszero\n              tag_349\n              jumpi\n                /* \"#utility.yul\":2475:2554   */\n              tag_350\n              tag_255\n              jump\t// in\n            tag_350:\n                /* \"#utility.yul\":2437:2556   */\n            tag_349:\n                /* \"#utility.yul\":2595:2596   */\n              0x00\n                /* \"#utility.yul\":2620:2673   */\n              tag_351\n                /* \"#utility.yul\":2665:2672   */\n              dup5\n                /* \"#utility.yul\":2656:2662   */\n              dup3\n                /* \"#utility.yul\":2645:2654   */\n              dup6\n                /* \"#utility.yul\":2641:2663   */\n              add\n                /* \"#utility.yul\":2620:2673   */\n              tag_258\n              jump\t// in\n            tag_351:\n                /* \"#utility.yul\":2610:2673   */\n              swap2\n              pop\n                /* \"#utility.yul\":2566:2683   */\n              pop\n                /* \"#utility.yul\":2361:2690   */\n              swap3\n              swap2\n              pop\n              pop\n              jump\t// out\n                /* \"#utility.yul\":2696:2816   */\n            tag_259:\n                /* \"#utility.yul\":2768:2791   */\n              tag_353\n                /* \"#utility.yul\":2785:2790   */\n              dup2\n                /* \"#utility.yul\":2768:2791   */\n              tag_252\n              jump\t// in\n            tag_353:\n                /* \"#utility.yul\":2761:2766   */\n              dup2\n                /* \"#utility.yul\":2758:2792   */\n              eq\n                /* \"#utility.yul\":2748:2810   */\n              tag_354\n              jumpi\n                /* \"#utility.yul\":2806:2807   */\n              0x00\n                /* \"#utility.yul\":2803:2804   */\n              dup1\n                /* \"#utility.yul\":2796:2808   */\n              revert\n                /* \"#utility.yul\":2748:2810   */\n            tag_354:\n                /* \"#utility.yul\":2696:2816   */\n              pop\n              jump\t// out\n                /* \"#utility.yul\":2822:2959   */\n            tag_260:\n                /* \"#utility.yul\":2867:2872   */\n              0x00\n                /* \"#utility.yul\":2905:2911   */\n              dup2\n                /* \"#utility.yul\":2892:2912   */\n              calldataload\n                /* \"#utility.yul\":2883:2912   */\n              swap1\n              pop\n                /* \"#utility.yul\":2921:2953   */\n              tag_356\n                /* \"#utility.yul\":2947:2952   */\n              dup2\n                /* \"#utility.yul\":2921:2953   */\n              tag_259\n              jump\t// in\n            tag_356:\n                /* \"#utility.yul\":2822:2959   */\n              swap3\n              swap2\n              pop\n              pop\n              jump\t// out\n                /* \"#utility.yul\":2965:3292   */\n            tag_56:\n                /* \"#utility.yul\":3023:3029   */\n              0x00\n                /* \"#utility.yul\":3072:3074   */\n              0x20\n                /* \"#utility.yul\":3060:3069   */\n              dup3\n                /* \"#utility.yul\":3051:3058   */\n              dup5\n                /* \"#utility.yul\":3047:3070   */\n              sub\n                /* \"#utility.yul\":3043:3075   */\n              slt\n                /* \"#utility.yul\":3040:3159   */\n              iszero\n              tag_358\n              jumpi\n                /* \"#utility.yul\":3078:3157   */\n              tag_359\n              tag_255\n              jump\t// in\n            tag_359:\n                /* \"#utility.yul\":3040:3159   */\n            tag_358:\n                /* \"#utility.yul\":3198:3199   */\n              0x00\n                /* \"#utility.yul\":3223:3275   */\n              tag_360\n                /* \"#utility.yul\":3267:3274   */\n              dup5\n                /* \"#utility.yul\":3258:3264   */\n              dup3\n                /* \"#utility.yul\":3247:3256   */\n              dup6\n                /* \"#utility.yul\":3243:3265   */\n              add\n                /* \"#utility.yul\":3223:3275   */\n              tag_260\n              jump\t// in\n            tag_360:\n                /* \"#utility.yul\":3213:3275   */\n              swap2\n              pop\n                /* \"#utility.yul\":3169:3285   */\n              pop\n                /* \"#utility.yul\":2965:3292   */\n              swap3\n              swap2\n              pop\n              pop\n              jump\t// out\n                /* \"#utility.yul\":3298:3424   */\n            tag_261:\n                /* \"#utility.yul\":3335:3342   */\n              0x00\n                /* \"#utility.yul\":3375:3417   */\n              0xffffffffffffffffffffffffffffffffffffffff\n                /* \"#utility.yul\":3368:3373   */\n              dup3\n                /* \"#utility.yul\":3364:3418   */\n              and\n                /* \"#utility.yul\":3353:3418   */\n              swap1\n              pop\n                /* \"#utility.yul\":3298:3424   */\n              swap2\n              swap1\n              pop\n              jump\t// out\n                /* \"#utility.yul\":3430:3526   */\n            tag_262:\n                /* \"#utility.yul\":3467:3474   */\n              0x00\n                /* \"#utility.yul\":3496:3520   */\n              tag_363\n                /* \"#utility.yul\":3514:3519   */\n              dup3\n                /* \"#utility.yul\":3496:3520   */\n              tag_261\n              jump\t// in\n            tag_363:\n                /* \"#utility.yul\":3485:3520   */\n              swap1\n              pop\n                /* \"#utility.yul\":3430:3526   */\n              swap2\n              swap1\n              pop\n              jump\t// out\n                /* \"#utility.yul\":3532:3654   */\n            tag_263:\n                /* \"#utility.yul\":3605:3629   */\n              tag_365\n                /* \"#utility.yul\":3623:3628   */\n              dup2\n                /* \"#utility.yul\":3605:3629   */\n              tag_262\n              jump\t// in\n            tag_365:\n                /* \"#utility.yul\":3598:3603   */\n              dup2\n                /* \"#utility.yul\":3595:3630   */\n              eq\n                /* \"#utility.yul\":3585:3648   */\n              tag_366\n              jumpi\n                /* \"#utility.yul\":3644:3645   */\n              0x00\n                /* \"#utility.yul\":3641:3642   */\n              dup1\n                /* \"#utility.yul\":3634:3646   */\n              revert\n                /* \"#utility.yul\":3585:3648   */\n            tag_366:\n                /* \"#utility.yul\":3532:3654   */\n              pop\n              jump\t// out\n                /* \"#utility.yul\":3660:3799   */\n            tag_264:\n                /* \"#utility.yul\":3706:3711   */\n              0x00\n                /* \"#utility.yul\":3744:3750   */\n              dup2\n                /* \"#utility.yul\":3731:3751   */\n              calldataload\n                /* \"#utility.yul\":3722:3751   */\n              swap1\n              pop\n                /* \"#utility.yul\":3760:3793   */\n              tag_368\n                /* \"#utility.yul\":3787:3792   */\n              dup2\n                /* \"#utility.yul\":3760:3793   */\n              tag_263\n              jump\t// in\n            tag_368:\n                /* \"#utility.yul\":3660:3799   */\n              swap3\n              swap2\n              pop\n              pop\n              jump\t// out\n                /* \"#utility.yul\":3805:4134   */\n            tag_61:\n                /* \"#utility.yul\":3864:3870   */\n              0x00\n                /* \"#utility.yul\":3913:3915   */\n              0x20\n                /* \"#utility.yul\":3901:3910   */\n              dup3\n                /* \"#utility.yul\":3892:3899   */\n              dup5\n                /* \"#utility.yul\":3888:3911   */\n              sub\n                /* \"#utility.yul\":3884:3916   */\n              slt\n                /* \"#utility.yul\":3881:4000   */\n              iszero\n              tag_370\n              jumpi\n                /* \"#utility.yul\":3919:3998   */\n              tag_371\n              tag_255\n              jump\t// in\n            tag_371:\n                /* \"#utility.yul\":3881:4000   */\n            tag_370:\n                /* \"#utility.yul\":4039:4040   */\n              0x00\n                /* \"#utility.yul\":4064:4117   */\n              tag_372\n                /* \"#utility.yul\":4109:4116   */\n              dup5\n                /* \"#utility.yul\":4100:4106   */\n              dup3\n                /* \"#utility.yul\":4089:4098   */\n              dup6\n                /* \"#utility.yul\":4085:4107   */\n              add\n                /* \"#utility.yul\":4064:4117   */\n              tag_264\n              jump\t// in\n            tag_372:\n                /* \"#utility.yul\":4054:4117   */\n              swap2\n              pop\n                /* \"#utility.yul\":4010:4127   */\n              pop\n                /* \"#utility.yul\":3805:4134   */\n              swap3\n              swap2\n              pop\n              pop\n              jump\t// out\n                /* \"#utility.yul\":4140:4229   */\n            tag_265:\n                /* \"#utility.yul\":4176:4183   */\n              0x00\n                /* \"#utility.yul\":4216:4222   */\n              0xffff\n                /* \"#utility.yul\":4209:4214   */\n              dup3\n                /* \"#utility.yul\":4205:4223   */\n              and\n                /* \"#utility.yul\":4194:4223   */\n              swap1\n              pop\n                /* \"#utility.yul\":4140:4229   */\n              swap2\n              swap1\n              pop\n              jump\t// out\n                /* \"#utility.yul\":4235:4350   */\n            tag_266:\n                /* \"#utility.yul\":4320:4343   */\n              tag_375\n                /* \"#utility.yul\":4337:4342   */\n              dup2\n                /* \"#utility.yul\":4320:4343   */\n              tag_265\n              jump\t// in\n            tag_375:\n                /* \"#utility.yul\":4315:4318   */\n              dup3\n                /* \"#utility.yul\":4308:4344   */\n              mstore\n                /* \"#utility.yul\":4235:4350   */\n              pop\n              pop\n              jump\t// out\n                /* \"#utility.yul\":4356:4574   */\n            tag_68:\n                /* \"#utility.yul\":4447:4451   */\n              0x00\n                /* \"#utility.yul\":4485:4487   */\n              0x20\n                /* \"#utility.yul\":4474:4483   */\n              dup3\n                /* \"#utility.yul\":4470:4488   */\n              add\n                /* \"#utility.yul\":4462:4488   */\n              swap1\n              pop\n                /* \"#utility.yul\":4498:4567   */\n              tag_377\n                /* \"#utility.yul\":4564:4565   */\n              0x00\n                /* \"#utility.yul\":4553:4562   */\n              dup4\n                /* \"#utility.yul\":4549:4566   */\n              add\n                /* \"#utility.yul\":4540:4546   */\n              dup5\n                /* \"#utility.yul\":4498:4567   */\n              tag_266\n              jump\t// in\n            tag_377:\n                /* \"#utility.yul\":4356:4574   */\n              swap3\n              swap2\n              pop\n              pop\n              jump\t// out\n                /* \"#utility.yul\":4580:4679   */\n            tag_267:\n                /* \"#utility.yul\":4632:4638   */\n              0x00\n                /* \"#utility.yul\":4666:4671   */\n              dup2\n                /* \"#utility.yul\":4660:4672   */\n              mload\n                /* \"#utility.yul\":4650:4672   */\n              swap1\n              pop\n                /* \"#utility.yul\":4580:4679   */\n              swap2\n              swap1\n              pop\n              jump\t// out\n                /* \"#utility.yul\":4685:4854   */\n            tag_268:\n                /* \"#utility.yul\":4769:4780   */\n              0x00\n                /* \"#utility.yul\":4803:4809   */\n              dup3\n                /* \"#utility.yul\":4798:4801   */\n              dup3\n                /* \"#utility.yul\":4791:4810   */\n              mstore\n                /* \"#utility.yul\":4843:4847   */\n              0x20\n                /* \"#utility.yul\":4838:4841   */\n              dup3\n                /* \"#utility.yul\":4834:4848   */\n              add\n                /* \"#utility.yul\":4819:4848   */\n              swap1\n              pop\n                /* \"#utility.yul\":4685:4854   */\n              swap3\n              swap2\n              pop\n              pop\n              jump\t// out\n                /* \"#utility.yul\":4860:5106   */\n            tag_269:\n                /* \"#utility.yul\":4941:4942   */\n              0x00\n                /* \"#utility.yul\":4951:5064   */\n            tag_381:\n                /* \"#utility.yul\":4965:4971   */\n              dup4\n                /* \"#utility.yul\":4962:4963   */\n              dup2\n                /* \"#utility.yul\":4959:4972   */\n              lt\n                /* \"#utility.yul\":4951:5064   */\n              iszero\n              tag_383\n              jumpi\n                /* \"#utility.yul\":5050:5051   */\n              dup1\n                /* \"#utility.yul\":5045:5048   */\n              dup3\n                /* \"#utility.yul\":5041:5052   */\n              add\n                /* \"#utility.yul\":5035:5053   */\n              mload\n                /* \"#utility.yul\":5031:5032   */\n              dup2\n                /* \"#utility.yul\":5026:5029   */\n              dup5\n                /* \"#utility.yul\":5022:5033   */\n              add\n                /* \"#utility.yul\":5015:5054   */\n              mstore\n                /* \"#utility.yul\":4987:4989   */\n              0x20\n                /* \"#utility.yul\":4984:4985   */\n              dup2\n                /* \"#utility.yul\":4980:4990   */\n              add\n                /* \"#utility.yul\":4975:4990   */\n              swap1\n              pop\n                /* \"#utility.yul\":4951:5064   */\n              jump(tag_381)\n            tag_383:\n                /* \"#utility.yul\":5098:5099   */\n              0x00\n                /* \"#utility.yul\":5089:5095   */\n              dup5\n                /* \"#utility.yul\":5084:5087   */\n              dup5\n                /* \"#utility.yul\":5080:5096   */\n              add\n                /* \"#utility.yul\":5073:5100   */\n              mstore\n                /* \"#utility.yul\":4922:5106   */\n              pop\n                /* \"#utility.yul\":4860:5106   */\n              pop\n              pop\n              pop\n              jump\t// out\n                /* \"#utility.yul\":5112:5214   */\n            tag_270:\n                /* \"#utility.yul\":5153:5159   */\n              0x00\n                /* \"#utility.yul\":5204:5206   */\n              0x1f\n                /* \"#utility.yul\":5200:5207   */\n              not\n                /* \"#utility.yul\":5195:5197   */\n              0x1f\n                /* \"#utility.yul\":5188:5193   */\n              dup4\n                /* \"#utility.yul\":5184:5198   */\n              add\n                /* \"#utility.yul\":5180:5208   */\n              and\n                /* \"#utility.yul\":5170:5208   */\n              swap1\n              pop\n                /* \"#utility.yul\":5112:5214   */\n              swap2\n              swap1\n              pop\n              jump\t// out\n                /* \"#utility.yul\":5220:5597   */\n            tag_271:\n                /* \"#utility.yul\":5308:5311   */\n              0x00\n                /* \"#utility.yul\":5336:5375   */\n              tag_386\n                /* \"#utility.yul\":5369:5374   */\n              dup3\n                /* \"#utility.yul\":5336:5375   */\n              tag_267\n              jump\t// in\n            tag_386:\n                /* \"#utility.yul\":5391:5462   */\n              tag_387\n                /* \"#utility.yul\":5455:5461   */\n              dup2\n                /* \"#utility.yul\":5450:5453   */\n              dup6\n                /* \"#utility.yul\":5391:5462   */\n              tag_268\n              jump\t// in\n            tag_387:\n                /* \"#utility.yul\":5384:5462   */\n              swap4\n              pop\n                /* \"#utility.yul\":5471:5536   */\n              tag_388\n                /* \"#utility.yul\":5529:5535   */\n              dup2\n                /* \"#utility.yul\":5524:5527   */\n              dup6\n                /* \"#utility.yul\":5517:5521   */\n              0x20\n                /* \"#utility.yul\":5510:5515   */\n              dup7\n                /* \"#utility.yul\":5506:5522   */\n              add\n                /* \"#utility.yul\":5471:5536   */\n              tag_269\n              jump\t// in\n            tag_388:\n                /* \"#utility.yul\":5561:5590   */\n              tag_389\n                /* \"#utility.yul\":5583:5589   */\n              dup2\n                /* \"#utility.yul\":5561:5590   */\n              tag_270\n              jump\t// in\n            tag_389:\n                /* \"#utility.yul\":5556:5559   */\n              dup5\n                /* \"#utility.yul\":5552:5591   */\n              add\n                /* \"#utility.yul\":5545:5591   */\n              swap2\n              pop\n                /* \"#utility.yul\":5312:5597   */\n              pop\n                /* \"#utility.yul\":5220:5597   */\n              swap3\n              swap2\n              pop\n              pop\n              jump\t// out\n                /* \"#utility.yul\":5603:5916   */\n            tag_90:\n                /* \"#utility.yul\":5716:5720   */\n              0x00\n                /* \"#utility.yul\":5754:5756   */\n              0x20\n                /* \"#utility.yul\":5743:5752   */\n              dup3\n                /* \"#utility.yul\":5739:5757   */\n              add\n                /* \"#utility.yul\":5731:5757   */\n              swap1\n              pop\n                /* \"#utility.yul\":5803:5812   */\n              dup2\n                /* \"#utility.yul\":5797:5801   */\n              dup2\n                /* \"#utility.yul\":5793:5813   */\n              sub\n                /* \"#utility.yul\":5789:5790   */\n              0x00\n                /* \"#utility.yul\":5778:5787   */\n              dup4\n                /* \"#utility.yul\":5774:5791   */\n              add\n                /* \"#utility.yul\":5767:5814   */\n              mstore\n                /* \"#utility.yul\":5831:5909   */\n              tag_391\n                /* \"#utility.yul\":5904:5908   */\n              dup2\n                /* \"#utility.yul\":5895:5901   */\n              dup5\n                /* \"#utility.yul\":5831:5909   */\n              tag_271\n              jump\t// in\n            tag_391:\n                /* \"#utility.yul\":5823:5909   */\n              swap1\n              pop\n                /* \"#utility.yul\":5603:5916   */\n              swap3\n              swap2\n              pop\n              pop\n              jump\t// out\n                /* \"#utility.yul\":5922:6040   */\n            tag_272:\n                /* \"#utility.yul\":6009:6033   */\n              tag_393\n                /* \"#utility.yul\":6027:6032   */\n              dup2\n                /* \"#utility.yul\":6009:6033   */\n              tag_262\n              jump\t// in\n            tag_393:\n                /* \"#utility.yul\":6004:6007   */\n              dup3\n                /* \"#utility.yul\":5997:6034   */\n              mstore\n                /* \"#utility.yul\":5922:6040   */\n              pop\n              pop\n              jump\t// out\n                /* \"#utility.yul\":6046:6268   */\n            tag_106:\n                /* \"#utility.yul\":6139:6143   */\n              0x00\n                /* \"#utility.yul\":6177:6179   */\n              0x20\n                /* \"#utility.yul\":6166:6175   */\n              dup3\n                /* \"#utility.yul\":6162:6180   */\n              add\n                /* \"#utility.yul\":6154:6180   */\n              swap1\n              pop\n                /* \"#utility.yul\":6190:6261   */\n              tag_395\n                /* \"#utility.yul\":6258:6259   */\n              0x00\n                /* \"#utility.yul\":6247:6256   */\n              dup4\n                /* \"#utility.yul\":6243:6260   */\n              add\n                /* \"#utility.yul\":6234:6240   */\n              dup5\n                /* \"#utility.yul\":6190:6261   */\n              tag_272\n              jump\t// in\n            tag_395:\n                /* \"#utility.yul\":6046:6268   */\n              swap3\n              swap2\n              pop\n              pop\n              jump\t// out\n                /* \"#utility.yul\":6274:6394   */\n            tag_273:\n                /* \"#utility.yul\":6346:6369   */\n              tag_397\n                /* \"#utility.yul\":6363:6368   */\n              dup2\n                /* \"#utility.yul\":6346:6369   */\n              tag_265\n              jump\t// in\n            tag_397:\n                /* \"#utility.yul\":6339:6344   */\n              dup2\n                /* \"#utility.yul\":6336:6370   */\n              eq\n                /* \"#utility.yul\":6326:6388   */\n              tag_398\n              jumpi\n                /* \"#utility.yul\":6384:6385   */\n              0x00\n                /* \"#utility.yul\":6381:6382   */\n              dup1\n                /* \"#utility.yul\":6374:6386   */\n              revert\n                /* \"#utility.yul\":6326:6388   */\n            tag_398:\n                /* \"#utility.yul\":6274:6394   */\n              pop\n              jump\t// out\n                /* \"#utility.yul\":6400:6537   */\n            tag_274:\n                /* \"#utility.yul\":6445:6450   */\n              0x00\n                /* \"#utility.yul\":6483:6489   */\n              dup2\n                /* \"#utility.yul\":6470:6490   */\n              calldataload\n                /* \"#utility.yul\":6461:6490   */\n              swap1\n              pop\n                /* \"#utility.yul\":6499:6531   */\n              tag_400\n                /* \"#utility.yul\":6525:6530   */\n              dup2\n                /* \"#utility.yul\":6499:6531   */\n              tag_273\n              jump\t// in\n            tag_400:\n                /* \"#utility.yul\":6400:6537   */\n              swap3\n              swap2\n              pop\n              pop\n              jump\t// out\n                /* \"#utility.yul\":6543:6870   */\n            tag_123:\n                /* \"#utility.yul\":6601:6607   */\n              0x00\n                /* \"#utility.yul\":6650:6652   */\n              0x20\n                /* \"#utility.yul\":6638:6647   */\n              dup3\n                /* \"#utility.yul\":6629:6636   */\n              dup5\n                /* \"#utility.yul\":6625:6648   */\n              sub\n                /* \"#utility.yul\":6621:6653   */\n              slt\n                /* \"#utility.yul\":6618:6737   */\n              iszero\n              tag_402\n              jumpi\n                /* \"#utility.yul\":6656:6735   */\n              tag_403\n              tag_255\n              jump\t// in\n            tag_403:\n                /* \"#utility.yul\":6618:6737   */\n            tag_402:\n                /* \"#utility.yul\":6776:6777   */\n              0x00\n                /* \"#utility.yul\":6801:6853   */\n              tag_404\n                /* \"#utility.yul\":6845:6852   */\n              dup5\n                /* \"#utility.yul\":6836:6842   */\n              dup3\n                /* \"#utility.yul\":6825:6834   */\n              dup6\n                /* \"#utility.yul\":6821:6843   */\n              add\n                /* \"#utility.yul\":6801:6853   */\n              tag_274\n              jump\t// in\n            tag_404:\n                /* \"#utility.yul\":6791:6853   */\n              swap2\n              pop\n                /* \"#utility.yul\":6747:6863   */\n              pop\n                /* \"#utility.yul\":6543:6870   */\n              swap3\n              swap2\n              pop\n              pop\n              jump\t// out\n                /* \"#utility.yul\":6876:7105   */\n            tag_275:\n                /* \"#utility.yul\":7016:7050   */\n              0x45696e7a61686c756e6773626574726167206d7573732067726f657373657220\n                /* \"#utility.yul\":7012:7013   */\n              0x00\n                /* \"#utility.yul\":7004:7010   */\n              dup3\n                /* \"#utility.yul\":7000:7014   */\n              add\n                /* \"#utility.yul\":6993:7051   */\n              mstore\n                /* \"#utility.yul\":7085:7097   */\n              0x616c732030207365696e00000000000000000000000000000000000000000000\n                /* \"#utility.yul\":7080:7082   */\n              0x20\n                /* \"#utility.yul\":7072:7078   */\n              dup3\n                /* \"#utility.yul\":7068:7083   */\n              add\n                /* \"#utility.yul\":7061:7098   */\n              mstore\n                /* \"#utility.yul\":6876:7105   */\n              pop\n              jump\t// out\n                /* \"#utility.yul\":7111:7477   */\n            tag_276:\n                /* \"#utility.yul\":7253:7256   */\n              0x00\n                /* \"#utility.yul\":7274:7341   */\n              tag_407\n                /* \"#utility.yul\":7338:7340   */\n              0x2a\n                /* \"#utility.yul\":7333:7336   */\n              dup4\n                /* \"#utility.yul\":7274:7341   */\n              tag_268\n              jump\t// in\n            tag_407:\n                /* \"#utility.yul\":7267:7341   */\n              swap2\n              pop\n                /* \"#utility.yul\":7350:7443   */\n              tag_408\n                /* \"#utility.yul\":7439:7442   */\n              dup3\n                /* \"#utility.yul\":7350:7443   */\n              tag_275\n              jump\t// in\n            tag_408:\n                /* \"#utility.yul\":7468:7470   */\n              0x40\n                /* \"#utility.yul\":7463:7466   */\n              dup3\n                /* \"#utility.yul\":7459:7471   */\n              add\n                /* \"#utility.yul\":7452:7471   */\n              swap1\n              pop\n                /* \"#utility.yul\":7111:7477   */\n              swap2\n              swap1\n              pop\n              jump\t// out\n                /* \"#utility.yul\":7483:7902   */\n            tag_139:\n                /* \"#utility.yul\":7649:7653   */\n              0x00\n                /* \"#utility.yul\":7687:7689   */\n              0x20\n                /* \"#utility.yul\":7676:7685   */\n              dup3\n                /* \"#utility.yul\":7672:7690   */\n              add\n                /* \"#utility.yul\":7664:7690   */\n              swap1\n              pop\n                /* \"#utility.yul\":7736:7745   */\n              dup2\n                /* \"#utility.yul\":7730:7734   */\n              dup2\n                /* \"#utility.yul\":7726:7746   */\n              sub\n                /* \"#utility.yul\":7722:7723   */\n              0x00\n                /* \"#utility.yul\":7711:7720   */\n              dup4\n                /* \"#utility.yul\":7707:7724   */\n              add\n                /* \"#utility.yul\":7700:7747   */\n              mstore\n                /* \"#utility.yul\":7764:7895   */\n              tag_410\n                /* \"#utility.yul\":7890:7894   */\n              dup2\n                /* \"#utility.yul\":7764:7895   */\n              tag_276\n              jump\t// in\n            tag_410:\n                /* \"#utility.yul\":7756:7895   */\n              swap1\n              pop\n                /* \"#utility.yul\":7483:7902   */\n              swap2\n              swap1\n              pop\n              jump\t// out\n                /* \"#utility.yul\":7908:8090   */\n            tag_277:\n                /* \"#utility.yul\":8048:8082   */\n              0x476577696e6e20777572646520626572656974732065696e67657a61686c742e\n                /* \"#utility.yul\":8044:8045   */\n              0x00\n                /* \"#utility.yul\":8036:8042   */\n              dup3\n                /* \"#utility.yul\":8032:8046   */\n              add\n                /* \"#utility.yul\":8025:8083   */\n              mstore\n                /* \"#utility.yul\":7908:8090   */\n              pop\n              jump\t// out\n                /* \"#utility.yul\":8096:8462   */\n            tag_278:\n                /* \"#utility.yul\":8238:8241   */\n              0x00\n                /* \"#utility.yul\":8259:8326   */\n              tag_413\n                /* \"#utility.yul\":8323:8325   */\n              0x20\n                /* \"#utility.yul\":8318:8321   */\n              dup4\n                /* \"#utility.yul\":8259:8326   */\n              tag_268\n              jump\t// in\n            tag_413:\n                /* \"#utility.yul\":8252:8326   */\n              swap2\n              pop\n                /* \"#utility.yul\":8335:8428   */\n              tag_414\n                /* \"#utility.yul\":8424:8427   */\n              dup3\n                /* \"#utility.yul\":8335:8428   */\n              tag_277\n              jump\t// in\n            tag_414:\n                /* \"#utility.yul\":8453:8455   */\n              0x20\n                /* \"#utility.yul\":8448:8451   */\n              dup3\n                /* \"#utility.yul\":8444:8456   */\n              add\n                /* \"#utility.yul\":8437:8456   */\n              swap1\n              pop\n                /* \"#utility.yul\":8096:8462   */\n              swap2\n              swap1\n              pop\n              jump\t// out\n                /* \"#utility.yul\":8468:8887   */\n            tag_142:\n                /* \"#utility.yul\":8634:8638   */\n              0x00\n                /* \"#utility.yul\":8672:8674   */\n              0x20\n                /* \"#utility.yul\":8661:8670   */\n              dup3\n                /* \"#utility.yul\":8657:8675   */\n              add\n                /* \"#utility.yul\":8649:8675   */\n              swap1\n              pop\n                /* \"#utility.yul\":8721:8730   */\n              dup2\n                /* \"#utility.yul\":8715:8719   */\n              dup2\n                /* \"#utility.yul\":8711:8731   */\n              sub\n                /* \"#utility.yul\":8707:8708   */\n              0x00\n                /* \"#utility.yul\":8696:8705   */\n              dup4\n                /* \"#utility.yul\":8692:8709   */\n              add\n                /* \"#utility.yul\":8685:8732   */\n              mstore\n                /* \"#utility.yul\":8749:8880   */\n              tag_416\n                /* \"#utility.yul\":8875:8879   */\n              dup2\n                /* \"#utility.yul\":8749:8880   */\n              tag_278\n              jump\t// in\n            tag_416:\n                /* \"#utility.yul\":8741:8880   */\n              swap1\n              pop\n                /* \"#utility.yul\":8468:8887   */\n              swap2\n              swap1\n              pop\n              jump\t// out\n                /* \"#utility.yul\":8893:9073   */\n            tag_279:\n                /* \"#utility.yul\":8941:9018   */\n              0x4e487b7100000000000000000000000000000000000000000000000000000000\n                /* \"#utility.yul\":8938:8939   */\n              0x00\n                /* \"#utility.yul\":8931:9019   */\n              mstore\n                /* \"#utility.yul\":9038:9042   */\n              0x12\n                /* \"#utility.yul\":9035:9036   */\n              0x04\n                /* \"#utility.yul\":9028:9043   */\n              mstore\n                /* \"#utility.yul\":9062:9066   */\n              0x24\n                /* \"#utility.yul\":9059:9060   */\n              0x00\n                /* \"#utility.yul\":9052:9067   */\n              revert\n                /* \"#utility.yul\":9079:9259   */\n            tag_280:\n                /* \"#utility.yul\":9127:9204   */\n              0x4e487b7100000000000000000000000000000000000000000000000000000000\n                /* \"#utility.yul\":9124:9125   */\n              0x00\n                /* \"#utility.yul\":9117:9205   */\n              mstore\n                /* \"#utility.yul\":9224:9228   */\n              0x11\n                /* \"#utility.yul\":9221:9222   */\n              0x04\n                /* \"#utility.yul\":9214:9229   */\n              mstore\n                /* \"#utility.yul\":9248:9252   */\n              0x24\n                /* \"#utility.yul\":9245:9246   */\n              0x00\n                /* \"#utility.yul\":9238:9253   */\n              revert\n                /* \"#utility.yul\":9265:9450   */\n            tag_144:\n                /* \"#utility.yul\":9305:9306   */\n              0x00\n                /* \"#utility.yul\":9322:9342   */\n              tag_420\n                /* \"#utility.yul\":9340:9341   */\n              dup3\n                /* \"#utility.yul\":9322:9342   */\n              tag_248\n              jump\t// in\n            tag_420:\n                /* \"#utility.yul\":9317:9342   */\n              swap2\n              pop\n                /* \"#utility.yul\":9356:9376   */\n              tag_421\n                /* \"#utility.yul\":9374:9375   */\n              dup4\n                /* \"#utility.yul\":9356:9376   */\n              tag_248\n              jump\t// in\n            tag_421:\n                /* \"#utility.yul\":9351:9376   */\n              swap3\n              pop\n                /* \"#utility.yul\":9395:9396   */\n              dup3\n                /* \"#utility.yul\":9385:9420   */\n              tag_422\n              jumpi\n                /* \"#utility.yul\":9400:9418   */\n              tag_423\n              tag_279\n              jump\t// in\n            tag_423:\n                /* \"#utility.yul\":9385:9420   */\n            tag_422:\n                /* \"#utility.yul\":9442:9443   */\n              dup3\n                /* \"#utility.yul\":9439:9440   */\n              dup3\n                /* \"#utility.yul\":9435:9444   */\n              div\n                /* \"#utility.yul\":9430:9444   */\n              swap1\n              pop\n                /* \"#utility.yul\":9265:9450   */\n              swap3\n              swap2\n              pop\n              pop\n              jump\t// out\n                /* \"#utility.yul\":9456:9706   */\n            tag_281:\n                /* \"#utility.yul\":9596:9630   */\n              0x457320676962742062657265697473204d6974737069656c65722e2050726569\n                /* \"#utility.yul\":9592:9593   */\n              0x00\n                /* \"#utility.yul\":9584:9590   */\n              dup3\n                /* \"#utility.yul\":9580:9594   */\n              add\n                /* \"#utility.yul\":9573:9631   */\n              mstore\n                /* \"#utility.yul\":9665:9698   */\n              0x7361656e646572756e67206e69636874206d656872206d6f65676c6963682e00\n                /* \"#utility.yul\":9660:9662   */\n              0x20\n                /* \"#utility.yul\":9652:9658   */\n              dup3\n                /* \"#utility.yul\":9648:9663   */\n              add\n                /* \"#utility.yul\":9641:9699   */\n              mstore\n                /* \"#utility.yul\":9456:9706   */\n              pop\n              jump\t// out\n                /* \"#utility.yul\":9712:10078   */\n            tag_282:\n                /* \"#utility.yul\":9854:9857   */\n              0x00\n                /* \"#utility.yul\":9875:9942   */\n              tag_426\n                /* \"#utility.yul\":9939:9941   */\n              0x3f\n                /* \"#utility.yul\":9934:9937   */\n              dup4\n                /* \"#utility.yul\":9875:9942   */\n              tag_268\n              jump\t// in\n            tag_426:\n                /* \"#utility.yul\":9868:9942   */\n              swap2\n              pop\n                /* \"#utility.yul\":9951:10044   */\n              tag_427\n                /* \"#utility.yul\":10040:10043   */\n              dup3\n                /* \"#utility.yul\":9951:10044   */\n              tag_281\n              jump\t// in\n            tag_427:\n                /* \"#utility.yul\":10069:10071   */\n              0x40\n                /* \"#utility.yul\":10064:10067   */\n              dup3\n                /* \"#utility.yul\":10060:10072   */\n              add\n                /* \"#utility.yul\":10053:10072   */\n              swap1\n              pop\n                /* \"#utility.yul\":9712:10078   */\n              swap2\n              swap1\n              pop\n              jump\t// out\n                /* \"#utility.yul\":10084:10503   */\n            tag_150:\n                /* \"#utility.yul\":10250:10254   */\n              0x00\n                /* \"#utility.yul\":10288:10290   */\n              0x20\n                /* \"#utility.yul\":10277:10286   */\n              dup3\n                /* \"#utility.yul\":10273:10291   */\n              add\n                /* \"#utility.yul\":10265:10291   */\n              swap1\n              pop\n                /* \"#utility.yul\":10337:10346   */\n              dup2\n                /* \"#utility.yul\":10331:10335   */\n              dup2\n                /* \"#utility.yul\":10327:10347   */\n              sub\n                /* \"#utility.yul\":10323:10324   */\n              0x00\n                /* \"#utility.yul\":10312:10321   */\n              dup4\n                /* \"#utility.yul\":10308:10325   */\n              add\n                /* \"#utility.yul\":10301:10348   */\n              mstore\n                /* \"#utility.yul\":10365:10496   */\n              tag_429\n                /* \"#utility.yul\":10491:10495   */\n              dup2\n                /* \"#utility.yul\":10365:10496   */\n              tag_282\n              jump\t// in\n            tag_429:\n                /* \"#utility.yul\":10357:10496   */\n              swap1\n              pop\n                /* \"#utility.yul\":10084:10503   */\n              swap2\n              swap1\n              pop\n              jump\t// out\n                /* \"#utility.yul\":10509:10754   */\n            tag_283:\n                /* \"#utility.yul\":10649:10683   */\n              0x457320676962742062657265697473204d6974737069656c65722e2041656e64\n                /* \"#utility.yul\":10645:10646   */\n              0x00\n                /* \"#utility.yul\":10637:10643   */\n              dup3\n                /* \"#utility.yul\":10633:10647   */\n              add\n                /* \"#utility.yul\":10626:10684   */\n              mstore\n                /* \"#utility.yul\":10718:10746   */\n              0x6572756e67206e69636874206d656872206d6f65676c6963682e000000000000\n                /* \"#utility.yul\":10713:10715   */\n              0x20\n                /* \"#utility.yul\":10705:10711   */\n              dup3\n                /* \"#utility.yul\":10701:10716   */\n              add\n                /* \"#utility.yul\":10694:10747   */\n              mstore\n                /* \"#utility.yul\":10509:10754   */\n              pop\n              jump\t// out\n                /* \"#utility.yul\":10760:11126   */\n            tag_284:\n                /* \"#utility.yul\":10902:10905   */\n              0x00\n                /* \"#utility.yul\":10923:10990   */\n              tag_432\n                /* \"#utility.yul\":10987:10989   */\n              0x3a\n                /* \"#utility.yul\":10982:10985   */\n              dup4\n                /* \"#utility.yul\":10923:10990   */\n              tag_268\n              jump\t// in\n            tag_432:\n                /* \"#utility.yul\":10916:10990   */\n              swap2\n              pop\n                /* \"#utility.yul\":10999:11092   */\n              tag_433\n                /* \"#utility.yul\":11088:11091   */\n              dup3\n                /* \"#utility.yul\":10999:11092   */\n              tag_283\n              jump\t// in\n            tag_433:\n                /* \"#utility.yul\":11117:11119   */\n              0x40\n                /* \"#utility.yul\":11112:11115   */\n              dup3\n                /* \"#utility.yul\":11108:11120   */\n              add\n                /* \"#utility.yul\":11101:11120   */\n              swap1\n              pop\n                /* \"#utility.yul\":10760:11126   */\n              swap2\n              swap1\n              pop\n              jump\t// out\n                /* \"#utility.yul\":11132:11551   */\n            tag_156:\n                /* \"#utility.yul\":11298:11302   */\n              0x00\n                /* \"#utility.yul\":11336:11338   */\n              0x20\n                /* \"#utility.yul\":11325:11334   */\n              dup3\n                /* \"#utility.yul\":11321:11339   */\n              add\n                /* \"#utility.yul\":11313:11339   */\n              swap1\n              pop\n                /* \"#utility.yul\":11385:11394   */\n              dup2\n                /* \"#utility.yul\":11379:11383   */\n              dup2\n                /* \"#utility.yul\":11375:11395   */\n              sub\n                /* \"#utility.yul\":11371:11372   */\n              0x00\n                /* \"#utility.yul\":11360:11369   */\n              dup4\n                /* \"#utility.yul\":11356:11373   */\n              add\n                /* \"#utility.yul\":11349:11396   */\n              mstore\n                /* \"#utility.yul\":11413:11544   */\n              tag_435\n                /* \"#utility.yul\":11539:11543   */\n              dup2\n                /* \"#utility.yul\":11413:11544   */\n              tag_284\n              jump\t// in\n            tag_435:\n                /* \"#utility.yul\":11405:11544   */\n              swap1\n              pop\n                /* \"#utility.yul\":11132:11551   */\n              swap2\n              swap1\n              pop\n              jump\t// out\n                /* \"#utility.yul\":11557:11732   */\n            tag_285:\n                /* \"#utility.yul\":11697:11724   */\n              0x4b65696e2050726569732070726f204d6974737069656c657200000000000000\n                /* \"#utility.yul\":11693:11694   */\n              0x00\n                /* \"#utility.yul\":11685:11691   */\n              dup3\n                /* \"#utility.yul\":11681:11695   */\n              add\n                /* \"#utility.yul\":11674:11725   */\n              mstore\n                /* \"#utility.yul\":11557:11732   */\n              pop\n              jump\t// out\n                /* \"#utility.yul\":11738:12104   */\n            tag_286:\n                /* \"#utility.yul\":11880:11883   */\n              0x00\n                /* \"#utility.yul\":11901:11968   */\n              tag_438\n                /* \"#utility.yul\":11965:11967   */\n              0x19\n                /* \"#utility.yul\":11960:11963   */\n              dup4\n                /* \"#utility.yul\":11901:11968   */\n              tag_268\n              jump\t// in\n            tag_438:\n                /* \"#utility.yul\":11894:11968   */\n              swap2\n              pop\n                /* \"#utility.yul\":11977:12070   */\n              tag_439\n                /* \"#utility.yul\":12066:12069   */\n              dup3\n                /* \"#utility.yul\":11977:12070   */\n              tag_285\n              jump\t// in\n            tag_439:\n                /* \"#utility.yul\":12095:12097   */\n              0x20\n                /* \"#utility.yul\":12090:12093   */\n              dup3\n                /* \"#utility.yul\":12086:12098   */\n              add\n                /* \"#utility.yul\":12079:12098   */\n              swap1\n              pop\n                /* \"#utility.yul\":11738:12104   */\n              swap2\n              swap1\n              pop\n              jump\t// out\n                /* \"#utility.yul\":12110:12529   */\n            tag_160:\n                /* \"#utility.yul\":12276:12280   */\n              0x00\n                /* \"#utility.yul\":12314:12316   */\n              0x20\n                /* \"#utility.yul\":12303:12312   */\n              dup3\n                /* \"#utility.yul\":12299:12317   */\n              add\n                /* \"#utility.yul\":12291:12317   */\n              swap1\n              pop\n                /* \"#utility.yul\":12363:12372   */\n              dup2\n                /* \"#utility.yul\":12357:12361   */\n              dup2\n                /* \"#utility.yul\":12353:12373   */\n              sub\n                /* \"#utility.yul\":12349:12350   */\n              0x00\n                /* \"#utility.yul\":12338:12347   */\n              dup4\n                /* \"#utility.yul\":12334:12351   */\n              add\n                /* \"#utility.yul\":12327:12374   */\n              mstore\n                /* \"#utility.yul\":12391:12522   */\n              tag_441\n                /* \"#utility.yul\":12517:12521   */\n              dup2\n                /* \"#utility.yul\":12391:12522   */\n              tag_286\n              jump\t// in\n            tag_441:\n                /* \"#utility.yul\":12383:12522   */\n              swap1\n              pop\n                /* \"#utility.yul\":12110:12529   */\n              swap2\n              swap1\n              pop\n              jump\t// out\n                /* \"#utility.yul\":12535:12714   */\n            tag_287:\n                /* \"#utility.yul\":12675:12706   */\n              0x5a7520676572696e6765722045696e7a61686c756e6773626574726167000000\n                /* \"#utility.yul\":12671:12672   */\n              0x00\n                /* \"#utility.yul\":12663:12669   */\n              dup3\n                /* \"#utility.yul\":12659:12673   */\n              add\n                /* \"#utility.yul\":12652:12707   */\n              mstore\n                /* \"#utility.yul\":12535:12714   */\n              pop\n              jump\t// out\n                /* \"#utility.yul\":12720:13086   */\n            tag_288:\n                /* \"#utility.yul\":12862:12865   */\n              0x00\n                /* \"#utility.yul\":12883:12950   */\n              tag_444\n                /* \"#utility.yul\":12947:12949   */\n              0x1d\n                /* \"#utility.yul\":12942:12945   */\n              dup4\n                /* \"#utility.yul\":12883:12950   */\n              tag_268\n              jump\t// in\n            tag_444:\n                /* \"#utility.yul\":12876:12950   */\n              swap2\n              pop\n                /* \"#utility.yul\":12959:13052   */\n              tag_445\n                /* \"#utility.yul\":13048:13051   */\n              dup3\n                /* \"#utility.yul\":12959:13052   */\n              tag_287\n              jump\t// in\n            tag_445:\n                /* \"#utility.yul\":13077:13079   */\n              0x20\n                /* \"#utility.yul\":13072:13075   */\n              dup3\n                /* \"#utility.yul\":13068:13080   */\n              add\n                /* \"#utility.yul\":13061:13080   */\n              swap1\n              pop\n                /* \"#utility.yul\":12720:13086   */\n              swap2\n              swap1\n              pop\n              jump\t// out\n                /* \"#utility.yul\":13092:13511   */\n            tag_163:\n                /* \"#utility.yul\":13258:13262   */\n              0x00\n                /* \"#utility.yul\":13296:13298   */\n              0x20\n                /* \"#utility.yul\":13285:13294   */\n              dup3\n                /* \"#utility.yul\":13281:13299   */\n              add\n                /* \"#utility.yul\":13273:13299   */\n              swap1\n              pop\n                /* \"#utility.yul\":13345:13354   */\n              dup2\n                /* \"#utility.yul\":13339:13343   */\n              dup2\n                /* \"#utility.yul\":13335:13355   */\n              sub\n                /* \"#utility.yul\":13331:13332   */\n              0x00\n                /* \"#utility.yul\":13320:13329   */\n              dup4\n                /* \"#utility.yul\":13316:13333   */\n              add\n                /* \"#utility.yul\":13309:13356   */\n              mstore\n                /* \"#utility.yul\":13373:13504   */\n              tag_447\n                /* \"#utility.yul\":13499:13503   */\n              dup2\n                /* \"#utility.yul\":13373:13504   */\n              tag_288\n              jump\t// in\n            tag_447:\n                /* \"#utility.yul\":13365:13504   */\n              swap1\n              pop\n                /* \"#utility.yul\":13092:13511   */\n              swap2\n              swap1\n              pop\n              jump\t// out\n                /* \"#utility.yul\":13517:13738   */\n            tag_289:\n                /* \"#utility.yul\":13657:13691   */\n              0x4265726569747320616c73204d6974737069656c657220726567697374726965\n                /* \"#utility.yul\":13653:13654   */\n              0x00\n                /* \"#utility.yul\":13645:13651   */\n              dup3\n                /* \"#utility.yul\":13641:13655   */\n              add\n                /* \"#utility.yul\":13634:13692   */\n              mstore\n                /* \"#utility.yul\":13726:13730   */\n              0x7274000000000000000000000000000000000000000000000000000000000000\n                /* \"#utility.yul\":13721:13723   */\n              0x20\n                /* \"#utility.yul\":13713:13719   */\n              dup3\n                /* \"#utility.yul\":13709:13724   */\n              add\n                /* \"#utility.yul\":13702:13731   */\n              mstore\n                /* \"#utility.yul\":13517:13738   */\n              pop\n              jump\t// out\n                /* \"#utility.yul\":13744:14110   */\n            tag_290:\n                /* \"#utility.yul\":13886:13889   */\n              0x00\n                /* \"#utility.yul\":13907:13974   */\n              tag_450\n                /* \"#utility.yul\":13971:13973   */\n              0x22\n                /* \"#utility.yul\":13966:13969   */\n              dup4\n                /* \"#utility.yul\":13907:13974   */\n              tag_268\n              jump\t// in\n            tag_450:\n                /* \"#utility.yul\":13900:13974   */\n              swap2\n              pop\n                /* \"#utility.yul\":13983:14076   */\n              tag_451\n                /* \"#utility.yul\":14072:14075   */\n              dup3\n                /* \"#utility.yul\":13983:14076   */\n              tag_289\n              jump\t// in\n            tag_451:\n                /* \"#utility.yul\":14101:14103   */\n              0x40\n                /* \"#utility.yul\":14096:14099   */\n              dup3\n                /* \"#utility.yul\":14092:14104   */\n              add\n                /* \"#utility.yul\":14085:14104   */\n              swap1\n              pop\n                /* \"#utility.yul\":13744:14110   */\n              swap2\n              swap1\n              pop\n              jump\t// out\n                /* \"#utility.yul\":14116:14535   */\n            tag_166:\n                /* \"#utility.yul\":14282:14286   */\n              0x00\n                /* \"#utility.yul\":14320:14322   */\n              0x20\n                /* \"#utility.yul\":14309:14318   */\n              dup3\n                /* \"#utility.yul\":14305:14323   */\n              add\n                /* \"#utility.yul\":14297:14323   */\n              swap1\n              pop\n                /* \"#utility.yul\":14369:14378   */\n              dup2\n                /* \"#utility.yul\":14363:14367   */\n              dup2\n                /* \"#utility.yul\":14359:14379   */\n              sub\n                /* \"#utility.yul\":14355:14356   */\n              0x00\n                /* \"#utility.yul\":14344:14353   */\n              dup4\n                /* \"#utility.yul\":14340:14357   */\n              add\n                /* \"#utility.yul\":14333:14380   */\n              mstore\n                /* \"#utility.yul\":14397:14528   */\n              tag_453\n                /* \"#utility.yul\":14523:14527   */\n              dup2\n                /* \"#utility.yul\":14397:14528   */\n              tag_290\n              jump\t// in\n            tag_453:\n                /* \"#utility.yul\":14389:14528   */\n              swap1\n              pop\n                /* \"#utility.yul\":14116:14535   */\n              swap2\n              swap1\n              pop\n              jump\t// out\n                /* \"#utility.yul\":14541:14723   */\n            tag_291:\n                /* \"#utility.yul\":14681:14715   */\n              0x4d6178696d616c65205465696c6e65686d65727a61686c206572726569636874\n                /* \"#utility.yul\":14677:14678   */\n              0x00\n                /* \"#utility.yul\":14669:14675   */\n              dup3\n                /* \"#utility.yul\":14665:14679   */\n              add\n                /* \"#utility.yul\":14658:14716   */\n              mstore\n                /* \"#utility.yul\":14541:14723   */\n              pop\n              jump\t// out\n                /* \"#utility.yul\":14729:15095   */\n            tag_292:\n                /* \"#utility.yul\":14871:14874   */\n              0x00\n                /* \"#utility.yul\":14892:14959   */\n              tag_456\n                /* \"#utility.yul\":14956:14958   */\n              0x20\n                /* \"#utility.yul\":14951:14954   */\n              dup4\n                /* \"#utility.yul\":14892:14959   */\n              tag_268\n              jump\t// in\n            tag_456:\n                /* \"#utility.yul\":14885:14959   */\n              swap2\n              pop\n                /* \"#utility.yul\":14968:15061   */\n              tag_457\n                /* \"#utility.yul\":15057:15060   */\n              dup3\n                /* \"#utility.yul\":14968:15061   */\n              tag_291\n              jump\t// in\n            tag_457:\n                /* \"#utility.yul\":15086:15088   */\n              0x20\n                /* \"#utility.yul\":15081:15084   */\n              dup3\n                /* \"#utility.yul\":15077:15089   */\n              add\n                /* \"#utility.yul\":15070:15089   */\n              swap1\n              pop\n                /* \"#utility.yul\":14729:15095   */\n              swap2\n              swap1\n              pop\n              jump\t// out\n                /* \"#utility.yul\":15101:15520   */\n            tag_169:\n                /* \"#utility.yul\":15267:15271   */\n              0x00\n                /* \"#utility.yul\":15305:15307   */\n              0x20\n                /* \"#utility.yul\":15294:15303   */\n              dup3\n                /* \"#utility.yul\":15290:15308   */\n              add\n                /* \"#utility.yul\":15282:15308   */\n              swap1\n              pop\n                /* \"#utility.yul\":15354:15363   */\n              dup2\n                /* \"#utility.yul\":15348:15352   */\n              dup2\n                /* \"#utility.yul\":15344:15364   */\n              sub\n                /* \"#utility.yul\":15340:15341   */\n              0x00\n                /* \"#utility.yul\":15329:15338   */\n              dup4\n                /* \"#utility.yul\":15325:15342   */\n              add\n                /* \"#utility.yul\":15318:15365   */\n              mstore\n                /* \"#utility.yul\":15382:15513   */\n              tag_459\n                /* \"#utility.yul\":15508:15512   */\n              dup2\n                /* \"#utility.yul\":15382:15513   */\n              tag_292\n              jump\t// in\n            tag_459:\n                /* \"#utility.yul\":15374:15513   */\n              swap1\n              pop\n                /* \"#utility.yul\":15101:15520   */\n              swap2\n              swap1\n              pop\n              jump\t// out\n                /* \"#utility.yul\":15526:15707   */\n            tag_293:\n                /* \"#utility.yul\":15666:15699   */\n              0x476577696e6e20777572646520626572656974732065696e67657a61686c7400\n                /* \"#utility.yul\":15662:15663   */\n              0x00\n                /* \"#utility.yul\":15654:15660   */\n              dup3\n                /* \"#utility.yul\":15650:15664   */\n              add\n                /* \"#utility.yul\":15643:15700   */\n              mstore\n                /* \"#utility.yul\":15526:15707   */\n              pop\n              jump\t// out\n                /* \"#utility.yul\":15713:16079   */\n            tag_294:\n                /* \"#utility.yul\":15855:15858   */\n              0x00\n                /* \"#utility.yul\":15876:15943   */\n              tag_462\n                /* \"#utility.yul\":15940:15942   */\n              0x1f\n                /* \"#utility.yul\":15935:15938   */\n              dup4\n                /* \"#utility.yul\":15876:15943   */\n              tag_268\n              jump\t// in\n            tag_462:\n                /* \"#utility.yul\":15869:15943   */\n              swap2\n              pop\n                /* \"#utility.yul\":15952:16045   */\n              tag_463\n                /* \"#utility.yul\":16041:16044   */\n              dup3\n                /* \"#utility.yul\":15952:16045   */\n              tag_293\n              jump\t// in\n            tag_463:\n                /* \"#utility.yul\":16070:16072   */\n              0x20\n                /* \"#utility.yul\":16065:16068   */\n              dup3\n                /* \"#utility.yul\":16061:16073   */\n              add\n                /* \"#utility.yul\":16054:16073   */\n              swap1\n              pop\n                /* \"#utility.yul\":15713:16079   */\n              swap2\n              swap1\n              pop\n              jump\t// out\n                /* \"#utility.yul\":16085:16504   */\n            tag_172:\n                /* \"#utility.yul\":16251:16255   */\n              0x00\n                /* \"#utility.yul\":16289:16291   */\n              0x20\n                /* \"#utility.yul\":16278:16287   */\n              dup3\n                /* \"#utility.yul\":16274:16292   */\n              add\n                /* \"#utility.yul\":16266:16292   */\n              swap1\n              pop\n                /* \"#utility.yul\":16338:16347   */\n              dup2\n                /* \"#utility.yul\":16332:16336   */\n              dup2\n                /* \"#utility.yul\":16328:16348   */\n              sub\n                /* \"#utility.yul\":16324:16325   */\n              0x00\n                /* \"#utility.yul\":16313:16322   */\n              dup4\n                /* \"#utility.yul\":16309:16326   */\n              add\n                /* \"#utility.yul\":16302:16349   */\n              mstore\n                /* \"#utility.yul\":16366:16497   */\n              tag_465\n                /* \"#utility.yul\":16492:16496   */\n              dup2\n                /* \"#utility.yul\":16366:16497   */\n              tag_294\n              jump\t// in\n            tag_465:\n                /* \"#utility.yul\":16358:16497   */\n              swap1\n              pop\n                /* \"#utility.yul\":16085:16504   */\n              swap2\n              swap1\n              pop\n              jump\t// out\n                /* \"#utility.yul\":16510:16704   */\n            tag_176:\n                /* \"#utility.yul\":16550:16554   */\n              0x00\n                /* \"#utility.yul\":16570:16590   */\n              tag_467\n                /* \"#utility.yul\":16588:16589   */\n              dup3\n                /* \"#utility.yul\":16570:16590   */\n              tag_248\n              jump\t// in\n            tag_467:\n                /* \"#utility.yul\":16565:16590   */\n              swap2\n              pop\n                /* \"#utility.yul\":16604:16624   */\n              tag_468\n                /* \"#utility.yul\":16622:16623   */\n              dup4\n                /* \"#utility.yul\":16604:16624   */\n              tag_248\n              jump\t// in\n            tag_468:\n                /* \"#utility.yul\":16599:16624   */\n              swap3\n              pop\n                /* \"#utility.yul\":16648:16649   */\n              dup3\n                /* \"#utility.yul\":16645:16646   */\n              dup3\n                /* \"#utility.yul\":16641:16650   */\n              sub\n                /* \"#utility.yul\":16633:16650   */\n              swap1\n              pop\n                /* \"#utility.yul\":16672:16673   */\n              dup2\n                /* \"#utility.yul\":16666:16670   */\n              dup2\n                /* \"#utility.yul\":16663:16674   */\n              gt\n                /* \"#utility.yul\":16660:16697   */\n              iszero\n              tag_469\n              jumpi\n                /* \"#utility.yul\":16677:16695   */\n              tag_470\n              tag_280\n              jump\t// in\n            tag_470:\n                /* \"#utility.yul\":16660:16697   */\n            tag_469:\n                /* \"#utility.yul\":16510:16704   */\n              swap3\n              swap2\n              pop\n              pop\n              jump\t// out\n                /* \"#utility.yul\":16710:16881   */\n            tag_178:\n                /* \"#utility.yul\":16748:16751   */\n              0x00\n                /* \"#utility.yul\":16771:16794   */\n              tag_472\n                /* \"#utility.yul\":16788:16793   */\n              dup3\n                /* \"#utility.yul\":16771:16794   */\n              tag_265\n              jump\t// in\n            tag_472:\n                /* \"#utility.yul\":16762:16794   */\n              swap2\n              pop\n                /* \"#utility.yul\":16816:16822   */\n              0xffff\n                /* \"#utility.yul\":16809:16814   */\n              dup3\n                /* \"#utility.yul\":16806:16823   */\n              sub\n                /* \"#utility.yul\":16803:16846   */\n              tag_473\n              jumpi\n                /* \"#utility.yul\":16826:16844   */\n              tag_474\n              tag_280\n              jump\t// in\n            tag_474:\n                /* \"#utility.yul\":16803:16846   */\n            tag_473:\n                /* \"#utility.yul\":16873:16874   */\n              0x01\n                /* \"#utility.yul\":16866:16871   */\n              dup3\n                /* \"#utility.yul\":16862:16875   */\n              add\n                /* \"#utility.yul\":16855:16875   */\n              swap1\n              pop\n                /* \"#utility.yul\":16710:16881   */\n              swap2\n              swap1\n              pop\n              jump\t// out\n                /* \"#utility.yul\":16887:17051   */\n            tag_295:\n                /* \"#utility.yul\":17027:17043   */\n              0x4e6f2072652d656e7472616e6379000000000000000000000000000000000000\n                /* \"#utility.yul\":17023:17024   */\n              0x00\n                /* \"#utility.yul\":17015:17021   */\n              dup3\n                /* \"#utility.yul\":17011:17025   */\n              add\n                /* \"#utility.yul\":17004:17044   */\n              mstore\n                /* \"#utility.yul\":16887:17051   */\n              pop\n              jump\t// out\n                /* \"#utility.yul\":17057:17423   */\n            tag_296:\n                /* \"#utility.yul\":17199:17202   */\n              0x00\n                /* \"#utility.yul\":17220:17287   */\n              tag_477\n                /* \"#utility.yul\":17284:17286   */\n              0x0e\n                /* \"#utility.yul\":17279:17282   */\n              dup4\n                /* \"#utility.yul\":17220:17287   */\n              tag_268\n              jump\t// in\n            tag_477:\n                /* \"#utility.yul\":17213:17287   */\n              swap2\n              pop\n                /* \"#utility.yul\":17296:17389   */\n              tag_478\n                /* \"#utility.yul\":17385:17388   */\n              dup3\n                /* \"#utility.yul\":17296:17389   */\n              tag_295\n              jump\t// in\n            tag_478:\n                /* \"#utility.yul\":17414:17416   */\n              0x20\n                /* \"#utility.yul\":17409:17412   */\n              dup3\n                /* \"#utility.yul\":17405:17417   */\n              add\n                /* \"#utility.yul\":17398:17417   */\n              swap1\n              pop\n                /* \"#utility.yul\":17057:17423   */\n              swap2\n              swap1\n              pop\n              jump\t// out\n                /* \"#utility.yul\":17429:17848   */\n            tag_187:\n                /* \"#utility.yul\":17595:17599   */\n              0x00\n                /* \"#utility.yul\":17633:17635   */\n              0x20\n                /* \"#utility.yul\":17622:17631   */\n              dup3\n                /* \"#utility.yul\":17618:17636   */\n              add\n                /* \"#utility.yul\":17610:17636   */\n              swap1\n              pop\n                /* \"#utility.yul\":17682:17691   */\n              dup2\n                /* \"#utility.yul\":17676:17680   */\n              dup2\n                /* \"#utility.yul\":17672:17692   */\n              sub\n                /* \"#utility.yul\":17668:17669   */\n              0x00\n                /* \"#utility.yul\":17657:17666   */\n              dup4\n                /* \"#utility.yul\":17653:17670   */\n              add\n                /* \"#utility.yul\":17646:17693   */\n              mstore\n                /* \"#utility.yul\":17710:17841   */\n              tag_480\n                /* \"#utility.yul\":17836:17840   */\n              dup2\n                /* \"#utility.yul\":17710:17841   */\n              tag_296\n              jump\t// in\n            tag_480:\n                /* \"#utility.yul\":17702:17841   */\n              swap1\n              pop\n                /* \"#utility.yul\":17429:17848   */\n              swap2\n              swap1\n              pop\n              jump\t// out\n                /* \"#utility.yul\":17854:18080   */\n            tag_297:\n                /* \"#utility.yul\":17994:18028   */\n              0x476577696e6e206b616e6e206e6f6368206e696368742061626765686f6c7420\n                /* \"#utility.yul\":17990:17991   */\n              0x00\n                /* \"#utility.yul\":17982:17988   */\n              dup3\n                /* \"#utility.yul\":17978:17992   */\n              add\n                /* \"#utility.yul\":17971:18029   */\n              mstore\n                /* \"#utility.yul\":18063:18072   */\n              0x77657264656e2e00000000000000000000000000000000000000000000000000\n                /* \"#utility.yul\":18058:18060   */\n              0x20\n                /* \"#utility.yul\":18050:18056   */\n              dup3\n                /* \"#utility.yul\":18046:18061   */\n              add\n                /* \"#utility.yul\":18039:18073   */\n              mstore\n                /* \"#utility.yul\":17854:18080   */\n              pop\n              jump\t// out\n                /* \"#utility.yul\":18086:18452   */\n            tag_298:\n                /* \"#utility.yul\":18228:18231   */\n              0x00\n                /* \"#utility.yul\":18249:18316   */\n              tag_483\n                /* \"#utility.yul\":18313:18315   */\n              0x27\n                /* \"#utility.yul\":18308:18311   */\n              dup4\n                /* \"#utility.yul\":18249:18316   */\n              tag_268\n              jump\t// in\n            tag_483:\n                /* \"#utility.yul\":18242:18316   */\n              swap2\n              pop\n                /* \"#utility.yul\":18325:18418   */\n              tag_484\n                /* \"#utility.yul\":18414:18417   */\n              dup3\n                /* \"#utility.yul\":18325:18418   */\n              tag_297\n              jump\t// in\n            tag_484:\n                /* \"#utility.yul\":18443:18445   */\n              0x40\n                /* \"#utility.yul\":18438:18441   */\n              dup3\n                /* \"#utility.yul\":18434:18446   */\n              add\n                /* \"#utility.yul\":18427:18446   */\n              swap1\n              pop\n                /* \"#utility.yul\":18086:18452   */\n              swap2\n              swap1\n              pop\n              jump\t// out\n                /* \"#utility.yul\":18458:18877   */\n            tag_191:\n                /* \"#utility.yul\":18624:18628   */\n              0x00\n                /* \"#utility.yul\":18662:18664   */\n              0x20\n                /* \"#utility.yul\":18651:18660   */\n              dup3\n                /* \"#utility.yul\":18647:18665   */\n              add\n                /* \"#utility.yul\":18639:18665   */\n              swap1\n              pop\n                /* \"#utility.yul\":18711:18720   */\n              dup2\n                /* \"#utility.yul\":18705:18709   */\n              dup2\n                /* \"#utility.yul\":18701:18721   */\n              sub\n                /* \"#utility.yul\":18697:18698   */\n              0x00\n                /* \"#utility.yul\":18686:18695   */\n              dup4\n                /* \"#utility.yul\":18682:18699   */\n              add\n                /* \"#utility.yul\":18675:18722   */\n              mstore\n                /* \"#utility.yul\":18739:18870   */\n              tag_486\n                /* \"#utility.yul\":18865:18869   */\n              dup2\n                /* \"#utility.yul\":18739:18870   */\n              tag_298\n              jump\t// in\n            tag_486:\n                /* \"#utility.yul\":18731:18870   */\n              swap1\n              pop\n                /* \"#utility.yul\":18458:18877   */\n              swap2\n              swap1\n              pop\n              jump\t// out\n                /* \"#utility.yul\":18883:19108   */\n            tag_299:\n                /* \"#utility.yul\":19023:19057   */\n              0x4b65696e20476577696e6e207a7572204175737a61686c756e67207665726675\n                /* \"#utility.yul\":19019:19020   */\n              0x00\n                /* \"#utility.yul\":19011:19017   */\n              dup3\n                /* \"#utility.yul\":19007:19021   */\n              add\n                /* \"#utility.yul\":19000:19058   */\n              mstore\n                /* \"#utility.yul\":19092:19100   */\n              0x65676261722e0000000000000000000000000000000000000000000000000000\n                /* \"#utility.yul\":19087:19089   */\n              0x20\n                /* \"#utility.yul\":19079:19085   */\n              dup3\n                /* \"#utility.yul\":19075:19090   */\n              add\n                /* \"#utility.yul\":19068:19101   */\n              mstore\n                /* \"#utility.yul\":18883:19108   */\n              pop\n              jump\t// out\n                /* \"#utility.yul\":19114:19480   */\n            tag_300:\n                /* \"#utility.yul\":19256:19259   */\n              0x00\n                /* \"#utility.yul\":19277:19344   */\n              tag_489\n                /* \"#utility.yul\":19341:19343   */\n              0x26\n                /* \"#utility.yul\":19336:19339   */\n              dup4\n                /* \"#utility.yul\":19277:19344   */\n              tag_268\n              jump\t// in\n            tag_489:\n                /* \"#utility.yul\":19270:19344   */\n              swap2\n              pop\n                /* \"#utility.yul\":19353:19446   */\n              tag_490\n                /* \"#utility.yul\":19442:19445   */\n              dup3\n                /* \"#utility.yul\":19353:19446   */\n              tag_299\n              jump\t// in\n            tag_490:\n                /* \"#utility.yul\":19471:19473   */\n              0x40\n                /* \"#utility.yul\":19466:19469   */\n              dup3\n                /* \"#utility.yul\":19462:19474   */\n              add\n                /* \"#utility.yul\":19455:19474   */\n              swap1\n              pop\n                /* \"#utility.yul\":19114:19480   */\n              swap2\n              swap1\n              pop\n              jump\t// out\n                /* \"#utility.yul\":19486:19905   */\n            tag_194:\n                /* \"#utility.yul\":19652:19656   */\n              0x00\n                /* \"#utility.yul\":19690:19692   */\n              0x20\n                /* \"#utility.yul\":19679:19688   */\n              dup3\n                /* \"#utility.yul\":19675:19693   */\n              add\n                /* \"#utility.yul\":19667:19693   */\n              swap1\n              pop\n                /* \"#utility.yul\":19739:19748   */\n              dup2\n                /* \"#utility.yul\":19733:19737   */\n              dup2\n                /* \"#utility.yul\":19729:19749   */\n              sub\n                /* \"#utility.yul\":19725:19726   */\n              0x00\n                /* \"#utility.yul\":19714:19723   */\n              dup4\n                /* \"#utility.yul\":19710:19727   */\n              add\n                /* \"#utility.yul\":19703:19750   */\n              mstore\n                /* \"#utility.yul\":19767:19898   */\n              tag_492\n                /* \"#utility.yul\":19893:19897   */\n              dup2\n                /* \"#utility.yul\":19767:19898   */\n              tag_300\n              jump\t// in\n            tag_492:\n                /* \"#utility.yul\":19759:19898   */\n              swap1\n              pop\n                /* \"#utility.yul\":19486:19905   */\n              swap2\n              swap1\n              pop\n              jump\t// out\n                /* \"#utility.yul\":19911:20091   */\n            tag_301:\n                /* \"#utility.yul\":20051:20083   */\n              0x476577696e6e20777572646520626572656974732061626765686f6c742e0000\n                /* \"#utility.yul\":20047:20048   */\n              0x00\n                /* \"#utility.yul\":20039:20045   */\n              dup3\n                /* \"#utility.yul\":20035:20049   */\n              add\n                /* \"#utility.yul\":20028:20084   */\n              mstore\n                /* \"#utility.yul\":19911:20091   */\n              pop\n              jump\t// out\n                /* \"#utility.yul\":20097:20463   */\n            tag_302:\n                /* \"#utility.yul\":20239:20242   */\n              0x00\n                /* \"#utility.yul\":20260:20327   */\n              tag_495\n                /* \"#utility.yul\":20324:20326   */\n              0x1e\n                /* \"#utility.yul\":20319:20322   */\n              dup4\n                /* \"#utility.yul\":20260:20327   */\n              tag_268\n              jump\t// in\n            tag_495:\n                /* \"#utility.yul\":20253:20327   */\n              swap2\n              pop\n                /* \"#utility.yul\":20336:20429   */\n              tag_496\n                /* \"#utility.yul\":20425:20428   */\n              dup3\n                /* \"#utility.yul\":20336:20429   */\n              tag_301\n              jump\t// in\n            tag_496:\n                /* \"#utility.yul\":20454:20456   */\n              0x20\n                /* \"#utility.yul\":20449:20452   */\n              dup3\n                /* \"#utility.yul\":20445:20457   */\n              add\n                /* \"#utility.yul\":20438:20457   */\n              swap1\n              pop\n                /* \"#utility.yul\":20097:20463   */\n              swap2\n              swap1\n              pop\n              jump\t// out\n                /* \"#utility.yul\":20469:20888   */\n            tag_197:\n                /* \"#utility.yul\":20635:20639   */\n              0x00\n                /* \"#utility.yul\":20673:20675   */\n              0x20\n                /* \"#utility.yul\":20662:20671   */\n              dup3\n                /* \"#utility.yul\":20658:20676   */\n              add\n                /* \"#utility.yul\":20650:20676   */\n              swap1\n              pop\n                /* \"#utility.yul\":20722:20731   */\n              dup2\n                /* \"#utility.yul\":20716:20720   */\n              dup2\n                /* \"#utility.yul\":20712:20732   */\n              sub\n                /* \"#utility.yul\":20708:20709   */\n              0x00\n                /* \"#utility.yul\":20697:20706   */\n              dup4\n                /* \"#utility.yul\":20693:20710   */\n              add\n                /* \"#utility.yul\":20686:20733   */\n              mstore\n                /* \"#utility.yul\":20750:20881   */\n              tag_498\n                /* \"#utility.yul\":20876:20880   */\n              dup2\n                /* \"#utility.yul\":20750:20881   */\n              tag_302\n              jump\t// in\n            tag_498:\n                /* \"#utility.yul\":20742:20881   */\n              swap1\n              pop\n                /* \"#utility.yul\":20469:20888   */\n              swap2\n              swap1\n              pop\n              jump\t// out\n                /* \"#utility.yul\":20894:21074   */\n            tag_303:\n                /* \"#utility.yul\":20942:21019   */\n              0x4e487b7100000000000000000000000000000000000000000000000000000000\n                /* \"#utility.yul\":20939:20940   */\n              0x00\n                /* \"#utility.yul\":20932:21020   */\n              mstore\n                /* \"#utility.yul\":21039:21043   */\n              0x22\n                /* \"#utility.yul\":21036:21037   */\n              0x04\n                /* \"#utility.yul\":21029:21044   */\n              mstore\n                /* \"#utility.yul\":21063:21067   */\n              0x24\n                /* \"#utility.yul\":21060:21061   */\n              0x00\n                /* \"#utility.yul\":21053:21068   */\n              revert\n                /* \"#utility.yul\":21080:21400   */\n            tag_201:\n                /* \"#utility.yul\":21124:21130   */\n              0x00\n                /* \"#utility.yul\":21161:21162   */\n              0x02\n                /* \"#utility.yul\":21155:21159   */\n              dup3\n                /* \"#utility.yul\":21151:21163   */\n              div\n                /* \"#utility.yul\":21141:21163   */\n              swap1\n              pop\n                /* \"#utility.yul\":21208:21209   */\n              0x01\n                /* \"#utility.yul\":21202:21206   */\n              dup3\n                /* \"#utility.yul\":21198:21210   */\n              and\n                /* \"#utility.yul\":21229:21247   */\n              dup1\n                /* \"#utility.yul\":21219:21300   */\n              tag_501\n              jumpi\n                /* \"#utility.yul\":21285:21289   */\n              0x7f\n                /* \"#utility.yul\":21277:21283   */\n              dup3\n                /* \"#utility.yul\":21273:21290   */\n              and\n                /* \"#utility.yul\":21263:21290   */\n              swap2\n              pop\n                /* \"#utility.yul\":21219:21300   */\n            tag_501:\n                /* \"#utility.yul\":21347:21349   */\n              0x20\n                /* \"#utility.yul\":21339:21345   */\n              dup3\n                /* \"#utility.yul\":21336:21350   */\n              lt\n                /* \"#utility.yul\":21316:21334   */\n              dup2\n                /* \"#utility.yul\":21313:21351   */\n              sub\n                /* \"#utility.yul\":21310:21394   */\n              tag_502\n              jumpi\n                /* \"#utility.yul\":21366:21384   */\n              tag_503\n              tag_303\n              jump\t// in\n            tag_503:\n                /* \"#utility.yul\":21310:21394   */\n            tag_502:\n                /* \"#utility.yul\":21131:21400   */\n              pop\n                /* \"#utility.yul\":21080:21400   */\n              swap2\n              swap1\n              pop\n              jump\t// out\n                /* \"#utility.yul\":21406:21627   */\n            tag_304:\n                /* \"#utility.yul\":21546:21580   */\n              0x47656d65696e736368616674206d7573732061756667656c6f65737420736569\n                /* \"#utility.yul\":21542:21543   */\n              0x00\n                /* \"#utility.yul\":21534:21540   */\n              dup3\n                /* \"#utility.yul\":21530:21544   */\n              add\n                /* \"#utility.yul\":21523:21581   */\n              mstore\n                /* \"#utility.yul\":21615:21619   */\n              0x6e2e000000000000000000000000000000000000000000000000000000000000\n                /* \"#utility.yul\":21610:21612   */\n              0x20\n                /* \"#utility.yul\":21602:21608   */\n              dup3\n                /* \"#utility.yul\":21598:21613   */\n              add\n                /* \"#utility.yul\":21591:21620   */\n              mstore\n                /* \"#utility.yul\":21406:21627   */\n              pop\n              jump\t// out\n                /* \"#utility.yul\":21633:21999   */\n            tag_305:\n                /* \"#utility.yul\":21775:21778   */\n              0x00\n                /* \"#utility.yul\":21796:21863   */\n              tag_506\n                /* \"#utility.yul\":21860:21862   */\n              0x22\n                /* \"#utility.yul\":21855:21858   */\n              dup4\n                /* \"#utility.yul\":21796:21863   */\n              tag_268\n              jump\t// in\n            tag_506:\n                /* \"#utility.yul\":21789:21863   */\n              swap2\n              pop\n                /* \"#utility.yul\":21872:21965   */\n              tag_507\n                /* \"#utility.yul\":21961:21964   */\n              dup3\n                /* \"#utility.yul\":21872:21965   */\n              tag_304\n              jump\t// in\n            tag_507:\n                /* \"#utility.yul\":21990:21992   */\n              0x40\n                /* \"#utility.yul\":21985:21988   */\n              dup3\n                /* \"#utility.yul\":21981:21993   */\n              add\n                /* \"#utility.yul\":21974:21993   */\n              swap1\n              pop\n                /* \"#utility.yul\":21633:21999   */\n              swap2\n              swap1\n              pop\n              jump\t// out\n                /* \"#utility.yul\":22005:22424   */\n            tag_214:\n                /* \"#utility.yul\":22171:22175   */\n              0x00\n                /* \"#utility.yul\":22209:22211   */\n              0x20\n                /* \"#utility.yul\":22198:22207   */\n              dup3\n                /* \"#utility.yul\":22194:22212   */\n              add\n                /* \"#utility.yul\":22186:22212   */\n              swap1\n              pop\n                /* \"#utility.yul\":22258:22267   */\n              dup2\n                /* \"#utility.yul\":22252:22256   */\n              dup2\n                /* \"#utility.yul\":22248:22268   */\n              sub\n                /* \"#utility.yul\":22244:22245   */\n              0x00\n                /* \"#utility.yul\":22233:22242   */\n              dup4\n                /* \"#utility.yul\":22229:22246   */\n              add\n                /* \"#utility.yul\":22222:22269   */\n              mstore\n                /* \"#utility.yul\":22286:22417   */\n              tag_509\n                /* \"#utility.yul\":22412:22416   */\n              dup2\n                /* \"#utility.yul\":22286:22417   */\n              tag_305\n              jump\t// in\n            tag_509:\n                /* \"#utility.yul\":22278:22417   */\n              swap1\n              pop\n                /* \"#utility.yul\":22005:22424   */\n              swap2\n              swap1\n              pop\n              jump\t// out\n                /* \"#utility.yul\":22430:22654   */\n            tag_306:\n                /* \"#utility.yul\":22570:22604   */\n              0x45696e7361747a2077757264652062657265697473207a75727565636b67657a\n                /* \"#utility.yul\":22566:22567   */\n              0x00\n                /* \"#utility.yul\":22558:22564   */\n              dup3\n                /* \"#utility.yul\":22554:22568   */\n              add\n                /* \"#utility.yul\":22547:22605   */\n              mstore\n                /* \"#utility.yul\":22639:22646   */\n              0x61686c742e000000000000000000000000000000000000000000000000000000\n                /* \"#utility.yul\":22634:22636   */\n              0x20\n                /* \"#utility.yul\":22626:22632   */\n              dup3\n                /* \"#utility.yul\":22622:22637   */\n              add\n                /* \"#utility.yul\":22615:22647   */\n              mstore\n                /* \"#utility.yul\":22430:22654   */\n              pop\n              jump\t// out\n                /* \"#utility.yul\":22660:23026   */\n            tag_307:\n                /* \"#utility.yul\":22802:22805   */\n              0x00\n                /* \"#utility.yul\":22823:22890   */\n              tag_512\n                /* \"#utility.yul\":22887:22889   */\n              0x25\n                /* \"#utility.yul\":22882:22885   */\n              dup4\n                /* \"#utility.yul\":22823:22890   */\n              tag_268\n              jump\t// in\n            tag_512:\n                /* \"#utility.yul\":22816:22890   */\n              swap2\n              pop\n                /* \"#utility.yul\":22899:22992   */\n              tag_513\n                /* \"#utility.yul\":22988:22991   */\n              dup3\n                /* \"#utility.yul\":22899:22992   */\n              tag_306\n              jump\t// in\n            tag_513:\n                /* \"#utility.yul\":23017:23019   */\n              0x40\n                /* \"#utility.yul\":23012:23015   */\n              dup3\n                /* \"#utility.yul\":23008:23020   */\n              add\n                /* \"#utility.yul\":23001:23020   */\n              swap1\n              pop\n                /* \"#utility.yul\":22660:23026   */\n              swap2\n              swap1\n              pop\n              jump\t// out\n                /* \"#utility.yul\":23032:23451   */\n            tag_217:\n                /* \"#utility.yul\":23198:23202   */\n              0x00\n                /* \"#utility.yul\":23236:23238   */\n              0x20\n                /* \"#utility.yul\":23225:23234   */\n              dup3\n                /* \"#utility.yul\":23221:23239   */\n              add\n                /* \"#utility.yul\":23213:23239   */\n              swap1\n              pop\n                /* \"#utility.yul\":23285:23294   */\n              dup2\n                /* \"#utility.yul\":23279:23283   */\n              dup2\n                /* \"#utility.yul\":23275:23295   */\n              sub\n                /* \"#utility.yul\":23271:23272   */\n              0x00\n                /* \"#utility.yul\":23260:23269   */\n              dup4\n                /* \"#utility.yul\":23256:23273   */\n              add\n                /* \"#utility.yul\":23249:23296   */\n              mstore\n                /* \"#utility.yul\":23313:23444   */\n              tag_515\n                /* \"#utility.yul\":23439:23443   */\n              dup2\n                /* \"#utility.yul\":23313:23444   */\n              tag_307\n              jump\t// in\n            tag_515:\n                /* \"#utility.yul\":23305:23444   */\n              swap1\n              pop\n                /* \"#utility.yul\":23032:23451   */\n              swap2\n              swap1\n              pop\n              jump\t// out\n                /* \"#utility.yul\":23457:23604   */\n            tag_308:\n                /* \"#utility.yul\":23558:23569   */\n              0x00\n                /* \"#utility.yul\":23595:23598   */\n              dup2\n                /* \"#utility.yul\":23580:23598   */\n              swap1\n              pop\n                /* \"#utility.yul\":23457:23604   */\n              swap3\n              swap2\n              pop\n              pop\n              jump\t// out\n                /* \"#utility.yul\":23610:23724   */\n            tag_309:\n              pop\n              jump\t// out\n                /* \"#utility.yul\":23730:24128   */\n            tag_310:\n                /* \"#utility.yul\":23889:23892   */\n              0x00\n                /* \"#utility.yul\":23910:23993   */\n              tag_519\n                /* \"#utility.yul\":23991:23992   */\n              0x00\n                /* \"#utility.yul\":23986:23989   */\n              dup4\n                /* \"#utility.yul\":23910:23993   */\n              tag_308\n              jump\t// in\n            tag_519:\n                /* \"#utility.yul\":23903:23993   */\n              swap2\n              pop\n                /* \"#utility.yul\":24002:24095   */\n              tag_520\n                /* \"#utility.yul\":24091:24094   */\n              dup3\n                /* \"#utility.yul\":24002:24095   */\n              tag_309\n              jump\t// in\n            tag_520:\n                /* \"#utility.yul\":24120:24121   */\n              0x00\n                /* \"#utility.yul\":24115:24118   */\n              dup3\n                /* \"#utility.yul\":24111:24122   */\n              add\n                /* \"#utility.yul\":24104:24122   */\n              swap1\n              pop\n                /* \"#utility.yul\":23730:24128   */\n              swap2\n              swap1\n              pop\n              jump\t// out\n                /* \"#utility.yul\":24134:24513   */\n            tag_219:\n                /* \"#utility.yul\":24318:24321   */\n              0x00\n                /* \"#utility.yul\":24340:24487   */\n              tag_522\n                /* \"#utility.yul\":24483:24486   */\n              dup3\n                /* \"#utility.yul\":24340:24487   */\n              tag_310\n              jump\t// in\n            tag_522:\n                /* \"#utility.yul\":24333:24487   */\n              swap2\n              pop\n                /* \"#utility.yul\":24504:24507   */\n              dup2\n                /* \"#utility.yul\":24497:24507   */\n              swap1\n              pop\n                /* \"#utility.yul\":24134:24513   */\n              swap2\n              swap1\n              pop\n              jump\t// out\n                /* \"#utility.yul\":24519:24748   */\n            tag_311:\n                /* \"#utility.yul\":24659:24693   */\n              0x527565636b7a61686c756e67206465732045696e7361747a6573206665686c67\n                /* \"#utility.yul\":24655:24656   */\n              0x00\n                /* \"#utility.yul\":24647:24653   */\n              dup3\n                /* \"#utility.yul\":24643:24657   */\n              add\n                /* \"#utility.yul\":24636:24694   */\n              mstore\n                /* \"#utility.yul\":24728:24740   */\n              0x657363686c6167656e2e00000000000000000000000000000000000000000000\n                /* \"#utility.yul\":24723:24725   */\n              0x20\n                /* \"#utility.yul\":24715:24721   */\n              dup3\n                /* \"#utility.yul\":24711:24726   */\n              add\n                /* \"#utility.yul\":24704:24741   */\n              mstore\n                /* \"#utility.yul\":24519:24748   */\n              pop\n              jump\t// out\n                /* \"#utility.yul\":24754:25120   */\n            tag_312:\n                /* \"#utility.yul\":24896:24899   */\n              0x00\n                /* \"#utility.yul\":24917:24984   */\n              tag_525\n                /* \"#utility.yul\":24981:24983   */\n              0x2a\n                /* \"#utility.yul\":24976:24979   */\n              dup4\n                /* \"#utility.yul\":24917:24984   */\n              tag_268\n              jump\t// in\n            tag_525:\n                /* \"#utility.yul\":24910:24984   */\n              swap2\n              pop\n                /* \"#utility.yul\":24993:25086   */\n              tag_526\n                /* \"#utility.yul\":25082:25085   */\n              dup3\n                /* \"#utility.yul\":24993:25086   */\n              tag_311\n              jump\t// in\n            tag_526:\n                /* \"#utility.yul\":25111:25113   */\n              0x40\n                /* \"#utility.yul\":25106:25109   */\n              dup3\n                /* \"#utility.yul\":25102:25114   */\n              add\n                /* \"#utility.yul\":25095:25114   */\n              swap1\n              pop\n                /* \"#utility.yul\":24754:25120   */\n              swap2\n              swap1\n              pop\n              jump\t// out\n                /* \"#utility.yul\":25126:25545   */\n            tag_225:\n                /* \"#utility.yul\":25292:25296   */\n              0x00\n                /* \"#utility.yul\":25330:25332   */\n              0x20\n                /* \"#utility.yul\":25319:25328   */\n              dup3\n                /* \"#utility.yul\":25315:25333   */\n              add\n                /* \"#utility.yul\":25307:25333   */\n              swap1\n              pop\n                /* \"#utility.yul\":25379:25388   */\n              dup2\n                /* \"#utility.yul\":25373:25377   */\n              dup2\n                /* \"#utility.yul\":25369:25389   */\n              sub\n                /* \"#utility.yul\":25365:25366   */\n              0x00\n                /* \"#utility.yul\":25354:25363   */\n              dup4\n                /* \"#utility.yul\":25350:25367   */\n              add\n                /* \"#utility.yul\":25343:25390   */\n              mstore\n                /* \"#utility.yul\":25407:25538   */\n              tag_528\n                /* \"#utility.yul\":25533:25537   */\n              dup2\n                /* \"#utility.yul\":25407:25538   */\n              tag_312\n              jump\t// in\n            tag_528:\n                /* \"#utility.yul\":25399:25538   */\n              swap1\n              pop\n                /* \"#utility.yul\":25126:25545   */\n              swap2\n              swap1\n              pop\n              jump\t// out\n                /* \"#utility.yul\":25551:25772   */\n            tag_313:\n                /* \"#utility.yul\":25691:25725   */\n              0x476577696e6e206d757373206e6f63682061757367657a61686c742077657264\n                /* \"#utility.yul\":25687:25688   */\n              0x00\n                /* \"#utility.yul\":25679:25685   */\n              dup3\n                /* \"#utility.yul\":25675:25689   */\n              add\n                /* \"#utility.yul\":25668:25726   */\n              mstore\n                /* \"#utility.yul\":25760:25764   */\n              0x656e000000000000000000000000000000000000000000000000000000000000\n                /* \"#utility.yul\":25755:25757   */\n              0x20\n                /* \"#utility.yul\":25747:25753   */\n              dup3\n                /* \"#utility.yul\":25743:25758   */\n              add\n                /* \"#utility.yul\":25736:25765   */\n              mstore\n                /* \"#utility.yul\":25551:25772   */\n              pop\n              jump\t// out\n                /* \"#utility.yul\":25778:26144   */\n            tag_314:\n                /* \"#utility.yul\":25920:25923   */\n              0x00\n                /* \"#utility.yul\":25941:26008   */\n              tag_531\n                /* \"#utility.yul\":26005:26007   */\n              0x22\n                /* \"#utility.yul\":26000:26003   */\n              dup4\n                /* \"#utility.yul\":25941:26008   */\n              tag_268\n              jump\t// in\n            tag_531:\n                /* \"#utility.yul\":25934:26008   */\n              swap2\n              pop\n                /* \"#utility.yul\":26017:26110   */\n              tag_532\n                /* \"#utility.yul\":26106:26109   */\n              dup3\n                /* \"#utility.yul\":26017:26110   */\n              tag_313\n              jump\t// in\n            tag_532:\n                /* \"#utility.yul\":26135:26137   */\n              0x40\n                /* \"#utility.yul\":26130:26133   */\n              dup3\n                /* \"#utility.yul\":26126:26138   */\n              add\n                /* \"#utility.yul\":26119:26138   */\n              swap1\n              pop\n                /* \"#utility.yul\":25778:26144   */\n              swap2\n              swap1\n              pop\n              jump\t// out\n                /* \"#utility.yul\":26150:26569   */\n            tag_231:\n                /* \"#utility.yul\":26316:26320   */\n              0x00\n                /* \"#utility.yul\":26354:26356   */\n              0x20\n                /* \"#utility.yul\":26343:26352   */\n              dup3\n                /* \"#utility.yul\":26339:26357   */\n              add\n                /* \"#utility.yul\":26331:26357   */\n              swap1\n              pop\n                /* \"#utility.yul\":26403:26412   */\n              dup2\n                /* \"#utility.yul\":26397:26401   */\n              dup2\n                /* \"#utility.yul\":26393:26413   */\n              sub\n                /* \"#utility.yul\":26389:26390   */\n              0x00\n                /* \"#utility.yul\":26378:26387   */\n              dup4\n                /* \"#utility.yul\":26374:26391   */\n              add\n                /* \"#utility.yul\":26367:26414   */\n              mstore\n                /* \"#utility.yul\":26431:26562   */\n              tag_534\n                /* \"#utility.yul\":26557:26561   */\n              dup2\n                /* \"#utility.yul\":26431:26562   */\n              tag_314\n              jump\t// in\n            tag_534:\n                /* \"#utility.yul\":26423:26562   */\n              swap1\n              pop\n                /* \"#utility.yul\":26150:26569   */\n              swap2\n              swap1\n              pop\n              jump\t// out\n                /* \"#utility.yul\":26575:26756   */\n            tag_315:\n                /* \"#utility.yul\":26715:26748   */\n              0x47656d65696e73636861667420626572656974732061756667656c6f65737400\n                /* \"#utility.yul\":26711:26712   */\n              0x00\n                /* \"#utility.yul\":26703:26709   */\n              dup3\n                /* \"#utility.yul\":26699:26713   */\n              add\n                /* \"#utility.yul\":26692:26749   */\n              mstore\n                /* \"#utility.yul\":26575:26756   */\n              pop\n              jump\t// out\n                /* \"#utility.yul\":26762:27128   */\n            tag_316:\n                /* \"#utility.yul\":26904:26907   */\n              0x00\n                /* \"#utility.yul\":26925:26992   */\n              tag_537\n                /* \"#utility.yul\":26989:26991   */\n              0x1f\n                /* \"#utility.yul\":26984:26987   */\n              dup4\n                /* \"#utility.yul\":26925:26992   */\n              tag_268\n              jump\t// in\n            tag_537:\n                /* \"#utility.yul\":26918:26992   */\n              swap2\n              pop\n                /* \"#utility.yul\":27001:27094   */\n              tag_538\n                /* \"#utility.yul\":27090:27093   */\n              dup3\n                /* \"#utility.yul\":27001:27094   */\n              tag_315\n              jump\t// in\n            tag_538:\n                /* \"#utility.yul\":27119:27121   */\n              0x20\n                /* \"#utility.yul\":27114:27117   */\n              dup3\n                /* \"#utility.yul\":27110:27122   */\n              add\n                /* \"#utility.yul\":27103:27122   */\n              swap1\n              pop\n                /* \"#utility.yul\":26762:27128   */\n              swap2\n              swap1\n              pop\n              jump\t// out\n                /* \"#utility.yul\":27134:27553   */\n            tag_234:\n                /* \"#utility.yul\":27300:27304   */\n              0x00\n                /* \"#utility.yul\":27338:27340   */\n              0x20\n                /* \"#utility.yul\":27327:27336   */\n              dup3\n                /* \"#utility.yul\":27323:27341   */\n              add\n                /* \"#utility.yul\":27315:27341   */\n              swap1\n              pop\n                /* \"#utility.yul\":27387:27396   */\n              dup2\n                /* \"#utility.yul\":27381:27385   */\n              dup2\n                /* \"#utility.yul\":27377:27397   */\n              sub\n                /* \"#utility.yul\":27373:27374   */\n              0x00\n                /* \"#utility.yul\":27362:27371   */\n              dup4\n                /* \"#utility.yul\":27358:27375   */\n              add\n                /* \"#utility.yul\":27351:27398   */\n              mstore\n                /* \"#utility.yul\":27415:27546   */\n              tag_540\n                /* \"#utility.yul\":27541:27545   */\n              dup2\n                /* \"#utility.yul\":27415:27546   */\n              tag_316\n              jump\t// in\n            tag_540:\n                /* \"#utility.yul\":27407:27546   */\n              swap1\n              pop\n                /* \"#utility.yul\":27134:27553   */\n              swap2\n              swap1\n              pop\n              jump\t// out\n                /* \"#utility.yul\":27559:27867   */\n            tag_317:\n                /* \"#utility.yul\":27699:27733   */\n              0x457320676962742062657265697473204d6974737069656c65722e2041656e64\n                /* \"#utility.yul\":27695:27696   */\n              0x00\n                /* \"#utility.yul\":27687:27693   */\n              dup3\n                /* \"#utility.yul\":27683:27697   */\n              add\n                /* \"#utility.yul\":27676:27734   */\n              mstore\n                /* \"#utility.yul\":27768:27802   */\n              0x6572756e672064657220416e7a61686c20616e204d6974737069656c65726e20\n                /* \"#utility.yul\":27763:27765   */\n              0x20\n                /* \"#utility.yul\":27755:27761   */\n              dup3\n                /* \"#utility.yul\":27751:27766   */\n              add\n                /* \"#utility.yul\":27744:27803   */\n              mstore\n                /* \"#utility.yul\":27837:27859   */\n              0x6e69636874206d656872206d6f65676c6963682e000000000000000000000000\n                /* \"#utility.yul\":27832:27834   */\n              0x40\n                /* \"#utility.yul\":27824:27830   */\n              dup3\n                /* \"#utility.yul\":27820:27835   */\n              add\n                /* \"#utility.yul\":27813:27860   */\n              mstore\n                /* \"#utility.yul\":27559:27867   */\n              pop\n              jump\t// out\n                /* \"#utility.yul\":27873:28239   */\n            tag_318:\n                /* \"#utility.yul\":28015:28018   */\n              0x00\n                /* \"#utility.yul\":28036:28103   */\n              tag_543\n                /* \"#utility.yul\":28100:28102   */\n              0x54\n                /* \"#utility.yul\":28095:28098   */\n              dup4\n                /* \"#utility.yul\":28036:28103   */\n              tag_268\n              jump\t// in\n            tag_543:\n                /* \"#utility.yul\":28029:28103   */\n              swap2\n              pop\n                /* \"#utility.yul\":28112:28205   */\n              tag_544\n                /* \"#utility.yul\":28201:28204   */\n              dup3\n                /* \"#utility.yul\":28112:28205   */\n              tag_317\n              jump\t// in\n            tag_544:\n                /* \"#utility.yul\":28230:28232   */\n              0x60\n                /* \"#utility.yul\":28225:28228   */\n              dup3\n                /* \"#utility.yul\":28221:28233   */\n              add\n                /* \"#utility.yul\":28214:28233   */\n              swap1\n              pop\n                /* \"#utility.yul\":27873:28239   */\n              swap2\n              swap1\n              pop\n              jump\t// out\n                /* \"#utility.yul\":28245:28664   */\n            tag_245:\n                /* \"#utility.yul\":28411:28415   */\n              0x00\n                /* \"#utility.yul\":28449:28451   */\n              0x20\n                /* \"#utility.yul\":28438:28447   */\n              dup3\n                /* \"#utility.yul\":28434:28452   */\n              add\n                /* \"#utility.yul\":28426:28452   */\n              swap1\n              pop\n                /* \"#utility.yul\":28498:28507   */\n              dup2\n                /* \"#utility.yul\":28492:28496   */\n              dup2\n                /* \"#utility.yul\":28488:28508   */\n              sub\n                /* \"#utility.yul\":28484:28485   */\n              0x00\n                /* \"#utility.yul\":28473:28482   */\n              dup4\n                /* \"#utility.yul\":28469:28486   */\n              add\n                /* \"#utility.yul\":28462:28509   */\n              mstore\n                /* \"#utility.yul\":28526:28657   */\n              tag_546\n                /* \"#utility.yul\":28652:28656   */\n              dup2\n                /* \"#utility.yul\":28526:28657   */\n              tag_318\n              jump\t// in\n            tag_546:\n                /* \"#utility.yul\":28518:28657   */\n              swap1\n              pop\n                /* \"#utility.yul\":28245:28664   */\n              swap2\n              swap1\n              pop\n              jump\t// out\n\n            auxdata: 0xa26469706673582212205ae5177db7a5e07d7a75a0b4ab1ba6ddb39952e503b4efeafd9f59cb1507658564736f6c63430008170033\n        }\n    }\n\n    auxdata: 0xa264697066735822122092329328bc99e1deb0fde1f062ce09f73079fb4b5d13649ebf90940e47a459b064736f6c63430008170033\n}\n","bytecode":{"linkReferences":{},"object":"608060405234801561000f575f80fd5b506144b88061001d5f395ff3fe608060405234801562000010575f80fd5b506004361062000068575f3560e01c806333abbcbc146200006c578063535da87c146200008e57806395097fe114620000b0578063ad6eb6d914620000e6578063fb670056146200011c578063fde550441462000152575b5f80fd5b6200007662000172565b604051620000859190620008f2565b60405180910390f35b6200009862000250565b604051620000a7919062000a0d565b60405180910390f35b620000ce6004803603810190620000c8919062000b88565b620002dc565b604051620000dd919062000bfb565b60405180910390f35b620001046004803603810190620000fe919062000c4e565b62000324565b60405162000113919062000cce565b60405180910390f35b6200013a600480360381019062000134919062000c4e565b620003d3565b60405162000149919062000d01565b60405180910390f35b6200017060048036038101906200016a919062000dd0565b6200040e565b005b60606001805480602002602001604051908101604052809291908181526020015f905b8282101562000247578382905f5260205f20018054620001b59062000ebf565b80601f0160208091040260200160405190810160405280929190818152602001828054620001e39062000ebf565b8015620002325780601f10620002085761010080835404028352916020019162000232565b820191905f5260205f20905b8154815290600101906020018083116200021457829003601f168201915b50505050508152602001906001019062000195565b50505050905090565b60605f805480602002602001604051908101604052809291908181526020018280548015620002d257602002820191905f5260205f20905b815f9054906101000a900473ffffffffffffffffffffffffffffffffffffffff1673ffffffffffffffffffffffffffffffffffffffff168152602001906001019080831162000288575b5050505050905090565b6002818051602081018201805184825260208301602085012081835280955050505050505f915054906101000a900473ffffffffffffffffffffffffffffffffffffffff1681565b6001818154811062000334575f80fd5b905f5260205f20015f9150905080546200034e9062000ebf565b80601f01602080910402602001604051908101604052809291908181526020018280546200037c9062000ebf565b8015620003cb5780601f10620003a157610100808354040283529160200191620003cb565b820191905f5260205f20905b815481529060010190602001808311620003ad57829003601f168201915b505050505081565b5f8181548110620003e2575f80fd5b905f5260205f20015f915054906101000a900473ffffffffffffffffffffffffffffffffffffffff1681565b5f85511162000454576040517f08c379a00000000000000000000000000000000000000000000000000000000081526004016200044b9062000f41565b60405180910390fd5b601e8551106200049b576040517f08c379a0000000000000000000000000000000000000000000000000000000008152600401620004929062000faf565b60405180910390fd5b5f8461ffff1611620004e4576040517f08c379a0000000000000000000000000000000000000000000000000000000008152600401620004db906200101d565b60405180910390fd5b61ffff8461ffff16106200052f576040517f08c379a00000000000000000000000000000000000000000000000000000000081526004016200052690620010b1565b60405180910390fd5b5f8363ffffffff16116200057a576040517f08c379a000000000000000000000000000000000000000000000000000000000815260040162000571906200111f565b60405180910390fd5b63ffffffff8363ffffffff1610620005c9576040517f08c379a0000000000000000000000000000000000000000000000000000000008152600401620005c090620011b3565b60405180910390fd5b601082511462000610576040517f08c379a0000000000000000000000000000000000000000000000000000000008152600401620006079062001247565b60405180910390fd5b5f853386868686604051620006259062000787565b62000636969594939291906200129a565b604051809103905ff08015801562000650573d5f803e3d5ffd5b5090505f81908060018154018082558091505060019003905f5260205f20015f9091909190916101000a81548173ffffffffffffffffffffffffffffffffffffffff021916908373ffffffffffffffffffffffffffffffffffffffff160217905550600186908060018154018082558091505060019003905f5260205f20015f909190919091509081620006e59190620014d6565b5080600287604051620006f99190620015fa565b90815260200160405180910390205f6101000a81548173ffffffffffffffffffffffffffffffffffffffff021916908373ffffffffffffffffffffffffffffffffffffffff1602179055507f5f745e716eea01cc31d0e70c2af2ecc8792f321db40cbcd16b2c9d2ae97cb5f281876040516200077792919062001612565b60405180910390a1505050505050565b612e3e806200164583390190565b5f81519050919050565b5f82825260208201905092915050565b5f819050602082019050919050565b5f81519050919050565b5f82825260208201905092915050565b5f5b83811015620007f7578082015181840152602081019050620007da565b5f8484015250505050565b5f601f19601f8301169050919050565b5f6200081e82620007be565b6200082a8185620007c8565b93506200083c818560208601620007d8565b620008478162000802565b840191505092915050565b5f6200085f838362000812565b905092915050565b5f602082019050919050565b5f6200087f8262000795565b6200088b81856200079f565b9350836020820285016200089f85620007af565b805f5b85811015620008e05784840389528151620008be858262000852565b9450620008cb8362000867565b925060208a01995050600181019050620008a2565b50829750879550505050505092915050565b5f6020820190508181035f8301526200090c818462000873565b905092915050565b5f81519050919050565b5f82825260208201905092915050565b5f819050602082019050919050565b5f73ffffffffffffffffffffffffffffffffffffffff82169050919050565b5f62000968826200093d565b9050919050565b6200097a816200095c565b82525050565b5f6200098d83836200096f565b60208301905092915050565b5f602082019050919050565b5f620009b18262000914565b620009bd81856200091e565b9350620009ca836200092e565b805f5b8381101562000a00578151620009e4888262000980565b9750620009f18362000999565b925050600181019050620009cd565b5085935050505092915050565b5f6020820190508181035f83015262000a278184620009a5565b905092915050565b5f604051905090565b5f80fd5b5f80fd5b5f80fd5b5f80fd5b7f4e487b71000000000000000000000000000000000000000000000000000000005f52604160045260245ffd5b62000a808262000802565b810181811067ffffffffffffffff8211171562000aa25762000aa162000a48565b5b80604052505050565b5f62000ab662000a2f565b905062000ac4828262000a75565b919050565b5f67ffffffffffffffff82111562000ae65762000ae562000a48565b5b62000af18262000802565b9050602081019050919050565b828183375f83830152505050565b5f62000b2262000b1c8462000ac9565b62000aab565b90508281526020810184848401111562000b415762000b4062000a44565b5b62000b4e84828562000afe565b509392505050565b5f82601f83011262000b6d5762000b6c62000a40565b5b813562000b7f84826020860162000b0c565b91505092915050565b5f6020828403121562000ba05762000b9f62000a38565b5b5f82013567ffffffffffffffff81111562000bc05762000bbf62000a3c565b5b62000bce8482850162000b56565b91505092915050565b5f62000be3826200093d565b9050919050565b62000bf58162000bd7565b82525050565b5f60208201905062000c105f83018462000bea565b92915050565b5f819050919050565b62000c2a8162000c16565b811462000c35575f80fd5b50565b5f8135905062000c488162000c1f565b92915050565b5f6020828403121562000c665762000c6562000a38565b5b5f62000c758482850162000c38565b91505092915050565b5f82825260208201905092915050565b5f62000c9a82620007be565b62000ca6818562000c7e565b935062000cb8818560208601620007d8565b62000cc38162000802565b840191505092915050565b5f6020820190508181035f83015262000ce8818462000c8e565b905092915050565b62000cfb816200095c565b82525050565b5f60208201905062000d165f83018462000cf0565b92915050565b5f61ffff82169050919050565b62000d348162000d1c565b811462000d3f575f80fd5b50565b5f8135905062000d528162000d29565b92915050565b5f63ffffffff82169050919050565b62000d728162000d58565b811462000d7d575f80fd5b50565b5f8135905062000d908162000d67565b92915050565b5f8115159050919050565b62000dac8162000d96565b811462000db7575f80fd5b50565b5f8135905062000dca8162000da1565b92915050565b5f805f805f60a0868803121562000dec5762000deb62000a38565b5b5f86013567ffffffffffffffff81111562000e0c5762000e0b62000a3c565b5b62000e1a8882890162000b56565b955050602062000e2d8882890162000d42565b945050604062000e408882890162000d80565b935050606086013567ffffffffffffffff81111562000e645762000e6362000a3c565b5b62000e728882890162000b56565b925050608062000e858882890162000dba565b9150509295509295909350565b7f4e487b71000000000000000000000000000000000000000000000000000000005f52602260045260245ffd5b5f600282049050600182168062000ed757607f821691505b60208210810362000eed5762000eec62000e92565b5b50919050565b7f4e616d652064617266206e69636874206c656572207365696e000000000000005f82015250565b5f62000f2960198362000c7e565b915062000f368262000ef3565b602082019050919050565b5f6020820190508181035f83015262000f5a8162000f1b565b9050919050565b7f4d6178696d616c203330205a65696368656e00000000000000000000000000005f82015250565b5f62000f9760128362000c7e565b915062000fa48262000f61565b602082019050919050565b5f6020820190508181035f83015262000fc88162000f89565b9050919050565b7f416e7a61686c206d7573732067726f657373657220616c732030207365696e005f82015250565b5f62001005601f8362000c7e565b9150620010128262000fcf565b602082019050919050565b5f6020820190508181035f830152620010368162000ff7565b9050919050565b7f416e7a61686c206d757373206b6c65696e657220616c732036353533352073655f8201527f696e000000000000000000000000000000000000000000000000000000000000602082015250565b5f6200109960228362000c7e565b9150620010a6826200103d565b604082019050919050565b5f6020820190508181035f830152620010ca816200108b565b9050919050565b7f5072656973206d7573732067726f657373657220616c732030207365696e00005f82015250565b5f62001107601e8362000c7e565b91506200111482620010d1565b602082019050919050565b5f6020820190508181035f8301526200113881620010f9565b9050919050565b7f5072656973206d757373206b6c65696e657220616c73203432393439363732395f8201527f35207365696e0000000000000000000000000000000000000000000000000000602082015250565b5f6200119b60268362000c7e565b9150620011a8826200113f565b604082019050919050565b5f6020820190508181035f830152620011cc816200118d565b9050919050565b7f53636865696e4e756d6d6572206d757373203136205a69666665726e206861625f8201527f656e000000000000000000000000000000000000000000000000000000000000602082015250565b5f6200122f60228362000c7e565b91506200123c82620011d3565b604082019050919050565b5f6020820190508181035f830152620012608162001221565b9050919050565b620012728162000d1c565b82525050565b620012838162000d58565b82525050565b620012948162000d96565b82525050565b5f60c0820190508181035f830152620012b4818962000c8e565b9050620012c5602083018862000bea565b620012d4604083018762001267565b620012e3606083018662001278565b8181036080830152620012f7818562000c8e565b90506200130860a083018462001289565b979650505050505050565b5f819050815f5260205f209050919050565b5f6020601f8301049050919050565b5f82821b905092915050565b5f60088302620013717fffffffffffffffffffffffffffffffffffffffffffffffffffffffffffffffff8262001334565b6200137d868362001334565b95508019841693508086168417925050509392505050565b5f819050919050565b5f620013be620013b8620013b28462000c16565b62001395565b62000c16565b9050919050565b5f819050919050565b620013d9836200139e565b620013f1620013e882620013c5565b84845462001340565b825550505050565b5f90565b62001407620013f9565b62001414818484620013ce565b505050565b5b818110156200143b576200142f5f82620013fd565b6001810190506200141a565b5050565b601f8211156200148a57620014548162001313565b6200145f8462001325565b810160208510156200146f578190505b620014876200147e8562001325565b83018262001419565b50505b505050565b5f82821c905092915050565b5f620014ac5f19846008026200148f565b1980831691505092915050565b5f620014c683836200149b565b9150826002028217905092915050565b620014e182620007be565b67ffffffffffffffff811115620014fd57620014fc62000a48565b5b62001509825462000ebf565b620015168282856200143f565b5f60209050601f8311600181146200154c575f841562001537578287015190505b620015438582620014b9565b865550620015b2565b601f1984166200155c8662001313565b5f5b8281101562001585578489015182556001820191506020850194506020810190506200155e565b86831015620015a55784890151620015a1601f8916826200149b565b8355505b6001600288020188555050505b505050505050565b5f81905092915050565b5f620015d082620007be565b620015dc8185620015ba565b9350620015ee818560208601620007d8565b80840191505092915050565b5f620016078284620015c4565b915081905092915050565b5f604082019050620016275f83018562000bea565b81810360208301526200163b818462000c8e565b9050939250505056fe60806040525f6009555f600a5f6101000a81548160ff0219169083151502179055505f600a60016101000a81548160ff02191690831515021790555034801562000047575f80fd5b5060405162002e3e38038062002e3e83398181016040528101906200006d9190620004e7565b61ffff8461ffff1610620000b8576040517f08c379a0000000000000000000000000000000000000000000000000000000008152600401620000af906200061b565b60405180910390fd5b63ffffffff8363ffffffff161062000107576040517f08c379a0000000000000000000000000000000000000000000000000000000008152600401620000fe9062000689565b60405180910390fd5b845f806101000a81548173ffffffffffffffffffffffffffffffffffffffff021916908373ffffffffffffffffffffffffffffffffffffffff1602179055508560019081620001579190620008e0565b508360025f6101000a81548161ffff021916908361ffff160217905550826002806101000a81548163ffffffff021916908363ffffffff16021790555080600a60016101000a81548160ff0219169083151502179055508160039081620001bf9190620008e0565b50670de0b6b3a764000060025f9054906101000a900461ffff1661ffff16670de0b6b3a764000060028054906101000a900463ffffffff1663ffffffff16620002099190620009f1565b62000215919062000a68565b62000221919062000a68565b600260066101000a81548163ffffffff021916908363ffffffff16021790555050505050505062000a9f565b5f604051905090565b5f80fd5b5f80fd5b5f80fd5b5f80fd5b5f601f19601f8301169050919050565b7f4e487b71000000000000000000000000000000000000000000000000000000005f52604160045260245ffd5b620002ae8262000266565b810181811067ffffffffffffffff82111715620002d057620002cf62000276565b5b80604052505050565b5f620002e46200024d565b9050620002f28282620002a3565b919050565b5f67ffffffffffffffff82111562000314576200031362000276565b5b6200031f8262000266565b9050602081019050919050565b5f5b838110156200034b5780820151818401526020810190506200032e565b5f8484015250505050565b5f6200036c6200036684620002f7565b620002d9565b9050828152602081018484840111156200038b576200038a62000262565b5b620003988482856200032c565b509392505050565b5f82601f830112620003b757620003b66200025e565b5b8151620003c984826020860162000356565b91505092915050565b5f73ffffffffffffffffffffffffffffffffffffffff82169050919050565b5f620003fd82620003d2565b9050919050565b6200040f81620003f1565b81146200041a575f80fd5b50565b5f815190506200042d8162000404565b92915050565b5f61ffff82169050919050565b6200044b8162000433565b811462000456575f80fd5b50565b5f81519050620004698162000440565b92915050565b5f63ffffffff82169050919050565b62000489816200046f565b811462000494575f80fd5b50565b5f81519050620004a7816200047e565b92915050565b5f8115159050919050565b620004c381620004ad565b8114620004ce575f80fd5b50565b5f81519050620004e181620004b8565b92915050565b5f805f805f8060c0878903121562000504576200050362000256565b5b5f87015167ffffffffffffffff8111156200052457620005236200025a565b5b6200053289828a01620003a0565b96505060206200054589828a016200041d565b95505060406200055889828a0162000459565b94505060606200056b89828a0162000497565b935050608087015167ffffffffffffffff8111156200058f576200058e6200025a565b5b6200059d89828a01620003a0565b92505060a0620005b089828a01620004d1565b9150509295509295509295565b5f82825260208201905092915050565b7f4d6178696d616c203635353334204d6974737069656c65722065726c617562745f82015250565b5f62000603602083620005bd565b91506200061082620005cd565b602082019050919050565b5f6020820190508181035f8301526200063481620005f5565b9050919050565b7f4d6178696d616c657220507265697320343239343936373239350000000000005f82015250565b5f62000671601a83620005bd565b91506200067e826200063b565b602082019050919050565b5f6020820190508181035f830152620006a28162000663565b9050919050565b5f81519050919050565b7f4e487b71000000000000000000000000000000000000000000000000000000005f52602260045260245ffd5b5f6002820490506001821680620006f857607f821691505b6020821081036200070e576200070d620006b3565b5b50919050565b5f819050815f5260205f209050919050565b5f6020601f8301049050919050565b5f82821b905092915050565b5f60088302620007727fffffffffffffffffffffffffffffffffffffffffffffffffffffffffffffffff8262000735565b6200077e868362000735565b95508019841693508086168417925050509392505050565b5f819050919050565b5f819050919050565b5f620007c8620007c2620007bc8462000796565b6200079f565b62000796565b9050919050565b5f819050919050565b620007e383620007a8565b620007fb620007f282620007cf565b84845462000741565b825550505050565b5f90565b6200081162000803565b6200081e818484620007d8565b505050565b5b818110156200084557620008395f8262000807565b60018101905062000824565b5050565b601f82111562000894576200085e8162000714565b620008698462000726565b8101602085101562000879578190505b62000891620008888562000726565b83018262000823565b50505b505050565b5f82821c905092915050565b5f620008b65f198460080262000899565b1980831691505092915050565b5f620008d08383620008a5565b9150826002028217905092915050565b620008eb82620006a9565b67ffffffffffffffff81111562000907576200090662000276565b5b620009138254620006e0565b6200092082828562000849565b5f60209050601f83116001811462000956575f841562000941578287015190505b6200094d8582620008c3565b865550620009bc565b601f198416620009668662000714565b5f5b828110156200098f5784890151825560018201915060208501945060208101905062000968565b86831015620009af5784890151620009ab601f891682620008a5565b8355505b6001600288020188555050505b505050505050565b7f4e487b71000000000000000000000000000000000000000000000000000000005f52601160045260245ffd5b5f620009fd8262000796565b915062000a0a8362000796565b925082820262000a1a8162000796565b9150828204841483151762000a345762000a33620009c4565b5b5092915050565b7f4e487b71000000000000000000000000000000000000000000000000000000005f52601260045260245ffd5b5f62000a748262000796565b915062000a818362000796565b92508262000a945762000a9362000a3b565b5b828204905092915050565b6123918062000aad5f395ff3fe60806040526004361061014a575f3560e01c8063833e92cb116100b5578063b08c70761161006e578063b08c7076146103f8578063bb68a67f14610422578063d27d06c01461045e578063e068561a14610488578063e34ad1d7146104b0578063e86c5692146104da5761014a565b8063833e92cb146103265780638acb46241461033c5780639124323914610366578063a299f171146103a2578063ab76211e146103b8578063ad2c046c146103ce5761014a565b80633692706011610107578063369270601461023a5780633babb15a146102765780633f0f5d51146102a057806343767832146102ca578063526024ea146102f257806370a41bc0146102fc5761014a565b8063084263f51461014e5780630f085e50146101785780632340983f146101a25780632df368a5146101cc578063311e73da146101f657806331c4512014610212575b5f80fd5b348015610159575f80fd5b50610162610516565b60405161016f9190611514565b60405180910390f35b348015610183575f80fd5b5061018c61052d565b6040516101999190611545565b60405180910390f35b3480156101ad575f80fd5b506101b6610533565b6040516101c39190611578565b60405180910390f35b3480156101d7575f80fd5b506101e0610545565b6040516101ed91906115af565b60405180910390f35b610210600480360381019061020b91906115f6565b61055b565b005b34801561021d575f80fd5b506102386004803603810190610233919061164b565b610679565b005b348015610245575f80fd5b50610260600480360381019061025b91906116d0565b610747565b60405161026d9190611578565b60405180910390f35b348015610281575f80fd5b5061028a610764565b6040516102979190611717565b60405180910390f35b3480156102ab575f80fd5b506102b4610777565b6040516102c191906115af565b60405180910390f35b3480156102d5575f80fd5b506102f060048036038101906102eb91906116d0565b61078b565b005b6102fa61088e565b005b348015610307575f80fd5b50610310610be7565b60405161031d9190611717565b60405180910390f35b348015610331575f80fd5b5061033a610bfa565b005b348015610347575f80fd5b50610350610e8c565b60405161035d91906117ba565b60405180910390f35b348015610371575f80fd5b5061038c600480360381019061038791906116d0565b610f18565b6040516103999190611578565b60405180910390f35b3480156103ad575f80fd5b506103b6610f35565b005b3480156103c3575f80fd5b506103cc6111ff565b005b3480156103d9575f80fd5b506103e261131b565b6040516103ef91906117e9565b60405180910390f35b348015610403575f80fd5b5061040c61133e565b6040516104199190611578565b60405180910390f35b34801561042d575f80fd5b50610448600480360381019061044391906116d0565b611351565b6040516104559190611578565b60405180910390f35b348015610469575f80fd5b5061047261136e565b60405161047f91906117ba565b60405180910390f35b348015610493575f80fd5b506104ae60048036038101906104a9919061182c565b6113fa565b005b3480156104bb575f80fd5b506104c46114c4565b6040516104d19190611578565b60405180910390f35b3480156104e5575f80fd5b5061050060048036038101906104fb91906116d0565b6114d7565b60405161050d9190611578565b60405180910390f35b60045f9054906101000a900465ffffffffffff1681565b60095481565b600a5f9054906101000a900460ff1681565b600260069054906101000a900463ffffffff1681565b5f8054906101000a900473ffffffffffffffffffffffffffffffffffffffff1673ffffffffffffffffffffffffffffffffffffffff163373ffffffffffffffffffffffffffffffffffffffff16146105b1575f80fd5b5f34116105f3576040517f08c379a00000000000000000000000000000000000000000000000000000000081526004016105ea906118c7565b60405180910390fd5b5f60095414610637576040517f08c379a000000000000000000000000000000000000000000000000000000000815260040161062e9061192f565b60405180910390fd5b60085f9054906101000a900461ffff1661ffff168161065691906119a7565b6009819055506001600a5f6101000a81548160ff02191690831515021790555050565b5f8054906101000a900473ffffffffffffffffffffffffffffffffffffffff1673ffffffffffffffffffffffffffffffffffffffff163373ffffffffffffffffffffffffffffffffffffffff16146106cf575f80fd5b5f60085f9054906101000a900461ffff1661ffff1614610724576040517f08c379a000000000000000000000000000000000000000000000000000000000815260040161071b90611a47565b60405180910390fd5b806002806101000a81548163ffffffff021916908363ffffffff16021790555050565b6005602052805f5260405f205f915054906101000a900460ff1681565b60085f9054906101000a900461ffff1681565b60028054906101000a900463ffffffff1681565b5f8054906101000a900473ffffffffffffffffffffffffffffffffffffffff1673ffffffffffffffffffffffffffffffffffffffff163373ffffffffffffffffffffffffffffffffffffffff16146107e1575f80fd5b5f60085f9054906101000a900461ffff1661ffff1614610836576040517f08c379a000000000000000000000000000000000000000000000000000000000815260040161082d90611ad5565b60405180910390fd5b6001600b5f8373ffffffffffffffffffffffffffffffffffffffff1673ffffffffffffffffffffffffffffffffffffffff1681526020019081526020015f205f6101000a81548160ff02191690831515021790555050565b5f600260069054906101000a900463ffffffff1663ffffffff16116108e8576040517f08c379a00000000000000000000000000000000000000000000000000000000081526004016108df90611b3d565b60405180910390fd5b600260069054906101000a900463ffffffff1663ffffffff16341015610943576040517f08c379a000000000000000000000000000000000000000000000000000000000815260040161093a90611ba5565b60405180910390fd5b60055f3373ffffffffffffffffffffffffffffffffffffffff1673ffffffffffffffffffffffffffffffffffffffff1681526020019081526020015f205f9054906101000a900460ff16156109cd576040517f08c379a00000000000000000000000000000000000000000000000000000000081526004016109c490611c33565b60405180910390fd5b60025f9054906101000a900461ffff1661ffff1660085f9054906101000a900461ffff1661ffff1610610a35576040517f08c379a0000000000000000000000000000000000000000000000000000000008152600401610a2c90611c9b565b60405180910390fd5b5f60095414610a79576040517f08c379a0000000000000000000000000000000000000000000000000000000008152600401610a7090611d03565b60405180910390fd5b600a60019054906101000a900460ff1615610ae157600b5f3373ffffffffffffffffffffffffffffffffffffffff1673ffffffffffffffffffffffffffffffffffffffff1681526020019081526020015f205f9054906101000a900460ff16610ae0575f80fd5b5b5f600260069054906101000a900463ffffffff1663ffffffff1634610b069190611d21565b9050600160055f3373ffffffffffffffffffffffffffffffffffffffff1673ffffffffffffffffffffffffffffffffffffffff1681526020019081526020015f205f6101000a81548160ff02191690831515021790555060085f81819054906101000a900461ffff1680929190610b7c90611d54565b91906101000a81548161ffff021916908361ffff160217905550505f811115610be4573373ffffffffffffffffffffffffffffffffffffffff166108fc8290811502906040515f60405180830381858888f19350505050158015610be2573d5f803e3d5ffd5b505b50565b60025f9054906101000a900461ffff1681565b60055f3373ffffffffffffffffffffffffffffffffffffffff1673ffffffffffffffffffffffffffffffffffffffff1681526020019081526020015f205f9054906101000a900460ff16610c4c575f80fd5b600c5f9054906101000a900460ff1615610c9b576040517f08c379a0000000000000000000000000000000000000000000000000000000008152600401610c9290611dc7565b60405180910390fd5b6001600c5f6101000a81548160ff021916908315150217905550600a5f9054906101000a900460ff16610d03576040517f08c379a0000000000000000000000000000000000000000000000000000000008152600401610cfa90611e55565b60405180910390fd5b5f60095411610d47576040517f08c379a0000000000000000000000000000000000000000000000000000000008152600401610d3e90611ee3565b60405180910390fd5b60065f3373ffffffffffffffffffffffffffffffffffffffff1673ffffffffffffffffffffffffffffffffffffffff1681526020019081526020015f205f9054906101000a900460ff1615610dd1576040517f08c379a0000000000000000000000000000000000000000000000000000000008152600401610dc890611f4b565b60405180910390fd5b600160065f3373ffffffffffffffffffffffffffffffffffffffff1673ffffffffffffffffffffffffffffffffffffffff1681526020019081526020015f205f6101000a81548160ff0219169083151502179055505f60095490503373ffffffffffffffffffffffffffffffffffffffff166108fc8290811502906040515f60405180830381858888f19350505050158015610e6f573d5f803e3d5ffd5b50505f600c5f6101000a81548160ff021916908315150217905550565b60038054610e9990611f96565b80601f0160208091040260200160405190810160405280929190818152602001828054610ec590611f96565b8015610f105780601f10610ee757610100808354040283529160200191610f10565b820191905f5260205f20905b815481529060010190602001808311610ef357829003601f168201915b505050505081565b6006602052805f5260405f205f915054906101000a900460ff1681565b60055f3373ffffffffffffffffffffffffffffffffffffffff1673ffffffffffffffffffffffffffffffffffffffff1681526020019081526020015f205f9054906101000a900460ff16610f87575f80fd5b600c5f9054906101000a900460ff1615610fd6576040517f08c379a0000000000000000000000000000000000000000000000000000000008152600401610fcd90611dc7565b60405180910390fd5b6001600c5f6101000a81548160ff021916908315150217905550600c60019054906101000a900460ff1661103f576040517f08c379a000000000000000000000000000000000000000000000000000000000815260040161103690612036565b60405180910390fd5b60075f3373ffffffffffffffffffffffffffffffffffffffff1673ffffffffffffffffffffffffffffffffffffffff1681526020019081526020015f205f9054906101000a900460ff16156110c9576040517f08c379a00000000000000000000000000000000000000000000000000000000081526004016110c0906120c4565b60405180910390fd5b600160075f3373ffffffffffffffffffffffffffffffffffffffff1673ffffffffffffffffffffffffffffffffffffffff1681526020019081526020015f205f6101000a81548160ff0219169083151502179055505f600260069054906101000a900463ffffffff1663ffffffff1690505f3373ffffffffffffffffffffffffffffffffffffffff168260405161115f9061210f565b5f6040518083038185875af1925050503d805f8114611199576040519150601f19603f3d011682016040523d82523d5f602084013e61119e565b606091505b50509050806111e2576040517f08c379a00000000000000000000000000000000000000000000000000000000081526004016111d990612193565b60405180910390fd5b50505f600c5f6101000a81548160ff021916908315150217905550565b5f8054906101000a900473ffffffffffffffffffffffffffffffffffffffff1673ffffffffffffffffffffffffffffffffffffffff163373ffffffffffffffffffffffffffffffffffffffff1614611255575f80fd5b5f1515600a5f9054906101000a900460ff161515146112a9576040517f08c379a00000000000000000000000000000000000000000000000000000000081526004016112a090612221565b60405180910390fd5b5f1515600c60019054906101000a900460ff161515146112fe576040517f08c379a00000000000000000000000000000000000000000000000000000000081526004016112f590612289565b60405180910390fd5b6001600c60016101000a81548160ff021916908315150217905550565b5f8054906101000a900473ffffffffffffffffffffffffffffffffffffffff1681565b600a60019054906101000a900460ff1681565b6007602052805f5260405f205f915054906101000a900460ff1681565b6001805461137b90611f96565b80601f01602080910402602001604051908101604052809291908181526020018280546113a790611f96565b80156113f25780601f106113c9576101008083540402835291602001916113f2565b820191905f5260205f20905b8154815290600101906020018083116113d557829003601f168201915b505050505081565b5f8054906101000a900473ffffffffffffffffffffffffffffffffffffffff1673ffffffffffffffffffffffffffffffffffffffff163373ffffffffffffffffffffffffffffffffffffffff1614611450575f80fd5b5f60085f9054906101000a900461ffff1661ffff16146114a5576040517f08c379a000000000000000000000000000000000000000000000000000000000815260040161149c9061233d565b60405180910390fd5b8060025f6101000a81548161ffff021916908361ffff16021790555050565b600c60019054906101000a900460ff1681565b600b602052805f5260405f205f915054906101000a900460ff1681565b5f65ffffffffffff82169050919050565b61150e816114f4565b82525050565b5f6020820190506115275f830184611505565b92915050565b5f819050919050565b61153f8161152d565b82525050565b5f6020820190506115585f830184611536565b92915050565b5f8115159050919050565b6115728161155e565b82525050565b5f60208201905061158b5f830184611569565b92915050565b5f63ffffffff82169050919050565b6115a981611591565b82525050565b5f6020820190506115c25f8301846115a0565b92915050565b5f80fd5b6115d58161152d565b81146115df575f80fd5b50565b5f813590506115f0816115cc565b92915050565b5f6020828403121561160b5761160a6115c8565b5b5f611618848285016115e2565b91505092915050565b61162a81611591565b8114611634575f80fd5b50565b5f8135905061164581611621565b92915050565b5f602082840312156116605761165f6115c8565b5b5f61166d84828501611637565b91505092915050565b5f73ffffffffffffffffffffffffffffffffffffffff82169050919050565b5f61169f82611676565b9050919050565b6116af81611695565b81146116b9575f80fd5b50565b5f813590506116ca816116a6565b92915050565b5f602082840312156116e5576116e46115c8565b5b5f6116f2848285016116bc565b91505092915050565b5f61ffff82169050919050565b611711816116fb565b82525050565b5f60208201905061172a5f830184611708565b92915050565b5f81519050919050565b5f82825260208201905092915050565b5f5b8381101561176757808201518184015260208101905061174c565b5f8484015250505050565b5f601f19601f8301169050919050565b5f61178c82611730565b611796818561173a565b93506117a681856020860161174a565b6117af81611772565b840191505092915050565b5f6020820190508181035f8301526117d28184611782565b905092915050565b6117e381611695565b82525050565b5f6020820190506117fc5f8301846117da565b92915050565b61180b816116fb565b8114611815575f80fd5b50565b5f8135905061182681611802565b92915050565b5f60208284031215611841576118406115c8565b5b5f61184e84828501611818565b91505092915050565b7f45696e7a61686c756e6773626574726167206d7573732067726f6573736572205f8201527f616c732030207365696e00000000000000000000000000000000000000000000602082015250565b5f6118b1602a8361173a565b91506118bc82611857565b604082019050919050565b5f6020820190508181035f8301526118de816118a5565b9050919050565b7f476577696e6e20777572646520626572656974732065696e67657a61686c742e5f82015250565b5f61191960208361173a565b9150611924826118e5565b602082019050919050565b5f6020820190508181035f8301526119468161190d565b9050919050565b7f4e487b71000000000000000000000000000000000000000000000000000000005f52601260045260245ffd5b7f4e487b71000000000000000000000000000000000000000000000000000000005f52601160045260245ffd5b5f6119b18261152d565b91506119bc8361152d565b9250826119cc576119cb61194d565b5b828204905092915050565b7f457320676962742062657265697473204d6974737069656c65722e20507265695f8201527f7361656e646572756e67206e69636874206d656872206d6f65676c6963682e00602082015250565b5f611a31603f8361173a565b9150611a3c826119d7565b604082019050919050565b5f6020820190508181035f830152611a5e81611a25565b9050919050565b7f457320676962742062657265697473204d6974737069656c65722e2041656e645f8201527f6572756e67206e69636874206d656872206d6f65676c6963682e000000000000602082015250565b5f611abf603a8361173a565b9150611aca82611a65565b604082019050919050565b5f6020820190508181035f830152611aec81611ab3565b9050919050565b7f4b65696e2050726569732070726f204d6974737069656c6572000000000000005f82015250565b5f611b2760198361173a565b9150611b3282611af3565b602082019050919050565b5f6020820190508181035f830152611b5481611b1b565b9050919050565b7f5a7520676572696e6765722045696e7a61686c756e67736265747261670000005f82015250565b5f611b8f601d8361173a565b9150611b9a82611b5b565b602082019050919050565b5f6020820190508181035f830152611bbc81611b83565b9050919050565b7f4265726569747320616c73204d6974737069656c6572207265676973747269655f8201527f7274000000000000000000000000000000000000000000000000000000000000602082015250565b5f611c1d60228361173a565b9150611c2882611bc3565b604082019050919050565b5f6020820190508181035f830152611c4a81611c11565b9050919050565b7f4d6178696d616c65205465696c6e65686d65727a61686c2065727265696368745f82015250565b5f611c8560208361173a565b9150611c9082611c51565b602082019050919050565b5f6020820190508181035f830152611cb281611c79565b9050919050565b7f476577696e6e20777572646520626572656974732065696e67657a61686c74005f82015250565b5f611ced601f8361173a565b9150611cf882611cb9565b602082019050919050565b5f6020820190508181035f830152611d1a81611ce1565b9050919050565b5f611d2b8261152d565b9150611d368361152d565b9250828203905081811115611d4e57611d4d61197a565b5b92915050565b5f611d5e826116fb565b915061ffff8203611d7257611d7161197a565b5b600182019050919050565b7f4e6f2072652d656e7472616e63790000000000000000000000000000000000005f82015250565b5f611db1600e8361173a565b9150611dbc82611d7d565b602082019050919050565b5f6020820190508181035f830152611dde81611da5565b9050919050565b7f476577696e6e206b616e6e206e6f6368206e696368742061626765686f6c74205f8201527f77657264656e2e00000000000000000000000000000000000000000000000000602082015250565b5f611e3f60278361173a565b9150611e4a82611de5565b604082019050919050565b5f6020820190508181035f830152611e6c81611e33565b9050919050565b7f4b65696e20476577696e6e207a7572204175737a61686c756e672076657266755f8201527f65676261722e0000000000000000000000000000000000000000000000000000602082015250565b5f611ecd60268361173a565b9150611ed882611e73565b604082019050919050565b5f6020820190508181035f830152611efa81611ec1565b9050919050565b7f476577696e6e20777572646520626572656974732061626765686f6c742e00005f82015250565b5f611f35601e8361173a565b9150611f4082611f01565b602082019050919050565b5f6020820190508181035f830152611f6281611f29565b9050919050565b7f4e487b71000000000000000000000000000000000000000000000000000000005f52602260045260245ffd5b5f6002820490506001821680611fad57607f821691505b602082108103611fc057611fbf611f69565b5b50919050565b7f47656d65696e736368616674206d7573732061756667656c6f657374207365695f8201527f6e2e000000000000000000000000000000000000000000000000000000000000602082015250565b5f61202060228361173a565b915061202b82611fc6565b604082019050919050565b5f6020820190508181035f83015261204d81612014565b9050919050565b7f45696e7361747a2077757264652062657265697473207a75727565636b67657a5f8201527f61686c742e000000000000000000000000000000000000000000000000000000602082015250565b5f6120ae60258361173a565b91506120b982612054565b604082019050919050565b5f6020820190508181035f8301526120db816120a2565b9050919050565b5f81905092915050565b50565b5f6120fa5f836120e2565b9150612105826120ec565b5f82019050919050565b5f612119826120ef565b9150819050919050565b7f527565636b7a61686c756e67206465732045696e7361747a6573206665686c675f8201527f657363686c6167656e2e00000000000000000000000000000000000000000000602082015250565b5f61217d602a8361173a565b915061218882612123565b604082019050919050565b5f6020820190508181035f8301526121aa81612171565b9050919050565b7f476577696e6e206d757373206e6f63682061757367657a61686c7420776572645f8201527f656e000000000000000000000000000000000000000000000000000000000000602082015250565b5f61220b60228361173a565b9150612216826121b1565b604082019050919050565b5f6020820190508181035f830152612238816121ff565b9050919050565b7f47656d65696e73636861667420626572656974732061756667656c6f657374005f82015250565b5f612273601f8361173a565b915061227e8261223f565b602082019050919050565b5f6020820190508181035f8301526122a081612267565b9050919050565b7f457320676962742062657265697473204d6974737069656c65722e2041656e645f8201527f6572756e672064657220416e7a61686c20616e204d6974737069656c65726e2060208201527f6e69636874206d656872206d6f65676c6963682e000000000000000000000000604082015250565b5f61232760548361173a565b9150612332826122a7565b606082019050919050565b5f6020820190508181035f8301526123548161231b565b905091905056fea26469706673582212205ae5177db7a5e07d7a75a0b4ab1ba6ddb39952e503b4efeafd9f59cb1507658564736f6c63430008170033a264697066735822122092329328bc99e1deb0fde1f062ce09f73079fb4b5d13649ebf90940e47a459b064736f6c63430008170033","opcodes":"PUSH1 0x80 PUSH1 0x40 MSTORE CALLVALUE DUP1 ISZERO PUSH2 0xF JUMPI PUSH0 DUP1 REVERT JUMPDEST POP PUSH2 0x44B8 DUP1 PUSH2 0x1D PUSH0 CODECOPY PUSH0 RETURN INVALID PUSH1 0x80 PUSH1 0x40 MSTORE CALLVALUE DUP1 ISZERO PUSH3 0x10 JUMPI PUSH0 DUP1 REVERT JUMPDEST POP PUSH1 0x4 CALLDATASIZE LT PUSH3 0x68 JUMPI PUSH0 CALLDATALOAD PUSH1 0xE0 SHR DUP1 PUSH4 0x33ABBCBC EQ PUSH3 0x6C JUMPI DUP1 PUSH4 0x535DA87C EQ PUSH3 0x8E JUMPI DUP1 PUSH4 0x95097FE1 EQ PUSH3 0xB0 JUMPI DUP1 PUSH4 0xAD6EB6D9 EQ PUSH3 0xE6 JUMPI DUP1 PUSH4 0xFB670056 EQ PUSH3 0x11C JUMPI DUP1 PUSH4 0xFDE55044 EQ PUSH3 0x152 JUMPI JUMPDEST PUSH0 DUP1 REVERT JUMPDEST PUSH3 0x76 PUSH3 0x172 JUMP JUMPDEST PUSH1 0x40 MLOAD PUSH3 0x85 SWAP2 SWAP1 PUSH3 0x8F2 JUMP JUMPDEST PUSH1 0x40 MLOAD DUP1 SWAP2 SUB SWAP1 RETURN JUMPDEST PUSH3 0x98 PUSH3 0x250 JUMP JUMPDEST PUSH1 0x40 MLOAD PUSH3 0xA7 SWAP2 SWAP1 PUSH3 0xA0D JUMP JUMPDEST PUSH1 0x40 MLOAD DUP1 SWAP2 SUB SWAP1 RETURN JUMPDEST PUSH3 0xCE PUSH1 0x4 DUP1 CALLDATASIZE SUB DUP2 ADD SWAP1 PUSH3 0xC8 SWAP2 SWAP1 PUSH3 0xB88 JUMP JUMPDEST PUSH3 0x2DC JUMP JUMPDEST PUSH1 0x40 MLOAD PUSH3 0xDD SWAP2 SWAP1 PUSH3 0xBFB JUMP JUMPDEST PUSH1 0x40 MLOAD DUP1 SWAP2 SUB SWAP1 RETURN JUMPDEST PUSH3 0x104 PUSH1 0x4 DUP1 CALLDATASIZE SUB DUP2 ADD SWAP1 PUSH3 0xFE SWAP2 SWAP1 PUSH3 0xC4E JUMP JUMPDEST PUSH3 0x324 JUMP JUMPDEST PUSH1 0x40 MLOAD PUSH3 0x113 SWAP2 SWAP1 PUSH3 0xCCE JUMP JUMPDEST PUSH1 0x40 MLOAD DUP1 SWAP2 SUB SWAP1 RETURN JUMPDEST PUSH3 0x13A PUSH1 0x4 DUP1 CALLDATASIZE SUB DUP2 ADD SWAP1 PUSH3 0x134 SWAP2 SWAP1 PUSH3 0xC4E JUMP JUMPDEST PUSH3 0x3D3 JUMP JUMPDEST PUSH1 0x40 MLOAD PUSH3 0x149 SWAP2 SWAP1 PUSH3 0xD01 JUMP JUMPDEST PUSH1 0x40 MLOAD DUP1 SWAP2 SUB SWAP1 RETURN JUMPDEST PUSH3 0x170 PUSH1 0x4 DUP1 CALLDATASIZE SUB DUP2 ADD SWAP1 PUSH3 0x16A SWAP2 SWAP1 PUSH3 0xDD0 JUMP JUMPDEST PUSH3 0x40E JUMP JUMPDEST STOP JUMPDEST PUSH1 0x60 PUSH1 0x1 DUP1 SLOAD DUP1 PUSH1 0x20 MUL PUSH1 0x20 ADD PUSH1 0x40 MLOAD SWAP1 DUP2 ADD PUSH1 0x40 MSTORE DUP1 SWAP3 SWAP2 SWAP1 DUP2 DUP2 MSTORE PUSH1 0x20 ADD PUSH0 SWAP1 JUMPDEST DUP3 DUP3 LT ISZERO PUSH3 0x247 JUMPI DUP4 DUP3 SWAP1 PUSH0 MSTORE PUSH1 0x20 PUSH0 KECCAK256 ADD DUP1 SLOAD PUSH3 0x1B5 SWAP1 PUSH3 0xEBF JUMP JUMPDEST DUP1 PUSH1 0x1F ADD PUSH1 0x20 DUP1 SWAP2 DIV MUL PUSH1 0x20 ADD PUSH1 0x40 MLOAD SWAP1 DUP2 ADD PUSH1 0x40 MSTORE DUP1 SWAP3 SWAP2 SWAP1 DUP2 DUP2 MSTORE PUSH1 0x20 ADD DUP3 DUP1 SLOAD PUSH3 0x1E3 SWAP1 PUSH3 0xEBF JUMP JUMPDEST DUP1 ISZERO PUSH3 0x232 JUMPI DUP1 PUSH1 0x1F LT PUSH3 0x208 JUMPI PUSH2 0x100 DUP1 DUP4 SLOAD DIV MUL DUP4 MSTORE SWAP2 PUSH1 0x20 ADD SWAP2 PUSH3 0x232 JUMP JUMPDEST DUP3 ADD SWAP2 SWAP1 PUSH0 MSTORE PUSH1 0x20 PUSH0 KECCAK256 SWAP1 JUMPDEST DUP2 SLOAD DUP2 MSTORE SWAP1 PUSH1 0x1 ADD SWAP1 PUSH1 0x20 ADD DUP1 DUP4 GT PUSH3 0x214 JUMPI DUP3 SWAP1 SUB PUSH1 0x1F AND DUP3 ADD SWAP2 JUMPDEST POP POP POP POP POP DUP2 MSTORE PUSH1 0x20 ADD SWAP1 PUSH1 0x1 ADD SWAP1 PUSH3 0x195 JUMP JUMPDEST POP POP POP POP SWAP1 POP SWAP1 JUMP JUMPDEST PUSH1 0x60 PUSH0 DUP1 SLOAD DUP1 PUSH1 0x20 MUL PUSH1 0x20 ADD PUSH1 0x40 MLOAD SWAP1 DUP2 ADD PUSH1 0x40 MSTORE DUP1 SWAP3 SWAP2 SWAP1 DUP2 DUP2 MSTORE PUSH1 0x20 ADD DUP3 DUP1 SLOAD DUP1 ISZERO PUSH3 0x2D2 JUMPI PUSH1 0x20 MUL DUP3 ADD SWAP2 SWAP1 PUSH0 MSTORE PUSH1 0x20 PUSH0 KECCAK256 SWAP1 JUMPDEST DUP2 PUSH0 SWAP1 SLOAD SWAP1 PUSH2 0x100 EXP SWAP1 DIV PUSH20 0xFFFFFFFFFFFFFFFFFFFFFFFFFFFFFFFFFFFFFFFF AND PUSH20 0xFFFFFFFFFFFFFFFFFFFFFFFFFFFFFFFFFFFFFFFF AND DUP2 MSTORE PUSH1 0x20 ADD SWAP1 PUSH1 0x1 ADD SWAP1 DUP1 DUP4 GT PUSH3 0x288 JUMPI JUMPDEST POP POP POP POP POP SWAP1 POP SWAP1 JUMP JUMPDEST PUSH1 0x2 DUP2 DUP1 MLOAD PUSH1 0x20 DUP2 ADD DUP3 ADD DUP1 MLOAD DUP5 DUP3 MSTORE PUSH1 0x20 DUP4 ADD PUSH1 0x20 DUP6 ADD KECCAK256 DUP2 DUP4 MSTORE DUP1 SWAP6 POP POP POP POP POP POP PUSH0 SWAP2 POP SLOAD SWAP1 PUSH2 0x100 EXP SWAP1 DIV PUSH20 0xFFFFFFFFFFFFFFFFFFFFFFFFFFFFFFFFFFFFFFFF AND DUP2 JUMP JUMPDEST PUSH1 0x1 DUP2 DUP2 SLOAD DUP2 LT PUSH3 0x334 JUMPI PUSH0 DUP1 REVERT JUMPDEST SWAP1 PUSH0 MSTORE PUSH1 0x20 PUSH0 KECCAK256 ADD PUSH0 SWAP2 POP SWAP1 POP DUP1 SLOAD PUSH3 0x34E SWAP1 PUSH3 0xEBF JUMP JUMPDEST DUP1 PUSH1 0x1F ADD PUSH1 0x20 DUP1 SWAP2 DIV MUL PUSH1 0x20 ADD PUSH1 0x40 MLOAD SWAP1 DUP2 ADD PUSH1 0x40 MSTORE DUP1 SWAP3 SWAP2 SWAP1 DUP2 DUP2 MSTORE PUSH1 0x20 ADD DUP3 DUP1 SLOAD PUSH3 0x37C SWAP1 PUSH3 0xEBF JUMP JUMPDEST DUP1 ISZERO PUSH3 0x3CB JUMPI DUP1 PUSH1 0x1F LT PUSH3 0x3A1 JUMPI PUSH2 0x100 DUP1 DUP4 SLOAD DIV MUL DUP4 MSTORE SWAP2 PUSH1 0x20 ADD SWAP2 PUSH3 0x3CB JUMP JUMPDEST DUP3 ADD SWAP2 SWAP1 PUSH0 MSTORE PUSH1 0x20 PUSH0 KECCAK256 SWAP1 JUMPDEST DUP2 SLOAD DUP2 MSTORE SWAP1 PUSH1 0x1 ADD SWAP1 PUSH1 0x20 ADD DUP1 DUP4 GT PUSH3 0x3AD JUMPI DUP3 SWAP1 SUB PUSH1 0x1F AND DUP3 ADD SWAP2 JUMPDEST POP POP POP POP POP DUP2 JUMP JUMPDEST PUSH0 DUP2 DUP2 SLOAD DUP2 LT PUSH3 0x3E2 JUMPI PUSH0 DUP1 REVERT JUMPDEST SWAP1 PUSH0 MSTORE PUSH1 0x20 PUSH0 KECCAK256 ADD PUSH0 SWAP2 POP SLOAD SWAP1 PUSH2 0x100 EXP SWAP1 DIV PUSH20 0xFFFFFFFFFFFFFFFFFFFFFFFFFFFFFFFFFFFFFFFF AND DUP2 JUMP JUMPDEST PUSH0 DUP6 MLOAD GT PUSH3 0x454 JUMPI PUSH1 0x40 MLOAD PUSH32 0x8C379A000000000000000000000000000000000000000000000000000000000 DUP2 MSTORE PUSH1 0x4 ADD PUSH3 0x44B SWAP1 PUSH3 0xF41 JUMP JUMPDEST PUSH1 0x40 MLOAD DUP1 SWAP2 SUB SWAP1 REVERT JUMPDEST PUSH1 0x1E DUP6 MLOAD LT PUSH3 0x49B JUMPI PUSH1 0x40 MLOAD PUSH32 0x8C379A000000000000000000000000000000000000000000000000000000000 DUP2 MSTORE PUSH1 0x4 ADD PUSH3 0x492 SWAP1 PUSH3 0xFAF JUMP JUMPDEST PUSH1 0x40 MLOAD DUP1 SWAP2 SUB SWAP1 REVERT JUMPDEST PUSH0 DUP5 PUSH2 0xFFFF AND GT PUSH3 0x4E4 JUMPI PUSH1 0x40 MLOAD PUSH32 0x8C379A000000000000000000000000000000000000000000000000000000000 DUP2 MSTORE PUSH1 0x4 ADD PUSH3 0x4DB SWAP1 PUSH3 0x101D JUMP JUMPDEST PUSH1 0x40 MLOAD DUP1 SWAP2 SUB SWAP1 REVERT JUMPDEST PUSH2 0xFFFF DUP5 PUSH2 0xFFFF AND LT PUSH3 0x52F JUMPI PUSH1 0x40 MLOAD PUSH32 0x8C379A000000000000000000000000000000000000000000000000000000000 DUP2 MSTORE PUSH1 0x4 ADD PUSH3 0x526 SWAP1 PUSH3 0x10B1 JUMP JUMPDEST PUSH1 0x40 MLOAD DUP1 SWAP2 SUB SWAP1 REVERT JUMPDEST PUSH0 DUP4 PUSH4 0xFFFFFFFF AND GT PUSH3 0x57A JUMPI PUSH1 0x40 MLOAD PUSH32 0x8C379A000000000000000000000000000000000000000000000000000000000 DUP2 MSTORE PUSH1 0x4 ADD PUSH3 0x571 SWAP1 PUSH3 0x111F JUMP JUMPDEST PUSH1 0x40 MLOAD DUP1 SWAP2 SUB SWAP1 REVERT JUMPDEST PUSH4 0xFFFFFFFF DUP4 PUSH4 0xFFFFFFFF AND LT PUSH3 0x5C9 JUMPI PUSH1 0x40 MLOAD PUSH32 0x8C379A000000000000000000000000000000000000000000000000000000000 DUP2 MSTORE PUSH1 0x4 ADD PUSH3 0x5C0 SWAP1 PUSH3 0x11B3 JUMP JUMPDEST PUSH1 0x40 MLOAD DUP1 SWAP2 SUB SWAP1 REVERT JUMPDEST PUSH1 0x10 DUP3 MLOAD EQ PUSH3 0x610 JUMPI PUSH1 0x40 MLOAD PUSH32 0x8C379A000000000000000000000000000000000000000000000000000000000 DUP2 MSTORE PUSH1 0x4 ADD PUSH3 0x607 SWAP1 PUSH3 0x1247 JUMP JUMPDEST PUSH1 0x40 MLOAD DUP1 SWAP2 SUB SWAP1 REVERT JUMPDEST PUSH0 DUP6 CALLER DUP7 DUP7 DUP7 DUP7 PUSH1 0x40 MLOAD PUSH3 0x625 SWAP1 PUSH3 0x787 JUMP JUMPDEST PUSH3 0x636 SWAP7 SWAP6 SWAP5 SWAP4 SWAP3 SWAP2 SWAP1 PUSH3 0x129A JUMP JUMPDEST PUSH1 0x40 MLOAD DUP1 SWAP2 SUB SWAP1 PUSH0 CREATE DUP1 ISZERO DUP1 ISZERO PUSH3 0x650 JUMPI RETURNDATASIZE PUSH0 DUP1 RETURNDATACOPY RETURNDATASIZE PUSH0 REVERT JUMPDEST POP SWAP1 POP PUSH0 DUP2 SWAP1 DUP1 PUSH1 0x1 DUP2 SLOAD ADD DUP1 DUP3 SSTORE DUP1 SWAP2 POP POP PUSH1 0x1 SWAP1 SUB SWAP1 PUSH0 MSTORE PUSH1 0x20 PUSH0 KECCAK256 ADD PUSH0 SWAP1 SWAP2 SWAP1 SWAP2 SWAP1 SWAP2 PUSH2 0x100 EXP DUP2 SLOAD DUP2 PUSH20 0xFFFFFFFFFFFFFFFFFFFFFFFFFFFFFFFFFFFFFFFF MUL NOT AND SWAP1 DUP4 PUSH20 0xFFFFFFFFFFFFFFFFFFFFFFFFFFFFFFFFFFFFFFFF AND MUL OR SWAP1 SSTORE POP PUSH1 0x1 DUP7 SWAP1 DUP1 PUSH1 0x1 DUP2 SLOAD ADD DUP1 DUP3 SSTORE DUP1 SWAP2 POP POP PUSH1 0x1 SWAP1 SUB SWAP1 PUSH0 MSTORE PUSH1 0x20 PUSH0 KECCAK256 ADD PUSH0 SWAP1 SWAP2 SWAP1 SWAP2 SWAP1 SWAP2 POP SWAP1 DUP2 PUSH3 0x6E5 SWAP2 SWAP1 PUSH3 0x14D6 JUMP JUMPDEST POP DUP1 PUSH1 0x2 DUP8 PUSH1 0x40 MLOAD PUSH3 0x6F9 SWAP2 SWAP1 PUSH3 0x15FA JUMP JUMPDEST SWAP1 DUP2 MSTORE PUSH1 0x20 ADD PUSH1 0x40 MLOAD DUP1 SWAP2 SUB SWAP1 KECCAK256 PUSH0 PUSH2 0x100 EXP DUP2 SLOAD DUP2 PUSH20 0xFFFFFFFFFFFFFFFFFFFFFFFFFFFFFFFFFFFFFFFF MUL NOT AND SWAP1 DUP4 PUSH20 0xFFFFFFFFFFFFFFFFFFFFFFFFFFFFFFFFFFFFFFFF AND MUL OR SWAP1 SSTORE POP PUSH32 0x5F745E716EEA01CC31D0E70C2AF2ECC8792F321DB40CBCD16B2C9D2AE97CB5F2 DUP2 DUP8 PUSH1 0x40 MLOAD PUSH3 0x777 SWAP3 SWAP2 SWAP1 PUSH3 0x1612 JUMP JUMPDEST PUSH1 0x40 MLOAD DUP1 SWAP2 SUB SWAP1 LOG1 POP POP POP POP POP POP JUMP JUMPDEST PUSH2 0x2E3E DUP1 PUSH3 0x1645 DUP4 CODECOPY ADD SWAP1 JUMP JUMPDEST PUSH0 DUP2 MLOAD SWAP1 POP SWAP2 SWAP1 POP JUMP JUMPDEST PUSH0 DUP3 DUP3 MSTORE PUSH1 0x20 DUP3 ADD SWAP1 POP SWAP3 SWAP2 POP POP JUMP JUMPDEST PUSH0 DUP2 SWAP1 POP PUSH1 0x20 DUP3 ADD SWAP1 POP SWAP2 SWAP1 POP JUMP JUMPDEST PUSH0 DUP2 MLOAD SWAP1 POP SWAP2 SWAP1 POP JUMP JUMPDEST PUSH0 DUP3 DUP3 MSTORE PUSH1 0x20 DUP3 ADD SWAP1 POP SWAP3 SWAP2 POP POP JUMP JUMPDEST PUSH0 JUMPDEST DUP4 DUP2 LT ISZERO PUSH3 0x7F7 JUMPI DUP1 DUP3 ADD MLOAD DUP2 DUP5 ADD MSTORE PUSH1 0x20 DUP2 ADD SWAP1 POP PUSH3 0x7DA JUMP JUMPDEST PUSH0 DUP5 DUP5 ADD MSTORE POP POP POP POP JUMP JUMPDEST PUSH0 PUSH1 0x1F NOT PUSH1 0x1F DUP4 ADD AND SWAP1 POP SWAP2 SWAP1 POP JUMP JUMPDEST PUSH0 PUSH3 0x81E DUP3 PUSH3 0x7BE JUMP JUMPDEST PUSH3 0x82A DUP2 DUP6 PUSH3 0x7C8 JUMP JUMPDEST SWAP4 POP PUSH3 0x83C DUP2 DUP6 PUSH1 0x20 DUP7 ADD PUSH3 0x7D8 JUMP JUMPDEST PUSH3 0x847 DUP2 PUSH3 0x802 JUMP JUMPDEST DUP5 ADD SWAP2 POP POP SWAP3 SWAP2 POP POP JUMP JUMPDEST PUSH0 PUSH3 0x85F DUP4 DUP4 PUSH3 0x812 JUMP JUMPDEST SWAP1 POP SWAP3 SWAP2 POP POP JUMP JUMPDEST PUSH0 PUSH1 0x20 DUP3 ADD SWAP1 POP SWAP2 SWAP1 POP JUMP JUMPDEST PUSH0 PUSH3 0x87F DUP3 PUSH3 0x795 JUMP JUMPDEST PUSH3 0x88B DUP2 DUP6 PUSH3 0x79F JUMP JUMPDEST SWAP4 POP DUP4 PUSH1 0x20 DUP3 MUL DUP6 ADD PUSH3 0x89F DUP6 PUSH3 0x7AF JUMP JUMPDEST DUP1 PUSH0 JUMPDEST DUP6 DUP2 LT ISZERO PUSH3 0x8E0 JUMPI DUP5 DUP5 SUB DUP10 MSTORE DUP2 MLOAD PUSH3 0x8BE DUP6 DUP3 PUSH3 0x852 JUMP JUMPDEST SWAP5 POP PUSH3 0x8CB DUP4 PUSH3 0x867 JUMP JUMPDEST SWAP3 POP PUSH1 0x20 DUP11 ADD SWAP10 POP POP PUSH1 0x1 DUP2 ADD SWAP1 POP PUSH3 0x8A2 JUMP JUMPDEST POP DUP3 SWAP8 POP DUP8 SWAP6 POP POP POP POP POP POP SWAP3 SWAP2 POP POP JUMP JUMPDEST PUSH0 PUSH1 0x20 DUP3 ADD SWAP1 POP DUP2 DUP2 SUB PUSH0 DUP4 ADD MSTORE PUSH3 0x90C DUP2 DUP5 PUSH3 0x873 JUMP JUMPDEST SWAP1 POP SWAP3 SWAP2 POP POP JUMP JUMPDEST PUSH0 DUP2 MLOAD SWAP1 POP SWAP2 SWAP1 POP JUMP JUMPDEST PUSH0 DUP3 DUP3 MSTORE PUSH1 0x20 DUP3 ADD SWAP1 POP SWAP3 SWAP2 POP POP JUMP JUMPDEST PUSH0 DUP2 SWAP1 POP PUSH1 0x20 DUP3 ADD SWAP1 POP SWAP2 SWAP1 POP JUMP JUMPDEST PUSH0 PUSH20 0xFFFFFFFFFFFFFFFFFFFFFFFFFFFFFFFFFFFFFFFF DUP3 AND SWAP1 POP SWAP2 SWAP1 POP JUMP JUMPDEST PUSH0 PUSH3 0x968 DUP3 PUSH3 0x93D JUMP JUMPDEST SWAP1 POP SWAP2 SWAP1 POP JUMP JUMPDEST PUSH3 0x97A DUP2 PUSH3 0x95C JUMP JUMPDEST DUP3 MSTORE POP POP JUMP JUMPDEST PUSH0 PUSH3 0x98D DUP4 DUP4 PUSH3 0x96F JUMP JUMPDEST PUSH1 0x20 DUP4 ADD SWAP1 POP SWAP3 SWAP2 POP POP JUMP JUMPDEST PUSH0 PUSH1 0x20 DUP3 ADD SWAP1 POP SWAP2 SWAP1 POP JUMP JUMPDEST PUSH0 PUSH3 0x9B1 DUP3 PUSH3 0x914 JUMP JUMPDEST PUSH3 0x9BD DUP2 DUP6 PUSH3 0x91E JUMP JUMPDEST SWAP4 POP PUSH3 0x9CA DUP4 PUSH3 0x92E JUMP JUMPDEST DUP1 PUSH0 JUMPDEST DUP4 DUP2 LT ISZERO PUSH3 0xA00 JUMPI DUP2 MLOAD PUSH3 0x9E4 DUP9 DUP3 PUSH3 0x980 JUMP JUMPDEST SWAP8 POP PUSH3 0x9F1 DUP4 PUSH3 0x999 JUMP JUMPDEST SWAP3 POP POP PUSH1 0x1 DUP2 ADD SWAP1 POP PUSH3 0x9CD JUMP JUMPDEST POP DUP6 SWAP4 POP POP POP POP SWAP3 SWAP2 POP POP JUMP JUMPDEST PUSH0 PUSH1 0x20 DUP3 ADD SWAP1 POP DUP2 DUP2 SUB PUSH0 DUP4 ADD MSTORE PUSH3 0xA27 DUP2 DUP5 PUSH3 0x9A5 JUMP JUMPDEST SWAP1 POP SWAP3 SWAP2 POP POP JUMP JUMPDEST PUSH0 PUSH1 0x40 MLOAD SWAP1 POP SWAP1 JUMP JUMPDEST PUSH0 DUP1 REVERT JUMPDEST PUSH0 DUP1 REVERT JUMPDEST PUSH0 DUP1 REVERT JUMPDEST PUSH0 DUP1 REVERT JUMPDEST PUSH32 0x4E487B7100000000000000000000000000000000000000000000000000000000 PUSH0 MSTORE PUSH1 0x41 PUSH1 0x4 MSTORE PUSH1 0x24 PUSH0 REVERT JUMPDEST PUSH3 0xA80 DUP3 PUSH3 0x802 JUMP JUMPDEST DUP2 ADD DUP2 DUP2 LT PUSH8 0xFFFFFFFFFFFFFFFF DUP3 GT OR ISZERO PUSH3 0xAA2 JUMPI PUSH3 0xAA1 PUSH3 0xA48 JUMP JUMPDEST JUMPDEST DUP1 PUSH1 0x40 MSTORE POP POP POP JUMP JUMPDEST PUSH0 PUSH3 0xAB6 PUSH3 0xA2F JUMP JUMPDEST SWAP1 POP PUSH3 0xAC4 DUP3 DUP3 PUSH3 0xA75 JUMP JUMPDEST SWAP2 SWAP1 POP JUMP JUMPDEST PUSH0 PUSH8 0xFFFFFFFFFFFFFFFF DUP3 GT ISZERO PUSH3 0xAE6 JUMPI PUSH3 0xAE5 PUSH3 0xA48 JUMP JUMPDEST JUMPDEST PUSH3 0xAF1 DUP3 PUSH3 0x802 JUMP JUMPDEST SWAP1 POP PUSH1 0x20 DUP2 ADD SWAP1 POP SWAP2 SWAP1 POP JUMP JUMPDEST DUP3 DUP2 DUP4 CALLDATACOPY PUSH0 DUP4 DUP4 ADD MSTORE POP POP POP JUMP JUMPDEST PUSH0 PUSH3 0xB22 PUSH3 0xB1C DUP5 PUSH3 0xAC9 JUMP JUMPDEST PUSH3 0xAAB JUMP JUMPDEST SWAP1 POP DUP3 DUP2 MSTORE PUSH1 0x20 DUP2 ADD DUP5 DUP5 DUP5 ADD GT ISZERO PUSH3 0xB41 JUMPI PUSH3 0xB40 PUSH3 0xA44 JUMP JUMPDEST JUMPDEST PUSH3 0xB4E DUP5 DUP3 DUP6 PUSH3 0xAFE JUMP JUMPDEST POP SWAP4 SWAP3 POP POP POP JUMP JUMPDEST PUSH0 DUP3 PUSH1 0x1F DUP4 ADD SLT PUSH3 0xB6D JUMPI PUSH3 0xB6C PUSH3 0xA40 JUMP JUMPDEST JUMPDEST DUP2 CALLDATALOAD PUSH3 0xB7F DUP5 DUP3 PUSH1 0x20 DUP7 ADD PUSH3 0xB0C JUMP JUMPDEST SWAP2 POP POP SWAP3 SWAP2 POP POP JUMP JUMPDEST PUSH0 PUSH1 0x20 DUP3 DUP5 SUB SLT ISZERO PUSH3 0xBA0 JUMPI PUSH3 0xB9F PUSH3 0xA38 JUMP JUMPDEST JUMPDEST PUSH0 DUP3 ADD CALLDATALOAD PUSH8 0xFFFFFFFFFFFFFFFF DUP2 GT ISZERO PUSH3 0xBC0 JUMPI PUSH3 0xBBF PUSH3 0xA3C JUMP JUMPDEST JUMPDEST PUSH3 0xBCE DUP5 DUP3 DUP6 ADD PUSH3 0xB56 JUMP JUMPDEST SWAP2 POP POP SWAP3 SWAP2 POP POP JUMP JUMPDEST PUSH0 PUSH3 0xBE3 DUP3 PUSH3 0x93D JUMP JUMPDEST SWAP1 POP SWAP2 SWAP1 POP JUMP JUMPDEST PUSH3 0xBF5 DUP2 PUSH3 0xBD7 JUMP JUMPDEST DUP3 MSTORE POP POP JUMP JUMPDEST PUSH0 PUSH1 0x20 DUP3 ADD SWAP1 POP PUSH3 0xC10 PUSH0 DUP4 ADD DUP5 PUSH3 0xBEA JUMP JUMPDEST SWAP3 SWAP2 POP POP JUMP JUMPDEST PUSH0 DUP2 SWAP1 POP SWAP2 SWAP1 POP JUMP JUMPDEST PUSH3 0xC2A DUP2 PUSH3 0xC16 JUMP JUMPDEST DUP2 EQ PUSH3 0xC35 JUMPI PUSH0 DUP1 REVERT JUMPDEST POP JUMP JUMPDEST PUSH0 DUP2 CALLDATALOAD SWAP1 POP PUSH3 0xC48 DUP2 PUSH3 0xC1F JUMP JUMPDEST SWAP3 SWAP2 POP POP JUMP JUMPDEST PUSH0 PUSH1 0x20 DUP3 DUP5 SUB SLT ISZERO PUSH3 0xC66 JUMPI PUSH3 0xC65 PUSH3 0xA38 JUMP JUMPDEST JUMPDEST PUSH0 PUSH3 0xC75 DUP5 DUP3 DUP6 ADD PUSH3 0xC38 JUMP JUMPDEST SWAP2 POP POP SWAP3 SWAP2 POP POP JUMP JUMPDEST PUSH0 DUP3 DUP3 MSTORE PUSH1 0x20 DUP3 ADD SWAP1 POP SWAP3 SWAP2 POP POP JUMP JUMPDEST PUSH0 PUSH3 0xC9A DUP3 PUSH3 0x7BE JUMP JUMPDEST PUSH3 0xCA6 DUP2 DUP6 PUSH3 0xC7E JUMP JUMPDEST SWAP4 POP PUSH3 0xCB8 DUP2 DUP6 PUSH1 0x20 DUP7 ADD PUSH3 0x7D8 JUMP JUMPDEST PUSH3 0xCC3 DUP2 PUSH3 0x802 JUMP JUMPDEST DUP5 ADD SWAP2 POP POP SWAP3 SWAP2 POP POP JUMP JUMPDEST PUSH0 PUSH1 0x20 DUP3 ADD SWAP1 POP DUP2 DUP2 SUB PUSH0 DUP4 ADD MSTORE PUSH3 0xCE8 DUP2 DUP5 PUSH3 0xC8E JUMP JUMPDEST SWAP1 POP SWAP3 SWAP2 POP POP JUMP JUMPDEST PUSH3 0xCFB DUP2 PUSH3 0x95C JUMP JUMPDEST DUP3 MSTORE POP POP JUMP JUMPDEST PUSH0 PUSH1 0x20 DUP3 ADD SWAP1 POP PUSH3 0xD16 PUSH0 DUP4 ADD DUP5 PUSH3 0xCF0 JUMP JUMPDEST SWAP3 SWAP2 POP POP JUMP JUMPDEST PUSH0 PUSH2 0xFFFF DUP3 AND SWAP1 POP SWAP2 SWAP1 POP JUMP JUMPDEST PUSH3 0xD34 DUP2 PUSH3 0xD1C JUMP JUMPDEST DUP2 EQ PUSH3 0xD3F JUMPI PUSH0 DUP1 REVERT JUMPDEST POP JUMP JUMPDEST PUSH0 DUP2 CALLDATALOAD SWAP1 POP PUSH3 0xD52 DUP2 PUSH3 0xD29 JUMP JUMPDEST SWAP3 SWAP2 POP POP JUMP JUMPDEST PUSH0 PUSH4 0xFFFFFFFF DUP3 AND SWAP1 POP SWAP2 SWAP1 POP JUMP JUMPDEST PUSH3 0xD72 DUP2 PUSH3 0xD58 JUMP JUMPDEST DUP2 EQ PUSH3 0xD7D JUMPI PUSH0 DUP1 REVERT JUMPDEST POP JUMP JUMPDEST PUSH0 DUP2 CALLDATALOAD SWAP1 POP PUSH3 0xD90 DUP2 PUSH3 0xD67 JUMP JUMPDEST SWAP3 SWAP2 POP POP JUMP JUMPDEST PUSH0 DUP2 ISZERO ISZERO SWAP1 POP SWAP2 SWAP1 POP JUMP JUMPDEST PUSH3 0xDAC DUP2 PUSH3 0xD96 JUMP JUMPDEST DUP2 EQ PUSH3 0xDB7 JUMPI PUSH0 DUP1 REVERT JUMPDEST POP JUMP JUMPDEST PUSH0 DUP2 CALLDATALOAD SWAP1 POP PUSH3 0xDCA DUP2 PUSH3 0xDA1 JUMP JUMPDEST SWAP3 SWAP2 POP POP JUMP JUMPDEST PUSH0 DUP1 PUSH0 DUP1 PUSH0 PUSH1 0xA0 DUP7 DUP9 SUB SLT ISZERO PUSH3 0xDEC JUMPI PUSH3 0xDEB PUSH3 0xA38 JUMP JUMPDEST JUMPDEST PUSH0 DUP7 ADD CALLDATALOAD PUSH8 0xFFFFFFFFFFFFFFFF DUP2 GT ISZERO PUSH3 0xE0C JUMPI PUSH3 0xE0B PUSH3 0xA3C JUMP JUMPDEST JUMPDEST PUSH3 0xE1A DUP9 DUP3 DUP10 ADD PUSH3 0xB56 JUMP JUMPDEST SWAP6 POP POP PUSH1 0x20 PUSH3 0xE2D DUP9 DUP3 DUP10 ADD PUSH3 0xD42 JUMP JUMPDEST SWAP5 POP POP PUSH1 0x40 PUSH3 0xE40 DUP9 DUP3 DUP10 ADD PUSH3 0xD80 JUMP JUMPDEST SWAP4 POP POP PUSH1 0x60 DUP7 ADD CALLDATALOAD PUSH8 0xFFFFFFFFFFFFFFFF DUP2 GT ISZERO PUSH3 0xE64 JUMPI PUSH3 0xE63 PUSH3 0xA3C JUMP JUMPDEST JUMPDEST PUSH3 0xE72 DUP9 DUP3 DUP10 ADD PUSH3 0xB56 JUMP JUMPDEST SWAP3 POP POP PUSH1 0x80 PUSH3 0xE85 DUP9 DUP3 DUP10 ADD PUSH3 0xDBA JUMP JUMPDEST SWAP2 POP POP SWAP3 SWAP6 POP SWAP3 SWAP6 SWAP1 SWAP4 POP JUMP JUMPDEST PUSH32 0x4E487B7100000000000000000000000000000000000000000000000000000000 PUSH0 MSTORE PUSH1 0x22 PUSH1 0x4 MSTORE PUSH1 0x24 PUSH0 REVERT JUMPDEST PUSH0 PUSH1 0x2 DUP3 DIV SWAP1 POP PUSH1 0x1 DUP3 AND DUP1 PUSH3 0xED7 JUMPI PUSH1 0x7F DUP3 AND SWAP2 POP JUMPDEST PUSH1 0x20 DUP3 LT DUP2 SUB PUSH3 0xEED JUMPI PUSH3 0xEEC PUSH3 0xE92 JUMP JUMPDEST JUMPDEST POP SWAP2 SWAP1 POP JUMP JUMPDEST PUSH32 0x4E616D652064617266206E69636874206C656572207365696E00000000000000 PUSH0 DUP3 ADD MSTORE POP JUMP JUMPDEST PUSH0 PUSH3 0xF29 PUSH1 0x19 DUP4 PUSH3 0xC7E JUMP JUMPDEST SWAP2 POP PUSH3 0xF36 DUP3 PUSH3 0xEF3 JUMP JUMPDEST PUSH1 0x20 DUP3 ADD SWAP1 POP SWAP2 SWAP1 POP JUMP JUMPDEST PUSH0 PUSH1 0x20 DUP3 ADD SWAP1 POP DUP2 DUP2 SUB PUSH0 DUP4 ADD MSTORE PUSH3 0xF5A DUP2 PUSH3 0xF1B JUMP JUMPDEST SWAP1 POP SWAP2 SWAP1 POP JUMP JUMPDEST PUSH32 0x4D6178696D616C203330205A65696368656E0000000000000000000000000000 PUSH0 DUP3 ADD MSTORE POP JUMP JUMPDEST PUSH0 PUSH3 0xF97 PUSH1 0x12 DUP4 PUSH3 0xC7E JUMP JUMPDEST SWAP2 POP PUSH3 0xFA4 DUP3 PUSH3 0xF61 JUMP JUMPDEST PUSH1 0x20 DUP3 ADD SWAP1 POP SWAP2 SWAP1 POP JUMP JUMPDEST PUSH0 PUSH1 0x20 DUP3 ADD SWAP1 POP DUP2 DUP2 SUB PUSH0 DUP4 ADD MSTORE PUSH3 0xFC8 DUP2 PUSH3 0xF89 JUMP JUMPDEST SWAP1 POP SWAP2 SWAP1 POP JUMP JUMPDEST PUSH32 0x416E7A61686C206D7573732067726F657373657220616C732030207365696E00 PUSH0 DUP3 ADD MSTORE POP JUMP JUMPDEST PUSH0 PUSH3 0x1005 PUSH1 0x1F DUP4 PUSH3 0xC7E JUMP JUMPDEST SWAP2 POP PUSH3 0x1012 DUP3 PUSH3 0xFCF JUMP JUMPDEST PUSH1 0x20 DUP3 ADD SWAP1 POP SWAP2 SWAP1 POP JUMP JUMPDEST PUSH0 PUSH1 0x20 DUP3 ADD SWAP1 POP DUP2 DUP2 SUB PUSH0 DUP4 ADD MSTORE PUSH3 0x1036 DUP2 PUSH3 0xFF7 JUMP JUMPDEST SWAP1 POP SWAP2 SWAP1 POP JUMP JUMPDEST PUSH32 0x416E7A61686C206D757373206B6C65696E657220616C73203635353335207365 PUSH0 DUP3 ADD MSTORE PUSH32 0x696E000000000000000000000000000000000000000000000000000000000000 PUSH1 0x20 DUP3 ADD MSTORE POP JUMP JUMPDEST PUSH0 PUSH3 0x1099 PUSH1 0x22 DUP4 PUSH3 0xC7E JUMP JUMPDEST SWAP2 POP PUSH3 0x10A6 DUP3 PUSH3 0x103D JUMP JUMPDEST PUSH1 0x40 DUP3 ADD SWAP1 POP SWAP2 SWAP1 POP JUMP JUMPDEST PUSH0 PUSH1 0x20 DUP3 ADD SWAP1 POP DUP2 DUP2 SUB PUSH0 DUP4 ADD MSTORE PUSH3 0x10CA DUP2 PUSH3 0x108B JUMP JUMPDEST SWAP1 POP SWAP2 SWAP1 POP JUMP JUMPDEST PUSH32 0x5072656973206D7573732067726F657373657220616C732030207365696E0000 PUSH0 DUP3 ADD MSTORE POP JUMP JUMPDEST PUSH0 PUSH3 0x1107 PUSH1 0x1E DUP4 PUSH3 0xC7E JUMP JUMPDEST SWAP2 POP PUSH3 0x1114 DUP3 PUSH3 0x10D1 JUMP JUMPDEST PUSH1 0x20 DUP3 ADD SWAP1 POP SWAP2 SWAP1 POP JUMP JUMPDEST PUSH0 PUSH1 0x20 DUP3 ADD SWAP1 POP DUP2 DUP2 SUB PUSH0 DUP4 ADD MSTORE PUSH3 0x1138 DUP2 PUSH3 0x10F9 JUMP JUMPDEST SWAP1 POP SWAP2 SWAP1 POP JUMP JUMPDEST PUSH32 0x5072656973206D757373206B6C65696E657220616C7320343239343936373239 PUSH0 DUP3 ADD MSTORE PUSH32 0x35207365696E0000000000000000000000000000000000000000000000000000 PUSH1 0x20 DUP3 ADD MSTORE POP JUMP JUMPDEST PUSH0 PUSH3 0x119B PUSH1 0x26 DUP4 PUSH3 0xC7E JUMP JUMPDEST SWAP2 POP PUSH3 0x11A8 DUP3 PUSH3 0x113F JUMP JUMPDEST PUSH1 0x40 DUP3 ADD SWAP1 POP SWAP2 SWAP1 POP JUMP JUMPDEST PUSH0 PUSH1 0x20 DUP3 ADD SWAP1 POP DUP2 DUP2 SUB PUSH0 DUP4 ADD MSTORE PUSH3 0x11CC DUP2 PUSH3 0x118D JUMP JUMPDEST SWAP1 POP SWAP2 SWAP1 POP JUMP JUMPDEST PUSH32 0x53636865696E4E756D6D6572206D757373203136205A69666665726E20686162 PUSH0 DUP3 ADD MSTORE PUSH32 0x656E000000000000000000000000000000000000000000000000000000000000 PUSH1 0x20 DUP3 ADD MSTORE POP JUMP JUMPDEST PUSH0 PUSH3 0x122F PUSH1 0x22 DUP4 PUSH3 0xC7E JUMP JUMPDEST SWAP2 POP PUSH3 0x123C DUP3 PUSH3 0x11D3 JUMP JUMPDEST PUSH1 0x40 DUP3 ADD SWAP1 POP SWAP2 SWAP1 POP JUMP JUMPDEST PUSH0 PUSH1 0x20 DUP3 ADD SWAP1 POP DUP2 DUP2 SUB PUSH0 DUP4 ADD MSTORE PUSH3 0x1260 DUP2 PUSH3 0x1221 JUMP JUMPDEST SWAP1 POP SWAP2 SWAP1 POP JUMP JUMPDEST PUSH3 0x1272 DUP2 PUSH3 0xD1C JUMP JUMPDEST DUP3 MSTORE POP POP JUMP JUMPDEST PUSH3 0x1283 DUP2 PUSH3 0xD58 JUMP JUMPDEST DUP3 MSTORE POP POP JUMP JUMPDEST PUSH3 0x1294 DUP2 PUSH3 0xD96 JUMP JUMPDEST DUP3 MSTORE POP POP JUMP JUMPDEST PUSH0 PUSH1 0xC0 DUP3 ADD SWAP1 POP DUP2 DUP2 SUB PUSH0 DUP4 ADD MSTORE PUSH3 0x12B4 DUP2 DUP10 PUSH3 0xC8E JUMP JUMPDEST SWAP1 POP PUSH3 0x12C5 PUSH1 0x20 DUP4 ADD DUP9 PUSH3 0xBEA JUMP JUMPDEST PUSH3 0x12D4 PUSH1 0x40 DUP4 ADD DUP8 PUSH3 0x1267 JUMP JUMPDEST PUSH3 0x12E3 PUSH1 0x60 DUP4 ADD DUP7 PUSH3 0x1278 JUMP JUMPDEST DUP2 DUP2 SUB PUSH1 0x80 DUP4 ADD MSTORE PUSH3 0x12F7 DUP2 DUP6 PUSH3 0xC8E JUMP JUMPDEST SWAP1 POP PUSH3 0x1308 PUSH1 0xA0 DUP4 ADD DUP5 PUSH3 0x1289 JUMP JUMPDEST SWAP8 SWAP7 POP POP POP POP POP POP POP JUMP JUMPDEST PUSH0 DUP2 SWAP1 POP DUP2 PUSH0 MSTORE PUSH1 0x20 PUSH0 KECCAK256 SWAP1 POP SWAP2 SWAP1 POP JUMP JUMPDEST PUSH0 PUSH1 0x20 PUSH1 0x1F DUP4 ADD DIV SWAP1 POP SWAP2 SWAP1 POP JUMP JUMPDEST PUSH0 DUP3 DUP3 SHL SWAP1 POP SWAP3 SWAP2 POP POP JUMP JUMPDEST PUSH0 PUSH1 0x8 DUP4 MUL PUSH3 0x1371 PUSH32 0xFFFFFFFFFFFFFFFFFFFFFFFFFFFFFFFFFFFFFFFFFFFFFFFFFFFFFFFFFFFFFFFF DUP3 PUSH3 0x1334 JUMP JUMPDEST PUSH3 0x137D DUP7 DUP4 PUSH3 0x1334 JUMP JUMPDEST SWAP6 POP DUP1 NOT DUP5 AND SWAP4 POP DUP1 DUP7 AND DUP5 OR SWAP3 POP POP POP SWAP4 SWAP3 POP POP POP JUMP JUMPDEST PUSH0 DUP2 SWAP1 POP SWAP2 SWAP1 POP JUMP JUMPDEST PUSH0 PUSH3 0x13BE PUSH3 0x13B8 PUSH3 0x13B2 DUP5 PUSH3 0xC16 JUMP JUMPDEST PUSH3 0x1395 JUMP JUMPDEST PUSH3 0xC16 JUMP JUMPDEST SWAP1 POP SWAP2 SWAP1 POP JUMP JUMPDEST PUSH0 DUP2 SWAP1 POP SWAP2 SWAP1 POP JUMP JUMPDEST PUSH3 0x13D9 DUP4 PUSH3 0x139E JUMP JUMPDEST PUSH3 0x13F1 PUSH3 0x13E8 DUP3 PUSH3 0x13C5 JUMP JUMPDEST DUP5 DUP5 SLOAD PUSH3 0x1340 JUMP JUMPDEST DUP3 SSTORE POP POP POP POP JUMP JUMPDEST PUSH0 SWAP1 JUMP JUMPDEST PUSH3 0x1407 PUSH3 0x13F9 JUMP JUMPDEST PUSH3 0x1414 DUP2 DUP5 DUP5 PUSH3 0x13CE JUMP JUMPDEST POP POP POP JUMP JUMPDEST JUMPDEST DUP2 DUP2 LT ISZERO PUSH3 0x143B JUMPI PUSH3 0x142F PUSH0 DUP3 PUSH3 0x13FD JUMP JUMPDEST PUSH1 0x1 DUP2 ADD SWAP1 POP PUSH3 0x141A JUMP JUMPDEST POP POP JUMP JUMPDEST PUSH1 0x1F DUP3 GT ISZERO PUSH3 0x148A JUMPI PUSH3 0x1454 DUP2 PUSH3 0x1313 JUMP JUMPDEST PUSH3 0x145F DUP5 PUSH3 0x1325 JUMP JUMPDEST DUP2 ADD PUSH1 0x20 DUP6 LT ISZERO PUSH3 0x146F JUMPI DUP2 SWAP1 POP JUMPDEST PUSH3 0x1487 PUSH3 0x147E DUP6 PUSH3 0x1325 JUMP JUMPDEST DUP4 ADD DUP3 PUSH3 0x1419 JUMP JUMPDEST POP POP JUMPDEST POP POP POP JUMP JUMPDEST PUSH0 DUP3 DUP3 SHR SWAP1 POP SWAP3 SWAP2 POP POP JUMP JUMPDEST PUSH0 PUSH3 0x14AC PUSH0 NOT DUP5 PUSH1 0x8 MUL PUSH3 0x148F JUMP JUMPDEST NOT DUP1 DUP4 AND SWAP2 POP POP SWAP3 SWAP2 POP POP JUMP JUMPDEST PUSH0 PUSH3 0x14C6 DUP4 DUP4 PUSH3 0x149B JUMP JUMPDEST SWAP2 POP DUP3 PUSH1 0x2 MUL DUP3 OR SWAP1 POP SWAP3 SWAP2 POP POP JUMP JUMPDEST PUSH3 0x14E1 DUP3 PUSH3 0x7BE JUMP JUMPDEST PUSH8 0xFFFFFFFFFFFFFFFF DUP2 GT ISZERO PUSH3 0x14FD JUMPI PUSH3 0x14FC PUSH3 0xA48 JUMP JUMPDEST JUMPDEST PUSH3 0x1509 DUP3 SLOAD PUSH3 0xEBF JUMP JUMPDEST PUSH3 0x1516 DUP3 DUP3 DUP6 PUSH3 0x143F JUMP JUMPDEST PUSH0 PUSH1 0x20 SWAP1 POP PUSH1 0x1F DUP4 GT PUSH1 0x1 DUP2 EQ PUSH3 0x154C JUMPI PUSH0 DUP5 ISZERO PUSH3 0x1537 JUMPI DUP3 DUP8 ADD MLOAD SWAP1 POP JUMPDEST PUSH3 0x1543 DUP6 DUP3 PUSH3 0x14B9 JUMP JUMPDEST DUP7 SSTORE POP PUSH3 0x15B2 JUMP JUMPDEST PUSH1 0x1F NOT DUP5 AND PUSH3 0x155C DUP7 PUSH3 0x1313 JUMP JUMPDEST PUSH0 JUMPDEST DUP3 DUP2 LT ISZERO PUSH3 0x1585 JUMPI DUP5 DUP10 ADD MLOAD DUP3 SSTORE PUSH1 0x1 DUP3 ADD SWAP2 POP PUSH1 0x20 DUP6 ADD SWAP5 POP PUSH1 0x20 DUP2 ADD SWAP1 POP PUSH3 0x155E JUMP JUMPDEST DUP7 DUP4 LT ISZERO PUSH3 0x15A5 JUMPI DUP5 DUP10 ADD MLOAD PUSH3 0x15A1 PUSH1 0x1F DUP10 AND DUP3 PUSH3 0x149B JUMP JUMPDEST DUP4 SSTORE POP JUMPDEST PUSH1 0x1 PUSH1 0x2 DUP9 MUL ADD DUP9 SSTORE POP POP POP JUMPDEST POP POP POP POP POP POP JUMP JUMPDEST PUSH0 DUP2 SWAP1 POP SWAP3 SWAP2 POP POP JUMP JUMPDEST PUSH0 PUSH3 0x15D0 DUP3 PUSH3 0x7BE JUMP JUMPDEST PUSH3 0x15DC DUP2 DUP6 PUSH3 0x15BA JUMP JUMPDEST SWAP4 POP PUSH3 0x15EE DUP2 DUP6 PUSH1 0x20 DUP7 ADD PUSH3 0x7D8 JUMP JUMPDEST DUP1 DUP5 ADD SWAP2 POP POP SWAP3 SWAP2 POP POP JUMP JUMPDEST PUSH0 PUSH3 0x1607 DUP3 DUP5 PUSH3 0x15C4 JUMP JUMPDEST SWAP2 POP DUP2 SWAP1 POP SWAP3 SWAP2 POP POP JUMP JUMPDEST PUSH0 PUSH1 0x40 DUP3 ADD SWAP1 POP PUSH3 0x1627 PUSH0 DUP4 ADD DUP6 PUSH3 0xBEA JUMP JUMPDEST DUP2 DUP2 SUB PUSH1 0x20 DUP4 ADD MSTORE PUSH3 0x163B DUP2 DUP5 PUSH3 0xC8E JUMP JUMPDEST SWAP1 POP SWAP4 SWAP3 POP POP POP JUMP INVALID PUSH1 0x80 PUSH1 0x40 MSTORE PUSH0 PUSH1 0x9 SSTORE PUSH0 PUSH1 0xA PUSH0 PUSH2 0x100 EXP DUP2 SLOAD DUP2 PUSH1 0xFF MUL NOT AND SWAP1 DUP4 ISZERO ISZERO MUL OR SWAP1 SSTORE POP PUSH0 PUSH1 0xA PUSH1 0x1 PUSH2 0x100 EXP DUP2 SLOAD DUP2 PUSH1 0xFF MUL NOT AND SWAP1 DUP4 ISZERO ISZERO MUL OR SWAP1 SSTORE POP CALLVALUE DUP1 ISZERO PUSH3 0x47 JUMPI PUSH0 DUP1 REVERT JUMPDEST POP PUSH1 0x40 MLOAD PUSH3 0x2E3E CODESIZE SUB DUP1 PUSH3 0x2E3E DUP4 CODECOPY DUP2 DUP2 ADD PUSH1 0x40 MSTORE DUP2 ADD SWAP1 PUSH3 0x6D SWAP2 SWAP1 PUSH3 0x4E7 JUMP JUMPDEST PUSH2 0xFFFF DUP5 PUSH2 0xFFFF AND LT PUSH3 0xB8 JUMPI PUSH1 0x40 MLOAD PUSH32 0x8C379A000000000000000000000000000000000000000000000000000000000 DUP2 MSTORE PUSH1 0x4 ADD PUSH3 0xAF SWAP1 PUSH3 0x61B JUMP JUMPDEST PUSH1 0x40 MLOAD DUP1 SWAP2 SUB SWAP1 REVERT JUMPDEST PUSH4 0xFFFFFFFF DUP4 PUSH4 0xFFFFFFFF AND LT PUSH3 0x107 JUMPI PUSH1 0x40 MLOAD PUSH32 0x8C379A000000000000000000000000000000000000000000000000000000000 DUP2 MSTORE PUSH1 0x4 ADD PUSH3 0xFE SWAP1 PUSH3 0x689 JUMP JUMPDEST PUSH1 0x40 MLOAD DUP1 SWAP2 SUB SWAP1 REVERT JUMPDEST DUP5 PUSH0 DUP1 PUSH2 0x100 EXP DUP2 SLOAD DUP2 PUSH20 0xFFFFFFFFFFFFFFFFFFFFFFFFFFFFFFFFFFFFFFFF MUL NOT AND SWAP1 DUP4 PUSH20 0xFFFFFFFFFFFFFFFFFFFFFFFFFFFFFFFFFFFFFFFF AND MUL OR SWAP1 SSTORE POP DUP6 PUSH1 0x1 SWAP1 DUP2 PUSH3 0x157 SWAP2 SWAP1 PUSH3 0x8E0 JUMP JUMPDEST POP DUP4 PUSH1 0x2 PUSH0 PUSH2 0x100 EXP DUP2 SLOAD DUP2 PUSH2 0xFFFF MUL NOT AND SWAP1 DUP4 PUSH2 0xFFFF AND MUL OR SWAP1 SSTORE POP DUP3 PUSH1 0x2 DUP1 PUSH2 0x100 EXP DUP2 SLOAD DUP2 PUSH4 0xFFFFFFFF MUL NOT AND SWAP1 DUP4 PUSH4 0xFFFFFFFF AND MUL OR SWAP1 SSTORE POP DUP1 PUSH1 0xA PUSH1 0x1 PUSH2 0x100 EXP DUP2 SLOAD DUP2 PUSH1 0xFF MUL NOT AND SWAP1 DUP4 ISZERO ISZERO MUL OR SWAP1 SSTORE POP DUP2 PUSH1 0x3 SWAP1 DUP2 PUSH3 0x1BF SWAP2 SWAP1 PUSH3 0x8E0 JUMP JUMPDEST POP PUSH8 0xDE0B6B3A7640000 PUSH1 0x2 PUSH0 SWAP1 SLOAD SWAP1 PUSH2 0x100 EXP SWAP1 DIV PUSH2 0xFFFF AND PUSH2 0xFFFF AND PUSH8 0xDE0B6B3A7640000 PUSH1 0x2 DUP1 SLOAD SWAP1 PUSH2 0x100 EXP SWAP1 DIV PUSH4 0xFFFFFFFF AND PUSH4 0xFFFFFFFF AND PUSH3 0x209 SWAP2 SWAP1 PUSH3 0x9F1 JUMP JUMPDEST PUSH3 0x215 SWAP2 SWAP1 PUSH3 0xA68 JUMP JUMPDEST PUSH3 0x221 SWAP2 SWAP1 PUSH3 0xA68 JUMP JUMPDEST PUSH1 0x2 PUSH1 0x6 PUSH2 0x100 EXP DUP2 SLOAD DUP2 PUSH4 0xFFFFFFFF MUL NOT AND SWAP1 DUP4 PUSH4 0xFFFFFFFF AND MUL OR SWAP1 SSTORE POP POP POP POP POP POP POP PUSH3 0xA9F JUMP JUMPDEST PUSH0 PUSH1 0x40 MLOAD SWAP1 POP SWAP1 JUMP JUMPDEST PUSH0 DUP1 REVERT JUMPDEST PUSH0 DUP1 REVERT JUMPDEST PUSH0 DUP1 REVERT JUMPDEST PUSH0 DUP1 REVERT JUMPDEST PUSH0 PUSH1 0x1F NOT PUSH1 0x1F DUP4 ADD AND SWAP1 POP SWAP2 SWAP1 POP JUMP JUMPDEST PUSH32 0x4E487B7100000000000000000000000000000000000000000000000000000000 PUSH0 MSTORE PUSH1 0x41 PUSH1 0x4 MSTORE PUSH1 0x24 PUSH0 REVERT JUMPDEST PUSH3 0x2AE DUP3 PUSH3 0x266 JUMP JUMPDEST DUP2 ADD DUP2 DUP2 LT PUSH8 0xFFFFFFFFFFFFFFFF DUP3 GT OR ISZERO PUSH3 0x2D0 JUMPI PUSH3 0x2CF PUSH3 0x276 JUMP JUMPDEST JUMPDEST DUP1 PUSH1 0x40 MSTORE POP POP POP JUMP JUMPDEST PUSH0 PUSH3 0x2E4 PUSH3 0x24D JUMP JUMPDEST SWAP1 POP PUSH3 0x2F2 DUP3 DUP3 PUSH3 0x2A3 JUMP JUMPDEST SWAP2 SWAP1 POP JUMP JUMPDEST PUSH0 PUSH8 0xFFFFFFFFFFFFFFFF DUP3 GT ISZERO PUSH3 0x314 JUMPI PUSH3 0x313 PUSH3 0x276 JUMP JUMPDEST JUMPDEST PUSH3 0x31F DUP3 PUSH3 0x266 JUMP JUMPDEST SWAP1 POP PUSH1 0x20 DUP2 ADD SWAP1 POP SWAP2 SWAP1 POP JUMP JUMPDEST PUSH0 JUMPDEST DUP4 DUP2 LT ISZERO PUSH3 0x34B JUMPI DUP1 DUP3 ADD MLOAD DUP2 DUP5 ADD MSTORE PUSH1 0x20 DUP2 ADD SWAP1 POP PUSH3 0x32E JUMP JUMPDEST PUSH0 DUP5 DUP5 ADD MSTORE POP POP POP POP JUMP JUMPDEST PUSH0 PUSH3 0x36C PUSH3 0x366 DUP5 PUSH3 0x2F7 JUMP JUMPDEST PUSH3 0x2D9 JUMP JUMPDEST SWAP1 POP DUP3 DUP2 MSTORE PUSH1 0x20 DUP2 ADD DUP5 DUP5 DUP5 ADD GT ISZERO PUSH3 0x38B JUMPI PUSH3 0x38A PUSH3 0x262 JUMP JUMPDEST JUMPDEST PUSH3 0x398 DUP5 DUP3 DUP6 PUSH3 0x32C JUMP JUMPDEST POP SWAP4 SWAP3 POP POP POP JUMP JUMPDEST PUSH0 DUP3 PUSH1 0x1F DUP4 ADD SLT PUSH3 0x3B7 JUMPI PUSH3 0x3B6 PUSH3 0x25E JUMP JUMPDEST JUMPDEST DUP2 MLOAD PUSH3 0x3C9 DUP5 DUP3 PUSH1 0x20 DUP7 ADD PUSH3 0x356 JUMP JUMPDEST SWAP2 POP POP SWAP3 SWAP2 POP POP JUMP JUMPDEST PUSH0 PUSH20 0xFFFFFFFFFFFFFFFFFFFFFFFFFFFFFFFFFFFFFFFF DUP3 AND SWAP1 POP SWAP2 SWAP1 POP JUMP JUMPDEST PUSH0 PUSH3 0x3FD DUP3 PUSH3 0x3D2 JUMP JUMPDEST SWAP1 POP SWAP2 SWAP1 POP JUMP JUMPDEST PUSH3 0x40F DUP2 PUSH3 0x3F1 JUMP JUMPDEST DUP2 EQ PUSH3 0x41A JUMPI PUSH0 DUP1 REVERT JUMPDEST POP JUMP JUMPDEST PUSH0 DUP2 MLOAD SWAP1 POP PUSH3 0x42D DUP2 PUSH3 0x404 JUMP JUMPDEST SWAP3 SWAP2 POP POP JUMP JUMPDEST PUSH0 PUSH2 0xFFFF DUP3 AND SWAP1 POP SWAP2 SWAP1 POP JUMP JUMPDEST PUSH3 0x44B DUP2 PUSH3 0x433 JUMP JUMPDEST DUP2 EQ PUSH3 0x456 JUMPI PUSH0 DUP1 REVERT JUMPDEST POP JUMP JUMPDEST PUSH0 DUP2 MLOAD SWAP1 POP PUSH3 0x469 DUP2 PUSH3 0x440 JUMP JUMPDEST SWAP3 SWAP2 POP POP JUMP JUMPDEST PUSH0 PUSH4 0xFFFFFFFF DUP3 AND SWAP1 POP SWAP2 SWAP1 POP JUMP JUMPDEST PUSH3 0x489 DUP2 PUSH3 0x46F JUMP JUMPDEST DUP2 EQ PUSH3 0x494 JUMPI PUSH0 DUP1 REVERT JUMPDEST POP JUMP JUMPDEST PUSH0 DUP2 MLOAD SWAP1 POP PUSH3 0x4A7 DUP2 PUSH3 0x47E JUMP JUMPDEST SWAP3 SWAP2 POP POP JUMP JUMPDEST PUSH0 DUP2 ISZERO ISZERO SWAP1 POP SWAP2 SWAP1 POP JUMP JUMPDEST PUSH3 0x4C3 DUP2 PUSH3 0x4AD JUMP JUMPDEST DUP2 EQ PUSH3 0x4CE JUMPI PUSH0 DUP1 REVERT JUMPDEST POP JUMP JUMPDEST PUSH0 DUP2 MLOAD SWAP1 POP PUSH3 0x4E1 DUP2 PUSH3 0x4B8 JUMP JUMPDEST SWAP3 SWAP2 POP POP JUMP JUMPDEST PUSH0 DUP1 PUSH0 DUP1 PUSH0 DUP1 PUSH1 0xC0 DUP8 DUP10 SUB SLT ISZERO PUSH3 0x504 JUMPI PUSH3 0x503 PUSH3 0x256 JUMP JUMPDEST JUMPDEST PUSH0 DUP8 ADD MLOAD PUSH8 0xFFFFFFFFFFFFFFFF DUP2 GT ISZERO PUSH3 0x524 JUMPI PUSH3 0x523 PUSH3 0x25A JUMP JUMPDEST JUMPDEST PUSH3 0x532 DUP10 DUP3 DUP11 ADD PUSH3 0x3A0 JUMP JUMPDEST SWAP7 POP POP PUSH1 0x20 PUSH3 0x545 DUP10 DUP3 DUP11 ADD PUSH3 0x41D JUMP JUMPDEST SWAP6 POP POP PUSH1 0x40 PUSH3 0x558 DUP10 DUP3 DUP11 ADD PUSH3 0x459 JUMP JUMPDEST SWAP5 POP POP PUSH1 0x60 PUSH3 0x56B DUP10 DUP3 DUP11 ADD PUSH3 0x497 JUMP JUMPDEST SWAP4 POP POP PUSH1 0x80 DUP8 ADD MLOAD PUSH8 0xFFFFFFFFFFFFFFFF DUP2 GT ISZERO PUSH3 0x58F JUMPI PUSH3 0x58E PUSH3 0x25A JUMP JUMPDEST JUMPDEST PUSH3 0x59D DUP10 DUP3 DUP11 ADD PUSH3 0x3A0 JUMP JUMPDEST SWAP3 POP POP PUSH1 0xA0 PUSH3 0x5B0 DUP10 DUP3 DUP11 ADD PUSH3 0x4D1 JUMP JUMPDEST SWAP2 POP POP SWAP3 SWAP6 POP SWAP3 SWAP6 POP SWAP3 SWAP6 JUMP JUMPDEST PUSH0 DUP3 DUP3 MSTORE PUSH1 0x20 DUP3 ADD SWAP1 POP SWAP3 SWAP2 POP POP JUMP JUMPDEST PUSH32 0x4D6178696D616C203635353334204D6974737069656C65722065726C61756274 PUSH0 DUP3 ADD MSTORE POP JUMP JUMPDEST PUSH0 PUSH3 0x603 PUSH1 0x20 DUP4 PUSH3 0x5BD JUMP JUMPDEST SWAP2 POP PUSH3 0x610 DUP3 PUSH3 0x5CD JUMP JUMPDEST PUSH1 0x20 DUP3 ADD SWAP1 POP SWAP2 SWAP1 POP JUMP JUMPDEST PUSH0 PUSH1 0x20 DUP3 ADD SWAP1 POP DUP2 DUP2 SUB PUSH0 DUP4 ADD MSTORE PUSH3 0x634 DUP2 PUSH3 0x5F5 JUMP JUMPDEST SWAP1 POP SWAP2 SWAP1 POP JUMP JUMPDEST PUSH32 0x4D6178696D616C65722050726569732034323934393637323935000000000000 PUSH0 DUP3 ADD MSTORE POP JUMP JUMPDEST PUSH0 PUSH3 0x671 PUSH1 0x1A DUP4 PUSH3 0x5BD JUMP JUMPDEST SWAP2 POP PUSH3 0x67E DUP3 PUSH3 0x63B JUMP JUMPDEST PUSH1 0x20 DUP3 ADD SWAP1 POP SWAP2 SWAP1 POP JUMP JUMPDEST PUSH0 PUSH1 0x20 DUP3 ADD SWAP1 POP DUP2 DUP2 SUB PUSH0 DUP4 ADD MSTORE PUSH3 0x6A2 DUP2 PUSH3 0x663 JUMP JUMPDEST SWAP1 POP SWAP2 SWAP1 POP JUMP JUMPDEST PUSH0 DUP2 MLOAD SWAP1 POP SWAP2 SWAP1 POP JUMP JUMPDEST PUSH32 0x4E487B7100000000000000000000000000000000000000000000000000000000 PUSH0 MSTORE PUSH1 0x22 PUSH1 0x4 MSTORE PUSH1 0x24 PUSH0 REVERT JUMPDEST PUSH0 PUSH1 0x2 DUP3 DIV SWAP1 POP PUSH1 0x1 DUP3 AND DUP1 PUSH3 0x6F8 JUMPI PUSH1 0x7F DUP3 AND SWAP2 POP JUMPDEST PUSH1 0x20 DUP3 LT DUP2 SUB PUSH3 0x70E JUMPI PUSH3 0x70D PUSH3 0x6B3 JUMP JUMPDEST JUMPDEST POP SWAP2 SWAP1 POP JUMP JUMPDEST PUSH0 DUP2 SWAP1 POP DUP2 PUSH0 MSTORE PUSH1 0x20 PUSH0 KECCAK256 SWAP1 POP SWAP2 SWAP1 POP JUMP JUMPDEST PUSH0 PUSH1 0x20 PUSH1 0x1F DUP4 ADD DIV SWAP1 POP SWAP2 SWAP1 POP JUMP JUMPDEST PUSH0 DUP3 DUP3 SHL SWAP1 POP SWAP3 SWAP2 POP POP JUMP JUMPDEST PUSH0 PUSH1 0x8 DUP4 MUL PUSH3 0x772 PUSH32 0xFFFFFFFFFFFFFFFFFFFFFFFFFFFFFFFFFFFFFFFFFFFFFFFFFFFFFFFFFFFFFFFF DUP3 PUSH3 0x735 JUMP JUMPDEST PUSH3 0x77E DUP7 DUP4 PUSH3 0x735 JUMP JUMPDEST SWAP6 POP DUP1 NOT DUP5 AND SWAP4 POP DUP1 DUP7 AND DUP5 OR SWAP3 POP POP POP SWAP4 SWAP3 POP POP POP JUMP JUMPDEST PUSH0 DUP2 SWAP1 POP SWAP2 SWAP1 POP JUMP JUMPDEST PUSH0 DUP2 SWAP1 POP SWAP2 SWAP1 POP JUMP JUMPDEST PUSH0 PUSH3 0x7C8 PUSH3 0x7C2 PUSH3 0x7BC DUP5 PUSH3 0x796 JUMP JUMPDEST PUSH3 0x79F JUMP JUMPDEST PUSH3 0x796 JUMP JUMPDEST SWAP1 POP SWAP2 SWAP1 POP JUMP JUMPDEST PUSH0 DUP2 SWAP1 POP SWAP2 SWAP1 POP JUMP JUMPDEST PUSH3 0x7E3 DUP4 PUSH3 0x7A8 JUMP JUMPDEST PUSH3 0x7FB PUSH3 0x7F2 DUP3 PUSH3 0x7CF JUMP JUMPDEST DUP5 DUP5 SLOAD PUSH3 0x741 JUMP JUMPDEST DUP3 SSTORE POP POP POP POP JUMP JUMPDEST PUSH0 SWAP1 JUMP JUMPDEST PUSH3 0x811 PUSH3 0x803 JUMP JUMPDEST PUSH3 0x81E DUP2 DUP5 DUP5 PUSH3 0x7D8 JUMP JUMPDEST POP POP POP JUMP JUMPDEST JUMPDEST DUP2 DUP2 LT ISZERO PUSH3 0x845 JUMPI PUSH3 0x839 PUSH0 DUP3 PUSH3 0x807 JUMP JUMPDEST PUSH1 0x1 DUP2 ADD SWAP1 POP PUSH3 0x824 JUMP JUMPDEST POP POP JUMP JUMPDEST PUSH1 0x1F DUP3 GT ISZERO PUSH3 0x894 JUMPI PUSH3 0x85E DUP2 PUSH3 0x714 JUMP JUMPDEST PUSH3 0x869 DUP5 PUSH3 0x726 JUMP JUMPDEST DUP2 ADD PUSH1 0x20 DUP6 LT ISZERO PUSH3 0x879 JUMPI DUP2 SWAP1 POP JUMPDEST PUSH3 0x891 PUSH3 0x888 DUP6 PUSH3 0x726 JUMP JUMPDEST DUP4 ADD DUP3 PUSH3 0x823 JUMP JUMPDEST POP POP JUMPDEST POP POP POP JUMP JUMPDEST PUSH0 DUP3 DUP3 SHR SWAP1 POP SWAP3 SWAP2 POP POP JUMP JUMPDEST PUSH0 PUSH3 0x8B6 PUSH0 NOT DUP5 PUSH1 0x8 MUL PUSH3 0x899 JUMP JUMPDEST NOT DUP1 DUP4 AND SWAP2 POP POP SWAP3 SWAP2 POP POP JUMP JUMPDEST PUSH0 PUSH3 0x8D0 DUP4 DUP4 PUSH3 0x8A5 JUMP JUMPDEST SWAP2 POP DUP3 PUSH1 0x2 MUL DUP3 OR SWAP1 POP SWAP3 SWAP2 POP POP JUMP JUMPDEST PUSH3 0x8EB DUP3 PUSH3 0x6A9 JUMP JUMPDEST PUSH8 0xFFFFFFFFFFFFFFFF DUP2 GT ISZERO PUSH3 0x907 JUMPI PUSH3 0x906 PUSH3 0x276 JUMP JUMPDEST JUMPDEST PUSH3 0x913 DUP3 SLOAD PUSH3 0x6E0 JUMP JUMPDEST PUSH3 0x920 DUP3 DUP3 DUP6 PUSH3 0x849 JUMP JUMPDEST PUSH0 PUSH1 0x20 SWAP1 POP PUSH1 0x1F DUP4 GT PUSH1 0x1 DUP2 EQ PUSH3 0x956 JUMPI PUSH0 DUP5 ISZERO PUSH3 0x941 JUMPI DUP3 DUP8 ADD MLOAD SWAP1 POP JUMPDEST PUSH3 0x94D DUP6 DUP3 PUSH3 0x8C3 JUMP JUMPDEST DUP7 SSTORE POP PUSH3 0x9BC JUMP JUMPDEST PUSH1 0x1F NOT DUP5 AND PUSH3 0x966 DUP7 PUSH3 0x714 JUMP JUMPDEST PUSH0 JUMPDEST DUP3 DUP2 LT ISZERO PUSH3 0x98F JUMPI DUP5 DUP10 ADD MLOAD DUP3 SSTORE PUSH1 0x1 DUP3 ADD SWAP2 POP PUSH1 0x20 DUP6 ADD SWAP5 POP PUSH1 0x20 DUP2 ADD SWAP1 POP PUSH3 0x968 JUMP JUMPDEST DUP7 DUP4 LT ISZERO PUSH3 0x9AF JUMPI DUP5 DUP10 ADD MLOAD PUSH3 0x9AB PUSH1 0x1F DUP10 AND DUP3 PUSH3 0x8A5 JUMP JUMPDEST DUP4 SSTORE POP JUMPDEST PUSH1 0x1 PUSH1 0x2 DUP9 MUL ADD DUP9 SSTORE POP POP POP JUMPDEST POP POP POP POP POP POP JUMP JUMPDEST PUSH32 0x4E487B7100000000000000000000000000000000000000000000000000000000 PUSH0 MSTORE PUSH1 0x11 PUSH1 0x4 MSTORE PUSH1 0x24 PUSH0 REVERT JUMPDEST PUSH0 PUSH3 0x9FD DUP3 PUSH3 0x796 JUMP JUMPDEST SWAP2 POP PUSH3 0xA0A DUP4 PUSH3 0x796 JUMP JUMPDEST SWAP3 POP DUP3 DUP3 MUL PUSH3 0xA1A DUP2 PUSH3 0x796 JUMP JUMPDEST SWAP2 POP DUP3 DUP3 DIV DUP5 EQ DUP4 ISZERO OR PUSH3 0xA34 JUMPI PUSH3 0xA33 PUSH3 0x9C4 JUMP JUMPDEST JUMPDEST POP SWAP3 SWAP2 POP POP JUMP JUMPDEST PUSH32 0x4E487B7100000000000000000000000000000000000000000000000000000000 PUSH0 MSTORE PUSH1 0x12 PUSH1 0x4 MSTORE PUSH1 0x24 PUSH0 REVERT JUMPDEST PUSH0 PUSH3 0xA74 DUP3 PUSH3 0x796 JUMP JUMPDEST SWAP2 POP PUSH3 0xA81 DUP4 PUSH3 0x796 JUMP JUMPDEST SWAP3 POP DUP3 PUSH3 0xA94 JUMPI PUSH3 0xA93 PUSH3 0xA3B JUMP JUMPDEST JUMPDEST DUP3 DUP3 DIV SWAP1 POP SWAP3 SWAP2 POP POP JUMP JUMPDEST PUSH2 0x2391 DUP1 PUSH3 0xAAD PUSH0 CODECOPY PUSH0 RETURN INVALID PUSH1 0x80 PUSH1 0x40 MSTORE PUSH1 0x4 CALLDATASIZE LT PUSH2 0x14A JUMPI PUSH0 CALLDATALOAD PUSH1 0xE0 SHR DUP1 PUSH4 0x833E92CB GT PUSH2 0xB5 JUMPI DUP1 PUSH4 0xB08C7076 GT PUSH2 0x6E JUMPI DUP1 PUSH4 0xB08C7076 EQ PUSH2 0x3F8 JUMPI DUP1 PUSH4 0xBB68A67F EQ PUSH2 0x422 JUMPI DUP1 PUSH4 0xD27D06C0 EQ PUSH2 0x45E JUMPI DUP1 PUSH4 0xE068561A EQ PUSH2 0x488 JUMPI DUP1 PUSH4 0xE34AD1D7 EQ PUSH2 0x4B0 JUMPI DUP1 PUSH4 0xE86C5692 EQ PUSH2 0x4DA JUMPI PUSH2 0x14A JUMP JUMPDEST DUP1 PUSH4 0x833E92CB EQ PUSH2 0x326 JUMPI DUP1 PUSH4 0x8ACB4624 EQ PUSH2 0x33C JUMPI DUP1 PUSH4 0x91243239 EQ PUSH2 0x366 JUMPI DUP1 PUSH4 0xA299F171 EQ PUSH2 0x3A2 JUMPI DUP1 PUSH4 0xAB76211E EQ PUSH2 0x3B8 JUMPI DUP1 PUSH4 0xAD2C046C EQ PUSH2 0x3CE JUMPI PUSH2 0x14A JUMP JUMPDEST DUP1 PUSH4 0x36927060 GT PUSH2 0x107 JUMPI DUP1 PUSH4 0x36927060 EQ PUSH2 0x23A JUMPI DUP1 PUSH4 0x3BABB15A EQ PUSH2 0x276 JUMPI DUP1 PUSH4 0x3F0F5D51 EQ PUSH2 0x2A0 JUMPI DUP1 PUSH4 0x43767832 EQ PUSH2 0x2CA JUMPI DUP1 PUSH4 0x526024EA EQ PUSH2 0x2F2 JUMPI DUP1 PUSH4 0x70A41BC0 EQ PUSH2 0x2FC JUMPI PUSH2 0x14A JUMP JUMPDEST DUP1 PUSH4 0x84263F5 EQ PUSH2 0x14E JUMPI DUP1 PUSH4 0xF085E50 EQ PUSH2 0x178 JUMPI DUP1 PUSH4 0x2340983F EQ PUSH2 0x1A2 JUMPI DUP1 PUSH4 0x2DF368A5 EQ PUSH2 0x1CC JUMPI DUP1 PUSH4 0x311E73DA EQ PUSH2 0x1F6 JUMPI DUP1 PUSH4 0x31C45120 EQ PUSH2 0x212 JUMPI JUMPDEST PUSH0 DUP1 REVERT JUMPDEST CALLVALUE DUP1 ISZERO PUSH2 0x159 JUMPI PUSH0 DUP1 REVERT JUMPDEST POP PUSH2 0x162 PUSH2 0x516 JUMP JUMPDEST PUSH1 0x40 MLOAD PUSH2 0x16F SWAP2 SWAP1 PUSH2 0x1514 JUMP JUMPDEST PUSH1 0x40 MLOAD DUP1 SWAP2 SUB SWAP1 RETURN JUMPDEST CALLVALUE DUP1 ISZERO PUSH2 0x183 JUMPI PUSH0 DUP1 REVERT JUMPDEST POP PUSH2 0x18C PUSH2 0x52D JUMP JUMPDEST PUSH1 0x40 MLOAD PUSH2 0x199 SWAP2 SWAP1 PUSH2 0x1545 JUMP JUMPDEST PUSH1 0x40 MLOAD DUP1 SWAP2 SUB SWAP1 RETURN JUMPDEST CALLVALUE DUP1 ISZERO PUSH2 0x1AD JUMPI PUSH0 DUP1 REVERT JUMPDEST POP PUSH2 0x1B6 PUSH2 0x533 JUMP JUMPDEST PUSH1 0x40 MLOAD PUSH2 0x1C3 SWAP2 SWAP1 PUSH2 0x1578 JUMP JUMPDEST PUSH1 0x40 MLOAD DUP1 SWAP2 SUB SWAP1 RETURN JUMPDEST CALLVALUE DUP1 ISZERO PUSH2 0x1D7 JUMPI PUSH0 DUP1 REVERT JUMPDEST POP PUSH2 0x1E0 PUSH2 0x545 JUMP JUMPDEST PUSH1 0x40 MLOAD PUSH2 0x1ED SWAP2 SWAP1 PUSH2 0x15AF JUMP JUMPDEST PUSH1 0x40 MLOAD DUP1 SWAP2 SUB SWAP1 RETURN JUMPDEST PUSH2 0x210 PUSH1 0x4 DUP1 CALLDATASIZE SUB DUP2 ADD SWAP1 PUSH2 0x20B SWAP2 SWAP1 PUSH2 0x15F6 JUMP JUMPDEST PUSH2 0x55B JUMP JUMPDEST STOP JUMPDEST CALLVALUE DUP1 ISZERO PUSH2 0x21D JUMPI PUSH0 DUP1 REVERT JUMPDEST POP PUSH2 0x238 PUSH1 0x4 DUP1 CALLDATASIZE SUB DUP2 ADD SWAP1 PUSH2 0x233 SWAP2 SWAP1 PUSH2 0x164B JUMP JUMPDEST PUSH2 0x679 JUMP JUMPDEST STOP JUMPDEST CALLVALUE DUP1 ISZERO PUSH2 0x245 JUMPI PUSH0 DUP1 REVERT JUMPDEST POP PUSH2 0x260 PUSH1 0x4 DUP1 CALLDATASIZE SUB DUP2 ADD SWAP1 PUSH2 0x25B SWAP2 SWAP1 PUSH2 0x16D0 JUMP JUMPDEST PUSH2 0x747 JUMP JUMPDEST PUSH1 0x40 MLOAD PUSH2 0x26D SWAP2 SWAP1 PUSH2 0x1578 JUMP JUMPDEST PUSH1 0x40 MLOAD DUP1 SWAP2 SUB SWAP1 RETURN JUMPDEST CALLVALUE DUP1 ISZERO PUSH2 0x281 JUMPI PUSH0 DUP1 REVERT JUMPDEST POP PUSH2 0x28A PUSH2 0x764 JUMP JUMPDEST PUSH1 0x40 MLOAD PUSH2 0x297 SWAP2 SWAP1 PUSH2 0x1717 JUMP JUMPDEST PUSH1 0x40 MLOAD DUP1 SWAP2 SUB SWAP1 RETURN JUMPDEST CALLVALUE DUP1 ISZERO PUSH2 0x2AB JUMPI PUSH0 DUP1 REVERT JUMPDEST POP PUSH2 0x2B4 PUSH2 0x777 JUMP JUMPDEST PUSH1 0x40 MLOAD PUSH2 0x2C1 SWAP2 SWAP1 PUSH2 0x15AF JUMP JUMPDEST PUSH1 0x40 MLOAD DUP1 SWAP2 SUB SWAP1 RETURN JUMPDEST CALLVALUE DUP1 ISZERO PUSH2 0x2D5 JUMPI PUSH0 DUP1 REVERT JUMPDEST POP PUSH2 0x2F0 PUSH1 0x4 DUP1 CALLDATASIZE SUB DUP2 ADD SWAP1 PUSH2 0x2EB SWAP2 SWAP1 PUSH2 0x16D0 JUMP JUMPDEST PUSH2 0x78B JUMP JUMPDEST STOP JUMPDEST PUSH2 0x2FA PUSH2 0x88E JUMP JUMPDEST STOP JUMPDEST CALLVALUE DUP1 ISZERO PUSH2 0x307 JUMPI PUSH0 DUP1 REVERT JUMPDEST POP PUSH2 0x310 PUSH2 0xBE7 JUMP JUMPDEST PUSH1 0x40 MLOAD PUSH2 0x31D SWAP2 SWAP1 PUSH2 0x1717 JUMP JUMPDEST PUSH1 0x40 MLOAD DUP1 SWAP2 SUB SWAP1 RETURN JUMPDEST CALLVALUE DUP1 ISZERO PUSH2 0x331 JUMPI PUSH0 DUP1 REVERT JUMPDEST POP PUSH2 0x33A PUSH2 0xBFA JUMP JUMPDEST STOP JUMPDEST CALLVALUE DUP1 ISZERO PUSH2 0x347 JUMPI PUSH0 DUP1 REVERT JUMPDEST POP PUSH2 0x350 PUSH2 0xE8C JUMP JUMPDEST PUSH1 0x40 MLOAD PUSH2 0x35D SWAP2 SWAP1 PUSH2 0x17BA JUMP JUMPDEST PUSH1 0x40 MLOAD DUP1 SWAP2 SUB SWAP1 RETURN JUMPDEST CALLVALUE DUP1 ISZERO PUSH2 0x371 JUMPI PUSH0 DUP1 REVERT JUMPDEST POP PUSH2 0x38C PUSH1 0x4 DUP1 CALLDATASIZE SUB DUP2 ADD SWAP1 PUSH2 0x387 SWAP2 SWAP1 PUSH2 0x16D0 JUMP JUMPDEST PUSH2 0xF18 JUMP JUMPDEST PUSH1 0x40 MLOAD PUSH2 0x399 SWAP2 SWAP1 PUSH2 0x1578 JUMP JUMPDEST PUSH1 0x40 MLOAD DUP1 SWAP2 SUB SWAP1 RETURN JUMPDEST CALLVALUE DUP1 ISZERO PUSH2 0x3AD JUMPI PUSH0 DUP1 REVERT JUMPDEST POP PUSH2 0x3B6 PUSH2 0xF35 JUMP JUMPDEST STOP JUMPDEST CALLVALUE DUP1 ISZERO PUSH2 0x3C3 JUMPI PUSH0 DUP1 REVERT JUMPDEST POP PUSH2 0x3CC PUSH2 0x11FF JUMP JUMPDEST STOP JUMPDEST CALLVALUE DUP1 ISZERO PUSH2 0x3D9 JUMPI PUSH0 DUP1 REVERT JUMPDEST POP PUSH2 0x3E2 PUSH2 0x131B JUMP JUMPDEST PUSH1 0x40 MLOAD PUSH2 0x3EF SWAP2 SWAP1 PUSH2 0x17E9 JUMP JUMPDEST PUSH1 0x40 MLOAD DUP1 SWAP2 SUB SWAP1 RETURN JUMPDEST CALLVALUE DUP1 ISZERO PUSH2 0x403 JUMPI PUSH0 DUP1 REVERT JUMPDEST POP PUSH2 0x40C PUSH2 0x133E JUMP JUMPDEST PUSH1 0x40 MLOAD PUSH2 0x419 SWAP2 SWAP1 PUSH2 0x1578 JUMP JUMPDEST PUSH1 0x40 MLOAD DUP1 SWAP2 SUB SWAP1 RETURN JUMPDEST CALLVALUE DUP1 ISZERO PUSH2 0x42D JUMPI PUSH0 DUP1 REVERT JUMPDEST POP PUSH2 0x448 PUSH1 0x4 DUP1 CALLDATASIZE SUB DUP2 ADD SWAP1 PUSH2 0x443 SWAP2 SWAP1 PUSH2 0x16D0 JUMP JUMPDEST PUSH2 0x1351 JUMP JUMPDEST PUSH1 0x40 MLOAD PUSH2 0x455 SWAP2 SWAP1 PUSH2 0x1578 JUMP JUMPDEST PUSH1 0x40 MLOAD DUP1 SWAP2 SUB SWAP1 RETURN JUMPDEST CALLVALUE DUP1 ISZERO PUSH2 0x469 JUMPI PUSH0 DUP1 REVERT JUMPDEST POP PUSH2 0x472 PUSH2 0x136E JUMP JUMPDEST PUSH1 0x40 MLOAD PUSH2 0x47F SWAP2 SWAP1 PUSH2 0x17BA JUMP JUMPDEST PUSH1 0x40 MLOAD DUP1 SWAP2 SUB SWAP1 RETURN JUMPDEST CALLVALUE DUP1 ISZERO PUSH2 0x493 JUMPI PUSH0 DUP1 REVERT JUMPDEST POP PUSH2 0x4AE PUSH1 0x4 DUP1 CALLDATASIZE SUB DUP2 ADD SWAP1 PUSH2 0x4A9 SWAP2 SWAP1 PUSH2 0x182C JUMP JUMPDEST PUSH2 0x13FA JUMP JUMPDEST STOP JUMPDEST CALLVALUE DUP1 ISZERO PUSH2 0x4BB JUMPI PUSH0 DUP1 REVERT JUMPDEST POP PUSH2 0x4C4 PUSH2 0x14C4 JUMP JUMPDEST PUSH1 0x40 MLOAD PUSH2 0x4D1 SWAP2 SWAP1 PUSH2 0x1578 JUMP JUMPDEST PUSH1 0x40 MLOAD DUP1 SWAP2 SUB SWAP1 RETURN JUMPDEST CALLVALUE DUP1 ISZERO PUSH2 0x4E5 JUMPI PUSH0 DUP1 REVERT JUMPDEST POP PUSH2 0x500 PUSH1 0x4 DUP1 CALLDATASIZE SUB DUP2 ADD SWAP1 PUSH2 0x4FB SWAP2 SWAP1 PUSH2 0x16D0 JUMP JUMPDEST PUSH2 0x14D7 JUMP JUMPDEST PUSH1 0x40 MLOAD PUSH2 0x50D SWAP2 SWAP1 PUSH2 0x1578 JUMP JUMPDEST PUSH1 0x40 MLOAD DUP1 SWAP2 SUB SWAP1 RETURN JUMPDEST PUSH1 0x4 PUSH0 SWAP1 SLOAD SWAP1 PUSH2 0x100 EXP SWAP1 DIV PUSH6 0xFFFFFFFFFFFF AND DUP2 JUMP JUMPDEST PUSH1 0x9 SLOAD DUP2 JUMP JUMPDEST PUSH1 0xA PUSH0 SWAP1 SLOAD SWAP1 PUSH2 0x100 EXP SWAP1 DIV PUSH1 0xFF AND DUP2 JUMP JUMPDEST PUSH1 0x2 PUSH1 0x6 SWAP1 SLOAD SWAP1 PUSH2 0x100 EXP SWAP1 DIV PUSH4 0xFFFFFFFF AND DUP2 JUMP JUMPDEST PUSH0 DUP1 SLOAD SWAP1 PUSH2 0x100 EXP SWAP1 DIV PUSH20 0xFFFFFFFFFFFFFFFFFFFFFFFFFFFFFFFFFFFFFFFF AND PUSH20 0xFFFFFFFFFFFFFFFFFFFFFFFFFFFFFFFFFFFFFFFF AND CALLER PUSH20 0xFFFFFFFFFFFFFFFFFFFFFFFFFFFFFFFFFFFFFFFF AND EQ PUSH2 0x5B1 JUMPI PUSH0 DUP1 REVERT JUMPDEST PUSH0 CALLVALUE GT PUSH2 0x5F3 JUMPI PUSH1 0x40 MLOAD PUSH32 0x8C379A000000000000000000000000000000000000000000000000000000000 DUP2 MSTORE PUSH1 0x4 ADD PUSH2 0x5EA SWAP1 PUSH2 0x18C7 JUMP JUMPDEST PUSH1 0x40 MLOAD DUP1 SWAP2 SUB SWAP1 REVERT JUMPDEST PUSH0 PUSH1 0x9 SLOAD EQ PUSH2 0x637 JUMPI PUSH1 0x40 MLOAD PUSH32 0x8C379A000000000000000000000000000000000000000000000000000000000 DUP2 MSTORE PUSH1 0x4 ADD PUSH2 0x62E SWAP1 PUSH2 0x192F JUMP JUMPDEST PUSH1 0x40 MLOAD DUP1 SWAP2 SUB SWAP1 REVERT JUMPDEST PUSH1 0x8 PUSH0 SWAP1 SLOAD SWAP1 PUSH2 0x100 EXP SWAP1 DIV PUSH2 0xFFFF AND PUSH2 0xFFFF AND DUP2 PUSH2 0x656 SWAP2 SWAP1 PUSH2 0x19A7 JUMP JUMPDEST PUSH1 0x9 DUP2 SWAP1 SSTORE POP PUSH1 0x1 PUSH1 0xA PUSH0 PUSH2 0x100 EXP DUP2 SLOAD DUP2 PUSH1 0xFF MUL NOT AND SWAP1 DUP4 ISZERO ISZERO MUL OR SWAP1 SSTORE POP POP JUMP JUMPDEST PUSH0 DUP1 SLOAD SWAP1 PUSH2 0x100 EXP SWAP1 DIV PUSH20 0xFFFFFFFFFFFFFFFFFFFFFFFFFFFFFFFFFFFFFFFF AND PUSH20 0xFFFFFFFFFFFFFFFFFFFFFFFFFFFFFFFFFFFFFFFF AND CALLER PUSH20 0xFFFFFFFFFFFFFFFFFFFFFFFFFFFFFFFFFFFFFFFF AND EQ PUSH2 0x6CF JUMPI PUSH0 DUP1 REVERT JUMPDEST PUSH0 PUSH1 0x8 PUSH0 SWAP1 SLOAD SWAP1 PUSH2 0x100 EXP SWAP1 DIV PUSH2 0xFFFF AND PUSH2 0xFFFF AND EQ PUSH2 0x724 JUMPI PUSH1 0x40 MLOAD PUSH32 0x8C379A000000000000000000000000000000000000000000000000000000000 DUP2 MSTORE PUSH1 0x4 ADD PUSH2 0x71B SWAP1 PUSH2 0x1A47 JUMP JUMPDEST PUSH1 0x40 MLOAD DUP1 SWAP2 SUB SWAP1 REVERT JUMPDEST DUP1 PUSH1 0x2 DUP1 PUSH2 0x100 EXP DUP2 SLOAD DUP2 PUSH4 0xFFFFFFFF MUL NOT AND SWAP1 DUP4 PUSH4 0xFFFFFFFF AND MUL OR SWAP1 SSTORE POP POP JUMP JUMPDEST PUSH1 0x5 PUSH1 0x20 MSTORE DUP1 PUSH0 MSTORE PUSH1 0x40 PUSH0 KECCAK256 PUSH0 SWAP2 POP SLOAD SWAP1 PUSH2 0x100 EXP SWAP1 DIV PUSH1 0xFF AND DUP2 JUMP JUMPDEST PUSH1 0x8 PUSH0 SWAP1 SLOAD SWAP1 PUSH2 0x100 EXP SWAP1 DIV PUSH2 0xFFFF AND DUP2 JUMP JUMPDEST PUSH1 0x2 DUP1 SLOAD SWAP1 PUSH2 0x100 EXP SWAP1 DIV PUSH4 0xFFFFFFFF AND DUP2 JUMP JUMPDEST PUSH0 DUP1 SLOAD SWAP1 PUSH2 0x100 EXP SWAP1 DIV PUSH20 0xFFFFFFFFFFFFFFFFFFFFFFFFFFFFFFFFFFFFFFFF AND PUSH20 0xFFFFFFFFFFFFFFFFFFFFFFFFFFFFFFFFFFFFFFFF AND CALLER PUSH20 0xFFFFFFFFFFFFFFFFFFFFFFFFFFFFFFFFFFFFFFFF AND EQ PUSH2 0x7E1 JUMPI PUSH0 DUP1 REVERT JUMPDEST PUSH0 PUSH1 0x8 PUSH0 SWAP1 SLOAD SWAP1 PUSH2 0x100 EXP SWAP1 DIV PUSH2 0xFFFF AND PUSH2 0xFFFF AND EQ PUSH2 0x836 JUMPI PUSH1 0x40 MLOAD PUSH32 0x8C379A000000000000000000000000000000000000000000000000000000000 DUP2 MSTORE PUSH1 0x4 ADD PUSH2 0x82D SWAP1 PUSH2 0x1AD5 JUMP JUMPDEST PUSH1 0x40 MLOAD DUP1 SWAP2 SUB SWAP1 REVERT JUMPDEST PUSH1 0x1 PUSH1 0xB PUSH0 DUP4 PUSH20 0xFFFFFFFFFFFFFFFFFFFFFFFFFFFFFFFFFFFFFFFF AND PUSH20 0xFFFFFFFFFFFFFFFFFFFFFFFFFFFFFFFFFFFFFFFF AND DUP2 MSTORE PUSH1 0x20 ADD SWAP1 DUP2 MSTORE PUSH1 0x20 ADD PUSH0 KECCAK256 PUSH0 PUSH2 0x100 EXP DUP2 SLOAD DUP2 PUSH1 0xFF MUL NOT AND SWAP1 DUP4 ISZERO ISZERO MUL OR SWAP1 SSTORE POP POP JUMP JUMPDEST PUSH0 PUSH1 0x2 PUSH1 0x6 SWAP1 SLOAD SWAP1 PUSH2 0x100 EXP SWAP1 DIV PUSH4 0xFFFFFFFF AND PUSH4 0xFFFFFFFF AND GT PUSH2 0x8E8 JUMPI PUSH1 0x40 MLOAD PUSH32 0x8C379A000000000000000000000000000000000000000000000000000000000 DUP2 MSTORE PUSH1 0x4 ADD PUSH2 0x8DF SWAP1 PUSH2 0x1B3D JUMP JUMPDEST PUSH1 0x40 MLOAD DUP1 SWAP2 SUB SWAP1 REVERT JUMPDEST PUSH1 0x2 PUSH1 0x6 SWAP1 SLOAD SWAP1 PUSH2 0x100 EXP SWAP1 DIV PUSH4 0xFFFFFFFF AND PUSH4 0xFFFFFFFF AND CALLVALUE LT ISZERO PUSH2 0x943 JUMPI PUSH1 0x40 MLOAD PUSH32 0x8C379A000000000000000000000000000000000000000000000000000000000 DUP2 MSTORE PUSH1 0x4 ADD PUSH2 0x93A SWAP1 PUSH2 0x1BA5 JUMP JUMPDEST PUSH1 0x40 MLOAD DUP1 SWAP2 SUB SWAP1 REVERT JUMPDEST PUSH1 0x5 PUSH0 CALLER PUSH20 0xFFFFFFFFFFFFFFFFFFFFFFFFFFFFFFFFFFFFFFFF AND PUSH20 0xFFFFFFFFFFFFFFFFFFFFFFFFFFFFFFFFFFFFFFFF AND DUP2 MSTORE PUSH1 0x20 ADD SWAP1 DUP2 MSTORE PUSH1 0x20 ADD PUSH0 KECCAK256 PUSH0 SWAP1 SLOAD SWAP1 PUSH2 0x100 EXP SWAP1 DIV PUSH1 0xFF AND ISZERO PUSH2 0x9CD JUMPI PUSH1 0x40 MLOAD PUSH32 0x8C379A000000000000000000000000000000000000000000000000000000000 DUP2 MSTORE PUSH1 0x4 ADD PUSH2 0x9C4 SWAP1 PUSH2 0x1C33 JUMP JUMPDEST PUSH1 0x40 MLOAD DUP1 SWAP2 SUB SWAP1 REVERT JUMPDEST PUSH1 0x2 PUSH0 SWAP1 SLOAD SWAP1 PUSH2 0x100 EXP SWAP1 DIV PUSH2 0xFFFF AND PUSH2 0xFFFF AND PUSH1 0x8 PUSH0 SWAP1 SLOAD SWAP1 PUSH2 0x100 EXP SWAP1 DIV PUSH2 0xFFFF AND PUSH2 0xFFFF AND LT PUSH2 0xA35 JUMPI PUSH1 0x40 MLOAD PUSH32 0x8C379A000000000000000000000000000000000000000000000000000000000 DUP2 MSTORE PUSH1 0x4 ADD PUSH2 0xA2C SWAP1 PUSH2 0x1C9B JUMP JUMPDEST PUSH1 0x40 MLOAD DUP1 SWAP2 SUB SWAP1 REVERT JUMPDEST PUSH0 PUSH1 0x9 SLOAD EQ PUSH2 0xA79 JUMPI PUSH1 0x40 MLOAD PUSH32 0x8C379A000000000000000000000000000000000000000000000000000000000 DUP2 MSTORE PUSH1 0x4 ADD PUSH2 0xA70 SWAP1 PUSH2 0x1D03 JUMP JUMPDEST PUSH1 0x40 MLOAD DUP1 SWAP2 SUB SWAP1 REVERT JUMPDEST PUSH1 0xA PUSH1 0x1 SWAP1 SLOAD SWAP1 PUSH2 0x100 EXP SWAP1 DIV PUSH1 0xFF AND ISZERO PUSH2 0xAE1 JUMPI PUSH1 0xB PUSH0 CALLER PUSH20 0xFFFFFFFFFFFFFFFFFFFFFFFFFFFFFFFFFFFFFFFF AND PUSH20 0xFFFFFFFFFFFFFFFFFFFFFFFFFFFFFFFFFFFFFFFF AND DUP2 MSTORE PUSH1 0x20 ADD SWAP1 DUP2 MSTORE PUSH1 0x20 ADD PUSH0 KECCAK256 PUSH0 SWAP1 SLOAD SWAP1 PUSH2 0x100 EXP SWAP1 DIV PUSH1 0xFF AND PUSH2 0xAE0 JUMPI PUSH0 DUP1 REVERT JUMPDEST JUMPDEST PUSH0 PUSH1 0x2 PUSH1 0x6 SWAP1 SLOAD SWAP1 PUSH2 0x100 EXP SWAP1 DIV PUSH4 0xFFFFFFFF AND PUSH4 0xFFFFFFFF AND CALLVALUE PUSH2 0xB06 SWAP2 SWAP1 PUSH2 0x1D21 JUMP JUMPDEST SWAP1 POP PUSH1 0x1 PUSH1 0x5 PUSH0 CALLER PUSH20 0xFFFFFFFFFFFFFFFFFFFFFFFFFFFFFFFFFFFFFFFF AND PUSH20 0xFFFFFFFFFFFFFFFFFFFFFFFFFFFFFFFFFFFFFFFF AND DUP2 MSTORE PUSH1 0x20 ADD SWAP1 DUP2 MSTORE PUSH1 0x20 ADD PUSH0 KECCAK256 PUSH0 PUSH2 0x100 EXP DUP2 SLOAD DUP2 PUSH1 0xFF MUL NOT AND SWAP1 DUP4 ISZERO ISZERO MUL OR SWAP1 SSTORE POP PUSH1 0x8 PUSH0 DUP2 DUP2 SWAP1 SLOAD SWAP1 PUSH2 0x100 EXP SWAP1 DIV PUSH2 0xFFFF AND DUP1 SWAP3 SWAP2 SWAP1 PUSH2 0xB7C SWAP1 PUSH2 0x1D54 JUMP JUMPDEST SWAP2 SWAP1 PUSH2 0x100 EXP DUP2 SLOAD DUP2 PUSH2 0xFFFF MUL NOT AND SWAP1 DUP4 PUSH2 0xFFFF AND MUL OR SWAP1 SSTORE POP POP PUSH0 DUP2 GT ISZERO PUSH2 0xBE4 JUMPI CALLER PUSH20 0xFFFFFFFFFFFFFFFFFFFFFFFFFFFFFFFFFFFFFFFF AND PUSH2 0x8FC DUP3 SWAP1 DUP2 ISZERO MUL SWAP1 PUSH1 0x40 MLOAD PUSH0 PUSH1 0x40 MLOAD DUP1 DUP4 SUB DUP2 DUP6 DUP9 DUP9 CALL SWAP4 POP POP POP POP ISZERO DUP1 ISZERO PUSH2 0xBE2 JUMPI RETURNDATASIZE PUSH0 DUP1 RETURNDATACOPY RETURNDATASIZE PUSH0 REVERT JUMPDEST POP JUMPDEST POP JUMP JUMPDEST PUSH1 0x2 PUSH0 SWAP1 SLOAD SWAP1 PUSH2 0x100 EXP SWAP1 DIV PUSH2 0xFFFF AND DUP2 JUMP JUMPDEST PUSH1 0x5 PUSH0 CALLER PUSH20 0xFFFFFFFFFFFFFFFFFFFFFFFFFFFFFFFFFFFFFFFF AND PUSH20 0xFFFFFFFFFFFFFFFFFFFFFFFFFFFFFFFFFFFFFFFF AND DUP2 MSTORE PUSH1 0x20 ADD SWAP1 DUP2 MSTORE PUSH1 0x20 ADD PUSH0 KECCAK256 PUSH0 SWAP1 SLOAD SWAP1 PUSH2 0x100 EXP SWAP1 DIV PUSH1 0xFF AND PUSH2 0xC4C JUMPI PUSH0 DUP1 REVERT JUMPDEST PUSH1 0xC PUSH0 SWAP1 SLOAD SWAP1 PUSH2 0x100 EXP SWAP1 DIV PUSH1 0xFF AND ISZERO PUSH2 0xC9B JUMPI PUSH1 0x40 MLOAD PUSH32 0x8C379A000000000000000000000000000000000000000000000000000000000 DUP2 MSTORE PUSH1 0x4 ADD PUSH2 0xC92 SWAP1 PUSH2 0x1DC7 JUMP JUMPDEST PUSH1 0x40 MLOAD DUP1 SWAP2 SUB SWAP1 REVERT JUMPDEST PUSH1 0x1 PUSH1 0xC PUSH0 PUSH2 0x100 EXP DUP2 SLOAD DUP2 PUSH1 0xFF MUL NOT AND SWAP1 DUP4 ISZERO ISZERO MUL OR SWAP1 SSTORE POP PUSH1 0xA PUSH0 SWAP1 SLOAD SWAP1 PUSH2 0x100 EXP SWAP1 DIV PUSH1 0xFF AND PUSH2 0xD03 JUMPI PUSH1 0x40 MLOAD PUSH32 0x8C379A000000000000000000000000000000000000000000000000000000000 DUP2 MSTORE PUSH1 0x4 ADD PUSH2 0xCFA SWAP1 PUSH2 0x1E55 JUMP JUMPDEST PUSH1 0x40 MLOAD DUP1 SWAP2 SUB SWAP1 REVERT JUMPDEST PUSH0 PUSH1 0x9 SLOAD GT PUSH2 0xD47 JUMPI PUSH1 0x40 MLOAD PUSH32 0x8C379A000000000000000000000000000000000000000000000000000000000 DUP2 MSTORE PUSH1 0x4 ADD PUSH2 0xD3E SWAP1 PUSH2 0x1EE3 JUMP JUMPDEST PUSH1 0x40 MLOAD DUP1 SWAP2 SUB SWAP1 REVERT JUMPDEST PUSH1 0x6 PUSH0 CALLER PUSH20 0xFFFFFFFFFFFFFFFFFFFFFFFFFFFFFFFFFFFFFFFF AND PUSH20 0xFFFFFFFFFFFFFFFFFFFFFFFFFFFFFFFFFFFFFFFF AND DUP2 MSTORE PUSH1 0x20 ADD SWAP1 DUP2 MSTORE PUSH1 0x20 ADD PUSH0 KECCAK256 PUSH0 SWAP1 SLOAD SWAP1 PUSH2 0x100 EXP SWAP1 DIV PUSH1 0xFF AND ISZERO PUSH2 0xDD1 JUMPI PUSH1 0x40 MLOAD PUSH32 0x8C379A000000000000000000000000000000000000000000000000000000000 DUP2 MSTORE PUSH1 0x4 ADD PUSH2 0xDC8 SWAP1 PUSH2 0x1F4B JUMP JUMPDEST PUSH1 0x40 MLOAD DUP1 SWAP2 SUB SWAP1 REVERT JUMPDEST PUSH1 0x1 PUSH1 0x6 PUSH0 CALLER PUSH20 0xFFFFFFFFFFFFFFFFFFFFFFFFFFFFFFFFFFFFFFFF AND PUSH20 0xFFFFFFFFFFFFFFFFFFFFFFFFFFFFFFFFFFFFFFFF AND DUP2 MSTORE PUSH1 0x20 ADD SWAP1 DUP2 MSTORE PUSH1 0x20 ADD PUSH0 KECCAK256 PUSH0 PUSH2 0x100 EXP DUP2 SLOAD DUP2 PUSH1 0xFF MUL NOT AND SWAP1 DUP4 ISZERO ISZERO MUL OR SWAP1 SSTORE POP PUSH0 PUSH1 0x9 SLOAD SWAP1 POP CALLER PUSH20 0xFFFFFFFFFFFFFFFFFFFFFFFFFFFFFFFFFFFFFFFF AND PUSH2 0x8FC DUP3 SWAP1 DUP2 ISZERO MUL SWAP1 PUSH1 0x40 MLOAD PUSH0 PUSH1 0x40 MLOAD DUP1 DUP4 SUB DUP2 DUP6 DUP9 DUP9 CALL SWAP4 POP POP POP POP ISZERO DUP1 ISZERO PUSH2 0xE6F JUMPI RETURNDATASIZE PUSH0 DUP1 RETURNDATACOPY RETURNDATASIZE PUSH0 REVERT JUMPDEST POP POP PUSH0 PUSH1 0xC PUSH0 PUSH2 0x100 EXP DUP2 SLOAD DUP2 PUSH1 0xFF MUL NOT AND SWAP1 DUP4 ISZERO ISZERO MUL OR SWAP1 SSTORE POP JUMP JUMPDEST PUSH1 0x3 DUP1 SLOAD PUSH2 0xE99 SWAP1 PUSH2 0x1F96 JUMP JUMPDEST DUP1 PUSH1 0x1F ADD PUSH1 0x20 DUP1 SWAP2 DIV MUL PUSH1 0x20 ADD PUSH1 0x40 MLOAD SWAP1 DUP2 ADD PUSH1 0x40 MSTORE DUP1 SWAP3 SWAP2 SWAP1 DUP2 DUP2 MSTORE PUSH1 0x20 ADD DUP3 DUP1 SLOAD PUSH2 0xEC5 SWAP1 PUSH2 0x1F96 JUMP JUMPDEST DUP1 ISZERO PUSH2 0xF10 JUMPI DUP1 PUSH1 0x1F LT PUSH2 0xEE7 JUMPI PUSH2 0x100 DUP1 DUP4 SLOAD DIV MUL DUP4 MSTORE SWAP2 PUSH1 0x20 ADD SWAP2 PUSH2 0xF10 JUMP JUMPDEST DUP3 ADD SWAP2 SWAP1 PUSH0 MSTORE PUSH1 0x20 PUSH0 KECCAK256 SWAP1 JUMPDEST DUP2 SLOAD DUP2 MSTORE SWAP1 PUSH1 0x1 ADD SWAP1 PUSH1 0x20 ADD DUP1 DUP4 GT PUSH2 0xEF3 JUMPI DUP3 SWAP1 SUB PUSH1 0x1F AND DUP3 ADD SWAP2 JUMPDEST POP POP POP POP POP DUP2 JUMP JUMPDEST PUSH1 0x6 PUSH1 0x20 MSTORE DUP1 PUSH0 MSTORE PUSH1 0x40 PUSH0 KECCAK256 PUSH0 SWAP2 POP SLOAD SWAP1 PUSH2 0x100 EXP SWAP1 DIV PUSH1 0xFF AND DUP2 JUMP JUMPDEST PUSH1 0x5 PUSH0 CALLER PUSH20 0xFFFFFFFFFFFFFFFFFFFFFFFFFFFFFFFFFFFFFFFF AND PUSH20 0xFFFFFFFFFFFFFFFFFFFFFFFFFFFFFFFFFFFFFFFF AND DUP2 MSTORE PUSH1 0x20 ADD SWAP1 DUP2 MSTORE PUSH1 0x20 ADD PUSH0 KECCAK256 PUSH0 SWAP1 SLOAD SWAP1 PUSH2 0x100 EXP SWAP1 DIV PUSH1 0xFF AND PUSH2 0xF87 JUMPI PUSH0 DUP1 REVERT JUMPDEST PUSH1 0xC PUSH0 SWAP1 SLOAD SWAP1 PUSH2 0x100 EXP SWAP1 DIV PUSH1 0xFF AND ISZERO PUSH2 0xFD6 JUMPI PUSH1 0x40 MLOAD PUSH32 0x8C379A000000000000000000000000000000000000000000000000000000000 DUP2 MSTORE PUSH1 0x4 ADD PUSH2 0xFCD SWAP1 PUSH2 0x1DC7 JUMP JUMPDEST PUSH1 0x40 MLOAD DUP1 SWAP2 SUB SWAP1 REVERT JUMPDEST PUSH1 0x1 PUSH1 0xC PUSH0 PUSH2 0x100 EXP DUP2 SLOAD DUP2 PUSH1 0xFF MUL NOT AND SWAP1 DUP4 ISZERO ISZERO MUL OR SWAP1 SSTORE POP PUSH1 0xC PUSH1 0x1 SWAP1 SLOAD SWAP1 PUSH2 0x100 EXP SWAP1 DIV PUSH1 0xFF AND PUSH2 0x103F JUMPI PUSH1 0x40 MLOAD PUSH32 0x8C379A000000000000000000000000000000000000000000000000000000000 DUP2 MSTORE PUSH1 0x4 ADD PUSH2 0x1036 SWAP1 PUSH2 0x2036 JUMP JUMPDEST PUSH1 0x40 MLOAD DUP1 SWAP2 SUB SWAP1 REVERT JUMPDEST PUSH1 0x7 PUSH0 CALLER PUSH20 0xFFFFFFFFFFFFFFFFFFFFFFFFFFFFFFFFFFFFFFFF AND PUSH20 0xFFFFFFFFFFFFFFFFFFFFFFFFFFFFFFFFFFFFFFFF AND DUP2 MSTORE PUSH1 0x20 ADD SWAP1 DUP2 MSTORE PUSH1 0x20 ADD PUSH0 KECCAK256 PUSH0 SWAP1 SLOAD SWAP1 PUSH2 0x100 EXP SWAP1 DIV PUSH1 0xFF AND ISZERO PUSH2 0x10C9 JUMPI PUSH1 0x40 MLOAD PUSH32 0x8C379A000000000000000000000000000000000000000000000000000000000 DUP2 MSTORE PUSH1 0x4 ADD PUSH2 0x10C0 SWAP1 PUSH2 0x20C4 JUMP JUMPDEST PUSH1 0x40 MLOAD DUP1 SWAP2 SUB SWAP1 REVERT JUMPDEST PUSH1 0x1 PUSH1 0x7 PUSH0 CALLER PUSH20 0xFFFFFFFFFFFFFFFFFFFFFFFFFFFFFFFFFFFFFFFF AND PUSH20 0xFFFFFFFFFFFFFFFFFFFFFFFFFFFFFFFFFFFFFFFF AND DUP2 MSTORE PUSH1 0x20 ADD SWAP1 DUP2 MSTORE PUSH1 0x20 ADD PUSH0 KECCAK256 PUSH0 PUSH2 0x100 EXP DUP2 SLOAD DUP2 PUSH1 0xFF MUL NOT AND SWAP1 DUP4 ISZERO ISZERO MUL OR SWAP1 SSTORE POP PUSH0 PUSH1 0x2 PUSH1 0x6 SWAP1 SLOAD SWAP1 PUSH2 0x100 EXP SWAP1 DIV PUSH4 0xFFFFFFFF AND PUSH4 0xFFFFFFFF AND SWAP1 POP PUSH0 CALLER PUSH20 0xFFFFFFFFFFFFFFFFFFFFFFFFFFFFFFFFFFFFFFFF AND DUP3 PUSH1 0x40 MLOAD PUSH2 0x115F SWAP1 PUSH2 0x210F JUMP JUMPDEST PUSH0 PUSH1 0x40 MLOAD DUP1 DUP4 SUB DUP2 DUP6 DUP8 GAS CALL SWAP3 POP POP POP RETURNDATASIZE DUP1 PUSH0 DUP2 EQ PUSH2 0x1199 JUMPI PUSH1 0x40 MLOAD SWAP2 POP PUSH1 0x1F NOT PUSH1 0x3F RETURNDATASIZE ADD AND DUP3 ADD PUSH1 0x40 MSTORE RETURNDATASIZE DUP3 MSTORE RETURNDATASIZE PUSH0 PUSH1 0x20 DUP5 ADD RETURNDATACOPY PUSH2 0x119E JUMP JUMPDEST PUSH1 0x60 SWAP2 POP JUMPDEST POP POP SWAP1 POP DUP1 PUSH2 0x11E2 JUMPI PUSH1 0x40 MLOAD PUSH32 0x8C379A000000000000000000000000000000000000000000000000000000000 DUP2 MSTORE PUSH1 0x4 ADD PUSH2 0x11D9 SWAP1 PUSH2 0x2193 JUMP JUMPDEST PUSH1 0x40 MLOAD DUP1 SWAP2 SUB SWAP1 REVERT JUMPDEST POP POP PUSH0 PUSH1 0xC PUSH0 PUSH2 0x100 EXP DUP2 SLOAD DUP2 PUSH1 0xFF MUL NOT AND SWAP1 DUP4 ISZERO ISZERO MUL OR SWAP1 SSTORE POP JUMP JUMPDEST PUSH0 DUP1 SLOAD SWAP1 PUSH2 0x100 EXP SWAP1 DIV PUSH20 0xFFFFFFFFFFFFFFFFFFFFFFFFFFFFFFFFFFFFFFFF AND PUSH20 0xFFFFFFFFFFFFFFFFFFFFFFFFFFFFFFFFFFFFFFFF AND CALLER PUSH20 0xFFFFFFFFFFFFFFFFFFFFFFFFFFFFFFFFFFFFFFFF AND EQ PUSH2 0x1255 JUMPI PUSH0 DUP1 REVERT JUMPDEST PUSH0 ISZERO ISZERO PUSH1 0xA PUSH0 SWAP1 SLOAD SWAP1 PUSH2 0x100 EXP SWAP1 DIV PUSH1 0xFF AND ISZERO ISZERO EQ PUSH2 0x12A9 JUMPI PUSH1 0x40 MLOAD PUSH32 0x8C379A000000000000000000000000000000000000000000000000000000000 DUP2 MSTORE PUSH1 0x4 ADD PUSH2 0x12A0 SWAP1 PUSH2 0x2221 JUMP JUMPDEST PUSH1 0x40 MLOAD DUP1 SWAP2 SUB SWAP1 REVERT JUMPDEST PUSH0 ISZERO ISZERO PUSH1 0xC PUSH1 0x1 SWAP1 SLOAD SWAP1 PUSH2 0x100 EXP SWAP1 DIV PUSH1 0xFF AND ISZERO ISZERO EQ PUSH2 0x12FE JUMPI PUSH1 0x40 MLOAD PUSH32 0x8C379A000000000000000000000000000000000000000000000000000000000 DUP2 MSTORE PUSH1 0x4 ADD PUSH2 0x12F5 SWAP1 PUSH2 0x2289 JUMP JUMPDEST PUSH1 0x40 MLOAD DUP1 SWAP2 SUB SWAP1 REVERT JUMPDEST PUSH1 0x1 PUSH1 0xC PUSH1 0x1 PUSH2 0x100 EXP DUP2 SLOAD DUP2 PUSH1 0xFF MUL NOT AND SWAP1 DUP4 ISZERO ISZERO MUL OR SWAP1 SSTORE POP JUMP JUMPDEST PUSH0 DUP1 SLOAD SWAP1 PUSH2 0x100 EXP SWAP1 DIV PUSH20 0xFFFFFFFFFFFFFFFFFFFFFFFFFFFFFFFFFFFFFFFF AND DUP2 JUMP JUMPDEST PUSH1 0xA PUSH1 0x1 SWAP1 SLOAD SWAP1 PUSH2 0x100 EXP SWAP1 DIV PUSH1 0xFF AND DUP2 JUMP JUMPDEST PUSH1 0x7 PUSH1 0x20 MSTORE DUP1 PUSH0 MSTORE PUSH1 0x40 PUSH0 KECCAK256 PUSH0 SWAP2 POP SLOAD SWAP1 PUSH2 0x100 EXP SWAP1 DIV PUSH1 0xFF AND DUP2 JUMP JUMPDEST PUSH1 0x1 DUP1 SLOAD PUSH2 0x137B SWAP1 PUSH2 0x1F96 JUMP JUMPDEST DUP1 PUSH1 0x1F ADD PUSH1 0x20 DUP1 SWAP2 DIV MUL PUSH1 0x20 ADD PUSH1 0x40 MLOAD SWAP1 DUP2 ADD PUSH1 0x40 MSTORE DUP1 SWAP3 SWAP2 SWAP1 DUP2 DUP2 MSTORE PUSH1 0x20 ADD DUP3 DUP1 SLOAD PUSH2 0x13A7 SWAP1 PUSH2 0x1F96 JUMP JUMPDEST DUP1 ISZERO PUSH2 0x13F2 JUMPI DUP1 PUSH1 0x1F LT PUSH2 0x13C9 JUMPI PUSH2 0x100 DUP1 DUP4 SLOAD DIV MUL DUP4 MSTORE SWAP2 PUSH1 0x20 ADD SWAP2 PUSH2 0x13F2 JUMP JUMPDEST DUP3 ADD SWAP2 SWAP1 PUSH0 MSTORE PUSH1 0x20 PUSH0 KECCAK256 SWAP1 JUMPDEST DUP2 SLOAD DUP2 MSTORE SWAP1 PUSH1 0x1 ADD SWAP1 PUSH1 0x20 ADD DUP1 DUP4 GT PUSH2 0x13D5 JUMPI DUP3 SWAP1 SUB PUSH1 0x1F AND DUP3 ADD SWAP2 JUMPDEST POP POP POP POP POP DUP2 JUMP JUMPDEST PUSH0 DUP1 SLOAD SWAP1 PUSH2 0x100 EXP SWAP1 DIV PUSH20 0xFFFFFFFFFFFFFFFFFFFFFFFFFFFFFFFFFFFFFFFF AND PUSH20 0xFFFFFFFFFFFFFFFFFFFFFFFFFFFFFFFFFFFFFFFF AND CALLER PUSH20 0xFFFFFFFFFFFFFFFFFFFFFFFFFFFFFFFFFFFFFFFF AND EQ PUSH2 0x1450 JUMPI PUSH0 DUP1 REVERT JUMPDEST PUSH0 PUSH1 0x8 PUSH0 SWAP1 SLOAD SWAP1 PUSH2 0x100 EXP SWAP1 DIV PUSH2 0xFFFF AND PUSH2 0xFFFF AND EQ PUSH2 0x14A5 JUMPI PUSH1 0x40 MLOAD PUSH32 0x8C379A000000000000000000000000000000000000000000000000000000000 DUP2 MSTORE PUSH1 0x4 ADD PUSH2 0x149C SWAP1 PUSH2 0x233D JUMP JUMPDEST PUSH1 0x40 MLOAD DUP1 SWAP2 SUB SWAP1 REVERT JUMPDEST DUP1 PUSH1 0x2 PUSH0 PUSH2 0x100 EXP DUP2 SLOAD DUP2 PUSH2 0xFFFF MUL NOT AND SWAP1 DUP4 PUSH2 0xFFFF AND MUL OR SWAP1 SSTORE POP POP JUMP JUMPDEST PUSH1 0xC PUSH1 0x1 SWAP1 SLOAD SWAP1 PUSH2 0x100 EXP SWAP1 DIV PUSH1 0xFF AND DUP2 JUMP JUMPDEST PUSH1 0xB PUSH1 0x20 MSTORE DUP1 PUSH0 MSTORE PUSH1 0x40 PUSH0 KECCAK256 PUSH0 SWAP2 POP SLOAD SWAP1 PUSH2 0x100 EXP SWAP1 DIV PUSH1 0xFF AND DUP2 JUMP JUMPDEST PUSH0 PUSH6 0xFFFFFFFFFFFF DUP3 AND SWAP1 POP SWAP2 SWAP1 POP JUMP JUMPDEST PUSH2 0x150E DUP2 PUSH2 0x14F4 JUMP JUMPDEST DUP3 MSTORE POP POP JUMP JUMPDEST PUSH0 PUSH1 0x20 DUP3 ADD SWAP1 POP PUSH2 0x1527 PUSH0 DUP4 ADD DUP5 PUSH2 0x1505 JUMP JUMPDEST SWAP3 SWAP2 POP POP JUMP JUMPDEST PUSH0 DUP2 SWAP1 POP SWAP2 SWAP1 POP JUMP JUMPDEST PUSH2 0x153F DUP2 PUSH2 0x152D JUMP JUMPDEST DUP3 MSTORE POP POP JUMP JUMPDEST PUSH0 PUSH1 0x20 DUP3 ADD SWAP1 POP PUSH2 0x1558 PUSH0 DUP4 ADD DUP5 PUSH2 0x1536 JUMP JUMPDEST SWAP3 SWAP2 POP POP JUMP JUMPDEST PUSH0 DUP2 ISZERO ISZERO SWAP1 POP SWAP2 SWAP1 POP JUMP JUMPDEST PUSH2 0x1572 DUP2 PUSH2 0x155E JUMP JUMPDEST DUP3 MSTORE POP POP JUMP JUMPDEST PUSH0 PUSH1 0x20 DUP3 ADD SWAP1 POP PUSH2 0x158B PUSH0 DUP4 ADD DUP5 PUSH2 0x1569 JUMP JUMPDEST SWAP3 SWAP2 POP POP JUMP JUMPDEST PUSH0 PUSH4 0xFFFFFFFF DUP3 AND SWAP1 POP SWAP2 SWAP1 POP JUMP JUMPDEST PUSH2 0x15A9 DUP2 PUSH2 0x1591 JUMP JUMPDEST DUP3 MSTORE POP POP JUMP JUMPDEST PUSH0 PUSH1 0x20 DUP3 ADD SWAP1 POP PUSH2 0x15C2 PUSH0 DUP4 ADD DUP5 PUSH2 0x15A0 JUMP JUMPDEST SWAP3 SWAP2 POP POP JUMP JUMPDEST PUSH0 DUP1 REVERT JUMPDEST PUSH2 0x15D5 DUP2 PUSH2 0x152D JUMP JUMPDEST DUP2 EQ PUSH2 0x15DF JUMPI PUSH0 DUP1 REVERT JUMPDEST POP JUMP JUMPDEST PUSH0 DUP2 CALLDATALOAD SWAP1 POP PUSH2 0x15F0 DUP2 PUSH2 0x15CC JUMP JUMPDEST SWAP3 SWAP2 POP POP JUMP JUMPDEST PUSH0 PUSH1 0x20 DUP3 DUP5 SUB SLT ISZERO PUSH2 0x160B JUMPI PUSH2 0x160A PUSH2 0x15C8 JUMP JUMPDEST JUMPDEST PUSH0 PUSH2 0x1618 DUP5 DUP3 DUP6 ADD PUSH2 0x15E2 JUMP JUMPDEST SWAP2 POP POP SWAP3 SWAP2 POP POP JUMP JUMPDEST PUSH2 0x162A DUP2 PUSH2 0x1591 JUMP JUMPDEST DUP2 EQ PUSH2 0x1634 JUMPI PUSH0 DUP1 REVERT JUMPDEST POP JUMP JUMPDEST PUSH0 DUP2 CALLDATALOAD SWAP1 POP PUSH2 0x1645 DUP2 PUSH2 0x1621 JUMP JUMPDEST SWAP3 SWAP2 POP POP JUMP JUMPDEST PUSH0 PUSH1 0x20 DUP3 DUP5 SUB SLT ISZERO PUSH2 0x1660 JUMPI PUSH2 0x165F PUSH2 0x15C8 JUMP JUMPDEST JUMPDEST PUSH0 PUSH2 0x166D DUP5 DUP3 DUP6 ADD PUSH2 0x1637 JUMP JUMPDEST SWAP2 POP POP SWAP3 SWAP2 POP POP JUMP JUMPDEST PUSH0 PUSH20 0xFFFFFFFFFFFFFFFFFFFFFFFFFFFFFFFFFFFFFFFF DUP3 AND SWAP1 POP SWAP2 SWAP1 POP JUMP JUMPDEST PUSH0 PUSH2 0x169F DUP3 PUSH2 0x1676 JUMP JUMPDEST SWAP1 POP SWAP2 SWAP1 POP JUMP JUMPDEST PUSH2 0x16AF DUP2 PUSH2 0x1695 JUMP JUMPDEST DUP2 EQ PUSH2 0x16B9 JUMPI PUSH0 DUP1 REVERT JUMPDEST POP JUMP JUMPDEST PUSH0 DUP2 CALLDATALOAD SWAP1 POP PUSH2 0x16CA DUP2 PUSH2 0x16A6 JUMP JUMPDEST SWAP3 SWAP2 POP POP JUMP JUMPDEST PUSH0 PUSH1 0x20 DUP3 DUP5 SUB SLT ISZERO PUSH2 0x16E5 JUMPI PUSH2 0x16E4 PUSH2 0x15C8 JUMP JUMPDEST JUMPDEST PUSH0 PUSH2 0x16F2 DUP5 DUP3 DUP6 ADD PUSH2 0x16BC JUMP JUMPDEST SWAP2 POP POP SWAP3 SWAP2 POP POP JUMP JUMPDEST PUSH0 PUSH2 0xFFFF DUP3 AND SWAP1 POP SWAP2 SWAP1 POP JUMP JUMPDEST PUSH2 0x1711 DUP2 PUSH2 0x16FB JUMP JUMPDEST DUP3 MSTORE POP POP JUMP JUMPDEST PUSH0 PUSH1 0x20 DUP3 ADD SWAP1 POP PUSH2 0x172A PUSH0 DUP4 ADD DUP5 PUSH2 0x1708 JUMP JUMPDEST SWAP3 SWAP2 POP POP JUMP JUMPDEST PUSH0 DUP2 MLOAD SWAP1 POP SWAP2 SWAP1 POP JUMP JUMPDEST PUSH0 DUP3 DUP3 MSTORE PUSH1 0x20 DUP3 ADD SWAP1 POP SWAP3 SWAP2 POP POP JUMP JUMPDEST PUSH0 JUMPDEST DUP4 DUP2 LT ISZERO PUSH2 0x1767 JUMPI DUP1 DUP3 ADD MLOAD DUP2 DUP5 ADD MSTORE PUSH1 0x20 DUP2 ADD SWAP1 POP PUSH2 0x174C JUMP JUMPDEST PUSH0 DUP5 DUP5 ADD MSTORE POP POP POP POP JUMP JUMPDEST PUSH0 PUSH1 0x1F NOT PUSH1 0x1F DUP4 ADD AND SWAP1 POP SWAP2 SWAP1 POP JUMP JUMPDEST PUSH0 PUSH2 0x178C DUP3 PUSH2 0x1730 JUMP JUMPDEST PUSH2 0x1796 DUP2 DUP6 PUSH2 0x173A JUMP JUMPDEST SWAP4 POP PUSH2 0x17A6 DUP2 DUP6 PUSH1 0x20 DUP7 ADD PUSH2 0x174A JUMP JUMPDEST PUSH2 0x17AF DUP2 PUSH2 0x1772 JUMP JUMPDEST DUP5 ADD SWAP2 POP POP SWAP3 SWAP2 POP POP JUMP JUMPDEST PUSH0 PUSH1 0x20 DUP3 ADD SWAP1 POP DUP2 DUP2 SUB PUSH0 DUP4 ADD MSTORE PUSH2 0x17D2 DUP2 DUP5 PUSH2 0x1782 JUMP JUMPDEST SWAP1 POP SWAP3 SWAP2 POP POP JUMP JUMPDEST PUSH2 0x17E3 DUP2 PUSH2 0x1695 JUMP JUMPDEST DUP3 MSTORE POP POP JUMP JUMPDEST PUSH0 PUSH1 0x20 DUP3 ADD SWAP1 POP PUSH2 0x17FC PUSH0 DUP4 ADD DUP5 PUSH2 0x17DA JUMP JUMPDEST SWAP3 SWAP2 POP POP JUMP JUMPDEST PUSH2 0x180B DUP2 PUSH2 0x16FB JUMP JUMPDEST DUP2 EQ PUSH2 0x1815 JUMPI PUSH0 DUP1 REVERT JUMPDEST POP JUMP JUMPDEST PUSH0 DUP2 CALLDATALOAD SWAP1 POP PUSH2 0x1826 DUP2 PUSH2 0x1802 JUMP JUMPDEST SWAP3 SWAP2 POP POP JUMP JUMPDEST PUSH0 PUSH1 0x20 DUP3 DUP5 SUB SLT ISZERO PUSH2 0x1841 JUMPI PUSH2 0x1840 PUSH2 0x15C8 JUMP JUMPDEST JUMPDEST PUSH0 PUSH2 0x184E DUP5 DUP3 DUP6 ADD PUSH2 0x1818 JUMP JUMPDEST SWAP2 POP POP SWAP3 SWAP2 POP POP JUMP JUMPDEST PUSH32 0x45696E7A61686C756E6773626574726167206D7573732067726F657373657220 PUSH0 DUP3 ADD MSTORE PUSH32 0x616C732030207365696E00000000000000000000000000000000000000000000 PUSH1 0x20 DUP3 ADD MSTORE POP JUMP JUMPDEST PUSH0 PUSH2 0x18B1 PUSH1 0x2A DUP4 PUSH2 0x173A JUMP JUMPDEST SWAP2 POP PUSH2 0x18BC DUP3 PUSH2 0x1857 JUMP JUMPDEST PUSH1 0x40 DUP3 ADD SWAP1 POP SWAP2 SWAP1 POP JUMP JUMPDEST PUSH0 PUSH1 0x20 DUP3 ADD SWAP1 POP DUP2 DUP2 SUB PUSH0 DUP4 ADD MSTORE PUSH2 0x18DE DUP2 PUSH2 0x18A5 JUMP JUMPDEST SWAP1 POP SWAP2 SWAP1 POP JUMP JUMPDEST PUSH32 0x476577696E6E20777572646520626572656974732065696E67657A61686C742E PUSH0 DUP3 ADD MSTORE POP JUMP JUMPDEST PUSH0 PUSH2 0x1919 PUSH1 0x20 DUP4 PUSH2 0x173A JUMP JUMPDEST SWAP2 POP PUSH2 0x1924 DUP3 PUSH2 0x18E5 JUMP JUMPDEST PUSH1 0x20 DUP3 ADD SWAP1 POP SWAP2 SWAP1 POP JUMP JUMPDEST PUSH0 PUSH1 0x20 DUP3 ADD SWAP1 POP DUP2 DUP2 SUB PUSH0 DUP4 ADD MSTORE PUSH2 0x1946 DUP2 PUSH2 0x190D JUMP JUMPDEST SWAP1 POP SWAP2 SWAP1 POP JUMP JUMPDEST PUSH32 0x4E487B7100000000000000000000000000000000000000000000000000000000 PUSH0 MSTORE PUSH1 0x12 PUSH1 0x4 MSTORE PUSH1 0x24 PUSH0 REVERT JUMPDEST PUSH32 0x4E487B7100000000000000000000000000000000000000000000000000000000 PUSH0 MSTORE PUSH1 0x11 PUSH1 0x4 MSTORE PUSH1 0x24 PUSH0 REVERT JUMPDEST PUSH0 PUSH2 0x19B1 DUP3 PUSH2 0x152D JUMP JUMPDEST SWAP2 POP PUSH2 0x19BC DUP4 PUSH2 0x152D JUMP JUMPDEST SWAP3 POP DUP3 PUSH2 0x19CC JUMPI PUSH2 0x19CB PUSH2 0x194D JUMP JUMPDEST JUMPDEST DUP3 DUP3 DIV SWAP1 POP SWAP3 SWAP2 POP POP JUMP JUMPDEST PUSH32 0x457320676962742062657265697473204D6974737069656C65722E2050726569 PUSH0 DUP3 ADD MSTORE PUSH32 0x7361656E646572756E67206E69636874206D656872206D6F65676C6963682E00 PUSH1 0x20 DUP3 ADD MSTORE POP JUMP JUMPDEST PUSH0 PUSH2 0x1A31 PUSH1 0x3F DUP4 PUSH2 0x173A JUMP JUMPDEST SWAP2 POP PUSH2 0x1A3C DUP3 PUSH2 0x19D7 JUMP JUMPDEST PUSH1 0x40 DUP3 ADD SWAP1 POP SWAP2 SWAP1 POP JUMP JUMPDEST PUSH0 PUSH1 0x20 DUP3 ADD SWAP1 POP DUP2 DUP2 SUB PUSH0 DUP4 ADD MSTORE PUSH2 0x1A5E DUP2 PUSH2 0x1A25 JUMP JUMPDEST SWAP1 POP SWAP2 SWAP1 POP JUMP JUMPDEST PUSH32 0x457320676962742062657265697473204D6974737069656C65722E2041656E64 PUSH0 DUP3 ADD MSTORE PUSH32 0x6572756E67206E69636874206D656872206D6F65676C6963682E000000000000 PUSH1 0x20 DUP3 ADD MSTORE POP JUMP JUMPDEST PUSH0 PUSH2 0x1ABF PUSH1 0x3A DUP4 PUSH2 0x173A JUMP JUMPDEST SWAP2 POP PUSH2 0x1ACA DUP3 PUSH2 0x1A65 JUMP JUMPDEST PUSH1 0x40 DUP3 ADD SWAP1 POP SWAP2 SWAP1 POP JUMP JUMPDEST PUSH0 PUSH1 0x20 DUP3 ADD SWAP1 POP DUP2 DUP2 SUB PUSH0 DUP4 ADD MSTORE PUSH2 0x1AEC DUP2 PUSH2 0x1AB3 JUMP JUMPDEST SWAP1 POP SWAP2 SWAP1 POP JUMP JUMPDEST PUSH32 0x4B65696E2050726569732070726F204D6974737069656C657200000000000000 PUSH0 DUP3 ADD MSTORE POP JUMP JUMPDEST PUSH0 PUSH2 0x1B27 PUSH1 0x19 DUP4 PUSH2 0x173A JUMP JUMPDEST SWAP2 POP PUSH2 0x1B32 DUP3 PUSH2 0x1AF3 JUMP JUMPDEST PUSH1 0x20 DUP3 ADD SWAP1 POP SWAP2 SWAP1 POP JUMP JUMPDEST PUSH0 PUSH1 0x20 DUP3 ADD SWAP1 POP DUP2 DUP2 SUB PUSH0 DUP4 ADD MSTORE PUSH2 0x1B54 DUP2 PUSH2 0x1B1B JUMP JUMPDEST SWAP1 POP SWAP2 SWAP1 POP JUMP JUMPDEST PUSH32 0x5A7520676572696E6765722045696E7A61686C756E6773626574726167000000 PUSH0 DUP3 ADD MSTORE POP JUMP JUMPDEST PUSH0 PUSH2 0x1B8F PUSH1 0x1D DUP4 PUSH2 0x173A JUMP JUMPDEST SWAP2 POP PUSH2 0x1B9A DUP3 PUSH2 0x1B5B JUMP JUMPDEST PUSH1 0x20 DUP3 ADD SWAP1 POP SWAP2 SWAP1 POP JUMP JUMPDEST PUSH0 PUSH1 0x20 DUP3 ADD SWAP1 POP DUP2 DUP2 SUB PUSH0 DUP4 ADD MSTORE PUSH2 0x1BBC DUP2 PUSH2 0x1B83 JUMP JUMPDEST SWAP1 POP SWAP2 SWAP1 POP JUMP JUMPDEST PUSH32 0x4265726569747320616C73204D6974737069656C657220726567697374726965 PUSH0 DUP3 ADD MSTORE PUSH32 0x7274000000000000000000000000000000000000000000000000000000000000 PUSH1 0x20 DUP3 ADD MSTORE POP JUMP JUMPDEST PUSH0 PUSH2 0x1C1D PUSH1 0x22 DUP4 PUSH2 0x173A JUMP JUMPDEST SWAP2 POP PUSH2 0x1C28 DUP3 PUSH2 0x1BC3 JUMP JUMPDEST PUSH1 0x40 DUP3 ADD SWAP1 POP SWAP2 SWAP1 POP JUMP JUMPDEST PUSH0 PUSH1 0x20 DUP3 ADD SWAP1 POP DUP2 DUP2 SUB PUSH0 DUP4 ADD MSTORE PUSH2 0x1C4A DUP2 PUSH2 0x1C11 JUMP JUMPDEST SWAP1 POP SWAP2 SWAP1 POP JUMP JUMPDEST PUSH32 0x4D6178696D616C65205465696C6E65686D65727A61686C206572726569636874 PUSH0 DUP3 ADD MSTORE POP JUMP JUMPDEST PUSH0 PUSH2 0x1C85 PUSH1 0x20 DUP4 PUSH2 0x173A JUMP JUMPDEST SWAP2 POP PUSH2 0x1C90 DUP3 PUSH2 0x1C51 JUMP JUMPDEST PUSH1 0x20 DUP3 ADD SWAP1 POP SWAP2 SWAP1 POP JUMP JUMPDEST PUSH0 PUSH1 0x20 DUP3 ADD SWAP1 POP DUP2 DUP2 SUB PUSH0 DUP4 ADD MSTORE PUSH2 0x1CB2 DUP2 PUSH2 0x1C79 JUMP JUMPDEST SWAP1 POP SWAP2 SWAP1 POP JUMP JUMPDEST PUSH32 0x476577696E6E20777572646520626572656974732065696E67657A61686C7400 PUSH0 DUP3 ADD MSTORE POP JUMP JUMPDEST PUSH0 PUSH2 0x1CED PUSH1 0x1F DUP4 PUSH2 0x173A JUMP JUMPDEST SWAP2 POP PUSH2 0x1CF8 DUP3 PUSH2 0x1CB9 JUMP JUMPDEST PUSH1 0x20 DUP3 ADD SWAP1 POP SWAP2 SWAP1 POP JUMP JUMPDEST PUSH0 PUSH1 0x20 DUP3 ADD SWAP1 POP DUP2 DUP2 SUB PUSH0 DUP4 ADD MSTORE PUSH2 0x1D1A DUP2 PUSH2 0x1CE1 JUMP JUMPDEST SWAP1 POP SWAP2 SWAP1 POP JUMP JUMPDEST PUSH0 PUSH2 0x1D2B DUP3 PUSH2 0x152D JUMP JUMPDEST SWAP2 POP PUSH2 0x1D36 DUP4 PUSH2 0x152D JUMP JUMPDEST SWAP3 POP DUP3 DUP3 SUB SWAP1 POP DUP2 DUP2 GT ISZERO PUSH2 0x1D4E JUMPI PUSH2 0x1D4D PUSH2 0x197A JUMP JUMPDEST JUMPDEST SWAP3 SWAP2 POP POP JUMP JUMPDEST PUSH0 PUSH2 0x1D5E DUP3 PUSH2 0x16FB JUMP JUMPDEST SWAP2 POP PUSH2 0xFFFF DUP3 SUB PUSH2 0x1D72 JUMPI PUSH2 0x1D71 PUSH2 0x197A JUMP JUMPDEST JUMPDEST PUSH1 0x1 DUP3 ADD SWAP1 POP SWAP2 SWAP1 POP JUMP JUMPDEST PUSH32 0x4E6F2072652D656E7472616E6379000000000000000000000000000000000000 PUSH0 DUP3 ADD MSTORE POP JUMP JUMPDEST PUSH0 PUSH2 0x1DB1 PUSH1 0xE DUP4 PUSH2 0x173A JUMP JUMPDEST SWAP2 POP PUSH2 0x1DBC DUP3 PUSH2 0x1D7D JUMP JUMPDEST PUSH1 0x20 DUP3 ADD SWAP1 POP SWAP2 SWAP1 POP JUMP JUMPDEST PUSH0 PUSH1 0x20 DUP3 ADD SWAP1 POP DUP2 DUP2 SUB PUSH0 DUP4 ADD MSTORE PUSH2 0x1DDE DUP2 PUSH2 0x1DA5 JUMP JUMPDEST SWAP1 POP SWAP2 SWAP1 POP JUMP JUMPDEST PUSH32 0x476577696E6E206B616E6E206E6F6368206E696368742061626765686F6C7420 PUSH0 DUP3 ADD MSTORE PUSH32 0x77657264656E2E00000000000000000000000000000000000000000000000000 PUSH1 0x20 DUP3 ADD MSTORE POP JUMP JUMPDEST PUSH0 PUSH2 0x1E3F PUSH1 0x27 DUP4 PUSH2 0x173A JUMP JUMPDEST SWAP2 POP PUSH2 0x1E4A DUP3 PUSH2 0x1DE5 JUMP JUMPDEST PUSH1 0x40 DUP3 ADD SWAP1 POP SWAP2 SWAP1 POP JUMP JUMPDEST PUSH0 PUSH1 0x20 DUP3 ADD SWAP1 POP DUP2 DUP2 SUB PUSH0 DUP4 ADD MSTORE PUSH2 0x1E6C DUP2 PUSH2 0x1E33 JUMP JUMPDEST SWAP1 POP SWAP2 SWAP1 POP JUMP JUMPDEST PUSH32 0x4B65696E20476577696E6E207A7572204175737A61686C756E67207665726675 PUSH0 DUP3 ADD MSTORE PUSH32 0x65676261722E0000000000000000000000000000000000000000000000000000 PUSH1 0x20 DUP3 ADD MSTORE POP JUMP JUMPDEST PUSH0 PUSH2 0x1ECD PUSH1 0x26 DUP4 PUSH2 0x173A JUMP JUMPDEST SWAP2 POP PUSH2 0x1ED8 DUP3 PUSH2 0x1E73 JUMP JUMPDEST PUSH1 0x40 DUP3 ADD SWAP1 POP SWAP2 SWAP1 POP JUMP JUMPDEST PUSH0 PUSH1 0x20 DUP3 ADD SWAP1 POP DUP2 DUP2 SUB PUSH0 DUP4 ADD MSTORE PUSH2 0x1EFA DUP2 PUSH2 0x1EC1 JUMP JUMPDEST SWAP1 POP SWAP2 SWAP1 POP JUMP JUMPDEST PUSH32 0x476577696E6E20777572646520626572656974732061626765686F6C742E0000 PUSH0 DUP3 ADD MSTORE POP JUMP JUMPDEST PUSH0 PUSH2 0x1F35 PUSH1 0x1E DUP4 PUSH2 0x173A JUMP JUMPDEST SWAP2 POP PUSH2 0x1F40 DUP3 PUSH2 0x1F01 JUMP JUMPDEST PUSH1 0x20 DUP3 ADD SWAP1 POP SWAP2 SWAP1 POP JUMP JUMPDEST PUSH0 PUSH1 0x20 DUP3 ADD SWAP1 POP DUP2 DUP2 SUB PUSH0 DUP4 ADD MSTORE PUSH2 0x1F62 DUP2 PUSH2 0x1F29 JUMP JUMPDEST SWAP1 POP SWAP2 SWAP1 POP JUMP JUMPDEST PUSH32 0x4E487B7100000000000000000000000000000000000000000000000000000000 PUSH0 MSTORE PUSH1 0x22 PUSH1 0x4 MSTORE PUSH1 0x24 PUSH0 REVERT JUMPDEST PUSH0 PUSH1 0x2 DUP3 DIV SWAP1 POP PUSH1 0x1 DUP3 AND DUP1 PUSH2 0x1FAD JUMPI PUSH1 0x7F DUP3 AND SWAP2 POP JUMPDEST PUSH1 0x20 DUP3 LT DUP2 SUB PUSH2 0x1FC0 JUMPI PUSH2 0x1FBF PUSH2 0x1F69 JUMP JUMPDEST JUMPDEST POP SWAP2 SWAP1 POP JUMP JUMPDEST PUSH32 0x47656D65696E736368616674206D7573732061756667656C6F65737420736569 PUSH0 DUP3 ADD MSTORE PUSH32 0x6E2E000000000000000000000000000000000000000000000000000000000000 PUSH1 0x20 DUP3 ADD MSTORE POP JUMP JUMPDEST PUSH0 PUSH2 0x2020 PUSH1 0x22 DUP4 PUSH2 0x173A JUMP JUMPDEST SWAP2 POP PUSH2 0x202B DUP3 PUSH2 0x1FC6 JUMP JUMPDEST PUSH1 0x40 DUP3 ADD SWAP1 POP SWAP2 SWAP1 POP JUMP JUMPDEST PUSH0 PUSH1 0x20 DUP3 ADD SWAP1 POP DUP2 DUP2 SUB PUSH0 DUP4 ADD MSTORE PUSH2 0x204D DUP2 PUSH2 0x2014 JUMP JUMPDEST SWAP1 POP SWAP2 SWAP1 POP JUMP JUMPDEST PUSH32 0x45696E7361747A2077757264652062657265697473207A75727565636B67657A PUSH0 DUP3 ADD MSTORE PUSH32 0x61686C742E000000000000000000000000000000000000000000000000000000 PUSH1 0x20 DUP3 ADD MSTORE POP JUMP JUMPDEST PUSH0 PUSH2 0x20AE PUSH1 0x25 DUP4 PUSH2 0x173A JUMP JUMPDEST SWAP2 POP PUSH2 0x20B9 DUP3 PUSH2 0x2054 JUMP JUMPDEST PUSH1 0x40 DUP3 ADD SWAP1 POP SWAP2 SWAP1 POP JUMP JUMPDEST PUSH0 PUSH1 0x20 DUP3 ADD SWAP1 POP DUP2 DUP2 SUB PUSH0 DUP4 ADD MSTORE PUSH2 0x20DB DUP2 PUSH2 0x20A2 JUMP JUMPDEST SWAP1 POP SWAP2 SWAP1 POP JUMP JUMPDEST PUSH0 DUP2 SWAP1 POP SWAP3 SWAP2 POP POP JUMP JUMPDEST POP JUMP JUMPDEST PUSH0 PUSH2 0x20FA PUSH0 DUP4 PUSH2 0x20E2 JUMP JUMPDEST SWAP2 POP PUSH2 0x2105 DUP3 PUSH2 0x20EC JUMP JUMPDEST PUSH0 DUP3 ADD SWAP1 POP SWAP2 SWAP1 POP JUMP JUMPDEST PUSH0 PUSH2 0x2119 DUP3 PUSH2 0x20EF JUMP JUMPDEST SWAP2 POP DUP2 SWAP1 POP SWAP2 SWAP1 POP JUMP JUMPDEST PUSH32 0x527565636B7A61686C756E67206465732045696E7361747A6573206665686C67 PUSH0 DUP3 ADD MSTORE PUSH32 0x657363686C6167656E2E00000000000000000000000000000000000000000000 PUSH1 0x20 DUP3 ADD MSTORE POP JUMP JUMPDEST PUSH0 PUSH2 0x217D PUSH1 0x2A DUP4 PUSH2 0x173A JUMP JUMPDEST SWAP2 POP PUSH2 0x2188 DUP3 PUSH2 0x2123 JUMP JUMPDEST PUSH1 0x40 DUP3 ADD SWAP1 POP SWAP2 SWAP1 POP JUMP JUMPDEST PUSH0 PUSH1 0x20 DUP3 ADD SWAP1 POP DUP2 DUP2 SUB PUSH0 DUP4 ADD MSTORE PUSH2 0x21AA DUP2 PUSH2 0x2171 JUMP JUMPDEST SWAP1 POP SWAP2 SWAP1 POP JUMP JUMPDEST PUSH32 0x476577696E6E206D757373206E6F63682061757367657A61686C742077657264 PUSH0 DUP3 ADD MSTORE PUSH32 0x656E000000000000000000000000000000000000000000000000000000000000 PUSH1 0x20 DUP3 ADD MSTORE POP JUMP JUMPDEST PUSH0 PUSH2 0x220B PUSH1 0x22 DUP4 PUSH2 0x173A JUMP JUMPDEST SWAP2 POP PUSH2 0x2216 DUP3 PUSH2 0x21B1 JUMP JUMPDEST PUSH1 0x40 DUP3 ADD SWAP1 POP SWAP2 SWAP1 POP JUMP JUMPDEST PUSH0 PUSH1 0x20 DUP3 ADD SWAP1 POP DUP2 DUP2 SUB PUSH0 DUP4 ADD MSTORE PUSH2 0x2238 DUP2 PUSH2 0x21FF JUMP JUMPDEST SWAP1 POP SWAP2 SWAP1 POP JUMP JUMPDEST PUSH32 0x47656D65696E73636861667420626572656974732061756667656C6F65737400 PUSH0 DUP3 ADD MSTORE POP JUMP JUMPDEST PUSH0 PUSH2 0x2273 PUSH1 0x1F DUP4 PUSH2 0x173A JUMP JUMPDEST SWAP2 POP PUSH2 0x227E DUP3 PUSH2 0x223F JUMP JUMPDEST PUSH1 0x20 DUP3 ADD SWAP1 POP SWAP2 SWAP1 POP JUMP JUMPDEST PUSH0 PUSH1 0x20 DUP3 ADD SWAP1 POP DUP2 DUP2 SUB PUSH0 DUP4 ADD MSTORE PUSH2 0x22A0 DUP2 PUSH2 0x2267 JUMP JUMPDEST SWAP1 POP SWAP2 SWAP1 POP JUMP JUMPDEST PUSH32 0x457320676962742062657265697473204D6974737069656C65722E2041656E64 PUSH0 DUP3 ADD MSTORE PUSH32 0x6572756E672064657220416E7A61686C20616E204D6974737069656C65726E20 PUSH1 0x20 DUP3 ADD MSTORE PUSH32 0x6E69636874206D656872206D6F65676C6963682E000000000000000000000000 PUSH1 0x40 DUP3 ADD MSTORE POP JUMP JUMPDEST PUSH0 PUSH2 0x2327 PUSH1 0x54 DUP4 PUSH2 0x173A JUMP JUMPDEST SWAP2 POP PUSH2 0x2332 DUP3 PUSH2 0x22A7 JUMP JUMPDEST PUSH1 0x60 DUP3 ADD SWAP1 POP SWAP2 SWAP1 POP JUMP JUMPDEST PUSH0 PUSH1 0x20 DUP3 ADD SWAP1 POP DUP2 DUP2 SUB PUSH0 DUP4 ADD MSTORE PUSH2 0x2354 DUP2 PUSH2 0x231B JUMP JUMPDEST SWAP1 POP SWAP2 SWAP1 POP JUMP INVALID LOG2 PUSH5 0x6970667358 0x22 SLT KECCAK256 GAS 0xE5 OR PUSH30 0xB7A5E07D7A75A0B4AB1BA6DDB39952E503B4EFEAFD9F59CB150765856473 PUSH16 0x6C63430008170033A264697066735822 SLT KECCAK256 SWAP3 ORIGIN SWAP4 0x28 0xBC SWAP10 0xE1 0xDE 0xB0 REVERT 0xE1 CREATE PUSH3 0xCE09F7 ADDRESS PUSH26 0xFB4B5D13649EBF90940E47A459B064736F6C6343000817003300 "},"gasEstimates":{"creation":{"codeDepositCost":"3518400","executionCost":"3939","totalCost":"3522339"},"external":{"getGegruendeteLottogemeinschaften()":"infinite","getLottogemeinschaftsnamen()":"infinite","gruendeLottogemeinschaft(string,uint16,uint32,string,bool)":"infinite","lottogemeinschaften(uint256)":"5009","lottogemeinschaftsnamen(uint256)":"infinite","lottogemeinschaftsnamenmapping(string)":"infinite"}},"methodIdentifiers":{"getGegruendeteLottogemeinschaften()":"535da87c","getLottogemeinschaftsnamen()":"33abbcbc","gruendeLottogemeinschaft(string,uint16,uint32,string,bool)":"fde55044","lottogemeinschaften(uint256)":"fb670056","lottogemeinschaftsnamen(uint256)":"ad6eb6d9","lottogemeinschaftsnamenmapping(string)":"95097fe1"}},"storageLayout":{"storage":[{"astId":14,"contract":"Lottogemeinschaft.sol:LottogemeinschaftFabrik","label":"lottogemeinschaften","offset":0,"slot":"0","type":"t_array(t_address_payable)dyn_storage"},{"astId":17,"contract":"Lottogemeinschaft.sol:LottogemeinschaftFabrik","label":"lottogemeinschaftsnamen","offset":0,"slot":"1","type":"t_array(t_string_storage)dyn_storage"},{"astId":21,"contract":"Lottogemeinschaft.sol:LottogemeinschaftFabrik","label":"lottogemeinschaftsnamenmapping","offset":0,"slot":"2","type":"t_mapping(t_string_memory_ptr,t_address)"}],"types":{"t_address":{"encoding":"inplace","label":"address","numberOfBytes":"20"},"t_address_payable":{"encoding":"inplace","label":"address payable","numberOfBytes":"20"},"t_array(t_address_payable)dyn_storage":{"base":"t_address_payable","encoding":"dynamic_array","label":"address payable[]","numberOfBytes":"32"},"t_array(t_string_storage)dyn_storage":{"base":"t_string_storage","encoding":"dynamic_array","label":"string[]","numberOfBytes":"32"},"t_mapping(t_string_memory_ptr,t_address)":{"encoding":"mapping","key":"t_string_memory_ptr","label":"mapping(string => address)","numberOfBytes":"32","value":"t_address"},"t_string_memory_ptr":{"encoding":"bytes","label":"string","numberOfBytes":"32"},"t_string_storage":{"encoding":"bytes","label":"string","numberOfBytes":"32"}}},"userdoc":{"kind":"user","methods":{},"version":1}}