{"abi":[{"inputs":[{"internalType":"address","name":"_gruender","type":"address"},{"internalType":"string","name":"_name","type":"string"},{"internalType":"uint256","name":"_maxTeilnehmer","type":"uint256"}],"stateMutability":"nonpayable","type":"constructor"},{"anonymous":false,"inputs":[{"indexed":false,"internalType":"address","name":"teilnehmer","type":"address"}],"name":"BeitrittErfolgreich","type":"event"},{"anonymous":false,"inputs":[{"indexed":false,"internalType":"uint256","name":"betrag","type":"uint256"}],"name":"EinsatzAbgeholt","type":"event"},{"anonymous":false,"inputs":[{"indexed":false,"internalType":"uint256","name":"betrag","type":"uint256"}],"name":"GewinnEingezahlt","type":"event"},{"inputs":[],"name":"aktuelleTeilnehmer","outputs":[{"internalType":"uint256","name":"","type":"uint256"}],"stateMutability":"view","type":"function"},{"inputs":[],"name":"balance","outputs":[{"internalType":"uint256","name":"","type":"uint256"}],"stateMutability":"view","type":"function"},{"inputs":[],"name":"beitreten","outputs":[],"stateMutability":"payable","type":"function"},{"inputs":[],"name":"einsatzAbholen","outputs":[],"stateMutability":"nonpayable","type":"function"},{"inputs":[],"name":"gewinnEingezahlt","outputs":[{"internalType":"bool","name":"","type":"bool"}],"stateMutability":"view","type":"function"},{"inputs":[{"internalType":"uint256","name":"betrag","type":"uint256"}],"name":"gewinnEinzahlen","outputs":[],"stateMutability":"nonpayable","type":"function"},{"inputs":[],"name":"gruender","outputs":[{"internalType":"address","name":"","type":"address"}],"stateMutability":"view","type":"function"},{"inputs":[],"name":"maxTeilnehmer","outputs":[{"internalType":"uint256","name":"","type":"uint256"}],"stateMutability":"view","type":"function"},{"inputs":[],"name":"name","outputs":[{"internalType":"string","name":"","type":"string"}],"stateMutability":"view","type":"function"}],"devdoc":{"kind":"dev","methods":{},"version":1},"evm":{"assembly":"    /* \"Lottogemeinschaft.sol\":57:1590  contract Lottogemeinschaft {... */\n  mstore(0x40, 0x80)\n    /* \"Lottogemeinschaft.sol\":403:662  constructor(address _gruender, string memory _name, uint _maxTeilnehmer) {... */\n  callvalue\n  dup1\n  iszero\n  tag_1\n  jumpi\n  0x00\n  dup1\n  revert\ntag_1:\n  pop\n  mload(0x40)\n  sub(codesize, bytecodeSize)\n  dup1\n  bytecodeSize\n  dup4\n  codecopy\n  dup2\n  add\n  0x40\n  dup2\n  swap1\n  mstore\n  tag_2\n  swap2\n  tag_3\n  jump\t// in\ntag_2:\n    /* \"Lottogemeinschaft.sol\":486:494  gruender */\n  0x00\n    /* \"Lottogemeinschaft.sol\":486:506  gruender = _gruender */\n  dup1\n  sload\n  not(sub(shl(0xa0, 0x01), 0x01))\n  and\n  sub(shl(0xa0, 0x01), 0x01)\n  dup6\n  and\n  or\n  swap1\n  sstore\n  0x01\n    /* \"Lottogemeinschaft.sol\":516:528  name = _name */\n  tag_6\n    /* \"Lottogemeinschaft.sol\":523:528  _name */\n  dup4\n  dup3\n    /* \"Lottogemeinschaft.sol\":516:528  name = _name */\n  tag_7\n  jump\t// in\ntag_6:\n  pop\n    /* \"Lottogemeinschaft.sol\":538:551  maxTeilnehmer */\n  0x03\n    /* \"Lottogemeinschaft.sol\":538:568  maxTeilnehmer = _maxTeilnehmer */\n  sstore\n  pop\n  pop\n    /* \"Lottogemeinschaft.sol\":588:589  0 */\n  0x00\n    /* \"Lottogemeinschaft.sol\":578:585  balance */\n  0x02\n    /* \"Lottogemeinschaft.sol\":578:589  balance = 0 */\n  dup2\n  swap1\n  sstore\n    /* \"Lottogemeinschaft.sol\":599:617  aktuelleTeilnehmer */\n  0x04\n    /* \"Lottogemeinschaft.sol\":599:621  aktuelleTeilnehmer = 0 */\n  sstore\n    /* \"Lottogemeinschaft.sol\":631:647  gewinnEingezahlt */\n  0x05\n    /* \"Lottogemeinschaft.sol\":631:655  gewinnEingezahlt = false */\n  dup1\n  sload\n  not(0xff)\n  and\n  swap1\n  sstore\n    /* \"Lottogemeinschaft.sol\":57:1590  contract Lottogemeinschaft {... */\n  jump(tag_14)\n    /* \"#utility.yul\":14:141   */\ntag_9:\n    /* \"#utility.yul\":75:85   */\n  0x4e487b71\n    /* \"#utility.yul\":70:73   */\n  0xe0\n    /* \"#utility.yul\":66:86   */\n  shl\n    /* \"#utility.yul\":63:64   */\n  0x00\n    /* \"#utility.yul\":56:87   */\n  mstore\n    /* \"#utility.yul\":106:110   */\n  0x41\n    /* \"#utility.yul\":103:104   */\n  0x04\n    /* \"#utility.yul\":96:111   */\n  mstore\n    /* \"#utility.yul\":130:134   */\n  0x24\n    /* \"#utility.yul\":127:128   */\n  0x00\n    /* \"#utility.yul\":120:135   */\n  revert\n    /* \"#utility.yul\":146:1416   */\ntag_3:\n    /* \"#utility.yul\":244:250   */\n  0x00\n    /* \"#utility.yul\":252:258   */\n  dup1\n    /* \"#utility.yul\":260:266   */\n  0x00\n    /* \"#utility.yul\":313:315   */\n  0x60\n    /* \"#utility.yul\":301:310   */\n  dup5\n    /* \"#utility.yul\":292:299   */\n  dup7\n    /* \"#utility.yul\":288:311   */\n  sub\n    /* \"#utility.yul\":284:316   */\n  slt\n    /* \"#utility.yul\":281:333   */\n  iszero\n  tag_17\n  jumpi\n    /* \"#utility.yul\":329:330   */\n  0x00\n    /* \"#utility.yul\":326:327   */\n  dup1\n    /* \"#utility.yul\":319:331   */\n  revert\n    /* \"#utility.yul\":281:333   */\ntag_17:\n    /* \"#utility.yul\":355:371   */\n  dup4\n  mload\n  sub(shl(0xa0, 0x01), 0x01)\n    /* \"#utility.yul\":400:431   */\n  dup2\n  and\n    /* \"#utility.yul\":390:432   */\n  dup2\n  eq\n    /* \"#utility.yul\":380:450   */\n  tag_18\n  jumpi\n    /* \"#utility.yul\":446:447   */\n  0x00\n    /* \"#utility.yul\":443:444   */\n  dup1\n    /* \"#utility.yul\":436:448   */\n  revert\n    /* \"#utility.yul\":380:450   */\ntag_18:\n    /* \"#utility.yul\":493:495   */\n  0x20\n    /* \"#utility.yul\":524:542   */\n  dup6\n  dup2\n  add\n    /* \"#utility.yul\":518:543   */\n  mload\n    /* \"#utility.yul\":469:474   */\n  swap2\n  swap5\n  pop\n    /* \"#utility.yul\":493:495   */\n  swap1\n  sub(shl(0x40, 0x01), 0x01)\n    /* \"#utility.yul\":592:606   */\n  dup1\n  dup3\n  gt\n    /* \"#utility.yul\":589:623   */\n  iszero\n  tag_19\n  jumpi\n    /* \"#utility.yul\":619:620   */\n  0x00\n    /* \"#utility.yul\":616:617   */\n  dup1\n    /* \"#utility.yul\":609:621   */\n  revert\n    /* \"#utility.yul\":589:623   */\ntag_19:\n    /* \"#utility.yul\":657:663   */\n  dup2\n    /* \"#utility.yul\":646:655   */\n  dup8\n    /* \"#utility.yul\":642:664   */\n  add\n    /* \"#utility.yul\":632:664   */\n  swap2\n  pop\n    /* \"#utility.yul\":702:709   */\n  dup8\n    /* \"#utility.yul\":695:699   */\n  0x1f\n    /* \"#utility.yul\":691:693   */\n  dup4\n    /* \"#utility.yul\":687:700   */\n  add\n    /* \"#utility.yul\":683:710   */\n  slt\n    /* \"#utility.yul\":673:728   */\n  tag_20\n  jumpi\n    /* \"#utility.yul\":724:725   */\n  0x00\n    /* \"#utility.yul\":721:722   */\n  dup1\n    /* \"#utility.yul\":714:726   */\n  revert\n    /* \"#utility.yul\":673:728   */\ntag_20:\n    /* \"#utility.yul\":753:755   */\n  dup2\n    /* \"#utility.yul\":747:756   */\n  mload\n    /* \"#utility.yul\":775:777   */\n  dup2\n    /* \"#utility.yul\":771:773   */\n  dup2\n    /* \"#utility.yul\":768:778   */\n  gt\n    /* \"#utility.yul\":765:801   */\n  iszero\n  tag_22\n  jumpi\n    /* \"#utility.yul\":781:799   */\n  tag_22\n  tag_9\n  jump\t// in\ntag_22:\n    /* \"#utility.yul\":856:858   */\n  0x40\n    /* \"#utility.yul\":850:859   */\n  mload\n    /* \"#utility.yul\":824:826   */\n  0x1f\n    /* \"#utility.yul\":910:923   */\n  dup3\n  add\n  not(0x1f)\n    /* \"#utility.yul\":906:928   */\n  swap1\n  dup2\n  and\n    /* \"#utility.yul\":930:932   */\n  0x3f\n    /* \"#utility.yul\":902:933   */\n  add\n    /* \"#utility.yul\":898:938   */\n  and\n    /* \"#utility.yul\":886:939   */\n  dup2\n  add\n  swap1\n    /* \"#utility.yul\":954:972   */\n  dup4\n  dup3\n  gt\n    /* \"#utility.yul\":974:996   */\n  dup2\n  dup4\n  lt\n    /* \"#utility.yul\":951:997   */\n  or\n    /* \"#utility.yul\":948:1020   */\n  iszero\n  tag_24\n  jumpi\n    /* \"#utility.yul\":1000:1018   */\n  tag_24\n  tag_9\n  jump\t// in\ntag_24:\n    /* \"#utility.yul\":1040:1050   */\n  dup2\n    /* \"#utility.yul\":1036:1038   */\n  0x40\n    /* \"#utility.yul\":1029:1051   */\n  mstore\n    /* \"#utility.yul\":1075:1077   */\n  dup3\n    /* \"#utility.yul\":1067:1073   */\n  dup2\n    /* \"#utility.yul\":1060:1078   */\n  mstore\n    /* \"#utility.yul\":1115:1122   */\n  dup11\n    /* \"#utility.yul\":1110:1112   */\n  dup7\n    /* \"#utility.yul\":1105:1107   */\n  dup5\n    /* \"#utility.yul\":1101:1103   */\n  dup8\n    /* \"#utility.yul\":1097:1108   */\n  add\n    /* \"#utility.yul\":1093:1113   */\n  add\n    /* \"#utility.yul\":1090:1123   */\n  gt\n    /* \"#utility.yul\":1087:1140   */\n  iszero\n  tag_25\n  jumpi\n    /* \"#utility.yul\":1136:1137   */\n  0x00\n    /* \"#utility.yul\":1133:1134   */\n  dup1\n    /* \"#utility.yul\":1126:1138   */\n  revert\n    /* \"#utility.yul\":1087:1140   */\ntag_25:\n    /* \"#utility.yul\":1158:1159   */\n  0x00\n    /* \"#utility.yul\":1149:1159   */\n  swap4\n  pop\n    /* \"#utility.yul\":1168:1297   */\ntag_26:\n    /* \"#utility.yul\":1182:1184   */\n  dup3\n    /* \"#utility.yul\":1179:1180   */\n  dup5\n    /* \"#utility.yul\":1176:1185   */\n  lt\n    /* \"#utility.yul\":1168:1297   */\n  iszero\n  tag_28\n  jumpi\n    /* \"#utility.yul\":1270:1280   */\n  dup5\n  dup5\n  add\n    /* \"#utility.yul\":1266:1285   */\n  dup7\n  add\n    /* \"#utility.yul\":1260:1286   */\n  mload\n    /* \"#utility.yul\":1239:1253   */\n  dup2\n  dup6\n  add\n    /* \"#utility.yul\":1235:1258   */\n  dup8\n  add\n    /* \"#utility.yul\":1228:1287   */\n  mstore\n    /* \"#utility.yul\":1193:1203   */\n  swap3\n  dup6\n  add\n  swap3\n    /* \"#utility.yul\":1168:1297   */\n  jump(tag_26)\ntag_28:\n    /* \"#utility.yul\":1339:1340   */\n  0x00\n    /* \"#utility.yul\":1334:1336   */\n  dup7\n    /* \"#utility.yul\":1329:1331   */\n  dup5\n    /* \"#utility.yul\":1321:1327   */\n  dup4\n    /* \"#utility.yul\":1317:1332   */\n  add\n    /* \"#utility.yul\":1313:1337   */\n  add\n    /* \"#utility.yul\":1306:1341   */\n  mstore\n    /* \"#utility.yul\":1360:1366   */\n  dup1\n    /* \"#utility.yul\":1350:1366   */\n  swap8\n  pop\n  pop\n  pop\n  pop\n  pop\n  pop\n  pop\n    /* \"#utility.yul\":1406:1408   */\n  0x40\n    /* \"#utility.yul\":1395:1404   */\n  dup5\n    /* \"#utility.yul\":1391:1409   */\n  add\n    /* \"#utility.yul\":1385:1410   */\n  mload\n    /* \"#utility.yul\":1375:1410   */\n  swap1\n  pop\n    /* \"#utility.yul\":146:1416   */\n  swap3\n  pop\n  swap3\n  pop\n  swap3\n  jump\t// out\n    /* \"#utility.yul\":1421:1801   */\ntag_10:\n    /* \"#utility.yul\":1500:1501   */\n  0x01\n    /* \"#utility.yul\":1496:1508   */\n  dup2\n  dup2\n  shr\n  swap1\n    /* \"#utility.yul\":1543:1555   */\n  dup3\n  and\n  dup1\n    /* \"#utility.yul\":1564:1625   */\n  tag_30\n  jumpi\n    /* \"#utility.yul\":1618:1622   */\n  0x7f\n    /* \"#utility.yul\":1610:1616   */\n  dup3\n    /* \"#utility.yul\":1606:1623   */\n  and\n    /* \"#utility.yul\":1596:1623   */\n  swap2\n  pop\n    /* \"#utility.yul\":1564:1625   */\ntag_30:\n    /* \"#utility.yul\":1671:1673   */\n  0x20\n    /* \"#utility.yul\":1663:1669   */\n  dup3\n    /* \"#utility.yul\":1660:1674   */\n  lt\n    /* \"#utility.yul\":1640:1658   */\n  dup2\n    /* \"#utility.yul\":1637:1675   */\n  sub\n    /* \"#utility.yul\":1634:1795   */\n  tag_31\n  jumpi\n    /* \"#utility.yul\":1717:1727   */\n  0x4e487b71\n    /* \"#utility.yul\":1712:1715   */\n  0xe0\n    /* \"#utility.yul\":1708:1728   */\n  shl\n    /* \"#utility.yul\":1705:1706   */\n  0x00\n    /* \"#utility.yul\":1698:1729   */\n  mstore\n    /* \"#utility.yul\":1752:1756   */\n  0x22\n    /* \"#utility.yul\":1749:1750   */\n  0x04\n    /* \"#utility.yul\":1742:1757   */\n  mstore\n    /* \"#utility.yul\":1780:1784   */\n  0x24\n    /* \"#utility.yul\":1777:1778   */\n  0x00\n    /* \"#utility.yul\":1770:1785   */\n  revert\n    /* \"#utility.yul\":1634:1795   */\ntag_31:\n  pop\n    /* \"#utility.yul\":1421:1801   */\n  swap2\n  swap1\n  pop\n  jump\t// out\n    /* \"#utility.yul\":1932:2450   */\ntag_12:\n    /* \"#utility.yul\":2034:2036   */\n  0x1f\n    /* \"#utility.yul\":2029:2032   */\n  dup3\n    /* \"#utility.yul\":2026:2037   */\n  gt\n    /* \"#utility.yul\":2023:2444   */\n  iszero\n  tag_34\n  jumpi\n    /* \"#utility.yul\":2070:2075   */\n  dup1\n    /* \"#utility.yul\":2067:2068   */\n  0x00\n    /* \"#utility.yul\":2060:2076   */\n  mstore\n    /* \"#utility.yul\":2114:2118   */\n  0x20\n    /* \"#utility.yul\":2111:2112   */\n  0x00\n    /* \"#utility.yul\":2101:2119   */\n  keccak256\n    /* \"#utility.yul\":2184:2186   */\n  0x1f\n    /* \"#utility.yul\":2172:2182   */\n  dup5\n    /* \"#utility.yul\":2168:2187   */\n  add\n    /* \"#utility.yul\":2165:2166   */\n  0x05\n    /* \"#utility.yul\":2161:2188   */\n  shr\n    /* \"#utility.yul\":2155:2159   */\n  dup2\n    /* \"#utility.yul\":2151:2189   */\n  add\n    /* \"#utility.yul\":2220:2224   */\n  0x20\n    /* \"#utility.yul\":2208:2218   */\n  dup6\n    /* \"#utility.yul\":2205:2225   */\n  lt\n    /* \"#utility.yul\":2202:2249   */\n  iszero\n  tag_35\n  jumpi\n  pop\n    /* \"#utility.yul\":2243:2247   */\n  dup1\n    /* \"#utility.yul\":2202:2249   */\ntag_35:\n    /* \"#utility.yul\":2298:2300   */\n  0x1f\n    /* \"#utility.yul\":2293:2296   */\n  dup5\n    /* \"#utility.yul\":2289:2301   */\n  add\n    /* \"#utility.yul\":2286:2287   */\n  0x05\n    /* \"#utility.yul\":2282:2302   */\n  shr\n    /* \"#utility.yul\":2276:2280   */\n  dup3\n    /* \"#utility.yul\":2272:2303   */\n  add\n    /* \"#utility.yul\":2262:2303   */\n  swap2\n  pop\n    /* \"#utility.yul\":2353:2434   */\ntag_36:\n    /* \"#utility.yul\":2371:2373   */\n  dup2\n    /* \"#utility.yul\":2364:2369   */\n  dup2\n    /* \"#utility.yul\":2361:2374   */\n  lt\n    /* \"#utility.yul\":2353:2434   */\n  iszero\n  tag_38\n  jumpi\n    /* \"#utility.yul\":2430:2431   */\n  0x00\n    /* \"#utility.yul\":2416:2432   */\n  dup2\n  sstore\n    /* \"#utility.yul\":2397:2398   */\n  0x01\n    /* \"#utility.yul\":2386:2399   */\n  add\n    /* \"#utility.yul\":2353:2434   */\n  jump(tag_36)\ntag_38:\n    /* \"#utility.yul\":2357:2360   */\n  pop\n  pop\n    /* \"#utility.yul\":2023:2444   */\ntag_34:\n    /* \"#utility.yul\":1932:2450   */\n  pop\n  pop\n  pop\n  jump\t// out\n    /* \"#utility.yul\":2626:3971   */\ntag_7:\n    /* \"#utility.yul\":2746:2756   */\n  dup2\n  mload\n  sub(shl(0x40, 0x01), 0x01)\n    /* \"#utility.yul\":2768:2798   */\n  dup2\n  gt\n    /* \"#utility.yul\":2765:2821   */\n  iszero\n  tag_42\n  jumpi\n    /* \"#utility.yul\":2801:2819   */\n  tag_42\n  tag_9\n  jump\t// in\ntag_42:\n    /* \"#utility.yul\":2830:2927   */\n  tag_43\n    /* \"#utility.yul\":2920:2926   */\n  dup2\n    /* \"#utility.yul\":2880:2918   */\n  tag_44\n    /* \"#utility.yul\":2912:2916   */\n  dup5\n    /* \"#utility.yul\":2906:2917   */\n  sload\n    /* \"#utility.yul\":2880:2918   */\n  tag_10\n  jump\t// in\ntag_44:\n    /* \"#utility.yul\":2874:2878   */\n  dup5\n    /* \"#utility.yul\":2830:2927   */\n  tag_12\n  jump\t// in\ntag_43:\n    /* \"#utility.yul\":2982:2986   */\n  0x20\n  dup1\n    /* \"#utility.yul\":3039:3041   */\n  0x1f\n    /* \"#utility.yul\":3028:3042   */\n  dup4\n  gt\n    /* \"#utility.yul\":3056:3057   */\n  0x01\n    /* \"#utility.yul\":3051:3714   */\n  dup2\n  eq\n  tag_46\n  jumpi\n    /* \"#utility.yul\":3758:3759   */\n  0x00\n    /* \"#utility.yul\":3775:3781   */\n  dup5\n    /* \"#utility.yul\":3772:3861   */\n  iszero\n  tag_47\n  jumpi\n  pop\n    /* \"#utility.yul\":3827:3846   */\n  dup6\n  dup4\n  add\n    /* \"#utility.yul\":3821:3847   */\n  mload\n    /* \"#utility.yul\":3772:3861   */\ntag_47:\n  not(0x00)\n    /* \"#utility.yul\":2583:2584   */\n  0x03\n    /* \"#utility.yul\":2579:2590   */\n  dup7\n  swap1\n  shl\n    /* \"#utility.yul\":2575:2599   */\n  shr\n    /* \"#utility.yul\":2571:2600   */\n  not\n    /* \"#utility.yul\":2561:2601   */\n  and\n    /* \"#utility.yul\":2607:2608   */\n  0x01\n    /* \"#utility.yul\":2603:2614   */\n  dup6\n  swap1\n  shl\n    /* \"#utility.yul\":2558:2615   */\n  or\n    /* \"#utility.yul\":3874:3955   */\n  dup6\n  sstore\n    /* \"#utility.yul\":3021:3965   */\n  jump(tag_45)\n    /* \"#utility.yul\":3051:3714   */\ntag_46:\n    /* \"#utility.yul\":1879:1880   */\n  0x00\n    /* \"#utility.yul\":1872:1886   */\n  dup6\n  dup2\n  mstore\n    /* \"#utility.yul\":1916:1920   */\n  0x20\n    /* \"#utility.yul\":1903:1921   */\n  dup2\n  keccak256\n  not(0x1f)\n    /* \"#utility.yul\":3087:3107   */\n  dup7\n  and\n  swap2\n    /* \"#utility.yul\":3205:3441   */\ntag_50:\n    /* \"#utility.yul\":3219:3226   */\n  dup3\n    /* \"#utility.yul\":3216:3217   */\n  dup2\n    /* \"#utility.yul\":3213:3227   */\n  lt\n    /* \"#utility.yul\":3205:3441   */\n  iszero\n  tag_52\n  jumpi\n    /* \"#utility.yul\":3308:3327   */\n  dup9\n  dup7\n  add\n    /* \"#utility.yul\":3302:3328   */\n  mload\n    /* \"#utility.yul\":3287:3329   */\n  dup3\n  sstore\n    /* \"#utility.yul\":3400:3427   */\n  swap5\n  dup5\n  add\n  swap5\n    /* \"#utility.yul\":3368:3369   */\n  0x01\n    /* \"#utility.yul\":3356:3370   */\n  swap1\n  swap2\n  add\n  swap1\n    /* \"#utility.yul\":3235:3254   */\n  dup5\n  add\n    /* \"#utility.yul\":3205:3441   */\n  jump(tag_50)\ntag_52:\n    /* \"#utility.yul\":3209:3212   */\n  pop\n    /* \"#utility.yul\":3469:3475   */\n  dup6\n    /* \"#utility.yul\":3460:3467   */\n  dup3\n    /* \"#utility.yul\":3457:3476   */\n  lt\n    /* \"#utility.yul\":3454:3655   */\n  iszero\n  tag_53\n  jumpi\n    /* \"#utility.yul\":3530:3549   */\n  dup8\n  dup6\n  add\n    /* \"#utility.yul\":3524:3550   */\n  mload\n  not(0x00)\n    /* \"#utility.yul\":3613:3614   */\n  0x03\n    /* \"#utility.yul\":3609:3623   */\n  dup9\n  swap1\n  shl\n    /* \"#utility.yul\":3625:3628   */\n  0xf8\n    /* \"#utility.yul\":3605:3629   */\n  and\n    /* \"#utility.yul\":3601:3638   */\n  shr\n    /* \"#utility.yul\":3597:3639   */\n  not\n    /* \"#utility.yul\":3582:3640   */\n  and\n    /* \"#utility.yul\":3567:3641   */\n  dup2\n  sstore\n    /* \"#utility.yul\":3454:3655   */\ntag_53:\n  pop\n  pop\n    /* \"#utility.yul\":3701:3702   */\n  0x01\n    /* \"#utility.yul\":3692:3698   */\n  dup5\n    /* \"#utility.yul\":3689:3690   */\n  0x01\n    /* \"#utility.yul\":3685:3699   */\n  shl\n    /* \"#utility.yul\":3681:3703   */\n  add\n    /* \"#utility.yul\":3675:3679   */\n  dup6\n    /* \"#utility.yul\":3668:3704   */\n  sstore\n    /* \"#utility.yul\":3021:3965   */\ntag_45:\n  pop\n  pop\n  pop\n  pop\n    /* \"#utility.yul\":2626:3971   */\n  pop\n  pop\n  jump\t// out\ntag_14:\n    /* \"Lottogemeinschaft.sol\":57:1590  contract Lottogemeinschaft {... */\n  dataSize(sub_0)\n  dup1\n  dataOffset(sub_0)\n  0x00\n  codecopy\n  0x00\n  return\nstop\n\nsub_0: assembly {\n        /* \"Lottogemeinschaft.sol\":57:1590  contract Lottogemeinschaft {... */\n      mstore(0x40, 0x80)\n      jumpi(tag_1, lt(calldatasize, 0x04))\n      shr(0xe0, calldataload(0x00))\n      dup1\n      0xad2c046c\n      gt\n      tag_11\n      jumpi\n      dup1\n      0xc88c8b28\n      gt\n      tag_12\n      jumpi\n      dup1\n      0xc88c8b28\n      eq\n      tag_8\n      jumpi\n      dup1\n      0xe16fd105\n      eq\n      tag_9\n      jumpi\n      dup1\n      0xf199f199\n      eq\n      tag_10\n      jumpi\n      0x00\n      dup1\n      revert\n    tag_12:\n      dup1\n      0xad2c046c\n      eq\n      tag_6\n      jumpi\n      dup1\n      0xb69ef8a8\n      eq\n      tag_7\n      jumpi\n      0x00\n      dup1\n      revert\n    tag_11:\n      dup1\n      0x06fdde03\n      eq\n      tag_2\n      jumpi\n      dup1\n      0x0a59e4f4\n      eq\n      tag_3\n      jumpi\n      dup1\n      0x311e73da\n      eq\n      tag_4\n      jumpi\n      dup1\n      0xa10efef1\n      eq\n      tag_5\n      jumpi\n    tag_1:\n      0x00\n      dup1\n      revert\n        /* \"Lottogemeinschaft.sol\":119:137  string public name */\n    tag_2:\n      callvalue\n      dup1\n      iszero\n      tag_13\n      jumpi\n      0x00\n      dup1\n      revert\n    tag_13:\n      pop\n      tag_14\n      tag_15\n      jump\t// in\n    tag_14:\n      mload(0x40)\n      tag_16\n      swap2\n      swap1\n      tag_17\n      jump\t// in\n    tag_16:\n      mload(0x40)\n      dup1\n      swap2\n      sub\n      swap1\n      return\n        /* \"Lottogemeinschaft.sol\":168:193  uint public maxTeilnehmer */\n    tag_3:\n      callvalue\n      dup1\n      iszero\n      tag_18\n      jumpi\n      0x00\n      dup1\n      revert\n    tag_18:\n      pop\n      tag_19\n      sload(0x03)\n      dup2\n      jump\n    tag_19:\n      mload(0x40)\n        /* \"#utility.yul\":772:797   */\n      swap1\n      dup2\n      mstore\n        /* \"#utility.yul\":760:762   */\n      0x20\n        /* \"#utility.yul\":745:763   */\n      add\n        /* \"Lottogemeinschaft.sol\":168:193  uint public maxTeilnehmer */\n      tag_16\n        /* \"#utility.yul\":626:803   */\n      jump\n        /* \"Lottogemeinschaft.sol\":976:1282  function gewinnEinzahlen(uint betrag) public {... */\n    tag_4:\n      callvalue\n      dup1\n      iszero\n      tag_23\n      jumpi\n      0x00\n      dup1\n      revert\n    tag_23:\n      pop\n      tag_24\n      tag_25\n      calldatasize\n      0x04\n      tag_26\n      jump\t// in\n    tag_25:\n      tag_27\n      jump\t// in\n    tag_24:\n      stop\n        /* \"Lottogemeinschaft.sol\":668:970  function beitreten() public payable {... */\n    tag_5:\n      tag_24\n      tag_29\n      jump\t// in\n        /* \"Lottogemeinschaft.sol\":90:113  address public gruender */\n    tag_6:\n      callvalue\n      dup1\n      iszero\n      tag_30\n      jumpi\n      0x00\n      dup1\n      revert\n    tag_30:\n      pop\n      sload(0x00)\n      tag_31\n      swap1\n      0xffffffffffffffffffffffffffffffffffffffff\n      and\n      dup2\n      jump\n    tag_31:\n      mload(0x40)\n        /* \"#utility.yul\":1169:1211   */\n      0xffffffffffffffffffffffffffffffffffffffff\n        /* \"#utility.yul\":1157:1212   */\n      swap1\n      swap2\n      and\n        /* \"#utility.yul\":1139:1213   */\n      dup2\n      mstore\n        /* \"#utility.yul\":1127:1129   */\n      0x20\n        /* \"#utility.yul\":1112:1130   */\n      add\n        /* \"Lottogemeinschaft.sol\":90:113  address public gruender */\n      tag_16\n        /* \"#utility.yul\":993:1219   */\n      jump\n        /* \"Lottogemeinschaft.sol\":143:162  uint public balance */\n    tag_7:\n      callvalue\n      dup1\n      iszero\n      tag_35\n      jumpi\n      0x00\n      dup1\n      revert\n    tag_35:\n      pop\n      tag_19\n      sload(0x02)\n      dup2\n      jump\n        /* \"Lottogemeinschaft.sol\":1288:1588  function einsatzAbholen() public {... */\n    tag_8:\n      callvalue\n      dup1\n      iszero\n      tag_39\n      jumpi\n      0x00\n      dup1\n      revert\n    tag_39:\n      pop\n      tag_24\n      tag_41\n      jump\t// in\n        /* \"Lottogemeinschaft.sol\":235:263  bool public gewinnEingezahlt */\n    tag_9:\n      callvalue\n      dup1\n      iszero\n      tag_42\n      jumpi\n      0x00\n      dup1\n      revert\n    tag_42:\n      pop\n      sload(0x05)\n      tag_43\n      swap1\n      0xff\n      and\n      dup2\n      jump\n    tag_43:\n      mload(0x40)\n        /* \"#utility.yul\":1389:1403   */\n      swap1\n      iszero\n        /* \"#utility.yul\":1382:1404   */\n      iszero\n        /* \"#utility.yul\":1364:1405   */\n      dup2\n      mstore\n        /* \"#utility.yul\":1352:1354   */\n      0x20\n        /* \"#utility.yul\":1337:1355   */\n      add\n        /* \"Lottogemeinschaft.sol\":235:263  bool public gewinnEingezahlt */\n      tag_16\n        /* \"#utility.yul\":1224:1411   */\n      jump\n        /* \"Lottogemeinschaft.sol\":199:229  uint public aktuelleTeilnehmer */\n    tag_10:\n      callvalue\n      dup1\n      iszero\n      tag_47\n      jumpi\n      0x00\n      dup1\n      revert\n    tag_47:\n      pop\n      tag_19\n      sload(0x04)\n      dup2\n      jump\n        /* \"Lottogemeinschaft.sol\":119:137  string public name */\n    tag_15:\n      0x01\n      dup1\n      sload\n      tag_51\n      swap1\n      tag_52\n      jump\t// in\n    tag_51:\n      dup1\n      0x1f\n      add\n      0x20\n      dup1\n      swap2\n      div\n      mul\n      0x20\n      add\n      mload(0x40)\n      swap1\n      dup2\n      add\n      0x40\n      mstore\n      dup1\n      swap3\n      swap2\n      swap1\n      dup2\n      dup2\n      mstore\n      0x20\n      add\n      dup3\n      dup1\n      sload\n      tag_53\n      swap1\n      tag_52\n      jump\t// in\n    tag_53:\n      dup1\n      iszero\n      tag_54\n      jumpi\n      dup1\n      0x1f\n      lt\n      tag_55\n      jumpi\n      0x0100\n      dup1\n      dup4\n      sload\n      div\n      mul\n      dup4\n      mstore\n      swap2\n      0x20\n      add\n      swap2\n      jump(tag_54)\n    tag_55:\n      dup3\n      add\n      swap2\n      swap1\n      0x00\n      mstore\n      keccak256(0x00, 0x20)\n      swap1\n    tag_56:\n      dup2\n      sload\n      dup2\n      mstore\n      swap1\n      0x01\n      add\n      swap1\n      0x20\n      add\n      dup1\n      dup4\n      gt\n      tag_56\n      jumpi\n      dup3\n      swap1\n      sub\n      0x1f\n      and\n      dup3\n      add\n      swap2\n    tag_54:\n      pop\n      pop\n      pop\n      pop\n      pop\n      dup2\n      jump\t// out\n        /* \"Lottogemeinschaft.sol\":976:1282  function gewinnEinzahlen(uint betrag) public {... */\n    tag_27:\n        /* \"Lottogemeinschaft.sol\":1053:1061  gruender */\n      and(0xffffffffffffffffffffffffffffffffffffffff, sload(0x00))\n        /* \"Lottogemeinschaft.sol\":1039:1049  msg.sender */\n      caller\n        /* \"Lottogemeinschaft.sol\":1039:1061  msg.sender == gruender */\n      eq\n        /* \"Lottogemeinschaft.sol\":1031:1105  require(msg.sender == gruender, \"Nur der Gruender kann Gewinne einzahlen\") */\n      tag_58\n      jumpi\n      mload(0x40)\n      0x08c379a000000000000000000000000000000000000000000000000000000000\n      dup2\n      mstore\n        /* \"#utility.yul\":2060:2062   */\n      0x20\n        /* \"Lottogemeinschaft.sol\":1031:1105  require(msg.sender == gruender, \"Nur der Gruender kann Gewinne einzahlen\") */\n      0x04\n      dup3\n      add\n        /* \"#utility.yul\":2042:2063   */\n      mstore\n        /* \"#utility.yul\":2099:2101   */\n      0x27\n        /* \"#utility.yul\":2079:2097   */\n      0x24\n      dup3\n      add\n        /* \"#utility.yul\":2072:2102   */\n      mstore\n        /* \"#utility.yul\":2138:2172   */\n      0x4e75722064657220477275656e646572206b616e6e20476577696e6e65206569\n        /* \"#utility.yul\":2118:2136   */\n      0x44\n      dup3\n      add\n        /* \"#utility.yul\":2111:2173   */\n      mstore\n        /* \"#utility.yul\":2209:2218   */\n      0x6e7a61686c656e00000000000000000000000000000000000000000000000000\n        /* \"#utility.yul\":2189:2207   */\n      0x64\n      dup3\n      add\n        /* \"#utility.yul\":2182:2219   */\n      mstore\n        /* \"#utility.yul\":2236:2255   */\n      0x84\n      add\n        /* \"Lottogemeinschaft.sol\":1031:1105  require(msg.sender == gruender, \"Nur der Gruender kann Gewinne einzahlen\") */\n    tag_59:\n      mload(0x40)\n      dup1\n      swap2\n      sub\n      swap1\n      revert\n    tag_58:\n        /* \"Lottogemeinschaft.sol\":1124:1140  gewinnEingezahlt */\n      and(0xff, sload(0x05))\n        /* \"Lottogemeinschaft.sol\":1123:1140  !gewinnEingezahlt */\n      iszero\n        /* \"Lottogemeinschaft.sol\":1115:1176  require(!gewinnEingezahlt, \"Gewinn wurde bereits eingezahlt\") */\n      tag_61\n      jumpi\n      mload(0x40)\n      0x08c379a000000000000000000000000000000000000000000000000000000000\n      dup2\n      mstore\n        /* \"#utility.yul\":2468:2470   */\n      0x20\n        /* \"Lottogemeinschaft.sol\":1115:1176  require(!gewinnEingezahlt, \"Gewinn wurde bereits eingezahlt\") */\n      0x04\n      dup3\n      add\n        /* \"#utility.yul\":2450:2471   */\n      mstore\n        /* \"#utility.yul\":2507:2509   */\n      0x1f\n        /* \"#utility.yul\":2487:2505   */\n      0x24\n      dup3\n      add\n        /* \"#utility.yul\":2480:2510   */\n      mstore\n        /* \"#utility.yul\":2546:2579   */\n      0x476577696e6e20777572646520626572656974732065696e67657a61686c7400\n        /* \"#utility.yul\":2526:2544   */\n      0x44\n      dup3\n      add\n        /* \"#utility.yul\":2519:2580   */\n      mstore\n        /* \"#utility.yul\":2597:2615   */\n      0x64\n      add\n        /* \"Lottogemeinschaft.sol\":1115:1176  require(!gewinnEingezahlt, \"Gewinn wurde bereits eingezahlt\") */\n      tag_59\n        /* \"#utility.yul\":2266:2621   */\n      jump\n        /* \"Lottogemeinschaft.sol\":1115:1176  require(!gewinnEingezahlt, \"Gewinn wurde bereits eingezahlt\") */\n    tag_61:\n        /* \"Lottogemeinschaft.sol\":1197:1203  betrag */\n      dup1\n        /* \"Lottogemeinschaft.sol\":1186:1193  balance */\n      0x02\n      0x00\n        /* \"Lottogemeinschaft.sol\":1186:1203  balance += betrag */\n      dup3\n      dup3\n      sload\n      tag_64\n      swap2\n      swap1\n      tag_65\n      jump\t// in\n    tag_64:\n      swap1\n      swap2\n      sstore\n      pop\n      pop\n        /* \"Lottogemeinschaft.sol\":1213:1229  gewinnEingezahlt */\n      0x05\n        /* \"Lottogemeinschaft.sol\":1213:1236  gewinnEingezahlt = true */\n      dup1\n      sload\n      0xffffffffffffffffffffffffffffffffffffffffffffffffffffffffffffff00\n      and\n        /* \"Lottogemeinschaft.sol\":1232:1236  true */\n      0x01\n        /* \"Lottogemeinschaft.sol\":1213:1236  gewinnEingezahlt = true */\n      or\n      swap1\n      sstore\n        /* \"Lottogemeinschaft.sol\":1251:1275  GewinnEingezahlt(betrag) */\n      mload(0x40)\n      0x58f86681c1da5699620bc9d21424b42872d7f5e37fde7c80e24ce54fbbb43f80\n      swap1\n      tag_66\n      swap1\n        /* \"Lottogemeinschaft.sol\":1268:1274  betrag */\n      dup4\n        /* \"#utility.yul\":772:797   */\n      dup2\n      mstore\n        /* \"#utility.yul\":760:762   */\n      0x20\n        /* \"#utility.yul\":745:763   */\n      add\n      swap1\n        /* \"#utility.yul\":626:803   */\n      jump\n        /* \"Lottogemeinschaft.sol\":1251:1275  GewinnEingezahlt(betrag) */\n    tag_66:\n      mload(0x40)\n      dup1\n      swap2\n      sub\n      swap1\n      log1\n        /* \"Lottogemeinschaft.sol\":976:1282  function gewinnEinzahlen(uint betrag) public {... */\n      pop\n      jump\t// out\n        /* \"Lottogemeinschaft.sol\":668:970  function beitreten() public payable {... */\n    tag_29:\n        /* \"Lottogemeinschaft.sol\":743:756  maxTeilnehmer */\n      sload(0x03)\n        /* \"Lottogemeinschaft.sol\":722:740  aktuelleTeilnehmer */\n      sload(0x04)\n        /* \"Lottogemeinschaft.sol\":722:756  aktuelleTeilnehmer < maxTeilnehmer */\n      lt\n        /* \"Lottogemeinschaft.sol\":714:793  require(aktuelleTeilnehmer < maxTeilnehmer, \"Maximale Teilnehmerzahl erreicht\") */\n      tag_68\n      jumpi\n      mload(0x40)\n      0x08c379a000000000000000000000000000000000000000000000000000000000\n      dup2\n      mstore\n        /* \"#utility.yul\":3147:3149   */\n      0x20\n        /* \"Lottogemeinschaft.sol\":714:793  require(aktuelleTeilnehmer < maxTeilnehmer, \"Maximale Teilnehmerzahl erreicht\") */\n      0x04\n      dup3\n      add\n        /* \"#utility.yul\":3129:3150   */\n      dup2\n      swap1\n      mstore\n        /* \"#utility.yul\":3166:3184   */\n      0x24\n      dup3\n      add\n        /* \"#utility.yul\":3159:3189   */\n      mstore\n        /* \"#utility.yul\":3225:3259   */\n      0x4d6178696d616c65205465696c6e65686d65727a61686c206572726569636874\n        /* \"#utility.yul\":3205:3223   */\n      0x44\n      dup3\n      add\n        /* \"#utility.yul\":3198:3260   */\n      mstore\n        /* \"#utility.yul\":3277:3295   */\n      0x64\n      add\n        /* \"Lottogemeinschaft.sol\":714:793  require(aktuelleTeilnehmer < maxTeilnehmer, \"Maximale Teilnehmerzahl erreicht\") */\n      tag_59\n        /* \"#utility.yul\":2945:3301   */\n      jump\n        /* \"Lottogemeinschaft.sol\":714:793  require(aktuelleTeilnehmer < maxTeilnehmer, \"Maximale Teilnehmerzahl erreicht\") */\n    tag_68:\n        /* \"Lottogemeinschaft.sol\":823:824  0 */\n      0x00\n        /* \"Lottogemeinschaft.sol\":811:820  msg.value */\n      callvalue\n        /* \"Lottogemeinschaft.sol\":811:824  msg.value > 0 */\n      gt\n        /* \"Lottogemeinschaft.sol\":803:857  require(msg.value > 0, \"Ein Beitrag ist erforderlich\") */\n      tag_71\n      jumpi\n      mload(0x40)\n      0x08c379a000000000000000000000000000000000000000000000000000000000\n      dup2\n      mstore\n        /* \"#utility.yul\":3508:3510   */\n      0x20\n        /* \"Lottogemeinschaft.sol\":803:857  require(msg.value > 0, \"Ein Beitrag ist erforderlich\") */\n      0x04\n      dup3\n      add\n        /* \"#utility.yul\":3490:3511   */\n      mstore\n        /* \"#utility.yul\":3547:3549   */\n      0x1c\n        /* \"#utility.yul\":3527:3545   */\n      0x24\n      dup3\n      add\n        /* \"#utility.yul\":3520:3550   */\n      mstore\n        /* \"#utility.yul\":3586:3616   */\n      0x45696e204265697472616720697374206572666f726465726c69636800000000\n        /* \"#utility.yul\":3566:3584   */\n      0x44\n      dup3\n      add\n        /* \"#utility.yul\":3559:3617   */\n      mstore\n        /* \"#utility.yul\":3634:3652   */\n      0x64\n      add\n        /* \"Lottogemeinschaft.sol\":803:857  require(msg.value > 0, \"Ein Beitrag ist erforderlich\") */\n      tag_59\n        /* \"#utility.yul\":3306:3658   */\n      jump\n        /* \"Lottogemeinschaft.sol\":803:857  require(msg.value > 0, \"Ein Beitrag ist erforderlich\") */\n    tag_71:\n        /* \"Lottogemeinschaft.sol\":878:887  msg.value */\n      callvalue\n        /* \"Lottogemeinschaft.sol\":867:874  balance */\n      0x02\n      0x00\n        /* \"Lottogemeinschaft.sol\":867:887  balance += msg.value */\n      dup3\n      dup3\n      sload\n      tag_74\n      swap2\n      swap1\n      tag_65\n      jump\t// in\n    tag_74:\n      swap1\n      swap2\n      sstore\n      pop\n      pop\n        /* \"Lottogemeinschaft.sol\":897:915  aktuelleTeilnehmer */\n      0x04\n        /* \"Lottogemeinschaft.sol\":897:917  aktuelleTeilnehmer++ */\n      dup1\n      sload\n      swap1\n        /* \"Lottogemeinschaft.sol\":897:915  aktuelleTeilnehmer */\n      0x00\n        /* \"Lottogemeinschaft.sol\":897:917  aktuelleTeilnehmer++ */\n      tag_75\n      dup4\n      tag_76\n      jump\t// in\n    tag_75:\n      swap1\n      swap2\n      sstore\n      pop\n      pop\n        /* \"Lottogemeinschaft.sol\":932:963  BeitrittErfolgreich(msg.sender) */\n      mload(0x40)\n        /* \"Lottogemeinschaft.sol\":952:962  msg.sender */\n      caller\n        /* \"#utility.yul\":1139:1213   */\n      dup2\n      mstore\n        /* \"Lottogemeinschaft.sol\":932:963  BeitrittErfolgreich(msg.sender) */\n      0x8a7a10bc827ff0a27fa08628c72e64d5c65d76e97a5ff9b5464a43e2ae638c1a\n      swap1\n        /* \"#utility.yul\":1127:1129   */\n      0x20\n        /* \"#utility.yul\":1112:1130   */\n      add\n        /* \"Lottogemeinschaft.sol\":932:963  BeitrittErfolgreich(msg.sender) */\n      mload(0x40)\n      dup1\n      swap2\n      sub\n      swap1\n      log1\n        /* \"Lottogemeinschaft.sol\":668:970  function beitreten() public payable {... */\n      jump\t// out\n        /* \"Lottogemeinschaft.sol\":1288:1588  function einsatzAbholen() public {... */\n    tag_41:\n        /* \"Lottogemeinschaft.sol\":1353:1361  gruender */\n      and(0xffffffffffffffffffffffffffffffffffffffff, sload(0x00))\n        /* \"Lottogemeinschaft.sol\":1339:1349  msg.sender */\n      caller\n        /* \"Lottogemeinschaft.sol\":1339:1361  msg.sender == gruender */\n      eq\n        /* \"Lottogemeinschaft.sol\":1331:1407  require(msg.sender == gruender, \"Nur der Gruender kann den Einsatz abholen\") */\n      tag_79\n      jumpi\n      mload(0x40)\n      0x08c379a000000000000000000000000000000000000000000000000000000000\n      dup2\n      mstore\n        /* \"#utility.yul\":4065:4067   */\n      0x20\n        /* \"Lottogemeinschaft.sol\":1331:1407  require(msg.sender == gruender, \"Nur der Gruender kann den Einsatz abholen\") */\n      0x04\n      dup3\n      add\n        /* \"#utility.yul\":4047:4068   */\n      mstore\n        /* \"#utility.yul\":4104:4106   */\n      0x29\n        /* \"#utility.yul\":4084:4102   */\n      0x24\n      dup3\n      add\n        /* \"#utility.yul\":4077:4107   */\n      mstore\n        /* \"#utility.yul\":4143:4177   */\n      0x4e75722064657220477275656e646572206b616e6e2064656e2045696e736174\n        /* \"#utility.yul\":4123:4141   */\n      0x44\n      dup3\n      add\n        /* \"#utility.yul\":4116:4178   */\n      mstore\n        /* \"#utility.yul\":4214:4225   */\n      0x7a206162686f6c656e0000000000000000000000000000000000000000000000\n        /* \"#utility.yul\":4194:4212   */\n      0x64\n      dup3\n      add\n        /* \"#utility.yul\":4187:4226   */\n      mstore\n        /* \"#utility.yul\":4243:4262   */\n      0x84\n      add\n        /* \"Lottogemeinschaft.sol\":1331:1407  require(msg.sender == gruender, \"Nur der Gruender kann den Einsatz abholen\") */\n      tag_59\n        /* \"#utility.yul\":3863:4268   */\n      jump\n        /* \"Lottogemeinschaft.sol\":1331:1407  require(msg.sender == gruender, \"Nur der Gruender kann den Einsatz abholen\") */\n    tag_79:\n        /* \"Lottogemeinschaft.sol\":1426:1442  gewinnEingezahlt */\n      and(0xff, sload(0x05))\n        /* \"Lottogemeinschaft.sol\":1425:1442  !gewinnEingezahlt */\n      iszero\n        /* \"Lottogemeinschaft.sol\":1417:1476  require(!gewinnEingezahlt, \"Gewinn wurde schon eingezahlt\") */\n      tag_82\n      jumpi\n      mload(0x40)\n      0x08c379a000000000000000000000000000000000000000000000000000000000\n      dup2\n      mstore\n        /* \"#utility.yul\":4475:4477   */\n      0x20\n        /* \"Lottogemeinschaft.sol\":1417:1476  require(!gewinnEingezahlt, \"Gewinn wurde schon eingezahlt\") */\n      0x04\n      dup3\n      add\n        /* \"#utility.yul\":4457:4478   */\n      mstore\n        /* \"#utility.yul\":4514:4516   */\n      0x1d\n        /* \"#utility.yul\":4494:4512   */\n      0x24\n      dup3\n      add\n        /* \"#utility.yul\":4487:4517   */\n      mstore\n        /* \"#utility.yul\":4553:4584   */\n      0x476577696e6e207775726465207363686f6e2065696e67657a61686c74000000\n        /* \"#utility.yul\":4533:4551   */\n      0x44\n      dup3\n      add\n        /* \"#utility.yul\":4526:4585   */\n      mstore\n        /* \"#utility.yul\":4602:4620   */\n      0x64\n      add\n        /* \"Lottogemeinschaft.sol\":1417:1476  require(!gewinnEingezahlt, \"Gewinn wurde schon eingezahlt\") */\n      tag_59\n        /* \"#utility.yul\":4273:4626   */\n      jump\n        /* \"Lottogemeinschaft.sol\":1417:1476  require(!gewinnEingezahlt, \"Gewinn wurde schon eingezahlt\") */\n    tag_82:\n        /* \"Lottogemeinschaft.sol\":1494:1502  gruender */\n      0x00\n      dup1\n      sload\n        /* \"Lottogemeinschaft.sol\":1513:1520  balance */\n      sload(0x02)\n        /* \"Lottogemeinschaft.sol\":1486:1521  payable(gruender).transfer(balance) */\n      mload(0x40)\n        /* \"Lottogemeinschaft.sol\":1494:1502  gruender */\n      0xffffffffffffffffffffffffffffffffffffffff\n      swap1\n      swap3\n      and\n      swap3\n        /* \"Lottogemeinschaft.sol\":1486:1521  payable(gruender).transfer(balance) */\n      dup2\n      iszero\n      0x08fc\n      mul\n      swap3\n      swap1\n      dup2\n        /* \"Lottogemeinschaft.sol\":1494:1502  gruender */\n      dup2\n        /* \"Lottogemeinschaft.sol\":1486:1521  payable(gruender).transfer(balance) */\n      dup2\n        /* \"Lottogemeinschaft.sol\":1513:1520  balance */\n      dup6\n        /* \"Lottogemeinschaft.sol\":1494:1502  gruender */\n      dup9\n        /* \"Lottogemeinschaft.sol\":1486:1521  payable(gruender).transfer(balance) */\n      dup9\n      call\n      swap4\n      pop\n      pop\n      pop\n      pop\n      iszero\n      dup1\n      iszero\n      tag_86\n      jumpi\n      returndatasize\n      0x00\n      dup1\n      returndatacopy\n      revert(0x00, returndatasize)\n    tag_86:\n      pop\n        /* \"Lottogemeinschaft.sol\":1536:1560  EinsatzAbgeholt(balance) */\n      0xa5c021ccfabcafeb27f8bd6fcdad02c938068771757389b43e33d8c67b4eee74\n        /* \"Lottogemeinschaft.sol\":1552:1559  balance */\n      sload(0x02)\n        /* \"Lottogemeinschaft.sol\":1536:1560  EinsatzAbgeholt(balance) */\n      mload(0x40)\n      tag_87\n      swap2\n        /* \"#utility.yul\":772:797   */\n      dup2\n      mstore\n        /* \"#utility.yul\":760:762   */\n      0x20\n        /* \"#utility.yul\":745:763   */\n      add\n      swap1\n        /* \"#utility.yul\":626:803   */\n      jump\n        /* \"Lottogemeinschaft.sol\":1536:1560  EinsatzAbgeholt(balance) */\n    tag_87:\n      mload(0x40)\n      dup1\n      swap2\n      sub\n      swap1\n      log1\n        /* \"Lottogemeinschaft.sol\":1580:1581  0 */\n      0x00\n        /* \"Lottogemeinschaft.sol\":1570:1577  balance */\n      0x02\n        /* \"Lottogemeinschaft.sol\":1570:1581  balance = 0 */\n      sstore\n        /* \"Lottogemeinschaft.sol\":1288:1588  function einsatzAbholen() public {... */\n      jump\t// out\n        /* \"#utility.yul\":14:621   */\n    tag_17:\n        /* \"#utility.yul\":126:130   */\n      0x00\n        /* \"#utility.yul\":155:157   */\n      0x20\n        /* \"#utility.yul\":184:186   */\n      dup1\n        /* \"#utility.yul\":173:182   */\n      dup4\n        /* \"#utility.yul\":166:187   */\n      mstore\n        /* \"#utility.yul\":216:222   */\n      dup4\n        /* \"#utility.yul\":210:223   */\n      mload\n        /* \"#utility.yul\":259:265   */\n      dup1\n        /* \"#utility.yul\":254:256   */\n      0x20\n        /* \"#utility.yul\":243:252   */\n      dup6\n        /* \"#utility.yul\":239:257   */\n      add\n        /* \"#utility.yul\":232:266   */\n      mstore\n        /* \"#utility.yul\":284:285   */\n      0x00\n        /* \"#utility.yul\":294:434   */\n    tag_91:\n        /* \"#utility.yul\":308:314   */\n      dup2\n        /* \"#utility.yul\":305:306   */\n      dup2\n        /* \"#utility.yul\":302:315   */\n      lt\n        /* \"#utility.yul\":294:434   */\n      iszero\n      tag_93\n      jumpi\n        /* \"#utility.yul\":403:417   */\n      dup6\n      dup2\n      add\n        /* \"#utility.yul\":399:422   */\n      dup4\n      add\n        /* \"#utility.yul\":393:423   */\n      mload\n        /* \"#utility.yul\":369:386   */\n      dup6\n      dup3\n      add\n        /* \"#utility.yul\":388:390   */\n      0x40\n        /* \"#utility.yul\":365:391   */\n      add\n        /* \"#utility.yul\":358:424   */\n      mstore\n        /* \"#utility.yul\":323:333   */\n      dup3\n      add\n        /* \"#utility.yul\":294:434   */\n      jump(tag_91)\n    tag_93:\n        /* \"#utility.yul\":298:301   */\n      pop\n        /* \"#utility.yul\":483:484   */\n      0x00\n        /* \"#utility.yul\":478:480   */\n      0x40\n        /* \"#utility.yul\":469:475   */\n      dup3\n        /* \"#utility.yul\":458:467   */\n      dup7\n        /* \"#utility.yul\":454:476   */\n      add\n        /* \"#utility.yul\":450:481   */\n      add\n        /* \"#utility.yul\":443:485   */\n      mstore\n        /* \"#utility.yul\":612:614   */\n      0x40\n        /* \"#utility.yul\":542:608   */\n      0xffffffffffffffffffffffffffffffffffffffffffffffffffffffffffffffe0\n        /* \"#utility.yul\":537:539   */\n      0x1f\n        /* \"#utility.yul\":529:535   */\n      dup4\n        /* \"#utility.yul\":525:540   */\n      add\n        /* \"#utility.yul\":521:609   */\n      and\n        /* \"#utility.yul\":510:519   */\n      dup6\n        /* \"#utility.yul\":506:610   */\n      add\n        /* \"#utility.yul\":502:615   */\n      add\n        /* \"#utility.yul\":494:615   */\n      swap3\n      pop\n      pop\n      pop\n        /* \"#utility.yul\":14:621   */\n      swap3\n      swap2\n      pop\n      pop\n      jump\t// out\n        /* \"#utility.yul\":808:988   */\n    tag_26:\n        /* \"#utility.yul\":867:873   */\n      0x00\n        /* \"#utility.yul\":920:922   */\n      0x20\n        /* \"#utility.yul\":908:917   */\n      dup3\n        /* \"#utility.yul\":899:906   */\n      dup5\n        /* \"#utility.yul\":895:918   */\n      sub\n        /* \"#utility.yul\":891:923   */\n      slt\n        /* \"#utility.yul\":888:940   */\n      iszero\n      tag_96\n      jumpi\n        /* \"#utility.yul\":936:937   */\n      0x00\n        /* \"#utility.yul\":933:934   */\n      dup1\n        /* \"#utility.yul\":926:938   */\n      revert\n        /* \"#utility.yul\":888:940   */\n    tag_96:\n      pop\n        /* \"#utility.yul\":959:982   */\n      calldataload\n      swap2\n        /* \"#utility.yul\":808:988   */\n      swap1\n      pop\n      jump\t// out\n        /* \"#utility.yul\":1416:1853   */\n    tag_52:\n        /* \"#utility.yul\":1495:1496   */\n      0x01\n        /* \"#utility.yul\":1491:1503   */\n      dup2\n      dup2\n      shr\n      swap1\n        /* \"#utility.yul\":1538:1550   */\n      dup3\n      and\n      dup1\n        /* \"#utility.yul\":1559:1620   */\n      tag_100\n      jumpi\n        /* \"#utility.yul\":1613:1617   */\n      0x7f\n        /* \"#utility.yul\":1605:1611   */\n      dup3\n        /* \"#utility.yul\":1601:1618   */\n      and\n        /* \"#utility.yul\":1591:1618   */\n      swap2\n      pop\n        /* \"#utility.yul\":1559:1620   */\n    tag_100:\n        /* \"#utility.yul\":1666:1668   */\n      0x20\n        /* \"#utility.yul\":1658:1664   */\n      dup3\n        /* \"#utility.yul\":1655:1669   */\n      lt\n        /* \"#utility.yul\":1635:1653   */\n      dup2\n        /* \"#utility.yul\":1632:1670   */\n      sub\n        /* \"#utility.yul\":1629:1847   */\n      tag_101\n      jumpi\n        /* \"#utility.yul\":1703:1780   */\n      0x4e487b7100000000000000000000000000000000000000000000000000000000\n        /* \"#utility.yul\":1700:1701   */\n      0x00\n        /* \"#utility.yul\":1693:1781   */\n      mstore\n        /* \"#utility.yul\":1804:1808   */\n      0x22\n        /* \"#utility.yul\":1801:1802   */\n      0x04\n        /* \"#utility.yul\":1794:1809   */\n      mstore\n        /* \"#utility.yul\":1832:1836   */\n      0x24\n        /* \"#utility.yul\":1829:1830   */\n      0x00\n        /* \"#utility.yul\":1822:1837   */\n      revert\n        /* \"#utility.yul\":1629:1847   */\n    tag_101:\n      pop\n        /* \"#utility.yul\":1416:1853   */\n      swap2\n      swap1\n      pop\n      jump\t// out\n        /* \"#utility.yul\":2626:2810   */\n    tag_88:\n        /* \"#utility.yul\":2678:2755   */\n      0x4e487b7100000000000000000000000000000000000000000000000000000000\n        /* \"#utility.yul\":2675:2676   */\n      0x00\n        /* \"#utility.yul\":2668:2756   */\n      mstore\n        /* \"#utility.yul\":2775:2779   */\n      0x11\n        /* \"#utility.yul\":2772:2773   */\n      0x04\n        /* \"#utility.yul\":2765:2780   */\n      mstore\n        /* \"#utility.yul\":2799:2803   */\n      0x24\n        /* \"#utility.yul\":2796:2797   */\n      0x00\n        /* \"#utility.yul\":2789:2804   */\n      revert\n        /* \"#utility.yul\":2815:2940   */\n    tag_65:\n        /* \"#utility.yul\":2880:2889   */\n      dup1\n      dup3\n      add\n        /* \"#utility.yul\":2901:2911   */\n      dup1\n      dup3\n      gt\n        /* \"#utility.yul\":2898:2934   */\n      iszero\n      tag_107\n      jumpi\n        /* \"#utility.yul\":2914:2932   */\n      tag_107\n      tag_88\n      jump\t// in\n    tag_107:\n        /* \"#utility.yul\":2815:2940   */\n      swap3\n      swap2\n      pop\n      pop\n      jump\t// out\n        /* \"#utility.yul\":3663:3858   */\n    tag_76:\n        /* \"#utility.yul\":3702:3705   */\n      0x00\n        /* \"#utility.yul\":3733:3799   */\n      0xffffffffffffffffffffffffffffffffffffffffffffffffffffffffffffffff\n        /* \"#utility.yul\":3726:3731   */\n      dup3\n        /* \"#utility.yul\":3723:3800   */\n      sub\n        /* \"#utility.yul\":3720:3823   */\n      tag_112\n      jumpi\n        /* \"#utility.yul\":3803:3821   */\n      tag_112\n      tag_88\n      jump\t// in\n    tag_112:\n      pop\n        /* \"#utility.yul\":3850:3851   */\n      0x01\n        /* \"#utility.yul\":3839:3852   */\n      add\n      swap1\n        /* \"#utility.yul\":3663:3858   */\n      jump\t// out\n\n    auxdata: 0xa2646970667358221220e9766178c23d14fd9ad4e36f1c1db87a661214d5d3f1184019a39c6045c51b3c64736f6c63430008170033\n}\n","bytecode":{"linkReferences":{},"object":"608060405234801562000010575f80fd5b5060405162000b2238038062000b2283398101604081905262000033916200008e565b5f80546001600160a01b0319166001600160a01b03851617905560016200005b83826200020e565b5060035550505f60028190556004556005805460ff19169055620002da565b634e487b7160e01b5f52604160045260245ffd5b5f805f60608486031215620000a1575f80fd5b83516001600160a01b0381168114620000b8575f80fd5b602085810151919450906001600160401b0380821115620000d7575f80fd5b818701915087601f830112620000eb575f80fd5b8151818111156200010057620001006200007a565b604051601f8201601f19908116603f011681019083821181831017156200012b576200012b6200007a565b816040528281528a8684870101111562000143575f80fd5b5f93505b8284101562000166578484018601518185018701529285019262000147565b5f868483010152809750505050505050604084015190509250925092565b600181811c908216806200019957607f821691505b602082108103620001b857634e487b7160e01b5f52602260045260245ffd5b50919050565b601f8211156200020957805f5260205f20601f840160051c81016020851015620001e55750805b601f840160051c820191505b8181101562000206575f8155600101620001f1565b50505b505050565b81516001600160401b038111156200022a576200022a6200007a565b62000242816200023b845462000184565b84620001be565b602080601f83116001811462000278575f8415620002605750858301515b5f19600386901b1c1916600185901b178555620002d2565b5f85815260208120601f198616915b82811015620002a85788860151825594840194600190910190840162000287565b5085821015620002c657878501515f19600388901b60f8161c191681555b505060018460011b0185555b505050505050565b61083a80620002e85f395ff3fe608060405260043610610093575f3560e01c8063ad2c046c11610066578063c88c8b281161004c578063c88c8b2814610172578063e16fd10514610186578063f199f199146101af575f80fd5b8063ad2c046c1461010d578063b69ef8a81461015d575f80fd5b806306fdde03146100975780630a59e4f4146100c1578063311e73da146100e4578063a10efef114610105575b5f80fd5b3480156100a2575f80fd5b506100ab6101c4565b6040516100b891906106b5565b60405180910390f35b3480156100cc575f80fd5b506100d660035481565b6040519081526020016100b8565b3480156100ef575f80fd5b506101036100fe36600461071f565b610250565b005b6101036103e6565b348015610118575f80fd5b505f546101389073ffffffffffffffffffffffffffffffffffffffff1681565b60405173ffffffffffffffffffffffffffffffffffffffff90911681526020016100b8565b348015610168575f80fd5b506100d660025481565b34801561017d575f80fd5b5061010361051b565b348015610191575f80fd5b5060055461019f9060ff1681565b60405190151581526020016100b8565b3480156101ba575f80fd5b506100d660045481565b600180546101d190610736565b80601f01602080910402602001604051908101604052809291908181526020018280546101fd90610736565b80156102485780601f1061021f57610100808354040283529160200191610248565b820191905f5260205f20905b81548152906001019060200180831161022b57829003601f168201915b505050505081565b5f5473ffffffffffffffffffffffffffffffffffffffff1633146102fb576040517f08c379a000000000000000000000000000000000000000000000000000000000815260206004820152602760248201527f4e75722064657220477275656e646572206b616e6e20476577696e6e6520656960448201527f6e7a61686c656e0000000000000000000000000000000000000000000000000060648201526084015b60405180910390fd5b60055460ff1615610368576040517f08c379a000000000000000000000000000000000000000000000000000000000815260206004820152601f60248201527f476577696e6e20777572646520626572656974732065696e67657a61686c740060448201526064016102f2565b8060025f82825461037991906107b4565b9091555050600580547fffffffffffffffffffffffffffffffffffffffffffffffffffffffffffffff001660011790556040517f58f86681c1da5699620bc9d21424b42872d7f5e37fde7c80e24ce54fbbb43f80906103db9083815260200190565b60405180910390a150565b60035460045410610453576040517f08c379a000000000000000000000000000000000000000000000000000000000815260206004820181905260248201527f4d6178696d616c65205465696c6e65686d65727a61686c20657272656963687460448201526064016102f2565b5f34116104bc576040517f08c379a000000000000000000000000000000000000000000000000000000000815260206004820152601c60248201527f45696e204265697472616720697374206572666f726465726c6963680000000060448201526064016102f2565b3460025f8282546104cd91906107b4565b909155505060048054905f6104e1836107cd565b90915550506040513381527f8a7a10bc827ff0a27fa08628c72e64d5c65d76e97a5ff9b5464a43e2ae638c1a9060200160405180910390a1565b5f5473ffffffffffffffffffffffffffffffffffffffff1633146105c1576040517f08c379a000000000000000000000000000000000000000000000000000000000815260206004820152602960248201527f4e75722064657220477275656e646572206b616e6e2064656e2045696e73617460448201527f7a206162686f6c656e000000000000000000000000000000000000000000000060648201526084016102f2565b60055460ff161561062e576040517f08c379a000000000000000000000000000000000000000000000000000000000815260206004820152601d60248201527f476577696e6e207775726465207363686f6e2065696e67657a61686c7400000060448201526064016102f2565b5f805460025460405173ffffffffffffffffffffffffffffffffffffffff9092169281156108fc029290818181858888f19350505050158015610673573d5f803e3d5ffd5b507fa5c021ccfabcafeb27f8bd6fcdad02c938068771757389b43e33d8c67b4eee746002546040516106a791815260200190565b60405180910390a15f600255565b5f602080835283518060208501525f5b818110156106e1578581018301518582016040015282016106c5565b505f6040828601015260407fffffffffffffffffffffffffffffffffffffffffffffffffffffffffffffffe0601f8301168501019250505092915050565b5f6020828403121561072f575f80fd5b5035919050565b600181811c9082168061074a57607f821691505b602082108103610781577f4e487b71000000000000000000000000000000000000000000000000000000005f52602260045260245ffd5b50919050565b7f4e487b71000000000000000000000000000000000000000000000000000000005f52601160045260245ffd5b808201808211156107c7576107c7610787565b92915050565b5f7fffffffffffffffffffffffffffffffffffffffffffffffffffffffffffffffff82036107fd576107fd610787565b506001019056fea2646970667358221220e9766178c23d14fd9ad4e36f1c1db87a661214d5d3f1184019a39c6045c51b3c64736f6c63430008170033","opcodes":"PUSH1 0x80 PUSH1 0x40 MSTORE CALLVALUE DUP1 ISZERO PUSH3 0x10 JUMPI PUSH0 DUP1 REVERT JUMPDEST POP PUSH1 0x40 MLOAD PUSH3 0xB22 CODESIZE SUB DUP1 PUSH3 0xB22 DUP4 CODECOPY DUP2 ADD PUSH1 0x40 DUP2 SWAP1 MSTORE PUSH3 0x33 SWAP2 PUSH3 0x8E JUMP JUMPDEST PUSH0 DUP1 SLOAD PUSH1 0x1 PUSH1 0x1 PUSH1 0xA0 SHL SUB NOT AND PUSH1 0x1 PUSH1 0x1 PUSH1 0xA0 SHL SUB DUP6 AND OR SWAP1 SSTORE PUSH1 0x1 PUSH3 0x5B DUP4 DUP3 PUSH3 0x20E JUMP JUMPDEST POP PUSH1 0x3 SSTORE POP POP PUSH0 PUSH1 0x2 DUP2 SWAP1 SSTORE PUSH1 0x4 SSTORE PUSH1 0x5 DUP1 SLOAD PUSH1 0xFF NOT AND SWAP1 SSTORE PUSH3 0x2DA JUMP JUMPDEST PUSH4 0x4E487B71 PUSH1 0xE0 SHL PUSH0 MSTORE PUSH1 0x41 PUSH1 0x4 MSTORE PUSH1 0x24 PUSH0 REVERT JUMPDEST PUSH0 DUP1 PUSH0 PUSH1 0x60 DUP5 DUP7 SUB SLT ISZERO PUSH3 0xA1 JUMPI PUSH0 DUP1 REVERT JUMPDEST DUP4 MLOAD PUSH1 0x1 PUSH1 0x1 PUSH1 0xA0 SHL SUB DUP2 AND DUP2 EQ PUSH3 0xB8 JUMPI PUSH0 DUP1 REVERT JUMPDEST PUSH1 0x20 DUP6 DUP2 ADD MLOAD SWAP2 SWAP5 POP SWAP1 PUSH1 0x1 PUSH1 0x1 PUSH1 0x40 SHL SUB DUP1 DUP3 GT ISZERO PUSH3 0xD7 JUMPI PUSH0 DUP1 REVERT JUMPDEST DUP2 DUP8 ADD SWAP2 POP DUP8 PUSH1 0x1F DUP4 ADD SLT PUSH3 0xEB JUMPI PUSH0 DUP1 REVERT JUMPDEST DUP2 MLOAD DUP2 DUP2 GT ISZERO PUSH3 0x100 JUMPI PUSH3 0x100 PUSH3 0x7A JUMP JUMPDEST PUSH1 0x40 MLOAD PUSH1 0x1F DUP3 ADD PUSH1 0x1F NOT SWAP1 DUP2 AND PUSH1 0x3F ADD AND DUP2 ADD SWAP1 DUP4 DUP3 GT DUP2 DUP4 LT OR ISZERO PUSH3 0x12B JUMPI PUSH3 0x12B PUSH3 0x7A JUMP JUMPDEST DUP2 PUSH1 0x40 MSTORE DUP3 DUP2 MSTORE DUP11 DUP7 DUP5 DUP8 ADD ADD GT ISZERO PUSH3 0x143 JUMPI PUSH0 DUP1 REVERT JUMPDEST PUSH0 SWAP4 POP JUMPDEST DUP3 DUP5 LT ISZERO PUSH3 0x166 JUMPI DUP5 DUP5 ADD DUP7 ADD MLOAD DUP2 DUP6 ADD DUP8 ADD MSTORE SWAP3 DUP6 ADD SWAP3 PUSH3 0x147 JUMP JUMPDEST PUSH0 DUP7 DUP5 DUP4 ADD ADD MSTORE DUP1 SWAP8 POP POP POP POP POP POP POP PUSH1 0x40 DUP5 ADD MLOAD SWAP1 POP SWAP3 POP SWAP3 POP SWAP3 JUMP JUMPDEST PUSH1 0x1 DUP2 DUP2 SHR SWAP1 DUP3 AND DUP1 PUSH3 0x199 JUMPI PUSH1 0x7F DUP3 AND SWAP2 POP JUMPDEST PUSH1 0x20 DUP3 LT DUP2 SUB PUSH3 0x1B8 JUMPI PUSH4 0x4E487B71 PUSH1 0xE0 SHL PUSH0 MSTORE PUSH1 0x22 PUSH1 0x4 MSTORE PUSH1 0x24 PUSH0 REVERT JUMPDEST POP SWAP2 SWAP1 POP JUMP JUMPDEST PUSH1 0x1F DUP3 GT ISZERO PUSH3 0x209 JUMPI DUP1 PUSH0 MSTORE PUSH1 0x20 PUSH0 KECCAK256 PUSH1 0x1F DUP5 ADD PUSH1 0x5 SHR DUP2 ADD PUSH1 0x20 DUP6 LT ISZERO PUSH3 0x1E5 JUMPI POP DUP1 JUMPDEST PUSH1 0x1F DUP5 ADD PUSH1 0x5 SHR DUP3 ADD SWAP2 POP JUMPDEST DUP2 DUP2 LT ISZERO PUSH3 0x206 JUMPI PUSH0 DUP2 SSTORE PUSH1 0x1 ADD PUSH3 0x1F1 JUMP JUMPDEST POP POP JUMPDEST POP POP POP JUMP JUMPDEST DUP2 MLOAD PUSH1 0x1 PUSH1 0x1 PUSH1 0x40 SHL SUB DUP2 GT ISZERO PUSH3 0x22A JUMPI PUSH3 0x22A PUSH3 0x7A JUMP JUMPDEST PUSH3 0x242 DUP2 PUSH3 0x23B DUP5 SLOAD PUSH3 0x184 JUMP JUMPDEST DUP5 PUSH3 0x1BE JUMP JUMPDEST PUSH1 0x20 DUP1 PUSH1 0x1F DUP4 GT PUSH1 0x1 DUP2 EQ PUSH3 0x278 JUMPI PUSH0 DUP5 ISZERO PUSH3 0x260 JUMPI POP DUP6 DUP4 ADD MLOAD JUMPDEST PUSH0 NOT PUSH1 0x3 DUP7 SWAP1 SHL SHR NOT AND PUSH1 0x1 DUP6 SWAP1 SHL OR DUP6 SSTORE PUSH3 0x2D2 JUMP JUMPDEST PUSH0 DUP6 DUP2 MSTORE PUSH1 0x20 DUP2 KECCAK256 PUSH1 0x1F NOT DUP7 AND SWAP2 JUMPDEST DUP3 DUP2 LT ISZERO PUSH3 0x2A8 JUMPI DUP9 DUP7 ADD MLOAD DUP3 SSTORE SWAP5 DUP5 ADD SWAP5 PUSH1 0x1 SWAP1 SWAP2 ADD SWAP1 DUP5 ADD PUSH3 0x287 JUMP JUMPDEST POP DUP6 DUP3 LT ISZERO PUSH3 0x2C6 JUMPI DUP8 DUP6 ADD MLOAD PUSH0 NOT PUSH1 0x3 DUP9 SWAP1 SHL PUSH1 0xF8 AND SHR NOT AND DUP2 SSTORE JUMPDEST POP POP PUSH1 0x1 DUP5 PUSH1 0x1 SHL ADD DUP6 SSTORE JUMPDEST POP POP POP POP POP POP JUMP JUMPDEST PUSH2 0x83A DUP1 PUSH3 0x2E8 PUSH0 CODECOPY PUSH0 RETURN INVALID PUSH1 0x80 PUSH1 0x40 MSTORE PUSH1 0x4 CALLDATASIZE LT PUSH2 0x93 JUMPI PUSH0 CALLDATALOAD PUSH1 0xE0 SHR DUP1 PUSH4 0xAD2C046C GT PUSH2 0x66 JUMPI DUP1 PUSH4 0xC88C8B28 GT PUSH2 0x4C JUMPI DUP1 PUSH4 0xC88C8B28 EQ PUSH2 0x172 JUMPI DUP1 PUSH4 0xE16FD105 EQ PUSH2 0x186 JUMPI DUP1 PUSH4 0xF199F199 EQ PUSH2 0x1AF JUMPI PUSH0 DUP1 REVERT JUMPDEST DUP1 PUSH4 0xAD2C046C EQ PUSH2 0x10D JUMPI DUP1 PUSH4 0xB69EF8A8 EQ PUSH2 0x15D JUMPI PUSH0 DUP1 REVERT JUMPDEST DUP1 PUSH4 0x6FDDE03 EQ PUSH2 0x97 JUMPI DUP1 PUSH4 0xA59E4F4 EQ PUSH2 0xC1 JUMPI DUP1 PUSH4 0x311E73DA EQ PUSH2 0xE4 JUMPI DUP1 PUSH4 0xA10EFEF1 EQ PUSH2 0x105 JUMPI JUMPDEST PUSH0 DUP1 REVERT JUMPDEST CALLVALUE DUP1 ISZERO PUSH2 0xA2 JUMPI PUSH0 DUP1 REVERT JUMPDEST POP PUSH2 0xAB PUSH2 0x1C4 JUMP JUMPDEST PUSH1 0x40 MLOAD PUSH2 0xB8 SWAP2 SWAP1 PUSH2 0x6B5 JUMP JUMPDEST PUSH1 0x40 MLOAD DUP1 SWAP2 SUB SWAP1 RETURN JUMPDEST CALLVALUE DUP1 ISZERO PUSH2 0xCC JUMPI PUSH0 DUP1 REVERT JUMPDEST POP PUSH2 0xD6 PUSH1 0x3 SLOAD DUP2 JUMP JUMPDEST PUSH1 0x40 MLOAD SWAP1 DUP2 MSTORE PUSH1 0x20 ADD PUSH2 0xB8 JUMP JUMPDEST CALLVALUE DUP1 ISZERO PUSH2 0xEF JUMPI PUSH0 DUP1 REVERT JUMPDEST POP PUSH2 0x103 PUSH2 0xFE CALLDATASIZE PUSH1 0x4 PUSH2 0x71F JUMP JUMPDEST PUSH2 0x250 JUMP JUMPDEST STOP JUMPDEST PUSH2 0x103 PUSH2 0x3E6 JUMP JUMPDEST CALLVALUE DUP1 ISZERO PUSH2 0x118 JUMPI PUSH0 DUP1 REVERT JUMPDEST POP PUSH0 SLOAD PUSH2 0x138 SWAP1 PUSH20 0xFFFFFFFFFFFFFFFFFFFFFFFFFFFFFFFFFFFFFFFF AND DUP2 JUMP JUMPDEST PUSH1 0x40 MLOAD PUSH20 0xFFFFFFFFFFFFFFFFFFFFFFFFFFFFFFFFFFFFFFFF SWAP1 SWAP2 AND DUP2 MSTORE PUSH1 0x20 ADD PUSH2 0xB8 JUMP JUMPDEST CALLVALUE DUP1 ISZERO PUSH2 0x168 JUMPI PUSH0 DUP1 REVERT JUMPDEST POP PUSH2 0xD6 PUSH1 0x2 SLOAD DUP2 JUMP JUMPDEST CALLVALUE DUP1 ISZERO PUSH2 0x17D JUMPI PUSH0 DUP1 REVERT JUMPDEST POP PUSH2 0x103 PUSH2 0x51B JUMP JUMPDEST CALLVALUE DUP1 ISZERO PUSH2 0x191 JUMPI PUSH0 DUP1 REVERT JUMPDEST POP PUSH1 0x5 SLOAD PUSH2 0x19F SWAP1 PUSH1 0xFF AND DUP2 JUMP JUMPDEST PUSH1 0x40 MLOAD SWAP1 ISZERO ISZERO DUP2 MSTORE PUSH1 0x20 ADD PUSH2 0xB8 JUMP JUMPDEST CALLVALUE DUP1 ISZERO PUSH2 0x1BA JUMPI PUSH0 DUP1 REVERT JUMPDEST POP PUSH2 0xD6 PUSH1 0x4 SLOAD DUP2 JUMP JUMPDEST PUSH1 0x1 DUP1 SLOAD PUSH2 0x1D1 SWAP1 PUSH2 0x736 JUMP JUMPDEST DUP1 PUSH1 0x1F ADD PUSH1 0x20 DUP1 SWAP2 DIV MUL PUSH1 0x20 ADD PUSH1 0x40 MLOAD SWAP1 DUP2 ADD PUSH1 0x40 MSTORE DUP1 SWAP3 SWAP2 SWAP1 DUP2 DUP2 MSTORE PUSH1 0x20 ADD DUP3 DUP1 SLOAD PUSH2 0x1FD SWAP1 PUSH2 0x736 JUMP JUMPDEST DUP1 ISZERO PUSH2 0x248 JUMPI DUP1 PUSH1 0x1F LT PUSH2 0x21F JUMPI PUSH2 0x100 DUP1 DUP4 SLOAD DIV MUL DUP4 MSTORE SWAP2 PUSH1 0x20 ADD SWAP2 PUSH2 0x248 JUMP JUMPDEST DUP3 ADD SWAP2 SWAP1 PUSH0 MSTORE PUSH1 0x20 PUSH0 KECCAK256 SWAP1 JUMPDEST DUP2 SLOAD DUP2 MSTORE SWAP1 PUSH1 0x1 ADD SWAP1 PUSH1 0x20 ADD DUP1 DUP4 GT PUSH2 0x22B JUMPI DUP3 SWAP1 SUB PUSH1 0x1F AND DUP3 ADD SWAP2 JUMPDEST POP POP POP POP POP DUP2 JUMP JUMPDEST PUSH0 SLOAD PUSH20 0xFFFFFFFFFFFFFFFFFFFFFFFFFFFFFFFFFFFFFFFF AND CALLER EQ PUSH2 0x2FB JUMPI PUSH1 0x40 MLOAD PUSH32 0x8C379A000000000000000000000000000000000000000000000000000000000 DUP2 MSTORE PUSH1 0x20 PUSH1 0x4 DUP3 ADD MSTORE PUSH1 0x27 PUSH1 0x24 DUP3 ADD MSTORE PUSH32 0x4E75722064657220477275656E646572206B616E6E20476577696E6E65206569 PUSH1 0x44 DUP3 ADD MSTORE PUSH32 0x6E7A61686C656E00000000000000000000000000000000000000000000000000 PUSH1 0x64 DUP3 ADD MSTORE PUSH1 0x84 ADD JUMPDEST PUSH1 0x40 MLOAD DUP1 SWAP2 SUB SWAP1 REVERT JUMPDEST PUSH1 0x5 SLOAD PUSH1 0xFF AND ISZERO PUSH2 0x368 JUMPI PUSH1 0x40 MLOAD PUSH32 0x8C379A000000000000000000000000000000000000000000000000000000000 DUP2 MSTORE PUSH1 0x20 PUSH1 0x4 DUP3 ADD MSTORE PUSH1 0x1F PUSH1 0x24 DUP3 ADD MSTORE PUSH32 0x476577696E6E20777572646520626572656974732065696E67657A61686C7400 PUSH1 0x44 DUP3 ADD MSTORE PUSH1 0x64 ADD PUSH2 0x2F2 JUMP JUMPDEST DUP1 PUSH1 0x2 PUSH0 DUP3 DUP3 SLOAD PUSH2 0x379 SWAP2 SWAP1 PUSH2 0x7B4 JUMP JUMPDEST SWAP1 SWAP2 SSTORE POP POP PUSH1 0x5 DUP1 SLOAD PUSH32 0xFFFFFFFFFFFFFFFFFFFFFFFFFFFFFFFFFFFFFFFFFFFFFFFFFFFFFFFFFFFFFF00 AND PUSH1 0x1 OR SWAP1 SSTORE PUSH1 0x40 MLOAD PUSH32 0x58F86681C1DA5699620BC9D21424B42872D7F5E37FDE7C80E24CE54FBBB43F80 SWAP1 PUSH2 0x3DB SWAP1 DUP4 DUP2 MSTORE PUSH1 0x20 ADD SWAP1 JUMP JUMPDEST PUSH1 0x40 MLOAD DUP1 SWAP2 SUB SWAP1 LOG1 POP JUMP JUMPDEST PUSH1 0x3 SLOAD PUSH1 0x4 SLOAD LT PUSH2 0x453 JUMPI PUSH1 0x40 MLOAD PUSH32 0x8C379A000000000000000000000000000000000000000000000000000000000 DUP2 MSTORE PUSH1 0x20 PUSH1 0x4 DUP3 ADD DUP2 SWAP1 MSTORE PUSH1 0x24 DUP3 ADD MSTORE PUSH32 0x4D6178696D616C65205465696C6E65686D65727A61686C206572726569636874 PUSH1 0x44 DUP3 ADD MSTORE PUSH1 0x64 ADD PUSH2 0x2F2 JUMP JUMPDEST PUSH0 CALLVALUE GT PUSH2 0x4BC JUMPI PUSH1 0x40 MLOAD PUSH32 0x8C379A000000000000000000000000000000000000000000000000000000000 DUP2 MSTORE PUSH1 0x20 PUSH1 0x4 DUP3 ADD MSTORE PUSH1 0x1C PUSH1 0x24 DUP3 ADD MSTORE PUSH32 0x45696E204265697472616720697374206572666F726465726C69636800000000 PUSH1 0x44 DUP3 ADD MSTORE PUSH1 0x64 ADD PUSH2 0x2F2 JUMP JUMPDEST CALLVALUE PUSH1 0x2 PUSH0 DUP3 DUP3 SLOAD PUSH2 0x4CD SWAP2 SWAP1 PUSH2 0x7B4 JUMP JUMPDEST SWAP1 SWAP2 SSTORE POP POP PUSH1 0x4 DUP1 SLOAD SWAP1 PUSH0 PUSH2 0x4E1 DUP4 PUSH2 0x7CD JUMP JUMPDEST SWAP1 SWAP2 SSTORE POP POP PUSH1 0x40 MLOAD CALLER DUP2 MSTORE PUSH32 0x8A7A10BC827FF0A27FA08628C72E64D5C65D76E97A5FF9B5464A43E2AE638C1A SWAP1 PUSH1 0x20 ADD PUSH1 0x40 MLOAD DUP1 SWAP2 SUB SWAP1 LOG1 JUMP JUMPDEST PUSH0 SLOAD PUSH20 0xFFFFFFFFFFFFFFFFFFFFFFFFFFFFFFFFFFFFFFFF AND CALLER EQ PUSH2 0x5C1 JUMPI PUSH1 0x40 MLOAD PUSH32 0x8C379A000000000000000000000000000000000000000000000000000000000 DUP2 MSTORE PUSH1 0x20 PUSH1 0x4 DUP3 ADD MSTORE PUSH1 0x29 PUSH1 0x24 DUP3 ADD MSTORE PUSH32 0x4E75722064657220477275656E646572206B616E6E2064656E2045696E736174 PUSH1 0x44 DUP3 ADD MSTORE PUSH32 0x7A206162686F6C656E0000000000000000000000000000000000000000000000 PUSH1 0x64 DUP3 ADD MSTORE PUSH1 0x84 ADD PUSH2 0x2F2 JUMP JUMPDEST PUSH1 0x5 SLOAD PUSH1 0xFF AND ISZERO PUSH2 0x62E JUMPI PUSH1 0x40 MLOAD PUSH32 0x8C379A000000000000000000000000000000000000000000000000000000000 DUP2 MSTORE PUSH1 0x20 PUSH1 0x4 DUP3 ADD MSTORE PUSH1 0x1D PUSH1 0x24 DUP3 ADD MSTORE PUSH32 0x476577696E6E207775726465207363686F6E2065696E67657A61686C74000000 PUSH1 0x44 DUP3 ADD MSTORE PUSH1 0x64 ADD PUSH2 0x2F2 JUMP JUMPDEST PUSH0 DUP1 SLOAD PUSH1 0x2 SLOAD PUSH1 0x40 MLOAD PUSH20 0xFFFFFFFFFFFFFFFFFFFFFFFFFFFFFFFFFFFFFFFF SWAP1 SWAP3 AND SWAP3 DUP2 ISZERO PUSH2 0x8FC MUL SWAP3 SWAP1 DUP2 DUP2 DUP2 DUP6 DUP9 DUP9 CALL SWAP4 POP POP POP POP ISZERO DUP1 ISZERO PUSH2 0x673 JUMPI RETURNDATASIZE PUSH0 DUP1 RETURNDATACOPY RETURNDATASIZE PUSH0 REVERT JUMPDEST POP PUSH32 0xA5C021CCFABCAFEB27F8BD6FCDAD02C938068771757389B43E33D8C67B4EEE74 PUSH1 0x2 SLOAD PUSH1 0x40 MLOAD PUSH2 0x6A7 SWAP2 DUP2 MSTORE PUSH1 0x20 ADD SWAP1 JUMP JUMPDEST PUSH1 0x40 MLOAD DUP1 SWAP2 SUB SWAP1 LOG1 PUSH0 PUSH1 0x2 SSTORE JUMP JUMPDEST PUSH0 PUSH1 0x20 DUP1 DUP4 MSTORE DUP4 MLOAD DUP1 PUSH1 0x20 DUP6 ADD MSTORE PUSH0 JUMPDEST DUP2 DUP2 LT ISZERO PUSH2 0x6E1 JUMPI DUP6 DUP2 ADD DUP4 ADD MLOAD DUP6 DUP3 ADD PUSH1 0x40 ADD MSTORE DUP3 ADD PUSH2 0x6C5 JUMP JUMPDEST POP PUSH0 PUSH1 0x40 DUP3 DUP7 ADD ADD MSTORE PUSH1 0x40 PUSH32 0xFFFFFFFFFFFFFFFFFFFFFFFFFFFFFFFFFFFFFFFFFFFFFFFFFFFFFFFFFFFFFFE0 PUSH1 0x1F DUP4 ADD AND DUP6 ADD ADD SWAP3 POP POP POP SWAP3 SWAP2 POP POP JUMP JUMPDEST PUSH0 PUSH1 0x20 DUP3 DUP5 SUB SLT ISZERO PUSH2 0x72F JUMPI PUSH0 DUP1 REVERT JUMPDEST POP CALLDATALOAD SWAP2 SWAP1 POP JUMP JUMPDEST PUSH1 0x1 DUP2 DUP2 SHR SWAP1 DUP3 AND DUP1 PUSH2 0x74A JUMPI PUSH1 0x7F DUP3 AND SWAP2 POP JUMPDEST PUSH1 0x20 DUP3 LT DUP2 SUB PUSH2 0x781 JUMPI PUSH32 0x4E487B7100000000000000000000000000000000000000000000000000000000 PUSH0 MSTORE PUSH1 0x22 PUSH1 0x4 MSTORE PUSH1 0x24 PUSH0 REVERT JUMPDEST POP SWAP2 SWAP1 POP JUMP JUMPDEST PUSH32 0x4E487B7100000000000000000000000000000000000000000000000000000000 PUSH0 MSTORE PUSH1 0x11 PUSH1 0x4 MSTORE PUSH1 0x24 PUSH0 REVERT JUMPDEST DUP1 DUP3 ADD DUP1 DUP3 GT ISZERO PUSH2 0x7C7 JUMPI PUSH2 0x7C7 PUSH2 0x787 JUMP JUMPDEST SWAP3 SWAP2 POP POP JUMP JUMPDEST PUSH0 PUSH32 0xFFFFFFFFFFFFFFFFFFFFFFFFFFFFFFFFFFFFFFFFFFFFFFFFFFFFFFFFFFFFFFFF DUP3 SUB PUSH2 0x7FD JUMPI PUSH2 0x7FD PUSH2 0x787 JUMP JUMPDEST POP PUSH1 0x1 ADD SWAP1 JUMP INVALID LOG2 PUSH5 0x6970667358 0x22 SLT KECCAK256 0xE9 PUSH23 0x6178C23D14FD9AD4E36F1C1DB87A661214D5D3F1184019 LOG3 SWAP13 PUSH1 0x45 0xC5 SHL EXTCODECOPY PUSH5 0x736F6C6343 STOP ADDMOD OR STOP CALLER "},"gasEstimates":{"creation":{"codeDepositCost":"421200","executionCost":"infinite","totalCost":"infinite"},"external":{"aktuelleTeilnehmer()":"2360","balance()":"2339","beitreten()":"54068","einsatzAbholen()":"infinite","gewinnEingezahlt()":"2353","gewinnEinzahlen(uint256)":"54114","gruender()":"2334","maxTeilnehmer()":"2317","name()":"infinite"}},"methodIdentifiers":{"aktuelleTeilnehmer()":"f199f199","balance()":"b69ef8a8","beitreten()":"a10efef1","einsatzAbholen()":"c88c8b28","gewinnEingezahlt()":"e16fd105","gewinnEinzahlen(uint256)":"311e73da","gruender()":"ad2c046c","maxTeilnehmer()":"0a59e4f4","name()":"06fdde03"}},"storageLayout":{"storage":[{"astId":3,"contract":"Lottogemeinschaft.sol:Lottogemeinschaft","label":"gruender","offset":0,"slot":"0","type":"t_address"},{"astId":5,"contract":"Lottogemeinschaft.sol:Lottogemeinschaft","label":"name","offset":0,"slot":"1","type":"t_string_storage"},{"astId":7,"contract":"Lottogemeinschaft.sol:Lottogemeinschaft","label":"balance","offset":0,"slot":"2","type":"t_uint256"},{"astId":9,"contract":"Lottogemeinschaft.sol:Lottogemeinschaft","label":"maxTeilnehmer","offset":0,"slot":"3","type":"t_uint256"},{"astId":11,"contract":"Lottogemeinschaft.sol:Lottogemeinschaft","label":"aktuelleTeilnehmer","offset":0,"slot":"4","type":"t_uint256"},{"astId":13,"contract":"Lottogemeinschaft.sol:Lottogemeinschaft","label":"gewinnEingezahlt","offset":0,"slot":"5","type":"t_bool"}],"types":{"t_address":{"encoding":"inplace","label":"address","numberOfBytes":"20"},"t_bool":{"encoding":"inplace","label":"bool","numberOfBytes":"1"},"t_string_storage":{"encoding":"bytes","label":"string","numberOfBytes":"32"},"t_uint256":{"encoding":"inplace","label":"uint256","numberOfBytes":"32"}}},"userdoc":{"kind":"user","methods":{},"version":1}}