{"abi":[{"inputs":[{"internalType":"string","name":"name","type":"string"},{"internalType":"address","name":"ersteller","type":"address"},{"internalType":"uint16","name":"anzahl","type":"uint16"},{"internalType":"uint96","name":"preis","type":"uint96"},{"internalType":"string","name":"scheinNummer","type":"string"},{"internalType":"bool","name":"mitspielerBestimmen","type":"bool"}],"stateMutability":"nonpayable","type":"constructor"},{"inputs":[{"internalType":"uint16","name":"neueAnzahlMaxTeilnehmer","type":"uint16"}],"name":"anzahlMitspielerAendern","outputs":[],"stateMutability":"nonpayable","type":"function"},{"inputs":[],"name":"anzahlTeilnehmerAktuell","outputs":[{"internalType":"uint16","name":"","type":"uint16"}],"stateMutability":"view","type":"function"},{"inputs":[],"name":"aufgeloest","outputs":[{"internalType":"bool","name":"","type":"bool"}],"stateMutability":"view","type":"function"},{"inputs":[],"name":"auszahlung","outputs":[{"internalType":"uint96","name":"","type":"uint96"}],"stateMutability":"view","type":"function"},{"inputs":[],"name":"einsatzAbholen","outputs":[],"stateMutability":"payable","type":"function"},{"inputs":[{"internalType":"address","name":"","type":"address"}],"name":"einsatzZurueckGezahlt","outputs":[{"internalType":"bool","name":"","type":"bool"}],"stateMutability":"view","type":"function"},{"inputs":[],"name":"einsatzZurueckholen","outputs":[],"stateMutability":"payable","type":"function"},{"inputs":[{"internalType":"address","name":"_erlaubterMitspieler","type":"address"}],"name":"erlaubteMitspielerAdresseHinzufuegen","outputs":[],"stateMutability":"nonpayable","type":"function"},{"inputs":[{"internalType":"address","name":"","type":"address"}],"name":"erlaubterMitspieler","outputs":[{"internalType":"bool","name":"","type":"bool"}],"stateMutability":"view","type":"function"},{"inputs":[],"name":"gemeinschaftAufloesen","outputs":[],"stateMutability":"nonpayable","type":"function"},{"inputs":[],"name":"gewinnAbholen","outputs":[],"stateMutability":"nonpayable","type":"function"},{"inputs":[{"internalType":"address","name":"","type":"address"}],"name":"gewinnAusgezahlt","outputs":[{"internalType":"bool","name":"","type":"bool"}],"stateMutability":"view","type":"function"},{"inputs":[{"internalType":"uint48","name":"gewinn","type":"uint48"}],"name":"gewinnEinzahlen","outputs":[],"stateMutability":"payable","type":"function"},{"inputs":[],"name":"gewinnKannAbgeholtWerden","outputs":[{"internalType":"bool","name":"","type":"bool"}],"stateMutability":"view","type":"function"},{"inputs":[],"name":"gewinnProMitspieler","outputs":[{"internalType":"uint48","name":"","type":"uint48"}],"stateMutability":"view","type":"function"},{"inputs":[],"name":"gruender","outputs":[{"internalType":"address","name":"","type":"address"}],"stateMutability":"view","type":"function"},{"inputs":[],"name":"maxTeilnehmerAnzahl","outputs":[{"internalType":"uint16","name":"","type":"uint16"}],"stateMutability":"view","type":"function"},{"inputs":[],"name":"mitmachen","outputs":[],"stateMutability":"payable","type":"function"},{"inputs":[{"internalType":"address","name":"","type":"address"}],"name":"mitspieler","outputs":[{"internalType":"bool","name":"","type":"bool"}],"stateMutability":"view","type":"function"},{"inputs":[],"name":"nurErlaubteMitspieler","outputs":[{"internalType":"bool","name":"","type":"bool"}],"stateMutability":"view","type":"function"},{"inputs":[],"name":"preisLottoschein","outputs":[{"internalType":"uint96","name":"","type":"uint96"}],"stateMutability":"view","type":"function"},{"inputs":[{"internalType":"uint32","name":"neuerPreis","type":"uint32"}],"name":"preisLottoscheinAendern","outputs":[],"stateMutability":"nonpayable","type":"function"},{"inputs":[],"name":"preisProMitspieler","outputs":[{"internalType":"uint96","name":"","type":"uint96"}],"stateMutability":"view","type":"function"},{"inputs":[],"name":"spielauftragsNummer","outputs":[{"internalType":"string","name":"","type":"string"}],"stateMutability":"view","type":"function"},{"inputs":[],"name":"tippgemeinschaftsName","outputs":[{"internalType":"string","name":"","type":"string"}],"stateMutability":"view","type":"function"}],"devdoc":{"kind":"dev","methods":{},"version":1},"evm":{"assembly":"    /* \"Lottogemeinschaft.sol\":1747:7718  contract Lottogemeinschaft {... */\n  mstore(0x40, 0x80)\n    /* \"Lottogemeinschaft.sol\":2237:2274  uint48 public gewinnProMitspieler = 0 */\n  0x08\n  dup1\n  sload\n  not(sub(shl(0x50, 0x01), 0x010000))\n    /* \"Lottogemeinschaft.sol\":2328:2367  bool public nurErlaubteMitspieler=false */\n  and\n  swap1\n  sstore\n    /* \"Lottogemeinschaft.sol\":2484:3166  constructor (string memory name, address ersteller, uint16 anzahl, uint96 preis, string memory scheinNummer, bool mitspielerBestimmen) {... */\n  callvalue\n  dup1\n  iszero\n  tag_1\n  jumpi\n  0x00\n  dup1\n  revert\ntag_1:\n  pop\n  mload(0x40)\n  sub(codesize, bytecodeSize)\n  dup1\n  bytecodeSize\n  dup4\n  codecopy\n  dup2\n  add\n  0x40\n  dup2\n  swap1\n  mstore\n  tag_2\n  swap2\n  tag_3\n  jump\t// in\ntag_2:\n    /* \"Lottogemeinschaft.sol\":2646:2651  65535 */\n  0xffff\n    /* \"Lottogemeinschaft.sol\":2637:2643  anzahl */\n  dup5\n    /* \"Lottogemeinschaft.sol\":2637:2651  anzahl < 65535 */\n  0xffff\n  and\n  lt\n    /* \"Lottogemeinschaft.sol\":2629:2688  require(anzahl < 65535, \"Maximal 65534 Mitspieler erlaubt\") */\n  tag_6\n  jumpi\n  mload(0x40)\n  shl(0xe5, 0x461bcd)\n  dup2\n  mstore\n    /* \"#utility.yul\":2606:2608   */\n  0x20\n    /* \"Lottogemeinschaft.sol\":2629:2688  require(anzahl < 65535, \"Maximal 65534 Mitspieler erlaubt\") */\n  0x04\n  dup3\n  add\n    /* \"#utility.yul\":2588:2609   */\n  dup2\n  swap1\n  mstore\n    /* \"#utility.yul\":2625:2643   */\n  0x24\n  dup3\n  add\n    /* \"#utility.yul\":2618:2648   */\n  mstore\n    /* \"#utility.yul\":2684:2718   */\n  0x4d6178696d616c203635353334204d6974737069656c65722065726c61756274\n    /* \"#utility.yul\":2664:2682   */\n  0x44\n  dup3\n  add\n    /* \"#utility.yul\":2657:2719   */\n  mstore\n    /* \"#utility.yul\":2736:2754   */\n  0x64\n  add\n    /* \"Lottogemeinschaft.sol\":2629:2688  require(anzahl < 65535, \"Maximal 65534 Mitspieler erlaubt\") */\ntag_7:\n  mload(0x40)\n  dup1\n  swap2\n  sub\n  swap1\n  revert\ntag_6:\n  sub(shl(0x60, 0x01), 0x01)\n    /* \"Lottogemeinschaft.sol\":2706:2711  preis */\n  dup4\n  sub(shl(0x60, 0x01), 0x01)\n    /* \"Lottogemeinschaft.sol\":2706:2743  preis < 79228162514264337593543950335 */\n  and\n  lt\n    /* \"Lottogemeinschaft.sol\":2698:2793  require(preis < 79228162514264337593543950335, \"Maximaler Preis 79228162514264337593543950335\") */\n  tag_9\n  jumpi\n  mload(0x40)\n  shl(0xe5, 0x461bcd)\n  dup2\n  mstore\n    /* \"#utility.yul\":2967:2969   */\n  0x20\n    /* \"Lottogemeinschaft.sol\":2698:2793  require(preis < 79228162514264337593543950335, \"Maximaler Preis 79228162514264337593543950335\") */\n  0x04\n  dup3\n  add\n    /* \"#utility.yul\":2949:2970   */\n  mstore\n    /* \"#utility.yul\":3006:3008   */\n  0x2d\n    /* \"#utility.yul\":2986:3004   */\n  0x24\n  dup3\n  add\n    /* \"#utility.yul\":2979:3009   */\n  mstore\n    /* \"#utility.yul\":3045:3079   */\n  0x4d6178696d616c65722050726569732037393232383136323531343236343333\n    /* \"#utility.yul\":3025:3043   */\n  0x44\n  dup3\n  add\n    /* \"#utility.yul\":3018:3080   */\n  mstore\n  shl(0x98, 0x37353933353433393530333335)\n    /* \"#utility.yul\":3096:3114   */\n  0x64\n  dup3\n  add\n    /* \"#utility.yul\":3089:3132   */\n  mstore\n    /* \"#utility.yul\":3149:3168   */\n  0x84\n  add\n    /* \"Lottogemeinschaft.sol\":2698:2793  require(preis < 79228162514264337593543950335, \"Maximaler Preis 79228162514264337593543950335\") */\n  tag_7\n    /* \"#utility.yul\":2765:3174   */\n  jump\n    /* \"Lottogemeinschaft.sol\":2698:2793  require(preis < 79228162514264337593543950335, \"Maximaler Preis 79228162514264337593543950335\") */\ntag_9:\n    /* \"Lottogemeinschaft.sol\":2803:2811  gruender */\n  0x00\n    /* \"Lottogemeinschaft.sol\":2803:2823  gruender = ersteller */\n  dup1\n  sload\n  not(sub(shl(0xa0, 0x01), 0x01))\n  and\n  sub(shl(0xa0, 0x01), 0x01)\n  dup8\n  and\n  or\n  swap1\n  sstore\n  0x01\n    /* \"Lottogemeinschaft.sol\":2833:2861  tippgemeinschaftsName = name */\n  tag_12\n    /* \"Lottogemeinschaft.sol\":2857:2861  name */\n  dup8\n  dup3\n    /* \"Lottogemeinschaft.sol\":2833:2861  tippgemeinschaftsName = name */\n  tag_13\n  jump\t// in\ntag_12:\n  pop\n    /* \"Lottogemeinschaft.sol\":2871:2890  maxTeilnehmerAnzahl */\n  0x02\n    /* \"Lottogemeinschaft.sol\":2871:2899  maxTeilnehmerAnzahl = anzahl */\n  dup1\n  sload\n  0xffff\n  dup7\n  and\n  not(sub(shl(0x70, 0x01), 0x01))\n    /* \"Lottogemeinschaft.sol\":2909:2933  preisLottoschein = preis */\n  swap1\n  swap2\n  and\n  or\n  0x010000\n  sub(shl(0x60, 0x01), 0x01)\n  dup7\n  and\n  mul\n  or\n  swap1\n  sstore\n    /* \"Lottogemeinschaft.sol\":2943:2964  nurErlaubteMitspieler */\n  0x08\n    /* \"Lottogemeinschaft.sol\":2943:2986  nurErlaubteMitspieler = mitspielerBestimmen */\n  dup1\n  sload\n  not(shl(0x48, 0xff))\n  and\n  0x01000000000000000000\n  dup4\n  iszero\n  iszero\n  mul\n  or\n  swap1\n  sstore\n    /* \"Lottogemeinschaft.sol\":2996:3015  spielauftragsNummer */\n  0x03\n    /* \"Lottogemeinschaft.sol\":2996:3030  spielauftragsNummer = scheinNummer */\n  tag_14\n    /* \"Lottogemeinschaft.sol\":3018:3030  scheinNummer */\n  dup4\n    /* \"Lottogemeinschaft.sol\":2996:3015  spielauftragsNummer */\n  dup3\n    /* \"Lottogemeinschaft.sol\":2996:3030  spielauftragsNummer = scheinNummer */\n  tag_13\n  jump\t// in\ntag_14:\n  pop\n    /* \"Lottogemeinschaft.sol\":3103:3122  maxTeilnehmerAnzahl */\n  sload(0x02)\n    /* \"Lottogemeinschaft.sol\":3125:3129  1e18 */\n  0x0de0b6b3a7640000\n  swap1\n    /* \"Lottogemeinschaft.sol\":3103:3122  maxTeilnehmerAnzahl */\n  0xffff\n  dup2\n  and\n  swap1\n    /* \"Lottogemeinschaft.sol\":3068:3100  uint256(preisLottoschein) * 1e18 */\n  tag_15\n  swap1\n    /* \"Lottogemeinschaft.sol\":3076:3092  preisLottoschein */\n  0x010000\n  swap1\n  div\n  sub(shl(0x60, 0x01), 0x01)\n  and\n    /* \"Lottogemeinschaft.sol\":3125:3129  1e18 */\n  dup4\n    /* \"Lottogemeinschaft.sol\":3068:3100  uint256(preisLottoschein) * 1e18 */\n  tag_16\n  jump\t// in\ntag_15:\n    /* \"Lottogemeinschaft.sol\":3068:3122  uint256(preisLottoschein) * 1e18 / maxTeilnehmerAnzahl */\n  tag_17\n  swap2\n  swap1\n  tag_18\n  jump\t// in\ntag_17:\n    /* \"Lottogemeinschaft.sol\":3068:3129  uint256(preisLottoschein) * 1e18 / maxTeilnehmerAnzahl / 1e18 */\n  tag_19\n  swap2\n  swap1\n  tag_18\n  jump\t// in\ntag_19:\n    /* \"Lottogemeinschaft.sol\":3040:3058  preisProMitspieler */\n  0x02\n  0x0e\n    /* \"Lottogemeinschaft.sol\":3040:3130  preisProMitspieler = uint96(uint256(preisLottoschein) * 1e18 / maxTeilnehmerAnzahl / 1e18) */\n  0x0100\n  exp\n  dup2\n  sload\n  dup2\n  sub(shl(0x60, 0x01), 0x01)\n  mul\n  not\n  and\n  swap1\n  dup4\n  sub(shl(0x60, 0x01), 0x01)\n  and\n  mul\n  or\n  swap1\n  sstore\n  pop\n    /* \"Lottogemeinschaft.sol\":2484:3166  constructor (string memory name, address ersteller, uint16 anzahl, uint96 preis, string memory scheinNummer, bool mitspielerBestimmen) {... */\n  pop\n  pop\n  pop\n  pop\n  pop\n  pop\n    /* \"Lottogemeinschaft.sol\":1747:7718  contract Lottogemeinschaft {... */\n  jump(tag_29)\n    /* \"#utility.yul\":14:141   */\ntag_21:\n    /* \"#utility.yul\":75:85   */\n  0x4e487b71\n    /* \"#utility.yul\":70:73   */\n  0xe0\n    /* \"#utility.yul\":66:86   */\n  shl\n    /* \"#utility.yul\":63:64   */\n  0x00\n    /* \"#utility.yul\":56:87   */\n  mstore\n    /* \"#utility.yul\":106:110   */\n  0x41\n    /* \"#utility.yul\":103:104   */\n  0x04\n    /* \"#utility.yul\":96:111   */\n  mstore\n    /* \"#utility.yul\":130:134   */\n  0x24\n    /* \"#utility.yul\":127:128   */\n  0x00\n    /* \"#utility.yul\":120:135   */\n  revert\n    /* \"#utility.yul\":146:990   */\ntag_22:\n    /* \"#utility.yul\":200:205   */\n  0x00\n    /* \"#utility.yul\":253:256   */\n  dup3\n    /* \"#utility.yul\":246:250   */\n  0x1f\n    /* \"#utility.yul\":238:244   */\n  dup4\n    /* \"#utility.yul\":234:251   */\n  add\n    /* \"#utility.yul\":230:257   */\n  slt\n    /* \"#utility.yul\":220:275   */\n  tag_32\n  jumpi\n    /* \"#utility.yul\":271:272   */\n  0x00\n    /* \"#utility.yul\":268:269   */\n  dup1\n    /* \"#utility.yul\":261:273   */\n  revert\n    /* \"#utility.yul\":220:275   */\ntag_32:\n    /* \"#utility.yul\":294:307   */\n  dup2\n  mload\n  sub(shl(0x40, 0x01), 0x01)\n    /* \"#utility.yul\":356:366   */\n  dup1\n  dup3\n  gt\n    /* \"#utility.yul\":353:389   */\n  iszero\n  tag_34\n  jumpi\n    /* \"#utility.yul\":369:387   */\n  tag_34\n  tag_21\n  jump\t// in\ntag_34:\n    /* \"#utility.yul\":444:446   */\n  0x40\n    /* \"#utility.yul\":438:447   */\n  mload\n    /* \"#utility.yul\":412:414   */\n  0x1f\n    /* \"#utility.yul\":498:511   */\n  dup4\n  add\n  not(0x1f)\n    /* \"#utility.yul\":494:516   */\n  swap1\n  dup2\n  and\n    /* \"#utility.yul\":518:520   */\n  0x3f\n    /* \"#utility.yul\":490:521   */\n  add\n    /* \"#utility.yul\":486:526   */\n  and\n    /* \"#utility.yul\":474:527   */\n  dup2\n  add\n  swap1\n    /* \"#utility.yul\":542:560   */\n  dup3\n  dup3\n  gt\n    /* \"#utility.yul\":562:584   */\n  dup2\n  dup4\n  lt\n    /* \"#utility.yul\":539:585   */\n  or\n    /* \"#utility.yul\":536:608   */\n  iszero\n  tag_36\n  jumpi\n    /* \"#utility.yul\":588:606   */\n  tag_36\n  tag_21\n  jump\t// in\ntag_36:\n    /* \"#utility.yul\":628:638   */\n  dup2\n    /* \"#utility.yul\":624:626   */\n  0x40\n    /* \"#utility.yul\":617:639   */\n  mstore\n    /* \"#utility.yul\":663:665   */\n  dup4\n    /* \"#utility.yul\":655:661   */\n  dup2\n    /* \"#utility.yul\":648:666   */\n  mstore\n    /* \"#utility.yul\":685:689   */\n  0x20\n    /* \"#utility.yul\":675:689   */\n  swap3\n  pop\n    /* \"#utility.yul\":732:735   */\n  dup7\n    /* \"#utility.yul\":725:729   */\n  0x20\n    /* \"#utility.yul\":720:722   */\n  dup6\n    /* \"#utility.yul\":712:718   */\n  dup9\n    /* \"#utility.yul\":708:723   */\n  add\n    /* \"#utility.yul\":704:730   */\n  add\n    /* \"#utility.yul\":701:736   */\n  gt\n    /* \"#utility.yul\":698:753   */\n  iszero\n  tag_37\n  jumpi\n    /* \"#utility.yul\":749:750   */\n  0x00\n    /* \"#utility.yul\":746:747   */\n  dup1\n    /* \"#utility.yul\":739:751   */\n  revert\n    /* \"#utility.yul\":698:753   */\ntag_37:\n    /* \"#utility.yul\":771:772   */\n  0x00\n    /* \"#utility.yul\":762:772   */\n  swap2\n  pop\n    /* \"#utility.yul\":781:914   */\ntag_38:\n    /* \"#utility.yul\":795:797   */\n  dup4\n    /* \"#utility.yul\":792:793   */\n  dup3\n    /* \"#utility.yul\":789:798   */\n  lt\n    /* \"#utility.yul\":781:914   */\n  iszero\n  tag_40\n  jumpi\n    /* \"#utility.yul\":883:897   */\n  dup6\n  dup3\n  add\n    /* \"#utility.yul\":879:902   */\n  dup4\n  add\n    /* \"#utility.yul\":873:903   */\n  mload\n    /* \"#utility.yul\":852:866   */\n  dup2\n  dup4\n  add\n    /* \"#utility.yul\":848:871   */\n  dup5\n  add\n    /* \"#utility.yul\":841:904   */\n  mstore\n    /* \"#utility.yul\":806:816   */\n  swap1\n  dup3\n  add\n  swap1\n    /* \"#utility.yul\":781:914   */\n  jump(tag_38)\ntag_40:\n    /* \"#utility.yul\":958:959   */\n  0x00\n    /* \"#utility.yul\":951:955   */\n  0x20\n    /* \"#utility.yul\":946:948   */\n  dup6\n    /* \"#utility.yul\":938:944   */\n  dup4\n    /* \"#utility.yul\":934:949   */\n  add\n    /* \"#utility.yul\":930:956   */\n  add\n    /* \"#utility.yul\":923:960   */\n  mstore\n    /* \"#utility.yul\":978:984   */\n  dup1\n    /* \"#utility.yul\":969:984   */\n  swap5\n  pop\n  pop\n  pop\n  pop\n  pop\n    /* \"#utility.yul\":146:990   */\n  swap3\n  swap2\n  pop\n  pop\n  jump\t// out\n    /* \"#utility.yul\":995:1170   */\ntag_23:\n    /* \"#utility.yul\":1073:1086   */\n  dup1\n  mload\n  sub(shl(0x60, 0x01), 0x01)\n    /* \"#utility.yul\":1115:1145   */\n  dup2\n  and\n    /* \"#utility.yul\":1105:1146   */\n  dup2\n  eq\n    /* \"#utility.yul\":1095:1164   */\n  tag_42\n  jumpi\n    /* \"#utility.yul\":1160:1161   */\n  0x00\n    /* \"#utility.yul\":1157:1158   */\n  dup1\n    /* \"#utility.yul\":1150:1162   */\n  revert\n    /* \"#utility.yul\":1095:1164   */\ntag_42:\n    /* \"#utility.yul\":995:1170   */\n  swap2\n  swap1\n  pop\n  jump\t// out\n    /* \"#utility.yul\":1175:1339   */\ntag_24:\n    /* \"#utility.yul\":1251:1264   */\n  dup1\n  mload\n    /* \"#utility.yul\":1300:1313   */\n  dup1\n  iszero\n    /* \"#utility.yul\":1293:1314   */\n  iszero\n    /* \"#utility.yul\":1283:1315   */\n  dup2\n  eq\n    /* \"#utility.yul\":1273:1333   */\n  tag_42\n  jumpi\n    /* \"#utility.yul\":1329:1330   */\n  0x00\n    /* \"#utility.yul\":1326:1327   */\n  dup1\n    /* \"#utility.yul\":1319:1331   */\n  revert\n    /* \"#utility.yul\":1344:2399   */\ntag_3:\n    /* \"#utility.yul\":1474:1480   */\n  0x00\n    /* \"#utility.yul\":1482:1488   */\n  dup1\n    /* \"#utility.yul\":1490:1496   */\n  0x00\n    /* \"#utility.yul\":1498:1504   */\n  dup1\n    /* \"#utility.yul\":1506:1512   */\n  0x00\n    /* \"#utility.yul\":1514:1520   */\n  dup1\n    /* \"#utility.yul\":1567:1570   */\n  0xc0\n    /* \"#utility.yul\":1555:1564   */\n  dup8\n    /* \"#utility.yul\":1546:1553   */\n  dup10\n    /* \"#utility.yul\":1542:1565   */\n  sub\n    /* \"#utility.yul\":1538:1571   */\n  slt\n    /* \"#utility.yul\":1535:1588   */\n  iszero\n  tag_46\n  jumpi\n    /* \"#utility.yul\":1584:1585   */\n  0x00\n    /* \"#utility.yul\":1581:1582   */\n  dup1\n    /* \"#utility.yul\":1574:1586   */\n  revert\n    /* \"#utility.yul\":1535:1588   */\ntag_46:\n    /* \"#utility.yul\":1611:1627   */\n  dup7\n  mload\n  sub(shl(0x40, 0x01), 0x01)\n    /* \"#utility.yul\":1676:1690   */\n  dup1\n  dup3\n  gt\n    /* \"#utility.yul\":1673:1707   */\n  iszero\n  tag_47\n  jumpi\n    /* \"#utility.yul\":1703:1704   */\n  0x00\n    /* \"#utility.yul\":1700:1701   */\n  dup1\n    /* \"#utility.yul\":1693:1705   */\n  revert\n    /* \"#utility.yul\":1673:1707   */\ntag_47:\n    /* \"#utility.yul\":1726:1787   */\n  tag_48\n    /* \"#utility.yul\":1779:1786   */\n  dup11\n    /* \"#utility.yul\":1770:1776   */\n  dup4\n    /* \"#utility.yul\":1759:1768   */\n  dup12\n    /* \"#utility.yul\":1755:1777   */\n  add\n    /* \"#utility.yul\":1726:1787   */\n  tag_22\n  jump\t// in\ntag_48:\n    /* \"#utility.yul\":1830:1832   */\n  0x20\n    /* \"#utility.yul\":1815:1833   */\n  dup11\n  add\n    /* \"#utility.yul\":1809:1834   */\n  mload\n    /* \"#utility.yul\":1716:1787   */\n  swap1\n  swap9\n  pop\n    /* \"#utility.yul\":1809:1834   */\n  swap2\n  pop\n  sub(shl(0xa0, 0x01), 0x01)\n    /* \"#utility.yul\":1863:1894   */\n  dup3\n  and\n    /* \"#utility.yul\":1853:1895   */\n  dup3\n  eq\n    /* \"#utility.yul\":1843:1913   */\n  tag_49\n  jumpi\n    /* \"#utility.yul\":1909:1910   */\n  0x00\n    /* \"#utility.yul\":1906:1907   */\n  dup1\n    /* \"#utility.yul\":1899:1911   */\n  revert\n    /* \"#utility.yul\":1843:1913   */\ntag_49:\n    /* \"#utility.yul\":1982:1984   */\n  0x40\n    /* \"#utility.yul\":1967:1985   */\n  dup10\n  add\n    /* \"#utility.yul\":1961:1986   */\n  mload\n    /* \"#utility.yul\":1932:1937   */\n  swap2\n  swap7\n  pop\n    /* \"#utility.yul\":2030:2036   */\n  0xffff\n    /* \"#utility.yul\":2017:2037   */\n  dup3\n  and\n    /* \"#utility.yul\":2005:2038   */\n  dup3\n  eq\n    /* \"#utility.yul\":1995:2056   */\n  tag_50\n  jumpi\n    /* \"#utility.yul\":2052:2053   */\n  0x00\n    /* \"#utility.yul\":2049:2050   */\n  dup1\n    /* \"#utility.yul\":2042:2054   */\n  revert\n    /* \"#utility.yul\":1995:2056   */\ntag_50:\n    /* \"#utility.yul\":2075:2082   */\n  dup2\n    /* \"#utility.yul\":2065:2082   */\n  swap6\n  pop\n    /* \"#utility.yul\":2101:2149   */\n  tag_51\n    /* \"#utility.yul\":2145:2147   */\n  0x60\n    /* \"#utility.yul\":2134:2143   */\n  dup11\n    /* \"#utility.yul\":2130:2148   */\n  add\n    /* \"#utility.yul\":2101:2149   */\n  tag_23\n  jump\t// in\ntag_51:\n    /* \"#utility.yul\":2091:2149   */\n  swap5\n  pop\n    /* \"#utility.yul\":2195:2198   */\n  0x80\n    /* \"#utility.yul\":2184:2193   */\n  dup10\n    /* \"#utility.yul\":2180:2199   */\n  add\n    /* \"#utility.yul\":2174:2200   */\n  mload\n    /* \"#utility.yul\":2158:2200   */\n  swap2\n  pop\n    /* \"#utility.yul\":2225:2227   */\n  dup1\n    /* \"#utility.yul\":2215:2223   */\n  dup3\n    /* \"#utility.yul\":2212:2228   */\n  gt\n    /* \"#utility.yul\":2209:2245   */\n  iszero\n  tag_52\n  jumpi\n    /* \"#utility.yul\":2241:2242   */\n  0x00\n    /* \"#utility.yul\":2238:2239   */\n  dup1\n    /* \"#utility.yul\":2231:2243   */\n  revert\n    /* \"#utility.yul\":2209:2245   */\ntag_52:\n  pop\n    /* \"#utility.yul\":2264:2327   */\n  tag_53\n    /* \"#utility.yul\":2319:2326   */\n  dup10\n    /* \"#utility.yul\":2308:2316   */\n  dup3\n    /* \"#utility.yul\":2297:2306   */\n  dup11\n    /* \"#utility.yul\":2293:2317   */\n  add\n    /* \"#utility.yul\":2264:2327   */\n  tag_22\n  jump\t// in\ntag_53:\n    /* \"#utility.yul\":2254:2327   */\n  swap3\n  pop\n  pop\n    /* \"#utility.yul\":2346:2393   */\n  tag_54\n    /* \"#utility.yul\":2388:2391   */\n  0xa0\n    /* \"#utility.yul\":2377:2386   */\n  dup9\n    /* \"#utility.yul\":2373:2392   */\n  add\n    /* \"#utility.yul\":2346:2393   */\n  tag_24\n  jump\t// in\ntag_54:\n    /* \"#utility.yul\":2336:2393   */\n  swap1\n  pop\n    /* \"#utility.yul\":1344:2399   */\n  swap3\n  swap6\n  pop\n  swap3\n  swap6\n  pop\n  swap3\n  swap6\n  jump\t// out\n    /* \"#utility.yul\":3179:3559   */\ntag_25:\n    /* \"#utility.yul\":3258:3259   */\n  0x01\n    /* \"#utility.yul\":3254:3266   */\n  dup2\n  dup2\n  shr\n  swap1\n    /* \"#utility.yul\":3301:3313   */\n  dup3\n  and\n  dup1\n    /* \"#utility.yul\":3322:3383   */\n  tag_58\n  jumpi\n    /* \"#utility.yul\":3376:3380   */\n  0x7f\n    /* \"#utility.yul\":3368:3374   */\n  dup3\n    /* \"#utility.yul\":3364:3381   */\n  and\n    /* \"#utility.yul\":3354:3381   */\n  swap2\n  pop\n    /* \"#utility.yul\":3322:3383   */\ntag_58:\n    /* \"#utility.yul\":3429:3431   */\n  0x20\n    /* \"#utility.yul\":3421:3427   */\n  dup3\n    /* \"#utility.yul\":3418:3432   */\n  lt\n    /* \"#utility.yul\":3398:3416   */\n  dup2\n    /* \"#utility.yul\":3395:3433   */\n  sub\n    /* \"#utility.yul\":3392:3553   */\n  tag_59\n  jumpi\n    /* \"#utility.yul\":3475:3485   */\n  0x4e487b71\n    /* \"#utility.yul\":3470:3473   */\n  0xe0\n    /* \"#utility.yul\":3466:3486   */\n  shl\n    /* \"#utility.yul\":3463:3464   */\n  0x00\n    /* \"#utility.yul\":3456:3487   */\n  mstore\n    /* \"#utility.yul\":3510:3514   */\n  0x22\n    /* \"#utility.yul\":3507:3508   */\n  0x04\n    /* \"#utility.yul\":3500:3515   */\n  mstore\n    /* \"#utility.yul\":3538:3542   */\n  0x24\n    /* \"#utility.yul\":3535:3536   */\n  0x00\n    /* \"#utility.yul\":3528:3543   */\n  revert\n    /* \"#utility.yul\":3392:3553   */\ntag_59:\n  pop\n    /* \"#utility.yul\":3179:3559   */\n  swap2\n  swap1\n  pop\n  jump\t// out\n    /* \"#utility.yul\":3690:4208   */\ntag_27:\n    /* \"#utility.yul\":3792:3794   */\n  0x1f\n    /* \"#utility.yul\":3787:3790   */\n  dup3\n    /* \"#utility.yul\":3784:3795   */\n  gt\n    /* \"#utility.yul\":3781:4202   */\n  iszero\n  tag_62\n  jumpi\n    /* \"#utility.yul\":3828:3833   */\n  dup1\n    /* \"#utility.yul\":3825:3826   */\n  0x00\n    /* \"#utility.yul\":3818:3834   */\n  mstore\n    /* \"#utility.yul\":3872:3876   */\n  0x20\n    /* \"#utility.yul\":3869:3870   */\n  0x00\n    /* \"#utility.yul\":3859:3877   */\n  keccak256\n    /* \"#utility.yul\":3942:3944   */\n  0x1f\n    /* \"#utility.yul\":3930:3940   */\n  dup5\n    /* \"#utility.yul\":3926:3945   */\n  add\n    /* \"#utility.yul\":3923:3924   */\n  0x05\n    /* \"#utility.yul\":3919:3946   */\n  shr\n    /* \"#utility.yul\":3913:3917   */\n  dup2\n    /* \"#utility.yul\":3909:3947   */\n  add\n    /* \"#utility.yul\":3978:3982   */\n  0x20\n    /* \"#utility.yul\":3966:3976   */\n  dup6\n    /* \"#utility.yul\":3963:3983   */\n  lt\n    /* \"#utility.yul\":3960:4007   */\n  iszero\n  tag_63\n  jumpi\n  pop\n    /* \"#utility.yul\":4001:4005   */\n  dup1\n    /* \"#utility.yul\":3960:4007   */\ntag_63:\n    /* \"#utility.yul\":4056:4058   */\n  0x1f\n    /* \"#utility.yul\":4051:4054   */\n  dup5\n    /* \"#utility.yul\":4047:4059   */\n  add\n    /* \"#utility.yul\":4044:4045   */\n  0x05\n    /* \"#utility.yul\":4040:4060   */\n  shr\n    /* \"#utility.yul\":4034:4038   */\n  dup3\n    /* \"#utility.yul\":4030:4061   */\n  add\n    /* \"#utility.yul\":4020:4061   */\n  swap2\n  pop\n    /* \"#utility.yul\":4111:4192   */\ntag_64:\n    /* \"#utility.yul\":4129:4131   */\n  dup2\n    /* \"#utility.yul\":4122:4127   */\n  dup2\n    /* \"#utility.yul\":4119:4132   */\n  lt\n    /* \"#utility.yul\":4111:4192   */\n  iszero\n  tag_66\n  jumpi\n    /* \"#utility.yul\":4188:4189   */\n  0x00\n    /* \"#utility.yul\":4174:4190   */\n  dup2\n  sstore\n    /* \"#utility.yul\":4155:4156   */\n  0x01\n    /* \"#utility.yul\":4144:4157   */\n  add\n    /* \"#utility.yul\":4111:4192   */\n  jump(tag_64)\ntag_66:\n    /* \"#utility.yul\":4115:4118   */\n  pop\n  pop\n    /* \"#utility.yul\":3781:4202   */\ntag_62:\n    /* \"#utility.yul\":3690:4208   */\n  pop\n  pop\n  pop\n  jump\t// out\n    /* \"#utility.yul\":4384:5729   */\ntag_13:\n    /* \"#utility.yul\":4504:4514   */\n  dup2\n  mload\n  sub(shl(0x40, 0x01), 0x01)\n    /* \"#utility.yul\":4526:4556   */\n  dup2\n  gt\n    /* \"#utility.yul\":4523:4579   */\n  iszero\n  tag_70\n  jumpi\n    /* \"#utility.yul\":4559:4577   */\n  tag_70\n  tag_21\n  jump\t// in\ntag_70:\n    /* \"#utility.yul\":4588:4685   */\n  tag_71\n    /* \"#utility.yul\":4678:4684   */\n  dup2\n    /* \"#utility.yul\":4638:4676   */\n  tag_72\n    /* \"#utility.yul\":4670:4674   */\n  dup5\n    /* \"#utility.yul\":4664:4675   */\n  sload\n    /* \"#utility.yul\":4638:4676   */\n  tag_25\n  jump\t// in\ntag_72:\n    /* \"#utility.yul\":4632:4636   */\n  dup5\n    /* \"#utility.yul\":4588:4685   */\n  tag_27\n  jump\t// in\ntag_71:\n    /* \"#utility.yul\":4740:4744   */\n  0x20\n  dup1\n    /* \"#utility.yul\":4797:4799   */\n  0x1f\n    /* \"#utility.yul\":4786:4800   */\n  dup4\n  gt\n    /* \"#utility.yul\":4814:4815   */\n  0x01\n    /* \"#utility.yul\":4809:5472   */\n  dup2\n  eq\n  tag_74\n  jumpi\n    /* \"#utility.yul\":5516:5517   */\n  0x00\n    /* \"#utility.yul\":5533:5539   */\n  dup5\n    /* \"#utility.yul\":5530:5619   */\n  iszero\n  tag_75\n  jumpi\n  pop\n    /* \"#utility.yul\":5585:5604   */\n  dup6\n  dup4\n  add\n    /* \"#utility.yul\":5579:5605   */\n  mload\n    /* \"#utility.yul\":5530:5619   */\ntag_75:\n  not(0x00)\n    /* \"#utility.yul\":4341:4342   */\n  0x03\n    /* \"#utility.yul\":4337:4348   */\n  dup7\n  swap1\n  shl\n    /* \"#utility.yul\":4333:4357   */\n  shr\n    /* \"#utility.yul\":4329:4358   */\n  not\n    /* \"#utility.yul\":4319:4359   */\n  and\n    /* \"#utility.yul\":4365:4366   */\n  0x01\n    /* \"#utility.yul\":4361:4372   */\n  dup6\n  swap1\n  shl\n    /* \"#utility.yul\":4316:4373   */\n  or\n    /* \"#utility.yul\":5632:5713   */\n  dup6\n  sstore\n    /* \"#utility.yul\":4779:5723   */\n  jump(tag_73)\n    /* \"#utility.yul\":4809:5472   */\ntag_74:\n    /* \"#utility.yul\":3637:3638   */\n  0x00\n    /* \"#utility.yul\":3630:3644   */\n  dup6\n  dup2\n  mstore\n    /* \"#utility.yul\":3674:3678   */\n  0x20\n    /* \"#utility.yul\":3661:3679   */\n  dup2\n  keccak256\n  not(0x1f)\n    /* \"#utility.yul\":4845:4865   */\n  dup7\n  and\n  swap2\n    /* \"#utility.yul\":4963:5199   */\ntag_78:\n    /* \"#utility.yul\":4977:4984   */\n  dup3\n    /* \"#utility.yul\":4974:4975   */\n  dup2\n    /* \"#utility.yul\":4971:4985   */\n  lt\n    /* \"#utility.yul\":4963:5199   */\n  iszero\n  tag_80\n  jumpi\n    /* \"#utility.yul\":5066:5085   */\n  dup9\n  dup7\n  add\n    /* \"#utility.yul\":5060:5086   */\n  mload\n    /* \"#utility.yul\":5045:5087   */\n  dup3\n  sstore\n    /* \"#utility.yul\":5158:5185   */\n  swap5\n  dup5\n  add\n  swap5\n    /* \"#utility.yul\":5126:5127   */\n  0x01\n    /* \"#utility.yul\":5114:5128   */\n  swap1\n  swap2\n  add\n  swap1\n    /* \"#utility.yul\":4993:5012   */\n  dup5\n  add\n    /* \"#utility.yul\":4963:5199   */\n  jump(tag_78)\ntag_80:\n    /* \"#utility.yul\":4967:4970   */\n  pop\n    /* \"#utility.yul\":5227:5233   */\n  dup6\n    /* \"#utility.yul\":5218:5225   */\n  dup3\n    /* \"#utility.yul\":5215:5234   */\n  lt\n    /* \"#utility.yul\":5212:5413   */\n  iszero\n  tag_81\n  jumpi\n    /* \"#utility.yul\":5288:5307   */\n  dup8\n  dup6\n  add\n    /* \"#utility.yul\":5282:5308   */\n  mload\n  not(0x00)\n    /* \"#utility.yul\":5371:5372   */\n  0x03\n    /* \"#utility.yul\":5367:5381   */\n  dup9\n  swap1\n  shl\n    /* \"#utility.yul\":5383:5386   */\n  0xf8\n    /* \"#utility.yul\":5363:5387   */\n  and\n    /* \"#utility.yul\":5359:5396   */\n  shr\n    /* \"#utility.yul\":5355:5397   */\n  not\n    /* \"#utility.yul\":5340:5398   */\n  and\n    /* \"#utility.yul\":5325:5399   */\n  dup2\n  sstore\n    /* \"#utility.yul\":5212:5413   */\ntag_81:\n  pop\n  pop\n    /* \"#utility.yul\":5459:5460   */\n  0x01\n    /* \"#utility.yul\":5450:5456   */\n  dup5\n    /* \"#utility.yul\":5447:5448   */\n  0x01\n    /* \"#utility.yul\":5443:5457   */\n  shl\n    /* \"#utility.yul\":5439:5461   */\n  add\n    /* \"#utility.yul\":5433:5437   */\n  dup6\n    /* \"#utility.yul\":5426:5462   */\n  sstore\n    /* \"#utility.yul\":4779:5723   */\ntag_73:\n  pop\n  pop\n  pop\n  pop\n    /* \"#utility.yul\":4384:5729   */\n  pop\n  pop\n  jump\t// out\n    /* \"#utility.yul\":5734:5999   */\ntag_16:\n    /* \"#utility.yul\":5807:5816   */\n  dup1\n  dup3\n  mul\n    /* \"#utility.yul\":5838:5847   */\n  dup2\n  iszero\n    /* \"#utility.yul\":5855:5870   */\n  dup3\n  dup3\n  div\n    /* \"#utility.yul\":5849:5871   */\n  dup5\n  eq\n    /* \"#utility.yul\":5835:5872   */\n  or\n    /* \"#utility.yul\":5825:5993   */\n  tag_83\n  jumpi\n    /* \"#utility.yul\":5915:5925   */\n  0x4e487b71\n    /* \"#utility.yul\":5910:5913   */\n  0xe0\n    /* \"#utility.yul\":5906:5926   */\n  shl\n    /* \"#utility.yul\":5903:5904   */\n  0x00\n    /* \"#utility.yul\":5896:5927   */\n  mstore\n    /* \"#utility.yul\":5950:5954   */\n  0x11\n    /* \"#utility.yul\":5947:5948   */\n  0x04\n    /* \"#utility.yul\":5940:5955   */\n  mstore\n    /* \"#utility.yul\":5978:5982   */\n  0x24\n    /* \"#utility.yul\":5975:5976   */\n  0x00\n    /* \"#utility.yul\":5968:5983   */\n  revert\n    /* \"#utility.yul\":5825:5993   */\ntag_83:\n    /* \"#utility.yul\":5734:5999   */\n  swap3\n  swap2\n  pop\n  pop\n  jump\t// out\n    /* \"#utility.yul\":6004:6221   */\ntag_18:\n    /* \"#utility.yul\":6044:6045   */\n  0x00\n    /* \"#utility.yul\":6070:6071   */\n  dup3\n    /* \"#utility.yul\":6060:6192   */\n  tag_85\n  jumpi\n    /* \"#utility.yul\":6114:6124   */\n  0x4e487b71\n    /* \"#utility.yul\":6109:6112   */\n  0xe0\n    /* \"#utility.yul\":6105:6125   */\n  shl\n    /* \"#utility.yul\":6102:6103   */\n  0x00\n    /* \"#utility.yul\":6095:6126   */\n  mstore\n    /* \"#utility.yul\":6149:6153   */\n  0x12\n    /* \"#utility.yul\":6146:6147   */\n  0x04\n    /* \"#utility.yul\":6139:6154   */\n  mstore\n    /* \"#utility.yul\":6177:6181   */\n  0x24\n    /* \"#utility.yul\":6174:6175   */\n  0x00\n    /* \"#utility.yul\":6167:6182   */\n  revert\n    /* \"#utility.yul\":6060:6192   */\ntag_85:\n  pop\n    /* \"#utility.yul\":6206:6215   */\n  div\n  swap1\n    /* \"#utility.yul\":6004:6221   */\n  jump\t// out\ntag_29:\n    /* \"Lottogemeinschaft.sol\":1747:7718  contract Lottogemeinschaft {... */\n  dataSize(sub_0)\n  dup1\n  dataOffset(sub_0)\n  0x00\n  codecopy\n  0x00\n  return\nstop\n\nsub_0: assembly {\n        /* \"Lottogemeinschaft.sol\":1747:7718  contract Lottogemeinschaft {... */\n      mstore(0x40, 0x80)\n      jumpi(tag_1, lt(calldatasize, 0x04))\n      shr(0xe0, calldataload(0x00))\n      dup1\n      0x8acb4624\n      gt\n      tag_27\n      jumpi\n      dup1\n      0xbb68a67f\n      gt\n      tag_28\n      jumpi\n      dup1\n      0xd27d06c0\n      gt\n      tag_29\n      jumpi\n      dup1\n      0xd27d06c0\n      eq\n      tag_23\n      jumpi\n      dup1\n      0xe068561a\n      eq\n      tag_24\n      jumpi\n      dup1\n      0xe34ad1d7\n      eq\n      tag_25\n      jumpi\n      dup1\n      0xe86c5692\n      eq\n      tag_26\n      jumpi\n      0x00\n      dup1\n      revert\n    tag_29:\n      dup1\n      0xbb68a67f\n      eq\n      tag_20\n      jumpi\n      dup1\n      0xc6ca9d19\n      eq\n      tag_21\n      jumpi\n      dup1\n      0xc88c8b28\n      eq\n      tag_22\n      jumpi\n      0x00\n      dup1\n      revert\n    tag_28:\n      dup1\n      0xab76211e\n      gt\n      tag_30\n      jumpi\n      dup1\n      0xab76211e\n      eq\n      tag_17\n      jumpi\n      dup1\n      0xad2c046c\n      eq\n      tag_18\n      jumpi\n      dup1\n      0xb08c7076\n      eq\n      tag_19\n      jumpi\n      0x00\n      dup1\n      revert\n    tag_30:\n      dup1\n      0x8acb4624\n      eq\n      tag_14\n      jumpi\n      dup1\n      0x91243239\n      eq\n      tag_15\n      jumpi\n      dup1\n      0xa299f171\n      eq\n      tag_16\n      jumpi\n      0x00\n      dup1\n      revert\n    tag_27:\n      dup1\n      0x3babb15a\n      gt\n      tag_31\n      jumpi\n      dup1\n      0x526024ea\n      gt\n      tag_32\n      jumpi\n      dup1\n      0x526024ea\n      eq\n      tag_11\n      jumpi\n      dup1\n      0x70a41bc0\n      eq\n      tag_12\n      jumpi\n      dup1\n      0x833e92cb\n      eq\n      tag_13\n      jumpi\n      0x00\n      dup1\n      revert\n    tag_32:\n      dup1\n      0x3babb15a\n      eq\n      tag_8\n      jumpi\n      dup1\n      0x3f0f5d51\n      eq\n      tag_9\n      jumpi\n      dup1\n      0x43767832\n      eq\n      tag_10\n      jumpi\n      0x00\n      dup1\n      revert\n    tag_31:\n      dup1\n      0x2df368a5\n      gt\n      tag_33\n      jumpi\n      dup1\n      0x2df368a5\n      eq\n      tag_5\n      jumpi\n      dup1\n      0x31c45120\n      eq\n      tag_6\n      jumpi\n      dup1\n      0x36927060\n      eq\n      tag_7\n      jumpi\n      0x00\n      dup1\n      revert\n    tag_33:\n      dup1\n      0x084263f5\n      eq\n      tag_2\n      jumpi\n      dup1\n      0x0f085e50\n      eq\n      tag_3\n      jumpi\n      dup1\n      0x2340983f\n      eq\n      tag_4\n      jumpi\n    tag_1:\n      0x00\n      dup1\n      revert\n        /* \"Lottogemeinschaft.sol\":2003:2027  uint96 public auszahlung */\n    tag_2:\n      callvalue\n      dup1\n      iszero\n      tag_34\n      jumpi\n      0x00\n      dup1\n      revert\n    tag_34:\n      pop\n      sload(0x04)\n      tag_35\n      swap1\n      0xffffffffffffffffffffffff\n      and\n      dup2\n      jump\n    tag_35:\n      mload(0x40)\n        /* \"#utility.yul\":188:214   */\n      0xffffffffffffffffffffffff\n        /* \"#utility.yul\":176:215   */\n      swap1\n      swap2\n      and\n        /* \"#utility.yul\":158:216   */\n      dup2\n      mstore\n        /* \"#utility.yul\":146:148   */\n      0x20\n        /* \"#utility.yul\":131:149   */\n      add\n        /* \"Lottogemeinschaft.sol\":2003:2027  uint96 public auszahlung */\n    tag_37:\n      mload(0x40)\n      dup1\n      swap2\n      sub\n      swap1\n      return\n        /* \"Lottogemeinschaft.sol\":2237:2274  uint48 public gewinnProMitspieler = 0 */\n    tag_3:\n      callvalue\n      dup1\n      iszero\n      tag_39\n      jumpi\n      0x00\n      dup1\n      revert\n    tag_39:\n      pop\n      sload(0x08)\n      tag_40\n      swap1\n      0x010000\n      swap1\n      div\n      0xffffffffffff\n      and\n      dup2\n      jump\n    tag_40:\n      mload(0x40)\n        /* \"#utility.yul\":401:415   */\n      0xffffffffffff\n        /* \"#utility.yul\":389:416   */\n      swap1\n      swap2\n      and\n        /* \"#utility.yul\":371:417   */\n      dup2\n      mstore\n        /* \"#utility.yul\":359:361   */\n      0x20\n        /* \"#utility.yul\":344:362   */\n      add\n        /* \"Lottogemeinschaft.sol\":2237:2274  uint48 public gewinnProMitspieler = 0 */\n      tag_37\n        /* \"#utility.yul\":227:423   */\n      jump\n        /* \"Lottogemeinschaft.sol\":2280:2322  bool public gewinnKannAbgeholtWerden=false */\n    tag_4:\n      callvalue\n      dup1\n      iszero\n      tag_44\n      jumpi\n      0x00\n      dup1\n      revert\n    tag_44:\n      pop\n      sload(0x08)\n      tag_45\n      swap1\n      0x010000000000000000\n      swap1\n      div\n      0xff\n      and\n      dup2\n      jump\n    tag_45:\n      mload(0x40)\n        /* \"#utility.yul\":593:607   */\n      swap1\n      iszero\n        /* \"#utility.yul\":586:608   */\n      iszero\n        /* \"#utility.yul\":568:609   */\n      dup2\n      mstore\n        /* \"#utility.yul\":556:558   */\n      0x20\n        /* \"#utility.yul\":541:559   */\n      add\n        /* \"Lottogemeinschaft.sol\":2280:2322  bool public gewinnKannAbgeholtWerden=false */\n      tag_37\n        /* \"#utility.yul\":428:615   */\n      jump\n        /* \"Lottogemeinschaft.sol\":1926:1958  uint96 public preisProMitspieler */\n    tag_5:\n      callvalue\n      dup1\n      iszero\n      tag_49\n      jumpi\n      0x00\n      dup1\n      revert\n    tag_49:\n      pop\n      sload(0x02)\n      tag_35\n      swap1\n      0x010000000000000000000000000000\n      swap1\n      div\n      0xffffffffffffffffffffffff\n      and\n      dup2\n      jump\n        /* \"Lottogemeinschaft.sol\":5996:6232  function preisLottoscheinAendern(uint32 neuerPreis) public restictedToGruender{... */\n    tag_6:\n      callvalue\n      dup1\n      iszero\n      tag_53\n      jumpi\n      0x00\n      dup1\n      revert\n    tag_53:\n      pop\n      tag_54\n      tag_55\n      calldatasize\n      0x04\n      tag_56\n      jump\t// in\n    tag_55:\n      tag_57\n      jump\t// in\n    tag_54:\n      stop\n        /* \"Lottogemeinschaft.sol\":2033:2075  mapping(address => bool) public mitspieler */\n    tag_7:\n      callvalue\n      dup1\n      iszero\n      tag_58\n      jumpi\n      0x00\n      dup1\n      revert\n    tag_58:\n      pop\n      tag_45\n      tag_60\n      calldatasize\n      0x04\n      tag_61\n      jump\t// in\n    tag_60:\n      mstore(0x20, 0x05)\n      0x00\n      swap1\n      dup2\n      mstore\n      0x40\n      swap1\n      keccak256\n      sload\n      0xff\n      and\n      dup2\n      jump\n        /* \"Lottogemeinschaft.sol\":2194:2231  uint16 public anzahlTeilnehmerAktuell */\n    tag_8:\n      callvalue\n      dup1\n      iszero\n      tag_64\n      jumpi\n      0x00\n      dup1\n      revert\n    tag_64:\n      pop\n      sload(0x08)\n      tag_65\n      swap1\n      0xffff\n      and\n      dup2\n      jump\n    tag_65:\n      mload(0x40)\n        /* \"#utility.yul\":1389:1395   */\n      0xffff\n        /* \"#utility.yul\":1377:1396   */\n      swap1\n      swap2\n      and\n        /* \"#utility.yul\":1359:1397   */\n      dup2\n      mstore\n        /* \"#utility.yul\":1347:1349   */\n      0x20\n        /* \"#utility.yul\":1332:1350   */\n      add\n        /* \"Lottogemeinschaft.sol\":2194:2231  uint16 public anzahlTeilnehmerAktuell */\n      tag_37\n        /* \"#utility.yul\":1215:1403   */\n      jump\n        /* \"Lottogemeinschaft.sol\":1890:1920  uint96 public preisLottoschein */\n    tag_9:\n      callvalue\n      dup1\n      iszero\n      tag_69\n      jumpi\n      0x00\n      dup1\n      revert\n    tag_69:\n      pop\n      sload(0x02)\n      tag_35\n      swap1\n      0x010000\n      swap1\n      div\n      0xffffffffffffffffffffffff\n      and\n      dup2\n      jump\n        /* \"Lottogemeinschaft.sol\":6530:6804  function erlaubteMitspielerAdresseHinzufuegen(address _erlaubterMitspieler) public restictedToGruender{... */\n    tag_10:\n      callvalue\n      dup1\n      iszero\n      tag_73\n      jumpi\n      0x00\n      dup1\n      revert\n    tag_73:\n      pop\n      tag_54\n      tag_75\n      calldatasize\n      0x04\n      tag_61\n      jump\t// in\n    tag_75:\n      tag_76\n      jump\t// in\n        /* \"Lottogemeinschaft.sol\":3610:4450  function mitmachen() public payable {... */\n    tag_11:\n      tag_54\n      tag_78\n      jump\t// in\n        /* \"Lottogemeinschaft.sol\":1851:1884  uint16 public maxTeilnehmerAnzahl */\n    tag_12:\n      callvalue\n      dup1\n      iszero\n      tag_79\n      jumpi\n      0x00\n      dup1\n      revert\n    tag_79:\n      pop\n      sload(0x02)\n      tag_65\n      swap1\n      0xffff\n      and\n      dup2\n      jump\n        /* \"Lottogemeinschaft.sol\":5505:5989  function gewinnAbholen() public restictedToMitspieler nonReentrant {... */\n    tag_13:\n      callvalue\n      dup1\n      iszero\n      tag_83\n      jumpi\n      0x00\n      dup1\n      revert\n    tag_83:\n      pop\n      tag_54\n      tag_85\n      jump\t// in\n        /* \"Lottogemeinschaft.sol\":1964:1997  string public spielauftragsNummer */\n    tag_14:\n      callvalue\n      dup1\n      iszero\n      tag_86\n      jumpi\n      0x00\n      dup1\n      revert\n    tag_86:\n      pop\n      tag_87\n      tag_88\n      jump\t// in\n    tag_87:\n      mload(0x40)\n      tag_37\n      swap2\n      swap1\n      tag_90\n      jump\t// in\n        /* \"Lottogemeinschaft.sol\":2081:2129  mapping(address => bool) public gewinnAusgezahlt */\n    tag_15:\n      callvalue\n      dup1\n      iszero\n      tag_91\n      jumpi\n      0x00\n      dup1\n      revert\n    tag_91:\n      pop\n      tag_45\n      tag_93\n      calldatasize\n      0x04\n      tag_61\n      jump\t// in\n    tag_93:\n      mstore(0x20, 0x06)\n      0x00\n      swap1\n      dup2\n      mstore\n      0x40\n      swap1\n      keccak256\n      sload\n      0xff\n      and\n      dup2\n      jump\n        /* \"Lottogemeinschaft.sol\":7218:7716  function einsatzZurueckholen() public payable restictedToMitspieler nonReentrant {... */\n    tag_16:\n      tag_54\n      tag_97\n      jump\t// in\n        /* \"Lottogemeinschaft.sol\":6905:7162  function gemeinschaftAufloesen() public restictedToGruender {... */\n    tag_17:\n      callvalue\n      dup1\n      iszero\n      tag_98\n      jumpi\n      0x00\n      dup1\n      revert\n    tag_98:\n      pop\n      tag_54\n      tag_100\n      jump\t// in\n        /* \"Lottogemeinschaft.sol\":1781:1804  address public gruender */\n    tag_18:\n      callvalue\n      dup1\n      iszero\n      tag_101\n      jumpi\n      0x00\n      dup1\n      revert\n    tag_101:\n      pop\n      sload(0x00)\n      tag_102\n      swap1\n      0xffffffffffffffffffffffffffffffffffffffff\n      and\n      dup2\n      jump\n    tag_102:\n      mload(0x40)\n        /* \"#utility.yul\":2196:2238   */\n      0xffffffffffffffffffffffffffffffffffffffff\n        /* \"#utility.yul\":2184:2239   */\n      swap1\n      swap2\n      and\n        /* \"#utility.yul\":2166:2240   */\n      dup2\n      mstore\n        /* \"#utility.yul\":2154:2156   */\n      0x20\n        /* \"#utility.yul\":2139:2157   */\n      add\n        /* \"Lottogemeinschaft.sol\":1781:1804  address public gruender */\n      tag_37\n        /* \"#utility.yul\":2020:2246   */\n      jump\n        /* \"Lottogemeinschaft.sol\":2328:2367  bool public nurErlaubteMitspieler=false */\n    tag_19:\n      callvalue\n      dup1\n      iszero\n      tag_106\n      jumpi\n      0x00\n      dup1\n      revert\n    tag_106:\n      pop\n      sload(0x08)\n      tag_45\n      swap1\n      0x01000000000000000000\n      swap1\n      div\n      0xff\n      and\n      dup2\n      jump\n        /* \"Lottogemeinschaft.sol\":2135:2188  mapping(address => bool) public einsatzZurueckGezahlt */\n    tag_20:\n      callvalue\n      dup1\n      iszero\n      tag_110\n      jumpi\n      0x00\n      dup1\n      revert\n    tag_110:\n      pop\n      tag_45\n      tag_112\n      calldatasize\n      0x04\n      tag_61\n      jump\t// in\n    tag_112:\n      mstore(0x20, 0x07)\n      0x00\n      swap1\n      dup2\n      mstore\n      0x40\n      swap1\n      keccak256\n      sload\n      0xff\n      and\n      dup2\n      jump\n        /* \"Lottogemeinschaft.sol\":4799:5457  function gewinnEinzahlen(uint48 gewinn) public payable restictedToGruender {... */\n    tag_21:\n      tag_54\n      tag_116\n      calldatasize\n      0x04\n      tag_117\n      jump\t// in\n    tag_116:\n      tag_118\n      jump\t// in\n        /* \"Lottogemeinschaft.sol\":4456:4750  function einsatzAbholen() public payable nonReentrant restictedToGruender{... */\n    tag_22:\n      tag_54\n      tag_120\n      jump\t// in\n        /* \"Lottogemeinschaft.sol\":1810:1845  string public tippgemeinschaftsName */\n    tag_23:\n      callvalue\n      dup1\n      iszero\n      tag_121\n      jumpi\n      0x00\n      dup1\n      revert\n    tag_121:\n      pop\n      tag_87\n      tag_123\n      jump\t// in\n        /* \"Lottogemeinschaft.sol\":6238:6524  function anzahlMitspielerAendern(uint16 neueAnzahlMaxTeilnehmer) public restictedToGruender{... */\n    tag_24:\n      callvalue\n      dup1\n      iszero\n      tag_125\n      jumpi\n      0x00\n      dup1\n      revert\n    tag_125:\n      pop\n      tag_54\n      tag_127\n      calldatasize\n      0x04\n      tag_128\n      jump\t// in\n    tag_127:\n      tag_129\n      jump\t// in\n        /* \"Lottogemeinschaft.sol\":2455:2477  bool public aufgeloest */\n    tag_25:\n      callvalue\n      dup1\n      iszero\n      tag_130\n      jumpi\n      0x00\n      dup1\n      revert\n    tag_130:\n      pop\n      sload(0x0a)\n      tag_45\n      swap1\n      0x0100\n      swap1\n      div\n      0xff\n      and\n      dup2\n      jump\n        /* \"Lottogemeinschaft.sol\":2373:2424  mapping(address => bool) public erlaubterMitspieler */\n    tag_26:\n      callvalue\n      dup1\n      iszero\n      tag_134\n      jumpi\n      0x00\n      dup1\n      revert\n    tag_134:\n      pop\n      tag_45\n      tag_136\n      calldatasize\n      0x04\n      tag_61\n      jump\t// in\n    tag_136:\n      mstore(0x20, 0x09)\n      0x00\n      swap1\n      dup2\n      mstore\n      0x40\n      swap1\n      keccak256\n      sload\n      0xff\n      and\n      dup2\n      jump\n        /* \"Lottogemeinschaft.sol\":5996:6232  function preisLottoscheinAendern(uint32 neuerPreis) public restictedToGruender{... */\n    tag_57:\n        /* \"Lottogemeinschaft.sol\":3235:3243  gruender */\n      and(0xffffffffffffffffffffffffffffffffffffffff, sload(0x00))\n        /* \"Lottogemeinschaft.sol\":3221:3231  msg.sender */\n      caller\n        /* \"Lottogemeinschaft.sol\":3221:3243  msg.sender == gruender */\n      eq\n        /* \"Lottogemeinschaft.sol\":3213:3296  require(msg.sender == gruender, \"Nur der Gruender kann diese Funktion ausfuehren.\") */\n      tag_140\n      jumpi\n      mload(0x40)\n      0x08c379a000000000000000000000000000000000000000000000000000000000\n      dup2\n      mstore\n        /* \"#utility.yul\":3015:3017   */\n      0x20\n        /* \"Lottogemeinschaft.sol\":3213:3296  require(msg.sender == gruender, \"Nur der Gruender kann diese Funktion ausfuehren.\") */\n      0x04\n      dup3\n      add\n        /* \"#utility.yul\":2997:3018   */\n      mstore\n        /* \"#utility.yul\":3054:3056   */\n      0x30\n        /* \"#utility.yul\":3034:3052   */\n      0x24\n      dup3\n      add\n        /* \"#utility.yul\":3027:3057   */\n      mstore\n        /* \"#utility.yul\":3093:3127   */\n      0x4e75722064657220477275656e646572206b616e6e2064696573652046756e6b\n        /* \"#utility.yul\":3073:3091   */\n      0x44\n      dup3\n      add\n        /* \"#utility.yul\":3066:3128   */\n      mstore\n        /* \"#utility.yul\":3164:3182   */\n      0x74696f6e206175736675656872656e2e00000000000000000000000000000000\n        /* \"#utility.yul\":3144:3162   */\n      0x64\n      dup3\n      add\n        /* \"#utility.yul\":3137:3183   */\n      mstore\n        /* \"#utility.yul\":3200:3219   */\n      0x84\n      add\n        /* \"Lottogemeinschaft.sol\":3213:3296  require(msg.sender == gruender, \"Nur der Gruender kann diese Funktion ausfuehren.\") */\n    tag_141:\n      mload(0x40)\n      dup1\n      swap2\n      sub\n      swap1\n      revert\n    tag_140:\n        /* \"Lottogemeinschaft.sol\":6092:6115  anzahlTeilnehmerAktuell */\n      and(0xffff, sload(0x08))\n        /* \"Lottogemeinschaft.sol\":6092:6118  anzahlTeilnehmerAktuell==0 */\n      iszero\n        /* \"Lottogemeinschaft.sol\":6084:6186  require(anzahlTeilnehmerAktuell==0, \"Es gibt bereits Mitspieler. Preisaenderung nicht mehr moeglich.\") */\n      tag_144\n      jumpi\n      mload(0x40)\n      0x08c379a000000000000000000000000000000000000000000000000000000000\n      dup2\n      mstore\n        /* \"#utility.yul\":3432:3434   */\n      0x20\n        /* \"Lottogemeinschaft.sol\":6084:6186  require(anzahlTeilnehmerAktuell==0, \"Es gibt bereits Mitspieler. Preisaenderung nicht mehr moeglich.\") */\n      0x04\n      dup3\n      add\n        /* \"#utility.yul\":3414:3435   */\n      mstore\n        /* \"#utility.yul\":3471:3473   */\n      0x3f\n        /* \"#utility.yul\":3451:3469   */\n      0x24\n      dup3\n      add\n        /* \"#utility.yul\":3444:3474   */\n      mstore\n        /* \"#utility.yul\":3510:3544   */\n      0x457320676962742062657265697473204d6974737069656c65722e2050726569\n        /* \"#utility.yul\":3490:3508   */\n      0x44\n      dup3\n      add\n        /* \"#utility.yul\":3483:3545   */\n      mstore\n        /* \"#utility.yul\":3581:3614   */\n      0x7361656e646572756e67206e69636874206d656872206d6f65676c6963682e00\n        /* \"#utility.yul\":3561:3579   */\n      0x64\n      dup3\n      add\n        /* \"#utility.yul\":3554:3615   */\n      mstore\n        /* \"#utility.yul\":3632:3651   */\n      0x84\n      add\n        /* \"Lottogemeinschaft.sol\":6084:6186  require(anzahlTeilnehmerAktuell==0, \"Es gibt bereits Mitspieler. Preisaenderung nicht mehr moeglich.\") */\n      tag_141\n        /* \"#utility.yul\":3230:3657   */\n      jump\n        /* \"Lottogemeinschaft.sol\":6084:6186  require(anzahlTeilnehmerAktuell==0, \"Es gibt bereits Mitspieler. Preisaenderung nicht mehr moeglich.\") */\n    tag_144:\n        /* \"Lottogemeinschaft.sol\":6196:6212  preisLottoschein */\n      0x02\n        /* \"Lottogemeinschaft.sol\":6196:6225  preisLottoschein = neuerPreis */\n      dup1\n      sload\n      0xffffffffffffffffffffffffffffffffffff000000000000000000000000ffff\n      and\n      0xffffffff\n      swap3\n      swap1\n      swap3\n      and\n      0x010000\n      mul\n      swap2\n      swap1\n      swap2\n      or\n      swap1\n      sstore\n        /* \"Lottogemeinschaft.sol\":5996:6232  function preisLottoscheinAendern(uint32 neuerPreis) public restictedToGruender{... */\n      jump\t// out\n        /* \"Lottogemeinschaft.sol\":6530:6804  function erlaubteMitspielerAdresseHinzufuegen(address _erlaubterMitspieler) public restictedToGruender{... */\n    tag_76:\n        /* \"Lottogemeinschaft.sol\":3235:3243  gruender */\n      and(0xffffffffffffffffffffffffffffffffffffffff, sload(0x00))\n        /* \"Lottogemeinschaft.sol\":3221:3231  msg.sender */\n      caller\n        /* \"Lottogemeinschaft.sol\":3221:3243  msg.sender == gruender */\n      eq\n        /* \"Lottogemeinschaft.sol\":3213:3296  require(msg.sender == gruender, \"Nur der Gruender kann diese Funktion ausfuehren.\") */\n      tag_148\n      jumpi\n      mload(0x40)\n      0x08c379a000000000000000000000000000000000000000000000000000000000\n      dup2\n      mstore\n        /* \"#utility.yul\":3015:3017   */\n      0x20\n        /* \"Lottogemeinschaft.sol\":3213:3296  require(msg.sender == gruender, \"Nur der Gruender kann diese Funktion ausfuehren.\") */\n      0x04\n      dup3\n      add\n        /* \"#utility.yul\":2997:3018   */\n      mstore\n        /* \"#utility.yul\":3054:3056   */\n      0x30\n        /* \"#utility.yul\":3034:3052   */\n      0x24\n      dup3\n      add\n        /* \"#utility.yul\":3027:3057   */\n      mstore\n        /* \"#utility.yul\":3093:3127   */\n      0x4e75722064657220477275656e646572206b616e6e2064696573652046756e6b\n        /* \"#utility.yul\":3073:3091   */\n      0x44\n      dup3\n      add\n        /* \"#utility.yul\":3066:3128   */\n      mstore\n        /* \"#utility.yul\":3164:3182   */\n      0x74696f6e206175736675656872656e2e00000000000000000000000000000000\n        /* \"#utility.yul\":3144:3162   */\n      0x64\n      dup3\n      add\n        /* \"#utility.yul\":3137:3183   */\n      mstore\n        /* \"#utility.yul\":3200:3219   */\n      0x84\n      add\n        /* \"Lottogemeinschaft.sol\":3213:3296  require(msg.sender == gruender, \"Nur der Gruender kann diese Funktion ausfuehren.\") */\n      tag_141\n        /* \"#utility.yul\":2813:3225   */\n      jump\n        /* \"Lottogemeinschaft.sol\":3213:3296  require(msg.sender == gruender, \"Nur der Gruender kann diese Funktion ausfuehren.\") */\n    tag_148:\n        /* \"Lottogemeinschaft.sol\":6650:6673  anzahlTeilnehmerAktuell */\n      and(0xffff, sload(0x08))\n        /* \"Lottogemeinschaft.sol\":6650:6676  anzahlTeilnehmerAktuell==0 */\n      iszero\n        /* \"Lottogemeinschaft.sol\":6642:6739  require(anzahlTeilnehmerAktuell==0, \"Es gibt bereits Mitspieler. Aenderung nicht mehr moeglich.\") */\n      tag_151\n      jumpi\n      mload(0x40)\n      0x08c379a000000000000000000000000000000000000000000000000000000000\n      dup2\n      mstore\n        /* \"#utility.yul\":3864:3866   */\n      0x20\n        /* \"Lottogemeinschaft.sol\":6642:6739  require(anzahlTeilnehmerAktuell==0, \"Es gibt bereits Mitspieler. Aenderung nicht mehr moeglich.\") */\n      0x04\n      dup3\n      add\n        /* \"#utility.yul\":3846:3867   */\n      mstore\n        /* \"#utility.yul\":3903:3905   */\n      0x3a\n        /* \"#utility.yul\":3883:3901   */\n      0x24\n      dup3\n      add\n        /* \"#utility.yul\":3876:3906   */\n      mstore\n        /* \"#utility.yul\":3942:3976   */\n      0x457320676962742062657265697473204d6974737069656c65722e2041656e64\n        /* \"#utility.yul\":3922:3940   */\n      0x44\n      dup3\n      add\n        /* \"#utility.yul\":3915:3977   */\n      mstore\n        /* \"#utility.yul\":4013:4041   */\n      0x6572756e67206e69636874206d656872206d6f65676c6963682e000000000000\n        /* \"#utility.yul\":3993:4011   */\n      0x64\n      dup3\n      add\n        /* \"#utility.yul\":3986:4042   */\n      mstore\n        /* \"#utility.yul\":4059:4078   */\n      0x84\n      add\n        /* \"Lottogemeinschaft.sol\":6642:6739  require(anzahlTeilnehmerAktuell==0, \"Es gibt bereits Mitspieler. Aenderung nicht mehr moeglich.\") */\n      tag_141\n        /* \"#utility.yul\":3662:4084   */\n      jump\n        /* \"Lottogemeinschaft.sol\":6642:6739  require(anzahlTeilnehmerAktuell==0, \"Es gibt bereits Mitspieler. Aenderung nicht mehr moeglich.\") */\n    tag_151:\n        /* \"Lottogemeinschaft.sol\":6749:6790  erlaubterMitspieler[_erlaubterMitspieler] */\n      0xffffffffffffffffffffffffffffffffffffffff\n      and\n      0x00\n      swap1\n      dup2\n      mstore\n        /* \"Lottogemeinschaft.sol\":6749:6768  erlaubterMitspieler */\n      0x09\n        /* \"Lottogemeinschaft.sol\":6749:6790  erlaubterMitspieler[_erlaubterMitspieler] */\n      0x20\n      mstore\n      0x40\n      swap1\n      keccak256\n        /* \"Lottogemeinschaft.sol\":6749:6797  erlaubterMitspieler[_erlaubterMitspieler] = true */\n      dup1\n      sload\n      0xffffffffffffffffffffffffffffffffffffffffffffffffffffffffffffff00\n      and\n        /* \"Lottogemeinschaft.sol\":6793:6797  true */\n      0x01\n        /* \"Lottogemeinschaft.sol\":6749:6797  erlaubterMitspieler[_erlaubterMitspieler] = true */\n      or\n      swap1\n      sstore\n        /* \"Lottogemeinschaft.sol\":6530:6804  function erlaubteMitspielerAdresseHinzufuegen(address _erlaubterMitspieler) public restictedToGruender{... */\n      jump\t// out\n        /* \"Lottogemeinschaft.sol\":3610:4450  function mitmachen() public payable {... */\n    tag_78:\n        /* \"Lottogemeinschaft.sol\":3678:3696  preisProMitspieler */\n      sload(0x02)\n      0x010000000000000000000000000000\n      swap1\n      div\n      0xffffffffffffffffffffffff\n      and\n        /* \"Lottogemeinschaft.sol\":3670:3728  require(preisProMitspieler>0, \"Kein Preis pro Mitspieler\") */\n      tag_155\n      jumpi\n      mload(0x40)\n      0x08c379a000000000000000000000000000000000000000000000000000000000\n      dup2\n      mstore\n        /* \"#utility.yul\":4291:4293   */\n      0x20\n        /* \"Lottogemeinschaft.sol\":3670:3728  require(preisProMitspieler>0, \"Kein Preis pro Mitspieler\") */\n      0x04\n      dup3\n      add\n        /* \"#utility.yul\":4273:4294   */\n      mstore\n        /* \"#utility.yul\":4330:4332   */\n      0x19\n        /* \"#utility.yul\":4310:4328   */\n      0x24\n      dup3\n      add\n        /* \"#utility.yul\":4303:4333   */\n      mstore\n        /* \"#utility.yul\":4369:4396   */\n      0x4b65696e2050726569732070726f204d6974737069656c657200000000000000\n        /* \"#utility.yul\":4349:4367   */\n      0x44\n      dup3\n      add\n        /* \"#utility.yul\":4342:4397   */\n      mstore\n        /* \"#utility.yul\":4414:4432   */\n      0x64\n      add\n        /* \"Lottogemeinschaft.sol\":3670:3728  require(preisProMitspieler>0, \"Kein Preis pro Mitspieler\") */\n      tag_141\n        /* \"#utility.yul\":4089:4438   */\n      jump\n        /* \"Lottogemeinschaft.sol\":3670:3728  require(preisProMitspieler>0, \"Kein Preis pro Mitspieler\") */\n    tag_155:\n        /* \"Lottogemeinschaft.sol\":3759:3777  preisProMitspieler */\n      sload(0x02)\n      0x010000000000000000000000000000\n      swap1\n      div\n      0xffffffffffffffffffffffff\n      and\n        /* \"Lottogemeinschaft.sol\":3746:3755  msg.value */\n      callvalue\n        /* \"Lottogemeinschaft.sol\":3746:3777  msg.value >= preisProMitspieler */\n      lt\n      iszero\n        /* \"Lottogemeinschaft.sol\":3738:3811  require(msg.value >= preisProMitspieler, \"Zu geringer Einzahlungsbetrag\") */\n      tag_158\n      jumpi\n      mload(0x40)\n      0x08c379a000000000000000000000000000000000000000000000000000000000\n      dup2\n      mstore\n        /* \"#utility.yul\":4645:4647   */\n      0x20\n        /* \"Lottogemeinschaft.sol\":3738:3811  require(msg.value >= preisProMitspieler, \"Zu geringer Einzahlungsbetrag\") */\n      0x04\n      dup3\n      add\n        /* \"#utility.yul\":4627:4648   */\n      mstore\n        /* \"#utility.yul\":4684:4686   */\n      0x1d\n        /* \"#utility.yul\":4664:4682   */\n      0x24\n      dup3\n      add\n        /* \"#utility.yul\":4657:4687   */\n      mstore\n        /* \"#utility.yul\":4723:4754   */\n      0x5a7520676572696e6765722045696e7a61686c756e6773626574726167000000\n        /* \"#utility.yul\":4703:4721   */\n      0x44\n      dup3\n      add\n        /* \"#utility.yul\":4696:4755   */\n      mstore\n        /* \"#utility.yul\":4772:4790   */\n      0x64\n      add\n        /* \"Lottogemeinschaft.sol\":3738:3811  require(msg.value >= preisProMitspieler, \"Zu geringer Einzahlungsbetrag\") */\n      tag_141\n        /* \"#utility.yul\":4443:4796   */\n      jump\n        /* \"Lottogemeinschaft.sol\":3738:3811  require(msg.value >= preisProMitspieler, \"Zu geringer Einzahlungsbetrag\") */\n    tag_158:\n        /* \"Lottogemeinschaft.sol\":3841:3851  msg.sender */\n      caller\n        /* \"Lottogemeinschaft.sol\":3830:3852  mitspieler[msg.sender] */\n      0x00\n      swap1\n      dup2\n      mstore\n        /* \"Lottogemeinschaft.sol\":3830:3840  mitspieler */\n      0x05\n        /* \"Lottogemeinschaft.sol\":3830:3852  mitspieler[msg.sender] */\n      0x20\n      mstore\n      0x40\n      swap1\n      keccak256\n      sload\n      0xff\n      and\n        /* \"Lottogemeinschaft.sol\":3829:3852  !mitspieler[msg.sender] */\n      iszero\n        /* \"Lottogemeinschaft.sol\":3821:3891  require(!mitspieler[msg.sender], \"Bereits als Mitspieler registriert\") */\n      tag_161\n      jumpi\n      mload(0x40)\n      0x08c379a000000000000000000000000000000000000000000000000000000000\n      dup2\n      mstore\n        /* \"#utility.yul\":5003:5005   */\n      0x20\n        /* \"Lottogemeinschaft.sol\":3821:3891  require(!mitspieler[msg.sender], \"Bereits als Mitspieler registriert\") */\n      0x04\n      dup3\n      add\n        /* \"#utility.yul\":4985:5006   */\n      mstore\n        /* \"#utility.yul\":5042:5044   */\n      0x22\n        /* \"#utility.yul\":5022:5040   */\n      0x24\n      dup3\n      add\n        /* \"#utility.yul\":5015:5045   */\n      mstore\n        /* \"#utility.yul\":5081:5115   */\n      0x4265726569747320616c73204d6974737069656c657220726567697374726965\n        /* \"#utility.yul\":5061:5079   */\n      0x44\n      dup3\n      add\n        /* \"#utility.yul\":5054:5116   */\n      mstore\n        /* \"#utility.yul\":5152:5156   */\n      0x7274000000000000000000000000000000000000000000000000000000000000\n        /* \"#utility.yul\":5132:5150   */\n      0x64\n      dup3\n      add\n        /* \"#utility.yul\":5125:5157   */\n      mstore\n        /* \"#utility.yul\":5174:5193   */\n      0x84\n      add\n        /* \"Lottogemeinschaft.sol\":3821:3891  require(!mitspieler[msg.sender], \"Bereits als Mitspieler registriert\") */\n      tag_141\n        /* \"#utility.yul\":4801:5199   */\n      jump\n        /* \"Lottogemeinschaft.sol\":3821:3891  require(!mitspieler[msg.sender], \"Bereits als Mitspieler registriert\") */\n    tag_161:\n        /* \"Lottogemeinschaft.sol\":3935:3954  maxTeilnehmerAnzahl */\n      sload(0x02)\n        /* \"Lottogemeinschaft.sol\":3909:3932  anzahlTeilnehmerAktuell */\n      sload(0x08)\n        /* \"Lottogemeinschaft.sol\":3935:3954  maxTeilnehmerAnzahl */\n      0xffff\n      swap2\n      dup3\n      and\n        /* \"Lottogemeinschaft.sol\":3909:3932  anzahlTeilnehmerAktuell */\n      swap2\n      and\n        /* \"Lottogemeinschaft.sol\":3909:3954  anzahlTeilnehmerAktuell < maxTeilnehmerAnzahl */\n      lt\n        /* \"Lottogemeinschaft.sol\":3901:3991  require(anzahlTeilnehmerAktuell < maxTeilnehmerAnzahl, \"Maximale Teilnehmerzahl erreicht\") */\n      tag_164\n      jumpi\n      mload(0x40)\n      0x08c379a000000000000000000000000000000000000000000000000000000000\n      dup2\n      mstore\n        /* \"#utility.yul\":5406:5408   */\n      0x20\n        /* \"Lottogemeinschaft.sol\":3901:3991  require(anzahlTeilnehmerAktuell < maxTeilnehmerAnzahl, \"Maximale Teilnehmerzahl erreicht\") */\n      0x04\n      dup3\n      add\n        /* \"#utility.yul\":5388:5409   */\n      dup2\n      swap1\n      mstore\n        /* \"#utility.yul\":5425:5443   */\n      0x24\n      dup3\n      add\n        /* \"#utility.yul\":5418:5448   */\n      mstore\n        /* \"#utility.yul\":5484:5518   */\n      0x4d6178696d616c65205465696c6e65686d65727a61686c206572726569636874\n        /* \"#utility.yul\":5464:5482   */\n      0x44\n      dup3\n      add\n        /* \"#utility.yul\":5457:5519   */\n      mstore\n        /* \"#utility.yul\":5536:5554   */\n      0x64\n      add\n        /* \"Lottogemeinschaft.sol\":3901:3991  require(anzahlTeilnehmerAktuell < maxTeilnehmerAnzahl, \"Maximale Teilnehmerzahl erreicht\") */\n      tag_141\n        /* \"#utility.yul\":5204:5560   */\n      jump\n        /* \"Lottogemeinschaft.sol\":3901:3991  require(anzahlTeilnehmerAktuell < maxTeilnehmerAnzahl, \"Maximale Teilnehmerzahl erreicht\") */\n    tag_164:\n        /* \"Lottogemeinschaft.sol\":4009:4028  gewinnProMitspieler */\n      sload(0x08)\n      0x010000\n      swap1\n      div\n      0xffffffffffff\n      and\n        /* \"Lottogemeinschaft.sol\":4009:4031  gewinnProMitspieler==0 */\n      iszero\n        /* \"Lottogemeinschaft.sol\":4001:4067  require(gewinnProMitspieler==0, \"Gewinn wurde bereits eingezahlt\") */\n      tag_167\n      jumpi\n      mload(0x40)\n      0x08c379a000000000000000000000000000000000000000000000000000000000\n      dup2\n      mstore\n        /* \"#utility.yul\":5767:5769   */\n      0x20\n        /* \"Lottogemeinschaft.sol\":4001:4067  require(gewinnProMitspieler==0, \"Gewinn wurde bereits eingezahlt\") */\n      0x04\n      dup3\n      add\n        /* \"#utility.yul\":5749:5770   */\n      mstore\n        /* \"#utility.yul\":5806:5808   */\n      0x1f\n        /* \"#utility.yul\":5786:5804   */\n      0x24\n      dup3\n      add\n        /* \"#utility.yul\":5779:5809   */\n      mstore\n        /* \"#utility.yul\":5845:5878   */\n      0x476577696e6e20777572646520626572656974732065696e67657a61686c7400\n        /* \"#utility.yul\":5825:5843   */\n      0x44\n      dup3\n      add\n        /* \"#utility.yul\":5818:5879   */\n      mstore\n        /* \"#utility.yul\":5896:5914   */\n      0x64\n      add\n        /* \"Lottogemeinschaft.sol\":4001:4067  require(gewinnProMitspieler==0, \"Gewinn wurde bereits eingezahlt\") */\n      tag_141\n        /* \"#utility.yul\":5565:5920   */\n      jump\n        /* \"Lottogemeinschaft.sol\":4001:4067  require(gewinnProMitspieler==0, \"Gewinn wurde bereits eingezahlt\") */\n    tag_167:\n        /* \"Lottogemeinschaft.sol\":4081:4102  nurErlaubteMitspieler */\n      sload(0x08)\n      0x01000000000000000000\n      swap1\n      div\n      0xff\n      and\n        /* \"Lottogemeinschaft.sol\":4077:4168  if (nurErlaubteMitspieler){... */\n      iszero\n      tag_171\n      jumpi\n        /* \"Lottogemeinschaft.sol\":4145:4155  msg.sender */\n      caller\n        /* \"Lottogemeinschaft.sol\":4125:4156  erlaubterMitspieler[msg.sender] */\n      0x00\n      swap1\n      dup2\n      mstore\n        /* \"Lottogemeinschaft.sol\":4125:4144  erlaubterMitspieler */\n      0x09\n        /* \"Lottogemeinschaft.sol\":4125:4156  erlaubterMitspieler[msg.sender] */\n      0x20\n      mstore\n      0x40\n      swap1\n      keccak256\n      sload\n      0xff\n      and\n        /* \"Lottogemeinschaft.sol\":4117:4157  require(erlaubterMitspieler[msg.sender]) */\n      tag_171\n      jumpi\n      0x00\n      dup1\n      revert\n    tag_171:\n        /* \"Lottogemeinschaft.sol\":4230:4248  preisProMitspieler */\n      sload(0x02)\n        /* \"Lottogemeinschaft.sol\":4199:4215  uint ueberschuss */\n      0x00\n      swap1\n        /* \"Lottogemeinschaft.sol\":4218:4248  msg.value - preisProMitspieler */\n      tag_172\n      swap1\n        /* \"Lottogemeinschaft.sol\":4230:4248  preisProMitspieler */\n      0x010000000000000000000000000000\n      swap1\n      div\n      0xffffffffffffffffffffffff\n      and\n        /* \"Lottogemeinschaft.sol\":4218:4227  msg.value */\n      callvalue\n        /* \"Lottogemeinschaft.sol\":4218:4248  msg.value - preisProMitspieler */\n      tag_173\n      jump\t// in\n    tag_172:\n        /* \"Lottogemeinschaft.sol\":4269:4279  msg.sender */\n      caller\n        /* \"Lottogemeinschaft.sol\":4258:4280  mitspieler[msg.sender] */\n      0x00\n      swap1\n      dup2\n      mstore\n        /* \"Lottogemeinschaft.sol\":4258:4268  mitspieler */\n      0x05\n        /* \"Lottogemeinschaft.sol\":4258:4280  mitspieler[msg.sender] */\n      0x20\n      mstore\n      0x40\n      dup2\n      keccak256\n        /* \"Lottogemeinschaft.sol\":4258:4287  mitspieler[msg.sender] = true */\n      dup1\n      sload\n      0xffffffffffffffffffffffffffffffffffffffffffffffffffffffffffffff00\n      and\n        /* \"Lottogemeinschaft.sol\":4283:4287  true */\n      0x01\n        /* \"Lottogemeinschaft.sol\":4258:4287  mitspieler[msg.sender] = true */\n      or\n      swap1\n      sstore\n        /* \"Lottogemeinschaft.sol\":4297:4320  anzahlTeilnehmerAktuell */\n      0x08\n        /* \"Lottogemeinschaft.sol\":4297:4322  anzahlTeilnehmerAktuell++ */\n      dup1\n      sload\n        /* \"Lottogemeinschaft.sol\":4199:4248  uint ueberschuss = msg.value - preisProMitspieler */\n      swap3\n      swap4\n      pop\n        /* \"Lottogemeinschaft.sol\":4297:4322  anzahlTeilnehmerAktuell++ */\n      0xffff\n      swap1\n      swap3\n      and\n      swap2\n        /* \"Lottogemeinschaft.sol\":4297:4320  anzahlTeilnehmerAktuell */\n      swap1\n        /* \"Lottogemeinschaft.sol\":4297:4322  anzahlTeilnehmerAktuell++ */\n      tag_174\n      dup4\n      tag_175\n      jump\t// in\n    tag_174:\n      swap2\n      swap1\n      0x0100\n      exp\n      dup2\n      sload\n      dup2\n      0xffff\n      mul\n      not\n      and\n      swap1\n      dup4\n      0xffff\n      and\n      mul\n      or\n      swap1\n      sstore\n      pop\n      pop\n        /* \"Lottogemeinschaft.sol\":4375:4376  0 */\n      0x00\n        /* \"Lottogemeinschaft.sol\":4361:4372  ueberschuss */\n      dup2\n        /* \"Lottogemeinschaft.sol\":4361:4376  ueberschuss > 0 */\n      gt\n        /* \"Lottogemeinschaft.sol\":4357:4444  if (ueberschuss > 0) {... */\n      iszero\n      tag_176\n      jumpi\n        /* \"Lottogemeinschaft.sol\":4392:4433  payable(msg.sender).transfer(ueberschuss) */\n      mload(0x40)\n        /* \"Lottogemeinschaft.sol\":4400:4410  msg.sender */\n      caller\n      swap1\n        /* \"Lottogemeinschaft.sol\":4392:4433  payable(msg.sender).transfer(ueberschuss) */\n      dup3\n      iszero\n      0x08fc\n      mul\n      swap1\n        /* \"Lottogemeinschaft.sol\":4421:4432  ueberschuss */\n      dup4\n      swap1\n        /* \"Lottogemeinschaft.sol\":4392:4433  payable(msg.sender).transfer(ueberschuss) */\n      0x00\n      dup2\n      dup2\n      dup2\n        /* \"Lottogemeinschaft.sol\":4421:4432  ueberschuss */\n      dup6\n        /* \"Lottogemeinschaft.sol\":4400:4410  msg.sender */\n      dup9\n        /* \"Lottogemeinschaft.sol\":4392:4433  payable(msg.sender).transfer(ueberschuss) */\n      dup9\n      call\n      swap4\n      pop\n      pop\n      pop\n      pop\n      iszero\n      dup1\n      iszero\n      tag_178\n      jumpi\n      returndatasize\n      0x00\n      dup1\n      returndatacopy\n      revert(0x00, returndatasize)\n    tag_178:\n      pop\n        /* \"Lottogemeinschaft.sol\":4357:4444  if (ueberschuss > 0) {... */\n    tag_176:\n        /* \"Lottogemeinschaft.sol\":3646:4450  {... */\n      pop\n        /* \"Lottogemeinschaft.sol\":3610:4450  function mitmachen() public payable {... */\n      jump\t// out\n        /* \"Lottogemeinschaft.sol\":5505:5989  function gewinnAbholen() public restictedToMitspieler nonReentrant {... */\n    tag_85:\n        /* \"Lottogemeinschaft.sol\":3381:3391  msg.sender */\n      caller\n        /* \"Lottogemeinschaft.sol\":3370:3392  mitspieler[msg.sender] */\n      0x00\n      swap1\n      dup2\n      mstore\n        /* \"Lottogemeinschaft.sol\":3370:3380  mitspieler */\n      0x05\n        /* \"Lottogemeinschaft.sol\":3370:3392  mitspieler[msg.sender] */\n      0x20\n      mstore\n      0x40\n      swap1\n      keccak256\n      sload\n      0xff\n      and\n        /* \"Lottogemeinschaft.sol\":3362:3447  require(mitspieler[msg.sender], \"Nur ein Mitspieler kann diese Funktion ausfuehren.\") */\n      tag_180\n      jumpi\n      mload(0x40)\n      0x08c379a000000000000000000000000000000000000000000000000000000000\n      dup2\n      mstore\n        /* \"#utility.yul\":6651:6653   */\n      0x20\n        /* \"Lottogemeinschaft.sol\":3362:3447  require(mitspieler[msg.sender], \"Nur ein Mitspieler kann diese Funktion ausfuehren.\") */\n      0x04\n      dup3\n      add\n        /* \"#utility.yul\":6633:6654   */\n      mstore\n        /* \"#utility.yul\":6690:6692   */\n      0x32\n        /* \"#utility.yul\":6670:6688   */\n      0x24\n      dup3\n      add\n        /* \"#utility.yul\":6663:6693   */\n      mstore\n        /* \"#utility.yul\":6729:6763   */\n      0x4e75722065696e204d6974737069656c6572206b616e6e206469657365204675\n        /* \"#utility.yul\":6709:6727   */\n      0x44\n      dup3\n      add\n        /* \"#utility.yul\":6702:6764   */\n      mstore\n        /* \"#utility.yul\":6800:6820   */\n      0x6e6b74696f6e206175736675656872656e2e0000000000000000000000000000\n        /* \"#utility.yul\":6780:6798   */\n      0x64\n      dup3\n      add\n        /* \"#utility.yul\":6773:6821   */\n      mstore\n        /* \"#utility.yul\":6838:6857   */\n      0x84\n      add\n        /* \"Lottogemeinschaft.sol\":3362:3447  require(mitspieler[msg.sender], \"Nur ein Mitspieler kann diese Funktion ausfuehren.\") */\n      tag_141\n        /* \"#utility.yul\":6449:6863   */\n      jump\n        /* \"Lottogemeinschaft.sol\":3362:3447  require(mitspieler[msg.sender], \"Nur ein Mitspieler kann diese Funktion ausfuehren.\") */\n    tag_180:\n        /* \"Lottogemeinschaft.sol\":3514:3520  locked */\n      and(0xff, sload(0x0a))\n        /* \"Lottogemeinschaft.sol\":3513:3520  !locked */\n      iszero\n        /* \"Lottogemeinschaft.sol\":3505:3539  require(!locked, \"No re-entrancy\") */\n      tag_184\n      jumpi\n      mload(0x40)\n      0x08c379a000000000000000000000000000000000000000000000000000000000\n      dup2\n      mstore\n        /* \"#utility.yul\":7070:7072   */\n      0x20\n        /* \"Lottogemeinschaft.sol\":3505:3539  require(!locked, \"No re-entrancy\") */\n      0x04\n      dup3\n      add\n        /* \"#utility.yul\":7052:7073   */\n      mstore\n        /* \"#utility.yul\":7109:7111   */\n      0x0e\n        /* \"#utility.yul\":7089:7107   */\n      0x24\n      dup3\n      add\n        /* \"#utility.yul\":7082:7112   */\n      mstore\n        /* \"#utility.yul\":7148:7164   */\n      0x4e6f2072652d656e7472616e6379000000000000000000000000000000000000\n        /* \"#utility.yul\":7128:7146   */\n      0x44\n      dup3\n      add\n        /* \"#utility.yul\":7121:7165   */\n      mstore\n        /* \"#utility.yul\":7182:7200   */\n      0x64\n      add\n        /* \"Lottogemeinschaft.sol\":3505:3539  require(!locked, \"No re-entrancy\") */\n      tag_141\n        /* \"#utility.yul\":6868:7206   */\n      jump\n        /* \"Lottogemeinschaft.sol\":3505:3539  require(!locked, \"No re-entrancy\") */\n    tag_184:\n        /* \"Lottogemeinschaft.sol\":3549:3555  locked */\n      0x0a\n        /* \"Lottogemeinschaft.sol\":3549:3562  locked = true */\n      dup1\n      sload\n      0xffffffffffffffffffffffffffffffffffffffffffffffffffffffffffffff00\n      and\n        /* \"Lottogemeinschaft.sol\":3558:3562  true */\n      0x01\n        /* \"Lottogemeinschaft.sol\":3549:3562  locked = true */\n      or\n      swap1\n      sstore\n        /* \"Lottogemeinschaft.sol\":5590:5614  gewinnKannAbgeholtWerden */\n      sload(0x08)\n      0x010000000000000000\n      swap1\n      div\n        /* \"Lottogemeinschaft.sol\":3549:3562  locked = true */\n      0xff\n        /* \"Lottogemeinschaft.sol\":5590:5614  gewinnKannAbgeholtWerden */\n      and\n        /* \"Lottogemeinschaft.sol\":5582:5658  require(gewinnKannAbgeholtWerden, \"Gewinn kann noch nicht abgeholt werden.\") */\n      tag_188\n      jumpi\n      mload(0x40)\n      0x08c379a000000000000000000000000000000000000000000000000000000000\n      dup2\n      mstore\n        /* \"#utility.yul\":7413:7415   */\n      0x20\n        /* \"Lottogemeinschaft.sol\":5582:5658  require(gewinnKannAbgeholtWerden, \"Gewinn kann noch nicht abgeholt werden.\") */\n      0x04\n      dup3\n      add\n        /* \"#utility.yul\":7395:7416   */\n      mstore\n        /* \"#utility.yul\":7452:7454   */\n      0x27\n        /* \"#utility.yul\":7432:7450   */\n      0x24\n      dup3\n      add\n        /* \"#utility.yul\":7425:7455   */\n      mstore\n        /* \"#utility.yul\":7491:7525   */\n      0x476577696e6e206b616e6e206e6f6368206e696368742061626765686f6c7420\n        /* \"#utility.yul\":7471:7489   */\n      0x44\n      dup3\n      add\n        /* \"#utility.yul\":7464:7526   */\n      mstore\n        /* \"#utility.yul\":7562:7571   */\n      0x77657264656e2e00000000000000000000000000000000000000000000000000\n        /* \"#utility.yul\":7542:7560   */\n      0x64\n      dup3\n      add\n        /* \"#utility.yul\":7535:7572   */\n      mstore\n        /* \"#utility.yul\":7589:7608   */\n      0x84\n      add\n        /* \"Lottogemeinschaft.sol\":5582:5658  require(gewinnKannAbgeholtWerden, \"Gewinn kann noch nicht abgeholt werden.\") */\n      tag_141\n        /* \"#utility.yul\":7211:7614   */\n      jump\n        /* \"Lottogemeinschaft.sol\":5582:5658  require(gewinnKannAbgeholtWerden, \"Gewinn kann noch nicht abgeholt werden.\") */\n    tag_188:\n        /* \"Lottogemeinschaft.sol\":5676:5695  gewinnProMitspieler */\n      sload(0x08)\n      0x010000\n      swap1\n      div\n      0xffffffffffff\n      and\n        /* \"Lottogemeinschaft.sol\":5668:5742  require(gewinnProMitspieler > 0, \"Kein Gewinn zur Auszahlung verfuegbar.\") */\n      tag_191\n      jumpi\n      mload(0x40)\n      0x08c379a000000000000000000000000000000000000000000000000000000000\n      dup2\n      mstore\n        /* \"#utility.yul\":7821:7823   */\n      0x20\n        /* \"Lottogemeinschaft.sol\":5668:5742  require(gewinnProMitspieler > 0, \"Kein Gewinn zur Auszahlung verfuegbar.\") */\n      0x04\n      dup3\n      add\n        /* \"#utility.yul\":7803:7824   */\n      mstore\n        /* \"#utility.yul\":7860:7862   */\n      0x26\n        /* \"#utility.yul\":7840:7858   */\n      0x24\n      dup3\n      add\n        /* \"#utility.yul\":7833:7863   */\n      mstore\n        /* \"#utility.yul\":7899:7933   */\n      0x4b65696e20476577696e6e207a7572204175737a61686c756e67207665726675\n        /* \"#utility.yul\":7879:7897   */\n      0x44\n      dup3\n      add\n        /* \"#utility.yul\":7872:7934   */\n      mstore\n        /* \"#utility.yul\":7970:7978   */\n      0x65676261722e0000000000000000000000000000000000000000000000000000\n        /* \"#utility.yul\":7950:7968   */\n      0x64\n      dup3\n      add\n        /* \"#utility.yul\":7943:7979   */\n      mstore\n        /* \"#utility.yul\":7996:8015   */\n      0x84\n      add\n        /* \"Lottogemeinschaft.sol\":5668:5742  require(gewinnProMitspieler > 0, \"Kein Gewinn zur Auszahlung verfuegbar.\") */\n      tag_141\n        /* \"#utility.yul\":7619:8021   */\n      jump\n        /* \"Lottogemeinschaft.sol\":5668:5742  require(gewinnProMitspieler > 0, \"Kein Gewinn zur Auszahlung verfuegbar.\") */\n    tag_191:\n        /* \"Lottogemeinschaft.sol\":5778:5788  msg.sender */\n      caller\n        /* \"Lottogemeinschaft.sol\":5761:5789  gewinnAusgezahlt[msg.sender] */\n      0x00\n      swap1\n      dup2\n      mstore\n        /* \"Lottogemeinschaft.sol\":5761:5777  gewinnAusgezahlt */\n      0x06\n        /* \"Lottogemeinschaft.sol\":5761:5789  gewinnAusgezahlt[msg.sender] */\n      0x20\n      mstore\n      0x40\n      swap1\n      keccak256\n      sload\n      0xff\n      and\n        /* \"Lottogemeinschaft.sol\":5760:5789  !gewinnAusgezahlt[msg.sender] */\n      iszero\n        /* \"Lottogemeinschaft.sol\":5752:5824  require(!gewinnAusgezahlt[msg.sender], \"Gewinn wurde bereits abgeholt.\") */\n      tag_194\n      jumpi\n      mload(0x40)\n      0x08c379a000000000000000000000000000000000000000000000000000000000\n      dup2\n      mstore\n        /* \"#utility.yul\":8228:8230   */\n      0x20\n        /* \"Lottogemeinschaft.sol\":5752:5824  require(!gewinnAusgezahlt[msg.sender], \"Gewinn wurde bereits abgeholt.\") */\n      0x04\n      dup3\n      add\n        /* \"#utility.yul\":8210:8231   */\n      mstore\n        /* \"#utility.yul\":8267:8269   */\n      0x1e\n        /* \"#utility.yul\":8247:8265   */\n      0x24\n      dup3\n      add\n        /* \"#utility.yul\":8240:8270   */\n      mstore\n        /* \"#utility.yul\":8306:8338   */\n      0x476577696e6e20777572646520626572656974732061626765686f6c742e0000\n        /* \"#utility.yul\":8286:8304   */\n      0x44\n      dup3\n      add\n        /* \"#utility.yul\":8279:8339   */\n      mstore\n        /* \"#utility.yul\":8356:8374   */\n      0x64\n      add\n        /* \"Lottogemeinschaft.sol\":5752:5824  require(!gewinnAusgezahlt[msg.sender], \"Gewinn wurde bereits abgeholt.\") */\n      tag_141\n        /* \"#utility.yul\":8026:8380   */\n      jump\n        /* \"Lottogemeinschaft.sol\":5752:5824  require(!gewinnAusgezahlt[msg.sender], \"Gewinn wurde bereits abgeholt.\") */\n    tag_194:\n        /* \"Lottogemeinschaft.sol\":5852:5862  msg.sender */\n      caller\n        /* \"Lottogemeinschaft.sol\":5835:5863  gewinnAusgezahlt[msg.sender] */\n      0x00\n      dup2\n      dup2\n      mstore\n        /* \"Lottogemeinschaft.sol\":5835:5851  gewinnAusgezahlt */\n      0x06\n        /* \"Lottogemeinschaft.sol\":5835:5863  gewinnAusgezahlt[msg.sender] */\n      0x20\n      mstore\n      0x40\n      dup1\n      dup3\n      keccak256\n        /* \"Lottogemeinschaft.sol\":5835:5870  gewinnAusgezahlt[msg.sender] = true */\n      dup1\n      sload\n        /* \"Lottogemeinschaft.sol\":5866:5870  true */\n      0x01\n        /* \"Lottogemeinschaft.sol\":5835:5870  gewinnAusgezahlt[msg.sender] = true */\n      0xffffffffffffffffffffffffffffffffffffffffffffffffffffffffffffff00\n      swap1\n      swap2\n      and\n      or\n      swap1\n      sstore\n        /* \"Lottogemeinschaft.sol\":5906:5925  gewinnProMitspieler */\n      sload(0x08)\n        /* \"Lottogemeinschaft.sol\":5935:5982  payable(msg.sender).transfer(auszahlungsbetrag) */\n      swap1\n      mload\n        /* \"Lottogemeinschaft.sol\":5906:5925  gewinnProMitspieler */\n      0x010000\n      swap1\n      swap2\n      div\n      0xffffffffffff\n      and\n      swap3\n        /* \"Lottogemeinschaft.sol\":5852:5862  msg.sender */\n      swap2\n        /* \"Lottogemeinschaft.sol\":5935:5982  payable(msg.sender).transfer(auszahlungsbetrag) */\n      0x08fc\n      dup5\n      iszero\n      mul\n      swap2\n        /* \"Lottogemeinschaft.sol\":5906:5925  gewinnProMitspieler */\n      dup5\n      swap2\n        /* \"Lottogemeinschaft.sol\":5935:5982  payable(msg.sender).transfer(auszahlungsbetrag) */\n      dup2\n        /* \"Lottogemeinschaft.sol\":5835:5863  gewinnAusgezahlt[msg.sender] */\n      dup2\n        /* \"Lottogemeinschaft.sol\":5935:5982  payable(msg.sender).transfer(auszahlungsbetrag) */\n      dup2\n        /* \"Lottogemeinschaft.sol\":5906:5925  gewinnProMitspieler */\n      dup6\n        /* \"Lottogemeinschaft.sol\":5852:5862  msg.sender */\n      dup9\n        /* \"Lottogemeinschaft.sol\":5935:5982  payable(msg.sender).transfer(auszahlungsbetrag) */\n      dup9\n      call\n      swap4\n      pop\n      pop\n      pop\n      pop\n      iszero\n      dup1\n      iszero\n      tag_198\n      jumpi\n      returndatasize\n      0x00\n      dup1\n      returndatacopy\n      revert(0x00, returndatasize)\n    tag_198:\n      pop\n      pop\n        /* \"Lottogemeinschaft.sol\":3583:3589  locked */\n      0x0a\n        /* \"Lottogemeinschaft.sol\":3583:3597  locked = false */\n      dup1\n      sload\n      0xffffffffffffffffffffffffffffffffffffffffffffffffffffffffffffff00\n      and\n      swap1\n      sstore\n        /* \"Lottogemeinschaft.sol\":5505:5989  function gewinnAbholen() public restictedToMitspieler nonReentrant {... */\n      jump\t// out\n        /* \"Lottogemeinschaft.sol\":1964:1997  string public spielauftragsNummer */\n    tag_88:\n      0x03\n      dup1\n      sload\n      tag_199\n      swap1\n      tag_200\n      jump\t// in\n    tag_199:\n      dup1\n      0x1f\n      add\n      0x20\n      dup1\n      swap2\n      div\n      mul\n      0x20\n      add\n      mload(0x40)\n      swap1\n      dup2\n      add\n      0x40\n      mstore\n      dup1\n      swap3\n      swap2\n      swap1\n      dup2\n      dup2\n      mstore\n      0x20\n      add\n      dup3\n      dup1\n      sload\n      tag_201\n      swap1\n      tag_200\n      jump\t// in\n    tag_201:\n      dup1\n      iszero\n      tag_202\n      jumpi\n      dup1\n      0x1f\n      lt\n      tag_203\n      jumpi\n      0x0100\n      dup1\n      dup4\n      sload\n      div\n      mul\n      dup4\n      mstore\n      swap2\n      0x20\n      add\n      swap2\n      jump(tag_202)\n    tag_203:\n      dup3\n      add\n      swap2\n      swap1\n      0x00\n      mstore\n      keccak256(0x00, 0x20)\n      swap1\n    tag_204:\n      dup2\n      sload\n      dup2\n      mstore\n      swap1\n      0x01\n      add\n      swap1\n      0x20\n      add\n      dup1\n      dup4\n      gt\n      tag_204\n      jumpi\n      dup3\n      swap1\n      sub\n      0x1f\n      and\n      dup3\n      add\n      swap2\n    tag_202:\n      pop\n      pop\n      pop\n      pop\n      pop\n      dup2\n      jump\t// out\n        /* \"Lottogemeinschaft.sol\":7218:7716  function einsatzZurueckholen() public payable restictedToMitspieler nonReentrant {... */\n    tag_97:\n        /* \"Lottogemeinschaft.sol\":3381:3391  msg.sender */\n      caller\n        /* \"Lottogemeinschaft.sol\":3370:3392  mitspieler[msg.sender] */\n      0x00\n      swap1\n      dup2\n      mstore\n        /* \"Lottogemeinschaft.sol\":3370:3380  mitspieler */\n      0x05\n        /* \"Lottogemeinschaft.sol\":3370:3392  mitspieler[msg.sender] */\n      0x20\n      mstore\n      0x40\n      swap1\n      keccak256\n      sload\n      0xff\n      and\n        /* \"Lottogemeinschaft.sol\":3362:3447  require(mitspieler[msg.sender], \"Nur ein Mitspieler kann diese Funktion ausfuehren.\") */\n      tag_206\n      jumpi\n      mload(0x40)\n      0x08c379a000000000000000000000000000000000000000000000000000000000\n      dup2\n      mstore\n        /* \"#utility.yul\":6651:6653   */\n      0x20\n        /* \"Lottogemeinschaft.sol\":3362:3447  require(mitspieler[msg.sender], \"Nur ein Mitspieler kann diese Funktion ausfuehren.\") */\n      0x04\n      dup3\n      add\n        /* \"#utility.yul\":6633:6654   */\n      mstore\n        /* \"#utility.yul\":6690:6692   */\n      0x32\n        /* \"#utility.yul\":6670:6688   */\n      0x24\n      dup3\n      add\n        /* \"#utility.yul\":6663:6693   */\n      mstore\n        /* \"#utility.yul\":6729:6763   */\n      0x4e75722065696e204d6974737069656c6572206b616e6e206469657365204675\n        /* \"#utility.yul\":6709:6727   */\n      0x44\n      dup3\n      add\n        /* \"#utility.yul\":6702:6764   */\n      mstore\n        /* \"#utility.yul\":6800:6820   */\n      0x6e6b74696f6e206175736675656872656e2e0000000000000000000000000000\n        /* \"#utility.yul\":6780:6798   */\n      0x64\n      dup3\n      add\n        /* \"#utility.yul\":6773:6821   */\n      mstore\n        /* \"#utility.yul\":6838:6857   */\n      0x84\n      add\n        /* \"Lottogemeinschaft.sol\":3362:3447  require(mitspieler[msg.sender], \"Nur ein Mitspieler kann diese Funktion ausfuehren.\") */\n      tag_141\n        /* \"#utility.yul\":6449:6863   */\n      jump\n        /* \"Lottogemeinschaft.sol\":3362:3447  require(mitspieler[msg.sender], \"Nur ein Mitspieler kann diese Funktion ausfuehren.\") */\n    tag_206:\n        /* \"Lottogemeinschaft.sol\":3514:3520  locked */\n      and(0xff, sload(0x0a))\n        /* \"Lottogemeinschaft.sol\":3513:3520  !locked */\n      iszero\n        /* \"Lottogemeinschaft.sol\":3505:3539  require(!locked, \"No re-entrancy\") */\n      tag_209\n      jumpi\n      mload(0x40)\n      0x08c379a000000000000000000000000000000000000000000000000000000000\n      dup2\n      mstore\n        /* \"#utility.yul\":7070:7072   */\n      0x20\n        /* \"Lottogemeinschaft.sol\":3505:3539  require(!locked, \"No re-entrancy\") */\n      0x04\n      dup3\n      add\n        /* \"#utility.yul\":7052:7073   */\n      mstore\n        /* \"#utility.yul\":7109:7111   */\n      0x0e\n        /* \"#utility.yul\":7089:7107   */\n      0x24\n      dup3\n      add\n        /* \"#utility.yul\":7082:7112   */\n      mstore\n        /* \"#utility.yul\":7148:7164   */\n      0x4e6f2072652d656e7472616e6379000000000000000000000000000000000000\n        /* \"#utility.yul\":7128:7146   */\n      0x44\n      dup3\n      add\n        /* \"#utility.yul\":7121:7165   */\n      mstore\n        /* \"#utility.yul\":7182:7200   */\n      0x64\n      add\n        /* \"Lottogemeinschaft.sol\":3505:3539  require(!locked, \"No re-entrancy\") */\n      tag_141\n        /* \"#utility.yul\":6868:7206   */\n      jump\n        /* \"Lottogemeinschaft.sol\":3505:3539  require(!locked, \"No re-entrancy\") */\n    tag_209:\n        /* \"Lottogemeinschaft.sol\":3549:3555  locked */\n      0x0a\n        /* \"Lottogemeinschaft.sol\":3549:3562  locked = true */\n      dup1\n      sload\n      0xffffffffffffffffffffffffffffffffffffffffffffffffffffffffffffff00\n      and\n        /* \"Lottogemeinschaft.sol\":3558:3562  true */\n      0x01\n        /* \"Lottogemeinschaft.sol\":3549:3562  locked = true */\n      or\n      swap1\n      dup2\n      swap1\n      sstore\n      0x0100\n        /* \"Lottogemeinschaft.sol\":7317:7327  aufgeloest */\n      swap1\n      div\n        /* \"Lottogemeinschaft.sol\":3549:3562  locked = true */\n      0xff\n        /* \"Lottogemeinschaft.sol\":7317:7327  aufgeloest */\n      and\n        /* \"Lottogemeinschaft.sol\":7309:7366  require(aufgeloest, \"Gemeinschaft muss aufgeloest sein.\") */\n      tag_212\n      jumpi\n      mload(0x40)\n      0x08c379a000000000000000000000000000000000000000000000000000000000\n      dup2\n      mstore\n        /* \"#utility.yul\":9029:9031   */\n      0x20\n        /* \"Lottogemeinschaft.sol\":7309:7366  require(aufgeloest, \"Gemeinschaft muss aufgeloest sein.\") */\n      0x04\n      dup3\n      add\n        /* \"#utility.yul\":9011:9032   */\n      mstore\n        /* \"#utility.yul\":9068:9070   */\n      0x22\n        /* \"#utility.yul\":9048:9066   */\n      0x24\n      dup3\n      add\n        /* \"#utility.yul\":9041:9071   */\n      mstore\n        /* \"#utility.yul\":9107:9141   */\n      0x47656d65696e736368616674206d7573732061756667656c6f65737420736569\n        /* \"#utility.yul\":9087:9105   */\n      0x44\n      dup3\n      add\n        /* \"#utility.yul\":9080:9142   */\n      mstore\n        /* \"#utility.yul\":9178:9182   */\n      0x6e2e000000000000000000000000000000000000000000000000000000000000\n        /* \"#utility.yul\":9158:9176   */\n      0x64\n      dup3\n      add\n        /* \"#utility.yul\":9151:9183   */\n      mstore\n        /* \"#utility.yul\":9200:9219   */\n      0x84\n      add\n        /* \"Lottogemeinschaft.sol\":7309:7366  require(aufgeloest, \"Gemeinschaft muss aufgeloest sein.\") */\n      tag_141\n        /* \"#utility.yul\":8827:9225   */\n      jump\n        /* \"Lottogemeinschaft.sol\":7309:7366  require(aufgeloest, \"Gemeinschaft muss aufgeloest sein.\") */\n    tag_212:\n        /* \"Lottogemeinschaft.sol\":7407:7417  msg.sender */\n      caller\n        /* \"Lottogemeinschaft.sol\":7385:7418  einsatzZurueckGezahlt[msg.sender] */\n      0x00\n      swap1\n      dup2\n      mstore\n        /* \"Lottogemeinschaft.sol\":7385:7406  einsatzZurueckGezahlt */\n      0x07\n        /* \"Lottogemeinschaft.sol\":7385:7418  einsatzZurueckGezahlt[msg.sender] */\n      0x20\n      mstore\n      0x40\n      swap1\n      keccak256\n      sload\n      0xff\n      and\n        /* \"Lottogemeinschaft.sol\":7384:7418  !einsatzZurueckGezahlt[msg.sender] */\n      iszero\n        /* \"Lottogemeinschaft.sol\":7376:7460  require(!einsatzZurueckGezahlt[msg.sender], \"Einsatz wurde bereits zurueckgezahlt.\") */\n      tag_215\n      jumpi\n      mload(0x40)\n      0x08c379a000000000000000000000000000000000000000000000000000000000\n      dup2\n      mstore\n        /* \"#utility.yul\":9432:9434   */\n      0x20\n        /* \"Lottogemeinschaft.sol\":7376:7460  require(!einsatzZurueckGezahlt[msg.sender], \"Einsatz wurde bereits zurueckgezahlt.\") */\n      0x04\n      dup3\n      add\n        /* \"#utility.yul\":9414:9435   */\n      mstore\n        /* \"#utility.yul\":9471:9473   */\n      0x25\n        /* \"#utility.yul\":9451:9469   */\n      0x24\n      dup3\n      add\n        /* \"#utility.yul\":9444:9474   */\n      mstore\n        /* \"#utility.yul\":9510:9544   */\n      0x45696e7361747a2077757264652062657265697473207a75727565636b67657a\n        /* \"#utility.yul\":9490:9508   */\n      0x44\n      dup3\n      add\n        /* \"#utility.yul\":9483:9545   */\n      mstore\n        /* \"#utility.yul\":9581:9588   */\n      0x61686c742e000000000000000000000000000000000000000000000000000000\n        /* \"#utility.yul\":9561:9579   */\n      0x64\n      dup3\n      add\n        /* \"#utility.yul\":9554:9589   */\n      mstore\n        /* \"#utility.yul\":9606:9625   */\n      0x84\n      add\n        /* \"Lottogemeinschaft.sol\":7376:7460  require(!einsatzZurueckGezahlt[msg.sender], \"Einsatz wurde bereits zurueckgezahlt.\") */\n      tag_141\n        /* \"#utility.yul\":9230:9631   */\n      jump\n        /* \"Lottogemeinschaft.sol\":7376:7460  require(!einsatzZurueckGezahlt[msg.sender], \"Einsatz wurde bereits zurueckgezahlt.\") */\n    tag_215:\n        /* \"Lottogemeinschaft.sol\":7493:7503  msg.sender */\n      caller\n        /* \"Lottogemeinschaft.sol\":7471:7504  einsatzZurueckGezahlt[msg.sender] */\n      0x00\n      dup2\n      dup2\n      mstore\n        /* \"Lottogemeinschaft.sol\":7471:7492  einsatzZurueckGezahlt */\n      0x07\n        /* \"Lottogemeinschaft.sol\":7471:7504  einsatzZurueckGezahlt[msg.sender] */\n      0x20\n      mstore\n      0x40\n      dup1\n      dup3\n      keccak256\n        /* \"Lottogemeinschaft.sol\":7471:7511  einsatzZurueckGezahlt[msg.sender] = true */\n      dup1\n      sload\n        /* \"Lottogemeinschaft.sol\":7507:7511  true */\n      0x01\n        /* \"Lottogemeinschaft.sol\":7471:7511  einsatzZurueckGezahlt[msg.sender] = true */\n      0xffffffffffffffffffffffffffffffffffffffffffffffffffffffffffffff00\n      swap1\n      swap2\n      and\n      or\n      swap1\n      sstore\n        /* \"Lottogemeinschaft.sol\":7549:7567  preisProMitspieler */\n      sload(0x02)\n        /* \"Lottogemeinschaft.sol\":7593:7640  msg.sender.call{value: rueckzahlungsbetrag}(\"\") */\n      swap1\n      mload\n        /* \"Lottogemeinschaft.sol\":7549:7567  preisProMitspieler */\n      0x010000000000000000000000000000\n      swap1\n      swap2\n      div\n      0xffffffffffffffffffffffff\n      and\n      swap3\n        /* \"Lottogemeinschaft.sol\":7493:7503  msg.sender */\n      swap1\n        /* \"Lottogemeinschaft.sol\":7549:7567  preisProMitspieler */\n      dup4\n      swap1\n        /* \"Lottogemeinschaft.sol\":7471:7504  einsatzZurueckGezahlt[msg.sender] */\n      dup4\n        /* \"Lottogemeinschaft.sol\":7593:7640  msg.sender.call{value: rueckzahlungsbetrag}(\"\") */\n      dup2\n        /* \"Lottogemeinschaft.sol\":7471:7504  einsatzZurueckGezahlt[msg.sender] */\n      dup2\n        /* \"Lottogemeinschaft.sol\":7593:7640  msg.sender.call{value: rueckzahlungsbetrag}(\"\") */\n      dup2\n        /* \"Lottogemeinschaft.sol\":7549:7567  preisProMitspieler */\n      dup6\n        /* \"Lottogemeinschaft.sol\":7493:7503  msg.sender */\n      dup8\n        /* \"Lottogemeinschaft.sol\":7593:7640  msg.sender.call{value: rueckzahlungsbetrag}(\"\") */\n      gas\n      call\n      swap3\n      pop\n      pop\n      pop\n      returndatasize\n      dup1\n      0x00\n      dup2\n      eq\n      tag_222\n      jumpi\n      mload(0x40)\n      swap2\n      pop\n      and(add(returndatasize, 0x3f), not(0x1f))\n      dup3\n      add\n      0x40\n      mstore\n      returndatasize\n      dup3\n      mstore\n      returndatasize\n      0x00\n      0x20\n      dup5\n      add\n      returndatacopy\n      jump(tag_221)\n    tag_222:\n      0x60\n      swap2\n      pop\n    tag_221:\n      pop\n        /* \"Lottogemeinschaft.sol\":7577:7640  (bool sent, ) = msg.sender.call{value: rueckzahlungsbetrag}(\"\") */\n      pop\n      swap1\n      pop\n        /* \"Lottogemeinschaft.sol\":7658:7662  sent */\n      dup1\n        /* \"Lottogemeinschaft.sol\":7650:7709  require(sent, \"Rueckzahlung des Einsatzes fehlgeschlagen.\") */\n      tag_198\n      jumpi\n      mload(0x40)\n      0x08c379a000000000000000000000000000000000000000000000000000000000\n      dup2\n      mstore\n        /* \"#utility.yul\":10048:10050   */\n      0x20\n        /* \"Lottogemeinschaft.sol\":7650:7709  require(sent, \"Rueckzahlung des Einsatzes fehlgeschlagen.\") */\n      0x04\n      dup3\n      add\n        /* \"#utility.yul\":10030:10051   */\n      mstore\n        /* \"#utility.yul\":10087:10089   */\n      0x2a\n        /* \"#utility.yul\":10067:10085   */\n      0x24\n      dup3\n      add\n        /* \"#utility.yul\":10060:10090   */\n      mstore\n        /* \"#utility.yul\":10126:10160   */\n      0x527565636b7a61686c756e67206465732045696e7361747a6573206665686c67\n        /* \"#utility.yul\":10106:10124   */\n      0x44\n      dup3\n      add\n        /* \"#utility.yul\":10099:10161   */\n      mstore\n        /* \"#utility.yul\":10197:10209   */\n      0x657363686c6167656e2e00000000000000000000000000000000000000000000\n        /* \"#utility.yul\":10177:10195   */\n      0x64\n      dup3\n      add\n        /* \"#utility.yul\":10170:10210   */\n      mstore\n        /* \"#utility.yul\":10227:10246   */\n      0x84\n      add\n        /* \"Lottogemeinschaft.sol\":7650:7709  require(sent, \"Rueckzahlung des Einsatzes fehlgeschlagen.\") */\n      tag_141\n        /* \"#utility.yul\":9846:10252   */\n      jump\n        /* \"Lottogemeinschaft.sol\":6905:7162  function gemeinschaftAufloesen() public restictedToGruender {... */\n    tag_100:\n        /* \"Lottogemeinschaft.sol\":3235:3243  gruender */\n      and(0xffffffffffffffffffffffffffffffffffffffff, sload(0x00))\n        /* \"Lottogemeinschaft.sol\":3221:3231  msg.sender */\n      caller\n        /* \"Lottogemeinschaft.sol\":3221:3243  msg.sender == gruender */\n      eq\n        /* \"Lottogemeinschaft.sol\":3213:3296  require(msg.sender == gruender, \"Nur der Gruender kann diese Funktion ausfuehren.\") */\n      tag_227\n      jumpi\n      mload(0x40)\n      0x08c379a000000000000000000000000000000000000000000000000000000000\n      dup2\n      mstore\n        /* \"#utility.yul\":3015:3017   */\n      0x20\n        /* \"Lottogemeinschaft.sol\":3213:3296  require(msg.sender == gruender, \"Nur der Gruender kann diese Funktion ausfuehren.\") */\n      0x04\n      dup3\n      add\n        /* \"#utility.yul\":2997:3018   */\n      mstore\n        /* \"#utility.yul\":3054:3056   */\n      0x30\n        /* \"#utility.yul\":3034:3052   */\n      0x24\n      dup3\n      add\n        /* \"#utility.yul\":3027:3057   */\n      mstore\n        /* \"#utility.yul\":3093:3127   */\n      0x4e75722064657220477275656e646572206b616e6e2064696573652046756e6b\n        /* \"#utility.yul\":3073:3091   */\n      0x44\n      dup3\n      add\n        /* \"#utility.yul\":3066:3128   */\n      mstore\n        /* \"#utility.yul\":3164:3182   */\n      0x74696f6e206175736675656872656e2e00000000000000000000000000000000\n        /* \"#utility.yul\":3144:3162   */\n      0x64\n      dup3\n      add\n        /* \"#utility.yul\":3137:3183   */\n      mstore\n        /* \"#utility.yul\":3200:3219   */\n      0x84\n      add\n        /* \"Lottogemeinschaft.sol\":3213:3296  require(msg.sender == gruender, \"Nur der Gruender kann diese Funktion ausfuehren.\") */\n      tag_141\n        /* \"#utility.yul\":2813:3225   */\n      jump\n        /* \"Lottogemeinschaft.sol\":3213:3296  require(msg.sender == gruender, \"Nur der Gruender kann diese Funktion ausfuehren.\") */\n    tag_227:\n        /* \"Lottogemeinschaft.sol\":6983:7007  gewinnKannAbgeholtWerden */\n      sload(0x08)\n      0x010000000000000000\n      swap1\n      div\n      0xff\n      and\n        /* \"Lottogemeinschaft.sol\":6983:7016  gewinnKannAbgeholtWerden == false */\n      iszero\n        /* \"Lottogemeinschaft.sol\":6975:7055  require(gewinnKannAbgeholtWerden == false, \"Gewinn muss noch ausgezahlt werden\") */\n      tag_230\n      jumpi\n      mload(0x40)\n      0x08c379a000000000000000000000000000000000000000000000000000000000\n      dup2\n      mstore\n        /* \"#utility.yul\":10459:10461   */\n      0x20\n        /* \"Lottogemeinschaft.sol\":6975:7055  require(gewinnKannAbgeholtWerden == false, \"Gewinn muss noch ausgezahlt werden\") */\n      0x04\n      dup3\n      add\n        /* \"#utility.yul\":10441:10462   */\n      mstore\n        /* \"#utility.yul\":10498:10500   */\n      0x22\n        /* \"#utility.yul\":10478:10496   */\n      0x24\n      dup3\n      add\n        /* \"#utility.yul\":10471:10501   */\n      mstore\n        /* \"#utility.yul\":10537:10571   */\n      0x476577696e6e206d757373206e6f63682061757367657a61686c742077657264\n        /* \"#utility.yul\":10517:10535   */\n      0x44\n      dup3\n      add\n        /* \"#utility.yul\":10510:10572   */\n      mstore\n        /* \"#utility.yul\":10608:10612   */\n      0x656e000000000000000000000000000000000000000000000000000000000000\n        /* \"#utility.yul\":10588:10606   */\n      0x64\n      dup3\n      add\n        /* \"#utility.yul\":10581:10613   */\n      mstore\n        /* \"#utility.yul\":10630:10649   */\n      0x84\n      add\n        /* \"Lottogemeinschaft.sol\":6975:7055  require(gewinnKannAbgeholtWerden == false, \"Gewinn muss noch ausgezahlt werden\") */\n      tag_141\n        /* \"#utility.yul\":10257:10655   */\n      jump\n        /* \"Lottogemeinschaft.sol\":6975:7055  require(gewinnKannAbgeholtWerden == false, \"Gewinn muss noch ausgezahlt werden\") */\n    tag_230:\n        /* \"Lottogemeinschaft.sol\":7073:7083  aufgeloest */\n      sload(0x0a)\n      0x0100\n      swap1\n      div\n      0xff\n      and\n        /* \"Lottogemeinschaft.sol\":7073:7092  aufgeloest == false */\n      iszero\n        /* \"Lottogemeinschaft.sol\":7065:7128  require(aufgeloest == false, \"Gemeinschaft bereits aufgeloest\") */\n      tag_233\n      jumpi\n      mload(0x40)\n      0x08c379a000000000000000000000000000000000000000000000000000000000\n      dup2\n      mstore\n        /* \"#utility.yul\":10862:10864   */\n      0x20\n        /* \"Lottogemeinschaft.sol\":7065:7128  require(aufgeloest == false, \"Gemeinschaft bereits aufgeloest\") */\n      0x04\n      dup3\n      add\n        /* \"#utility.yul\":10844:10865   */\n      mstore\n        /* \"#utility.yul\":10901:10903   */\n      0x1f\n        /* \"#utility.yul\":10881:10899   */\n      0x24\n      dup3\n      add\n        /* \"#utility.yul\":10874:10904   */\n      mstore\n        /* \"#utility.yul\":10940:10973   */\n      0x47656d65696e73636861667420626572656974732061756667656c6f65737400\n        /* \"#utility.yul\":10920:10938   */\n      0x44\n      dup3\n      add\n        /* \"#utility.yul\":10913:10974   */\n      mstore\n        /* \"#utility.yul\":10991:11009   */\n      0x64\n      add\n        /* \"Lottogemeinschaft.sol\":7065:7128  require(aufgeloest == false, \"Gemeinschaft bereits aufgeloest\") */\n      tag_141\n        /* \"#utility.yul\":10660:11015   */\n      jump\n        /* \"Lottogemeinschaft.sol\":7065:7128  require(aufgeloest == false, \"Gemeinschaft bereits aufgeloest\") */\n    tag_233:\n        /* \"Lottogemeinschaft.sol\":7138:7148  aufgeloest */\n      0x0a\n        /* \"Lottogemeinschaft.sol\":7138:7155  aufgeloest = true */\n      dup1\n      sload\n      0xffffffffffffffffffffffffffffffffffffffffffffffffffffffffffff00ff\n      and\n      0x0100\n      or\n      swap1\n      sstore\n        /* \"Lottogemeinschaft.sol\":6905:7162  function gemeinschaftAufloesen() public restictedToGruender {... */\n      jump\t// out\n        /* \"Lottogemeinschaft.sol\":4799:5457  function gewinnEinzahlen(uint48 gewinn) public payable restictedToGruender {... */\n    tag_118:\n        /* \"Lottogemeinschaft.sol\":3235:3243  gruender */\n      and(0xffffffffffffffffffffffffffffffffffffffff, sload(0x00))\n        /* \"Lottogemeinschaft.sol\":3221:3231  msg.sender */\n      caller\n        /* \"Lottogemeinschaft.sol\":3221:3243  msg.sender == gruender */\n      eq\n        /* \"Lottogemeinschaft.sol\":3213:3296  require(msg.sender == gruender, \"Nur der Gruender kann diese Funktion ausfuehren.\") */\n      tag_237\n      jumpi\n      mload(0x40)\n      0x08c379a000000000000000000000000000000000000000000000000000000000\n      dup2\n      mstore\n        /* \"#utility.yul\":3015:3017   */\n      0x20\n        /* \"Lottogemeinschaft.sol\":3213:3296  require(msg.sender == gruender, \"Nur der Gruender kann diese Funktion ausfuehren.\") */\n      0x04\n      dup3\n      add\n        /* \"#utility.yul\":2997:3018   */\n      mstore\n        /* \"#utility.yul\":3054:3056   */\n      0x30\n        /* \"#utility.yul\":3034:3052   */\n      0x24\n      dup3\n      add\n        /* \"#utility.yul\":3027:3057   */\n      mstore\n        /* \"#utility.yul\":3093:3127   */\n      0x4e75722064657220477275656e646572206b616e6e2064696573652046756e6b\n        /* \"#utility.yul\":3073:3091   */\n      0x44\n      dup3\n      add\n        /* \"#utility.yul\":3066:3128   */\n      mstore\n        /* \"#utility.yul\":3164:3182   */\n      0x74696f6e206175736675656872656e2e00000000000000000000000000000000\n        /* \"#utility.yul\":3144:3162   */\n      0x64\n      dup3\n      add\n        /* \"#utility.yul\":3137:3183   */\n      mstore\n        /* \"#utility.yul\":3200:3219   */\n      0x84\n      add\n        /* \"Lottogemeinschaft.sol\":3213:3296  require(msg.sender == gruender, \"Nur der Gruender kann diese Funktion ausfuehren.\") */\n      tag_141\n        /* \"#utility.yul\":2813:3225   */\n      jump\n        /* \"Lottogemeinschaft.sol\":3213:3296  require(msg.sender == gruender, \"Nur der Gruender kann diese Funktion ausfuehren.\") */\n    tag_237:\n        /* \"Lottogemeinschaft.sol\":4990:4991  0 */\n      0x00\n        /* \"Lottogemeinschaft.sol\":4978:4987  msg.value */\n      callvalue\n        /* \"Lottogemeinschaft.sol\":4978:4991  msg.value > 0 */\n      gt\n        /* \"Lottogemeinschaft.sol\":4970:5038  require(msg.value > 0, \"Einzahlungsbetrag muss groesser als 0 sein\") */\n      tag_240\n      jumpi\n      mload(0x40)\n      0x08c379a000000000000000000000000000000000000000000000000000000000\n      dup2\n      mstore\n        /* \"#utility.yul\":11222:11224   */\n      0x20\n        /* \"Lottogemeinschaft.sol\":4970:5038  require(msg.value > 0, \"Einzahlungsbetrag muss groesser als 0 sein\") */\n      0x04\n      dup3\n      add\n        /* \"#utility.yul\":11204:11225   */\n      mstore\n        /* \"#utility.yul\":11261:11263   */\n      0x2a\n        /* \"#utility.yul\":11241:11259   */\n      0x24\n      dup3\n      add\n        /* \"#utility.yul\":11234:11264   */\n      mstore\n        /* \"#utility.yul\":11300:11334   */\n      0x45696e7a61686c756e6773626574726167206d7573732067726f657373657220\n        /* \"#utility.yul\":11280:11298   */\n      0x44\n      dup3\n      add\n        /* \"#utility.yul\":11273:11335   */\n      mstore\n        /* \"#utility.yul\":11371:11383   */\n      0x616c732030207365696e00000000000000000000000000000000000000000000\n        /* \"#utility.yul\":11351:11369   */\n      0x64\n      dup3\n      add\n        /* \"#utility.yul\":11344:11384   */\n      mstore\n        /* \"#utility.yul\":11401:11420   */\n      0x84\n      add\n        /* \"Lottogemeinschaft.sol\":4970:5038  require(msg.value > 0, \"Einzahlungsbetrag muss groesser als 0 sein\") */\n      tag_141\n        /* \"#utility.yul\":11020:11426   */\n      jump\n        /* \"Lottogemeinschaft.sol\":4970:5038  require(msg.value > 0, \"Einzahlungsbetrag muss groesser als 0 sein\") */\n    tag_240:\n        /* \"Lottogemeinschaft.sol\":5056:5075  gewinnProMitspieler */\n      sload(0x08)\n      0x010000\n      swap1\n      div\n      0xffffffffffff\n      and\n        /* \"Lottogemeinschaft.sol\":5056:5078  gewinnProMitspieler==0 */\n      iszero\n        /* \"Lottogemeinschaft.sol\":5048:5115  require(gewinnProMitspieler==0, \"Gewinn wurde bereits eingezahlt.\") */\n      tag_243\n      jumpi\n      mload(0x40)\n      0x08c379a000000000000000000000000000000000000000000000000000000000\n      dup2\n      mstore\n        /* \"#utility.yul\":11633:11635   */\n      0x20\n        /* \"Lottogemeinschaft.sol\":5048:5115  require(gewinnProMitspieler==0, \"Gewinn wurde bereits eingezahlt.\") */\n      0x04\n      dup3\n      add\n        /* \"#utility.yul\":11615:11636   */\n      dup2\n      swap1\n      mstore\n        /* \"#utility.yul\":11652:11670   */\n      0x24\n      dup3\n      add\n        /* \"#utility.yul\":11645:11675   */\n      mstore\n        /* \"#utility.yul\":11711:11745   */\n      0x476577696e6e20777572646520626572656974732065696e67657a61686c742e\n        /* \"#utility.yul\":11691:11709   */\n      0x44\n      dup3\n      add\n        /* \"#utility.yul\":11684:11746   */\n      mstore\n        /* \"#utility.yul\":11763:11781   */\n      0x64\n      add\n        /* \"Lottogemeinschaft.sol\":5048:5115  require(gewinnProMitspieler==0, \"Gewinn wurde bereits eingezahlt.\") */\n      tag_141\n        /* \"#utility.yul\":11431:11787   */\n      jump\n        /* \"Lottogemeinschaft.sol\":5048:5115  require(gewinnProMitspieler==0, \"Gewinn wurde bereits eingezahlt.\") */\n    tag_243:\n        /* \"Lottogemeinschaft.sol\":5385:5408  anzahlTeilnehmerAktuell */\n      sload(0x08)\n        /* \"Lottogemeinschaft.sol\":5376:5408  gewinn / anzahlTeilnehmerAktuell */\n      tag_246\n      swap1\n        /* \"Lottogemeinschaft.sol\":5385:5408  anzahlTeilnehmerAktuell */\n      0xffff\n      and\n        /* \"Lottogemeinschaft.sol\":5376:5382  gewinn */\n      dup3\n        /* \"Lottogemeinschaft.sol\":5376:5408  gewinn / anzahlTeilnehmerAktuell */\n      tag_247\n      jump\t// in\n    tag_246:\n        /* \"Lottogemeinschaft.sol\":5354:5373  gewinnProMitspieler */\n      0x08\n        /* \"Lottogemeinschaft.sol\":5354:5408  gewinnProMitspieler = gewinn / anzahlTeilnehmerAktuell */\n      dup1\n      sload\n        /* \"Lottogemeinschaft.sol\":5418:5449  gewinnKannAbgeholtWerden = true */\n      0xffffffffffffffffffffffffffffffffffffffffffffff00ffffffffffffffff\n        /* \"Lottogemeinschaft.sol\":5354:5408  gewinnProMitspieler = gewinn / anzahlTeilnehmerAktuell */\n      0xffffffffffff\n      swap4\n      swap1\n      swap4\n      and\n      0x010000\n      mul\n        /* \"Lottogemeinschaft.sol\":5418:5449  gewinnKannAbgeholtWerden = true */\n      swap3\n      swap1\n      swap3\n      and\n      0xffffffffffffffffffffffffffffffffffffffffffffff00000000000000ffff\n      swap1\n      swap3\n      and\n      swap2\n      swap1\n      swap2\n      or\n      0x010000000000000000\n      or\n      swap1\n      sstore\n      pop\n        /* \"Lottogemeinschaft.sol\":4799:5457  function gewinnEinzahlen(uint48 gewinn) public payable restictedToGruender {... */\n      jump\t// out\n        /* \"Lottogemeinschaft.sol\":4456:4750  function einsatzAbholen() public payable nonReentrant restictedToGruender{... */\n    tag_120:\n        /* \"Lottogemeinschaft.sol\":3514:3520  locked */\n      and(0xff, sload(0x0a))\n        /* \"Lottogemeinschaft.sol\":3513:3520  !locked */\n      iszero\n        /* \"Lottogemeinschaft.sol\":3505:3539  require(!locked, \"No re-entrancy\") */\n      tag_249\n      jumpi\n      mload(0x40)\n      0x08c379a000000000000000000000000000000000000000000000000000000000\n      dup2\n      mstore\n        /* \"#utility.yul\":7070:7072   */\n      0x20\n        /* \"Lottogemeinschaft.sol\":3505:3539  require(!locked, \"No re-entrancy\") */\n      0x04\n      dup3\n      add\n        /* \"#utility.yul\":7052:7073   */\n      mstore\n        /* \"#utility.yul\":7109:7111   */\n      0x0e\n        /* \"#utility.yul\":7089:7107   */\n      0x24\n      dup3\n      add\n        /* \"#utility.yul\":7082:7112   */\n      mstore\n        /* \"#utility.yul\":7148:7164   */\n      0x4e6f2072652d656e7472616e6379000000000000000000000000000000000000\n        /* \"#utility.yul\":7128:7146   */\n      0x44\n      dup3\n      add\n        /* \"#utility.yul\":7121:7165   */\n      mstore\n        /* \"#utility.yul\":7182:7200   */\n      0x64\n      add\n        /* \"Lottogemeinschaft.sol\":3505:3539  require(!locked, \"No re-entrancy\") */\n      tag_141\n        /* \"#utility.yul\":6868:7206   */\n      jump\n        /* \"Lottogemeinschaft.sol\":3505:3539  require(!locked, \"No re-entrancy\") */\n    tag_249:\n        /* \"Lottogemeinschaft.sol\":3549:3555  locked */\n      0x0a\n        /* \"Lottogemeinschaft.sol\":3549:3562  locked = true */\n      dup1\n      sload\n      0xffffffffffffffffffffffffffffffffffffffffffffffffffffffffffffff00\n      and\n        /* \"Lottogemeinschaft.sol\":3558:3562  true */\n      0x01\n        /* \"Lottogemeinschaft.sol\":3549:3562  locked = true */\n      or\n      swap1\n      sstore\n        /* \"Lottogemeinschaft.sol\":3549:3555  locked */\n      0x00\n        /* \"Lottogemeinschaft.sol\":3235:3243  gruender */\n      sload\n        /* \"Lottogemeinschaft.sol\":3221:3231  msg.sender */\n      caller\n        /* \"Lottogemeinschaft.sol\":3235:3243  gruender */\n      0xffffffffffffffffffffffffffffffffffffffff\n      swap1\n      swap2\n      and\n        /* \"Lottogemeinschaft.sol\":3221:3243  msg.sender == gruender */\n      eq\n        /* \"Lottogemeinschaft.sol\":3213:3296  require(msg.sender == gruender, \"Nur der Gruender kann diese Funktion ausfuehren.\") */\n      tag_252\n      jumpi\n      mload(0x40)\n      0x08c379a000000000000000000000000000000000000000000000000000000000\n      dup2\n      mstore\n        /* \"#utility.yul\":3015:3017   */\n      0x20\n        /* \"Lottogemeinschaft.sol\":3213:3296  require(msg.sender == gruender, \"Nur der Gruender kann diese Funktion ausfuehren.\") */\n      0x04\n      dup3\n      add\n        /* \"#utility.yul\":2997:3018   */\n      mstore\n        /* \"#utility.yul\":3054:3056   */\n      0x30\n        /* \"#utility.yul\":3034:3052   */\n      0x24\n      dup3\n      add\n        /* \"#utility.yul\":3027:3057   */\n      mstore\n        /* \"#utility.yul\":3093:3127   */\n      0x4e75722064657220477275656e646572206b616e6e2064696573652046756e6b\n        /* \"#utility.yul\":3073:3091   */\n      0x44\n      dup3\n      add\n        /* \"#utility.yul\":3066:3128   */\n      mstore\n        /* \"#utility.yul\":3164:3182   */\n      0x74696f6e206175736675656872656e2e00000000000000000000000000000000\n        /* \"#utility.yul\":3144:3162   */\n      0x64\n      dup3\n      add\n        /* \"#utility.yul\":3137:3183   */\n      mstore\n        /* \"#utility.yul\":3200:3219   */\n      0x84\n      add\n        /* \"Lottogemeinschaft.sol\":3213:3296  require(msg.sender == gruender, \"Nur der Gruender kann diese Funktion ausfuehren.\") */\n      tag_141\n        /* \"#utility.yul\":2813:3225   */\n      jump\n        /* \"Lottogemeinschaft.sol\":3213:3296  require(msg.sender == gruender, \"Nur der Gruender kann diese Funktion ausfuehren.\") */\n    tag_252:\n        /* \"Lottogemeinschaft.sol\":4548:4572  gewinnKannAbgeholtWerden */\n      sload(0x08)\n      0x010000000000000000\n      swap1\n      div\n      0xff\n      and\n        /* \"Lottogemeinschaft.sol\":4547:4572  !gewinnKannAbgeholtWerden */\n      iszero\n        /* \"Lottogemeinschaft.sol\":4539:4633  require(!gewinnKannAbgeholtWerden, \"Gewinn wurde bereits eingezahlt und kann abgeholt werden\") */\n      tag_255\n      jumpi\n      mload(0x40)\n      0x08c379a000000000000000000000000000000000000000000000000000000000\n      dup2\n      mstore\n        /* \"#utility.yul\":12348:12350   */\n      0x20\n        /* \"Lottogemeinschaft.sol\":4539:4633  require(!gewinnKannAbgeholtWerden, \"Gewinn wurde bereits eingezahlt und kann abgeholt werden\") */\n      0x04\n      dup3\n      add\n        /* \"#utility.yul\":12330:12351   */\n      mstore\n        /* \"#utility.yul\":12387:12389   */\n      0x38\n        /* \"#utility.yul\":12367:12385   */\n      0x24\n      dup3\n      add\n        /* \"#utility.yul\":12360:12390   */\n      mstore\n        /* \"#utility.yul\":12426:12460   */\n      0x476577696e6e20777572646520626572656974732065696e67657a61686c7420\n        /* \"#utility.yul\":12406:12424   */\n      0x44\n      dup3\n      add\n        /* \"#utility.yul\":12399:12461   */\n      mstore\n        /* \"#utility.yul\":12497:12523   */\n      0x756e64206b616e6e2061626765686f6c742077657264656e0000000000000000\n        /* \"#utility.yul\":12477:12495   */\n      0x64\n      dup3\n      add\n        /* \"#utility.yul\":12470:12524   */\n      mstore\n        /* \"#utility.yul\":12541:12560   */\n      0x84\n      add\n        /* \"Lottogemeinschaft.sol\":4539:4633  require(!gewinnKannAbgeholtWerden, \"Gewinn wurde bereits eingezahlt und kann abgeholt werden\") */\n      tag_141\n        /* \"#utility.yul\":12146:12566   */\n      jump\n        /* \"Lottogemeinschaft.sol\":4539:4633  require(!gewinnKannAbgeholtWerden, \"Gewinn wurde bereits eingezahlt und kann abgeholt werden\") */\n    tag_255:\n        /* \"Lottogemeinschaft.sol\":4643:4666  uint256 contractBalance */\n      0x00\n        /* \"Lottogemeinschaft.sol\":4708:4716  gruender */\n      dup1\n      sload\n        /* \"Lottogemeinschaft.sol\":4700:4743  payable(gruender).transfer(contractBalance) */\n      mload(0x40)\n        /* \"Lottogemeinschaft.sol\":4669:4690  address(this).balance */\n      selfbalance\n      swap3\n        /* \"Lottogemeinschaft.sol\":4708:4716  gruender */\n      0xffffffffffffffffffffffffffffffffffffffff\n      swap1\n      swap3\n      and\n      swap2\n        /* \"Lottogemeinschaft.sol\":4700:4743  payable(gruender).transfer(contractBalance) */\n      dup4\n      iszero\n      0x08fc\n      mul\n      swap2\n        /* \"Lottogemeinschaft.sol\":4669:4690  address(this).balance */\n      dup5\n      swap2\n        /* \"Lottogemeinschaft.sol\":4700:4743  payable(gruender).transfer(contractBalance) */\n      dup2\n        /* \"Lottogemeinschaft.sol\":4643:4666  uint256 contractBalance */\n      dup2\n        /* \"Lottogemeinschaft.sol\":4700:4743  payable(gruender).transfer(contractBalance) */\n      dup2\n        /* \"Lottogemeinschaft.sol\":4669:4690  address(this).balance */\n      dup6\n        /* \"Lottogemeinschaft.sol\":4708:4716  gruender */\n      dup9\n        /* \"Lottogemeinschaft.sol\":4700:4743  payable(gruender).transfer(contractBalance) */\n      dup9\n      call\n      swap4\n      pop\n      pop\n      pop\n      pop\n      iszero\n      dup1\n      iszero\n      tag_198\n      jumpi\n      returndatasize\n      0x00\n      dup1\n      returndatacopy\n      revert(0x00, returndatasize)\n        /* \"Lottogemeinschaft.sol\":1810:1845  string public tippgemeinschaftsName */\n    tag_123:\n      0x01\n      dup1\n      sload\n      tag_199\n      swap1\n      tag_200\n      jump\t// in\n        /* \"Lottogemeinschaft.sol\":6238:6524  function anzahlMitspielerAendern(uint16 neueAnzahlMaxTeilnehmer) public restictedToGruender{... */\n    tag_129:\n        /* \"Lottogemeinschaft.sol\":3235:3243  gruender */\n      and(0xffffffffffffffffffffffffffffffffffffffff, sload(0x00))\n        /* \"Lottogemeinschaft.sol\":3221:3231  msg.sender */\n      caller\n        /* \"Lottogemeinschaft.sol\":3221:3243  msg.sender == gruender */\n      eq\n        /* \"Lottogemeinschaft.sol\":3213:3296  require(msg.sender == gruender, \"Nur der Gruender kann diese Funktion ausfuehren.\") */\n      tag_266\n      jumpi\n      mload(0x40)\n      0x08c379a000000000000000000000000000000000000000000000000000000000\n      dup2\n      mstore\n        /* \"#utility.yul\":3015:3017   */\n      0x20\n        /* \"Lottogemeinschaft.sol\":3213:3296  require(msg.sender == gruender, \"Nur der Gruender kann diese Funktion ausfuehren.\") */\n      0x04\n      dup3\n      add\n        /* \"#utility.yul\":2997:3018   */\n      mstore\n        /* \"#utility.yul\":3054:3056   */\n      0x30\n        /* \"#utility.yul\":3034:3052   */\n      0x24\n      dup3\n      add\n        /* \"#utility.yul\":3027:3057   */\n      mstore\n        /* \"#utility.yul\":3093:3127   */\n      0x4e75722064657220477275656e646572206b616e6e2064696573652046756e6b\n        /* \"#utility.yul\":3073:3091   */\n      0x44\n      dup3\n      add\n        /* \"#utility.yul\":3066:3128   */\n      mstore\n        /* \"#utility.yul\":3164:3182   */\n      0x74696f6e206175736675656872656e2e00000000000000000000000000000000\n        /* \"#utility.yul\":3144:3162   */\n      0x64\n      dup3\n      add\n        /* \"#utility.yul\":3137:3183   */\n      mstore\n        /* \"#utility.yul\":3200:3219   */\n      0x84\n      add\n        /* \"Lottogemeinschaft.sol\":3213:3296  require(msg.sender == gruender, \"Nur der Gruender kann diese Funktion ausfuehren.\") */\n      tag_141\n        /* \"#utility.yul\":2813:3225   */\n      jump\n        /* \"Lottogemeinschaft.sol\":3213:3296  require(msg.sender == gruender, \"Nur der Gruender kann diese Funktion ausfuehren.\") */\n    tag_266:\n        /* \"Lottogemeinschaft.sol\":6347:6370  anzahlTeilnehmerAktuell */\n      and(0xffff, sload(0x08))\n        /* \"Lottogemeinschaft.sol\":6347:6373  anzahlTeilnehmerAktuell==0 */\n      iszero\n        /* \"Lottogemeinschaft.sol\":6339:6462  require(anzahlTeilnehmerAktuell==0, \"Es gibt bereits Mitspieler. Aenderung der Anzahl an Mitspielern nicht mehr moeglich.\") */\n      tag_269\n      jumpi\n      mload(0x40)\n      0x08c379a000000000000000000000000000000000000000000000000000000000\n      dup2\n      mstore\n        /* \"#utility.yul\":12773:12775   */\n      0x20\n        /* \"Lottogemeinschaft.sol\":6339:6462  require(anzahlTeilnehmerAktuell==0, \"Es gibt bereits Mitspieler. Aenderung der Anzahl an Mitspielern nicht mehr moeglich.\") */\n      0x04\n      dup3\n      add\n        /* \"#utility.yul\":12755:12776   */\n      mstore\n        /* \"#utility.yul\":12812:12814   */\n      0x54\n        /* \"#utility.yul\":12792:12810   */\n      0x24\n      dup3\n      add\n        /* \"#utility.yul\":12785:12815   */\n      mstore\n        /* \"#utility.yul\":12851:12885   */\n      0x457320676962742062657265697473204d6974737069656c65722e2041656e64\n        /* \"#utility.yul\":12831:12849   */\n      0x44\n      dup3\n      add\n        /* \"#utility.yul\":12824:12886   */\n      mstore\n        /* \"#utility.yul\":12922:12956   */\n      0x6572756e672064657220416e7a61686c20616e204d6974737069656c65726e20\n        /* \"#utility.yul\":12902:12920   */\n      0x64\n      dup3\n      add\n        /* \"#utility.yul\":12895:12957   */\n      mstore\n        /* \"#utility.yul\":12994:13016   */\n      0x6e69636874206d656872206d6f65676c6963682e000000000000000000000000\n        /* \"#utility.yul\":12973:12992   */\n      0x84\n      dup3\n      add\n        /* \"#utility.yul\":12966:13017   */\n      mstore\n        /* \"#utility.yul\":13034:13053   */\n      0xa4\n      add\n        /* \"Lottogemeinschaft.sol\":6339:6462  require(anzahlTeilnehmerAktuell==0, \"Es gibt bereits Mitspieler. Aenderung der Anzahl an Mitspielern nicht mehr moeglich.\") */\n      tag_141\n        /* \"#utility.yul\":12571:13059   */\n      jump\n        /* \"Lottogemeinschaft.sol\":6339:6462  require(anzahlTeilnehmerAktuell==0, \"Es gibt bereits Mitspieler. Aenderung der Anzahl an Mitspielern nicht mehr moeglich.\") */\n    tag_269:\n        /* \"Lottogemeinschaft.sol\":6472:6491  maxTeilnehmerAnzahl */\n      0x02\n        /* \"Lottogemeinschaft.sol\":6472:6517  maxTeilnehmerAnzahl = neueAnzahlMaxTeilnehmer */\n      dup1\n      sload\n      0xffffffffffffffffffffffffffffffffffffffffffffffffffffffffffff0000\n      and\n      0xffff\n      swap3\n      swap1\n      swap3\n      and\n      swap2\n      swap1\n      swap2\n      or\n      swap1\n      sstore\n        /* \"Lottogemeinschaft.sol\":6238:6524  function anzahlMitspielerAendern(uint16 neueAnzahlMaxTeilnehmer) public restictedToGruender{... */\n      jump\t// out\n        /* \"#utility.yul\":620:896   */\n    tag_56:\n        /* \"#utility.yul\":678:684   */\n      0x00\n        /* \"#utility.yul\":731:733   */\n      0x20\n        /* \"#utility.yul\":719:728   */\n      dup3\n        /* \"#utility.yul\":710:717   */\n      dup5\n        /* \"#utility.yul\":706:729   */\n      sub\n        /* \"#utility.yul\":702:734   */\n      slt\n        /* \"#utility.yul\":699:751   */\n      iszero\n      tag_278\n      jumpi\n        /* \"#utility.yul\":747:748   */\n      0x00\n        /* \"#utility.yul\":744:745   */\n      dup1\n        /* \"#utility.yul\":737:749   */\n      revert\n        /* \"#utility.yul\":699:751   */\n    tag_278:\n        /* \"#utility.yul\":786:795   */\n      dup2\n        /* \"#utility.yul\":773:796   */\n      calldataload\n        /* \"#utility.yul\":836:846   */\n      0xffffffff\n        /* \"#utility.yul\":829:834   */\n      dup2\n        /* \"#utility.yul\":825:847   */\n      and\n        /* \"#utility.yul\":818:823   */\n      dup2\n        /* \"#utility.yul\":815:848   */\n      eq\n        /* \"#utility.yul\":805:866   */\n      tag_279\n      jumpi\n        /* \"#utility.yul\":862:863   */\n      0x00\n        /* \"#utility.yul\":859:860   */\n      dup1\n        /* \"#utility.yul\":852:864   */\n      revert\n        /* \"#utility.yul\":805:866   */\n    tag_279:\n        /* \"#utility.yul\":885:890   */\n      swap4\n        /* \"#utility.yul\":620:896   */\n      swap3\n      pop\n      pop\n      pop\n      jump\t// out\n        /* \"#utility.yul\":901:1210   */\n    tag_61:\n        /* \"#utility.yul\":960:966   */\n      0x00\n        /* \"#utility.yul\":1013:1015   */\n      0x20\n        /* \"#utility.yul\":1001:1010   */\n      dup3\n        /* \"#utility.yul\":992:999   */\n      dup5\n        /* \"#utility.yul\":988:1011   */\n      sub\n        /* \"#utility.yul\":984:1016   */\n      slt\n        /* \"#utility.yul\":981:1033   */\n      iszero\n      tag_281\n      jumpi\n        /* \"#utility.yul\":1029:1030   */\n      0x00\n        /* \"#utility.yul\":1026:1027   */\n      dup1\n        /* \"#utility.yul\":1019:1031   */\n      revert\n        /* \"#utility.yul\":981:1033   */\n    tag_281:\n        /* \"#utility.yul\":1068:1077   */\n      dup2\n        /* \"#utility.yul\":1055:1078   */\n      calldataload\n        /* \"#utility.yul\":1118:1160   */\n      0xffffffffffffffffffffffffffffffffffffffff\n        /* \"#utility.yul\":1111:1116   */\n      dup2\n        /* \"#utility.yul\":1107:1161   */\n      and\n        /* \"#utility.yul\":1100:1105   */\n      dup2\n        /* \"#utility.yul\":1097:1162   */\n      eq\n        /* \"#utility.yul\":1087:1180   */\n      tag_279\n      jumpi\n        /* \"#utility.yul\":1176:1177   */\n      0x00\n        /* \"#utility.yul\":1173:1174   */\n      dup1\n        /* \"#utility.yul\":1166:1178   */\n      revert\n        /* \"#utility.yul\":1408:2015   */\n    tag_90:\n        /* \"#utility.yul\":1520:1524   */\n      0x00\n        /* \"#utility.yul\":1549:1551   */\n      0x20\n        /* \"#utility.yul\":1578:1580   */\n      dup1\n        /* \"#utility.yul\":1567:1576   */\n      dup4\n        /* \"#utility.yul\":1560:1581   */\n      mstore\n        /* \"#utility.yul\":1610:1616   */\n      dup4\n        /* \"#utility.yul\":1604:1617   */\n      mload\n        /* \"#utility.yul\":1653:1659   */\n      dup1\n        /* \"#utility.yul\":1648:1650   */\n      0x20\n        /* \"#utility.yul\":1637:1646   */\n      dup6\n        /* \"#utility.yul\":1633:1651   */\n      add\n        /* \"#utility.yul\":1626:1660   */\n      mstore\n        /* \"#utility.yul\":1678:1679   */\n      0x00\n        /* \"#utility.yul\":1688:1828   */\n    tag_285:\n        /* \"#utility.yul\":1702:1708   */\n      dup2\n        /* \"#utility.yul\":1699:1700   */\n      dup2\n        /* \"#utility.yul\":1696:1709   */\n      lt\n        /* \"#utility.yul\":1688:1828   */\n      iszero\n      tag_287\n      jumpi\n        /* \"#utility.yul\":1797:1811   */\n      dup6\n      dup2\n      add\n        /* \"#utility.yul\":1793:1816   */\n      dup4\n      add\n        /* \"#utility.yul\":1787:1817   */\n      mload\n        /* \"#utility.yul\":1763:1780   */\n      dup6\n      dup3\n      add\n        /* \"#utility.yul\":1782:1784   */\n      0x40\n        /* \"#utility.yul\":1759:1785   */\n      add\n        /* \"#utility.yul\":1752:1818   */\n      mstore\n        /* \"#utility.yul\":1717:1727   */\n      dup3\n      add\n        /* \"#utility.yul\":1688:1828   */\n      jump(tag_285)\n    tag_287:\n        /* \"#utility.yul\":1692:1695   */\n      pop\n        /* \"#utility.yul\":1877:1878   */\n      0x00\n        /* \"#utility.yul\":1872:1874   */\n      0x40\n        /* \"#utility.yul\":1863:1869   */\n      dup3\n        /* \"#utility.yul\":1852:1861   */\n      dup7\n        /* \"#utility.yul\":1848:1870   */\n      add\n        /* \"#utility.yul\":1844:1875   */\n      add\n        /* \"#utility.yul\":1837:1879   */\n      mstore\n        /* \"#utility.yul\":2006:2008   */\n      0x40\n        /* \"#utility.yul\":1936:2002   */\n      0xffffffffffffffffffffffffffffffffffffffffffffffffffffffffffffffe0\n        /* \"#utility.yul\":1931:1933   */\n      0x1f\n        /* \"#utility.yul\":1923:1929   */\n      dup4\n        /* \"#utility.yul\":1919:1934   */\n      add\n        /* \"#utility.yul\":1915:2003   */\n      and\n        /* \"#utility.yul\":1904:1913   */\n      dup6\n        /* \"#utility.yul\":1900:2004   */\n      add\n        /* \"#utility.yul\":1896:2009   */\n      add\n        /* \"#utility.yul\":1888:2009   */\n      swap3\n      pop\n      pop\n      pop\n        /* \"#utility.yul\":1408:2015   */\n      swap3\n      swap2\n      pop\n      pop\n      jump\t// out\n        /* \"#utility.yul\":2251:2531   */\n    tag_117:\n        /* \"#utility.yul\":2309:2315   */\n      0x00\n        /* \"#utility.yul\":2362:2364   */\n      0x20\n        /* \"#utility.yul\":2350:2359   */\n      dup3\n        /* \"#utility.yul\":2341:2348   */\n      dup5\n        /* \"#utility.yul\":2337:2360   */\n      sub\n        /* \"#utility.yul\":2333:2365   */\n      slt\n        /* \"#utility.yul\":2330:2382   */\n      iszero\n      tag_290\n      jumpi\n        /* \"#utility.yul\":2378:2379   */\n      0x00\n        /* \"#utility.yul\":2375:2376   */\n      dup1\n        /* \"#utility.yul\":2368:2380   */\n      revert\n        /* \"#utility.yul\":2330:2382   */\n    tag_290:\n        /* \"#utility.yul\":2417:2426   */\n      dup2\n        /* \"#utility.yul\":2404:2427   */\n      calldataload\n        /* \"#utility.yul\":2467:2481   */\n      0xffffffffffff\n        /* \"#utility.yul\":2460:2465   */\n      dup2\n        /* \"#utility.yul\":2456:2482   */\n      and\n        /* \"#utility.yul\":2449:2454   */\n      dup2\n        /* \"#utility.yul\":2446:2483   */\n      eq\n        /* \"#utility.yul\":2436:2501   */\n      tag_279\n      jumpi\n        /* \"#utility.yul\":2497:2498   */\n      0x00\n        /* \"#utility.yul\":2494:2495   */\n      dup1\n        /* \"#utility.yul\":2487:2499   */\n      revert\n        /* \"#utility.yul\":2536:2808   */\n    tag_128:\n        /* \"#utility.yul\":2594:2600   */\n      0x00\n        /* \"#utility.yul\":2647:2649   */\n      0x20\n        /* \"#utility.yul\":2635:2644   */\n      dup3\n        /* \"#utility.yul\":2626:2633   */\n      dup5\n        /* \"#utility.yul\":2622:2645   */\n      sub\n        /* \"#utility.yul\":2618:2650   */\n      slt\n        /* \"#utility.yul\":2615:2667   */\n      iszero\n      tag_293\n      jumpi\n        /* \"#utility.yul\":2663:2664   */\n      0x00\n        /* \"#utility.yul\":2660:2661   */\n      dup1\n        /* \"#utility.yul\":2653:2665   */\n      revert\n        /* \"#utility.yul\":2615:2667   */\n    tag_293:\n        /* \"#utility.yul\":2702:2711   */\n      dup2\n        /* \"#utility.yul\":2689:2712   */\n      calldataload\n        /* \"#utility.yul\":2752:2758   */\n      0xffff\n        /* \"#utility.yul\":2745:2750   */\n      dup2\n        /* \"#utility.yul\":2741:2759   */\n      and\n        /* \"#utility.yul\":2734:2739   */\n      dup2\n        /* \"#utility.yul\":2731:2760   */\n      eq\n        /* \"#utility.yul\":2721:2778   */\n      tag_279\n      jumpi\n        /* \"#utility.yul\":2774:2775   */\n      0x00\n        /* \"#utility.yul\":2771:2772   */\n      dup1\n        /* \"#utility.yul\":2764:2776   */\n      revert\n        /* \"#utility.yul\":5925:6109   */\n    tag_272:\n        /* \"#utility.yul\":5977:6054   */\n      0x4e487b7100000000000000000000000000000000000000000000000000000000\n        /* \"#utility.yul\":5974:5975   */\n      0x00\n        /* \"#utility.yul\":5967:6055   */\n      mstore\n        /* \"#utility.yul\":6074:6078   */\n      0x11\n        /* \"#utility.yul\":6071:6072   */\n      0x04\n        /* \"#utility.yul\":6064:6079   */\n      mstore\n        /* \"#utility.yul\":6098:6102   */\n      0x24\n        /* \"#utility.yul\":6095:6096   */\n      0x00\n        /* \"#utility.yul\":6088:6103   */\n      revert\n        /* \"#utility.yul\":6114:6242   */\n    tag_173:\n        /* \"#utility.yul\":6181:6190   */\n      dup2\n      dup2\n      sub\n        /* \"#utility.yul\":6202:6213   */\n      dup2\n      dup2\n      gt\n        /* \"#utility.yul\":6199:6236   */\n      iszero\n      tag_306\n      jumpi\n        /* \"#utility.yul\":6216:6234   */\n      tag_306\n      tag_272\n      jump\t// in\n    tag_306:\n        /* \"#utility.yul\":6114:6242   */\n      swap3\n      swap2\n      pop\n      pop\n      jump\t// out\n        /* \"#utility.yul\":6247:6444   */\n    tag_175:\n        /* \"#utility.yul\":6285:6288   */\n      0x00\n        /* \"#utility.yul\":6313:6319   */\n      0xffff\n        /* \"#utility.yul\":6354:6356   */\n      dup1\n        /* \"#utility.yul\":6347:6352   */\n      dup4\n        /* \"#utility.yul\":6343:6357   */\n      and\n        /* \"#utility.yul\":6381:6383   */\n      dup2\n        /* \"#utility.yul\":6372:6379   */\n      dup2\n        /* \"#utility.yul\":6369:6384   */\n      sub\n        /* \"#utility.yul\":6366:6407   */\n      tag_309\n      jumpi\n        /* \"#utility.yul\":6387:6405   */\n      tag_309\n      tag_272\n      jump\t// in\n    tag_309:\n        /* \"#utility.yul\":6436:6437   */\n      0x01\n        /* \"#utility.yul\":6423:6438   */\n      add\n      swap4\n        /* \"#utility.yul\":6247:6444   */\n      swap3\n      pop\n      pop\n      pop\n      jump\t// out\n        /* \"#utility.yul\":8385:8822   */\n    tag_200:\n        /* \"#utility.yul\":8464:8465   */\n      0x01\n        /* \"#utility.yul\":8460:8472   */\n      dup2\n      dup2\n      shr\n      swap1\n        /* \"#utility.yul\":8507:8519   */\n      dup3\n      and\n      dup1\n        /* \"#utility.yul\":8528:8589   */\n      tag_316\n      jumpi\n        /* \"#utility.yul\":8582:8586   */\n      0x7f\n        /* \"#utility.yul\":8574:8580   */\n      dup3\n        /* \"#utility.yul\":8570:8587   */\n      and\n        /* \"#utility.yul\":8560:8587   */\n      swap2\n      pop\n        /* \"#utility.yul\":8528:8589   */\n    tag_316:\n        /* \"#utility.yul\":8635:8637   */\n      0x20\n        /* \"#utility.yul\":8627:8633   */\n      dup3\n        /* \"#utility.yul\":8624:8638   */\n      lt\n        /* \"#utility.yul\":8604:8622   */\n      dup2\n        /* \"#utility.yul\":8601:8639   */\n      sub\n        /* \"#utility.yul\":8598:8816   */\n      tag_317\n      jumpi\n        /* \"#utility.yul\":8672:8749   */\n      0x4e487b7100000000000000000000000000000000000000000000000000000000\n        /* \"#utility.yul\":8669:8670   */\n      0x00\n        /* \"#utility.yul\":8662:8750   */\n      mstore\n        /* \"#utility.yul\":8773:8777   */\n      0x22\n        /* \"#utility.yul\":8770:8771   */\n      0x04\n        /* \"#utility.yul\":8763:8778   */\n      mstore\n        /* \"#utility.yul\":8801:8805   */\n      0x24\n        /* \"#utility.yul\":8798:8799   */\n      0x00\n        /* \"#utility.yul\":8791:8806   */\n      revert\n        /* \"#utility.yul\":8598:8816   */\n    tag_317:\n      pop\n        /* \"#utility.yul\":8385:8822   */\n      swap2\n      swap1\n      pop\n      jump\t// out\n        /* \"#utility.yul\":11792:12141   */\n    tag_247:\n        /* \"#utility.yul\":11831:11832   */\n      0x00\n        /* \"#utility.yul\":11857:11871   */\n      0xffffffffffff\n        /* \"#utility.yul\":11898:11900   */\n      dup1\n        /* \"#utility.yul\":11895:11896   */\n      dup5\n        /* \"#utility.yul\":11891:11901   */\n      and\n        /* \"#utility.yul\":11920:11923   */\n      dup1\n        /* \"#utility.yul\":11910:12101   */\n      tag_327\n      jumpi\n        /* \"#utility.yul\":11957:12034   */\n      0x4e487b7100000000000000000000000000000000000000000000000000000000\n        /* \"#utility.yul\":11954:11955   */\n      0x00\n        /* \"#utility.yul\":11947:12035   */\n      mstore\n        /* \"#utility.yul\":12058:12062   */\n      0x12\n        /* \"#utility.yul\":12055:12056   */\n      0x04\n        /* \"#utility.yul\":12048:12063   */\n      mstore\n        /* \"#utility.yul\":12086:12090   */\n      0x24\n        /* \"#utility.yul\":12083:12084   */\n      0x00\n        /* \"#utility.yul\":12076:12091   */\n      revert\n        /* \"#utility.yul\":11910:12101   */\n    tag_327:\n        /* \"#utility.yul\":12119:12129   */\n      swap3\n      and\n        /* \"#utility.yul\":12115:12135   */\n      swap2\n      swap1\n      swap2\n      div\n      swap3\n        /* \"#utility.yul\":11792:12141   */\n      swap2\n      pop\n      pop\n      jump\t// out\n\n    auxdata: 0xa2646970667358221220c58422a840048f27d28f876961a624b69048bb8294de64222f44d1746205b84764736f6c63430008170033\n}\n","bytecode":{"linkReferences":{},"object":"60806040526008805462010000600160501b031916905534801562000022575f80fd5b5060405162002302380380620023028339810160408190526200004591620002f9565b61ffff8461ffff1610620000a05760405162461bcd60e51b815260206004820181905260248201527f4d6178696d616c203635353334204d6974737069656c65722065726c6175627460448201526064015b60405180910390fd5b6001600160601b03836001600160601b031610620001175760405162461bcd60e51b815260206004820152602d60248201527f4d6178696d616c6572205072656973203739323238313632353134323634333360448201526c3735393335343339353033333560981b606482015260840162000097565b5f80546001600160a01b0319166001600160a01b03871617905560016200013f878262000448565b506002805461ffff86166001600160701b031990911617620100006001600160601b038616021790556008805460ff60481b1916690100000000000000000083151502179055600362000193838262000448565b50600254670de0b6b3a76400009061ffff811690620001c2906201000090046001600160601b03168362000514565b620001ce91906200053e565b620001da91906200053e565b6002600e6101000a8154816001600160601b0302191690836001600160601b031602179055505050505050506200055e565b634e487b7160e01b5f52604160045260245ffd5b5f82601f83011262000230575f80fd5b81516001600160401b03808211156200024d576200024d6200020c565b604051601f8301601f19908116603f011681019082821181831017156200027857620002786200020c565b816040528381526020925086602085880101111562000295575f80fd5b5f91505b83821015620002b8578582018301518183018401529082019062000299565b5f602085830101528094505050505092915050565b80516001600160601b0381168114620002e4575f80fd5b919050565b80518015158114620002e4575f80fd5b5f805f805f8060c087890312156200030f575f80fd5b86516001600160401b038082111562000326575f80fd5b620003348a838b0162000220565b60208a015190985091506001600160a01b038216821462000353575f80fd5b604089015191965061ffff821682146200036b575f80fd5b8195506200037c60608a01620002cd565b9450608089015191508082111562000392575f80fd5b50620003a189828a0162000220565b925050620003b260a08801620002e9565b90509295509295509295565b600181811c90821680620003d357607f821691505b602082108103620003f257634e487b7160e01b5f52602260045260245ffd5b50919050565b601f8211156200044357805f5260205f20601f840160051c810160208510156200041f5750805b601f840160051c820191505b8181101562000440575f81556001016200042b565b50505b505050565b81516001600160401b038111156200046457620004646200020c565b6200047c81620004758454620003be565b84620003f8565b602080601f831160018114620004b2575f84156200049a5750858301515b5f19600386901b1c1916600185901b1785556200050c565b5f85815260208120601f198616915b82811015620004e257888601518255948401946001909101908401620004c1565b50858210156200050057878501515f19600388901b60f8161c191681555b505060018460011b0185555b505050505050565b80820281158282048414176200053857634e487b7160e01b5f52601160045260245ffd5b92915050565b5f826200055957634e487b7160e01b5f52601260045260245ffd5b500490565b611d96806200056c5f395ff3fe60806040526004361061018e575f3560e01c80638acb4624116100dc578063bb68a67f11610087578063d27d06c011610062578063d27d06c0146104a3578063e068561a146104b7578063e34ad1d7146104d6578063e86c5692146104f4575f80fd5b8063bb68a67f1461045a578063c6ca9d1914610488578063c88c8b281461049b575f80fd5b8063ab76211e116100b7578063ab76211e146103d0578063ad2c046c146103e4578063b08c707614610434575f80fd5b80638acb462414610379578063912432391461039a578063a299f171146103c8575f80fd5b80633babb15a1161013c578063526024ea11610117578063526024ea1461034357806370a41bc01461034b578063833e92cb14610365575f80fd5b80633babb15a146102cd5780633f0f5d51146102fa5780634376783214610324575f80fd5b80632df368a51161016c5780632df368a51461024857806331c451201461027e578063369270601461029f575f80fd5b8063084263f5146101925780630f085e50146101d85780632340983f14610213575b5f80fd5b34801561019d575f80fd5b506004546101b6906bffffffffffffffffffffffff1681565b6040516bffffffffffffffffffffffff90911681526020015b60405180910390f35b3480156101e3575f80fd5b506008546101fc9062010000900465ffffffffffff1681565b60405165ffffffffffff90911681526020016101cf565b34801561021e575f80fd5b506008546102389068010000000000000000900460ff1681565b60405190151581526020016101cf565b348015610253575f80fd5b506002546101b6906e01000000000000000000000000000090046bffffffffffffffffffffffff1681565b348015610289575f80fd5b5061029d610298366004611b53565b610522565b005b3480156102aa575f80fd5b506102386102b9366004611b7d565b60056020525f908152604090205460ff1681565b3480156102d8575f80fd5b506008546102e79061ffff1681565b60405161ffff90911681526020016101cf565b348015610305575f80fd5b506002546101b6906201000090046bffffffffffffffffffffffff1681565b34801561032f575f80fd5b5061029d61033e366004611b7d565b61069d565b61029d610825565b348015610356575f80fd5b506002546102e79061ffff1681565b348015610370575f80fd5b5061029d610bc8565b348015610384575f80fd5b5061038d610f52565b6040516101cf9190611bb0565b3480156103a5575f80fd5b506102386103b4366004611b7d565b60066020525f908152604090205460ff1681565b61029d610fde565b3480156103db575f80fd5b5061029d611379565b3480156103ef575f80fd5b505f5461040f9073ffffffffffffffffffffffffffffffffffffffff1681565b60405173ffffffffffffffffffffffffffffffffffffffff90911681526020016101cf565b34801561043f575f80fd5b50600854610238906901000000000000000000900460ff1681565b348015610465575f80fd5b50610238610474366004611b7d565b60076020525f908152604090205460ff1681565b61029d610496366004611c1a565b61155e565b61029d61178d565b3480156104ae575f80fd5b5061038d6119b1565b3480156104c2575f80fd5b5061029d6104d1366004611c3f565b6119be565b3480156104e1575f80fd5b50600a5461023890610100900460ff1681565b3480156104ff575f80fd5b5061023861050e366004611b7d565b60096020525f908152604090205460ff1681565b5f5473ffffffffffffffffffffffffffffffffffffffff1633146105cd576040517f08c379a000000000000000000000000000000000000000000000000000000000815260206004820152603060248201527f4e75722064657220477275656e646572206b616e6e2064696573652046756e6b60448201527f74696f6e206175736675656872656e2e0000000000000000000000000000000060648201526084015b60405180910390fd5b60085461ffff1615610661576040517f08c379a000000000000000000000000000000000000000000000000000000000815260206004820152603f60248201527f457320676962742062657265697473204d6974737069656c65722e205072656960448201527f7361656e646572756e67206e69636874206d656872206d6f65676c6963682e0060648201526084016105c4565b600280547fffffffffffffffffffffffffffffffffffff000000000000000000000000ffff1663ffffffff929092166201000002919091179055565b5f5473ffffffffffffffffffffffffffffffffffffffff163314610743576040517f08c379a000000000000000000000000000000000000000000000000000000000815260206004820152603060248201527f4e75722064657220477275656e646572206b616e6e2064696573652046756e6b60448201527f74696f6e206175736675656872656e2e0000000000000000000000000000000060648201526084016105c4565b60085461ffff16156107d7576040517f08c379a000000000000000000000000000000000000000000000000000000000815260206004820152603a60248201527f457320676962742062657265697473204d6974737069656c65722e2041656e6460448201527f6572756e67206e69636874206d656872206d6f65676c6963682e00000000000060648201526084016105c4565b73ffffffffffffffffffffffffffffffffffffffff165f90815260096020526040902080547fffffffffffffffffffffffffffffffffffffffffffffffffffffffffffffff00166001179055565b6002546e01000000000000000000000000000090046bffffffffffffffffffffffff166108ae576040517f08c379a000000000000000000000000000000000000000000000000000000000815260206004820152601960248201527f4b65696e2050726569732070726f204d6974737069656c65720000000000000060448201526064016105c4565b6002546e01000000000000000000000000000090046bffffffffffffffffffffffff1634101561093a576040517f08c379a000000000000000000000000000000000000000000000000000000000815260206004820152601d60248201527f5a7520676572696e6765722045696e7a61686c756e677362657472616700000060448201526064016105c4565b335f9081526005602052604090205460ff16156109d9576040517f08c379a000000000000000000000000000000000000000000000000000000000815260206004820152602260248201527f4265726569747320616c73204d6974737069656c65722072656769737472696560448201527f727400000000000000000000000000000000000000000000000000000000000060648201526084016105c4565b60025460085461ffff918216911610610a4e576040517f08c379a000000000000000000000000000000000000000000000000000000000815260206004820181905260248201527f4d6178696d616c65205465696c6e65686d65727a61686c20657272656963687460448201526064016105c4565b60085462010000900465ffffffffffff1615610ac6576040517f08c379a000000000000000000000000000000000000000000000000000000000815260206004820152601f60248201527f476577696e6e20777572646520626572656974732065696e67657a61686c740060448201526064016105c4565b6008546901000000000000000000900460ff1615610af857335f9081526009602052604090205460ff16610af8575f80fd5b6002545f90610b27906e01000000000000000000000000000090046bffffffffffffffffffffffff1634611c8d565b335f90815260056020526040812080547fffffffffffffffffffffffffffffffffffffffffffffffffffffffffffffff001660011790556008805492935061ffff9092169190610b7683611ca6565b91906101000a81548161ffff021916908361ffff160217905550505f811115610bc557604051339082156108fc029083905f818181858888f19350505050158015610bc3573d5f803e3d5ffd5b505b50565b335f9081526005602052604090205460ff16610c66576040517f08c379a000000000000000000000000000000000000000000000000000000000815260206004820152603260248201527f4e75722065696e204d6974737069656c6572206b616e6e20646965736520467560448201527f6e6b74696f6e206175736675656872656e2e000000000000000000000000000060648201526084016105c4565b600a5460ff1615610cd3576040517f08c379a000000000000000000000000000000000000000000000000000000000815260206004820152600e60248201527f4e6f2072652d656e7472616e637900000000000000000000000000000000000060448201526064016105c4565b600a80547fffffffffffffffffffffffffffffffffffffffffffffffffffffffffffffff0016600117905560085468010000000000000000900460ff16610d9c576040517f08c379a000000000000000000000000000000000000000000000000000000000815260206004820152602760248201527f476577696e6e206b616e6e206e6f6368206e696368742061626765686f6c742060448201527f77657264656e2e0000000000000000000000000000000000000000000000000060648201526084016105c4565b60085462010000900465ffffffffffff16610e39576040517f08c379a000000000000000000000000000000000000000000000000000000000815260206004820152602660248201527f4b65696e20476577696e6e207a7572204175737a61686c756e6720766572667560448201527f65676261722e000000000000000000000000000000000000000000000000000060648201526084016105c4565b335f9081526006602052604090205460ff1615610eb2576040517f08c379a000000000000000000000000000000000000000000000000000000000815260206004820152601e60248201527f476577696e6e20777572646520626572656974732061626765686f6c742e000060448201526064016105c4565b335f81815260066020526040808220805460017fffffffffffffffffffffffffffffffffffffffffffffffffffffffffffffff0090911617905560085490516201000090910465ffffffffffff1692916108fc841502918491818181858888f19350505050158015610f26573d5f803e3d5ffd5b5050600a80547fffffffffffffffffffffffffffffffffffffffffffffffffffffffffffffff00169055565b60038054610f5f90611cc6565b80601f0160208091040260200160405190810160405280929190818152602001828054610f8b90611cc6565b8015610fd65780601f10610fad57610100808354040283529160200191610fd6565b820191905f5260205f20905b815481529060010190602001808311610fb957829003601f168201915b505050505081565b335f9081526005602052604090205460ff1661107c576040517f08c379a000000000000000000000000000000000000000000000000000000000815260206004820152603260248201527f4e75722065696e204d6974737069656c6572206b616e6e20646965736520467560448201527f6e6b74696f6e206175736675656872656e2e000000000000000000000000000060648201526084016105c4565b600a5460ff16156110e9576040517f08c379a000000000000000000000000000000000000000000000000000000000815260206004820152600e60248201527f4e6f2072652d656e7472616e637900000000000000000000000000000000000060448201526064016105c4565b600a80547fffffffffffffffffffffffffffffffffffffffffffffffffffffffffffffff001660011790819055610100900460ff166111aa576040517f08c379a000000000000000000000000000000000000000000000000000000000815260206004820152602260248201527f47656d65696e736368616674206d7573732061756667656c6f6573742073656960448201527f6e2e00000000000000000000000000000000000000000000000000000000000060648201526084016105c4565b335f9081526007602052604090205460ff1615611249576040517f08c379a000000000000000000000000000000000000000000000000000000000815260206004820152602560248201527f45696e7361747a2077757264652062657265697473207a75727565636b67657a60448201527f61686c742e00000000000000000000000000000000000000000000000000000060648201526084016105c4565b335f81815260076020526040808220805460017fffffffffffffffffffffffffffffffffffffffffffffffffffffffffffffff0090911617905560025490516e0100000000000000000000000000009091046bffffffffffffffffffffffff16929083908381818185875af1925050503d805f81146112e3576040519150601f19603f3d011682016040523d82523d5f602084013e6112e8565b606091505b5050905080610f26576040517f08c379a000000000000000000000000000000000000000000000000000000000815260206004820152602a60248201527f527565636b7a61686c756e67206465732045696e7361747a6573206665686c6760448201527f657363686c6167656e2e0000000000000000000000000000000000000000000060648201526084016105c4565b5f5473ffffffffffffffffffffffffffffffffffffffff16331461141f576040517f08c379a000000000000000000000000000000000000000000000000000000000815260206004820152603060248201527f4e75722064657220477275656e646572206b616e6e2064696573652046756e6b60448201527f74696f6e206175736675656872656e2e0000000000000000000000000000000060648201526084016105c4565b60085468010000000000000000900460ff16156114be576040517f08c379a000000000000000000000000000000000000000000000000000000000815260206004820152602260248201527f476577696e6e206d757373206e6f63682061757367657a61686c74207765726460448201527f656e00000000000000000000000000000000000000000000000000000000000060648201526084016105c4565b600a54610100900460ff1615611530576040517f08c379a000000000000000000000000000000000000000000000000000000000815260206004820152601f60248201527f47656d65696e73636861667420626572656974732061756667656c6f6573740060448201526064016105c4565b600a80547fffffffffffffffffffffffffffffffffffffffffffffffffffffffffffff00ff16610100179055565b5f5473ffffffffffffffffffffffffffffffffffffffff163314611604576040517f08c379a000000000000000000000000000000000000000000000000000000000815260206004820152603060248201527f4e75722064657220477275656e646572206b616e6e2064696573652046756e6b60448201527f74696f6e206175736675656872656e2e0000000000000000000000000000000060648201526084016105c4565b5f3411611693576040517f08c379a000000000000000000000000000000000000000000000000000000000815260206004820152602a60248201527f45696e7a61686c756e6773626574726167206d7573732067726f65737365722060448201527f616c732030207365696e0000000000000000000000000000000000000000000060648201526084016105c4565b60085462010000900465ffffffffffff161561170b576040517f08c379a000000000000000000000000000000000000000000000000000000000815260206004820181905260248201527f476577696e6e20777572646520626572656974732065696e67657a61686c742e60448201526064016105c4565b60085461171c9061ffff1682611d17565b600880547fffffffffffffffffffffffffffffffffffffffffffffff00ffffffffffffffff65ffffffffffff939093166201000002929092167fffffffffffffffffffffffffffffffffffffffffffffff00000000000000ffff909216919091176801000000000000000017905550565b600a5460ff16156117fa576040517f08c379a000000000000000000000000000000000000000000000000000000000815260206004820152600e60248201527f4e6f2072652d656e7472616e637900000000000000000000000000000000000060448201526064016105c4565b600a80547fffffffffffffffffffffffffffffffffffffffffffffffffffffffffffffff001660011790555f543373ffffffffffffffffffffffffffffffffffffffff909116146118cd576040517f08c379a000000000000000000000000000000000000000000000000000000000815260206004820152603060248201527f4e75722064657220477275656e646572206b616e6e2064696573652046756e6b60448201527f74696f6e206175736675656872656e2e0000000000000000000000000000000060648201526084016105c4565b60085468010000000000000000900460ff161561196c576040517f08c379a000000000000000000000000000000000000000000000000000000000815260206004820152603860248201527f476577696e6e20777572646520626572656974732065696e67657a61686c742060448201527f756e64206b616e6e2061626765686f6c742077657264656e000000000000000060648201526084016105c4565b5f8054604051479273ffffffffffffffffffffffffffffffffffffffff9092169183156108fc02918491818181858888f19350505050158015610f26573d5f803e3d5ffd5b60018054610f5f90611cc6565b5f5473ffffffffffffffffffffffffffffffffffffffff163314611a64576040517f08c379a000000000000000000000000000000000000000000000000000000000815260206004820152603060248201527f4e75722064657220477275656e646572206b616e6e2064696573652046756e6b60448201527f74696f6e206175736675656872656e2e0000000000000000000000000000000060648201526084016105c4565b60085461ffff1615611b1e576040517f08c379a000000000000000000000000000000000000000000000000000000000815260206004820152605460248201527f457320676962742062657265697473204d6974737069656c65722e2041656e6460448201527f6572756e672064657220416e7a61686c20616e204d6974737069656c65726e2060648201527f6e69636874206d656872206d6f65676c6963682e000000000000000000000000608482015260a4016105c4565b600280547fffffffffffffffffffffffffffffffffffffffffffffffffffffffffffff00001661ffff92909216919091179055565b5f60208284031215611b63575f80fd5b813563ffffffff81168114611b76575f80fd5b9392505050565b5f60208284031215611b8d575f80fd5b813573ffffffffffffffffffffffffffffffffffffffff81168114611b76575f80fd5b5f602080835283518060208501525f5b81811015611bdc57858101830151858201604001528201611bc0565b505f6040828601015260407fffffffffffffffffffffffffffffffffffffffffffffffffffffffffffffffe0601f8301168501019250505092915050565b5f60208284031215611c2a575f80fd5b813565ffffffffffff81168114611b76575f80fd5b5f60208284031215611c4f575f80fd5b813561ffff81168114611b76575f80fd5b7f4e487b71000000000000000000000000000000000000000000000000000000005f52601160045260245ffd5b81810381811115611ca057611ca0611c60565b92915050565b5f61ffff808316818103611cbc57611cbc611c60565b6001019392505050565b600181811c90821680611cda57607f821691505b602082108103611d11577f4e487b71000000000000000000000000000000000000000000000000000000005f52602260045260245ffd5b50919050565b5f65ffffffffffff80841680611d54577f4e487b71000000000000000000000000000000000000000000000000000000005f52601260045260245ffd5b9216919091049291505056fea2646970667358221220c58422a840048f27d28f876961a624b69048bb8294de64222f44d1746205b84764736f6c63430008170033","opcodes":"PUSH1 0x80 PUSH1 0x40 MSTORE PUSH1 0x8 DUP1 SLOAD PUSH3 0x10000 PUSH1 0x1 PUSH1 0x50 SHL SUB NOT AND SWAP1 SSTORE CALLVALUE DUP1 ISZERO PUSH3 0x22 JUMPI PUSH0 DUP1 REVERT JUMPDEST POP PUSH1 0x40 MLOAD PUSH3 0x2302 CODESIZE SUB DUP1 PUSH3 0x2302 DUP4 CODECOPY DUP2 ADD PUSH1 0x40 DUP2 SWAP1 MSTORE PUSH3 0x45 SWAP2 PUSH3 0x2F9 JUMP JUMPDEST PUSH2 0xFFFF DUP5 PUSH2 0xFFFF AND LT PUSH3 0xA0 JUMPI PUSH1 0x40 MLOAD PUSH3 0x461BCD PUSH1 0xE5 SHL DUP2 MSTORE PUSH1 0x20 PUSH1 0x4 DUP3 ADD DUP2 SWAP1 MSTORE PUSH1 0x24 DUP3 ADD MSTORE PUSH32 0x4D6178696D616C203635353334204D6974737069656C65722065726C61756274 PUSH1 0x44 DUP3 ADD MSTORE PUSH1 0x64 ADD JUMPDEST PUSH1 0x40 MLOAD DUP1 SWAP2 SUB SWAP1 REVERT JUMPDEST PUSH1 0x1 PUSH1 0x1 PUSH1 0x60 SHL SUB DUP4 PUSH1 0x1 PUSH1 0x1 PUSH1 0x60 SHL SUB AND LT PUSH3 0x117 JUMPI PUSH1 0x40 MLOAD PUSH3 0x461BCD PUSH1 0xE5 SHL DUP2 MSTORE PUSH1 0x20 PUSH1 0x4 DUP3 ADD MSTORE PUSH1 0x2D PUSH1 0x24 DUP3 ADD MSTORE PUSH32 0x4D6178696D616C65722050726569732037393232383136323531343236343333 PUSH1 0x44 DUP3 ADD MSTORE PUSH13 0x37353933353433393530333335 PUSH1 0x98 SHL PUSH1 0x64 DUP3 ADD MSTORE PUSH1 0x84 ADD PUSH3 0x97 JUMP JUMPDEST PUSH0 DUP1 SLOAD PUSH1 0x1 PUSH1 0x1 PUSH1 0xA0 SHL SUB NOT AND PUSH1 0x1 PUSH1 0x1 PUSH1 0xA0 SHL SUB DUP8 AND OR SWAP1 SSTORE PUSH1 0x1 PUSH3 0x13F DUP8 DUP3 PUSH3 0x448 JUMP JUMPDEST POP PUSH1 0x2 DUP1 SLOAD PUSH2 0xFFFF DUP7 AND PUSH1 0x1 PUSH1 0x1 PUSH1 0x70 SHL SUB NOT SWAP1 SWAP2 AND OR PUSH3 0x10000 PUSH1 0x1 PUSH1 0x1 PUSH1 0x60 SHL SUB DUP7 AND MUL OR SWAP1 SSTORE PUSH1 0x8 DUP1 SLOAD PUSH1 0xFF PUSH1 0x48 SHL NOT AND PUSH10 0x1000000000000000000 DUP4 ISZERO ISZERO MUL OR SWAP1 SSTORE PUSH1 0x3 PUSH3 0x193 DUP4 DUP3 PUSH3 0x448 JUMP JUMPDEST POP PUSH1 0x2 SLOAD PUSH8 0xDE0B6B3A7640000 SWAP1 PUSH2 0xFFFF DUP2 AND SWAP1 PUSH3 0x1C2 SWAP1 PUSH3 0x10000 SWAP1 DIV PUSH1 0x1 PUSH1 0x1 PUSH1 0x60 SHL SUB AND DUP4 PUSH3 0x514 JUMP JUMPDEST PUSH3 0x1CE SWAP2 SWAP1 PUSH3 0x53E JUMP JUMPDEST PUSH3 0x1DA SWAP2 SWAP1 PUSH3 0x53E JUMP JUMPDEST PUSH1 0x2 PUSH1 0xE PUSH2 0x100 EXP DUP2 SLOAD DUP2 PUSH1 0x1 PUSH1 0x1 PUSH1 0x60 SHL SUB MUL NOT AND SWAP1 DUP4 PUSH1 0x1 PUSH1 0x1 PUSH1 0x60 SHL SUB AND MUL OR SWAP1 SSTORE POP POP POP POP POP POP POP PUSH3 0x55E JUMP JUMPDEST PUSH4 0x4E487B71 PUSH1 0xE0 SHL PUSH0 MSTORE PUSH1 0x41 PUSH1 0x4 MSTORE PUSH1 0x24 PUSH0 REVERT JUMPDEST PUSH0 DUP3 PUSH1 0x1F DUP4 ADD SLT PUSH3 0x230 JUMPI PUSH0 DUP1 REVERT JUMPDEST DUP2 MLOAD PUSH1 0x1 PUSH1 0x1 PUSH1 0x40 SHL SUB DUP1 DUP3 GT ISZERO PUSH3 0x24D JUMPI PUSH3 0x24D PUSH3 0x20C JUMP JUMPDEST PUSH1 0x40 MLOAD PUSH1 0x1F DUP4 ADD PUSH1 0x1F NOT SWAP1 DUP2 AND PUSH1 0x3F ADD AND DUP2 ADD SWAP1 DUP3 DUP3 GT DUP2 DUP4 LT OR ISZERO PUSH3 0x278 JUMPI PUSH3 0x278 PUSH3 0x20C JUMP JUMPDEST DUP2 PUSH1 0x40 MSTORE DUP4 DUP2 MSTORE PUSH1 0x20 SWAP3 POP DUP7 PUSH1 0x20 DUP6 DUP9 ADD ADD GT ISZERO PUSH3 0x295 JUMPI PUSH0 DUP1 REVERT JUMPDEST PUSH0 SWAP2 POP JUMPDEST DUP4 DUP3 LT ISZERO PUSH3 0x2B8 JUMPI DUP6 DUP3 ADD DUP4 ADD MLOAD DUP2 DUP4 ADD DUP5 ADD MSTORE SWAP1 DUP3 ADD SWAP1 PUSH3 0x299 JUMP JUMPDEST PUSH0 PUSH1 0x20 DUP6 DUP4 ADD ADD MSTORE DUP1 SWAP5 POP POP POP POP POP SWAP3 SWAP2 POP POP JUMP JUMPDEST DUP1 MLOAD PUSH1 0x1 PUSH1 0x1 PUSH1 0x60 SHL SUB DUP2 AND DUP2 EQ PUSH3 0x2E4 JUMPI PUSH0 DUP1 REVERT JUMPDEST SWAP2 SWAP1 POP JUMP JUMPDEST DUP1 MLOAD DUP1 ISZERO ISZERO DUP2 EQ PUSH3 0x2E4 JUMPI PUSH0 DUP1 REVERT JUMPDEST PUSH0 DUP1 PUSH0 DUP1 PUSH0 DUP1 PUSH1 0xC0 DUP8 DUP10 SUB SLT ISZERO PUSH3 0x30F JUMPI PUSH0 DUP1 REVERT JUMPDEST DUP7 MLOAD PUSH1 0x1 PUSH1 0x1 PUSH1 0x40 SHL SUB DUP1 DUP3 GT ISZERO PUSH3 0x326 JUMPI PUSH0 DUP1 REVERT JUMPDEST PUSH3 0x334 DUP11 DUP4 DUP12 ADD PUSH3 0x220 JUMP JUMPDEST PUSH1 0x20 DUP11 ADD MLOAD SWAP1 SWAP9 POP SWAP2 POP PUSH1 0x1 PUSH1 0x1 PUSH1 0xA0 SHL SUB DUP3 AND DUP3 EQ PUSH3 0x353 JUMPI PUSH0 DUP1 REVERT JUMPDEST PUSH1 0x40 DUP10 ADD MLOAD SWAP2 SWAP7 POP PUSH2 0xFFFF DUP3 AND DUP3 EQ PUSH3 0x36B JUMPI PUSH0 DUP1 REVERT JUMPDEST DUP2 SWAP6 POP PUSH3 0x37C PUSH1 0x60 DUP11 ADD PUSH3 0x2CD JUMP JUMPDEST SWAP5 POP PUSH1 0x80 DUP10 ADD MLOAD SWAP2 POP DUP1 DUP3 GT ISZERO PUSH3 0x392 JUMPI PUSH0 DUP1 REVERT JUMPDEST POP PUSH3 0x3A1 DUP10 DUP3 DUP11 ADD PUSH3 0x220 JUMP JUMPDEST SWAP3 POP POP PUSH3 0x3B2 PUSH1 0xA0 DUP9 ADD PUSH3 0x2E9 JUMP JUMPDEST SWAP1 POP SWAP3 SWAP6 POP SWAP3 SWAP6 POP SWAP3 SWAP6 JUMP JUMPDEST PUSH1 0x1 DUP2 DUP2 SHR SWAP1 DUP3 AND DUP1 PUSH3 0x3D3 JUMPI PUSH1 0x7F DUP3 AND SWAP2 POP JUMPDEST PUSH1 0x20 DUP3 LT DUP2 SUB PUSH3 0x3F2 JUMPI PUSH4 0x4E487B71 PUSH1 0xE0 SHL PUSH0 MSTORE PUSH1 0x22 PUSH1 0x4 MSTORE PUSH1 0x24 PUSH0 REVERT JUMPDEST POP SWAP2 SWAP1 POP JUMP JUMPDEST PUSH1 0x1F DUP3 GT ISZERO PUSH3 0x443 JUMPI DUP1 PUSH0 MSTORE PUSH1 0x20 PUSH0 KECCAK256 PUSH1 0x1F DUP5 ADD PUSH1 0x5 SHR DUP2 ADD PUSH1 0x20 DUP6 LT ISZERO PUSH3 0x41F JUMPI POP DUP1 JUMPDEST PUSH1 0x1F DUP5 ADD PUSH1 0x5 SHR DUP3 ADD SWAP2 POP JUMPDEST DUP2 DUP2 LT ISZERO PUSH3 0x440 JUMPI PUSH0 DUP2 SSTORE PUSH1 0x1 ADD PUSH3 0x42B JUMP JUMPDEST POP POP JUMPDEST POP POP POP JUMP JUMPDEST DUP2 MLOAD PUSH1 0x1 PUSH1 0x1 PUSH1 0x40 SHL SUB DUP2 GT ISZERO PUSH3 0x464 JUMPI PUSH3 0x464 PUSH3 0x20C JUMP JUMPDEST PUSH3 0x47C DUP2 PUSH3 0x475 DUP5 SLOAD PUSH3 0x3BE JUMP JUMPDEST DUP5 PUSH3 0x3F8 JUMP JUMPDEST PUSH1 0x20 DUP1 PUSH1 0x1F DUP4 GT PUSH1 0x1 DUP2 EQ PUSH3 0x4B2 JUMPI PUSH0 DUP5 ISZERO PUSH3 0x49A JUMPI POP DUP6 DUP4 ADD MLOAD JUMPDEST PUSH0 NOT PUSH1 0x3 DUP7 SWAP1 SHL SHR NOT AND PUSH1 0x1 DUP6 SWAP1 SHL OR DUP6 SSTORE PUSH3 0x50C JUMP JUMPDEST PUSH0 DUP6 DUP2 MSTORE PUSH1 0x20 DUP2 KECCAK256 PUSH1 0x1F NOT DUP7 AND SWAP2 JUMPDEST DUP3 DUP2 LT ISZERO PUSH3 0x4E2 JUMPI DUP9 DUP7 ADD MLOAD DUP3 SSTORE SWAP5 DUP5 ADD SWAP5 PUSH1 0x1 SWAP1 SWAP2 ADD SWAP1 DUP5 ADD PUSH3 0x4C1 JUMP JUMPDEST POP DUP6 DUP3 LT ISZERO PUSH3 0x500 JUMPI DUP8 DUP6 ADD MLOAD PUSH0 NOT PUSH1 0x3 DUP9 SWAP1 SHL PUSH1 0xF8 AND SHR NOT AND DUP2 SSTORE JUMPDEST POP POP PUSH1 0x1 DUP5 PUSH1 0x1 SHL ADD DUP6 SSTORE JUMPDEST POP POP POP POP POP POP JUMP JUMPDEST DUP1 DUP3 MUL DUP2 ISZERO DUP3 DUP3 DIV DUP5 EQ OR PUSH3 0x538 JUMPI PUSH4 0x4E487B71 PUSH1 0xE0 SHL PUSH0 MSTORE PUSH1 0x11 PUSH1 0x4 MSTORE PUSH1 0x24 PUSH0 REVERT JUMPDEST SWAP3 SWAP2 POP POP JUMP JUMPDEST PUSH0 DUP3 PUSH3 0x559 JUMPI PUSH4 0x4E487B71 PUSH1 0xE0 SHL PUSH0 MSTORE PUSH1 0x12 PUSH1 0x4 MSTORE PUSH1 0x24 PUSH0 REVERT JUMPDEST POP DIV SWAP1 JUMP JUMPDEST PUSH2 0x1D96 DUP1 PUSH3 0x56C PUSH0 CODECOPY PUSH0 RETURN INVALID PUSH1 0x80 PUSH1 0x40 MSTORE PUSH1 0x4 CALLDATASIZE LT PUSH2 0x18E JUMPI PUSH0 CALLDATALOAD PUSH1 0xE0 SHR DUP1 PUSH4 0x8ACB4624 GT PUSH2 0xDC JUMPI DUP1 PUSH4 0xBB68A67F GT PUSH2 0x87 JUMPI DUP1 PUSH4 0xD27D06C0 GT PUSH2 0x62 JUMPI DUP1 PUSH4 0xD27D06C0 EQ PUSH2 0x4A3 JUMPI DUP1 PUSH4 0xE068561A EQ PUSH2 0x4B7 JUMPI DUP1 PUSH4 0xE34AD1D7 EQ PUSH2 0x4D6 JUMPI DUP1 PUSH4 0xE86C5692 EQ PUSH2 0x4F4 JUMPI PUSH0 DUP1 REVERT JUMPDEST DUP1 PUSH4 0xBB68A67F EQ PUSH2 0x45A JUMPI DUP1 PUSH4 0xC6CA9D19 EQ PUSH2 0x488 JUMPI DUP1 PUSH4 0xC88C8B28 EQ PUSH2 0x49B JUMPI PUSH0 DUP1 REVERT JUMPDEST DUP1 PUSH4 0xAB76211E GT PUSH2 0xB7 JUMPI DUP1 PUSH4 0xAB76211E EQ PUSH2 0x3D0 JUMPI DUP1 PUSH4 0xAD2C046C EQ PUSH2 0x3E4 JUMPI DUP1 PUSH4 0xB08C7076 EQ PUSH2 0x434 JUMPI PUSH0 DUP1 REVERT JUMPDEST DUP1 PUSH4 0x8ACB4624 EQ PUSH2 0x379 JUMPI DUP1 PUSH4 0x91243239 EQ PUSH2 0x39A JUMPI DUP1 PUSH4 0xA299F171 EQ PUSH2 0x3C8 JUMPI PUSH0 DUP1 REVERT JUMPDEST DUP1 PUSH4 0x3BABB15A GT PUSH2 0x13C JUMPI DUP1 PUSH4 0x526024EA GT PUSH2 0x117 JUMPI DUP1 PUSH4 0x526024EA EQ PUSH2 0x343 JUMPI DUP1 PUSH4 0x70A41BC0 EQ PUSH2 0x34B JUMPI DUP1 PUSH4 0x833E92CB EQ PUSH2 0x365 JUMPI PUSH0 DUP1 REVERT JUMPDEST DUP1 PUSH4 0x3BABB15A EQ PUSH2 0x2CD JUMPI DUP1 PUSH4 0x3F0F5D51 EQ PUSH2 0x2FA JUMPI DUP1 PUSH4 0x43767832 EQ PUSH2 0x324 JUMPI PUSH0 DUP1 REVERT JUMPDEST DUP1 PUSH4 0x2DF368A5 GT PUSH2 0x16C JUMPI DUP1 PUSH4 0x2DF368A5 EQ PUSH2 0x248 JUMPI DUP1 PUSH4 0x31C45120 EQ PUSH2 0x27E JUMPI DUP1 PUSH4 0x36927060 EQ PUSH2 0x29F JUMPI PUSH0 DUP1 REVERT JUMPDEST DUP1 PUSH4 0x84263F5 EQ PUSH2 0x192 JUMPI DUP1 PUSH4 0xF085E50 EQ PUSH2 0x1D8 JUMPI DUP1 PUSH4 0x2340983F EQ PUSH2 0x213 JUMPI JUMPDEST PUSH0 DUP1 REVERT JUMPDEST CALLVALUE DUP1 ISZERO PUSH2 0x19D JUMPI PUSH0 DUP1 REVERT JUMPDEST POP PUSH1 0x4 SLOAD PUSH2 0x1B6 SWAP1 PUSH12 0xFFFFFFFFFFFFFFFFFFFFFFFF AND DUP2 JUMP JUMPDEST PUSH1 0x40 MLOAD PUSH12 0xFFFFFFFFFFFFFFFFFFFFFFFF SWAP1 SWAP2 AND DUP2 MSTORE PUSH1 0x20 ADD JUMPDEST PUSH1 0x40 MLOAD DUP1 SWAP2 SUB SWAP1 RETURN JUMPDEST CALLVALUE DUP1 ISZERO PUSH2 0x1E3 JUMPI PUSH0 DUP1 REVERT JUMPDEST POP PUSH1 0x8 SLOAD PUSH2 0x1FC SWAP1 PUSH3 0x10000 SWAP1 DIV PUSH6 0xFFFFFFFFFFFF AND DUP2 JUMP JUMPDEST PUSH1 0x40 MLOAD PUSH6 0xFFFFFFFFFFFF SWAP1 SWAP2 AND DUP2 MSTORE PUSH1 0x20 ADD PUSH2 0x1CF JUMP JUMPDEST CALLVALUE DUP1 ISZERO PUSH2 0x21E JUMPI PUSH0 DUP1 REVERT JUMPDEST POP PUSH1 0x8 SLOAD PUSH2 0x238 SWAP1 PUSH9 0x10000000000000000 SWAP1 DIV PUSH1 0xFF AND DUP2 JUMP JUMPDEST PUSH1 0x40 MLOAD SWAP1 ISZERO ISZERO DUP2 MSTORE PUSH1 0x20 ADD PUSH2 0x1CF JUMP JUMPDEST CALLVALUE DUP1 ISZERO PUSH2 0x253 JUMPI PUSH0 DUP1 REVERT JUMPDEST POP PUSH1 0x2 SLOAD PUSH2 0x1B6 SWAP1 PUSH15 0x10000000000000000000000000000 SWAP1 DIV PUSH12 0xFFFFFFFFFFFFFFFFFFFFFFFF AND DUP2 JUMP JUMPDEST CALLVALUE DUP1 ISZERO PUSH2 0x289 JUMPI PUSH0 DUP1 REVERT JUMPDEST POP PUSH2 0x29D PUSH2 0x298 CALLDATASIZE PUSH1 0x4 PUSH2 0x1B53 JUMP JUMPDEST PUSH2 0x522 JUMP JUMPDEST STOP JUMPDEST CALLVALUE DUP1 ISZERO PUSH2 0x2AA JUMPI PUSH0 DUP1 REVERT JUMPDEST POP PUSH2 0x238 PUSH2 0x2B9 CALLDATASIZE PUSH1 0x4 PUSH2 0x1B7D JUMP JUMPDEST PUSH1 0x5 PUSH1 0x20 MSTORE PUSH0 SWAP1 DUP2 MSTORE PUSH1 0x40 SWAP1 KECCAK256 SLOAD PUSH1 0xFF AND DUP2 JUMP JUMPDEST CALLVALUE DUP1 ISZERO PUSH2 0x2D8 JUMPI PUSH0 DUP1 REVERT JUMPDEST POP PUSH1 0x8 SLOAD PUSH2 0x2E7 SWAP1 PUSH2 0xFFFF AND DUP2 JUMP JUMPDEST PUSH1 0x40 MLOAD PUSH2 0xFFFF SWAP1 SWAP2 AND DUP2 MSTORE PUSH1 0x20 ADD PUSH2 0x1CF JUMP JUMPDEST CALLVALUE DUP1 ISZERO PUSH2 0x305 JUMPI PUSH0 DUP1 REVERT JUMPDEST POP PUSH1 0x2 SLOAD PUSH2 0x1B6 SWAP1 PUSH3 0x10000 SWAP1 DIV PUSH12 0xFFFFFFFFFFFFFFFFFFFFFFFF AND DUP2 JUMP JUMPDEST CALLVALUE DUP1 ISZERO PUSH2 0x32F JUMPI PUSH0 DUP1 REVERT JUMPDEST POP PUSH2 0x29D PUSH2 0x33E CALLDATASIZE PUSH1 0x4 PUSH2 0x1B7D JUMP JUMPDEST PUSH2 0x69D JUMP JUMPDEST PUSH2 0x29D PUSH2 0x825 JUMP JUMPDEST CALLVALUE DUP1 ISZERO PUSH2 0x356 JUMPI PUSH0 DUP1 REVERT JUMPDEST POP PUSH1 0x2 SLOAD PUSH2 0x2E7 SWAP1 PUSH2 0xFFFF AND DUP2 JUMP JUMPDEST CALLVALUE DUP1 ISZERO PUSH2 0x370 JUMPI PUSH0 DUP1 REVERT JUMPDEST POP PUSH2 0x29D PUSH2 0xBC8 JUMP JUMPDEST CALLVALUE DUP1 ISZERO PUSH2 0x384 JUMPI PUSH0 DUP1 REVERT JUMPDEST POP PUSH2 0x38D PUSH2 0xF52 JUMP JUMPDEST PUSH1 0x40 MLOAD PUSH2 0x1CF SWAP2 SWAP1 PUSH2 0x1BB0 JUMP JUMPDEST CALLVALUE DUP1 ISZERO PUSH2 0x3A5 JUMPI PUSH0 DUP1 REVERT JUMPDEST POP PUSH2 0x238 PUSH2 0x3B4 CALLDATASIZE PUSH1 0x4 PUSH2 0x1B7D JUMP JUMPDEST PUSH1 0x6 PUSH1 0x20 MSTORE PUSH0 SWAP1 DUP2 MSTORE PUSH1 0x40 SWAP1 KECCAK256 SLOAD PUSH1 0xFF AND DUP2 JUMP JUMPDEST PUSH2 0x29D PUSH2 0xFDE JUMP JUMPDEST CALLVALUE DUP1 ISZERO PUSH2 0x3DB JUMPI PUSH0 DUP1 REVERT JUMPDEST POP PUSH2 0x29D PUSH2 0x1379 JUMP JUMPDEST CALLVALUE DUP1 ISZERO PUSH2 0x3EF JUMPI PUSH0 DUP1 REVERT JUMPDEST POP PUSH0 SLOAD PUSH2 0x40F SWAP1 PUSH20 0xFFFFFFFFFFFFFFFFFFFFFFFFFFFFFFFFFFFFFFFF AND DUP2 JUMP JUMPDEST PUSH1 0x40 MLOAD PUSH20 0xFFFFFFFFFFFFFFFFFFFFFFFFFFFFFFFFFFFFFFFF SWAP1 SWAP2 AND DUP2 MSTORE PUSH1 0x20 ADD PUSH2 0x1CF JUMP JUMPDEST CALLVALUE DUP1 ISZERO PUSH2 0x43F JUMPI PUSH0 DUP1 REVERT JUMPDEST POP PUSH1 0x8 SLOAD PUSH2 0x238 SWAP1 PUSH10 0x1000000000000000000 SWAP1 DIV PUSH1 0xFF AND DUP2 JUMP JUMPDEST CALLVALUE DUP1 ISZERO PUSH2 0x465 JUMPI PUSH0 DUP1 REVERT JUMPDEST POP PUSH2 0x238 PUSH2 0x474 CALLDATASIZE PUSH1 0x4 PUSH2 0x1B7D JUMP JUMPDEST PUSH1 0x7 PUSH1 0x20 MSTORE PUSH0 SWAP1 DUP2 MSTORE PUSH1 0x40 SWAP1 KECCAK256 SLOAD PUSH1 0xFF AND DUP2 JUMP JUMPDEST PUSH2 0x29D PUSH2 0x496 CALLDATASIZE PUSH1 0x4 PUSH2 0x1C1A JUMP JUMPDEST PUSH2 0x155E JUMP JUMPDEST PUSH2 0x29D PUSH2 0x178D JUMP JUMPDEST CALLVALUE DUP1 ISZERO PUSH2 0x4AE JUMPI PUSH0 DUP1 REVERT JUMPDEST POP PUSH2 0x38D PUSH2 0x19B1 JUMP JUMPDEST CALLVALUE DUP1 ISZERO PUSH2 0x4C2 JUMPI PUSH0 DUP1 REVERT JUMPDEST POP PUSH2 0x29D PUSH2 0x4D1 CALLDATASIZE PUSH1 0x4 PUSH2 0x1C3F JUMP JUMPDEST PUSH2 0x19BE JUMP JUMPDEST CALLVALUE DUP1 ISZERO PUSH2 0x4E1 JUMPI PUSH0 DUP1 REVERT JUMPDEST POP PUSH1 0xA SLOAD PUSH2 0x238 SWAP1 PUSH2 0x100 SWAP1 DIV PUSH1 0xFF AND DUP2 JUMP JUMPDEST CALLVALUE DUP1 ISZERO PUSH2 0x4FF JUMPI PUSH0 DUP1 REVERT JUMPDEST POP PUSH2 0x238 PUSH2 0x50E CALLDATASIZE PUSH1 0x4 PUSH2 0x1B7D JUMP JUMPDEST PUSH1 0x9 PUSH1 0x20 MSTORE PUSH0 SWAP1 DUP2 MSTORE PUSH1 0x40 SWAP1 KECCAK256 SLOAD PUSH1 0xFF AND DUP2 JUMP JUMPDEST PUSH0 SLOAD PUSH20 0xFFFFFFFFFFFFFFFFFFFFFFFFFFFFFFFFFFFFFFFF AND CALLER EQ PUSH2 0x5CD JUMPI PUSH1 0x40 MLOAD PUSH32 0x8C379A000000000000000000000000000000000000000000000000000000000 DUP2 MSTORE PUSH1 0x20 PUSH1 0x4 DUP3 ADD MSTORE PUSH1 0x30 PUSH1 0x24 DUP3 ADD MSTORE PUSH32 0x4E75722064657220477275656E646572206B616E6E2064696573652046756E6B PUSH1 0x44 DUP3 ADD MSTORE PUSH32 0x74696F6E206175736675656872656E2E00000000000000000000000000000000 PUSH1 0x64 DUP3 ADD MSTORE PUSH1 0x84 ADD JUMPDEST PUSH1 0x40 MLOAD DUP1 SWAP2 SUB SWAP1 REVERT JUMPDEST PUSH1 0x8 SLOAD PUSH2 0xFFFF AND ISZERO PUSH2 0x661 JUMPI PUSH1 0x40 MLOAD PUSH32 0x8C379A000000000000000000000000000000000000000000000000000000000 DUP2 MSTORE PUSH1 0x20 PUSH1 0x4 DUP3 ADD MSTORE PUSH1 0x3F PUSH1 0x24 DUP3 ADD MSTORE PUSH32 0x457320676962742062657265697473204D6974737069656C65722E2050726569 PUSH1 0x44 DUP3 ADD MSTORE PUSH32 0x7361656E646572756E67206E69636874206D656872206D6F65676C6963682E00 PUSH1 0x64 DUP3 ADD MSTORE PUSH1 0x84 ADD PUSH2 0x5C4 JUMP JUMPDEST PUSH1 0x2 DUP1 SLOAD PUSH32 0xFFFFFFFFFFFFFFFFFFFFFFFFFFFFFFFFFFFF000000000000000000000000FFFF AND PUSH4 0xFFFFFFFF SWAP3 SWAP1 SWAP3 AND PUSH3 0x10000 MUL SWAP2 SWAP1 SWAP2 OR SWAP1 SSTORE JUMP JUMPDEST PUSH0 SLOAD PUSH20 0xFFFFFFFFFFFFFFFFFFFFFFFFFFFFFFFFFFFFFFFF AND CALLER EQ PUSH2 0x743 JUMPI PUSH1 0x40 MLOAD PUSH32 0x8C379A000000000000000000000000000000000000000000000000000000000 DUP2 MSTORE PUSH1 0x20 PUSH1 0x4 DUP3 ADD MSTORE PUSH1 0x30 PUSH1 0x24 DUP3 ADD MSTORE PUSH32 0x4E75722064657220477275656E646572206B616E6E2064696573652046756E6B PUSH1 0x44 DUP3 ADD MSTORE PUSH32 0x74696F6E206175736675656872656E2E00000000000000000000000000000000 PUSH1 0x64 DUP3 ADD MSTORE PUSH1 0x84 ADD PUSH2 0x5C4 JUMP JUMPDEST PUSH1 0x8 SLOAD PUSH2 0xFFFF AND ISZERO PUSH2 0x7D7 JUMPI PUSH1 0x40 MLOAD PUSH32 0x8C379A000000000000000000000000000000000000000000000000000000000 DUP2 MSTORE PUSH1 0x20 PUSH1 0x4 DUP3 ADD MSTORE PUSH1 0x3A PUSH1 0x24 DUP3 ADD MSTORE PUSH32 0x457320676962742062657265697473204D6974737069656C65722E2041656E64 PUSH1 0x44 DUP3 ADD MSTORE PUSH32 0x6572756E67206E69636874206D656872206D6F65676C6963682E000000000000 PUSH1 0x64 DUP3 ADD MSTORE PUSH1 0x84 ADD PUSH2 0x5C4 JUMP JUMPDEST PUSH20 0xFFFFFFFFFFFFFFFFFFFFFFFFFFFFFFFFFFFFFFFF AND PUSH0 SWAP1 DUP2 MSTORE PUSH1 0x9 PUSH1 0x20 MSTORE PUSH1 0x40 SWAP1 KECCAK256 DUP1 SLOAD PUSH32 0xFFFFFFFFFFFFFFFFFFFFFFFFFFFFFFFFFFFFFFFFFFFFFFFFFFFFFFFFFFFFFF00 AND PUSH1 0x1 OR SWAP1 SSTORE JUMP JUMPDEST PUSH1 0x2 SLOAD PUSH15 0x10000000000000000000000000000 SWAP1 DIV PUSH12 0xFFFFFFFFFFFFFFFFFFFFFFFF AND PUSH2 0x8AE JUMPI PUSH1 0x40 MLOAD PUSH32 0x8C379A000000000000000000000000000000000000000000000000000000000 DUP2 MSTORE PUSH1 0x20 PUSH1 0x4 DUP3 ADD MSTORE PUSH1 0x19 PUSH1 0x24 DUP3 ADD MSTORE PUSH32 0x4B65696E2050726569732070726F204D6974737069656C657200000000000000 PUSH1 0x44 DUP3 ADD MSTORE PUSH1 0x64 ADD PUSH2 0x5C4 JUMP JUMPDEST PUSH1 0x2 SLOAD PUSH15 0x10000000000000000000000000000 SWAP1 DIV PUSH12 0xFFFFFFFFFFFFFFFFFFFFFFFF AND CALLVALUE LT ISZERO PUSH2 0x93A JUMPI PUSH1 0x40 MLOAD PUSH32 0x8C379A000000000000000000000000000000000000000000000000000000000 DUP2 MSTORE PUSH1 0x20 PUSH1 0x4 DUP3 ADD MSTORE PUSH1 0x1D PUSH1 0x24 DUP3 ADD MSTORE PUSH32 0x5A7520676572696E6765722045696E7A61686C756E6773626574726167000000 PUSH1 0x44 DUP3 ADD MSTORE PUSH1 0x64 ADD PUSH2 0x5C4 JUMP JUMPDEST CALLER PUSH0 SWAP1 DUP2 MSTORE PUSH1 0x5 PUSH1 0x20 MSTORE PUSH1 0x40 SWAP1 KECCAK256 SLOAD PUSH1 0xFF AND ISZERO PUSH2 0x9D9 JUMPI PUSH1 0x40 MLOAD PUSH32 0x8C379A000000000000000000000000000000000000000000000000000000000 DUP2 MSTORE PUSH1 0x20 PUSH1 0x4 DUP3 ADD MSTORE PUSH1 0x22 PUSH1 0x24 DUP3 ADD MSTORE PUSH32 0x4265726569747320616C73204D6974737069656C657220726567697374726965 PUSH1 0x44 DUP3 ADD MSTORE PUSH32 0x7274000000000000000000000000000000000000000000000000000000000000 PUSH1 0x64 DUP3 ADD MSTORE PUSH1 0x84 ADD PUSH2 0x5C4 JUMP JUMPDEST PUSH1 0x2 SLOAD PUSH1 0x8 SLOAD PUSH2 0xFFFF SWAP2 DUP3 AND SWAP2 AND LT PUSH2 0xA4E JUMPI PUSH1 0x40 MLOAD PUSH32 0x8C379A000000000000000000000000000000000000000000000000000000000 DUP2 MSTORE PUSH1 0x20 PUSH1 0x4 DUP3 ADD DUP2 SWAP1 MSTORE PUSH1 0x24 DUP3 ADD MSTORE PUSH32 0x4D6178696D616C65205465696C6E65686D65727A61686C206572726569636874 PUSH1 0x44 DUP3 ADD MSTORE PUSH1 0x64 ADD PUSH2 0x5C4 JUMP JUMPDEST PUSH1 0x8 SLOAD PUSH3 0x10000 SWAP1 DIV PUSH6 0xFFFFFFFFFFFF AND ISZERO PUSH2 0xAC6 JUMPI PUSH1 0x40 MLOAD PUSH32 0x8C379A000000000000000000000000000000000000000000000000000000000 DUP2 MSTORE PUSH1 0x20 PUSH1 0x4 DUP3 ADD MSTORE PUSH1 0x1F PUSH1 0x24 DUP3 ADD MSTORE PUSH32 0x476577696E6E20777572646520626572656974732065696E67657A61686C7400 PUSH1 0x44 DUP3 ADD MSTORE PUSH1 0x64 ADD PUSH2 0x5C4 JUMP JUMPDEST PUSH1 0x8 SLOAD PUSH10 0x1000000000000000000 SWAP1 DIV PUSH1 0xFF AND ISZERO PUSH2 0xAF8 JUMPI CALLER PUSH0 SWAP1 DUP2 MSTORE PUSH1 0x9 PUSH1 0x20 MSTORE PUSH1 0x40 SWAP1 KECCAK256 SLOAD PUSH1 0xFF AND PUSH2 0xAF8 JUMPI PUSH0 DUP1 REVERT JUMPDEST PUSH1 0x2 SLOAD PUSH0 SWAP1 PUSH2 0xB27 SWAP1 PUSH15 0x10000000000000000000000000000 SWAP1 DIV PUSH12 0xFFFFFFFFFFFFFFFFFFFFFFFF AND CALLVALUE PUSH2 0x1C8D JUMP JUMPDEST CALLER PUSH0 SWAP1 DUP2 MSTORE PUSH1 0x5 PUSH1 0x20 MSTORE PUSH1 0x40 DUP2 KECCAK256 DUP1 SLOAD PUSH32 0xFFFFFFFFFFFFFFFFFFFFFFFFFFFFFFFFFFFFFFFFFFFFFFFFFFFFFFFFFFFFFF00 AND PUSH1 0x1 OR SWAP1 SSTORE PUSH1 0x8 DUP1 SLOAD SWAP3 SWAP4 POP PUSH2 0xFFFF SWAP1 SWAP3 AND SWAP2 SWAP1 PUSH2 0xB76 DUP4 PUSH2 0x1CA6 JUMP JUMPDEST SWAP2 SWAP1 PUSH2 0x100 EXP DUP2 SLOAD DUP2 PUSH2 0xFFFF MUL NOT AND SWAP1 DUP4 PUSH2 0xFFFF AND MUL OR SWAP1 SSTORE POP POP PUSH0 DUP2 GT ISZERO PUSH2 0xBC5 JUMPI PUSH1 0x40 MLOAD CALLER SWAP1 DUP3 ISZERO PUSH2 0x8FC MUL SWAP1 DUP4 SWAP1 PUSH0 DUP2 DUP2 DUP2 DUP6 DUP9 DUP9 CALL SWAP4 POP POP POP POP ISZERO DUP1 ISZERO PUSH2 0xBC3 JUMPI RETURNDATASIZE PUSH0 DUP1 RETURNDATACOPY RETURNDATASIZE PUSH0 REVERT JUMPDEST POP JUMPDEST POP JUMP JUMPDEST CALLER PUSH0 SWAP1 DUP2 MSTORE PUSH1 0x5 PUSH1 0x20 MSTORE PUSH1 0x40 SWAP1 KECCAK256 SLOAD PUSH1 0xFF AND PUSH2 0xC66 JUMPI PUSH1 0x40 MLOAD PUSH32 0x8C379A000000000000000000000000000000000000000000000000000000000 DUP2 MSTORE PUSH1 0x20 PUSH1 0x4 DUP3 ADD MSTORE PUSH1 0x32 PUSH1 0x24 DUP3 ADD MSTORE PUSH32 0x4E75722065696E204D6974737069656C6572206B616E6E206469657365204675 PUSH1 0x44 DUP3 ADD MSTORE PUSH32 0x6E6B74696F6E206175736675656872656E2E0000000000000000000000000000 PUSH1 0x64 DUP3 ADD MSTORE PUSH1 0x84 ADD PUSH2 0x5C4 JUMP JUMPDEST PUSH1 0xA SLOAD PUSH1 0xFF AND ISZERO PUSH2 0xCD3 JUMPI PUSH1 0x40 MLOAD PUSH32 0x8C379A000000000000000000000000000000000000000000000000000000000 DUP2 MSTORE PUSH1 0x20 PUSH1 0x4 DUP3 ADD MSTORE PUSH1 0xE PUSH1 0x24 DUP3 ADD MSTORE PUSH32 0x4E6F2072652D656E7472616E6379000000000000000000000000000000000000 PUSH1 0x44 DUP3 ADD MSTORE PUSH1 0x64 ADD PUSH2 0x5C4 JUMP JUMPDEST PUSH1 0xA DUP1 SLOAD PUSH32 0xFFFFFFFFFFFFFFFFFFFFFFFFFFFFFFFFFFFFFFFFFFFFFFFFFFFFFFFFFFFFFF00 AND PUSH1 0x1 OR SWAP1 SSTORE PUSH1 0x8 SLOAD PUSH9 0x10000000000000000 SWAP1 DIV PUSH1 0xFF AND PUSH2 0xD9C JUMPI PUSH1 0x40 MLOAD PUSH32 0x8C379A000000000000000000000000000000000000000000000000000000000 DUP2 MSTORE PUSH1 0x20 PUSH1 0x4 DUP3 ADD MSTORE PUSH1 0x27 PUSH1 0x24 DUP3 ADD MSTORE PUSH32 0x476577696E6E206B616E6E206E6F6368206E696368742061626765686F6C7420 PUSH1 0x44 DUP3 ADD MSTORE PUSH32 0x77657264656E2E00000000000000000000000000000000000000000000000000 PUSH1 0x64 DUP3 ADD MSTORE PUSH1 0x84 ADD PUSH2 0x5C4 JUMP JUMPDEST PUSH1 0x8 SLOAD PUSH3 0x10000 SWAP1 DIV PUSH6 0xFFFFFFFFFFFF AND PUSH2 0xE39 JUMPI PUSH1 0x40 MLOAD PUSH32 0x8C379A000000000000000000000000000000000000000000000000000000000 DUP2 MSTORE PUSH1 0x20 PUSH1 0x4 DUP3 ADD MSTORE PUSH1 0x26 PUSH1 0x24 DUP3 ADD MSTORE PUSH32 0x4B65696E20476577696E6E207A7572204175737A61686C756E67207665726675 PUSH1 0x44 DUP3 ADD MSTORE PUSH32 0x65676261722E0000000000000000000000000000000000000000000000000000 PUSH1 0x64 DUP3 ADD MSTORE PUSH1 0x84 ADD PUSH2 0x5C4 JUMP JUMPDEST CALLER PUSH0 SWAP1 DUP2 MSTORE PUSH1 0x6 PUSH1 0x20 MSTORE PUSH1 0x40 SWAP1 KECCAK256 SLOAD PUSH1 0xFF AND ISZERO PUSH2 0xEB2 JUMPI PUSH1 0x40 MLOAD PUSH32 0x8C379A000000000000000000000000000000000000000000000000000000000 DUP2 MSTORE PUSH1 0x20 PUSH1 0x4 DUP3 ADD MSTORE PUSH1 0x1E PUSH1 0x24 DUP3 ADD MSTORE PUSH32 0x476577696E6E20777572646520626572656974732061626765686F6C742E0000 PUSH1 0x44 DUP3 ADD MSTORE PUSH1 0x64 ADD PUSH2 0x5C4 JUMP JUMPDEST CALLER PUSH0 DUP2 DUP2 MSTORE PUSH1 0x6 PUSH1 0x20 MSTORE PUSH1 0x40 DUP1 DUP3 KECCAK256 DUP1 SLOAD PUSH1 0x1 PUSH32 0xFFFFFFFFFFFFFFFFFFFFFFFFFFFFFFFFFFFFFFFFFFFFFFFFFFFFFFFFFFFFFF00 SWAP1 SWAP2 AND OR SWAP1 SSTORE PUSH1 0x8 SLOAD SWAP1 MLOAD PUSH3 0x10000 SWAP1 SWAP2 DIV PUSH6 0xFFFFFFFFFFFF AND SWAP3 SWAP2 PUSH2 0x8FC DUP5 ISZERO MUL SWAP2 DUP5 SWAP2 DUP2 DUP2 DUP2 DUP6 DUP9 DUP9 CALL SWAP4 POP POP POP POP ISZERO DUP1 ISZERO PUSH2 0xF26 JUMPI RETURNDATASIZE PUSH0 DUP1 RETURNDATACOPY RETURNDATASIZE PUSH0 REVERT JUMPDEST POP POP PUSH1 0xA DUP1 SLOAD PUSH32 0xFFFFFFFFFFFFFFFFFFFFFFFFFFFFFFFFFFFFFFFFFFFFFFFFFFFFFFFFFFFFFF00 AND SWAP1 SSTORE JUMP JUMPDEST PUSH1 0x3 DUP1 SLOAD PUSH2 0xF5F SWAP1 PUSH2 0x1CC6 JUMP JUMPDEST DUP1 PUSH1 0x1F ADD PUSH1 0x20 DUP1 SWAP2 DIV MUL PUSH1 0x20 ADD PUSH1 0x40 MLOAD SWAP1 DUP2 ADD PUSH1 0x40 MSTORE DUP1 SWAP3 SWAP2 SWAP1 DUP2 DUP2 MSTORE PUSH1 0x20 ADD DUP3 DUP1 SLOAD PUSH2 0xF8B SWAP1 PUSH2 0x1CC6 JUMP JUMPDEST DUP1 ISZERO PUSH2 0xFD6 JUMPI DUP1 PUSH1 0x1F LT PUSH2 0xFAD JUMPI PUSH2 0x100 DUP1 DUP4 SLOAD DIV MUL DUP4 MSTORE SWAP2 PUSH1 0x20 ADD SWAP2 PUSH2 0xFD6 JUMP JUMPDEST DUP3 ADD SWAP2 SWAP1 PUSH0 MSTORE PUSH1 0x20 PUSH0 KECCAK256 SWAP1 JUMPDEST DUP2 SLOAD DUP2 MSTORE SWAP1 PUSH1 0x1 ADD SWAP1 PUSH1 0x20 ADD DUP1 DUP4 GT PUSH2 0xFB9 JUMPI DUP3 SWAP1 SUB PUSH1 0x1F AND DUP3 ADD SWAP2 JUMPDEST POP POP POP POP POP DUP2 JUMP JUMPDEST CALLER PUSH0 SWAP1 DUP2 MSTORE PUSH1 0x5 PUSH1 0x20 MSTORE PUSH1 0x40 SWAP1 KECCAK256 SLOAD PUSH1 0xFF AND PUSH2 0x107C JUMPI PUSH1 0x40 MLOAD PUSH32 0x8C379A000000000000000000000000000000000000000000000000000000000 DUP2 MSTORE PUSH1 0x20 PUSH1 0x4 DUP3 ADD MSTORE PUSH1 0x32 PUSH1 0x24 DUP3 ADD MSTORE PUSH32 0x4E75722065696E204D6974737069656C6572206B616E6E206469657365204675 PUSH1 0x44 DUP3 ADD MSTORE PUSH32 0x6E6B74696F6E206175736675656872656E2E0000000000000000000000000000 PUSH1 0x64 DUP3 ADD MSTORE PUSH1 0x84 ADD PUSH2 0x5C4 JUMP JUMPDEST PUSH1 0xA SLOAD PUSH1 0xFF AND ISZERO PUSH2 0x10E9 JUMPI PUSH1 0x40 MLOAD PUSH32 0x8C379A000000000000000000000000000000000000000000000000000000000 DUP2 MSTORE PUSH1 0x20 PUSH1 0x4 DUP3 ADD MSTORE PUSH1 0xE PUSH1 0x24 DUP3 ADD MSTORE PUSH32 0x4E6F2072652D656E7472616E6379000000000000000000000000000000000000 PUSH1 0x44 DUP3 ADD MSTORE PUSH1 0x64 ADD PUSH2 0x5C4 JUMP JUMPDEST PUSH1 0xA DUP1 SLOAD PUSH32 0xFFFFFFFFFFFFFFFFFFFFFFFFFFFFFFFFFFFFFFFFFFFFFFFFFFFFFFFFFFFFFF00 AND PUSH1 0x1 OR SWAP1 DUP2 SWAP1 SSTORE PUSH2 0x100 SWAP1 DIV PUSH1 0xFF AND PUSH2 0x11AA JUMPI PUSH1 0x40 MLOAD PUSH32 0x8C379A000000000000000000000000000000000000000000000000000000000 DUP2 MSTORE PUSH1 0x20 PUSH1 0x4 DUP3 ADD MSTORE PUSH1 0x22 PUSH1 0x24 DUP3 ADD MSTORE PUSH32 0x47656D65696E736368616674206D7573732061756667656C6F65737420736569 PUSH1 0x44 DUP3 ADD MSTORE PUSH32 0x6E2E000000000000000000000000000000000000000000000000000000000000 PUSH1 0x64 DUP3 ADD MSTORE PUSH1 0x84 ADD PUSH2 0x5C4 JUMP JUMPDEST CALLER PUSH0 SWAP1 DUP2 MSTORE PUSH1 0x7 PUSH1 0x20 MSTORE PUSH1 0x40 SWAP1 KECCAK256 SLOAD PUSH1 0xFF AND ISZERO PUSH2 0x1249 JUMPI PUSH1 0x40 MLOAD PUSH32 0x8C379A000000000000000000000000000000000000000000000000000000000 DUP2 MSTORE PUSH1 0x20 PUSH1 0x4 DUP3 ADD MSTORE PUSH1 0x25 PUSH1 0x24 DUP3 ADD MSTORE PUSH32 0x45696E7361747A2077757264652062657265697473207A75727565636B67657A PUSH1 0x44 DUP3 ADD MSTORE PUSH32 0x61686C742E000000000000000000000000000000000000000000000000000000 PUSH1 0x64 DUP3 ADD MSTORE PUSH1 0x84 ADD PUSH2 0x5C4 JUMP JUMPDEST CALLER PUSH0 DUP2 DUP2 MSTORE PUSH1 0x7 PUSH1 0x20 MSTORE PUSH1 0x40 DUP1 DUP3 KECCAK256 DUP1 SLOAD PUSH1 0x1 PUSH32 0xFFFFFFFFFFFFFFFFFFFFFFFFFFFFFFFFFFFFFFFFFFFFFFFFFFFFFFFFFFFFFF00 SWAP1 SWAP2 AND OR SWAP1 SSTORE PUSH1 0x2 SLOAD SWAP1 MLOAD PUSH15 0x10000000000000000000000000000 SWAP1 SWAP2 DIV PUSH12 0xFFFFFFFFFFFFFFFFFFFFFFFF AND SWAP3 SWAP1 DUP4 SWAP1 DUP4 DUP2 DUP2 DUP2 DUP6 DUP8 GAS CALL SWAP3 POP POP POP RETURNDATASIZE DUP1 PUSH0 DUP2 EQ PUSH2 0x12E3 JUMPI PUSH1 0x40 MLOAD SWAP2 POP PUSH1 0x1F NOT PUSH1 0x3F RETURNDATASIZE ADD AND DUP3 ADD PUSH1 0x40 MSTORE RETURNDATASIZE DUP3 MSTORE RETURNDATASIZE PUSH0 PUSH1 0x20 DUP5 ADD RETURNDATACOPY PUSH2 0x12E8 JUMP JUMPDEST PUSH1 0x60 SWAP2 POP JUMPDEST POP POP SWAP1 POP DUP1 PUSH2 0xF26 JUMPI PUSH1 0x40 MLOAD PUSH32 0x8C379A000000000000000000000000000000000000000000000000000000000 DUP2 MSTORE PUSH1 0x20 PUSH1 0x4 DUP3 ADD MSTORE PUSH1 0x2A PUSH1 0x24 DUP3 ADD MSTORE PUSH32 0x527565636B7A61686C756E67206465732045696E7361747A6573206665686C67 PUSH1 0x44 DUP3 ADD MSTORE PUSH32 0x657363686C6167656E2E00000000000000000000000000000000000000000000 PUSH1 0x64 DUP3 ADD MSTORE PUSH1 0x84 ADD PUSH2 0x5C4 JUMP JUMPDEST PUSH0 SLOAD PUSH20 0xFFFFFFFFFFFFFFFFFFFFFFFFFFFFFFFFFFFFFFFF AND CALLER EQ PUSH2 0x141F JUMPI PUSH1 0x40 MLOAD PUSH32 0x8C379A000000000000000000000000000000000000000000000000000000000 DUP2 MSTORE PUSH1 0x20 PUSH1 0x4 DUP3 ADD MSTORE PUSH1 0x30 PUSH1 0x24 DUP3 ADD MSTORE PUSH32 0x4E75722064657220477275656E646572206B616E6E2064696573652046756E6B PUSH1 0x44 DUP3 ADD MSTORE PUSH32 0x74696F6E206175736675656872656E2E00000000000000000000000000000000 PUSH1 0x64 DUP3 ADD MSTORE PUSH1 0x84 ADD PUSH2 0x5C4 JUMP JUMPDEST PUSH1 0x8 SLOAD PUSH9 0x10000000000000000 SWAP1 DIV PUSH1 0xFF AND ISZERO PUSH2 0x14BE JUMPI PUSH1 0x40 MLOAD PUSH32 0x8C379A000000000000000000000000000000000000000000000000000000000 DUP2 MSTORE PUSH1 0x20 PUSH1 0x4 DUP3 ADD MSTORE PUSH1 0x22 PUSH1 0x24 DUP3 ADD MSTORE PUSH32 0x476577696E6E206D757373206E6F63682061757367657A61686C742077657264 PUSH1 0x44 DUP3 ADD MSTORE PUSH32 0x656E000000000000000000000000000000000000000000000000000000000000 PUSH1 0x64 DUP3 ADD MSTORE PUSH1 0x84 ADD PUSH2 0x5C4 JUMP JUMPDEST PUSH1 0xA SLOAD PUSH2 0x100 SWAP1 DIV PUSH1 0xFF AND ISZERO PUSH2 0x1530 JUMPI PUSH1 0x40 MLOAD PUSH32 0x8C379A000000000000000000000000000000000000000000000000000000000 DUP2 MSTORE PUSH1 0x20 PUSH1 0x4 DUP3 ADD MSTORE PUSH1 0x1F PUSH1 0x24 DUP3 ADD MSTORE PUSH32 0x47656D65696E73636861667420626572656974732061756667656C6F65737400 PUSH1 0x44 DUP3 ADD MSTORE PUSH1 0x64 ADD PUSH2 0x5C4 JUMP JUMPDEST PUSH1 0xA DUP1 SLOAD PUSH32 0xFFFFFFFFFFFFFFFFFFFFFFFFFFFFFFFFFFFFFFFFFFFFFFFFFFFFFFFFFFFF00FF AND PUSH2 0x100 OR SWAP1 SSTORE JUMP JUMPDEST PUSH0 SLOAD PUSH20 0xFFFFFFFFFFFFFFFFFFFFFFFFFFFFFFFFFFFFFFFF AND CALLER EQ PUSH2 0x1604 JUMPI PUSH1 0x40 MLOAD PUSH32 0x8C379A000000000000000000000000000000000000000000000000000000000 DUP2 MSTORE PUSH1 0x20 PUSH1 0x4 DUP3 ADD MSTORE PUSH1 0x30 PUSH1 0x24 DUP3 ADD MSTORE PUSH32 0x4E75722064657220477275656E646572206B616E6E2064696573652046756E6B PUSH1 0x44 DUP3 ADD MSTORE PUSH32 0x74696F6E206175736675656872656E2E00000000000000000000000000000000 PUSH1 0x64 DUP3 ADD MSTORE PUSH1 0x84 ADD PUSH2 0x5C4 JUMP JUMPDEST PUSH0 CALLVALUE GT PUSH2 0x1693 JUMPI PUSH1 0x40 MLOAD PUSH32 0x8C379A000000000000000000000000000000000000000000000000000000000 DUP2 MSTORE PUSH1 0x20 PUSH1 0x4 DUP3 ADD MSTORE PUSH1 0x2A PUSH1 0x24 DUP3 ADD MSTORE PUSH32 0x45696E7A61686C756E6773626574726167206D7573732067726F657373657220 PUSH1 0x44 DUP3 ADD MSTORE PUSH32 0x616C732030207365696E00000000000000000000000000000000000000000000 PUSH1 0x64 DUP3 ADD MSTORE PUSH1 0x84 ADD PUSH2 0x5C4 JUMP JUMPDEST PUSH1 0x8 SLOAD PUSH3 0x10000 SWAP1 DIV PUSH6 0xFFFFFFFFFFFF AND ISZERO PUSH2 0x170B JUMPI PUSH1 0x40 MLOAD PUSH32 0x8C379A000000000000000000000000000000000000000000000000000000000 DUP2 MSTORE PUSH1 0x20 PUSH1 0x4 DUP3 ADD DUP2 SWAP1 MSTORE PUSH1 0x24 DUP3 ADD MSTORE PUSH32 0x476577696E6E20777572646520626572656974732065696E67657A61686C742E PUSH1 0x44 DUP3 ADD MSTORE PUSH1 0x64 ADD PUSH2 0x5C4 JUMP JUMPDEST PUSH1 0x8 SLOAD PUSH2 0x171C SWAP1 PUSH2 0xFFFF AND DUP3 PUSH2 0x1D17 JUMP JUMPDEST PUSH1 0x8 DUP1 SLOAD PUSH32 0xFFFFFFFFFFFFFFFFFFFFFFFFFFFFFFFFFFFFFFFFFFFFFF00FFFFFFFFFFFFFFFF PUSH6 0xFFFFFFFFFFFF SWAP4 SWAP1 SWAP4 AND PUSH3 0x10000 MUL SWAP3 SWAP1 SWAP3 AND PUSH32 0xFFFFFFFFFFFFFFFFFFFFFFFFFFFFFFFFFFFFFFFFFFFFFF00000000000000FFFF SWAP1 SWAP3 AND SWAP2 SWAP1 SWAP2 OR PUSH9 0x10000000000000000 OR SWAP1 SSTORE POP JUMP JUMPDEST PUSH1 0xA SLOAD PUSH1 0xFF AND ISZERO PUSH2 0x17FA JUMPI PUSH1 0x40 MLOAD PUSH32 0x8C379A000000000000000000000000000000000000000000000000000000000 DUP2 MSTORE PUSH1 0x20 PUSH1 0x4 DUP3 ADD MSTORE PUSH1 0xE PUSH1 0x24 DUP3 ADD MSTORE PUSH32 0x4E6F2072652D656E7472616E6379000000000000000000000000000000000000 PUSH1 0x44 DUP3 ADD MSTORE PUSH1 0x64 ADD PUSH2 0x5C4 JUMP JUMPDEST PUSH1 0xA DUP1 SLOAD PUSH32 0xFFFFFFFFFFFFFFFFFFFFFFFFFFFFFFFFFFFFFFFFFFFFFFFFFFFFFFFFFFFFFF00 AND PUSH1 0x1 OR SWAP1 SSTORE PUSH0 SLOAD CALLER PUSH20 0xFFFFFFFFFFFFFFFFFFFFFFFFFFFFFFFFFFFFFFFF SWAP1 SWAP2 AND EQ PUSH2 0x18CD JUMPI PUSH1 0x40 MLOAD PUSH32 0x8C379A000000000000000000000000000000000000000000000000000000000 DUP2 MSTORE PUSH1 0x20 PUSH1 0x4 DUP3 ADD MSTORE PUSH1 0x30 PUSH1 0x24 DUP3 ADD MSTORE PUSH32 0x4E75722064657220477275656E646572206B616E6E2064696573652046756E6B PUSH1 0x44 DUP3 ADD MSTORE PUSH32 0x74696F6E206175736675656872656E2E00000000000000000000000000000000 PUSH1 0x64 DUP3 ADD MSTORE PUSH1 0x84 ADD PUSH2 0x5C4 JUMP JUMPDEST PUSH1 0x8 SLOAD PUSH9 0x10000000000000000 SWAP1 DIV PUSH1 0xFF AND ISZERO PUSH2 0x196C JUMPI PUSH1 0x40 MLOAD PUSH32 0x8C379A000000000000000000000000000000000000000000000000000000000 DUP2 MSTORE PUSH1 0x20 PUSH1 0x4 DUP3 ADD MSTORE PUSH1 0x38 PUSH1 0x24 DUP3 ADD MSTORE PUSH32 0x476577696E6E20777572646520626572656974732065696E67657A61686C7420 PUSH1 0x44 DUP3 ADD MSTORE PUSH32 0x756E64206B616E6E2061626765686F6C742077657264656E0000000000000000 PUSH1 0x64 DUP3 ADD MSTORE PUSH1 0x84 ADD PUSH2 0x5C4 JUMP JUMPDEST PUSH0 DUP1 SLOAD PUSH1 0x40 MLOAD SELFBALANCE SWAP3 PUSH20 0xFFFFFFFFFFFFFFFFFFFFFFFFFFFFFFFFFFFFFFFF SWAP1 SWAP3 AND SWAP2 DUP4 ISZERO PUSH2 0x8FC MUL SWAP2 DUP5 SWAP2 DUP2 DUP2 DUP2 DUP6 DUP9 DUP9 CALL SWAP4 POP POP POP POP ISZERO DUP1 ISZERO PUSH2 0xF26 JUMPI RETURNDATASIZE PUSH0 DUP1 RETURNDATACOPY RETURNDATASIZE PUSH0 REVERT JUMPDEST PUSH1 0x1 DUP1 SLOAD PUSH2 0xF5F SWAP1 PUSH2 0x1CC6 JUMP JUMPDEST PUSH0 SLOAD PUSH20 0xFFFFFFFFFFFFFFFFFFFFFFFFFFFFFFFFFFFFFFFF AND CALLER EQ PUSH2 0x1A64 JUMPI PUSH1 0x40 MLOAD PUSH32 0x8C379A000000000000000000000000000000000000000000000000000000000 DUP2 MSTORE PUSH1 0x20 PUSH1 0x4 DUP3 ADD MSTORE PUSH1 0x30 PUSH1 0x24 DUP3 ADD MSTORE PUSH32 0x4E75722064657220477275656E646572206B616E6E2064696573652046756E6B PUSH1 0x44 DUP3 ADD MSTORE PUSH32 0x74696F6E206175736675656872656E2E00000000000000000000000000000000 PUSH1 0x64 DUP3 ADD MSTORE PUSH1 0x84 ADD PUSH2 0x5C4 JUMP JUMPDEST PUSH1 0x8 SLOAD PUSH2 0xFFFF AND ISZERO PUSH2 0x1B1E JUMPI PUSH1 0x40 MLOAD PUSH32 0x8C379A000000000000000000000000000000000000000000000000000000000 DUP2 MSTORE PUSH1 0x20 PUSH1 0x4 DUP3 ADD MSTORE PUSH1 0x54 PUSH1 0x24 DUP3 ADD MSTORE PUSH32 0x457320676962742062657265697473204D6974737069656C65722E2041656E64 PUSH1 0x44 DUP3 ADD MSTORE PUSH32 0x6572756E672064657220416E7A61686C20616E204D6974737069656C65726E20 PUSH1 0x64 DUP3 ADD MSTORE PUSH32 0x6E69636874206D656872206D6F65676C6963682E000000000000000000000000 PUSH1 0x84 DUP3 ADD MSTORE PUSH1 0xA4 ADD PUSH2 0x5C4 JUMP JUMPDEST PUSH1 0x2 DUP1 SLOAD PUSH32 0xFFFFFFFFFFFFFFFFFFFFFFFFFFFFFFFFFFFFFFFFFFFFFFFFFFFFFFFFFFFF0000 AND PUSH2 0xFFFF SWAP3 SWAP1 SWAP3 AND SWAP2 SWAP1 SWAP2 OR SWAP1 SSTORE JUMP JUMPDEST PUSH0 PUSH1 0x20 DUP3 DUP5 SUB SLT ISZERO PUSH2 0x1B63 JUMPI PUSH0 DUP1 REVERT JUMPDEST DUP2 CALLDATALOAD PUSH4 0xFFFFFFFF DUP2 AND DUP2 EQ PUSH2 0x1B76 JUMPI PUSH0 DUP1 REVERT JUMPDEST SWAP4 SWAP3 POP POP POP JUMP JUMPDEST PUSH0 PUSH1 0x20 DUP3 DUP5 SUB SLT ISZERO PUSH2 0x1B8D JUMPI PUSH0 DUP1 REVERT JUMPDEST DUP2 CALLDATALOAD PUSH20 0xFFFFFFFFFFFFFFFFFFFFFFFFFFFFFFFFFFFFFFFF DUP2 AND DUP2 EQ PUSH2 0x1B76 JUMPI PUSH0 DUP1 REVERT JUMPDEST PUSH0 PUSH1 0x20 DUP1 DUP4 MSTORE DUP4 MLOAD DUP1 PUSH1 0x20 DUP6 ADD MSTORE PUSH0 JUMPDEST DUP2 DUP2 LT ISZERO PUSH2 0x1BDC JUMPI DUP6 DUP2 ADD DUP4 ADD MLOAD DUP6 DUP3 ADD PUSH1 0x40 ADD MSTORE DUP3 ADD PUSH2 0x1BC0 JUMP JUMPDEST POP PUSH0 PUSH1 0x40 DUP3 DUP7 ADD ADD MSTORE PUSH1 0x40 PUSH32 0xFFFFFFFFFFFFFFFFFFFFFFFFFFFFFFFFFFFFFFFFFFFFFFFFFFFFFFFFFFFFFFE0 PUSH1 0x1F DUP4 ADD AND DUP6 ADD ADD SWAP3 POP POP POP SWAP3 SWAP2 POP POP JUMP JUMPDEST PUSH0 PUSH1 0x20 DUP3 DUP5 SUB SLT ISZERO PUSH2 0x1C2A JUMPI PUSH0 DUP1 REVERT JUMPDEST DUP2 CALLDATALOAD PUSH6 0xFFFFFFFFFFFF DUP2 AND DUP2 EQ PUSH2 0x1B76 JUMPI PUSH0 DUP1 REVERT JUMPDEST PUSH0 PUSH1 0x20 DUP3 DUP5 SUB SLT ISZERO PUSH2 0x1C4F JUMPI PUSH0 DUP1 REVERT JUMPDEST DUP2 CALLDATALOAD PUSH2 0xFFFF DUP2 AND DUP2 EQ PUSH2 0x1B76 JUMPI PUSH0 DUP1 REVERT JUMPDEST PUSH32 0x4E487B7100000000000000000000000000000000000000000000000000000000 PUSH0 MSTORE PUSH1 0x11 PUSH1 0x4 MSTORE PUSH1 0x24 PUSH0 REVERT JUMPDEST DUP2 DUP2 SUB DUP2 DUP2 GT ISZERO PUSH2 0x1CA0 JUMPI PUSH2 0x1CA0 PUSH2 0x1C60 JUMP JUMPDEST SWAP3 SWAP2 POP POP JUMP JUMPDEST PUSH0 PUSH2 0xFFFF DUP1 DUP4 AND DUP2 DUP2 SUB PUSH2 0x1CBC JUMPI PUSH2 0x1CBC PUSH2 0x1C60 JUMP JUMPDEST PUSH1 0x1 ADD SWAP4 SWAP3 POP POP POP JUMP JUMPDEST PUSH1 0x1 DUP2 DUP2 SHR SWAP1 DUP3 AND DUP1 PUSH2 0x1CDA JUMPI PUSH1 0x7F DUP3 AND SWAP2 POP JUMPDEST PUSH1 0x20 DUP3 LT DUP2 SUB PUSH2 0x1D11 JUMPI PUSH32 0x4E487B7100000000000000000000000000000000000000000000000000000000 PUSH0 MSTORE PUSH1 0x22 PUSH1 0x4 MSTORE PUSH1 0x24 PUSH0 REVERT JUMPDEST POP SWAP2 SWAP1 POP JUMP JUMPDEST PUSH0 PUSH6 0xFFFFFFFFFFFF DUP1 DUP5 AND DUP1 PUSH2 0x1D54 JUMPI PUSH32 0x4E487B7100000000000000000000000000000000000000000000000000000000 PUSH0 MSTORE PUSH1 0x12 PUSH1 0x4 MSTORE PUSH1 0x24 PUSH0 REVERT JUMPDEST SWAP3 AND SWAP2 SWAP1 SWAP2 DIV SWAP3 SWAP2 POP POP JUMP INVALID LOG2 PUSH5 0x6970667358 0x22 SLT KECCAK256 0xC5 DUP5 0x22 0xA8 BLOCKHASH DIV DUP16 0x27 0xD2 DUP16 DUP8 PUSH10 0x61A624B69048BB8294DE PUSH5 0x222F44D174 PUSH3 0x5B847 PUSH5 0x736F6C6343 STOP ADDMOD OR STOP CALLER "},"gasEstimates":{"creation":{"codeDepositCost":"1514800","executionCost":"infinite","totalCost":"infinite"},"external":{"anzahlMitspielerAendern(uint16)":"28814","anzahlTeilnehmerAktuell()":"2358","aufgeloest()":"2408","auszahlung()":"2348","einsatzAbholen()":"infinite","einsatzZurueckGezahlt(address)":"2526","einsatzZurueckholen()":"infinite","erlaubteMitspielerAdresseHinzufuegen(address)":"28888","erlaubterMitspieler(address)":"2591","gemeinschaftAufloesen()":"30810","gewinnAbholen()":"infinite","gewinnAusgezahlt(address)":"2549","gewinnEinzahlen(uint48)":"31060","gewinnKannAbgeholtWerden()":"2411","gewinnProMitspieler()":"2392","gruender()":"2378","maxTeilnehmerAnzahl()":"2379","mitmachen()":"infinite","mitspieler(address)":"2571","nurErlaubteMitspieler()":"2409","preisLottoschein()":"2380","preisLottoscheinAendern(uint32)":"28824","preisProMitspieler()":"2358","spielauftragsNummer()":"infinite","tippgemeinschaftsName()":"infinite"}},"methodIdentifiers":{"anzahlMitspielerAendern(uint16)":"e068561a","anzahlTeilnehmerAktuell()":"3babb15a","aufgeloest()":"e34ad1d7","auszahlung()":"084263f5","einsatzAbholen()":"c88c8b28","einsatzZurueckGezahlt(address)":"bb68a67f","einsatzZurueckholen()":"a299f171","erlaubteMitspielerAdresseHinzufuegen(address)":"43767832","erlaubterMitspieler(address)":"e86c5692","gemeinschaftAufloesen()":"ab76211e","gewinnAbholen()":"833e92cb","gewinnAusgezahlt(address)":"91243239","gewinnEinzahlen(uint48)":"c6ca9d19","gewinnKannAbgeholtWerden()":"2340983f","gewinnProMitspieler()":"0f085e50","gruender()":"ad2c046c","maxTeilnehmerAnzahl()":"70a41bc0","mitmachen()":"526024ea","mitspieler(address)":"36927060","nurErlaubteMitspieler()":"b08c7076","preisLottoschein()":"3f0f5d51","preisLottoscheinAendern(uint32)":"31c45120","preisProMitspieler()":"2df368a5","spielauftragsNummer()":"8acb4624","tippgemeinschaftsName()":"d27d06c0"}},"storageLayout":{"storage":[{"astId":160,"contract":"Lottogemeinschaft.sol:Lottogemeinschaft","label":"gruender","offset":0,"slot":"0","type":"t_address"},{"astId":162,"contract":"Lottogemeinschaft.sol:Lottogemeinschaft","label":"tippgemeinschaftsName","offset":0,"slot":"1","type":"t_string_storage"},{"astId":164,"contract":"Lottogemeinschaft.sol:Lottogemeinschaft","label":"maxTeilnehmerAnzahl","offset":0,"slot":"2","type":"t_uint16"},{"astId":166,"contract":"Lottogemeinschaft.sol:Lottogemeinschaft","label":"preisLottoschein","offset":2,"slot":"2","type":"t_uint96"},{"astId":168,"contract":"Lottogemeinschaft.sol:Lottogemeinschaft","label":"preisProMitspieler","offset":14,"slot":"2","type":"t_uint96"},{"astId":170,"contract":"Lottogemeinschaft.sol:Lottogemeinschaft","label":"spielauftragsNummer","offset":0,"slot":"3","type":"t_string_storage"},{"astId":172,"contract":"Lottogemeinschaft.sol:Lottogemeinschaft","label":"auszahlung","offset":0,"slot":"4","type":"t_uint96"},{"astId":176,"contract":"Lottogemeinschaft.sol:Lottogemeinschaft","label":"mitspieler","offset":0,"slot":"5","type":"t_mapping(t_address,t_bool)"},{"astId":180,"contract":"Lottogemeinschaft.sol:Lottogemeinschaft","label":"gewinnAusgezahlt","offset":0,"slot":"6","type":"t_mapping(t_address,t_bool)"},{"astId":184,"contract":"Lottogemeinschaft.sol:Lottogemeinschaft","label":"einsatzZurueckGezahlt","offset":0,"slot":"7","type":"t_mapping(t_address,t_bool)"},{"astId":186,"contract":"Lottogemeinschaft.sol:Lottogemeinschaft","label":"anzahlTeilnehmerAktuell","offset":0,"slot":"8","type":"t_uint16"},{"astId":189,"contract":"Lottogemeinschaft.sol:Lottogemeinschaft","label":"gewinnProMitspieler","offset":2,"slot":"8","type":"t_uint48"},{"astId":192,"contract":"Lottogemeinschaft.sol:Lottogemeinschaft","label":"gewinnKannAbgeholtWerden","offset":8,"slot":"8","type":"t_bool"},{"astId":195,"contract":"Lottogemeinschaft.sol:Lottogemeinschaft","label":"nurErlaubteMitspieler","offset":9,"slot":"8","type":"t_bool"},{"astId":199,"contract":"Lottogemeinschaft.sol:Lottogemeinschaft","label":"erlaubterMitspieler","offset":0,"slot":"9","type":"t_mapping(t_address,t_bool)"},{"astId":201,"contract":"Lottogemeinschaft.sol:Lottogemeinschaft","label":"locked","offset":0,"slot":"10","type":"t_bool"},{"astId":203,"contract":"Lottogemeinschaft.sol:Lottogemeinschaft","label":"aufgeloest","offset":1,"slot":"10","type":"t_bool"}],"types":{"t_address":{"encoding":"inplace","label":"address","numberOfBytes":"20"},"t_bool":{"encoding":"inplace","label":"bool","numberOfBytes":"1"},"t_mapping(t_address,t_bool)":{"encoding":"mapping","key":"t_address","label":"mapping(address => bool)","numberOfBytes":"32","value":"t_bool"},"t_string_storage":{"encoding":"bytes","label":"string","numberOfBytes":"32"},"t_uint16":{"encoding":"inplace","label":"uint16","numberOfBytes":"2"},"t_uint48":{"encoding":"inplace","label":"uint48","numberOfBytes":"6"},"t_uint96":{"encoding":"inplace","label":"uint96","numberOfBytes":"12"}}},"userdoc":{"kind":"user","methods":{},"version":1}}