{"abi":[{"inputs":[{"internalType":"string","name":"name","type":"string"},{"internalType":"address","name":"ersteller","type":"address"},{"internalType":"uint16","name":"anzahl","type":"uint16"},{"internalType":"uint32","name":"preis","type":"uint32"},{"internalType":"uint48","name":"scheinNummer","type":"uint48"},{"internalType":"bool","name":"mitspielerBestimmen","type":"bool"}],"stateMutability":"nonpayable","type":"constructor"},{"inputs":[{"internalType":"uint16","name":"neueAnzahlMaxTeilnehmer","type":"uint16"}],"name":"anzahlMitspielerAendern","outputs":[],"stateMutability":"nonpayable","type":"function"},{"inputs":[],"name":"anzahlTeilnehmerAktuell","outputs":[{"internalType":"uint16","name":"","type":"uint16"}],"stateMutability":"view","type":"function"},{"inputs":[],"name":"auszahlung","outputs":[{"internalType":"uint48","name":"","type":"uint48"}],"stateMutability":"view","type":"function"},{"inputs":[{"internalType":"address","name":"erlaubterMitspieler","type":"address"}],"name":"erlaubteMitspielerAdresseHinzufuegen","outputs":[],"stateMutability":"nonpayable","type":"function"},{"inputs":[{"internalType":"address","name":"","type":"address"}],"name":"gewinnAusgezahlt","outputs":[{"internalType":"bool","name":"","type":"bool"}],"stateMutability":"view","type":"function"},{"inputs":[],"name":"gewinnAuszahlen","outputs":[],"stateMutability":"nonpayable","type":"function"},{"inputs":[{"internalType":"uint48","name":"gewinn","type":"uint48"}],"name":"gewinnEinzahlen","outputs":[],"stateMutability":"payable","type":"function"},{"inputs":[],"name":"gewinnProMitspieler","outputs":[{"internalType":"uint48","name":"","type":"uint48"}],"stateMutability":"view","type":"function"},{"inputs":[],"name":"gruender","outputs":[{"internalType":"address","name":"","type":"address"}],"stateMutability":"view","type":"function"},{"inputs":[],"name":"kannGewinnAbgeholtWerden","outputs":[{"internalType":"bool","name":"","type":"bool"}],"stateMutability":"view","type":"function"},{"inputs":[],"name":"lottoscheinNummer","outputs":[{"internalType":"uint48","name":"","type":"uint48"}],"stateMutability":"view","type":"function"},{"inputs":[],"name":"maxTeilnehmerAnzahl","outputs":[{"internalType":"uint16","name":"","type":"uint16"}],"stateMutability":"view","type":"function"},{"inputs":[],"name":"mitmachen","outputs":[],"stateMutability":"payable","type":"function"},{"inputs":[{"internalType":"address","name":"","type":"address"}],"name":"mitspieler","outputs":[{"internalType":"bool","name":"","type":"bool"}],"stateMutability":"view","type":"function"},{"inputs":[],"name":"nurErlaubteMitspieler","outputs":[{"internalType":"bool","name":"","type":"bool"}],"stateMutability":"view","type":"function"},{"inputs":[],"name":"preisLottoschein","outputs":[{"internalType":"uint32","name":"","type":"uint32"}],"stateMutability":"view","type":"function"},{"inputs":[{"internalType":"uint32","name":"neuerPreis","type":"uint32"}],"name":"preisLottoscheinAendern","outputs":[],"stateMutability":"nonpayable","type":"function"},{"inputs":[],"name":"tippgemeinschaftsName","outputs":[{"internalType":"string","name":"","type":"string"}],"stateMutability":"view","type":"function"}],"devdoc":{"kind":"dev","methods":{},"version":1},"evm":{"assembly":"    /* \"Lottogemeinschaft.sol\":1014:5487  contract Lottogemeinschaft {... */\n  mstore(0x40, 0x80)\n    /* \"Lottogemeinschaft.sol\":1441:1442  0 */\n  0x00\n    /* \"Lottogemeinschaft.sol\":1405:1442  uint48 public gewinnProMitspieler = 0 */\n  0x05\n  exp(0x0100, 0x02)\n  dup2\n  sload\n  dup2\n  0xffffffffffff\n  mul\n  not\n  and\n  swap1\n  dup4\n  0xffffffffffff\n  and\n  mul\n  or\n  swap1\n  sstore\n  pop\n    /* \"Lottogemeinschaft.sol\":1485:1490  false */\n  0x00\n    /* \"Lottogemeinschaft.sol\":1448:1490  bool public kannGewinnAbgeholtWerden=false */\n  0x05\n  exp(0x0100, 0x08)\n  dup2\n  sload\n  dup2\n  0xff\n  mul\n  not\n  and\n  swap1\n  dup4\n  iszero\n  iszero\n  mul\n  or\n  swap1\n  sstore\n  pop\n    /* \"Lottogemeinschaft.sol\":1530:1535  false */\n  0x00\n    /* \"Lottogemeinschaft.sol\":1496:1535  bool public nurErlaubteMitspieler=false */\n  0x05\n  exp(0x0100, 0x09)\n  dup2\n  sload\n  dup2\n  0xff\n  mul\n  not\n  and\n  swap1\n  dup4\n  iszero\n  iszero\n  mul\n  or\n  swap1\n  sstore\n  pop\n    /* \"Lottogemeinschaft.sol\":1616:2128  constructor ( string memory name, address ersteller, uint16 anzahl, uint32 preis, uint48 scheinNummer, bool mitspielerBestimmen) {... */\n  callvalue\n  dup1\n  iszero\n  tag_1\n  jumpi\n  0x00\n  dup1\n  revert\ntag_1:\n  pop\n  mload(0x40)\n  sub(codesize, bytecodeSize)\n  dup1\n  bytecodeSize\n  dup4\n  codecopy\n  dup2\n  dup2\n  add\n  0x40\n  mstore\n  dup2\n  add\n  swap1\n  tag_2\n  swap2\n  swap1\n  tag_3\n  jump\t// in\ntag_2:\n    /* \"Lottogemeinschaft.sol\":1770:1775  65535 */\n  0xffff\n    /* \"Lottogemeinschaft.sol\":1763:1769  anzahl */\n  dup5\n    /* \"Lottogemeinschaft.sol\":1763:1775  anzahl<65535 */\n  0xffff\n  and\n  lt\n    /* \"Lottogemeinschaft.sol\":1755:1812  require(anzahl<65535, \"Maximal 65534 Mitspieler erlaubt\") */\n  tag_6\n  jumpi\n  mload(0x40)\n  0x08c379a000000000000000000000000000000000000000000000000000000000\n  dup2\n  mstore\n  0x04\n  add\n  tag_7\n  swap1\n  tag_8\n  jump\t// in\ntag_7:\n  mload(0x40)\n  dup1\n  swap2\n  sub\n  swap1\n  revert\ntag_6:\n    /* \"Lottogemeinschaft.sol\":1847:1857  4294967295 */\n  0xffffffff\n    /* \"Lottogemeinschaft.sol\":1830:1846  preisLottoschein */\n  0x02\n  0x08\n  swap1\n  sload\n  swap1\n  0x0100\n  exp\n  swap1\n  div\n  0xffffffff\n  and\n    /* \"Lottogemeinschaft.sol\":1830:1857  preisLottoschein<4294967295 */\n  0xffffffff\n  and\n  lt\n    /* \"Lottogemeinschaft.sol\":1822:1888  require(preisLottoschein<4294967295, \"Maximaler Preis 4294967295\") */\n  tag_9\n  jumpi\n  mload(0x40)\n  0x08c379a000000000000000000000000000000000000000000000000000000000\n  dup2\n  mstore\n  0x04\n  add\n  tag_10\n  swap1\n  tag_11\n  jump\t// in\ntag_10:\n  mload(0x40)\n  dup1\n  swap2\n  sub\n  swap1\n  revert\ntag_9:\n    /* \"Lottogemeinschaft.sol\":1909:1918  ersteller */\n  dup5\n    /* \"Lottogemeinschaft.sol\":1898:1906  gruender */\n  0x00\n  dup1\n    /* \"Lottogemeinschaft.sol\":1898:1918  gruender = ersteller */\n  0x0100\n  exp\n  dup2\n  sload\n  dup2\n  0xffffffffffffffffffffffffffffffffffffffff\n  mul\n  not\n  and\n  swap1\n  dup4\n  0xffffffffffffffffffffffffffffffffffffffff\n  and\n  mul\n  or\n  swap1\n  sstore\n  pop\n    /* \"Lottogemeinschaft.sol\":1952:1956  name */\n  dup6\n    /* \"Lottogemeinschaft.sol\":1928:1949  tippgemeinschaftsName */\n  0x01\n    /* \"Lottogemeinschaft.sol\":1928:1956  tippgemeinschaftsName = name */\n  swap1\n  dup2\n  tag_12\n  swap2\n  swap1\n  tag_13\n  jump\t// in\ntag_12:\n  pop\n    /* \"Lottogemeinschaft.sol\":1988:1994  anzahl */\n  dup4\n    /* \"Lottogemeinschaft.sol\":1966:1985  maxTeilnehmerAnzahl */\n  0x02\n  0x00\n    /* \"Lottogemeinschaft.sol\":1966:1994  maxTeilnehmerAnzahl = anzahl */\n  0x0100\n  exp\n  dup2\n  sload\n  dup2\n  0xffff\n  mul\n  not\n  and\n  swap1\n  dup4\n  0xffff\n  and\n  mul\n  or\n  swap1\n  sstore\n  pop\n    /* \"Lottogemeinschaft.sol\":2023:2028  preis */\n  dup3\n    /* \"Lottogemeinschaft.sol\":2004:2020  preisLottoschein */\n  0x02\n  0x08\n    /* \"Lottogemeinschaft.sol\":2004:2028  preisLottoschein = preis */\n  0x0100\n  exp\n  dup2\n  sload\n  dup2\n  0xffffffff\n  mul\n  not\n  and\n  swap1\n  dup4\n  0xffffffff\n  and\n  mul\n  or\n  swap1\n  sstore\n  pop\n    /* \"Lottogemeinschaft.sol\":2060:2079  mitspielerBestimmen */\n  dup1\n    /* \"Lottogemeinschaft.sol\":2038:2059  nurErlaubteMitspieler */\n  0x05\n  0x09\n    /* \"Lottogemeinschaft.sol\":2038:2079  nurErlaubteMitspieler=mitspielerBestimmen */\n  0x0100\n  exp\n  dup2\n  sload\n  dup2\n  0xff\n  mul\n  not\n  and\n  swap1\n  dup4\n  iszero\n  iszero\n  mul\n  or\n  swap1\n  sstore\n  pop\n    /* \"Lottogemeinschaft.sol\":2109:2121  scheinNummer */\n  dup2\n    /* \"Lottogemeinschaft.sol\":2089:2106  lottoscheinNummer */\n  0x02\n  0x0c\n    /* \"Lottogemeinschaft.sol\":2089:2121  lottoscheinNummer = scheinNummer */\n  0x0100\n  exp\n  dup2\n  sload\n  dup2\n  0xffffffffffff\n  mul\n  not\n  and\n  swap1\n  dup4\n  0xffffffffffff\n  and\n  mul\n  or\n  swap1\n  sstore\n  pop\n    /* \"Lottogemeinschaft.sol\":1616:2128  constructor ( string memory name, address ersteller, uint16 anzahl, uint32 preis, uint48 scheinNummer, bool mitspielerBestimmen) {... */\n  pop\n  pop\n  pop\n  pop\n  pop\n  pop\n    /* \"Lottogemeinschaft.sol\":1014:5487  contract Lottogemeinschaft {... */\n  jump(tag_14)\n    /* \"#utility.yul\":7:82   */\ntag_15:\n    /* \"#utility.yul\":40:46   */\n  0x00\n    /* \"#utility.yul\":73:75   */\n  0x40\n    /* \"#utility.yul\":67:76   */\n  mload\n    /* \"#utility.yul\":57:76   */\n  swap1\n  pop\n    /* \"#utility.yul\":7:82   */\n  swap1\n  jump\t// out\n    /* \"#utility.yul\":88:205   */\ntag_16:\n    /* \"#utility.yul\":197:198   */\n  0x00\n    /* \"#utility.yul\":194:195   */\n  dup1\n    /* \"#utility.yul\":187:199   */\n  revert\n    /* \"#utility.yul\":211:328   */\ntag_17:\n    /* \"#utility.yul\":320:321   */\n  0x00\n    /* \"#utility.yul\":317:318   */\n  dup1\n    /* \"#utility.yul\":310:322   */\n  revert\n    /* \"#utility.yul\":334:451   */\ntag_18:\n    /* \"#utility.yul\":443:444   */\n  0x00\n    /* \"#utility.yul\":440:441   */\n  dup1\n    /* \"#utility.yul\":433:445   */\n  revert\n    /* \"#utility.yul\":457:574   */\ntag_19:\n    /* \"#utility.yul\":566:567   */\n  0x00\n    /* \"#utility.yul\":563:564   */\n  dup1\n    /* \"#utility.yul\":556:568   */\n  revert\n    /* \"#utility.yul\":580:682   */\ntag_20:\n    /* \"#utility.yul\":621:627   */\n  0x00\n    /* \"#utility.yul\":672:674   */\n  0x1f\n    /* \"#utility.yul\":668:675   */\n  not\n    /* \"#utility.yul\":663:665   */\n  0x1f\n    /* \"#utility.yul\":656:661   */\n  dup4\n    /* \"#utility.yul\":652:666   */\n  add\n    /* \"#utility.yul\":648:676   */\n  and\n    /* \"#utility.yul\":638:676   */\n  swap1\n  pop\n    /* \"#utility.yul\":580:682   */\n  swap2\n  swap1\n  pop\n  jump\t// out\n    /* \"#utility.yul\":688:868   */\ntag_21:\n    /* \"#utility.yul\":736:813   */\n  0x4e487b7100000000000000000000000000000000000000000000000000000000\n    /* \"#utility.yul\":733:734   */\n  0x00\n    /* \"#utility.yul\":726:814   */\n  mstore\n    /* \"#utility.yul\":833:837   */\n  0x41\n    /* \"#utility.yul\":830:831   */\n  0x04\n    /* \"#utility.yul\":823:838   */\n  mstore\n    /* \"#utility.yul\":857:861   */\n  0x24\n    /* \"#utility.yul\":854:855   */\n  0x00\n    /* \"#utility.yul\":847:862   */\n  revert\n    /* \"#utility.yul\":874:1155   */\ntag_22:\n    /* \"#utility.yul\":957:984   */\n  tag_77\n    /* \"#utility.yul\":979:983   */\n  dup3\n    /* \"#utility.yul\":957:984   */\n  tag_20\n  jump\t// in\ntag_77:\n    /* \"#utility.yul\":949:955   */\n  dup2\n    /* \"#utility.yul\":945:985   */\n  add\n    /* \"#utility.yul\":1087:1093   */\n  dup2\n    /* \"#utility.yul\":1075:1085   */\n  dup2\n    /* \"#utility.yul\":1072:1094   */\n  lt\n    /* \"#utility.yul\":1051:1069   */\n  0xffffffffffffffff\n    /* \"#utility.yul\":1039:1049   */\n  dup3\n    /* \"#utility.yul\":1036:1070   */\n  gt\n    /* \"#utility.yul\":1033:1095   */\n  or\n    /* \"#utility.yul\":1030:1118   */\n  iszero\n  tag_78\n  jumpi\n    /* \"#utility.yul\":1098:1116   */\n  tag_79\n  tag_21\n  jump\t// in\ntag_79:\n    /* \"#utility.yul\":1030:1118   */\ntag_78:\n    /* \"#utility.yul\":1138:1148   */\n  dup1\n    /* \"#utility.yul\":1134:1136   */\n  0x40\n    /* \"#utility.yul\":1127:1149   */\n  mstore\n    /* \"#utility.yul\":917:1155   */\n  pop\n    /* \"#utility.yul\":874:1155   */\n  pop\n  pop\n  jump\t// out\n    /* \"#utility.yul\":1161:1290   */\ntag_23:\n    /* \"#utility.yul\":1195:1201   */\n  0x00\n    /* \"#utility.yul\":1222:1242   */\n  tag_81\n  tag_15\n  jump\t// in\ntag_81:\n    /* \"#utility.yul\":1212:1242   */\n  swap1\n  pop\n    /* \"#utility.yul\":1251:1284   */\n  tag_82\n    /* \"#utility.yul\":1279:1283   */\n  dup3\n    /* \"#utility.yul\":1271:1277   */\n  dup3\n    /* \"#utility.yul\":1251:1284   */\n  tag_22\n  jump\t// in\ntag_82:\n    /* \"#utility.yul\":1161:1290   */\n  swap2\n  swap1\n  pop\n  jump\t// out\n    /* \"#utility.yul\":1296:1604   */\ntag_24:\n    /* \"#utility.yul\":1358:1362   */\n  0x00\n    /* \"#utility.yul\":1448:1466   */\n  0xffffffffffffffff\n    /* \"#utility.yul\":1440:1446   */\n  dup3\n    /* \"#utility.yul\":1437:1467   */\n  gt\n    /* \"#utility.yul\":1434:1490   */\n  iszero\n  tag_84\n  jumpi\n    /* \"#utility.yul\":1470:1488   */\n  tag_85\n  tag_21\n  jump\t// in\ntag_85:\n    /* \"#utility.yul\":1434:1490   */\ntag_84:\n    /* \"#utility.yul\":1508:1537   */\n  tag_86\n    /* \"#utility.yul\":1530:1536   */\n  dup3\n    /* \"#utility.yul\":1508:1537   */\n  tag_20\n  jump\t// in\ntag_86:\n    /* \"#utility.yul\":1500:1537   */\n  swap1\n  pop\n    /* \"#utility.yul\":1592:1596   */\n  0x20\n    /* \"#utility.yul\":1586:1590   */\n  dup2\n    /* \"#utility.yul\":1582:1597   */\n  add\n    /* \"#utility.yul\":1574:1597   */\n  swap1\n  pop\n    /* \"#utility.yul\":1296:1604   */\n  swap2\n  swap1\n  pop\n  jump\t// out\n    /* \"#utility.yul\":1610:1856   */\ntag_25:\n    /* \"#utility.yul\":1691:1692   */\n  0x00\n    /* \"#utility.yul\":1701:1814   */\ntag_88:\n    /* \"#utility.yul\":1715:1721   */\n  dup4\n    /* \"#utility.yul\":1712:1713   */\n  dup2\n    /* \"#utility.yul\":1709:1722   */\n  lt\n    /* \"#utility.yul\":1701:1814   */\n  iszero\n  tag_90\n  jumpi\n    /* \"#utility.yul\":1800:1801   */\n  dup1\n    /* \"#utility.yul\":1795:1798   */\n  dup3\n    /* \"#utility.yul\":1791:1802   */\n  add\n    /* \"#utility.yul\":1785:1803   */\n  mload\n    /* \"#utility.yul\":1781:1782   */\n  dup2\n    /* \"#utility.yul\":1776:1779   */\n  dup5\n    /* \"#utility.yul\":1772:1783   */\n  add\n    /* \"#utility.yul\":1765:1804   */\n  mstore\n    /* \"#utility.yul\":1737:1739   */\n  0x20\n    /* \"#utility.yul\":1734:1735   */\n  dup2\n    /* \"#utility.yul\":1730:1740   */\n  add\n    /* \"#utility.yul\":1725:1740   */\n  swap1\n  pop\n    /* \"#utility.yul\":1701:1814   */\n  jump(tag_88)\ntag_90:\n    /* \"#utility.yul\":1848:1849   */\n  0x00\n    /* \"#utility.yul\":1839:1845   */\n  dup5\n    /* \"#utility.yul\":1834:1837   */\n  dup5\n    /* \"#utility.yul\":1830:1846   */\n  add\n    /* \"#utility.yul\":1823:1850   */\n  mstore\n    /* \"#utility.yul\":1672:1856   */\n  pop\n    /* \"#utility.yul\":1610:1856   */\n  pop\n  pop\n  pop\n  jump\t// out\n    /* \"#utility.yul\":1862:2296   */\ntag_26:\n    /* \"#utility.yul\":1951:1956   */\n  0x00\n    /* \"#utility.yul\":1976:2042   */\n  tag_92\n    /* \"#utility.yul\":1992:2041   */\n  tag_93\n    /* \"#utility.yul\":2034:2040   */\n  dup5\n    /* \"#utility.yul\":1992:2041   */\n  tag_24\n  jump\t// in\ntag_93:\n    /* \"#utility.yul\":1976:2042   */\n  tag_23\n  jump\t// in\ntag_92:\n    /* \"#utility.yul\":1967:2042   */\n  swap1\n  pop\n    /* \"#utility.yul\":2065:2071   */\n  dup3\n    /* \"#utility.yul\":2058:2063   */\n  dup2\n    /* \"#utility.yul\":2051:2072   */\n  mstore\n    /* \"#utility.yul\":2103:2107   */\n  0x20\n    /* \"#utility.yul\":2096:2101   */\n  dup2\n    /* \"#utility.yul\":2092:2108   */\n  add\n    /* \"#utility.yul\":2141:2144   */\n  dup5\n    /* \"#utility.yul\":2132:2138   */\n  dup5\n    /* \"#utility.yul\":2127:2130   */\n  dup5\n    /* \"#utility.yul\":2123:2139   */\n  add\n    /* \"#utility.yul\":2120:2145   */\n  gt\n    /* \"#utility.yul\":2117:2229   */\n  iszero\n  tag_94\n  jumpi\n    /* \"#utility.yul\":2148:2227   */\n  tag_95\n  tag_19\n  jump\t// in\ntag_95:\n    /* \"#utility.yul\":2117:2229   */\ntag_94:\n    /* \"#utility.yul\":2238:2290   */\n  tag_96\n    /* \"#utility.yul\":2283:2289   */\n  dup5\n    /* \"#utility.yul\":2278:2281   */\n  dup3\n    /* \"#utility.yul\":2273:2276   */\n  dup6\n    /* \"#utility.yul\":2238:2290   */\n  tag_25\n  jump\t// in\ntag_96:\n    /* \"#utility.yul\":1957:2296   */\n  pop\n    /* \"#utility.yul\":1862:2296   */\n  swap4\n  swap3\n  pop\n  pop\n  pop\n  jump\t// out\n    /* \"#utility.yul\":2316:2671   */\ntag_27:\n    /* \"#utility.yul\":2383:2388   */\n  0x00\n    /* \"#utility.yul\":2432:2435   */\n  dup3\n    /* \"#utility.yul\":2425:2429   */\n  0x1f\n    /* \"#utility.yul\":2417:2423   */\n  dup4\n    /* \"#utility.yul\":2413:2430   */\n  add\n    /* \"#utility.yul\":2409:2436   */\n  slt\n    /* \"#utility.yul\":2399:2521   */\n  tag_98\n  jumpi\n    /* \"#utility.yul\":2440:2519   */\n  tag_99\n  tag_18\n  jump\t// in\ntag_99:\n    /* \"#utility.yul\":2399:2521   */\ntag_98:\n    /* \"#utility.yul\":2550:2556   */\n  dup2\n    /* \"#utility.yul\":2544:2557   */\n  mload\n    /* \"#utility.yul\":2575:2665   */\n  tag_100\n    /* \"#utility.yul\":2661:2664   */\n  dup5\n    /* \"#utility.yul\":2653:2659   */\n  dup3\n    /* \"#utility.yul\":2646:2650   */\n  0x20\n    /* \"#utility.yul\":2638:2644   */\n  dup7\n    /* \"#utility.yul\":2634:2651   */\n  add\n    /* \"#utility.yul\":2575:2665   */\n  tag_26\n  jump\t// in\ntag_100:\n    /* \"#utility.yul\":2566:2665   */\n  swap2\n  pop\n    /* \"#utility.yul\":2389:2671   */\n  pop\n    /* \"#utility.yul\":2316:2671   */\n  swap3\n  swap2\n  pop\n  pop\n  jump\t// out\n    /* \"#utility.yul\":2677:2803   */\ntag_28:\n    /* \"#utility.yul\":2714:2721   */\n  0x00\n    /* \"#utility.yul\":2754:2796   */\n  0xffffffffffffffffffffffffffffffffffffffff\n    /* \"#utility.yul\":2747:2752   */\n  dup3\n    /* \"#utility.yul\":2743:2797   */\n  and\n    /* \"#utility.yul\":2732:2797   */\n  swap1\n  pop\n    /* \"#utility.yul\":2677:2803   */\n  swap2\n  swap1\n  pop\n  jump\t// out\n    /* \"#utility.yul\":2809:2905   */\ntag_29:\n    /* \"#utility.yul\":2846:2853   */\n  0x00\n    /* \"#utility.yul\":2875:2899   */\n  tag_103\n    /* \"#utility.yul\":2893:2898   */\n  dup3\n    /* \"#utility.yul\":2875:2899   */\n  tag_28\n  jump\t// in\ntag_103:\n    /* \"#utility.yul\":2864:2899   */\n  swap1\n  pop\n    /* \"#utility.yul\":2809:2905   */\n  swap2\n  swap1\n  pop\n  jump\t// out\n    /* \"#utility.yul\":2911:3033   */\ntag_30:\n    /* \"#utility.yul\":2984:3008   */\n  tag_105\n    /* \"#utility.yul\":3002:3007   */\n  dup2\n    /* \"#utility.yul\":2984:3008   */\n  tag_29\n  jump\t// in\ntag_105:\n    /* \"#utility.yul\":2977:2982   */\n  dup2\n    /* \"#utility.yul\":2974:3009   */\n  eq\n    /* \"#utility.yul\":2964:3027   */\n  tag_106\n  jumpi\n    /* \"#utility.yul\":3023:3024   */\n  0x00\n    /* \"#utility.yul\":3020:3021   */\n  dup1\n    /* \"#utility.yul\":3013:3025   */\n  revert\n    /* \"#utility.yul\":2964:3027   */\ntag_106:\n    /* \"#utility.yul\":2911:3033   */\n  pop\n  jump\t// out\n    /* \"#utility.yul\":3039:3182   */\ntag_31:\n    /* \"#utility.yul\":3096:3101   */\n  0x00\n    /* \"#utility.yul\":3127:3133   */\n  dup2\n    /* \"#utility.yul\":3121:3134   */\n  mload\n    /* \"#utility.yul\":3112:3134   */\n  swap1\n  pop\n    /* \"#utility.yul\":3143:3176   */\n  tag_108\n    /* \"#utility.yul\":3170:3175   */\n  dup2\n    /* \"#utility.yul\":3143:3176   */\n  tag_30\n  jump\t// in\ntag_108:\n    /* \"#utility.yul\":3039:3182   */\n  swap3\n  swap2\n  pop\n  pop\n  jump\t// out\n    /* \"#utility.yul\":3188:3277   */\ntag_32:\n    /* \"#utility.yul\":3224:3231   */\n  0x00\n    /* \"#utility.yul\":3264:3270   */\n  0xffff\n    /* \"#utility.yul\":3257:3262   */\n  dup3\n    /* \"#utility.yul\":3253:3271   */\n  and\n    /* \"#utility.yul\":3242:3271   */\n  swap1\n  pop\n    /* \"#utility.yul\":3188:3277   */\n  swap2\n  swap1\n  pop\n  jump\t// out\n    /* \"#utility.yul\":3283:3403   */\ntag_33:\n    /* \"#utility.yul\":3355:3378   */\n  tag_111\n    /* \"#utility.yul\":3372:3377   */\n  dup2\n    /* \"#utility.yul\":3355:3378   */\n  tag_32\n  jump\t// in\ntag_111:\n    /* \"#utility.yul\":3348:3353   */\n  dup2\n    /* \"#utility.yul\":3345:3379   */\n  eq\n    /* \"#utility.yul\":3335:3397   */\n  tag_112\n  jumpi\n    /* \"#utility.yul\":3393:3394   */\n  0x00\n    /* \"#utility.yul\":3390:3391   */\n  dup1\n    /* \"#utility.yul\":3383:3395   */\n  revert\n    /* \"#utility.yul\":3335:3397   */\ntag_112:\n    /* \"#utility.yul\":3283:3403   */\n  pop\n  jump\t// out\n    /* \"#utility.yul\":3409:3550   */\ntag_34:\n    /* \"#utility.yul\":3465:3470   */\n  0x00\n    /* \"#utility.yul\":3496:3502   */\n  dup2\n    /* \"#utility.yul\":3490:3503   */\n  mload\n    /* \"#utility.yul\":3481:3503   */\n  swap1\n  pop\n    /* \"#utility.yul\":3512:3544   */\n  tag_114\n    /* \"#utility.yul\":3538:3543   */\n  dup2\n    /* \"#utility.yul\":3512:3544   */\n  tag_33\n  jump\t// in\ntag_114:\n    /* \"#utility.yul\":3409:3550   */\n  swap3\n  swap2\n  pop\n  pop\n  jump\t// out\n    /* \"#utility.yul\":3556:3649   */\ntag_35:\n    /* \"#utility.yul\":3592:3599   */\n  0x00\n    /* \"#utility.yul\":3632:3642   */\n  0xffffffff\n    /* \"#utility.yul\":3625:3630   */\n  dup3\n    /* \"#utility.yul\":3621:3643   */\n  and\n    /* \"#utility.yul\":3610:3643   */\n  swap1\n  pop\n    /* \"#utility.yul\":3556:3649   */\n  swap2\n  swap1\n  pop\n  jump\t// out\n    /* \"#utility.yul\":3655:3775   */\ntag_36:\n    /* \"#utility.yul\":3727:3750   */\n  tag_117\n    /* \"#utility.yul\":3744:3749   */\n  dup2\n    /* \"#utility.yul\":3727:3750   */\n  tag_35\n  jump\t// in\ntag_117:\n    /* \"#utility.yul\":3720:3725   */\n  dup2\n    /* \"#utility.yul\":3717:3751   */\n  eq\n    /* \"#utility.yul\":3707:3769   */\n  tag_118\n  jumpi\n    /* \"#utility.yul\":3765:3766   */\n  0x00\n    /* \"#utility.yul\":3762:3763   */\n  dup1\n    /* \"#utility.yul\":3755:3767   */\n  revert\n    /* \"#utility.yul\":3707:3769   */\ntag_118:\n    /* \"#utility.yul\":3655:3775   */\n  pop\n  jump\t// out\n    /* \"#utility.yul\":3781:3922   */\ntag_37:\n    /* \"#utility.yul\":3837:3842   */\n  0x00\n    /* \"#utility.yul\":3868:3874   */\n  dup2\n    /* \"#utility.yul\":3862:3875   */\n  mload\n    /* \"#utility.yul\":3853:3875   */\n  swap1\n  pop\n    /* \"#utility.yul\":3884:3916   */\n  tag_120\n    /* \"#utility.yul\":3910:3915   */\n  dup2\n    /* \"#utility.yul\":3884:3916   */\n  tag_36\n  jump\t// in\ntag_120:\n    /* \"#utility.yul\":3781:3922   */\n  swap3\n  swap2\n  pop\n  pop\n  jump\t// out\n    /* \"#utility.yul\":3928:4025   */\ntag_38:\n    /* \"#utility.yul\":3964:3971   */\n  0x00\n    /* \"#utility.yul\":4004:4018   */\n  0xffffffffffff\n    /* \"#utility.yul\":3997:4002   */\n  dup3\n    /* \"#utility.yul\":3993:4019   */\n  and\n    /* \"#utility.yul\":3982:4019   */\n  swap1\n  pop\n    /* \"#utility.yul\":3928:4025   */\n  swap2\n  swap1\n  pop\n  jump\t// out\n    /* \"#utility.yul\":4031:4151   */\ntag_39:\n    /* \"#utility.yul\":4103:4126   */\n  tag_123\n    /* \"#utility.yul\":4120:4125   */\n  dup2\n    /* \"#utility.yul\":4103:4126   */\n  tag_38\n  jump\t// in\ntag_123:\n    /* \"#utility.yul\":4096:4101   */\n  dup2\n    /* \"#utility.yul\":4093:4127   */\n  eq\n    /* \"#utility.yul\":4083:4145   */\n  tag_124\n  jumpi\n    /* \"#utility.yul\":4141:4142   */\n  0x00\n    /* \"#utility.yul\":4138:4139   */\n  dup1\n    /* \"#utility.yul\":4131:4143   */\n  revert\n    /* \"#utility.yul\":4083:4145   */\ntag_124:\n    /* \"#utility.yul\":4031:4151   */\n  pop\n  jump\t// out\n    /* \"#utility.yul\":4157:4298   */\ntag_40:\n    /* \"#utility.yul\":4213:4218   */\n  0x00\n    /* \"#utility.yul\":4244:4250   */\n  dup2\n    /* \"#utility.yul\":4238:4251   */\n  mload\n    /* \"#utility.yul\":4229:4251   */\n  swap1\n  pop\n    /* \"#utility.yul\":4260:4292   */\n  tag_126\n    /* \"#utility.yul\":4286:4291   */\n  dup2\n    /* \"#utility.yul\":4260:4292   */\n  tag_39\n  jump\t// in\ntag_126:\n    /* \"#utility.yul\":4157:4298   */\n  swap3\n  swap2\n  pop\n  pop\n  jump\t// out\n    /* \"#utility.yul\":4304:4394   */\ntag_41:\n    /* \"#utility.yul\":4338:4345   */\n  0x00\n    /* \"#utility.yul\":4381:4386   */\n  dup2\n    /* \"#utility.yul\":4374:4387   */\n  iszero\n    /* \"#utility.yul\":4367:4388   */\n  iszero\n    /* \"#utility.yul\":4356:4388   */\n  swap1\n  pop\n    /* \"#utility.yul\":4304:4394   */\n  swap2\n  swap1\n  pop\n  jump\t// out\n    /* \"#utility.yul\":4400:4516   */\ntag_42:\n    /* \"#utility.yul\":4470:4491   */\n  tag_129\n    /* \"#utility.yul\":4485:4490   */\n  dup2\n    /* \"#utility.yul\":4470:4491   */\n  tag_41\n  jump\t// in\ntag_129:\n    /* \"#utility.yul\":4463:4468   */\n  dup2\n    /* \"#utility.yul\":4460:4492   */\n  eq\n    /* \"#utility.yul\":4450:4510   */\n  tag_130\n  jumpi\n    /* \"#utility.yul\":4506:4507   */\n  0x00\n    /* \"#utility.yul\":4503:4504   */\n  dup1\n    /* \"#utility.yul\":4496:4508   */\n  revert\n    /* \"#utility.yul\":4450:4510   */\ntag_130:\n    /* \"#utility.yul\":4400:4516   */\n  pop\n  jump\t// out\n    /* \"#utility.yul\":4522:4659   */\ntag_43:\n    /* \"#utility.yul\":4576:4581   */\n  0x00\n    /* \"#utility.yul\":4607:4613   */\n  dup2\n    /* \"#utility.yul\":4601:4614   */\n  mload\n    /* \"#utility.yul\":4592:4614   */\n  swap1\n  pop\n    /* \"#utility.yul\":4623:4653   */\n  tag_132\n    /* \"#utility.yul\":4647:4652   */\n  dup2\n    /* \"#utility.yul\":4623:4653   */\n  tag_42\n  jump\t// in\ntag_132:\n    /* \"#utility.yul\":4522:4659   */\n  swap3\n  swap2\n  pop\n  pop\n  jump\t// out\n    /* \"#utility.yul\":4665:5960   */\ntag_3:\n    /* \"#utility.yul\":4784:4790   */\n  0x00\n    /* \"#utility.yul\":4792:4798   */\n  dup1\n    /* \"#utility.yul\":4800:4806   */\n  0x00\n    /* \"#utility.yul\":4808:4814   */\n  dup1\n    /* \"#utility.yul\":4816:4822   */\n  0x00\n    /* \"#utility.yul\":4824:4830   */\n  dup1\n    /* \"#utility.yul\":4873:4876   */\n  0xc0\n    /* \"#utility.yul\":4861:4870   */\n  dup8\n    /* \"#utility.yul\":4852:4859   */\n  dup10\n    /* \"#utility.yul\":4848:4871   */\n  sub\n    /* \"#utility.yul\":4844:4877   */\n  slt\n    /* \"#utility.yul\":4841:4961   */\n  iszero\n  tag_134\n  jumpi\n    /* \"#utility.yul\":4880:4959   */\n  tag_135\n  tag_16\n  jump\t// in\ntag_135:\n    /* \"#utility.yul\":4841:4961   */\ntag_134:\n    /* \"#utility.yul\":5021:5022   */\n  0x00\n    /* \"#utility.yul\":5010:5019   */\n  dup8\n    /* \"#utility.yul\":5006:5023   */\n  add\n    /* \"#utility.yul\":5000:5024   */\n  mload\n    /* \"#utility.yul\":5051:5069   */\n  0xffffffffffffffff\n    /* \"#utility.yul\":5043:5049   */\n  dup2\n    /* \"#utility.yul\":5040:5070   */\n  gt\n    /* \"#utility.yul\":5037:5154   */\n  iszero\n  tag_136\n  jumpi\n    /* \"#utility.yul\":5073:5152   */\n  tag_137\n  tag_17\n  jump\t// in\ntag_137:\n    /* \"#utility.yul\":5037:5154   */\ntag_136:\n    /* \"#utility.yul\":5178:5252   */\n  tag_138\n    /* \"#utility.yul\":5244:5251   */\n  dup10\n    /* \"#utility.yul\":5235:5241   */\n  dup3\n    /* \"#utility.yul\":5224:5233   */\n  dup11\n    /* \"#utility.yul\":5220:5242   */\n  add\n    /* \"#utility.yul\":5178:5252   */\n  tag_27\n  jump\t// in\ntag_138:\n    /* \"#utility.yul\":5168:5252   */\n  swap7\n  pop\n    /* \"#utility.yul\":4971:5262   */\n  pop\n    /* \"#utility.yul\":5301:5303   */\n  0x20\n    /* \"#utility.yul\":5327:5391   */\n  tag_139\n    /* \"#utility.yul\":5383:5390   */\n  dup10\n    /* \"#utility.yul\":5374:5380   */\n  dup3\n    /* \"#utility.yul\":5363:5372   */\n  dup11\n    /* \"#utility.yul\":5359:5381   */\n  add\n    /* \"#utility.yul\":5327:5391   */\n  tag_31\n  jump\t// in\ntag_139:\n    /* \"#utility.yul\":5317:5391   */\n  swap6\n  pop\n    /* \"#utility.yul\":5272:5401   */\n  pop\n    /* \"#utility.yul\":5440:5442   */\n  0x40\n    /* \"#utility.yul\":5466:5529   */\n  tag_140\n    /* \"#utility.yul\":5521:5528   */\n  dup10\n    /* \"#utility.yul\":5512:5518   */\n  dup3\n    /* \"#utility.yul\":5501:5510   */\n  dup11\n    /* \"#utility.yul\":5497:5519   */\n  add\n    /* \"#utility.yul\":5466:5529   */\n  tag_34\n  jump\t// in\ntag_140:\n    /* \"#utility.yul\":5456:5529   */\n  swap5\n  pop\n    /* \"#utility.yul\":5411:5539   */\n  pop\n    /* \"#utility.yul\":5578:5580   */\n  0x60\n    /* \"#utility.yul\":5604:5667   */\n  tag_141\n    /* \"#utility.yul\":5659:5666   */\n  dup10\n    /* \"#utility.yul\":5650:5656   */\n  dup3\n    /* \"#utility.yul\":5639:5648   */\n  dup11\n    /* \"#utility.yul\":5635:5657   */\n  add\n    /* \"#utility.yul\":5604:5667   */\n  tag_37\n  jump\t// in\ntag_141:\n    /* \"#utility.yul\":5594:5667   */\n  swap4\n  pop\n    /* \"#utility.yul\":5549:5677   */\n  pop\n    /* \"#utility.yul\":5716:5719   */\n  0x80\n    /* \"#utility.yul\":5743:5806   */\n  tag_142\n    /* \"#utility.yul\":5798:5805   */\n  dup10\n    /* \"#utility.yul\":5789:5795   */\n  dup3\n    /* \"#utility.yul\":5778:5787   */\n  dup11\n    /* \"#utility.yul\":5774:5796   */\n  add\n    /* \"#utility.yul\":5743:5806   */\n  tag_40\n  jump\t// in\ntag_142:\n    /* \"#utility.yul\":5733:5806   */\n  swap3\n  pop\n    /* \"#utility.yul\":5687:5816   */\n  pop\n    /* \"#utility.yul\":5855:5858   */\n  0xa0\n    /* \"#utility.yul\":5882:5943   */\n  tag_143\n    /* \"#utility.yul\":5935:5942   */\n  dup10\n    /* \"#utility.yul\":5926:5932   */\n  dup3\n    /* \"#utility.yul\":5915:5924   */\n  dup11\n    /* \"#utility.yul\":5911:5933   */\n  add\n    /* \"#utility.yul\":5882:5943   */\n  tag_43\n  jump\t// in\ntag_143:\n    /* \"#utility.yul\":5872:5943   */\n  swap2\n  pop\n    /* \"#utility.yul\":5826:5953   */\n  pop\n    /* \"#utility.yul\":4665:5960   */\n  swap3\n  swap6\n  pop\n  swap3\n  swap6\n  pop\n  swap3\n  swap6\n  jump\t// out\n    /* \"#utility.yul\":5966:6135   */\ntag_44:\n    /* \"#utility.yul\":6050:6061   */\n  0x00\n    /* \"#utility.yul\":6084:6090   */\n  dup3\n    /* \"#utility.yul\":6079:6082   */\n  dup3\n    /* \"#utility.yul\":6072:6091   */\n  mstore\n    /* \"#utility.yul\":6124:6128   */\n  0x20\n    /* \"#utility.yul\":6119:6122   */\n  dup3\n    /* \"#utility.yul\":6115:6129   */\n  add\n    /* \"#utility.yul\":6100:6129   */\n  swap1\n  pop\n    /* \"#utility.yul\":5966:6135   */\n  swap3\n  swap2\n  pop\n  pop\n  jump\t// out\n    /* \"#utility.yul\":6141:6323   */\ntag_45:\n    /* \"#utility.yul\":6281:6315   */\n  0x4d6178696d616c203635353334204d6974737069656c65722065726c61756274\n    /* \"#utility.yul\":6277:6278   */\n  0x00\n    /* \"#utility.yul\":6269:6275   */\n  dup3\n    /* \"#utility.yul\":6265:6279   */\n  add\n    /* \"#utility.yul\":6258:6316   */\n  mstore\n    /* \"#utility.yul\":6141:6323   */\n  pop\n  jump\t// out\n    /* \"#utility.yul\":6329:6695   */\ntag_46:\n    /* \"#utility.yul\":6471:6474   */\n  0x00\n    /* \"#utility.yul\":6492:6559   */\n  tag_147\n    /* \"#utility.yul\":6556:6558   */\n  0x20\n    /* \"#utility.yul\":6551:6554   */\n  dup4\n    /* \"#utility.yul\":6492:6559   */\n  tag_44\n  jump\t// in\ntag_147:\n    /* \"#utility.yul\":6485:6559   */\n  swap2\n  pop\n    /* \"#utility.yul\":6568:6661   */\n  tag_148\n    /* \"#utility.yul\":6657:6660   */\n  dup3\n    /* \"#utility.yul\":6568:6661   */\n  tag_45\n  jump\t// in\ntag_148:\n    /* \"#utility.yul\":6686:6688   */\n  0x20\n    /* \"#utility.yul\":6681:6684   */\n  dup3\n    /* \"#utility.yul\":6677:6689   */\n  add\n    /* \"#utility.yul\":6670:6689   */\n  swap1\n  pop\n    /* \"#utility.yul\":6329:6695   */\n  swap2\n  swap1\n  pop\n  jump\t// out\n    /* \"#utility.yul\":6701:7120   */\ntag_8:\n    /* \"#utility.yul\":6867:6871   */\n  0x00\n    /* \"#utility.yul\":6905:6907   */\n  0x20\n    /* \"#utility.yul\":6894:6903   */\n  dup3\n    /* \"#utility.yul\":6890:6908   */\n  add\n    /* \"#utility.yul\":6882:6908   */\n  swap1\n  pop\n    /* \"#utility.yul\":6954:6963   */\n  dup2\n    /* \"#utility.yul\":6948:6952   */\n  dup2\n    /* \"#utility.yul\":6944:6964   */\n  sub\n    /* \"#utility.yul\":6940:6941   */\n  0x00\n    /* \"#utility.yul\":6929:6938   */\n  dup4\n    /* \"#utility.yul\":6925:6942   */\n  add\n    /* \"#utility.yul\":6918:6965   */\n  mstore\n    /* \"#utility.yul\":6982:7113   */\n  tag_150\n    /* \"#utility.yul\":7108:7112   */\n  dup2\n    /* \"#utility.yul\":6982:7113   */\n  tag_46\n  jump\t// in\ntag_150:\n    /* \"#utility.yul\":6974:7113   */\n  swap1\n  pop\n    /* \"#utility.yul\":6701:7120   */\n  swap2\n  swap1\n  pop\n  jump\t// out\n    /* \"#utility.yul\":7126:7302   */\ntag_47:\n    /* \"#utility.yul\":7266:7294   */\n  0x4d6178696d616c65722050726569732034323934393637323935000000000000\n    /* \"#utility.yul\":7262:7263   */\n  0x00\n    /* \"#utility.yul\":7254:7260   */\n  dup3\n    /* \"#utility.yul\":7250:7264   */\n  add\n    /* \"#utility.yul\":7243:7295   */\n  mstore\n    /* \"#utility.yul\":7126:7302   */\n  pop\n  jump\t// out\n    /* \"#utility.yul\":7308:7674   */\ntag_48:\n    /* \"#utility.yul\":7450:7453   */\n  0x00\n    /* \"#utility.yul\":7471:7538   */\n  tag_153\n    /* \"#utility.yul\":7535:7537   */\n  0x1a\n    /* \"#utility.yul\":7530:7533   */\n  dup4\n    /* \"#utility.yul\":7471:7538   */\n  tag_44\n  jump\t// in\ntag_153:\n    /* \"#utility.yul\":7464:7538   */\n  swap2\n  pop\n    /* \"#utility.yul\":7547:7640   */\n  tag_154\n    /* \"#utility.yul\":7636:7639   */\n  dup3\n    /* \"#utility.yul\":7547:7640   */\n  tag_47\n  jump\t// in\ntag_154:\n    /* \"#utility.yul\":7665:7667   */\n  0x20\n    /* \"#utility.yul\":7660:7663   */\n  dup3\n    /* \"#utility.yul\":7656:7668   */\n  add\n    /* \"#utility.yul\":7649:7668   */\n  swap1\n  pop\n    /* \"#utility.yul\":7308:7674   */\n  swap2\n  swap1\n  pop\n  jump\t// out\n    /* \"#utility.yul\":7680:8099   */\ntag_11:\n    /* \"#utility.yul\":7846:7850   */\n  0x00\n    /* \"#utility.yul\":7884:7886   */\n  0x20\n    /* \"#utility.yul\":7873:7882   */\n  dup3\n    /* \"#utility.yul\":7869:7887   */\n  add\n    /* \"#utility.yul\":7861:7887   */\n  swap1\n  pop\n    /* \"#utility.yul\":7933:7942   */\n  dup2\n    /* \"#utility.yul\":7927:7931   */\n  dup2\n    /* \"#utility.yul\":7923:7943   */\n  sub\n    /* \"#utility.yul\":7919:7920   */\n  0x00\n    /* \"#utility.yul\":7908:7917   */\n  dup4\n    /* \"#utility.yul\":7904:7921   */\n  add\n    /* \"#utility.yul\":7897:7944   */\n  mstore\n    /* \"#utility.yul\":7961:8092   */\n  tag_156\n    /* \"#utility.yul\":8087:8091   */\n  dup2\n    /* \"#utility.yul\":7961:8092   */\n  tag_48\n  jump\t// in\ntag_156:\n    /* \"#utility.yul\":7953:8092   */\n  swap1\n  pop\n    /* \"#utility.yul\":7680:8099   */\n  swap2\n  swap1\n  pop\n  jump\t// out\n    /* \"#utility.yul\":8105:8204   */\ntag_49:\n    /* \"#utility.yul\":8157:8163   */\n  0x00\n    /* \"#utility.yul\":8191:8196   */\n  dup2\n    /* \"#utility.yul\":8185:8197   */\n  mload\n    /* \"#utility.yul\":8175:8197   */\n  swap1\n  pop\n    /* \"#utility.yul\":8105:8204   */\n  swap2\n  swap1\n  pop\n  jump\t// out\n    /* \"#utility.yul\":8210:8390   */\ntag_50:\n    /* \"#utility.yul\":8258:8335   */\n  0x4e487b7100000000000000000000000000000000000000000000000000000000\n    /* \"#utility.yul\":8255:8256   */\n  0x00\n    /* \"#utility.yul\":8248:8336   */\n  mstore\n    /* \"#utility.yul\":8355:8359   */\n  0x22\n    /* \"#utility.yul\":8352:8353   */\n  0x04\n    /* \"#utility.yul\":8345:8360   */\n  mstore\n    /* \"#utility.yul\":8379:8383   */\n  0x24\n    /* \"#utility.yul\":8376:8377   */\n  0x00\n    /* \"#utility.yul\":8369:8384   */\n  revert\n    /* \"#utility.yul\":8396:8716   */\ntag_51:\n    /* \"#utility.yul\":8440:8446   */\n  0x00\n    /* \"#utility.yul\":8477:8478   */\n  0x02\n    /* \"#utility.yul\":8471:8475   */\n  dup3\n    /* \"#utility.yul\":8467:8479   */\n  div\n    /* \"#utility.yul\":8457:8479   */\n  swap1\n  pop\n    /* \"#utility.yul\":8524:8525   */\n  0x01\n    /* \"#utility.yul\":8518:8522   */\n  dup3\n    /* \"#utility.yul\":8514:8526   */\n  and\n    /* \"#utility.yul\":8545:8563   */\n  dup1\n    /* \"#utility.yul\":8535:8616   */\n  tag_160\n  jumpi\n    /* \"#utility.yul\":8601:8605   */\n  0x7f\n    /* \"#utility.yul\":8593:8599   */\n  dup3\n    /* \"#utility.yul\":8589:8606   */\n  and\n    /* \"#utility.yul\":8579:8606   */\n  swap2\n  pop\n    /* \"#utility.yul\":8535:8616   */\ntag_160:\n    /* \"#utility.yul\":8663:8665   */\n  0x20\n    /* \"#utility.yul\":8655:8661   */\n  dup3\n    /* \"#utility.yul\":8652:8666   */\n  lt\n    /* \"#utility.yul\":8632:8650   */\n  dup2\n    /* \"#utility.yul\":8629:8667   */\n  sub\n    /* \"#utility.yul\":8626:8710   */\n  tag_161\n  jumpi\n    /* \"#utility.yul\":8682:8700   */\n  tag_162\n  tag_50\n  jump\t// in\ntag_162:\n    /* \"#utility.yul\":8626:8710   */\ntag_161:\n    /* \"#utility.yul\":8447:8716   */\n  pop\n    /* \"#utility.yul\":8396:8716   */\n  swap2\n  swap1\n  pop\n  jump\t// out\n    /* \"#utility.yul\":8722:8863   */\ntag_52:\n    /* \"#utility.yul\":8771:8775   */\n  0x00\n    /* \"#utility.yul\":8794:8797   */\n  dup2\n    /* \"#utility.yul\":8786:8797   */\n  swap1\n  pop\n    /* \"#utility.yul\":8817:8820   */\n  dup2\n    /* \"#utility.yul\":8814:8815   */\n  0x00\n    /* \"#utility.yul\":8807:8821   */\n  mstore\n    /* \"#utility.yul\":8851:8855   */\n  0x20\n    /* \"#utility.yul\":8848:8849   */\n  0x00\n    /* \"#utility.yul\":8838:8856   */\n  keccak256\n    /* \"#utility.yul\":8830:8856   */\n  swap1\n  pop\n    /* \"#utility.yul\":8722:8863   */\n  swap2\n  swap1\n  pop\n  jump\t// out\n    /* \"#utility.yul\":8869:8962   */\ntag_53:\n    /* \"#utility.yul\":8906:8912   */\n  0x00\n    /* \"#utility.yul\":8953:8955   */\n  0x20\n    /* \"#utility.yul\":8948:8950   */\n  0x1f\n    /* \"#utility.yul\":8941:8946   */\n  dup4\n    /* \"#utility.yul\":8937:8951   */\n  add\n    /* \"#utility.yul\":8933:8956   */\n  div\n    /* \"#utility.yul\":8923:8956   */\n  swap1\n  pop\n    /* \"#utility.yul\":8869:8962   */\n  swap2\n  swap1\n  pop\n  jump\t// out\n    /* \"#utility.yul\":8968:9075   */\ntag_54:\n    /* \"#utility.yul\":9012:9020   */\n  0x00\n    /* \"#utility.yul\":9062:9067   */\n  dup3\n    /* \"#utility.yul\":9056:9060   */\n  dup3\n    /* \"#utility.yul\":9052:9068   */\n  shl\n    /* \"#utility.yul\":9031:9068   */\n  swap1\n  pop\n    /* \"#utility.yul\":8968:9075   */\n  swap3\n  swap2\n  pop\n  pop\n  jump\t// out\n    /* \"#utility.yul\":9081:9474   */\ntag_55:\n    /* \"#utility.yul\":9150:9156   */\n  0x00\n    /* \"#utility.yul\":9200:9201   */\n  0x08\n    /* \"#utility.yul\":9188:9198   */\n  dup4\n    /* \"#utility.yul\":9184:9202   */\n  mul\n    /* \"#utility.yul\":9223:9320   */\n  tag_167\n    /* \"#utility.yul\":9253:9319   */\n  0xffffffffffffffffffffffffffffffffffffffffffffffffffffffffffffffff\n    /* \"#utility.yul\":9242:9251   */\n  dup3\n    /* \"#utility.yul\":9223:9320   */\n  tag_54\n  jump\t// in\ntag_167:\n    /* \"#utility.yul\":9341:9380   */\n  tag_168\n    /* \"#utility.yul\":9371:9379   */\n  dup7\n    /* \"#utility.yul\":9360:9369   */\n  dup4\n    /* \"#utility.yul\":9341:9380   */\n  tag_54\n  jump\t// in\ntag_168:\n    /* \"#utility.yul\":9329:9380   */\n  swap6\n  pop\n    /* \"#utility.yul\":9413:9417   */\n  dup1\n    /* \"#utility.yul\":9409:9418   */\n  not\n    /* \"#utility.yul\":9402:9407   */\n  dup5\n    /* \"#utility.yul\":9398:9419   */\n  and\n    /* \"#utility.yul\":9389:9419   */\n  swap4\n  pop\n    /* \"#utility.yul\":9462:9466   */\n  dup1\n    /* \"#utility.yul\":9452:9460   */\n  dup7\n    /* \"#utility.yul\":9448:9467   */\n  and\n    /* \"#utility.yul\":9441:9446   */\n  dup5\n    /* \"#utility.yul\":9438:9468   */\n  or\n    /* \"#utility.yul\":9428:9468   */\n  swap3\n  pop\n    /* \"#utility.yul\":9157:9474   */\n  pop\n  pop\n    /* \"#utility.yul\":9081:9474   */\n  swap4\n  swap3\n  pop\n  pop\n  pop\n  jump\t// out\n    /* \"#utility.yul\":9480:9557   */\ntag_56:\n    /* \"#utility.yul\":9517:9524   */\n  0x00\n    /* \"#utility.yul\":9546:9551   */\n  dup2\n    /* \"#utility.yul\":9535:9551   */\n  swap1\n  pop\n    /* \"#utility.yul\":9480:9557   */\n  swap2\n  swap1\n  pop\n  jump\t// out\n    /* \"#utility.yul\":9563:9623   */\ntag_57:\n    /* \"#utility.yul\":9591:9594   */\n  0x00\n    /* \"#utility.yul\":9612:9617   */\n  dup2\n    /* \"#utility.yul\":9605:9617   */\n  swap1\n  pop\n    /* \"#utility.yul\":9563:9623   */\n  swap2\n  swap1\n  pop\n  jump\t// out\n    /* \"#utility.yul\":9629:9771   */\ntag_58:\n    /* \"#utility.yul\":9679:9688   */\n  0x00\n    /* \"#utility.yul\":9712:9765   */\n  tag_172\n    /* \"#utility.yul\":9730:9764   */\n  tag_173\n    /* \"#utility.yul\":9739:9763   */\n  tag_174\n    /* \"#utility.yul\":9757:9762   */\n  dup5\n    /* \"#utility.yul\":9739:9763   */\n  tag_56\n  jump\t// in\ntag_174:\n    /* \"#utility.yul\":9730:9764   */\n  tag_57\n  jump\t// in\ntag_173:\n    /* \"#utility.yul\":9712:9765   */\n  tag_56\n  jump\t// in\ntag_172:\n    /* \"#utility.yul\":9699:9765   */\n  swap1\n  pop\n    /* \"#utility.yul\":9629:9771   */\n  swap2\n  swap1\n  pop\n  jump\t// out\n    /* \"#utility.yul\":9777:9852   */\ntag_59:\n    /* \"#utility.yul\":9820:9823   */\n  0x00\n    /* \"#utility.yul\":9841:9846   */\n  dup2\n    /* \"#utility.yul\":9834:9846   */\n  swap1\n  pop\n    /* \"#utility.yul\":9777:9852   */\n  swap2\n  swap1\n  pop\n  jump\t// out\n    /* \"#utility.yul\":9858:10127   */\ntag_60:\n    /* \"#utility.yul\":9968:10007   */\n  tag_177\n    /* \"#utility.yul\":9999:10006   */\n  dup4\n    /* \"#utility.yul\":9968:10007   */\n  tag_58\n  jump\t// in\ntag_177:\n    /* \"#utility.yul\":10029:10120   */\n  tag_178\n    /* \"#utility.yul\":10078:10119   */\n  tag_179\n    /* \"#utility.yul\":10102:10118   */\n  dup3\n    /* \"#utility.yul\":10078:10119   */\n  tag_59\n  jump\t// in\ntag_179:\n    /* \"#utility.yul\":10070:10076   */\n  dup5\n    /* \"#utility.yul\":10063:10067   */\n  dup5\n    /* \"#utility.yul\":10057:10068   */\n  sload\n    /* \"#utility.yul\":10029:10120   */\n  tag_55\n  jump\t// in\ntag_178:\n    /* \"#utility.yul\":10023:10027   */\n  dup3\n    /* \"#utility.yul\":10016:10121   */\n  sstore\n    /* \"#utility.yul\":9934:10127   */\n  pop\n    /* \"#utility.yul\":9858:10127   */\n  pop\n  pop\n  pop\n  jump\t// out\n    /* \"#utility.yul\":10133:10206   */\ntag_61:\n    /* \"#utility.yul\":10178:10181   */\n  0x00\n    /* \"#utility.yul\":10133:10206   */\n  swap1\n  jump\t// out\n    /* \"#utility.yul\":10212:10401   */\ntag_62:\n    /* \"#utility.yul\":10289:10321   */\n  tag_182\n  tag_61\n  jump\t// in\ntag_182:\n    /* \"#utility.yul\":10330:10395   */\n  tag_183\n    /* \"#utility.yul\":10388:10394   */\n  dup2\n    /* \"#utility.yul\":10380:10386   */\n  dup5\n    /* \"#utility.yul\":10374:10378   */\n  dup5\n    /* \"#utility.yul\":10330:10395   */\n  tag_60\n  jump\t// in\ntag_183:\n    /* \"#utility.yul\":10265:10401   */\n  pop\n    /* \"#utility.yul\":10212:10401   */\n  pop\n  pop\n  jump\t// out\n    /* \"#utility.yul\":10407:10593   */\ntag_63:\n    /* \"#utility.yul\":10467:10587   */\ntag_185:\n    /* \"#utility.yul\":10484:10487   */\n  dup2\n    /* \"#utility.yul\":10477:10482   */\n  dup2\n    /* \"#utility.yul\":10474:10488   */\n  lt\n    /* \"#utility.yul\":10467:10587   */\n  iszero\n  tag_187\n  jumpi\n    /* \"#utility.yul\":10538:10577   */\n  tag_188\n    /* \"#utility.yul\":10575:10576   */\n  0x00\n    /* \"#utility.yul\":10568:10573   */\n  dup3\n    /* \"#utility.yul\":10538:10577   */\n  tag_62\n  jump\t// in\ntag_188:\n    /* \"#utility.yul\":10511:10512   */\n  0x01\n    /* \"#utility.yul\":10504:10509   */\n  dup2\n    /* \"#utility.yul\":10500:10513   */\n  add\n    /* \"#utility.yul\":10491:10513   */\n  swap1\n  pop\n    /* \"#utility.yul\":10467:10587   */\n  jump(tag_185)\ntag_187:\n    /* \"#utility.yul\":10407:10593   */\n  pop\n  pop\n  jump\t// out\n    /* \"#utility.yul\":10599:11142   */\ntag_64:\n    /* \"#utility.yul\":10700:10702   */\n  0x1f\n    /* \"#utility.yul\":10695:10698   */\n  dup3\n    /* \"#utility.yul\":10692:10703   */\n  gt\n    /* \"#utility.yul\":10689:11135   */\n  iszero\n  tag_190\n  jumpi\n    /* \"#utility.yul\":10734:10772   */\n  tag_191\n    /* \"#utility.yul\":10766:10771   */\n  dup2\n    /* \"#utility.yul\":10734:10772   */\n  tag_52\n  jump\t// in\ntag_191:\n    /* \"#utility.yul\":10818:10847   */\n  tag_192\n    /* \"#utility.yul\":10836:10846   */\n  dup5\n    /* \"#utility.yul\":10818:10847   */\n  tag_53\n  jump\t// in\ntag_192:\n    /* \"#utility.yul\":10808:10816   */\n  dup2\n    /* \"#utility.yul\":10804:10848   */\n  add\n    /* \"#utility.yul\":11001:11003   */\n  0x20\n    /* \"#utility.yul\":10989:10999   */\n  dup6\n    /* \"#utility.yul\":10986:11004   */\n  lt\n    /* \"#utility.yul\":10983:11032   */\n  iszero\n  tag_193\n  jumpi\n    /* \"#utility.yul\":11022:11030   */\n  dup2\n    /* \"#utility.yul\":11007:11030   */\n  swap1\n  pop\n    /* \"#utility.yul\":10983:11032   */\ntag_193:\n    /* \"#utility.yul\":11045:11125   */\n  tag_194\n    /* \"#utility.yul\":11101:11123   */\n  tag_195\n    /* \"#utility.yul\":11119:11122   */\n  dup6\n    /* \"#utility.yul\":11101:11123   */\n  tag_53\n  jump\t// in\ntag_195:\n    /* \"#utility.yul\":11091:11099   */\n  dup4\n    /* \"#utility.yul\":11087:11124   */\n  add\n    /* \"#utility.yul\":11074:11085   */\n  dup3\n    /* \"#utility.yul\":11045:11125   */\n  tag_63\n  jump\t// in\ntag_194:\n    /* \"#utility.yul\":10704:11135   */\n  pop\n  pop\n    /* \"#utility.yul\":10689:11135   */\ntag_190:\n    /* \"#utility.yul\":10599:11142   */\n  pop\n  pop\n  pop\n  jump\t// out\n    /* \"#utility.yul\":11148:11265   */\ntag_65:\n    /* \"#utility.yul\":11202:11210   */\n  0x00\n    /* \"#utility.yul\":11252:11257   */\n  dup3\n    /* \"#utility.yul\":11246:11250   */\n  dup3\n    /* \"#utility.yul\":11242:11258   */\n  shr\n    /* \"#utility.yul\":11221:11258   */\n  swap1\n  pop\n    /* \"#utility.yul\":11148:11265   */\n  swap3\n  swap2\n  pop\n  pop\n  jump\t// out\n    /* \"#utility.yul\":11271:11440   */\ntag_66:\n    /* \"#utility.yul\":11315:11321   */\n  0x00\n    /* \"#utility.yul\":11348:11399   */\n  tag_198\n    /* \"#utility.yul\":11396:11397   */\n  0x00\n    /* \"#utility.yul\":11392:11398   */\n  not\n    /* \"#utility.yul\":11384:11389   */\n  dup5\n    /* \"#utility.yul\":11381:11382   */\n  0x08\n    /* \"#utility.yul\":11377:11390   */\n  mul\n    /* \"#utility.yul\":11348:11399   */\n  tag_65\n  jump\t// in\ntag_198:\n    /* \"#utility.yul\":11344:11400   */\n  not\n    /* \"#utility.yul\":11429:11433   */\n  dup1\n    /* \"#utility.yul\":11423:11427   */\n  dup4\n    /* \"#utility.yul\":11419:11434   */\n  and\n    /* \"#utility.yul\":11409:11434   */\n  swap2\n  pop\n    /* \"#utility.yul\":11322:11440   */\n  pop\n    /* \"#utility.yul\":11271:11440   */\n  swap3\n  swap2\n  pop\n  pop\n  jump\t// out\n    /* \"#utility.yul\":11445:11740   */\ntag_67:\n    /* \"#utility.yul\":11521:11525   */\n  0x00\n    /* \"#utility.yul\":11667:11696   */\n  tag_200\n    /* \"#utility.yul\":11692:11695   */\n  dup4\n    /* \"#utility.yul\":11686:11690   */\n  dup4\n    /* \"#utility.yul\":11667:11696   */\n  tag_66\n  jump\t// in\ntag_200:\n    /* \"#utility.yul\":11659:11696   */\n  swap2\n  pop\n    /* \"#utility.yul\":11729:11732   */\n  dup3\n    /* \"#utility.yul\":11726:11727   */\n  0x02\n    /* \"#utility.yul\":11722:11733   */\n  mul\n    /* \"#utility.yul\":11716:11720   */\n  dup3\n    /* \"#utility.yul\":11713:11734   */\n  or\n    /* \"#utility.yul\":11705:11734   */\n  swap1\n  pop\n    /* \"#utility.yul\":11445:11740   */\n  swap3\n  swap2\n  pop\n  pop\n  jump\t// out\n    /* \"#utility.yul\":11745:13140   */\ntag_13:\n    /* \"#utility.yul\":11862:11899   */\n  tag_202\n    /* \"#utility.yul\":11895:11898   */\n  dup3\n    /* \"#utility.yul\":11862:11899   */\n  tag_49\n  jump\t// in\ntag_202:\n    /* \"#utility.yul\":11964:11982   */\n  0xffffffffffffffff\n    /* \"#utility.yul\":11956:11962   */\n  dup2\n    /* \"#utility.yul\":11953:11983   */\n  gt\n    /* \"#utility.yul\":11950:12006   */\n  iszero\n  tag_203\n  jumpi\n    /* \"#utility.yul\":11986:12004   */\n  tag_204\n  tag_21\n  jump\t// in\ntag_204:\n    /* \"#utility.yul\":11950:12006   */\ntag_203:\n    /* \"#utility.yul\":12030:12068   */\n  tag_205\n    /* \"#utility.yul\":12062:12066   */\n  dup3\n    /* \"#utility.yul\":12056:12067   */\n  sload\n    /* \"#utility.yul\":12030:12068   */\n  tag_51\n  jump\t// in\ntag_205:\n    /* \"#utility.yul\":12115:12182   */\n  tag_206\n    /* \"#utility.yul\":12175:12181   */\n  dup3\n    /* \"#utility.yul\":12167:12173   */\n  dup3\n    /* \"#utility.yul\":12161:12165   */\n  dup6\n    /* \"#utility.yul\":12115:12182   */\n  tag_64\n  jump\t// in\ntag_206:\n    /* \"#utility.yul\":12209:12210   */\n  0x00\n    /* \"#utility.yul\":12233:12237   */\n  0x20\n    /* \"#utility.yul\":12220:12237   */\n  swap1\n  pop\n    /* \"#utility.yul\":12265:12267   */\n  0x1f\n    /* \"#utility.yul\":12257:12263   */\n  dup4\n    /* \"#utility.yul\":12254:12268   */\n  gt\n    /* \"#utility.yul\":12282:12283   */\n  0x01\n    /* \"#utility.yul\":12277:12895   */\n  dup2\n  eq\n  tag_208\n  jumpi\n    /* \"#utility.yul\":12939:12940   */\n  0x00\n    /* \"#utility.yul\":12956:12962   */\n  dup5\n    /* \"#utility.yul\":12953:13030   */\n  iszero\n  tag_209\n  jumpi\n    /* \"#utility.yul\":13005:13014   */\n  dup3\n    /* \"#utility.yul\":13000:13003   */\n  dup8\n    /* \"#utility.yul\":12996:13015   */\n  add\n    /* \"#utility.yul\":12990:13016   */\n  mload\n    /* \"#utility.yul\":12981:13016   */\n  swap1\n  pop\n    /* \"#utility.yul\":12953:13030   */\ntag_209:\n    /* \"#utility.yul\":13056:13123   */\n  tag_210\n    /* \"#utility.yul\":13116:13122   */\n  dup6\n    /* \"#utility.yul\":13109:13114   */\n  dup3\n    /* \"#utility.yul\":13056:13123   */\n  tag_67\n  jump\t// in\ntag_210:\n    /* \"#utility.yul\":13050:13054   */\n  dup7\n    /* \"#utility.yul\":13043:13124   */\n  sstore\n    /* \"#utility.yul\":12912:13134   */\n  pop\n    /* \"#utility.yul\":12247:13134   */\n  jump(tag_207)\n    /* \"#utility.yul\":12277:12895   */\ntag_208:\n    /* \"#utility.yul\":12329:12333   */\n  0x1f\n    /* \"#utility.yul\":12325:12334   */\n  not\n    /* \"#utility.yul\":12317:12323   */\n  dup5\n    /* \"#utility.yul\":12313:12335   */\n  and\n    /* \"#utility.yul\":12363:12400   */\n  tag_211\n    /* \"#utility.yul\":12395:12399   */\n  dup7\n    /* \"#utility.yul\":12363:12400   */\n  tag_52\n  jump\t// in\ntag_211:\n    /* \"#utility.yul\":12422:12423   */\n  0x00\n    /* \"#utility.yul\":12436:12644   */\ntag_212:\n    /* \"#utility.yul\":12450:12457   */\n  dup3\n    /* \"#utility.yul\":12447:12448   */\n  dup2\n    /* \"#utility.yul\":12444:12458   */\n  lt\n    /* \"#utility.yul\":12436:12644   */\n  iszero\n  tag_214\n  jumpi\n    /* \"#utility.yul\":12529:12538   */\n  dup5\n    /* \"#utility.yul\":12524:12527   */\n  dup10\n    /* \"#utility.yul\":12520:12539   */\n  add\n    /* \"#utility.yul\":12514:12540   */\n  mload\n    /* \"#utility.yul\":12506:12512   */\n  dup3\n    /* \"#utility.yul\":12499:12541   */\n  sstore\n    /* \"#utility.yul\":12580:12581   */\n  0x01\n    /* \"#utility.yul\":12572:12578   */\n  dup3\n    /* \"#utility.yul\":12568:12582   */\n  add\n    /* \"#utility.yul\":12558:12582   */\n  swap2\n  pop\n    /* \"#utility.yul\":12627:12629   */\n  0x20\n    /* \"#utility.yul\":12616:12625   */\n  dup6\n    /* \"#utility.yul\":12612:12630   */\n  add\n    /* \"#utility.yul\":12599:12630   */\n  swap5\n  pop\n    /* \"#utility.yul\":12473:12477   */\n  0x20\n    /* \"#utility.yul\":12470:12471   */\n  dup2\n    /* \"#utility.yul\":12466:12478   */\n  add\n    /* \"#utility.yul\":12461:12478   */\n  swap1\n  pop\n    /* \"#utility.yul\":12436:12644   */\n  jump(tag_212)\ntag_214:\n    /* \"#utility.yul\":12672:12678   */\n  dup7\n    /* \"#utility.yul\":12663:12670   */\n  dup4\n    /* \"#utility.yul\":12660:12679   */\n  lt\n    /* \"#utility.yul\":12657:12836   */\n  iszero\n  tag_215\n  jumpi\n    /* \"#utility.yul\":12730:12739   */\n  dup5\n    /* \"#utility.yul\":12725:12728   */\n  dup10\n    /* \"#utility.yul\":12721:12740   */\n  add\n    /* \"#utility.yul\":12715:12741   */\n  mload\n    /* \"#utility.yul\":12773:12821   */\n  tag_216\n    /* \"#utility.yul\":12815:12819   */\n  0x1f\n    /* \"#utility.yul\":12807:12813   */\n  dup10\n    /* \"#utility.yul\":12803:12820   */\n  and\n    /* \"#utility.yul\":12792:12801   */\n  dup3\n    /* \"#utility.yul\":12773:12821   */\n  tag_66\n  jump\t// in\ntag_216:\n    /* \"#utility.yul\":12765:12771   */\n  dup4\n    /* \"#utility.yul\":12758:12822   */\n  sstore\n    /* \"#utility.yul\":12680:12836   */\n  pop\n    /* \"#utility.yul\":12657:12836   */\ntag_215:\n    /* \"#utility.yul\":12882:12883   */\n  0x01\n    /* \"#utility.yul\":12878:12879   */\n  0x02\n    /* \"#utility.yul\":12870:12876   */\n  dup9\n    /* \"#utility.yul\":12866:12880   */\n  mul\n    /* \"#utility.yul\":12862:12884   */\n  add\n    /* \"#utility.yul\":12856:12860   */\n  dup9\n    /* \"#utility.yul\":12849:12885   */\n  sstore\n    /* \"#utility.yul\":12284:12895   */\n  pop\n  pop\n  pop\n    /* \"#utility.yul\":12247:13134   */\ntag_207:\n  pop\n    /* \"#utility.yul\":11837:13140   */\n  pop\n  pop\n  pop\n    /* \"#utility.yul\":11745:13140   */\n  pop\n  pop\n  jump\t// out\n    /* \"Lottogemeinschaft.sol\":1014:5487  contract Lottogemeinschaft {... */\ntag_14:\n  dataSize(sub_0)\n  dup1\n  dataOffset(sub_0)\n  0x00\n  codecopy\n  0x00\n  return\nstop\n\nsub_0: assembly {\n        /* \"Lottogemeinschaft.sol\":1014:5487  contract Lottogemeinschaft {... */\n      mstore(0x40, 0x80)\n      jumpi(tag_1, lt(calldatasize, 0x04))\n      shr(0xe0, calldataload(0x00))\n      dup1\n      0x526024ea\n      gt\n      tag_20\n      jumpi\n      dup1\n      0xb08c7076\n      gt\n      tag_21\n      jumpi\n      dup1\n      0xb08c7076\n      eq\n      tag_15\n      jumpi\n      dup1\n      0xb609e684\n      eq\n      tag_16\n      jumpi\n      dup1\n      0xc6ca9d19\n      eq\n      tag_17\n      jumpi\n      dup1\n      0xd27d06c0\n      eq\n      tag_18\n      jumpi\n      dup1\n      0xe068561a\n      eq\n      tag_19\n      jumpi\n      jump(tag_1)\n    tag_21:\n      dup1\n      0x526024ea\n      eq\n      tag_11\n      jumpi\n      dup1\n      0x70a41bc0\n      eq\n      tag_12\n      jumpi\n      dup1\n      0x91243239\n      eq\n      tag_13\n      jumpi\n      dup1\n      0xad2c046c\n      eq\n      tag_14\n      jumpi\n      jump(tag_1)\n    tag_20:\n      dup1\n      0x31c45120\n      gt\n      tag_22\n      jumpi\n      dup1\n      0x31c45120\n      eq\n      tag_6\n      jumpi\n      dup1\n      0x36927060\n      eq\n      tag_7\n      jumpi\n      dup1\n      0x3babb15a\n      eq\n      tag_8\n      jumpi\n      dup1\n      0x3f0f5d51\n      eq\n      tag_9\n      jumpi\n      dup1\n      0x43767832\n      eq\n      tag_10\n      jumpi\n      jump(tag_1)\n    tag_22:\n      dup1\n      0x084263f5\n      eq\n      tag_2\n      jumpi\n      dup1\n      0x0c96b701\n      eq\n      tag_3\n      jumpi\n      dup1\n      0x0f085e50\n      eq\n      tag_4\n      jumpi\n      dup1\n      0x143b7caf\n      eq\n      tag_5\n      jumpi\n    tag_1:\n      0x00\n      dup1\n      revert\n        /* \"Lottogemeinschaft.sol\":1157:1181  uint48 public auszahlung */\n    tag_2:\n      callvalue\n      dup1\n      iszero\n      tag_23\n      jumpi\n      0x00\n      dup1\n      revert\n    tag_23:\n      pop\n      tag_24\n      tag_25\n      jump\t// in\n    tag_24:\n      mload(0x40)\n      tag_26\n      swap2\n      swap1\n      tag_27\n      jump\t// in\n    tag_26:\n      mload(0x40)\n      dup1\n      swap2\n      sub\n      swap1\n      return\n        /* \"Lottogemeinschaft.sol\":4072:4669  function gewinnAuszahlen() public restictedToMitspieler nonReentrant {... */\n    tag_3:\n      callvalue\n      dup1\n      iszero\n      tag_28\n      jumpi\n      0x00\n      dup1\n      revert\n    tag_28:\n      pop\n      tag_29\n      tag_30\n      jump\t// in\n    tag_29:\n      stop\n        /* \"Lottogemeinschaft.sol\":1405:1442  uint48 public gewinnProMitspieler = 0 */\n    tag_4:\n      callvalue\n      dup1\n      iszero\n      tag_31\n      jumpi\n      0x00\n      dup1\n      revert\n    tag_31:\n      pop\n      tag_32\n      tag_33\n      jump\t// in\n    tag_32:\n      mload(0x40)\n      tag_34\n      swap2\n      swap1\n      tag_27\n      jump\t// in\n    tag_34:\n      mload(0x40)\n      dup1\n      swap2\n      sub\n      swap1\n      return\n        /* \"Lottogemeinschaft.sol\":1223:1254  uint48 public lottoscheinNummer */\n    tag_5:\n      callvalue\n      dup1\n      iszero\n      tag_35\n      jumpi\n      0x00\n      dup1\n      revert\n    tag_35:\n      pop\n      tag_36\n      tag_37\n      jump\t// in\n    tag_36:\n      mload(0x40)\n      tag_38\n      swap2\n      swap1\n      tag_27\n      jump\t// in\n    tag_38:\n      mload(0x40)\n      dup1\n      swap2\n      sub\n      swap1\n      return\n        /* \"Lottogemeinschaft.sol\":4677:4913  function preisLottoscheinAendern(uint32 neuerPreis) public restictedToGruender{... */\n    tag_6:\n      callvalue\n      dup1\n      iszero\n      tag_39\n      jumpi\n      0x00\n      dup1\n      revert\n    tag_39:\n      pop\n      tag_40\n      0x04\n      dup1\n      calldatasize\n      sub\n      dup2\n      add\n      swap1\n      tag_41\n      swap2\n      swap1\n      tag_42\n      jump\t// in\n    tag_41:\n      tag_43\n      jump\t// in\n    tag_40:\n      stop\n        /* \"Lottogemeinschaft.sol\":1260:1302  mapping(address => bool) public mitspieler */\n    tag_7:\n      callvalue\n      dup1\n      iszero\n      tag_44\n      jumpi\n      0x00\n      dup1\n      revert\n    tag_44:\n      pop\n      tag_45\n      0x04\n      dup1\n      calldatasize\n      sub\n      dup2\n      add\n      swap1\n      tag_46\n      swap2\n      swap1\n      tag_47\n      jump\t// in\n    tag_46:\n      tag_48\n      jump\t// in\n    tag_45:\n      mload(0x40)\n      tag_49\n      swap2\n      swap1\n      tag_50\n      jump\t// in\n    tag_49:\n      mload(0x40)\n      dup1\n      swap2\n      sub\n      swap1\n      return\n        /* \"Lottogemeinschaft.sol\":1362:1399  uint16 public anzahlTeilnehmerAktuell */\n    tag_8:\n      callvalue\n      dup1\n      iszero\n      tag_51\n      jumpi\n      0x00\n      dup1\n      revert\n    tag_51:\n      pop\n      tag_52\n      tag_53\n      jump\t// in\n    tag_52:\n      mload(0x40)\n      tag_54\n      swap2\n      swap1\n      tag_55\n      jump\t// in\n    tag_54:\n      mload(0x40)\n      dup1\n      swap2\n      sub\n      swap1\n      return\n        /* \"Lottogemeinschaft.sol\":1187:1217  uint32 public preisLottoschein */\n    tag_9:\n      callvalue\n      dup1\n      iszero\n      tag_56\n      jumpi\n      0x00\n      dup1\n      revert\n    tag_56:\n      pop\n      tag_57\n      tag_58\n      jump\t// in\n    tag_57:\n      mload(0x40)\n      tag_59\n      swap2\n      swap1\n      tag_60\n      jump\t// in\n    tag_59:\n      mload(0x40)\n      dup1\n      swap2\n      sub\n      swap1\n      return\n        /* \"Lottogemeinschaft.sol\":5211:5484  function erlaubteMitspielerAdresseHinzufuegen(address erlaubterMitspieler) public restictedToGruender{... */\n    tag_10:\n      callvalue\n      dup1\n      iszero\n      tag_61\n      jumpi\n      0x00\n      dup1\n      revert\n    tag_61:\n      pop\n      tag_62\n      0x04\n      dup1\n      calldatasize\n      sub\n      dup2\n      add\n      swap1\n      tag_63\n      swap2\n      swap1\n      tag_47\n      jump\t// in\n    tag_63:\n      tag_64\n      jump\t// in\n    tag_62:\n      stop\n        /* \"Lottogemeinschaft.sol\":2465:3316  function mitmachen() public payable {... */\n    tag_11:\n      tag_65\n      tag_66\n      jump\t// in\n    tag_65:\n      stop\n        /* \"Lottogemeinschaft.sol\":1118:1151  uint16 public maxTeilnehmerAnzahl */\n    tag_12:\n      callvalue\n      dup1\n      iszero\n      tag_67\n      jumpi\n      0x00\n      dup1\n      revert\n    tag_67:\n      pop\n      tag_68\n      tag_69\n      jump\t// in\n    tag_68:\n      mload(0x40)\n      tag_70\n      swap2\n      swap1\n      tag_55\n      jump\t// in\n    tag_70:\n      mload(0x40)\n      dup1\n      swap2\n      sub\n      swap1\n      return\n        /* \"Lottogemeinschaft.sol\":1308:1356  mapping(address => bool) public gewinnAusgezahlt */\n    tag_13:\n      callvalue\n      dup1\n      iszero\n      tag_71\n      jumpi\n      0x00\n      dup1\n      revert\n    tag_71:\n      pop\n      tag_72\n      0x04\n      dup1\n      calldatasize\n      sub\n      dup2\n      add\n      swap1\n      tag_73\n      swap2\n      swap1\n      tag_47\n      jump\t// in\n    tag_73:\n      tag_74\n      jump\t// in\n    tag_72:\n      mload(0x40)\n      tag_75\n      swap2\n      swap1\n      tag_50\n      jump\t// in\n    tag_75:\n      mload(0x40)\n      dup1\n      swap2\n      sub\n      swap1\n      return\n        /* \"Lottogemeinschaft.sol\":1048:1071  address public gruender */\n    tag_14:\n      callvalue\n      dup1\n      iszero\n      tag_76\n      jumpi\n      0x00\n      dup1\n      revert\n    tag_76:\n      pop\n      tag_77\n      tag_78\n      jump\t// in\n    tag_77:\n      mload(0x40)\n      tag_79\n      swap2\n      swap1\n      tag_80\n      jump\t// in\n    tag_79:\n      mload(0x40)\n      dup1\n      swap2\n      sub\n      swap1\n      return\n        /* \"Lottogemeinschaft.sol\":1496:1535  bool public nurErlaubteMitspieler=false */\n    tag_15:\n      callvalue\n      dup1\n      iszero\n      tag_81\n      jumpi\n      0x00\n      dup1\n      revert\n    tag_81:\n      pop\n      tag_82\n      tag_83\n      jump\t// in\n    tag_82:\n      mload(0x40)\n      tag_84\n      swap2\n      swap1\n      tag_50\n      jump\t// in\n    tag_84:\n      mload(0x40)\n      dup1\n      swap2\n      sub\n      swap1\n      return\n        /* \"Lottogemeinschaft.sol\":1448:1490  bool public kannGewinnAbgeholtWerden=false */\n    tag_16:\n      callvalue\n      dup1\n      iszero\n      tag_85\n      jumpi\n      0x00\n      dup1\n      revert\n    tag_85:\n      pop\n      tag_86\n      tag_87\n      jump\t// in\n    tag_86:\n      mload(0x40)\n      tag_88\n      swap2\n      swap1\n      tag_50\n      jump\t// in\n    tag_88:\n      mload(0x40)\n      dup1\n      swap2\n      sub\n      swap1\n      return\n        /* \"Lottogemeinschaft.sol\":3364:4022  function gewinnEinzahlen(uint48 gewinn) public payable restictedToGruender {... */\n    tag_17:\n      tag_89\n      0x04\n      dup1\n      calldatasize\n      sub\n      dup2\n      add\n      swap1\n      tag_90\n      swap2\n      swap1\n      tag_91\n      jump\t// in\n    tag_90:\n      tag_92\n      jump\t// in\n    tag_89:\n      stop\n        /* \"Lottogemeinschaft.sol\":1077:1112  string public tippgemeinschaftsName */\n    tag_18:\n      callvalue\n      dup1\n      iszero\n      tag_93\n      jumpi\n      0x00\n      dup1\n      revert\n    tag_93:\n      pop\n      tag_94\n      tag_95\n      jump\t// in\n    tag_94:\n      mload(0x40)\n      tag_96\n      swap2\n      swap1\n      tag_97\n      jump\t// in\n    tag_96:\n      mload(0x40)\n      dup1\n      swap2\n      sub\n      swap1\n      return\n        /* \"Lottogemeinschaft.sol\":4919:5205  function anzahlMitspielerAendern(uint16 neueAnzahlMaxTeilnehmer) public restictedToGruender{... */\n    tag_19:\n      callvalue\n      dup1\n      iszero\n      tag_98\n      jumpi\n      0x00\n      dup1\n      revert\n    tag_98:\n      pop\n      tag_99\n      0x04\n      dup1\n      calldatasize\n      sub\n      dup2\n      add\n      swap1\n      tag_100\n      swap2\n      swap1\n      tag_101\n      jump\t// in\n    tag_100:\n      tag_102\n      jump\t// in\n    tag_99:\n      stop\n        /* \"Lottogemeinschaft.sol\":1157:1181  uint48 public auszahlung */\n    tag_25:\n      0x02\n      dup1\n      sload\n      swap1\n      0x0100\n      exp\n      swap1\n      div\n      0xffffffffffff\n      and\n      dup2\n      jump\t// out\n        /* \"Lottogemeinschaft.sol\":4072:4669  function gewinnAuszahlen() public restictedToMitspieler nonReentrant {... */\n    tag_30:\n        /* \"Lottogemeinschaft.sol\":2279:2289  mitspieler */\n      0x03\n        /* \"Lottogemeinschaft.sol\":2279:2301  mitspieler[msg.sender] */\n      0x00\n        /* \"Lottogemeinschaft.sol\":2290:2300  msg.sender */\n      caller\n        /* \"Lottogemeinschaft.sol\":2279:2301  mitspieler[msg.sender] */\n      0xffffffffffffffffffffffffffffffffffffffff\n      and\n      0xffffffffffffffffffffffffffffffffffffffff\n      and\n      dup2\n      mstore\n      0x20\n      add\n      swap1\n      dup2\n      mstore\n      0x20\n      add\n      0x00\n      keccak256\n      0x00\n      swap1\n      sload\n      swap1\n      0x0100\n      exp\n      swap1\n      div\n      0xff\n      and\n        /* \"Lottogemeinschaft.sol\":2271:2302  require(mitspieler[msg.sender]) */\n      tag_104\n      jumpi\n      0x00\n      dup1\n      revert\n    tag_104:\n        /* \"Lottogemeinschaft.sol\":2369:2375  locked */\n      0x07\n      0x00\n      swap1\n      sload\n      swap1\n      0x0100\n      exp\n      swap1\n      div\n      0xff\n      and\n        /* \"Lottogemeinschaft.sol\":2368:2375  !locked */\n      iszero\n        /* \"Lottogemeinschaft.sol\":2360:2394  require(!locked, \"No re-entrancy\") */\n      tag_106\n      jumpi\n      mload(0x40)\n      0x08c379a000000000000000000000000000000000000000000000000000000000\n      dup2\n      mstore\n      0x04\n      add\n      tag_107\n      swap1\n      tag_108\n      jump\t// in\n    tag_107:\n      mload(0x40)\n      dup1\n      swap2\n      sub\n      swap1\n      revert\n    tag_106:\n        /* \"Lottogemeinschaft.sol\":2413:2417  true */\n      0x01\n        /* \"Lottogemeinschaft.sol\":2404:2410  locked */\n      0x07\n      0x00\n        /* \"Lottogemeinschaft.sol\":2404:2417  locked = true */\n      0x0100\n      exp\n      dup2\n      sload\n      dup2\n      0xff\n      mul\n      not\n      and\n      swap1\n      dup4\n      iszero\n      iszero\n      mul\n      or\n      swap1\n      sstore\n      pop\n        /* \"Lottogemeinschaft.sol\":4199:4200  0 */\n      0x00\n        /* \"Lottogemeinschaft.sol\":4177:4196  gewinnProMitspieler */\n      0x05\n      0x02\n      swap1\n      sload\n      swap1\n      0x0100\n      exp\n      swap1\n      div\n      0xffffffffffff\n      and\n        /* \"Lottogemeinschaft.sol\":4177:4200  gewinnProMitspieler > 0 */\n      0xffffffffffff\n      and\n      gt\n        /* \"Lottogemeinschaft.sol\":4169:4227  require(gewinnProMitspieler > 0, \"Kein Gewinn eingezahlt\") */\n      tag_110\n      jumpi\n      mload(0x40)\n      0x08c379a000000000000000000000000000000000000000000000000000000000\n      dup2\n      mstore\n      0x04\n      add\n      tag_111\n      swap1\n      tag_112\n      jump\t// in\n    tag_111:\n      mload(0x40)\n      dup1\n      swap2\n      sub\n      swap1\n      revert\n    tag_110:\n        /* \"Lottogemeinschaft.sol\":4245:4255  mitspieler */\n      0x03\n        /* \"Lottogemeinschaft.sol\":4245:4267  mitspieler[msg.sender] */\n      0x00\n        /* \"Lottogemeinschaft.sol\":4256:4266  msg.sender */\n      caller\n        /* \"Lottogemeinschaft.sol\":4245:4267  mitspieler[msg.sender] */\n      0xffffffffffffffffffffffffffffffffffffffff\n      and\n      0xffffffffffffffffffffffffffffffffffffffff\n      and\n      dup2\n      mstore\n      0x20\n      add\n      swap1\n      dup2\n      mstore\n      0x20\n      add\n      0x00\n      keccak256\n      0x00\n      swap1\n      sload\n      swap1\n      0x0100\n      exp\n      swap1\n      div\n      0xff\n      and\n        /* \"Lottogemeinschaft.sol\":4237:4295  require(mitspieler[msg.sender], \"Du bist kein Mitspieler\") */\n      tag_113\n      jumpi\n      mload(0x40)\n      0x08c379a000000000000000000000000000000000000000000000000000000000\n      dup2\n      mstore\n      0x04\n      add\n      tag_114\n      swap1\n      tag_115\n      jump\t// in\n    tag_114:\n      mload(0x40)\n      dup1\n      swap2\n      sub\n      swap1\n      revert\n    tag_113:\n        /* \"Lottogemeinschaft.sol\":4314:4330  gewinnAusgezahlt */\n      0x04\n        /* \"Lottogemeinschaft.sol\":4314:4342  gewinnAusgezahlt[msg.sender] */\n      0x00\n        /* \"Lottogemeinschaft.sol\":4331:4341  msg.sender */\n      caller\n        /* \"Lottogemeinschaft.sol\":4314:4342  gewinnAusgezahlt[msg.sender] */\n      0xffffffffffffffffffffffffffffffffffffffff\n      and\n      0xffffffffffffffffffffffffffffffffffffffff\n      and\n      dup2\n      mstore\n      0x20\n      add\n      swap1\n      dup2\n      mstore\n      0x20\n      add\n      0x00\n      keccak256\n      0x00\n      swap1\n      sload\n      swap1\n      0x0100\n      exp\n      swap1\n      div\n      0xff\n      and\n        /* \"Lottogemeinschaft.sol\":4313:4342  !gewinnAusgezahlt[msg.sender] */\n      iszero\n        /* \"Lottogemeinschaft.sol\":4305:4383  require(!gewinnAusgezahlt[msg.sender], \"Dein Gewinn wurde bereits ausgezahlt\") */\n      tag_116\n      jumpi\n      mload(0x40)\n      0x08c379a000000000000000000000000000000000000000000000000000000000\n      dup2\n      mstore\n      0x04\n      add\n      tag_117\n      swap1\n      tag_118\n      jump\t// in\n    tag_117:\n      mload(0x40)\n      dup1\n      swap2\n      sub\n      swap1\n      revert\n    tag_116:\n        /* \"Lottogemeinschaft.sol\":4444:4448  true */\n      0x01\n        /* \"Lottogemeinschaft.sol\":4413:4429  gewinnAusgezahlt */\n      0x04\n        /* \"Lottogemeinschaft.sol\":4413:4441  gewinnAusgezahlt[msg.sender] */\n      0x00\n        /* \"Lottogemeinschaft.sol\":4430:4440  msg.sender */\n      caller\n        /* \"Lottogemeinschaft.sol\":4413:4441  gewinnAusgezahlt[msg.sender] */\n      0xffffffffffffffffffffffffffffffffffffffff\n      and\n      0xffffffffffffffffffffffffffffffffffffffff\n      and\n      dup2\n      mstore\n      0x20\n      add\n      swap1\n      dup2\n      mstore\n      0x20\n      add\n      0x00\n      keccak256\n      0x00\n        /* \"Lottogemeinschaft.sol\":4413:4448  gewinnAusgezahlt[msg.sender] = true */\n      0x0100\n      exp\n      dup2\n      sload\n      dup2\n      0xff\n      mul\n      not\n      and\n      swap1\n      dup4\n      iszero\n      iszero\n      mul\n      or\n      swap1\n      sstore\n      pop\n        /* \"Lottogemeinschaft.sol\":4483:4505  uint auszahlungsbetrag */\n      0x00\n        /* \"Lottogemeinschaft.sol\":4508:4527  gewinnProMitspieler */\n      0x05\n      0x02\n      swap1\n      sload\n      swap1\n      0x0100\n      exp\n      swap1\n      div\n      0xffffffffffff\n      and\n        /* \"Lottogemeinschaft.sol\":4483:4527  uint auszahlungsbetrag = gewinnProMitspieler */\n      0xffffffffffff\n      and\n      swap1\n      pop\n        /* \"Lottogemeinschaft.sol\":4538:4547  bool sent */\n      0x00\n        /* \"Lottogemeinschaft.sol\":4553:4563  msg.sender */\n      caller\n        /* \"Lottogemeinschaft.sol\":4553:4568  msg.sender.call */\n      0xffffffffffffffffffffffffffffffffffffffff\n      and\n        /* \"Lottogemeinschaft.sol\":4576:4593  auszahlungsbetrag */\n      dup3\n        /* \"Lottogemeinschaft.sol\":4553:4598  msg.sender.call{value: auszahlungsbetrag}(\"\") */\n      mload(0x40)\n      tag_119\n      swap1\n      tag_120\n      jump\t// in\n    tag_119:\n      0x00\n      mload(0x40)\n      dup1\n      dup4\n      sub\n      dup2\n      dup6\n      dup8\n      gas\n      call\n      swap3\n      pop\n      pop\n      pop\n      returndatasize\n      dup1\n      0x00\n      dup2\n      eq\n      tag_123\n      jumpi\n      mload(0x40)\n      swap2\n      pop\n      and(add(returndatasize, 0x3f), not(0x1f))\n      dup3\n      add\n      0x40\n      mstore\n      returndatasize\n      dup3\n      mstore\n      returndatasize\n      0x00\n      0x20\n      dup5\n      add\n      returndatacopy\n      jump(tag_122)\n    tag_123:\n      0x60\n      swap2\n      pop\n    tag_122:\n      pop\n        /* \"Lottogemeinschaft.sol\":4537:4598  (bool sent, ) = msg.sender.call{value: auszahlungsbetrag}(\"\") */\n      pop\n      swap1\n      pop\n        /* \"Lottogemeinschaft.sol\":4616:4620  sent */\n      dup1\n        /* \"Lottogemeinschaft.sol\":4608:4662  require(sent, \"Auszahlung des Gewinns fehlgeschlagen\") */\n      tag_124\n      jumpi\n      mload(0x40)\n      0x08c379a000000000000000000000000000000000000000000000000000000000\n      dup2\n      mstore\n      0x04\n      add\n      tag_125\n      swap1\n      tag_126\n      jump\t// in\n    tag_125:\n      mload(0x40)\n      dup1\n      swap2\n      sub\n      swap1\n      revert\n    tag_124:\n        /* \"Lottogemeinschaft.sol\":4141:4669  {... */\n      pop\n      pop\n        /* \"Lottogemeinschaft.sol\":2447:2452  false */\n      0x00\n        /* \"Lottogemeinschaft.sol\":2438:2444  locked */\n      0x07\n      0x00\n        /* \"Lottogemeinschaft.sol\":2438:2452  locked = false */\n      0x0100\n      exp\n      dup2\n      sload\n      dup2\n      0xff\n      mul\n      not\n      and\n      swap1\n      dup4\n      iszero\n      iszero\n      mul\n      or\n      swap1\n      sstore\n      pop\n        /* \"Lottogemeinschaft.sol\":4072:4669  function gewinnAuszahlen() public restictedToMitspieler nonReentrant {... */\n      jump\t// out\n        /* \"Lottogemeinschaft.sol\":1405:1442  uint48 public gewinnProMitspieler = 0 */\n    tag_33:\n      0x05\n      0x02\n      swap1\n      sload\n      swap1\n      0x0100\n      exp\n      swap1\n      div\n      0xffffffffffff\n      and\n      dup2\n      jump\t// out\n        /* \"Lottogemeinschaft.sol\":1223:1254  uint48 public lottoscheinNummer */\n    tag_37:\n      0x02\n      0x0c\n      swap1\n      sload\n      swap1\n      0x0100\n      exp\n      swap1\n      div\n      0xffffffffffff\n      and\n      dup2\n      jump\t// out\n        /* \"Lottogemeinschaft.sol\":4677:4913  function preisLottoscheinAendern(uint32 neuerPreis) public restictedToGruender{... */\n    tag_43:\n        /* \"Lottogemeinschaft.sol\":2196:2204  gruender */\n      0x00\n      dup1\n      sload\n      swap1\n      0x0100\n      exp\n      swap1\n      div\n      0xffffffffffffffffffffffffffffffffffffffff\n      and\n        /* \"Lottogemeinschaft.sol\":2182:2204  msg.sender == gruender */\n      0xffffffffffffffffffffffffffffffffffffffff\n      and\n        /* \"Lottogemeinschaft.sol\":2182:2192  msg.sender */\n      caller\n        /* \"Lottogemeinschaft.sol\":2182:2204  msg.sender == gruender */\n      0xffffffffffffffffffffffffffffffffffffffff\n      and\n      eq\n        /* \"Lottogemeinschaft.sol\":2174:2205  require(msg.sender == gruender) */\n      tag_128\n      jumpi\n      0x00\n      dup1\n      revert\n    tag_128:\n        /* \"Lottogemeinschaft.sol\":4798:4799  0 */\n      0x00\n        /* \"Lottogemeinschaft.sol\":4773:4796  anzahlTeilnehmerAktuell */\n      0x05\n      0x00\n      swap1\n      sload\n      swap1\n      0x0100\n      exp\n      swap1\n      div\n      0xffff\n      and\n        /* \"Lottogemeinschaft.sol\":4773:4799  anzahlTeilnehmerAktuell==0 */\n      0xffff\n      and\n      eq\n        /* \"Lottogemeinschaft.sol\":4765:4867  require(anzahlTeilnehmerAktuell==0, \"Es gibt bereits Mitspieler. Preisaenderung nicht mehr moeglich.\") */\n      tag_130\n      jumpi\n      mload(0x40)\n      0x08c379a000000000000000000000000000000000000000000000000000000000\n      dup2\n      mstore\n      0x04\n      add\n      tag_131\n      swap1\n      tag_132\n      jump\t// in\n    tag_131:\n      mload(0x40)\n      dup1\n      swap2\n      sub\n      swap1\n      revert\n    tag_130:\n        /* \"Lottogemeinschaft.sol\":4896:4906  neuerPreis */\n      dup1\n        /* \"Lottogemeinschaft.sol\":4877:4893  preisLottoschein */\n      0x02\n      0x08\n        /* \"Lottogemeinschaft.sol\":4877:4906  preisLottoschein = neuerPreis */\n      0x0100\n      exp\n      dup2\n      sload\n      dup2\n      0xffffffff\n      mul\n      not\n      and\n      swap1\n      dup4\n      0xffffffff\n      and\n      mul\n      or\n      swap1\n      sstore\n      pop\n        /* \"Lottogemeinschaft.sol\":4677:4913  function preisLottoscheinAendern(uint32 neuerPreis) public restictedToGruender{... */\n      pop\n      jump\t// out\n        /* \"Lottogemeinschaft.sol\":1260:1302  mapping(address => bool) public mitspieler */\n    tag_48:\n      mstore(0x20, 0x03)\n      dup1\n      0x00\n      mstore\n      keccak256(0x00, 0x40)\n      0x00\n      swap2\n      pop\n      sload\n      swap1\n      0x0100\n      exp\n      swap1\n      div\n      0xff\n      and\n      dup2\n      jump\t// out\n        /* \"Lottogemeinschaft.sol\":1362:1399  uint16 public anzahlTeilnehmerAktuell */\n    tag_53:\n      0x05\n      0x00\n      swap1\n      sload\n      swap1\n      0x0100\n      exp\n      swap1\n      div\n      0xffff\n      and\n      dup2\n      jump\t// out\n        /* \"Lottogemeinschaft.sol\":1187:1217  uint32 public preisLottoschein */\n    tag_58:\n      0x02\n      0x08\n      swap1\n      sload\n      swap1\n      0x0100\n      exp\n      swap1\n      div\n      0xffffffff\n      and\n      dup2\n      jump\t// out\n        /* \"Lottogemeinschaft.sol\":5211:5484  function erlaubteMitspielerAdresseHinzufuegen(address erlaubterMitspieler) public restictedToGruender{... */\n    tag_64:\n        /* \"Lottogemeinschaft.sol\":2196:2204  gruender */\n      0x00\n      dup1\n      sload\n      swap1\n      0x0100\n      exp\n      swap1\n      div\n      0xffffffffffffffffffffffffffffffffffffffff\n      and\n        /* \"Lottogemeinschaft.sol\":2182:2204  msg.sender == gruender */\n      0xffffffffffffffffffffffffffffffffffffffff\n      and\n        /* \"Lottogemeinschaft.sol\":2182:2192  msg.sender */\n      caller\n        /* \"Lottogemeinschaft.sol\":2182:2204  msg.sender == gruender */\n      0xffffffffffffffffffffffffffffffffffffffff\n      and\n      eq\n        /* \"Lottogemeinschaft.sol\":2174:2205  require(msg.sender == gruender) */\n      tag_134\n      jumpi\n      0x00\n      dup1\n      revert\n    tag_134:\n        /* \"Lottogemeinschaft.sol\":5356:5357  0 */\n      0x00\n        /* \"Lottogemeinschaft.sol\":5331:5354  anzahlTeilnehmerAktuell */\n      0x05\n      0x00\n      swap1\n      sload\n      swap1\n      0x0100\n      exp\n      swap1\n      div\n      0xffff\n      and\n        /* \"Lottogemeinschaft.sol\":5331:5357  anzahlTeilnehmerAktuell==0 */\n      0xffff\n      and\n      eq\n        /* \"Lottogemeinschaft.sol\":5323:5420  require(anzahlTeilnehmerAktuell==0, \"Es gibt bereits Mitspieler. Aenderung nicht mehr moeglich.\") */\n      tag_136\n      jumpi\n      mload(0x40)\n      0x08c379a000000000000000000000000000000000000000000000000000000000\n      dup2\n      mstore\n      0x04\n      add\n      tag_137\n      swap1\n      tag_138\n      jump\t// in\n    tag_137:\n      mload(0x40)\n      dup1\n      swap2\n      sub\n      swap1\n      revert\n    tag_136:\n        /* \"Lottogemeinschaft.sol\":5473:5477  true */\n      0x01\n        /* \"Lottogemeinschaft.sol\":5431:5449  erlaubteMitspieler */\n      0x06\n        /* \"Lottogemeinschaft.sol\":5431:5470  erlaubteMitspieler[erlaubterMitspieler] */\n      0x00\n        /* \"Lottogemeinschaft.sol\":5450:5469  erlaubterMitspieler */\n      dup4\n        /* \"Lottogemeinschaft.sol\":5431:5470  erlaubteMitspieler[erlaubterMitspieler] */\n      0xffffffffffffffffffffffffffffffffffffffff\n      and\n      0xffffffffffffffffffffffffffffffffffffffff\n      and\n      dup2\n      mstore\n      0x20\n      add\n      swap1\n      dup2\n      mstore\n      0x20\n      add\n      0x00\n      keccak256\n      0x00\n        /* \"Lottogemeinschaft.sol\":5431:5477  erlaubteMitspieler[erlaubterMitspieler] = true */\n      0x0100\n      exp\n      dup2\n      sload\n      dup2\n      0xff\n      mul\n      not\n      and\n      swap1\n      dup4\n      iszero\n      iszero\n      mul\n      or\n      swap1\n      sstore\n      pop\n        /* \"Lottogemeinschaft.sol\":5211:5484  function erlaubteMitspielerAdresseHinzufuegen(address erlaubterMitspieler) public restictedToGruender{... */\n      pop\n      jump\t// out\n        /* \"Lottogemeinschaft.sol\":2465:3316  function mitmachen() public payable {... */\n    tag_66:\n        /* \"Lottogemeinschaft.sol\":2525:2552  uint32 erforderlicherBetrag */\n      0x00\n        /* \"Lottogemeinschaft.sol\":2574:2593  maxTeilnehmerAnzahl */\n      0x02\n      0x00\n      swap1\n      sload\n      swap1\n      0x0100\n      exp\n      swap1\n      div\n      0xffff\n      and\n        /* \"Lottogemeinschaft.sol\":2555:2593  preisLottoschein / maxTeilnehmerAnzahl */\n      0xffff\n      and\n        /* \"Lottogemeinschaft.sol\":2555:2571  preisLottoschein */\n      0x02\n      0x08\n      swap1\n      sload\n      swap1\n      0x0100\n      exp\n      swap1\n      div\n      0xffffffff\n      and\n        /* \"Lottogemeinschaft.sol\":2555:2593  preisLottoschein / maxTeilnehmerAnzahl */\n      tag_140\n      swap2\n      swap1\n      tag_141\n      jump\t// in\n    tag_140:\n        /* \"Lottogemeinschaft.sol\":2525:2593  uint32 erforderlicherBetrag = preisLottoschein / maxTeilnehmerAnzahl */\n      swap1\n      pop\n        /* \"Lottogemeinschaft.sol\":2624:2644  erforderlicherBetrag */\n      dup1\n        /* \"Lottogemeinschaft.sol\":2611:2644  msg.value >= erforderlicherBetrag */\n      0xffffffff\n      and\n        /* \"Lottogemeinschaft.sol\":2611:2620  msg.value */\n      callvalue\n        /* \"Lottogemeinschaft.sol\":2611:2644  msg.value >= erforderlicherBetrag */\n      lt\n      iszero\n        /* \"Lottogemeinschaft.sol\":2603:2678  require(msg.value >= erforderlicherBetrag, \"Zu geringer Einzahlungsbetrag\") */\n      tag_142\n      jumpi\n      mload(0x40)\n      0x08c379a000000000000000000000000000000000000000000000000000000000\n      dup2\n      mstore\n      0x04\n      add\n      tag_143\n      swap1\n      tag_144\n      jump\t// in\n    tag_143:\n      mload(0x40)\n      dup1\n      swap2\n      sub\n      swap1\n      revert\n    tag_142:\n        /* \"Lottogemeinschaft.sol\":2697:2707  mitspieler */\n      0x03\n        /* \"Lottogemeinschaft.sol\":2697:2719  mitspieler[msg.sender] */\n      0x00\n        /* \"Lottogemeinschaft.sol\":2708:2718  msg.sender */\n      caller\n        /* \"Lottogemeinschaft.sol\":2697:2719  mitspieler[msg.sender] */\n      0xffffffffffffffffffffffffffffffffffffffff\n      and\n      0xffffffffffffffffffffffffffffffffffffffff\n      and\n      dup2\n      mstore\n      0x20\n      add\n      swap1\n      dup2\n      mstore\n      0x20\n      add\n      0x00\n      keccak256\n      0x00\n      swap1\n      sload\n      swap1\n      0x0100\n      exp\n      swap1\n      div\n      0xff\n      and\n        /* \"Lottogemeinschaft.sol\":2696:2719  !mitspieler[msg.sender] */\n      iszero\n        /* \"Lottogemeinschaft.sol\":2688:2758  require(!mitspieler[msg.sender], \"Bereits als Mitspieler registriert\") */\n      tag_145\n      jumpi\n      mload(0x40)\n      0x08c379a000000000000000000000000000000000000000000000000000000000\n      dup2\n      mstore\n      0x04\n      add\n      tag_146\n      swap1\n      tag_147\n      jump\t// in\n    tag_146:\n      mload(0x40)\n      dup1\n      swap2\n      sub\n      swap1\n      revert\n    tag_145:\n        /* \"Lottogemeinschaft.sol\":2802:2821  maxTeilnehmerAnzahl */\n      0x02\n      0x00\n      swap1\n      sload\n      swap1\n      0x0100\n      exp\n      swap1\n      div\n      0xffff\n      and\n        /* \"Lottogemeinschaft.sol\":2776:2821  anzahlTeilnehmerAktuell < maxTeilnehmerAnzahl */\n      0xffff\n      and\n        /* \"Lottogemeinschaft.sol\":2776:2799  anzahlTeilnehmerAktuell */\n      0x05\n      0x00\n      swap1\n      sload\n      swap1\n      0x0100\n      exp\n      swap1\n      div\n      0xffff\n      and\n        /* \"Lottogemeinschaft.sol\":2776:2821  anzahlTeilnehmerAktuell < maxTeilnehmerAnzahl */\n      0xffff\n      and\n      lt\n        /* \"Lottogemeinschaft.sol\":2768:2858  require(anzahlTeilnehmerAktuell < maxTeilnehmerAnzahl, \"Maximale Teilnehmerzahl erreicht\") */\n      tag_148\n      jumpi\n      mload(0x40)\n      0x08c379a000000000000000000000000000000000000000000000000000000000\n      dup2\n      mstore\n      0x04\n      add\n      tag_149\n      swap1\n      tag_150\n      jump\t// in\n    tag_149:\n      mload(0x40)\n      dup1\n      swap2\n      sub\n      swap1\n      revert\n    tag_148:\n        /* \"Lottogemeinschaft.sol\":2897:2898  0 */\n      0x00\n        /* \"Lottogemeinschaft.sol\":2876:2895  gewinnProMitspieler */\n      0x05\n      0x02\n      swap1\n      sload\n      swap1\n      0x0100\n      exp\n      swap1\n      div\n      0xffffffffffff\n      and\n        /* \"Lottogemeinschaft.sol\":2876:2898  gewinnProMitspieler==0 */\n      0xffffffffffff\n      and\n      eq\n        /* \"Lottogemeinschaft.sol\":2868:2934  require(gewinnProMitspieler==0, \"Gewinn wurde bereits eingezahlt\") */\n      tag_151\n      jumpi\n      mload(0x40)\n      0x08c379a000000000000000000000000000000000000000000000000000000000\n      dup2\n      mstore\n      0x04\n      add\n      tag_152\n      swap1\n      tag_153\n      jump\t// in\n    tag_152:\n      mload(0x40)\n      dup1\n      swap2\n      sub\n      swap1\n      revert\n    tag_151:\n        /* \"Lottogemeinschaft.sol\":2948:2969  nurErlaubteMitspieler */\n      0x05\n      0x09\n      swap1\n      sload\n      swap1\n      0x0100\n      exp\n      swap1\n      div\n      0xff\n      and\n        /* \"Lottogemeinschaft.sol\":2944:3034  if (nurErlaubteMitspieler){... */\n      iszero\n      tag_154\n      jumpi\n        /* \"Lottogemeinschaft.sol\":2992:3010  erlaubteMitspieler */\n      0x06\n        /* \"Lottogemeinschaft.sol\":2992:3022  erlaubteMitspieler[msg.sender] */\n      0x00\n        /* \"Lottogemeinschaft.sol\":3011:3021  msg.sender */\n      caller\n        /* \"Lottogemeinschaft.sol\":2992:3022  erlaubteMitspieler[msg.sender] */\n      0xffffffffffffffffffffffffffffffffffffffff\n      and\n      0xffffffffffffffffffffffffffffffffffffffff\n      and\n      dup2\n      mstore\n      0x20\n      add\n      swap1\n      dup2\n      mstore\n      0x20\n      add\n      0x00\n      keccak256\n      0x00\n      swap1\n      sload\n      swap1\n      0x0100\n      exp\n      swap1\n      div\n      0xff\n      and\n        /* \"Lottogemeinschaft.sol\":2984:3023  require(erlaubteMitspieler[msg.sender]) */\n      tag_155\n      jumpi\n      0x00\n      dup1\n      revert\n    tag_155:\n        /* \"Lottogemeinschaft.sol\":2944:3034  if (nurErlaubteMitspieler){... */\n    tag_154:\n        /* \"Lottogemeinschaft.sol\":3063:3079  uint ueberschuss */\n      0x00\n        /* \"Lottogemeinschaft.sol\":3094:3114  erforderlicherBetrag */\n      dup2\n        /* \"Lottogemeinschaft.sol\":3082:3114  msg.value - erforderlicherBetrag */\n      0xffffffff\n      and\n        /* \"Lottogemeinschaft.sol\":3082:3091  msg.value */\n      callvalue\n        /* \"Lottogemeinschaft.sol\":3082:3114  msg.value - erforderlicherBetrag */\n      tag_156\n      swap2\n      swap1\n      tag_157\n      jump\t// in\n    tag_156:\n        /* \"Lottogemeinschaft.sol\":3063:3114  uint ueberschuss = msg.value - erforderlicherBetrag */\n      swap1\n      pop\n        /* \"Lottogemeinschaft.sol\":3149:3153  true */\n      0x01\n        /* \"Lottogemeinschaft.sol\":3124:3134  mitspieler */\n      0x03\n        /* \"Lottogemeinschaft.sol\":3124:3146  mitspieler[msg.sender] */\n      0x00\n        /* \"Lottogemeinschaft.sol\":3135:3145  msg.sender */\n      caller\n        /* \"Lottogemeinschaft.sol\":3124:3146  mitspieler[msg.sender] */\n      0xffffffffffffffffffffffffffffffffffffffff\n      and\n      0xffffffffffffffffffffffffffffffffffffffff\n      and\n      dup2\n      mstore\n      0x20\n      add\n      swap1\n      dup2\n      mstore\n      0x20\n      add\n      0x00\n      keccak256\n      0x00\n        /* \"Lottogemeinschaft.sol\":3124:3153  mitspieler[msg.sender] = true */\n      0x0100\n      exp\n      dup2\n      sload\n      dup2\n      0xff\n      mul\n      not\n      and\n      swap1\n      dup4\n      iszero\n      iszero\n      mul\n      or\n      swap1\n      sstore\n      pop\n        /* \"Lottogemeinschaft.sol\":3163:3186  anzahlTeilnehmerAktuell */\n      0x05\n      0x00\n        /* \"Lottogemeinschaft.sol\":3163:3188  anzahlTeilnehmerAktuell++ */\n      dup2\n      dup2\n      swap1\n      sload\n      swap1\n      0x0100\n      exp\n      swap1\n      div\n      0xffff\n      and\n      dup1\n      swap3\n      swap2\n      swap1\n      tag_158\n      swap1\n      tag_159\n      jump\t// in\n    tag_158:\n      swap2\n      swap1\n      0x0100\n      exp\n      dup2\n      sload\n      dup2\n      0xffff\n      mul\n      not\n      and\n      swap1\n      dup4\n      0xffff\n      and\n      mul\n      or\n      swap1\n      sstore\n      pop\n      pop\n        /* \"Lottogemeinschaft.sol\":3241:3242  0 */\n      0x00\n        /* \"Lottogemeinschaft.sol\":3227:3238  ueberschuss */\n      dup2\n        /* \"Lottogemeinschaft.sol\":3227:3242  ueberschuss > 0 */\n      gt\n        /* \"Lottogemeinschaft.sol\":3223:3310  if (ueberschuss > 0) {... */\n      iszero\n      tag_160\n      jumpi\n        /* \"Lottogemeinschaft.sol\":3266:3276  msg.sender */\n      caller\n        /* \"Lottogemeinschaft.sol\":3258:3286  payable(msg.sender).transfer */\n      0xffffffffffffffffffffffffffffffffffffffff\n      and\n        /* \"Lottogemeinschaft.sol\":3258:3299  payable(msg.sender).transfer(ueberschuss) */\n      0x08fc\n        /* \"Lottogemeinschaft.sol\":3287:3298  ueberschuss */\n      dup3\n        /* \"Lottogemeinschaft.sol\":3258:3299  payable(msg.sender).transfer(ueberschuss) */\n      swap1\n      dup2\n      iszero\n      mul\n      swap1\n      mload(0x40)\n      0x00\n      mload(0x40)\n      dup1\n      dup4\n      sub\n      dup2\n      dup6\n      dup9\n      dup9\n      call\n      swap4\n      pop\n      pop\n      pop\n      pop\n      iszero\n      dup1\n      iszero\n      tag_162\n      jumpi\n      returndatasize\n      0x00\n      dup1\n      returndatacopy\n      revert(0x00, returndatasize)\n    tag_162:\n      pop\n        /* \"Lottogemeinschaft.sol\":3223:3310  if (ueberschuss > 0) {... */\n    tag_160:\n        /* \"Lottogemeinschaft.sol\":2501:3316  {... */\n      pop\n      pop\n        /* \"Lottogemeinschaft.sol\":2465:3316  function mitmachen() public payable {... */\n      jump\t// out\n        /* \"Lottogemeinschaft.sol\":1118:1151  uint16 public maxTeilnehmerAnzahl */\n    tag_69:\n      0x02\n      0x00\n      swap1\n      sload\n      swap1\n      0x0100\n      exp\n      swap1\n      div\n      0xffff\n      and\n      dup2\n      jump\t// out\n        /* \"Lottogemeinschaft.sol\":1308:1356  mapping(address => bool) public gewinnAusgezahlt */\n    tag_74:\n      mstore(0x20, 0x04)\n      dup1\n      0x00\n      mstore\n      keccak256(0x00, 0x40)\n      0x00\n      swap2\n      pop\n      sload\n      swap1\n      0x0100\n      exp\n      swap1\n      div\n      0xff\n      and\n      dup2\n      jump\t// out\n        /* \"Lottogemeinschaft.sol\":1048:1071  address public gruender */\n    tag_78:\n      0x00\n      dup1\n      sload\n      swap1\n      0x0100\n      exp\n      swap1\n      div\n      0xffffffffffffffffffffffffffffffffffffffff\n      and\n      dup2\n      jump\t// out\n        /* \"Lottogemeinschaft.sol\":1496:1535  bool public nurErlaubteMitspieler=false */\n    tag_83:\n      0x05\n      0x09\n      swap1\n      sload\n      swap1\n      0x0100\n      exp\n      swap1\n      div\n      0xff\n      and\n      dup2\n      jump\t// out\n        /* \"Lottogemeinschaft.sol\":1448:1490  bool public kannGewinnAbgeholtWerden=false */\n    tag_87:\n      0x05\n      0x08\n      swap1\n      sload\n      swap1\n      0x0100\n      exp\n      swap1\n      div\n      0xff\n      and\n      dup2\n      jump\t// out\n        /* \"Lottogemeinschaft.sol\":3364:4022  function gewinnEinzahlen(uint48 gewinn) public payable restictedToGruender {... */\n    tag_92:\n        /* \"Lottogemeinschaft.sol\":2196:2204  gruender */\n      0x00\n      dup1\n      sload\n      swap1\n      0x0100\n      exp\n      swap1\n      div\n      0xffffffffffffffffffffffffffffffffffffffff\n      and\n        /* \"Lottogemeinschaft.sol\":2182:2204  msg.sender == gruender */\n      0xffffffffffffffffffffffffffffffffffffffff\n      and\n        /* \"Lottogemeinschaft.sol\":2182:2192  msg.sender */\n      caller\n        /* \"Lottogemeinschaft.sol\":2182:2204  msg.sender == gruender */\n      0xffffffffffffffffffffffffffffffffffffffff\n      and\n      eq\n        /* \"Lottogemeinschaft.sol\":2174:2205  require(msg.sender == gruender) */\n      tag_164\n      jumpi\n      0x00\n      dup1\n      revert\n    tag_164:\n        /* \"Lottogemeinschaft.sol\":3555:3556  0 */\n      0x00\n        /* \"Lottogemeinschaft.sol\":3543:3552  msg.value */\n      callvalue\n        /* \"Lottogemeinschaft.sol\":3543:3556  msg.value > 0 */\n      gt\n        /* \"Lottogemeinschaft.sol\":3535:3603  require(msg.value > 0, \"Einzahlungsbetrag muss groesser als 0 sein\") */\n      tag_166\n      jumpi\n      mload(0x40)\n      0x08c379a000000000000000000000000000000000000000000000000000000000\n      dup2\n      mstore\n      0x04\n      add\n      tag_167\n      swap1\n      tag_168\n      jump\t// in\n    tag_167:\n      mload(0x40)\n      dup1\n      swap2\n      sub\n      swap1\n      revert\n    tag_166:\n        /* \"Lottogemeinschaft.sol\":3642:3643  0 */\n      0x00\n        /* \"Lottogemeinschaft.sol\":3621:3640  gewinnProMitspieler */\n      0x05\n      0x02\n      swap1\n      sload\n      swap1\n      0x0100\n      exp\n      swap1\n      div\n      0xffffffffffff\n      and\n        /* \"Lottogemeinschaft.sol\":3621:3643  gewinnProMitspieler==0 */\n      0xffffffffffff\n      and\n      eq\n        /* \"Lottogemeinschaft.sol\":3613:3680  require(gewinnProMitspieler==0, \"Gewinn wurde bereits eingezahlt.\") */\n      tag_169\n      jumpi\n      mload(0x40)\n      0x08c379a000000000000000000000000000000000000000000000000000000000\n      dup2\n      mstore\n      0x04\n      add\n      tag_170\n      swap1\n      tag_171\n      jump\t// in\n    tag_170:\n      mload(0x40)\n      dup1\n      swap2\n      sub\n      swap1\n      revert\n    tag_169:\n        /* \"Lottogemeinschaft.sol\":3950:3973  anzahlTeilnehmerAktuell */\n      0x05\n      0x00\n      swap1\n      sload\n      swap1\n      0x0100\n      exp\n      swap1\n      div\n      0xffff\n      and\n        /* \"Lottogemeinschaft.sol\":3941:3973  gewinn / anzahlTeilnehmerAktuell */\n      0xffff\n      and\n        /* \"Lottogemeinschaft.sol\":3941:3947  gewinn */\n      dup2\n        /* \"Lottogemeinschaft.sol\":3941:3973  gewinn / anzahlTeilnehmerAktuell */\n      tag_172\n      swap2\n      swap1\n      tag_173\n      jump\t// in\n    tag_172:\n        /* \"Lottogemeinschaft.sol\":3919:3938  gewinnProMitspieler */\n      0x05\n      0x02\n        /* \"Lottogemeinschaft.sol\":3919:3973  gewinnProMitspieler = gewinn / anzahlTeilnehmerAktuell */\n      0x0100\n      exp\n      dup2\n      sload\n      dup2\n      0xffffffffffff\n      mul\n      not\n      and\n      swap1\n      dup4\n      0xffffffffffff\n      and\n      mul\n      or\n      swap1\n      sstore\n      pop\n        /* \"Lottogemeinschaft.sol\":4010:4014  true */\n      0x01\n        /* \"Lottogemeinschaft.sol\":3983:4007  kannGewinnAbgeholtWerden */\n      0x05\n      0x08\n        /* \"Lottogemeinschaft.sol\":3983:4014  kannGewinnAbgeholtWerden = true */\n      0x0100\n      exp\n      dup2\n      sload\n      dup2\n      0xff\n      mul\n      not\n      and\n      swap1\n      dup4\n      iszero\n      iszero\n      mul\n      or\n      swap1\n      sstore\n      pop\n        /* \"Lottogemeinschaft.sol\":3364:4022  function gewinnEinzahlen(uint48 gewinn) public payable restictedToGruender {... */\n      pop\n      jump\t// out\n        /* \"Lottogemeinschaft.sol\":1077:1112  string public tippgemeinschaftsName */\n    tag_95:\n      0x01\n      dup1\n      sload\n      tag_174\n      swap1\n      tag_175\n      jump\t// in\n    tag_174:\n      dup1\n      0x1f\n      add\n      0x20\n      dup1\n      swap2\n      div\n      mul\n      0x20\n      add\n      mload(0x40)\n      swap1\n      dup2\n      add\n      0x40\n      mstore\n      dup1\n      swap3\n      swap2\n      swap1\n      dup2\n      dup2\n      mstore\n      0x20\n      add\n      dup3\n      dup1\n      sload\n      tag_176\n      swap1\n      tag_175\n      jump\t// in\n    tag_176:\n      dup1\n      iszero\n      tag_177\n      jumpi\n      dup1\n      0x1f\n      lt\n      tag_178\n      jumpi\n      0x0100\n      dup1\n      dup4\n      sload\n      div\n      mul\n      dup4\n      mstore\n      swap2\n      0x20\n      add\n      swap2\n      jump(tag_177)\n    tag_178:\n      dup3\n      add\n      swap2\n      swap1\n      0x00\n      mstore\n      keccak256(0x00, 0x20)\n      swap1\n    tag_179:\n      dup2\n      sload\n      dup2\n      mstore\n      swap1\n      0x01\n      add\n      swap1\n      0x20\n      add\n      dup1\n      dup4\n      gt\n      tag_179\n      jumpi\n      dup3\n      swap1\n      sub\n      0x1f\n      and\n      dup3\n      add\n      swap2\n    tag_177:\n      pop\n      pop\n      pop\n      pop\n      pop\n      dup2\n      jump\t// out\n        /* \"Lottogemeinschaft.sol\":4919:5205  function anzahlMitspielerAendern(uint16 neueAnzahlMaxTeilnehmer) public restictedToGruender{... */\n    tag_102:\n        /* \"Lottogemeinschaft.sol\":2196:2204  gruender */\n      0x00\n      dup1\n      sload\n      swap1\n      0x0100\n      exp\n      swap1\n      div\n      0xffffffffffffffffffffffffffffffffffffffff\n      and\n        /* \"Lottogemeinschaft.sol\":2182:2204  msg.sender == gruender */\n      0xffffffffffffffffffffffffffffffffffffffff\n      and\n        /* \"Lottogemeinschaft.sol\":2182:2192  msg.sender */\n      caller\n        /* \"Lottogemeinschaft.sol\":2182:2204  msg.sender == gruender */\n      0xffffffffffffffffffffffffffffffffffffffff\n      and\n      eq\n        /* \"Lottogemeinschaft.sol\":2174:2205  require(msg.sender == gruender) */\n      tag_181\n      jumpi\n      0x00\n      dup1\n      revert\n    tag_181:\n        /* \"Lottogemeinschaft.sol\":5053:5054  0 */\n      0x00\n        /* \"Lottogemeinschaft.sol\":5028:5051  anzahlTeilnehmerAktuell */\n      0x05\n      0x00\n      swap1\n      sload\n      swap1\n      0x0100\n      exp\n      swap1\n      div\n      0xffff\n      and\n        /* \"Lottogemeinschaft.sol\":5028:5054  anzahlTeilnehmerAktuell==0 */\n      0xffff\n      and\n      eq\n        /* \"Lottogemeinschaft.sol\":5020:5143  require(anzahlTeilnehmerAktuell==0, \"Es gibt bereits Mitspieler. Aenderung der Anzahl an Mitspielern nicht mehr moeglich.\") */\n      tag_183\n      jumpi\n      mload(0x40)\n      0x08c379a000000000000000000000000000000000000000000000000000000000\n      dup2\n      mstore\n      0x04\n      add\n      tag_184\n      swap1\n      tag_185\n      jump\t// in\n    tag_184:\n      mload(0x40)\n      dup1\n      swap2\n      sub\n      swap1\n      revert\n    tag_183:\n        /* \"Lottogemeinschaft.sol\":5175:5198  neueAnzahlMaxTeilnehmer */\n      dup1\n        /* \"Lottogemeinschaft.sol\":5153:5172  maxTeilnehmerAnzahl */\n      0x02\n      0x00\n        /* \"Lottogemeinschaft.sol\":5153:5198  maxTeilnehmerAnzahl = neueAnzahlMaxTeilnehmer */\n      0x0100\n      exp\n      dup2\n      sload\n      dup2\n      0xffff\n      mul\n      not\n      and\n      swap1\n      dup4\n      0xffff\n      and\n      mul\n      or\n      swap1\n      sstore\n      pop\n        /* \"Lottogemeinschaft.sol\":4919:5205  function anzahlMitspielerAendern(uint16 neueAnzahlMaxTeilnehmer) public restictedToGruender{... */\n      pop\n      jump\t// out\n        /* \"#utility.yul\":7:104   */\n    tag_186:\n        /* \"#utility.yul\":43:50   */\n      0x00\n        /* \"#utility.yul\":83:97   */\n      0xffffffffffff\n        /* \"#utility.yul\":76:81   */\n      dup3\n        /* \"#utility.yul\":72:98   */\n      and\n        /* \"#utility.yul\":61:98   */\n      swap1\n      pop\n        /* \"#utility.yul\":7:104   */\n      swap2\n      swap1\n      pop\n      jump\t// out\n        /* \"#utility.yul\":110:225   */\n    tag_187:\n        /* \"#utility.yul\":195:218   */\n      tag_251\n        /* \"#utility.yul\":212:217   */\n      dup2\n        /* \"#utility.yul\":195:218   */\n      tag_186\n      jump\t// in\n    tag_251:\n        /* \"#utility.yul\":190:193   */\n      dup3\n        /* \"#utility.yul\":183:219   */\n      mstore\n        /* \"#utility.yul\":110:225   */\n      pop\n      pop\n      jump\t// out\n        /* \"#utility.yul\":231:449   */\n    tag_27:\n        /* \"#utility.yul\":322:326   */\n      0x00\n        /* \"#utility.yul\":360:362   */\n      0x20\n        /* \"#utility.yul\":349:358   */\n      dup3\n        /* \"#utility.yul\":345:363   */\n      add\n        /* \"#utility.yul\":337:363   */\n      swap1\n      pop\n        /* \"#utility.yul\":373:442   */\n      tag_253\n        /* \"#utility.yul\":439:440   */\n      0x00\n        /* \"#utility.yul\":428:437   */\n      dup4\n        /* \"#utility.yul\":424:441   */\n      add\n        /* \"#utility.yul\":415:421   */\n      dup5\n        /* \"#utility.yul\":373:442   */\n      tag_187\n      jump\t// in\n    tag_253:\n        /* \"#utility.yul\":231:449   */\n      swap3\n      swap2\n      pop\n      pop\n      jump\t// out\n        /* \"#utility.yul\":536:653   */\n    tag_189:\n        /* \"#utility.yul\":645:646   */\n      0x00\n        /* \"#utility.yul\":642:643   */\n      dup1\n        /* \"#utility.yul\":635:647   */\n      revert\n        /* \"#utility.yul\":782:875   */\n    tag_191:\n        /* \"#utility.yul\":818:825   */\n      0x00\n        /* \"#utility.yul\":858:868   */\n      0xffffffff\n        /* \"#utility.yul\":851:856   */\n      dup3\n        /* \"#utility.yul\":847:869   */\n      and\n        /* \"#utility.yul\":836:869   */\n      swap1\n      pop\n        /* \"#utility.yul\":782:875   */\n      swap2\n      swap1\n      pop\n      jump\t// out\n        /* \"#utility.yul\":881:1001   */\n    tag_192:\n        /* \"#utility.yul\":953:976   */\n      tag_259\n        /* \"#utility.yul\":970:975   */\n      dup2\n        /* \"#utility.yul\":953:976   */\n      tag_191\n      jump\t// in\n    tag_259:\n        /* \"#utility.yul\":946:951   */\n      dup2\n        /* \"#utility.yul\":943:977   */\n      eq\n        /* \"#utility.yul\":933:995   */\n      tag_260\n      jumpi\n        /* \"#utility.yul\":991:992   */\n      0x00\n        /* \"#utility.yul\":988:989   */\n      dup1\n        /* \"#utility.yul\":981:993   */\n      revert\n        /* \"#utility.yul\":933:995   */\n    tag_260:\n        /* \"#utility.yul\":881:1001   */\n      pop\n      jump\t// out\n        /* \"#utility.yul\":1007:1144   */\n    tag_193:\n        /* \"#utility.yul\":1052:1057   */\n      0x00\n        /* \"#utility.yul\":1090:1096   */\n      dup2\n        /* \"#utility.yul\":1077:1097   */\n      calldataload\n        /* \"#utility.yul\":1068:1097   */\n      swap1\n      pop\n        /* \"#utility.yul\":1106:1138   */\n      tag_262\n        /* \"#utility.yul\":1132:1137   */\n      dup2\n        /* \"#utility.yul\":1106:1138   */\n      tag_192\n      jump\t// in\n    tag_262:\n        /* \"#utility.yul\":1007:1144   */\n      swap3\n      swap2\n      pop\n      pop\n      jump\t// out\n        /* \"#utility.yul\":1150:1477   */\n    tag_42:\n        /* \"#utility.yul\":1208:1214   */\n      0x00\n        /* \"#utility.yul\":1257:1259   */\n      0x20\n        /* \"#utility.yul\":1245:1254   */\n      dup3\n        /* \"#utility.yul\":1236:1243   */\n      dup5\n        /* \"#utility.yul\":1232:1255   */\n      sub\n        /* \"#utility.yul\":1228:1260   */\n      slt\n        /* \"#utility.yul\":1225:1344   */\n      iszero\n      tag_264\n      jumpi\n        /* \"#utility.yul\":1263:1342   */\n      tag_265\n      tag_189\n      jump\t// in\n    tag_265:\n        /* \"#utility.yul\":1225:1344   */\n    tag_264:\n        /* \"#utility.yul\":1383:1384   */\n      0x00\n        /* \"#utility.yul\":1408:1460   */\n      tag_266\n        /* \"#utility.yul\":1452:1459   */\n      dup5\n        /* \"#utility.yul\":1443:1449   */\n      dup3\n        /* \"#utility.yul\":1432:1441   */\n      dup6\n        /* \"#utility.yul\":1428:1450   */\n      add\n        /* \"#utility.yul\":1408:1460   */\n      tag_193\n      jump\t// in\n    tag_266:\n        /* \"#utility.yul\":1398:1460   */\n      swap2\n      pop\n        /* \"#utility.yul\":1354:1470   */\n      pop\n        /* \"#utility.yul\":1150:1477   */\n      swap3\n      swap2\n      pop\n      pop\n      jump\t// out\n        /* \"#utility.yul\":1483:1609   */\n    tag_194:\n        /* \"#utility.yul\":1520:1527   */\n      0x00\n        /* \"#utility.yul\":1560:1602   */\n      0xffffffffffffffffffffffffffffffffffffffff\n        /* \"#utility.yul\":1553:1558   */\n      dup3\n        /* \"#utility.yul\":1549:1603   */\n      and\n        /* \"#utility.yul\":1538:1603   */\n      swap1\n      pop\n        /* \"#utility.yul\":1483:1609   */\n      swap2\n      swap1\n      pop\n      jump\t// out\n        /* \"#utility.yul\":1615:1711   */\n    tag_195:\n        /* \"#utility.yul\":1652:1659   */\n      0x00\n        /* \"#utility.yul\":1681:1705   */\n      tag_269\n        /* \"#utility.yul\":1699:1704   */\n      dup3\n        /* \"#utility.yul\":1681:1705   */\n      tag_194\n      jump\t// in\n    tag_269:\n        /* \"#utility.yul\":1670:1705   */\n      swap1\n      pop\n        /* \"#utility.yul\":1615:1711   */\n      swap2\n      swap1\n      pop\n      jump\t// out\n        /* \"#utility.yul\":1717:1839   */\n    tag_196:\n        /* \"#utility.yul\":1790:1814   */\n      tag_271\n        /* \"#utility.yul\":1808:1813   */\n      dup2\n        /* \"#utility.yul\":1790:1814   */\n      tag_195\n      jump\t// in\n    tag_271:\n        /* \"#utility.yul\":1783:1788   */\n      dup2\n        /* \"#utility.yul\":1780:1815   */\n      eq\n        /* \"#utility.yul\":1770:1833   */\n      tag_272\n      jumpi\n        /* \"#utility.yul\":1829:1830   */\n      0x00\n        /* \"#utility.yul\":1826:1827   */\n      dup1\n        /* \"#utility.yul\":1819:1831   */\n      revert\n        /* \"#utility.yul\":1770:1833   */\n    tag_272:\n        /* \"#utility.yul\":1717:1839   */\n      pop\n      jump\t// out\n        /* \"#utility.yul\":1845:1984   */\n    tag_197:\n        /* \"#utility.yul\":1891:1896   */\n      0x00\n        /* \"#utility.yul\":1929:1935   */\n      dup2\n        /* \"#utility.yul\":1916:1936   */\n      calldataload\n        /* \"#utility.yul\":1907:1936   */\n      swap1\n      pop\n        /* \"#utility.yul\":1945:1978   */\n      tag_274\n        /* \"#utility.yul\":1972:1977   */\n      dup2\n        /* \"#utility.yul\":1945:1978   */\n      tag_196\n      jump\t// in\n    tag_274:\n        /* \"#utility.yul\":1845:1984   */\n      swap3\n      swap2\n      pop\n      pop\n      jump\t// out\n        /* \"#utility.yul\":1990:2319   */\n    tag_47:\n        /* \"#utility.yul\":2049:2055   */\n      0x00\n        /* \"#utility.yul\":2098:2100   */\n      0x20\n        /* \"#utility.yul\":2086:2095   */\n      dup3\n        /* \"#utility.yul\":2077:2084   */\n      dup5\n        /* \"#utility.yul\":2073:2096   */\n      sub\n        /* \"#utility.yul\":2069:2101   */\n      slt\n        /* \"#utility.yul\":2066:2185   */\n      iszero\n      tag_276\n      jumpi\n        /* \"#utility.yul\":2104:2183   */\n      tag_277\n      tag_189\n      jump\t// in\n    tag_277:\n        /* \"#utility.yul\":2066:2185   */\n    tag_276:\n        /* \"#utility.yul\":2224:2225   */\n      0x00\n        /* \"#utility.yul\":2249:2302   */\n      tag_278\n        /* \"#utility.yul\":2294:2301   */\n      dup5\n        /* \"#utility.yul\":2285:2291   */\n      dup3\n        /* \"#utility.yul\":2274:2283   */\n      dup6\n        /* \"#utility.yul\":2270:2292   */\n      add\n        /* \"#utility.yul\":2249:2302   */\n      tag_197\n      jump\t// in\n    tag_278:\n        /* \"#utility.yul\":2239:2302   */\n      swap2\n      pop\n        /* \"#utility.yul\":2195:2312   */\n      pop\n        /* \"#utility.yul\":1990:2319   */\n      swap3\n      swap2\n      pop\n      pop\n      jump\t// out\n        /* \"#utility.yul\":2325:2415   */\n    tag_198:\n        /* \"#utility.yul\":2359:2366   */\n      0x00\n        /* \"#utility.yul\":2402:2407   */\n      dup2\n        /* \"#utility.yul\":2395:2408   */\n      iszero\n        /* \"#utility.yul\":2388:2409   */\n      iszero\n        /* \"#utility.yul\":2377:2409   */\n      swap1\n      pop\n        /* \"#utility.yul\":2325:2415   */\n      swap2\n      swap1\n      pop\n      jump\t// out\n        /* \"#utility.yul\":2421:2530   */\n    tag_199:\n        /* \"#utility.yul\":2502:2523   */\n      tag_281\n        /* \"#utility.yul\":2517:2522   */\n      dup2\n        /* \"#utility.yul\":2502:2523   */\n      tag_198\n      jump\t// in\n    tag_281:\n        /* \"#utility.yul\":2497:2500   */\n      dup3\n        /* \"#utility.yul\":2490:2524   */\n      mstore\n        /* \"#utility.yul\":2421:2530   */\n      pop\n      pop\n      jump\t// out\n        /* \"#utility.yul\":2536:2746   */\n    tag_50:\n        /* \"#utility.yul\":2623:2627   */\n      0x00\n        /* \"#utility.yul\":2661:2663   */\n      0x20\n        /* \"#utility.yul\":2650:2659   */\n      dup3\n        /* \"#utility.yul\":2646:2664   */\n      add\n        /* \"#utility.yul\":2638:2664   */\n      swap1\n      pop\n        /* \"#utility.yul\":2674:2739   */\n      tag_283\n        /* \"#utility.yul\":2736:2737   */\n      0x00\n        /* \"#utility.yul\":2725:2734   */\n      dup4\n        /* \"#utility.yul\":2721:2738   */\n      add\n        /* \"#utility.yul\":2712:2718   */\n      dup5\n        /* \"#utility.yul\":2674:2739   */\n      tag_199\n      jump\t// in\n    tag_283:\n        /* \"#utility.yul\":2536:2746   */\n      swap3\n      swap2\n      pop\n      pop\n      jump\t// out\n        /* \"#utility.yul\":2752:2841   */\n    tag_200:\n        /* \"#utility.yul\":2788:2795   */\n      0x00\n        /* \"#utility.yul\":2828:2834   */\n      0xffff\n        /* \"#utility.yul\":2821:2826   */\n      dup3\n        /* \"#utility.yul\":2817:2835   */\n      and\n        /* \"#utility.yul\":2806:2835   */\n      swap1\n      pop\n        /* \"#utility.yul\":2752:2841   */\n      swap2\n      swap1\n      pop\n      jump\t// out\n        /* \"#utility.yul\":2847:2962   */\n    tag_201:\n        /* \"#utility.yul\":2932:2955   */\n      tag_286\n        /* \"#utility.yul\":2949:2954   */\n      dup2\n        /* \"#utility.yul\":2932:2955   */\n      tag_200\n      jump\t// in\n    tag_286:\n        /* \"#utility.yul\":2927:2930   */\n      dup3\n        /* \"#utility.yul\":2920:2956   */\n      mstore\n        /* \"#utility.yul\":2847:2962   */\n      pop\n      pop\n      jump\t// out\n        /* \"#utility.yul\":2968:3186   */\n    tag_55:\n        /* \"#utility.yul\":3059:3063   */\n      0x00\n        /* \"#utility.yul\":3097:3099   */\n      0x20\n        /* \"#utility.yul\":3086:3095   */\n      dup3\n        /* \"#utility.yul\":3082:3100   */\n      add\n        /* \"#utility.yul\":3074:3100   */\n      swap1\n      pop\n        /* \"#utility.yul\":3110:3179   */\n      tag_288\n        /* \"#utility.yul\":3176:3177   */\n      0x00\n        /* \"#utility.yul\":3165:3174   */\n      dup4\n        /* \"#utility.yul\":3161:3178   */\n      add\n        /* \"#utility.yul\":3152:3158   */\n      dup5\n        /* \"#utility.yul\":3110:3179   */\n      tag_201\n      jump\t// in\n    tag_288:\n        /* \"#utility.yul\":2968:3186   */\n      swap3\n      swap2\n      pop\n      pop\n      jump\t// out\n        /* \"#utility.yul\":3192:3307   */\n    tag_202:\n        /* \"#utility.yul\":3277:3300   */\n      tag_290\n        /* \"#utility.yul\":3294:3299   */\n      dup2\n        /* \"#utility.yul\":3277:3300   */\n      tag_191\n      jump\t// in\n    tag_290:\n        /* \"#utility.yul\":3272:3275   */\n      dup3\n        /* \"#utility.yul\":3265:3301   */\n      mstore\n        /* \"#utility.yul\":3192:3307   */\n      pop\n      pop\n      jump\t// out\n        /* \"#utility.yul\":3313:3531   */\n    tag_60:\n        /* \"#utility.yul\":3404:3408   */\n      0x00\n        /* \"#utility.yul\":3442:3444   */\n      0x20\n        /* \"#utility.yul\":3431:3440   */\n      dup3\n        /* \"#utility.yul\":3427:3445   */\n      add\n        /* \"#utility.yul\":3419:3445   */\n      swap1\n      pop\n        /* \"#utility.yul\":3455:3524   */\n      tag_292\n        /* \"#utility.yul\":3521:3522   */\n      0x00\n        /* \"#utility.yul\":3510:3519   */\n      dup4\n        /* \"#utility.yul\":3506:3523   */\n      add\n        /* \"#utility.yul\":3497:3503   */\n      dup5\n        /* \"#utility.yul\":3455:3524   */\n      tag_202\n      jump\t// in\n    tag_292:\n        /* \"#utility.yul\":3313:3531   */\n      swap3\n      swap2\n      pop\n      pop\n      jump\t// out\n        /* \"#utility.yul\":3537:3655   */\n    tag_203:\n        /* \"#utility.yul\":3624:3648   */\n      tag_294\n        /* \"#utility.yul\":3642:3647   */\n      dup2\n        /* \"#utility.yul\":3624:3648   */\n      tag_195\n      jump\t// in\n    tag_294:\n        /* \"#utility.yul\":3619:3622   */\n      dup3\n        /* \"#utility.yul\":3612:3649   */\n      mstore\n        /* \"#utility.yul\":3537:3655   */\n      pop\n      pop\n      jump\t// out\n        /* \"#utility.yul\":3661:3883   */\n    tag_80:\n        /* \"#utility.yul\":3754:3758   */\n      0x00\n        /* \"#utility.yul\":3792:3794   */\n      0x20\n        /* \"#utility.yul\":3781:3790   */\n      dup3\n        /* \"#utility.yul\":3777:3795   */\n      add\n        /* \"#utility.yul\":3769:3795   */\n      swap1\n      pop\n        /* \"#utility.yul\":3805:3876   */\n      tag_296\n        /* \"#utility.yul\":3873:3874   */\n      0x00\n        /* \"#utility.yul\":3862:3871   */\n      dup4\n        /* \"#utility.yul\":3858:3875   */\n      add\n        /* \"#utility.yul\":3849:3855   */\n      dup5\n        /* \"#utility.yul\":3805:3876   */\n      tag_203\n      jump\t// in\n    tag_296:\n        /* \"#utility.yul\":3661:3883   */\n      swap3\n      swap2\n      pop\n      pop\n      jump\t// out\n        /* \"#utility.yul\":3889:4009   */\n    tag_204:\n        /* \"#utility.yul\":3961:3984   */\n      tag_298\n        /* \"#utility.yul\":3978:3983   */\n      dup2\n        /* \"#utility.yul\":3961:3984   */\n      tag_186\n      jump\t// in\n    tag_298:\n        /* \"#utility.yul\":3954:3959   */\n      dup2\n        /* \"#utility.yul\":3951:3985   */\n      eq\n        /* \"#utility.yul\":3941:4003   */\n      tag_299\n      jumpi\n        /* \"#utility.yul\":3999:4000   */\n      0x00\n        /* \"#utility.yul\":3996:3997   */\n      dup1\n        /* \"#utility.yul\":3989:4001   */\n      revert\n        /* \"#utility.yul\":3941:4003   */\n    tag_299:\n        /* \"#utility.yul\":3889:4009   */\n      pop\n      jump\t// out\n        /* \"#utility.yul\":4015:4152   */\n    tag_205:\n        /* \"#utility.yul\":4060:4065   */\n      0x00\n        /* \"#utility.yul\":4098:4104   */\n      dup2\n        /* \"#utility.yul\":4085:4105   */\n      calldataload\n        /* \"#utility.yul\":4076:4105   */\n      swap1\n      pop\n        /* \"#utility.yul\":4114:4146   */\n      tag_301\n        /* \"#utility.yul\":4140:4145   */\n      dup2\n        /* \"#utility.yul\":4114:4146   */\n      tag_204\n      jump\t// in\n    tag_301:\n        /* \"#utility.yul\":4015:4152   */\n      swap3\n      swap2\n      pop\n      pop\n      jump\t// out\n        /* \"#utility.yul\":4158:4485   */\n    tag_91:\n        /* \"#utility.yul\":4216:4222   */\n      0x00\n        /* \"#utility.yul\":4265:4267   */\n      0x20\n        /* \"#utility.yul\":4253:4262   */\n      dup3\n        /* \"#utility.yul\":4244:4251   */\n      dup5\n        /* \"#utility.yul\":4240:4263   */\n      sub\n        /* \"#utility.yul\":4236:4268   */\n      slt\n        /* \"#utility.yul\":4233:4352   */\n      iszero\n      tag_303\n      jumpi\n        /* \"#utility.yul\":4271:4350   */\n      tag_304\n      tag_189\n      jump\t// in\n    tag_304:\n        /* \"#utility.yul\":4233:4352   */\n    tag_303:\n        /* \"#utility.yul\":4391:4392   */\n      0x00\n        /* \"#utility.yul\":4416:4468   */\n      tag_305\n        /* \"#utility.yul\":4460:4467   */\n      dup5\n        /* \"#utility.yul\":4451:4457   */\n      dup3\n        /* \"#utility.yul\":4440:4449   */\n      dup6\n        /* \"#utility.yul\":4436:4458   */\n      add\n        /* \"#utility.yul\":4416:4468   */\n      tag_205\n      jump\t// in\n    tag_305:\n        /* \"#utility.yul\":4406:4468   */\n      swap2\n      pop\n        /* \"#utility.yul\":4362:4478   */\n      pop\n        /* \"#utility.yul\":4158:4485   */\n      swap3\n      swap2\n      pop\n      pop\n      jump\t// out\n        /* \"#utility.yul\":4491:4590   */\n    tag_206:\n        /* \"#utility.yul\":4543:4549   */\n      0x00\n        /* \"#utility.yul\":4577:4582   */\n      dup2\n        /* \"#utility.yul\":4571:4583   */\n      mload\n        /* \"#utility.yul\":4561:4583   */\n      swap1\n      pop\n        /* \"#utility.yul\":4491:4590   */\n      swap2\n      swap1\n      pop\n      jump\t// out\n        /* \"#utility.yul\":4596:4765   */\n    tag_207:\n        /* \"#utility.yul\":4680:4691   */\n      0x00\n        /* \"#utility.yul\":4714:4720   */\n      dup3\n        /* \"#utility.yul\":4709:4712   */\n      dup3\n        /* \"#utility.yul\":4702:4721   */\n      mstore\n        /* \"#utility.yul\":4754:4758   */\n      0x20\n        /* \"#utility.yul\":4749:4752   */\n      dup3\n        /* \"#utility.yul\":4745:4759   */\n      add\n        /* \"#utility.yul\":4730:4759   */\n      swap1\n      pop\n        /* \"#utility.yul\":4596:4765   */\n      swap3\n      swap2\n      pop\n      pop\n      jump\t// out\n        /* \"#utility.yul\":4771:5017   */\n    tag_208:\n        /* \"#utility.yul\":4852:4853   */\n      0x00\n        /* \"#utility.yul\":4862:4975   */\n    tag_309:\n        /* \"#utility.yul\":4876:4882   */\n      dup4\n        /* \"#utility.yul\":4873:4874   */\n      dup2\n        /* \"#utility.yul\":4870:4883   */\n      lt\n        /* \"#utility.yul\":4862:4975   */\n      iszero\n      tag_311\n      jumpi\n        /* \"#utility.yul\":4961:4962   */\n      dup1\n        /* \"#utility.yul\":4956:4959   */\n      dup3\n        /* \"#utility.yul\":4952:4963   */\n      add\n        /* \"#utility.yul\":4946:4964   */\n      mload\n        /* \"#utility.yul\":4942:4943   */\n      dup2\n        /* \"#utility.yul\":4937:4940   */\n      dup5\n        /* \"#utility.yul\":4933:4944   */\n      add\n        /* \"#utility.yul\":4926:4965   */\n      mstore\n        /* \"#utility.yul\":4898:4900   */\n      0x20\n        /* \"#utility.yul\":4895:4896   */\n      dup2\n        /* \"#utility.yul\":4891:4901   */\n      add\n        /* \"#utility.yul\":4886:4901   */\n      swap1\n      pop\n        /* \"#utility.yul\":4862:4975   */\n      jump(tag_309)\n    tag_311:\n        /* \"#utility.yul\":5009:5010   */\n      0x00\n        /* \"#utility.yul\":5000:5006   */\n      dup5\n        /* \"#utility.yul\":4995:4998   */\n      dup5\n        /* \"#utility.yul\":4991:5007   */\n      add\n        /* \"#utility.yul\":4984:5011   */\n      mstore\n        /* \"#utility.yul\":4833:5017   */\n      pop\n        /* \"#utility.yul\":4771:5017   */\n      pop\n      pop\n      pop\n      jump\t// out\n        /* \"#utility.yul\":5023:5125   */\n    tag_209:\n        /* \"#utility.yul\":5064:5070   */\n      0x00\n        /* \"#utility.yul\":5115:5117   */\n      0x1f\n        /* \"#utility.yul\":5111:5118   */\n      not\n        /* \"#utility.yul\":5106:5108   */\n      0x1f\n        /* \"#utility.yul\":5099:5104   */\n      dup4\n        /* \"#utility.yul\":5095:5109   */\n      add\n        /* \"#utility.yul\":5091:5119   */\n      and\n        /* \"#utility.yul\":5081:5119   */\n      swap1\n      pop\n        /* \"#utility.yul\":5023:5125   */\n      swap2\n      swap1\n      pop\n      jump\t// out\n        /* \"#utility.yul\":5131:5508   */\n    tag_210:\n        /* \"#utility.yul\":5219:5222   */\n      0x00\n        /* \"#utility.yul\":5247:5286   */\n      tag_314\n        /* \"#utility.yul\":5280:5285   */\n      dup3\n        /* \"#utility.yul\":5247:5286   */\n      tag_206\n      jump\t// in\n    tag_314:\n        /* \"#utility.yul\":5302:5373   */\n      tag_315\n        /* \"#utility.yul\":5366:5372   */\n      dup2\n        /* \"#utility.yul\":5361:5364   */\n      dup6\n        /* \"#utility.yul\":5302:5373   */\n      tag_207\n      jump\t// in\n    tag_315:\n        /* \"#utility.yul\":5295:5373   */\n      swap4\n      pop\n        /* \"#utility.yul\":5382:5447   */\n      tag_316\n        /* \"#utility.yul\":5440:5446   */\n      dup2\n        /* \"#utility.yul\":5435:5438   */\n      dup6\n        /* \"#utility.yul\":5428:5432   */\n      0x20\n        /* \"#utility.yul\":5421:5426   */\n      dup7\n        /* \"#utility.yul\":5417:5433   */\n      add\n        /* \"#utility.yul\":5382:5447   */\n      tag_208\n      jump\t// in\n    tag_316:\n        /* \"#utility.yul\":5472:5501   */\n      tag_317\n        /* \"#utility.yul\":5494:5500   */\n      dup2\n        /* \"#utility.yul\":5472:5501   */\n      tag_209\n      jump\t// in\n    tag_317:\n        /* \"#utility.yul\":5467:5470   */\n      dup5\n        /* \"#utility.yul\":5463:5502   */\n      add\n        /* \"#utility.yul\":5456:5502   */\n      swap2\n      pop\n        /* \"#utility.yul\":5223:5508   */\n      pop\n        /* \"#utility.yul\":5131:5508   */\n      swap3\n      swap2\n      pop\n      pop\n      jump\t// out\n        /* \"#utility.yul\":5514:5827   */\n    tag_97:\n        /* \"#utility.yul\":5627:5631   */\n      0x00\n        /* \"#utility.yul\":5665:5667   */\n      0x20\n        /* \"#utility.yul\":5654:5663   */\n      dup3\n        /* \"#utility.yul\":5650:5668   */\n      add\n        /* \"#utility.yul\":5642:5668   */\n      swap1\n      pop\n        /* \"#utility.yul\":5714:5723   */\n      dup2\n        /* \"#utility.yul\":5708:5712   */\n      dup2\n        /* \"#utility.yul\":5704:5724   */\n      sub\n        /* \"#utility.yul\":5700:5701   */\n      0x00\n        /* \"#utility.yul\":5689:5698   */\n      dup4\n        /* \"#utility.yul\":5685:5702   */\n      add\n        /* \"#utility.yul\":5678:5725   */\n      mstore\n        /* \"#utility.yul\":5742:5820   */\n      tag_319\n        /* \"#utility.yul\":5815:5819   */\n      dup2\n        /* \"#utility.yul\":5806:5812   */\n      dup5\n        /* \"#utility.yul\":5742:5820   */\n      tag_210\n      jump\t// in\n    tag_319:\n        /* \"#utility.yul\":5734:5820   */\n      swap1\n      pop\n        /* \"#utility.yul\":5514:5827   */\n      swap3\n      swap2\n      pop\n      pop\n      jump\t// out\n        /* \"#utility.yul\":5833:5953   */\n    tag_211:\n        /* \"#utility.yul\":5905:5928   */\n      tag_321\n        /* \"#utility.yul\":5922:5927   */\n      dup2\n        /* \"#utility.yul\":5905:5928   */\n      tag_200\n      jump\t// in\n    tag_321:\n        /* \"#utility.yul\":5898:5903   */\n      dup2\n        /* \"#utility.yul\":5895:5929   */\n      eq\n        /* \"#utility.yul\":5885:5947   */\n      tag_322\n      jumpi\n        /* \"#utility.yul\":5943:5944   */\n      0x00\n        /* \"#utility.yul\":5940:5941   */\n      dup1\n        /* \"#utility.yul\":5933:5945   */\n      revert\n        /* \"#utility.yul\":5885:5947   */\n    tag_322:\n        /* \"#utility.yul\":5833:5953   */\n      pop\n      jump\t// out\n        /* \"#utility.yul\":5959:6096   */\n    tag_212:\n        /* \"#utility.yul\":6004:6009   */\n      0x00\n        /* \"#utility.yul\":6042:6048   */\n      dup2\n        /* \"#utility.yul\":6029:6049   */\n      calldataload\n        /* \"#utility.yul\":6020:6049   */\n      swap1\n      pop\n        /* \"#utility.yul\":6058:6090   */\n      tag_324\n        /* \"#utility.yul\":6084:6089   */\n      dup2\n        /* \"#utility.yul\":6058:6090   */\n      tag_211\n      jump\t// in\n    tag_324:\n        /* \"#utility.yul\":5959:6096   */\n      swap3\n      swap2\n      pop\n      pop\n      jump\t// out\n        /* \"#utility.yul\":6102:6429   */\n    tag_101:\n        /* \"#utility.yul\":6160:6166   */\n      0x00\n        /* \"#utility.yul\":6209:6211   */\n      0x20\n        /* \"#utility.yul\":6197:6206   */\n      dup3\n        /* \"#utility.yul\":6188:6195   */\n      dup5\n        /* \"#utility.yul\":6184:6207   */\n      sub\n        /* \"#utility.yul\":6180:6212   */\n      slt\n        /* \"#utility.yul\":6177:6296   */\n      iszero\n      tag_326\n      jumpi\n        /* \"#utility.yul\":6215:6294   */\n      tag_327\n      tag_189\n      jump\t// in\n    tag_327:\n        /* \"#utility.yul\":6177:6296   */\n    tag_326:\n        /* \"#utility.yul\":6335:6336   */\n      0x00\n        /* \"#utility.yul\":6360:6412   */\n      tag_328\n        /* \"#utility.yul\":6404:6411   */\n      dup5\n        /* \"#utility.yul\":6395:6401   */\n      dup3\n        /* \"#utility.yul\":6384:6393   */\n      dup6\n        /* \"#utility.yul\":6380:6402   */\n      add\n        /* \"#utility.yul\":6360:6412   */\n      tag_212\n      jump\t// in\n    tag_328:\n        /* \"#utility.yul\":6350:6412   */\n      swap2\n      pop\n        /* \"#utility.yul\":6306:6422   */\n      pop\n        /* \"#utility.yul\":6102:6429   */\n      swap3\n      swap2\n      pop\n      pop\n      jump\t// out\n        /* \"#utility.yul\":6435:6599   */\n    tag_213:\n        /* \"#utility.yul\":6575:6591   */\n      0x4e6f2072652d656e7472616e6379000000000000000000000000000000000000\n        /* \"#utility.yul\":6571:6572   */\n      0x00\n        /* \"#utility.yul\":6563:6569   */\n      dup3\n        /* \"#utility.yul\":6559:6573   */\n      add\n        /* \"#utility.yul\":6552:6592   */\n      mstore\n        /* \"#utility.yul\":6435:6599   */\n      pop\n      jump\t// out\n        /* \"#utility.yul\":6605:6971   */\n    tag_214:\n        /* \"#utility.yul\":6747:6750   */\n      0x00\n        /* \"#utility.yul\":6768:6835   */\n      tag_331\n        /* \"#utility.yul\":6832:6834   */\n      0x0e\n        /* \"#utility.yul\":6827:6830   */\n      dup4\n        /* \"#utility.yul\":6768:6835   */\n      tag_207\n      jump\t// in\n    tag_331:\n        /* \"#utility.yul\":6761:6835   */\n      swap2\n      pop\n        /* \"#utility.yul\":6844:6937   */\n      tag_332\n        /* \"#utility.yul\":6933:6936   */\n      dup3\n        /* \"#utility.yul\":6844:6937   */\n      tag_213\n      jump\t// in\n    tag_332:\n        /* \"#utility.yul\":6962:6964   */\n      0x20\n        /* \"#utility.yul\":6957:6960   */\n      dup3\n        /* \"#utility.yul\":6953:6965   */\n      add\n        /* \"#utility.yul\":6946:6965   */\n      swap1\n      pop\n        /* \"#utility.yul\":6605:6971   */\n      swap2\n      swap1\n      pop\n      jump\t// out\n        /* \"#utility.yul\":6977:7396   */\n    tag_108:\n        /* \"#utility.yul\":7143:7147   */\n      0x00\n        /* \"#utility.yul\":7181:7183   */\n      0x20\n        /* \"#utility.yul\":7170:7179   */\n      dup3\n        /* \"#utility.yul\":7166:7184   */\n      add\n        /* \"#utility.yul\":7158:7184   */\n      swap1\n      pop\n        /* \"#utility.yul\":7230:7239   */\n      dup2\n        /* \"#utility.yul\":7224:7228   */\n      dup2\n        /* \"#utility.yul\":7220:7240   */\n      sub\n        /* \"#utility.yul\":7216:7217   */\n      0x00\n        /* \"#utility.yul\":7205:7214   */\n      dup4\n        /* \"#utility.yul\":7201:7218   */\n      add\n        /* \"#utility.yul\":7194:7241   */\n      mstore\n        /* \"#utility.yul\":7258:7389   */\n      tag_334\n        /* \"#utility.yul\":7384:7388   */\n      dup2\n        /* \"#utility.yul\":7258:7389   */\n      tag_214\n      jump\t// in\n    tag_334:\n        /* \"#utility.yul\":7250:7389   */\n      swap1\n      pop\n        /* \"#utility.yul\":6977:7396   */\n      swap2\n      swap1\n      pop\n      jump\t// out\n        /* \"#utility.yul\":7402:7574   */\n    tag_215:\n        /* \"#utility.yul\":7542:7566   */\n      0x4b65696e20476577696e6e2065696e67657a61686c7400000000000000000000\n        /* \"#utility.yul\":7538:7539   */\n      0x00\n        /* \"#utility.yul\":7530:7536   */\n      dup3\n        /* \"#utility.yul\":7526:7540   */\n      add\n        /* \"#utility.yul\":7519:7567   */\n      mstore\n        /* \"#utility.yul\":7402:7574   */\n      pop\n      jump\t// out\n        /* \"#utility.yul\":7580:7946   */\n    tag_216:\n        /* \"#utility.yul\":7722:7725   */\n      0x00\n        /* \"#utility.yul\":7743:7810   */\n      tag_337\n        /* \"#utility.yul\":7807:7809   */\n      0x16\n        /* \"#utility.yul\":7802:7805   */\n      dup4\n        /* \"#utility.yul\":7743:7810   */\n      tag_207\n      jump\t// in\n    tag_337:\n        /* \"#utility.yul\":7736:7810   */\n      swap2\n      pop\n        /* \"#utility.yul\":7819:7912   */\n      tag_338\n        /* \"#utility.yul\":7908:7911   */\n      dup3\n        /* \"#utility.yul\":7819:7912   */\n      tag_215\n      jump\t// in\n    tag_338:\n        /* \"#utility.yul\":7937:7939   */\n      0x20\n        /* \"#utility.yul\":7932:7935   */\n      dup3\n        /* \"#utility.yul\":7928:7940   */\n      add\n        /* \"#utility.yul\":7921:7940   */\n      swap1\n      pop\n        /* \"#utility.yul\":7580:7946   */\n      swap2\n      swap1\n      pop\n      jump\t// out\n        /* \"#utility.yul\":7952:8371   */\n    tag_112:\n        /* \"#utility.yul\":8118:8122   */\n      0x00\n        /* \"#utility.yul\":8156:8158   */\n      0x20\n        /* \"#utility.yul\":8145:8154   */\n      dup3\n        /* \"#utility.yul\":8141:8159   */\n      add\n        /* \"#utility.yul\":8133:8159   */\n      swap1\n      pop\n        /* \"#utility.yul\":8205:8214   */\n      dup2\n        /* \"#utility.yul\":8199:8203   */\n      dup2\n        /* \"#utility.yul\":8195:8215   */\n      sub\n        /* \"#utility.yul\":8191:8192   */\n      0x00\n        /* \"#utility.yul\":8180:8189   */\n      dup4\n        /* \"#utility.yul\":8176:8193   */\n      add\n        /* \"#utility.yul\":8169:8216   */\n      mstore\n        /* \"#utility.yul\":8233:8364   */\n      tag_340\n        /* \"#utility.yul\":8359:8363   */\n      dup2\n        /* \"#utility.yul\":8233:8364   */\n      tag_216\n      jump\t// in\n    tag_340:\n        /* \"#utility.yul\":8225:8364   */\n      swap1\n      pop\n        /* \"#utility.yul\":7952:8371   */\n      swap2\n      swap1\n      pop\n      jump\t// out\n        /* \"#utility.yul\":8377:8550   */\n    tag_217:\n        /* \"#utility.yul\":8517:8542   */\n      0x44752062697374206b65696e204d6974737069656c6572000000000000000000\n        /* \"#utility.yul\":8513:8514   */\n      0x00\n        /* \"#utility.yul\":8505:8511   */\n      dup3\n        /* \"#utility.yul\":8501:8515   */\n      add\n        /* \"#utility.yul\":8494:8543   */\n      mstore\n        /* \"#utility.yul\":8377:8550   */\n      pop\n      jump\t// out\n        /* \"#utility.yul\":8556:8922   */\n    tag_218:\n        /* \"#utility.yul\":8698:8701   */\n      0x00\n        /* \"#utility.yul\":8719:8786   */\n      tag_343\n        /* \"#utility.yul\":8783:8785   */\n      0x17\n        /* \"#utility.yul\":8778:8781   */\n      dup4\n        /* \"#utility.yul\":8719:8786   */\n      tag_207\n      jump\t// in\n    tag_343:\n        /* \"#utility.yul\":8712:8786   */\n      swap2\n      pop\n        /* \"#utility.yul\":8795:8888   */\n      tag_344\n        /* \"#utility.yul\":8884:8887   */\n      dup3\n        /* \"#utility.yul\":8795:8888   */\n      tag_217\n      jump\t// in\n    tag_344:\n        /* \"#utility.yul\":8913:8915   */\n      0x20\n        /* \"#utility.yul\":8908:8911   */\n      dup3\n        /* \"#utility.yul\":8904:8916   */\n      add\n        /* \"#utility.yul\":8897:8916   */\n      swap1\n      pop\n        /* \"#utility.yul\":8556:8922   */\n      swap2\n      swap1\n      pop\n      jump\t// out\n        /* \"#utility.yul\":8928:9347   */\n    tag_115:\n        /* \"#utility.yul\":9094:9098   */\n      0x00\n        /* \"#utility.yul\":9132:9134   */\n      0x20\n        /* \"#utility.yul\":9121:9130   */\n      dup3\n        /* \"#utility.yul\":9117:9135   */\n      add\n        /* \"#utility.yul\":9109:9135   */\n      swap1\n      pop\n        /* \"#utility.yul\":9181:9190   */\n      dup2\n        /* \"#utility.yul\":9175:9179   */\n      dup2\n        /* \"#utility.yul\":9171:9191   */\n      sub\n        /* \"#utility.yul\":9167:9168   */\n      0x00\n        /* \"#utility.yul\":9156:9165   */\n      dup4\n        /* \"#utility.yul\":9152:9169   */\n      add\n        /* \"#utility.yul\":9145:9192   */\n      mstore\n        /* \"#utility.yul\":9209:9340   */\n      tag_346\n        /* \"#utility.yul\":9335:9339   */\n      dup2\n        /* \"#utility.yul\":9209:9340   */\n      tag_218\n      jump\t// in\n    tag_346:\n        /* \"#utility.yul\":9201:9340   */\n      swap1\n      pop\n        /* \"#utility.yul\":8928:9347   */\n      swap2\n      swap1\n      pop\n      jump\t// out\n        /* \"#utility.yul\":9353:9576   */\n    tag_219:\n        /* \"#utility.yul\":9493:9527   */\n      0x4465696e20476577696e6e20777572646520626572656974732061757367657a\n        /* \"#utility.yul\":9489:9490   */\n      0x00\n        /* \"#utility.yul\":9481:9487   */\n      dup3\n        /* \"#utility.yul\":9477:9491   */\n      add\n        /* \"#utility.yul\":9470:9528   */\n      mstore\n        /* \"#utility.yul\":9562:9568   */\n      0x61686c7400000000000000000000000000000000000000000000000000000000\n        /* \"#utility.yul\":9557:9559   */\n      0x20\n        /* \"#utility.yul\":9549:9555   */\n      dup3\n        /* \"#utility.yul\":9545:9560   */\n      add\n        /* \"#utility.yul\":9538:9569   */\n      mstore\n        /* \"#utility.yul\":9353:9576   */\n      pop\n      jump\t// out\n        /* \"#utility.yul\":9582:9948   */\n    tag_220:\n        /* \"#utility.yul\":9724:9727   */\n      0x00\n        /* \"#utility.yul\":9745:9812   */\n      tag_349\n        /* \"#utility.yul\":9809:9811   */\n      0x24\n        /* \"#utility.yul\":9804:9807   */\n      dup4\n        /* \"#utility.yul\":9745:9812   */\n      tag_207\n      jump\t// in\n    tag_349:\n        /* \"#utility.yul\":9738:9812   */\n      swap2\n      pop\n        /* \"#utility.yul\":9821:9914   */\n      tag_350\n        /* \"#utility.yul\":9910:9913   */\n      dup3\n        /* \"#utility.yul\":9821:9914   */\n      tag_219\n      jump\t// in\n    tag_350:\n        /* \"#utility.yul\":9939:9941   */\n      0x40\n        /* \"#utility.yul\":9934:9937   */\n      dup3\n        /* \"#utility.yul\":9930:9942   */\n      add\n        /* \"#utility.yul\":9923:9942   */\n      swap1\n      pop\n        /* \"#utility.yul\":9582:9948   */\n      swap2\n      swap1\n      pop\n      jump\t// out\n        /* \"#utility.yul\":9954:10373   */\n    tag_118:\n        /* \"#utility.yul\":10120:10124   */\n      0x00\n        /* \"#utility.yul\":10158:10160   */\n      0x20\n        /* \"#utility.yul\":10147:10156   */\n      dup3\n        /* \"#utility.yul\":10143:10161   */\n      add\n        /* \"#utility.yul\":10135:10161   */\n      swap1\n      pop\n        /* \"#utility.yul\":10207:10216   */\n      dup2\n        /* \"#utility.yul\":10201:10205   */\n      dup2\n        /* \"#utility.yul\":10197:10217   */\n      sub\n        /* \"#utility.yul\":10193:10194   */\n      0x00\n        /* \"#utility.yul\":10182:10191   */\n      dup4\n        /* \"#utility.yul\":10178:10195   */\n      add\n        /* \"#utility.yul\":10171:10218   */\n      mstore\n        /* \"#utility.yul\":10235:10366   */\n      tag_352\n        /* \"#utility.yul\":10361:10365   */\n      dup2\n        /* \"#utility.yul\":10235:10366   */\n      tag_220\n      jump\t// in\n    tag_352:\n        /* \"#utility.yul\":10227:10366   */\n      swap1\n      pop\n        /* \"#utility.yul\":9954:10373   */\n      swap2\n      swap1\n      pop\n      jump\t// out\n        /* \"#utility.yul\":10379:10526   */\n    tag_221:\n        /* \"#utility.yul\":10480:10491   */\n      0x00\n        /* \"#utility.yul\":10517:10520   */\n      dup2\n        /* \"#utility.yul\":10502:10520   */\n      swap1\n      pop\n        /* \"#utility.yul\":10379:10526   */\n      swap3\n      swap2\n      pop\n      pop\n      jump\t// out\n        /* \"#utility.yul\":10532:10646   */\n    tag_222:\n      pop\n      jump\t// out\n        /* \"#utility.yul\":10652:11050   */\n    tag_223:\n        /* \"#utility.yul\":10811:10814   */\n      0x00\n        /* \"#utility.yul\":10832:10915   */\n      tag_356\n        /* \"#utility.yul\":10913:10914   */\n      0x00\n        /* \"#utility.yul\":10908:10911   */\n      dup4\n        /* \"#utility.yul\":10832:10915   */\n      tag_221\n      jump\t// in\n    tag_356:\n        /* \"#utility.yul\":10825:10915   */\n      swap2\n      pop\n        /* \"#utility.yul\":10924:11017   */\n      tag_357\n        /* \"#utility.yul\":11013:11016   */\n      dup3\n        /* \"#utility.yul\":10924:11017   */\n      tag_222\n      jump\t// in\n    tag_357:\n        /* \"#utility.yul\":11042:11043   */\n      0x00\n        /* \"#utility.yul\":11037:11040   */\n      dup3\n        /* \"#utility.yul\":11033:11044   */\n      add\n        /* \"#utility.yul\":11026:11044   */\n      swap1\n      pop\n        /* \"#utility.yul\":10652:11050   */\n      swap2\n      swap1\n      pop\n      jump\t// out\n        /* \"#utility.yul\":11056:11435   */\n    tag_120:\n        /* \"#utility.yul\":11240:11243   */\n      0x00\n        /* \"#utility.yul\":11262:11409   */\n      tag_359\n        /* \"#utility.yul\":11405:11408   */\n      dup3\n        /* \"#utility.yul\":11262:11409   */\n      tag_223\n      jump\t// in\n    tag_359:\n        /* \"#utility.yul\":11255:11409   */\n      swap2\n      pop\n        /* \"#utility.yul\":11426:11429   */\n      dup2\n        /* \"#utility.yul\":11419:11429   */\n      swap1\n      pop\n        /* \"#utility.yul\":11056:11435   */\n      swap2\n      swap1\n      pop\n      jump\t// out\n        /* \"#utility.yul\":11441:11665   */\n    tag_224:\n        /* \"#utility.yul\":11581:11615   */\n      0x4175737a61686c756e672064657320476577696e6e73206665686c6765736368\n        /* \"#utility.yul\":11577:11578   */\n      0x00\n        /* \"#utility.yul\":11569:11575   */\n      dup3\n        /* \"#utility.yul\":11565:11579   */\n      add\n        /* \"#utility.yul\":11558:11616   */\n      mstore\n        /* \"#utility.yul\":11650:11657   */\n      0x6c6167656e000000000000000000000000000000000000000000000000000000\n        /* \"#utility.yul\":11645:11647   */\n      0x20\n        /* \"#utility.yul\":11637:11643   */\n      dup3\n        /* \"#utility.yul\":11633:11648   */\n      add\n        /* \"#utility.yul\":11626:11658   */\n      mstore\n        /* \"#utility.yul\":11441:11665   */\n      pop\n      jump\t// out\n        /* \"#utility.yul\":11671:12037   */\n    tag_225:\n        /* \"#utility.yul\":11813:11816   */\n      0x00\n        /* \"#utility.yul\":11834:11901   */\n      tag_362\n        /* \"#utility.yul\":11898:11900   */\n      0x25\n        /* \"#utility.yul\":11893:11896   */\n      dup4\n        /* \"#utility.yul\":11834:11901   */\n      tag_207\n      jump\t// in\n    tag_362:\n        /* \"#utility.yul\":11827:11901   */\n      swap2\n      pop\n        /* \"#utility.yul\":11910:12003   */\n      tag_363\n        /* \"#utility.yul\":11999:12002   */\n      dup3\n        /* \"#utility.yul\":11910:12003   */\n      tag_224\n      jump\t// in\n    tag_363:\n        /* \"#utility.yul\":12028:12030   */\n      0x40\n        /* \"#utility.yul\":12023:12026   */\n      dup3\n        /* \"#utility.yul\":12019:12031   */\n      add\n        /* \"#utility.yul\":12012:12031   */\n      swap1\n      pop\n        /* \"#utility.yul\":11671:12037   */\n      swap2\n      swap1\n      pop\n      jump\t// out\n        /* \"#utility.yul\":12043:12462   */\n    tag_126:\n        /* \"#utility.yul\":12209:12213   */\n      0x00\n        /* \"#utility.yul\":12247:12249   */\n      0x20\n        /* \"#utility.yul\":12236:12245   */\n      dup3\n        /* \"#utility.yul\":12232:12250   */\n      add\n        /* \"#utility.yul\":12224:12250   */\n      swap1\n      pop\n        /* \"#utility.yul\":12296:12305   */\n      dup2\n        /* \"#utility.yul\":12290:12294   */\n      dup2\n        /* \"#utility.yul\":12286:12306   */\n      sub\n        /* \"#utility.yul\":12282:12283   */\n      0x00\n        /* \"#utility.yul\":12271:12280   */\n      dup4\n        /* \"#utility.yul\":12267:12284   */\n      add\n        /* \"#utility.yul\":12260:12307   */\n      mstore\n        /* \"#utility.yul\":12324:12455   */\n      tag_365\n        /* \"#utility.yul\":12450:12454   */\n      dup2\n        /* \"#utility.yul\":12324:12455   */\n      tag_225\n      jump\t// in\n    tag_365:\n        /* \"#utility.yul\":12316:12455   */\n      swap1\n      pop\n        /* \"#utility.yul\":12043:12462   */\n      swap2\n      swap1\n      pop\n      jump\t// out\n        /* \"#utility.yul\":12468:12718   */\n    tag_226:\n        /* \"#utility.yul\":12608:12642   */\n      0x457320676962742062657265697473204d6974737069656c65722e2050726569\n        /* \"#utility.yul\":12604:12605   */\n      0x00\n        /* \"#utility.yul\":12596:12602   */\n      dup3\n        /* \"#utility.yul\":12592:12606   */\n      add\n        /* \"#utility.yul\":12585:12643   */\n      mstore\n        /* \"#utility.yul\":12677:12710   */\n      0x7361656e646572756e67206e69636874206d656872206d6f65676c6963682e00\n        /* \"#utility.yul\":12672:12674   */\n      0x20\n        /* \"#utility.yul\":12664:12670   */\n      dup3\n        /* \"#utility.yul\":12660:12675   */\n      add\n        /* \"#utility.yul\":12653:12711   */\n      mstore\n        /* \"#utility.yul\":12468:12718   */\n      pop\n      jump\t// out\n        /* \"#utility.yul\":12724:13090   */\n    tag_227:\n        /* \"#utility.yul\":12866:12869   */\n      0x00\n        /* \"#utility.yul\":12887:12954   */\n      tag_368\n        /* \"#utility.yul\":12951:12953   */\n      0x3f\n        /* \"#utility.yul\":12946:12949   */\n      dup4\n        /* \"#utility.yul\":12887:12954   */\n      tag_207\n      jump\t// in\n    tag_368:\n        /* \"#utility.yul\":12880:12954   */\n      swap2\n      pop\n        /* \"#utility.yul\":12963:13056   */\n      tag_369\n        /* \"#utility.yul\":13052:13055   */\n      dup3\n        /* \"#utility.yul\":12963:13056   */\n      tag_226\n      jump\t// in\n    tag_369:\n        /* \"#utility.yul\":13081:13083   */\n      0x40\n        /* \"#utility.yul\":13076:13079   */\n      dup3\n        /* \"#utility.yul\":13072:13084   */\n      add\n        /* \"#utility.yul\":13065:13084   */\n      swap1\n      pop\n        /* \"#utility.yul\":12724:13090   */\n      swap2\n      swap1\n      pop\n      jump\t// out\n        /* \"#utility.yul\":13096:13515   */\n    tag_132:\n        /* \"#utility.yul\":13262:13266   */\n      0x00\n        /* \"#utility.yul\":13300:13302   */\n      0x20\n        /* \"#utility.yul\":13289:13298   */\n      dup3\n        /* \"#utility.yul\":13285:13303   */\n      add\n        /* \"#utility.yul\":13277:13303   */\n      swap1\n      pop\n        /* \"#utility.yul\":13349:13358   */\n      dup2\n        /* \"#utility.yul\":13343:13347   */\n      dup2\n        /* \"#utility.yul\":13339:13359   */\n      sub\n        /* \"#utility.yul\":13335:13336   */\n      0x00\n        /* \"#utility.yul\":13324:13333   */\n      dup4\n        /* \"#utility.yul\":13320:13337   */\n      add\n        /* \"#utility.yul\":13313:13360   */\n      mstore\n        /* \"#utility.yul\":13377:13508   */\n      tag_371\n        /* \"#utility.yul\":13503:13507   */\n      dup2\n        /* \"#utility.yul\":13377:13508   */\n      tag_227\n      jump\t// in\n    tag_371:\n        /* \"#utility.yul\":13369:13508   */\n      swap1\n      pop\n        /* \"#utility.yul\":13096:13515   */\n      swap2\n      swap1\n      pop\n      jump\t// out\n        /* \"#utility.yul\":13521:13766   */\n    tag_228:\n        /* \"#utility.yul\":13661:13695   */\n      0x457320676962742062657265697473204d6974737069656c65722e2041656e64\n        /* \"#utility.yul\":13657:13658   */\n      0x00\n        /* \"#utility.yul\":13649:13655   */\n      dup3\n        /* \"#utility.yul\":13645:13659   */\n      add\n        /* \"#utility.yul\":13638:13696   */\n      mstore\n        /* \"#utility.yul\":13730:13758   */\n      0x6572756e67206e69636874206d656872206d6f65676c6963682e000000000000\n        /* \"#utility.yul\":13725:13727   */\n      0x20\n        /* \"#utility.yul\":13717:13723   */\n      dup3\n        /* \"#utility.yul\":13713:13728   */\n      add\n        /* \"#utility.yul\":13706:13759   */\n      mstore\n        /* \"#utility.yul\":13521:13766   */\n      pop\n      jump\t// out\n        /* \"#utility.yul\":13772:14138   */\n    tag_229:\n        /* \"#utility.yul\":13914:13917   */\n      0x00\n        /* \"#utility.yul\":13935:14002   */\n      tag_374\n        /* \"#utility.yul\":13999:14001   */\n      0x3a\n        /* \"#utility.yul\":13994:13997   */\n      dup4\n        /* \"#utility.yul\":13935:14002   */\n      tag_207\n      jump\t// in\n    tag_374:\n        /* \"#utility.yul\":13928:14002   */\n      swap2\n      pop\n        /* \"#utility.yul\":14011:14104   */\n      tag_375\n        /* \"#utility.yul\":14100:14103   */\n      dup3\n        /* \"#utility.yul\":14011:14104   */\n      tag_228\n      jump\t// in\n    tag_375:\n        /* \"#utility.yul\":14129:14131   */\n      0x40\n        /* \"#utility.yul\":14124:14127   */\n      dup3\n        /* \"#utility.yul\":14120:14132   */\n      add\n        /* \"#utility.yul\":14113:14132   */\n      swap1\n      pop\n        /* \"#utility.yul\":13772:14138   */\n      swap2\n      swap1\n      pop\n      jump\t// out\n        /* \"#utility.yul\":14144:14563   */\n    tag_138:\n        /* \"#utility.yul\":14310:14314   */\n      0x00\n        /* \"#utility.yul\":14348:14350   */\n      0x20\n        /* \"#utility.yul\":14337:14346   */\n      dup3\n        /* \"#utility.yul\":14333:14351   */\n      add\n        /* \"#utility.yul\":14325:14351   */\n      swap1\n      pop\n        /* \"#utility.yul\":14397:14406   */\n      dup2\n        /* \"#utility.yul\":14391:14395   */\n      dup2\n        /* \"#utility.yul\":14387:14407   */\n      sub\n        /* \"#utility.yul\":14383:14384   */\n      0x00\n        /* \"#utility.yul\":14372:14381   */\n      dup4\n        /* \"#utility.yul\":14368:14385   */\n      add\n        /* \"#utility.yul\":14361:14408   */\n      mstore\n        /* \"#utility.yul\":14425:14556   */\n      tag_377\n        /* \"#utility.yul\":14551:14555   */\n      dup2\n        /* \"#utility.yul\":14425:14556   */\n      tag_229\n      jump\t// in\n    tag_377:\n        /* \"#utility.yul\":14417:14556   */\n      swap1\n      pop\n        /* \"#utility.yul\":14144:14563   */\n      swap2\n      swap1\n      pop\n      jump\t// out\n        /* \"#utility.yul\":14569:14749   */\n    tag_230:\n        /* \"#utility.yul\":14617:14694   */\n      0x4e487b7100000000000000000000000000000000000000000000000000000000\n        /* \"#utility.yul\":14614:14615   */\n      0x00\n        /* \"#utility.yul\":14607:14695   */\n      mstore\n        /* \"#utility.yul\":14714:14718   */\n      0x12\n        /* \"#utility.yul\":14711:14712   */\n      0x04\n        /* \"#utility.yul\":14704:14719   */\n      mstore\n        /* \"#utility.yul\":14738:14742   */\n      0x24\n        /* \"#utility.yul\":14735:14736   */\n      0x00\n        /* \"#utility.yul\":14728:14743   */\n      revert\n        /* \"#utility.yul\":14755:14935   */\n    tag_231:\n        /* \"#utility.yul\":14803:14880   */\n      0x4e487b7100000000000000000000000000000000000000000000000000000000\n        /* \"#utility.yul\":14800:14801   */\n      0x00\n        /* \"#utility.yul\":14793:14881   */\n      mstore\n        /* \"#utility.yul\":14900:14904   */\n      0x11\n        /* \"#utility.yul\":14897:14898   */\n      0x04\n        /* \"#utility.yul\":14890:14905   */\n      mstore\n        /* \"#utility.yul\":14924:14928   */\n      0x24\n        /* \"#utility.yul\":14921:14922   */\n      0x00\n        /* \"#utility.yul\":14914:14929   */\n      revert\n        /* \"#utility.yul\":14941:15123   */\n    tag_141:\n        /* \"#utility.yul\":14980:14981   */\n      0x00\n        /* \"#utility.yul\":14997:15016   */\n      tag_381\n        /* \"#utility.yul\":15014:15015   */\n      dup3\n        /* \"#utility.yul\":14997:15016   */\n      tag_191\n      jump\t// in\n    tag_381:\n        /* \"#utility.yul\":14992:15016   */\n      swap2\n      pop\n        /* \"#utility.yul\":15030:15049   */\n      tag_382\n        /* \"#utility.yul\":15047:15048   */\n      dup4\n        /* \"#utility.yul\":15030:15049   */\n      tag_191\n      jump\t// in\n    tag_382:\n        /* \"#utility.yul\":15025:15049   */\n      swap3\n      pop\n        /* \"#utility.yul\":15068:15069   */\n      dup3\n        /* \"#utility.yul\":15058:15093   */\n      tag_383\n      jumpi\n        /* \"#utility.yul\":15073:15091   */\n      tag_384\n      tag_230\n      jump\t// in\n    tag_384:\n        /* \"#utility.yul\":15058:15093   */\n    tag_383:\n        /* \"#utility.yul\":15115:15116   */\n      dup3\n        /* \"#utility.yul\":15112:15113   */\n      dup3\n        /* \"#utility.yul\":15108:15117   */\n      div\n        /* \"#utility.yul\":15103:15117   */\n      swap1\n      pop\n        /* \"#utility.yul\":14941:15123   */\n      swap3\n      swap2\n      pop\n      pop\n      jump\t// out\n        /* \"#utility.yul\":15129:15308   */\n    tag_232:\n        /* \"#utility.yul\":15269:15300   */\n      0x5a7520676572696e6765722045696e7a61686c756e6773626574726167000000\n        /* \"#utility.yul\":15265:15266   */\n      0x00\n        /* \"#utility.yul\":15257:15263   */\n      dup3\n        /* \"#utility.yul\":15253:15267   */\n      add\n        /* \"#utility.yul\":15246:15301   */\n      mstore\n        /* \"#utility.yul\":15129:15308   */\n      pop\n      jump\t// out\n        /* \"#utility.yul\":15314:15680   */\n    tag_233:\n        /* \"#utility.yul\":15456:15459   */\n      0x00\n        /* \"#utility.yul\":15477:15544   */\n      tag_387\n        /* \"#utility.yul\":15541:15543   */\n      0x1d\n        /* \"#utility.yul\":15536:15539   */\n      dup4\n        /* \"#utility.yul\":15477:15544   */\n      tag_207\n      jump\t// in\n    tag_387:\n        /* \"#utility.yul\":15470:15544   */\n      swap2\n      pop\n        /* \"#utility.yul\":15553:15646   */\n      tag_388\n        /* \"#utility.yul\":15642:15645   */\n      dup3\n        /* \"#utility.yul\":15553:15646   */\n      tag_232\n      jump\t// in\n    tag_388:\n        /* \"#utility.yul\":15671:15673   */\n      0x20\n        /* \"#utility.yul\":15666:15669   */\n      dup3\n        /* \"#utility.yul\":15662:15674   */\n      add\n        /* \"#utility.yul\":15655:15674   */\n      swap1\n      pop\n        /* \"#utility.yul\":15314:15680   */\n      swap2\n      swap1\n      pop\n      jump\t// out\n        /* \"#utility.yul\":15686:16105   */\n    tag_144:\n        /* \"#utility.yul\":15852:15856   */\n      0x00\n        /* \"#utility.yul\":15890:15892   */\n      0x20\n        /* \"#utility.yul\":15879:15888   */\n      dup3\n        /* \"#utility.yul\":15875:15893   */\n      add\n        /* \"#utility.yul\":15867:15893   */\n      swap1\n      pop\n        /* \"#utility.yul\":15939:15948   */\n      dup2\n        /* \"#utility.yul\":15933:15937   */\n      dup2\n        /* \"#utility.yul\":15929:15949   */\n      sub\n        /* \"#utility.yul\":15925:15926   */\n      0x00\n        /* \"#utility.yul\":15914:15923   */\n      dup4\n        /* \"#utility.yul\":15910:15927   */\n      add\n        /* \"#utility.yul\":15903:15950   */\n      mstore\n        /* \"#utility.yul\":15967:16098   */\n      tag_390\n        /* \"#utility.yul\":16093:16097   */\n      dup2\n        /* \"#utility.yul\":15967:16098   */\n      tag_233\n      jump\t// in\n    tag_390:\n        /* \"#utility.yul\":15959:16098   */\n      swap1\n      pop\n        /* \"#utility.yul\":15686:16105   */\n      swap2\n      swap1\n      pop\n      jump\t// out\n        /* \"#utility.yul\":16111:16332   */\n    tag_234:\n        /* \"#utility.yul\":16251:16285   */\n      0x4265726569747320616c73204d6974737069656c657220726567697374726965\n        /* \"#utility.yul\":16247:16248   */\n      0x00\n        /* \"#utility.yul\":16239:16245   */\n      dup3\n        /* \"#utility.yul\":16235:16249   */\n      add\n        /* \"#utility.yul\":16228:16286   */\n      mstore\n        /* \"#utility.yul\":16320:16324   */\n      0x7274000000000000000000000000000000000000000000000000000000000000\n        /* \"#utility.yul\":16315:16317   */\n      0x20\n        /* \"#utility.yul\":16307:16313   */\n      dup3\n        /* \"#utility.yul\":16303:16318   */\n      add\n        /* \"#utility.yul\":16296:16325   */\n      mstore\n        /* \"#utility.yul\":16111:16332   */\n      pop\n      jump\t// out\n        /* \"#utility.yul\":16338:16704   */\n    tag_235:\n        /* \"#utility.yul\":16480:16483   */\n      0x00\n        /* \"#utility.yul\":16501:16568   */\n      tag_393\n        /* \"#utility.yul\":16565:16567   */\n      0x22\n        /* \"#utility.yul\":16560:16563   */\n      dup4\n        /* \"#utility.yul\":16501:16568   */\n      tag_207\n      jump\t// in\n    tag_393:\n        /* \"#utility.yul\":16494:16568   */\n      swap2\n      pop\n        /* \"#utility.yul\":16577:16670   */\n      tag_394\n        /* \"#utility.yul\":16666:16669   */\n      dup3\n        /* \"#utility.yul\":16577:16670   */\n      tag_234\n      jump\t// in\n    tag_394:\n        /* \"#utility.yul\":16695:16697   */\n      0x40\n        /* \"#utility.yul\":16690:16693   */\n      dup3\n        /* \"#utility.yul\":16686:16698   */\n      add\n        /* \"#utility.yul\":16679:16698   */\n      swap1\n      pop\n        /* \"#utility.yul\":16338:16704   */\n      swap2\n      swap1\n      pop\n      jump\t// out\n        /* \"#utility.yul\":16710:17129   */\n    tag_147:\n        /* \"#utility.yul\":16876:16880   */\n      0x00\n        /* \"#utility.yul\":16914:16916   */\n      0x20\n        /* \"#utility.yul\":16903:16912   */\n      dup3\n        /* \"#utility.yul\":16899:16917   */\n      add\n        /* \"#utility.yul\":16891:16917   */\n      swap1\n      pop\n        /* \"#utility.yul\":16963:16972   */\n      dup2\n        /* \"#utility.yul\":16957:16961   */\n      dup2\n        /* \"#utility.yul\":16953:16973   */\n      sub\n        /* \"#utility.yul\":16949:16950   */\n      0x00\n        /* \"#utility.yul\":16938:16947   */\n      dup4\n        /* \"#utility.yul\":16934:16951   */\n      add\n        /* \"#utility.yul\":16927:16974   */\n      mstore\n        /* \"#utility.yul\":16991:17122   */\n      tag_396\n        /* \"#utility.yul\":17117:17121   */\n      dup2\n        /* \"#utility.yul\":16991:17122   */\n      tag_235\n      jump\t// in\n    tag_396:\n        /* \"#utility.yul\":16983:17122   */\n      swap1\n      pop\n        /* \"#utility.yul\":16710:17129   */\n      swap2\n      swap1\n      pop\n      jump\t// out\n        /* \"#utility.yul\":17135:17317   */\n    tag_236:\n        /* \"#utility.yul\":17275:17309   */\n      0x4d6178696d616c65205465696c6e65686d65727a61686c206572726569636874\n        /* \"#utility.yul\":17271:17272   */\n      0x00\n        /* \"#utility.yul\":17263:17269   */\n      dup3\n        /* \"#utility.yul\":17259:17273   */\n      add\n        /* \"#utility.yul\":17252:17310   */\n      mstore\n        /* \"#utility.yul\":17135:17317   */\n      pop\n      jump\t// out\n        /* \"#utility.yul\":17323:17689   */\n    tag_237:\n        /* \"#utility.yul\":17465:17468   */\n      0x00\n        /* \"#utility.yul\":17486:17553   */\n      tag_399\n        /* \"#utility.yul\":17550:17552   */\n      0x20\n        /* \"#utility.yul\":17545:17548   */\n      dup4\n        /* \"#utility.yul\":17486:17553   */\n      tag_207\n      jump\t// in\n    tag_399:\n        /* \"#utility.yul\":17479:17553   */\n      swap2\n      pop\n        /* \"#utility.yul\":17562:17655   */\n      tag_400\n        /* \"#utility.yul\":17651:17654   */\n      dup3\n        /* \"#utility.yul\":17562:17655   */\n      tag_236\n      jump\t// in\n    tag_400:\n        /* \"#utility.yul\":17680:17682   */\n      0x20\n        /* \"#utility.yul\":17675:17678   */\n      dup3\n        /* \"#utility.yul\":17671:17683   */\n      add\n        /* \"#utility.yul\":17664:17683   */\n      swap1\n      pop\n        /* \"#utility.yul\":17323:17689   */\n      swap2\n      swap1\n      pop\n      jump\t// out\n        /* \"#utility.yul\":17695:18114   */\n    tag_150:\n        /* \"#utility.yul\":17861:17865   */\n      0x00\n        /* \"#utility.yul\":17899:17901   */\n      0x20\n        /* \"#utility.yul\":17888:17897   */\n      dup3\n        /* \"#utility.yul\":17884:17902   */\n      add\n        /* \"#utility.yul\":17876:17902   */\n      swap1\n      pop\n        /* \"#utility.yul\":17948:17957   */\n      dup2\n        /* \"#utility.yul\":17942:17946   */\n      dup2\n        /* \"#utility.yul\":17938:17958   */\n      sub\n        /* \"#utility.yul\":17934:17935   */\n      0x00\n        /* \"#utility.yul\":17923:17932   */\n      dup4\n        /* \"#utility.yul\":17919:17936   */\n      add\n        /* \"#utility.yul\":17912:17959   */\n      mstore\n        /* \"#utility.yul\":17976:18107   */\n      tag_402\n        /* \"#utility.yul\":18102:18106   */\n      dup2\n        /* \"#utility.yul\":17976:18107   */\n      tag_237\n      jump\t// in\n    tag_402:\n        /* \"#utility.yul\":17968:18107   */\n      swap1\n      pop\n        /* \"#utility.yul\":17695:18114   */\n      swap2\n      swap1\n      pop\n      jump\t// out\n        /* \"#utility.yul\":18120:18301   */\n    tag_238:\n        /* \"#utility.yul\":18260:18293   */\n      0x476577696e6e20777572646520626572656974732065696e67657a61686c7400\n        /* \"#utility.yul\":18256:18257   */\n      0x00\n        /* \"#utility.yul\":18248:18254   */\n      dup3\n        /* \"#utility.yul\":18244:18258   */\n      add\n        /* \"#utility.yul\":18237:18294   */\n      mstore\n        /* \"#utility.yul\":18120:18301   */\n      pop\n      jump\t// out\n        /* \"#utility.yul\":18307:18673   */\n    tag_239:\n        /* \"#utility.yul\":18449:18452   */\n      0x00\n        /* \"#utility.yul\":18470:18537   */\n      tag_405\n        /* \"#utility.yul\":18534:18536   */\n      0x1f\n        /* \"#utility.yul\":18529:18532   */\n      dup4\n        /* \"#utility.yul\":18470:18537   */\n      tag_207\n      jump\t// in\n    tag_405:\n        /* \"#utility.yul\":18463:18537   */\n      swap2\n      pop\n        /* \"#utility.yul\":18546:18639   */\n      tag_406\n        /* \"#utility.yul\":18635:18638   */\n      dup3\n        /* \"#utility.yul\":18546:18639   */\n      tag_238\n      jump\t// in\n    tag_406:\n        /* \"#utility.yul\":18664:18666   */\n      0x20\n        /* \"#utility.yul\":18659:18662   */\n      dup3\n        /* \"#utility.yul\":18655:18667   */\n      add\n        /* \"#utility.yul\":18648:18667   */\n      swap1\n      pop\n        /* \"#utility.yul\":18307:18673   */\n      swap2\n      swap1\n      pop\n      jump\t// out\n        /* \"#utility.yul\":18679:19098   */\n    tag_153:\n        /* \"#utility.yul\":18845:18849   */\n      0x00\n        /* \"#utility.yul\":18883:18885   */\n      0x20\n        /* \"#utility.yul\":18872:18881   */\n      dup3\n        /* \"#utility.yul\":18868:18886   */\n      add\n        /* \"#utility.yul\":18860:18886   */\n      swap1\n      pop\n        /* \"#utility.yul\":18932:18941   */\n      dup2\n        /* \"#utility.yul\":18926:18930   */\n      dup2\n        /* \"#utility.yul\":18922:18942   */\n      sub\n        /* \"#utility.yul\":18918:18919   */\n      0x00\n        /* \"#utility.yul\":18907:18916   */\n      dup4\n        /* \"#utility.yul\":18903:18920   */\n      add\n        /* \"#utility.yul\":18896:18943   */\n      mstore\n        /* \"#utility.yul\":18960:19091   */\n      tag_408\n        /* \"#utility.yul\":19086:19090   */\n      dup2\n        /* \"#utility.yul\":18960:19091   */\n      tag_239\n      jump\t// in\n    tag_408:\n        /* \"#utility.yul\":18952:19091   */\n      swap1\n      pop\n        /* \"#utility.yul\":18679:19098   */\n      swap2\n      swap1\n      pop\n      jump\t// out\n        /* \"#utility.yul\":19104:19181   */\n    tag_240:\n        /* \"#utility.yul\":19141:19148   */\n      0x00\n        /* \"#utility.yul\":19170:19175   */\n      dup2\n        /* \"#utility.yul\":19159:19175   */\n      swap1\n      pop\n        /* \"#utility.yul\":19104:19181   */\n      swap2\n      swap1\n      pop\n      jump\t// out\n        /* \"#utility.yul\":19187:19381   */\n    tag_157:\n        /* \"#utility.yul\":19227:19231   */\n      0x00\n        /* \"#utility.yul\":19247:19267   */\n      tag_411\n        /* \"#utility.yul\":19265:19266   */\n      dup3\n        /* \"#utility.yul\":19247:19267   */\n      tag_240\n      jump\t// in\n    tag_411:\n        /* \"#utility.yul\":19242:19267   */\n      swap2\n      pop\n        /* \"#utility.yul\":19281:19301   */\n      tag_412\n        /* \"#utility.yul\":19299:19300   */\n      dup4\n        /* \"#utility.yul\":19281:19301   */\n      tag_240\n      jump\t// in\n    tag_412:\n        /* \"#utility.yul\":19276:19301   */\n      swap3\n      pop\n        /* \"#utility.yul\":19325:19326   */\n      dup3\n        /* \"#utility.yul\":19322:19323   */\n      dup3\n        /* \"#utility.yul\":19318:19327   */\n      sub\n        /* \"#utility.yul\":19310:19327   */\n      swap1\n      pop\n        /* \"#utility.yul\":19349:19350   */\n      dup2\n        /* \"#utility.yul\":19343:19347   */\n      dup2\n        /* \"#utility.yul\":19340:19351   */\n      gt\n        /* \"#utility.yul\":19337:19374   */\n      iszero\n      tag_413\n      jumpi\n        /* \"#utility.yul\":19354:19372   */\n      tag_414\n      tag_231\n      jump\t// in\n    tag_414:\n        /* \"#utility.yul\":19337:19374   */\n    tag_413:\n        /* \"#utility.yul\":19187:19381   */\n      swap3\n      swap2\n      pop\n      pop\n      jump\t// out\n        /* \"#utility.yul\":19387:19558   */\n    tag_159:\n        /* \"#utility.yul\":19425:19428   */\n      0x00\n        /* \"#utility.yul\":19448:19471   */\n      tag_416\n        /* \"#utility.yul\":19465:19470   */\n      dup3\n        /* \"#utility.yul\":19448:19471   */\n      tag_200\n      jump\t// in\n    tag_416:\n        /* \"#utility.yul\":19439:19471   */\n      swap2\n      pop\n        /* \"#utility.yul\":19493:19499   */\n      0xffff\n        /* \"#utility.yul\":19486:19491   */\n      dup3\n        /* \"#utility.yul\":19483:19500   */\n      sub\n        /* \"#utility.yul\":19480:19523   */\n      tag_417\n      jumpi\n        /* \"#utility.yul\":19503:19521   */\n      tag_418\n      tag_231\n      jump\t// in\n    tag_418:\n        /* \"#utility.yul\":19480:19523   */\n    tag_417:\n        /* \"#utility.yul\":19550:19551   */\n      0x01\n        /* \"#utility.yul\":19543:19548   */\n      dup3\n        /* \"#utility.yul\":19539:19552   */\n      add\n        /* \"#utility.yul\":19532:19552   */\n      swap1\n      pop\n        /* \"#utility.yul\":19387:19558   */\n      swap2\n      swap1\n      pop\n      jump\t// out\n        /* \"#utility.yul\":19564:19793   */\n    tag_241:\n        /* \"#utility.yul\":19704:19738   */\n      0x45696e7a61686c756e6773626574726167206d7573732067726f657373657220\n        /* \"#utility.yul\":19700:19701   */\n      0x00\n        /* \"#utility.yul\":19692:19698   */\n      dup3\n        /* \"#utility.yul\":19688:19702   */\n      add\n        /* \"#utility.yul\":19681:19739   */\n      mstore\n        /* \"#utility.yul\":19773:19785   */\n      0x616c732030207365696e00000000000000000000000000000000000000000000\n        /* \"#utility.yul\":19768:19770   */\n      0x20\n        /* \"#utility.yul\":19760:19766   */\n      dup3\n        /* \"#utility.yul\":19756:19771   */\n      add\n        /* \"#utility.yul\":19749:19786   */\n      mstore\n        /* \"#utility.yul\":19564:19793   */\n      pop\n      jump\t// out\n        /* \"#utility.yul\":19799:20165   */\n    tag_242:\n        /* \"#utility.yul\":19941:19944   */\n      0x00\n        /* \"#utility.yul\":19962:20029   */\n      tag_421\n        /* \"#utility.yul\":20026:20028   */\n      0x2a\n        /* \"#utility.yul\":20021:20024   */\n      dup4\n        /* \"#utility.yul\":19962:20029   */\n      tag_207\n      jump\t// in\n    tag_421:\n        /* \"#utility.yul\":19955:20029   */\n      swap2\n      pop\n        /* \"#utility.yul\":20038:20131   */\n      tag_422\n        /* \"#utility.yul\":20127:20130   */\n      dup3\n        /* \"#utility.yul\":20038:20131   */\n      tag_241\n      jump\t// in\n    tag_422:\n        /* \"#utility.yul\":20156:20158   */\n      0x40\n        /* \"#utility.yul\":20151:20154   */\n      dup3\n        /* \"#utility.yul\":20147:20159   */\n      add\n        /* \"#utility.yul\":20140:20159   */\n      swap1\n      pop\n        /* \"#utility.yul\":19799:20165   */\n      swap2\n      swap1\n      pop\n      jump\t// out\n        /* \"#utility.yul\":20171:20590   */\n    tag_168:\n        /* \"#utility.yul\":20337:20341   */\n      0x00\n        /* \"#utility.yul\":20375:20377   */\n      0x20\n        /* \"#utility.yul\":20364:20373   */\n      dup3\n        /* \"#utility.yul\":20360:20378   */\n      add\n        /* \"#utility.yul\":20352:20378   */\n      swap1\n      pop\n        /* \"#utility.yul\":20424:20433   */\n      dup2\n        /* \"#utility.yul\":20418:20422   */\n      dup2\n        /* \"#utility.yul\":20414:20434   */\n      sub\n        /* \"#utility.yul\":20410:20411   */\n      0x00\n        /* \"#utility.yul\":20399:20408   */\n      dup4\n        /* \"#utility.yul\":20395:20412   */\n      add\n        /* \"#utility.yul\":20388:20435   */\n      mstore\n        /* \"#utility.yul\":20452:20583   */\n      tag_424\n        /* \"#utility.yul\":20578:20582   */\n      dup2\n        /* \"#utility.yul\":20452:20583   */\n      tag_242\n      jump\t// in\n    tag_424:\n        /* \"#utility.yul\":20444:20583   */\n      swap1\n      pop\n        /* \"#utility.yul\":20171:20590   */\n      swap2\n      swap1\n      pop\n      jump\t// out\n        /* \"#utility.yul\":20596:20778   */\n    tag_243:\n        /* \"#utility.yul\":20736:20770   */\n      0x476577696e6e20777572646520626572656974732065696e67657a61686c742e\n        /* \"#utility.yul\":20732:20733   */\n      0x00\n        /* \"#utility.yul\":20724:20730   */\n      dup3\n        /* \"#utility.yul\":20720:20734   */\n      add\n        /* \"#utility.yul\":20713:20771   */\n      mstore\n        /* \"#utility.yul\":20596:20778   */\n      pop\n      jump\t// out\n        /* \"#utility.yul\":20784:21150   */\n    tag_244:\n        /* \"#utility.yul\":20926:20929   */\n      0x00\n        /* \"#utility.yul\":20947:21014   */\n      tag_427\n        /* \"#utility.yul\":21011:21013   */\n      0x20\n        /* \"#utility.yul\":21006:21009   */\n      dup4\n        /* \"#utility.yul\":20947:21014   */\n      tag_207\n      jump\t// in\n    tag_427:\n        /* \"#utility.yul\":20940:21014   */\n      swap2\n      pop\n        /* \"#utility.yul\":21023:21116   */\n      tag_428\n        /* \"#utility.yul\":21112:21115   */\n      dup3\n        /* \"#utility.yul\":21023:21116   */\n      tag_243\n      jump\t// in\n    tag_428:\n        /* \"#utility.yul\":21141:21143   */\n      0x20\n        /* \"#utility.yul\":21136:21139   */\n      dup3\n        /* \"#utility.yul\":21132:21144   */\n      add\n        /* \"#utility.yul\":21125:21144   */\n      swap1\n      pop\n        /* \"#utility.yul\":20784:21150   */\n      swap2\n      swap1\n      pop\n      jump\t// out\n        /* \"#utility.yul\":21156:21575   */\n    tag_171:\n        /* \"#utility.yul\":21322:21326   */\n      0x00\n        /* \"#utility.yul\":21360:21362   */\n      0x20\n        /* \"#utility.yul\":21349:21358   */\n      dup3\n        /* \"#utility.yul\":21345:21363   */\n      add\n        /* \"#utility.yul\":21337:21363   */\n      swap1\n      pop\n        /* \"#utility.yul\":21409:21418   */\n      dup2\n        /* \"#utility.yul\":21403:21407   */\n      dup2\n        /* \"#utility.yul\":21399:21419   */\n      sub\n        /* \"#utility.yul\":21395:21396   */\n      0x00\n        /* \"#utility.yul\":21384:21393   */\n      dup4\n        /* \"#utility.yul\":21380:21397   */\n      add\n        /* \"#utility.yul\":21373:21420   */\n      mstore\n        /* \"#utility.yul\":21437:21568   */\n      tag_430\n        /* \"#utility.yul\":21563:21567   */\n      dup2\n        /* \"#utility.yul\":21437:21568   */\n      tag_244\n      jump\t// in\n    tag_430:\n        /* \"#utility.yul\":21429:21568   */\n      swap1\n      pop\n        /* \"#utility.yul\":21156:21575   */\n      swap2\n      swap1\n      pop\n      jump\t// out\n        /* \"#utility.yul\":21581:21763   */\n    tag_173:\n        /* \"#utility.yul\":21620:21621   */\n      0x00\n        /* \"#utility.yul\":21637:21656   */\n      tag_432\n        /* \"#utility.yul\":21654:21655   */\n      dup3\n        /* \"#utility.yul\":21637:21656   */\n      tag_186\n      jump\t// in\n    tag_432:\n        /* \"#utility.yul\":21632:21656   */\n      swap2\n      pop\n        /* \"#utility.yul\":21670:21689   */\n      tag_433\n        /* \"#utility.yul\":21687:21688   */\n      dup4\n        /* \"#utility.yul\":21670:21689   */\n      tag_186\n      jump\t// in\n    tag_433:\n        /* \"#utility.yul\":21665:21689   */\n      swap3\n      pop\n        /* \"#utility.yul\":21708:21709   */\n      dup3\n        /* \"#utility.yul\":21698:21733   */\n      tag_434\n      jumpi\n        /* \"#utility.yul\":21713:21731   */\n      tag_435\n      tag_230\n      jump\t// in\n    tag_435:\n        /* \"#utility.yul\":21698:21733   */\n    tag_434:\n        /* \"#utility.yul\":21755:21756   */\n      dup3\n        /* \"#utility.yul\":21752:21753   */\n      dup3\n        /* \"#utility.yul\":21748:21757   */\n      div\n        /* \"#utility.yul\":21743:21757   */\n      swap1\n      pop\n        /* \"#utility.yul\":21581:21763   */\n      swap3\n      swap2\n      pop\n      pop\n      jump\t// out\n        /* \"#utility.yul\":21769:21949   */\n    tag_245:\n        /* \"#utility.yul\":21817:21894   */\n      0x4e487b7100000000000000000000000000000000000000000000000000000000\n        /* \"#utility.yul\":21814:21815   */\n      0x00\n        /* \"#utility.yul\":21807:21895   */\n      mstore\n        /* \"#utility.yul\":21914:21918   */\n      0x22\n        /* \"#utility.yul\":21911:21912   */\n      0x04\n        /* \"#utility.yul\":21904:21919   */\n      mstore\n        /* \"#utility.yul\":21938:21942   */\n      0x24\n        /* \"#utility.yul\":21935:21936   */\n      0x00\n        /* \"#utility.yul\":21928:21943   */\n      revert\n        /* \"#utility.yul\":21955:22275   */\n    tag_175:\n        /* \"#utility.yul\":21999:22005   */\n      0x00\n        /* \"#utility.yul\":22036:22037   */\n      0x02\n        /* \"#utility.yul\":22030:22034   */\n      dup3\n        /* \"#utility.yul\":22026:22038   */\n      div\n        /* \"#utility.yul\":22016:22038   */\n      swap1\n      pop\n        /* \"#utility.yul\":22083:22084   */\n      0x01\n        /* \"#utility.yul\":22077:22081   */\n      dup3\n        /* \"#utility.yul\":22073:22085   */\n      and\n        /* \"#utility.yul\":22104:22122   */\n      dup1\n        /* \"#utility.yul\":22094:22175   */\n      tag_438\n      jumpi\n        /* \"#utility.yul\":22160:22164   */\n      0x7f\n        /* \"#utility.yul\":22152:22158   */\n      dup3\n        /* \"#utility.yul\":22148:22165   */\n      and\n        /* \"#utility.yul\":22138:22165   */\n      swap2\n      pop\n        /* \"#utility.yul\":22094:22175   */\n    tag_438:\n        /* \"#utility.yul\":22222:22224   */\n      0x20\n        /* \"#utility.yul\":22214:22220   */\n      dup3\n        /* \"#utility.yul\":22211:22225   */\n      lt\n        /* \"#utility.yul\":22191:22209   */\n      dup2\n        /* \"#utility.yul\":22188:22226   */\n      sub\n        /* \"#utility.yul\":22185:22269   */\n      tag_439\n      jumpi\n        /* \"#utility.yul\":22241:22259   */\n      tag_440\n      tag_245\n      jump\t// in\n    tag_440:\n        /* \"#utility.yul\":22185:22269   */\n    tag_439:\n        /* \"#utility.yul\":22006:22275   */\n      pop\n        /* \"#utility.yul\":21955:22275   */\n      swap2\n      swap1\n      pop\n      jump\t// out\n        /* \"#utility.yul\":22281:22589   */\n    tag_246:\n        /* \"#utility.yul\":22421:22455   */\n      0x457320676962742062657265697473204d6974737069656c65722e2041656e64\n        /* \"#utility.yul\":22417:22418   */\n      0x00\n        /* \"#utility.yul\":22409:22415   */\n      dup3\n        /* \"#utility.yul\":22405:22419   */\n      add\n        /* \"#utility.yul\":22398:22456   */\n      mstore\n        /* \"#utility.yul\":22490:22524   */\n      0x6572756e672064657220416e7a61686c20616e204d6974737069656c65726e20\n        /* \"#utility.yul\":22485:22487   */\n      0x20\n        /* \"#utility.yul\":22477:22483   */\n      dup3\n        /* \"#utility.yul\":22473:22488   */\n      add\n        /* \"#utility.yul\":22466:22525   */\n      mstore\n        /* \"#utility.yul\":22559:22581   */\n      0x6e69636874206d656872206d6f65676c6963682e000000000000000000000000\n        /* \"#utility.yul\":22554:22556   */\n      0x40\n        /* \"#utility.yul\":22546:22552   */\n      dup3\n        /* \"#utility.yul\":22542:22557   */\n      add\n        /* \"#utility.yul\":22535:22582   */\n      mstore\n        /* \"#utility.yul\":22281:22589   */\n      pop\n      jump\t// out\n        /* \"#utility.yul\":22595:22961   */\n    tag_247:\n        /* \"#utility.yul\":22737:22740   */\n      0x00\n        /* \"#utility.yul\":22758:22825   */\n      tag_443\n        /* \"#utility.yul\":22822:22824   */\n      0x54\n        /* \"#utility.yul\":22817:22820   */\n      dup4\n        /* \"#utility.yul\":22758:22825   */\n      tag_207\n      jump\t// in\n    tag_443:\n        /* \"#utility.yul\":22751:22825   */\n      swap2\n      pop\n        /* \"#utility.yul\":22834:22927   */\n      tag_444\n        /* \"#utility.yul\":22923:22926   */\n      dup3\n        /* \"#utility.yul\":22834:22927   */\n      tag_246\n      jump\t// in\n    tag_444:\n        /* \"#utility.yul\":22952:22954   */\n      0x60\n        /* \"#utility.yul\":22947:22950   */\n      dup3\n        /* \"#utility.yul\":22943:22955   */\n      add\n        /* \"#utility.yul\":22936:22955   */\n      swap1\n      pop\n        /* \"#utility.yul\":22595:22961   */\n      swap2\n      swap1\n      pop\n      jump\t// out\n        /* \"#utility.yul\":22967:23386   */\n    tag_185:\n        /* \"#utility.yul\":23133:23137   */\n      0x00\n        /* \"#utility.yul\":23171:23173   */\n      0x20\n        /* \"#utility.yul\":23160:23169   */\n      dup3\n        /* \"#utility.yul\":23156:23174   */\n      add\n        /* \"#utility.yul\":23148:23174   */\n      swap1\n      pop\n        /* \"#utility.yul\":23220:23229   */\n      dup2\n        /* \"#utility.yul\":23214:23218   */\n      dup2\n        /* \"#utility.yul\":23210:23230   */\n      sub\n        /* \"#utility.yul\":23206:23207   */\n      0x00\n        /* \"#utility.yul\":23195:23204   */\n      dup4\n        /* \"#utility.yul\":23191:23208   */\n      add\n        /* \"#utility.yul\":23184:23231   */\n      mstore\n        /* \"#utility.yul\":23248:23379   */\n      tag_446\n        /* \"#utility.yul\":23374:23378   */\n      dup2\n        /* \"#utility.yul\":23248:23379   */\n      tag_247\n      jump\t// in\n    tag_446:\n        /* \"#utility.yul\":23240:23379   */\n      swap1\n      pop\n        /* \"#utility.yul\":22967:23386   */\n      swap2\n      swap1\n      pop\n      jump\t// out\n\n    auxdata: 0xa2646970667358221220d684b76f7fa460a24046c1734563f6c5731ea3971a7a8b2148255c3cc337da6964736f6c63430008170033\n}\n","bytecode":{"linkReferences":{},"object":"60806040525f600560026101000a81548165ffffffffffff021916908365ffffffffffff1602179055505f600560086101000a81548160ff0219169083151502179055505f600560096101000a81548160ff02191690831515021790555034801562000069575f80fd5b50604051620025af380380620025af83398181016040528101906200008f9190620004ee565b61ffff8461ffff1610620000da576040517f08c379a0000000000000000000000000000000000000000000000000000000008152600401620000d19062000603565b60405180910390fd5b63ffffffff600260089054906101000a900463ffffffff1663ffffffff16106200013b576040517f08c379a0000000000000000000000000000000000000000000000000000000008152600401620001329062000671565b60405180910390fd5b845f806101000a81548173ffffffffffffffffffffffffffffffffffffffff021916908373ffffffffffffffffffffffffffffffffffffffff16021790555085600190816200018b9190620008c8565b508360025f6101000a81548161ffff021916908361ffff16021790555082600260086101000a81548163ffffffff021916908363ffffffff16021790555080600560096101000a81548160ff021916908315150217905550816002600c6101000a81548165ffffffffffff021916908365ffffffffffff160217905550505050505050620009ac565b5f604051905090565b5f80fd5b5f80fd5b5f80fd5b5f80fd5b5f601f19601f8301169050919050565b7f4e487b71000000000000000000000000000000000000000000000000000000005f52604160045260245ffd5b62000275826200022d565b810181811067ffffffffffffffff821117156200029757620002966200023d565b5b80604052505050565b5f620002ab62000214565b9050620002b982826200026a565b919050565b5f67ffffffffffffffff821115620002db57620002da6200023d565b5b620002e6826200022d565b9050602081019050919050565b5f5b8381101562000312578082015181840152602081019050620002f5565b5f8484015250505050565b5f620003336200032d84620002be565b620002a0565b90508281526020810184848401111562000352576200035162000229565b5b6200035f848285620002f3565b509392505050565b5f82601f8301126200037e576200037d62000225565b5b8151620003908482602086016200031d565b91505092915050565b5f73ffffffffffffffffffffffffffffffffffffffff82169050919050565b5f620003c48262000399565b9050919050565b620003d681620003b8565b8114620003e1575f80fd5b50565b5f81519050620003f481620003cb565b92915050565b5f61ffff82169050919050565b6200041281620003fa565b81146200041d575f80fd5b50565b5f81519050620004308162000407565b92915050565b5f63ffffffff82169050919050565b620004508162000436565b81146200045b575f80fd5b50565b5f815190506200046e8162000445565b92915050565b5f65ffffffffffff82169050919050565b620004908162000474565b81146200049b575f80fd5b50565b5f81519050620004ae8162000485565b92915050565b5f8115159050919050565b620004ca81620004b4565b8114620004d5575f80fd5b50565b5f81519050620004e881620004bf565b92915050565b5f805f805f8060c087890312156200050b576200050a6200021d565b5b5f87015167ffffffffffffffff8111156200052b576200052a62000221565b5b6200053989828a0162000367565b96505060206200054c89828a01620003e4565b95505060406200055f89828a0162000420565b94505060606200057289828a016200045e565b93505060806200058589828a016200049e565b92505060a06200059889828a01620004d8565b9150509295509295509295565b5f82825260208201905092915050565b7f4d6178696d616c203635353334204d6974737069656c65722065726c617562745f82015250565b5f620005eb602083620005a5565b9150620005f882620005b5565b602082019050919050565b5f6020820190508181035f8301526200061c81620005dd565b9050919050565b7f4d6178696d616c657220507265697320343239343936373239350000000000005f82015250565b5f62000659601a83620005a5565b9150620006668262000623565b602082019050919050565b5f6020820190508181035f8301526200068a816200064b565b9050919050565b5f81519050919050565b7f4e487b71000000000000000000000000000000000000000000000000000000005f52602260045260245ffd5b5f6002820490506001821680620006e057607f821691505b602082108103620006f657620006f56200069b565b5b50919050565b5f819050815f5260205f209050919050565b5f6020601f8301049050919050565b5f82821b905092915050565b5f600883026200075a7fffffffffffffffffffffffffffffffffffffffffffffffffffffffffffffffff826200071d565b6200076686836200071d565b95508019841693508086168417925050509392505050565b5f819050919050565b5f819050919050565b5f620007b0620007aa620007a4846200077e565b62000787565b6200077e565b9050919050565b5f819050919050565b620007cb8362000790565b620007e3620007da82620007b7565b84845462000729565b825550505050565b5f90565b620007f9620007eb565b62000806818484620007c0565b505050565b5b818110156200082d57620008215f82620007ef565b6001810190506200080c565b5050565b601f8211156200087c576200084681620006fc565b62000851846200070e565b8101602085101562000861578190505b6200087962000870856200070e565b8301826200080b565b50505b505050565b5f82821c905092915050565b5f6200089e5f198460080262000881565b1980831691505092915050565b5f620008b883836200088d565b9150826002028217905092915050565b620008d38262000691565b67ffffffffffffffff811115620008ef57620008ee6200023d565b5b620008fb8254620006c8565b6200090882828562000831565b5f60209050601f8311600181146200093e575f841562000929578287015190505b620009358582620008ab565b865550620009a4565b601f1984166200094e86620006fc565b5f5b82811015620009775784890151825560018201915060208501945060208101905062000950565b8683101562000997578489015162000993601f8916826200088d565b8355505b6001600288020188555050505b505050505050565b611bf580620009ba5f395ff3fe608060405260043610610108575f3560e01c8063526024ea11610094578063b08c707611610063578063b08c70761461031a578063b609e68414610344578063c6ca9d191461036e578063d27d06c01461038a578063e068561a146103b457610108565b8063526024ea1461028057806370a41bc01461028a57806391243239146102b4578063ad2c046c146102f057610108565b806331c45120116100db57806331c45120146101a057806336927060146101c85780633babb15a146102045780633f0f5d511461022e578063437678321461025857610108565b8063084263f51461010c5780630c96b701146101365780630f085e501461014c578063143b7caf14610176575b5f80fd5b348015610117575f80fd5b506101206103dc565b60405161012d9190611010565b60405180910390f35b348015610141575f80fd5b5061014a6103f2565b005b348015610157575f80fd5b50610160610758565b60405161016d9190611010565b60405180910390f35b348015610181575f80fd5b5061018a610770565b6040516101979190611010565b60405180910390f35b3480156101ab575f80fd5b506101c660048036038101906101c19190611066565b610788565b005b3480156101d3575f80fd5b506101ee60048036038101906101e991906110eb565b610857565b6040516101fb9190611130565b60405180910390f35b34801561020f575f80fd5b50610218610874565b6040516102259190611165565b60405180910390f35b348015610239575f80fd5b50610242610887565b60405161024f919061118d565b60405180910390f35b348015610263575f80fd5b5061027e600480360381019061027991906110eb565b61089d565b005b6102886109a0565b005b348015610295575f80fd5b5061029e610cca565b6040516102ab9190611165565b60405180910390f35b3480156102bf575f80fd5b506102da60048036038101906102d591906110eb565b610cdd565b6040516102e79190611130565b60405180910390f35b3480156102fb575f80fd5b50610304610cfa565b60405161031191906111b5565b60405180910390f35b348015610325575f80fd5b5061032e610d1d565b60405161033b9190611130565b60405180910390f35b34801561034f575f80fd5b50610358610d30565b6040516103659190611130565b60405180910390f35b610388600480360381019061038391906111f8565b610d43565b005b348015610395575f80fd5b5061039e610e9a565b6040516103ab91906112ad565b60405180910390f35b3480156103bf575f80fd5b506103da60048036038101906103d591906112f7565b610f26565b005b60028054906101000a900465ffffffffffff1681565b60035f3373ffffffffffffffffffffffffffffffffffffffff1673ffffffffffffffffffffffffffffffffffffffff1681526020019081526020015f205f9054906101000a900460ff16610444575f80fd5b60075f9054906101000a900460ff1615610493576040517f08c379a000000000000000000000000000000000000000000000000000000000815260040161048a9061136c565b60405180910390fd5b600160075f6101000a81548160ff0219169083151502179055505f600560029054906101000a900465ffffffffffff1665ffffffffffff161161050b576040517f08c379a0000000000000000000000000000000000000000000000000000000008152600401610502906113d4565b60405180910390fd5b60035f3373ffffffffffffffffffffffffffffffffffffffff1673ffffffffffffffffffffffffffffffffffffffff1681526020019081526020015f205f9054906101000a900460ff16610594576040517f08c379a000000000000000000000000000000000000000000000000000000000815260040161058b9061143c565b60405180910390fd5b60045f3373ffffffffffffffffffffffffffffffffffffffff1673ffffffffffffffffffffffffffffffffffffffff1681526020019081526020015f205f9054906101000a900460ff161561061e576040517f08c379a0000000000000000000000000000000000000000000000000000000008152600401610615906114ca565b60405180910390fd5b600160045f3373ffffffffffffffffffffffffffffffffffffffff1673ffffffffffffffffffffffffffffffffffffffff1681526020019081526020015f205f6101000a81548160ff0219169083151502179055505f600560029054906101000a900465ffffffffffff1665ffffffffffff1690505f3373ffffffffffffffffffffffffffffffffffffffff16826040516106b890611515565b5f6040518083038185875af1925050503d805f81146106f2576040519150601f19603f3d011682016040523d82523d5f602084013e6106f7565b606091505b505090508061073b576040517f08c379a000000000000000000000000000000000000000000000000000000000815260040161073290611599565b60405180910390fd5b50505f60075f6101000a81548160ff021916908315150217905550565b600560029054906101000a900465ffffffffffff1681565b6002600c9054906101000a900465ffffffffffff1681565b5f8054906101000a900473ffffffffffffffffffffffffffffffffffffffff1673ffffffffffffffffffffffffffffffffffffffff163373ffffffffffffffffffffffffffffffffffffffff16146107de575f80fd5b5f60055f9054906101000a900461ffff1661ffff1614610833576040517f08c379a000000000000000000000000000000000000000000000000000000000815260040161082a90611627565b60405180910390fd5b80600260086101000a81548163ffffffff021916908363ffffffff16021790555050565b6003602052805f5260405f205f915054906101000a900460ff1681565b60055f9054906101000a900461ffff1681565b600260089054906101000a900463ffffffff1681565b5f8054906101000a900473ffffffffffffffffffffffffffffffffffffffff1673ffffffffffffffffffffffffffffffffffffffff163373ffffffffffffffffffffffffffffffffffffffff16146108f3575f80fd5b5f60055f9054906101000a900461ffff1661ffff1614610948576040517f08c379a000000000000000000000000000000000000000000000000000000000815260040161093f906116b5565b60405180910390fd5b600160065f8373ffffffffffffffffffffffffffffffffffffffff1673ffffffffffffffffffffffffffffffffffffffff1681526020019081526020015f205f6101000a81548160ff02191690831515021790555050565b5f60025f9054906101000a900461ffff1661ffff16600260089054906101000a900463ffffffff166109d2919061172d565b90508063ffffffff16341015610a1d576040517f08c379a0000000000000000000000000000000000000000000000000000000008152600401610a14906117a7565b60405180910390fd5b60035f3373ffffffffffffffffffffffffffffffffffffffff1673ffffffffffffffffffffffffffffffffffffffff1681526020019081526020015f205f9054906101000a900460ff1615610aa7576040517f08c379a0000000000000000000000000000000000000000000000000000000008152600401610a9e90611835565b60405180910390fd5b60025f9054906101000a900461ffff1661ffff1660055f9054906101000a900461ffff1661ffff1610610b0f576040517f08c379a0000000000000000000000000000000000000000000000000000000008152600401610b069061189d565b60405180910390fd5b5f600560029054906101000a900465ffffffffffff1665ffffffffffff1614610b6d576040517f08c379a0000000000000000000000000000000000000000000000000000000008152600401610b6490611905565b60405180910390fd5b600560099054906101000a900460ff1615610bd55760065f3373ffffffffffffffffffffffffffffffffffffffff1673ffffffffffffffffffffffffffffffffffffffff1681526020019081526020015f205f9054906101000a900460ff16610bd4575f80fd5b5b5f8163ffffffff1634610be8919061192c565b9050600160035f3373ffffffffffffffffffffffffffffffffffffffff1673ffffffffffffffffffffffffffffffffffffffff1681526020019081526020015f205f6101000a81548160ff02191690831515021790555060055f81819054906101000a900461ffff1680929190610c5e9061195f565b91906101000a81548161ffff021916908361ffff160217905550505f811115610cc6573373ffffffffffffffffffffffffffffffffffffffff166108fc8290811502906040515f60405180830381858888f19350505050158015610cc4573d5f803e3d5ffd5b505b5050565b60025f9054906101000a900461ffff1681565b6004602052805f5260405f205f915054906101000a900460ff1681565b5f8054906101000a900473ffffffffffffffffffffffffffffffffffffffff1681565b600560099054906101000a900460ff1681565b600560089054906101000a900460ff1681565b5f8054906101000a900473ffffffffffffffffffffffffffffffffffffffff1673ffffffffffffffffffffffffffffffffffffffff163373ffffffffffffffffffffffffffffffffffffffff1614610d99575f80fd5b5f3411610ddb576040517f08c379a0000000000000000000000000000000000000000000000000000000008152600401610dd2906119f8565b60405180910390fd5b5f600560029054906101000a900465ffffffffffff1665ffffffffffff1614610e39576040517f08c379a0000000000000000000000000000000000000000000000000000000008152600401610e3090611a60565b60405180910390fd5b60055f9054906101000a900461ffff1661ffff1681610e589190611a7e565b600560026101000a81548165ffffffffffff021916908365ffffffffffff1602179055506001600560086101000a81548160ff02191690831515021790555050565b60018054610ea790611adb565b80601f0160208091040260200160405190810160405280929190818152602001828054610ed390611adb565b8015610f1e5780601f10610ef557610100808354040283529160200191610f1e565b820191905f5260205f20905b815481529060010190602001808311610f0157829003601f168201915b505050505081565b5f8054906101000a900473ffffffffffffffffffffffffffffffffffffffff1673ffffffffffffffffffffffffffffffffffffffff163373ffffffffffffffffffffffffffffffffffffffff1614610f7c575f80fd5b5f60055f9054906101000a900461ffff1661ffff1614610fd1576040517f08c379a0000000000000000000000000000000000000000000000000000000008152600401610fc890611ba1565b60405180910390fd5b8060025f6101000a81548161ffff021916908361ffff16021790555050565b5f65ffffffffffff82169050919050565b61100a81610ff0565b82525050565b5f6020820190506110235f830184611001565b92915050565b5f80fd5b5f63ffffffff82169050919050565b6110458161102d565b811461104f575f80fd5b50565b5f813590506110608161103c565b92915050565b5f6020828403121561107b5761107a611029565b5b5f61108884828501611052565b91505092915050565b5f73ffffffffffffffffffffffffffffffffffffffff82169050919050565b5f6110ba82611091565b9050919050565b6110ca816110b0565b81146110d4575f80fd5b50565b5f813590506110e5816110c1565b92915050565b5f60208284031215611100576110ff611029565b5b5f61110d848285016110d7565b91505092915050565b5f8115159050919050565b61112a81611116565b82525050565b5f6020820190506111435f830184611121565b92915050565b5f61ffff82169050919050565b61115f81611149565b82525050565b5f6020820190506111785f830184611156565b92915050565b6111878161102d565b82525050565b5f6020820190506111a05f83018461117e565b92915050565b6111af816110b0565b82525050565b5f6020820190506111c85f8301846111a6565b92915050565b6111d781610ff0565b81146111e1575f80fd5b50565b5f813590506111f2816111ce565b92915050565b5f6020828403121561120d5761120c611029565b5b5f61121a848285016111e4565b91505092915050565b5f81519050919050565b5f82825260208201905092915050565b5f5b8381101561125a57808201518184015260208101905061123f565b5f8484015250505050565b5f601f19601f8301169050919050565b5f61127f82611223565b611289818561122d565b935061129981856020860161123d565b6112a281611265565b840191505092915050565b5f6020820190508181035f8301526112c58184611275565b905092915050565b6112d681611149565b81146112e0575f80fd5b50565b5f813590506112f1816112cd565b92915050565b5f6020828403121561130c5761130b611029565b5b5f611319848285016112e3565b91505092915050565b7f4e6f2072652d656e7472616e63790000000000000000000000000000000000005f82015250565b5f611356600e8361122d565b915061136182611322565b602082019050919050565b5f6020820190508181035f8301526113838161134a565b9050919050565b7f4b65696e20476577696e6e2065696e67657a61686c74000000000000000000005f82015250565b5f6113be60168361122d565b91506113c98261138a565b602082019050919050565b5f6020820190508181035f8301526113eb816113b2565b9050919050565b7f44752062697374206b65696e204d6974737069656c65720000000000000000005f82015250565b5f61142660178361122d565b9150611431826113f2565b602082019050919050565b5f6020820190508181035f8301526114538161141a565b9050919050565b7f4465696e20476577696e6e20777572646520626572656974732061757367657a5f8201527f61686c7400000000000000000000000000000000000000000000000000000000602082015250565b5f6114b460248361122d565b91506114bf8261145a565b604082019050919050565b5f6020820190508181035f8301526114e1816114a8565b9050919050565b5f81905092915050565b50565b5f6115005f836114e8565b915061150b826114f2565b5f82019050919050565b5f61151f826114f5565b9150819050919050565b7f4175737a61686c756e672064657320476577696e6e73206665686c67657363685f8201527f6c6167656e000000000000000000000000000000000000000000000000000000602082015250565b5f61158360258361122d565b915061158e82611529565b604082019050919050565b5f6020820190508181035f8301526115b081611577565b9050919050565b7f457320676962742062657265697473204d6974737069656c65722e20507265695f8201527f7361656e646572756e67206e69636874206d656872206d6f65676c6963682e00602082015250565b5f611611603f8361122d565b915061161c826115b7565b604082019050919050565b5f6020820190508181035f83015261163e81611605565b9050919050565b7f457320676962742062657265697473204d6974737069656c65722e2041656e645f8201527f6572756e67206e69636874206d656872206d6f65676c6963682e000000000000602082015250565b5f61169f603a8361122d565b91506116aa82611645565b604082019050919050565b5f6020820190508181035f8301526116cc81611693565b9050919050565b7f4e487b71000000000000000000000000000000000000000000000000000000005f52601260045260245ffd5b7f4e487b71000000000000000000000000000000000000000000000000000000005f52601160045260245ffd5b5f6117378261102d565b91506117428361102d565b925082611752576117516116d3565b5b828204905092915050565b7f5a7520676572696e6765722045696e7a61686c756e67736265747261670000005f82015250565b5f611791601d8361122d565b915061179c8261175d565b602082019050919050565b5f6020820190508181035f8301526117be81611785565b9050919050565b7f4265726569747320616c73204d6974737069656c6572207265676973747269655f8201527f7274000000000000000000000000000000000000000000000000000000000000602082015250565b5f61181f60228361122d565b915061182a826117c5565b604082019050919050565b5f6020820190508181035f83015261184c81611813565b9050919050565b7f4d6178696d616c65205465696c6e65686d65727a61686c2065727265696368745f82015250565b5f61188760208361122d565b915061189282611853565b602082019050919050565b5f6020820190508181035f8301526118b48161187b565b9050919050565b7f476577696e6e20777572646520626572656974732065696e67657a61686c74005f82015250565b5f6118ef601f8361122d565b91506118fa826118bb565b602082019050919050565b5f6020820190508181035f83015261191c816118e3565b9050919050565b5f819050919050565b5f61193682611923565b915061194183611923565b925082820390508181111561195957611958611700565b5b92915050565b5f61196982611149565b915061ffff820361197d5761197c611700565b5b600182019050919050565b7f45696e7a61686c756e6773626574726167206d7573732067726f6573736572205f8201527f616c732030207365696e00000000000000000000000000000000000000000000602082015250565b5f6119e2602a8361122d565b91506119ed82611988565b604082019050919050565b5f6020820190508181035f830152611a0f816119d6565b9050919050565b7f476577696e6e20777572646520626572656974732065696e67657a61686c742e5f82015250565b5f611a4a60208361122d565b9150611a5582611a16565b602082019050919050565b5f6020820190508181035f830152611a7781611a3e565b9050919050565b5f611a8882610ff0565b9150611a9383610ff0565b925082611aa357611aa26116d3565b5b828204905092915050565b7f4e487b71000000000000000000000000000000000000000000000000000000005f52602260045260245ffd5b5f6002820490506001821680611af257607f821691505b602082108103611b0557611b04611aae565b5b50919050565b7f457320676962742062657265697473204d6974737069656c65722e2041656e645f8201527f6572756e672064657220416e7a61686c20616e204d6974737069656c65726e2060208201527f6e69636874206d656872206d6f65676c6963682e000000000000000000000000604082015250565b5f611b8b60548361122d565b9150611b9682611b0b565b606082019050919050565b5f6020820190508181035f830152611bb881611b7f565b905091905056fea2646970667358221220d684b76f7fa460a24046c1734563f6c5731ea3971a7a8b2148255c3cc337da6964736f6c63430008170033","opcodes":"PUSH1 0x80 PUSH1 0x40 MSTORE PUSH0 PUSH1 0x5 PUSH1 0x2 PUSH2 0x100 EXP DUP2 SLOAD DUP2 PUSH6 0xFFFFFFFFFFFF MUL NOT AND SWAP1 DUP4 PUSH6 0xFFFFFFFFFFFF AND MUL OR SWAP1 SSTORE POP PUSH0 PUSH1 0x5 PUSH1 0x8 PUSH2 0x100 EXP DUP2 SLOAD DUP2 PUSH1 0xFF MUL NOT AND SWAP1 DUP4 ISZERO ISZERO MUL OR SWAP1 SSTORE POP PUSH0 PUSH1 0x5 PUSH1 0x9 PUSH2 0x100 EXP DUP2 SLOAD DUP2 PUSH1 0xFF MUL NOT AND SWAP1 DUP4 ISZERO ISZERO MUL OR SWAP1 SSTORE POP CALLVALUE DUP1 ISZERO PUSH3 0x69 JUMPI PUSH0 DUP1 REVERT JUMPDEST POP PUSH1 0x40 MLOAD PUSH3 0x25AF CODESIZE SUB DUP1 PUSH3 0x25AF DUP4 CODECOPY DUP2 DUP2 ADD PUSH1 0x40 MSTORE DUP2 ADD SWAP1 PUSH3 0x8F SWAP2 SWAP1 PUSH3 0x4EE JUMP JUMPDEST PUSH2 0xFFFF DUP5 PUSH2 0xFFFF AND LT PUSH3 0xDA JUMPI PUSH1 0x40 MLOAD PUSH32 0x8C379A000000000000000000000000000000000000000000000000000000000 DUP2 MSTORE PUSH1 0x4 ADD PUSH3 0xD1 SWAP1 PUSH3 0x603 JUMP JUMPDEST PUSH1 0x40 MLOAD DUP1 SWAP2 SUB SWAP1 REVERT JUMPDEST PUSH4 0xFFFFFFFF PUSH1 0x2 PUSH1 0x8 SWAP1 SLOAD SWAP1 PUSH2 0x100 EXP SWAP1 DIV PUSH4 0xFFFFFFFF AND PUSH4 0xFFFFFFFF AND LT PUSH3 0x13B JUMPI PUSH1 0x40 MLOAD PUSH32 0x8C379A000000000000000000000000000000000000000000000000000000000 DUP2 MSTORE PUSH1 0x4 ADD PUSH3 0x132 SWAP1 PUSH3 0x671 JUMP JUMPDEST PUSH1 0x40 MLOAD DUP1 SWAP2 SUB SWAP1 REVERT JUMPDEST DUP5 PUSH0 DUP1 PUSH2 0x100 EXP DUP2 SLOAD DUP2 PUSH20 0xFFFFFFFFFFFFFFFFFFFFFFFFFFFFFFFFFFFFFFFF MUL NOT AND SWAP1 DUP4 PUSH20 0xFFFFFFFFFFFFFFFFFFFFFFFFFFFFFFFFFFFFFFFF AND MUL OR SWAP1 SSTORE POP DUP6 PUSH1 0x1 SWAP1 DUP2 PUSH3 0x18B SWAP2 SWAP1 PUSH3 0x8C8 JUMP JUMPDEST POP DUP4 PUSH1 0x2 PUSH0 PUSH2 0x100 EXP DUP2 SLOAD DUP2 PUSH2 0xFFFF MUL NOT AND SWAP1 DUP4 PUSH2 0xFFFF AND MUL OR SWAP1 SSTORE POP DUP3 PUSH1 0x2 PUSH1 0x8 PUSH2 0x100 EXP DUP2 SLOAD DUP2 PUSH4 0xFFFFFFFF MUL NOT AND SWAP1 DUP4 PUSH4 0xFFFFFFFF AND MUL OR SWAP1 SSTORE POP DUP1 PUSH1 0x5 PUSH1 0x9 PUSH2 0x100 EXP DUP2 SLOAD DUP2 PUSH1 0xFF MUL NOT AND SWAP1 DUP4 ISZERO ISZERO MUL OR SWAP1 SSTORE POP DUP2 PUSH1 0x2 PUSH1 0xC PUSH2 0x100 EXP DUP2 SLOAD DUP2 PUSH6 0xFFFFFFFFFFFF MUL NOT AND SWAP1 DUP4 PUSH6 0xFFFFFFFFFFFF AND MUL OR SWAP1 SSTORE POP POP POP POP POP POP POP PUSH3 0x9AC JUMP JUMPDEST PUSH0 PUSH1 0x40 MLOAD SWAP1 POP SWAP1 JUMP JUMPDEST PUSH0 DUP1 REVERT JUMPDEST PUSH0 DUP1 REVERT JUMPDEST PUSH0 DUP1 REVERT JUMPDEST PUSH0 DUP1 REVERT JUMPDEST PUSH0 PUSH1 0x1F NOT PUSH1 0x1F DUP4 ADD AND SWAP1 POP SWAP2 SWAP1 POP JUMP JUMPDEST PUSH32 0x4E487B7100000000000000000000000000000000000000000000000000000000 PUSH0 MSTORE PUSH1 0x41 PUSH1 0x4 MSTORE PUSH1 0x24 PUSH0 REVERT JUMPDEST PUSH3 0x275 DUP3 PUSH3 0x22D JUMP JUMPDEST DUP2 ADD DUP2 DUP2 LT PUSH8 0xFFFFFFFFFFFFFFFF DUP3 GT OR ISZERO PUSH3 0x297 JUMPI PUSH3 0x296 PUSH3 0x23D JUMP JUMPDEST JUMPDEST DUP1 PUSH1 0x40 MSTORE POP POP POP JUMP JUMPDEST PUSH0 PUSH3 0x2AB PUSH3 0x214 JUMP JUMPDEST SWAP1 POP PUSH3 0x2B9 DUP3 DUP3 PUSH3 0x26A JUMP JUMPDEST SWAP2 SWAP1 POP JUMP JUMPDEST PUSH0 PUSH8 0xFFFFFFFFFFFFFFFF DUP3 GT ISZERO PUSH3 0x2DB JUMPI PUSH3 0x2DA PUSH3 0x23D JUMP JUMPDEST JUMPDEST PUSH3 0x2E6 DUP3 PUSH3 0x22D JUMP JUMPDEST SWAP1 POP PUSH1 0x20 DUP2 ADD SWAP1 POP SWAP2 SWAP1 POP JUMP JUMPDEST PUSH0 JUMPDEST DUP4 DUP2 LT ISZERO PUSH3 0x312 JUMPI DUP1 DUP3 ADD MLOAD DUP2 DUP5 ADD MSTORE PUSH1 0x20 DUP2 ADD SWAP1 POP PUSH3 0x2F5 JUMP JUMPDEST PUSH0 DUP5 DUP5 ADD MSTORE POP POP POP POP JUMP JUMPDEST PUSH0 PUSH3 0x333 PUSH3 0x32D DUP5 PUSH3 0x2BE JUMP JUMPDEST PUSH3 0x2A0 JUMP JUMPDEST SWAP1 POP DUP3 DUP2 MSTORE PUSH1 0x20 DUP2 ADD DUP5 DUP5 DUP5 ADD GT ISZERO PUSH3 0x352 JUMPI PUSH3 0x351 PUSH3 0x229 JUMP JUMPDEST JUMPDEST PUSH3 0x35F DUP5 DUP3 DUP6 PUSH3 0x2F3 JUMP JUMPDEST POP SWAP4 SWAP3 POP POP POP JUMP JUMPDEST PUSH0 DUP3 PUSH1 0x1F DUP4 ADD SLT PUSH3 0x37E JUMPI PUSH3 0x37D PUSH3 0x225 JUMP JUMPDEST JUMPDEST DUP2 MLOAD PUSH3 0x390 DUP5 DUP3 PUSH1 0x20 DUP7 ADD PUSH3 0x31D JUMP JUMPDEST SWAP2 POP POP SWAP3 SWAP2 POP POP JUMP JUMPDEST PUSH0 PUSH20 0xFFFFFFFFFFFFFFFFFFFFFFFFFFFFFFFFFFFFFFFF DUP3 AND SWAP1 POP SWAP2 SWAP1 POP JUMP JUMPDEST PUSH0 PUSH3 0x3C4 DUP3 PUSH3 0x399 JUMP JUMPDEST SWAP1 POP SWAP2 SWAP1 POP JUMP JUMPDEST PUSH3 0x3D6 DUP2 PUSH3 0x3B8 JUMP JUMPDEST DUP2 EQ PUSH3 0x3E1 JUMPI PUSH0 DUP1 REVERT JUMPDEST POP JUMP JUMPDEST PUSH0 DUP2 MLOAD SWAP1 POP PUSH3 0x3F4 DUP2 PUSH3 0x3CB JUMP JUMPDEST SWAP3 SWAP2 POP POP JUMP JUMPDEST PUSH0 PUSH2 0xFFFF DUP3 AND SWAP1 POP SWAP2 SWAP1 POP JUMP JUMPDEST PUSH3 0x412 DUP2 PUSH3 0x3FA JUMP JUMPDEST DUP2 EQ PUSH3 0x41D JUMPI PUSH0 DUP1 REVERT JUMPDEST POP JUMP JUMPDEST PUSH0 DUP2 MLOAD SWAP1 POP PUSH3 0x430 DUP2 PUSH3 0x407 JUMP JUMPDEST SWAP3 SWAP2 POP POP JUMP JUMPDEST PUSH0 PUSH4 0xFFFFFFFF DUP3 AND SWAP1 POP SWAP2 SWAP1 POP JUMP JUMPDEST PUSH3 0x450 DUP2 PUSH3 0x436 JUMP JUMPDEST DUP2 EQ PUSH3 0x45B JUMPI PUSH0 DUP1 REVERT JUMPDEST POP JUMP JUMPDEST PUSH0 DUP2 MLOAD SWAP1 POP PUSH3 0x46E DUP2 PUSH3 0x445 JUMP JUMPDEST SWAP3 SWAP2 POP POP JUMP JUMPDEST PUSH0 PUSH6 0xFFFFFFFFFFFF DUP3 AND SWAP1 POP SWAP2 SWAP1 POP JUMP JUMPDEST PUSH3 0x490 DUP2 PUSH3 0x474 JUMP JUMPDEST DUP2 EQ PUSH3 0x49B JUMPI PUSH0 DUP1 REVERT JUMPDEST POP JUMP JUMPDEST PUSH0 DUP2 MLOAD SWAP1 POP PUSH3 0x4AE DUP2 PUSH3 0x485 JUMP JUMPDEST SWAP3 SWAP2 POP POP JUMP JUMPDEST PUSH0 DUP2 ISZERO ISZERO SWAP1 POP SWAP2 SWAP1 POP JUMP JUMPDEST PUSH3 0x4CA DUP2 PUSH3 0x4B4 JUMP JUMPDEST DUP2 EQ PUSH3 0x4D5 JUMPI PUSH0 DUP1 REVERT JUMPDEST POP JUMP JUMPDEST PUSH0 DUP2 MLOAD SWAP1 POP PUSH3 0x4E8 DUP2 PUSH3 0x4BF JUMP JUMPDEST SWAP3 SWAP2 POP POP JUMP JUMPDEST PUSH0 DUP1 PUSH0 DUP1 PUSH0 DUP1 PUSH1 0xC0 DUP8 DUP10 SUB SLT ISZERO PUSH3 0x50B JUMPI PUSH3 0x50A PUSH3 0x21D JUMP JUMPDEST JUMPDEST PUSH0 DUP8 ADD MLOAD PUSH8 0xFFFFFFFFFFFFFFFF DUP2 GT ISZERO PUSH3 0x52B JUMPI PUSH3 0x52A PUSH3 0x221 JUMP JUMPDEST JUMPDEST PUSH3 0x539 DUP10 DUP3 DUP11 ADD PUSH3 0x367 JUMP JUMPDEST SWAP7 POP POP PUSH1 0x20 PUSH3 0x54C DUP10 DUP3 DUP11 ADD PUSH3 0x3E4 JUMP JUMPDEST SWAP6 POP POP PUSH1 0x40 PUSH3 0x55F DUP10 DUP3 DUP11 ADD PUSH3 0x420 JUMP JUMPDEST SWAP5 POP POP PUSH1 0x60 PUSH3 0x572 DUP10 DUP3 DUP11 ADD PUSH3 0x45E JUMP JUMPDEST SWAP4 POP POP PUSH1 0x80 PUSH3 0x585 DUP10 DUP3 DUP11 ADD PUSH3 0x49E JUMP JUMPDEST SWAP3 POP POP PUSH1 0xA0 PUSH3 0x598 DUP10 DUP3 DUP11 ADD PUSH3 0x4D8 JUMP JUMPDEST SWAP2 POP POP SWAP3 SWAP6 POP SWAP3 SWAP6 POP SWAP3 SWAP6 JUMP JUMPDEST PUSH0 DUP3 DUP3 MSTORE PUSH1 0x20 DUP3 ADD SWAP1 POP SWAP3 SWAP2 POP POP JUMP JUMPDEST PUSH32 0x4D6178696D616C203635353334204D6974737069656C65722065726C61756274 PUSH0 DUP3 ADD MSTORE POP JUMP JUMPDEST PUSH0 PUSH3 0x5EB PUSH1 0x20 DUP4 PUSH3 0x5A5 JUMP JUMPDEST SWAP2 POP PUSH3 0x5F8 DUP3 PUSH3 0x5B5 JUMP JUMPDEST PUSH1 0x20 DUP3 ADD SWAP1 POP SWAP2 SWAP1 POP JUMP JUMPDEST PUSH0 PUSH1 0x20 DUP3 ADD SWAP1 POP DUP2 DUP2 SUB PUSH0 DUP4 ADD MSTORE PUSH3 0x61C DUP2 PUSH3 0x5DD JUMP JUMPDEST SWAP1 POP SWAP2 SWAP1 POP JUMP JUMPDEST PUSH32 0x4D6178696D616C65722050726569732034323934393637323935000000000000 PUSH0 DUP3 ADD MSTORE POP JUMP JUMPDEST PUSH0 PUSH3 0x659 PUSH1 0x1A DUP4 PUSH3 0x5A5 JUMP JUMPDEST SWAP2 POP PUSH3 0x666 DUP3 PUSH3 0x623 JUMP JUMPDEST PUSH1 0x20 DUP3 ADD SWAP1 POP SWAP2 SWAP1 POP JUMP JUMPDEST PUSH0 PUSH1 0x20 DUP3 ADD SWAP1 POP DUP2 DUP2 SUB PUSH0 DUP4 ADD MSTORE PUSH3 0x68A DUP2 PUSH3 0x64B JUMP JUMPDEST SWAP1 POP SWAP2 SWAP1 POP JUMP JUMPDEST PUSH0 DUP2 MLOAD SWAP1 POP SWAP2 SWAP1 POP JUMP JUMPDEST PUSH32 0x4E487B7100000000000000000000000000000000000000000000000000000000 PUSH0 MSTORE PUSH1 0x22 PUSH1 0x4 MSTORE PUSH1 0x24 PUSH0 REVERT JUMPDEST PUSH0 PUSH1 0x2 DUP3 DIV SWAP1 POP PUSH1 0x1 DUP3 AND DUP1 PUSH3 0x6E0 JUMPI PUSH1 0x7F DUP3 AND SWAP2 POP JUMPDEST PUSH1 0x20 DUP3 LT DUP2 SUB PUSH3 0x6F6 JUMPI PUSH3 0x6F5 PUSH3 0x69B JUMP JUMPDEST JUMPDEST POP SWAP2 SWAP1 POP JUMP JUMPDEST PUSH0 DUP2 SWAP1 POP DUP2 PUSH0 MSTORE PUSH1 0x20 PUSH0 KECCAK256 SWAP1 POP SWAP2 SWAP1 POP JUMP JUMPDEST PUSH0 PUSH1 0x20 PUSH1 0x1F DUP4 ADD DIV SWAP1 POP SWAP2 SWAP1 POP JUMP JUMPDEST PUSH0 DUP3 DUP3 SHL SWAP1 POP SWAP3 SWAP2 POP POP JUMP JUMPDEST PUSH0 PUSH1 0x8 DUP4 MUL PUSH3 0x75A PUSH32 0xFFFFFFFFFFFFFFFFFFFFFFFFFFFFFFFFFFFFFFFFFFFFFFFFFFFFFFFFFFFFFFFF DUP3 PUSH3 0x71D JUMP JUMPDEST PUSH3 0x766 DUP7 DUP4 PUSH3 0x71D JUMP JUMPDEST SWAP6 POP DUP1 NOT DUP5 AND SWAP4 POP DUP1 DUP7 AND DUP5 OR SWAP3 POP POP POP SWAP4 SWAP3 POP POP POP JUMP JUMPDEST PUSH0 DUP2 SWAP1 POP SWAP2 SWAP1 POP JUMP JUMPDEST PUSH0 DUP2 SWAP1 POP SWAP2 SWAP1 POP JUMP JUMPDEST PUSH0 PUSH3 0x7B0 PUSH3 0x7AA PUSH3 0x7A4 DUP5 PUSH3 0x77E JUMP JUMPDEST PUSH3 0x787 JUMP JUMPDEST PUSH3 0x77E JUMP JUMPDEST SWAP1 POP SWAP2 SWAP1 POP JUMP JUMPDEST PUSH0 DUP2 SWAP1 POP SWAP2 SWAP1 POP JUMP JUMPDEST PUSH3 0x7CB DUP4 PUSH3 0x790 JUMP JUMPDEST PUSH3 0x7E3 PUSH3 0x7DA DUP3 PUSH3 0x7B7 JUMP JUMPDEST DUP5 DUP5 SLOAD PUSH3 0x729 JUMP JUMPDEST DUP3 SSTORE POP POP POP POP JUMP JUMPDEST PUSH0 SWAP1 JUMP JUMPDEST PUSH3 0x7F9 PUSH3 0x7EB JUMP JUMPDEST PUSH3 0x806 DUP2 DUP5 DUP5 PUSH3 0x7C0 JUMP JUMPDEST POP POP POP JUMP JUMPDEST JUMPDEST DUP2 DUP2 LT ISZERO PUSH3 0x82D JUMPI PUSH3 0x821 PUSH0 DUP3 PUSH3 0x7EF JUMP JUMPDEST PUSH1 0x1 DUP2 ADD SWAP1 POP PUSH3 0x80C JUMP JUMPDEST POP POP JUMP JUMPDEST PUSH1 0x1F DUP3 GT ISZERO PUSH3 0x87C JUMPI PUSH3 0x846 DUP2 PUSH3 0x6FC JUMP JUMPDEST PUSH3 0x851 DUP5 PUSH3 0x70E JUMP JUMPDEST DUP2 ADD PUSH1 0x20 DUP6 LT ISZERO PUSH3 0x861 JUMPI DUP2 SWAP1 POP JUMPDEST PUSH3 0x879 PUSH3 0x870 DUP6 PUSH3 0x70E JUMP JUMPDEST DUP4 ADD DUP3 PUSH3 0x80B JUMP JUMPDEST POP POP JUMPDEST POP POP POP JUMP JUMPDEST PUSH0 DUP3 DUP3 SHR SWAP1 POP SWAP3 SWAP2 POP POP JUMP JUMPDEST PUSH0 PUSH3 0x89E PUSH0 NOT DUP5 PUSH1 0x8 MUL PUSH3 0x881 JUMP JUMPDEST NOT DUP1 DUP4 AND SWAP2 POP POP SWAP3 SWAP2 POP POP JUMP JUMPDEST PUSH0 PUSH3 0x8B8 DUP4 DUP4 PUSH3 0x88D JUMP JUMPDEST SWAP2 POP DUP3 PUSH1 0x2 MUL DUP3 OR SWAP1 POP SWAP3 SWAP2 POP POP JUMP JUMPDEST PUSH3 0x8D3 DUP3 PUSH3 0x691 JUMP JUMPDEST PUSH8 0xFFFFFFFFFFFFFFFF DUP2 GT ISZERO PUSH3 0x8EF JUMPI PUSH3 0x8EE PUSH3 0x23D JUMP JUMPDEST JUMPDEST PUSH3 0x8FB DUP3 SLOAD PUSH3 0x6C8 JUMP JUMPDEST PUSH3 0x908 DUP3 DUP3 DUP6 PUSH3 0x831 JUMP JUMPDEST PUSH0 PUSH1 0x20 SWAP1 POP PUSH1 0x1F DUP4 GT PUSH1 0x1 DUP2 EQ PUSH3 0x93E JUMPI PUSH0 DUP5 ISZERO PUSH3 0x929 JUMPI DUP3 DUP8 ADD MLOAD SWAP1 POP JUMPDEST PUSH3 0x935 DUP6 DUP3 PUSH3 0x8AB JUMP JUMPDEST DUP7 SSTORE POP PUSH3 0x9A4 JUMP JUMPDEST PUSH1 0x1F NOT DUP5 AND PUSH3 0x94E DUP7 PUSH3 0x6FC JUMP JUMPDEST PUSH0 JUMPDEST DUP3 DUP2 LT ISZERO PUSH3 0x977 JUMPI DUP5 DUP10 ADD MLOAD DUP3 SSTORE PUSH1 0x1 DUP3 ADD SWAP2 POP PUSH1 0x20 DUP6 ADD SWAP5 POP PUSH1 0x20 DUP2 ADD SWAP1 POP PUSH3 0x950 JUMP JUMPDEST DUP7 DUP4 LT ISZERO PUSH3 0x997 JUMPI DUP5 DUP10 ADD MLOAD PUSH3 0x993 PUSH1 0x1F DUP10 AND DUP3 PUSH3 0x88D JUMP JUMPDEST DUP4 SSTORE POP JUMPDEST PUSH1 0x1 PUSH1 0x2 DUP9 MUL ADD DUP9 SSTORE POP POP POP JUMPDEST POP POP POP POP POP POP JUMP JUMPDEST PUSH2 0x1BF5 DUP1 PUSH3 0x9BA PUSH0 CODECOPY PUSH0 RETURN INVALID PUSH1 0x80 PUSH1 0x40 MSTORE PUSH1 0x4 CALLDATASIZE LT PUSH2 0x108 JUMPI PUSH0 CALLDATALOAD PUSH1 0xE0 SHR DUP1 PUSH4 0x526024EA GT PUSH2 0x94 JUMPI DUP1 PUSH4 0xB08C7076 GT PUSH2 0x63 JUMPI DUP1 PUSH4 0xB08C7076 EQ PUSH2 0x31A JUMPI DUP1 PUSH4 0xB609E684 EQ PUSH2 0x344 JUMPI DUP1 PUSH4 0xC6CA9D19 EQ PUSH2 0x36E JUMPI DUP1 PUSH4 0xD27D06C0 EQ PUSH2 0x38A JUMPI DUP1 PUSH4 0xE068561A EQ PUSH2 0x3B4 JUMPI PUSH2 0x108 JUMP JUMPDEST DUP1 PUSH4 0x526024EA EQ PUSH2 0x280 JUMPI DUP1 PUSH4 0x70A41BC0 EQ PUSH2 0x28A JUMPI DUP1 PUSH4 0x91243239 EQ PUSH2 0x2B4 JUMPI DUP1 PUSH4 0xAD2C046C EQ PUSH2 0x2F0 JUMPI PUSH2 0x108 JUMP JUMPDEST DUP1 PUSH4 0x31C45120 GT PUSH2 0xDB JUMPI DUP1 PUSH4 0x31C45120 EQ PUSH2 0x1A0 JUMPI DUP1 PUSH4 0x36927060 EQ PUSH2 0x1C8 JUMPI DUP1 PUSH4 0x3BABB15A EQ PUSH2 0x204 JUMPI DUP1 PUSH4 0x3F0F5D51 EQ PUSH2 0x22E JUMPI DUP1 PUSH4 0x43767832 EQ PUSH2 0x258 JUMPI PUSH2 0x108 JUMP JUMPDEST DUP1 PUSH4 0x84263F5 EQ PUSH2 0x10C JUMPI DUP1 PUSH4 0xC96B701 EQ PUSH2 0x136 JUMPI DUP1 PUSH4 0xF085E50 EQ PUSH2 0x14C JUMPI DUP1 PUSH4 0x143B7CAF EQ PUSH2 0x176 JUMPI JUMPDEST PUSH0 DUP1 REVERT JUMPDEST CALLVALUE DUP1 ISZERO PUSH2 0x117 JUMPI PUSH0 DUP1 REVERT JUMPDEST POP PUSH2 0x120 PUSH2 0x3DC JUMP JUMPDEST PUSH1 0x40 MLOAD PUSH2 0x12D SWAP2 SWAP1 PUSH2 0x1010 JUMP JUMPDEST PUSH1 0x40 MLOAD DUP1 SWAP2 SUB SWAP1 RETURN JUMPDEST CALLVALUE DUP1 ISZERO PUSH2 0x141 JUMPI PUSH0 DUP1 REVERT JUMPDEST POP PUSH2 0x14A PUSH2 0x3F2 JUMP JUMPDEST STOP JUMPDEST CALLVALUE DUP1 ISZERO PUSH2 0x157 JUMPI PUSH0 DUP1 REVERT JUMPDEST POP PUSH2 0x160 PUSH2 0x758 JUMP JUMPDEST PUSH1 0x40 MLOAD PUSH2 0x16D SWAP2 SWAP1 PUSH2 0x1010 JUMP JUMPDEST PUSH1 0x40 MLOAD DUP1 SWAP2 SUB SWAP1 RETURN JUMPDEST CALLVALUE DUP1 ISZERO PUSH2 0x181 JUMPI PUSH0 DUP1 REVERT JUMPDEST POP PUSH2 0x18A PUSH2 0x770 JUMP JUMPDEST PUSH1 0x40 MLOAD PUSH2 0x197 SWAP2 SWAP1 PUSH2 0x1010 JUMP JUMPDEST PUSH1 0x40 MLOAD DUP1 SWAP2 SUB SWAP1 RETURN JUMPDEST CALLVALUE DUP1 ISZERO PUSH2 0x1AB JUMPI PUSH0 DUP1 REVERT JUMPDEST POP PUSH2 0x1C6 PUSH1 0x4 DUP1 CALLDATASIZE SUB DUP2 ADD SWAP1 PUSH2 0x1C1 SWAP2 SWAP1 PUSH2 0x1066 JUMP JUMPDEST PUSH2 0x788 JUMP JUMPDEST STOP JUMPDEST CALLVALUE DUP1 ISZERO PUSH2 0x1D3 JUMPI PUSH0 DUP1 REVERT JUMPDEST POP PUSH2 0x1EE PUSH1 0x4 DUP1 CALLDATASIZE SUB DUP2 ADD SWAP1 PUSH2 0x1E9 SWAP2 SWAP1 PUSH2 0x10EB JUMP JUMPDEST PUSH2 0x857 JUMP JUMPDEST PUSH1 0x40 MLOAD PUSH2 0x1FB SWAP2 SWAP1 PUSH2 0x1130 JUMP JUMPDEST PUSH1 0x40 MLOAD DUP1 SWAP2 SUB SWAP1 RETURN JUMPDEST CALLVALUE DUP1 ISZERO PUSH2 0x20F JUMPI PUSH0 DUP1 REVERT JUMPDEST POP PUSH2 0x218 PUSH2 0x874 JUMP JUMPDEST PUSH1 0x40 MLOAD PUSH2 0x225 SWAP2 SWAP1 PUSH2 0x1165 JUMP JUMPDEST PUSH1 0x40 MLOAD DUP1 SWAP2 SUB SWAP1 RETURN JUMPDEST CALLVALUE DUP1 ISZERO PUSH2 0x239 JUMPI PUSH0 DUP1 REVERT JUMPDEST POP PUSH2 0x242 PUSH2 0x887 JUMP JUMPDEST PUSH1 0x40 MLOAD PUSH2 0x24F SWAP2 SWAP1 PUSH2 0x118D JUMP JUMPDEST PUSH1 0x40 MLOAD DUP1 SWAP2 SUB SWAP1 RETURN JUMPDEST CALLVALUE DUP1 ISZERO PUSH2 0x263 JUMPI PUSH0 DUP1 REVERT JUMPDEST POP PUSH2 0x27E PUSH1 0x4 DUP1 CALLDATASIZE SUB DUP2 ADD SWAP1 PUSH2 0x279 SWAP2 SWAP1 PUSH2 0x10EB JUMP JUMPDEST PUSH2 0x89D JUMP JUMPDEST STOP JUMPDEST PUSH2 0x288 PUSH2 0x9A0 JUMP JUMPDEST STOP JUMPDEST CALLVALUE DUP1 ISZERO PUSH2 0x295 JUMPI PUSH0 DUP1 REVERT JUMPDEST POP PUSH2 0x29E PUSH2 0xCCA JUMP JUMPDEST PUSH1 0x40 MLOAD PUSH2 0x2AB SWAP2 SWAP1 PUSH2 0x1165 JUMP JUMPDEST PUSH1 0x40 MLOAD DUP1 SWAP2 SUB SWAP1 RETURN JUMPDEST CALLVALUE DUP1 ISZERO PUSH2 0x2BF JUMPI PUSH0 DUP1 REVERT JUMPDEST POP PUSH2 0x2DA PUSH1 0x4 DUP1 CALLDATASIZE SUB DUP2 ADD SWAP1 PUSH2 0x2D5 SWAP2 SWAP1 PUSH2 0x10EB JUMP JUMPDEST PUSH2 0xCDD JUMP JUMPDEST PUSH1 0x40 MLOAD PUSH2 0x2E7 SWAP2 SWAP1 PUSH2 0x1130 JUMP JUMPDEST PUSH1 0x40 MLOAD DUP1 SWAP2 SUB SWAP1 RETURN JUMPDEST CALLVALUE DUP1 ISZERO PUSH2 0x2FB JUMPI PUSH0 DUP1 REVERT JUMPDEST POP PUSH2 0x304 PUSH2 0xCFA JUMP JUMPDEST PUSH1 0x40 MLOAD PUSH2 0x311 SWAP2 SWAP1 PUSH2 0x11B5 JUMP JUMPDEST PUSH1 0x40 MLOAD DUP1 SWAP2 SUB SWAP1 RETURN JUMPDEST CALLVALUE DUP1 ISZERO PUSH2 0x325 JUMPI PUSH0 DUP1 REVERT JUMPDEST POP PUSH2 0x32E PUSH2 0xD1D JUMP JUMPDEST PUSH1 0x40 MLOAD PUSH2 0x33B SWAP2 SWAP1 PUSH2 0x1130 JUMP JUMPDEST PUSH1 0x40 MLOAD DUP1 SWAP2 SUB SWAP1 RETURN JUMPDEST CALLVALUE DUP1 ISZERO PUSH2 0x34F JUMPI PUSH0 DUP1 REVERT JUMPDEST POP PUSH2 0x358 PUSH2 0xD30 JUMP JUMPDEST PUSH1 0x40 MLOAD PUSH2 0x365 SWAP2 SWAP1 PUSH2 0x1130 JUMP JUMPDEST PUSH1 0x40 MLOAD DUP1 SWAP2 SUB SWAP1 RETURN JUMPDEST PUSH2 0x388 PUSH1 0x4 DUP1 CALLDATASIZE SUB DUP2 ADD SWAP1 PUSH2 0x383 SWAP2 SWAP1 PUSH2 0x11F8 JUMP JUMPDEST PUSH2 0xD43 JUMP JUMPDEST STOP JUMPDEST CALLVALUE DUP1 ISZERO PUSH2 0x395 JUMPI PUSH0 DUP1 REVERT JUMPDEST POP PUSH2 0x39E PUSH2 0xE9A JUMP JUMPDEST PUSH1 0x40 MLOAD PUSH2 0x3AB SWAP2 SWAP1 PUSH2 0x12AD JUMP JUMPDEST PUSH1 0x40 MLOAD DUP1 SWAP2 SUB SWAP1 RETURN JUMPDEST CALLVALUE DUP1 ISZERO PUSH2 0x3BF JUMPI PUSH0 DUP1 REVERT JUMPDEST POP PUSH2 0x3DA PUSH1 0x4 DUP1 CALLDATASIZE SUB DUP2 ADD SWAP1 PUSH2 0x3D5 SWAP2 SWAP1 PUSH2 0x12F7 JUMP JUMPDEST PUSH2 0xF26 JUMP JUMPDEST STOP JUMPDEST PUSH1 0x2 DUP1 SLOAD SWAP1 PUSH2 0x100 EXP SWAP1 DIV PUSH6 0xFFFFFFFFFFFF AND DUP2 JUMP JUMPDEST PUSH1 0x3 PUSH0 CALLER PUSH20 0xFFFFFFFFFFFFFFFFFFFFFFFFFFFFFFFFFFFFFFFF AND PUSH20 0xFFFFFFFFFFFFFFFFFFFFFFFFFFFFFFFFFFFFFFFF AND DUP2 MSTORE PUSH1 0x20 ADD SWAP1 DUP2 MSTORE PUSH1 0x20 ADD PUSH0 KECCAK256 PUSH0 SWAP1 SLOAD SWAP1 PUSH2 0x100 EXP SWAP1 DIV PUSH1 0xFF AND PUSH2 0x444 JUMPI PUSH0 DUP1 REVERT JUMPDEST PUSH1 0x7 PUSH0 SWAP1 SLOAD SWAP1 PUSH2 0x100 EXP SWAP1 DIV PUSH1 0xFF AND ISZERO PUSH2 0x493 JUMPI PUSH1 0x40 MLOAD PUSH32 0x8C379A000000000000000000000000000000000000000000000000000000000 DUP2 MSTORE PUSH1 0x4 ADD PUSH2 0x48A SWAP1 PUSH2 0x136C JUMP JUMPDEST PUSH1 0x40 MLOAD DUP1 SWAP2 SUB SWAP1 REVERT JUMPDEST PUSH1 0x1 PUSH1 0x7 PUSH0 PUSH2 0x100 EXP DUP2 SLOAD DUP2 PUSH1 0xFF MUL NOT AND SWAP1 DUP4 ISZERO ISZERO MUL OR SWAP1 SSTORE POP PUSH0 PUSH1 0x5 PUSH1 0x2 SWAP1 SLOAD SWAP1 PUSH2 0x100 EXP SWAP1 DIV PUSH6 0xFFFFFFFFFFFF AND PUSH6 0xFFFFFFFFFFFF AND GT PUSH2 0x50B JUMPI PUSH1 0x40 MLOAD PUSH32 0x8C379A000000000000000000000000000000000000000000000000000000000 DUP2 MSTORE PUSH1 0x4 ADD PUSH2 0x502 SWAP1 PUSH2 0x13D4 JUMP JUMPDEST PUSH1 0x40 MLOAD DUP1 SWAP2 SUB SWAP1 REVERT JUMPDEST PUSH1 0x3 PUSH0 CALLER PUSH20 0xFFFFFFFFFFFFFFFFFFFFFFFFFFFFFFFFFFFFFFFF AND PUSH20 0xFFFFFFFFFFFFFFFFFFFFFFFFFFFFFFFFFFFFFFFF AND DUP2 MSTORE PUSH1 0x20 ADD SWAP1 DUP2 MSTORE PUSH1 0x20 ADD PUSH0 KECCAK256 PUSH0 SWAP1 SLOAD SWAP1 PUSH2 0x100 EXP SWAP1 DIV PUSH1 0xFF AND PUSH2 0x594 JUMPI PUSH1 0x40 MLOAD PUSH32 0x8C379A000000000000000000000000000000000000000000000000000000000 DUP2 MSTORE PUSH1 0x4 ADD PUSH2 0x58B SWAP1 PUSH2 0x143C JUMP JUMPDEST PUSH1 0x40 MLOAD DUP1 SWAP2 SUB SWAP1 REVERT JUMPDEST PUSH1 0x4 PUSH0 CALLER PUSH20 0xFFFFFFFFFFFFFFFFFFFFFFFFFFFFFFFFFFFFFFFF AND PUSH20 0xFFFFFFFFFFFFFFFFFFFFFFFFFFFFFFFFFFFFFFFF AND DUP2 MSTORE PUSH1 0x20 ADD SWAP1 DUP2 MSTORE PUSH1 0x20 ADD PUSH0 KECCAK256 PUSH0 SWAP1 SLOAD SWAP1 PUSH2 0x100 EXP SWAP1 DIV PUSH1 0xFF AND ISZERO PUSH2 0x61E JUMPI PUSH1 0x40 MLOAD PUSH32 0x8C379A000000000000000000000000000000000000000000000000000000000 DUP2 MSTORE PUSH1 0x4 ADD PUSH2 0x615 SWAP1 PUSH2 0x14CA JUMP JUMPDEST PUSH1 0x40 MLOAD DUP1 SWAP2 SUB SWAP1 REVERT JUMPDEST PUSH1 0x1 PUSH1 0x4 PUSH0 CALLER PUSH20 0xFFFFFFFFFFFFFFFFFFFFFFFFFFFFFFFFFFFFFFFF AND PUSH20 0xFFFFFFFFFFFFFFFFFFFFFFFFFFFFFFFFFFFFFFFF AND DUP2 MSTORE PUSH1 0x20 ADD SWAP1 DUP2 MSTORE PUSH1 0x20 ADD PUSH0 KECCAK256 PUSH0 PUSH2 0x100 EXP DUP2 SLOAD DUP2 PUSH1 0xFF MUL NOT AND SWAP1 DUP4 ISZERO ISZERO MUL OR SWAP1 SSTORE POP PUSH0 PUSH1 0x5 PUSH1 0x2 SWAP1 SLOAD SWAP1 PUSH2 0x100 EXP SWAP1 DIV PUSH6 0xFFFFFFFFFFFF AND PUSH6 0xFFFFFFFFFFFF AND SWAP1 POP PUSH0 CALLER PUSH20 0xFFFFFFFFFFFFFFFFFFFFFFFFFFFFFFFFFFFFFFFF AND DUP3 PUSH1 0x40 MLOAD PUSH2 0x6B8 SWAP1 PUSH2 0x1515 JUMP JUMPDEST PUSH0 PUSH1 0x40 MLOAD DUP1 DUP4 SUB DUP2 DUP6 DUP8 GAS CALL SWAP3 POP POP POP RETURNDATASIZE DUP1 PUSH0 DUP2 EQ PUSH2 0x6F2 JUMPI PUSH1 0x40 MLOAD SWAP2 POP PUSH1 0x1F NOT PUSH1 0x3F RETURNDATASIZE ADD AND DUP3 ADD PUSH1 0x40 MSTORE RETURNDATASIZE DUP3 MSTORE RETURNDATASIZE PUSH0 PUSH1 0x20 DUP5 ADD RETURNDATACOPY PUSH2 0x6F7 JUMP JUMPDEST PUSH1 0x60 SWAP2 POP JUMPDEST POP POP SWAP1 POP DUP1 PUSH2 0x73B JUMPI PUSH1 0x40 MLOAD PUSH32 0x8C379A000000000000000000000000000000000000000000000000000000000 DUP2 MSTORE PUSH1 0x4 ADD PUSH2 0x732 SWAP1 PUSH2 0x1599 JUMP JUMPDEST PUSH1 0x40 MLOAD DUP1 SWAP2 SUB SWAP1 REVERT JUMPDEST POP POP PUSH0 PUSH1 0x7 PUSH0 PUSH2 0x100 EXP DUP2 SLOAD DUP2 PUSH1 0xFF MUL NOT AND SWAP1 DUP4 ISZERO ISZERO MUL OR SWAP1 SSTORE POP JUMP JUMPDEST PUSH1 0x5 PUSH1 0x2 SWAP1 SLOAD SWAP1 PUSH2 0x100 EXP SWAP1 DIV PUSH6 0xFFFFFFFFFFFF AND DUP2 JUMP JUMPDEST PUSH1 0x2 PUSH1 0xC SWAP1 SLOAD SWAP1 PUSH2 0x100 EXP SWAP1 DIV PUSH6 0xFFFFFFFFFFFF AND DUP2 JUMP JUMPDEST PUSH0 DUP1 SLOAD SWAP1 PUSH2 0x100 EXP SWAP1 DIV PUSH20 0xFFFFFFFFFFFFFFFFFFFFFFFFFFFFFFFFFFFFFFFF AND PUSH20 0xFFFFFFFFFFFFFFFFFFFFFFFFFFFFFFFFFFFFFFFF AND CALLER PUSH20 0xFFFFFFFFFFFFFFFFFFFFFFFFFFFFFFFFFFFFFFFF AND EQ PUSH2 0x7DE JUMPI PUSH0 DUP1 REVERT JUMPDEST PUSH0 PUSH1 0x5 PUSH0 SWAP1 SLOAD SWAP1 PUSH2 0x100 EXP SWAP1 DIV PUSH2 0xFFFF AND PUSH2 0xFFFF AND EQ PUSH2 0x833 JUMPI PUSH1 0x40 MLOAD PUSH32 0x8C379A000000000000000000000000000000000000000000000000000000000 DUP2 MSTORE PUSH1 0x4 ADD PUSH2 0x82A SWAP1 PUSH2 0x1627 JUMP JUMPDEST PUSH1 0x40 MLOAD DUP1 SWAP2 SUB SWAP1 REVERT JUMPDEST DUP1 PUSH1 0x2 PUSH1 0x8 PUSH2 0x100 EXP DUP2 SLOAD DUP2 PUSH4 0xFFFFFFFF MUL NOT AND SWAP1 DUP4 PUSH4 0xFFFFFFFF AND MUL OR SWAP1 SSTORE POP POP JUMP JUMPDEST PUSH1 0x3 PUSH1 0x20 MSTORE DUP1 PUSH0 MSTORE PUSH1 0x40 PUSH0 KECCAK256 PUSH0 SWAP2 POP SLOAD SWAP1 PUSH2 0x100 EXP SWAP1 DIV PUSH1 0xFF AND DUP2 JUMP JUMPDEST PUSH1 0x5 PUSH0 SWAP1 SLOAD SWAP1 PUSH2 0x100 EXP SWAP1 DIV PUSH2 0xFFFF AND DUP2 JUMP JUMPDEST PUSH1 0x2 PUSH1 0x8 SWAP1 SLOAD SWAP1 PUSH2 0x100 EXP SWAP1 DIV PUSH4 0xFFFFFFFF AND DUP2 JUMP JUMPDEST PUSH0 DUP1 SLOAD SWAP1 PUSH2 0x100 EXP SWAP1 DIV PUSH20 0xFFFFFFFFFFFFFFFFFFFFFFFFFFFFFFFFFFFFFFFF AND PUSH20 0xFFFFFFFFFFFFFFFFFFFFFFFFFFFFFFFFFFFFFFFF AND CALLER PUSH20 0xFFFFFFFFFFFFFFFFFFFFFFFFFFFFFFFFFFFFFFFF AND EQ PUSH2 0x8F3 JUMPI PUSH0 DUP1 REVERT JUMPDEST PUSH0 PUSH1 0x5 PUSH0 SWAP1 SLOAD SWAP1 PUSH2 0x100 EXP SWAP1 DIV PUSH2 0xFFFF AND PUSH2 0xFFFF AND EQ PUSH2 0x948 JUMPI PUSH1 0x40 MLOAD PUSH32 0x8C379A000000000000000000000000000000000000000000000000000000000 DUP2 MSTORE PUSH1 0x4 ADD PUSH2 0x93F SWAP1 PUSH2 0x16B5 JUMP JUMPDEST PUSH1 0x40 MLOAD DUP1 SWAP2 SUB SWAP1 REVERT JUMPDEST PUSH1 0x1 PUSH1 0x6 PUSH0 DUP4 PUSH20 0xFFFFFFFFFFFFFFFFFFFFFFFFFFFFFFFFFFFFFFFF AND PUSH20 0xFFFFFFFFFFFFFFFFFFFFFFFFFFFFFFFFFFFFFFFF AND DUP2 MSTORE PUSH1 0x20 ADD SWAP1 DUP2 MSTORE PUSH1 0x20 ADD PUSH0 KECCAK256 PUSH0 PUSH2 0x100 EXP DUP2 SLOAD DUP2 PUSH1 0xFF MUL NOT AND SWAP1 DUP4 ISZERO ISZERO MUL OR SWAP1 SSTORE POP POP JUMP JUMPDEST PUSH0 PUSH1 0x2 PUSH0 SWAP1 SLOAD SWAP1 PUSH2 0x100 EXP SWAP1 DIV PUSH2 0xFFFF AND PUSH2 0xFFFF AND PUSH1 0x2 PUSH1 0x8 SWAP1 SLOAD SWAP1 PUSH2 0x100 EXP SWAP1 DIV PUSH4 0xFFFFFFFF AND PUSH2 0x9D2 SWAP2 SWAP1 PUSH2 0x172D JUMP JUMPDEST SWAP1 POP DUP1 PUSH4 0xFFFFFFFF AND CALLVALUE LT ISZERO PUSH2 0xA1D JUMPI PUSH1 0x40 MLOAD PUSH32 0x8C379A000000000000000000000000000000000000000000000000000000000 DUP2 MSTORE PUSH1 0x4 ADD PUSH2 0xA14 SWAP1 PUSH2 0x17A7 JUMP JUMPDEST PUSH1 0x40 MLOAD DUP1 SWAP2 SUB SWAP1 REVERT JUMPDEST PUSH1 0x3 PUSH0 CALLER PUSH20 0xFFFFFFFFFFFFFFFFFFFFFFFFFFFFFFFFFFFFFFFF AND PUSH20 0xFFFFFFFFFFFFFFFFFFFFFFFFFFFFFFFFFFFFFFFF AND DUP2 MSTORE PUSH1 0x20 ADD SWAP1 DUP2 MSTORE PUSH1 0x20 ADD PUSH0 KECCAK256 PUSH0 SWAP1 SLOAD SWAP1 PUSH2 0x100 EXP SWAP1 DIV PUSH1 0xFF AND ISZERO PUSH2 0xAA7 JUMPI PUSH1 0x40 MLOAD PUSH32 0x8C379A000000000000000000000000000000000000000000000000000000000 DUP2 MSTORE PUSH1 0x4 ADD PUSH2 0xA9E SWAP1 PUSH2 0x1835 JUMP JUMPDEST PUSH1 0x40 MLOAD DUP1 SWAP2 SUB SWAP1 REVERT JUMPDEST PUSH1 0x2 PUSH0 SWAP1 SLOAD SWAP1 PUSH2 0x100 EXP SWAP1 DIV PUSH2 0xFFFF AND PUSH2 0xFFFF AND PUSH1 0x5 PUSH0 SWAP1 SLOAD SWAP1 PUSH2 0x100 EXP SWAP1 DIV PUSH2 0xFFFF AND PUSH2 0xFFFF AND LT PUSH2 0xB0F JUMPI PUSH1 0x40 MLOAD PUSH32 0x8C379A000000000000000000000000000000000000000000000000000000000 DUP2 MSTORE PUSH1 0x4 ADD PUSH2 0xB06 SWAP1 PUSH2 0x189D JUMP JUMPDEST PUSH1 0x40 MLOAD DUP1 SWAP2 SUB SWAP1 REVERT JUMPDEST PUSH0 PUSH1 0x5 PUSH1 0x2 SWAP1 SLOAD SWAP1 PUSH2 0x100 EXP SWAP1 DIV PUSH6 0xFFFFFFFFFFFF AND PUSH6 0xFFFFFFFFFFFF AND EQ PUSH2 0xB6D JUMPI PUSH1 0x40 MLOAD PUSH32 0x8C379A000000000000000000000000000000000000000000000000000000000 DUP2 MSTORE PUSH1 0x4 ADD PUSH2 0xB64 SWAP1 PUSH2 0x1905 JUMP JUMPDEST PUSH1 0x40 MLOAD DUP1 SWAP2 SUB SWAP1 REVERT JUMPDEST PUSH1 0x5 PUSH1 0x9 SWAP1 SLOAD SWAP1 PUSH2 0x100 EXP SWAP1 DIV PUSH1 0xFF AND ISZERO PUSH2 0xBD5 JUMPI PUSH1 0x6 PUSH0 CALLER PUSH20 0xFFFFFFFFFFFFFFFFFFFFFFFFFFFFFFFFFFFFFFFF AND PUSH20 0xFFFFFFFFFFFFFFFFFFFFFFFFFFFFFFFFFFFFFFFF AND DUP2 MSTORE PUSH1 0x20 ADD SWAP1 DUP2 MSTORE PUSH1 0x20 ADD PUSH0 KECCAK256 PUSH0 SWAP1 SLOAD SWAP1 PUSH2 0x100 EXP SWAP1 DIV PUSH1 0xFF AND PUSH2 0xBD4 JUMPI PUSH0 DUP1 REVERT JUMPDEST JUMPDEST PUSH0 DUP2 PUSH4 0xFFFFFFFF AND CALLVALUE PUSH2 0xBE8 SWAP2 SWAP1 PUSH2 0x192C JUMP JUMPDEST SWAP1 POP PUSH1 0x1 PUSH1 0x3 PUSH0 CALLER PUSH20 0xFFFFFFFFFFFFFFFFFFFFFFFFFFFFFFFFFFFFFFFF AND PUSH20 0xFFFFFFFFFFFFFFFFFFFFFFFFFFFFFFFFFFFFFFFF AND DUP2 MSTORE PUSH1 0x20 ADD SWAP1 DUP2 MSTORE PUSH1 0x20 ADD PUSH0 KECCAK256 PUSH0 PUSH2 0x100 EXP DUP2 SLOAD DUP2 PUSH1 0xFF MUL NOT AND SWAP1 DUP4 ISZERO ISZERO MUL OR SWAP1 SSTORE POP PUSH1 0x5 PUSH0 DUP2 DUP2 SWAP1 SLOAD SWAP1 PUSH2 0x100 EXP SWAP1 DIV PUSH2 0xFFFF AND DUP1 SWAP3 SWAP2 SWAP1 PUSH2 0xC5E SWAP1 PUSH2 0x195F JUMP JUMPDEST SWAP2 SWAP1 PUSH2 0x100 EXP DUP2 SLOAD DUP2 PUSH2 0xFFFF MUL NOT AND SWAP1 DUP4 PUSH2 0xFFFF AND MUL OR SWAP1 SSTORE POP POP PUSH0 DUP2 GT ISZERO PUSH2 0xCC6 JUMPI CALLER PUSH20 0xFFFFFFFFFFFFFFFFFFFFFFFFFFFFFFFFFFFFFFFF AND PUSH2 0x8FC DUP3 SWAP1 DUP2 ISZERO MUL SWAP1 PUSH1 0x40 MLOAD PUSH0 PUSH1 0x40 MLOAD DUP1 DUP4 SUB DUP2 DUP6 DUP9 DUP9 CALL SWAP4 POP POP POP POP ISZERO DUP1 ISZERO PUSH2 0xCC4 JUMPI RETURNDATASIZE PUSH0 DUP1 RETURNDATACOPY RETURNDATASIZE PUSH0 REVERT JUMPDEST POP JUMPDEST POP POP JUMP JUMPDEST PUSH1 0x2 PUSH0 SWAP1 SLOAD SWAP1 PUSH2 0x100 EXP SWAP1 DIV PUSH2 0xFFFF AND DUP2 JUMP JUMPDEST PUSH1 0x4 PUSH1 0x20 MSTORE DUP1 PUSH0 MSTORE PUSH1 0x40 PUSH0 KECCAK256 PUSH0 SWAP2 POP SLOAD SWAP1 PUSH2 0x100 EXP SWAP1 DIV PUSH1 0xFF AND DUP2 JUMP JUMPDEST PUSH0 DUP1 SLOAD SWAP1 PUSH2 0x100 EXP SWAP1 DIV PUSH20 0xFFFFFFFFFFFFFFFFFFFFFFFFFFFFFFFFFFFFFFFF AND DUP2 JUMP JUMPDEST PUSH1 0x5 PUSH1 0x9 SWAP1 SLOAD SWAP1 PUSH2 0x100 EXP SWAP1 DIV PUSH1 0xFF AND DUP2 JUMP JUMPDEST PUSH1 0x5 PUSH1 0x8 SWAP1 SLOAD SWAP1 PUSH2 0x100 EXP SWAP1 DIV PUSH1 0xFF AND DUP2 JUMP JUMPDEST PUSH0 DUP1 SLOAD SWAP1 PUSH2 0x100 EXP SWAP1 DIV PUSH20 0xFFFFFFFFFFFFFFFFFFFFFFFFFFFFFFFFFFFFFFFF AND PUSH20 0xFFFFFFFFFFFFFFFFFFFFFFFFFFFFFFFFFFFFFFFF AND CALLER PUSH20 0xFFFFFFFFFFFFFFFFFFFFFFFFFFFFFFFFFFFFFFFF AND EQ PUSH2 0xD99 JUMPI PUSH0 DUP1 REVERT JUMPDEST PUSH0 CALLVALUE GT PUSH2 0xDDB JUMPI PUSH1 0x40 MLOAD PUSH32 0x8C379A000000000000000000000000000000000000000000000000000000000 DUP2 MSTORE PUSH1 0x4 ADD PUSH2 0xDD2 SWAP1 PUSH2 0x19F8 JUMP JUMPDEST PUSH1 0x40 MLOAD DUP1 SWAP2 SUB SWAP1 REVERT JUMPDEST PUSH0 PUSH1 0x5 PUSH1 0x2 SWAP1 SLOAD SWAP1 PUSH2 0x100 EXP SWAP1 DIV PUSH6 0xFFFFFFFFFFFF AND PUSH6 0xFFFFFFFFFFFF AND EQ PUSH2 0xE39 JUMPI PUSH1 0x40 MLOAD PUSH32 0x8C379A000000000000000000000000000000000000000000000000000000000 DUP2 MSTORE PUSH1 0x4 ADD PUSH2 0xE30 SWAP1 PUSH2 0x1A60 JUMP JUMPDEST PUSH1 0x40 MLOAD DUP1 SWAP2 SUB SWAP1 REVERT JUMPDEST PUSH1 0x5 PUSH0 SWAP1 SLOAD SWAP1 PUSH2 0x100 EXP SWAP1 DIV PUSH2 0xFFFF AND PUSH2 0xFFFF AND DUP2 PUSH2 0xE58 SWAP2 SWAP1 PUSH2 0x1A7E JUMP JUMPDEST PUSH1 0x5 PUSH1 0x2 PUSH2 0x100 EXP DUP2 SLOAD DUP2 PUSH6 0xFFFFFFFFFFFF MUL NOT AND SWAP1 DUP4 PUSH6 0xFFFFFFFFFFFF AND MUL OR SWAP1 SSTORE POP PUSH1 0x1 PUSH1 0x5 PUSH1 0x8 PUSH2 0x100 EXP DUP2 SLOAD DUP2 PUSH1 0xFF MUL NOT AND SWAP1 DUP4 ISZERO ISZERO MUL OR SWAP1 SSTORE POP POP JUMP JUMPDEST PUSH1 0x1 DUP1 SLOAD PUSH2 0xEA7 SWAP1 PUSH2 0x1ADB JUMP JUMPDEST DUP1 PUSH1 0x1F ADD PUSH1 0x20 DUP1 SWAP2 DIV MUL PUSH1 0x20 ADD PUSH1 0x40 MLOAD SWAP1 DUP2 ADD PUSH1 0x40 MSTORE DUP1 SWAP3 SWAP2 SWAP1 DUP2 DUP2 MSTORE PUSH1 0x20 ADD DUP3 DUP1 SLOAD PUSH2 0xED3 SWAP1 PUSH2 0x1ADB JUMP JUMPDEST DUP1 ISZERO PUSH2 0xF1E JUMPI DUP1 PUSH1 0x1F LT PUSH2 0xEF5 JUMPI PUSH2 0x100 DUP1 DUP4 SLOAD DIV MUL DUP4 MSTORE SWAP2 PUSH1 0x20 ADD SWAP2 PUSH2 0xF1E JUMP JUMPDEST DUP3 ADD SWAP2 SWAP1 PUSH0 MSTORE PUSH1 0x20 PUSH0 KECCAK256 SWAP1 JUMPDEST DUP2 SLOAD DUP2 MSTORE SWAP1 PUSH1 0x1 ADD SWAP1 PUSH1 0x20 ADD DUP1 DUP4 GT PUSH2 0xF01 JUMPI DUP3 SWAP1 SUB PUSH1 0x1F AND DUP3 ADD SWAP2 JUMPDEST POP POP POP POP POP DUP2 JUMP JUMPDEST PUSH0 DUP1 SLOAD SWAP1 PUSH2 0x100 EXP SWAP1 DIV PUSH20 0xFFFFFFFFFFFFFFFFFFFFFFFFFFFFFFFFFFFFFFFF AND PUSH20 0xFFFFFFFFFFFFFFFFFFFFFFFFFFFFFFFFFFFFFFFF AND CALLER PUSH20 0xFFFFFFFFFFFFFFFFFFFFFFFFFFFFFFFFFFFFFFFF AND EQ PUSH2 0xF7C JUMPI PUSH0 DUP1 REVERT JUMPDEST PUSH0 PUSH1 0x5 PUSH0 SWAP1 SLOAD SWAP1 PUSH2 0x100 EXP SWAP1 DIV PUSH2 0xFFFF AND PUSH2 0xFFFF AND EQ PUSH2 0xFD1 JUMPI PUSH1 0x40 MLOAD PUSH32 0x8C379A000000000000000000000000000000000000000000000000000000000 DUP2 MSTORE PUSH1 0x4 ADD PUSH2 0xFC8 SWAP1 PUSH2 0x1BA1 JUMP JUMPDEST PUSH1 0x40 MLOAD DUP1 SWAP2 SUB SWAP1 REVERT JUMPDEST DUP1 PUSH1 0x2 PUSH0 PUSH2 0x100 EXP DUP2 SLOAD DUP2 PUSH2 0xFFFF MUL NOT AND SWAP1 DUP4 PUSH2 0xFFFF AND MUL OR SWAP1 SSTORE POP POP JUMP JUMPDEST PUSH0 PUSH6 0xFFFFFFFFFFFF DUP3 AND SWAP1 POP SWAP2 SWAP1 POP JUMP JUMPDEST PUSH2 0x100A DUP2 PUSH2 0xFF0 JUMP JUMPDEST DUP3 MSTORE POP POP JUMP JUMPDEST PUSH0 PUSH1 0x20 DUP3 ADD SWAP1 POP PUSH2 0x1023 PUSH0 DUP4 ADD DUP5 PUSH2 0x1001 JUMP JUMPDEST SWAP3 SWAP2 POP POP JUMP JUMPDEST PUSH0 DUP1 REVERT JUMPDEST PUSH0 PUSH4 0xFFFFFFFF DUP3 AND SWAP1 POP SWAP2 SWAP1 POP JUMP JUMPDEST PUSH2 0x1045 DUP2 PUSH2 0x102D JUMP JUMPDEST DUP2 EQ PUSH2 0x104F JUMPI PUSH0 DUP1 REVERT JUMPDEST POP JUMP JUMPDEST PUSH0 DUP2 CALLDATALOAD SWAP1 POP PUSH2 0x1060 DUP2 PUSH2 0x103C JUMP JUMPDEST SWAP3 SWAP2 POP POP JUMP JUMPDEST PUSH0 PUSH1 0x20 DUP3 DUP5 SUB SLT ISZERO PUSH2 0x107B JUMPI PUSH2 0x107A PUSH2 0x1029 JUMP JUMPDEST JUMPDEST PUSH0 PUSH2 0x1088 DUP5 DUP3 DUP6 ADD PUSH2 0x1052 JUMP JUMPDEST SWAP2 POP POP SWAP3 SWAP2 POP POP JUMP JUMPDEST PUSH0 PUSH20 0xFFFFFFFFFFFFFFFFFFFFFFFFFFFFFFFFFFFFFFFF DUP3 AND SWAP1 POP SWAP2 SWAP1 POP JUMP JUMPDEST PUSH0 PUSH2 0x10BA DUP3 PUSH2 0x1091 JUMP JUMPDEST SWAP1 POP SWAP2 SWAP1 POP JUMP JUMPDEST PUSH2 0x10CA DUP2 PUSH2 0x10B0 JUMP JUMPDEST DUP2 EQ PUSH2 0x10D4 JUMPI PUSH0 DUP1 REVERT JUMPDEST POP JUMP JUMPDEST PUSH0 DUP2 CALLDATALOAD SWAP1 POP PUSH2 0x10E5 DUP2 PUSH2 0x10C1 JUMP JUMPDEST SWAP3 SWAP2 POP POP JUMP JUMPDEST PUSH0 PUSH1 0x20 DUP3 DUP5 SUB SLT ISZERO PUSH2 0x1100 JUMPI PUSH2 0x10FF PUSH2 0x1029 JUMP JUMPDEST JUMPDEST PUSH0 PUSH2 0x110D DUP5 DUP3 DUP6 ADD PUSH2 0x10D7 JUMP JUMPDEST SWAP2 POP POP SWAP3 SWAP2 POP POP JUMP JUMPDEST PUSH0 DUP2 ISZERO ISZERO SWAP1 POP SWAP2 SWAP1 POP JUMP JUMPDEST PUSH2 0x112A DUP2 PUSH2 0x1116 JUMP JUMPDEST DUP3 MSTORE POP POP JUMP JUMPDEST PUSH0 PUSH1 0x20 DUP3 ADD SWAP1 POP PUSH2 0x1143 PUSH0 DUP4 ADD DUP5 PUSH2 0x1121 JUMP JUMPDEST SWAP3 SWAP2 POP POP JUMP JUMPDEST PUSH0 PUSH2 0xFFFF DUP3 AND SWAP1 POP SWAP2 SWAP1 POP JUMP JUMPDEST PUSH2 0x115F DUP2 PUSH2 0x1149 JUMP JUMPDEST DUP3 MSTORE POP POP JUMP JUMPDEST PUSH0 PUSH1 0x20 DUP3 ADD SWAP1 POP PUSH2 0x1178 PUSH0 DUP4 ADD DUP5 PUSH2 0x1156 JUMP JUMPDEST SWAP3 SWAP2 POP POP JUMP JUMPDEST PUSH2 0x1187 DUP2 PUSH2 0x102D JUMP JUMPDEST DUP3 MSTORE POP POP JUMP JUMPDEST PUSH0 PUSH1 0x20 DUP3 ADD SWAP1 POP PUSH2 0x11A0 PUSH0 DUP4 ADD DUP5 PUSH2 0x117E JUMP JUMPDEST SWAP3 SWAP2 POP POP JUMP JUMPDEST PUSH2 0x11AF DUP2 PUSH2 0x10B0 JUMP JUMPDEST DUP3 MSTORE POP POP JUMP JUMPDEST PUSH0 PUSH1 0x20 DUP3 ADD SWAP1 POP PUSH2 0x11C8 PUSH0 DUP4 ADD DUP5 PUSH2 0x11A6 JUMP JUMPDEST SWAP3 SWAP2 POP POP JUMP JUMPDEST PUSH2 0x11D7 DUP2 PUSH2 0xFF0 JUMP JUMPDEST DUP2 EQ PUSH2 0x11E1 JUMPI PUSH0 DUP1 REVERT JUMPDEST POP JUMP JUMPDEST PUSH0 DUP2 CALLDATALOAD SWAP1 POP PUSH2 0x11F2 DUP2 PUSH2 0x11CE JUMP JUMPDEST SWAP3 SWAP2 POP POP JUMP JUMPDEST PUSH0 PUSH1 0x20 DUP3 DUP5 SUB SLT ISZERO PUSH2 0x120D JUMPI PUSH2 0x120C PUSH2 0x1029 JUMP JUMPDEST JUMPDEST PUSH0 PUSH2 0x121A DUP5 DUP3 DUP6 ADD PUSH2 0x11E4 JUMP JUMPDEST SWAP2 POP POP SWAP3 SWAP2 POP POP JUMP JUMPDEST PUSH0 DUP2 MLOAD SWAP1 POP SWAP2 SWAP1 POP JUMP JUMPDEST PUSH0 DUP3 DUP3 MSTORE PUSH1 0x20 DUP3 ADD SWAP1 POP SWAP3 SWAP2 POP POP JUMP JUMPDEST PUSH0 JUMPDEST DUP4 DUP2 LT ISZERO PUSH2 0x125A JUMPI DUP1 DUP3 ADD MLOAD DUP2 DUP5 ADD MSTORE PUSH1 0x20 DUP2 ADD SWAP1 POP PUSH2 0x123F JUMP JUMPDEST PUSH0 DUP5 DUP5 ADD MSTORE POP POP POP POP JUMP JUMPDEST PUSH0 PUSH1 0x1F NOT PUSH1 0x1F DUP4 ADD AND SWAP1 POP SWAP2 SWAP1 POP JUMP JUMPDEST PUSH0 PUSH2 0x127F DUP3 PUSH2 0x1223 JUMP JUMPDEST PUSH2 0x1289 DUP2 DUP6 PUSH2 0x122D JUMP JUMPDEST SWAP4 POP PUSH2 0x1299 DUP2 DUP6 PUSH1 0x20 DUP7 ADD PUSH2 0x123D JUMP JUMPDEST PUSH2 0x12A2 DUP2 PUSH2 0x1265 JUMP JUMPDEST DUP5 ADD SWAP2 POP POP SWAP3 SWAP2 POP POP JUMP JUMPDEST PUSH0 PUSH1 0x20 DUP3 ADD SWAP1 POP DUP2 DUP2 SUB PUSH0 DUP4 ADD MSTORE PUSH2 0x12C5 DUP2 DUP5 PUSH2 0x1275 JUMP JUMPDEST SWAP1 POP SWAP3 SWAP2 POP POP JUMP JUMPDEST PUSH2 0x12D6 DUP2 PUSH2 0x1149 JUMP JUMPDEST DUP2 EQ PUSH2 0x12E0 JUMPI PUSH0 DUP1 REVERT JUMPDEST POP JUMP JUMPDEST PUSH0 DUP2 CALLDATALOAD SWAP1 POP PUSH2 0x12F1 DUP2 PUSH2 0x12CD JUMP JUMPDEST SWAP3 SWAP2 POP POP JUMP JUMPDEST PUSH0 PUSH1 0x20 DUP3 DUP5 SUB SLT ISZERO PUSH2 0x130C JUMPI PUSH2 0x130B PUSH2 0x1029 JUMP JUMPDEST JUMPDEST PUSH0 PUSH2 0x1319 DUP5 DUP3 DUP6 ADD PUSH2 0x12E3 JUMP JUMPDEST SWAP2 POP POP SWAP3 SWAP2 POP POP JUMP JUMPDEST PUSH32 0x4E6F2072652D656E7472616E6379000000000000000000000000000000000000 PUSH0 DUP3 ADD MSTORE POP JUMP JUMPDEST PUSH0 PUSH2 0x1356 PUSH1 0xE DUP4 PUSH2 0x122D JUMP JUMPDEST SWAP2 POP PUSH2 0x1361 DUP3 PUSH2 0x1322 JUMP JUMPDEST PUSH1 0x20 DUP3 ADD SWAP1 POP SWAP2 SWAP1 POP JUMP JUMPDEST PUSH0 PUSH1 0x20 DUP3 ADD SWAP1 POP DUP2 DUP2 SUB PUSH0 DUP4 ADD MSTORE PUSH2 0x1383 DUP2 PUSH2 0x134A JUMP JUMPDEST SWAP1 POP SWAP2 SWAP1 POP JUMP JUMPDEST PUSH32 0x4B65696E20476577696E6E2065696E67657A61686C7400000000000000000000 PUSH0 DUP3 ADD MSTORE POP JUMP JUMPDEST PUSH0 PUSH2 0x13BE PUSH1 0x16 DUP4 PUSH2 0x122D JUMP JUMPDEST SWAP2 POP PUSH2 0x13C9 DUP3 PUSH2 0x138A JUMP JUMPDEST PUSH1 0x20 DUP3 ADD SWAP1 POP SWAP2 SWAP1 POP JUMP JUMPDEST PUSH0 PUSH1 0x20 DUP3 ADD SWAP1 POP DUP2 DUP2 SUB PUSH0 DUP4 ADD MSTORE PUSH2 0x13EB DUP2 PUSH2 0x13B2 JUMP JUMPDEST SWAP1 POP SWAP2 SWAP1 POP JUMP JUMPDEST PUSH32 0x44752062697374206B65696E204D6974737069656C6572000000000000000000 PUSH0 DUP3 ADD MSTORE POP JUMP JUMPDEST PUSH0 PUSH2 0x1426 PUSH1 0x17 DUP4 PUSH2 0x122D JUMP JUMPDEST SWAP2 POP PUSH2 0x1431 DUP3 PUSH2 0x13F2 JUMP JUMPDEST PUSH1 0x20 DUP3 ADD SWAP1 POP SWAP2 SWAP1 POP JUMP JUMPDEST PUSH0 PUSH1 0x20 DUP3 ADD SWAP1 POP DUP2 DUP2 SUB PUSH0 DUP4 ADD MSTORE PUSH2 0x1453 DUP2 PUSH2 0x141A JUMP JUMPDEST SWAP1 POP SWAP2 SWAP1 POP JUMP JUMPDEST PUSH32 0x4465696E20476577696E6E20777572646520626572656974732061757367657A PUSH0 DUP3 ADD MSTORE PUSH32 0x61686C7400000000000000000000000000000000000000000000000000000000 PUSH1 0x20 DUP3 ADD MSTORE POP JUMP JUMPDEST PUSH0 PUSH2 0x14B4 PUSH1 0x24 DUP4 PUSH2 0x122D JUMP JUMPDEST SWAP2 POP PUSH2 0x14BF DUP3 PUSH2 0x145A JUMP JUMPDEST PUSH1 0x40 DUP3 ADD SWAP1 POP SWAP2 SWAP1 POP JUMP JUMPDEST PUSH0 PUSH1 0x20 DUP3 ADD SWAP1 POP DUP2 DUP2 SUB PUSH0 DUP4 ADD MSTORE PUSH2 0x14E1 DUP2 PUSH2 0x14A8 JUMP JUMPDEST SWAP1 POP SWAP2 SWAP1 POP JUMP JUMPDEST PUSH0 DUP2 SWAP1 POP SWAP3 SWAP2 POP POP JUMP JUMPDEST POP JUMP JUMPDEST PUSH0 PUSH2 0x1500 PUSH0 DUP4 PUSH2 0x14E8 JUMP JUMPDEST SWAP2 POP PUSH2 0x150B DUP3 PUSH2 0x14F2 JUMP JUMPDEST PUSH0 DUP3 ADD SWAP1 POP SWAP2 SWAP1 POP JUMP JUMPDEST PUSH0 PUSH2 0x151F DUP3 PUSH2 0x14F5 JUMP JUMPDEST SWAP2 POP DUP2 SWAP1 POP SWAP2 SWAP1 POP JUMP JUMPDEST PUSH32 0x4175737A61686C756E672064657320476577696E6E73206665686C6765736368 PUSH0 DUP3 ADD MSTORE PUSH32 0x6C6167656E000000000000000000000000000000000000000000000000000000 PUSH1 0x20 DUP3 ADD MSTORE POP JUMP JUMPDEST PUSH0 PUSH2 0x1583 PUSH1 0x25 DUP4 PUSH2 0x122D JUMP JUMPDEST SWAP2 POP PUSH2 0x158E DUP3 PUSH2 0x1529 JUMP JUMPDEST PUSH1 0x40 DUP3 ADD SWAP1 POP SWAP2 SWAP1 POP JUMP JUMPDEST PUSH0 PUSH1 0x20 DUP3 ADD SWAP1 POP DUP2 DUP2 SUB PUSH0 DUP4 ADD MSTORE PUSH2 0x15B0 DUP2 PUSH2 0x1577 JUMP JUMPDEST SWAP1 POP SWAP2 SWAP1 POP JUMP JUMPDEST PUSH32 0x457320676962742062657265697473204D6974737069656C65722E2050726569 PUSH0 DUP3 ADD MSTORE PUSH32 0x7361656E646572756E67206E69636874206D656872206D6F65676C6963682E00 PUSH1 0x20 DUP3 ADD MSTORE POP JUMP JUMPDEST PUSH0 PUSH2 0x1611 PUSH1 0x3F DUP4 PUSH2 0x122D JUMP JUMPDEST SWAP2 POP PUSH2 0x161C DUP3 PUSH2 0x15B7 JUMP JUMPDEST PUSH1 0x40 DUP3 ADD SWAP1 POP SWAP2 SWAP1 POP JUMP JUMPDEST PUSH0 PUSH1 0x20 DUP3 ADD SWAP1 POP DUP2 DUP2 SUB PUSH0 DUP4 ADD MSTORE PUSH2 0x163E DUP2 PUSH2 0x1605 JUMP JUMPDEST SWAP1 POP SWAP2 SWAP1 POP JUMP JUMPDEST PUSH32 0x457320676962742062657265697473204D6974737069656C65722E2041656E64 PUSH0 DUP3 ADD MSTORE PUSH32 0x6572756E67206E69636874206D656872206D6F65676C6963682E000000000000 PUSH1 0x20 DUP3 ADD MSTORE POP JUMP JUMPDEST PUSH0 PUSH2 0x169F PUSH1 0x3A DUP4 PUSH2 0x122D JUMP JUMPDEST SWAP2 POP PUSH2 0x16AA DUP3 PUSH2 0x1645 JUMP JUMPDEST PUSH1 0x40 DUP3 ADD SWAP1 POP SWAP2 SWAP1 POP JUMP JUMPDEST PUSH0 PUSH1 0x20 DUP3 ADD SWAP1 POP DUP2 DUP2 SUB PUSH0 DUP4 ADD MSTORE PUSH2 0x16CC DUP2 PUSH2 0x1693 JUMP JUMPDEST SWAP1 POP SWAP2 SWAP1 POP JUMP JUMPDEST PUSH32 0x4E487B7100000000000000000000000000000000000000000000000000000000 PUSH0 MSTORE PUSH1 0x12 PUSH1 0x4 MSTORE PUSH1 0x24 PUSH0 REVERT JUMPDEST PUSH32 0x4E487B7100000000000000000000000000000000000000000000000000000000 PUSH0 MSTORE PUSH1 0x11 PUSH1 0x4 MSTORE PUSH1 0x24 PUSH0 REVERT JUMPDEST PUSH0 PUSH2 0x1737 DUP3 PUSH2 0x102D JUMP JUMPDEST SWAP2 POP PUSH2 0x1742 DUP4 PUSH2 0x102D JUMP JUMPDEST SWAP3 POP DUP3 PUSH2 0x1752 JUMPI PUSH2 0x1751 PUSH2 0x16D3 JUMP JUMPDEST JUMPDEST DUP3 DUP3 DIV SWAP1 POP SWAP3 SWAP2 POP POP JUMP JUMPDEST PUSH32 0x5A7520676572696E6765722045696E7A61686C756E6773626574726167000000 PUSH0 DUP3 ADD MSTORE POP JUMP JUMPDEST PUSH0 PUSH2 0x1791 PUSH1 0x1D DUP4 PUSH2 0x122D JUMP JUMPDEST SWAP2 POP PUSH2 0x179C DUP3 PUSH2 0x175D JUMP JUMPDEST PUSH1 0x20 DUP3 ADD SWAP1 POP SWAP2 SWAP1 POP JUMP JUMPDEST PUSH0 PUSH1 0x20 DUP3 ADD SWAP1 POP DUP2 DUP2 SUB PUSH0 DUP4 ADD MSTORE PUSH2 0x17BE DUP2 PUSH2 0x1785 JUMP JUMPDEST SWAP1 POP SWAP2 SWAP1 POP JUMP JUMPDEST PUSH32 0x4265726569747320616C73204D6974737069656C657220726567697374726965 PUSH0 DUP3 ADD MSTORE PUSH32 0x7274000000000000000000000000000000000000000000000000000000000000 PUSH1 0x20 DUP3 ADD MSTORE POP JUMP JUMPDEST PUSH0 PUSH2 0x181F PUSH1 0x22 DUP4 PUSH2 0x122D JUMP JUMPDEST SWAP2 POP PUSH2 0x182A DUP3 PUSH2 0x17C5 JUMP JUMPDEST PUSH1 0x40 DUP3 ADD SWAP1 POP SWAP2 SWAP1 POP JUMP JUMPDEST PUSH0 PUSH1 0x20 DUP3 ADD SWAP1 POP DUP2 DUP2 SUB PUSH0 DUP4 ADD MSTORE PUSH2 0x184C DUP2 PUSH2 0x1813 JUMP JUMPDEST SWAP1 POP SWAP2 SWAP1 POP JUMP JUMPDEST PUSH32 0x4D6178696D616C65205465696C6E65686D65727A61686C206572726569636874 PUSH0 DUP3 ADD MSTORE POP JUMP JUMPDEST PUSH0 PUSH2 0x1887 PUSH1 0x20 DUP4 PUSH2 0x122D JUMP JUMPDEST SWAP2 POP PUSH2 0x1892 DUP3 PUSH2 0x1853 JUMP JUMPDEST PUSH1 0x20 DUP3 ADD SWAP1 POP SWAP2 SWAP1 POP JUMP JUMPDEST PUSH0 PUSH1 0x20 DUP3 ADD SWAP1 POP DUP2 DUP2 SUB PUSH0 DUP4 ADD MSTORE PUSH2 0x18B4 DUP2 PUSH2 0x187B JUMP JUMPDEST SWAP1 POP SWAP2 SWAP1 POP JUMP JUMPDEST PUSH32 0x476577696E6E20777572646520626572656974732065696E67657A61686C7400 PUSH0 DUP3 ADD MSTORE POP JUMP JUMPDEST PUSH0 PUSH2 0x18EF PUSH1 0x1F DUP4 PUSH2 0x122D JUMP JUMPDEST SWAP2 POP PUSH2 0x18FA DUP3 PUSH2 0x18BB JUMP JUMPDEST PUSH1 0x20 DUP3 ADD SWAP1 POP SWAP2 SWAP1 POP JUMP JUMPDEST PUSH0 PUSH1 0x20 DUP3 ADD SWAP1 POP DUP2 DUP2 SUB PUSH0 DUP4 ADD MSTORE PUSH2 0x191C DUP2 PUSH2 0x18E3 JUMP JUMPDEST SWAP1 POP SWAP2 SWAP1 POP JUMP JUMPDEST PUSH0 DUP2 SWAP1 POP SWAP2 SWAP1 POP JUMP JUMPDEST PUSH0 PUSH2 0x1936 DUP3 PUSH2 0x1923 JUMP JUMPDEST SWAP2 POP PUSH2 0x1941 DUP4 PUSH2 0x1923 JUMP JUMPDEST SWAP3 POP DUP3 DUP3 SUB SWAP1 POP DUP2 DUP2 GT ISZERO PUSH2 0x1959 JUMPI PUSH2 0x1958 PUSH2 0x1700 JUMP JUMPDEST JUMPDEST SWAP3 SWAP2 POP POP JUMP JUMPDEST PUSH0 PUSH2 0x1969 DUP3 PUSH2 0x1149 JUMP JUMPDEST SWAP2 POP PUSH2 0xFFFF DUP3 SUB PUSH2 0x197D JUMPI PUSH2 0x197C PUSH2 0x1700 JUMP JUMPDEST JUMPDEST PUSH1 0x1 DUP3 ADD SWAP1 POP SWAP2 SWAP1 POP JUMP JUMPDEST PUSH32 0x45696E7A61686C756E6773626574726167206D7573732067726F657373657220 PUSH0 DUP3 ADD MSTORE PUSH32 0x616C732030207365696E00000000000000000000000000000000000000000000 PUSH1 0x20 DUP3 ADD MSTORE POP JUMP JUMPDEST PUSH0 PUSH2 0x19E2 PUSH1 0x2A DUP4 PUSH2 0x122D JUMP JUMPDEST SWAP2 POP PUSH2 0x19ED DUP3 PUSH2 0x1988 JUMP JUMPDEST PUSH1 0x40 DUP3 ADD SWAP1 POP SWAP2 SWAP1 POP JUMP JUMPDEST PUSH0 PUSH1 0x20 DUP3 ADD SWAP1 POP DUP2 DUP2 SUB PUSH0 DUP4 ADD MSTORE PUSH2 0x1A0F DUP2 PUSH2 0x19D6 JUMP JUMPDEST SWAP1 POP SWAP2 SWAP1 POP JUMP JUMPDEST PUSH32 0x476577696E6E20777572646520626572656974732065696E67657A61686C742E PUSH0 DUP3 ADD MSTORE POP JUMP JUMPDEST PUSH0 PUSH2 0x1A4A PUSH1 0x20 DUP4 PUSH2 0x122D JUMP JUMPDEST SWAP2 POP PUSH2 0x1A55 DUP3 PUSH2 0x1A16 JUMP JUMPDEST PUSH1 0x20 DUP3 ADD SWAP1 POP SWAP2 SWAP1 POP JUMP JUMPDEST PUSH0 PUSH1 0x20 DUP3 ADD SWAP1 POP DUP2 DUP2 SUB PUSH0 DUP4 ADD MSTORE PUSH2 0x1A77 DUP2 PUSH2 0x1A3E JUMP JUMPDEST SWAP1 POP SWAP2 SWAP1 POP JUMP JUMPDEST PUSH0 PUSH2 0x1A88 DUP3 PUSH2 0xFF0 JUMP JUMPDEST SWAP2 POP PUSH2 0x1A93 DUP4 PUSH2 0xFF0 JUMP JUMPDEST SWAP3 POP DUP3 PUSH2 0x1AA3 JUMPI PUSH2 0x1AA2 PUSH2 0x16D3 JUMP JUMPDEST JUMPDEST DUP3 DUP3 DIV SWAP1 POP SWAP3 SWAP2 POP POP JUMP JUMPDEST PUSH32 0x4E487B7100000000000000000000000000000000000000000000000000000000 PUSH0 MSTORE PUSH1 0x22 PUSH1 0x4 MSTORE PUSH1 0x24 PUSH0 REVERT JUMPDEST PUSH0 PUSH1 0x2 DUP3 DIV SWAP1 POP PUSH1 0x1 DUP3 AND DUP1 PUSH2 0x1AF2 JUMPI PUSH1 0x7F DUP3 AND SWAP2 POP JUMPDEST PUSH1 0x20 DUP3 LT DUP2 SUB PUSH2 0x1B05 JUMPI PUSH2 0x1B04 PUSH2 0x1AAE JUMP JUMPDEST JUMPDEST POP SWAP2 SWAP1 POP JUMP JUMPDEST PUSH32 0x457320676962742062657265697473204D6974737069656C65722E2041656E64 PUSH0 DUP3 ADD MSTORE PUSH32 0x6572756E672064657220416E7A61686C20616E204D6974737069656C65726E20 PUSH1 0x20 DUP3 ADD MSTORE PUSH32 0x6E69636874206D656872206D6F65676C6963682E000000000000000000000000 PUSH1 0x40 DUP3 ADD MSTORE POP JUMP JUMPDEST PUSH0 PUSH2 0x1B8B PUSH1 0x54 DUP4 PUSH2 0x122D JUMP JUMPDEST SWAP2 POP PUSH2 0x1B96 DUP3 PUSH2 0x1B0B JUMP JUMPDEST PUSH1 0x60 DUP3 ADD SWAP1 POP SWAP2 SWAP1 POP JUMP JUMPDEST PUSH0 PUSH1 0x20 DUP3 ADD SWAP1 POP DUP2 DUP2 SUB PUSH0 DUP4 ADD MSTORE PUSH2 0x1BB8 DUP2 PUSH2 0x1B7F JUMP JUMPDEST SWAP1 POP SWAP2 SWAP1 POP JUMP INVALID LOG2 PUSH5 0x6970667358 0x22 SLT KECCAK256 0xD6 DUP5 0xB7 PUSH16 0x7FA460A24046C1734563F6C5731EA397 BYTE PUSH27 0x8B2148255C3CC337DA6964736F6C63430008170033000000000000 "},"gasEstimates":{"creation":{"codeDepositCost":"1431400","executionCost":"infinite","totalCost":"infinite"},"external":{"anzahlMitspielerAendern(uint16)":"29112","anzahlTeilnehmerAktuell()":"2533","auszahlung()":"2538","erlaubteMitspielerAdresseHinzufuegen(address)":"29243","gewinnAusgezahlt(address)":"2900","gewinnAuszahlen()":"infinite","gewinnEinzahlen(uint48)":"infinite","gewinnProMitspieler()":"2585","gruender()":"2594","kannGewinnAbgeholtWerden()":"2561","lottoscheinNummer()":"2607","maxTeilnehmerAnzahl()":"2511","mitmachen()":"infinite","mitspieler(address)":"2878","nurErlaubteMitspieler()":"2539","preisLottoschein()":"2606","preisLottoscheinAendern(uint32)":"29076","tippgemeinschaftsName()":"infinite"}},"methodIdentifiers":{"anzahlMitspielerAendern(uint16)":"e068561a","anzahlTeilnehmerAktuell()":"3babb15a","auszahlung()":"084263f5","erlaubteMitspielerAdresseHinzufuegen(address)":"43767832","gewinnAusgezahlt(address)":"91243239","gewinnAuszahlen()":"0c96b701","gewinnEinzahlen(uint48)":"c6ca9d19","gewinnProMitspieler()":"0f085e50","gruender()":"ad2c046c","kannGewinnAbgeholtWerden()":"b609e684","lottoscheinNummer()":"143b7caf","maxTeilnehmerAnzahl()":"70a41bc0","mitmachen()":"526024ea","mitspieler(address)":"36927060","nurErlaubteMitspieler()":"b08c7076","preisLottoschein()":"3f0f5d51","preisLottoscheinAendern(uint32)":"31c45120","tippgemeinschaftsName()":"d27d06c0"}},"storageLayout":{"storage":[{"astId":84,"contract":"Lottogemeinschaft.sol:Lottogemeinschaft","label":"gruender","offset":0,"slot":"0","type":"t_address"},{"astId":86,"contract":"Lottogemeinschaft.sol:Lottogemeinschaft","label":"tippgemeinschaftsName","offset":0,"slot":"1","type":"t_string_storage"},{"astId":88,"contract":"Lottogemeinschaft.sol:Lottogemeinschaft","label":"maxTeilnehmerAnzahl","offset":0,"slot":"2","type":"t_uint16"},{"astId":90,"contract":"Lottogemeinschaft.sol:Lottogemeinschaft","label":"auszahlung","offset":2,"slot":"2","type":"t_uint48"},{"astId":92,"contract":"Lottogemeinschaft.sol:Lottogemeinschaft","label":"preisLottoschein","offset":8,"slot":"2","type":"t_uint32"},{"astId":94,"contract":"Lottogemeinschaft.sol:Lottogemeinschaft","label":"lottoscheinNummer","offset":12,"slot":"2","type":"t_uint48"},{"astId":98,"contract":"Lottogemeinschaft.sol:Lottogemeinschaft","label":"mitspieler","offset":0,"slot":"3","type":"t_mapping(t_address,t_bool)"},{"astId":102,"contract":"Lottogemeinschaft.sol:Lottogemeinschaft","label":"gewinnAusgezahlt","offset":0,"slot":"4","type":"t_mapping(t_address,t_bool)"},{"astId":104,"contract":"Lottogemeinschaft.sol:Lottogemeinschaft","label":"anzahlTeilnehmerAktuell","offset":0,"slot":"5","type":"t_uint16"},{"astId":107,"contract":"Lottogemeinschaft.sol:Lottogemeinschaft","label":"gewinnProMitspieler","offset":2,"slot":"5","type":"t_uint48"},{"astId":110,"contract":"Lottogemeinschaft.sol:Lottogemeinschaft","label":"kannGewinnAbgeholtWerden","offset":8,"slot":"5","type":"t_bool"},{"astId":113,"contract":"Lottogemeinschaft.sol:Lottogemeinschaft","label":"nurErlaubteMitspieler","offset":9,"slot":"5","type":"t_bool"},{"astId":117,"contract":"Lottogemeinschaft.sol:Lottogemeinschaft","label":"erlaubteMitspieler","offset":0,"slot":"6","type":"t_mapping(t_address,t_bool)"},{"astId":119,"contract":"Lottogemeinschaft.sol:Lottogemeinschaft","label":"locked","offset":0,"slot":"7","type":"t_bool"}],"types":{"t_address":{"encoding":"inplace","label":"address","numberOfBytes":"20"},"t_bool":{"encoding":"inplace","label":"bool","numberOfBytes":"1"},"t_mapping(t_address,t_bool)":{"encoding":"mapping","key":"t_address","label":"mapping(address => bool)","numberOfBytes":"32","value":"t_bool"},"t_string_storage":{"encoding":"bytes","label":"string","numberOfBytes":"32"},"t_uint16":{"encoding":"inplace","label":"uint16","numberOfBytes":"2"},"t_uint32":{"encoding":"inplace","label":"uint32","numberOfBytes":"4"},"t_uint48":{"encoding":"inplace","label":"uint48","numberOfBytes":"6"}}},"userdoc":{"kind":"user","methods":{},"version":1}}