{"abi":[{"inputs":[{"internalType":"string","name":"name","type":"string"},{"internalType":"address","name":"ersteller","type":"address"},{"internalType":"uint16","name":"anzahl","type":"uint16"},{"internalType":"uint32","name":"preis","type":"uint32"},{"internalType":"string","name":"scheinNummer","type":"string"},{"internalType":"bool","name":"mitspielerBestimmen","type":"bool"}],"stateMutability":"nonpayable","type":"constructor"},{"inputs":[{"internalType":"uint16","name":"neueAnzahlMaxTeilnehmer","type":"uint16"}],"name":"anzahlMitspielerAendern","outputs":[],"stateMutability":"nonpayable","type":"function"},{"inputs":[],"name":"anzahlTeilnehmerAktuell","outputs":[{"internalType":"uint16","name":"","type":"uint16"}],"stateMutability":"view","type":"function"},{"inputs":[],"name":"aufgeloest","outputs":[{"internalType":"bool","name":"","type":"bool"}],"stateMutability":"view","type":"function"},{"inputs":[],"name":"auszahlung","outputs":[{"internalType":"uint48","name":"","type":"uint48"}],"stateMutability":"view","type":"function"},{"inputs":[{"internalType":"address","name":"","type":"address"}],"name":"einsatzZurueckGezahlt","outputs":[{"internalType":"bool","name":"","type":"bool"}],"stateMutability":"view","type":"function"},{"inputs":[],"name":"einsatzZurueckholen","outputs":[],"stateMutability":"nonpayable","type":"function"},{"inputs":[{"internalType":"address","name":"_erlaubterMitspieler","type":"address"}],"name":"erlaubteMitspielerAdresseHinzufuegen","outputs":[],"stateMutability":"nonpayable","type":"function"},{"inputs":[{"internalType":"address","name":"","type":"address"}],"name":"erlaubterMitspieler","outputs":[{"internalType":"bool","name":"","type":"bool"}],"stateMutability":"view","type":"function"},{"inputs":[],"name":"gemeinschaftAufloesen","outputs":[],"stateMutability":"nonpayable","type":"function"},{"inputs":[],"name":"gewinnAbholen","outputs":[],"stateMutability":"nonpayable","type":"function"},{"inputs":[{"internalType":"address","name":"","type":"address"}],"name":"gewinnAusgezahlt","outputs":[{"internalType":"bool","name":"","type":"bool"}],"stateMutability":"view","type":"function"},{"inputs":[{"internalType":"uint48","name":"gewinn","type":"uint48"}],"name":"gewinnEinzahlen","outputs":[],"stateMutability":"payable","type":"function"},{"inputs":[],"name":"gewinnKannAbgeholtWerden","outputs":[{"internalType":"bool","name":"","type":"bool"}],"stateMutability":"view","type":"function"},{"inputs":[],"name":"gewinnProMitspieler","outputs":[{"internalType":"uint48","name":"","type":"uint48"}],"stateMutability":"view","type":"function"},{"inputs":[],"name":"gruender","outputs":[{"internalType":"address","name":"","type":"address"}],"stateMutability":"view","type":"function"},{"inputs":[],"name":"maxTeilnehmerAnzahl","outputs":[{"internalType":"uint16","name":"","type":"uint16"}],"stateMutability":"view","type":"function"},{"inputs":[],"name":"mitmachen","outputs":[],"stateMutability":"payable","type":"function"},{"inputs":[{"internalType":"address","name":"","type":"address"}],"name":"mitspieler","outputs":[{"internalType":"bool","name":"","type":"bool"}],"stateMutability":"view","type":"function"},{"inputs":[],"name":"nurErlaubteMitspieler","outputs":[{"internalType":"bool","name":"","type":"bool"}],"stateMutability":"view","type":"function"},{"inputs":[],"name":"preisLottoschein","outputs":[{"internalType":"uint32","name":"","type":"uint32"}],"stateMutability":"view","type":"function"},{"inputs":[{"internalType":"uint32","name":"neuerPreis","type":"uint32"}],"name":"preisLottoscheinAendern","outputs":[],"stateMutability":"nonpayable","type":"function"},{"inputs":[],"name":"preisProMitspieler","outputs":[{"internalType":"uint32","name":"","type":"uint32"}],"stateMutability":"view","type":"function"},{"inputs":[],"name":"spielauftragsNummer","outputs":[{"internalType":"string","name":"","type":"string"}],"stateMutability":"view","type":"function"},{"inputs":[],"name":"tippgemeinschaftsName","outputs":[{"internalType":"string","name":"","type":"string"}],"stateMutability":"view","type":"function"}],"devdoc":{"kind":"dev","methods":{},"version":1},"evm":{"assembly":"    /* \"Lottogemeinschaft.sol\":1709:7229  contract Lottogemeinschaft {... */\n  mstore(0x40, 0x80)\n    /* \"Lottogemeinschaft.sol\":2235:2236  0 */\n  0x00\n    /* \"Lottogemeinschaft.sol\":2199:2236  uint48 public gewinnProMitspieler = 0 */\n  0x08\n  exp(0x0100, 0x02)\n  dup2\n  sload\n  dup2\n  0xffffffffffff\n  mul\n  not\n  and\n  swap1\n  dup4\n  0xffffffffffff\n  and\n  mul\n  or\n  swap1\n  sstore\n  pop\n    /* \"Lottogemeinschaft.sol\":2279:2284  false */\n  0x00\n    /* \"Lottogemeinschaft.sol\":2242:2284  bool public gewinnKannAbgeholtWerden=false */\n  0x08\n  dup1\n  0x0100\n  exp\n  dup2\n  sload\n  dup2\n  0xff\n  mul\n  not\n  and\n  swap1\n  dup4\n  iszero\n  iszero\n  mul\n  or\n  swap1\n  sstore\n  pop\n    /* \"Lottogemeinschaft.sol\":2324:2329  false */\n  0x00\n    /* \"Lottogemeinschaft.sol\":2290:2329  bool public nurErlaubteMitspieler=false */\n  0x08\n  exp(0x0100, 0x09)\n  dup2\n  sload\n  dup2\n  0xff\n  mul\n  not\n  and\n  swap1\n  dup4\n  iszero\n  iszero\n  mul\n  or\n  swap1\n  sstore\n  pop\n    /* \"Lottogemeinschaft.sol\":2446:3090  constructor (string memory name, address ersteller, uint16 anzahl, uint32 preis, string memory scheinNummer, bool mitspielerBestimmen) {... */\n  callvalue\n  dup1\n  iszero\n  tag_1\n  jumpi\n  0x00\n  dup1\n  revert\ntag_1:\n  pop\n  mload(0x40)\n  sub(codesize, bytecodeSize)\n  dup1\n  bytecodeSize\n  dup4\n  codecopy\n  dup2\n  dup2\n  add\n  0x40\n  mstore\n  dup2\n  add\n  swap1\n  tag_2\n  swap2\n  swap1\n  tag_3\n  jump\t// in\ntag_2:\n    /* \"Lottogemeinschaft.sol\":2608:2613  65535 */\n  0xffff\n    /* \"Lottogemeinschaft.sol\":2599:2605  anzahl */\n  dup5\n    /* \"Lottogemeinschaft.sol\":2599:2613  anzahl < 65535 */\n  0xffff\n  and\n  lt\n    /* \"Lottogemeinschaft.sol\":2591:2650  require(anzahl < 65535, \"Maximal 65534 Mitspieler erlaubt\") */\n  tag_6\n  jumpi\n  mload(0x40)\n  0x08c379a000000000000000000000000000000000000000000000000000000000\n  dup2\n  mstore\n  0x04\n  add\n  tag_7\n  swap1\n  tag_8\n  jump\t// in\ntag_7:\n  mload(0x40)\n  dup1\n  swap2\n  sub\n  swap1\n  revert\ntag_6:\n    /* \"Lottogemeinschaft.sol\":2676:2686  4294967295 */\n  0xffffffff\n    /* \"Lottogemeinschaft.sol\":2668:2673  preis */\n  dup4\n    /* \"Lottogemeinschaft.sol\":2668:2686  preis < 4294967295 */\n  0xffffffff\n  and\n  lt\n    /* \"Lottogemeinschaft.sol\":2660:2717  require(preis < 4294967295, \"Maximaler Preis 4294967295\") */\n  tag_9\n  jumpi\n  mload(0x40)\n  0x08c379a000000000000000000000000000000000000000000000000000000000\n  dup2\n  mstore\n  0x04\n  add\n  tag_10\n  swap1\n  tag_11\n  jump\t// in\ntag_10:\n  mload(0x40)\n  dup1\n  swap2\n  sub\n  swap1\n  revert\ntag_9:\n    /* \"Lottogemeinschaft.sol\":2738:2747  ersteller */\n  dup5\n    /* \"Lottogemeinschaft.sol\":2727:2735  gruender */\n  0x00\n  dup1\n    /* \"Lottogemeinschaft.sol\":2727:2747  gruender = ersteller */\n  0x0100\n  exp\n  dup2\n  sload\n  dup2\n  0xffffffffffffffffffffffffffffffffffffffff\n  mul\n  not\n  and\n  swap1\n  dup4\n  0xffffffffffffffffffffffffffffffffffffffff\n  and\n  mul\n  or\n  swap1\n  sstore\n  pop\n    /* \"Lottogemeinschaft.sol\":2781:2785  name */\n  dup6\n    /* \"Lottogemeinschaft.sol\":2757:2778  tippgemeinschaftsName */\n  0x01\n    /* \"Lottogemeinschaft.sol\":2757:2785  tippgemeinschaftsName = name */\n  swap1\n  dup2\n  tag_12\n  swap2\n  swap1\n  tag_13\n  jump\t// in\ntag_12:\n  pop\n    /* \"Lottogemeinschaft.sol\":2817:2823  anzahl */\n  dup4\n    /* \"Lottogemeinschaft.sol\":2795:2814  maxTeilnehmerAnzahl */\n  0x02\n  0x00\n    /* \"Lottogemeinschaft.sol\":2795:2823  maxTeilnehmerAnzahl = anzahl */\n  0x0100\n  exp\n  dup2\n  sload\n  dup2\n  0xffff\n  mul\n  not\n  and\n  swap1\n  dup4\n  0xffff\n  and\n  mul\n  or\n  swap1\n  sstore\n  pop\n    /* \"Lottogemeinschaft.sol\":2852:2857  preis */\n  dup3\n    /* \"Lottogemeinschaft.sol\":2833:2849  preisLottoschein */\n  0x02\n  dup1\n    /* \"Lottogemeinschaft.sol\":2833:2857  preisLottoschein = preis */\n  0x0100\n  exp\n  dup2\n  sload\n  dup2\n  0xffffffff\n  mul\n  not\n  and\n  swap1\n  dup4\n  0xffffffff\n  and\n  mul\n  or\n  swap1\n  sstore\n  pop\n    /* \"Lottogemeinschaft.sol\":2891:2910  mitspielerBestimmen */\n  dup1\n    /* \"Lottogemeinschaft.sol\":2867:2888  nurErlaubteMitspieler */\n  0x08\n  0x09\n    /* \"Lottogemeinschaft.sol\":2867:2910  nurErlaubteMitspieler = mitspielerBestimmen */\n  0x0100\n  exp\n  dup2\n  sload\n  dup2\n  0xff\n  mul\n  not\n  and\n  swap1\n  dup4\n  iszero\n  iszero\n  mul\n  or\n  swap1\n  sstore\n  pop\n    /* \"Lottogemeinschaft.sol\":2942:2954  scheinNummer */\n  dup2\n    /* \"Lottogemeinschaft.sol\":2920:2939  spielauftragsNummer */\n  0x03\n    /* \"Lottogemeinschaft.sol\":2920:2954  spielauftragsNummer = scheinNummer */\n  swap1\n  dup2\n  tag_14\n  swap2\n  swap1\n  tag_13\n  jump\t// in\ntag_14:\n  pop\n    /* \"Lottogemeinschaft.sol\":3049:3053  1e18 */\n  0x0de0b6b3a7640000\n    /* \"Lottogemeinschaft.sol\":3027:3046  maxTeilnehmerAnzahl */\n  0x02\n  0x00\n  swap1\n  sload\n  swap1\n  0x0100\n  exp\n  swap1\n  div\n  0xffff\n  and\n    /* \"Lottogemeinschaft.sol\":2992:3046  uint256(preisLottoschein) * 1e18 / maxTeilnehmerAnzahl */\n  0xffff\n  and\n    /* \"Lottogemeinschaft.sol\":3020:3024  1e18 */\n  0x0de0b6b3a7640000\n    /* \"Lottogemeinschaft.sol\":3000:3016  preisLottoschein */\n  0x02\n  dup1\n  sload\n  swap1\n  0x0100\n  exp\n  swap1\n  div\n  0xffffffff\n  and\n    /* \"Lottogemeinschaft.sol\":2992:3017  uint256(preisLottoschein) */\n  0xffffffff\n  and\n    /* \"Lottogemeinschaft.sol\":2992:3024  uint256(preisLottoschein) * 1e18 */\n  tag_15\n  swap2\n  swap1\n  tag_16\n  jump\t// in\ntag_15:\n    /* \"Lottogemeinschaft.sol\":2992:3046  uint256(preisLottoschein) * 1e18 / maxTeilnehmerAnzahl */\n  tag_17\n  swap2\n  swap1\n  tag_18\n  jump\t// in\ntag_17:\n    /* \"Lottogemeinschaft.sol\":2992:3053  uint256(preisLottoschein) * 1e18 / maxTeilnehmerAnzahl / 1e18 */\n  tag_19\n  swap2\n  swap1\n  tag_18\n  jump\t// in\ntag_19:\n    /* \"Lottogemeinschaft.sol\":2964:2982  preisProMitspieler */\n  0x02\n  0x06\n    /* \"Lottogemeinschaft.sol\":2964:3054  preisProMitspieler = uint32(uint256(preisLottoschein) * 1e18 / maxTeilnehmerAnzahl / 1e18) */\n  0x0100\n  exp\n  dup2\n  sload\n  dup2\n  0xffffffff\n  mul\n  not\n  and\n  swap1\n  dup4\n  0xffffffff\n  and\n  mul\n  or\n  swap1\n  sstore\n  pop\n    /* \"Lottogemeinschaft.sol\":2446:3090  constructor (string memory name, address ersteller, uint16 anzahl, uint32 preis, string memory scheinNummer, bool mitspielerBestimmen) {... */\n  pop\n  pop\n  pop\n  pop\n  pop\n  pop\n    /* \"Lottogemeinschaft.sol\":1709:7229  contract Lottogemeinschaft {... */\n  jump(tag_20)\n    /* \"#utility.yul\":7:82   */\ntag_21:\n    /* \"#utility.yul\":40:46   */\n  0x00\n    /* \"#utility.yul\":73:75   */\n  0x40\n    /* \"#utility.yul\":67:76   */\n  mload\n    /* \"#utility.yul\":57:76   */\n  swap1\n  pop\n    /* \"#utility.yul\":7:82   */\n  swap1\n  jump\t// out\n    /* \"#utility.yul\":88:205   */\ntag_22:\n    /* \"#utility.yul\":197:198   */\n  0x00\n    /* \"#utility.yul\":194:195   */\n  dup1\n    /* \"#utility.yul\":187:199   */\n  revert\n    /* \"#utility.yul\":211:328   */\ntag_23:\n    /* \"#utility.yul\":320:321   */\n  0x00\n    /* \"#utility.yul\":317:318   */\n  dup1\n    /* \"#utility.yul\":310:322   */\n  revert\n    /* \"#utility.yul\":334:451   */\ntag_24:\n    /* \"#utility.yul\":443:444   */\n  0x00\n    /* \"#utility.yul\":440:441   */\n  dup1\n    /* \"#utility.yul\":433:445   */\n  revert\n    /* \"#utility.yul\":457:574   */\ntag_25:\n    /* \"#utility.yul\":566:567   */\n  0x00\n    /* \"#utility.yul\":563:564   */\n  dup1\n    /* \"#utility.yul\":556:568   */\n  revert\n    /* \"#utility.yul\":580:682   */\ntag_26:\n    /* \"#utility.yul\":621:627   */\n  0x00\n    /* \"#utility.yul\":672:674   */\n  0x1f\n    /* \"#utility.yul\":668:675   */\n  not\n    /* \"#utility.yul\":663:665   */\n  0x1f\n    /* \"#utility.yul\":656:661   */\n  dup4\n    /* \"#utility.yul\":652:666   */\n  add\n    /* \"#utility.yul\":648:676   */\n  and\n    /* \"#utility.yul\":638:676   */\n  swap1\n  pop\n    /* \"#utility.yul\":580:682   */\n  swap2\n  swap1\n  pop\n  jump\t// out\n    /* \"#utility.yul\":688:868   */\ntag_27:\n    /* \"#utility.yul\":736:813   */\n  0x4e487b7100000000000000000000000000000000000000000000000000000000\n    /* \"#utility.yul\":733:734   */\n  0x00\n    /* \"#utility.yul\":726:814   */\n  mstore\n    /* \"#utility.yul\":833:837   */\n  0x41\n    /* \"#utility.yul\":830:831   */\n  0x04\n    /* \"#utility.yul\":823:838   */\n  mstore\n    /* \"#utility.yul\":857:861   */\n  0x24\n    /* \"#utility.yul\":854:855   */\n  0x00\n    /* \"#utility.yul\":847:862   */\n  revert\n    /* \"#utility.yul\":874:1155   */\ntag_28:\n    /* \"#utility.yul\":957:984   */\n  tag_82\n    /* \"#utility.yul\":979:983   */\n  dup3\n    /* \"#utility.yul\":957:984   */\n  tag_26\n  jump\t// in\ntag_82:\n    /* \"#utility.yul\":949:955   */\n  dup2\n    /* \"#utility.yul\":945:985   */\n  add\n    /* \"#utility.yul\":1087:1093   */\n  dup2\n    /* \"#utility.yul\":1075:1085   */\n  dup2\n    /* \"#utility.yul\":1072:1094   */\n  lt\n    /* \"#utility.yul\":1051:1069   */\n  0xffffffffffffffff\n    /* \"#utility.yul\":1039:1049   */\n  dup3\n    /* \"#utility.yul\":1036:1070   */\n  gt\n    /* \"#utility.yul\":1033:1095   */\n  or\n    /* \"#utility.yul\":1030:1118   */\n  iszero\n  tag_83\n  jumpi\n    /* \"#utility.yul\":1098:1116   */\n  tag_84\n  tag_27\n  jump\t// in\ntag_84:\n    /* \"#utility.yul\":1030:1118   */\ntag_83:\n    /* \"#utility.yul\":1138:1148   */\n  dup1\n    /* \"#utility.yul\":1134:1136   */\n  0x40\n    /* \"#utility.yul\":1127:1149   */\n  mstore\n    /* \"#utility.yul\":917:1155   */\n  pop\n    /* \"#utility.yul\":874:1155   */\n  pop\n  pop\n  jump\t// out\n    /* \"#utility.yul\":1161:1290   */\ntag_29:\n    /* \"#utility.yul\":1195:1201   */\n  0x00\n    /* \"#utility.yul\":1222:1242   */\n  tag_86\n  tag_21\n  jump\t// in\ntag_86:\n    /* \"#utility.yul\":1212:1242   */\n  swap1\n  pop\n    /* \"#utility.yul\":1251:1284   */\n  tag_87\n    /* \"#utility.yul\":1279:1283   */\n  dup3\n    /* \"#utility.yul\":1271:1277   */\n  dup3\n    /* \"#utility.yul\":1251:1284   */\n  tag_28\n  jump\t// in\ntag_87:\n    /* \"#utility.yul\":1161:1290   */\n  swap2\n  swap1\n  pop\n  jump\t// out\n    /* \"#utility.yul\":1296:1604   */\ntag_30:\n    /* \"#utility.yul\":1358:1362   */\n  0x00\n    /* \"#utility.yul\":1448:1466   */\n  0xffffffffffffffff\n    /* \"#utility.yul\":1440:1446   */\n  dup3\n    /* \"#utility.yul\":1437:1467   */\n  gt\n    /* \"#utility.yul\":1434:1490   */\n  iszero\n  tag_89\n  jumpi\n    /* \"#utility.yul\":1470:1488   */\n  tag_90\n  tag_27\n  jump\t// in\ntag_90:\n    /* \"#utility.yul\":1434:1490   */\ntag_89:\n    /* \"#utility.yul\":1508:1537   */\n  tag_91\n    /* \"#utility.yul\":1530:1536   */\n  dup3\n    /* \"#utility.yul\":1508:1537   */\n  tag_26\n  jump\t// in\ntag_91:\n    /* \"#utility.yul\":1500:1537   */\n  swap1\n  pop\n    /* \"#utility.yul\":1592:1596   */\n  0x20\n    /* \"#utility.yul\":1586:1590   */\n  dup2\n    /* \"#utility.yul\":1582:1597   */\n  add\n    /* \"#utility.yul\":1574:1597   */\n  swap1\n  pop\n    /* \"#utility.yul\":1296:1604   */\n  swap2\n  swap1\n  pop\n  jump\t// out\n    /* \"#utility.yul\":1610:1856   */\ntag_31:\n    /* \"#utility.yul\":1691:1692   */\n  0x00\n    /* \"#utility.yul\":1701:1814   */\ntag_93:\n    /* \"#utility.yul\":1715:1721   */\n  dup4\n    /* \"#utility.yul\":1712:1713   */\n  dup2\n    /* \"#utility.yul\":1709:1722   */\n  lt\n    /* \"#utility.yul\":1701:1814   */\n  iszero\n  tag_95\n  jumpi\n    /* \"#utility.yul\":1800:1801   */\n  dup1\n    /* \"#utility.yul\":1795:1798   */\n  dup3\n    /* \"#utility.yul\":1791:1802   */\n  add\n    /* \"#utility.yul\":1785:1803   */\n  mload\n    /* \"#utility.yul\":1781:1782   */\n  dup2\n    /* \"#utility.yul\":1776:1779   */\n  dup5\n    /* \"#utility.yul\":1772:1783   */\n  add\n    /* \"#utility.yul\":1765:1804   */\n  mstore\n    /* \"#utility.yul\":1737:1739   */\n  0x20\n    /* \"#utility.yul\":1734:1735   */\n  dup2\n    /* \"#utility.yul\":1730:1740   */\n  add\n    /* \"#utility.yul\":1725:1740   */\n  swap1\n  pop\n    /* \"#utility.yul\":1701:1814   */\n  jump(tag_93)\ntag_95:\n    /* \"#utility.yul\":1848:1849   */\n  0x00\n    /* \"#utility.yul\":1839:1845   */\n  dup5\n    /* \"#utility.yul\":1834:1837   */\n  dup5\n    /* \"#utility.yul\":1830:1846   */\n  add\n    /* \"#utility.yul\":1823:1850   */\n  mstore\n    /* \"#utility.yul\":1672:1856   */\n  pop\n    /* \"#utility.yul\":1610:1856   */\n  pop\n  pop\n  pop\n  jump\t// out\n    /* \"#utility.yul\":1862:2296   */\ntag_32:\n    /* \"#utility.yul\":1951:1956   */\n  0x00\n    /* \"#utility.yul\":1976:2042   */\n  tag_97\n    /* \"#utility.yul\":1992:2041   */\n  tag_98\n    /* \"#utility.yul\":2034:2040   */\n  dup5\n    /* \"#utility.yul\":1992:2041   */\n  tag_30\n  jump\t// in\ntag_98:\n    /* \"#utility.yul\":1976:2042   */\n  tag_29\n  jump\t// in\ntag_97:\n    /* \"#utility.yul\":1967:2042   */\n  swap1\n  pop\n    /* \"#utility.yul\":2065:2071   */\n  dup3\n    /* \"#utility.yul\":2058:2063   */\n  dup2\n    /* \"#utility.yul\":2051:2072   */\n  mstore\n    /* \"#utility.yul\":2103:2107   */\n  0x20\n    /* \"#utility.yul\":2096:2101   */\n  dup2\n    /* \"#utility.yul\":2092:2108   */\n  add\n    /* \"#utility.yul\":2141:2144   */\n  dup5\n    /* \"#utility.yul\":2132:2138   */\n  dup5\n    /* \"#utility.yul\":2127:2130   */\n  dup5\n    /* \"#utility.yul\":2123:2139   */\n  add\n    /* \"#utility.yul\":2120:2145   */\n  gt\n    /* \"#utility.yul\":2117:2229   */\n  iszero\n  tag_99\n  jumpi\n    /* \"#utility.yul\":2148:2227   */\n  tag_100\n  tag_25\n  jump\t// in\ntag_100:\n    /* \"#utility.yul\":2117:2229   */\ntag_99:\n    /* \"#utility.yul\":2238:2290   */\n  tag_101\n    /* \"#utility.yul\":2283:2289   */\n  dup5\n    /* \"#utility.yul\":2278:2281   */\n  dup3\n    /* \"#utility.yul\":2273:2276   */\n  dup6\n    /* \"#utility.yul\":2238:2290   */\n  tag_31\n  jump\t// in\ntag_101:\n    /* \"#utility.yul\":1957:2296   */\n  pop\n    /* \"#utility.yul\":1862:2296   */\n  swap4\n  swap3\n  pop\n  pop\n  pop\n  jump\t// out\n    /* \"#utility.yul\":2316:2671   */\ntag_33:\n    /* \"#utility.yul\":2383:2388   */\n  0x00\n    /* \"#utility.yul\":2432:2435   */\n  dup3\n    /* \"#utility.yul\":2425:2429   */\n  0x1f\n    /* \"#utility.yul\":2417:2423   */\n  dup4\n    /* \"#utility.yul\":2413:2430   */\n  add\n    /* \"#utility.yul\":2409:2436   */\n  slt\n    /* \"#utility.yul\":2399:2521   */\n  tag_103\n  jumpi\n    /* \"#utility.yul\":2440:2519   */\n  tag_104\n  tag_24\n  jump\t// in\ntag_104:\n    /* \"#utility.yul\":2399:2521   */\ntag_103:\n    /* \"#utility.yul\":2550:2556   */\n  dup2\n    /* \"#utility.yul\":2544:2557   */\n  mload\n    /* \"#utility.yul\":2575:2665   */\n  tag_105\n    /* \"#utility.yul\":2661:2664   */\n  dup5\n    /* \"#utility.yul\":2653:2659   */\n  dup3\n    /* \"#utility.yul\":2646:2650   */\n  0x20\n    /* \"#utility.yul\":2638:2644   */\n  dup7\n    /* \"#utility.yul\":2634:2651   */\n  add\n    /* \"#utility.yul\":2575:2665   */\n  tag_32\n  jump\t// in\ntag_105:\n    /* \"#utility.yul\":2566:2665   */\n  swap2\n  pop\n    /* \"#utility.yul\":2389:2671   */\n  pop\n    /* \"#utility.yul\":2316:2671   */\n  swap3\n  swap2\n  pop\n  pop\n  jump\t// out\n    /* \"#utility.yul\":2677:2803   */\ntag_34:\n    /* \"#utility.yul\":2714:2721   */\n  0x00\n    /* \"#utility.yul\":2754:2796   */\n  0xffffffffffffffffffffffffffffffffffffffff\n    /* \"#utility.yul\":2747:2752   */\n  dup3\n    /* \"#utility.yul\":2743:2797   */\n  and\n    /* \"#utility.yul\":2732:2797   */\n  swap1\n  pop\n    /* \"#utility.yul\":2677:2803   */\n  swap2\n  swap1\n  pop\n  jump\t// out\n    /* \"#utility.yul\":2809:2905   */\ntag_35:\n    /* \"#utility.yul\":2846:2853   */\n  0x00\n    /* \"#utility.yul\":2875:2899   */\n  tag_108\n    /* \"#utility.yul\":2893:2898   */\n  dup3\n    /* \"#utility.yul\":2875:2899   */\n  tag_34\n  jump\t// in\ntag_108:\n    /* \"#utility.yul\":2864:2899   */\n  swap1\n  pop\n    /* \"#utility.yul\":2809:2905   */\n  swap2\n  swap1\n  pop\n  jump\t// out\n    /* \"#utility.yul\":2911:3033   */\ntag_36:\n    /* \"#utility.yul\":2984:3008   */\n  tag_110\n    /* \"#utility.yul\":3002:3007   */\n  dup2\n    /* \"#utility.yul\":2984:3008   */\n  tag_35\n  jump\t// in\ntag_110:\n    /* \"#utility.yul\":2977:2982   */\n  dup2\n    /* \"#utility.yul\":2974:3009   */\n  eq\n    /* \"#utility.yul\":2964:3027   */\n  tag_111\n  jumpi\n    /* \"#utility.yul\":3023:3024   */\n  0x00\n    /* \"#utility.yul\":3020:3021   */\n  dup1\n    /* \"#utility.yul\":3013:3025   */\n  revert\n    /* \"#utility.yul\":2964:3027   */\ntag_111:\n    /* \"#utility.yul\":2911:3033   */\n  pop\n  jump\t// out\n    /* \"#utility.yul\":3039:3182   */\ntag_37:\n    /* \"#utility.yul\":3096:3101   */\n  0x00\n    /* \"#utility.yul\":3127:3133   */\n  dup2\n    /* \"#utility.yul\":3121:3134   */\n  mload\n    /* \"#utility.yul\":3112:3134   */\n  swap1\n  pop\n    /* \"#utility.yul\":3143:3176   */\n  tag_113\n    /* \"#utility.yul\":3170:3175   */\n  dup2\n    /* \"#utility.yul\":3143:3176   */\n  tag_36\n  jump\t// in\ntag_113:\n    /* \"#utility.yul\":3039:3182   */\n  swap3\n  swap2\n  pop\n  pop\n  jump\t// out\n    /* \"#utility.yul\":3188:3277   */\ntag_38:\n    /* \"#utility.yul\":3224:3231   */\n  0x00\n    /* \"#utility.yul\":3264:3270   */\n  0xffff\n    /* \"#utility.yul\":3257:3262   */\n  dup3\n    /* \"#utility.yul\":3253:3271   */\n  and\n    /* \"#utility.yul\":3242:3271   */\n  swap1\n  pop\n    /* \"#utility.yul\":3188:3277   */\n  swap2\n  swap1\n  pop\n  jump\t// out\n    /* \"#utility.yul\":3283:3403   */\ntag_39:\n    /* \"#utility.yul\":3355:3378   */\n  tag_116\n    /* \"#utility.yul\":3372:3377   */\n  dup2\n    /* \"#utility.yul\":3355:3378   */\n  tag_38\n  jump\t// in\ntag_116:\n    /* \"#utility.yul\":3348:3353   */\n  dup2\n    /* \"#utility.yul\":3345:3379   */\n  eq\n    /* \"#utility.yul\":3335:3397   */\n  tag_117\n  jumpi\n    /* \"#utility.yul\":3393:3394   */\n  0x00\n    /* \"#utility.yul\":3390:3391   */\n  dup1\n    /* \"#utility.yul\":3383:3395   */\n  revert\n    /* \"#utility.yul\":3335:3397   */\ntag_117:\n    /* \"#utility.yul\":3283:3403   */\n  pop\n  jump\t// out\n    /* \"#utility.yul\":3409:3550   */\ntag_40:\n    /* \"#utility.yul\":3465:3470   */\n  0x00\n    /* \"#utility.yul\":3496:3502   */\n  dup2\n    /* \"#utility.yul\":3490:3503   */\n  mload\n    /* \"#utility.yul\":3481:3503   */\n  swap1\n  pop\n    /* \"#utility.yul\":3512:3544   */\n  tag_119\n    /* \"#utility.yul\":3538:3543   */\n  dup2\n    /* \"#utility.yul\":3512:3544   */\n  tag_39\n  jump\t// in\ntag_119:\n    /* \"#utility.yul\":3409:3550   */\n  swap3\n  swap2\n  pop\n  pop\n  jump\t// out\n    /* \"#utility.yul\":3556:3649   */\ntag_41:\n    /* \"#utility.yul\":3592:3599   */\n  0x00\n    /* \"#utility.yul\":3632:3642   */\n  0xffffffff\n    /* \"#utility.yul\":3625:3630   */\n  dup3\n    /* \"#utility.yul\":3621:3643   */\n  and\n    /* \"#utility.yul\":3610:3643   */\n  swap1\n  pop\n    /* \"#utility.yul\":3556:3649   */\n  swap2\n  swap1\n  pop\n  jump\t// out\n    /* \"#utility.yul\":3655:3775   */\ntag_42:\n    /* \"#utility.yul\":3727:3750   */\n  tag_122\n    /* \"#utility.yul\":3744:3749   */\n  dup2\n    /* \"#utility.yul\":3727:3750   */\n  tag_41\n  jump\t// in\ntag_122:\n    /* \"#utility.yul\":3720:3725   */\n  dup2\n    /* \"#utility.yul\":3717:3751   */\n  eq\n    /* \"#utility.yul\":3707:3769   */\n  tag_123\n  jumpi\n    /* \"#utility.yul\":3765:3766   */\n  0x00\n    /* \"#utility.yul\":3762:3763   */\n  dup1\n    /* \"#utility.yul\":3755:3767   */\n  revert\n    /* \"#utility.yul\":3707:3769   */\ntag_123:\n    /* \"#utility.yul\":3655:3775   */\n  pop\n  jump\t// out\n    /* \"#utility.yul\":3781:3922   */\ntag_43:\n    /* \"#utility.yul\":3837:3842   */\n  0x00\n    /* \"#utility.yul\":3868:3874   */\n  dup2\n    /* \"#utility.yul\":3862:3875   */\n  mload\n    /* \"#utility.yul\":3853:3875   */\n  swap1\n  pop\n    /* \"#utility.yul\":3884:3916   */\n  tag_125\n    /* \"#utility.yul\":3910:3915   */\n  dup2\n    /* \"#utility.yul\":3884:3916   */\n  tag_42\n  jump\t// in\ntag_125:\n    /* \"#utility.yul\":3781:3922   */\n  swap3\n  swap2\n  pop\n  pop\n  jump\t// out\n    /* \"#utility.yul\":3928:4018   */\ntag_44:\n    /* \"#utility.yul\":3962:3969   */\n  0x00\n    /* \"#utility.yul\":4005:4010   */\n  dup2\n    /* \"#utility.yul\":3998:4011   */\n  iszero\n    /* \"#utility.yul\":3991:4012   */\n  iszero\n    /* \"#utility.yul\":3980:4012   */\n  swap1\n  pop\n    /* \"#utility.yul\":3928:4018   */\n  swap2\n  swap1\n  pop\n  jump\t// out\n    /* \"#utility.yul\":4024:4140   */\ntag_45:\n    /* \"#utility.yul\":4094:4115   */\n  tag_128\n    /* \"#utility.yul\":4109:4114   */\n  dup2\n    /* \"#utility.yul\":4094:4115   */\n  tag_44\n  jump\t// in\ntag_128:\n    /* \"#utility.yul\":4087:4092   */\n  dup2\n    /* \"#utility.yul\":4084:4116   */\n  eq\n    /* \"#utility.yul\":4074:4134   */\n  tag_129\n  jumpi\n    /* \"#utility.yul\":4130:4131   */\n  0x00\n    /* \"#utility.yul\":4127:4128   */\n  dup1\n    /* \"#utility.yul\":4120:4132   */\n  revert\n    /* \"#utility.yul\":4074:4134   */\ntag_129:\n    /* \"#utility.yul\":4024:4140   */\n  pop\n  jump\t// out\n    /* \"#utility.yul\":4146:4283   */\ntag_46:\n    /* \"#utility.yul\":4200:4205   */\n  0x00\n    /* \"#utility.yul\":4231:4237   */\n  dup2\n    /* \"#utility.yul\":4225:4238   */\n  mload\n    /* \"#utility.yul\":4216:4238   */\n  swap1\n  pop\n    /* \"#utility.yul\":4247:4277   */\n  tag_131\n    /* \"#utility.yul\":4271:4276   */\n  dup2\n    /* \"#utility.yul\":4247:4277   */\n  tag_45\n  jump\t// in\ntag_131:\n    /* \"#utility.yul\":4146:4283   */\n  swap3\n  swap2\n  pop\n  pop\n  jump\t// out\n    /* \"#utility.yul\":4289:5759   */\ntag_3:\n    /* \"#utility.yul\":4419:4425   */\n  0x00\n    /* \"#utility.yul\":4427:4433   */\n  dup1\n    /* \"#utility.yul\":4435:4441   */\n  0x00\n    /* \"#utility.yul\":4443:4449   */\n  dup1\n    /* \"#utility.yul\":4451:4457   */\n  0x00\n    /* \"#utility.yul\":4459:4465   */\n  dup1\n    /* \"#utility.yul\":4508:4511   */\n  0xc0\n    /* \"#utility.yul\":4496:4505   */\n  dup8\n    /* \"#utility.yul\":4487:4494   */\n  dup10\n    /* \"#utility.yul\":4483:4506   */\n  sub\n    /* \"#utility.yul\":4479:4512   */\n  slt\n    /* \"#utility.yul\":4476:4596   */\n  iszero\n  tag_133\n  jumpi\n    /* \"#utility.yul\":4515:4594   */\n  tag_134\n  tag_22\n  jump\t// in\ntag_134:\n    /* \"#utility.yul\":4476:4596   */\ntag_133:\n    /* \"#utility.yul\":4656:4657   */\n  0x00\n    /* \"#utility.yul\":4645:4654   */\n  dup8\n    /* \"#utility.yul\":4641:4658   */\n  add\n    /* \"#utility.yul\":4635:4659   */\n  mload\n    /* \"#utility.yul\":4686:4704   */\n  0xffffffffffffffff\n    /* \"#utility.yul\":4678:4684   */\n  dup2\n    /* \"#utility.yul\":4675:4705   */\n  gt\n    /* \"#utility.yul\":4672:4789   */\n  iszero\n  tag_135\n  jumpi\n    /* \"#utility.yul\":4708:4787   */\n  tag_136\n  tag_23\n  jump\t// in\ntag_136:\n    /* \"#utility.yul\":4672:4789   */\ntag_135:\n    /* \"#utility.yul\":4813:4887   */\n  tag_137\n    /* \"#utility.yul\":4879:4886   */\n  dup10\n    /* \"#utility.yul\":4870:4876   */\n  dup3\n    /* \"#utility.yul\":4859:4868   */\n  dup11\n    /* \"#utility.yul\":4855:4877   */\n  add\n    /* \"#utility.yul\":4813:4887   */\n  tag_33\n  jump\t// in\ntag_137:\n    /* \"#utility.yul\":4803:4887   */\n  swap7\n  pop\n    /* \"#utility.yul\":4606:4897   */\n  pop\n    /* \"#utility.yul\":4936:4938   */\n  0x20\n    /* \"#utility.yul\":4962:5026   */\n  tag_138\n    /* \"#utility.yul\":5018:5025   */\n  dup10\n    /* \"#utility.yul\":5009:5015   */\n  dup3\n    /* \"#utility.yul\":4998:5007   */\n  dup11\n    /* \"#utility.yul\":4994:5016   */\n  add\n    /* \"#utility.yul\":4962:5026   */\n  tag_37\n  jump\t// in\ntag_138:\n    /* \"#utility.yul\":4952:5026   */\n  swap6\n  pop\n    /* \"#utility.yul\":4907:5036   */\n  pop\n    /* \"#utility.yul\":5075:5077   */\n  0x40\n    /* \"#utility.yul\":5101:5164   */\n  tag_139\n    /* \"#utility.yul\":5156:5163   */\n  dup10\n    /* \"#utility.yul\":5147:5153   */\n  dup3\n    /* \"#utility.yul\":5136:5145   */\n  dup11\n    /* \"#utility.yul\":5132:5154   */\n  add\n    /* \"#utility.yul\":5101:5164   */\n  tag_40\n  jump\t// in\ntag_139:\n    /* \"#utility.yul\":5091:5164   */\n  swap5\n  pop\n    /* \"#utility.yul\":5046:5174   */\n  pop\n    /* \"#utility.yul\":5213:5215   */\n  0x60\n    /* \"#utility.yul\":5239:5302   */\n  tag_140\n    /* \"#utility.yul\":5294:5301   */\n  dup10\n    /* \"#utility.yul\":5285:5291   */\n  dup3\n    /* \"#utility.yul\":5274:5283   */\n  dup11\n    /* \"#utility.yul\":5270:5292   */\n  add\n    /* \"#utility.yul\":5239:5302   */\n  tag_43\n  jump\t// in\ntag_140:\n    /* \"#utility.yul\":5229:5302   */\n  swap4\n  pop\n    /* \"#utility.yul\":5184:5312   */\n  pop\n    /* \"#utility.yul\":5372:5375   */\n  0x80\n    /* \"#utility.yul\":5361:5370   */\n  dup8\n    /* \"#utility.yul\":5357:5376   */\n  add\n    /* \"#utility.yul\":5351:5377   */\n  mload\n    /* \"#utility.yul\":5404:5422   */\n  0xffffffffffffffff\n    /* \"#utility.yul\":5396:5402   */\n  dup2\n    /* \"#utility.yul\":5393:5423   */\n  gt\n    /* \"#utility.yul\":5390:5507   */\n  iszero\n  tag_141\n  jumpi\n    /* \"#utility.yul\":5426:5505   */\n  tag_142\n  tag_23\n  jump\t// in\ntag_142:\n    /* \"#utility.yul\":5390:5507   */\ntag_141:\n    /* \"#utility.yul\":5531:5605   */\n  tag_143\n    /* \"#utility.yul\":5597:5604   */\n  dup10\n    /* \"#utility.yul\":5588:5594   */\n  dup3\n    /* \"#utility.yul\":5577:5586   */\n  dup11\n    /* \"#utility.yul\":5573:5595   */\n  add\n    /* \"#utility.yul\":5531:5605   */\n  tag_33\n  jump\t// in\ntag_143:\n    /* \"#utility.yul\":5521:5605   */\n  swap3\n  pop\n    /* \"#utility.yul\":5322:5615   */\n  pop\n    /* \"#utility.yul\":5654:5657   */\n  0xa0\n    /* \"#utility.yul\":5681:5742   */\n  tag_144\n    /* \"#utility.yul\":5734:5741   */\n  dup10\n    /* \"#utility.yul\":5725:5731   */\n  dup3\n    /* \"#utility.yul\":5714:5723   */\n  dup11\n    /* \"#utility.yul\":5710:5732   */\n  add\n    /* \"#utility.yul\":5681:5742   */\n  tag_46\n  jump\t// in\ntag_144:\n    /* \"#utility.yul\":5671:5742   */\n  swap2\n  pop\n    /* \"#utility.yul\":5625:5752   */\n  pop\n    /* \"#utility.yul\":4289:5759   */\n  swap3\n  swap6\n  pop\n  swap3\n  swap6\n  pop\n  swap3\n  swap6\n  jump\t// out\n    /* \"#utility.yul\":5765:5934   */\ntag_47:\n    /* \"#utility.yul\":5849:5860   */\n  0x00\n    /* \"#utility.yul\":5883:5889   */\n  dup3\n    /* \"#utility.yul\":5878:5881   */\n  dup3\n    /* \"#utility.yul\":5871:5890   */\n  mstore\n    /* \"#utility.yul\":5923:5927   */\n  0x20\n    /* \"#utility.yul\":5918:5921   */\n  dup3\n    /* \"#utility.yul\":5914:5928   */\n  add\n    /* \"#utility.yul\":5899:5928   */\n  swap1\n  pop\n    /* \"#utility.yul\":5765:5934   */\n  swap3\n  swap2\n  pop\n  pop\n  jump\t// out\n    /* \"#utility.yul\":5940:6122   */\ntag_48:\n    /* \"#utility.yul\":6080:6114   */\n  0x4d6178696d616c203635353334204d6974737069656c65722065726c61756274\n    /* \"#utility.yul\":6076:6077   */\n  0x00\n    /* \"#utility.yul\":6068:6074   */\n  dup3\n    /* \"#utility.yul\":6064:6078   */\n  add\n    /* \"#utility.yul\":6057:6115   */\n  mstore\n    /* \"#utility.yul\":5940:6122   */\n  pop\n  jump\t// out\n    /* \"#utility.yul\":6128:6494   */\ntag_49:\n    /* \"#utility.yul\":6270:6273   */\n  0x00\n    /* \"#utility.yul\":6291:6358   */\n  tag_148\n    /* \"#utility.yul\":6355:6357   */\n  0x20\n    /* \"#utility.yul\":6350:6353   */\n  dup4\n    /* \"#utility.yul\":6291:6358   */\n  tag_47\n  jump\t// in\ntag_148:\n    /* \"#utility.yul\":6284:6358   */\n  swap2\n  pop\n    /* \"#utility.yul\":6367:6460   */\n  tag_149\n    /* \"#utility.yul\":6456:6459   */\n  dup3\n    /* \"#utility.yul\":6367:6460   */\n  tag_48\n  jump\t// in\ntag_149:\n    /* \"#utility.yul\":6485:6487   */\n  0x20\n    /* \"#utility.yul\":6480:6483   */\n  dup3\n    /* \"#utility.yul\":6476:6488   */\n  add\n    /* \"#utility.yul\":6469:6488   */\n  swap1\n  pop\n    /* \"#utility.yul\":6128:6494   */\n  swap2\n  swap1\n  pop\n  jump\t// out\n    /* \"#utility.yul\":6500:6919   */\ntag_8:\n    /* \"#utility.yul\":6666:6670   */\n  0x00\n    /* \"#utility.yul\":6704:6706   */\n  0x20\n    /* \"#utility.yul\":6693:6702   */\n  dup3\n    /* \"#utility.yul\":6689:6707   */\n  add\n    /* \"#utility.yul\":6681:6707   */\n  swap1\n  pop\n    /* \"#utility.yul\":6753:6762   */\n  dup2\n    /* \"#utility.yul\":6747:6751   */\n  dup2\n    /* \"#utility.yul\":6743:6763   */\n  sub\n    /* \"#utility.yul\":6739:6740   */\n  0x00\n    /* \"#utility.yul\":6728:6737   */\n  dup4\n    /* \"#utility.yul\":6724:6741   */\n  add\n    /* \"#utility.yul\":6717:6764   */\n  mstore\n    /* \"#utility.yul\":6781:6912   */\n  tag_151\n    /* \"#utility.yul\":6907:6911   */\n  dup2\n    /* \"#utility.yul\":6781:6912   */\n  tag_49\n  jump\t// in\ntag_151:\n    /* \"#utility.yul\":6773:6912   */\n  swap1\n  pop\n    /* \"#utility.yul\":6500:6919   */\n  swap2\n  swap1\n  pop\n  jump\t// out\n    /* \"#utility.yul\":6925:7101   */\ntag_50:\n    /* \"#utility.yul\":7065:7093   */\n  0x4d6178696d616c65722050726569732034323934393637323935000000000000\n    /* \"#utility.yul\":7061:7062   */\n  0x00\n    /* \"#utility.yul\":7053:7059   */\n  dup3\n    /* \"#utility.yul\":7049:7063   */\n  add\n    /* \"#utility.yul\":7042:7094   */\n  mstore\n    /* \"#utility.yul\":6925:7101   */\n  pop\n  jump\t// out\n    /* \"#utility.yul\":7107:7473   */\ntag_51:\n    /* \"#utility.yul\":7249:7252   */\n  0x00\n    /* \"#utility.yul\":7270:7337   */\n  tag_154\n    /* \"#utility.yul\":7334:7336   */\n  0x1a\n    /* \"#utility.yul\":7329:7332   */\n  dup4\n    /* \"#utility.yul\":7270:7337   */\n  tag_47\n  jump\t// in\ntag_154:\n    /* \"#utility.yul\":7263:7337   */\n  swap2\n  pop\n    /* \"#utility.yul\":7346:7439   */\n  tag_155\n    /* \"#utility.yul\":7435:7438   */\n  dup3\n    /* \"#utility.yul\":7346:7439   */\n  tag_50\n  jump\t// in\ntag_155:\n    /* \"#utility.yul\":7464:7466   */\n  0x20\n    /* \"#utility.yul\":7459:7462   */\n  dup3\n    /* \"#utility.yul\":7455:7467   */\n  add\n    /* \"#utility.yul\":7448:7467   */\n  swap1\n  pop\n    /* \"#utility.yul\":7107:7473   */\n  swap2\n  swap1\n  pop\n  jump\t// out\n    /* \"#utility.yul\":7479:7898   */\ntag_11:\n    /* \"#utility.yul\":7645:7649   */\n  0x00\n    /* \"#utility.yul\":7683:7685   */\n  0x20\n    /* \"#utility.yul\":7672:7681   */\n  dup3\n    /* \"#utility.yul\":7668:7686   */\n  add\n    /* \"#utility.yul\":7660:7686   */\n  swap1\n  pop\n    /* \"#utility.yul\":7732:7741   */\n  dup2\n    /* \"#utility.yul\":7726:7730   */\n  dup2\n    /* \"#utility.yul\":7722:7742   */\n  sub\n    /* \"#utility.yul\":7718:7719   */\n  0x00\n    /* \"#utility.yul\":7707:7716   */\n  dup4\n    /* \"#utility.yul\":7703:7720   */\n  add\n    /* \"#utility.yul\":7696:7743   */\n  mstore\n    /* \"#utility.yul\":7760:7891   */\n  tag_157\n    /* \"#utility.yul\":7886:7890   */\n  dup2\n    /* \"#utility.yul\":7760:7891   */\n  tag_51\n  jump\t// in\ntag_157:\n    /* \"#utility.yul\":7752:7891   */\n  swap1\n  pop\n    /* \"#utility.yul\":7479:7898   */\n  swap2\n  swap1\n  pop\n  jump\t// out\n    /* \"#utility.yul\":7904:8003   */\ntag_52:\n    /* \"#utility.yul\":7956:7962   */\n  0x00\n    /* \"#utility.yul\":7990:7995   */\n  dup2\n    /* \"#utility.yul\":7984:7996   */\n  mload\n    /* \"#utility.yul\":7974:7996   */\n  swap1\n  pop\n    /* \"#utility.yul\":7904:8003   */\n  swap2\n  swap1\n  pop\n  jump\t// out\n    /* \"#utility.yul\":8009:8189   */\ntag_53:\n    /* \"#utility.yul\":8057:8134   */\n  0x4e487b7100000000000000000000000000000000000000000000000000000000\n    /* \"#utility.yul\":8054:8055   */\n  0x00\n    /* \"#utility.yul\":8047:8135   */\n  mstore\n    /* \"#utility.yul\":8154:8158   */\n  0x22\n    /* \"#utility.yul\":8151:8152   */\n  0x04\n    /* \"#utility.yul\":8144:8159   */\n  mstore\n    /* \"#utility.yul\":8178:8182   */\n  0x24\n    /* \"#utility.yul\":8175:8176   */\n  0x00\n    /* \"#utility.yul\":8168:8183   */\n  revert\n    /* \"#utility.yul\":8195:8515   */\ntag_54:\n    /* \"#utility.yul\":8239:8245   */\n  0x00\n    /* \"#utility.yul\":8276:8277   */\n  0x02\n    /* \"#utility.yul\":8270:8274   */\n  dup3\n    /* \"#utility.yul\":8266:8278   */\n  div\n    /* \"#utility.yul\":8256:8278   */\n  swap1\n  pop\n    /* \"#utility.yul\":8323:8324   */\n  0x01\n    /* \"#utility.yul\":8317:8321   */\n  dup3\n    /* \"#utility.yul\":8313:8325   */\n  and\n    /* \"#utility.yul\":8344:8362   */\n  dup1\n    /* \"#utility.yul\":8334:8415   */\n  tag_161\n  jumpi\n    /* \"#utility.yul\":8400:8404   */\n  0x7f\n    /* \"#utility.yul\":8392:8398   */\n  dup3\n    /* \"#utility.yul\":8388:8405   */\n  and\n    /* \"#utility.yul\":8378:8405   */\n  swap2\n  pop\n    /* \"#utility.yul\":8334:8415   */\ntag_161:\n    /* \"#utility.yul\":8462:8464   */\n  0x20\n    /* \"#utility.yul\":8454:8460   */\n  dup3\n    /* \"#utility.yul\":8451:8465   */\n  lt\n    /* \"#utility.yul\":8431:8449   */\n  dup2\n    /* \"#utility.yul\":8428:8466   */\n  sub\n    /* \"#utility.yul\":8425:8509   */\n  tag_162\n  jumpi\n    /* \"#utility.yul\":8481:8499   */\n  tag_163\n  tag_53\n  jump\t// in\ntag_163:\n    /* \"#utility.yul\":8425:8509   */\ntag_162:\n    /* \"#utility.yul\":8246:8515   */\n  pop\n    /* \"#utility.yul\":8195:8515   */\n  swap2\n  swap1\n  pop\n  jump\t// out\n    /* \"#utility.yul\":8521:8662   */\ntag_55:\n    /* \"#utility.yul\":8570:8574   */\n  0x00\n    /* \"#utility.yul\":8593:8596   */\n  dup2\n    /* \"#utility.yul\":8585:8596   */\n  swap1\n  pop\n    /* \"#utility.yul\":8616:8619   */\n  dup2\n    /* \"#utility.yul\":8613:8614   */\n  0x00\n    /* \"#utility.yul\":8606:8620   */\n  mstore\n    /* \"#utility.yul\":8650:8654   */\n  0x20\n    /* \"#utility.yul\":8647:8648   */\n  0x00\n    /* \"#utility.yul\":8637:8655   */\n  keccak256\n    /* \"#utility.yul\":8629:8655   */\n  swap1\n  pop\n    /* \"#utility.yul\":8521:8662   */\n  swap2\n  swap1\n  pop\n  jump\t// out\n    /* \"#utility.yul\":8668:8761   */\ntag_56:\n    /* \"#utility.yul\":8705:8711   */\n  0x00\n    /* \"#utility.yul\":8752:8754   */\n  0x20\n    /* \"#utility.yul\":8747:8749   */\n  0x1f\n    /* \"#utility.yul\":8740:8745   */\n  dup4\n    /* \"#utility.yul\":8736:8750   */\n  add\n    /* \"#utility.yul\":8732:8755   */\n  div\n    /* \"#utility.yul\":8722:8755   */\n  swap1\n  pop\n    /* \"#utility.yul\":8668:8761   */\n  swap2\n  swap1\n  pop\n  jump\t// out\n    /* \"#utility.yul\":8767:8874   */\ntag_57:\n    /* \"#utility.yul\":8811:8819   */\n  0x00\n    /* \"#utility.yul\":8861:8866   */\n  dup3\n    /* \"#utility.yul\":8855:8859   */\n  dup3\n    /* \"#utility.yul\":8851:8867   */\n  shl\n    /* \"#utility.yul\":8830:8867   */\n  swap1\n  pop\n    /* \"#utility.yul\":8767:8874   */\n  swap3\n  swap2\n  pop\n  pop\n  jump\t// out\n    /* \"#utility.yul\":8880:9273   */\ntag_58:\n    /* \"#utility.yul\":8949:8955   */\n  0x00\n    /* \"#utility.yul\":8999:9000   */\n  0x08\n    /* \"#utility.yul\":8987:8997   */\n  dup4\n    /* \"#utility.yul\":8983:9001   */\n  mul\n    /* \"#utility.yul\":9022:9119   */\n  tag_168\n    /* \"#utility.yul\":9052:9118   */\n  0xffffffffffffffffffffffffffffffffffffffffffffffffffffffffffffffff\n    /* \"#utility.yul\":9041:9050   */\n  dup3\n    /* \"#utility.yul\":9022:9119   */\n  tag_57\n  jump\t// in\ntag_168:\n    /* \"#utility.yul\":9140:9179   */\n  tag_169\n    /* \"#utility.yul\":9170:9178   */\n  dup7\n    /* \"#utility.yul\":9159:9168   */\n  dup4\n    /* \"#utility.yul\":9140:9179   */\n  tag_57\n  jump\t// in\ntag_169:\n    /* \"#utility.yul\":9128:9179   */\n  swap6\n  pop\n    /* \"#utility.yul\":9212:9216   */\n  dup1\n    /* \"#utility.yul\":9208:9217   */\n  not\n    /* \"#utility.yul\":9201:9206   */\n  dup5\n    /* \"#utility.yul\":9197:9218   */\n  and\n    /* \"#utility.yul\":9188:9218   */\n  swap4\n  pop\n    /* \"#utility.yul\":9261:9265   */\n  dup1\n    /* \"#utility.yul\":9251:9259   */\n  dup7\n    /* \"#utility.yul\":9247:9266   */\n  and\n    /* \"#utility.yul\":9240:9245   */\n  dup5\n    /* \"#utility.yul\":9237:9267   */\n  or\n    /* \"#utility.yul\":9227:9267   */\n  swap3\n  pop\n    /* \"#utility.yul\":8956:9273   */\n  pop\n  pop\n    /* \"#utility.yul\":8880:9273   */\n  swap4\n  swap3\n  pop\n  pop\n  pop\n  jump\t// out\n    /* \"#utility.yul\":9279:9356   */\ntag_59:\n    /* \"#utility.yul\":9316:9323   */\n  0x00\n    /* \"#utility.yul\":9345:9350   */\n  dup2\n    /* \"#utility.yul\":9334:9350   */\n  swap1\n  pop\n    /* \"#utility.yul\":9279:9356   */\n  swap2\n  swap1\n  pop\n  jump\t// out\n    /* \"#utility.yul\":9362:9422   */\ntag_60:\n    /* \"#utility.yul\":9390:9393   */\n  0x00\n    /* \"#utility.yul\":9411:9416   */\n  dup2\n    /* \"#utility.yul\":9404:9416   */\n  swap1\n  pop\n    /* \"#utility.yul\":9362:9422   */\n  swap2\n  swap1\n  pop\n  jump\t// out\n    /* \"#utility.yul\":9428:9570   */\ntag_61:\n    /* \"#utility.yul\":9478:9487   */\n  0x00\n    /* \"#utility.yul\":9511:9564   */\n  tag_173\n    /* \"#utility.yul\":9529:9563   */\n  tag_174\n    /* \"#utility.yul\":9538:9562   */\n  tag_175\n    /* \"#utility.yul\":9556:9561   */\n  dup5\n    /* \"#utility.yul\":9538:9562   */\n  tag_59\n  jump\t// in\ntag_175:\n    /* \"#utility.yul\":9529:9563   */\n  tag_60\n  jump\t// in\ntag_174:\n    /* \"#utility.yul\":9511:9564   */\n  tag_59\n  jump\t// in\ntag_173:\n    /* \"#utility.yul\":9498:9564   */\n  swap1\n  pop\n    /* \"#utility.yul\":9428:9570   */\n  swap2\n  swap1\n  pop\n  jump\t// out\n    /* \"#utility.yul\":9576:9651   */\ntag_62:\n    /* \"#utility.yul\":9619:9622   */\n  0x00\n    /* \"#utility.yul\":9640:9645   */\n  dup2\n    /* \"#utility.yul\":9633:9645   */\n  swap1\n  pop\n    /* \"#utility.yul\":9576:9651   */\n  swap2\n  swap1\n  pop\n  jump\t// out\n    /* \"#utility.yul\":9657:9926   */\ntag_63:\n    /* \"#utility.yul\":9767:9806   */\n  tag_178\n    /* \"#utility.yul\":9798:9805   */\n  dup4\n    /* \"#utility.yul\":9767:9806   */\n  tag_61\n  jump\t// in\ntag_178:\n    /* \"#utility.yul\":9828:9919   */\n  tag_179\n    /* \"#utility.yul\":9877:9918   */\n  tag_180\n    /* \"#utility.yul\":9901:9917   */\n  dup3\n    /* \"#utility.yul\":9877:9918   */\n  tag_62\n  jump\t// in\ntag_180:\n    /* \"#utility.yul\":9869:9875   */\n  dup5\n    /* \"#utility.yul\":9862:9866   */\n  dup5\n    /* \"#utility.yul\":9856:9867   */\n  sload\n    /* \"#utility.yul\":9828:9919   */\n  tag_58\n  jump\t// in\ntag_179:\n    /* \"#utility.yul\":9822:9826   */\n  dup3\n    /* \"#utility.yul\":9815:9920   */\n  sstore\n    /* \"#utility.yul\":9733:9926   */\n  pop\n    /* \"#utility.yul\":9657:9926   */\n  pop\n  pop\n  pop\n  jump\t// out\n    /* \"#utility.yul\":9932:10005   */\ntag_64:\n    /* \"#utility.yul\":9977:9980   */\n  0x00\n    /* \"#utility.yul\":9932:10005   */\n  swap1\n  jump\t// out\n    /* \"#utility.yul\":10011:10200   */\ntag_65:\n    /* \"#utility.yul\":10088:10120   */\n  tag_183\n  tag_64\n  jump\t// in\ntag_183:\n    /* \"#utility.yul\":10129:10194   */\n  tag_184\n    /* \"#utility.yul\":10187:10193   */\n  dup2\n    /* \"#utility.yul\":10179:10185   */\n  dup5\n    /* \"#utility.yul\":10173:10177   */\n  dup5\n    /* \"#utility.yul\":10129:10194   */\n  tag_63\n  jump\t// in\ntag_184:\n    /* \"#utility.yul\":10064:10200   */\n  pop\n    /* \"#utility.yul\":10011:10200   */\n  pop\n  pop\n  jump\t// out\n    /* \"#utility.yul\":10206:10392   */\ntag_66:\n    /* \"#utility.yul\":10266:10386   */\ntag_186:\n    /* \"#utility.yul\":10283:10286   */\n  dup2\n    /* \"#utility.yul\":10276:10281   */\n  dup2\n    /* \"#utility.yul\":10273:10287   */\n  lt\n    /* \"#utility.yul\":10266:10386   */\n  iszero\n  tag_188\n  jumpi\n    /* \"#utility.yul\":10337:10376   */\n  tag_189\n    /* \"#utility.yul\":10374:10375   */\n  0x00\n    /* \"#utility.yul\":10367:10372   */\n  dup3\n    /* \"#utility.yul\":10337:10376   */\n  tag_65\n  jump\t// in\ntag_189:\n    /* \"#utility.yul\":10310:10311   */\n  0x01\n    /* \"#utility.yul\":10303:10308   */\n  dup2\n    /* \"#utility.yul\":10299:10312   */\n  add\n    /* \"#utility.yul\":10290:10312   */\n  swap1\n  pop\n    /* \"#utility.yul\":10266:10386   */\n  jump(tag_186)\ntag_188:\n    /* \"#utility.yul\":10206:10392   */\n  pop\n  pop\n  jump\t// out\n    /* \"#utility.yul\":10398:10941   */\ntag_67:\n    /* \"#utility.yul\":10499:10501   */\n  0x1f\n    /* \"#utility.yul\":10494:10497   */\n  dup3\n    /* \"#utility.yul\":10491:10502   */\n  gt\n    /* \"#utility.yul\":10488:10934   */\n  iszero\n  tag_191\n  jumpi\n    /* \"#utility.yul\":10533:10571   */\n  tag_192\n    /* \"#utility.yul\":10565:10570   */\n  dup2\n    /* \"#utility.yul\":10533:10571   */\n  tag_55\n  jump\t// in\ntag_192:\n    /* \"#utility.yul\":10617:10646   */\n  tag_193\n    /* \"#utility.yul\":10635:10645   */\n  dup5\n    /* \"#utility.yul\":10617:10646   */\n  tag_56\n  jump\t// in\ntag_193:\n    /* \"#utility.yul\":10607:10615   */\n  dup2\n    /* \"#utility.yul\":10603:10647   */\n  add\n    /* \"#utility.yul\":10800:10802   */\n  0x20\n    /* \"#utility.yul\":10788:10798   */\n  dup6\n    /* \"#utility.yul\":10785:10803   */\n  lt\n    /* \"#utility.yul\":10782:10831   */\n  iszero\n  tag_194\n  jumpi\n    /* \"#utility.yul\":10821:10829   */\n  dup2\n    /* \"#utility.yul\":10806:10829   */\n  swap1\n  pop\n    /* \"#utility.yul\":10782:10831   */\ntag_194:\n    /* \"#utility.yul\":10844:10924   */\n  tag_195\n    /* \"#utility.yul\":10900:10922   */\n  tag_196\n    /* \"#utility.yul\":10918:10921   */\n  dup6\n    /* \"#utility.yul\":10900:10922   */\n  tag_56\n  jump\t// in\ntag_196:\n    /* \"#utility.yul\":10890:10898   */\n  dup4\n    /* \"#utility.yul\":10886:10923   */\n  add\n    /* \"#utility.yul\":10873:10884   */\n  dup3\n    /* \"#utility.yul\":10844:10924   */\n  tag_66\n  jump\t// in\ntag_195:\n    /* \"#utility.yul\":10503:10934   */\n  pop\n  pop\n    /* \"#utility.yul\":10488:10934   */\ntag_191:\n    /* \"#utility.yul\":10398:10941   */\n  pop\n  pop\n  pop\n  jump\t// out\n    /* \"#utility.yul\":10947:11064   */\ntag_68:\n    /* \"#utility.yul\":11001:11009   */\n  0x00\n    /* \"#utility.yul\":11051:11056   */\n  dup3\n    /* \"#utility.yul\":11045:11049   */\n  dup3\n    /* \"#utility.yul\":11041:11057   */\n  shr\n    /* \"#utility.yul\":11020:11057   */\n  swap1\n  pop\n    /* \"#utility.yul\":10947:11064   */\n  swap3\n  swap2\n  pop\n  pop\n  jump\t// out\n    /* \"#utility.yul\":11070:11239   */\ntag_69:\n    /* \"#utility.yul\":11114:11120   */\n  0x00\n    /* \"#utility.yul\":11147:11198   */\n  tag_199\n    /* \"#utility.yul\":11195:11196   */\n  0x00\n    /* \"#utility.yul\":11191:11197   */\n  not\n    /* \"#utility.yul\":11183:11188   */\n  dup5\n    /* \"#utility.yul\":11180:11181   */\n  0x08\n    /* \"#utility.yul\":11176:11189   */\n  mul\n    /* \"#utility.yul\":11147:11198   */\n  tag_68\n  jump\t// in\ntag_199:\n    /* \"#utility.yul\":11143:11199   */\n  not\n    /* \"#utility.yul\":11228:11232   */\n  dup1\n    /* \"#utility.yul\":11222:11226   */\n  dup4\n    /* \"#utility.yul\":11218:11233   */\n  and\n    /* \"#utility.yul\":11208:11233   */\n  swap2\n  pop\n    /* \"#utility.yul\":11121:11239   */\n  pop\n    /* \"#utility.yul\":11070:11239   */\n  swap3\n  swap2\n  pop\n  pop\n  jump\t// out\n    /* \"#utility.yul\":11244:11539   */\ntag_70:\n    /* \"#utility.yul\":11320:11324   */\n  0x00\n    /* \"#utility.yul\":11466:11495   */\n  tag_201\n    /* \"#utility.yul\":11491:11494   */\n  dup4\n    /* \"#utility.yul\":11485:11489   */\n  dup4\n    /* \"#utility.yul\":11466:11495   */\n  tag_69\n  jump\t// in\ntag_201:\n    /* \"#utility.yul\":11458:11495   */\n  swap2\n  pop\n    /* \"#utility.yul\":11528:11531   */\n  dup3\n    /* \"#utility.yul\":11525:11526   */\n  0x02\n    /* \"#utility.yul\":11521:11532   */\n  mul\n    /* \"#utility.yul\":11515:11519   */\n  dup3\n    /* \"#utility.yul\":11512:11533   */\n  or\n    /* \"#utility.yul\":11504:11533   */\n  swap1\n  pop\n    /* \"#utility.yul\":11244:11539   */\n  swap3\n  swap2\n  pop\n  pop\n  jump\t// out\n    /* \"#utility.yul\":11544:12939   */\ntag_13:\n    /* \"#utility.yul\":11661:11698   */\n  tag_203\n    /* \"#utility.yul\":11694:11697   */\n  dup3\n    /* \"#utility.yul\":11661:11698   */\n  tag_52\n  jump\t// in\ntag_203:\n    /* \"#utility.yul\":11763:11781   */\n  0xffffffffffffffff\n    /* \"#utility.yul\":11755:11761   */\n  dup2\n    /* \"#utility.yul\":11752:11782   */\n  gt\n    /* \"#utility.yul\":11749:11805   */\n  iszero\n  tag_204\n  jumpi\n    /* \"#utility.yul\":11785:11803   */\n  tag_205\n  tag_27\n  jump\t// in\ntag_205:\n    /* \"#utility.yul\":11749:11805   */\ntag_204:\n    /* \"#utility.yul\":11829:11867   */\n  tag_206\n    /* \"#utility.yul\":11861:11865   */\n  dup3\n    /* \"#utility.yul\":11855:11866   */\n  sload\n    /* \"#utility.yul\":11829:11867   */\n  tag_54\n  jump\t// in\ntag_206:\n    /* \"#utility.yul\":11914:11981   */\n  tag_207\n    /* \"#utility.yul\":11974:11980   */\n  dup3\n    /* \"#utility.yul\":11966:11972   */\n  dup3\n    /* \"#utility.yul\":11960:11964   */\n  dup6\n    /* \"#utility.yul\":11914:11981   */\n  tag_67\n  jump\t// in\ntag_207:\n    /* \"#utility.yul\":12008:12009   */\n  0x00\n    /* \"#utility.yul\":12032:12036   */\n  0x20\n    /* \"#utility.yul\":12019:12036   */\n  swap1\n  pop\n    /* \"#utility.yul\":12064:12066   */\n  0x1f\n    /* \"#utility.yul\":12056:12062   */\n  dup4\n    /* \"#utility.yul\":12053:12067   */\n  gt\n    /* \"#utility.yul\":12081:12082   */\n  0x01\n    /* \"#utility.yul\":12076:12694   */\n  dup2\n  eq\n  tag_209\n  jumpi\n    /* \"#utility.yul\":12738:12739   */\n  0x00\n    /* \"#utility.yul\":12755:12761   */\n  dup5\n    /* \"#utility.yul\":12752:12829   */\n  iszero\n  tag_210\n  jumpi\n    /* \"#utility.yul\":12804:12813   */\n  dup3\n    /* \"#utility.yul\":12799:12802   */\n  dup8\n    /* \"#utility.yul\":12795:12814   */\n  add\n    /* \"#utility.yul\":12789:12815   */\n  mload\n    /* \"#utility.yul\":12780:12815   */\n  swap1\n  pop\n    /* \"#utility.yul\":12752:12829   */\ntag_210:\n    /* \"#utility.yul\":12855:12922   */\n  tag_211\n    /* \"#utility.yul\":12915:12921   */\n  dup6\n    /* \"#utility.yul\":12908:12913   */\n  dup3\n    /* \"#utility.yul\":12855:12922   */\n  tag_70\n  jump\t// in\ntag_211:\n    /* \"#utility.yul\":12849:12853   */\n  dup7\n    /* \"#utility.yul\":12842:12923   */\n  sstore\n    /* \"#utility.yul\":12711:12933   */\n  pop\n    /* \"#utility.yul\":12046:12933   */\n  jump(tag_208)\n    /* \"#utility.yul\":12076:12694   */\ntag_209:\n    /* \"#utility.yul\":12128:12132   */\n  0x1f\n    /* \"#utility.yul\":12124:12133   */\n  not\n    /* \"#utility.yul\":12116:12122   */\n  dup5\n    /* \"#utility.yul\":12112:12134   */\n  and\n    /* \"#utility.yul\":12162:12199   */\n  tag_212\n    /* \"#utility.yul\":12194:12198   */\n  dup7\n    /* \"#utility.yul\":12162:12199   */\n  tag_55\n  jump\t// in\ntag_212:\n    /* \"#utility.yul\":12221:12222   */\n  0x00\n    /* \"#utility.yul\":12235:12443   */\ntag_213:\n    /* \"#utility.yul\":12249:12256   */\n  dup3\n    /* \"#utility.yul\":12246:12247   */\n  dup2\n    /* \"#utility.yul\":12243:12257   */\n  lt\n    /* \"#utility.yul\":12235:12443   */\n  iszero\n  tag_215\n  jumpi\n    /* \"#utility.yul\":12328:12337   */\n  dup5\n    /* \"#utility.yul\":12323:12326   */\n  dup10\n    /* \"#utility.yul\":12319:12338   */\n  add\n    /* \"#utility.yul\":12313:12339   */\n  mload\n    /* \"#utility.yul\":12305:12311   */\n  dup3\n    /* \"#utility.yul\":12298:12340   */\n  sstore\n    /* \"#utility.yul\":12379:12380   */\n  0x01\n    /* \"#utility.yul\":12371:12377   */\n  dup3\n    /* \"#utility.yul\":12367:12381   */\n  add\n    /* \"#utility.yul\":12357:12381   */\n  swap2\n  pop\n    /* \"#utility.yul\":12426:12428   */\n  0x20\n    /* \"#utility.yul\":12415:12424   */\n  dup6\n    /* \"#utility.yul\":12411:12429   */\n  add\n    /* \"#utility.yul\":12398:12429   */\n  swap5\n  pop\n    /* \"#utility.yul\":12272:12276   */\n  0x20\n    /* \"#utility.yul\":12269:12270   */\n  dup2\n    /* \"#utility.yul\":12265:12277   */\n  add\n    /* \"#utility.yul\":12260:12277   */\n  swap1\n  pop\n    /* \"#utility.yul\":12235:12443   */\n  jump(tag_213)\ntag_215:\n    /* \"#utility.yul\":12471:12477   */\n  dup7\n    /* \"#utility.yul\":12462:12469   */\n  dup4\n    /* \"#utility.yul\":12459:12478   */\n  lt\n    /* \"#utility.yul\":12456:12635   */\n  iszero\n  tag_216\n  jumpi\n    /* \"#utility.yul\":12529:12538   */\n  dup5\n    /* \"#utility.yul\":12524:12527   */\n  dup10\n    /* \"#utility.yul\":12520:12539   */\n  add\n    /* \"#utility.yul\":12514:12540   */\n  mload\n    /* \"#utility.yul\":12572:12620   */\n  tag_217\n    /* \"#utility.yul\":12614:12618   */\n  0x1f\n    /* \"#utility.yul\":12606:12612   */\n  dup10\n    /* \"#utility.yul\":12602:12619   */\n  and\n    /* \"#utility.yul\":12591:12600   */\n  dup3\n    /* \"#utility.yul\":12572:12620   */\n  tag_69\n  jump\t// in\ntag_217:\n    /* \"#utility.yul\":12564:12570   */\n  dup4\n    /* \"#utility.yul\":12557:12621   */\n  sstore\n    /* \"#utility.yul\":12479:12635   */\n  pop\n    /* \"#utility.yul\":12456:12635   */\ntag_216:\n    /* \"#utility.yul\":12681:12682   */\n  0x01\n    /* \"#utility.yul\":12677:12678   */\n  0x02\n    /* \"#utility.yul\":12669:12675   */\n  dup9\n    /* \"#utility.yul\":12665:12679   */\n  mul\n    /* \"#utility.yul\":12661:12683   */\n  add\n    /* \"#utility.yul\":12655:12659   */\n  dup9\n    /* \"#utility.yul\":12648:12684   */\n  sstore\n    /* \"#utility.yul\":12083:12694   */\n  pop\n  pop\n  pop\n    /* \"#utility.yul\":12046:12933   */\ntag_208:\n  pop\n    /* \"#utility.yul\":11636:12939   */\n  pop\n  pop\n  pop\n    /* \"#utility.yul\":11544:12939   */\n  pop\n  pop\n  jump\t// out\n    /* \"#utility.yul\":12945:13125   */\ntag_71:\n    /* \"#utility.yul\":12993:13070   */\n  0x4e487b7100000000000000000000000000000000000000000000000000000000\n    /* \"#utility.yul\":12990:12991   */\n  0x00\n    /* \"#utility.yul\":12983:13071   */\n  mstore\n    /* \"#utility.yul\":13090:13094   */\n  0x11\n    /* \"#utility.yul\":13087:13088   */\n  0x04\n    /* \"#utility.yul\":13080:13095   */\n  mstore\n    /* \"#utility.yul\":13114:13118   */\n  0x24\n    /* \"#utility.yul\":13111:13112   */\n  0x00\n    /* \"#utility.yul\":13104:13119   */\n  revert\n    /* \"#utility.yul\":13131:13541   */\ntag_16:\n    /* \"#utility.yul\":13171:13178   */\n  0x00\n    /* \"#utility.yul\":13194:13214   */\n  tag_220\n    /* \"#utility.yul\":13212:13213   */\n  dup3\n    /* \"#utility.yul\":13194:13214   */\n  tag_59\n  jump\t// in\ntag_220:\n    /* \"#utility.yul\":13189:13214   */\n  swap2\n  pop\n    /* \"#utility.yul\":13228:13248   */\n  tag_221\n    /* \"#utility.yul\":13246:13247   */\n  dup4\n    /* \"#utility.yul\":13228:13248   */\n  tag_59\n  jump\t// in\ntag_221:\n    /* \"#utility.yul\":13223:13248   */\n  swap3\n  pop\n    /* \"#utility.yul\":13283:13284   */\n  dup3\n    /* \"#utility.yul\":13280:13281   */\n  dup3\n    /* \"#utility.yul\":13276:13285   */\n  mul\n    /* \"#utility.yul\":13305:13335   */\n  tag_222\n    /* \"#utility.yul\":13323:13334   */\n  dup2\n    /* \"#utility.yul\":13305:13335   */\n  tag_59\n  jump\t// in\ntag_222:\n    /* \"#utility.yul\":13294:13335   */\n  swap2\n  pop\n    /* \"#utility.yul\":13484:13485   */\n  dup3\n    /* \"#utility.yul\":13475:13482   */\n  dup3\n    /* \"#utility.yul\":13471:13486   */\n  div\n    /* \"#utility.yul\":13468:13469   */\n  dup5\n    /* \"#utility.yul\":13465:13487   */\n  eq\n    /* \"#utility.yul\":13445:13446   */\n  dup4\n    /* \"#utility.yul\":13438:13447   */\n  iszero\n    /* \"#utility.yul\":13418:13501   */\n  or\n    /* \"#utility.yul\":13395:13534   */\n  tag_223\n  jumpi\n    /* \"#utility.yul\":13514:13532   */\n  tag_224\n  tag_71\n  jump\t// in\ntag_224:\n    /* \"#utility.yul\":13395:13534   */\ntag_223:\n    /* \"#utility.yul\":13179:13541   */\n  pop\n    /* \"#utility.yul\":13131:13541   */\n  swap3\n  swap2\n  pop\n  pop\n  jump\t// out\n    /* \"#utility.yul\":13547:13727   */\ntag_72:\n    /* \"#utility.yul\":13595:13672   */\n  0x4e487b7100000000000000000000000000000000000000000000000000000000\n    /* \"#utility.yul\":13592:13593   */\n  0x00\n    /* \"#utility.yul\":13585:13673   */\n  mstore\n    /* \"#utility.yul\":13692:13696   */\n  0x12\n    /* \"#utility.yul\":13689:13690   */\n  0x04\n    /* \"#utility.yul\":13682:13697   */\n  mstore\n    /* \"#utility.yul\":13716:13720   */\n  0x24\n    /* \"#utility.yul\":13713:13714   */\n  0x00\n    /* \"#utility.yul\":13706:13721   */\n  revert\n    /* \"#utility.yul\":13733:13918   */\ntag_18:\n    /* \"#utility.yul\":13773:13774   */\n  0x00\n    /* \"#utility.yul\":13790:13810   */\n  tag_227\n    /* \"#utility.yul\":13808:13809   */\n  dup3\n    /* \"#utility.yul\":13790:13810   */\n  tag_59\n  jump\t// in\ntag_227:\n    /* \"#utility.yul\":13785:13810   */\n  swap2\n  pop\n    /* \"#utility.yul\":13824:13844   */\n  tag_228\n    /* \"#utility.yul\":13842:13843   */\n  dup4\n    /* \"#utility.yul\":13824:13844   */\n  tag_59\n  jump\t// in\ntag_228:\n    /* \"#utility.yul\":13819:13844   */\n  swap3\n  pop\n    /* \"#utility.yul\":13863:13864   */\n  dup3\n    /* \"#utility.yul\":13853:13888   */\n  tag_229\n  jumpi\n    /* \"#utility.yul\":13868:13886   */\n  tag_230\n  tag_72\n  jump\t// in\ntag_230:\n    /* \"#utility.yul\":13853:13888   */\ntag_229:\n    /* \"#utility.yul\":13910:13911   */\n  dup3\n    /* \"#utility.yul\":13907:13908   */\n  dup3\n    /* \"#utility.yul\":13903:13912   */\n  div\n    /* \"#utility.yul\":13898:13912   */\n  swap1\n  pop\n    /* \"#utility.yul\":13733:13918   */\n  swap3\n  swap2\n  pop\n  pop\n  jump\t// out\n    /* \"Lottogemeinschaft.sol\":1709:7229  contract Lottogemeinschaft {... */\ntag_20:\n  dataSize(sub_0)\n  dup1\n  dataOffset(sub_0)\n  0x00\n  codecopy\n  0x00\n  return\nstop\n\nsub_0: assembly {\n        /* \"Lottogemeinschaft.sol\":1709:7229  contract Lottogemeinschaft {... */\n      mstore(0x40, 0x80)\n      jumpi(tag_1, lt(calldatasize, 0x04))\n      shr(0xe0, calldataload(0x00))\n      dup1\n      0x8acb4624\n      gt\n      tag_26\n      jumpi\n      dup1\n      0xbb68a67f\n      gt\n      tag_27\n      jumpi\n      dup1\n      0xbb68a67f\n      eq\n      tag_20\n      jumpi\n      dup1\n      0xc6ca9d19\n      eq\n      tag_21\n      jumpi\n      dup1\n      0xd27d06c0\n      eq\n      tag_22\n      jumpi\n      dup1\n      0xe068561a\n      eq\n      tag_23\n      jumpi\n      dup1\n      0xe34ad1d7\n      eq\n      tag_24\n      jumpi\n      dup1\n      0xe86c5692\n      eq\n      tag_25\n      jumpi\n      jump(tag_1)\n    tag_27:\n      dup1\n      0x8acb4624\n      eq\n      tag_14\n      jumpi\n      dup1\n      0x91243239\n      eq\n      tag_15\n      jumpi\n      dup1\n      0xa299f171\n      eq\n      tag_16\n      jumpi\n      dup1\n      0xab76211e\n      eq\n      tag_17\n      jumpi\n      dup1\n      0xad2c046c\n      eq\n      tag_18\n      jumpi\n      dup1\n      0xb08c7076\n      eq\n      tag_19\n      jumpi\n      jump(tag_1)\n    tag_26:\n      dup1\n      0x3babb15a\n      gt\n      tag_28\n      jumpi\n      dup1\n      0x3babb15a\n      eq\n      tag_8\n      jumpi\n      dup1\n      0x3f0f5d51\n      eq\n      tag_9\n      jumpi\n      dup1\n      0x43767832\n      eq\n      tag_10\n      jumpi\n      dup1\n      0x526024ea\n      eq\n      tag_11\n      jumpi\n      dup1\n      0x70a41bc0\n      eq\n      tag_12\n      jumpi\n      dup1\n      0x833e92cb\n      eq\n      tag_13\n      jumpi\n      jump(tag_1)\n    tag_28:\n      dup1\n      0x084263f5\n      eq\n      tag_2\n      jumpi\n      dup1\n      0x0f085e50\n      eq\n      tag_3\n      jumpi\n      dup1\n      0x2340983f\n      eq\n      tag_4\n      jumpi\n      dup1\n      0x2df368a5\n      eq\n      tag_5\n      jumpi\n      dup1\n      0x31c45120\n      eq\n      tag_6\n      jumpi\n      dup1\n      0x36927060\n      eq\n      tag_7\n      jumpi\n    tag_1:\n      0x00\n      dup1\n      revert\n        /* \"Lottogemeinschaft.sol\":1965:1989  uint48 public auszahlung */\n    tag_2:\n      callvalue\n      dup1\n      iszero\n      tag_29\n      jumpi\n      0x00\n      dup1\n      revert\n    tag_29:\n      pop\n      tag_30\n      tag_31\n      jump\t// in\n    tag_30:\n      mload(0x40)\n      tag_32\n      swap2\n      swap1\n      tag_33\n      jump\t// in\n    tag_32:\n      mload(0x40)\n      dup1\n      swap2\n      sub\n      swap1\n      return\n        /* \"Lottogemeinschaft.sol\":2199:2236  uint48 public gewinnProMitspieler = 0 */\n    tag_3:\n      callvalue\n      dup1\n      iszero\n      tag_34\n      jumpi\n      0x00\n      dup1\n      revert\n    tag_34:\n      pop\n      tag_35\n      tag_36\n      jump\t// in\n    tag_35:\n      mload(0x40)\n      tag_37\n      swap2\n      swap1\n      tag_33\n      jump\t// in\n    tag_37:\n      mload(0x40)\n      dup1\n      swap2\n      sub\n      swap1\n      return\n        /* \"Lottogemeinschaft.sol\":2242:2284  bool public gewinnKannAbgeholtWerden=false */\n    tag_4:\n      callvalue\n      dup1\n      iszero\n      tag_38\n      jumpi\n      0x00\n      dup1\n      revert\n    tag_38:\n      pop\n      tag_39\n      tag_40\n      jump\t// in\n    tag_39:\n      mload(0x40)\n      tag_41\n      swap2\n      swap1\n      tag_42\n      jump\t// in\n    tag_41:\n      mload(0x40)\n      dup1\n      swap2\n      sub\n      swap1\n      return\n        /* \"Lottogemeinschaft.sol\":1888:1920  uint32 public preisProMitspieler */\n    tag_5:\n      callvalue\n      dup1\n      iszero\n      tag_43\n      jumpi\n      0x00\n      dup1\n      revert\n    tag_43:\n      pop\n      tag_44\n      tag_45\n      jump\t// in\n    tag_44:\n      mload(0x40)\n      tag_46\n      swap2\n      swap1\n      tag_47\n      jump\t// in\n    tag_46:\n      mload(0x40)\n      dup1\n      swap2\n      sub\n      swap1\n      return\n        /* \"Lottogemeinschaft.sol\":5513:5749  function preisLottoscheinAendern(uint32 neuerPreis) public restictedToGruender{... */\n    tag_6:\n      callvalue\n      dup1\n      iszero\n      tag_48\n      jumpi\n      0x00\n      dup1\n      revert\n    tag_48:\n      pop\n      tag_49\n      0x04\n      dup1\n      calldatasize\n      sub\n      dup2\n      add\n      swap1\n      tag_50\n      swap2\n      swap1\n      tag_51\n      jump\t// in\n    tag_50:\n      tag_52\n      jump\t// in\n    tag_49:\n      stop\n        /* \"Lottogemeinschaft.sol\":1995:2037  mapping(address => bool) public mitspieler */\n    tag_7:\n      callvalue\n      dup1\n      iszero\n      tag_53\n      jumpi\n      0x00\n      dup1\n      revert\n    tag_53:\n      pop\n      tag_54\n      0x04\n      dup1\n      calldatasize\n      sub\n      dup2\n      add\n      swap1\n      tag_55\n      swap2\n      swap1\n      tag_56\n      jump\t// in\n    tag_55:\n      tag_57\n      jump\t// in\n    tag_54:\n      mload(0x40)\n      tag_58\n      swap2\n      swap1\n      tag_42\n      jump\t// in\n    tag_58:\n      mload(0x40)\n      dup1\n      swap2\n      sub\n      swap1\n      return\n        /* \"Lottogemeinschaft.sol\":2156:2193  uint16 public anzahlTeilnehmerAktuell */\n    tag_8:\n      callvalue\n      dup1\n      iszero\n      tag_59\n      jumpi\n      0x00\n      dup1\n      revert\n    tag_59:\n      pop\n      tag_60\n      tag_61\n      jump\t// in\n    tag_60:\n      mload(0x40)\n      tag_62\n      swap2\n      swap1\n      tag_63\n      jump\t// in\n    tag_62:\n      mload(0x40)\n      dup1\n      swap2\n      sub\n      swap1\n      return\n        /* \"Lottogemeinschaft.sol\":1852:1882  uint32 public preisLottoschein */\n    tag_9:\n      callvalue\n      dup1\n      iszero\n      tag_64\n      jumpi\n      0x00\n      dup1\n      revert\n    tag_64:\n      pop\n      tag_65\n      tag_66\n      jump\t// in\n    tag_65:\n      mload(0x40)\n      tag_67\n      swap2\n      swap1\n      tag_47\n      jump\t// in\n    tag_67:\n      mload(0x40)\n      dup1\n      swap2\n      sub\n      swap1\n      return\n        /* \"Lottogemeinschaft.sol\":6047:6321  function erlaubteMitspielerAdresseHinzufuegen(address _erlaubterMitspieler) public restictedToGruender{... */\n    tag_10:\n      callvalue\n      dup1\n      iszero\n      tag_68\n      jumpi\n      0x00\n      dup1\n      revert\n    tag_68:\n      pop\n      tag_69\n      0x04\n      dup1\n      calldatasize\n      sub\n      dup2\n      add\n      swap1\n      tag_70\n      swap2\n      swap1\n      tag_56\n      jump\t// in\n    tag_70:\n      tag_71\n      jump\t// in\n    tag_69:\n      stop\n        /* \"Lottogemeinschaft.sol\":3428:4268  function mitmachen() public payable {... */\n    tag_11:\n      tag_72\n      tag_73\n      jump\t// in\n    tag_72:\n      stop\n        /* \"Lottogemeinschaft.sol\":1813:1846  uint16 public maxTeilnehmerAnzahl */\n    tag_12:\n      callvalue\n      dup1\n      iszero\n      tag_74\n      jumpi\n      0x00\n      dup1\n      revert\n    tag_74:\n      pop\n      tag_75\n      tag_76\n      jump\t// in\n    tag_75:\n      mload(0x40)\n      tag_77\n      swap2\n      swap1\n      tag_63\n      jump\t// in\n    tag_77:\n      mload(0x40)\n      dup1\n      swap2\n      sub\n      swap1\n      return\n        /* \"Lottogemeinschaft.sol\":5022:5506  function gewinnAbholen() public restictedToMitspieler nonReentrant {... */\n    tag_13:\n      callvalue\n      dup1\n      iszero\n      tag_78\n      jumpi\n      0x00\n      dup1\n      revert\n    tag_78:\n      pop\n      tag_79\n      tag_80\n      jump\t// in\n    tag_79:\n      stop\n        /* \"Lottogemeinschaft.sol\":1926:1959  string public spielauftragsNummer */\n    tag_14:\n      callvalue\n      dup1\n      iszero\n      tag_81\n      jumpi\n      0x00\n      dup1\n      revert\n    tag_81:\n      pop\n      tag_82\n      tag_83\n      jump\t// in\n    tag_82:\n      mload(0x40)\n      tag_84\n      swap2\n      swap1\n      tag_85\n      jump\t// in\n    tag_84:\n      mload(0x40)\n      dup1\n      swap2\n      sub\n      swap1\n      return\n        /* \"Lottogemeinschaft.sol\":2043:2091  mapping(address => bool) public gewinnAusgezahlt */\n    tag_15:\n      callvalue\n      dup1\n      iszero\n      tag_86\n      jumpi\n      0x00\n      dup1\n      revert\n    tag_86:\n      pop\n      tag_87\n      0x04\n      dup1\n      calldatasize\n      sub\n      dup2\n      add\n      swap1\n      tag_88\n      swap2\n      swap1\n      tag_56\n      jump\t// in\n    tag_88:\n      tag_89\n      jump\t// in\n    tag_87:\n      mload(0x40)\n      tag_90\n      swap2\n      swap1\n      tag_42\n      jump\t// in\n    tag_90:\n      mload(0x40)\n      dup1\n      swap2\n      sub\n      swap1\n      return\n        /* \"Lottogemeinschaft.sol\":6735:7225  function einsatzZurueckholen() public restictedToMitspieler nonReentrant {... */\n    tag_16:\n      callvalue\n      dup1\n      iszero\n      tag_91\n      jumpi\n      0x00\n      dup1\n      revert\n    tag_91:\n      pop\n      tag_92\n      tag_93\n      jump\t// in\n    tag_92:\n      stop\n        /* \"Lottogemeinschaft.sol\":6422:6679  function gemeinschaftAufloesen() public restictedToGruender {... */\n    tag_17:\n      callvalue\n      dup1\n      iszero\n      tag_94\n      jumpi\n      0x00\n      dup1\n      revert\n    tag_94:\n      pop\n      tag_95\n      tag_96\n      jump\t// in\n    tag_95:\n      stop\n        /* \"Lottogemeinschaft.sol\":1743:1766  address public gruender */\n    tag_18:\n      callvalue\n      dup1\n      iszero\n      tag_97\n      jumpi\n      0x00\n      dup1\n      revert\n    tag_97:\n      pop\n      tag_98\n      tag_99\n      jump\t// in\n    tag_98:\n      mload(0x40)\n      tag_100\n      swap2\n      swap1\n      tag_101\n      jump\t// in\n    tag_100:\n      mload(0x40)\n      dup1\n      swap2\n      sub\n      swap1\n      return\n        /* \"Lottogemeinschaft.sol\":2290:2329  bool public nurErlaubteMitspieler=false */\n    tag_19:\n      callvalue\n      dup1\n      iszero\n      tag_102\n      jumpi\n      0x00\n      dup1\n      revert\n    tag_102:\n      pop\n      tag_103\n      tag_104\n      jump\t// in\n    tag_103:\n      mload(0x40)\n      tag_105\n      swap2\n      swap1\n      tag_42\n      jump\t// in\n    tag_105:\n      mload(0x40)\n      dup1\n      swap2\n      sub\n      swap1\n      return\n        /* \"Lottogemeinschaft.sol\":2097:2150  mapping(address => bool) public einsatzZurueckGezahlt */\n    tag_20:\n      callvalue\n      dup1\n      iszero\n      tag_106\n      jumpi\n      0x00\n      dup1\n      revert\n    tag_106:\n      pop\n      tag_107\n      0x04\n      dup1\n      calldatasize\n      sub\n      dup2\n      add\n      swap1\n      tag_108\n      swap2\n      swap1\n      tag_56\n      jump\t// in\n    tag_108:\n      tag_109\n      jump\t// in\n    tag_107:\n      mload(0x40)\n      tag_110\n      swap2\n      swap1\n      tag_42\n      jump\t// in\n    tag_110:\n      mload(0x40)\n      dup1\n      swap2\n      sub\n      swap1\n      return\n        /* \"Lottogemeinschaft.sol\":4316:4974  function gewinnEinzahlen(uint48 gewinn) public payable restictedToGruender {... */\n    tag_21:\n      tag_111\n      0x04\n      dup1\n      calldatasize\n      sub\n      dup2\n      add\n      swap1\n      tag_112\n      swap2\n      swap1\n      tag_113\n      jump\t// in\n    tag_112:\n      tag_114\n      jump\t// in\n    tag_111:\n      stop\n        /* \"Lottogemeinschaft.sol\":1772:1807  string public tippgemeinschaftsName */\n    tag_22:\n      callvalue\n      dup1\n      iszero\n      tag_115\n      jumpi\n      0x00\n      dup1\n      revert\n    tag_115:\n      pop\n      tag_116\n      tag_117\n      jump\t// in\n    tag_116:\n      mload(0x40)\n      tag_118\n      swap2\n      swap1\n      tag_85\n      jump\t// in\n    tag_118:\n      mload(0x40)\n      dup1\n      swap2\n      sub\n      swap1\n      return\n        /* \"Lottogemeinschaft.sol\":5755:6041  function anzahlMitspielerAendern(uint16 neueAnzahlMaxTeilnehmer) public restictedToGruender{... */\n    tag_23:\n      callvalue\n      dup1\n      iszero\n      tag_119\n      jumpi\n      0x00\n      dup1\n      revert\n    tag_119:\n      pop\n      tag_120\n      0x04\n      dup1\n      calldatasize\n      sub\n      dup2\n      add\n      swap1\n      tag_121\n      swap2\n      swap1\n      tag_122\n      jump\t// in\n    tag_121:\n      tag_123\n      jump\t// in\n    tag_120:\n      stop\n        /* \"Lottogemeinschaft.sol\":2417:2439  bool public aufgeloest */\n    tag_24:\n      callvalue\n      dup1\n      iszero\n      tag_124\n      jumpi\n      0x00\n      dup1\n      revert\n    tag_124:\n      pop\n      tag_125\n      tag_126\n      jump\t// in\n    tag_125:\n      mload(0x40)\n      tag_127\n      swap2\n      swap1\n      tag_42\n      jump\t// in\n    tag_127:\n      mload(0x40)\n      dup1\n      swap2\n      sub\n      swap1\n      return\n        /* \"Lottogemeinschaft.sol\":2335:2386  mapping(address => bool) public erlaubterMitspieler */\n    tag_25:\n      callvalue\n      dup1\n      iszero\n      tag_128\n      jumpi\n      0x00\n      dup1\n      revert\n    tag_128:\n      pop\n      tag_129\n      0x04\n      dup1\n      calldatasize\n      sub\n      dup2\n      add\n      swap1\n      tag_130\n      swap2\n      swap1\n      tag_56\n      jump\t// in\n    tag_130:\n      tag_131\n      jump\t// in\n    tag_129:\n      mload(0x40)\n      tag_132\n      swap2\n      swap1\n      tag_42\n      jump\t// in\n    tag_132:\n      mload(0x40)\n      dup1\n      swap2\n      sub\n      swap1\n      return\n        /* \"Lottogemeinschaft.sol\":1965:1989  uint48 public auszahlung */\n    tag_31:\n      0x04\n      0x00\n      swap1\n      sload\n      swap1\n      0x0100\n      exp\n      swap1\n      div\n      0xffffffffffff\n      and\n      dup2\n      jump\t// out\n        /* \"Lottogemeinschaft.sol\":2199:2236  uint48 public gewinnProMitspieler = 0 */\n    tag_36:\n      0x08\n      0x02\n      swap1\n      sload\n      swap1\n      0x0100\n      exp\n      swap1\n      div\n      0xffffffffffff\n      and\n      dup2\n      jump\t// out\n        /* \"Lottogemeinschaft.sol\":2242:2284  bool public gewinnKannAbgeholtWerden=false */\n    tag_40:\n      0x08\n      dup1\n      sload\n      swap1\n      0x0100\n      exp\n      swap1\n      div\n      0xff\n      and\n      dup2\n      jump\t// out\n        /* \"Lottogemeinschaft.sol\":1888:1920  uint32 public preisProMitspieler */\n    tag_45:\n      0x02\n      0x06\n      swap1\n      sload\n      swap1\n      0x0100\n      exp\n      swap1\n      div\n      0xffffffff\n      and\n      dup2\n      jump\t// out\n        /* \"Lottogemeinschaft.sol\":5513:5749  function preisLottoscheinAendern(uint32 neuerPreis) public restictedToGruender{... */\n    tag_52:\n        /* \"Lottogemeinschaft.sol\":3159:3167  gruender */\n      0x00\n      dup1\n      sload\n      swap1\n      0x0100\n      exp\n      swap1\n      div\n      0xffffffffffffffffffffffffffffffffffffffff\n      and\n        /* \"Lottogemeinschaft.sol\":3145:3167  msg.sender == gruender */\n      0xffffffffffffffffffffffffffffffffffffffff\n      and\n        /* \"Lottogemeinschaft.sol\":3145:3155  msg.sender */\n      caller\n        /* \"Lottogemeinschaft.sol\":3145:3167  msg.sender == gruender */\n      0xffffffffffffffffffffffffffffffffffffffff\n      and\n      eq\n        /* \"Lottogemeinschaft.sol\":3137:3168  require(msg.sender == gruender) */\n      tag_134\n      jumpi\n      0x00\n      dup1\n      revert\n    tag_134:\n        /* \"Lottogemeinschaft.sol\":5634:5635  0 */\n      0x00\n        /* \"Lottogemeinschaft.sol\":5609:5632  anzahlTeilnehmerAktuell */\n      0x08\n      0x00\n      swap1\n      sload\n      swap1\n      0x0100\n      exp\n      swap1\n      div\n      0xffff\n      and\n        /* \"Lottogemeinschaft.sol\":5609:5635  anzahlTeilnehmerAktuell==0 */\n      0xffff\n      and\n      eq\n        /* \"Lottogemeinschaft.sol\":5601:5703  require(anzahlTeilnehmerAktuell==0, \"Es gibt bereits Mitspieler. Preisaenderung nicht mehr moeglich.\") */\n      tag_136\n      jumpi\n      mload(0x40)\n      0x08c379a000000000000000000000000000000000000000000000000000000000\n      dup2\n      mstore\n      0x04\n      add\n      tag_137\n      swap1\n      tag_138\n      jump\t// in\n    tag_137:\n      mload(0x40)\n      dup1\n      swap2\n      sub\n      swap1\n      revert\n    tag_136:\n        /* \"Lottogemeinschaft.sol\":5732:5742  neuerPreis */\n      dup1\n        /* \"Lottogemeinschaft.sol\":5713:5729  preisLottoschein */\n      0x02\n      dup1\n        /* \"Lottogemeinschaft.sol\":5713:5742  preisLottoschein = neuerPreis */\n      0x0100\n      exp\n      dup2\n      sload\n      dup2\n      0xffffffff\n      mul\n      not\n      and\n      swap1\n      dup4\n      0xffffffff\n      and\n      mul\n      or\n      swap1\n      sstore\n      pop\n        /* \"Lottogemeinschaft.sol\":5513:5749  function preisLottoscheinAendern(uint32 neuerPreis) public restictedToGruender{... */\n      pop\n      jump\t// out\n        /* \"Lottogemeinschaft.sol\":1995:2037  mapping(address => bool) public mitspieler */\n    tag_57:\n      mstore(0x20, 0x05)\n      dup1\n      0x00\n      mstore\n      keccak256(0x00, 0x40)\n      0x00\n      swap2\n      pop\n      sload\n      swap1\n      0x0100\n      exp\n      swap1\n      div\n      0xff\n      and\n      dup2\n      jump\t// out\n        /* \"Lottogemeinschaft.sol\":2156:2193  uint16 public anzahlTeilnehmerAktuell */\n    tag_61:\n      0x08\n      0x00\n      swap1\n      sload\n      swap1\n      0x0100\n      exp\n      swap1\n      div\n      0xffff\n      and\n      dup2\n      jump\t// out\n        /* \"Lottogemeinschaft.sol\":1852:1882  uint32 public preisLottoschein */\n    tag_66:\n      0x02\n      dup1\n      sload\n      swap1\n      0x0100\n      exp\n      swap1\n      div\n      0xffffffff\n      and\n      dup2\n      jump\t// out\n        /* \"Lottogemeinschaft.sol\":6047:6321  function erlaubteMitspielerAdresseHinzufuegen(address _erlaubterMitspieler) public restictedToGruender{... */\n    tag_71:\n        /* \"Lottogemeinschaft.sol\":3159:3167  gruender */\n      0x00\n      dup1\n      sload\n      swap1\n      0x0100\n      exp\n      swap1\n      div\n      0xffffffffffffffffffffffffffffffffffffffff\n      and\n        /* \"Lottogemeinschaft.sol\":3145:3167  msg.sender == gruender */\n      0xffffffffffffffffffffffffffffffffffffffff\n      and\n        /* \"Lottogemeinschaft.sol\":3145:3155  msg.sender */\n      caller\n        /* \"Lottogemeinschaft.sol\":3145:3167  msg.sender == gruender */\n      0xffffffffffffffffffffffffffffffffffffffff\n      and\n      eq\n        /* \"Lottogemeinschaft.sol\":3137:3168  require(msg.sender == gruender) */\n      tag_140\n      jumpi\n      0x00\n      dup1\n      revert\n    tag_140:\n        /* \"Lottogemeinschaft.sol\":6192:6193  0 */\n      0x00\n        /* \"Lottogemeinschaft.sol\":6167:6190  anzahlTeilnehmerAktuell */\n      0x08\n      0x00\n      swap1\n      sload\n      swap1\n      0x0100\n      exp\n      swap1\n      div\n      0xffff\n      and\n        /* \"Lottogemeinschaft.sol\":6167:6193  anzahlTeilnehmerAktuell==0 */\n      0xffff\n      and\n      eq\n        /* \"Lottogemeinschaft.sol\":6159:6256  require(anzahlTeilnehmerAktuell==0, \"Es gibt bereits Mitspieler. Aenderung nicht mehr moeglich.\") */\n      tag_142\n      jumpi\n      mload(0x40)\n      0x08c379a000000000000000000000000000000000000000000000000000000000\n      dup2\n      mstore\n      0x04\n      add\n      tag_143\n      swap1\n      tag_144\n      jump\t// in\n    tag_143:\n      mload(0x40)\n      dup1\n      swap2\n      sub\n      swap1\n      revert\n    tag_142:\n        /* \"Lottogemeinschaft.sol\":6310:6314  true */\n      0x01\n        /* \"Lottogemeinschaft.sol\":6266:6285  erlaubterMitspieler */\n      0x09\n        /* \"Lottogemeinschaft.sol\":6266:6307  erlaubterMitspieler[_erlaubterMitspieler] */\n      0x00\n        /* \"Lottogemeinschaft.sol\":6286:6306  _erlaubterMitspieler */\n      dup4\n        /* \"Lottogemeinschaft.sol\":6266:6307  erlaubterMitspieler[_erlaubterMitspieler] */\n      0xffffffffffffffffffffffffffffffffffffffff\n      and\n      0xffffffffffffffffffffffffffffffffffffffff\n      and\n      dup2\n      mstore\n      0x20\n      add\n      swap1\n      dup2\n      mstore\n      0x20\n      add\n      0x00\n      keccak256\n      0x00\n        /* \"Lottogemeinschaft.sol\":6266:6314  erlaubterMitspieler[_erlaubterMitspieler] = true */\n      0x0100\n      exp\n      dup2\n      sload\n      dup2\n      0xff\n      mul\n      not\n      and\n      swap1\n      dup4\n      iszero\n      iszero\n      mul\n      or\n      swap1\n      sstore\n      pop\n        /* \"Lottogemeinschaft.sol\":6047:6321  function erlaubteMitspielerAdresseHinzufuegen(address _erlaubterMitspieler) public restictedToGruender{... */\n      pop\n      jump\t// out\n        /* \"Lottogemeinschaft.sol\":3428:4268  function mitmachen() public payable {... */\n    tag_73:\n        /* \"Lottogemeinschaft.sol\":3515:3516  0 */\n      0x00\n        /* \"Lottogemeinschaft.sol\":3496:3514  preisProMitspieler */\n      0x02\n      0x06\n      swap1\n      sload\n      swap1\n      0x0100\n      exp\n      swap1\n      div\n      0xffffffff\n      and\n        /* \"Lottogemeinschaft.sol\":3496:3516  preisProMitspieler>0 */\n      0xffffffff\n      and\n      gt\n        /* \"Lottogemeinschaft.sol\":3488:3546  require(preisProMitspieler>0, \"Kein Preis pro Mitspieler\") */\n      tag_146\n      jumpi\n      mload(0x40)\n      0x08c379a000000000000000000000000000000000000000000000000000000000\n      dup2\n      mstore\n      0x04\n      add\n      tag_147\n      swap1\n      tag_148\n      jump\t// in\n    tag_147:\n      mload(0x40)\n      dup1\n      swap2\n      sub\n      swap1\n      revert\n    tag_146:\n        /* \"Lottogemeinschaft.sol\":3577:3595  preisProMitspieler */\n      0x02\n      0x06\n      swap1\n      sload\n      swap1\n      0x0100\n      exp\n      swap1\n      div\n      0xffffffff\n      and\n        /* \"Lottogemeinschaft.sol\":3564:3595  msg.value >= preisProMitspieler */\n      0xffffffff\n      and\n        /* \"Lottogemeinschaft.sol\":3564:3573  msg.value */\n      callvalue\n        /* \"Lottogemeinschaft.sol\":3564:3595  msg.value >= preisProMitspieler */\n      lt\n      iszero\n        /* \"Lottogemeinschaft.sol\":3556:3629  require(msg.value >= preisProMitspieler, \"Zu geringer Einzahlungsbetrag\") */\n      tag_149\n      jumpi\n      mload(0x40)\n      0x08c379a000000000000000000000000000000000000000000000000000000000\n      dup2\n      mstore\n      0x04\n      add\n      tag_150\n      swap1\n      tag_151\n      jump\t// in\n    tag_150:\n      mload(0x40)\n      dup1\n      swap2\n      sub\n      swap1\n      revert\n    tag_149:\n        /* \"Lottogemeinschaft.sol\":3648:3658  mitspieler */\n      0x05\n        /* \"Lottogemeinschaft.sol\":3648:3670  mitspieler[msg.sender] */\n      0x00\n        /* \"Lottogemeinschaft.sol\":3659:3669  msg.sender */\n      caller\n        /* \"Lottogemeinschaft.sol\":3648:3670  mitspieler[msg.sender] */\n      0xffffffffffffffffffffffffffffffffffffffff\n      and\n      0xffffffffffffffffffffffffffffffffffffffff\n      and\n      dup2\n      mstore\n      0x20\n      add\n      swap1\n      dup2\n      mstore\n      0x20\n      add\n      0x00\n      keccak256\n      0x00\n      swap1\n      sload\n      swap1\n      0x0100\n      exp\n      swap1\n      div\n      0xff\n      and\n        /* \"Lottogemeinschaft.sol\":3647:3670  !mitspieler[msg.sender] */\n      iszero\n        /* \"Lottogemeinschaft.sol\":3639:3709  require(!mitspieler[msg.sender], \"Bereits als Mitspieler registriert\") */\n      tag_152\n      jumpi\n      mload(0x40)\n      0x08c379a000000000000000000000000000000000000000000000000000000000\n      dup2\n      mstore\n      0x04\n      add\n      tag_153\n      swap1\n      tag_154\n      jump\t// in\n    tag_153:\n      mload(0x40)\n      dup1\n      swap2\n      sub\n      swap1\n      revert\n    tag_152:\n        /* \"Lottogemeinschaft.sol\":3753:3772  maxTeilnehmerAnzahl */\n      0x02\n      0x00\n      swap1\n      sload\n      swap1\n      0x0100\n      exp\n      swap1\n      div\n      0xffff\n      and\n        /* \"Lottogemeinschaft.sol\":3727:3772  anzahlTeilnehmerAktuell < maxTeilnehmerAnzahl */\n      0xffff\n      and\n        /* \"Lottogemeinschaft.sol\":3727:3750  anzahlTeilnehmerAktuell */\n      0x08\n      0x00\n      swap1\n      sload\n      swap1\n      0x0100\n      exp\n      swap1\n      div\n      0xffff\n      and\n        /* \"Lottogemeinschaft.sol\":3727:3772  anzahlTeilnehmerAktuell < maxTeilnehmerAnzahl */\n      0xffff\n      and\n      lt\n        /* \"Lottogemeinschaft.sol\":3719:3809  require(anzahlTeilnehmerAktuell < maxTeilnehmerAnzahl, \"Maximale Teilnehmerzahl erreicht\") */\n      tag_155\n      jumpi\n      mload(0x40)\n      0x08c379a000000000000000000000000000000000000000000000000000000000\n      dup2\n      mstore\n      0x04\n      add\n      tag_156\n      swap1\n      tag_157\n      jump\t// in\n    tag_156:\n      mload(0x40)\n      dup1\n      swap2\n      sub\n      swap1\n      revert\n    tag_155:\n        /* \"Lottogemeinschaft.sol\":3848:3849  0 */\n      0x00\n        /* \"Lottogemeinschaft.sol\":3827:3846  gewinnProMitspieler */\n      0x08\n      0x02\n      swap1\n      sload\n      swap1\n      0x0100\n      exp\n      swap1\n      div\n      0xffffffffffff\n      and\n        /* \"Lottogemeinschaft.sol\":3827:3849  gewinnProMitspieler==0 */\n      0xffffffffffff\n      and\n      eq\n        /* \"Lottogemeinschaft.sol\":3819:3885  require(gewinnProMitspieler==0, \"Gewinn wurde bereits eingezahlt\") */\n      tag_158\n      jumpi\n      mload(0x40)\n      0x08c379a000000000000000000000000000000000000000000000000000000000\n      dup2\n      mstore\n      0x04\n      add\n      tag_159\n      swap1\n      tag_160\n      jump\t// in\n    tag_159:\n      mload(0x40)\n      dup1\n      swap2\n      sub\n      swap1\n      revert\n    tag_158:\n        /* \"Lottogemeinschaft.sol\":3899:3920  nurErlaubteMitspieler */\n      0x08\n      0x09\n      swap1\n      sload\n      swap1\n      0x0100\n      exp\n      swap1\n      div\n      0xff\n      and\n        /* \"Lottogemeinschaft.sol\":3895:3986  if (nurErlaubteMitspieler){... */\n      iszero\n      tag_161\n      jumpi\n        /* \"Lottogemeinschaft.sol\":3943:3962  erlaubterMitspieler */\n      0x09\n        /* \"Lottogemeinschaft.sol\":3943:3974  erlaubterMitspieler[msg.sender] */\n      0x00\n        /* \"Lottogemeinschaft.sol\":3963:3973  msg.sender */\n      caller\n        /* \"Lottogemeinschaft.sol\":3943:3974  erlaubterMitspieler[msg.sender] */\n      0xffffffffffffffffffffffffffffffffffffffff\n      and\n      0xffffffffffffffffffffffffffffffffffffffff\n      and\n      dup2\n      mstore\n      0x20\n      add\n      swap1\n      dup2\n      mstore\n      0x20\n      add\n      0x00\n      keccak256\n      0x00\n      swap1\n      sload\n      swap1\n      0x0100\n      exp\n      swap1\n      div\n      0xff\n      and\n        /* \"Lottogemeinschaft.sol\":3935:3975  require(erlaubterMitspieler[msg.sender]) */\n      tag_162\n      jumpi\n      0x00\n      dup1\n      revert\n    tag_162:\n        /* \"Lottogemeinschaft.sol\":3895:3986  if (nurErlaubteMitspieler){... */\n    tag_161:\n        /* \"Lottogemeinschaft.sol\":4017:4033  uint ueberschuss */\n      0x00\n        /* \"Lottogemeinschaft.sol\":4048:4066  preisProMitspieler */\n      0x02\n      0x06\n      swap1\n      sload\n      swap1\n      0x0100\n      exp\n      swap1\n      div\n      0xffffffff\n      and\n        /* \"Lottogemeinschaft.sol\":4036:4066  msg.value - preisProMitspieler */\n      0xffffffff\n      and\n        /* \"Lottogemeinschaft.sol\":4036:4045  msg.value */\n      callvalue\n        /* \"Lottogemeinschaft.sol\":4036:4066  msg.value - preisProMitspieler */\n      tag_163\n      swap2\n      swap1\n      tag_164\n      jump\t// in\n    tag_163:\n        /* \"Lottogemeinschaft.sol\":4017:4066  uint ueberschuss = msg.value - preisProMitspieler */\n      swap1\n      pop\n        /* \"Lottogemeinschaft.sol\":4101:4105  true */\n      0x01\n        /* \"Lottogemeinschaft.sol\":4076:4086  mitspieler */\n      0x05\n        /* \"Lottogemeinschaft.sol\":4076:4098  mitspieler[msg.sender] */\n      0x00\n        /* \"Lottogemeinschaft.sol\":4087:4097  msg.sender */\n      caller\n        /* \"Lottogemeinschaft.sol\":4076:4098  mitspieler[msg.sender] */\n      0xffffffffffffffffffffffffffffffffffffffff\n      and\n      0xffffffffffffffffffffffffffffffffffffffff\n      and\n      dup2\n      mstore\n      0x20\n      add\n      swap1\n      dup2\n      mstore\n      0x20\n      add\n      0x00\n      keccak256\n      0x00\n        /* \"Lottogemeinschaft.sol\":4076:4105  mitspieler[msg.sender] = true */\n      0x0100\n      exp\n      dup2\n      sload\n      dup2\n      0xff\n      mul\n      not\n      and\n      swap1\n      dup4\n      iszero\n      iszero\n      mul\n      or\n      swap1\n      sstore\n      pop\n        /* \"Lottogemeinschaft.sol\":4115:4138  anzahlTeilnehmerAktuell */\n      0x08\n      0x00\n        /* \"Lottogemeinschaft.sol\":4115:4140  anzahlTeilnehmerAktuell++ */\n      dup2\n      dup2\n      swap1\n      sload\n      swap1\n      0x0100\n      exp\n      swap1\n      div\n      0xffff\n      and\n      dup1\n      swap3\n      swap2\n      swap1\n      tag_165\n      swap1\n      tag_166\n      jump\t// in\n    tag_165:\n      swap2\n      swap1\n      0x0100\n      exp\n      dup2\n      sload\n      dup2\n      0xffff\n      mul\n      not\n      and\n      swap1\n      dup4\n      0xffff\n      and\n      mul\n      or\n      swap1\n      sstore\n      pop\n      pop\n        /* \"Lottogemeinschaft.sol\":4193:4194  0 */\n      0x00\n        /* \"Lottogemeinschaft.sol\":4179:4190  ueberschuss */\n      dup2\n        /* \"Lottogemeinschaft.sol\":4179:4194  ueberschuss > 0 */\n      gt\n        /* \"Lottogemeinschaft.sol\":4175:4262  if (ueberschuss > 0) {... */\n      iszero\n      tag_167\n      jumpi\n        /* \"Lottogemeinschaft.sol\":4218:4228  msg.sender */\n      caller\n        /* \"Lottogemeinschaft.sol\":4210:4238  payable(msg.sender).transfer */\n      0xffffffffffffffffffffffffffffffffffffffff\n      and\n        /* \"Lottogemeinschaft.sol\":4210:4251  payable(msg.sender).transfer(ueberschuss) */\n      0x08fc\n        /* \"Lottogemeinschaft.sol\":4239:4250  ueberschuss */\n      dup3\n        /* \"Lottogemeinschaft.sol\":4210:4251  payable(msg.sender).transfer(ueberschuss) */\n      swap1\n      dup2\n      iszero\n      mul\n      swap1\n      mload(0x40)\n      0x00\n      mload(0x40)\n      dup1\n      dup4\n      sub\n      dup2\n      dup6\n      dup9\n      dup9\n      call\n      swap4\n      pop\n      pop\n      pop\n      pop\n      iszero\n      dup1\n      iszero\n      tag_169\n      jumpi\n      returndatasize\n      0x00\n      dup1\n      returndatacopy\n      revert(0x00, returndatasize)\n    tag_169:\n      pop\n        /* \"Lottogemeinschaft.sol\":4175:4262  if (ueberschuss > 0) {... */\n    tag_167:\n        /* \"Lottogemeinschaft.sol\":3464:4268  {... */\n      pop\n        /* \"Lottogemeinschaft.sol\":3428:4268  function mitmachen() public payable {... */\n      jump\t// out\n        /* \"Lottogemeinschaft.sol\":1813:1846  uint16 public maxTeilnehmerAnzahl */\n    tag_76:\n      0x02\n      0x00\n      swap1\n      sload\n      swap1\n      0x0100\n      exp\n      swap1\n      div\n      0xffff\n      and\n      dup2\n      jump\t// out\n        /* \"Lottogemeinschaft.sol\":5022:5506  function gewinnAbholen() public restictedToMitspieler nonReentrant {... */\n    tag_80:\n        /* \"Lottogemeinschaft.sol\":3242:3252  mitspieler */\n      0x05\n        /* \"Lottogemeinschaft.sol\":3242:3264  mitspieler[msg.sender] */\n      0x00\n        /* \"Lottogemeinschaft.sol\":3253:3263  msg.sender */\n      caller\n        /* \"Lottogemeinschaft.sol\":3242:3264  mitspieler[msg.sender] */\n      0xffffffffffffffffffffffffffffffffffffffff\n      and\n      0xffffffffffffffffffffffffffffffffffffffff\n      and\n      dup2\n      mstore\n      0x20\n      add\n      swap1\n      dup2\n      mstore\n      0x20\n      add\n      0x00\n      keccak256\n      0x00\n      swap1\n      sload\n      swap1\n      0x0100\n      exp\n      swap1\n      div\n      0xff\n      and\n        /* \"Lottogemeinschaft.sol\":3234:3265  require(mitspieler[msg.sender]) */\n      tag_171\n      jumpi\n      0x00\n      dup1\n      revert\n    tag_171:\n        /* \"Lottogemeinschaft.sol\":3332:3338  locked */\n      0x0a\n      0x00\n      swap1\n      sload\n      swap1\n      0x0100\n      exp\n      swap1\n      div\n      0xff\n      and\n        /* \"Lottogemeinschaft.sol\":3331:3338  !locked */\n      iszero\n        /* \"Lottogemeinschaft.sol\":3323:3357  require(!locked, \"No re-entrancy\") */\n      tag_173\n      jumpi\n      mload(0x40)\n      0x08c379a000000000000000000000000000000000000000000000000000000000\n      dup2\n      mstore\n      0x04\n      add\n      tag_174\n      swap1\n      tag_175\n      jump\t// in\n    tag_174:\n      mload(0x40)\n      dup1\n      swap2\n      sub\n      swap1\n      revert\n    tag_173:\n        /* \"Lottogemeinschaft.sol\":3376:3380  true */\n      0x01\n        /* \"Lottogemeinschaft.sol\":3367:3373  locked */\n      0x0a\n      0x00\n        /* \"Lottogemeinschaft.sol\":3367:3380  locked = true */\n      0x0100\n      exp\n      dup2\n      sload\n      dup2\n      0xff\n      mul\n      not\n      and\n      swap1\n      dup4\n      iszero\n      iszero\n      mul\n      or\n      swap1\n      sstore\n      pop\n        /* \"Lottogemeinschaft.sol\":5107:5131  gewinnKannAbgeholtWerden */\n      0x08\n      dup1\n      sload\n      swap1\n      0x0100\n      exp\n      swap1\n      div\n      0xff\n      and\n        /* \"Lottogemeinschaft.sol\":5099:5175  require(gewinnKannAbgeholtWerden, \"Gewinn kann noch nicht abgeholt werden.\") */\n      tag_177\n      jumpi\n      mload(0x40)\n      0x08c379a000000000000000000000000000000000000000000000000000000000\n      dup2\n      mstore\n      0x04\n      add\n      tag_178\n      swap1\n      tag_179\n      jump\t// in\n    tag_178:\n      mload(0x40)\n      dup1\n      swap2\n      sub\n      swap1\n      revert\n    tag_177:\n        /* \"Lottogemeinschaft.sol\":5215:5216  0 */\n      0x00\n        /* \"Lottogemeinschaft.sol\":5193:5212  gewinnProMitspieler */\n      0x08\n      0x02\n      swap1\n      sload\n      swap1\n      0x0100\n      exp\n      swap1\n      div\n      0xffffffffffff\n      and\n        /* \"Lottogemeinschaft.sol\":5193:5216  gewinnProMitspieler > 0 */\n      0xffffffffffff\n      and\n      gt\n        /* \"Lottogemeinschaft.sol\":5185:5259  require(gewinnProMitspieler > 0, \"Kein Gewinn zur Auszahlung verfuegbar.\") */\n      tag_180\n      jumpi\n      mload(0x40)\n      0x08c379a000000000000000000000000000000000000000000000000000000000\n      dup2\n      mstore\n      0x04\n      add\n      tag_181\n      swap1\n      tag_182\n      jump\t// in\n    tag_181:\n      mload(0x40)\n      dup1\n      swap2\n      sub\n      swap1\n      revert\n    tag_180:\n        /* \"Lottogemeinschaft.sol\":5278:5294  gewinnAusgezahlt */\n      0x06\n        /* \"Lottogemeinschaft.sol\":5278:5306  gewinnAusgezahlt[msg.sender] */\n      0x00\n        /* \"Lottogemeinschaft.sol\":5295:5305  msg.sender */\n      caller\n        /* \"Lottogemeinschaft.sol\":5278:5306  gewinnAusgezahlt[msg.sender] */\n      0xffffffffffffffffffffffffffffffffffffffff\n      and\n      0xffffffffffffffffffffffffffffffffffffffff\n      and\n      dup2\n      mstore\n      0x20\n      add\n      swap1\n      dup2\n      mstore\n      0x20\n      add\n      0x00\n      keccak256\n      0x00\n      swap1\n      sload\n      swap1\n      0x0100\n      exp\n      swap1\n      div\n      0xff\n      and\n        /* \"Lottogemeinschaft.sol\":5277:5306  !gewinnAusgezahlt[msg.sender] */\n      iszero\n        /* \"Lottogemeinschaft.sol\":5269:5341  require(!gewinnAusgezahlt[msg.sender], \"Gewinn wurde bereits abgeholt.\") */\n      tag_183\n      jumpi\n      mload(0x40)\n      0x08c379a000000000000000000000000000000000000000000000000000000000\n      dup2\n      mstore\n      0x04\n      add\n      tag_184\n      swap1\n      tag_185\n      jump\t// in\n    tag_184:\n      mload(0x40)\n      dup1\n      swap2\n      sub\n      swap1\n      revert\n    tag_183:\n        /* \"Lottogemeinschaft.sol\":5383:5387  true */\n      0x01\n        /* \"Lottogemeinschaft.sol\":5352:5368  gewinnAusgezahlt */\n      0x06\n        /* \"Lottogemeinschaft.sol\":5352:5380  gewinnAusgezahlt[msg.sender] */\n      0x00\n        /* \"Lottogemeinschaft.sol\":5369:5379  msg.sender */\n      caller\n        /* \"Lottogemeinschaft.sol\":5352:5380  gewinnAusgezahlt[msg.sender] */\n      0xffffffffffffffffffffffffffffffffffffffff\n      and\n      0xffffffffffffffffffffffffffffffffffffffff\n      and\n      dup2\n      mstore\n      0x20\n      add\n      swap1\n      dup2\n      mstore\n      0x20\n      add\n      0x00\n      keccak256\n      0x00\n        /* \"Lottogemeinschaft.sol\":5352:5387  gewinnAusgezahlt[msg.sender] = true */\n      0x0100\n      exp\n      dup2\n      sload\n      dup2\n      0xff\n      mul\n      not\n      and\n      swap1\n      dup4\n      iszero\n      iszero\n      mul\n      or\n      swap1\n      sstore\n      pop\n        /* \"Lottogemeinschaft.sol\":5398:5420  uint auszahlungsbetrag */\n      0x00\n        /* \"Lottogemeinschaft.sol\":5423:5442  gewinnProMitspieler */\n      0x08\n      0x02\n      swap1\n      sload\n      swap1\n      0x0100\n      exp\n      swap1\n      div\n      0xffffffffffff\n      and\n        /* \"Lottogemeinschaft.sol\":5398:5442  uint auszahlungsbetrag = gewinnProMitspieler */\n      0xffffffffffff\n      and\n      swap1\n      pop\n        /* \"Lottogemeinschaft.sol\":5460:5470  msg.sender */\n      caller\n        /* \"Lottogemeinschaft.sol\":5452:5480  payable(msg.sender).transfer */\n      0xffffffffffffffffffffffffffffffffffffffff\n      and\n        /* \"Lottogemeinschaft.sol\":5452:5499  payable(msg.sender).transfer(auszahlungsbetrag) */\n      0x08fc\n        /* \"Lottogemeinschaft.sol\":5481:5498  auszahlungsbetrag */\n      dup3\n        /* \"Lottogemeinschaft.sol\":5452:5499  payable(msg.sender).transfer(auszahlungsbetrag) */\n      swap1\n      dup2\n      iszero\n      mul\n      swap1\n      mload(0x40)\n      0x00\n      mload(0x40)\n      dup1\n      dup4\n      sub\n      dup2\n      dup6\n      dup9\n      dup9\n      call\n      swap4\n      pop\n      pop\n      pop\n      pop\n      iszero\n      dup1\n      iszero\n      tag_187\n      jumpi\n      returndatasize\n      0x00\n      dup1\n      returndatacopy\n      revert(0x00, returndatasize)\n    tag_187:\n      pop\n        /* \"Lottogemeinschaft.sol\":5089:5506  {... */\n      pop\n        /* \"Lottogemeinschaft.sol\":3410:3415  false */\n      0x00\n        /* \"Lottogemeinschaft.sol\":3401:3407  locked */\n      0x0a\n      0x00\n        /* \"Lottogemeinschaft.sol\":3401:3415  locked = false */\n      0x0100\n      exp\n      dup2\n      sload\n      dup2\n      0xff\n      mul\n      not\n      and\n      swap1\n      dup4\n      iszero\n      iszero\n      mul\n      or\n      swap1\n      sstore\n      pop\n        /* \"Lottogemeinschaft.sol\":5022:5506  function gewinnAbholen() public restictedToMitspieler nonReentrant {... */\n      jump\t// out\n        /* \"Lottogemeinschaft.sol\":1926:1959  string public spielauftragsNummer */\n    tag_83:\n      0x03\n      dup1\n      sload\n      tag_188\n      swap1\n      tag_189\n      jump\t// in\n    tag_188:\n      dup1\n      0x1f\n      add\n      0x20\n      dup1\n      swap2\n      div\n      mul\n      0x20\n      add\n      mload(0x40)\n      swap1\n      dup2\n      add\n      0x40\n      mstore\n      dup1\n      swap3\n      swap2\n      swap1\n      dup2\n      dup2\n      mstore\n      0x20\n      add\n      dup3\n      dup1\n      sload\n      tag_190\n      swap1\n      tag_189\n      jump\t// in\n    tag_190:\n      dup1\n      iszero\n      tag_191\n      jumpi\n      dup1\n      0x1f\n      lt\n      tag_192\n      jumpi\n      0x0100\n      dup1\n      dup4\n      sload\n      div\n      mul\n      dup4\n      mstore\n      swap2\n      0x20\n      add\n      swap2\n      jump(tag_191)\n    tag_192:\n      dup3\n      add\n      swap2\n      swap1\n      0x00\n      mstore\n      keccak256(0x00, 0x20)\n      swap1\n    tag_193:\n      dup2\n      sload\n      dup2\n      mstore\n      swap1\n      0x01\n      add\n      swap1\n      0x20\n      add\n      dup1\n      dup4\n      gt\n      tag_193\n      jumpi\n      dup3\n      swap1\n      sub\n      0x1f\n      and\n      dup3\n      add\n      swap2\n    tag_191:\n      pop\n      pop\n      pop\n      pop\n      pop\n      dup2\n      jump\t// out\n        /* \"Lottogemeinschaft.sol\":2043:2091  mapping(address => bool) public gewinnAusgezahlt */\n    tag_89:\n      mstore(0x20, 0x06)\n      dup1\n      0x00\n      mstore\n      keccak256(0x00, 0x40)\n      0x00\n      swap2\n      pop\n      sload\n      swap1\n      0x0100\n      exp\n      swap1\n      div\n      0xff\n      and\n      dup2\n      jump\t// out\n        /* \"Lottogemeinschaft.sol\":6735:7225  function einsatzZurueckholen() public restictedToMitspieler nonReentrant {... */\n    tag_93:\n        /* \"Lottogemeinschaft.sol\":3242:3252  mitspieler */\n      0x05\n        /* \"Lottogemeinschaft.sol\":3242:3264  mitspieler[msg.sender] */\n      0x00\n        /* \"Lottogemeinschaft.sol\":3253:3263  msg.sender */\n      caller\n        /* \"Lottogemeinschaft.sol\":3242:3264  mitspieler[msg.sender] */\n      0xffffffffffffffffffffffffffffffffffffffff\n      and\n      0xffffffffffffffffffffffffffffffffffffffff\n      and\n      dup2\n      mstore\n      0x20\n      add\n      swap1\n      dup2\n      mstore\n      0x20\n      add\n      0x00\n      keccak256\n      0x00\n      swap1\n      sload\n      swap1\n      0x0100\n      exp\n      swap1\n      div\n      0xff\n      and\n        /* \"Lottogemeinschaft.sol\":3234:3265  require(mitspieler[msg.sender]) */\n      tag_195\n      jumpi\n      0x00\n      dup1\n      revert\n    tag_195:\n        /* \"Lottogemeinschaft.sol\":3332:3338  locked */\n      0x0a\n      0x00\n      swap1\n      sload\n      swap1\n      0x0100\n      exp\n      swap1\n      div\n      0xff\n      and\n        /* \"Lottogemeinschaft.sol\":3331:3338  !locked */\n      iszero\n        /* \"Lottogemeinschaft.sol\":3323:3357  require(!locked, \"No re-entrancy\") */\n      tag_197\n      jumpi\n      mload(0x40)\n      0x08c379a000000000000000000000000000000000000000000000000000000000\n      dup2\n      mstore\n      0x04\n      add\n      tag_198\n      swap1\n      tag_175\n      jump\t// in\n    tag_198:\n      mload(0x40)\n      dup1\n      swap2\n      sub\n      swap1\n      revert\n    tag_197:\n        /* \"Lottogemeinschaft.sol\":3376:3380  true */\n      0x01\n        /* \"Lottogemeinschaft.sol\":3367:3373  locked */\n      0x0a\n      0x00\n        /* \"Lottogemeinschaft.sol\":3367:3380  locked = true */\n      0x0100\n      exp\n      dup2\n      sload\n      dup2\n      0xff\n      mul\n      not\n      and\n      swap1\n      dup4\n      iszero\n      iszero\n      mul\n      or\n      swap1\n      sstore\n      pop\n        /* \"Lottogemeinschaft.sol\":6826:6836  aufgeloest */\n      0x0a\n      0x01\n      swap1\n      sload\n      swap1\n      0x0100\n      exp\n      swap1\n      div\n      0xff\n      and\n        /* \"Lottogemeinschaft.sol\":6818:6875  require(aufgeloest, \"Gemeinschaft muss aufgeloest sein.\") */\n      tag_200\n      jumpi\n      mload(0x40)\n      0x08c379a000000000000000000000000000000000000000000000000000000000\n      dup2\n      mstore\n      0x04\n      add\n      tag_201\n      swap1\n      tag_202\n      jump\t// in\n    tag_201:\n      mload(0x40)\n      dup1\n      swap2\n      sub\n      swap1\n      revert\n    tag_200:\n        /* \"Lottogemeinschaft.sol\":6894:6915  einsatzZurueckGezahlt */\n      0x07\n        /* \"Lottogemeinschaft.sol\":6894:6927  einsatzZurueckGezahlt[msg.sender] */\n      0x00\n        /* \"Lottogemeinschaft.sol\":6916:6926  msg.sender */\n      caller\n        /* \"Lottogemeinschaft.sol\":6894:6927  einsatzZurueckGezahlt[msg.sender] */\n      0xffffffffffffffffffffffffffffffffffffffff\n      and\n      0xffffffffffffffffffffffffffffffffffffffff\n      and\n      dup2\n      mstore\n      0x20\n      add\n      swap1\n      dup2\n      mstore\n      0x20\n      add\n      0x00\n      keccak256\n      0x00\n      swap1\n      sload\n      swap1\n      0x0100\n      exp\n      swap1\n      div\n      0xff\n      and\n        /* \"Lottogemeinschaft.sol\":6893:6927  !einsatzZurueckGezahlt[msg.sender] */\n      iszero\n        /* \"Lottogemeinschaft.sol\":6885:6969  require(!einsatzZurueckGezahlt[msg.sender], \"Einsatz wurde bereits zurueckgezahlt.\") */\n      tag_203\n      jumpi\n      mload(0x40)\n      0x08c379a000000000000000000000000000000000000000000000000000000000\n      dup2\n      mstore\n      0x04\n      add\n      tag_204\n      swap1\n      tag_205\n      jump\t// in\n    tag_204:\n      mload(0x40)\n      dup1\n      swap2\n      sub\n      swap1\n      revert\n    tag_203:\n        /* \"Lottogemeinschaft.sol\":7016:7020  true */\n      0x01\n        /* \"Lottogemeinschaft.sol\":6980:7001  einsatzZurueckGezahlt */\n      0x07\n        /* \"Lottogemeinschaft.sol\":6980:7013  einsatzZurueckGezahlt[msg.sender] */\n      0x00\n        /* \"Lottogemeinschaft.sol\":7002:7012  msg.sender */\n      caller\n        /* \"Lottogemeinschaft.sol\":6980:7013  einsatzZurueckGezahlt[msg.sender] */\n      0xffffffffffffffffffffffffffffffffffffffff\n      and\n      0xffffffffffffffffffffffffffffffffffffffff\n      and\n      dup2\n      mstore\n      0x20\n      add\n      swap1\n      dup2\n      mstore\n      0x20\n      add\n      0x00\n      keccak256\n      0x00\n        /* \"Lottogemeinschaft.sol\":6980:7020  einsatzZurueckGezahlt[msg.sender] = true */\n      0x0100\n      exp\n      dup2\n      sload\n      dup2\n      0xff\n      mul\n      not\n      and\n      swap1\n      dup4\n      iszero\n      iszero\n      mul\n      or\n      swap1\n      sstore\n      pop\n        /* \"Lottogemeinschaft.sol\":7031:7055  uint rueckzahlungsbetrag */\n      0x00\n        /* \"Lottogemeinschaft.sol\":7058:7076  preisProMitspieler */\n      0x02\n      0x06\n      swap1\n      sload\n      swap1\n      0x0100\n      exp\n      swap1\n      div\n      0xffffffff\n      and\n        /* \"Lottogemeinschaft.sol\":7031:7076  uint rueckzahlungsbetrag = preisProMitspieler */\n      0xffffffff\n      and\n      swap1\n      pop\n        /* \"Lottogemeinschaft.sol\":7087:7096  bool sent */\n      0x00\n        /* \"Lottogemeinschaft.sol\":7102:7112  msg.sender */\n      caller\n        /* \"Lottogemeinschaft.sol\":7102:7117  msg.sender.call */\n      0xffffffffffffffffffffffffffffffffffffffff\n      and\n        /* \"Lottogemeinschaft.sol\":7125:7144  rueckzahlungsbetrag */\n      dup3\n        /* \"Lottogemeinschaft.sol\":7102:7149  msg.sender.call{value: rueckzahlungsbetrag}(\"\") */\n      mload(0x40)\n      tag_206\n      swap1\n      tag_207\n      jump\t// in\n    tag_206:\n      0x00\n      mload(0x40)\n      dup1\n      dup4\n      sub\n      dup2\n      dup6\n      dup8\n      gas\n      call\n      swap3\n      pop\n      pop\n      pop\n      returndatasize\n      dup1\n      0x00\n      dup2\n      eq\n      tag_210\n      jumpi\n      mload(0x40)\n      swap2\n      pop\n      and(add(returndatasize, 0x3f), not(0x1f))\n      dup3\n      add\n      0x40\n      mstore\n      returndatasize\n      dup3\n      mstore\n      returndatasize\n      0x00\n      0x20\n      dup5\n      add\n      returndatacopy\n      jump(tag_209)\n    tag_210:\n      0x60\n      swap2\n      pop\n    tag_209:\n      pop\n        /* \"Lottogemeinschaft.sol\":7086:7149  (bool sent, ) = msg.sender.call{value: rueckzahlungsbetrag}(\"\") */\n      pop\n      swap1\n      pop\n        /* \"Lottogemeinschaft.sol\":7167:7171  sent */\n      dup1\n        /* \"Lottogemeinschaft.sol\":7159:7218  require(sent, \"Rueckzahlung des Einsatzes fehlgeschlagen.\") */\n      tag_211\n      jumpi\n      mload(0x40)\n      0x08c379a000000000000000000000000000000000000000000000000000000000\n      dup2\n      mstore\n      0x04\n      add\n      tag_212\n      swap1\n      tag_213\n      jump\t// in\n    tag_212:\n      mload(0x40)\n      dup1\n      swap2\n      sub\n      swap1\n      revert\n    tag_211:\n        /* \"Lottogemeinschaft.sol\":6808:7225  {... */\n      pop\n      pop\n        /* \"Lottogemeinschaft.sol\":3410:3415  false */\n      0x00\n        /* \"Lottogemeinschaft.sol\":3401:3407  locked */\n      0x0a\n      0x00\n        /* \"Lottogemeinschaft.sol\":3401:3415  locked = false */\n      0x0100\n      exp\n      dup2\n      sload\n      dup2\n      0xff\n      mul\n      not\n      and\n      swap1\n      dup4\n      iszero\n      iszero\n      mul\n      or\n      swap1\n      sstore\n      pop\n        /* \"Lottogemeinschaft.sol\":6735:7225  function einsatzZurueckholen() public restictedToMitspieler nonReentrant {... */\n      jump\t// out\n        /* \"Lottogemeinschaft.sol\":6422:6679  function gemeinschaftAufloesen() public restictedToGruender {... */\n    tag_96:\n        /* \"Lottogemeinschaft.sol\":3159:3167  gruender */\n      0x00\n      dup1\n      sload\n      swap1\n      0x0100\n      exp\n      swap1\n      div\n      0xffffffffffffffffffffffffffffffffffffffff\n      and\n        /* \"Lottogemeinschaft.sol\":3145:3167  msg.sender == gruender */\n      0xffffffffffffffffffffffffffffffffffffffff\n      and\n        /* \"Lottogemeinschaft.sol\":3145:3155  msg.sender */\n      caller\n        /* \"Lottogemeinschaft.sol\":3145:3167  msg.sender == gruender */\n      0xffffffffffffffffffffffffffffffffffffffff\n      and\n      eq\n        /* \"Lottogemeinschaft.sol\":3137:3168  require(msg.sender == gruender) */\n      tag_215\n      jumpi\n      0x00\n      dup1\n      revert\n    tag_215:\n        /* \"Lottogemeinschaft.sol\":6528:6533  false */\n      0x00\n        /* \"Lottogemeinschaft.sol\":6500:6533  gewinnKannAbgeholtWerden == false */\n      iszero\n      iszero\n        /* \"Lottogemeinschaft.sol\":6500:6524  gewinnKannAbgeholtWerden */\n      0x08\n      dup1\n      sload\n      swap1\n      0x0100\n      exp\n      swap1\n      div\n      0xff\n      and\n        /* \"Lottogemeinschaft.sol\":6500:6533  gewinnKannAbgeholtWerden == false */\n      iszero\n      iszero\n      eq\n        /* \"Lottogemeinschaft.sol\":6492:6572  require(gewinnKannAbgeholtWerden == false, \"Gewinn muss noch ausgezahlt werden\") */\n      tag_217\n      jumpi\n      mload(0x40)\n      0x08c379a000000000000000000000000000000000000000000000000000000000\n      dup2\n      mstore\n      0x04\n      add\n      tag_218\n      swap1\n      tag_219\n      jump\t// in\n    tag_218:\n      mload(0x40)\n      dup1\n      swap2\n      sub\n      swap1\n      revert\n    tag_217:\n        /* \"Lottogemeinschaft.sol\":6604:6609  false */\n      0x00\n        /* \"Lottogemeinschaft.sol\":6590:6609  aufgeloest == false */\n      iszero\n      iszero\n        /* \"Lottogemeinschaft.sol\":6590:6600  aufgeloest */\n      0x0a\n      0x01\n      swap1\n      sload\n      swap1\n      0x0100\n      exp\n      swap1\n      div\n      0xff\n      and\n        /* \"Lottogemeinschaft.sol\":6590:6609  aufgeloest == false */\n      iszero\n      iszero\n      eq\n        /* \"Lottogemeinschaft.sol\":6582:6645  require(aufgeloest == false, \"Gemeinschaft bereits aufgeloest\") */\n      tag_220\n      jumpi\n      mload(0x40)\n      0x08c379a000000000000000000000000000000000000000000000000000000000\n      dup2\n      mstore\n      0x04\n      add\n      tag_221\n      swap1\n      tag_222\n      jump\t// in\n    tag_221:\n      mload(0x40)\n      dup1\n      swap2\n      sub\n      swap1\n      revert\n    tag_220:\n        /* \"Lottogemeinschaft.sol\":6668:6672  true */\n      0x01\n        /* \"Lottogemeinschaft.sol\":6655:6665  aufgeloest */\n      0x0a\n      0x01\n        /* \"Lottogemeinschaft.sol\":6655:6672  aufgeloest = true */\n      0x0100\n      exp\n      dup2\n      sload\n      dup2\n      0xff\n      mul\n      not\n      and\n      swap1\n      dup4\n      iszero\n      iszero\n      mul\n      or\n      swap1\n      sstore\n      pop\n        /* \"Lottogemeinschaft.sol\":6422:6679  function gemeinschaftAufloesen() public restictedToGruender {... */\n      jump\t// out\n        /* \"Lottogemeinschaft.sol\":1743:1766  address public gruender */\n    tag_99:\n      0x00\n      dup1\n      sload\n      swap1\n      0x0100\n      exp\n      swap1\n      div\n      0xffffffffffffffffffffffffffffffffffffffff\n      and\n      dup2\n      jump\t// out\n        /* \"Lottogemeinschaft.sol\":2290:2329  bool public nurErlaubteMitspieler=false */\n    tag_104:\n      0x08\n      0x09\n      swap1\n      sload\n      swap1\n      0x0100\n      exp\n      swap1\n      div\n      0xff\n      and\n      dup2\n      jump\t// out\n        /* \"Lottogemeinschaft.sol\":2097:2150  mapping(address => bool) public einsatzZurueckGezahlt */\n    tag_109:\n      mstore(0x20, 0x07)\n      dup1\n      0x00\n      mstore\n      keccak256(0x00, 0x40)\n      0x00\n      swap2\n      pop\n      sload\n      swap1\n      0x0100\n      exp\n      swap1\n      div\n      0xff\n      and\n      dup2\n      jump\t// out\n        /* \"Lottogemeinschaft.sol\":4316:4974  function gewinnEinzahlen(uint48 gewinn) public payable restictedToGruender {... */\n    tag_114:\n        /* \"Lottogemeinschaft.sol\":3159:3167  gruender */\n      0x00\n      dup1\n      sload\n      swap1\n      0x0100\n      exp\n      swap1\n      div\n      0xffffffffffffffffffffffffffffffffffffffff\n      and\n        /* \"Lottogemeinschaft.sol\":3145:3167  msg.sender == gruender */\n      0xffffffffffffffffffffffffffffffffffffffff\n      and\n        /* \"Lottogemeinschaft.sol\":3145:3155  msg.sender */\n      caller\n        /* \"Lottogemeinschaft.sol\":3145:3167  msg.sender == gruender */\n      0xffffffffffffffffffffffffffffffffffffffff\n      and\n      eq\n        /* \"Lottogemeinschaft.sol\":3137:3168  require(msg.sender == gruender) */\n      tag_224\n      jumpi\n      0x00\n      dup1\n      revert\n    tag_224:\n        /* \"Lottogemeinschaft.sol\":4507:4508  0 */\n      0x00\n        /* \"Lottogemeinschaft.sol\":4495:4504  msg.value */\n      callvalue\n        /* \"Lottogemeinschaft.sol\":4495:4508  msg.value > 0 */\n      gt\n        /* \"Lottogemeinschaft.sol\":4487:4555  require(msg.value > 0, \"Einzahlungsbetrag muss groesser als 0 sein\") */\n      tag_226\n      jumpi\n      mload(0x40)\n      0x08c379a000000000000000000000000000000000000000000000000000000000\n      dup2\n      mstore\n      0x04\n      add\n      tag_227\n      swap1\n      tag_228\n      jump\t// in\n    tag_227:\n      mload(0x40)\n      dup1\n      swap2\n      sub\n      swap1\n      revert\n    tag_226:\n        /* \"Lottogemeinschaft.sol\":4594:4595  0 */\n      0x00\n        /* \"Lottogemeinschaft.sol\":4573:4592  gewinnProMitspieler */\n      0x08\n      0x02\n      swap1\n      sload\n      swap1\n      0x0100\n      exp\n      swap1\n      div\n      0xffffffffffff\n      and\n        /* \"Lottogemeinschaft.sol\":4573:4595  gewinnProMitspieler==0 */\n      0xffffffffffff\n      and\n      eq\n        /* \"Lottogemeinschaft.sol\":4565:4632  require(gewinnProMitspieler==0, \"Gewinn wurde bereits eingezahlt.\") */\n      tag_229\n      jumpi\n      mload(0x40)\n      0x08c379a000000000000000000000000000000000000000000000000000000000\n      dup2\n      mstore\n      0x04\n      add\n      tag_230\n      swap1\n      tag_231\n      jump\t// in\n    tag_230:\n      mload(0x40)\n      dup1\n      swap2\n      sub\n      swap1\n      revert\n    tag_229:\n        /* \"Lottogemeinschaft.sol\":4902:4925  anzahlTeilnehmerAktuell */\n      0x08\n      0x00\n      swap1\n      sload\n      swap1\n      0x0100\n      exp\n      swap1\n      div\n      0xffff\n      and\n        /* \"Lottogemeinschaft.sol\":4893:4925  gewinn / anzahlTeilnehmerAktuell */\n      0xffff\n      and\n        /* \"Lottogemeinschaft.sol\":4893:4899  gewinn */\n      dup2\n        /* \"Lottogemeinschaft.sol\":4893:4925  gewinn / anzahlTeilnehmerAktuell */\n      tag_232\n      swap2\n      swap1\n      tag_233\n      jump\t// in\n    tag_232:\n        /* \"Lottogemeinschaft.sol\":4871:4890  gewinnProMitspieler */\n      0x08\n      0x02\n        /* \"Lottogemeinschaft.sol\":4871:4925  gewinnProMitspieler = gewinn / anzahlTeilnehmerAktuell */\n      0x0100\n      exp\n      dup2\n      sload\n      dup2\n      0xffffffffffff\n      mul\n      not\n      and\n      swap1\n      dup4\n      0xffffffffffff\n      and\n      mul\n      or\n      swap1\n      sstore\n      pop\n        /* \"Lottogemeinschaft.sol\":4962:4966  true */\n      0x01\n        /* \"Lottogemeinschaft.sol\":4935:4959  gewinnKannAbgeholtWerden */\n      0x08\n      dup1\n        /* \"Lottogemeinschaft.sol\":4935:4966  gewinnKannAbgeholtWerden = true */\n      0x0100\n      exp\n      dup2\n      sload\n      dup2\n      0xff\n      mul\n      not\n      and\n      swap1\n      dup4\n      iszero\n      iszero\n      mul\n      or\n      swap1\n      sstore\n      pop\n        /* \"Lottogemeinschaft.sol\":4316:4974  function gewinnEinzahlen(uint48 gewinn) public payable restictedToGruender {... */\n      pop\n      jump\t// out\n        /* \"Lottogemeinschaft.sol\":1772:1807  string public tippgemeinschaftsName */\n    tag_117:\n      0x01\n      dup1\n      sload\n      tag_234\n      swap1\n      tag_189\n      jump\t// in\n    tag_234:\n      dup1\n      0x1f\n      add\n      0x20\n      dup1\n      swap2\n      div\n      mul\n      0x20\n      add\n      mload(0x40)\n      swap1\n      dup2\n      add\n      0x40\n      mstore\n      dup1\n      swap3\n      swap2\n      swap1\n      dup2\n      dup2\n      mstore\n      0x20\n      add\n      dup3\n      dup1\n      sload\n      tag_235\n      swap1\n      tag_189\n      jump\t// in\n    tag_235:\n      dup1\n      iszero\n      tag_236\n      jumpi\n      dup1\n      0x1f\n      lt\n      tag_237\n      jumpi\n      0x0100\n      dup1\n      dup4\n      sload\n      div\n      mul\n      dup4\n      mstore\n      swap2\n      0x20\n      add\n      swap2\n      jump(tag_236)\n    tag_237:\n      dup3\n      add\n      swap2\n      swap1\n      0x00\n      mstore\n      keccak256(0x00, 0x20)\n      swap1\n    tag_238:\n      dup2\n      sload\n      dup2\n      mstore\n      swap1\n      0x01\n      add\n      swap1\n      0x20\n      add\n      dup1\n      dup4\n      gt\n      tag_238\n      jumpi\n      dup3\n      swap1\n      sub\n      0x1f\n      and\n      dup3\n      add\n      swap2\n    tag_236:\n      pop\n      pop\n      pop\n      pop\n      pop\n      dup2\n      jump\t// out\n        /* \"Lottogemeinschaft.sol\":5755:6041  function anzahlMitspielerAendern(uint16 neueAnzahlMaxTeilnehmer) public restictedToGruender{... */\n    tag_123:\n        /* \"Lottogemeinschaft.sol\":3159:3167  gruender */\n      0x00\n      dup1\n      sload\n      swap1\n      0x0100\n      exp\n      swap1\n      div\n      0xffffffffffffffffffffffffffffffffffffffff\n      and\n        /* \"Lottogemeinschaft.sol\":3145:3167  msg.sender == gruender */\n      0xffffffffffffffffffffffffffffffffffffffff\n      and\n        /* \"Lottogemeinschaft.sol\":3145:3155  msg.sender */\n      caller\n        /* \"Lottogemeinschaft.sol\":3145:3167  msg.sender == gruender */\n      0xffffffffffffffffffffffffffffffffffffffff\n      and\n      eq\n        /* \"Lottogemeinschaft.sol\":3137:3168  require(msg.sender == gruender) */\n      tag_240\n      jumpi\n      0x00\n      dup1\n      revert\n    tag_240:\n        /* \"Lottogemeinschaft.sol\":5889:5890  0 */\n      0x00\n        /* \"Lottogemeinschaft.sol\":5864:5887  anzahlTeilnehmerAktuell */\n      0x08\n      0x00\n      swap1\n      sload\n      swap1\n      0x0100\n      exp\n      swap1\n      div\n      0xffff\n      and\n        /* \"Lottogemeinschaft.sol\":5864:5890  anzahlTeilnehmerAktuell==0 */\n      0xffff\n      and\n      eq\n        /* \"Lottogemeinschaft.sol\":5856:5979  require(anzahlTeilnehmerAktuell==0, \"Es gibt bereits Mitspieler. Aenderung der Anzahl an Mitspielern nicht mehr moeglich.\") */\n      tag_242\n      jumpi\n      mload(0x40)\n      0x08c379a000000000000000000000000000000000000000000000000000000000\n      dup2\n      mstore\n      0x04\n      add\n      tag_243\n      swap1\n      tag_244\n      jump\t// in\n    tag_243:\n      mload(0x40)\n      dup1\n      swap2\n      sub\n      swap1\n      revert\n    tag_242:\n        /* \"Lottogemeinschaft.sol\":6011:6034  neueAnzahlMaxTeilnehmer */\n      dup1\n        /* \"Lottogemeinschaft.sol\":5989:6008  maxTeilnehmerAnzahl */\n      0x02\n      0x00\n        /* \"Lottogemeinschaft.sol\":5989:6034  maxTeilnehmerAnzahl = neueAnzahlMaxTeilnehmer */\n      0x0100\n      exp\n      dup2\n      sload\n      dup2\n      0xffff\n      mul\n      not\n      and\n      swap1\n      dup4\n      0xffff\n      and\n      mul\n      or\n      swap1\n      sstore\n      pop\n        /* \"Lottogemeinschaft.sol\":5755:6041  function anzahlMitspielerAendern(uint16 neueAnzahlMaxTeilnehmer) public restictedToGruender{... */\n      pop\n      jump\t// out\n        /* \"Lottogemeinschaft.sol\":2417:2439  bool public aufgeloest */\n    tag_126:\n      0x0a\n      0x01\n      swap1\n      sload\n      swap1\n      0x0100\n      exp\n      swap1\n      div\n      0xff\n      and\n      dup2\n      jump\t// out\n        /* \"Lottogemeinschaft.sol\":2335:2386  mapping(address => bool) public erlaubterMitspieler */\n    tag_131:\n      mstore(0x20, 0x09)\n      dup1\n      0x00\n      mstore\n      keccak256(0x00, 0x40)\n      0x00\n      swap2\n      pop\n      sload\n      swap1\n      0x0100\n      exp\n      swap1\n      div\n      0xff\n      and\n      dup2\n      jump\t// out\n        /* \"#utility.yul\":7:104   */\n    tag_245:\n        /* \"#utility.yul\":43:50   */\n      0x00\n        /* \"#utility.yul\":83:97   */\n      0xffffffffffff\n        /* \"#utility.yul\":76:81   */\n      dup3\n        /* \"#utility.yul\":72:98   */\n      and\n        /* \"#utility.yul\":61:98   */\n      swap1\n      pop\n        /* \"#utility.yul\":7:104   */\n      swap2\n      swap1\n      pop\n      jump\t// out\n        /* \"#utility.yul\":110:225   */\n    tag_246:\n        /* \"#utility.yul\":195:218   */\n      tag_320\n        /* \"#utility.yul\":212:217   */\n      dup2\n        /* \"#utility.yul\":195:218   */\n      tag_245\n      jump\t// in\n    tag_320:\n        /* \"#utility.yul\":190:193   */\n      dup3\n        /* \"#utility.yul\":183:219   */\n      mstore\n        /* \"#utility.yul\":110:225   */\n      pop\n      pop\n      jump\t// out\n        /* \"#utility.yul\":231:449   */\n    tag_33:\n        /* \"#utility.yul\":322:326   */\n      0x00\n        /* \"#utility.yul\":360:362   */\n      0x20\n        /* \"#utility.yul\":349:358   */\n      dup3\n        /* \"#utility.yul\":345:363   */\n      add\n        /* \"#utility.yul\":337:363   */\n      swap1\n      pop\n        /* \"#utility.yul\":373:442   */\n      tag_322\n        /* \"#utility.yul\":439:440   */\n      0x00\n        /* \"#utility.yul\":428:437   */\n      dup4\n        /* \"#utility.yul\":424:441   */\n      add\n        /* \"#utility.yul\":415:421   */\n      dup5\n        /* \"#utility.yul\":373:442   */\n      tag_246\n      jump\t// in\n    tag_322:\n        /* \"#utility.yul\":231:449   */\n      swap3\n      swap2\n      pop\n      pop\n      jump\t// out\n        /* \"#utility.yul\":455:545   */\n    tag_247:\n        /* \"#utility.yul\":489:496   */\n      0x00\n        /* \"#utility.yul\":532:537   */\n      dup2\n        /* \"#utility.yul\":525:538   */\n      iszero\n        /* \"#utility.yul\":518:539   */\n      iszero\n        /* \"#utility.yul\":507:539   */\n      swap1\n      pop\n        /* \"#utility.yul\":455:545   */\n      swap2\n      swap1\n      pop\n      jump\t// out\n        /* \"#utility.yul\":551:660   */\n    tag_248:\n        /* \"#utility.yul\":632:653   */\n      tag_325\n        /* \"#utility.yul\":647:652   */\n      dup2\n        /* \"#utility.yul\":632:653   */\n      tag_247\n      jump\t// in\n    tag_325:\n        /* \"#utility.yul\":627:630   */\n      dup3\n        /* \"#utility.yul\":620:654   */\n      mstore\n        /* \"#utility.yul\":551:660   */\n      pop\n      pop\n      jump\t// out\n        /* \"#utility.yul\":666:876   */\n    tag_42:\n        /* \"#utility.yul\":753:757   */\n      0x00\n        /* \"#utility.yul\":791:793   */\n      0x20\n        /* \"#utility.yul\":780:789   */\n      dup3\n        /* \"#utility.yul\":776:794   */\n      add\n        /* \"#utility.yul\":768:794   */\n      swap1\n      pop\n        /* \"#utility.yul\":804:869   */\n      tag_327\n        /* \"#utility.yul\":866:867   */\n      0x00\n        /* \"#utility.yul\":855:864   */\n      dup4\n        /* \"#utility.yul\":851:868   */\n      add\n        /* \"#utility.yul\":842:848   */\n      dup5\n        /* \"#utility.yul\":804:869   */\n      tag_248\n      jump\t// in\n    tag_327:\n        /* \"#utility.yul\":666:876   */\n      swap3\n      swap2\n      pop\n      pop\n      jump\t// out\n        /* \"#utility.yul\":882:975   */\n    tag_249:\n        /* \"#utility.yul\":918:925   */\n      0x00\n        /* \"#utility.yul\":958:968   */\n      0xffffffff\n        /* \"#utility.yul\":951:956   */\n      dup3\n        /* \"#utility.yul\":947:969   */\n      and\n        /* \"#utility.yul\":936:969   */\n      swap1\n      pop\n        /* \"#utility.yul\":882:975   */\n      swap2\n      swap1\n      pop\n      jump\t// out\n        /* \"#utility.yul\":981:1096   */\n    tag_250:\n        /* \"#utility.yul\":1066:1089   */\n      tag_330\n        /* \"#utility.yul\":1083:1088   */\n      dup2\n        /* \"#utility.yul\":1066:1089   */\n      tag_249\n      jump\t// in\n    tag_330:\n        /* \"#utility.yul\":1061:1064   */\n      dup3\n        /* \"#utility.yul\":1054:1090   */\n      mstore\n        /* \"#utility.yul\":981:1096   */\n      pop\n      pop\n      jump\t// out\n        /* \"#utility.yul\":1102:1320   */\n    tag_47:\n        /* \"#utility.yul\":1193:1197   */\n      0x00\n        /* \"#utility.yul\":1231:1233   */\n      0x20\n        /* \"#utility.yul\":1220:1229   */\n      dup3\n        /* \"#utility.yul\":1216:1234   */\n      add\n        /* \"#utility.yul\":1208:1234   */\n      swap1\n      pop\n        /* \"#utility.yul\":1244:1313   */\n      tag_332\n        /* \"#utility.yul\":1310:1311   */\n      0x00\n        /* \"#utility.yul\":1299:1308   */\n      dup4\n        /* \"#utility.yul\":1295:1312   */\n      add\n        /* \"#utility.yul\":1286:1292   */\n      dup5\n        /* \"#utility.yul\":1244:1313   */\n      tag_250\n      jump\t// in\n    tag_332:\n        /* \"#utility.yul\":1102:1320   */\n      swap3\n      swap2\n      pop\n      pop\n      jump\t// out\n        /* \"#utility.yul\":1407:1524   */\n    tag_252:\n        /* \"#utility.yul\":1516:1517   */\n      0x00\n        /* \"#utility.yul\":1513:1514   */\n      dup1\n        /* \"#utility.yul\":1506:1518   */\n      revert\n        /* \"#utility.yul\":1653:1773   */\n    tag_254:\n        /* \"#utility.yul\":1725:1748   */\n      tag_337\n        /* \"#utility.yul\":1742:1747   */\n      dup2\n        /* \"#utility.yul\":1725:1748   */\n      tag_249\n      jump\t// in\n    tag_337:\n        /* \"#utility.yul\":1718:1723   */\n      dup2\n        /* \"#utility.yul\":1715:1749   */\n      eq\n        /* \"#utility.yul\":1705:1767   */\n      tag_338\n      jumpi\n        /* \"#utility.yul\":1763:1764   */\n      0x00\n        /* \"#utility.yul\":1760:1761   */\n      dup1\n        /* \"#utility.yul\":1753:1765   */\n      revert\n        /* \"#utility.yul\":1705:1767   */\n    tag_338:\n        /* \"#utility.yul\":1653:1773   */\n      pop\n      jump\t// out\n        /* \"#utility.yul\":1779:1916   */\n    tag_255:\n        /* \"#utility.yul\":1824:1829   */\n      0x00\n        /* \"#utility.yul\":1862:1868   */\n      dup2\n        /* \"#utility.yul\":1849:1869   */\n      calldataload\n        /* \"#utility.yul\":1840:1869   */\n      swap1\n      pop\n        /* \"#utility.yul\":1878:1910   */\n      tag_340\n        /* \"#utility.yul\":1904:1909   */\n      dup2\n        /* \"#utility.yul\":1878:1910   */\n      tag_254\n      jump\t// in\n    tag_340:\n        /* \"#utility.yul\":1779:1916   */\n      swap3\n      swap2\n      pop\n      pop\n      jump\t// out\n        /* \"#utility.yul\":1922:2249   */\n    tag_51:\n        /* \"#utility.yul\":1980:1986   */\n      0x00\n        /* \"#utility.yul\":2029:2031   */\n      0x20\n        /* \"#utility.yul\":2017:2026   */\n      dup3\n        /* \"#utility.yul\":2008:2015   */\n      dup5\n        /* \"#utility.yul\":2004:2027   */\n      sub\n        /* \"#utility.yul\":2000:2032   */\n      slt\n        /* \"#utility.yul\":1997:2116   */\n      iszero\n      tag_342\n      jumpi\n        /* \"#utility.yul\":2035:2114   */\n      tag_343\n      tag_252\n      jump\t// in\n    tag_343:\n        /* \"#utility.yul\":1997:2116   */\n    tag_342:\n        /* \"#utility.yul\":2155:2156   */\n      0x00\n        /* \"#utility.yul\":2180:2232   */\n      tag_344\n        /* \"#utility.yul\":2224:2231   */\n      dup5\n        /* \"#utility.yul\":2215:2221   */\n      dup3\n        /* \"#utility.yul\":2204:2213   */\n      dup6\n        /* \"#utility.yul\":2200:2222   */\n      add\n        /* \"#utility.yul\":2180:2232   */\n      tag_255\n      jump\t// in\n    tag_344:\n        /* \"#utility.yul\":2170:2232   */\n      swap2\n      pop\n        /* \"#utility.yul\":2126:2242   */\n      pop\n        /* \"#utility.yul\":1922:2249   */\n      swap3\n      swap2\n      pop\n      pop\n      jump\t// out\n        /* \"#utility.yul\":2255:2381   */\n    tag_256:\n        /* \"#utility.yul\":2292:2299   */\n      0x00\n        /* \"#utility.yul\":2332:2374   */\n      0xffffffffffffffffffffffffffffffffffffffff\n        /* \"#utility.yul\":2325:2330   */\n      dup3\n        /* \"#utility.yul\":2321:2375   */\n      and\n        /* \"#utility.yul\":2310:2375   */\n      swap1\n      pop\n        /* \"#utility.yul\":2255:2381   */\n      swap2\n      swap1\n      pop\n      jump\t// out\n        /* \"#utility.yul\":2387:2483   */\n    tag_257:\n        /* \"#utility.yul\":2424:2431   */\n      0x00\n        /* \"#utility.yul\":2453:2477   */\n      tag_347\n        /* \"#utility.yul\":2471:2476   */\n      dup3\n        /* \"#utility.yul\":2453:2477   */\n      tag_256\n      jump\t// in\n    tag_347:\n        /* \"#utility.yul\":2442:2477   */\n      swap1\n      pop\n        /* \"#utility.yul\":2387:2483   */\n      swap2\n      swap1\n      pop\n      jump\t// out\n        /* \"#utility.yul\":2489:2611   */\n    tag_258:\n        /* \"#utility.yul\":2562:2586   */\n      tag_349\n        /* \"#utility.yul\":2580:2585   */\n      dup2\n        /* \"#utility.yul\":2562:2586   */\n      tag_257\n      jump\t// in\n    tag_349:\n        /* \"#utility.yul\":2555:2560   */\n      dup2\n        /* \"#utility.yul\":2552:2587   */\n      eq\n        /* \"#utility.yul\":2542:2605   */\n      tag_350\n      jumpi\n        /* \"#utility.yul\":2601:2602   */\n      0x00\n        /* \"#utility.yul\":2598:2599   */\n      dup1\n        /* \"#utility.yul\":2591:2603   */\n      revert\n        /* \"#utility.yul\":2542:2605   */\n    tag_350:\n        /* \"#utility.yul\":2489:2611   */\n      pop\n      jump\t// out\n        /* \"#utility.yul\":2617:2756   */\n    tag_259:\n        /* \"#utility.yul\":2663:2668   */\n      0x00\n        /* \"#utility.yul\":2701:2707   */\n      dup2\n        /* \"#utility.yul\":2688:2708   */\n      calldataload\n        /* \"#utility.yul\":2679:2708   */\n      swap1\n      pop\n        /* \"#utility.yul\":2717:2750   */\n      tag_352\n        /* \"#utility.yul\":2744:2749   */\n      dup2\n        /* \"#utility.yul\":2717:2750   */\n      tag_258\n      jump\t// in\n    tag_352:\n        /* \"#utility.yul\":2617:2756   */\n      swap3\n      swap2\n      pop\n      pop\n      jump\t// out\n        /* \"#utility.yul\":2762:3091   */\n    tag_56:\n        /* \"#utility.yul\":2821:2827   */\n      0x00\n        /* \"#utility.yul\":2870:2872   */\n      0x20\n        /* \"#utility.yul\":2858:2867   */\n      dup3\n        /* \"#utility.yul\":2849:2856   */\n      dup5\n        /* \"#utility.yul\":2845:2868   */\n      sub\n        /* \"#utility.yul\":2841:2873   */\n      slt\n        /* \"#utility.yul\":2838:2957   */\n      iszero\n      tag_354\n      jumpi\n        /* \"#utility.yul\":2876:2955   */\n      tag_355\n      tag_252\n      jump\t// in\n    tag_355:\n        /* \"#utility.yul\":2838:2957   */\n    tag_354:\n        /* \"#utility.yul\":2996:2997   */\n      0x00\n        /* \"#utility.yul\":3021:3074   */\n      tag_356\n        /* \"#utility.yul\":3066:3073   */\n      dup5\n        /* \"#utility.yul\":3057:3063   */\n      dup3\n        /* \"#utility.yul\":3046:3055   */\n      dup6\n        /* \"#utility.yul\":3042:3064   */\n      add\n        /* \"#utility.yul\":3021:3074   */\n      tag_259\n      jump\t// in\n    tag_356:\n        /* \"#utility.yul\":3011:3074   */\n      swap2\n      pop\n        /* \"#utility.yul\":2967:3084   */\n      pop\n        /* \"#utility.yul\":2762:3091   */\n      swap3\n      swap2\n      pop\n      pop\n      jump\t// out\n        /* \"#utility.yul\":3097:3186   */\n    tag_260:\n        /* \"#utility.yul\":3133:3140   */\n      0x00\n        /* \"#utility.yul\":3173:3179   */\n      0xffff\n        /* \"#utility.yul\":3166:3171   */\n      dup3\n        /* \"#utility.yul\":3162:3180   */\n      and\n        /* \"#utility.yul\":3151:3180   */\n      swap1\n      pop\n        /* \"#utility.yul\":3097:3186   */\n      swap2\n      swap1\n      pop\n      jump\t// out\n        /* \"#utility.yul\":3192:3307   */\n    tag_261:\n        /* \"#utility.yul\":3277:3300   */\n      tag_359\n        /* \"#utility.yul\":3294:3299   */\n      dup2\n        /* \"#utility.yul\":3277:3300   */\n      tag_260\n      jump\t// in\n    tag_359:\n        /* \"#utility.yul\":3272:3275   */\n      dup3\n        /* \"#utility.yul\":3265:3301   */\n      mstore\n        /* \"#utility.yul\":3192:3307   */\n      pop\n      pop\n      jump\t// out\n        /* \"#utility.yul\":3313:3531   */\n    tag_63:\n        /* \"#utility.yul\":3404:3408   */\n      0x00\n        /* \"#utility.yul\":3442:3444   */\n      0x20\n        /* \"#utility.yul\":3431:3440   */\n      dup3\n        /* \"#utility.yul\":3427:3445   */\n      add\n        /* \"#utility.yul\":3419:3445   */\n      swap1\n      pop\n        /* \"#utility.yul\":3455:3524   */\n      tag_361\n        /* \"#utility.yul\":3521:3522   */\n      0x00\n        /* \"#utility.yul\":3510:3519   */\n      dup4\n        /* \"#utility.yul\":3506:3523   */\n      add\n        /* \"#utility.yul\":3497:3503   */\n      dup5\n        /* \"#utility.yul\":3455:3524   */\n      tag_261\n      jump\t// in\n    tag_361:\n        /* \"#utility.yul\":3313:3531   */\n      swap3\n      swap2\n      pop\n      pop\n      jump\t// out\n        /* \"#utility.yul\":3537:3636   */\n    tag_262:\n        /* \"#utility.yul\":3589:3595   */\n      0x00\n        /* \"#utility.yul\":3623:3628   */\n      dup2\n        /* \"#utility.yul\":3617:3629   */\n      mload\n        /* \"#utility.yul\":3607:3629   */\n      swap1\n      pop\n        /* \"#utility.yul\":3537:3636   */\n      swap2\n      swap1\n      pop\n      jump\t// out\n        /* \"#utility.yul\":3642:3811   */\n    tag_263:\n        /* \"#utility.yul\":3726:3737   */\n      0x00\n        /* \"#utility.yul\":3760:3766   */\n      dup3\n        /* \"#utility.yul\":3755:3758   */\n      dup3\n        /* \"#utility.yul\":3748:3767   */\n      mstore\n        /* \"#utility.yul\":3800:3804   */\n      0x20\n        /* \"#utility.yul\":3795:3798   */\n      dup3\n        /* \"#utility.yul\":3791:3805   */\n      add\n        /* \"#utility.yul\":3776:3805   */\n      swap1\n      pop\n        /* \"#utility.yul\":3642:3811   */\n      swap3\n      swap2\n      pop\n      pop\n      jump\t// out\n        /* \"#utility.yul\":3817:4063   */\n    tag_264:\n        /* \"#utility.yul\":3898:3899   */\n      0x00\n        /* \"#utility.yul\":3908:4021   */\n    tag_365:\n        /* \"#utility.yul\":3922:3928   */\n      dup4\n        /* \"#utility.yul\":3919:3920   */\n      dup2\n        /* \"#utility.yul\":3916:3929   */\n      lt\n        /* \"#utility.yul\":3908:4021   */\n      iszero\n      tag_367\n      jumpi\n        /* \"#utility.yul\":4007:4008   */\n      dup1\n        /* \"#utility.yul\":4002:4005   */\n      dup3\n        /* \"#utility.yul\":3998:4009   */\n      add\n        /* \"#utility.yul\":3992:4010   */\n      mload\n        /* \"#utility.yul\":3988:3989   */\n      dup2\n        /* \"#utility.yul\":3983:3986   */\n      dup5\n        /* \"#utility.yul\":3979:3990   */\n      add\n        /* \"#utility.yul\":3972:4011   */\n      mstore\n        /* \"#utility.yul\":3944:3946   */\n      0x20\n        /* \"#utility.yul\":3941:3942   */\n      dup2\n        /* \"#utility.yul\":3937:3947   */\n      add\n        /* \"#utility.yul\":3932:3947   */\n      swap1\n      pop\n        /* \"#utility.yul\":3908:4021   */\n      jump(tag_365)\n    tag_367:\n        /* \"#utility.yul\":4055:4056   */\n      0x00\n        /* \"#utility.yul\":4046:4052   */\n      dup5\n        /* \"#utility.yul\":4041:4044   */\n      dup5\n        /* \"#utility.yul\":4037:4053   */\n      add\n        /* \"#utility.yul\":4030:4057   */\n      mstore\n        /* \"#utility.yul\":3879:4063   */\n      pop\n        /* \"#utility.yul\":3817:4063   */\n      pop\n      pop\n      pop\n      jump\t// out\n        /* \"#utility.yul\":4069:4171   */\n    tag_265:\n        /* \"#utility.yul\":4110:4116   */\n      0x00\n        /* \"#utility.yul\":4161:4163   */\n      0x1f\n        /* \"#utility.yul\":4157:4164   */\n      not\n        /* \"#utility.yul\":4152:4154   */\n      0x1f\n        /* \"#utility.yul\":4145:4150   */\n      dup4\n        /* \"#utility.yul\":4141:4155   */\n      add\n        /* \"#utility.yul\":4137:4165   */\n      and\n        /* \"#utility.yul\":4127:4165   */\n      swap1\n      pop\n        /* \"#utility.yul\":4069:4171   */\n      swap2\n      swap1\n      pop\n      jump\t// out\n        /* \"#utility.yul\":4177:4554   */\n    tag_266:\n        /* \"#utility.yul\":4265:4268   */\n      0x00\n        /* \"#utility.yul\":4293:4332   */\n      tag_370\n        /* \"#utility.yul\":4326:4331   */\n      dup3\n        /* \"#utility.yul\":4293:4332   */\n      tag_262\n      jump\t// in\n    tag_370:\n        /* \"#utility.yul\":4348:4419   */\n      tag_371\n        /* \"#utility.yul\":4412:4418   */\n      dup2\n        /* \"#utility.yul\":4407:4410   */\n      dup6\n        /* \"#utility.yul\":4348:4419   */\n      tag_263\n      jump\t// in\n    tag_371:\n        /* \"#utility.yul\":4341:4419   */\n      swap4\n      pop\n        /* \"#utility.yul\":4428:4493   */\n      tag_372\n        /* \"#utility.yul\":4486:4492   */\n      dup2\n        /* \"#utility.yul\":4481:4484   */\n      dup6\n        /* \"#utility.yul\":4474:4478   */\n      0x20\n        /* \"#utility.yul\":4467:4472   */\n      dup7\n        /* \"#utility.yul\":4463:4479   */\n      add\n        /* \"#utility.yul\":4428:4493   */\n      tag_264\n      jump\t// in\n    tag_372:\n        /* \"#utility.yul\":4518:4547   */\n      tag_373\n        /* \"#utility.yul\":4540:4546   */\n      dup2\n        /* \"#utility.yul\":4518:4547   */\n      tag_265\n      jump\t// in\n    tag_373:\n        /* \"#utility.yul\":4513:4516   */\n      dup5\n        /* \"#utility.yul\":4509:4548   */\n      add\n        /* \"#utility.yul\":4502:4548   */\n      swap2\n      pop\n        /* \"#utility.yul\":4269:4554   */\n      pop\n        /* \"#utility.yul\":4177:4554   */\n      swap3\n      swap2\n      pop\n      pop\n      jump\t// out\n        /* \"#utility.yul\":4560:4873   */\n    tag_85:\n        /* \"#utility.yul\":4673:4677   */\n      0x00\n        /* \"#utility.yul\":4711:4713   */\n      0x20\n        /* \"#utility.yul\":4700:4709   */\n      dup3\n        /* \"#utility.yul\":4696:4714   */\n      add\n        /* \"#utility.yul\":4688:4714   */\n      swap1\n      pop\n        /* \"#utility.yul\":4760:4769   */\n      dup2\n        /* \"#utility.yul\":4754:4758   */\n      dup2\n        /* \"#utility.yul\":4750:4770   */\n      sub\n        /* \"#utility.yul\":4746:4747   */\n      0x00\n        /* \"#utility.yul\":4735:4744   */\n      dup4\n        /* \"#utility.yul\":4731:4748   */\n      add\n        /* \"#utility.yul\":4724:4771   */\n      mstore\n        /* \"#utility.yul\":4788:4866   */\n      tag_375\n        /* \"#utility.yul\":4861:4865   */\n      dup2\n        /* \"#utility.yul\":4852:4858   */\n      dup5\n        /* \"#utility.yul\":4788:4866   */\n      tag_266\n      jump\t// in\n    tag_375:\n        /* \"#utility.yul\":4780:4866   */\n      swap1\n      pop\n        /* \"#utility.yul\":4560:4873   */\n      swap3\n      swap2\n      pop\n      pop\n      jump\t// out\n        /* \"#utility.yul\":4879:4997   */\n    tag_267:\n        /* \"#utility.yul\":4966:4990   */\n      tag_377\n        /* \"#utility.yul\":4984:4989   */\n      dup2\n        /* \"#utility.yul\":4966:4990   */\n      tag_257\n      jump\t// in\n    tag_377:\n        /* \"#utility.yul\":4961:4964   */\n      dup3\n        /* \"#utility.yul\":4954:4991   */\n      mstore\n        /* \"#utility.yul\":4879:4997   */\n      pop\n      pop\n      jump\t// out\n        /* \"#utility.yul\":5003:5225   */\n    tag_101:\n        /* \"#utility.yul\":5096:5100   */\n      0x00\n        /* \"#utility.yul\":5134:5136   */\n      0x20\n        /* \"#utility.yul\":5123:5132   */\n      dup3\n        /* \"#utility.yul\":5119:5137   */\n      add\n        /* \"#utility.yul\":5111:5137   */\n      swap1\n      pop\n        /* \"#utility.yul\":5147:5218   */\n      tag_379\n        /* \"#utility.yul\":5215:5216   */\n      0x00\n        /* \"#utility.yul\":5204:5213   */\n      dup4\n        /* \"#utility.yul\":5200:5217   */\n      add\n        /* \"#utility.yul\":5191:5197   */\n      dup5\n        /* \"#utility.yul\":5147:5218   */\n      tag_267\n      jump\t// in\n    tag_379:\n        /* \"#utility.yul\":5003:5225   */\n      swap3\n      swap2\n      pop\n      pop\n      jump\t// out\n        /* \"#utility.yul\":5231:5351   */\n    tag_268:\n        /* \"#utility.yul\":5303:5326   */\n      tag_381\n        /* \"#utility.yul\":5320:5325   */\n      dup2\n        /* \"#utility.yul\":5303:5326   */\n      tag_245\n      jump\t// in\n    tag_381:\n        /* \"#utility.yul\":5296:5301   */\n      dup2\n        /* \"#utility.yul\":5293:5327   */\n      eq\n        /* \"#utility.yul\":5283:5345   */\n      tag_382\n      jumpi\n        /* \"#utility.yul\":5341:5342   */\n      0x00\n        /* \"#utility.yul\":5338:5339   */\n      dup1\n        /* \"#utility.yul\":5331:5343   */\n      revert\n        /* \"#utility.yul\":5283:5345   */\n    tag_382:\n        /* \"#utility.yul\":5231:5351   */\n      pop\n      jump\t// out\n        /* \"#utility.yul\":5357:5494   */\n    tag_269:\n        /* \"#utility.yul\":5402:5407   */\n      0x00\n        /* \"#utility.yul\":5440:5446   */\n      dup2\n        /* \"#utility.yul\":5427:5447   */\n      calldataload\n        /* \"#utility.yul\":5418:5447   */\n      swap1\n      pop\n        /* \"#utility.yul\":5456:5488   */\n      tag_384\n        /* \"#utility.yul\":5482:5487   */\n      dup2\n        /* \"#utility.yul\":5456:5488   */\n      tag_268\n      jump\t// in\n    tag_384:\n        /* \"#utility.yul\":5357:5494   */\n      swap3\n      swap2\n      pop\n      pop\n      jump\t// out\n        /* \"#utility.yul\":5500:5827   */\n    tag_113:\n        /* \"#utility.yul\":5558:5564   */\n      0x00\n        /* \"#utility.yul\":5607:5609   */\n      0x20\n        /* \"#utility.yul\":5595:5604   */\n      dup3\n        /* \"#utility.yul\":5586:5593   */\n      dup5\n        /* \"#utility.yul\":5582:5605   */\n      sub\n        /* \"#utility.yul\":5578:5610   */\n      slt\n        /* \"#utility.yul\":5575:5694   */\n      iszero\n      tag_386\n      jumpi\n        /* \"#utility.yul\":5613:5692   */\n      tag_387\n      tag_252\n      jump\t// in\n    tag_387:\n        /* \"#utility.yul\":5575:5694   */\n    tag_386:\n        /* \"#utility.yul\":5733:5734   */\n      0x00\n        /* \"#utility.yul\":5758:5810   */\n      tag_388\n        /* \"#utility.yul\":5802:5809   */\n      dup5\n        /* \"#utility.yul\":5793:5799   */\n      dup3\n        /* \"#utility.yul\":5782:5791   */\n      dup6\n        /* \"#utility.yul\":5778:5800   */\n      add\n        /* \"#utility.yul\":5758:5810   */\n      tag_269\n      jump\t// in\n    tag_388:\n        /* \"#utility.yul\":5748:5810   */\n      swap2\n      pop\n        /* \"#utility.yul\":5704:5820   */\n      pop\n        /* \"#utility.yul\":5500:5827   */\n      swap3\n      swap2\n      pop\n      pop\n      jump\t// out\n        /* \"#utility.yul\":5833:5953   */\n    tag_270:\n        /* \"#utility.yul\":5905:5928   */\n      tag_390\n        /* \"#utility.yul\":5922:5927   */\n      dup2\n        /* \"#utility.yul\":5905:5928   */\n      tag_260\n      jump\t// in\n    tag_390:\n        /* \"#utility.yul\":5898:5903   */\n      dup2\n        /* \"#utility.yul\":5895:5929   */\n      eq\n        /* \"#utility.yul\":5885:5947   */\n      tag_391\n      jumpi\n        /* \"#utility.yul\":5943:5944   */\n      0x00\n        /* \"#utility.yul\":5940:5941   */\n      dup1\n        /* \"#utility.yul\":5933:5945   */\n      revert\n        /* \"#utility.yul\":5885:5947   */\n    tag_391:\n        /* \"#utility.yul\":5833:5953   */\n      pop\n      jump\t// out\n        /* \"#utility.yul\":5959:6096   */\n    tag_271:\n        /* \"#utility.yul\":6004:6009   */\n      0x00\n        /* \"#utility.yul\":6042:6048   */\n      dup2\n        /* \"#utility.yul\":6029:6049   */\n      calldataload\n        /* \"#utility.yul\":6020:6049   */\n      swap1\n      pop\n        /* \"#utility.yul\":6058:6090   */\n      tag_393\n        /* \"#utility.yul\":6084:6089   */\n      dup2\n        /* \"#utility.yul\":6058:6090   */\n      tag_270\n      jump\t// in\n    tag_393:\n        /* \"#utility.yul\":5959:6096   */\n      swap3\n      swap2\n      pop\n      pop\n      jump\t// out\n        /* \"#utility.yul\":6102:6429   */\n    tag_122:\n        /* \"#utility.yul\":6160:6166   */\n      0x00\n        /* \"#utility.yul\":6209:6211   */\n      0x20\n        /* \"#utility.yul\":6197:6206   */\n      dup3\n        /* \"#utility.yul\":6188:6195   */\n      dup5\n        /* \"#utility.yul\":6184:6207   */\n      sub\n        /* \"#utility.yul\":6180:6212   */\n      slt\n        /* \"#utility.yul\":6177:6296   */\n      iszero\n      tag_395\n      jumpi\n        /* \"#utility.yul\":6215:6294   */\n      tag_396\n      tag_252\n      jump\t// in\n    tag_396:\n        /* \"#utility.yul\":6177:6296   */\n    tag_395:\n        /* \"#utility.yul\":6335:6336   */\n      0x00\n        /* \"#utility.yul\":6360:6412   */\n      tag_397\n        /* \"#utility.yul\":6404:6411   */\n      dup5\n        /* \"#utility.yul\":6395:6401   */\n      dup3\n        /* \"#utility.yul\":6384:6393   */\n      dup6\n        /* \"#utility.yul\":6380:6402   */\n      add\n        /* \"#utility.yul\":6360:6412   */\n      tag_271\n      jump\t// in\n    tag_397:\n        /* \"#utility.yul\":6350:6412   */\n      swap2\n      pop\n        /* \"#utility.yul\":6306:6422   */\n      pop\n        /* \"#utility.yul\":6102:6429   */\n      swap3\n      swap2\n      pop\n      pop\n      jump\t// out\n        /* \"#utility.yul\":6435:6685   */\n    tag_272:\n        /* \"#utility.yul\":6575:6609   */\n      0x457320676962742062657265697473204d6974737069656c65722e2050726569\n        /* \"#utility.yul\":6571:6572   */\n      0x00\n        /* \"#utility.yul\":6563:6569   */\n      dup3\n        /* \"#utility.yul\":6559:6573   */\n      add\n        /* \"#utility.yul\":6552:6610   */\n      mstore\n        /* \"#utility.yul\":6644:6677   */\n      0x7361656e646572756e67206e69636874206d656872206d6f65676c6963682e00\n        /* \"#utility.yul\":6639:6641   */\n      0x20\n        /* \"#utility.yul\":6631:6637   */\n      dup3\n        /* \"#utility.yul\":6627:6642   */\n      add\n        /* \"#utility.yul\":6620:6678   */\n      mstore\n        /* \"#utility.yul\":6435:6685   */\n      pop\n      jump\t// out\n        /* \"#utility.yul\":6691:7057   */\n    tag_273:\n        /* \"#utility.yul\":6833:6836   */\n      0x00\n        /* \"#utility.yul\":6854:6921   */\n      tag_400\n        /* \"#utility.yul\":6918:6920   */\n      0x3f\n        /* \"#utility.yul\":6913:6916   */\n      dup4\n        /* \"#utility.yul\":6854:6921   */\n      tag_263\n      jump\t// in\n    tag_400:\n        /* \"#utility.yul\":6847:6921   */\n      swap2\n      pop\n        /* \"#utility.yul\":6930:7023   */\n      tag_401\n        /* \"#utility.yul\":7019:7022   */\n      dup3\n        /* \"#utility.yul\":6930:7023   */\n      tag_272\n      jump\t// in\n    tag_401:\n        /* \"#utility.yul\":7048:7050   */\n      0x40\n        /* \"#utility.yul\":7043:7046   */\n      dup3\n        /* \"#utility.yul\":7039:7051   */\n      add\n        /* \"#utility.yul\":7032:7051   */\n      swap1\n      pop\n        /* \"#utility.yul\":6691:7057   */\n      swap2\n      swap1\n      pop\n      jump\t// out\n        /* \"#utility.yul\":7063:7482   */\n    tag_138:\n        /* \"#utility.yul\":7229:7233   */\n      0x00\n        /* \"#utility.yul\":7267:7269   */\n      0x20\n        /* \"#utility.yul\":7256:7265   */\n      dup3\n        /* \"#utility.yul\":7252:7270   */\n      add\n        /* \"#utility.yul\":7244:7270   */\n      swap1\n      pop\n        /* \"#utility.yul\":7316:7325   */\n      dup2\n        /* \"#utility.yul\":7310:7314   */\n      dup2\n        /* \"#utility.yul\":7306:7326   */\n      sub\n        /* \"#utility.yul\":7302:7303   */\n      0x00\n        /* \"#utility.yul\":7291:7300   */\n      dup4\n        /* \"#utility.yul\":7287:7304   */\n      add\n        /* \"#utility.yul\":7280:7327   */\n      mstore\n        /* \"#utility.yul\":7344:7475   */\n      tag_403\n        /* \"#utility.yul\":7470:7474   */\n      dup2\n        /* \"#utility.yul\":7344:7475   */\n      tag_273\n      jump\t// in\n    tag_403:\n        /* \"#utility.yul\":7336:7475   */\n      swap1\n      pop\n        /* \"#utility.yul\":7063:7482   */\n      swap2\n      swap1\n      pop\n      jump\t// out\n        /* \"#utility.yul\":7488:7733   */\n    tag_274:\n        /* \"#utility.yul\":7628:7662   */\n      0x457320676962742062657265697473204d6974737069656c65722e2041656e64\n        /* \"#utility.yul\":7624:7625   */\n      0x00\n        /* \"#utility.yul\":7616:7622   */\n      dup3\n        /* \"#utility.yul\":7612:7626   */\n      add\n        /* \"#utility.yul\":7605:7663   */\n      mstore\n        /* \"#utility.yul\":7697:7725   */\n      0x6572756e67206e69636874206d656872206d6f65676c6963682e000000000000\n        /* \"#utility.yul\":7692:7694   */\n      0x20\n        /* \"#utility.yul\":7684:7690   */\n      dup3\n        /* \"#utility.yul\":7680:7695   */\n      add\n        /* \"#utility.yul\":7673:7726   */\n      mstore\n        /* \"#utility.yul\":7488:7733   */\n      pop\n      jump\t// out\n        /* \"#utility.yul\":7739:8105   */\n    tag_275:\n        /* \"#utility.yul\":7881:7884   */\n      0x00\n        /* \"#utility.yul\":7902:7969   */\n      tag_406\n        /* \"#utility.yul\":7966:7968   */\n      0x3a\n        /* \"#utility.yul\":7961:7964   */\n      dup4\n        /* \"#utility.yul\":7902:7969   */\n      tag_263\n      jump\t// in\n    tag_406:\n        /* \"#utility.yul\":7895:7969   */\n      swap2\n      pop\n        /* \"#utility.yul\":7978:8071   */\n      tag_407\n        /* \"#utility.yul\":8067:8070   */\n      dup3\n        /* \"#utility.yul\":7978:8071   */\n      tag_274\n      jump\t// in\n    tag_407:\n        /* \"#utility.yul\":8096:8098   */\n      0x40\n        /* \"#utility.yul\":8091:8094   */\n      dup3\n        /* \"#utility.yul\":8087:8099   */\n      add\n        /* \"#utility.yul\":8080:8099   */\n      swap1\n      pop\n        /* \"#utility.yul\":7739:8105   */\n      swap2\n      swap1\n      pop\n      jump\t// out\n        /* \"#utility.yul\":8111:8530   */\n    tag_144:\n        /* \"#utility.yul\":8277:8281   */\n      0x00\n        /* \"#utility.yul\":8315:8317   */\n      0x20\n        /* \"#utility.yul\":8304:8313   */\n      dup3\n        /* \"#utility.yul\":8300:8318   */\n      add\n        /* \"#utility.yul\":8292:8318   */\n      swap1\n      pop\n        /* \"#utility.yul\":8364:8373   */\n      dup2\n        /* \"#utility.yul\":8358:8362   */\n      dup2\n        /* \"#utility.yul\":8354:8374   */\n      sub\n        /* \"#utility.yul\":8350:8351   */\n      0x00\n        /* \"#utility.yul\":8339:8348   */\n      dup4\n        /* \"#utility.yul\":8335:8352   */\n      add\n        /* \"#utility.yul\":8328:8375   */\n      mstore\n        /* \"#utility.yul\":8392:8523   */\n      tag_409\n        /* \"#utility.yul\":8518:8522   */\n      dup2\n        /* \"#utility.yul\":8392:8523   */\n      tag_275\n      jump\t// in\n    tag_409:\n        /* \"#utility.yul\":8384:8523   */\n      swap1\n      pop\n        /* \"#utility.yul\":8111:8530   */\n      swap2\n      swap1\n      pop\n      jump\t// out\n        /* \"#utility.yul\":8536:8711   */\n    tag_276:\n        /* \"#utility.yul\":8676:8703   */\n      0x4b65696e2050726569732070726f204d6974737069656c657200000000000000\n        /* \"#utility.yul\":8672:8673   */\n      0x00\n        /* \"#utility.yul\":8664:8670   */\n      dup3\n        /* \"#utility.yul\":8660:8674   */\n      add\n        /* \"#utility.yul\":8653:8704   */\n      mstore\n        /* \"#utility.yul\":8536:8711   */\n      pop\n      jump\t// out\n        /* \"#utility.yul\":8717:9083   */\n    tag_277:\n        /* \"#utility.yul\":8859:8862   */\n      0x00\n        /* \"#utility.yul\":8880:8947   */\n      tag_412\n        /* \"#utility.yul\":8944:8946   */\n      0x19\n        /* \"#utility.yul\":8939:8942   */\n      dup4\n        /* \"#utility.yul\":8880:8947   */\n      tag_263\n      jump\t// in\n    tag_412:\n        /* \"#utility.yul\":8873:8947   */\n      swap2\n      pop\n        /* \"#utility.yul\":8956:9049   */\n      tag_413\n        /* \"#utility.yul\":9045:9048   */\n      dup3\n        /* \"#utility.yul\":8956:9049   */\n      tag_276\n      jump\t// in\n    tag_413:\n        /* \"#utility.yul\":9074:9076   */\n      0x20\n        /* \"#utility.yul\":9069:9072   */\n      dup3\n        /* \"#utility.yul\":9065:9077   */\n      add\n        /* \"#utility.yul\":9058:9077   */\n      swap1\n      pop\n        /* \"#utility.yul\":8717:9083   */\n      swap2\n      swap1\n      pop\n      jump\t// out\n        /* \"#utility.yul\":9089:9508   */\n    tag_148:\n        /* \"#utility.yul\":9255:9259   */\n      0x00\n        /* \"#utility.yul\":9293:9295   */\n      0x20\n        /* \"#utility.yul\":9282:9291   */\n      dup3\n        /* \"#utility.yul\":9278:9296   */\n      add\n        /* \"#utility.yul\":9270:9296   */\n      swap1\n      pop\n        /* \"#utility.yul\":9342:9351   */\n      dup2\n        /* \"#utility.yul\":9336:9340   */\n      dup2\n        /* \"#utility.yul\":9332:9352   */\n      sub\n        /* \"#utility.yul\":9328:9329   */\n      0x00\n        /* \"#utility.yul\":9317:9326   */\n      dup4\n        /* \"#utility.yul\":9313:9330   */\n      add\n        /* \"#utility.yul\":9306:9353   */\n      mstore\n        /* \"#utility.yul\":9370:9501   */\n      tag_415\n        /* \"#utility.yul\":9496:9500   */\n      dup2\n        /* \"#utility.yul\":9370:9501   */\n      tag_277\n      jump\t// in\n    tag_415:\n        /* \"#utility.yul\":9362:9501   */\n      swap1\n      pop\n        /* \"#utility.yul\":9089:9508   */\n      swap2\n      swap1\n      pop\n      jump\t// out\n        /* \"#utility.yul\":9514:9693   */\n    tag_278:\n        /* \"#utility.yul\":9654:9685   */\n      0x5a7520676572696e6765722045696e7a61686c756e6773626574726167000000\n        /* \"#utility.yul\":9650:9651   */\n      0x00\n        /* \"#utility.yul\":9642:9648   */\n      dup3\n        /* \"#utility.yul\":9638:9652   */\n      add\n        /* \"#utility.yul\":9631:9686   */\n      mstore\n        /* \"#utility.yul\":9514:9693   */\n      pop\n      jump\t// out\n        /* \"#utility.yul\":9699:10065   */\n    tag_279:\n        /* \"#utility.yul\":9841:9844   */\n      0x00\n        /* \"#utility.yul\":9862:9929   */\n      tag_418\n        /* \"#utility.yul\":9926:9928   */\n      0x1d\n        /* \"#utility.yul\":9921:9924   */\n      dup4\n        /* \"#utility.yul\":9862:9929   */\n      tag_263\n      jump\t// in\n    tag_418:\n        /* \"#utility.yul\":9855:9929   */\n      swap2\n      pop\n        /* \"#utility.yul\":9938:10031   */\n      tag_419\n        /* \"#utility.yul\":10027:10030   */\n      dup3\n        /* \"#utility.yul\":9938:10031   */\n      tag_278\n      jump\t// in\n    tag_419:\n        /* \"#utility.yul\":10056:10058   */\n      0x20\n        /* \"#utility.yul\":10051:10054   */\n      dup3\n        /* \"#utility.yul\":10047:10059   */\n      add\n        /* \"#utility.yul\":10040:10059   */\n      swap1\n      pop\n        /* \"#utility.yul\":9699:10065   */\n      swap2\n      swap1\n      pop\n      jump\t// out\n        /* \"#utility.yul\":10071:10490   */\n    tag_151:\n        /* \"#utility.yul\":10237:10241   */\n      0x00\n        /* \"#utility.yul\":10275:10277   */\n      0x20\n        /* \"#utility.yul\":10264:10273   */\n      dup3\n        /* \"#utility.yul\":10260:10278   */\n      add\n        /* \"#utility.yul\":10252:10278   */\n      swap1\n      pop\n        /* \"#utility.yul\":10324:10333   */\n      dup2\n        /* \"#utility.yul\":10318:10322   */\n      dup2\n        /* \"#utility.yul\":10314:10334   */\n      sub\n        /* \"#utility.yul\":10310:10311   */\n      0x00\n        /* \"#utility.yul\":10299:10308   */\n      dup4\n        /* \"#utility.yul\":10295:10312   */\n      add\n        /* \"#utility.yul\":10288:10335   */\n      mstore\n        /* \"#utility.yul\":10352:10483   */\n      tag_421\n        /* \"#utility.yul\":10478:10482   */\n      dup2\n        /* \"#utility.yul\":10352:10483   */\n      tag_279\n      jump\t// in\n    tag_421:\n        /* \"#utility.yul\":10344:10483   */\n      swap1\n      pop\n        /* \"#utility.yul\":10071:10490   */\n      swap2\n      swap1\n      pop\n      jump\t// out\n        /* \"#utility.yul\":10496:10717   */\n    tag_280:\n        /* \"#utility.yul\":10636:10670   */\n      0x4265726569747320616c73204d6974737069656c657220726567697374726965\n        /* \"#utility.yul\":10632:10633   */\n      0x00\n        /* \"#utility.yul\":10624:10630   */\n      dup3\n        /* \"#utility.yul\":10620:10634   */\n      add\n        /* \"#utility.yul\":10613:10671   */\n      mstore\n        /* \"#utility.yul\":10705:10709   */\n      0x7274000000000000000000000000000000000000000000000000000000000000\n        /* \"#utility.yul\":10700:10702   */\n      0x20\n        /* \"#utility.yul\":10692:10698   */\n      dup3\n        /* \"#utility.yul\":10688:10703   */\n      add\n        /* \"#utility.yul\":10681:10710   */\n      mstore\n        /* \"#utility.yul\":10496:10717   */\n      pop\n      jump\t// out\n        /* \"#utility.yul\":10723:11089   */\n    tag_281:\n        /* \"#utility.yul\":10865:10868   */\n      0x00\n        /* \"#utility.yul\":10886:10953   */\n      tag_424\n        /* \"#utility.yul\":10950:10952   */\n      0x22\n        /* \"#utility.yul\":10945:10948   */\n      dup4\n        /* \"#utility.yul\":10886:10953   */\n      tag_263\n      jump\t// in\n    tag_424:\n        /* \"#utility.yul\":10879:10953   */\n      swap2\n      pop\n        /* \"#utility.yul\":10962:11055   */\n      tag_425\n        /* \"#utility.yul\":11051:11054   */\n      dup3\n        /* \"#utility.yul\":10962:11055   */\n      tag_280\n      jump\t// in\n    tag_425:\n        /* \"#utility.yul\":11080:11082   */\n      0x40\n        /* \"#utility.yul\":11075:11078   */\n      dup3\n        /* \"#utility.yul\":11071:11083   */\n      add\n        /* \"#utility.yul\":11064:11083   */\n      swap1\n      pop\n        /* \"#utility.yul\":10723:11089   */\n      swap2\n      swap1\n      pop\n      jump\t// out\n        /* \"#utility.yul\":11095:11514   */\n    tag_154:\n        /* \"#utility.yul\":11261:11265   */\n      0x00\n        /* \"#utility.yul\":11299:11301   */\n      0x20\n        /* \"#utility.yul\":11288:11297   */\n      dup3\n        /* \"#utility.yul\":11284:11302   */\n      add\n        /* \"#utility.yul\":11276:11302   */\n      swap1\n      pop\n        /* \"#utility.yul\":11348:11357   */\n      dup2\n        /* \"#utility.yul\":11342:11346   */\n      dup2\n        /* \"#utility.yul\":11338:11358   */\n      sub\n        /* \"#utility.yul\":11334:11335   */\n      0x00\n        /* \"#utility.yul\":11323:11332   */\n      dup4\n        /* \"#utility.yul\":11319:11336   */\n      add\n        /* \"#utility.yul\":11312:11359   */\n      mstore\n        /* \"#utility.yul\":11376:11507   */\n      tag_427\n        /* \"#utility.yul\":11502:11506   */\n      dup2\n        /* \"#utility.yul\":11376:11507   */\n      tag_281\n      jump\t// in\n    tag_427:\n        /* \"#utility.yul\":11368:11507   */\n      swap1\n      pop\n        /* \"#utility.yul\":11095:11514   */\n      swap2\n      swap1\n      pop\n      jump\t// out\n        /* \"#utility.yul\":11520:11702   */\n    tag_282:\n        /* \"#utility.yul\":11660:11694   */\n      0x4d6178696d616c65205465696c6e65686d65727a61686c206572726569636874\n        /* \"#utility.yul\":11656:11657   */\n      0x00\n        /* \"#utility.yul\":11648:11654   */\n      dup3\n        /* \"#utility.yul\":11644:11658   */\n      add\n        /* \"#utility.yul\":11637:11695   */\n      mstore\n        /* \"#utility.yul\":11520:11702   */\n      pop\n      jump\t// out\n        /* \"#utility.yul\":11708:12074   */\n    tag_283:\n        /* \"#utility.yul\":11850:11853   */\n      0x00\n        /* \"#utility.yul\":11871:11938   */\n      tag_430\n        /* \"#utility.yul\":11935:11937   */\n      0x20\n        /* \"#utility.yul\":11930:11933   */\n      dup4\n        /* \"#utility.yul\":11871:11938   */\n      tag_263\n      jump\t// in\n    tag_430:\n        /* \"#utility.yul\":11864:11938   */\n      swap2\n      pop\n        /* \"#utility.yul\":11947:12040   */\n      tag_431\n        /* \"#utility.yul\":12036:12039   */\n      dup3\n        /* \"#utility.yul\":11947:12040   */\n      tag_282\n      jump\t// in\n    tag_431:\n        /* \"#utility.yul\":12065:12067   */\n      0x20\n        /* \"#utility.yul\":12060:12063   */\n      dup3\n        /* \"#utility.yul\":12056:12068   */\n      add\n        /* \"#utility.yul\":12049:12068   */\n      swap1\n      pop\n        /* \"#utility.yul\":11708:12074   */\n      swap2\n      swap1\n      pop\n      jump\t// out\n        /* \"#utility.yul\":12080:12499   */\n    tag_157:\n        /* \"#utility.yul\":12246:12250   */\n      0x00\n        /* \"#utility.yul\":12284:12286   */\n      0x20\n        /* \"#utility.yul\":12273:12282   */\n      dup3\n        /* \"#utility.yul\":12269:12287   */\n      add\n        /* \"#utility.yul\":12261:12287   */\n      swap1\n      pop\n        /* \"#utility.yul\":12333:12342   */\n      dup2\n        /* \"#utility.yul\":12327:12331   */\n      dup2\n        /* \"#utility.yul\":12323:12343   */\n      sub\n        /* \"#utility.yul\":12319:12320   */\n      0x00\n        /* \"#utility.yul\":12308:12317   */\n      dup4\n        /* \"#utility.yul\":12304:12321   */\n      add\n        /* \"#utility.yul\":12297:12344   */\n      mstore\n        /* \"#utility.yul\":12361:12492   */\n      tag_433\n        /* \"#utility.yul\":12487:12491   */\n      dup2\n        /* \"#utility.yul\":12361:12492   */\n      tag_283\n      jump\t// in\n    tag_433:\n        /* \"#utility.yul\":12353:12492   */\n      swap1\n      pop\n        /* \"#utility.yul\":12080:12499   */\n      swap2\n      swap1\n      pop\n      jump\t// out\n        /* \"#utility.yul\":12505:12686   */\n    tag_284:\n        /* \"#utility.yul\":12645:12678   */\n      0x476577696e6e20777572646520626572656974732065696e67657a61686c7400\n        /* \"#utility.yul\":12641:12642   */\n      0x00\n        /* \"#utility.yul\":12633:12639   */\n      dup3\n        /* \"#utility.yul\":12629:12643   */\n      add\n        /* \"#utility.yul\":12622:12679   */\n      mstore\n        /* \"#utility.yul\":12505:12686   */\n      pop\n      jump\t// out\n        /* \"#utility.yul\":12692:13058   */\n    tag_285:\n        /* \"#utility.yul\":12834:12837   */\n      0x00\n        /* \"#utility.yul\":12855:12922   */\n      tag_436\n        /* \"#utility.yul\":12919:12921   */\n      0x1f\n        /* \"#utility.yul\":12914:12917   */\n      dup4\n        /* \"#utility.yul\":12855:12922   */\n      tag_263\n      jump\t// in\n    tag_436:\n        /* \"#utility.yul\":12848:12922   */\n      swap2\n      pop\n        /* \"#utility.yul\":12931:13024   */\n      tag_437\n        /* \"#utility.yul\":13020:13023   */\n      dup3\n        /* \"#utility.yul\":12931:13024   */\n      tag_284\n      jump\t// in\n    tag_437:\n        /* \"#utility.yul\":13049:13051   */\n      0x20\n        /* \"#utility.yul\":13044:13047   */\n      dup3\n        /* \"#utility.yul\":13040:13052   */\n      add\n        /* \"#utility.yul\":13033:13052   */\n      swap1\n      pop\n        /* \"#utility.yul\":12692:13058   */\n      swap2\n      swap1\n      pop\n      jump\t// out\n        /* \"#utility.yul\":13064:13483   */\n    tag_160:\n        /* \"#utility.yul\":13230:13234   */\n      0x00\n        /* \"#utility.yul\":13268:13270   */\n      0x20\n        /* \"#utility.yul\":13257:13266   */\n      dup3\n        /* \"#utility.yul\":13253:13271   */\n      add\n        /* \"#utility.yul\":13245:13271   */\n      swap1\n      pop\n        /* \"#utility.yul\":13317:13326   */\n      dup2\n        /* \"#utility.yul\":13311:13315   */\n      dup2\n        /* \"#utility.yul\":13307:13327   */\n      sub\n        /* \"#utility.yul\":13303:13304   */\n      0x00\n        /* \"#utility.yul\":13292:13301   */\n      dup4\n        /* \"#utility.yul\":13288:13305   */\n      add\n        /* \"#utility.yul\":13281:13328   */\n      mstore\n        /* \"#utility.yul\":13345:13476   */\n      tag_439\n        /* \"#utility.yul\":13471:13475   */\n      dup2\n        /* \"#utility.yul\":13345:13476   */\n      tag_285\n      jump\t// in\n    tag_439:\n        /* \"#utility.yul\":13337:13476   */\n      swap1\n      pop\n        /* \"#utility.yul\":13064:13483   */\n      swap2\n      swap1\n      pop\n      jump\t// out\n        /* \"#utility.yul\":13489:13566   */\n    tag_286:\n        /* \"#utility.yul\":13526:13533   */\n      0x00\n        /* \"#utility.yul\":13555:13560   */\n      dup2\n        /* \"#utility.yul\":13544:13560   */\n      swap1\n      pop\n        /* \"#utility.yul\":13489:13566   */\n      swap2\n      swap1\n      pop\n      jump\t// out\n        /* \"#utility.yul\":13572:13752   */\n    tag_287:\n        /* \"#utility.yul\":13620:13697   */\n      0x4e487b7100000000000000000000000000000000000000000000000000000000\n        /* \"#utility.yul\":13617:13618   */\n      0x00\n        /* \"#utility.yul\":13610:13698   */\n      mstore\n        /* \"#utility.yul\":13717:13721   */\n      0x11\n        /* \"#utility.yul\":13714:13715   */\n      0x04\n        /* \"#utility.yul\":13707:13722   */\n      mstore\n        /* \"#utility.yul\":13741:13745   */\n      0x24\n        /* \"#utility.yul\":13738:13739   */\n      0x00\n        /* \"#utility.yul\":13731:13746   */\n      revert\n        /* \"#utility.yul\":13758:13952   */\n    tag_164:\n        /* \"#utility.yul\":13798:13802   */\n      0x00\n        /* \"#utility.yul\":13818:13838   */\n      tag_443\n        /* \"#utility.yul\":13836:13837   */\n      dup3\n        /* \"#utility.yul\":13818:13838   */\n      tag_286\n      jump\t// in\n    tag_443:\n        /* \"#utility.yul\":13813:13838   */\n      swap2\n      pop\n        /* \"#utility.yul\":13852:13872   */\n      tag_444\n        /* \"#utility.yul\":13870:13871   */\n      dup4\n        /* \"#utility.yul\":13852:13872   */\n      tag_286\n      jump\t// in\n    tag_444:\n        /* \"#utility.yul\":13847:13872   */\n      swap3\n      pop\n        /* \"#utility.yul\":13896:13897   */\n      dup3\n        /* \"#utility.yul\":13893:13894   */\n      dup3\n        /* \"#utility.yul\":13889:13898   */\n      sub\n        /* \"#utility.yul\":13881:13898   */\n      swap1\n      pop\n        /* \"#utility.yul\":13920:13921   */\n      dup2\n        /* \"#utility.yul\":13914:13918   */\n      dup2\n        /* \"#utility.yul\":13911:13922   */\n      gt\n        /* \"#utility.yul\":13908:13945   */\n      iszero\n      tag_445\n      jumpi\n        /* \"#utility.yul\":13925:13943   */\n      tag_446\n      tag_287\n      jump\t// in\n    tag_446:\n        /* \"#utility.yul\":13908:13945   */\n    tag_445:\n        /* \"#utility.yul\":13758:13952   */\n      swap3\n      swap2\n      pop\n      pop\n      jump\t// out\n        /* \"#utility.yul\":13958:14129   */\n    tag_166:\n        /* \"#utility.yul\":13996:13999   */\n      0x00\n        /* \"#utility.yul\":14019:14042   */\n      tag_448\n        /* \"#utility.yul\":14036:14041   */\n      dup3\n        /* \"#utility.yul\":14019:14042   */\n      tag_260\n      jump\t// in\n    tag_448:\n        /* \"#utility.yul\":14010:14042   */\n      swap2\n      pop\n        /* \"#utility.yul\":14064:14070   */\n      0xffff\n        /* \"#utility.yul\":14057:14062   */\n      dup3\n        /* \"#utility.yul\":14054:14071   */\n      sub\n        /* \"#utility.yul\":14051:14094   */\n      tag_449\n      jumpi\n        /* \"#utility.yul\":14074:14092   */\n      tag_450\n      tag_287\n      jump\t// in\n    tag_450:\n        /* \"#utility.yul\":14051:14094   */\n    tag_449:\n        /* \"#utility.yul\":14121:14122   */\n      0x01\n        /* \"#utility.yul\":14114:14119   */\n      dup3\n        /* \"#utility.yul\":14110:14123   */\n      add\n        /* \"#utility.yul\":14103:14123   */\n      swap1\n      pop\n        /* \"#utility.yul\":13958:14129   */\n      swap2\n      swap1\n      pop\n      jump\t// out\n        /* \"#utility.yul\":14135:14299   */\n    tag_288:\n        /* \"#utility.yul\":14275:14291   */\n      0x4e6f2072652d656e7472616e6379000000000000000000000000000000000000\n        /* \"#utility.yul\":14271:14272   */\n      0x00\n        /* \"#utility.yul\":14263:14269   */\n      dup3\n        /* \"#utility.yul\":14259:14273   */\n      add\n        /* \"#utility.yul\":14252:14292   */\n      mstore\n        /* \"#utility.yul\":14135:14299   */\n      pop\n      jump\t// out\n        /* \"#utility.yul\":14305:14671   */\n    tag_289:\n        /* \"#utility.yul\":14447:14450   */\n      0x00\n        /* \"#utility.yul\":14468:14535   */\n      tag_453\n        /* \"#utility.yul\":14532:14534   */\n      0x0e\n        /* \"#utility.yul\":14527:14530   */\n      dup4\n        /* \"#utility.yul\":14468:14535   */\n      tag_263\n      jump\t// in\n    tag_453:\n        /* \"#utility.yul\":14461:14535   */\n      swap2\n      pop\n        /* \"#utility.yul\":14544:14637   */\n      tag_454\n        /* \"#utility.yul\":14633:14636   */\n      dup3\n        /* \"#utility.yul\":14544:14637   */\n      tag_288\n      jump\t// in\n    tag_454:\n        /* \"#utility.yul\":14662:14664   */\n      0x20\n        /* \"#utility.yul\":14657:14660   */\n      dup3\n        /* \"#utility.yul\":14653:14665   */\n      add\n        /* \"#utility.yul\":14646:14665   */\n      swap1\n      pop\n        /* \"#utility.yul\":14305:14671   */\n      swap2\n      swap1\n      pop\n      jump\t// out\n        /* \"#utility.yul\":14677:15096   */\n    tag_175:\n        /* \"#utility.yul\":14843:14847   */\n      0x00\n        /* \"#utility.yul\":14881:14883   */\n      0x20\n        /* \"#utility.yul\":14870:14879   */\n      dup3\n        /* \"#utility.yul\":14866:14884   */\n      add\n        /* \"#utility.yul\":14858:14884   */\n      swap1\n      pop\n        /* \"#utility.yul\":14930:14939   */\n      dup2\n        /* \"#utility.yul\":14924:14928   */\n      dup2\n        /* \"#utility.yul\":14920:14940   */\n      sub\n        /* \"#utility.yul\":14916:14917   */\n      0x00\n        /* \"#utility.yul\":14905:14914   */\n      dup4\n        /* \"#utility.yul\":14901:14918   */\n      add\n        /* \"#utility.yul\":14894:14941   */\n      mstore\n        /* \"#utility.yul\":14958:15089   */\n      tag_456\n        /* \"#utility.yul\":15084:15088   */\n      dup2\n        /* \"#utility.yul\":14958:15089   */\n      tag_289\n      jump\t// in\n    tag_456:\n        /* \"#utility.yul\":14950:15089   */\n      swap1\n      pop\n        /* \"#utility.yul\":14677:15096   */\n      swap2\n      swap1\n      pop\n      jump\t// out\n        /* \"#utility.yul\":15102:15328   */\n    tag_290:\n        /* \"#utility.yul\":15242:15276   */\n      0x476577696e6e206b616e6e206e6f6368206e696368742061626765686f6c7420\n        /* \"#utility.yul\":15238:15239   */\n      0x00\n        /* \"#utility.yul\":15230:15236   */\n      dup3\n        /* \"#utility.yul\":15226:15240   */\n      add\n        /* \"#utility.yul\":15219:15277   */\n      mstore\n        /* \"#utility.yul\":15311:15320   */\n      0x77657264656e2e00000000000000000000000000000000000000000000000000\n        /* \"#utility.yul\":15306:15308   */\n      0x20\n        /* \"#utility.yul\":15298:15304   */\n      dup3\n        /* \"#utility.yul\":15294:15309   */\n      add\n        /* \"#utility.yul\":15287:15321   */\n      mstore\n        /* \"#utility.yul\":15102:15328   */\n      pop\n      jump\t// out\n        /* \"#utility.yul\":15334:15700   */\n    tag_291:\n        /* \"#utility.yul\":15476:15479   */\n      0x00\n        /* \"#utility.yul\":15497:15564   */\n      tag_459\n        /* \"#utility.yul\":15561:15563   */\n      0x27\n        /* \"#utility.yul\":15556:15559   */\n      dup4\n        /* \"#utility.yul\":15497:15564   */\n      tag_263\n      jump\t// in\n    tag_459:\n        /* \"#utility.yul\":15490:15564   */\n      swap2\n      pop\n        /* \"#utility.yul\":15573:15666   */\n      tag_460\n        /* \"#utility.yul\":15662:15665   */\n      dup3\n        /* \"#utility.yul\":15573:15666   */\n      tag_290\n      jump\t// in\n    tag_460:\n        /* \"#utility.yul\":15691:15693   */\n      0x40\n        /* \"#utility.yul\":15686:15689   */\n      dup3\n        /* \"#utility.yul\":15682:15694   */\n      add\n        /* \"#utility.yul\":15675:15694   */\n      swap1\n      pop\n        /* \"#utility.yul\":15334:15700   */\n      swap2\n      swap1\n      pop\n      jump\t// out\n        /* \"#utility.yul\":15706:16125   */\n    tag_179:\n        /* \"#utility.yul\":15872:15876   */\n      0x00\n        /* \"#utility.yul\":15910:15912   */\n      0x20\n        /* \"#utility.yul\":15899:15908   */\n      dup3\n        /* \"#utility.yul\":15895:15913   */\n      add\n        /* \"#utility.yul\":15887:15913   */\n      swap1\n      pop\n        /* \"#utility.yul\":15959:15968   */\n      dup2\n        /* \"#utility.yul\":15953:15957   */\n      dup2\n        /* \"#utility.yul\":15949:15969   */\n      sub\n        /* \"#utility.yul\":15945:15946   */\n      0x00\n        /* \"#utility.yul\":15934:15943   */\n      dup4\n        /* \"#utility.yul\":15930:15947   */\n      add\n        /* \"#utility.yul\":15923:15970   */\n      mstore\n        /* \"#utility.yul\":15987:16118   */\n      tag_462\n        /* \"#utility.yul\":16113:16117   */\n      dup2\n        /* \"#utility.yul\":15987:16118   */\n      tag_291\n      jump\t// in\n    tag_462:\n        /* \"#utility.yul\":15979:16118   */\n      swap1\n      pop\n        /* \"#utility.yul\":15706:16125   */\n      swap2\n      swap1\n      pop\n      jump\t// out\n        /* \"#utility.yul\":16131:16356   */\n    tag_292:\n        /* \"#utility.yul\":16271:16305   */\n      0x4b65696e20476577696e6e207a7572204175737a61686c756e67207665726675\n        /* \"#utility.yul\":16267:16268   */\n      0x00\n        /* \"#utility.yul\":16259:16265   */\n      dup3\n        /* \"#utility.yul\":16255:16269   */\n      add\n        /* \"#utility.yul\":16248:16306   */\n      mstore\n        /* \"#utility.yul\":16340:16348   */\n      0x65676261722e0000000000000000000000000000000000000000000000000000\n        /* \"#utility.yul\":16335:16337   */\n      0x20\n        /* \"#utility.yul\":16327:16333   */\n      dup3\n        /* \"#utility.yul\":16323:16338   */\n      add\n        /* \"#utility.yul\":16316:16349   */\n      mstore\n        /* \"#utility.yul\":16131:16356   */\n      pop\n      jump\t// out\n        /* \"#utility.yul\":16362:16728   */\n    tag_293:\n        /* \"#utility.yul\":16504:16507   */\n      0x00\n        /* \"#utility.yul\":16525:16592   */\n      tag_465\n        /* \"#utility.yul\":16589:16591   */\n      0x26\n        /* \"#utility.yul\":16584:16587   */\n      dup4\n        /* \"#utility.yul\":16525:16592   */\n      tag_263\n      jump\t// in\n    tag_465:\n        /* \"#utility.yul\":16518:16592   */\n      swap2\n      pop\n        /* \"#utility.yul\":16601:16694   */\n      tag_466\n        /* \"#utility.yul\":16690:16693   */\n      dup3\n        /* \"#utility.yul\":16601:16694   */\n      tag_292\n      jump\t// in\n    tag_466:\n        /* \"#utility.yul\":16719:16721   */\n      0x40\n        /* \"#utility.yul\":16714:16717   */\n      dup3\n        /* \"#utility.yul\":16710:16722   */\n      add\n        /* \"#utility.yul\":16703:16722   */\n      swap1\n      pop\n        /* \"#utility.yul\":16362:16728   */\n      swap2\n      swap1\n      pop\n      jump\t// out\n        /* \"#utility.yul\":16734:17153   */\n    tag_182:\n        /* \"#utility.yul\":16900:16904   */\n      0x00\n        /* \"#utility.yul\":16938:16940   */\n      0x20\n        /* \"#utility.yul\":16927:16936   */\n      dup3\n        /* \"#utility.yul\":16923:16941   */\n      add\n        /* \"#utility.yul\":16915:16941   */\n      swap1\n      pop\n        /* \"#utility.yul\":16987:16996   */\n      dup2\n        /* \"#utility.yul\":16981:16985   */\n      dup2\n        /* \"#utility.yul\":16977:16997   */\n      sub\n        /* \"#utility.yul\":16973:16974   */\n      0x00\n        /* \"#utility.yul\":16962:16971   */\n      dup4\n        /* \"#utility.yul\":16958:16975   */\n      add\n        /* \"#utility.yul\":16951:16998   */\n      mstore\n        /* \"#utility.yul\":17015:17146   */\n      tag_468\n        /* \"#utility.yul\":17141:17145   */\n      dup2\n        /* \"#utility.yul\":17015:17146   */\n      tag_293\n      jump\t// in\n    tag_468:\n        /* \"#utility.yul\":17007:17146   */\n      swap1\n      pop\n        /* \"#utility.yul\":16734:17153   */\n      swap2\n      swap1\n      pop\n      jump\t// out\n        /* \"#utility.yul\":17159:17339   */\n    tag_294:\n        /* \"#utility.yul\":17299:17331   */\n      0x476577696e6e20777572646520626572656974732061626765686f6c742e0000\n        /* \"#utility.yul\":17295:17296   */\n      0x00\n        /* \"#utility.yul\":17287:17293   */\n      dup3\n        /* \"#utility.yul\":17283:17297   */\n      add\n        /* \"#utility.yul\":17276:17332   */\n      mstore\n        /* \"#utility.yul\":17159:17339   */\n      pop\n      jump\t// out\n        /* \"#utility.yul\":17345:17711   */\n    tag_295:\n        /* \"#utility.yul\":17487:17490   */\n      0x00\n        /* \"#utility.yul\":17508:17575   */\n      tag_471\n        /* \"#utility.yul\":17572:17574   */\n      0x1e\n        /* \"#utility.yul\":17567:17570   */\n      dup4\n        /* \"#utility.yul\":17508:17575   */\n      tag_263\n      jump\t// in\n    tag_471:\n        /* \"#utility.yul\":17501:17575   */\n      swap2\n      pop\n        /* \"#utility.yul\":17584:17677   */\n      tag_472\n        /* \"#utility.yul\":17673:17676   */\n      dup3\n        /* \"#utility.yul\":17584:17677   */\n      tag_294\n      jump\t// in\n    tag_472:\n        /* \"#utility.yul\":17702:17704   */\n      0x20\n        /* \"#utility.yul\":17697:17700   */\n      dup3\n        /* \"#utility.yul\":17693:17705   */\n      add\n        /* \"#utility.yul\":17686:17705   */\n      swap1\n      pop\n        /* \"#utility.yul\":17345:17711   */\n      swap2\n      swap1\n      pop\n      jump\t// out\n        /* \"#utility.yul\":17717:18136   */\n    tag_185:\n        /* \"#utility.yul\":17883:17887   */\n      0x00\n        /* \"#utility.yul\":17921:17923   */\n      0x20\n        /* \"#utility.yul\":17910:17919   */\n      dup3\n        /* \"#utility.yul\":17906:17924   */\n      add\n        /* \"#utility.yul\":17898:17924   */\n      swap1\n      pop\n        /* \"#utility.yul\":17970:17979   */\n      dup2\n        /* \"#utility.yul\":17964:17968   */\n      dup2\n        /* \"#utility.yul\":17960:17980   */\n      sub\n        /* \"#utility.yul\":17956:17957   */\n      0x00\n        /* \"#utility.yul\":17945:17954   */\n      dup4\n        /* \"#utility.yul\":17941:17958   */\n      add\n        /* \"#utility.yul\":17934:17981   */\n      mstore\n        /* \"#utility.yul\":17998:18129   */\n      tag_474\n        /* \"#utility.yul\":18124:18128   */\n      dup2\n        /* \"#utility.yul\":17998:18129   */\n      tag_295\n      jump\t// in\n    tag_474:\n        /* \"#utility.yul\":17990:18129   */\n      swap1\n      pop\n        /* \"#utility.yul\":17717:18136   */\n      swap2\n      swap1\n      pop\n      jump\t// out\n        /* \"#utility.yul\":18142:18322   */\n    tag_296:\n        /* \"#utility.yul\":18190:18267   */\n      0x4e487b7100000000000000000000000000000000000000000000000000000000\n        /* \"#utility.yul\":18187:18188   */\n      0x00\n        /* \"#utility.yul\":18180:18268   */\n      mstore\n        /* \"#utility.yul\":18287:18291   */\n      0x22\n        /* \"#utility.yul\":18284:18285   */\n      0x04\n        /* \"#utility.yul\":18277:18292   */\n      mstore\n        /* \"#utility.yul\":18311:18315   */\n      0x24\n        /* \"#utility.yul\":18308:18309   */\n      0x00\n        /* \"#utility.yul\":18301:18316   */\n      revert\n        /* \"#utility.yul\":18328:18648   */\n    tag_189:\n        /* \"#utility.yul\":18372:18378   */\n      0x00\n        /* \"#utility.yul\":18409:18410   */\n      0x02\n        /* \"#utility.yul\":18403:18407   */\n      dup3\n        /* \"#utility.yul\":18399:18411   */\n      div\n        /* \"#utility.yul\":18389:18411   */\n      swap1\n      pop\n        /* \"#utility.yul\":18456:18457   */\n      0x01\n        /* \"#utility.yul\":18450:18454   */\n      dup3\n        /* \"#utility.yul\":18446:18458   */\n      and\n        /* \"#utility.yul\":18477:18495   */\n      dup1\n        /* \"#utility.yul\":18467:18548   */\n      tag_477\n      jumpi\n        /* \"#utility.yul\":18533:18537   */\n      0x7f\n        /* \"#utility.yul\":18525:18531   */\n      dup3\n        /* \"#utility.yul\":18521:18538   */\n      and\n        /* \"#utility.yul\":18511:18538   */\n      swap2\n      pop\n        /* \"#utility.yul\":18467:18548   */\n    tag_477:\n        /* \"#utility.yul\":18595:18597   */\n      0x20\n        /* \"#utility.yul\":18587:18593   */\n      dup3\n        /* \"#utility.yul\":18584:18598   */\n      lt\n        /* \"#utility.yul\":18564:18582   */\n      dup2\n        /* \"#utility.yul\":18561:18599   */\n      sub\n        /* \"#utility.yul\":18558:18642   */\n      tag_478\n      jumpi\n        /* \"#utility.yul\":18614:18632   */\n      tag_479\n      tag_296\n      jump\t// in\n    tag_479:\n        /* \"#utility.yul\":18558:18642   */\n    tag_478:\n        /* \"#utility.yul\":18379:18648   */\n      pop\n        /* \"#utility.yul\":18328:18648   */\n      swap2\n      swap1\n      pop\n      jump\t// out\n        /* \"#utility.yul\":18654:18875   */\n    tag_297:\n        /* \"#utility.yul\":18794:18828   */\n      0x47656d65696e736368616674206d7573732061756667656c6f65737420736569\n        /* \"#utility.yul\":18790:18791   */\n      0x00\n        /* \"#utility.yul\":18782:18788   */\n      dup3\n        /* \"#utility.yul\":18778:18792   */\n      add\n        /* \"#utility.yul\":18771:18829   */\n      mstore\n        /* \"#utility.yul\":18863:18867   */\n      0x6e2e000000000000000000000000000000000000000000000000000000000000\n        /* \"#utility.yul\":18858:18860   */\n      0x20\n        /* \"#utility.yul\":18850:18856   */\n      dup3\n        /* \"#utility.yul\":18846:18861   */\n      add\n        /* \"#utility.yul\":18839:18868   */\n      mstore\n        /* \"#utility.yul\":18654:18875   */\n      pop\n      jump\t// out\n        /* \"#utility.yul\":18881:19247   */\n    tag_298:\n        /* \"#utility.yul\":19023:19026   */\n      0x00\n        /* \"#utility.yul\":19044:19111   */\n      tag_482\n        /* \"#utility.yul\":19108:19110   */\n      0x22\n        /* \"#utility.yul\":19103:19106   */\n      dup4\n        /* \"#utility.yul\":19044:19111   */\n      tag_263\n      jump\t// in\n    tag_482:\n        /* \"#utility.yul\":19037:19111   */\n      swap2\n      pop\n        /* \"#utility.yul\":19120:19213   */\n      tag_483\n        /* \"#utility.yul\":19209:19212   */\n      dup3\n        /* \"#utility.yul\":19120:19213   */\n      tag_297\n      jump\t// in\n    tag_483:\n        /* \"#utility.yul\":19238:19240   */\n      0x40\n        /* \"#utility.yul\":19233:19236   */\n      dup3\n        /* \"#utility.yul\":19229:19241   */\n      add\n        /* \"#utility.yul\":19222:19241   */\n      swap1\n      pop\n        /* \"#utility.yul\":18881:19247   */\n      swap2\n      swap1\n      pop\n      jump\t// out\n        /* \"#utility.yul\":19253:19672   */\n    tag_202:\n        /* \"#utility.yul\":19419:19423   */\n      0x00\n        /* \"#utility.yul\":19457:19459   */\n      0x20\n        /* \"#utility.yul\":19446:19455   */\n      dup3\n        /* \"#utility.yul\":19442:19460   */\n      add\n        /* \"#utility.yul\":19434:19460   */\n      swap1\n      pop\n        /* \"#utility.yul\":19506:19515   */\n      dup2\n        /* \"#utility.yul\":19500:19504   */\n      dup2\n        /* \"#utility.yul\":19496:19516   */\n      sub\n        /* \"#utility.yul\":19492:19493   */\n      0x00\n        /* \"#utility.yul\":19481:19490   */\n      dup4\n        /* \"#utility.yul\":19477:19494   */\n      add\n        /* \"#utility.yul\":19470:19517   */\n      mstore\n        /* \"#utility.yul\":19534:19665   */\n      tag_485\n        /* \"#utility.yul\":19660:19664   */\n      dup2\n        /* \"#utility.yul\":19534:19665   */\n      tag_298\n      jump\t// in\n    tag_485:\n        /* \"#utility.yul\":19526:19665   */\n      swap1\n      pop\n        /* \"#utility.yul\":19253:19672   */\n      swap2\n      swap1\n      pop\n      jump\t// out\n        /* \"#utility.yul\":19678:19902   */\n    tag_299:\n        /* \"#utility.yul\":19818:19852   */\n      0x45696e7361747a2077757264652062657265697473207a75727565636b67657a\n        /* \"#utility.yul\":19814:19815   */\n      0x00\n        /* \"#utility.yul\":19806:19812   */\n      dup3\n        /* \"#utility.yul\":19802:19816   */\n      add\n        /* \"#utility.yul\":19795:19853   */\n      mstore\n        /* \"#utility.yul\":19887:19894   */\n      0x61686c742e000000000000000000000000000000000000000000000000000000\n        /* \"#utility.yul\":19882:19884   */\n      0x20\n        /* \"#utility.yul\":19874:19880   */\n      dup3\n        /* \"#utility.yul\":19870:19885   */\n      add\n        /* \"#utility.yul\":19863:19895   */\n      mstore\n        /* \"#utility.yul\":19678:19902   */\n      pop\n      jump\t// out\n        /* \"#utility.yul\":19908:20274   */\n    tag_300:\n        /* \"#utility.yul\":20050:20053   */\n      0x00\n        /* \"#utility.yul\":20071:20138   */\n      tag_488\n        /* \"#utility.yul\":20135:20137   */\n      0x25\n        /* \"#utility.yul\":20130:20133   */\n      dup4\n        /* \"#utility.yul\":20071:20138   */\n      tag_263\n      jump\t// in\n    tag_488:\n        /* \"#utility.yul\":20064:20138   */\n      swap2\n      pop\n        /* \"#utility.yul\":20147:20240   */\n      tag_489\n        /* \"#utility.yul\":20236:20239   */\n      dup3\n        /* \"#utility.yul\":20147:20240   */\n      tag_299\n      jump\t// in\n    tag_489:\n        /* \"#utility.yul\":20265:20267   */\n      0x40\n        /* \"#utility.yul\":20260:20263   */\n      dup3\n        /* \"#utility.yul\":20256:20268   */\n      add\n        /* \"#utility.yul\":20249:20268   */\n      swap1\n      pop\n        /* \"#utility.yul\":19908:20274   */\n      swap2\n      swap1\n      pop\n      jump\t// out\n        /* \"#utility.yul\":20280:20699   */\n    tag_205:\n        /* \"#utility.yul\":20446:20450   */\n      0x00\n        /* \"#utility.yul\":20484:20486   */\n      0x20\n        /* \"#utility.yul\":20473:20482   */\n      dup3\n        /* \"#utility.yul\":20469:20487   */\n      add\n        /* \"#utility.yul\":20461:20487   */\n      swap1\n      pop\n        /* \"#utility.yul\":20533:20542   */\n      dup2\n        /* \"#utility.yul\":20527:20531   */\n      dup2\n        /* \"#utility.yul\":20523:20543   */\n      sub\n        /* \"#utility.yul\":20519:20520   */\n      0x00\n        /* \"#utility.yul\":20508:20517   */\n      dup4\n        /* \"#utility.yul\":20504:20521   */\n      add\n        /* \"#utility.yul\":20497:20544   */\n      mstore\n        /* \"#utility.yul\":20561:20692   */\n      tag_491\n        /* \"#utility.yul\":20687:20691   */\n      dup2\n        /* \"#utility.yul\":20561:20692   */\n      tag_300\n      jump\t// in\n    tag_491:\n        /* \"#utility.yul\":20553:20692   */\n      swap1\n      pop\n        /* \"#utility.yul\":20280:20699   */\n      swap2\n      swap1\n      pop\n      jump\t// out\n        /* \"#utility.yul\":20705:20852   */\n    tag_301:\n        /* \"#utility.yul\":20806:20817   */\n      0x00\n        /* \"#utility.yul\":20843:20846   */\n      dup2\n        /* \"#utility.yul\":20828:20846   */\n      swap1\n      pop\n        /* \"#utility.yul\":20705:20852   */\n      swap3\n      swap2\n      pop\n      pop\n      jump\t// out\n        /* \"#utility.yul\":20858:20972   */\n    tag_302:\n      pop\n      jump\t// out\n        /* \"#utility.yul\":20978:21376   */\n    tag_303:\n        /* \"#utility.yul\":21137:21140   */\n      0x00\n        /* \"#utility.yul\":21158:21241   */\n      tag_495\n        /* \"#utility.yul\":21239:21240   */\n      0x00\n        /* \"#utility.yul\":21234:21237   */\n      dup4\n        /* \"#utility.yul\":21158:21241   */\n      tag_301\n      jump\t// in\n    tag_495:\n        /* \"#utility.yul\":21151:21241   */\n      swap2\n      pop\n        /* \"#utility.yul\":21250:21343   */\n      tag_496\n        /* \"#utility.yul\":21339:21342   */\n      dup3\n        /* \"#utility.yul\":21250:21343   */\n      tag_302\n      jump\t// in\n    tag_496:\n        /* \"#utility.yul\":21368:21369   */\n      0x00\n        /* \"#utility.yul\":21363:21366   */\n      dup3\n        /* \"#utility.yul\":21359:21370   */\n      add\n        /* \"#utility.yul\":21352:21370   */\n      swap1\n      pop\n        /* \"#utility.yul\":20978:21376   */\n      swap2\n      swap1\n      pop\n      jump\t// out\n        /* \"#utility.yul\":21382:21761   */\n    tag_207:\n        /* \"#utility.yul\":21566:21569   */\n      0x00\n        /* \"#utility.yul\":21588:21735   */\n      tag_498\n        /* \"#utility.yul\":21731:21734   */\n      dup3\n        /* \"#utility.yul\":21588:21735   */\n      tag_303\n      jump\t// in\n    tag_498:\n        /* \"#utility.yul\":21581:21735   */\n      swap2\n      pop\n        /* \"#utility.yul\":21752:21755   */\n      dup2\n        /* \"#utility.yul\":21745:21755   */\n      swap1\n      pop\n        /* \"#utility.yul\":21382:21761   */\n      swap2\n      swap1\n      pop\n      jump\t// out\n        /* \"#utility.yul\":21767:21996   */\n    tag_304:\n        /* \"#utility.yul\":21907:21941   */\n      0x527565636b7a61686c756e67206465732045696e7361747a6573206665686c67\n        /* \"#utility.yul\":21903:21904   */\n      0x00\n        /* \"#utility.yul\":21895:21901   */\n      dup3\n        /* \"#utility.yul\":21891:21905   */\n      add\n        /* \"#utility.yul\":21884:21942   */\n      mstore\n        /* \"#utility.yul\":21976:21988   */\n      0x657363686c6167656e2e00000000000000000000000000000000000000000000\n        /* \"#utility.yul\":21971:21973   */\n      0x20\n        /* \"#utility.yul\":21963:21969   */\n      dup3\n        /* \"#utility.yul\":21959:21974   */\n      add\n        /* \"#utility.yul\":21952:21989   */\n      mstore\n        /* \"#utility.yul\":21767:21996   */\n      pop\n      jump\t// out\n        /* \"#utility.yul\":22002:22368   */\n    tag_305:\n        /* \"#utility.yul\":22144:22147   */\n      0x00\n        /* \"#utility.yul\":22165:22232   */\n      tag_501\n        /* \"#utility.yul\":22229:22231   */\n      0x2a\n        /* \"#utility.yul\":22224:22227   */\n      dup4\n        /* \"#utility.yul\":22165:22232   */\n      tag_263\n      jump\t// in\n    tag_501:\n        /* \"#utility.yul\":22158:22232   */\n      swap2\n      pop\n        /* \"#utility.yul\":22241:22334   */\n      tag_502\n        /* \"#utility.yul\":22330:22333   */\n      dup3\n        /* \"#utility.yul\":22241:22334   */\n      tag_304\n      jump\t// in\n    tag_502:\n        /* \"#utility.yul\":22359:22361   */\n      0x40\n        /* \"#utility.yul\":22354:22357   */\n      dup3\n        /* \"#utility.yul\":22350:22362   */\n      add\n        /* \"#utility.yul\":22343:22362   */\n      swap1\n      pop\n        /* \"#utility.yul\":22002:22368   */\n      swap2\n      swap1\n      pop\n      jump\t// out\n        /* \"#utility.yul\":22374:22793   */\n    tag_213:\n        /* \"#utility.yul\":22540:22544   */\n      0x00\n        /* \"#utility.yul\":22578:22580   */\n      0x20\n        /* \"#utility.yul\":22567:22576   */\n      dup3\n        /* \"#utility.yul\":22563:22581   */\n      add\n        /* \"#utility.yul\":22555:22581   */\n      swap1\n      pop\n        /* \"#utility.yul\":22627:22636   */\n      dup2\n        /* \"#utility.yul\":22621:22625   */\n      dup2\n        /* \"#utility.yul\":22617:22637   */\n      sub\n        /* \"#utility.yul\":22613:22614   */\n      0x00\n        /* \"#utility.yul\":22602:22611   */\n      dup4\n        /* \"#utility.yul\":22598:22615   */\n      add\n        /* \"#utility.yul\":22591:22638   */\n      mstore\n        /* \"#utility.yul\":22655:22786   */\n      tag_504\n        /* \"#utility.yul\":22781:22785   */\n      dup2\n        /* \"#utility.yul\":22655:22786   */\n      tag_305\n      jump\t// in\n    tag_504:\n        /* \"#utility.yul\":22647:22786   */\n      swap1\n      pop\n        /* \"#utility.yul\":22374:22793   */\n      swap2\n      swap1\n      pop\n      jump\t// out\n        /* \"#utility.yul\":22799:23020   */\n    tag_306:\n        /* \"#utility.yul\":22939:22973   */\n      0x476577696e6e206d757373206e6f63682061757367657a61686c742077657264\n        /* \"#utility.yul\":22935:22936   */\n      0x00\n        /* \"#utility.yul\":22927:22933   */\n      dup3\n        /* \"#utility.yul\":22923:22937   */\n      add\n        /* \"#utility.yul\":22916:22974   */\n      mstore\n        /* \"#utility.yul\":23008:23012   */\n      0x656e000000000000000000000000000000000000000000000000000000000000\n        /* \"#utility.yul\":23003:23005   */\n      0x20\n        /* \"#utility.yul\":22995:23001   */\n      dup3\n        /* \"#utility.yul\":22991:23006   */\n      add\n        /* \"#utility.yul\":22984:23013   */\n      mstore\n        /* \"#utility.yul\":22799:23020   */\n      pop\n      jump\t// out\n        /* \"#utility.yul\":23026:23392   */\n    tag_307:\n        /* \"#utility.yul\":23168:23171   */\n      0x00\n        /* \"#utility.yul\":23189:23256   */\n      tag_507\n        /* \"#utility.yul\":23253:23255   */\n      0x22\n        /* \"#utility.yul\":23248:23251   */\n      dup4\n        /* \"#utility.yul\":23189:23256   */\n      tag_263\n      jump\t// in\n    tag_507:\n        /* \"#utility.yul\":23182:23256   */\n      swap2\n      pop\n        /* \"#utility.yul\":23265:23358   */\n      tag_508\n        /* \"#utility.yul\":23354:23357   */\n      dup3\n        /* \"#utility.yul\":23265:23358   */\n      tag_306\n      jump\t// in\n    tag_508:\n        /* \"#utility.yul\":23383:23385   */\n      0x40\n        /* \"#utility.yul\":23378:23381   */\n      dup3\n        /* \"#utility.yul\":23374:23386   */\n      add\n        /* \"#utility.yul\":23367:23386   */\n      swap1\n      pop\n        /* \"#utility.yul\":23026:23392   */\n      swap2\n      swap1\n      pop\n      jump\t// out\n        /* \"#utility.yul\":23398:23817   */\n    tag_219:\n        /* \"#utility.yul\":23564:23568   */\n      0x00\n        /* \"#utility.yul\":23602:23604   */\n      0x20\n        /* \"#utility.yul\":23591:23600   */\n      dup3\n        /* \"#utility.yul\":23587:23605   */\n      add\n        /* \"#utility.yul\":23579:23605   */\n      swap1\n      pop\n        /* \"#utility.yul\":23651:23660   */\n      dup2\n        /* \"#utility.yul\":23645:23649   */\n      dup2\n        /* \"#utility.yul\":23641:23661   */\n      sub\n        /* \"#utility.yul\":23637:23638   */\n      0x00\n        /* \"#utility.yul\":23626:23635   */\n      dup4\n        /* \"#utility.yul\":23622:23639   */\n      add\n        /* \"#utility.yul\":23615:23662   */\n      mstore\n        /* \"#utility.yul\":23679:23810   */\n      tag_510\n        /* \"#utility.yul\":23805:23809   */\n      dup2\n        /* \"#utility.yul\":23679:23810   */\n      tag_307\n      jump\t// in\n    tag_510:\n        /* \"#utility.yul\":23671:23810   */\n      swap1\n      pop\n        /* \"#utility.yul\":23398:23817   */\n      swap2\n      swap1\n      pop\n      jump\t// out\n        /* \"#utility.yul\":23823:24004   */\n    tag_308:\n        /* \"#utility.yul\":23963:23996   */\n      0x47656d65696e73636861667420626572656974732061756667656c6f65737400\n        /* \"#utility.yul\":23959:23960   */\n      0x00\n        /* \"#utility.yul\":23951:23957   */\n      dup3\n        /* \"#utility.yul\":23947:23961   */\n      add\n        /* \"#utility.yul\":23940:23997   */\n      mstore\n        /* \"#utility.yul\":23823:24004   */\n      pop\n      jump\t// out\n        /* \"#utility.yul\":24010:24376   */\n    tag_309:\n        /* \"#utility.yul\":24152:24155   */\n      0x00\n        /* \"#utility.yul\":24173:24240   */\n      tag_513\n        /* \"#utility.yul\":24237:24239   */\n      0x1f\n        /* \"#utility.yul\":24232:24235   */\n      dup4\n        /* \"#utility.yul\":24173:24240   */\n      tag_263\n      jump\t// in\n    tag_513:\n        /* \"#utility.yul\":24166:24240   */\n      swap2\n      pop\n        /* \"#utility.yul\":24249:24342   */\n      tag_514\n        /* \"#utility.yul\":24338:24341   */\n      dup3\n        /* \"#utility.yul\":24249:24342   */\n      tag_308\n      jump\t// in\n    tag_514:\n        /* \"#utility.yul\":24367:24369   */\n      0x20\n        /* \"#utility.yul\":24362:24365   */\n      dup3\n        /* \"#utility.yul\":24358:24370   */\n      add\n        /* \"#utility.yul\":24351:24370   */\n      swap1\n      pop\n        /* \"#utility.yul\":24010:24376   */\n      swap2\n      swap1\n      pop\n      jump\t// out\n        /* \"#utility.yul\":24382:24801   */\n    tag_222:\n        /* \"#utility.yul\":24548:24552   */\n      0x00\n        /* \"#utility.yul\":24586:24588   */\n      0x20\n        /* \"#utility.yul\":24575:24584   */\n      dup3\n        /* \"#utility.yul\":24571:24589   */\n      add\n        /* \"#utility.yul\":24563:24589   */\n      swap1\n      pop\n        /* \"#utility.yul\":24635:24644   */\n      dup2\n        /* \"#utility.yul\":24629:24633   */\n      dup2\n        /* \"#utility.yul\":24625:24645   */\n      sub\n        /* \"#utility.yul\":24621:24622   */\n      0x00\n        /* \"#utility.yul\":24610:24619   */\n      dup4\n        /* \"#utility.yul\":24606:24623   */\n      add\n        /* \"#utility.yul\":24599:24646   */\n      mstore\n        /* \"#utility.yul\":24663:24794   */\n      tag_516\n        /* \"#utility.yul\":24789:24793   */\n      dup2\n        /* \"#utility.yul\":24663:24794   */\n      tag_309\n      jump\t// in\n    tag_516:\n        /* \"#utility.yul\":24655:24794   */\n      swap1\n      pop\n        /* \"#utility.yul\":24382:24801   */\n      swap2\n      swap1\n      pop\n      jump\t// out\n        /* \"#utility.yul\":24807:25036   */\n    tag_310:\n        /* \"#utility.yul\":24947:24981   */\n      0x45696e7a61686c756e6773626574726167206d7573732067726f657373657220\n        /* \"#utility.yul\":24943:24944   */\n      0x00\n        /* \"#utility.yul\":24935:24941   */\n      dup3\n        /* \"#utility.yul\":24931:24945   */\n      add\n        /* \"#utility.yul\":24924:24982   */\n      mstore\n        /* \"#utility.yul\":25016:25028   */\n      0x616c732030207365696e00000000000000000000000000000000000000000000\n        /* \"#utility.yul\":25011:25013   */\n      0x20\n        /* \"#utility.yul\":25003:25009   */\n      dup3\n        /* \"#utility.yul\":24999:25014   */\n      add\n        /* \"#utility.yul\":24992:25029   */\n      mstore\n        /* \"#utility.yul\":24807:25036   */\n      pop\n      jump\t// out\n        /* \"#utility.yul\":25042:25408   */\n    tag_311:\n        /* \"#utility.yul\":25184:25187   */\n      0x00\n        /* \"#utility.yul\":25205:25272   */\n      tag_519\n        /* \"#utility.yul\":25269:25271   */\n      0x2a\n        /* \"#utility.yul\":25264:25267   */\n      dup4\n        /* \"#utility.yul\":25205:25272   */\n      tag_263\n      jump\t// in\n    tag_519:\n        /* \"#utility.yul\":25198:25272   */\n      swap2\n      pop\n        /* \"#utility.yul\":25281:25374   */\n      tag_520\n        /* \"#utility.yul\":25370:25373   */\n      dup3\n        /* \"#utility.yul\":25281:25374   */\n      tag_310\n      jump\t// in\n    tag_520:\n        /* \"#utility.yul\":25399:25401   */\n      0x40\n        /* \"#utility.yul\":25394:25397   */\n      dup3\n        /* \"#utility.yul\":25390:25402   */\n      add\n        /* \"#utility.yul\":25383:25402   */\n      swap1\n      pop\n        /* \"#utility.yul\":25042:25408   */\n      swap2\n      swap1\n      pop\n      jump\t// out\n        /* \"#utility.yul\":25414:25833   */\n    tag_228:\n        /* \"#utility.yul\":25580:25584   */\n      0x00\n        /* \"#utility.yul\":25618:25620   */\n      0x20\n        /* \"#utility.yul\":25607:25616   */\n      dup3\n        /* \"#utility.yul\":25603:25621   */\n      add\n        /* \"#utility.yul\":25595:25621   */\n      swap1\n      pop\n        /* \"#utility.yul\":25667:25676   */\n      dup2\n        /* \"#utility.yul\":25661:25665   */\n      dup2\n        /* \"#utility.yul\":25657:25677   */\n      sub\n        /* \"#utility.yul\":25653:25654   */\n      0x00\n        /* \"#utility.yul\":25642:25651   */\n      dup4\n        /* \"#utility.yul\":25638:25655   */\n      add\n        /* \"#utility.yul\":25631:25678   */\n      mstore\n        /* \"#utility.yul\":25695:25826   */\n      tag_522\n        /* \"#utility.yul\":25821:25825   */\n      dup2\n        /* \"#utility.yul\":25695:25826   */\n      tag_311\n      jump\t// in\n    tag_522:\n        /* \"#utility.yul\":25687:25826   */\n      swap1\n      pop\n        /* \"#utility.yul\":25414:25833   */\n      swap2\n      swap1\n      pop\n      jump\t// out\n        /* \"#utility.yul\":25839:26021   */\n    tag_312:\n        /* \"#utility.yul\":25979:26013   */\n      0x476577696e6e20777572646520626572656974732065696e67657a61686c742e\n        /* \"#utility.yul\":25975:25976   */\n      0x00\n        /* \"#utility.yul\":25967:25973   */\n      dup3\n        /* \"#utility.yul\":25963:25977   */\n      add\n        /* \"#utility.yul\":25956:26014   */\n      mstore\n        /* \"#utility.yul\":25839:26021   */\n      pop\n      jump\t// out\n        /* \"#utility.yul\":26027:26393   */\n    tag_313:\n        /* \"#utility.yul\":26169:26172   */\n      0x00\n        /* \"#utility.yul\":26190:26257   */\n      tag_525\n        /* \"#utility.yul\":26254:26256   */\n      0x20\n        /* \"#utility.yul\":26249:26252   */\n      dup4\n        /* \"#utility.yul\":26190:26257   */\n      tag_263\n      jump\t// in\n    tag_525:\n        /* \"#utility.yul\":26183:26257   */\n      swap2\n      pop\n        /* \"#utility.yul\":26266:26359   */\n      tag_526\n        /* \"#utility.yul\":26355:26358   */\n      dup3\n        /* \"#utility.yul\":26266:26359   */\n      tag_312\n      jump\t// in\n    tag_526:\n        /* \"#utility.yul\":26384:26386   */\n      0x20\n        /* \"#utility.yul\":26379:26382   */\n      dup3\n        /* \"#utility.yul\":26375:26387   */\n      add\n        /* \"#utility.yul\":26368:26387   */\n      swap1\n      pop\n        /* \"#utility.yul\":26027:26393   */\n      swap2\n      swap1\n      pop\n      jump\t// out\n        /* \"#utility.yul\":26399:26818   */\n    tag_231:\n        /* \"#utility.yul\":26565:26569   */\n      0x00\n        /* \"#utility.yul\":26603:26605   */\n      0x20\n        /* \"#utility.yul\":26592:26601   */\n      dup3\n        /* \"#utility.yul\":26588:26606   */\n      add\n        /* \"#utility.yul\":26580:26606   */\n      swap1\n      pop\n        /* \"#utility.yul\":26652:26661   */\n      dup2\n        /* \"#utility.yul\":26646:26650   */\n      dup2\n        /* \"#utility.yul\":26642:26662   */\n      sub\n        /* \"#utility.yul\":26638:26639   */\n      0x00\n        /* \"#utility.yul\":26627:26636   */\n      dup4\n        /* \"#utility.yul\":26623:26640   */\n      add\n        /* \"#utility.yul\":26616:26663   */\n      mstore\n        /* \"#utility.yul\":26680:26811   */\n      tag_528\n        /* \"#utility.yul\":26806:26810   */\n      dup2\n        /* \"#utility.yul\":26680:26811   */\n      tag_313\n      jump\t// in\n    tag_528:\n        /* \"#utility.yul\":26672:26811   */\n      swap1\n      pop\n        /* \"#utility.yul\":26399:26818   */\n      swap2\n      swap1\n      pop\n      jump\t// out\n        /* \"#utility.yul\":26824:27004   */\n    tag_314:\n        /* \"#utility.yul\":26872:26949   */\n      0x4e487b7100000000000000000000000000000000000000000000000000000000\n        /* \"#utility.yul\":26869:26870   */\n      0x00\n        /* \"#utility.yul\":26862:26950   */\n      mstore\n        /* \"#utility.yul\":26969:26973   */\n      0x12\n        /* \"#utility.yul\":26966:26967   */\n      0x04\n        /* \"#utility.yul\":26959:26974   */\n      mstore\n        /* \"#utility.yul\":26993:26997   */\n      0x24\n        /* \"#utility.yul\":26990:26991   */\n      0x00\n        /* \"#utility.yul\":26983:26998   */\n      revert\n        /* \"#utility.yul\":27010:27192   */\n    tag_233:\n        /* \"#utility.yul\":27049:27050   */\n      0x00\n        /* \"#utility.yul\":27066:27085   */\n      tag_531\n        /* \"#utility.yul\":27083:27084   */\n      dup3\n        /* \"#utility.yul\":27066:27085   */\n      tag_245\n      jump\t// in\n    tag_531:\n        /* \"#utility.yul\":27061:27085   */\n      swap2\n      pop\n        /* \"#utility.yul\":27099:27118   */\n      tag_532\n        /* \"#utility.yul\":27116:27117   */\n      dup4\n        /* \"#utility.yul\":27099:27118   */\n      tag_245\n      jump\t// in\n    tag_532:\n        /* \"#utility.yul\":27094:27118   */\n      swap3\n      pop\n        /* \"#utility.yul\":27137:27138   */\n      dup3\n        /* \"#utility.yul\":27127:27162   */\n      tag_533\n      jumpi\n        /* \"#utility.yul\":27142:27160   */\n      tag_534\n      tag_314\n      jump\t// in\n    tag_534:\n        /* \"#utility.yul\":27127:27162   */\n    tag_533:\n        /* \"#utility.yul\":27184:27185   */\n      dup3\n        /* \"#utility.yul\":27181:27182   */\n      dup3\n        /* \"#utility.yul\":27177:27186   */\n      div\n        /* \"#utility.yul\":27172:27186   */\n      swap1\n      pop\n        /* \"#utility.yul\":27010:27192   */\n      swap3\n      swap2\n      pop\n      pop\n      jump\t// out\n        /* \"#utility.yul\":27198:27506   */\n    tag_315:\n        /* \"#utility.yul\":27338:27372   */\n      0x457320676962742062657265697473204d6974737069656c65722e2041656e64\n        /* \"#utility.yul\":27334:27335   */\n      0x00\n        /* \"#utility.yul\":27326:27332   */\n      dup3\n        /* \"#utility.yul\":27322:27336   */\n      add\n        /* \"#utility.yul\":27315:27373   */\n      mstore\n        /* \"#utility.yul\":27407:27441   */\n      0x6572756e672064657220416e7a61686c20616e204d6974737069656c65726e20\n        /* \"#utility.yul\":27402:27404   */\n      0x20\n        /* \"#utility.yul\":27394:27400   */\n      dup3\n        /* \"#utility.yul\":27390:27405   */\n      add\n        /* \"#utility.yul\":27383:27442   */\n      mstore\n        /* \"#utility.yul\":27476:27498   */\n      0x6e69636874206d656872206d6f65676c6963682e000000000000000000000000\n        /* \"#utility.yul\":27471:27473   */\n      0x40\n        /* \"#utility.yul\":27463:27469   */\n      dup3\n        /* \"#utility.yul\":27459:27474   */\n      add\n        /* \"#utility.yul\":27452:27499   */\n      mstore\n        /* \"#utility.yul\":27198:27506   */\n      pop\n      jump\t// out\n        /* \"#utility.yul\":27512:27878   */\n    tag_316:\n        /* \"#utility.yul\":27654:27657   */\n      0x00\n        /* \"#utility.yul\":27675:27742   */\n      tag_537\n        /* \"#utility.yul\":27739:27741   */\n      0x54\n        /* \"#utility.yul\":27734:27737   */\n      dup4\n        /* \"#utility.yul\":27675:27742   */\n      tag_263\n      jump\t// in\n    tag_537:\n        /* \"#utility.yul\":27668:27742   */\n      swap2\n      pop\n        /* \"#utility.yul\":27751:27844   */\n      tag_538\n        /* \"#utility.yul\":27840:27843   */\n      dup3\n        /* \"#utility.yul\":27751:27844   */\n      tag_315\n      jump\t// in\n    tag_538:\n        /* \"#utility.yul\":27869:27871   */\n      0x60\n        /* \"#utility.yul\":27864:27867   */\n      dup3\n        /* \"#utility.yul\":27860:27872   */\n      add\n        /* \"#utility.yul\":27853:27872   */\n      swap1\n      pop\n        /* \"#utility.yul\":27512:27878   */\n      swap2\n      swap1\n      pop\n      jump\t// out\n        /* \"#utility.yul\":27884:28303   */\n    tag_244:\n        /* \"#utility.yul\":28050:28054   */\n      0x00\n        /* \"#utility.yul\":28088:28090   */\n      0x20\n        /* \"#utility.yul\":28077:28086   */\n      dup3\n        /* \"#utility.yul\":28073:28091   */\n      add\n        /* \"#utility.yul\":28065:28091   */\n      swap1\n      pop\n        /* \"#utility.yul\":28137:28146   */\n      dup2\n        /* \"#utility.yul\":28131:28135   */\n      dup2\n        /* \"#utility.yul\":28127:28147   */\n      sub\n        /* \"#utility.yul\":28123:28124   */\n      0x00\n        /* \"#utility.yul\":28112:28121   */\n      dup4\n        /* \"#utility.yul\":28108:28125   */\n      add\n        /* \"#utility.yul\":28101:28148   */\n      mstore\n        /* \"#utility.yul\":28165:28296   */\n      tag_540\n        /* \"#utility.yul\":28291:28295   */\n      dup2\n        /* \"#utility.yul\":28165:28296   */\n      tag_316\n      jump\t// in\n    tag_540:\n        /* \"#utility.yul\":28157:28296   */\n      swap1\n      pop\n        /* \"#utility.yul\":27884:28303   */\n      swap2\n      swap1\n      pop\n      jump\t// out\n\n    auxdata: 0xa2646970667358221220246f738224fbc1734b1e1082d45cd6ab19aa819e1e33ffb958610f4eba36202564736f6c63430008170033\n}\n","bytecode":{"linkReferences":{},"object":"60806040525f600860026101000a81548165ffffffffffff021916908365ffffffffffff1602179055505f6008806101000a81548160ff0219169083151502179055505f600860096101000a81548160ff02191690831515021790555034801562000068575f80fd5b5060405162002ecc38038062002ecc83398181016040528101906200008e919062000508565b61ffff8461ffff1610620000d9576040517f08c379a0000000000000000000000000000000000000000000000000000000008152600401620000d0906200063c565b60405180910390fd5b63ffffffff8363ffffffff161062000128576040517f08c379a00000000000000000000000000000000000000000000000000000000081526004016200011f90620006aa565b60405180910390fd5b845f806101000a81548173ffffffffffffffffffffffffffffffffffffffff021916908373ffffffffffffffffffffffffffffffffffffffff160217905550856001908162000178919062000901565b508360025f6101000a81548161ffff021916908361ffff160217905550826002806101000a81548163ffffffff021916908363ffffffff16021790555080600860096101000a81548160ff0219169083151502179055508160039081620001e0919062000901565b50670de0b6b3a764000060025f9054906101000a900461ffff1661ffff16670de0b6b3a764000060028054906101000a900463ffffffff1663ffffffff166200022a919062000a12565b62000236919062000a89565b62000242919062000a89565b600260066101000a81548163ffffffff021916908363ffffffff16021790555050505050505062000ac0565b5f604051905090565b5f80fd5b5f80fd5b5f80fd5b5f80fd5b5f601f19601f8301169050919050565b7f4e487b71000000000000000000000000000000000000000000000000000000005f52604160045260245ffd5b620002cf8262000287565b810181811067ffffffffffffffff82111715620002f157620002f062000297565b5b80604052505050565b5f620003056200026e565b9050620003138282620002c4565b919050565b5f67ffffffffffffffff82111562000335576200033462000297565b5b620003408262000287565b9050602081019050919050565b5f5b838110156200036c5780820151818401526020810190506200034f565b5f8484015250505050565b5f6200038d620003878462000318565b620002fa565b905082815260208101848484011115620003ac57620003ab62000283565b5b620003b98482856200034d565b509392505050565b5f82601f830112620003d857620003d76200027f565b5b8151620003ea84826020860162000377565b91505092915050565b5f73ffffffffffffffffffffffffffffffffffffffff82169050919050565b5f6200041e82620003f3565b9050919050565b620004308162000412565b81146200043b575f80fd5b50565b5f815190506200044e8162000425565b92915050565b5f61ffff82169050919050565b6200046c8162000454565b811462000477575f80fd5b50565b5f815190506200048a8162000461565b92915050565b5f63ffffffff82169050919050565b620004aa8162000490565b8114620004b5575f80fd5b50565b5f81519050620004c8816200049f565b92915050565b5f8115159050919050565b620004e481620004ce565b8114620004ef575f80fd5b50565b5f815190506200050281620004d9565b92915050565b5f805f805f8060c0878903121562000525576200052462000277565b5b5f87015167ffffffffffffffff8111156200054557620005446200027b565b5b6200055389828a01620003c1565b96505060206200056689828a016200043e565b95505060406200057989828a016200047a565b94505060606200058c89828a01620004b8565b935050608087015167ffffffffffffffff811115620005b057620005af6200027b565b5b620005be89828a01620003c1565b92505060a0620005d189828a01620004f2565b9150509295509295509295565b5f82825260208201905092915050565b7f4d6178696d616c203635353334204d6974737069656c65722065726c617562745f82015250565b5f62000624602083620005de565b91506200063182620005ee565b602082019050919050565b5f6020820190508181035f830152620006558162000616565b9050919050565b7f4d6178696d616c657220507265697320343239343936373239350000000000005f82015250565b5f62000692601a83620005de565b91506200069f826200065c565b602082019050919050565b5f6020820190508181035f830152620006c38162000684565b9050919050565b5f81519050919050565b7f4e487b71000000000000000000000000000000000000000000000000000000005f52602260045260245ffd5b5f60028204905060018216806200071957607f821691505b6020821081036200072f576200072e620006d4565b5b50919050565b5f819050815f5260205f209050919050565b5f6020601f8301049050919050565b5f82821b905092915050565b5f60088302620007937fffffffffffffffffffffffffffffffffffffffffffffffffffffffffffffffff8262000756565b6200079f868362000756565b95508019841693508086168417925050509392505050565b5f819050919050565b5f819050919050565b5f620007e9620007e3620007dd84620007b7565b620007c0565b620007b7565b9050919050565b5f819050919050565b6200080483620007c9565b6200081c6200081382620007f0565b84845462000762565b825550505050565b5f90565b6200083262000824565b6200083f818484620007f9565b505050565b5b8181101562000866576200085a5f8262000828565b60018101905062000845565b5050565b601f821115620008b5576200087f8162000735565b6200088a8462000747565b810160208510156200089a578190505b620008b2620008a98562000747565b83018262000844565b50505b505050565b5f82821c905092915050565b5f620008d75f1984600802620008ba565b1980831691505092915050565b5f620008f18383620008c6565b9150826002028217905092915050565b6200090c82620006ca565b67ffffffffffffffff81111562000928576200092762000297565b5b62000934825462000701565b620009418282856200086a565b5f60209050601f83116001811462000977575f841562000962578287015190505b6200096e8582620008e4565b865550620009dd565b601f198416620009878662000735565b5f5b82811015620009b05784890151825560018201915060208501945060208101905062000989565b86831015620009d05784890151620009cc601f891682620008c6565b8355505b6001600288020188555050505b505050505050565b7f4e487b71000000000000000000000000000000000000000000000000000000005f52601160045260245ffd5b5f62000a1e82620007b7565b915062000a2b83620007b7565b925082820262000a3b81620007b7565b9150828204841483151762000a555762000a54620009e5565b5b5092915050565b7f4e487b71000000000000000000000000000000000000000000000000000000005f52601260045260245ffd5b5f62000a9582620007b7565b915062000aa283620007b7565b92508262000ab55762000ab462000a5c565b5b828204905092915050565b6123fe8062000ace5f395ff3fe60806040526004361061014a575f3560e01c80638acb4624116100b5578063bb68a67f1161006e578063bb68a67f14610406578063c6ca9d1914610442578063d27d06c01461045e578063e068561a14610488578063e34ad1d7146104b0578063e86c5692146104da5761014a565b80638acb462414610320578063912432391461034a578063a299f17114610386578063ab76211e1461039c578063ad2c046c146103b2578063b08c7076146103dc5761014a565b80633babb15a116101075780633babb15a1461025a5780633f0f5d511461028457806343767832146102ae578063526024ea146102d657806370a41bc0146102e0578063833e92cb1461030a5761014a565b8063084263f51461014e5780630f085e50146101785780632340983f146101a25780632df368a5146101cc57806331c45120146101f6578063369270601461021e575b5f80fd5b348015610159575f80fd5b50610162610516565b60405161016f91906115a9565b60405180910390f35b348015610183575f80fd5b5061018c61052d565b60405161019991906115a9565b60405180910390f35b3480156101ad575f80fd5b506101b6610545565b6040516101c391906115dc565b60405180910390f35b3480156101d7575f80fd5b506101e0610556565b6040516101ed9190611613565b60405180910390f35b348015610201575f80fd5b5061021c6004803603810190610217919061165a565b61056c565b005b348015610229575f80fd5b50610244600480360381019061023f91906116df565b61063a565b60405161025191906115dc565b60405180910390f35b348015610265575f80fd5b5061026e610657565b60405161027b9190611726565b60405180910390f35b34801561028f575f80fd5b5061029861066a565b6040516102a59190611613565b60405180910390f35b3480156102b9575f80fd5b506102d460048036038101906102cf91906116df565b61067e565b005b6102de610781565b005b3480156102eb575f80fd5b506102f4610af4565b6040516103019190611726565b60405180910390f35b348015610315575f80fd5b5061031e610b07565b005b34801561032b575f80fd5b50610334610dcc565b60405161034191906117c9565b60405180910390f35b348015610355575f80fd5b50610370600480360381019061036b91906116df565b610e58565b60405161037d91906115dc565b60405180910390f35b348015610391575f80fd5b5061039a610e75565b005b3480156103a7575f80fd5b506103b061113f565b005b3480156103bd575f80fd5b506103c661125a565b6040516103d391906117f8565b60405180910390f35b3480156103e7575f80fd5b506103f061127d565b6040516103fd91906115dc565b60405180910390f35b348015610411575f80fd5b5061042c600480360381019061042791906116df565b611290565b60405161043991906115dc565b60405180910390f35b61045c6004803603810190610457919061183b565b6112ad565b005b348015610469575f80fd5b50610472611403565b60405161047f91906117c9565b60405180910390f35b348015610493575f80fd5b506104ae60048036038101906104a99190611890565b61148f565b005b3480156104bb575f80fd5b506104c4611559565b6040516104d191906115dc565b60405180910390f35b3480156104e5575f80fd5b5061050060048036038101906104fb91906116df565b61156c565b60405161050d91906115dc565b60405180910390f35b60045f9054906101000a900465ffffffffffff1681565b600860029054906101000a900465ffffffffffff1681565b60088054906101000a900460ff1681565b600260069054906101000a900463ffffffff1681565b5f8054906101000a900473ffffffffffffffffffffffffffffffffffffffff1673ffffffffffffffffffffffffffffffffffffffff163373ffffffffffffffffffffffffffffffffffffffff16146105c2575f80fd5b5f60085f9054906101000a900461ffff1661ffff1614610617576040517f08c379a000000000000000000000000000000000000000000000000000000000815260040161060e9061192b565b60405180910390fd5b806002806101000a81548163ffffffff021916908363ffffffff16021790555050565b6005602052805f5260405f205f915054906101000a900460ff1681565b60085f9054906101000a900461ffff1681565b60028054906101000a900463ffffffff1681565b5f8054906101000a900473ffffffffffffffffffffffffffffffffffffffff1673ffffffffffffffffffffffffffffffffffffffff163373ffffffffffffffffffffffffffffffffffffffff16146106d4575f80fd5b5f60085f9054906101000a900461ffff1661ffff1614610729576040517f08c379a0000000000000000000000000000000000000000000000000000000008152600401610720906119b9565b60405180910390fd5b600160095f8373ffffffffffffffffffffffffffffffffffffffff1673ffffffffffffffffffffffffffffffffffffffff1681526020019081526020015f205f6101000a81548160ff02191690831515021790555050565b5f600260069054906101000a900463ffffffff1663ffffffff16116107db576040517f08c379a00000000000000000000000000000000000000000000000000000000081526004016107d290611a21565b60405180910390fd5b600260069054906101000a900463ffffffff1663ffffffff16341015610836576040517f08c379a000000000000000000000000000000000000000000000000000000000815260040161082d90611a89565b60405180910390fd5b60055f3373ffffffffffffffffffffffffffffffffffffffff1673ffffffffffffffffffffffffffffffffffffffff1681526020019081526020015f205f9054906101000a900460ff16156108c0576040517f08c379a00000000000000000000000000000000000000000000000000000000081526004016108b790611b17565b60405180910390fd5b60025f9054906101000a900461ffff1661ffff1660085f9054906101000a900461ffff1661ffff1610610928576040517f08c379a000000000000000000000000000000000000000000000000000000000815260040161091f90611b7f565b60405180910390fd5b5f600860029054906101000a900465ffffffffffff1665ffffffffffff1614610986576040517f08c379a000000000000000000000000000000000000000000000000000000000815260040161097d90611be7565b60405180910390fd5b600860099054906101000a900460ff16156109ee5760095f3373ffffffffffffffffffffffffffffffffffffffff1673ffffffffffffffffffffffffffffffffffffffff1681526020019081526020015f205f9054906101000a900460ff166109ed575f80fd5b5b5f600260069054906101000a900463ffffffff1663ffffffff1634610a139190611c3b565b9050600160055f3373ffffffffffffffffffffffffffffffffffffffff1673ffffffffffffffffffffffffffffffffffffffff1681526020019081526020015f205f6101000a81548160ff02191690831515021790555060085f81819054906101000a900461ffff1680929190610a8990611c6e565b91906101000a81548161ffff021916908361ffff160217905550505f811115610af1573373ffffffffffffffffffffffffffffffffffffffff166108fc8290811502906040515f60405180830381858888f19350505050158015610aef573d5f803e3d5ffd5b505b50565b60025f9054906101000a900461ffff1681565b60055f3373ffffffffffffffffffffffffffffffffffffffff1673ffffffffffffffffffffffffffffffffffffffff1681526020019081526020015f205f9054906101000a900460ff16610b59575f80fd5b600a5f9054906101000a900460ff1615610ba8576040517f08c379a0000000000000000000000000000000000000000000000000000000008152600401610b9f90611ce1565b60405180910390fd5b6001600a5f6101000a81548160ff02191690831515021790555060088054906101000a900460ff16610c0f576040517f08c379a0000000000000000000000000000000000000000000000000000000008152600401610c0690611d6f565b60405180910390fd5b5f600860029054906101000a900465ffffffffffff1665ffffffffffff1611610c6d576040517f08c379a0000000000000000000000000000000000000000000000000000000008152600401610c6490611dfd565b60405180910390fd5b60065f3373ffffffffffffffffffffffffffffffffffffffff1673ffffffffffffffffffffffffffffffffffffffff1681526020019081526020015f205f9054906101000a900460ff1615610cf7576040517f08c379a0000000000000000000000000000000000000000000000000000000008152600401610cee90611e65565b60405180910390fd5b600160065f3373ffffffffffffffffffffffffffffffffffffffff1673ffffffffffffffffffffffffffffffffffffffff1681526020019081526020015f205f6101000a81548160ff0219169083151502179055505f600860029054906101000a900465ffffffffffff1665ffffffffffff1690503373ffffffffffffffffffffffffffffffffffffffff166108fc8290811502906040515f60405180830381858888f19350505050158015610daf573d5f803e3d5ffd5b50505f600a5f6101000a81548160ff021916908315150217905550565b60038054610dd990611eb0565b80601f0160208091040260200160405190810160405280929190818152602001828054610e0590611eb0565b8015610e505780601f10610e2757610100808354040283529160200191610e50565b820191905f5260205f20905b815481529060010190602001808311610e3357829003601f168201915b505050505081565b6006602052805f5260405f205f915054906101000a900460ff1681565b60055f3373ffffffffffffffffffffffffffffffffffffffff1673ffffffffffffffffffffffffffffffffffffffff1681526020019081526020015f205f9054906101000a900460ff16610ec7575f80fd5b600a5f9054906101000a900460ff1615610f16576040517f08c379a0000000000000000000000000000000000000000000000000000000008152600401610f0d90611ce1565b60405180910390fd5b6001600a5f6101000a81548160ff021916908315150217905550600a60019054906101000a900460ff16610f7f576040517f08c379a0000000000000000000000000000000000000000000000000000000008152600401610f7690611f50565b60405180910390fd5b60075f3373ffffffffffffffffffffffffffffffffffffffff1673ffffffffffffffffffffffffffffffffffffffff1681526020019081526020015f205f9054906101000a900460ff1615611009576040517f08c379a000000000000000000000000000000000000000000000000000000000815260040161100090611fde565b60405180910390fd5b600160075f3373ffffffffffffffffffffffffffffffffffffffff1673ffffffffffffffffffffffffffffffffffffffff1681526020019081526020015f205f6101000a81548160ff0219169083151502179055505f600260069054906101000a900463ffffffff1663ffffffff1690505f3373ffffffffffffffffffffffffffffffffffffffff168260405161109f90612029565b5f6040518083038185875af1925050503d805f81146110d9576040519150601f19603f3d011682016040523d82523d5f602084013e6110de565b606091505b5050905080611122576040517f08c379a0000000000000000000000000000000000000000000000000000000008152600401611119906120ad565b60405180910390fd5b50505f600a5f6101000a81548160ff021916908315150217905550565b5f8054906101000a900473ffffffffffffffffffffffffffffffffffffffff1673ffffffffffffffffffffffffffffffffffffffff163373ffffffffffffffffffffffffffffffffffffffff1614611195575f80fd5b5f151560088054906101000a900460ff161515146111e8576040517f08c379a00000000000000000000000000000000000000000000000000000000081526004016111df9061213b565b60405180910390fd5b5f1515600a60019054906101000a900460ff1615151461123d576040517f08c379a0000000000000000000000000000000000000000000000000000000008152600401611234906121a3565b60405180910390fd5b6001600a60016101000a81548160ff021916908315150217905550565b5f8054906101000a900473ffffffffffffffffffffffffffffffffffffffff1681565b600860099054906101000a900460ff1681565b6007602052805f5260405f205f915054906101000a900460ff1681565b5f8054906101000a900473ffffffffffffffffffffffffffffffffffffffff1673ffffffffffffffffffffffffffffffffffffffff163373ffffffffffffffffffffffffffffffffffffffff1614611303575f80fd5b5f3411611345576040517f08c379a000000000000000000000000000000000000000000000000000000000815260040161133c90612231565b60405180910390fd5b5f600860029054906101000a900465ffffffffffff1665ffffffffffff16146113a3576040517f08c379a000000000000000000000000000000000000000000000000000000000815260040161139a90612299565b60405180910390fd5b60085f9054906101000a900461ffff1661ffff16816113c291906122e4565b600860026101000a81548165ffffffffffff021916908365ffffffffffff16021790555060016008806101000a81548160ff02191690831515021790555050565b6001805461141090611eb0565b80601f016020809104026020016040519081016040528092919081815260200182805461143c90611eb0565b80156114875780601f1061145e57610100808354040283529160200191611487565b820191905f5260205f20905b81548152906001019060200180831161146a57829003601f168201915b505050505081565b5f8054906101000a900473ffffffffffffffffffffffffffffffffffffffff1673ffffffffffffffffffffffffffffffffffffffff163373ffffffffffffffffffffffffffffffffffffffff16146114e5575f80fd5b5f60085f9054906101000a900461ffff1661ffff161461153a576040517f08c379a0000000000000000000000000000000000000000000000000000000008152600401611531906123aa565b60405180910390fd5b8060025f6101000a81548161ffff021916908361ffff16021790555050565b600a60019054906101000a900460ff1681565b6009602052805f5260405f205f915054906101000a900460ff1681565b5f65ffffffffffff82169050919050565b6115a381611589565b82525050565b5f6020820190506115bc5f83018461159a565b92915050565b5f8115159050919050565b6115d6816115c2565b82525050565b5f6020820190506115ef5f8301846115cd565b92915050565b5f63ffffffff82169050919050565b61160d816115f5565b82525050565b5f6020820190506116265f830184611604565b92915050565b5f80fd5b611639816115f5565b8114611643575f80fd5b50565b5f8135905061165481611630565b92915050565b5f6020828403121561166f5761166e61162c565b5b5f61167c84828501611646565b91505092915050565b5f73ffffffffffffffffffffffffffffffffffffffff82169050919050565b5f6116ae82611685565b9050919050565b6116be816116a4565b81146116c8575f80fd5b50565b5f813590506116d9816116b5565b92915050565b5f602082840312156116f4576116f361162c565b5b5f611701848285016116cb565b91505092915050565b5f61ffff82169050919050565b6117208161170a565b82525050565b5f6020820190506117395f830184611717565b92915050565b5f81519050919050565b5f82825260208201905092915050565b5f5b8381101561177657808201518184015260208101905061175b565b5f8484015250505050565b5f601f19601f8301169050919050565b5f61179b8261173f565b6117a58185611749565b93506117b5818560208601611759565b6117be81611781565b840191505092915050565b5f6020820190508181035f8301526117e18184611791565b905092915050565b6117f2816116a4565b82525050565b5f60208201905061180b5f8301846117e9565b92915050565b61181a81611589565b8114611824575f80fd5b50565b5f8135905061183581611811565b92915050565b5f602082840312156118505761184f61162c565b5b5f61185d84828501611827565b91505092915050565b61186f8161170a565b8114611879575f80fd5b50565b5f8135905061188a81611866565b92915050565b5f602082840312156118a5576118a461162c565b5b5f6118b28482850161187c565b91505092915050565b7f457320676962742062657265697473204d6974737069656c65722e20507265695f8201527f7361656e646572756e67206e69636874206d656872206d6f65676c6963682e00602082015250565b5f611915603f83611749565b9150611920826118bb565b604082019050919050565b5f6020820190508181035f83015261194281611909565b9050919050565b7f457320676962742062657265697473204d6974737069656c65722e2041656e645f8201527f6572756e67206e69636874206d656872206d6f65676c6963682e000000000000602082015250565b5f6119a3603a83611749565b91506119ae82611949565b604082019050919050565b5f6020820190508181035f8301526119d081611997565b9050919050565b7f4b65696e2050726569732070726f204d6974737069656c6572000000000000005f82015250565b5f611a0b601983611749565b9150611a16826119d7565b602082019050919050565b5f6020820190508181035f830152611a38816119ff565b9050919050565b7f5a7520676572696e6765722045696e7a61686c756e67736265747261670000005f82015250565b5f611a73601d83611749565b9150611a7e82611a3f565b602082019050919050565b5f6020820190508181035f830152611aa081611a67565b9050919050565b7f4265726569747320616c73204d6974737069656c6572207265676973747269655f8201527f7274000000000000000000000000000000000000000000000000000000000000602082015250565b5f611b01602283611749565b9150611b0c82611aa7565b604082019050919050565b5f6020820190508181035f830152611b2e81611af5565b9050919050565b7f4d6178696d616c65205465696c6e65686d65727a61686c2065727265696368745f82015250565b5f611b69602083611749565b9150611b7482611b35565b602082019050919050565b5f6020820190508181035f830152611b9681611b5d565b9050919050565b7f476577696e6e20777572646520626572656974732065696e67657a61686c74005f82015250565b5f611bd1601f83611749565b9150611bdc82611b9d565b602082019050919050565b5f6020820190508181035f830152611bfe81611bc5565b9050919050565b5f819050919050565b7f4e487b71000000000000000000000000000000000000000000000000000000005f52601160045260245ffd5b5f611c4582611c05565b9150611c5083611c05565b9250828203905081811115611c6857611c67611c0e565b5b92915050565b5f611c788261170a565b915061ffff8203611c8c57611c8b611c0e565b5b600182019050919050565b7f4e6f2072652d656e7472616e63790000000000000000000000000000000000005f82015250565b5f611ccb600e83611749565b9150611cd682611c97565b602082019050919050565b5f6020820190508181035f830152611cf881611cbf565b9050919050565b7f476577696e6e206b616e6e206e6f6368206e696368742061626765686f6c74205f8201527f77657264656e2e00000000000000000000000000000000000000000000000000602082015250565b5f611d59602783611749565b9150611d6482611cff565b604082019050919050565b5f6020820190508181035f830152611d8681611d4d565b9050919050565b7f4b65696e20476577696e6e207a7572204175737a61686c756e672076657266755f8201527f65676261722e0000000000000000000000000000000000000000000000000000602082015250565b5f611de7602683611749565b9150611df282611d8d565b604082019050919050565b5f6020820190508181035f830152611e1481611ddb565b9050919050565b7f476577696e6e20777572646520626572656974732061626765686f6c742e00005f82015250565b5f611e4f601e83611749565b9150611e5a82611e1b565b602082019050919050565b5f6020820190508181035f830152611e7c81611e43565b9050919050565b7f4e487b71000000000000000000000000000000000000000000000000000000005f52602260045260245ffd5b5f6002820490506001821680611ec757607f821691505b602082108103611eda57611ed9611e83565b5b50919050565b7f47656d65696e736368616674206d7573732061756667656c6f657374207365695f8201527f6e2e000000000000000000000000000000000000000000000000000000000000602082015250565b5f611f3a602283611749565b9150611f4582611ee0565b604082019050919050565b5f6020820190508181035f830152611f6781611f2e565b9050919050565b7f45696e7361747a2077757264652062657265697473207a75727565636b67657a5f8201527f61686c742e000000000000000000000000000000000000000000000000000000602082015250565b5f611fc8602583611749565b9150611fd382611f6e565b604082019050919050565b5f6020820190508181035f830152611ff581611fbc565b9050919050565b5f81905092915050565b50565b5f6120145f83611ffc565b915061201f82612006565b5f82019050919050565b5f61203382612009565b9150819050919050565b7f527565636b7a61686c756e67206465732045696e7361747a6573206665686c675f8201527f657363686c6167656e2e00000000000000000000000000000000000000000000602082015250565b5f612097602a83611749565b91506120a28261203d565b604082019050919050565b5f6020820190508181035f8301526120c48161208b565b9050919050565b7f476577696e6e206d757373206e6f63682061757367657a61686c7420776572645f8201527f656e000000000000000000000000000000000000000000000000000000000000602082015250565b5f612125602283611749565b9150612130826120cb565b604082019050919050565b5f6020820190508181035f83015261215281612119565b9050919050565b7f47656d65696e73636861667420626572656974732061756667656c6f657374005f82015250565b5f61218d601f83611749565b915061219882612159565b602082019050919050565b5f6020820190508181035f8301526121ba81612181565b9050919050565b7f45696e7a61686c756e6773626574726167206d7573732067726f6573736572205f8201527f616c732030207365696e00000000000000000000000000000000000000000000602082015250565b5f61221b602a83611749565b9150612226826121c1565b604082019050919050565b5f6020820190508181035f8301526122488161220f565b9050919050565b7f476577696e6e20777572646520626572656974732065696e67657a61686c742e5f82015250565b5f612283602083611749565b915061228e8261224f565b602082019050919050565b5f6020820190508181035f8301526122b081612277565b9050919050565b7f4e487b71000000000000000000000000000000000000000000000000000000005f52601260045260245ffd5b5f6122ee82611589565b91506122f983611589565b925082612309576123086122b7565b5b828204905092915050565b7f457320676962742062657265697473204d6974737069656c65722e2041656e645f8201527f6572756e672064657220416e7a61686c20616e204d6974737069656c65726e2060208201527f6e69636874206d656872206d6f65676c6963682e000000000000000000000000604082015250565b5f612394605483611749565b915061239f82612314565b606082019050919050565b5f6020820190508181035f8301526123c181612388565b905091905056fea2646970667358221220246f738224fbc1734b1e1082d45cd6ab19aa819e1e33ffb958610f4eba36202564736f6c63430008170033","opcodes":"PUSH1 0x80 PUSH1 0x40 MSTORE PUSH0 PUSH1 0x8 PUSH1 0x2 PUSH2 0x100 EXP DUP2 SLOAD DUP2 PUSH6 0xFFFFFFFFFFFF MUL NOT AND SWAP1 DUP4 PUSH6 0xFFFFFFFFFFFF AND MUL OR SWAP1 SSTORE POP PUSH0 PUSH1 0x8 DUP1 PUSH2 0x100 EXP DUP2 SLOAD DUP2 PUSH1 0xFF MUL NOT AND SWAP1 DUP4 ISZERO ISZERO MUL OR SWAP1 SSTORE POP PUSH0 PUSH1 0x8 PUSH1 0x9 PUSH2 0x100 EXP DUP2 SLOAD DUP2 PUSH1 0xFF MUL NOT AND SWAP1 DUP4 ISZERO ISZERO MUL OR SWAP1 SSTORE POP CALLVALUE DUP1 ISZERO PUSH3 0x68 JUMPI PUSH0 DUP1 REVERT JUMPDEST POP PUSH1 0x40 MLOAD PUSH3 0x2ECC CODESIZE SUB DUP1 PUSH3 0x2ECC DUP4 CODECOPY DUP2 DUP2 ADD PUSH1 0x40 MSTORE DUP2 ADD SWAP1 PUSH3 0x8E SWAP2 SWAP1 PUSH3 0x508 JUMP JUMPDEST PUSH2 0xFFFF DUP5 PUSH2 0xFFFF AND LT PUSH3 0xD9 JUMPI PUSH1 0x40 MLOAD PUSH32 0x8C379A000000000000000000000000000000000000000000000000000000000 DUP2 MSTORE PUSH1 0x4 ADD PUSH3 0xD0 SWAP1 PUSH3 0x63C JUMP JUMPDEST PUSH1 0x40 MLOAD DUP1 SWAP2 SUB SWAP1 REVERT JUMPDEST PUSH4 0xFFFFFFFF DUP4 PUSH4 0xFFFFFFFF AND LT PUSH3 0x128 JUMPI PUSH1 0x40 MLOAD PUSH32 0x8C379A000000000000000000000000000000000000000000000000000000000 DUP2 MSTORE PUSH1 0x4 ADD PUSH3 0x11F SWAP1 PUSH3 0x6AA JUMP JUMPDEST PUSH1 0x40 MLOAD DUP1 SWAP2 SUB SWAP1 REVERT JUMPDEST DUP5 PUSH0 DUP1 PUSH2 0x100 EXP DUP2 SLOAD DUP2 PUSH20 0xFFFFFFFFFFFFFFFFFFFFFFFFFFFFFFFFFFFFFFFF MUL NOT AND SWAP1 DUP4 PUSH20 0xFFFFFFFFFFFFFFFFFFFFFFFFFFFFFFFFFFFFFFFF AND MUL OR SWAP1 SSTORE POP DUP6 PUSH1 0x1 SWAP1 DUP2 PUSH3 0x178 SWAP2 SWAP1 PUSH3 0x901 JUMP JUMPDEST POP DUP4 PUSH1 0x2 PUSH0 PUSH2 0x100 EXP DUP2 SLOAD DUP2 PUSH2 0xFFFF MUL NOT AND SWAP1 DUP4 PUSH2 0xFFFF AND MUL OR SWAP1 SSTORE POP DUP3 PUSH1 0x2 DUP1 PUSH2 0x100 EXP DUP2 SLOAD DUP2 PUSH4 0xFFFFFFFF MUL NOT AND SWAP1 DUP4 PUSH4 0xFFFFFFFF AND MUL OR SWAP1 SSTORE POP DUP1 PUSH1 0x8 PUSH1 0x9 PUSH2 0x100 EXP DUP2 SLOAD DUP2 PUSH1 0xFF MUL NOT AND SWAP1 DUP4 ISZERO ISZERO MUL OR SWAP1 SSTORE POP DUP2 PUSH1 0x3 SWAP1 DUP2 PUSH3 0x1E0 SWAP2 SWAP1 PUSH3 0x901 JUMP JUMPDEST POP PUSH8 0xDE0B6B3A7640000 PUSH1 0x2 PUSH0 SWAP1 SLOAD SWAP1 PUSH2 0x100 EXP SWAP1 DIV PUSH2 0xFFFF AND PUSH2 0xFFFF AND PUSH8 0xDE0B6B3A7640000 PUSH1 0x2 DUP1 SLOAD SWAP1 PUSH2 0x100 EXP SWAP1 DIV PUSH4 0xFFFFFFFF AND PUSH4 0xFFFFFFFF AND PUSH3 0x22A SWAP2 SWAP1 PUSH3 0xA12 JUMP JUMPDEST PUSH3 0x236 SWAP2 SWAP1 PUSH3 0xA89 JUMP JUMPDEST PUSH3 0x242 SWAP2 SWAP1 PUSH3 0xA89 JUMP JUMPDEST PUSH1 0x2 PUSH1 0x6 PUSH2 0x100 EXP DUP2 SLOAD DUP2 PUSH4 0xFFFFFFFF MUL NOT AND SWAP1 DUP4 PUSH4 0xFFFFFFFF AND MUL OR SWAP1 SSTORE POP POP POP POP POP POP POP PUSH3 0xAC0 JUMP JUMPDEST PUSH0 PUSH1 0x40 MLOAD SWAP1 POP SWAP1 JUMP JUMPDEST PUSH0 DUP1 REVERT JUMPDEST PUSH0 DUP1 REVERT JUMPDEST PUSH0 DUP1 REVERT JUMPDEST PUSH0 DUP1 REVERT JUMPDEST PUSH0 PUSH1 0x1F NOT PUSH1 0x1F DUP4 ADD AND SWAP1 POP SWAP2 SWAP1 POP JUMP JUMPDEST PUSH32 0x4E487B7100000000000000000000000000000000000000000000000000000000 PUSH0 MSTORE PUSH1 0x41 PUSH1 0x4 MSTORE PUSH1 0x24 PUSH0 REVERT JUMPDEST PUSH3 0x2CF DUP3 PUSH3 0x287 JUMP JUMPDEST DUP2 ADD DUP2 DUP2 LT PUSH8 0xFFFFFFFFFFFFFFFF DUP3 GT OR ISZERO PUSH3 0x2F1 JUMPI PUSH3 0x2F0 PUSH3 0x297 JUMP JUMPDEST JUMPDEST DUP1 PUSH1 0x40 MSTORE POP POP POP JUMP JUMPDEST PUSH0 PUSH3 0x305 PUSH3 0x26E JUMP JUMPDEST SWAP1 POP PUSH3 0x313 DUP3 DUP3 PUSH3 0x2C4 JUMP JUMPDEST SWAP2 SWAP1 POP JUMP JUMPDEST PUSH0 PUSH8 0xFFFFFFFFFFFFFFFF DUP3 GT ISZERO PUSH3 0x335 JUMPI PUSH3 0x334 PUSH3 0x297 JUMP JUMPDEST JUMPDEST PUSH3 0x340 DUP3 PUSH3 0x287 JUMP JUMPDEST SWAP1 POP PUSH1 0x20 DUP2 ADD SWAP1 POP SWAP2 SWAP1 POP JUMP JUMPDEST PUSH0 JUMPDEST DUP4 DUP2 LT ISZERO PUSH3 0x36C JUMPI DUP1 DUP3 ADD MLOAD DUP2 DUP5 ADD MSTORE PUSH1 0x20 DUP2 ADD SWAP1 POP PUSH3 0x34F JUMP JUMPDEST PUSH0 DUP5 DUP5 ADD MSTORE POP POP POP POP JUMP JUMPDEST PUSH0 PUSH3 0x38D PUSH3 0x387 DUP5 PUSH3 0x318 JUMP JUMPDEST PUSH3 0x2FA JUMP JUMPDEST SWAP1 POP DUP3 DUP2 MSTORE PUSH1 0x20 DUP2 ADD DUP5 DUP5 DUP5 ADD GT ISZERO PUSH3 0x3AC JUMPI PUSH3 0x3AB PUSH3 0x283 JUMP JUMPDEST JUMPDEST PUSH3 0x3B9 DUP5 DUP3 DUP6 PUSH3 0x34D JUMP JUMPDEST POP SWAP4 SWAP3 POP POP POP JUMP JUMPDEST PUSH0 DUP3 PUSH1 0x1F DUP4 ADD SLT PUSH3 0x3D8 JUMPI PUSH3 0x3D7 PUSH3 0x27F JUMP JUMPDEST JUMPDEST DUP2 MLOAD PUSH3 0x3EA DUP5 DUP3 PUSH1 0x20 DUP7 ADD PUSH3 0x377 JUMP JUMPDEST SWAP2 POP POP SWAP3 SWAP2 POP POP JUMP JUMPDEST PUSH0 PUSH20 0xFFFFFFFFFFFFFFFFFFFFFFFFFFFFFFFFFFFFFFFF DUP3 AND SWAP1 POP SWAP2 SWAP1 POP JUMP JUMPDEST PUSH0 PUSH3 0x41E DUP3 PUSH3 0x3F3 JUMP JUMPDEST SWAP1 POP SWAP2 SWAP1 POP JUMP JUMPDEST PUSH3 0x430 DUP2 PUSH3 0x412 JUMP JUMPDEST DUP2 EQ PUSH3 0x43B JUMPI PUSH0 DUP1 REVERT JUMPDEST POP JUMP JUMPDEST PUSH0 DUP2 MLOAD SWAP1 POP PUSH3 0x44E DUP2 PUSH3 0x425 JUMP JUMPDEST SWAP3 SWAP2 POP POP JUMP JUMPDEST PUSH0 PUSH2 0xFFFF DUP3 AND SWAP1 POP SWAP2 SWAP1 POP JUMP JUMPDEST PUSH3 0x46C DUP2 PUSH3 0x454 JUMP JUMPDEST DUP2 EQ PUSH3 0x477 JUMPI PUSH0 DUP1 REVERT JUMPDEST POP JUMP JUMPDEST PUSH0 DUP2 MLOAD SWAP1 POP PUSH3 0x48A DUP2 PUSH3 0x461 JUMP JUMPDEST SWAP3 SWAP2 POP POP JUMP JUMPDEST PUSH0 PUSH4 0xFFFFFFFF DUP3 AND SWAP1 POP SWAP2 SWAP1 POP JUMP JUMPDEST PUSH3 0x4AA DUP2 PUSH3 0x490 JUMP JUMPDEST DUP2 EQ PUSH3 0x4B5 JUMPI PUSH0 DUP1 REVERT JUMPDEST POP JUMP JUMPDEST PUSH0 DUP2 MLOAD SWAP1 POP PUSH3 0x4C8 DUP2 PUSH3 0x49F JUMP JUMPDEST SWAP3 SWAP2 POP POP JUMP JUMPDEST PUSH0 DUP2 ISZERO ISZERO SWAP1 POP SWAP2 SWAP1 POP JUMP JUMPDEST PUSH3 0x4E4 DUP2 PUSH3 0x4CE JUMP JUMPDEST DUP2 EQ PUSH3 0x4EF JUMPI PUSH0 DUP1 REVERT JUMPDEST POP JUMP JUMPDEST PUSH0 DUP2 MLOAD SWAP1 POP PUSH3 0x502 DUP2 PUSH3 0x4D9 JUMP JUMPDEST SWAP3 SWAP2 POP POP JUMP JUMPDEST PUSH0 DUP1 PUSH0 DUP1 PUSH0 DUP1 PUSH1 0xC0 DUP8 DUP10 SUB SLT ISZERO PUSH3 0x525 JUMPI PUSH3 0x524 PUSH3 0x277 JUMP JUMPDEST JUMPDEST PUSH0 DUP8 ADD MLOAD PUSH8 0xFFFFFFFFFFFFFFFF DUP2 GT ISZERO PUSH3 0x545 JUMPI PUSH3 0x544 PUSH3 0x27B JUMP JUMPDEST JUMPDEST PUSH3 0x553 DUP10 DUP3 DUP11 ADD PUSH3 0x3C1 JUMP JUMPDEST SWAP7 POP POP PUSH1 0x20 PUSH3 0x566 DUP10 DUP3 DUP11 ADD PUSH3 0x43E JUMP JUMPDEST SWAP6 POP POP PUSH1 0x40 PUSH3 0x579 DUP10 DUP3 DUP11 ADD PUSH3 0x47A JUMP JUMPDEST SWAP5 POP POP PUSH1 0x60 PUSH3 0x58C DUP10 DUP3 DUP11 ADD PUSH3 0x4B8 JUMP JUMPDEST SWAP4 POP POP PUSH1 0x80 DUP8 ADD MLOAD PUSH8 0xFFFFFFFFFFFFFFFF DUP2 GT ISZERO PUSH3 0x5B0 JUMPI PUSH3 0x5AF PUSH3 0x27B JUMP JUMPDEST JUMPDEST PUSH3 0x5BE DUP10 DUP3 DUP11 ADD PUSH3 0x3C1 JUMP JUMPDEST SWAP3 POP POP PUSH1 0xA0 PUSH3 0x5D1 DUP10 DUP3 DUP11 ADD PUSH3 0x4F2 JUMP JUMPDEST SWAP2 POP POP SWAP3 SWAP6 POP SWAP3 SWAP6 POP SWAP3 SWAP6 JUMP JUMPDEST PUSH0 DUP3 DUP3 MSTORE PUSH1 0x20 DUP3 ADD SWAP1 POP SWAP3 SWAP2 POP POP JUMP JUMPDEST PUSH32 0x4D6178696D616C203635353334204D6974737069656C65722065726C61756274 PUSH0 DUP3 ADD MSTORE POP JUMP JUMPDEST PUSH0 PUSH3 0x624 PUSH1 0x20 DUP4 PUSH3 0x5DE JUMP JUMPDEST SWAP2 POP PUSH3 0x631 DUP3 PUSH3 0x5EE JUMP JUMPDEST PUSH1 0x20 DUP3 ADD SWAP1 POP SWAP2 SWAP1 POP JUMP JUMPDEST PUSH0 PUSH1 0x20 DUP3 ADD SWAP1 POP DUP2 DUP2 SUB PUSH0 DUP4 ADD MSTORE PUSH3 0x655 DUP2 PUSH3 0x616 JUMP JUMPDEST SWAP1 POP SWAP2 SWAP1 POP JUMP JUMPDEST PUSH32 0x4D6178696D616C65722050726569732034323934393637323935000000000000 PUSH0 DUP3 ADD MSTORE POP JUMP JUMPDEST PUSH0 PUSH3 0x692 PUSH1 0x1A DUP4 PUSH3 0x5DE JUMP JUMPDEST SWAP2 POP PUSH3 0x69F DUP3 PUSH3 0x65C JUMP JUMPDEST PUSH1 0x20 DUP3 ADD SWAP1 POP SWAP2 SWAP1 POP JUMP JUMPDEST PUSH0 PUSH1 0x20 DUP3 ADD SWAP1 POP DUP2 DUP2 SUB PUSH0 DUP4 ADD MSTORE PUSH3 0x6C3 DUP2 PUSH3 0x684 JUMP JUMPDEST SWAP1 POP SWAP2 SWAP1 POP JUMP JUMPDEST PUSH0 DUP2 MLOAD SWAP1 POP SWAP2 SWAP1 POP JUMP JUMPDEST PUSH32 0x4E487B7100000000000000000000000000000000000000000000000000000000 PUSH0 MSTORE PUSH1 0x22 PUSH1 0x4 MSTORE PUSH1 0x24 PUSH0 REVERT JUMPDEST PUSH0 PUSH1 0x2 DUP3 DIV SWAP1 POP PUSH1 0x1 DUP3 AND DUP1 PUSH3 0x719 JUMPI PUSH1 0x7F DUP3 AND SWAP2 POP JUMPDEST PUSH1 0x20 DUP3 LT DUP2 SUB PUSH3 0x72F JUMPI PUSH3 0x72E PUSH3 0x6D4 JUMP JUMPDEST JUMPDEST POP SWAP2 SWAP1 POP JUMP JUMPDEST PUSH0 DUP2 SWAP1 POP DUP2 PUSH0 MSTORE PUSH1 0x20 PUSH0 KECCAK256 SWAP1 POP SWAP2 SWAP1 POP JUMP JUMPDEST PUSH0 PUSH1 0x20 PUSH1 0x1F DUP4 ADD DIV SWAP1 POP SWAP2 SWAP1 POP JUMP JUMPDEST PUSH0 DUP3 DUP3 SHL SWAP1 POP SWAP3 SWAP2 POP POP JUMP JUMPDEST PUSH0 PUSH1 0x8 DUP4 MUL PUSH3 0x793 PUSH32 0xFFFFFFFFFFFFFFFFFFFFFFFFFFFFFFFFFFFFFFFFFFFFFFFFFFFFFFFFFFFFFFFF DUP3 PUSH3 0x756 JUMP JUMPDEST PUSH3 0x79F DUP7 DUP4 PUSH3 0x756 JUMP JUMPDEST SWAP6 POP DUP1 NOT DUP5 AND SWAP4 POP DUP1 DUP7 AND DUP5 OR SWAP3 POP POP POP SWAP4 SWAP3 POP POP POP JUMP JUMPDEST PUSH0 DUP2 SWAP1 POP SWAP2 SWAP1 POP JUMP JUMPDEST PUSH0 DUP2 SWAP1 POP SWAP2 SWAP1 POP JUMP JUMPDEST PUSH0 PUSH3 0x7E9 PUSH3 0x7E3 PUSH3 0x7DD DUP5 PUSH3 0x7B7 JUMP JUMPDEST PUSH3 0x7C0 JUMP JUMPDEST PUSH3 0x7B7 JUMP JUMPDEST SWAP1 POP SWAP2 SWAP1 POP JUMP JUMPDEST PUSH0 DUP2 SWAP1 POP SWAP2 SWAP1 POP JUMP JUMPDEST PUSH3 0x804 DUP4 PUSH3 0x7C9 JUMP JUMPDEST PUSH3 0x81C PUSH3 0x813 DUP3 PUSH3 0x7F0 JUMP JUMPDEST DUP5 DUP5 SLOAD PUSH3 0x762 JUMP JUMPDEST DUP3 SSTORE POP POP POP POP JUMP JUMPDEST PUSH0 SWAP1 JUMP JUMPDEST PUSH3 0x832 PUSH3 0x824 JUMP JUMPDEST PUSH3 0x83F DUP2 DUP5 DUP5 PUSH3 0x7F9 JUMP JUMPDEST POP POP POP JUMP JUMPDEST JUMPDEST DUP2 DUP2 LT ISZERO PUSH3 0x866 JUMPI PUSH3 0x85A PUSH0 DUP3 PUSH3 0x828 JUMP JUMPDEST PUSH1 0x1 DUP2 ADD SWAP1 POP PUSH3 0x845 JUMP JUMPDEST POP POP JUMP JUMPDEST PUSH1 0x1F DUP3 GT ISZERO PUSH3 0x8B5 JUMPI PUSH3 0x87F DUP2 PUSH3 0x735 JUMP JUMPDEST PUSH3 0x88A DUP5 PUSH3 0x747 JUMP JUMPDEST DUP2 ADD PUSH1 0x20 DUP6 LT ISZERO PUSH3 0x89A JUMPI DUP2 SWAP1 POP JUMPDEST PUSH3 0x8B2 PUSH3 0x8A9 DUP6 PUSH3 0x747 JUMP JUMPDEST DUP4 ADD DUP3 PUSH3 0x844 JUMP JUMPDEST POP POP JUMPDEST POP POP POP JUMP JUMPDEST PUSH0 DUP3 DUP3 SHR SWAP1 POP SWAP3 SWAP2 POP POP JUMP JUMPDEST PUSH0 PUSH3 0x8D7 PUSH0 NOT DUP5 PUSH1 0x8 MUL PUSH3 0x8BA JUMP JUMPDEST NOT DUP1 DUP4 AND SWAP2 POP POP SWAP3 SWAP2 POP POP JUMP JUMPDEST PUSH0 PUSH3 0x8F1 DUP4 DUP4 PUSH3 0x8C6 JUMP JUMPDEST SWAP2 POP DUP3 PUSH1 0x2 MUL DUP3 OR SWAP1 POP SWAP3 SWAP2 POP POP JUMP JUMPDEST PUSH3 0x90C DUP3 PUSH3 0x6CA JUMP JUMPDEST PUSH8 0xFFFFFFFFFFFFFFFF DUP2 GT ISZERO PUSH3 0x928 JUMPI PUSH3 0x927 PUSH3 0x297 JUMP JUMPDEST JUMPDEST PUSH3 0x934 DUP3 SLOAD PUSH3 0x701 JUMP JUMPDEST PUSH3 0x941 DUP3 DUP3 DUP6 PUSH3 0x86A JUMP JUMPDEST PUSH0 PUSH1 0x20 SWAP1 POP PUSH1 0x1F DUP4 GT PUSH1 0x1 DUP2 EQ PUSH3 0x977 JUMPI PUSH0 DUP5 ISZERO PUSH3 0x962 JUMPI DUP3 DUP8 ADD MLOAD SWAP1 POP JUMPDEST PUSH3 0x96E DUP6 DUP3 PUSH3 0x8E4 JUMP JUMPDEST DUP7 SSTORE POP PUSH3 0x9DD JUMP JUMPDEST PUSH1 0x1F NOT DUP5 AND PUSH3 0x987 DUP7 PUSH3 0x735 JUMP JUMPDEST PUSH0 JUMPDEST DUP3 DUP2 LT ISZERO PUSH3 0x9B0 JUMPI DUP5 DUP10 ADD MLOAD DUP3 SSTORE PUSH1 0x1 DUP3 ADD SWAP2 POP PUSH1 0x20 DUP6 ADD SWAP5 POP PUSH1 0x20 DUP2 ADD SWAP1 POP PUSH3 0x989 JUMP JUMPDEST DUP7 DUP4 LT ISZERO PUSH3 0x9D0 JUMPI DUP5 DUP10 ADD MLOAD PUSH3 0x9CC PUSH1 0x1F DUP10 AND DUP3 PUSH3 0x8C6 JUMP JUMPDEST DUP4 SSTORE POP JUMPDEST PUSH1 0x1 PUSH1 0x2 DUP9 MUL ADD DUP9 SSTORE POP POP POP JUMPDEST POP POP POP POP POP POP JUMP JUMPDEST PUSH32 0x4E487B7100000000000000000000000000000000000000000000000000000000 PUSH0 MSTORE PUSH1 0x11 PUSH1 0x4 MSTORE PUSH1 0x24 PUSH0 REVERT JUMPDEST PUSH0 PUSH3 0xA1E DUP3 PUSH3 0x7B7 JUMP JUMPDEST SWAP2 POP PUSH3 0xA2B DUP4 PUSH3 0x7B7 JUMP JUMPDEST SWAP3 POP DUP3 DUP3 MUL PUSH3 0xA3B DUP2 PUSH3 0x7B7 JUMP JUMPDEST SWAP2 POP DUP3 DUP3 DIV DUP5 EQ DUP4 ISZERO OR PUSH3 0xA55 JUMPI PUSH3 0xA54 PUSH3 0x9E5 JUMP JUMPDEST JUMPDEST POP SWAP3 SWAP2 POP POP JUMP JUMPDEST PUSH32 0x4E487B7100000000000000000000000000000000000000000000000000000000 PUSH0 MSTORE PUSH1 0x12 PUSH1 0x4 MSTORE PUSH1 0x24 PUSH0 REVERT JUMPDEST PUSH0 PUSH3 0xA95 DUP3 PUSH3 0x7B7 JUMP JUMPDEST SWAP2 POP PUSH3 0xAA2 DUP4 PUSH3 0x7B7 JUMP JUMPDEST SWAP3 POP DUP3 PUSH3 0xAB5 JUMPI PUSH3 0xAB4 PUSH3 0xA5C JUMP JUMPDEST JUMPDEST DUP3 DUP3 DIV SWAP1 POP SWAP3 SWAP2 POP POP JUMP JUMPDEST PUSH2 0x23FE DUP1 PUSH3 0xACE PUSH0 CODECOPY PUSH0 RETURN INVALID PUSH1 0x80 PUSH1 0x40 MSTORE PUSH1 0x4 CALLDATASIZE LT PUSH2 0x14A JUMPI PUSH0 CALLDATALOAD PUSH1 0xE0 SHR DUP1 PUSH4 0x8ACB4624 GT PUSH2 0xB5 JUMPI DUP1 PUSH4 0xBB68A67F GT PUSH2 0x6E JUMPI DUP1 PUSH4 0xBB68A67F EQ PUSH2 0x406 JUMPI DUP1 PUSH4 0xC6CA9D19 EQ PUSH2 0x442 JUMPI DUP1 PUSH4 0xD27D06C0 EQ PUSH2 0x45E JUMPI DUP1 PUSH4 0xE068561A EQ PUSH2 0x488 JUMPI DUP1 PUSH4 0xE34AD1D7 EQ PUSH2 0x4B0 JUMPI DUP1 PUSH4 0xE86C5692 EQ PUSH2 0x4DA JUMPI PUSH2 0x14A JUMP JUMPDEST DUP1 PUSH4 0x8ACB4624 EQ PUSH2 0x320 JUMPI DUP1 PUSH4 0x91243239 EQ PUSH2 0x34A JUMPI DUP1 PUSH4 0xA299F171 EQ PUSH2 0x386 JUMPI DUP1 PUSH4 0xAB76211E EQ PUSH2 0x39C JUMPI DUP1 PUSH4 0xAD2C046C EQ PUSH2 0x3B2 JUMPI DUP1 PUSH4 0xB08C7076 EQ PUSH2 0x3DC JUMPI PUSH2 0x14A JUMP JUMPDEST DUP1 PUSH4 0x3BABB15A GT PUSH2 0x107 JUMPI DUP1 PUSH4 0x3BABB15A EQ PUSH2 0x25A JUMPI DUP1 PUSH4 0x3F0F5D51 EQ PUSH2 0x284 JUMPI DUP1 PUSH4 0x43767832 EQ PUSH2 0x2AE JUMPI DUP1 PUSH4 0x526024EA EQ PUSH2 0x2D6 JUMPI DUP1 PUSH4 0x70A41BC0 EQ PUSH2 0x2E0 JUMPI DUP1 PUSH4 0x833E92CB EQ PUSH2 0x30A JUMPI PUSH2 0x14A JUMP JUMPDEST DUP1 PUSH4 0x84263F5 EQ PUSH2 0x14E JUMPI DUP1 PUSH4 0xF085E50 EQ PUSH2 0x178 JUMPI DUP1 PUSH4 0x2340983F EQ PUSH2 0x1A2 JUMPI DUP1 PUSH4 0x2DF368A5 EQ PUSH2 0x1CC JUMPI DUP1 PUSH4 0x31C45120 EQ PUSH2 0x1F6 JUMPI DUP1 PUSH4 0x36927060 EQ PUSH2 0x21E JUMPI JUMPDEST PUSH0 DUP1 REVERT JUMPDEST CALLVALUE DUP1 ISZERO PUSH2 0x159 JUMPI PUSH0 DUP1 REVERT JUMPDEST POP PUSH2 0x162 PUSH2 0x516 JUMP JUMPDEST PUSH1 0x40 MLOAD PUSH2 0x16F SWAP2 SWAP1 PUSH2 0x15A9 JUMP JUMPDEST PUSH1 0x40 MLOAD DUP1 SWAP2 SUB SWAP1 RETURN JUMPDEST CALLVALUE DUP1 ISZERO PUSH2 0x183 JUMPI PUSH0 DUP1 REVERT JUMPDEST POP PUSH2 0x18C PUSH2 0x52D JUMP JUMPDEST PUSH1 0x40 MLOAD PUSH2 0x199 SWAP2 SWAP1 PUSH2 0x15A9 JUMP JUMPDEST PUSH1 0x40 MLOAD DUP1 SWAP2 SUB SWAP1 RETURN JUMPDEST CALLVALUE DUP1 ISZERO PUSH2 0x1AD JUMPI PUSH0 DUP1 REVERT JUMPDEST POP PUSH2 0x1B6 PUSH2 0x545 JUMP JUMPDEST PUSH1 0x40 MLOAD PUSH2 0x1C3 SWAP2 SWAP1 PUSH2 0x15DC JUMP JUMPDEST PUSH1 0x40 MLOAD DUP1 SWAP2 SUB SWAP1 RETURN JUMPDEST CALLVALUE DUP1 ISZERO PUSH2 0x1D7 JUMPI PUSH0 DUP1 REVERT JUMPDEST POP PUSH2 0x1E0 PUSH2 0x556 JUMP JUMPDEST PUSH1 0x40 MLOAD PUSH2 0x1ED SWAP2 SWAP1 PUSH2 0x1613 JUMP JUMPDEST PUSH1 0x40 MLOAD DUP1 SWAP2 SUB SWAP1 RETURN JUMPDEST CALLVALUE DUP1 ISZERO PUSH2 0x201 JUMPI PUSH0 DUP1 REVERT JUMPDEST POP PUSH2 0x21C PUSH1 0x4 DUP1 CALLDATASIZE SUB DUP2 ADD SWAP1 PUSH2 0x217 SWAP2 SWAP1 PUSH2 0x165A JUMP JUMPDEST PUSH2 0x56C JUMP JUMPDEST STOP JUMPDEST CALLVALUE DUP1 ISZERO PUSH2 0x229 JUMPI PUSH0 DUP1 REVERT JUMPDEST POP PUSH2 0x244 PUSH1 0x4 DUP1 CALLDATASIZE SUB DUP2 ADD SWAP1 PUSH2 0x23F SWAP2 SWAP1 PUSH2 0x16DF JUMP JUMPDEST PUSH2 0x63A JUMP JUMPDEST PUSH1 0x40 MLOAD PUSH2 0x251 SWAP2 SWAP1 PUSH2 0x15DC JUMP JUMPDEST PUSH1 0x40 MLOAD DUP1 SWAP2 SUB SWAP1 RETURN JUMPDEST CALLVALUE DUP1 ISZERO PUSH2 0x265 JUMPI PUSH0 DUP1 REVERT JUMPDEST POP PUSH2 0x26E PUSH2 0x657 JUMP JUMPDEST PUSH1 0x40 MLOAD PUSH2 0x27B SWAP2 SWAP1 PUSH2 0x1726 JUMP JUMPDEST PUSH1 0x40 MLOAD DUP1 SWAP2 SUB SWAP1 RETURN JUMPDEST CALLVALUE DUP1 ISZERO PUSH2 0x28F JUMPI PUSH0 DUP1 REVERT JUMPDEST POP PUSH2 0x298 PUSH2 0x66A JUMP JUMPDEST PUSH1 0x40 MLOAD PUSH2 0x2A5 SWAP2 SWAP1 PUSH2 0x1613 JUMP JUMPDEST PUSH1 0x40 MLOAD DUP1 SWAP2 SUB SWAP1 RETURN JUMPDEST CALLVALUE DUP1 ISZERO PUSH2 0x2B9 JUMPI PUSH0 DUP1 REVERT JUMPDEST POP PUSH2 0x2D4 PUSH1 0x4 DUP1 CALLDATASIZE SUB DUP2 ADD SWAP1 PUSH2 0x2CF SWAP2 SWAP1 PUSH2 0x16DF JUMP JUMPDEST PUSH2 0x67E JUMP JUMPDEST STOP JUMPDEST PUSH2 0x2DE PUSH2 0x781 JUMP JUMPDEST STOP JUMPDEST CALLVALUE DUP1 ISZERO PUSH2 0x2EB JUMPI PUSH0 DUP1 REVERT JUMPDEST POP PUSH2 0x2F4 PUSH2 0xAF4 JUMP JUMPDEST PUSH1 0x40 MLOAD PUSH2 0x301 SWAP2 SWAP1 PUSH2 0x1726 JUMP JUMPDEST PUSH1 0x40 MLOAD DUP1 SWAP2 SUB SWAP1 RETURN JUMPDEST CALLVALUE DUP1 ISZERO PUSH2 0x315 JUMPI PUSH0 DUP1 REVERT JUMPDEST POP PUSH2 0x31E PUSH2 0xB07 JUMP JUMPDEST STOP JUMPDEST CALLVALUE DUP1 ISZERO PUSH2 0x32B JUMPI PUSH0 DUP1 REVERT JUMPDEST POP PUSH2 0x334 PUSH2 0xDCC JUMP JUMPDEST PUSH1 0x40 MLOAD PUSH2 0x341 SWAP2 SWAP1 PUSH2 0x17C9 JUMP JUMPDEST PUSH1 0x40 MLOAD DUP1 SWAP2 SUB SWAP1 RETURN JUMPDEST CALLVALUE DUP1 ISZERO PUSH2 0x355 JUMPI PUSH0 DUP1 REVERT JUMPDEST POP PUSH2 0x370 PUSH1 0x4 DUP1 CALLDATASIZE SUB DUP2 ADD SWAP1 PUSH2 0x36B SWAP2 SWAP1 PUSH2 0x16DF JUMP JUMPDEST PUSH2 0xE58 JUMP JUMPDEST PUSH1 0x40 MLOAD PUSH2 0x37D SWAP2 SWAP1 PUSH2 0x15DC JUMP JUMPDEST PUSH1 0x40 MLOAD DUP1 SWAP2 SUB SWAP1 RETURN JUMPDEST CALLVALUE DUP1 ISZERO PUSH2 0x391 JUMPI PUSH0 DUP1 REVERT JUMPDEST POP PUSH2 0x39A PUSH2 0xE75 JUMP JUMPDEST STOP JUMPDEST CALLVALUE DUP1 ISZERO PUSH2 0x3A7 JUMPI PUSH0 DUP1 REVERT JUMPDEST POP PUSH2 0x3B0 PUSH2 0x113F JUMP JUMPDEST STOP JUMPDEST CALLVALUE DUP1 ISZERO PUSH2 0x3BD JUMPI PUSH0 DUP1 REVERT JUMPDEST POP PUSH2 0x3C6 PUSH2 0x125A JUMP JUMPDEST PUSH1 0x40 MLOAD PUSH2 0x3D3 SWAP2 SWAP1 PUSH2 0x17F8 JUMP JUMPDEST PUSH1 0x40 MLOAD DUP1 SWAP2 SUB SWAP1 RETURN JUMPDEST CALLVALUE DUP1 ISZERO PUSH2 0x3E7 JUMPI PUSH0 DUP1 REVERT JUMPDEST POP PUSH2 0x3F0 PUSH2 0x127D JUMP JUMPDEST PUSH1 0x40 MLOAD PUSH2 0x3FD SWAP2 SWAP1 PUSH2 0x15DC JUMP JUMPDEST PUSH1 0x40 MLOAD DUP1 SWAP2 SUB SWAP1 RETURN JUMPDEST CALLVALUE DUP1 ISZERO PUSH2 0x411 JUMPI PUSH0 DUP1 REVERT JUMPDEST POP PUSH2 0x42C PUSH1 0x4 DUP1 CALLDATASIZE SUB DUP2 ADD SWAP1 PUSH2 0x427 SWAP2 SWAP1 PUSH2 0x16DF JUMP JUMPDEST PUSH2 0x1290 JUMP JUMPDEST PUSH1 0x40 MLOAD PUSH2 0x439 SWAP2 SWAP1 PUSH2 0x15DC JUMP JUMPDEST PUSH1 0x40 MLOAD DUP1 SWAP2 SUB SWAP1 RETURN JUMPDEST PUSH2 0x45C PUSH1 0x4 DUP1 CALLDATASIZE SUB DUP2 ADD SWAP1 PUSH2 0x457 SWAP2 SWAP1 PUSH2 0x183B JUMP JUMPDEST PUSH2 0x12AD JUMP JUMPDEST STOP JUMPDEST CALLVALUE DUP1 ISZERO PUSH2 0x469 JUMPI PUSH0 DUP1 REVERT JUMPDEST POP PUSH2 0x472 PUSH2 0x1403 JUMP JUMPDEST PUSH1 0x40 MLOAD PUSH2 0x47F SWAP2 SWAP1 PUSH2 0x17C9 JUMP JUMPDEST PUSH1 0x40 MLOAD DUP1 SWAP2 SUB SWAP1 RETURN JUMPDEST CALLVALUE DUP1 ISZERO PUSH2 0x493 JUMPI PUSH0 DUP1 REVERT JUMPDEST POP PUSH2 0x4AE PUSH1 0x4 DUP1 CALLDATASIZE SUB DUP2 ADD SWAP1 PUSH2 0x4A9 SWAP2 SWAP1 PUSH2 0x1890 JUMP JUMPDEST PUSH2 0x148F JUMP JUMPDEST STOP JUMPDEST CALLVALUE DUP1 ISZERO PUSH2 0x4BB JUMPI PUSH0 DUP1 REVERT JUMPDEST POP PUSH2 0x4C4 PUSH2 0x1559 JUMP JUMPDEST PUSH1 0x40 MLOAD PUSH2 0x4D1 SWAP2 SWAP1 PUSH2 0x15DC JUMP JUMPDEST PUSH1 0x40 MLOAD DUP1 SWAP2 SUB SWAP1 RETURN JUMPDEST CALLVALUE DUP1 ISZERO PUSH2 0x4E5 JUMPI PUSH0 DUP1 REVERT JUMPDEST POP PUSH2 0x500 PUSH1 0x4 DUP1 CALLDATASIZE SUB DUP2 ADD SWAP1 PUSH2 0x4FB SWAP2 SWAP1 PUSH2 0x16DF JUMP JUMPDEST PUSH2 0x156C JUMP JUMPDEST PUSH1 0x40 MLOAD PUSH2 0x50D SWAP2 SWAP1 PUSH2 0x15DC JUMP JUMPDEST PUSH1 0x40 MLOAD DUP1 SWAP2 SUB SWAP1 RETURN JUMPDEST PUSH1 0x4 PUSH0 SWAP1 SLOAD SWAP1 PUSH2 0x100 EXP SWAP1 DIV PUSH6 0xFFFFFFFFFFFF AND DUP2 JUMP JUMPDEST PUSH1 0x8 PUSH1 0x2 SWAP1 SLOAD SWAP1 PUSH2 0x100 EXP SWAP1 DIV PUSH6 0xFFFFFFFFFFFF AND DUP2 JUMP JUMPDEST PUSH1 0x8 DUP1 SLOAD SWAP1 PUSH2 0x100 EXP SWAP1 DIV PUSH1 0xFF AND DUP2 JUMP JUMPDEST PUSH1 0x2 PUSH1 0x6 SWAP1 SLOAD SWAP1 PUSH2 0x100 EXP SWAP1 DIV PUSH4 0xFFFFFFFF AND DUP2 JUMP JUMPDEST PUSH0 DUP1 SLOAD SWAP1 PUSH2 0x100 EXP SWAP1 DIV PUSH20 0xFFFFFFFFFFFFFFFFFFFFFFFFFFFFFFFFFFFFFFFF AND PUSH20 0xFFFFFFFFFFFFFFFFFFFFFFFFFFFFFFFFFFFFFFFF AND CALLER PUSH20 0xFFFFFFFFFFFFFFFFFFFFFFFFFFFFFFFFFFFFFFFF AND EQ PUSH2 0x5C2 JUMPI PUSH0 DUP1 REVERT JUMPDEST PUSH0 PUSH1 0x8 PUSH0 SWAP1 SLOAD SWAP1 PUSH2 0x100 EXP SWAP1 DIV PUSH2 0xFFFF AND PUSH2 0xFFFF AND EQ PUSH2 0x617 JUMPI PUSH1 0x40 MLOAD PUSH32 0x8C379A000000000000000000000000000000000000000000000000000000000 DUP2 MSTORE PUSH1 0x4 ADD PUSH2 0x60E SWAP1 PUSH2 0x192B JUMP JUMPDEST PUSH1 0x40 MLOAD DUP1 SWAP2 SUB SWAP1 REVERT JUMPDEST DUP1 PUSH1 0x2 DUP1 PUSH2 0x100 EXP DUP2 SLOAD DUP2 PUSH4 0xFFFFFFFF MUL NOT AND SWAP1 DUP4 PUSH4 0xFFFFFFFF AND MUL OR SWAP1 SSTORE POP POP JUMP JUMPDEST PUSH1 0x5 PUSH1 0x20 MSTORE DUP1 PUSH0 MSTORE PUSH1 0x40 PUSH0 KECCAK256 PUSH0 SWAP2 POP SLOAD SWAP1 PUSH2 0x100 EXP SWAP1 DIV PUSH1 0xFF AND DUP2 JUMP JUMPDEST PUSH1 0x8 PUSH0 SWAP1 SLOAD SWAP1 PUSH2 0x100 EXP SWAP1 DIV PUSH2 0xFFFF AND DUP2 JUMP JUMPDEST PUSH1 0x2 DUP1 SLOAD SWAP1 PUSH2 0x100 EXP SWAP1 DIV PUSH4 0xFFFFFFFF AND DUP2 JUMP JUMPDEST PUSH0 DUP1 SLOAD SWAP1 PUSH2 0x100 EXP SWAP1 DIV PUSH20 0xFFFFFFFFFFFFFFFFFFFFFFFFFFFFFFFFFFFFFFFF AND PUSH20 0xFFFFFFFFFFFFFFFFFFFFFFFFFFFFFFFFFFFFFFFF AND CALLER PUSH20 0xFFFFFFFFFFFFFFFFFFFFFFFFFFFFFFFFFFFFFFFF AND EQ PUSH2 0x6D4 JUMPI PUSH0 DUP1 REVERT JUMPDEST PUSH0 PUSH1 0x8 PUSH0 SWAP1 SLOAD SWAP1 PUSH2 0x100 EXP SWAP1 DIV PUSH2 0xFFFF AND PUSH2 0xFFFF AND EQ PUSH2 0x729 JUMPI PUSH1 0x40 MLOAD PUSH32 0x8C379A000000000000000000000000000000000000000000000000000000000 DUP2 MSTORE PUSH1 0x4 ADD PUSH2 0x720 SWAP1 PUSH2 0x19B9 JUMP JUMPDEST PUSH1 0x40 MLOAD DUP1 SWAP2 SUB SWAP1 REVERT JUMPDEST PUSH1 0x1 PUSH1 0x9 PUSH0 DUP4 PUSH20 0xFFFFFFFFFFFFFFFFFFFFFFFFFFFFFFFFFFFFFFFF AND PUSH20 0xFFFFFFFFFFFFFFFFFFFFFFFFFFFFFFFFFFFFFFFF AND DUP2 MSTORE PUSH1 0x20 ADD SWAP1 DUP2 MSTORE PUSH1 0x20 ADD PUSH0 KECCAK256 PUSH0 PUSH2 0x100 EXP DUP2 SLOAD DUP2 PUSH1 0xFF MUL NOT AND SWAP1 DUP4 ISZERO ISZERO MUL OR SWAP1 SSTORE POP POP JUMP JUMPDEST PUSH0 PUSH1 0x2 PUSH1 0x6 SWAP1 SLOAD SWAP1 PUSH2 0x100 EXP SWAP1 DIV PUSH4 0xFFFFFFFF AND PUSH4 0xFFFFFFFF AND GT PUSH2 0x7DB JUMPI PUSH1 0x40 MLOAD PUSH32 0x8C379A000000000000000000000000000000000000000000000000000000000 DUP2 MSTORE PUSH1 0x4 ADD PUSH2 0x7D2 SWAP1 PUSH2 0x1A21 JUMP JUMPDEST PUSH1 0x40 MLOAD DUP1 SWAP2 SUB SWAP1 REVERT JUMPDEST PUSH1 0x2 PUSH1 0x6 SWAP1 SLOAD SWAP1 PUSH2 0x100 EXP SWAP1 DIV PUSH4 0xFFFFFFFF AND PUSH4 0xFFFFFFFF AND CALLVALUE LT ISZERO PUSH2 0x836 JUMPI PUSH1 0x40 MLOAD PUSH32 0x8C379A000000000000000000000000000000000000000000000000000000000 DUP2 MSTORE PUSH1 0x4 ADD PUSH2 0x82D SWAP1 PUSH2 0x1A89 JUMP JUMPDEST PUSH1 0x40 MLOAD DUP1 SWAP2 SUB SWAP1 REVERT JUMPDEST PUSH1 0x5 PUSH0 CALLER PUSH20 0xFFFFFFFFFFFFFFFFFFFFFFFFFFFFFFFFFFFFFFFF AND PUSH20 0xFFFFFFFFFFFFFFFFFFFFFFFFFFFFFFFFFFFFFFFF AND DUP2 MSTORE PUSH1 0x20 ADD SWAP1 DUP2 MSTORE PUSH1 0x20 ADD PUSH0 KECCAK256 PUSH0 SWAP1 SLOAD SWAP1 PUSH2 0x100 EXP SWAP1 DIV PUSH1 0xFF AND ISZERO PUSH2 0x8C0 JUMPI PUSH1 0x40 MLOAD PUSH32 0x8C379A000000000000000000000000000000000000000000000000000000000 DUP2 MSTORE PUSH1 0x4 ADD PUSH2 0x8B7 SWAP1 PUSH2 0x1B17 JUMP JUMPDEST PUSH1 0x40 MLOAD DUP1 SWAP2 SUB SWAP1 REVERT JUMPDEST PUSH1 0x2 PUSH0 SWAP1 SLOAD SWAP1 PUSH2 0x100 EXP SWAP1 DIV PUSH2 0xFFFF AND PUSH2 0xFFFF AND PUSH1 0x8 PUSH0 SWAP1 SLOAD SWAP1 PUSH2 0x100 EXP SWAP1 DIV PUSH2 0xFFFF AND PUSH2 0xFFFF AND LT PUSH2 0x928 JUMPI PUSH1 0x40 MLOAD PUSH32 0x8C379A000000000000000000000000000000000000000000000000000000000 DUP2 MSTORE PUSH1 0x4 ADD PUSH2 0x91F SWAP1 PUSH2 0x1B7F JUMP JUMPDEST PUSH1 0x40 MLOAD DUP1 SWAP2 SUB SWAP1 REVERT JUMPDEST PUSH0 PUSH1 0x8 PUSH1 0x2 SWAP1 SLOAD SWAP1 PUSH2 0x100 EXP SWAP1 DIV PUSH6 0xFFFFFFFFFFFF AND PUSH6 0xFFFFFFFFFFFF AND EQ PUSH2 0x986 JUMPI PUSH1 0x40 MLOAD PUSH32 0x8C379A000000000000000000000000000000000000000000000000000000000 DUP2 MSTORE PUSH1 0x4 ADD PUSH2 0x97D SWAP1 PUSH2 0x1BE7 JUMP JUMPDEST PUSH1 0x40 MLOAD DUP1 SWAP2 SUB SWAP1 REVERT JUMPDEST PUSH1 0x8 PUSH1 0x9 SWAP1 SLOAD SWAP1 PUSH2 0x100 EXP SWAP1 DIV PUSH1 0xFF AND ISZERO PUSH2 0x9EE JUMPI PUSH1 0x9 PUSH0 CALLER PUSH20 0xFFFFFFFFFFFFFFFFFFFFFFFFFFFFFFFFFFFFFFFF AND PUSH20 0xFFFFFFFFFFFFFFFFFFFFFFFFFFFFFFFFFFFFFFFF AND DUP2 MSTORE PUSH1 0x20 ADD SWAP1 DUP2 MSTORE PUSH1 0x20 ADD PUSH0 KECCAK256 PUSH0 SWAP1 SLOAD SWAP1 PUSH2 0x100 EXP SWAP1 DIV PUSH1 0xFF AND PUSH2 0x9ED JUMPI PUSH0 DUP1 REVERT JUMPDEST JUMPDEST PUSH0 PUSH1 0x2 PUSH1 0x6 SWAP1 SLOAD SWAP1 PUSH2 0x100 EXP SWAP1 DIV PUSH4 0xFFFFFFFF AND PUSH4 0xFFFFFFFF AND CALLVALUE PUSH2 0xA13 SWAP2 SWAP1 PUSH2 0x1C3B JUMP JUMPDEST SWAP1 POP PUSH1 0x1 PUSH1 0x5 PUSH0 CALLER PUSH20 0xFFFFFFFFFFFFFFFFFFFFFFFFFFFFFFFFFFFFFFFF AND PUSH20 0xFFFFFFFFFFFFFFFFFFFFFFFFFFFFFFFFFFFFFFFF AND DUP2 MSTORE PUSH1 0x20 ADD SWAP1 DUP2 MSTORE PUSH1 0x20 ADD PUSH0 KECCAK256 PUSH0 PUSH2 0x100 EXP DUP2 SLOAD DUP2 PUSH1 0xFF MUL NOT AND SWAP1 DUP4 ISZERO ISZERO MUL OR SWAP1 SSTORE POP PUSH1 0x8 PUSH0 DUP2 DUP2 SWAP1 SLOAD SWAP1 PUSH2 0x100 EXP SWAP1 DIV PUSH2 0xFFFF AND DUP1 SWAP3 SWAP2 SWAP1 PUSH2 0xA89 SWAP1 PUSH2 0x1C6E JUMP JUMPDEST SWAP2 SWAP1 PUSH2 0x100 EXP DUP2 SLOAD DUP2 PUSH2 0xFFFF MUL NOT AND SWAP1 DUP4 PUSH2 0xFFFF AND MUL OR SWAP1 SSTORE POP POP PUSH0 DUP2 GT ISZERO PUSH2 0xAF1 JUMPI CALLER PUSH20 0xFFFFFFFFFFFFFFFFFFFFFFFFFFFFFFFFFFFFFFFF AND PUSH2 0x8FC DUP3 SWAP1 DUP2 ISZERO MUL SWAP1 PUSH1 0x40 MLOAD PUSH0 PUSH1 0x40 MLOAD DUP1 DUP4 SUB DUP2 DUP6 DUP9 DUP9 CALL SWAP4 POP POP POP POP ISZERO DUP1 ISZERO PUSH2 0xAEF JUMPI RETURNDATASIZE PUSH0 DUP1 RETURNDATACOPY RETURNDATASIZE PUSH0 REVERT JUMPDEST POP JUMPDEST POP JUMP JUMPDEST PUSH1 0x2 PUSH0 SWAP1 SLOAD SWAP1 PUSH2 0x100 EXP SWAP1 DIV PUSH2 0xFFFF AND DUP2 JUMP JUMPDEST PUSH1 0x5 PUSH0 CALLER PUSH20 0xFFFFFFFFFFFFFFFFFFFFFFFFFFFFFFFFFFFFFFFF AND PUSH20 0xFFFFFFFFFFFFFFFFFFFFFFFFFFFFFFFFFFFFFFFF AND DUP2 MSTORE PUSH1 0x20 ADD SWAP1 DUP2 MSTORE PUSH1 0x20 ADD PUSH0 KECCAK256 PUSH0 SWAP1 SLOAD SWAP1 PUSH2 0x100 EXP SWAP1 DIV PUSH1 0xFF AND PUSH2 0xB59 JUMPI PUSH0 DUP1 REVERT JUMPDEST PUSH1 0xA PUSH0 SWAP1 SLOAD SWAP1 PUSH2 0x100 EXP SWAP1 DIV PUSH1 0xFF AND ISZERO PUSH2 0xBA8 JUMPI PUSH1 0x40 MLOAD PUSH32 0x8C379A000000000000000000000000000000000000000000000000000000000 DUP2 MSTORE PUSH1 0x4 ADD PUSH2 0xB9F SWAP1 PUSH2 0x1CE1 JUMP JUMPDEST PUSH1 0x40 MLOAD DUP1 SWAP2 SUB SWAP1 REVERT JUMPDEST PUSH1 0x1 PUSH1 0xA PUSH0 PUSH2 0x100 EXP DUP2 SLOAD DUP2 PUSH1 0xFF MUL NOT AND SWAP1 DUP4 ISZERO ISZERO MUL OR SWAP1 SSTORE POP PUSH1 0x8 DUP1 SLOAD SWAP1 PUSH2 0x100 EXP SWAP1 DIV PUSH1 0xFF AND PUSH2 0xC0F JUMPI PUSH1 0x40 MLOAD PUSH32 0x8C379A000000000000000000000000000000000000000000000000000000000 DUP2 MSTORE PUSH1 0x4 ADD PUSH2 0xC06 SWAP1 PUSH2 0x1D6F JUMP JUMPDEST PUSH1 0x40 MLOAD DUP1 SWAP2 SUB SWAP1 REVERT JUMPDEST PUSH0 PUSH1 0x8 PUSH1 0x2 SWAP1 SLOAD SWAP1 PUSH2 0x100 EXP SWAP1 DIV PUSH6 0xFFFFFFFFFFFF AND PUSH6 0xFFFFFFFFFFFF AND GT PUSH2 0xC6D JUMPI PUSH1 0x40 MLOAD PUSH32 0x8C379A000000000000000000000000000000000000000000000000000000000 DUP2 MSTORE PUSH1 0x4 ADD PUSH2 0xC64 SWAP1 PUSH2 0x1DFD JUMP JUMPDEST PUSH1 0x40 MLOAD DUP1 SWAP2 SUB SWAP1 REVERT JUMPDEST PUSH1 0x6 PUSH0 CALLER PUSH20 0xFFFFFFFFFFFFFFFFFFFFFFFFFFFFFFFFFFFFFFFF AND PUSH20 0xFFFFFFFFFFFFFFFFFFFFFFFFFFFFFFFFFFFFFFFF AND DUP2 MSTORE PUSH1 0x20 ADD SWAP1 DUP2 MSTORE PUSH1 0x20 ADD PUSH0 KECCAK256 PUSH0 SWAP1 SLOAD SWAP1 PUSH2 0x100 EXP SWAP1 DIV PUSH1 0xFF AND ISZERO PUSH2 0xCF7 JUMPI PUSH1 0x40 MLOAD PUSH32 0x8C379A000000000000000000000000000000000000000000000000000000000 DUP2 MSTORE PUSH1 0x4 ADD PUSH2 0xCEE SWAP1 PUSH2 0x1E65 JUMP JUMPDEST PUSH1 0x40 MLOAD DUP1 SWAP2 SUB SWAP1 REVERT JUMPDEST PUSH1 0x1 PUSH1 0x6 PUSH0 CALLER PUSH20 0xFFFFFFFFFFFFFFFFFFFFFFFFFFFFFFFFFFFFFFFF AND PUSH20 0xFFFFFFFFFFFFFFFFFFFFFFFFFFFFFFFFFFFFFFFF AND DUP2 MSTORE PUSH1 0x20 ADD SWAP1 DUP2 MSTORE PUSH1 0x20 ADD PUSH0 KECCAK256 PUSH0 PUSH2 0x100 EXP DUP2 SLOAD DUP2 PUSH1 0xFF MUL NOT AND SWAP1 DUP4 ISZERO ISZERO MUL OR SWAP1 SSTORE POP PUSH0 PUSH1 0x8 PUSH1 0x2 SWAP1 SLOAD SWAP1 PUSH2 0x100 EXP SWAP1 DIV PUSH6 0xFFFFFFFFFFFF AND PUSH6 0xFFFFFFFFFFFF AND SWAP1 POP CALLER PUSH20 0xFFFFFFFFFFFFFFFFFFFFFFFFFFFFFFFFFFFFFFFF AND PUSH2 0x8FC DUP3 SWAP1 DUP2 ISZERO MUL SWAP1 PUSH1 0x40 MLOAD PUSH0 PUSH1 0x40 MLOAD DUP1 DUP4 SUB DUP2 DUP6 DUP9 DUP9 CALL SWAP4 POP POP POP POP ISZERO DUP1 ISZERO PUSH2 0xDAF JUMPI RETURNDATASIZE PUSH0 DUP1 RETURNDATACOPY RETURNDATASIZE PUSH0 REVERT JUMPDEST POP POP PUSH0 PUSH1 0xA PUSH0 PUSH2 0x100 EXP DUP2 SLOAD DUP2 PUSH1 0xFF MUL NOT AND SWAP1 DUP4 ISZERO ISZERO MUL OR SWAP1 SSTORE POP JUMP JUMPDEST PUSH1 0x3 DUP1 SLOAD PUSH2 0xDD9 SWAP1 PUSH2 0x1EB0 JUMP JUMPDEST DUP1 PUSH1 0x1F ADD PUSH1 0x20 DUP1 SWAP2 DIV MUL PUSH1 0x20 ADD PUSH1 0x40 MLOAD SWAP1 DUP2 ADD PUSH1 0x40 MSTORE DUP1 SWAP3 SWAP2 SWAP1 DUP2 DUP2 MSTORE PUSH1 0x20 ADD DUP3 DUP1 SLOAD PUSH2 0xE05 SWAP1 PUSH2 0x1EB0 JUMP JUMPDEST DUP1 ISZERO PUSH2 0xE50 JUMPI DUP1 PUSH1 0x1F LT PUSH2 0xE27 JUMPI PUSH2 0x100 DUP1 DUP4 SLOAD DIV MUL DUP4 MSTORE SWAP2 PUSH1 0x20 ADD SWAP2 PUSH2 0xE50 JUMP JUMPDEST DUP3 ADD SWAP2 SWAP1 PUSH0 MSTORE PUSH1 0x20 PUSH0 KECCAK256 SWAP1 JUMPDEST DUP2 SLOAD DUP2 MSTORE SWAP1 PUSH1 0x1 ADD SWAP1 PUSH1 0x20 ADD DUP1 DUP4 GT PUSH2 0xE33 JUMPI DUP3 SWAP1 SUB PUSH1 0x1F AND DUP3 ADD SWAP2 JUMPDEST POP POP POP POP POP DUP2 JUMP JUMPDEST PUSH1 0x6 PUSH1 0x20 MSTORE DUP1 PUSH0 MSTORE PUSH1 0x40 PUSH0 KECCAK256 PUSH0 SWAP2 POP SLOAD SWAP1 PUSH2 0x100 EXP SWAP1 DIV PUSH1 0xFF AND DUP2 JUMP JUMPDEST PUSH1 0x5 PUSH0 CALLER PUSH20 0xFFFFFFFFFFFFFFFFFFFFFFFFFFFFFFFFFFFFFFFF AND PUSH20 0xFFFFFFFFFFFFFFFFFFFFFFFFFFFFFFFFFFFFFFFF AND DUP2 MSTORE PUSH1 0x20 ADD SWAP1 DUP2 MSTORE PUSH1 0x20 ADD PUSH0 KECCAK256 PUSH0 SWAP1 SLOAD SWAP1 PUSH2 0x100 EXP SWAP1 DIV PUSH1 0xFF AND PUSH2 0xEC7 JUMPI PUSH0 DUP1 REVERT JUMPDEST PUSH1 0xA PUSH0 SWAP1 SLOAD SWAP1 PUSH2 0x100 EXP SWAP1 DIV PUSH1 0xFF AND ISZERO PUSH2 0xF16 JUMPI PUSH1 0x40 MLOAD PUSH32 0x8C379A000000000000000000000000000000000000000000000000000000000 DUP2 MSTORE PUSH1 0x4 ADD PUSH2 0xF0D SWAP1 PUSH2 0x1CE1 JUMP JUMPDEST PUSH1 0x40 MLOAD DUP1 SWAP2 SUB SWAP1 REVERT JUMPDEST PUSH1 0x1 PUSH1 0xA PUSH0 PUSH2 0x100 EXP DUP2 SLOAD DUP2 PUSH1 0xFF MUL NOT AND SWAP1 DUP4 ISZERO ISZERO MUL OR SWAP1 SSTORE POP PUSH1 0xA PUSH1 0x1 SWAP1 SLOAD SWAP1 PUSH2 0x100 EXP SWAP1 DIV PUSH1 0xFF AND PUSH2 0xF7F JUMPI PUSH1 0x40 MLOAD PUSH32 0x8C379A000000000000000000000000000000000000000000000000000000000 DUP2 MSTORE PUSH1 0x4 ADD PUSH2 0xF76 SWAP1 PUSH2 0x1F50 JUMP JUMPDEST PUSH1 0x40 MLOAD DUP1 SWAP2 SUB SWAP1 REVERT JUMPDEST PUSH1 0x7 PUSH0 CALLER PUSH20 0xFFFFFFFFFFFFFFFFFFFFFFFFFFFFFFFFFFFFFFFF AND PUSH20 0xFFFFFFFFFFFFFFFFFFFFFFFFFFFFFFFFFFFFFFFF AND DUP2 MSTORE PUSH1 0x20 ADD SWAP1 DUP2 MSTORE PUSH1 0x20 ADD PUSH0 KECCAK256 PUSH0 SWAP1 SLOAD SWAP1 PUSH2 0x100 EXP SWAP1 DIV PUSH1 0xFF AND ISZERO PUSH2 0x1009 JUMPI PUSH1 0x40 MLOAD PUSH32 0x8C379A000000000000000000000000000000000000000000000000000000000 DUP2 MSTORE PUSH1 0x4 ADD PUSH2 0x1000 SWAP1 PUSH2 0x1FDE JUMP JUMPDEST PUSH1 0x40 MLOAD DUP1 SWAP2 SUB SWAP1 REVERT JUMPDEST PUSH1 0x1 PUSH1 0x7 PUSH0 CALLER PUSH20 0xFFFFFFFFFFFFFFFFFFFFFFFFFFFFFFFFFFFFFFFF AND PUSH20 0xFFFFFFFFFFFFFFFFFFFFFFFFFFFFFFFFFFFFFFFF AND DUP2 MSTORE PUSH1 0x20 ADD SWAP1 DUP2 MSTORE PUSH1 0x20 ADD PUSH0 KECCAK256 PUSH0 PUSH2 0x100 EXP DUP2 SLOAD DUP2 PUSH1 0xFF MUL NOT AND SWAP1 DUP4 ISZERO ISZERO MUL OR SWAP1 SSTORE POP PUSH0 PUSH1 0x2 PUSH1 0x6 SWAP1 SLOAD SWAP1 PUSH2 0x100 EXP SWAP1 DIV PUSH4 0xFFFFFFFF AND PUSH4 0xFFFFFFFF AND SWAP1 POP PUSH0 CALLER PUSH20 0xFFFFFFFFFFFFFFFFFFFFFFFFFFFFFFFFFFFFFFFF AND DUP3 PUSH1 0x40 MLOAD PUSH2 0x109F SWAP1 PUSH2 0x2029 JUMP JUMPDEST PUSH0 PUSH1 0x40 MLOAD DUP1 DUP4 SUB DUP2 DUP6 DUP8 GAS CALL SWAP3 POP POP POP RETURNDATASIZE DUP1 PUSH0 DUP2 EQ PUSH2 0x10D9 JUMPI PUSH1 0x40 MLOAD SWAP2 POP PUSH1 0x1F NOT PUSH1 0x3F RETURNDATASIZE ADD AND DUP3 ADD PUSH1 0x40 MSTORE RETURNDATASIZE DUP3 MSTORE RETURNDATASIZE PUSH0 PUSH1 0x20 DUP5 ADD RETURNDATACOPY PUSH2 0x10DE JUMP JUMPDEST PUSH1 0x60 SWAP2 POP JUMPDEST POP POP SWAP1 POP DUP1 PUSH2 0x1122 JUMPI PUSH1 0x40 MLOAD PUSH32 0x8C379A000000000000000000000000000000000000000000000000000000000 DUP2 MSTORE PUSH1 0x4 ADD PUSH2 0x1119 SWAP1 PUSH2 0x20AD JUMP JUMPDEST PUSH1 0x40 MLOAD DUP1 SWAP2 SUB SWAP1 REVERT JUMPDEST POP POP PUSH0 PUSH1 0xA PUSH0 PUSH2 0x100 EXP DUP2 SLOAD DUP2 PUSH1 0xFF MUL NOT AND SWAP1 DUP4 ISZERO ISZERO MUL OR SWAP1 SSTORE POP JUMP JUMPDEST PUSH0 DUP1 SLOAD SWAP1 PUSH2 0x100 EXP SWAP1 DIV PUSH20 0xFFFFFFFFFFFFFFFFFFFFFFFFFFFFFFFFFFFFFFFF AND PUSH20 0xFFFFFFFFFFFFFFFFFFFFFFFFFFFFFFFFFFFFFFFF AND CALLER PUSH20 0xFFFFFFFFFFFFFFFFFFFFFFFFFFFFFFFFFFFFFFFF AND EQ PUSH2 0x1195 JUMPI PUSH0 DUP1 REVERT JUMPDEST PUSH0 ISZERO ISZERO PUSH1 0x8 DUP1 SLOAD SWAP1 PUSH2 0x100 EXP SWAP1 DIV PUSH1 0xFF AND ISZERO ISZERO EQ PUSH2 0x11E8 JUMPI PUSH1 0x40 MLOAD PUSH32 0x8C379A000000000000000000000000000000000000000000000000000000000 DUP2 MSTORE PUSH1 0x4 ADD PUSH2 0x11DF SWAP1 PUSH2 0x213B JUMP JUMPDEST PUSH1 0x40 MLOAD DUP1 SWAP2 SUB SWAP1 REVERT JUMPDEST PUSH0 ISZERO ISZERO PUSH1 0xA PUSH1 0x1 SWAP1 SLOAD SWAP1 PUSH2 0x100 EXP SWAP1 DIV PUSH1 0xFF AND ISZERO ISZERO EQ PUSH2 0x123D JUMPI PUSH1 0x40 MLOAD PUSH32 0x8C379A000000000000000000000000000000000000000000000000000000000 DUP2 MSTORE PUSH1 0x4 ADD PUSH2 0x1234 SWAP1 PUSH2 0x21A3 JUMP JUMPDEST PUSH1 0x40 MLOAD DUP1 SWAP2 SUB SWAP1 REVERT JUMPDEST PUSH1 0x1 PUSH1 0xA PUSH1 0x1 PUSH2 0x100 EXP DUP2 SLOAD DUP2 PUSH1 0xFF MUL NOT AND SWAP1 DUP4 ISZERO ISZERO MUL OR SWAP1 SSTORE POP JUMP JUMPDEST PUSH0 DUP1 SLOAD SWAP1 PUSH2 0x100 EXP SWAP1 DIV PUSH20 0xFFFFFFFFFFFFFFFFFFFFFFFFFFFFFFFFFFFFFFFF AND DUP2 JUMP JUMPDEST PUSH1 0x8 PUSH1 0x9 SWAP1 SLOAD SWAP1 PUSH2 0x100 EXP SWAP1 DIV PUSH1 0xFF AND DUP2 JUMP JUMPDEST PUSH1 0x7 PUSH1 0x20 MSTORE DUP1 PUSH0 MSTORE PUSH1 0x40 PUSH0 KECCAK256 PUSH0 SWAP2 POP SLOAD SWAP1 PUSH2 0x100 EXP SWAP1 DIV PUSH1 0xFF AND DUP2 JUMP JUMPDEST PUSH0 DUP1 SLOAD SWAP1 PUSH2 0x100 EXP SWAP1 DIV PUSH20 0xFFFFFFFFFFFFFFFFFFFFFFFFFFFFFFFFFFFFFFFF AND PUSH20 0xFFFFFFFFFFFFFFFFFFFFFFFFFFFFFFFFFFFFFFFF AND CALLER PUSH20 0xFFFFFFFFFFFFFFFFFFFFFFFFFFFFFFFFFFFFFFFF AND EQ PUSH2 0x1303 JUMPI PUSH0 DUP1 REVERT JUMPDEST PUSH0 CALLVALUE GT PUSH2 0x1345 JUMPI PUSH1 0x40 MLOAD PUSH32 0x8C379A000000000000000000000000000000000000000000000000000000000 DUP2 MSTORE PUSH1 0x4 ADD PUSH2 0x133C SWAP1 PUSH2 0x2231 JUMP JUMPDEST PUSH1 0x40 MLOAD DUP1 SWAP2 SUB SWAP1 REVERT JUMPDEST PUSH0 PUSH1 0x8 PUSH1 0x2 SWAP1 SLOAD SWAP1 PUSH2 0x100 EXP SWAP1 DIV PUSH6 0xFFFFFFFFFFFF AND PUSH6 0xFFFFFFFFFFFF AND EQ PUSH2 0x13A3 JUMPI PUSH1 0x40 MLOAD PUSH32 0x8C379A000000000000000000000000000000000000000000000000000000000 DUP2 MSTORE PUSH1 0x4 ADD PUSH2 0x139A SWAP1 PUSH2 0x2299 JUMP JUMPDEST PUSH1 0x40 MLOAD DUP1 SWAP2 SUB SWAP1 REVERT JUMPDEST PUSH1 0x8 PUSH0 SWAP1 SLOAD SWAP1 PUSH2 0x100 EXP SWAP1 DIV PUSH2 0xFFFF AND PUSH2 0xFFFF AND DUP2 PUSH2 0x13C2 SWAP2 SWAP1 PUSH2 0x22E4 JUMP JUMPDEST PUSH1 0x8 PUSH1 0x2 PUSH2 0x100 EXP DUP2 SLOAD DUP2 PUSH6 0xFFFFFFFFFFFF MUL NOT AND SWAP1 DUP4 PUSH6 0xFFFFFFFFFFFF AND MUL OR SWAP1 SSTORE POP PUSH1 0x1 PUSH1 0x8 DUP1 PUSH2 0x100 EXP DUP2 SLOAD DUP2 PUSH1 0xFF MUL NOT AND SWAP1 DUP4 ISZERO ISZERO MUL OR SWAP1 SSTORE POP POP JUMP JUMPDEST PUSH1 0x1 DUP1 SLOAD PUSH2 0x1410 SWAP1 PUSH2 0x1EB0 JUMP JUMPDEST DUP1 PUSH1 0x1F ADD PUSH1 0x20 DUP1 SWAP2 DIV MUL PUSH1 0x20 ADD PUSH1 0x40 MLOAD SWAP1 DUP2 ADD PUSH1 0x40 MSTORE DUP1 SWAP3 SWAP2 SWAP1 DUP2 DUP2 MSTORE PUSH1 0x20 ADD DUP3 DUP1 SLOAD PUSH2 0x143C SWAP1 PUSH2 0x1EB0 JUMP JUMPDEST DUP1 ISZERO PUSH2 0x1487 JUMPI DUP1 PUSH1 0x1F LT PUSH2 0x145E JUMPI PUSH2 0x100 DUP1 DUP4 SLOAD DIV MUL DUP4 MSTORE SWAP2 PUSH1 0x20 ADD SWAP2 PUSH2 0x1487 JUMP JUMPDEST DUP3 ADD SWAP2 SWAP1 PUSH0 MSTORE PUSH1 0x20 PUSH0 KECCAK256 SWAP1 JUMPDEST DUP2 SLOAD DUP2 MSTORE SWAP1 PUSH1 0x1 ADD SWAP1 PUSH1 0x20 ADD DUP1 DUP4 GT PUSH2 0x146A JUMPI DUP3 SWAP1 SUB PUSH1 0x1F AND DUP3 ADD SWAP2 JUMPDEST POP POP POP POP POP DUP2 JUMP JUMPDEST PUSH0 DUP1 SLOAD SWAP1 PUSH2 0x100 EXP SWAP1 DIV PUSH20 0xFFFFFFFFFFFFFFFFFFFFFFFFFFFFFFFFFFFFFFFF AND PUSH20 0xFFFFFFFFFFFFFFFFFFFFFFFFFFFFFFFFFFFFFFFF AND CALLER PUSH20 0xFFFFFFFFFFFFFFFFFFFFFFFFFFFFFFFFFFFFFFFF AND EQ PUSH2 0x14E5 JUMPI PUSH0 DUP1 REVERT JUMPDEST PUSH0 PUSH1 0x8 PUSH0 SWAP1 SLOAD SWAP1 PUSH2 0x100 EXP SWAP1 DIV PUSH2 0xFFFF AND PUSH2 0xFFFF AND EQ PUSH2 0x153A JUMPI PUSH1 0x40 MLOAD PUSH32 0x8C379A000000000000000000000000000000000000000000000000000000000 DUP2 MSTORE PUSH1 0x4 ADD PUSH2 0x1531 SWAP1 PUSH2 0x23AA JUMP JUMPDEST PUSH1 0x40 MLOAD DUP1 SWAP2 SUB SWAP1 REVERT JUMPDEST DUP1 PUSH1 0x2 PUSH0 PUSH2 0x100 EXP DUP2 SLOAD DUP2 PUSH2 0xFFFF MUL NOT AND SWAP1 DUP4 PUSH2 0xFFFF AND MUL OR SWAP1 SSTORE POP POP JUMP JUMPDEST PUSH1 0xA PUSH1 0x1 SWAP1 SLOAD SWAP1 PUSH2 0x100 EXP SWAP1 DIV PUSH1 0xFF AND DUP2 JUMP JUMPDEST PUSH1 0x9 PUSH1 0x20 MSTORE DUP1 PUSH0 MSTORE PUSH1 0x40 PUSH0 KECCAK256 PUSH0 SWAP2 POP SLOAD SWAP1 PUSH2 0x100 EXP SWAP1 DIV PUSH1 0xFF AND DUP2 JUMP JUMPDEST PUSH0 PUSH6 0xFFFFFFFFFFFF DUP3 AND SWAP1 POP SWAP2 SWAP1 POP JUMP JUMPDEST PUSH2 0x15A3 DUP2 PUSH2 0x1589 JUMP JUMPDEST DUP3 MSTORE POP POP JUMP JUMPDEST PUSH0 PUSH1 0x20 DUP3 ADD SWAP1 POP PUSH2 0x15BC PUSH0 DUP4 ADD DUP5 PUSH2 0x159A JUMP JUMPDEST SWAP3 SWAP2 POP POP JUMP JUMPDEST PUSH0 DUP2 ISZERO ISZERO SWAP1 POP SWAP2 SWAP1 POP JUMP JUMPDEST PUSH2 0x15D6 DUP2 PUSH2 0x15C2 JUMP JUMPDEST DUP3 MSTORE POP POP JUMP JUMPDEST PUSH0 PUSH1 0x20 DUP3 ADD SWAP1 POP PUSH2 0x15EF PUSH0 DUP4 ADD DUP5 PUSH2 0x15CD JUMP JUMPDEST SWAP3 SWAP2 POP POP JUMP JUMPDEST PUSH0 PUSH4 0xFFFFFFFF DUP3 AND SWAP1 POP SWAP2 SWAP1 POP JUMP JUMPDEST PUSH2 0x160D DUP2 PUSH2 0x15F5 JUMP JUMPDEST DUP3 MSTORE POP POP JUMP JUMPDEST PUSH0 PUSH1 0x20 DUP3 ADD SWAP1 POP PUSH2 0x1626 PUSH0 DUP4 ADD DUP5 PUSH2 0x1604 JUMP JUMPDEST SWAP3 SWAP2 POP POP JUMP JUMPDEST PUSH0 DUP1 REVERT JUMPDEST PUSH2 0x1639 DUP2 PUSH2 0x15F5 JUMP JUMPDEST DUP2 EQ PUSH2 0x1643 JUMPI PUSH0 DUP1 REVERT JUMPDEST POP JUMP JUMPDEST PUSH0 DUP2 CALLDATALOAD SWAP1 POP PUSH2 0x1654 DUP2 PUSH2 0x1630 JUMP JUMPDEST SWAP3 SWAP2 POP POP JUMP JUMPDEST PUSH0 PUSH1 0x20 DUP3 DUP5 SUB SLT ISZERO PUSH2 0x166F JUMPI PUSH2 0x166E PUSH2 0x162C JUMP JUMPDEST JUMPDEST PUSH0 PUSH2 0x167C DUP5 DUP3 DUP6 ADD PUSH2 0x1646 JUMP JUMPDEST SWAP2 POP POP SWAP3 SWAP2 POP POP JUMP JUMPDEST PUSH0 PUSH20 0xFFFFFFFFFFFFFFFFFFFFFFFFFFFFFFFFFFFFFFFF DUP3 AND SWAP1 POP SWAP2 SWAP1 POP JUMP JUMPDEST PUSH0 PUSH2 0x16AE DUP3 PUSH2 0x1685 JUMP JUMPDEST SWAP1 POP SWAP2 SWAP1 POP JUMP JUMPDEST PUSH2 0x16BE DUP2 PUSH2 0x16A4 JUMP JUMPDEST DUP2 EQ PUSH2 0x16C8 JUMPI PUSH0 DUP1 REVERT JUMPDEST POP JUMP JUMPDEST PUSH0 DUP2 CALLDATALOAD SWAP1 POP PUSH2 0x16D9 DUP2 PUSH2 0x16B5 JUMP JUMPDEST SWAP3 SWAP2 POP POP JUMP JUMPDEST PUSH0 PUSH1 0x20 DUP3 DUP5 SUB SLT ISZERO PUSH2 0x16F4 JUMPI PUSH2 0x16F3 PUSH2 0x162C JUMP JUMPDEST JUMPDEST PUSH0 PUSH2 0x1701 DUP5 DUP3 DUP6 ADD PUSH2 0x16CB JUMP JUMPDEST SWAP2 POP POP SWAP3 SWAP2 POP POP JUMP JUMPDEST PUSH0 PUSH2 0xFFFF DUP3 AND SWAP1 POP SWAP2 SWAP1 POP JUMP JUMPDEST PUSH2 0x1720 DUP2 PUSH2 0x170A JUMP JUMPDEST DUP3 MSTORE POP POP JUMP JUMPDEST PUSH0 PUSH1 0x20 DUP3 ADD SWAP1 POP PUSH2 0x1739 PUSH0 DUP4 ADD DUP5 PUSH2 0x1717 JUMP JUMPDEST SWAP3 SWAP2 POP POP JUMP JUMPDEST PUSH0 DUP2 MLOAD SWAP1 POP SWAP2 SWAP1 POP JUMP JUMPDEST PUSH0 DUP3 DUP3 MSTORE PUSH1 0x20 DUP3 ADD SWAP1 POP SWAP3 SWAP2 POP POP JUMP JUMPDEST PUSH0 JUMPDEST DUP4 DUP2 LT ISZERO PUSH2 0x1776 JUMPI DUP1 DUP3 ADD MLOAD DUP2 DUP5 ADD MSTORE PUSH1 0x20 DUP2 ADD SWAP1 POP PUSH2 0x175B JUMP JUMPDEST PUSH0 DUP5 DUP5 ADD MSTORE POP POP POP POP JUMP JUMPDEST PUSH0 PUSH1 0x1F NOT PUSH1 0x1F DUP4 ADD AND SWAP1 POP SWAP2 SWAP1 POP JUMP JUMPDEST PUSH0 PUSH2 0x179B DUP3 PUSH2 0x173F JUMP JUMPDEST PUSH2 0x17A5 DUP2 DUP6 PUSH2 0x1749 JUMP JUMPDEST SWAP4 POP PUSH2 0x17B5 DUP2 DUP6 PUSH1 0x20 DUP7 ADD PUSH2 0x1759 JUMP JUMPDEST PUSH2 0x17BE DUP2 PUSH2 0x1781 JUMP JUMPDEST DUP5 ADD SWAP2 POP POP SWAP3 SWAP2 POP POP JUMP JUMPDEST PUSH0 PUSH1 0x20 DUP3 ADD SWAP1 POP DUP2 DUP2 SUB PUSH0 DUP4 ADD MSTORE PUSH2 0x17E1 DUP2 DUP5 PUSH2 0x1791 JUMP JUMPDEST SWAP1 POP SWAP3 SWAP2 POP POP JUMP JUMPDEST PUSH2 0x17F2 DUP2 PUSH2 0x16A4 JUMP JUMPDEST DUP3 MSTORE POP POP JUMP JUMPDEST PUSH0 PUSH1 0x20 DUP3 ADD SWAP1 POP PUSH2 0x180B PUSH0 DUP4 ADD DUP5 PUSH2 0x17E9 JUMP JUMPDEST SWAP3 SWAP2 POP POP JUMP JUMPDEST PUSH2 0x181A DUP2 PUSH2 0x1589 JUMP JUMPDEST DUP2 EQ PUSH2 0x1824 JUMPI PUSH0 DUP1 REVERT JUMPDEST POP JUMP JUMPDEST PUSH0 DUP2 CALLDATALOAD SWAP1 POP PUSH2 0x1835 DUP2 PUSH2 0x1811 JUMP JUMPDEST SWAP3 SWAP2 POP POP JUMP JUMPDEST PUSH0 PUSH1 0x20 DUP3 DUP5 SUB SLT ISZERO PUSH2 0x1850 JUMPI PUSH2 0x184F PUSH2 0x162C JUMP JUMPDEST JUMPDEST PUSH0 PUSH2 0x185D DUP5 DUP3 DUP6 ADD PUSH2 0x1827 JUMP JUMPDEST SWAP2 POP POP SWAP3 SWAP2 POP POP JUMP JUMPDEST PUSH2 0x186F DUP2 PUSH2 0x170A JUMP JUMPDEST DUP2 EQ PUSH2 0x1879 JUMPI PUSH0 DUP1 REVERT JUMPDEST POP JUMP JUMPDEST PUSH0 DUP2 CALLDATALOAD SWAP1 POP PUSH2 0x188A DUP2 PUSH2 0x1866 JUMP JUMPDEST SWAP3 SWAP2 POP POP JUMP JUMPDEST PUSH0 PUSH1 0x20 DUP3 DUP5 SUB SLT ISZERO PUSH2 0x18A5 JUMPI PUSH2 0x18A4 PUSH2 0x162C JUMP JUMPDEST JUMPDEST PUSH0 PUSH2 0x18B2 DUP5 DUP3 DUP6 ADD PUSH2 0x187C JUMP JUMPDEST SWAP2 POP POP SWAP3 SWAP2 POP POP JUMP JUMPDEST PUSH32 0x457320676962742062657265697473204D6974737069656C65722E2050726569 PUSH0 DUP3 ADD MSTORE PUSH32 0x7361656E646572756E67206E69636874206D656872206D6F65676C6963682E00 PUSH1 0x20 DUP3 ADD MSTORE POP JUMP JUMPDEST PUSH0 PUSH2 0x1915 PUSH1 0x3F DUP4 PUSH2 0x1749 JUMP JUMPDEST SWAP2 POP PUSH2 0x1920 DUP3 PUSH2 0x18BB JUMP JUMPDEST PUSH1 0x40 DUP3 ADD SWAP1 POP SWAP2 SWAP1 POP JUMP JUMPDEST PUSH0 PUSH1 0x20 DUP3 ADD SWAP1 POP DUP2 DUP2 SUB PUSH0 DUP4 ADD MSTORE PUSH2 0x1942 DUP2 PUSH2 0x1909 JUMP JUMPDEST SWAP1 POP SWAP2 SWAP1 POP JUMP JUMPDEST PUSH32 0x457320676962742062657265697473204D6974737069656C65722E2041656E64 PUSH0 DUP3 ADD MSTORE PUSH32 0x6572756E67206E69636874206D656872206D6F65676C6963682E000000000000 PUSH1 0x20 DUP3 ADD MSTORE POP JUMP JUMPDEST PUSH0 PUSH2 0x19A3 PUSH1 0x3A DUP4 PUSH2 0x1749 JUMP JUMPDEST SWAP2 POP PUSH2 0x19AE DUP3 PUSH2 0x1949 JUMP JUMPDEST PUSH1 0x40 DUP3 ADD SWAP1 POP SWAP2 SWAP1 POP JUMP JUMPDEST PUSH0 PUSH1 0x20 DUP3 ADD SWAP1 POP DUP2 DUP2 SUB PUSH0 DUP4 ADD MSTORE PUSH2 0x19D0 DUP2 PUSH2 0x1997 JUMP JUMPDEST SWAP1 POP SWAP2 SWAP1 POP JUMP JUMPDEST PUSH32 0x4B65696E2050726569732070726F204D6974737069656C657200000000000000 PUSH0 DUP3 ADD MSTORE POP JUMP JUMPDEST PUSH0 PUSH2 0x1A0B PUSH1 0x19 DUP4 PUSH2 0x1749 JUMP JUMPDEST SWAP2 POP PUSH2 0x1A16 DUP3 PUSH2 0x19D7 JUMP JUMPDEST PUSH1 0x20 DUP3 ADD SWAP1 POP SWAP2 SWAP1 POP JUMP JUMPDEST PUSH0 PUSH1 0x20 DUP3 ADD SWAP1 POP DUP2 DUP2 SUB PUSH0 DUP4 ADD MSTORE PUSH2 0x1A38 DUP2 PUSH2 0x19FF JUMP JUMPDEST SWAP1 POP SWAP2 SWAP1 POP JUMP JUMPDEST PUSH32 0x5A7520676572696E6765722045696E7A61686C756E6773626574726167000000 PUSH0 DUP3 ADD MSTORE POP JUMP JUMPDEST PUSH0 PUSH2 0x1A73 PUSH1 0x1D DUP4 PUSH2 0x1749 JUMP JUMPDEST SWAP2 POP PUSH2 0x1A7E DUP3 PUSH2 0x1A3F JUMP JUMPDEST PUSH1 0x20 DUP3 ADD SWAP1 POP SWAP2 SWAP1 POP JUMP JUMPDEST PUSH0 PUSH1 0x20 DUP3 ADD SWAP1 POP DUP2 DUP2 SUB PUSH0 DUP4 ADD MSTORE PUSH2 0x1AA0 DUP2 PUSH2 0x1A67 JUMP JUMPDEST SWAP1 POP SWAP2 SWAP1 POP JUMP JUMPDEST PUSH32 0x4265726569747320616C73204D6974737069656C657220726567697374726965 PUSH0 DUP3 ADD MSTORE PUSH32 0x7274000000000000000000000000000000000000000000000000000000000000 PUSH1 0x20 DUP3 ADD MSTORE POP JUMP JUMPDEST PUSH0 PUSH2 0x1B01 PUSH1 0x22 DUP4 PUSH2 0x1749 JUMP JUMPDEST SWAP2 POP PUSH2 0x1B0C DUP3 PUSH2 0x1AA7 JUMP JUMPDEST PUSH1 0x40 DUP3 ADD SWAP1 POP SWAP2 SWAP1 POP JUMP JUMPDEST PUSH0 PUSH1 0x20 DUP3 ADD SWAP1 POP DUP2 DUP2 SUB PUSH0 DUP4 ADD MSTORE PUSH2 0x1B2E DUP2 PUSH2 0x1AF5 JUMP JUMPDEST SWAP1 POP SWAP2 SWAP1 POP JUMP JUMPDEST PUSH32 0x4D6178696D616C65205465696C6E65686D65727A61686C206572726569636874 PUSH0 DUP3 ADD MSTORE POP JUMP JUMPDEST PUSH0 PUSH2 0x1B69 PUSH1 0x20 DUP4 PUSH2 0x1749 JUMP JUMPDEST SWAP2 POP PUSH2 0x1B74 DUP3 PUSH2 0x1B35 JUMP JUMPDEST PUSH1 0x20 DUP3 ADD SWAP1 POP SWAP2 SWAP1 POP JUMP JUMPDEST PUSH0 PUSH1 0x20 DUP3 ADD SWAP1 POP DUP2 DUP2 SUB PUSH0 DUP4 ADD MSTORE PUSH2 0x1B96 DUP2 PUSH2 0x1B5D JUMP JUMPDEST SWAP1 POP SWAP2 SWAP1 POP JUMP JUMPDEST PUSH32 0x476577696E6E20777572646520626572656974732065696E67657A61686C7400 PUSH0 DUP3 ADD MSTORE POP JUMP JUMPDEST PUSH0 PUSH2 0x1BD1 PUSH1 0x1F DUP4 PUSH2 0x1749 JUMP JUMPDEST SWAP2 POP PUSH2 0x1BDC DUP3 PUSH2 0x1B9D JUMP JUMPDEST PUSH1 0x20 DUP3 ADD SWAP1 POP SWAP2 SWAP1 POP JUMP JUMPDEST PUSH0 PUSH1 0x20 DUP3 ADD SWAP1 POP DUP2 DUP2 SUB PUSH0 DUP4 ADD MSTORE PUSH2 0x1BFE DUP2 PUSH2 0x1BC5 JUMP JUMPDEST SWAP1 POP SWAP2 SWAP1 POP JUMP JUMPDEST PUSH0 DUP2 SWAP1 POP SWAP2 SWAP1 POP JUMP JUMPDEST PUSH32 0x4E487B7100000000000000000000000000000000000000000000000000000000 PUSH0 MSTORE PUSH1 0x11 PUSH1 0x4 MSTORE PUSH1 0x24 PUSH0 REVERT JUMPDEST PUSH0 PUSH2 0x1C45 DUP3 PUSH2 0x1C05 JUMP JUMPDEST SWAP2 POP PUSH2 0x1C50 DUP4 PUSH2 0x1C05 JUMP JUMPDEST SWAP3 POP DUP3 DUP3 SUB SWAP1 POP DUP2 DUP2 GT ISZERO PUSH2 0x1C68 JUMPI PUSH2 0x1C67 PUSH2 0x1C0E JUMP JUMPDEST JUMPDEST SWAP3 SWAP2 POP POP JUMP JUMPDEST PUSH0 PUSH2 0x1C78 DUP3 PUSH2 0x170A JUMP JUMPDEST SWAP2 POP PUSH2 0xFFFF DUP3 SUB PUSH2 0x1C8C JUMPI PUSH2 0x1C8B PUSH2 0x1C0E JUMP JUMPDEST JUMPDEST PUSH1 0x1 DUP3 ADD SWAP1 POP SWAP2 SWAP1 POP JUMP JUMPDEST PUSH32 0x4E6F2072652D656E7472616E6379000000000000000000000000000000000000 PUSH0 DUP3 ADD MSTORE POP JUMP JUMPDEST PUSH0 PUSH2 0x1CCB PUSH1 0xE DUP4 PUSH2 0x1749 JUMP JUMPDEST SWAP2 POP PUSH2 0x1CD6 DUP3 PUSH2 0x1C97 JUMP JUMPDEST PUSH1 0x20 DUP3 ADD SWAP1 POP SWAP2 SWAP1 POP JUMP JUMPDEST PUSH0 PUSH1 0x20 DUP3 ADD SWAP1 POP DUP2 DUP2 SUB PUSH0 DUP4 ADD MSTORE PUSH2 0x1CF8 DUP2 PUSH2 0x1CBF JUMP JUMPDEST SWAP1 POP SWAP2 SWAP1 POP JUMP JUMPDEST PUSH32 0x476577696E6E206B616E6E206E6F6368206E696368742061626765686F6C7420 PUSH0 DUP3 ADD MSTORE PUSH32 0x77657264656E2E00000000000000000000000000000000000000000000000000 PUSH1 0x20 DUP3 ADD MSTORE POP JUMP JUMPDEST PUSH0 PUSH2 0x1D59 PUSH1 0x27 DUP4 PUSH2 0x1749 JUMP JUMPDEST SWAP2 POP PUSH2 0x1D64 DUP3 PUSH2 0x1CFF JUMP JUMPDEST PUSH1 0x40 DUP3 ADD SWAP1 POP SWAP2 SWAP1 POP JUMP JUMPDEST PUSH0 PUSH1 0x20 DUP3 ADD SWAP1 POP DUP2 DUP2 SUB PUSH0 DUP4 ADD MSTORE PUSH2 0x1D86 DUP2 PUSH2 0x1D4D JUMP JUMPDEST SWAP1 POP SWAP2 SWAP1 POP JUMP JUMPDEST PUSH32 0x4B65696E20476577696E6E207A7572204175737A61686C756E67207665726675 PUSH0 DUP3 ADD MSTORE PUSH32 0x65676261722E0000000000000000000000000000000000000000000000000000 PUSH1 0x20 DUP3 ADD MSTORE POP JUMP JUMPDEST PUSH0 PUSH2 0x1DE7 PUSH1 0x26 DUP4 PUSH2 0x1749 JUMP JUMPDEST SWAP2 POP PUSH2 0x1DF2 DUP3 PUSH2 0x1D8D JUMP JUMPDEST PUSH1 0x40 DUP3 ADD SWAP1 POP SWAP2 SWAP1 POP JUMP JUMPDEST PUSH0 PUSH1 0x20 DUP3 ADD SWAP1 POP DUP2 DUP2 SUB PUSH0 DUP4 ADD MSTORE PUSH2 0x1E14 DUP2 PUSH2 0x1DDB JUMP JUMPDEST SWAP1 POP SWAP2 SWAP1 POP JUMP JUMPDEST PUSH32 0x476577696E6E20777572646520626572656974732061626765686F6C742E0000 PUSH0 DUP3 ADD MSTORE POP JUMP JUMPDEST PUSH0 PUSH2 0x1E4F PUSH1 0x1E DUP4 PUSH2 0x1749 JUMP JUMPDEST SWAP2 POP PUSH2 0x1E5A DUP3 PUSH2 0x1E1B JUMP JUMPDEST PUSH1 0x20 DUP3 ADD SWAP1 POP SWAP2 SWAP1 POP JUMP JUMPDEST PUSH0 PUSH1 0x20 DUP3 ADD SWAP1 POP DUP2 DUP2 SUB PUSH0 DUP4 ADD MSTORE PUSH2 0x1E7C DUP2 PUSH2 0x1E43 JUMP JUMPDEST SWAP1 POP SWAP2 SWAP1 POP JUMP JUMPDEST PUSH32 0x4E487B7100000000000000000000000000000000000000000000000000000000 PUSH0 MSTORE PUSH1 0x22 PUSH1 0x4 MSTORE PUSH1 0x24 PUSH0 REVERT JUMPDEST PUSH0 PUSH1 0x2 DUP3 DIV SWAP1 POP PUSH1 0x1 DUP3 AND DUP1 PUSH2 0x1EC7 JUMPI PUSH1 0x7F DUP3 AND SWAP2 POP JUMPDEST PUSH1 0x20 DUP3 LT DUP2 SUB PUSH2 0x1EDA JUMPI PUSH2 0x1ED9 PUSH2 0x1E83 JUMP JUMPDEST JUMPDEST POP SWAP2 SWAP1 POP JUMP JUMPDEST PUSH32 0x47656D65696E736368616674206D7573732061756667656C6F65737420736569 PUSH0 DUP3 ADD MSTORE PUSH32 0x6E2E000000000000000000000000000000000000000000000000000000000000 PUSH1 0x20 DUP3 ADD MSTORE POP JUMP JUMPDEST PUSH0 PUSH2 0x1F3A PUSH1 0x22 DUP4 PUSH2 0x1749 JUMP JUMPDEST SWAP2 POP PUSH2 0x1F45 DUP3 PUSH2 0x1EE0 JUMP JUMPDEST PUSH1 0x40 DUP3 ADD SWAP1 POP SWAP2 SWAP1 POP JUMP JUMPDEST PUSH0 PUSH1 0x20 DUP3 ADD SWAP1 POP DUP2 DUP2 SUB PUSH0 DUP4 ADD MSTORE PUSH2 0x1F67 DUP2 PUSH2 0x1F2E JUMP JUMPDEST SWAP1 POP SWAP2 SWAP1 POP JUMP JUMPDEST PUSH32 0x45696E7361747A2077757264652062657265697473207A75727565636B67657A PUSH0 DUP3 ADD MSTORE PUSH32 0x61686C742E000000000000000000000000000000000000000000000000000000 PUSH1 0x20 DUP3 ADD MSTORE POP JUMP JUMPDEST PUSH0 PUSH2 0x1FC8 PUSH1 0x25 DUP4 PUSH2 0x1749 JUMP JUMPDEST SWAP2 POP PUSH2 0x1FD3 DUP3 PUSH2 0x1F6E JUMP JUMPDEST PUSH1 0x40 DUP3 ADD SWAP1 POP SWAP2 SWAP1 POP JUMP JUMPDEST PUSH0 PUSH1 0x20 DUP3 ADD SWAP1 POP DUP2 DUP2 SUB PUSH0 DUP4 ADD MSTORE PUSH2 0x1FF5 DUP2 PUSH2 0x1FBC JUMP JUMPDEST SWAP1 POP SWAP2 SWAP1 POP JUMP JUMPDEST PUSH0 DUP2 SWAP1 POP SWAP3 SWAP2 POP POP JUMP JUMPDEST POP JUMP JUMPDEST PUSH0 PUSH2 0x2014 PUSH0 DUP4 PUSH2 0x1FFC JUMP JUMPDEST SWAP2 POP PUSH2 0x201F DUP3 PUSH2 0x2006 JUMP JUMPDEST PUSH0 DUP3 ADD SWAP1 POP SWAP2 SWAP1 POP JUMP JUMPDEST PUSH0 PUSH2 0x2033 DUP3 PUSH2 0x2009 JUMP JUMPDEST SWAP2 POP DUP2 SWAP1 POP SWAP2 SWAP1 POP JUMP JUMPDEST PUSH32 0x527565636B7A61686C756E67206465732045696E7361747A6573206665686C67 PUSH0 DUP3 ADD MSTORE PUSH32 0x657363686C6167656E2E00000000000000000000000000000000000000000000 PUSH1 0x20 DUP3 ADD MSTORE POP JUMP JUMPDEST PUSH0 PUSH2 0x2097 PUSH1 0x2A DUP4 PUSH2 0x1749 JUMP JUMPDEST SWAP2 POP PUSH2 0x20A2 DUP3 PUSH2 0x203D JUMP JUMPDEST PUSH1 0x40 DUP3 ADD SWAP1 POP SWAP2 SWAP1 POP JUMP JUMPDEST PUSH0 PUSH1 0x20 DUP3 ADD SWAP1 POP DUP2 DUP2 SUB PUSH0 DUP4 ADD MSTORE PUSH2 0x20C4 DUP2 PUSH2 0x208B JUMP JUMPDEST SWAP1 POP SWAP2 SWAP1 POP JUMP JUMPDEST PUSH32 0x476577696E6E206D757373206E6F63682061757367657A61686C742077657264 PUSH0 DUP3 ADD MSTORE PUSH32 0x656E000000000000000000000000000000000000000000000000000000000000 PUSH1 0x20 DUP3 ADD MSTORE POP JUMP JUMPDEST PUSH0 PUSH2 0x2125 PUSH1 0x22 DUP4 PUSH2 0x1749 JUMP JUMPDEST SWAP2 POP PUSH2 0x2130 DUP3 PUSH2 0x20CB JUMP JUMPDEST PUSH1 0x40 DUP3 ADD SWAP1 POP SWAP2 SWAP1 POP JUMP JUMPDEST PUSH0 PUSH1 0x20 DUP3 ADD SWAP1 POP DUP2 DUP2 SUB PUSH0 DUP4 ADD MSTORE PUSH2 0x2152 DUP2 PUSH2 0x2119 JUMP JUMPDEST SWAP1 POP SWAP2 SWAP1 POP JUMP JUMPDEST PUSH32 0x47656D65696E73636861667420626572656974732061756667656C6F65737400 PUSH0 DUP3 ADD MSTORE POP JUMP JUMPDEST PUSH0 PUSH2 0x218D PUSH1 0x1F DUP4 PUSH2 0x1749 JUMP JUMPDEST SWAP2 POP PUSH2 0x2198 DUP3 PUSH2 0x2159 JUMP JUMPDEST PUSH1 0x20 DUP3 ADD SWAP1 POP SWAP2 SWAP1 POP JUMP JUMPDEST PUSH0 PUSH1 0x20 DUP3 ADD SWAP1 POP DUP2 DUP2 SUB PUSH0 DUP4 ADD MSTORE PUSH2 0x21BA DUP2 PUSH2 0x2181 JUMP JUMPDEST SWAP1 POP SWAP2 SWAP1 POP JUMP JUMPDEST PUSH32 0x45696E7A61686C756E6773626574726167206D7573732067726F657373657220 PUSH0 DUP3 ADD MSTORE PUSH32 0x616C732030207365696E00000000000000000000000000000000000000000000 PUSH1 0x20 DUP3 ADD MSTORE POP JUMP JUMPDEST PUSH0 PUSH2 0x221B PUSH1 0x2A DUP4 PUSH2 0x1749 JUMP JUMPDEST SWAP2 POP PUSH2 0x2226 DUP3 PUSH2 0x21C1 JUMP JUMPDEST PUSH1 0x40 DUP3 ADD SWAP1 POP SWAP2 SWAP1 POP JUMP JUMPDEST PUSH0 PUSH1 0x20 DUP3 ADD SWAP1 POP DUP2 DUP2 SUB PUSH0 DUP4 ADD MSTORE PUSH2 0x2248 DUP2 PUSH2 0x220F JUMP JUMPDEST SWAP1 POP SWAP2 SWAP1 POP JUMP JUMPDEST PUSH32 0x476577696E6E20777572646520626572656974732065696E67657A61686C742E PUSH0 DUP3 ADD MSTORE POP JUMP JUMPDEST PUSH0 PUSH2 0x2283 PUSH1 0x20 DUP4 PUSH2 0x1749 JUMP JUMPDEST SWAP2 POP PUSH2 0x228E DUP3 PUSH2 0x224F JUMP JUMPDEST PUSH1 0x20 DUP3 ADD SWAP1 POP SWAP2 SWAP1 POP JUMP JUMPDEST PUSH0 PUSH1 0x20 DUP3 ADD SWAP1 POP DUP2 DUP2 SUB PUSH0 DUP4 ADD MSTORE PUSH2 0x22B0 DUP2 PUSH2 0x2277 JUMP JUMPDEST SWAP1 POP SWAP2 SWAP1 POP JUMP JUMPDEST PUSH32 0x4E487B7100000000000000000000000000000000000000000000000000000000 PUSH0 MSTORE PUSH1 0x12 PUSH1 0x4 MSTORE PUSH1 0x24 PUSH0 REVERT JUMPDEST PUSH0 PUSH2 0x22EE DUP3 PUSH2 0x1589 JUMP JUMPDEST SWAP2 POP PUSH2 0x22F9 DUP4 PUSH2 0x1589 JUMP JUMPDEST SWAP3 POP DUP3 PUSH2 0x2309 JUMPI PUSH2 0x2308 PUSH2 0x22B7 JUMP JUMPDEST JUMPDEST DUP3 DUP3 DIV SWAP1 POP SWAP3 SWAP2 POP POP JUMP JUMPDEST PUSH32 0x457320676962742062657265697473204D6974737069656C65722E2041656E64 PUSH0 DUP3 ADD MSTORE PUSH32 0x6572756E672064657220416E7A61686C20616E204D6974737069656C65726E20 PUSH1 0x20 DUP3 ADD MSTORE PUSH32 0x6E69636874206D656872206D6F65676C6963682E000000000000000000000000 PUSH1 0x40 DUP3 ADD MSTORE POP JUMP JUMPDEST PUSH0 PUSH2 0x2394 PUSH1 0x54 DUP4 PUSH2 0x1749 JUMP JUMPDEST SWAP2 POP PUSH2 0x239F DUP3 PUSH2 0x2314 JUMP JUMPDEST PUSH1 0x60 DUP3 ADD SWAP1 POP SWAP2 SWAP1 POP JUMP JUMPDEST PUSH0 PUSH1 0x20 DUP3 ADD SWAP1 POP DUP2 DUP2 SUB PUSH0 DUP4 ADD MSTORE PUSH2 0x23C1 DUP2 PUSH2 0x2388 JUMP JUMPDEST SWAP1 POP SWAP2 SWAP1 POP JUMP INVALID LOG2 PUSH5 0x6970667358 0x22 SLT KECCAK256 0x24 PUSH16 0x738224FBC1734B1E1082D45CD6AB19AA DUP2 SWAP15 0x1E CALLER SELFDESTRUCT 0xB9 PC PUSH2 0xF4E 0xBA CALLDATASIZE KECCAK256 0x25 PUSH5 0x736F6C6343 STOP ADDMOD OR STOP CALLER "},"gasEstimates":{"creation":{"codeDepositCost":"1842800","executionCost":"infinite","totalCost":"infinite"},"external":{"anzahlMitspielerAendern(uint16)":"29090","anzahlTeilnehmerAktuell()":"2489","aufgeloest()":"2627","auszahlung()":"2490","einsatzZurueckGezahlt(address)":"2855","einsatzZurueckholen()":"infinite","erlaubteMitspielerAdresseHinzufuegen(address)":"29199","erlaubterMitspieler(address)":"2965","gemeinschaftAufloesen()":"31152","gewinnAbholen()":"infinite","gewinnAusgezahlt(address)":"2878","gewinnEinzahlen(uint48)":"infinite","gewinnKannAbgeholtWerden()":"2582","gewinnProMitspieler()":"2563","gruender()":"2616","maxTeilnehmerAnzahl()":"2577","mitmachen()":"infinite","mitspieler(address)":"2967","nurErlaubteMitspieler()":"2650","preisLottoschein()":"2559","preisLottoscheinAendern(uint32)":"29165","preisProMitspieler()":"2607","spielauftragsNummer()":"infinite","tippgemeinschaftsName()":"infinite"}},"methodIdentifiers":{"anzahlMitspielerAendern(uint16)":"e068561a","anzahlTeilnehmerAktuell()":"3babb15a","aufgeloest()":"e34ad1d7","auszahlung()":"084263f5","einsatzZurueckGezahlt(address)":"bb68a67f","einsatzZurueckholen()":"a299f171","erlaubteMitspielerAdresseHinzufuegen(address)":"43767832","erlaubterMitspieler(address)":"e86c5692","gemeinschaftAufloesen()":"ab76211e","gewinnAbholen()":"833e92cb","gewinnAusgezahlt(address)":"91243239","gewinnEinzahlen(uint48)":"c6ca9d19","gewinnKannAbgeholtWerden()":"2340983f","gewinnProMitspieler()":"0f085e50","gruender()":"ad2c046c","maxTeilnehmerAnzahl()":"70a41bc0","mitmachen()":"526024ea","mitspieler(address)":"36927060","nurErlaubteMitspieler()":"b08c7076","preisLottoschein()":"3f0f5d51","preisLottoscheinAendern(uint32)":"31c45120","preisProMitspieler()":"2df368a5","spielauftragsNummer()":"8acb4624","tippgemeinschaftsName()":"d27d06c0"}},"storageLayout":{"storage":[{"astId":160,"contract":"Lottogemeinschaft.sol:Lottogemeinschaft","label":"gruender","offset":0,"slot":"0","type":"t_address"},{"astId":162,"contract":"Lottogemeinschaft.sol:Lottogemeinschaft","label":"tippgemeinschaftsName","offset":0,"slot":"1","type":"t_string_storage"},{"astId":164,"contract":"Lottogemeinschaft.sol:Lottogemeinschaft","label":"maxTeilnehmerAnzahl","offset":0,"slot":"2","type":"t_uint16"},{"astId":166,"contract":"Lottogemeinschaft.sol:Lottogemeinschaft","label":"preisLottoschein","offset":2,"slot":"2","type":"t_uint32"},{"astId":168,"contract":"Lottogemeinschaft.sol:Lottogemeinschaft","label":"preisProMitspieler","offset":6,"slot":"2","type":"t_uint32"},{"astId":170,"contract":"Lottogemeinschaft.sol:Lottogemeinschaft","label":"spielauftragsNummer","offset":0,"slot":"3","type":"t_string_storage"},{"astId":172,"contract":"Lottogemeinschaft.sol:Lottogemeinschaft","label":"auszahlung","offset":0,"slot":"4","type":"t_uint48"},{"astId":176,"contract":"Lottogemeinschaft.sol:Lottogemeinschaft","label":"mitspieler","offset":0,"slot":"5","type":"t_mapping(t_address,t_bool)"},{"astId":180,"contract":"Lottogemeinschaft.sol:Lottogemeinschaft","label":"gewinnAusgezahlt","offset":0,"slot":"6","type":"t_mapping(t_address,t_bool)"},{"astId":184,"contract":"Lottogemeinschaft.sol:Lottogemeinschaft","label":"einsatzZurueckGezahlt","offset":0,"slot":"7","type":"t_mapping(t_address,t_bool)"},{"astId":186,"contract":"Lottogemeinschaft.sol:Lottogemeinschaft","label":"anzahlTeilnehmerAktuell","offset":0,"slot":"8","type":"t_uint16"},{"astId":189,"contract":"Lottogemeinschaft.sol:Lottogemeinschaft","label":"gewinnProMitspieler","offset":2,"slot":"8","type":"t_uint48"},{"astId":192,"contract":"Lottogemeinschaft.sol:Lottogemeinschaft","label":"gewinnKannAbgeholtWerden","offset":8,"slot":"8","type":"t_bool"},{"astId":195,"contract":"Lottogemeinschaft.sol:Lottogemeinschaft","label":"nurErlaubteMitspieler","offset":9,"slot":"8","type":"t_bool"},{"astId":199,"contract":"Lottogemeinschaft.sol:Lottogemeinschaft","label":"erlaubterMitspieler","offset":0,"slot":"9","type":"t_mapping(t_address,t_bool)"},{"astId":201,"contract":"Lottogemeinschaft.sol:Lottogemeinschaft","label":"locked","offset":0,"slot":"10","type":"t_bool"},{"astId":203,"contract":"Lottogemeinschaft.sol:Lottogemeinschaft","label":"aufgeloest","offset":1,"slot":"10","type":"t_bool"}],"types":{"t_address":{"encoding":"inplace","label":"address","numberOfBytes":"20"},"t_bool":{"encoding":"inplace","label":"bool","numberOfBytes":"1"},"t_mapping(t_address,t_bool)":{"encoding":"mapping","key":"t_address","label":"mapping(address => bool)","numberOfBytes":"32","value":"t_bool"},"t_string_storage":{"encoding":"bytes","label":"string","numberOfBytes":"32"},"t_uint16":{"encoding":"inplace","label":"uint16","numberOfBytes":"2"},"t_uint32":{"encoding":"inplace","label":"uint32","numberOfBytes":"4"},"t_uint48":{"encoding":"inplace","label":"uint48","numberOfBytes":"6"}}},"userdoc":{"kind":"user","methods":{},"version":1}}