{"abi":[{"inputs":[{"internalType":"string","name":"name","type":"string"},{"internalType":"address","name":"ersteller","type":"address"},{"internalType":"uint16","name":"anzahl","type":"uint16"},{"internalType":"uint32","name":"preis","type":"uint32"},{"internalType":"string","name":"scheinNummer","type":"string"},{"internalType":"bool","name":"mitspielerBestimmen","type":"bool"}],"stateMutability":"nonpayable","type":"constructor"},{"inputs":[{"internalType":"uint16","name":"neueAnzahlMaxTeilnehmer","type":"uint16"}],"name":"anzahlMitspielerAendern","outputs":[],"stateMutability":"nonpayable","type":"function"},{"inputs":[],"name":"anzahlTeilnehmerAktuell","outputs":[{"internalType":"uint16","name":"","type":"uint16"}],"stateMutability":"view","type":"function"},{"inputs":[],"name":"auszahlung","outputs":[{"internalType":"uint48","name":"","type":"uint48"}],"stateMutability":"view","type":"function"},{"inputs":[{"internalType":"address","name":"erlaubterMitspieler","type":"address"}],"name":"erlaubteMitspielerAdresseHinzufuegen","outputs":[],"stateMutability":"nonpayable","type":"function"},{"inputs":[{"internalType":"address","name":"","type":"address"}],"name":"gewinnAusgezahlt","outputs":[{"internalType":"bool","name":"","type":"bool"}],"stateMutability":"view","type":"function"},{"inputs":[],"name":"gewinnAuszahlen","outputs":[],"stateMutability":"nonpayable","type":"function"},{"inputs":[{"internalType":"uint48","name":"gewinn","type":"uint48"}],"name":"gewinnEinzahlen","outputs":[],"stateMutability":"payable","type":"function"},{"inputs":[],"name":"gewinnProMitspieler","outputs":[{"internalType":"uint48","name":"","type":"uint48"}],"stateMutability":"view","type":"function"},{"inputs":[],"name":"gruender","outputs":[{"internalType":"address","name":"","type":"address"}],"stateMutability":"view","type":"function"},{"inputs":[],"name":"kannGewinnAbgeholtWerden","outputs":[{"internalType":"bool","name":"","type":"bool"}],"stateMutability":"view","type":"function"},{"inputs":[],"name":"maxTeilnehmerAnzahl","outputs":[{"internalType":"uint16","name":"","type":"uint16"}],"stateMutability":"view","type":"function"},{"inputs":[],"name":"mitmachen","outputs":[],"stateMutability":"payable","type":"function"},{"inputs":[{"internalType":"address","name":"","type":"address"}],"name":"mitspieler","outputs":[{"internalType":"bool","name":"","type":"bool"}],"stateMutability":"view","type":"function"},{"inputs":[],"name":"nurErlaubteMitspieler","outputs":[{"internalType":"bool","name":"","type":"bool"}],"stateMutability":"view","type":"function"},{"inputs":[],"name":"preisLottoschein","outputs":[{"internalType":"uint32","name":"","type":"uint32"}],"stateMutability":"view","type":"function"},{"inputs":[{"internalType":"uint32","name":"neuerPreis","type":"uint32"}],"name":"preisLottoscheinAendern","outputs":[],"stateMutability":"nonpayable","type":"function"},{"inputs":[],"name":"preisProMitspieler","outputs":[{"internalType":"uint32","name":"","type":"uint32"}],"stateMutability":"view","type":"function"},{"inputs":[],"name":"spielauftragsNummer","outputs":[{"internalType":"string","name":"","type":"string"}],"stateMutability":"view","type":"function"},{"inputs":[],"name":"tippgemeinschaftsName","outputs":[{"internalType":"string","name":"","type":"string"}],"stateMutability":"view","type":"function"}],"devdoc":{"kind":"dev","methods":{},"version":1},"evm":{"assembly":"    /* \"Lottogemeinschaft.sol\":1709:6411  contract Lottogemeinschaft {... */\n  mstore(0x40, 0x80)\n    /* \"Lottogemeinschaft.sol\":2176:2177  0 */\n  0x00\n    /* \"Lottogemeinschaft.sol\":2140:2177  uint48 public gewinnProMitspieler = 0 */\n  0x07\n  exp(0x0100, 0x02)\n  dup2\n  sload\n  dup2\n  0xffffffffffff\n  mul\n  not\n  and\n  swap1\n  dup4\n  0xffffffffffff\n  and\n  mul\n  or\n  swap1\n  sstore\n  pop\n    /* \"Lottogemeinschaft.sol\":2220:2225  false */\n  0x00\n    /* \"Lottogemeinschaft.sol\":2183:2225  bool public kannGewinnAbgeholtWerden=false */\n  0x07\n  exp(0x0100, 0x08)\n  dup2\n  sload\n  dup2\n  0xff\n  mul\n  not\n  and\n  swap1\n  dup4\n  iszero\n  iszero\n  mul\n  or\n  swap1\n  sstore\n  pop\n    /* \"Lottogemeinschaft.sol\":2265:2270  false */\n  0x00\n    /* \"Lottogemeinschaft.sol\":2231:2270  bool public nurErlaubteMitspieler=false */\n  0x07\n  exp(0x0100, 0x09)\n  dup2\n  sload\n  dup2\n  0xff\n  mul\n  not\n  and\n  swap1\n  dup4\n  iszero\n  iszero\n  mul\n  or\n  swap1\n  sstore\n  pop\n    /* \"Lottogemeinschaft.sol\":2351:2995  constructor (string memory name, address ersteller, uint16 anzahl, uint32 preis, string memory scheinNummer, bool mitspielerBestimmen) {... */\n  callvalue\n  dup1\n  iszero\n  tag_1\n  jumpi\n  0x00\n  dup1\n  revert\ntag_1:\n  pop\n  mload(0x40)\n  sub(codesize, bytecodeSize)\n  dup1\n  bytecodeSize\n  dup4\n  codecopy\n  dup2\n  dup2\n  add\n  0x40\n  mstore\n  dup2\n  add\n  swap1\n  tag_2\n  swap2\n  swap1\n  tag_3\n  jump\t// in\ntag_2:\n    /* \"Lottogemeinschaft.sol\":2513:2518  65535 */\n  0xffff\n    /* \"Lottogemeinschaft.sol\":2504:2510  anzahl */\n  dup5\n    /* \"Lottogemeinschaft.sol\":2504:2518  anzahl < 65535 */\n  0xffff\n  and\n  lt\n    /* \"Lottogemeinschaft.sol\":2496:2555  require(anzahl < 65535, \"Maximal 65534 Mitspieler erlaubt\") */\n  tag_6\n  jumpi\n  mload(0x40)\n  0x08c379a000000000000000000000000000000000000000000000000000000000\n  dup2\n  mstore\n  0x04\n  add\n  tag_7\n  swap1\n  tag_8\n  jump\t// in\ntag_7:\n  mload(0x40)\n  dup1\n  swap2\n  sub\n  swap1\n  revert\ntag_6:\n    /* \"Lottogemeinschaft.sol\":2581:2591  4294967295 */\n  0xffffffff\n    /* \"Lottogemeinschaft.sol\":2573:2578  preis */\n  dup4\n    /* \"Lottogemeinschaft.sol\":2573:2591  preis < 4294967295 */\n  0xffffffff\n  and\n  lt\n    /* \"Lottogemeinschaft.sol\":2565:2622  require(preis < 4294967295, \"Maximaler Preis 4294967295\") */\n  tag_9\n  jumpi\n  mload(0x40)\n  0x08c379a000000000000000000000000000000000000000000000000000000000\n  dup2\n  mstore\n  0x04\n  add\n  tag_10\n  swap1\n  tag_11\n  jump\t// in\ntag_10:\n  mload(0x40)\n  dup1\n  swap2\n  sub\n  swap1\n  revert\ntag_9:\n    /* \"Lottogemeinschaft.sol\":2643:2652  ersteller */\n  dup5\n    /* \"Lottogemeinschaft.sol\":2632:2640  gruender */\n  0x00\n  dup1\n    /* \"Lottogemeinschaft.sol\":2632:2652  gruender = ersteller */\n  0x0100\n  exp\n  dup2\n  sload\n  dup2\n  0xffffffffffffffffffffffffffffffffffffffff\n  mul\n  not\n  and\n  swap1\n  dup4\n  0xffffffffffffffffffffffffffffffffffffffff\n  and\n  mul\n  or\n  swap1\n  sstore\n  pop\n    /* \"Lottogemeinschaft.sol\":2686:2690  name */\n  dup6\n    /* \"Lottogemeinschaft.sol\":2662:2683  tippgemeinschaftsName */\n  0x01\n    /* \"Lottogemeinschaft.sol\":2662:2690  tippgemeinschaftsName = name */\n  swap1\n  dup2\n  tag_12\n  swap2\n  swap1\n  tag_13\n  jump\t// in\ntag_12:\n  pop\n    /* \"Lottogemeinschaft.sol\":2722:2728  anzahl */\n  dup4\n    /* \"Lottogemeinschaft.sol\":2700:2719  maxTeilnehmerAnzahl */\n  0x02\n  0x00\n    /* \"Lottogemeinschaft.sol\":2700:2728  maxTeilnehmerAnzahl = anzahl */\n  0x0100\n  exp\n  dup2\n  sload\n  dup2\n  0xffff\n  mul\n  not\n  and\n  swap1\n  dup4\n  0xffff\n  and\n  mul\n  or\n  swap1\n  sstore\n  pop\n    /* \"Lottogemeinschaft.sol\":2757:2762  preis */\n  dup3\n    /* \"Lottogemeinschaft.sol\":2738:2754  preisLottoschein */\n  0x02\n  dup1\n    /* \"Lottogemeinschaft.sol\":2738:2762  preisLottoschein = preis */\n  0x0100\n  exp\n  dup2\n  sload\n  dup2\n  0xffffffff\n  mul\n  not\n  and\n  swap1\n  dup4\n  0xffffffff\n  and\n  mul\n  or\n  swap1\n  sstore\n  pop\n    /* \"Lottogemeinschaft.sol\":2796:2815  mitspielerBestimmen */\n  dup1\n    /* \"Lottogemeinschaft.sol\":2772:2793  nurErlaubteMitspieler */\n  0x07\n  0x09\n    /* \"Lottogemeinschaft.sol\":2772:2815  nurErlaubteMitspieler = mitspielerBestimmen */\n  0x0100\n  exp\n  dup2\n  sload\n  dup2\n  0xff\n  mul\n  not\n  and\n  swap1\n  dup4\n  iszero\n  iszero\n  mul\n  or\n  swap1\n  sstore\n  pop\n    /* \"Lottogemeinschaft.sol\":2847:2859  scheinNummer */\n  dup2\n    /* \"Lottogemeinschaft.sol\":2825:2844  spielauftragsNummer */\n  0x03\n    /* \"Lottogemeinschaft.sol\":2825:2859  spielauftragsNummer = scheinNummer */\n  swap1\n  dup2\n  tag_14\n  swap2\n  swap1\n  tag_13\n  jump\t// in\ntag_14:\n  pop\n    /* \"Lottogemeinschaft.sol\":2954:2958  1e18 */\n  0x0de0b6b3a7640000\n    /* \"Lottogemeinschaft.sol\":2932:2951  maxTeilnehmerAnzahl */\n  0x02\n  0x00\n  swap1\n  sload\n  swap1\n  0x0100\n  exp\n  swap1\n  div\n  0xffff\n  and\n    /* \"Lottogemeinschaft.sol\":2897:2951  uint256(preisLottoschein) * 1e18 / maxTeilnehmerAnzahl */\n  0xffff\n  and\n    /* \"Lottogemeinschaft.sol\":2925:2929  1e18 */\n  0x0de0b6b3a7640000\n    /* \"Lottogemeinschaft.sol\":2905:2921  preisLottoschein */\n  0x02\n  dup1\n  sload\n  swap1\n  0x0100\n  exp\n  swap1\n  div\n  0xffffffff\n  and\n    /* \"Lottogemeinschaft.sol\":2897:2922  uint256(preisLottoschein) */\n  0xffffffff\n  and\n    /* \"Lottogemeinschaft.sol\":2897:2929  uint256(preisLottoschein) * 1e18 */\n  tag_15\n  swap2\n  swap1\n  tag_16\n  jump\t// in\ntag_15:\n    /* \"Lottogemeinschaft.sol\":2897:2951  uint256(preisLottoschein) * 1e18 / maxTeilnehmerAnzahl */\n  tag_17\n  swap2\n  swap1\n  tag_18\n  jump\t// in\ntag_17:\n    /* \"Lottogemeinschaft.sol\":2897:2958  uint256(preisLottoschein) * 1e18 / maxTeilnehmerAnzahl / 1e18 */\n  tag_19\n  swap2\n  swap1\n  tag_18\n  jump\t// in\ntag_19:\n    /* \"Lottogemeinschaft.sol\":2869:2887  preisProMitspieler */\n  0x02\n  0x06\n    /* \"Lottogemeinschaft.sol\":2869:2959  preisProMitspieler = uint32(uint256(preisLottoschein) * 1e18 / maxTeilnehmerAnzahl / 1e18) */\n  0x0100\n  exp\n  dup2\n  sload\n  dup2\n  0xffffffff\n  mul\n  not\n  and\n  swap1\n  dup4\n  0xffffffff\n  and\n  mul\n  or\n  swap1\n  sstore\n  pop\n    /* \"Lottogemeinschaft.sol\":2351:2995  constructor (string memory name, address ersteller, uint16 anzahl, uint32 preis, string memory scheinNummer, bool mitspielerBestimmen) {... */\n  pop\n  pop\n  pop\n  pop\n  pop\n  pop\n    /* \"Lottogemeinschaft.sol\":1709:6411  contract Lottogemeinschaft {... */\n  jump(tag_20)\n    /* \"#utility.yul\":7:82   */\ntag_21:\n    /* \"#utility.yul\":40:46   */\n  0x00\n    /* \"#utility.yul\":73:75   */\n  0x40\n    /* \"#utility.yul\":67:76   */\n  mload\n    /* \"#utility.yul\":57:76   */\n  swap1\n  pop\n    /* \"#utility.yul\":7:82   */\n  swap1\n  jump\t// out\n    /* \"#utility.yul\":88:205   */\ntag_22:\n    /* \"#utility.yul\":197:198   */\n  0x00\n    /* \"#utility.yul\":194:195   */\n  dup1\n    /* \"#utility.yul\":187:199   */\n  revert\n    /* \"#utility.yul\":211:328   */\ntag_23:\n    /* \"#utility.yul\":320:321   */\n  0x00\n    /* \"#utility.yul\":317:318   */\n  dup1\n    /* \"#utility.yul\":310:322   */\n  revert\n    /* \"#utility.yul\":334:451   */\ntag_24:\n    /* \"#utility.yul\":443:444   */\n  0x00\n    /* \"#utility.yul\":440:441   */\n  dup1\n    /* \"#utility.yul\":433:445   */\n  revert\n    /* \"#utility.yul\":457:574   */\ntag_25:\n    /* \"#utility.yul\":566:567   */\n  0x00\n    /* \"#utility.yul\":563:564   */\n  dup1\n    /* \"#utility.yul\":556:568   */\n  revert\n    /* \"#utility.yul\":580:682   */\ntag_26:\n    /* \"#utility.yul\":621:627   */\n  0x00\n    /* \"#utility.yul\":672:674   */\n  0x1f\n    /* \"#utility.yul\":668:675   */\n  not\n    /* \"#utility.yul\":663:665   */\n  0x1f\n    /* \"#utility.yul\":656:661   */\n  dup4\n    /* \"#utility.yul\":652:666   */\n  add\n    /* \"#utility.yul\":648:676   */\n  and\n    /* \"#utility.yul\":638:676   */\n  swap1\n  pop\n    /* \"#utility.yul\":580:682   */\n  swap2\n  swap1\n  pop\n  jump\t// out\n    /* \"#utility.yul\":688:868   */\ntag_27:\n    /* \"#utility.yul\":736:813   */\n  0x4e487b7100000000000000000000000000000000000000000000000000000000\n    /* \"#utility.yul\":733:734   */\n  0x00\n    /* \"#utility.yul\":726:814   */\n  mstore\n    /* \"#utility.yul\":833:837   */\n  0x41\n    /* \"#utility.yul\":830:831   */\n  0x04\n    /* \"#utility.yul\":823:838   */\n  mstore\n    /* \"#utility.yul\":857:861   */\n  0x24\n    /* \"#utility.yul\":854:855   */\n  0x00\n    /* \"#utility.yul\":847:862   */\n  revert\n    /* \"#utility.yul\":874:1155   */\ntag_28:\n    /* \"#utility.yul\":957:984   */\n  tag_82\n    /* \"#utility.yul\":979:983   */\n  dup3\n    /* \"#utility.yul\":957:984   */\n  tag_26\n  jump\t// in\ntag_82:\n    /* \"#utility.yul\":949:955   */\n  dup2\n    /* \"#utility.yul\":945:985   */\n  add\n    /* \"#utility.yul\":1087:1093   */\n  dup2\n    /* \"#utility.yul\":1075:1085   */\n  dup2\n    /* \"#utility.yul\":1072:1094   */\n  lt\n    /* \"#utility.yul\":1051:1069   */\n  0xffffffffffffffff\n    /* \"#utility.yul\":1039:1049   */\n  dup3\n    /* \"#utility.yul\":1036:1070   */\n  gt\n    /* \"#utility.yul\":1033:1095   */\n  or\n    /* \"#utility.yul\":1030:1118   */\n  iszero\n  tag_83\n  jumpi\n    /* \"#utility.yul\":1098:1116   */\n  tag_84\n  tag_27\n  jump\t// in\ntag_84:\n    /* \"#utility.yul\":1030:1118   */\ntag_83:\n    /* \"#utility.yul\":1138:1148   */\n  dup1\n    /* \"#utility.yul\":1134:1136   */\n  0x40\n    /* \"#utility.yul\":1127:1149   */\n  mstore\n    /* \"#utility.yul\":917:1155   */\n  pop\n    /* \"#utility.yul\":874:1155   */\n  pop\n  pop\n  jump\t// out\n    /* \"#utility.yul\":1161:1290   */\ntag_29:\n    /* \"#utility.yul\":1195:1201   */\n  0x00\n    /* \"#utility.yul\":1222:1242   */\n  tag_86\n  tag_21\n  jump\t// in\ntag_86:\n    /* \"#utility.yul\":1212:1242   */\n  swap1\n  pop\n    /* \"#utility.yul\":1251:1284   */\n  tag_87\n    /* \"#utility.yul\":1279:1283   */\n  dup3\n    /* \"#utility.yul\":1271:1277   */\n  dup3\n    /* \"#utility.yul\":1251:1284   */\n  tag_28\n  jump\t// in\ntag_87:\n    /* \"#utility.yul\":1161:1290   */\n  swap2\n  swap1\n  pop\n  jump\t// out\n    /* \"#utility.yul\":1296:1604   */\ntag_30:\n    /* \"#utility.yul\":1358:1362   */\n  0x00\n    /* \"#utility.yul\":1448:1466   */\n  0xffffffffffffffff\n    /* \"#utility.yul\":1440:1446   */\n  dup3\n    /* \"#utility.yul\":1437:1467   */\n  gt\n    /* \"#utility.yul\":1434:1490   */\n  iszero\n  tag_89\n  jumpi\n    /* \"#utility.yul\":1470:1488   */\n  tag_90\n  tag_27\n  jump\t// in\ntag_90:\n    /* \"#utility.yul\":1434:1490   */\ntag_89:\n    /* \"#utility.yul\":1508:1537   */\n  tag_91\n    /* \"#utility.yul\":1530:1536   */\n  dup3\n    /* \"#utility.yul\":1508:1537   */\n  tag_26\n  jump\t// in\ntag_91:\n    /* \"#utility.yul\":1500:1537   */\n  swap1\n  pop\n    /* \"#utility.yul\":1592:1596   */\n  0x20\n    /* \"#utility.yul\":1586:1590   */\n  dup2\n    /* \"#utility.yul\":1582:1597   */\n  add\n    /* \"#utility.yul\":1574:1597   */\n  swap1\n  pop\n    /* \"#utility.yul\":1296:1604   */\n  swap2\n  swap1\n  pop\n  jump\t// out\n    /* \"#utility.yul\":1610:1856   */\ntag_31:\n    /* \"#utility.yul\":1691:1692   */\n  0x00\n    /* \"#utility.yul\":1701:1814   */\ntag_93:\n    /* \"#utility.yul\":1715:1721   */\n  dup4\n    /* \"#utility.yul\":1712:1713   */\n  dup2\n    /* \"#utility.yul\":1709:1722   */\n  lt\n    /* \"#utility.yul\":1701:1814   */\n  iszero\n  tag_95\n  jumpi\n    /* \"#utility.yul\":1800:1801   */\n  dup1\n    /* \"#utility.yul\":1795:1798   */\n  dup3\n    /* \"#utility.yul\":1791:1802   */\n  add\n    /* \"#utility.yul\":1785:1803   */\n  mload\n    /* \"#utility.yul\":1781:1782   */\n  dup2\n    /* \"#utility.yul\":1776:1779   */\n  dup5\n    /* \"#utility.yul\":1772:1783   */\n  add\n    /* \"#utility.yul\":1765:1804   */\n  mstore\n    /* \"#utility.yul\":1737:1739   */\n  0x20\n    /* \"#utility.yul\":1734:1735   */\n  dup2\n    /* \"#utility.yul\":1730:1740   */\n  add\n    /* \"#utility.yul\":1725:1740   */\n  swap1\n  pop\n    /* \"#utility.yul\":1701:1814   */\n  jump(tag_93)\ntag_95:\n    /* \"#utility.yul\":1848:1849   */\n  0x00\n    /* \"#utility.yul\":1839:1845   */\n  dup5\n    /* \"#utility.yul\":1834:1837   */\n  dup5\n    /* \"#utility.yul\":1830:1846   */\n  add\n    /* \"#utility.yul\":1823:1850   */\n  mstore\n    /* \"#utility.yul\":1672:1856   */\n  pop\n    /* \"#utility.yul\":1610:1856   */\n  pop\n  pop\n  pop\n  jump\t// out\n    /* \"#utility.yul\":1862:2296   */\ntag_32:\n    /* \"#utility.yul\":1951:1956   */\n  0x00\n    /* \"#utility.yul\":1976:2042   */\n  tag_97\n    /* \"#utility.yul\":1992:2041   */\n  tag_98\n    /* \"#utility.yul\":2034:2040   */\n  dup5\n    /* \"#utility.yul\":1992:2041   */\n  tag_30\n  jump\t// in\ntag_98:\n    /* \"#utility.yul\":1976:2042   */\n  tag_29\n  jump\t// in\ntag_97:\n    /* \"#utility.yul\":1967:2042   */\n  swap1\n  pop\n    /* \"#utility.yul\":2065:2071   */\n  dup3\n    /* \"#utility.yul\":2058:2063   */\n  dup2\n    /* \"#utility.yul\":2051:2072   */\n  mstore\n    /* \"#utility.yul\":2103:2107   */\n  0x20\n    /* \"#utility.yul\":2096:2101   */\n  dup2\n    /* \"#utility.yul\":2092:2108   */\n  add\n    /* \"#utility.yul\":2141:2144   */\n  dup5\n    /* \"#utility.yul\":2132:2138   */\n  dup5\n    /* \"#utility.yul\":2127:2130   */\n  dup5\n    /* \"#utility.yul\":2123:2139   */\n  add\n    /* \"#utility.yul\":2120:2145   */\n  gt\n    /* \"#utility.yul\":2117:2229   */\n  iszero\n  tag_99\n  jumpi\n    /* \"#utility.yul\":2148:2227   */\n  tag_100\n  tag_25\n  jump\t// in\ntag_100:\n    /* \"#utility.yul\":2117:2229   */\ntag_99:\n    /* \"#utility.yul\":2238:2290   */\n  tag_101\n    /* \"#utility.yul\":2283:2289   */\n  dup5\n    /* \"#utility.yul\":2278:2281   */\n  dup3\n    /* \"#utility.yul\":2273:2276   */\n  dup6\n    /* \"#utility.yul\":2238:2290   */\n  tag_31\n  jump\t// in\ntag_101:\n    /* \"#utility.yul\":1957:2296   */\n  pop\n    /* \"#utility.yul\":1862:2296   */\n  swap4\n  swap3\n  pop\n  pop\n  pop\n  jump\t// out\n    /* \"#utility.yul\":2316:2671   */\ntag_33:\n    /* \"#utility.yul\":2383:2388   */\n  0x00\n    /* \"#utility.yul\":2432:2435   */\n  dup3\n    /* \"#utility.yul\":2425:2429   */\n  0x1f\n    /* \"#utility.yul\":2417:2423   */\n  dup4\n    /* \"#utility.yul\":2413:2430   */\n  add\n    /* \"#utility.yul\":2409:2436   */\n  slt\n    /* \"#utility.yul\":2399:2521   */\n  tag_103\n  jumpi\n    /* \"#utility.yul\":2440:2519   */\n  tag_104\n  tag_24\n  jump\t// in\ntag_104:\n    /* \"#utility.yul\":2399:2521   */\ntag_103:\n    /* \"#utility.yul\":2550:2556   */\n  dup2\n    /* \"#utility.yul\":2544:2557   */\n  mload\n    /* \"#utility.yul\":2575:2665   */\n  tag_105\n    /* \"#utility.yul\":2661:2664   */\n  dup5\n    /* \"#utility.yul\":2653:2659   */\n  dup3\n    /* \"#utility.yul\":2646:2650   */\n  0x20\n    /* \"#utility.yul\":2638:2644   */\n  dup7\n    /* \"#utility.yul\":2634:2651   */\n  add\n    /* \"#utility.yul\":2575:2665   */\n  tag_32\n  jump\t// in\ntag_105:\n    /* \"#utility.yul\":2566:2665   */\n  swap2\n  pop\n    /* \"#utility.yul\":2389:2671   */\n  pop\n    /* \"#utility.yul\":2316:2671   */\n  swap3\n  swap2\n  pop\n  pop\n  jump\t// out\n    /* \"#utility.yul\":2677:2803   */\ntag_34:\n    /* \"#utility.yul\":2714:2721   */\n  0x00\n    /* \"#utility.yul\":2754:2796   */\n  0xffffffffffffffffffffffffffffffffffffffff\n    /* \"#utility.yul\":2747:2752   */\n  dup3\n    /* \"#utility.yul\":2743:2797   */\n  and\n    /* \"#utility.yul\":2732:2797   */\n  swap1\n  pop\n    /* \"#utility.yul\":2677:2803   */\n  swap2\n  swap1\n  pop\n  jump\t// out\n    /* \"#utility.yul\":2809:2905   */\ntag_35:\n    /* \"#utility.yul\":2846:2853   */\n  0x00\n    /* \"#utility.yul\":2875:2899   */\n  tag_108\n    /* \"#utility.yul\":2893:2898   */\n  dup3\n    /* \"#utility.yul\":2875:2899   */\n  tag_34\n  jump\t// in\ntag_108:\n    /* \"#utility.yul\":2864:2899   */\n  swap1\n  pop\n    /* \"#utility.yul\":2809:2905   */\n  swap2\n  swap1\n  pop\n  jump\t// out\n    /* \"#utility.yul\":2911:3033   */\ntag_36:\n    /* \"#utility.yul\":2984:3008   */\n  tag_110\n    /* \"#utility.yul\":3002:3007   */\n  dup2\n    /* \"#utility.yul\":2984:3008   */\n  tag_35\n  jump\t// in\ntag_110:\n    /* \"#utility.yul\":2977:2982   */\n  dup2\n    /* \"#utility.yul\":2974:3009   */\n  eq\n    /* \"#utility.yul\":2964:3027   */\n  tag_111\n  jumpi\n    /* \"#utility.yul\":3023:3024   */\n  0x00\n    /* \"#utility.yul\":3020:3021   */\n  dup1\n    /* \"#utility.yul\":3013:3025   */\n  revert\n    /* \"#utility.yul\":2964:3027   */\ntag_111:\n    /* \"#utility.yul\":2911:3033   */\n  pop\n  jump\t// out\n    /* \"#utility.yul\":3039:3182   */\ntag_37:\n    /* \"#utility.yul\":3096:3101   */\n  0x00\n    /* \"#utility.yul\":3127:3133   */\n  dup2\n    /* \"#utility.yul\":3121:3134   */\n  mload\n    /* \"#utility.yul\":3112:3134   */\n  swap1\n  pop\n    /* \"#utility.yul\":3143:3176   */\n  tag_113\n    /* \"#utility.yul\":3170:3175   */\n  dup2\n    /* \"#utility.yul\":3143:3176   */\n  tag_36\n  jump\t// in\ntag_113:\n    /* \"#utility.yul\":3039:3182   */\n  swap3\n  swap2\n  pop\n  pop\n  jump\t// out\n    /* \"#utility.yul\":3188:3277   */\ntag_38:\n    /* \"#utility.yul\":3224:3231   */\n  0x00\n    /* \"#utility.yul\":3264:3270   */\n  0xffff\n    /* \"#utility.yul\":3257:3262   */\n  dup3\n    /* \"#utility.yul\":3253:3271   */\n  and\n    /* \"#utility.yul\":3242:3271   */\n  swap1\n  pop\n    /* \"#utility.yul\":3188:3277   */\n  swap2\n  swap1\n  pop\n  jump\t// out\n    /* \"#utility.yul\":3283:3403   */\ntag_39:\n    /* \"#utility.yul\":3355:3378   */\n  tag_116\n    /* \"#utility.yul\":3372:3377   */\n  dup2\n    /* \"#utility.yul\":3355:3378   */\n  tag_38\n  jump\t// in\ntag_116:\n    /* \"#utility.yul\":3348:3353   */\n  dup2\n    /* \"#utility.yul\":3345:3379   */\n  eq\n    /* \"#utility.yul\":3335:3397   */\n  tag_117\n  jumpi\n    /* \"#utility.yul\":3393:3394   */\n  0x00\n    /* \"#utility.yul\":3390:3391   */\n  dup1\n    /* \"#utility.yul\":3383:3395   */\n  revert\n    /* \"#utility.yul\":3335:3397   */\ntag_117:\n    /* \"#utility.yul\":3283:3403   */\n  pop\n  jump\t// out\n    /* \"#utility.yul\":3409:3550   */\ntag_40:\n    /* \"#utility.yul\":3465:3470   */\n  0x00\n    /* \"#utility.yul\":3496:3502   */\n  dup2\n    /* \"#utility.yul\":3490:3503   */\n  mload\n    /* \"#utility.yul\":3481:3503   */\n  swap1\n  pop\n    /* \"#utility.yul\":3512:3544   */\n  tag_119\n    /* \"#utility.yul\":3538:3543   */\n  dup2\n    /* \"#utility.yul\":3512:3544   */\n  tag_39\n  jump\t// in\ntag_119:\n    /* \"#utility.yul\":3409:3550   */\n  swap3\n  swap2\n  pop\n  pop\n  jump\t// out\n    /* \"#utility.yul\":3556:3649   */\ntag_41:\n    /* \"#utility.yul\":3592:3599   */\n  0x00\n    /* \"#utility.yul\":3632:3642   */\n  0xffffffff\n    /* \"#utility.yul\":3625:3630   */\n  dup3\n    /* \"#utility.yul\":3621:3643   */\n  and\n    /* \"#utility.yul\":3610:3643   */\n  swap1\n  pop\n    /* \"#utility.yul\":3556:3649   */\n  swap2\n  swap1\n  pop\n  jump\t// out\n    /* \"#utility.yul\":3655:3775   */\ntag_42:\n    /* \"#utility.yul\":3727:3750   */\n  tag_122\n    /* \"#utility.yul\":3744:3749   */\n  dup2\n    /* \"#utility.yul\":3727:3750   */\n  tag_41\n  jump\t// in\ntag_122:\n    /* \"#utility.yul\":3720:3725   */\n  dup2\n    /* \"#utility.yul\":3717:3751   */\n  eq\n    /* \"#utility.yul\":3707:3769   */\n  tag_123\n  jumpi\n    /* \"#utility.yul\":3765:3766   */\n  0x00\n    /* \"#utility.yul\":3762:3763   */\n  dup1\n    /* \"#utility.yul\":3755:3767   */\n  revert\n    /* \"#utility.yul\":3707:3769   */\ntag_123:\n    /* \"#utility.yul\":3655:3775   */\n  pop\n  jump\t// out\n    /* \"#utility.yul\":3781:3922   */\ntag_43:\n    /* \"#utility.yul\":3837:3842   */\n  0x00\n    /* \"#utility.yul\":3868:3874   */\n  dup2\n    /* \"#utility.yul\":3862:3875   */\n  mload\n    /* \"#utility.yul\":3853:3875   */\n  swap1\n  pop\n    /* \"#utility.yul\":3884:3916   */\n  tag_125\n    /* \"#utility.yul\":3910:3915   */\n  dup2\n    /* \"#utility.yul\":3884:3916   */\n  tag_42\n  jump\t// in\ntag_125:\n    /* \"#utility.yul\":3781:3922   */\n  swap3\n  swap2\n  pop\n  pop\n  jump\t// out\n    /* \"#utility.yul\":3928:4018   */\ntag_44:\n    /* \"#utility.yul\":3962:3969   */\n  0x00\n    /* \"#utility.yul\":4005:4010   */\n  dup2\n    /* \"#utility.yul\":3998:4011   */\n  iszero\n    /* \"#utility.yul\":3991:4012   */\n  iszero\n    /* \"#utility.yul\":3980:4012   */\n  swap1\n  pop\n    /* \"#utility.yul\":3928:4018   */\n  swap2\n  swap1\n  pop\n  jump\t// out\n    /* \"#utility.yul\":4024:4140   */\ntag_45:\n    /* \"#utility.yul\":4094:4115   */\n  tag_128\n    /* \"#utility.yul\":4109:4114   */\n  dup2\n    /* \"#utility.yul\":4094:4115   */\n  tag_44\n  jump\t// in\ntag_128:\n    /* \"#utility.yul\":4087:4092   */\n  dup2\n    /* \"#utility.yul\":4084:4116   */\n  eq\n    /* \"#utility.yul\":4074:4134   */\n  tag_129\n  jumpi\n    /* \"#utility.yul\":4130:4131   */\n  0x00\n    /* \"#utility.yul\":4127:4128   */\n  dup1\n    /* \"#utility.yul\":4120:4132   */\n  revert\n    /* \"#utility.yul\":4074:4134   */\ntag_129:\n    /* \"#utility.yul\":4024:4140   */\n  pop\n  jump\t// out\n    /* \"#utility.yul\":4146:4283   */\ntag_46:\n    /* \"#utility.yul\":4200:4205   */\n  0x00\n    /* \"#utility.yul\":4231:4237   */\n  dup2\n    /* \"#utility.yul\":4225:4238   */\n  mload\n    /* \"#utility.yul\":4216:4238   */\n  swap1\n  pop\n    /* \"#utility.yul\":4247:4277   */\n  tag_131\n    /* \"#utility.yul\":4271:4276   */\n  dup2\n    /* \"#utility.yul\":4247:4277   */\n  tag_45\n  jump\t// in\ntag_131:\n    /* \"#utility.yul\":4146:4283   */\n  swap3\n  swap2\n  pop\n  pop\n  jump\t// out\n    /* \"#utility.yul\":4289:5759   */\ntag_3:\n    /* \"#utility.yul\":4419:4425   */\n  0x00\n    /* \"#utility.yul\":4427:4433   */\n  dup1\n    /* \"#utility.yul\":4435:4441   */\n  0x00\n    /* \"#utility.yul\":4443:4449   */\n  dup1\n    /* \"#utility.yul\":4451:4457   */\n  0x00\n    /* \"#utility.yul\":4459:4465   */\n  dup1\n    /* \"#utility.yul\":4508:4511   */\n  0xc0\n    /* \"#utility.yul\":4496:4505   */\n  dup8\n    /* \"#utility.yul\":4487:4494   */\n  dup10\n    /* \"#utility.yul\":4483:4506   */\n  sub\n    /* \"#utility.yul\":4479:4512   */\n  slt\n    /* \"#utility.yul\":4476:4596   */\n  iszero\n  tag_133\n  jumpi\n    /* \"#utility.yul\":4515:4594   */\n  tag_134\n  tag_22\n  jump\t// in\ntag_134:\n    /* \"#utility.yul\":4476:4596   */\ntag_133:\n    /* \"#utility.yul\":4656:4657   */\n  0x00\n    /* \"#utility.yul\":4645:4654   */\n  dup8\n    /* \"#utility.yul\":4641:4658   */\n  add\n    /* \"#utility.yul\":4635:4659   */\n  mload\n    /* \"#utility.yul\":4686:4704   */\n  0xffffffffffffffff\n    /* \"#utility.yul\":4678:4684   */\n  dup2\n    /* \"#utility.yul\":4675:4705   */\n  gt\n    /* \"#utility.yul\":4672:4789   */\n  iszero\n  tag_135\n  jumpi\n    /* \"#utility.yul\":4708:4787   */\n  tag_136\n  tag_23\n  jump\t// in\ntag_136:\n    /* \"#utility.yul\":4672:4789   */\ntag_135:\n    /* \"#utility.yul\":4813:4887   */\n  tag_137\n    /* \"#utility.yul\":4879:4886   */\n  dup10\n    /* \"#utility.yul\":4870:4876   */\n  dup3\n    /* \"#utility.yul\":4859:4868   */\n  dup11\n    /* \"#utility.yul\":4855:4877   */\n  add\n    /* \"#utility.yul\":4813:4887   */\n  tag_33\n  jump\t// in\ntag_137:\n    /* \"#utility.yul\":4803:4887   */\n  swap7\n  pop\n    /* \"#utility.yul\":4606:4897   */\n  pop\n    /* \"#utility.yul\":4936:4938   */\n  0x20\n    /* \"#utility.yul\":4962:5026   */\n  tag_138\n    /* \"#utility.yul\":5018:5025   */\n  dup10\n    /* \"#utility.yul\":5009:5015   */\n  dup3\n    /* \"#utility.yul\":4998:5007   */\n  dup11\n    /* \"#utility.yul\":4994:5016   */\n  add\n    /* \"#utility.yul\":4962:5026   */\n  tag_37\n  jump\t// in\ntag_138:\n    /* \"#utility.yul\":4952:5026   */\n  swap6\n  pop\n    /* \"#utility.yul\":4907:5036   */\n  pop\n    /* \"#utility.yul\":5075:5077   */\n  0x40\n    /* \"#utility.yul\":5101:5164   */\n  tag_139\n    /* \"#utility.yul\":5156:5163   */\n  dup10\n    /* \"#utility.yul\":5147:5153   */\n  dup3\n    /* \"#utility.yul\":5136:5145   */\n  dup11\n    /* \"#utility.yul\":5132:5154   */\n  add\n    /* \"#utility.yul\":5101:5164   */\n  tag_40\n  jump\t// in\ntag_139:\n    /* \"#utility.yul\":5091:5164   */\n  swap5\n  pop\n    /* \"#utility.yul\":5046:5174   */\n  pop\n    /* \"#utility.yul\":5213:5215   */\n  0x60\n    /* \"#utility.yul\":5239:5302   */\n  tag_140\n    /* \"#utility.yul\":5294:5301   */\n  dup10\n    /* \"#utility.yul\":5285:5291   */\n  dup3\n    /* \"#utility.yul\":5274:5283   */\n  dup11\n    /* \"#utility.yul\":5270:5292   */\n  add\n    /* \"#utility.yul\":5239:5302   */\n  tag_43\n  jump\t// in\ntag_140:\n    /* \"#utility.yul\":5229:5302   */\n  swap4\n  pop\n    /* \"#utility.yul\":5184:5312   */\n  pop\n    /* \"#utility.yul\":5372:5375   */\n  0x80\n    /* \"#utility.yul\":5361:5370   */\n  dup8\n    /* \"#utility.yul\":5357:5376   */\n  add\n    /* \"#utility.yul\":5351:5377   */\n  mload\n    /* \"#utility.yul\":5404:5422   */\n  0xffffffffffffffff\n    /* \"#utility.yul\":5396:5402   */\n  dup2\n    /* \"#utility.yul\":5393:5423   */\n  gt\n    /* \"#utility.yul\":5390:5507   */\n  iszero\n  tag_141\n  jumpi\n    /* \"#utility.yul\":5426:5505   */\n  tag_142\n  tag_23\n  jump\t// in\ntag_142:\n    /* \"#utility.yul\":5390:5507   */\ntag_141:\n    /* \"#utility.yul\":5531:5605   */\n  tag_143\n    /* \"#utility.yul\":5597:5604   */\n  dup10\n    /* \"#utility.yul\":5588:5594   */\n  dup3\n    /* \"#utility.yul\":5577:5586   */\n  dup11\n    /* \"#utility.yul\":5573:5595   */\n  add\n    /* \"#utility.yul\":5531:5605   */\n  tag_33\n  jump\t// in\ntag_143:\n    /* \"#utility.yul\":5521:5605   */\n  swap3\n  pop\n    /* \"#utility.yul\":5322:5615   */\n  pop\n    /* \"#utility.yul\":5654:5657   */\n  0xa0\n    /* \"#utility.yul\":5681:5742   */\n  tag_144\n    /* \"#utility.yul\":5734:5741   */\n  dup10\n    /* \"#utility.yul\":5725:5731   */\n  dup3\n    /* \"#utility.yul\":5714:5723   */\n  dup11\n    /* \"#utility.yul\":5710:5732   */\n  add\n    /* \"#utility.yul\":5681:5742   */\n  tag_46\n  jump\t// in\ntag_144:\n    /* \"#utility.yul\":5671:5742   */\n  swap2\n  pop\n    /* \"#utility.yul\":5625:5752   */\n  pop\n    /* \"#utility.yul\":4289:5759   */\n  swap3\n  swap6\n  pop\n  swap3\n  swap6\n  pop\n  swap3\n  swap6\n  jump\t// out\n    /* \"#utility.yul\":5765:5934   */\ntag_47:\n    /* \"#utility.yul\":5849:5860   */\n  0x00\n    /* \"#utility.yul\":5883:5889   */\n  dup3\n    /* \"#utility.yul\":5878:5881   */\n  dup3\n    /* \"#utility.yul\":5871:5890   */\n  mstore\n    /* \"#utility.yul\":5923:5927   */\n  0x20\n    /* \"#utility.yul\":5918:5921   */\n  dup3\n    /* \"#utility.yul\":5914:5928   */\n  add\n    /* \"#utility.yul\":5899:5928   */\n  swap1\n  pop\n    /* \"#utility.yul\":5765:5934   */\n  swap3\n  swap2\n  pop\n  pop\n  jump\t// out\n    /* \"#utility.yul\":5940:6122   */\ntag_48:\n    /* \"#utility.yul\":6080:6114   */\n  0x4d6178696d616c203635353334204d6974737069656c65722065726c61756274\n    /* \"#utility.yul\":6076:6077   */\n  0x00\n    /* \"#utility.yul\":6068:6074   */\n  dup3\n    /* \"#utility.yul\":6064:6078   */\n  add\n    /* \"#utility.yul\":6057:6115   */\n  mstore\n    /* \"#utility.yul\":5940:6122   */\n  pop\n  jump\t// out\n    /* \"#utility.yul\":6128:6494   */\ntag_49:\n    /* \"#utility.yul\":6270:6273   */\n  0x00\n    /* \"#utility.yul\":6291:6358   */\n  tag_148\n    /* \"#utility.yul\":6355:6357   */\n  0x20\n    /* \"#utility.yul\":6350:6353   */\n  dup4\n    /* \"#utility.yul\":6291:6358   */\n  tag_47\n  jump\t// in\ntag_148:\n    /* \"#utility.yul\":6284:6358   */\n  swap2\n  pop\n    /* \"#utility.yul\":6367:6460   */\n  tag_149\n    /* \"#utility.yul\":6456:6459   */\n  dup3\n    /* \"#utility.yul\":6367:6460   */\n  tag_48\n  jump\t// in\ntag_149:\n    /* \"#utility.yul\":6485:6487   */\n  0x20\n    /* \"#utility.yul\":6480:6483   */\n  dup3\n    /* \"#utility.yul\":6476:6488   */\n  add\n    /* \"#utility.yul\":6469:6488   */\n  swap1\n  pop\n    /* \"#utility.yul\":6128:6494   */\n  swap2\n  swap1\n  pop\n  jump\t// out\n    /* \"#utility.yul\":6500:6919   */\ntag_8:\n    /* \"#utility.yul\":6666:6670   */\n  0x00\n    /* \"#utility.yul\":6704:6706   */\n  0x20\n    /* \"#utility.yul\":6693:6702   */\n  dup3\n    /* \"#utility.yul\":6689:6707   */\n  add\n    /* \"#utility.yul\":6681:6707   */\n  swap1\n  pop\n    /* \"#utility.yul\":6753:6762   */\n  dup2\n    /* \"#utility.yul\":6747:6751   */\n  dup2\n    /* \"#utility.yul\":6743:6763   */\n  sub\n    /* \"#utility.yul\":6739:6740   */\n  0x00\n    /* \"#utility.yul\":6728:6737   */\n  dup4\n    /* \"#utility.yul\":6724:6741   */\n  add\n    /* \"#utility.yul\":6717:6764   */\n  mstore\n    /* \"#utility.yul\":6781:6912   */\n  tag_151\n    /* \"#utility.yul\":6907:6911   */\n  dup2\n    /* \"#utility.yul\":6781:6912   */\n  tag_49\n  jump\t// in\ntag_151:\n    /* \"#utility.yul\":6773:6912   */\n  swap1\n  pop\n    /* \"#utility.yul\":6500:6919   */\n  swap2\n  swap1\n  pop\n  jump\t// out\n    /* \"#utility.yul\":6925:7101   */\ntag_50:\n    /* \"#utility.yul\":7065:7093   */\n  0x4d6178696d616c65722050726569732034323934393637323935000000000000\n    /* \"#utility.yul\":7061:7062   */\n  0x00\n    /* \"#utility.yul\":7053:7059   */\n  dup3\n    /* \"#utility.yul\":7049:7063   */\n  add\n    /* \"#utility.yul\":7042:7094   */\n  mstore\n    /* \"#utility.yul\":6925:7101   */\n  pop\n  jump\t// out\n    /* \"#utility.yul\":7107:7473   */\ntag_51:\n    /* \"#utility.yul\":7249:7252   */\n  0x00\n    /* \"#utility.yul\":7270:7337   */\n  tag_154\n    /* \"#utility.yul\":7334:7336   */\n  0x1a\n    /* \"#utility.yul\":7329:7332   */\n  dup4\n    /* \"#utility.yul\":7270:7337   */\n  tag_47\n  jump\t// in\ntag_154:\n    /* \"#utility.yul\":7263:7337   */\n  swap2\n  pop\n    /* \"#utility.yul\":7346:7439   */\n  tag_155\n    /* \"#utility.yul\":7435:7438   */\n  dup3\n    /* \"#utility.yul\":7346:7439   */\n  tag_50\n  jump\t// in\ntag_155:\n    /* \"#utility.yul\":7464:7466   */\n  0x20\n    /* \"#utility.yul\":7459:7462   */\n  dup3\n    /* \"#utility.yul\":7455:7467   */\n  add\n    /* \"#utility.yul\":7448:7467   */\n  swap1\n  pop\n    /* \"#utility.yul\":7107:7473   */\n  swap2\n  swap1\n  pop\n  jump\t// out\n    /* \"#utility.yul\":7479:7898   */\ntag_11:\n    /* \"#utility.yul\":7645:7649   */\n  0x00\n    /* \"#utility.yul\":7683:7685   */\n  0x20\n    /* \"#utility.yul\":7672:7681   */\n  dup3\n    /* \"#utility.yul\":7668:7686   */\n  add\n    /* \"#utility.yul\":7660:7686   */\n  swap1\n  pop\n    /* \"#utility.yul\":7732:7741   */\n  dup2\n    /* \"#utility.yul\":7726:7730   */\n  dup2\n    /* \"#utility.yul\":7722:7742   */\n  sub\n    /* \"#utility.yul\":7718:7719   */\n  0x00\n    /* \"#utility.yul\":7707:7716   */\n  dup4\n    /* \"#utility.yul\":7703:7720   */\n  add\n    /* \"#utility.yul\":7696:7743   */\n  mstore\n    /* \"#utility.yul\":7760:7891   */\n  tag_157\n    /* \"#utility.yul\":7886:7890   */\n  dup2\n    /* \"#utility.yul\":7760:7891   */\n  tag_51\n  jump\t// in\ntag_157:\n    /* \"#utility.yul\":7752:7891   */\n  swap1\n  pop\n    /* \"#utility.yul\":7479:7898   */\n  swap2\n  swap1\n  pop\n  jump\t// out\n    /* \"#utility.yul\":7904:8003   */\ntag_52:\n    /* \"#utility.yul\":7956:7962   */\n  0x00\n    /* \"#utility.yul\":7990:7995   */\n  dup2\n    /* \"#utility.yul\":7984:7996   */\n  mload\n    /* \"#utility.yul\":7974:7996   */\n  swap1\n  pop\n    /* \"#utility.yul\":7904:8003   */\n  swap2\n  swap1\n  pop\n  jump\t// out\n    /* \"#utility.yul\":8009:8189   */\ntag_53:\n    /* \"#utility.yul\":8057:8134   */\n  0x4e487b7100000000000000000000000000000000000000000000000000000000\n    /* \"#utility.yul\":8054:8055   */\n  0x00\n    /* \"#utility.yul\":8047:8135   */\n  mstore\n    /* \"#utility.yul\":8154:8158   */\n  0x22\n    /* \"#utility.yul\":8151:8152   */\n  0x04\n    /* \"#utility.yul\":8144:8159   */\n  mstore\n    /* \"#utility.yul\":8178:8182   */\n  0x24\n    /* \"#utility.yul\":8175:8176   */\n  0x00\n    /* \"#utility.yul\":8168:8183   */\n  revert\n    /* \"#utility.yul\":8195:8515   */\ntag_54:\n    /* \"#utility.yul\":8239:8245   */\n  0x00\n    /* \"#utility.yul\":8276:8277   */\n  0x02\n    /* \"#utility.yul\":8270:8274   */\n  dup3\n    /* \"#utility.yul\":8266:8278   */\n  div\n    /* \"#utility.yul\":8256:8278   */\n  swap1\n  pop\n    /* \"#utility.yul\":8323:8324   */\n  0x01\n    /* \"#utility.yul\":8317:8321   */\n  dup3\n    /* \"#utility.yul\":8313:8325   */\n  and\n    /* \"#utility.yul\":8344:8362   */\n  dup1\n    /* \"#utility.yul\":8334:8415   */\n  tag_161\n  jumpi\n    /* \"#utility.yul\":8400:8404   */\n  0x7f\n    /* \"#utility.yul\":8392:8398   */\n  dup3\n    /* \"#utility.yul\":8388:8405   */\n  and\n    /* \"#utility.yul\":8378:8405   */\n  swap2\n  pop\n    /* \"#utility.yul\":8334:8415   */\ntag_161:\n    /* \"#utility.yul\":8462:8464   */\n  0x20\n    /* \"#utility.yul\":8454:8460   */\n  dup3\n    /* \"#utility.yul\":8451:8465   */\n  lt\n    /* \"#utility.yul\":8431:8449   */\n  dup2\n    /* \"#utility.yul\":8428:8466   */\n  sub\n    /* \"#utility.yul\":8425:8509   */\n  tag_162\n  jumpi\n    /* \"#utility.yul\":8481:8499   */\n  tag_163\n  tag_53\n  jump\t// in\ntag_163:\n    /* \"#utility.yul\":8425:8509   */\ntag_162:\n    /* \"#utility.yul\":8246:8515   */\n  pop\n    /* \"#utility.yul\":8195:8515   */\n  swap2\n  swap1\n  pop\n  jump\t// out\n    /* \"#utility.yul\":8521:8662   */\ntag_55:\n    /* \"#utility.yul\":8570:8574   */\n  0x00\n    /* \"#utility.yul\":8593:8596   */\n  dup2\n    /* \"#utility.yul\":8585:8596   */\n  swap1\n  pop\n    /* \"#utility.yul\":8616:8619   */\n  dup2\n    /* \"#utility.yul\":8613:8614   */\n  0x00\n    /* \"#utility.yul\":8606:8620   */\n  mstore\n    /* \"#utility.yul\":8650:8654   */\n  0x20\n    /* \"#utility.yul\":8647:8648   */\n  0x00\n    /* \"#utility.yul\":8637:8655   */\n  keccak256\n    /* \"#utility.yul\":8629:8655   */\n  swap1\n  pop\n    /* \"#utility.yul\":8521:8662   */\n  swap2\n  swap1\n  pop\n  jump\t// out\n    /* \"#utility.yul\":8668:8761   */\ntag_56:\n    /* \"#utility.yul\":8705:8711   */\n  0x00\n    /* \"#utility.yul\":8752:8754   */\n  0x20\n    /* \"#utility.yul\":8747:8749   */\n  0x1f\n    /* \"#utility.yul\":8740:8745   */\n  dup4\n    /* \"#utility.yul\":8736:8750   */\n  add\n    /* \"#utility.yul\":8732:8755   */\n  div\n    /* \"#utility.yul\":8722:8755   */\n  swap1\n  pop\n    /* \"#utility.yul\":8668:8761   */\n  swap2\n  swap1\n  pop\n  jump\t// out\n    /* \"#utility.yul\":8767:8874   */\ntag_57:\n    /* \"#utility.yul\":8811:8819   */\n  0x00\n    /* \"#utility.yul\":8861:8866   */\n  dup3\n    /* \"#utility.yul\":8855:8859   */\n  dup3\n    /* \"#utility.yul\":8851:8867   */\n  shl\n    /* \"#utility.yul\":8830:8867   */\n  swap1\n  pop\n    /* \"#utility.yul\":8767:8874   */\n  swap3\n  swap2\n  pop\n  pop\n  jump\t// out\n    /* \"#utility.yul\":8880:9273   */\ntag_58:\n    /* \"#utility.yul\":8949:8955   */\n  0x00\n    /* \"#utility.yul\":8999:9000   */\n  0x08\n    /* \"#utility.yul\":8987:8997   */\n  dup4\n    /* \"#utility.yul\":8983:9001   */\n  mul\n    /* \"#utility.yul\":9022:9119   */\n  tag_168\n    /* \"#utility.yul\":9052:9118   */\n  0xffffffffffffffffffffffffffffffffffffffffffffffffffffffffffffffff\n    /* \"#utility.yul\":9041:9050   */\n  dup3\n    /* \"#utility.yul\":9022:9119   */\n  tag_57\n  jump\t// in\ntag_168:\n    /* \"#utility.yul\":9140:9179   */\n  tag_169\n    /* \"#utility.yul\":9170:9178   */\n  dup7\n    /* \"#utility.yul\":9159:9168   */\n  dup4\n    /* \"#utility.yul\":9140:9179   */\n  tag_57\n  jump\t// in\ntag_169:\n    /* \"#utility.yul\":9128:9179   */\n  swap6\n  pop\n    /* \"#utility.yul\":9212:9216   */\n  dup1\n    /* \"#utility.yul\":9208:9217   */\n  not\n    /* \"#utility.yul\":9201:9206   */\n  dup5\n    /* \"#utility.yul\":9197:9218   */\n  and\n    /* \"#utility.yul\":9188:9218   */\n  swap4\n  pop\n    /* \"#utility.yul\":9261:9265   */\n  dup1\n    /* \"#utility.yul\":9251:9259   */\n  dup7\n    /* \"#utility.yul\":9247:9266   */\n  and\n    /* \"#utility.yul\":9240:9245   */\n  dup5\n    /* \"#utility.yul\":9237:9267   */\n  or\n    /* \"#utility.yul\":9227:9267   */\n  swap3\n  pop\n    /* \"#utility.yul\":8956:9273   */\n  pop\n  pop\n    /* \"#utility.yul\":8880:9273   */\n  swap4\n  swap3\n  pop\n  pop\n  pop\n  jump\t// out\n    /* \"#utility.yul\":9279:9356   */\ntag_59:\n    /* \"#utility.yul\":9316:9323   */\n  0x00\n    /* \"#utility.yul\":9345:9350   */\n  dup2\n    /* \"#utility.yul\":9334:9350   */\n  swap1\n  pop\n    /* \"#utility.yul\":9279:9356   */\n  swap2\n  swap1\n  pop\n  jump\t// out\n    /* \"#utility.yul\":9362:9422   */\ntag_60:\n    /* \"#utility.yul\":9390:9393   */\n  0x00\n    /* \"#utility.yul\":9411:9416   */\n  dup2\n    /* \"#utility.yul\":9404:9416   */\n  swap1\n  pop\n    /* \"#utility.yul\":9362:9422   */\n  swap2\n  swap1\n  pop\n  jump\t// out\n    /* \"#utility.yul\":9428:9570   */\ntag_61:\n    /* \"#utility.yul\":9478:9487   */\n  0x00\n    /* \"#utility.yul\":9511:9564   */\n  tag_173\n    /* \"#utility.yul\":9529:9563   */\n  tag_174\n    /* \"#utility.yul\":9538:9562   */\n  tag_175\n    /* \"#utility.yul\":9556:9561   */\n  dup5\n    /* \"#utility.yul\":9538:9562   */\n  tag_59\n  jump\t// in\ntag_175:\n    /* \"#utility.yul\":9529:9563   */\n  tag_60\n  jump\t// in\ntag_174:\n    /* \"#utility.yul\":9511:9564   */\n  tag_59\n  jump\t// in\ntag_173:\n    /* \"#utility.yul\":9498:9564   */\n  swap1\n  pop\n    /* \"#utility.yul\":9428:9570   */\n  swap2\n  swap1\n  pop\n  jump\t// out\n    /* \"#utility.yul\":9576:9651   */\ntag_62:\n    /* \"#utility.yul\":9619:9622   */\n  0x00\n    /* \"#utility.yul\":9640:9645   */\n  dup2\n    /* \"#utility.yul\":9633:9645   */\n  swap1\n  pop\n    /* \"#utility.yul\":9576:9651   */\n  swap2\n  swap1\n  pop\n  jump\t// out\n    /* \"#utility.yul\":9657:9926   */\ntag_63:\n    /* \"#utility.yul\":9767:9806   */\n  tag_178\n    /* \"#utility.yul\":9798:9805   */\n  dup4\n    /* \"#utility.yul\":9767:9806   */\n  tag_61\n  jump\t// in\ntag_178:\n    /* \"#utility.yul\":9828:9919   */\n  tag_179\n    /* \"#utility.yul\":9877:9918   */\n  tag_180\n    /* \"#utility.yul\":9901:9917   */\n  dup3\n    /* \"#utility.yul\":9877:9918   */\n  tag_62\n  jump\t// in\ntag_180:\n    /* \"#utility.yul\":9869:9875   */\n  dup5\n    /* \"#utility.yul\":9862:9866   */\n  dup5\n    /* \"#utility.yul\":9856:9867   */\n  sload\n    /* \"#utility.yul\":9828:9919   */\n  tag_58\n  jump\t// in\ntag_179:\n    /* \"#utility.yul\":9822:9826   */\n  dup3\n    /* \"#utility.yul\":9815:9920   */\n  sstore\n    /* \"#utility.yul\":9733:9926   */\n  pop\n    /* \"#utility.yul\":9657:9926   */\n  pop\n  pop\n  pop\n  jump\t// out\n    /* \"#utility.yul\":9932:10005   */\ntag_64:\n    /* \"#utility.yul\":9977:9980   */\n  0x00\n    /* \"#utility.yul\":9932:10005   */\n  swap1\n  jump\t// out\n    /* \"#utility.yul\":10011:10200   */\ntag_65:\n    /* \"#utility.yul\":10088:10120   */\n  tag_183\n  tag_64\n  jump\t// in\ntag_183:\n    /* \"#utility.yul\":10129:10194   */\n  tag_184\n    /* \"#utility.yul\":10187:10193   */\n  dup2\n    /* \"#utility.yul\":10179:10185   */\n  dup5\n    /* \"#utility.yul\":10173:10177   */\n  dup5\n    /* \"#utility.yul\":10129:10194   */\n  tag_63\n  jump\t// in\ntag_184:\n    /* \"#utility.yul\":10064:10200   */\n  pop\n    /* \"#utility.yul\":10011:10200   */\n  pop\n  pop\n  jump\t// out\n    /* \"#utility.yul\":10206:10392   */\ntag_66:\n    /* \"#utility.yul\":10266:10386   */\ntag_186:\n    /* \"#utility.yul\":10283:10286   */\n  dup2\n    /* \"#utility.yul\":10276:10281   */\n  dup2\n    /* \"#utility.yul\":10273:10287   */\n  lt\n    /* \"#utility.yul\":10266:10386   */\n  iszero\n  tag_188\n  jumpi\n    /* \"#utility.yul\":10337:10376   */\n  tag_189\n    /* \"#utility.yul\":10374:10375   */\n  0x00\n    /* \"#utility.yul\":10367:10372   */\n  dup3\n    /* \"#utility.yul\":10337:10376   */\n  tag_65\n  jump\t// in\ntag_189:\n    /* \"#utility.yul\":10310:10311   */\n  0x01\n    /* \"#utility.yul\":10303:10308   */\n  dup2\n    /* \"#utility.yul\":10299:10312   */\n  add\n    /* \"#utility.yul\":10290:10312   */\n  swap1\n  pop\n    /* \"#utility.yul\":10266:10386   */\n  jump(tag_186)\ntag_188:\n    /* \"#utility.yul\":10206:10392   */\n  pop\n  pop\n  jump\t// out\n    /* \"#utility.yul\":10398:10941   */\ntag_67:\n    /* \"#utility.yul\":10499:10501   */\n  0x1f\n    /* \"#utility.yul\":10494:10497   */\n  dup3\n    /* \"#utility.yul\":10491:10502   */\n  gt\n    /* \"#utility.yul\":10488:10934   */\n  iszero\n  tag_191\n  jumpi\n    /* \"#utility.yul\":10533:10571   */\n  tag_192\n    /* \"#utility.yul\":10565:10570   */\n  dup2\n    /* \"#utility.yul\":10533:10571   */\n  tag_55\n  jump\t// in\ntag_192:\n    /* \"#utility.yul\":10617:10646   */\n  tag_193\n    /* \"#utility.yul\":10635:10645   */\n  dup5\n    /* \"#utility.yul\":10617:10646   */\n  tag_56\n  jump\t// in\ntag_193:\n    /* \"#utility.yul\":10607:10615   */\n  dup2\n    /* \"#utility.yul\":10603:10647   */\n  add\n    /* \"#utility.yul\":10800:10802   */\n  0x20\n    /* \"#utility.yul\":10788:10798   */\n  dup6\n    /* \"#utility.yul\":10785:10803   */\n  lt\n    /* \"#utility.yul\":10782:10831   */\n  iszero\n  tag_194\n  jumpi\n    /* \"#utility.yul\":10821:10829   */\n  dup2\n    /* \"#utility.yul\":10806:10829   */\n  swap1\n  pop\n    /* \"#utility.yul\":10782:10831   */\ntag_194:\n    /* \"#utility.yul\":10844:10924   */\n  tag_195\n    /* \"#utility.yul\":10900:10922   */\n  tag_196\n    /* \"#utility.yul\":10918:10921   */\n  dup6\n    /* \"#utility.yul\":10900:10922   */\n  tag_56\n  jump\t// in\ntag_196:\n    /* \"#utility.yul\":10890:10898   */\n  dup4\n    /* \"#utility.yul\":10886:10923   */\n  add\n    /* \"#utility.yul\":10873:10884   */\n  dup3\n    /* \"#utility.yul\":10844:10924   */\n  tag_66\n  jump\t// in\ntag_195:\n    /* \"#utility.yul\":10503:10934   */\n  pop\n  pop\n    /* \"#utility.yul\":10488:10934   */\ntag_191:\n    /* \"#utility.yul\":10398:10941   */\n  pop\n  pop\n  pop\n  jump\t// out\n    /* \"#utility.yul\":10947:11064   */\ntag_68:\n    /* \"#utility.yul\":11001:11009   */\n  0x00\n    /* \"#utility.yul\":11051:11056   */\n  dup3\n    /* \"#utility.yul\":11045:11049   */\n  dup3\n    /* \"#utility.yul\":11041:11057   */\n  shr\n    /* \"#utility.yul\":11020:11057   */\n  swap1\n  pop\n    /* \"#utility.yul\":10947:11064   */\n  swap3\n  swap2\n  pop\n  pop\n  jump\t// out\n    /* \"#utility.yul\":11070:11239   */\ntag_69:\n    /* \"#utility.yul\":11114:11120   */\n  0x00\n    /* \"#utility.yul\":11147:11198   */\n  tag_199\n    /* \"#utility.yul\":11195:11196   */\n  0x00\n    /* \"#utility.yul\":11191:11197   */\n  not\n    /* \"#utility.yul\":11183:11188   */\n  dup5\n    /* \"#utility.yul\":11180:11181   */\n  0x08\n    /* \"#utility.yul\":11176:11189   */\n  mul\n    /* \"#utility.yul\":11147:11198   */\n  tag_68\n  jump\t// in\ntag_199:\n    /* \"#utility.yul\":11143:11199   */\n  not\n    /* \"#utility.yul\":11228:11232   */\n  dup1\n    /* \"#utility.yul\":11222:11226   */\n  dup4\n    /* \"#utility.yul\":11218:11233   */\n  and\n    /* \"#utility.yul\":11208:11233   */\n  swap2\n  pop\n    /* \"#utility.yul\":11121:11239   */\n  pop\n    /* \"#utility.yul\":11070:11239   */\n  swap3\n  swap2\n  pop\n  pop\n  jump\t// out\n    /* \"#utility.yul\":11244:11539   */\ntag_70:\n    /* \"#utility.yul\":11320:11324   */\n  0x00\n    /* \"#utility.yul\":11466:11495   */\n  tag_201\n    /* \"#utility.yul\":11491:11494   */\n  dup4\n    /* \"#utility.yul\":11485:11489   */\n  dup4\n    /* \"#utility.yul\":11466:11495   */\n  tag_69\n  jump\t// in\ntag_201:\n    /* \"#utility.yul\":11458:11495   */\n  swap2\n  pop\n    /* \"#utility.yul\":11528:11531   */\n  dup3\n    /* \"#utility.yul\":11525:11526   */\n  0x02\n    /* \"#utility.yul\":11521:11532   */\n  mul\n    /* \"#utility.yul\":11515:11519   */\n  dup3\n    /* \"#utility.yul\":11512:11533   */\n  or\n    /* \"#utility.yul\":11504:11533   */\n  swap1\n  pop\n    /* \"#utility.yul\":11244:11539   */\n  swap3\n  swap2\n  pop\n  pop\n  jump\t// out\n    /* \"#utility.yul\":11544:12939   */\ntag_13:\n    /* \"#utility.yul\":11661:11698   */\n  tag_203\n    /* \"#utility.yul\":11694:11697   */\n  dup3\n    /* \"#utility.yul\":11661:11698   */\n  tag_52\n  jump\t// in\ntag_203:\n    /* \"#utility.yul\":11763:11781   */\n  0xffffffffffffffff\n    /* \"#utility.yul\":11755:11761   */\n  dup2\n    /* \"#utility.yul\":11752:11782   */\n  gt\n    /* \"#utility.yul\":11749:11805   */\n  iszero\n  tag_204\n  jumpi\n    /* \"#utility.yul\":11785:11803   */\n  tag_205\n  tag_27\n  jump\t// in\ntag_205:\n    /* \"#utility.yul\":11749:11805   */\ntag_204:\n    /* \"#utility.yul\":11829:11867   */\n  tag_206\n    /* \"#utility.yul\":11861:11865   */\n  dup3\n    /* \"#utility.yul\":11855:11866   */\n  sload\n    /* \"#utility.yul\":11829:11867   */\n  tag_54\n  jump\t// in\ntag_206:\n    /* \"#utility.yul\":11914:11981   */\n  tag_207\n    /* \"#utility.yul\":11974:11980   */\n  dup3\n    /* \"#utility.yul\":11966:11972   */\n  dup3\n    /* \"#utility.yul\":11960:11964   */\n  dup6\n    /* \"#utility.yul\":11914:11981   */\n  tag_67\n  jump\t// in\ntag_207:\n    /* \"#utility.yul\":12008:12009   */\n  0x00\n    /* \"#utility.yul\":12032:12036   */\n  0x20\n    /* \"#utility.yul\":12019:12036   */\n  swap1\n  pop\n    /* \"#utility.yul\":12064:12066   */\n  0x1f\n    /* \"#utility.yul\":12056:12062   */\n  dup4\n    /* \"#utility.yul\":12053:12067   */\n  gt\n    /* \"#utility.yul\":12081:12082   */\n  0x01\n    /* \"#utility.yul\":12076:12694   */\n  dup2\n  eq\n  tag_209\n  jumpi\n    /* \"#utility.yul\":12738:12739   */\n  0x00\n    /* \"#utility.yul\":12755:12761   */\n  dup5\n    /* \"#utility.yul\":12752:12829   */\n  iszero\n  tag_210\n  jumpi\n    /* \"#utility.yul\":12804:12813   */\n  dup3\n    /* \"#utility.yul\":12799:12802   */\n  dup8\n    /* \"#utility.yul\":12795:12814   */\n  add\n    /* \"#utility.yul\":12789:12815   */\n  mload\n    /* \"#utility.yul\":12780:12815   */\n  swap1\n  pop\n    /* \"#utility.yul\":12752:12829   */\ntag_210:\n    /* \"#utility.yul\":12855:12922   */\n  tag_211\n    /* \"#utility.yul\":12915:12921   */\n  dup6\n    /* \"#utility.yul\":12908:12913   */\n  dup3\n    /* \"#utility.yul\":12855:12922   */\n  tag_70\n  jump\t// in\ntag_211:\n    /* \"#utility.yul\":12849:12853   */\n  dup7\n    /* \"#utility.yul\":12842:12923   */\n  sstore\n    /* \"#utility.yul\":12711:12933   */\n  pop\n    /* \"#utility.yul\":12046:12933   */\n  jump(tag_208)\n    /* \"#utility.yul\":12076:12694   */\ntag_209:\n    /* \"#utility.yul\":12128:12132   */\n  0x1f\n    /* \"#utility.yul\":12124:12133   */\n  not\n    /* \"#utility.yul\":12116:12122   */\n  dup5\n    /* \"#utility.yul\":12112:12134   */\n  and\n    /* \"#utility.yul\":12162:12199   */\n  tag_212\n    /* \"#utility.yul\":12194:12198   */\n  dup7\n    /* \"#utility.yul\":12162:12199   */\n  tag_55\n  jump\t// in\ntag_212:\n    /* \"#utility.yul\":12221:12222   */\n  0x00\n    /* \"#utility.yul\":12235:12443   */\ntag_213:\n    /* \"#utility.yul\":12249:12256   */\n  dup3\n    /* \"#utility.yul\":12246:12247   */\n  dup2\n    /* \"#utility.yul\":12243:12257   */\n  lt\n    /* \"#utility.yul\":12235:12443   */\n  iszero\n  tag_215\n  jumpi\n    /* \"#utility.yul\":12328:12337   */\n  dup5\n    /* \"#utility.yul\":12323:12326   */\n  dup10\n    /* \"#utility.yul\":12319:12338   */\n  add\n    /* \"#utility.yul\":12313:12339   */\n  mload\n    /* \"#utility.yul\":12305:12311   */\n  dup3\n    /* \"#utility.yul\":12298:12340   */\n  sstore\n    /* \"#utility.yul\":12379:12380   */\n  0x01\n    /* \"#utility.yul\":12371:12377   */\n  dup3\n    /* \"#utility.yul\":12367:12381   */\n  add\n    /* \"#utility.yul\":12357:12381   */\n  swap2\n  pop\n    /* \"#utility.yul\":12426:12428   */\n  0x20\n    /* \"#utility.yul\":12415:12424   */\n  dup6\n    /* \"#utility.yul\":12411:12429   */\n  add\n    /* \"#utility.yul\":12398:12429   */\n  swap5\n  pop\n    /* \"#utility.yul\":12272:12276   */\n  0x20\n    /* \"#utility.yul\":12269:12270   */\n  dup2\n    /* \"#utility.yul\":12265:12277   */\n  add\n    /* \"#utility.yul\":12260:12277   */\n  swap1\n  pop\n    /* \"#utility.yul\":12235:12443   */\n  jump(tag_213)\ntag_215:\n    /* \"#utility.yul\":12471:12477   */\n  dup7\n    /* \"#utility.yul\":12462:12469   */\n  dup4\n    /* \"#utility.yul\":12459:12478   */\n  lt\n    /* \"#utility.yul\":12456:12635   */\n  iszero\n  tag_216\n  jumpi\n    /* \"#utility.yul\":12529:12538   */\n  dup5\n    /* \"#utility.yul\":12524:12527   */\n  dup10\n    /* \"#utility.yul\":12520:12539   */\n  add\n    /* \"#utility.yul\":12514:12540   */\n  mload\n    /* \"#utility.yul\":12572:12620   */\n  tag_217\n    /* \"#utility.yul\":12614:12618   */\n  0x1f\n    /* \"#utility.yul\":12606:12612   */\n  dup10\n    /* \"#utility.yul\":12602:12619   */\n  and\n    /* \"#utility.yul\":12591:12600   */\n  dup3\n    /* \"#utility.yul\":12572:12620   */\n  tag_69\n  jump\t// in\ntag_217:\n    /* \"#utility.yul\":12564:12570   */\n  dup4\n    /* \"#utility.yul\":12557:12621   */\n  sstore\n    /* \"#utility.yul\":12479:12635   */\n  pop\n    /* \"#utility.yul\":12456:12635   */\ntag_216:\n    /* \"#utility.yul\":12681:12682   */\n  0x01\n    /* \"#utility.yul\":12677:12678   */\n  0x02\n    /* \"#utility.yul\":12669:12675   */\n  dup9\n    /* \"#utility.yul\":12665:12679   */\n  mul\n    /* \"#utility.yul\":12661:12683   */\n  add\n    /* \"#utility.yul\":12655:12659   */\n  dup9\n    /* \"#utility.yul\":12648:12684   */\n  sstore\n    /* \"#utility.yul\":12083:12694   */\n  pop\n  pop\n  pop\n    /* \"#utility.yul\":12046:12933   */\ntag_208:\n  pop\n    /* \"#utility.yul\":11636:12939   */\n  pop\n  pop\n  pop\n    /* \"#utility.yul\":11544:12939   */\n  pop\n  pop\n  jump\t// out\n    /* \"#utility.yul\":12945:13125   */\ntag_71:\n    /* \"#utility.yul\":12993:13070   */\n  0x4e487b7100000000000000000000000000000000000000000000000000000000\n    /* \"#utility.yul\":12990:12991   */\n  0x00\n    /* \"#utility.yul\":12983:13071   */\n  mstore\n    /* \"#utility.yul\":13090:13094   */\n  0x11\n    /* \"#utility.yul\":13087:13088   */\n  0x04\n    /* \"#utility.yul\":13080:13095   */\n  mstore\n    /* \"#utility.yul\":13114:13118   */\n  0x24\n    /* \"#utility.yul\":13111:13112   */\n  0x00\n    /* \"#utility.yul\":13104:13119   */\n  revert\n    /* \"#utility.yul\":13131:13541   */\ntag_16:\n    /* \"#utility.yul\":13171:13178   */\n  0x00\n    /* \"#utility.yul\":13194:13214   */\n  tag_220\n    /* \"#utility.yul\":13212:13213   */\n  dup3\n    /* \"#utility.yul\":13194:13214   */\n  tag_59\n  jump\t// in\ntag_220:\n    /* \"#utility.yul\":13189:13214   */\n  swap2\n  pop\n    /* \"#utility.yul\":13228:13248   */\n  tag_221\n    /* \"#utility.yul\":13246:13247   */\n  dup4\n    /* \"#utility.yul\":13228:13248   */\n  tag_59\n  jump\t// in\ntag_221:\n    /* \"#utility.yul\":13223:13248   */\n  swap3\n  pop\n    /* \"#utility.yul\":13283:13284   */\n  dup3\n    /* \"#utility.yul\":13280:13281   */\n  dup3\n    /* \"#utility.yul\":13276:13285   */\n  mul\n    /* \"#utility.yul\":13305:13335   */\n  tag_222\n    /* \"#utility.yul\":13323:13334   */\n  dup2\n    /* \"#utility.yul\":13305:13335   */\n  tag_59\n  jump\t// in\ntag_222:\n    /* \"#utility.yul\":13294:13335   */\n  swap2\n  pop\n    /* \"#utility.yul\":13484:13485   */\n  dup3\n    /* \"#utility.yul\":13475:13482   */\n  dup3\n    /* \"#utility.yul\":13471:13486   */\n  div\n    /* \"#utility.yul\":13468:13469   */\n  dup5\n    /* \"#utility.yul\":13465:13487   */\n  eq\n    /* \"#utility.yul\":13445:13446   */\n  dup4\n    /* \"#utility.yul\":13438:13447   */\n  iszero\n    /* \"#utility.yul\":13418:13501   */\n  or\n    /* \"#utility.yul\":13395:13534   */\n  tag_223\n  jumpi\n    /* \"#utility.yul\":13514:13532   */\n  tag_224\n  tag_71\n  jump\t// in\ntag_224:\n    /* \"#utility.yul\":13395:13534   */\ntag_223:\n    /* \"#utility.yul\":13179:13541   */\n  pop\n    /* \"#utility.yul\":13131:13541   */\n  swap3\n  swap2\n  pop\n  pop\n  jump\t// out\n    /* \"#utility.yul\":13547:13727   */\ntag_72:\n    /* \"#utility.yul\":13595:13672   */\n  0x4e487b7100000000000000000000000000000000000000000000000000000000\n    /* \"#utility.yul\":13592:13593   */\n  0x00\n    /* \"#utility.yul\":13585:13673   */\n  mstore\n    /* \"#utility.yul\":13692:13696   */\n  0x12\n    /* \"#utility.yul\":13689:13690   */\n  0x04\n    /* \"#utility.yul\":13682:13697   */\n  mstore\n    /* \"#utility.yul\":13716:13720   */\n  0x24\n    /* \"#utility.yul\":13713:13714   */\n  0x00\n    /* \"#utility.yul\":13706:13721   */\n  revert\n    /* \"#utility.yul\":13733:13918   */\ntag_18:\n    /* \"#utility.yul\":13773:13774   */\n  0x00\n    /* \"#utility.yul\":13790:13810   */\n  tag_227\n    /* \"#utility.yul\":13808:13809   */\n  dup3\n    /* \"#utility.yul\":13790:13810   */\n  tag_59\n  jump\t// in\ntag_227:\n    /* \"#utility.yul\":13785:13810   */\n  swap2\n  pop\n    /* \"#utility.yul\":13824:13844   */\n  tag_228\n    /* \"#utility.yul\":13842:13843   */\n  dup4\n    /* \"#utility.yul\":13824:13844   */\n  tag_59\n  jump\t// in\ntag_228:\n    /* \"#utility.yul\":13819:13844   */\n  swap3\n  pop\n    /* \"#utility.yul\":13863:13864   */\n  dup3\n    /* \"#utility.yul\":13853:13888   */\n  tag_229\n  jumpi\n    /* \"#utility.yul\":13868:13886   */\n  tag_230\n  tag_72\n  jump\t// in\ntag_230:\n    /* \"#utility.yul\":13853:13888   */\ntag_229:\n    /* \"#utility.yul\":13910:13911   */\n  dup3\n    /* \"#utility.yul\":13907:13908   */\n  dup3\n    /* \"#utility.yul\":13903:13912   */\n  div\n    /* \"#utility.yul\":13898:13912   */\n  swap1\n  pop\n    /* \"#utility.yul\":13733:13918   */\n  swap3\n  swap2\n  pop\n  pop\n  jump\t// out\n    /* \"Lottogemeinschaft.sol\":1709:6411  contract Lottogemeinschaft {... */\ntag_20:\n  dataSize(sub_0)\n  dup1\n  dataOffset(sub_0)\n  0x00\n  codecopy\n  0x00\n  return\nstop\n\nsub_0: assembly {\n        /* \"Lottogemeinschaft.sol\":1709:6411  contract Lottogemeinschaft {... */\n      mstore(0x40, 0x80)\n      jumpi(tag_1, lt(calldatasize, 0x04))\n      shr(0xe0, calldataload(0x00))\n      dup1\n      0x526024ea\n      gt\n      tag_21\n      jumpi\n      dup1\n      0xb08c7076\n      gt\n      tag_22\n      jumpi\n      dup1\n      0xb08c7076\n      eq\n      tag_16\n      jumpi\n      dup1\n      0xb609e684\n      eq\n      tag_17\n      jumpi\n      dup1\n      0xc6ca9d19\n      eq\n      tag_18\n      jumpi\n      dup1\n      0xd27d06c0\n      eq\n      tag_19\n      jumpi\n      dup1\n      0xe068561a\n      eq\n      tag_20\n      jumpi\n      jump(tag_1)\n    tag_22:\n      dup1\n      0x526024ea\n      eq\n      tag_11\n      jumpi\n      dup1\n      0x70a41bc0\n      eq\n      tag_12\n      jumpi\n      dup1\n      0x8acb4624\n      eq\n      tag_13\n      jumpi\n      dup1\n      0x91243239\n      eq\n      tag_14\n      jumpi\n      dup1\n      0xad2c046c\n      eq\n      tag_15\n      jumpi\n      jump(tag_1)\n    tag_21:\n      dup1\n      0x31c45120\n      gt\n      tag_23\n      jumpi\n      dup1\n      0x31c45120\n      eq\n      tag_6\n      jumpi\n      dup1\n      0x36927060\n      eq\n      tag_7\n      jumpi\n      dup1\n      0x3babb15a\n      eq\n      tag_8\n      jumpi\n      dup1\n      0x3f0f5d51\n      eq\n      tag_9\n      jumpi\n      dup1\n      0x43767832\n      eq\n      tag_10\n      jumpi\n      jump(tag_1)\n    tag_23:\n      dup1\n      0x084263f5\n      eq\n      tag_2\n      jumpi\n      dup1\n      0x0c96b701\n      eq\n      tag_3\n      jumpi\n      dup1\n      0x0f085e50\n      eq\n      tag_4\n      jumpi\n      dup1\n      0x2df368a5\n      eq\n      tag_5\n      jumpi\n    tag_1:\n      0x00\n      dup1\n      revert\n        /* \"Lottogemeinschaft.sol\":1965:1989  uint48 public auszahlung */\n    tag_2:\n      callvalue\n      dup1\n      iszero\n      tag_24\n      jumpi\n      0x00\n      dup1\n      revert\n    tag_24:\n      pop\n      tag_25\n      tag_26\n      jump\t// in\n    tag_25:\n      mload(0x40)\n      tag_27\n      swap2\n      swap1\n      tag_28\n      jump\t// in\n    tag_27:\n      mload(0x40)\n      dup1\n      swap2\n      sub\n      swap1\n      return\n        /* \"Lottogemeinschaft.sol\":4996:5593  function gewinnAuszahlen() public restictedToMitspieler nonReentrant {... */\n    tag_3:\n      callvalue\n      dup1\n      iszero\n      tag_29\n      jumpi\n      0x00\n      dup1\n      revert\n    tag_29:\n      pop\n      tag_30\n      tag_31\n      jump\t// in\n    tag_30:\n      stop\n        /* \"Lottogemeinschaft.sol\":2140:2177  uint48 public gewinnProMitspieler = 0 */\n    tag_4:\n      callvalue\n      dup1\n      iszero\n      tag_32\n      jumpi\n      0x00\n      dup1\n      revert\n    tag_32:\n      pop\n      tag_33\n      tag_34\n      jump\t// in\n    tag_33:\n      mload(0x40)\n      tag_35\n      swap2\n      swap1\n      tag_28\n      jump\t// in\n    tag_35:\n      mload(0x40)\n      dup1\n      swap2\n      sub\n      swap1\n      return\n        /* \"Lottogemeinschaft.sol\":1888:1920  uint32 public preisProMitspieler */\n    tag_5:\n      callvalue\n      dup1\n      iszero\n      tag_36\n      jumpi\n      0x00\n      dup1\n      revert\n    tag_36:\n      pop\n      tag_37\n      tag_38\n      jump\t// in\n    tag_37:\n      mload(0x40)\n      tag_39\n      swap2\n      swap1\n      tag_40\n      jump\t// in\n    tag_39:\n      mload(0x40)\n      dup1\n      swap2\n      sub\n      swap1\n      return\n        /* \"Lottogemeinschaft.sol\":5601:5837  function preisLottoscheinAendern(uint32 neuerPreis) public restictedToGruender{... */\n    tag_6:\n      callvalue\n      dup1\n      iszero\n      tag_41\n      jumpi\n      0x00\n      dup1\n      revert\n    tag_41:\n      pop\n      tag_42\n      0x04\n      dup1\n      calldatasize\n      sub\n      dup2\n      add\n      swap1\n      tag_43\n      swap2\n      swap1\n      tag_44\n      jump\t// in\n    tag_43:\n      tag_45\n      jump\t// in\n    tag_42:\n      stop\n        /* \"Lottogemeinschaft.sol\":1995:2037  mapping(address => bool) public mitspieler */\n    tag_7:\n      callvalue\n      dup1\n      iszero\n      tag_46\n      jumpi\n      0x00\n      dup1\n      revert\n    tag_46:\n      pop\n      tag_47\n      0x04\n      dup1\n      calldatasize\n      sub\n      dup2\n      add\n      swap1\n      tag_48\n      swap2\n      swap1\n      tag_49\n      jump\t// in\n    tag_48:\n      tag_50\n      jump\t// in\n    tag_47:\n      mload(0x40)\n      tag_51\n      swap2\n      swap1\n      tag_52\n      jump\t// in\n    tag_51:\n      mload(0x40)\n      dup1\n      swap2\n      sub\n      swap1\n      return\n        /* \"Lottogemeinschaft.sol\":2097:2134  uint16 public anzahlTeilnehmerAktuell */\n    tag_8:\n      callvalue\n      dup1\n      iszero\n      tag_53\n      jumpi\n      0x00\n      dup1\n      revert\n    tag_53:\n      pop\n      tag_54\n      tag_55\n      jump\t// in\n    tag_54:\n      mload(0x40)\n      tag_56\n      swap2\n      swap1\n      tag_57\n      jump\t// in\n    tag_56:\n      mload(0x40)\n      dup1\n      swap2\n      sub\n      swap1\n      return\n        /* \"Lottogemeinschaft.sol\":1852:1882  uint32 public preisLottoschein */\n    tag_9:\n      callvalue\n      dup1\n      iszero\n      tag_58\n      jumpi\n      0x00\n      dup1\n      revert\n    tag_58:\n      pop\n      tag_59\n      tag_60\n      jump\t// in\n    tag_59:\n      mload(0x40)\n      tag_61\n      swap2\n      swap1\n      tag_40\n      jump\t// in\n    tag_61:\n      mload(0x40)\n      dup1\n      swap2\n      sub\n      swap1\n      return\n        /* \"Lottogemeinschaft.sol\":6135:6408  function erlaubteMitspielerAdresseHinzufuegen(address erlaubterMitspieler) public restictedToGruender{... */\n    tag_10:\n      callvalue\n      dup1\n      iszero\n      tag_62\n      jumpi\n      0x00\n      dup1\n      revert\n    tag_62:\n      pop\n      tag_63\n      0x04\n      dup1\n      calldatasize\n      sub\n      dup2\n      add\n      swap1\n      tag_64\n      swap2\n      swap1\n      tag_49\n      jump\t// in\n    tag_64:\n      tag_65\n      jump\t// in\n    tag_63:\n      stop\n        /* \"Lottogemeinschaft.sol\":3333:4240  function mitmachen() public payable {... */\n    tag_11:\n      tag_66\n      tag_67\n      jump\t// in\n    tag_66:\n      stop\n        /* \"Lottogemeinschaft.sol\":1813:1846  uint16 public maxTeilnehmerAnzahl */\n    tag_12:\n      callvalue\n      dup1\n      iszero\n      tag_68\n      jumpi\n      0x00\n      dup1\n      revert\n    tag_68:\n      pop\n      tag_69\n      tag_70\n      jump\t// in\n    tag_69:\n      mload(0x40)\n      tag_71\n      swap2\n      swap1\n      tag_57\n      jump\t// in\n    tag_71:\n      mload(0x40)\n      dup1\n      swap2\n      sub\n      swap1\n      return\n        /* \"Lottogemeinschaft.sol\":1926:1959  string public spielauftragsNummer */\n    tag_13:\n      callvalue\n      dup1\n      iszero\n      tag_72\n      jumpi\n      0x00\n      dup1\n      revert\n    tag_72:\n      pop\n      tag_73\n      tag_74\n      jump\t// in\n    tag_73:\n      mload(0x40)\n      tag_75\n      swap2\n      swap1\n      tag_76\n      jump\t// in\n    tag_75:\n      mload(0x40)\n      dup1\n      swap2\n      sub\n      swap1\n      return\n        /* \"Lottogemeinschaft.sol\":2043:2091  mapping(address => bool) public gewinnAusgezahlt */\n    tag_14:\n      callvalue\n      dup1\n      iszero\n      tag_77\n      jumpi\n      0x00\n      dup1\n      revert\n    tag_77:\n      pop\n      tag_78\n      0x04\n      dup1\n      calldatasize\n      sub\n      dup2\n      add\n      swap1\n      tag_79\n      swap2\n      swap1\n      tag_49\n      jump\t// in\n    tag_79:\n      tag_80\n      jump\t// in\n    tag_78:\n      mload(0x40)\n      tag_81\n      swap2\n      swap1\n      tag_52\n      jump\t// in\n    tag_81:\n      mload(0x40)\n      dup1\n      swap2\n      sub\n      swap1\n      return\n        /* \"Lottogemeinschaft.sol\":1743:1766  address public gruender */\n    tag_15:\n      callvalue\n      dup1\n      iszero\n      tag_82\n      jumpi\n      0x00\n      dup1\n      revert\n    tag_82:\n      pop\n      tag_83\n      tag_84\n      jump\t// in\n    tag_83:\n      mload(0x40)\n      tag_85\n      swap2\n      swap1\n      tag_86\n      jump\t// in\n    tag_85:\n      mload(0x40)\n      dup1\n      swap2\n      sub\n      swap1\n      return\n        /* \"Lottogemeinschaft.sol\":2231:2270  bool public nurErlaubteMitspieler=false */\n    tag_16:\n      callvalue\n      dup1\n      iszero\n      tag_87\n      jumpi\n      0x00\n      dup1\n      revert\n    tag_87:\n      pop\n      tag_88\n      tag_89\n      jump\t// in\n    tag_88:\n      mload(0x40)\n      tag_90\n      swap2\n      swap1\n      tag_52\n      jump\t// in\n    tag_90:\n      mload(0x40)\n      dup1\n      swap2\n      sub\n      swap1\n      return\n        /* \"Lottogemeinschaft.sol\":2183:2225  bool public kannGewinnAbgeholtWerden=false */\n    tag_17:\n      callvalue\n      dup1\n      iszero\n      tag_91\n      jumpi\n      0x00\n      dup1\n      revert\n    tag_91:\n      pop\n      tag_92\n      tag_93\n      jump\t// in\n    tag_92:\n      mload(0x40)\n      tag_94\n      swap2\n      swap1\n      tag_52\n      jump\t// in\n    tag_94:\n      mload(0x40)\n      dup1\n      swap2\n      sub\n      swap1\n      return\n        /* \"Lottogemeinschaft.sol\":4288:4946  function gewinnEinzahlen(uint48 gewinn) public payable restictedToGruender {... */\n    tag_18:\n      tag_95\n      0x04\n      dup1\n      calldatasize\n      sub\n      dup2\n      add\n      swap1\n      tag_96\n      swap2\n      swap1\n      tag_97\n      jump\t// in\n    tag_96:\n      tag_98\n      jump\t// in\n    tag_95:\n      stop\n        /* \"Lottogemeinschaft.sol\":1772:1807  string public tippgemeinschaftsName */\n    tag_19:\n      callvalue\n      dup1\n      iszero\n      tag_99\n      jumpi\n      0x00\n      dup1\n      revert\n    tag_99:\n      pop\n      tag_100\n      tag_101\n      jump\t// in\n    tag_100:\n      mload(0x40)\n      tag_102\n      swap2\n      swap1\n      tag_76\n      jump\t// in\n    tag_102:\n      mload(0x40)\n      dup1\n      swap2\n      sub\n      swap1\n      return\n        /* \"Lottogemeinschaft.sol\":5843:6129  function anzahlMitspielerAendern(uint16 neueAnzahlMaxTeilnehmer) public restictedToGruender{... */\n    tag_20:\n      callvalue\n      dup1\n      iszero\n      tag_103\n      jumpi\n      0x00\n      dup1\n      revert\n    tag_103:\n      pop\n      tag_104\n      0x04\n      dup1\n      calldatasize\n      sub\n      dup2\n      add\n      swap1\n      tag_105\n      swap2\n      swap1\n      tag_106\n      jump\t// in\n    tag_105:\n      tag_107\n      jump\t// in\n    tag_104:\n      stop\n        /* \"Lottogemeinschaft.sol\":1965:1989  uint48 public auszahlung */\n    tag_26:\n      0x04\n      0x00\n      swap1\n      sload\n      swap1\n      0x0100\n      exp\n      swap1\n      div\n      0xffffffffffff\n      and\n      dup2\n      jump\t// out\n        /* \"Lottogemeinschaft.sol\":4996:5593  function gewinnAuszahlen() public restictedToMitspieler nonReentrant {... */\n    tag_31:\n        /* \"Lottogemeinschaft.sol\":3147:3157  mitspieler */\n      0x05\n        /* \"Lottogemeinschaft.sol\":3147:3169  mitspieler[msg.sender] */\n      0x00\n        /* \"Lottogemeinschaft.sol\":3158:3168  msg.sender */\n      caller\n        /* \"Lottogemeinschaft.sol\":3147:3169  mitspieler[msg.sender] */\n      0xffffffffffffffffffffffffffffffffffffffff\n      and\n      0xffffffffffffffffffffffffffffffffffffffff\n      and\n      dup2\n      mstore\n      0x20\n      add\n      swap1\n      dup2\n      mstore\n      0x20\n      add\n      0x00\n      keccak256\n      0x00\n      swap1\n      sload\n      swap1\n      0x0100\n      exp\n      swap1\n      div\n      0xff\n      and\n        /* \"Lottogemeinschaft.sol\":3139:3170  require(mitspieler[msg.sender]) */\n      tag_109\n      jumpi\n      0x00\n      dup1\n      revert\n    tag_109:\n        /* \"Lottogemeinschaft.sol\":3237:3243  locked */\n      0x09\n      0x00\n      swap1\n      sload\n      swap1\n      0x0100\n      exp\n      swap1\n      div\n      0xff\n      and\n        /* \"Lottogemeinschaft.sol\":3236:3243  !locked */\n      iszero\n        /* \"Lottogemeinschaft.sol\":3228:3262  require(!locked, \"No re-entrancy\") */\n      tag_111\n      jumpi\n      mload(0x40)\n      0x08c379a000000000000000000000000000000000000000000000000000000000\n      dup2\n      mstore\n      0x04\n      add\n      tag_112\n      swap1\n      tag_113\n      jump\t// in\n    tag_112:\n      mload(0x40)\n      dup1\n      swap2\n      sub\n      swap1\n      revert\n    tag_111:\n        /* \"Lottogemeinschaft.sol\":3281:3285  true */\n      0x01\n        /* \"Lottogemeinschaft.sol\":3272:3278  locked */\n      0x09\n      0x00\n        /* \"Lottogemeinschaft.sol\":3272:3285  locked = true */\n      0x0100\n      exp\n      dup2\n      sload\n      dup2\n      0xff\n      mul\n      not\n      and\n      swap1\n      dup4\n      iszero\n      iszero\n      mul\n      or\n      swap1\n      sstore\n      pop\n        /* \"Lottogemeinschaft.sol\":5123:5124  0 */\n      0x00\n        /* \"Lottogemeinschaft.sol\":5101:5120  gewinnProMitspieler */\n      0x07\n      0x02\n      swap1\n      sload\n      swap1\n      0x0100\n      exp\n      swap1\n      div\n      0xffffffffffff\n      and\n        /* \"Lottogemeinschaft.sol\":5101:5124  gewinnProMitspieler > 0 */\n      0xffffffffffff\n      and\n      gt\n        /* \"Lottogemeinschaft.sol\":5093:5151  require(gewinnProMitspieler > 0, \"Kein Gewinn eingezahlt\") */\n      tag_115\n      jumpi\n      mload(0x40)\n      0x08c379a000000000000000000000000000000000000000000000000000000000\n      dup2\n      mstore\n      0x04\n      add\n      tag_116\n      swap1\n      tag_117\n      jump\t// in\n    tag_116:\n      mload(0x40)\n      dup1\n      swap2\n      sub\n      swap1\n      revert\n    tag_115:\n        /* \"Lottogemeinschaft.sol\":5169:5179  mitspieler */\n      0x05\n        /* \"Lottogemeinschaft.sol\":5169:5191  mitspieler[msg.sender] */\n      0x00\n        /* \"Lottogemeinschaft.sol\":5180:5190  msg.sender */\n      caller\n        /* \"Lottogemeinschaft.sol\":5169:5191  mitspieler[msg.sender] */\n      0xffffffffffffffffffffffffffffffffffffffff\n      and\n      0xffffffffffffffffffffffffffffffffffffffff\n      and\n      dup2\n      mstore\n      0x20\n      add\n      swap1\n      dup2\n      mstore\n      0x20\n      add\n      0x00\n      keccak256\n      0x00\n      swap1\n      sload\n      swap1\n      0x0100\n      exp\n      swap1\n      div\n      0xff\n      and\n        /* \"Lottogemeinschaft.sol\":5161:5219  require(mitspieler[msg.sender], \"Du bist kein Mitspieler\") */\n      tag_118\n      jumpi\n      mload(0x40)\n      0x08c379a000000000000000000000000000000000000000000000000000000000\n      dup2\n      mstore\n      0x04\n      add\n      tag_119\n      swap1\n      tag_120\n      jump\t// in\n    tag_119:\n      mload(0x40)\n      dup1\n      swap2\n      sub\n      swap1\n      revert\n    tag_118:\n        /* \"Lottogemeinschaft.sol\":5238:5254  gewinnAusgezahlt */\n      0x06\n        /* \"Lottogemeinschaft.sol\":5238:5266  gewinnAusgezahlt[msg.sender] */\n      0x00\n        /* \"Lottogemeinschaft.sol\":5255:5265  msg.sender */\n      caller\n        /* \"Lottogemeinschaft.sol\":5238:5266  gewinnAusgezahlt[msg.sender] */\n      0xffffffffffffffffffffffffffffffffffffffff\n      and\n      0xffffffffffffffffffffffffffffffffffffffff\n      and\n      dup2\n      mstore\n      0x20\n      add\n      swap1\n      dup2\n      mstore\n      0x20\n      add\n      0x00\n      keccak256\n      0x00\n      swap1\n      sload\n      swap1\n      0x0100\n      exp\n      swap1\n      div\n      0xff\n      and\n        /* \"Lottogemeinschaft.sol\":5237:5266  !gewinnAusgezahlt[msg.sender] */\n      iszero\n        /* \"Lottogemeinschaft.sol\":5229:5307  require(!gewinnAusgezahlt[msg.sender], \"Dein Gewinn wurde bereits ausgezahlt\") */\n      tag_121\n      jumpi\n      mload(0x40)\n      0x08c379a000000000000000000000000000000000000000000000000000000000\n      dup2\n      mstore\n      0x04\n      add\n      tag_122\n      swap1\n      tag_123\n      jump\t// in\n    tag_122:\n      mload(0x40)\n      dup1\n      swap2\n      sub\n      swap1\n      revert\n    tag_121:\n        /* \"Lottogemeinschaft.sol\":5368:5372  true */\n      0x01\n        /* \"Lottogemeinschaft.sol\":5337:5353  gewinnAusgezahlt */\n      0x06\n        /* \"Lottogemeinschaft.sol\":5337:5365  gewinnAusgezahlt[msg.sender] */\n      0x00\n        /* \"Lottogemeinschaft.sol\":5354:5364  msg.sender */\n      caller\n        /* \"Lottogemeinschaft.sol\":5337:5365  gewinnAusgezahlt[msg.sender] */\n      0xffffffffffffffffffffffffffffffffffffffff\n      and\n      0xffffffffffffffffffffffffffffffffffffffff\n      and\n      dup2\n      mstore\n      0x20\n      add\n      swap1\n      dup2\n      mstore\n      0x20\n      add\n      0x00\n      keccak256\n      0x00\n        /* \"Lottogemeinschaft.sol\":5337:5372  gewinnAusgezahlt[msg.sender] = true */\n      0x0100\n      exp\n      dup2\n      sload\n      dup2\n      0xff\n      mul\n      not\n      and\n      swap1\n      dup4\n      iszero\n      iszero\n      mul\n      or\n      swap1\n      sstore\n      pop\n        /* \"Lottogemeinschaft.sol\":5407:5429  uint auszahlungsbetrag */\n      0x00\n        /* \"Lottogemeinschaft.sol\":5432:5451  gewinnProMitspieler */\n      0x07\n      0x02\n      swap1\n      sload\n      swap1\n      0x0100\n      exp\n      swap1\n      div\n      0xffffffffffff\n      and\n        /* \"Lottogemeinschaft.sol\":5407:5451  uint auszahlungsbetrag = gewinnProMitspieler */\n      0xffffffffffff\n      and\n      swap1\n      pop\n        /* \"Lottogemeinschaft.sol\":5462:5471  bool sent */\n      0x00\n        /* \"Lottogemeinschaft.sol\":5477:5487  msg.sender */\n      caller\n        /* \"Lottogemeinschaft.sol\":5477:5492  msg.sender.call */\n      0xffffffffffffffffffffffffffffffffffffffff\n      and\n        /* \"Lottogemeinschaft.sol\":5500:5517  auszahlungsbetrag */\n      dup3\n        /* \"Lottogemeinschaft.sol\":5477:5522  msg.sender.call{value: auszahlungsbetrag}(\"\") */\n      mload(0x40)\n      tag_124\n      swap1\n      tag_125\n      jump\t// in\n    tag_124:\n      0x00\n      mload(0x40)\n      dup1\n      dup4\n      sub\n      dup2\n      dup6\n      dup8\n      gas\n      call\n      swap3\n      pop\n      pop\n      pop\n      returndatasize\n      dup1\n      0x00\n      dup2\n      eq\n      tag_128\n      jumpi\n      mload(0x40)\n      swap2\n      pop\n      and(add(returndatasize, 0x3f), not(0x1f))\n      dup3\n      add\n      0x40\n      mstore\n      returndatasize\n      dup3\n      mstore\n      returndatasize\n      0x00\n      0x20\n      dup5\n      add\n      returndatacopy\n      jump(tag_127)\n    tag_128:\n      0x60\n      swap2\n      pop\n    tag_127:\n      pop\n        /* \"Lottogemeinschaft.sol\":5461:5522  (bool sent, ) = msg.sender.call{value: auszahlungsbetrag}(\"\") */\n      pop\n      swap1\n      pop\n        /* \"Lottogemeinschaft.sol\":5540:5544  sent */\n      dup1\n        /* \"Lottogemeinschaft.sol\":5532:5586  require(sent, \"Auszahlung des Gewinns fehlgeschlagen\") */\n      tag_129\n      jumpi\n      mload(0x40)\n      0x08c379a000000000000000000000000000000000000000000000000000000000\n      dup2\n      mstore\n      0x04\n      add\n      tag_130\n      swap1\n      tag_131\n      jump\t// in\n    tag_130:\n      mload(0x40)\n      dup1\n      swap2\n      sub\n      swap1\n      revert\n    tag_129:\n        /* \"Lottogemeinschaft.sol\":5065:5593  {... */\n      pop\n      pop\n        /* \"Lottogemeinschaft.sol\":3315:3320  false */\n      0x00\n        /* \"Lottogemeinschaft.sol\":3306:3312  locked */\n      0x09\n      0x00\n        /* \"Lottogemeinschaft.sol\":3306:3320  locked = false */\n      0x0100\n      exp\n      dup2\n      sload\n      dup2\n      0xff\n      mul\n      not\n      and\n      swap1\n      dup4\n      iszero\n      iszero\n      mul\n      or\n      swap1\n      sstore\n      pop\n        /* \"Lottogemeinschaft.sol\":4996:5593  function gewinnAuszahlen() public restictedToMitspieler nonReentrant {... */\n      jump\t// out\n        /* \"Lottogemeinschaft.sol\":2140:2177  uint48 public gewinnProMitspieler = 0 */\n    tag_34:\n      0x07\n      0x02\n      swap1\n      sload\n      swap1\n      0x0100\n      exp\n      swap1\n      div\n      0xffffffffffff\n      and\n      dup2\n      jump\t// out\n        /* \"Lottogemeinschaft.sol\":1888:1920  uint32 public preisProMitspieler */\n    tag_38:\n      0x02\n      0x06\n      swap1\n      sload\n      swap1\n      0x0100\n      exp\n      swap1\n      div\n      0xffffffff\n      and\n      dup2\n      jump\t// out\n        /* \"Lottogemeinschaft.sol\":5601:5837  function preisLottoscheinAendern(uint32 neuerPreis) public restictedToGruender{... */\n    tag_45:\n        /* \"Lottogemeinschaft.sol\":3064:3072  gruender */\n      0x00\n      dup1\n      sload\n      swap1\n      0x0100\n      exp\n      swap1\n      div\n      0xffffffffffffffffffffffffffffffffffffffff\n      and\n        /* \"Lottogemeinschaft.sol\":3050:3072  msg.sender == gruender */\n      0xffffffffffffffffffffffffffffffffffffffff\n      and\n        /* \"Lottogemeinschaft.sol\":3050:3060  msg.sender */\n      caller\n        /* \"Lottogemeinschaft.sol\":3050:3072  msg.sender == gruender */\n      0xffffffffffffffffffffffffffffffffffffffff\n      and\n      eq\n        /* \"Lottogemeinschaft.sol\":3042:3073  require(msg.sender == gruender) */\n      tag_133\n      jumpi\n      0x00\n      dup1\n      revert\n    tag_133:\n        /* \"Lottogemeinschaft.sol\":5722:5723  0 */\n      0x00\n        /* \"Lottogemeinschaft.sol\":5697:5720  anzahlTeilnehmerAktuell */\n      0x07\n      0x00\n      swap1\n      sload\n      swap1\n      0x0100\n      exp\n      swap1\n      div\n      0xffff\n      and\n        /* \"Lottogemeinschaft.sol\":5697:5723  anzahlTeilnehmerAktuell==0 */\n      0xffff\n      and\n      eq\n        /* \"Lottogemeinschaft.sol\":5689:5791  require(anzahlTeilnehmerAktuell==0, \"Es gibt bereits Mitspieler. Preisaenderung nicht mehr moeglich.\") */\n      tag_135\n      jumpi\n      mload(0x40)\n      0x08c379a000000000000000000000000000000000000000000000000000000000\n      dup2\n      mstore\n      0x04\n      add\n      tag_136\n      swap1\n      tag_137\n      jump\t// in\n    tag_136:\n      mload(0x40)\n      dup1\n      swap2\n      sub\n      swap1\n      revert\n    tag_135:\n        /* \"Lottogemeinschaft.sol\":5820:5830  neuerPreis */\n      dup1\n        /* \"Lottogemeinschaft.sol\":5801:5817  preisLottoschein */\n      0x02\n      dup1\n        /* \"Lottogemeinschaft.sol\":5801:5830  preisLottoschein = neuerPreis */\n      0x0100\n      exp\n      dup2\n      sload\n      dup2\n      0xffffffff\n      mul\n      not\n      and\n      swap1\n      dup4\n      0xffffffff\n      and\n      mul\n      or\n      swap1\n      sstore\n      pop\n        /* \"Lottogemeinschaft.sol\":5601:5837  function preisLottoscheinAendern(uint32 neuerPreis) public restictedToGruender{... */\n      pop\n      jump\t// out\n        /* \"Lottogemeinschaft.sol\":1995:2037  mapping(address => bool) public mitspieler */\n    tag_50:\n      mstore(0x20, 0x05)\n      dup1\n      0x00\n      mstore\n      keccak256(0x00, 0x40)\n      0x00\n      swap2\n      pop\n      sload\n      swap1\n      0x0100\n      exp\n      swap1\n      div\n      0xff\n      and\n      dup2\n      jump\t// out\n        /* \"Lottogemeinschaft.sol\":2097:2134  uint16 public anzahlTeilnehmerAktuell */\n    tag_55:\n      0x07\n      0x00\n      swap1\n      sload\n      swap1\n      0x0100\n      exp\n      swap1\n      div\n      0xffff\n      and\n      dup2\n      jump\t// out\n        /* \"Lottogemeinschaft.sol\":1852:1882  uint32 public preisLottoschein */\n    tag_60:\n      0x02\n      dup1\n      sload\n      swap1\n      0x0100\n      exp\n      swap1\n      div\n      0xffffffff\n      and\n      dup2\n      jump\t// out\n        /* \"Lottogemeinschaft.sol\":6135:6408  function erlaubteMitspielerAdresseHinzufuegen(address erlaubterMitspieler) public restictedToGruender{... */\n    tag_65:\n        /* \"Lottogemeinschaft.sol\":3064:3072  gruender */\n      0x00\n      dup1\n      sload\n      swap1\n      0x0100\n      exp\n      swap1\n      div\n      0xffffffffffffffffffffffffffffffffffffffff\n      and\n        /* \"Lottogemeinschaft.sol\":3050:3072  msg.sender == gruender */\n      0xffffffffffffffffffffffffffffffffffffffff\n      and\n        /* \"Lottogemeinschaft.sol\":3050:3060  msg.sender */\n      caller\n        /* \"Lottogemeinschaft.sol\":3050:3072  msg.sender == gruender */\n      0xffffffffffffffffffffffffffffffffffffffff\n      and\n      eq\n        /* \"Lottogemeinschaft.sol\":3042:3073  require(msg.sender == gruender) */\n      tag_139\n      jumpi\n      0x00\n      dup1\n      revert\n    tag_139:\n        /* \"Lottogemeinschaft.sol\":6280:6281  0 */\n      0x00\n        /* \"Lottogemeinschaft.sol\":6255:6278  anzahlTeilnehmerAktuell */\n      0x07\n      0x00\n      swap1\n      sload\n      swap1\n      0x0100\n      exp\n      swap1\n      div\n      0xffff\n      and\n        /* \"Lottogemeinschaft.sol\":6255:6281  anzahlTeilnehmerAktuell==0 */\n      0xffff\n      and\n      eq\n        /* \"Lottogemeinschaft.sol\":6247:6344  require(anzahlTeilnehmerAktuell==0, \"Es gibt bereits Mitspieler. Aenderung nicht mehr moeglich.\") */\n      tag_141\n      jumpi\n      mload(0x40)\n      0x08c379a000000000000000000000000000000000000000000000000000000000\n      dup2\n      mstore\n      0x04\n      add\n      tag_142\n      swap1\n      tag_143\n      jump\t// in\n    tag_142:\n      mload(0x40)\n      dup1\n      swap2\n      sub\n      swap1\n      revert\n    tag_141:\n        /* \"Lottogemeinschaft.sol\":6397:6401  true */\n      0x01\n        /* \"Lottogemeinschaft.sol\":6355:6373  erlaubteMitspieler */\n      0x08\n        /* \"Lottogemeinschaft.sol\":6355:6394  erlaubteMitspieler[erlaubterMitspieler] */\n      0x00\n        /* \"Lottogemeinschaft.sol\":6374:6393  erlaubterMitspieler */\n      dup4\n        /* \"Lottogemeinschaft.sol\":6355:6394  erlaubteMitspieler[erlaubterMitspieler] */\n      0xffffffffffffffffffffffffffffffffffffffff\n      and\n      0xffffffffffffffffffffffffffffffffffffffff\n      and\n      dup2\n      mstore\n      0x20\n      add\n      swap1\n      dup2\n      mstore\n      0x20\n      add\n      0x00\n      keccak256\n      0x00\n        /* \"Lottogemeinschaft.sol\":6355:6401  erlaubteMitspieler[erlaubterMitspieler] = true */\n      0x0100\n      exp\n      dup2\n      sload\n      dup2\n      0xff\n      mul\n      not\n      and\n      swap1\n      dup4\n      iszero\n      iszero\n      mul\n      or\n      swap1\n      sstore\n      pop\n        /* \"Lottogemeinschaft.sol\":6135:6408  function erlaubteMitspielerAdresseHinzufuegen(address erlaubterMitspieler) public restictedToGruender{... */\n      pop\n      jump\t// out\n        /* \"Lottogemeinschaft.sol\":3333:4240  function mitmachen() public payable {... */\n    tag_67:\n        /* \"Lottogemeinschaft.sol\":3418:3437  maxTeilnehmerAnzahl */\n      0x02\n      0x00\n      swap1\n      sload\n      swap1\n      0x0100\n      exp\n      swap1\n      div\n      0xffff\n      and\n        /* \"Lottogemeinschaft.sol\":3399:3437  preisLottoschein / maxTeilnehmerAnzahl */\n      0xffff\n      and\n        /* \"Lottogemeinschaft.sol\":3399:3415  preisLottoschein */\n      0x02\n      dup1\n      sload\n      swap1\n      0x0100\n      exp\n      swap1\n      div\n      0xffffffff\n      and\n        /* \"Lottogemeinschaft.sol\":3399:3437  preisLottoschein / maxTeilnehmerAnzahl */\n      tag_145\n      swap2\n      swap1\n      tag_146\n      jump\t// in\n    tag_145:\n        /* \"Lottogemeinschaft.sol\":3379:3397  preisProMitspieler */\n      0x02\n      0x06\n        /* \"Lottogemeinschaft.sol\":3379:3437  preisProMitspieler= preisLottoschein / maxTeilnehmerAnzahl */\n      0x0100\n      exp\n      dup2\n      sload\n      dup2\n      0xffffffff\n      mul\n      not\n      and\n      swap1\n      dup4\n      0xffffffff\n      and\n      mul\n      or\n      swap1\n      sstore\n      pop\n        /* \"Lottogemeinschaft.sol\":3488:3489  0 */\n      0x00\n        /* \"Lottogemeinschaft.sol\":3469:3487  preisProMitspieler */\n      0x02\n      0x06\n      swap1\n      sload\n      swap1\n      0x0100\n      exp\n      swap1\n      div\n      0xffffffff\n      and\n        /* \"Lottogemeinschaft.sol\":3469:3489  preisProMitspieler>0 */\n      0xffffffff\n      and\n      gt\n        /* \"Lottogemeinschaft.sol\":3461:3519  require(preisProMitspieler>0, \"Kein Preis pro Mitspieler\") */\n      tag_147\n      jumpi\n      mload(0x40)\n      0x08c379a000000000000000000000000000000000000000000000000000000000\n      dup2\n      mstore\n      0x04\n      add\n      tag_148\n      swap1\n      tag_149\n      jump\t// in\n    tag_148:\n      mload(0x40)\n      dup1\n      swap2\n      sub\n      swap1\n      revert\n    tag_147:\n        /* \"Lottogemeinschaft.sol\":3550:3568  preisProMitspieler */\n      0x02\n      0x06\n      swap1\n      sload\n      swap1\n      0x0100\n      exp\n      swap1\n      div\n      0xffffffff\n      and\n        /* \"Lottogemeinschaft.sol\":3537:3568  msg.value >= preisProMitspieler */\n      0xffffffff\n      and\n        /* \"Lottogemeinschaft.sol\":3537:3546  msg.value */\n      callvalue\n        /* \"Lottogemeinschaft.sol\":3537:3568  msg.value >= preisProMitspieler */\n      lt\n      iszero\n        /* \"Lottogemeinschaft.sol\":3529:3602  require(msg.value >= preisProMitspieler, \"Zu geringer Einzahlungsbetrag\") */\n      tag_150\n      jumpi\n      mload(0x40)\n      0x08c379a000000000000000000000000000000000000000000000000000000000\n      dup2\n      mstore\n      0x04\n      add\n      tag_151\n      swap1\n      tag_152\n      jump\t// in\n    tag_151:\n      mload(0x40)\n      dup1\n      swap2\n      sub\n      swap1\n      revert\n    tag_150:\n        /* \"Lottogemeinschaft.sol\":3621:3631  mitspieler */\n      0x05\n        /* \"Lottogemeinschaft.sol\":3621:3643  mitspieler[msg.sender] */\n      0x00\n        /* \"Lottogemeinschaft.sol\":3632:3642  msg.sender */\n      caller\n        /* \"Lottogemeinschaft.sol\":3621:3643  mitspieler[msg.sender] */\n      0xffffffffffffffffffffffffffffffffffffffff\n      and\n      0xffffffffffffffffffffffffffffffffffffffff\n      and\n      dup2\n      mstore\n      0x20\n      add\n      swap1\n      dup2\n      mstore\n      0x20\n      add\n      0x00\n      keccak256\n      0x00\n      swap1\n      sload\n      swap1\n      0x0100\n      exp\n      swap1\n      div\n      0xff\n      and\n        /* \"Lottogemeinschaft.sol\":3620:3643  !mitspieler[msg.sender] */\n      iszero\n        /* \"Lottogemeinschaft.sol\":3612:3682  require(!mitspieler[msg.sender], \"Bereits als Mitspieler registriert\") */\n      tag_153\n      jumpi\n      mload(0x40)\n      0x08c379a000000000000000000000000000000000000000000000000000000000\n      dup2\n      mstore\n      0x04\n      add\n      tag_154\n      swap1\n      tag_155\n      jump\t// in\n    tag_154:\n      mload(0x40)\n      dup1\n      swap2\n      sub\n      swap1\n      revert\n    tag_153:\n        /* \"Lottogemeinschaft.sol\":3726:3745  maxTeilnehmerAnzahl */\n      0x02\n      0x00\n      swap1\n      sload\n      swap1\n      0x0100\n      exp\n      swap1\n      div\n      0xffff\n      and\n        /* \"Lottogemeinschaft.sol\":3700:3745  anzahlTeilnehmerAktuell < maxTeilnehmerAnzahl */\n      0xffff\n      and\n        /* \"Lottogemeinschaft.sol\":3700:3723  anzahlTeilnehmerAktuell */\n      0x07\n      0x00\n      swap1\n      sload\n      swap1\n      0x0100\n      exp\n      swap1\n      div\n      0xffff\n      and\n        /* \"Lottogemeinschaft.sol\":3700:3745  anzahlTeilnehmerAktuell < maxTeilnehmerAnzahl */\n      0xffff\n      and\n      lt\n        /* \"Lottogemeinschaft.sol\":3692:3782  require(anzahlTeilnehmerAktuell < maxTeilnehmerAnzahl, \"Maximale Teilnehmerzahl erreicht\") */\n      tag_156\n      jumpi\n      mload(0x40)\n      0x08c379a000000000000000000000000000000000000000000000000000000000\n      dup2\n      mstore\n      0x04\n      add\n      tag_157\n      swap1\n      tag_158\n      jump\t// in\n    tag_157:\n      mload(0x40)\n      dup1\n      swap2\n      sub\n      swap1\n      revert\n    tag_156:\n        /* \"Lottogemeinschaft.sol\":3821:3822  0 */\n      0x00\n        /* \"Lottogemeinschaft.sol\":3800:3819  gewinnProMitspieler */\n      0x07\n      0x02\n      swap1\n      sload\n      swap1\n      0x0100\n      exp\n      swap1\n      div\n      0xffffffffffff\n      and\n        /* \"Lottogemeinschaft.sol\":3800:3822  gewinnProMitspieler==0 */\n      0xffffffffffff\n      and\n      eq\n        /* \"Lottogemeinschaft.sol\":3792:3858  require(gewinnProMitspieler==0, \"Gewinn wurde bereits eingezahlt\") */\n      tag_159\n      jumpi\n      mload(0x40)\n      0x08c379a000000000000000000000000000000000000000000000000000000000\n      dup2\n      mstore\n      0x04\n      add\n      tag_160\n      swap1\n      tag_161\n      jump\t// in\n    tag_160:\n      mload(0x40)\n      dup1\n      swap2\n      sub\n      swap1\n      revert\n    tag_159:\n        /* \"Lottogemeinschaft.sol\":3872:3893  nurErlaubteMitspieler */\n      0x07\n      0x09\n      swap1\n      sload\n      swap1\n      0x0100\n      exp\n      swap1\n      div\n      0xff\n      and\n        /* \"Lottogemeinschaft.sol\":3868:3958  if (nurErlaubteMitspieler){... */\n      iszero\n      tag_162\n      jumpi\n        /* \"Lottogemeinschaft.sol\":3916:3934  erlaubteMitspieler */\n      0x08\n        /* \"Lottogemeinschaft.sol\":3916:3946  erlaubteMitspieler[msg.sender] */\n      0x00\n        /* \"Lottogemeinschaft.sol\":3935:3945  msg.sender */\n      caller\n        /* \"Lottogemeinschaft.sol\":3916:3946  erlaubteMitspieler[msg.sender] */\n      0xffffffffffffffffffffffffffffffffffffffff\n      and\n      0xffffffffffffffffffffffffffffffffffffffff\n      and\n      dup2\n      mstore\n      0x20\n      add\n      swap1\n      dup2\n      mstore\n      0x20\n      add\n      0x00\n      keccak256\n      0x00\n      swap1\n      sload\n      swap1\n      0x0100\n      exp\n      swap1\n      div\n      0xff\n      and\n        /* \"Lottogemeinschaft.sol\":3908:3947  require(erlaubteMitspieler[msg.sender]) */\n      tag_163\n      jumpi\n      0x00\n      dup1\n      revert\n    tag_163:\n        /* \"Lottogemeinschaft.sol\":3868:3958  if (nurErlaubteMitspieler){... */\n    tag_162:\n        /* \"Lottogemeinschaft.sol\":3989:4005  uint ueberschuss */\n      0x00\n        /* \"Lottogemeinschaft.sol\":4020:4038  preisProMitspieler */\n      0x02\n      0x06\n      swap1\n      sload\n      swap1\n      0x0100\n      exp\n      swap1\n      div\n      0xffffffff\n      and\n        /* \"Lottogemeinschaft.sol\":4008:4038  msg.value - preisProMitspieler */\n      0xffffffff\n      and\n        /* \"Lottogemeinschaft.sol\":4008:4017  msg.value */\n      callvalue\n        /* \"Lottogemeinschaft.sol\":4008:4038  msg.value - preisProMitspieler */\n      tag_164\n      swap2\n      swap1\n      tag_165\n      jump\t// in\n    tag_164:\n        /* \"Lottogemeinschaft.sol\":3989:4038  uint ueberschuss = msg.value - preisProMitspieler */\n      swap1\n      pop\n        /* \"Lottogemeinschaft.sol\":4073:4077  true */\n      0x01\n        /* \"Lottogemeinschaft.sol\":4048:4058  mitspieler */\n      0x05\n        /* \"Lottogemeinschaft.sol\":4048:4070  mitspieler[msg.sender] */\n      0x00\n        /* \"Lottogemeinschaft.sol\":4059:4069  msg.sender */\n      caller\n        /* \"Lottogemeinschaft.sol\":4048:4070  mitspieler[msg.sender] */\n      0xffffffffffffffffffffffffffffffffffffffff\n      and\n      0xffffffffffffffffffffffffffffffffffffffff\n      and\n      dup2\n      mstore\n      0x20\n      add\n      swap1\n      dup2\n      mstore\n      0x20\n      add\n      0x00\n      keccak256\n      0x00\n        /* \"Lottogemeinschaft.sol\":4048:4077  mitspieler[msg.sender] = true */\n      0x0100\n      exp\n      dup2\n      sload\n      dup2\n      0xff\n      mul\n      not\n      and\n      swap1\n      dup4\n      iszero\n      iszero\n      mul\n      or\n      swap1\n      sstore\n      pop\n        /* \"Lottogemeinschaft.sol\":4087:4110  anzahlTeilnehmerAktuell */\n      0x07\n      0x00\n        /* \"Lottogemeinschaft.sol\":4087:4112  anzahlTeilnehmerAktuell++ */\n      dup2\n      dup2\n      swap1\n      sload\n      swap1\n      0x0100\n      exp\n      swap1\n      div\n      0xffff\n      and\n      dup1\n      swap3\n      swap2\n      swap1\n      tag_166\n      swap1\n      tag_167\n      jump\t// in\n    tag_166:\n      swap2\n      swap1\n      0x0100\n      exp\n      dup2\n      sload\n      dup2\n      0xffff\n      mul\n      not\n      and\n      swap1\n      dup4\n      0xffff\n      and\n      mul\n      or\n      swap1\n      sstore\n      pop\n      pop\n        /* \"Lottogemeinschaft.sol\":4165:4166  0 */\n      0x00\n        /* \"Lottogemeinschaft.sol\":4151:4162  ueberschuss */\n      dup2\n        /* \"Lottogemeinschaft.sol\":4151:4166  ueberschuss > 0 */\n      gt\n        /* \"Lottogemeinschaft.sol\":4147:4234  if (ueberschuss > 0) {... */\n      iszero\n      tag_168\n      jumpi\n        /* \"Lottogemeinschaft.sol\":4190:4200  msg.sender */\n      caller\n        /* \"Lottogemeinschaft.sol\":4182:4210  payable(msg.sender).transfer */\n      0xffffffffffffffffffffffffffffffffffffffff\n      and\n        /* \"Lottogemeinschaft.sol\":4182:4223  payable(msg.sender).transfer(ueberschuss) */\n      0x08fc\n        /* \"Lottogemeinschaft.sol\":4211:4222  ueberschuss */\n      dup3\n        /* \"Lottogemeinschaft.sol\":4182:4223  payable(msg.sender).transfer(ueberschuss) */\n      swap1\n      dup2\n      iszero\n      mul\n      swap1\n      mload(0x40)\n      0x00\n      mload(0x40)\n      dup1\n      dup4\n      sub\n      dup2\n      dup6\n      dup9\n      dup9\n      call\n      swap4\n      pop\n      pop\n      pop\n      pop\n      iszero\n      dup1\n      iszero\n      tag_170\n      jumpi\n      returndatasize\n      0x00\n      dup1\n      returndatacopy\n      revert(0x00, returndatasize)\n    tag_170:\n      pop\n        /* \"Lottogemeinschaft.sol\":4147:4234  if (ueberschuss > 0) {... */\n    tag_168:\n        /* \"Lottogemeinschaft.sol\":3369:4240  {... */\n      pop\n        /* \"Lottogemeinschaft.sol\":3333:4240  function mitmachen() public payable {... */\n      jump\t// out\n        /* \"Lottogemeinschaft.sol\":1813:1846  uint16 public maxTeilnehmerAnzahl */\n    tag_70:\n      0x02\n      0x00\n      swap1\n      sload\n      swap1\n      0x0100\n      exp\n      swap1\n      div\n      0xffff\n      and\n      dup2\n      jump\t// out\n        /* \"Lottogemeinschaft.sol\":1926:1959  string public spielauftragsNummer */\n    tag_74:\n      0x03\n      dup1\n      sload\n      tag_171\n      swap1\n      tag_172\n      jump\t// in\n    tag_171:\n      dup1\n      0x1f\n      add\n      0x20\n      dup1\n      swap2\n      div\n      mul\n      0x20\n      add\n      mload(0x40)\n      swap1\n      dup2\n      add\n      0x40\n      mstore\n      dup1\n      swap3\n      swap2\n      swap1\n      dup2\n      dup2\n      mstore\n      0x20\n      add\n      dup3\n      dup1\n      sload\n      tag_173\n      swap1\n      tag_172\n      jump\t// in\n    tag_173:\n      dup1\n      iszero\n      tag_174\n      jumpi\n      dup1\n      0x1f\n      lt\n      tag_175\n      jumpi\n      0x0100\n      dup1\n      dup4\n      sload\n      div\n      mul\n      dup4\n      mstore\n      swap2\n      0x20\n      add\n      swap2\n      jump(tag_174)\n    tag_175:\n      dup3\n      add\n      swap2\n      swap1\n      0x00\n      mstore\n      keccak256(0x00, 0x20)\n      swap1\n    tag_176:\n      dup2\n      sload\n      dup2\n      mstore\n      swap1\n      0x01\n      add\n      swap1\n      0x20\n      add\n      dup1\n      dup4\n      gt\n      tag_176\n      jumpi\n      dup3\n      swap1\n      sub\n      0x1f\n      and\n      dup3\n      add\n      swap2\n    tag_174:\n      pop\n      pop\n      pop\n      pop\n      pop\n      dup2\n      jump\t// out\n        /* \"Lottogemeinschaft.sol\":2043:2091  mapping(address => bool) public gewinnAusgezahlt */\n    tag_80:\n      mstore(0x20, 0x06)\n      dup1\n      0x00\n      mstore\n      keccak256(0x00, 0x40)\n      0x00\n      swap2\n      pop\n      sload\n      swap1\n      0x0100\n      exp\n      swap1\n      div\n      0xff\n      and\n      dup2\n      jump\t// out\n        /* \"Lottogemeinschaft.sol\":1743:1766  address public gruender */\n    tag_84:\n      0x00\n      dup1\n      sload\n      swap1\n      0x0100\n      exp\n      swap1\n      div\n      0xffffffffffffffffffffffffffffffffffffffff\n      and\n      dup2\n      jump\t// out\n        /* \"Lottogemeinschaft.sol\":2231:2270  bool public nurErlaubteMitspieler=false */\n    tag_89:\n      0x07\n      0x09\n      swap1\n      sload\n      swap1\n      0x0100\n      exp\n      swap1\n      div\n      0xff\n      and\n      dup2\n      jump\t// out\n        /* \"Lottogemeinschaft.sol\":2183:2225  bool public kannGewinnAbgeholtWerden=false */\n    tag_93:\n      0x07\n      0x08\n      swap1\n      sload\n      swap1\n      0x0100\n      exp\n      swap1\n      div\n      0xff\n      and\n      dup2\n      jump\t// out\n        /* \"Lottogemeinschaft.sol\":4288:4946  function gewinnEinzahlen(uint48 gewinn) public payable restictedToGruender {... */\n    tag_98:\n        /* \"Lottogemeinschaft.sol\":3064:3072  gruender */\n      0x00\n      dup1\n      sload\n      swap1\n      0x0100\n      exp\n      swap1\n      div\n      0xffffffffffffffffffffffffffffffffffffffff\n      and\n        /* \"Lottogemeinschaft.sol\":3050:3072  msg.sender == gruender */\n      0xffffffffffffffffffffffffffffffffffffffff\n      and\n        /* \"Lottogemeinschaft.sol\":3050:3060  msg.sender */\n      caller\n        /* \"Lottogemeinschaft.sol\":3050:3072  msg.sender == gruender */\n      0xffffffffffffffffffffffffffffffffffffffff\n      and\n      eq\n        /* \"Lottogemeinschaft.sol\":3042:3073  require(msg.sender == gruender) */\n      tag_178\n      jumpi\n      0x00\n      dup1\n      revert\n    tag_178:\n        /* \"Lottogemeinschaft.sol\":4479:4480  0 */\n      0x00\n        /* \"Lottogemeinschaft.sol\":4467:4476  msg.value */\n      callvalue\n        /* \"Lottogemeinschaft.sol\":4467:4480  msg.value > 0 */\n      gt\n        /* \"Lottogemeinschaft.sol\":4459:4527  require(msg.value > 0, \"Einzahlungsbetrag muss groesser als 0 sein\") */\n      tag_180\n      jumpi\n      mload(0x40)\n      0x08c379a000000000000000000000000000000000000000000000000000000000\n      dup2\n      mstore\n      0x04\n      add\n      tag_181\n      swap1\n      tag_182\n      jump\t// in\n    tag_181:\n      mload(0x40)\n      dup1\n      swap2\n      sub\n      swap1\n      revert\n    tag_180:\n        /* \"Lottogemeinschaft.sol\":4566:4567  0 */\n      0x00\n        /* \"Lottogemeinschaft.sol\":4545:4564  gewinnProMitspieler */\n      0x07\n      0x02\n      swap1\n      sload\n      swap1\n      0x0100\n      exp\n      swap1\n      div\n      0xffffffffffff\n      and\n        /* \"Lottogemeinschaft.sol\":4545:4567  gewinnProMitspieler==0 */\n      0xffffffffffff\n      and\n      eq\n        /* \"Lottogemeinschaft.sol\":4537:4604  require(gewinnProMitspieler==0, \"Gewinn wurde bereits eingezahlt.\") */\n      tag_183\n      jumpi\n      mload(0x40)\n      0x08c379a000000000000000000000000000000000000000000000000000000000\n      dup2\n      mstore\n      0x04\n      add\n      tag_184\n      swap1\n      tag_185\n      jump\t// in\n    tag_184:\n      mload(0x40)\n      dup1\n      swap2\n      sub\n      swap1\n      revert\n    tag_183:\n        /* \"Lottogemeinschaft.sol\":4874:4897  anzahlTeilnehmerAktuell */\n      0x07\n      0x00\n      swap1\n      sload\n      swap1\n      0x0100\n      exp\n      swap1\n      div\n      0xffff\n      and\n        /* \"Lottogemeinschaft.sol\":4865:4897  gewinn / anzahlTeilnehmerAktuell */\n      0xffff\n      and\n        /* \"Lottogemeinschaft.sol\":4865:4871  gewinn */\n      dup2\n        /* \"Lottogemeinschaft.sol\":4865:4897  gewinn / anzahlTeilnehmerAktuell */\n      tag_186\n      swap2\n      swap1\n      tag_187\n      jump\t// in\n    tag_186:\n        /* \"Lottogemeinschaft.sol\":4843:4862  gewinnProMitspieler */\n      0x07\n      0x02\n        /* \"Lottogemeinschaft.sol\":4843:4897  gewinnProMitspieler = gewinn / anzahlTeilnehmerAktuell */\n      0x0100\n      exp\n      dup2\n      sload\n      dup2\n      0xffffffffffff\n      mul\n      not\n      and\n      swap1\n      dup4\n      0xffffffffffff\n      and\n      mul\n      or\n      swap1\n      sstore\n      pop\n        /* \"Lottogemeinschaft.sol\":4934:4938  true */\n      0x01\n        /* \"Lottogemeinschaft.sol\":4907:4931  kannGewinnAbgeholtWerden */\n      0x07\n      0x08\n        /* \"Lottogemeinschaft.sol\":4907:4938  kannGewinnAbgeholtWerden = true */\n      0x0100\n      exp\n      dup2\n      sload\n      dup2\n      0xff\n      mul\n      not\n      and\n      swap1\n      dup4\n      iszero\n      iszero\n      mul\n      or\n      swap1\n      sstore\n      pop\n        /* \"Lottogemeinschaft.sol\":4288:4946  function gewinnEinzahlen(uint48 gewinn) public payable restictedToGruender {... */\n      pop\n      jump\t// out\n        /* \"Lottogemeinschaft.sol\":1772:1807  string public tippgemeinschaftsName */\n    tag_101:\n      0x01\n      dup1\n      sload\n      tag_188\n      swap1\n      tag_172\n      jump\t// in\n    tag_188:\n      dup1\n      0x1f\n      add\n      0x20\n      dup1\n      swap2\n      div\n      mul\n      0x20\n      add\n      mload(0x40)\n      swap1\n      dup2\n      add\n      0x40\n      mstore\n      dup1\n      swap3\n      swap2\n      swap1\n      dup2\n      dup2\n      mstore\n      0x20\n      add\n      dup3\n      dup1\n      sload\n      tag_189\n      swap1\n      tag_172\n      jump\t// in\n    tag_189:\n      dup1\n      iszero\n      tag_190\n      jumpi\n      dup1\n      0x1f\n      lt\n      tag_191\n      jumpi\n      0x0100\n      dup1\n      dup4\n      sload\n      div\n      mul\n      dup4\n      mstore\n      swap2\n      0x20\n      add\n      swap2\n      jump(tag_190)\n    tag_191:\n      dup3\n      add\n      swap2\n      swap1\n      0x00\n      mstore\n      keccak256(0x00, 0x20)\n      swap1\n    tag_192:\n      dup2\n      sload\n      dup2\n      mstore\n      swap1\n      0x01\n      add\n      swap1\n      0x20\n      add\n      dup1\n      dup4\n      gt\n      tag_192\n      jumpi\n      dup3\n      swap1\n      sub\n      0x1f\n      and\n      dup3\n      add\n      swap2\n    tag_190:\n      pop\n      pop\n      pop\n      pop\n      pop\n      dup2\n      jump\t// out\n        /* \"Lottogemeinschaft.sol\":5843:6129  function anzahlMitspielerAendern(uint16 neueAnzahlMaxTeilnehmer) public restictedToGruender{... */\n    tag_107:\n        /* \"Lottogemeinschaft.sol\":3064:3072  gruender */\n      0x00\n      dup1\n      sload\n      swap1\n      0x0100\n      exp\n      swap1\n      div\n      0xffffffffffffffffffffffffffffffffffffffff\n      and\n        /* \"Lottogemeinschaft.sol\":3050:3072  msg.sender == gruender */\n      0xffffffffffffffffffffffffffffffffffffffff\n      and\n        /* \"Lottogemeinschaft.sol\":3050:3060  msg.sender */\n      caller\n        /* \"Lottogemeinschaft.sol\":3050:3072  msg.sender == gruender */\n      0xffffffffffffffffffffffffffffffffffffffff\n      and\n      eq\n        /* \"Lottogemeinschaft.sol\":3042:3073  require(msg.sender == gruender) */\n      tag_194\n      jumpi\n      0x00\n      dup1\n      revert\n    tag_194:\n        /* \"Lottogemeinschaft.sol\":5977:5978  0 */\n      0x00\n        /* \"Lottogemeinschaft.sol\":5952:5975  anzahlTeilnehmerAktuell */\n      0x07\n      0x00\n      swap1\n      sload\n      swap1\n      0x0100\n      exp\n      swap1\n      div\n      0xffff\n      and\n        /* \"Lottogemeinschaft.sol\":5952:5978  anzahlTeilnehmerAktuell==0 */\n      0xffff\n      and\n      eq\n        /* \"Lottogemeinschaft.sol\":5944:6067  require(anzahlTeilnehmerAktuell==0, \"Es gibt bereits Mitspieler. Aenderung der Anzahl an Mitspielern nicht mehr moeglich.\") */\n      tag_196\n      jumpi\n      mload(0x40)\n      0x08c379a000000000000000000000000000000000000000000000000000000000\n      dup2\n      mstore\n      0x04\n      add\n      tag_197\n      swap1\n      tag_198\n      jump\t// in\n    tag_197:\n      mload(0x40)\n      dup1\n      swap2\n      sub\n      swap1\n      revert\n    tag_196:\n        /* \"Lottogemeinschaft.sol\":6099:6122  neueAnzahlMaxTeilnehmer */\n      dup1\n        /* \"Lottogemeinschaft.sol\":6077:6096  maxTeilnehmerAnzahl */\n      0x02\n      0x00\n        /* \"Lottogemeinschaft.sol\":6077:6122  maxTeilnehmerAnzahl = neueAnzahlMaxTeilnehmer */\n      0x0100\n      exp\n      dup2\n      sload\n      dup2\n      0xffff\n      mul\n      not\n      and\n      swap1\n      dup4\n      0xffff\n      and\n      mul\n      or\n      swap1\n      sstore\n      pop\n        /* \"Lottogemeinschaft.sol\":5843:6129  function anzahlMitspielerAendern(uint16 neueAnzahlMaxTeilnehmer) public restictedToGruender{... */\n      pop\n      jump\t// out\n        /* \"#utility.yul\":7:104   */\n    tag_199:\n        /* \"#utility.yul\":43:50   */\n      0x00\n        /* \"#utility.yul\":83:97   */\n      0xffffffffffff\n        /* \"#utility.yul\":76:81   */\n      dup3\n        /* \"#utility.yul\":72:98   */\n      and\n        /* \"#utility.yul\":61:98   */\n      swap1\n      pop\n        /* \"#utility.yul\":7:104   */\n      swap2\n      swap1\n      pop\n      jump\t// out\n        /* \"#utility.yul\":110:225   */\n    tag_200:\n        /* \"#utility.yul\":195:218   */\n      tag_266\n        /* \"#utility.yul\":212:217   */\n      dup2\n        /* \"#utility.yul\":195:218   */\n      tag_199\n      jump\t// in\n    tag_266:\n        /* \"#utility.yul\":190:193   */\n      dup3\n        /* \"#utility.yul\":183:219   */\n      mstore\n        /* \"#utility.yul\":110:225   */\n      pop\n      pop\n      jump\t// out\n        /* \"#utility.yul\":231:449   */\n    tag_28:\n        /* \"#utility.yul\":322:326   */\n      0x00\n        /* \"#utility.yul\":360:362   */\n      0x20\n        /* \"#utility.yul\":349:358   */\n      dup3\n        /* \"#utility.yul\":345:363   */\n      add\n        /* \"#utility.yul\":337:363   */\n      swap1\n      pop\n        /* \"#utility.yul\":373:442   */\n      tag_268\n        /* \"#utility.yul\":439:440   */\n      0x00\n        /* \"#utility.yul\":428:437   */\n      dup4\n        /* \"#utility.yul\":424:441   */\n      add\n        /* \"#utility.yul\":415:421   */\n      dup5\n        /* \"#utility.yul\":373:442   */\n      tag_200\n      jump\t// in\n    tag_268:\n        /* \"#utility.yul\":231:449   */\n      swap3\n      swap2\n      pop\n      pop\n      jump\t// out\n        /* \"#utility.yul\":455:548   */\n    tag_201:\n        /* \"#utility.yul\":491:498   */\n      0x00\n        /* \"#utility.yul\":531:541   */\n      0xffffffff\n        /* \"#utility.yul\":524:529   */\n      dup3\n        /* \"#utility.yul\":520:542   */\n      and\n        /* \"#utility.yul\":509:542   */\n      swap1\n      pop\n        /* \"#utility.yul\":455:548   */\n      swap2\n      swap1\n      pop\n      jump\t// out\n        /* \"#utility.yul\":554:669   */\n    tag_202:\n        /* \"#utility.yul\":639:662   */\n      tag_271\n        /* \"#utility.yul\":656:661   */\n      dup2\n        /* \"#utility.yul\":639:662   */\n      tag_201\n      jump\t// in\n    tag_271:\n        /* \"#utility.yul\":634:637   */\n      dup3\n        /* \"#utility.yul\":627:663   */\n      mstore\n        /* \"#utility.yul\":554:669   */\n      pop\n      pop\n      jump\t// out\n        /* \"#utility.yul\":675:893   */\n    tag_40:\n        /* \"#utility.yul\":766:770   */\n      0x00\n        /* \"#utility.yul\":804:806   */\n      0x20\n        /* \"#utility.yul\":793:802   */\n      dup3\n        /* \"#utility.yul\":789:807   */\n      add\n        /* \"#utility.yul\":781:807   */\n      swap1\n      pop\n        /* \"#utility.yul\":817:886   */\n      tag_273\n        /* \"#utility.yul\":883:884   */\n      0x00\n        /* \"#utility.yul\":872:881   */\n      dup4\n        /* \"#utility.yul\":868:885   */\n      add\n        /* \"#utility.yul\":859:865   */\n      dup5\n        /* \"#utility.yul\":817:886   */\n      tag_202\n      jump\t// in\n    tag_273:\n        /* \"#utility.yul\":675:893   */\n      swap3\n      swap2\n      pop\n      pop\n      jump\t// out\n        /* \"#utility.yul\":980:1097   */\n    tag_204:\n        /* \"#utility.yul\":1089:1090   */\n      0x00\n        /* \"#utility.yul\":1086:1087   */\n      dup1\n        /* \"#utility.yul\":1079:1091   */\n      revert\n        /* \"#utility.yul\":1226:1346   */\n    tag_206:\n        /* \"#utility.yul\":1298:1321   */\n      tag_278\n        /* \"#utility.yul\":1315:1320   */\n      dup2\n        /* \"#utility.yul\":1298:1321   */\n      tag_201\n      jump\t// in\n    tag_278:\n        /* \"#utility.yul\":1291:1296   */\n      dup2\n        /* \"#utility.yul\":1288:1322   */\n      eq\n        /* \"#utility.yul\":1278:1340   */\n      tag_279\n      jumpi\n        /* \"#utility.yul\":1336:1337   */\n      0x00\n        /* \"#utility.yul\":1333:1334   */\n      dup1\n        /* \"#utility.yul\":1326:1338   */\n      revert\n        /* \"#utility.yul\":1278:1340   */\n    tag_279:\n        /* \"#utility.yul\":1226:1346   */\n      pop\n      jump\t// out\n        /* \"#utility.yul\":1352:1489   */\n    tag_207:\n        /* \"#utility.yul\":1397:1402   */\n      0x00\n        /* \"#utility.yul\":1435:1441   */\n      dup2\n        /* \"#utility.yul\":1422:1442   */\n      calldataload\n        /* \"#utility.yul\":1413:1442   */\n      swap1\n      pop\n        /* \"#utility.yul\":1451:1483   */\n      tag_281\n        /* \"#utility.yul\":1477:1482   */\n      dup2\n        /* \"#utility.yul\":1451:1483   */\n      tag_206\n      jump\t// in\n    tag_281:\n        /* \"#utility.yul\":1352:1489   */\n      swap3\n      swap2\n      pop\n      pop\n      jump\t// out\n        /* \"#utility.yul\":1495:1822   */\n    tag_44:\n        /* \"#utility.yul\":1553:1559   */\n      0x00\n        /* \"#utility.yul\":1602:1604   */\n      0x20\n        /* \"#utility.yul\":1590:1599   */\n      dup3\n        /* \"#utility.yul\":1581:1588   */\n      dup5\n        /* \"#utility.yul\":1577:1600   */\n      sub\n        /* \"#utility.yul\":1573:1605   */\n      slt\n        /* \"#utility.yul\":1570:1689   */\n      iszero\n      tag_283\n      jumpi\n        /* \"#utility.yul\":1608:1687   */\n      tag_284\n      tag_204\n      jump\t// in\n    tag_284:\n        /* \"#utility.yul\":1570:1689   */\n    tag_283:\n        /* \"#utility.yul\":1728:1729   */\n      0x00\n        /* \"#utility.yul\":1753:1805   */\n      tag_285\n        /* \"#utility.yul\":1797:1804   */\n      dup5\n        /* \"#utility.yul\":1788:1794   */\n      dup3\n        /* \"#utility.yul\":1777:1786   */\n      dup6\n        /* \"#utility.yul\":1773:1795   */\n      add\n        /* \"#utility.yul\":1753:1805   */\n      tag_207\n      jump\t// in\n    tag_285:\n        /* \"#utility.yul\":1743:1805   */\n      swap2\n      pop\n        /* \"#utility.yul\":1699:1815   */\n      pop\n        /* \"#utility.yul\":1495:1822   */\n      swap3\n      swap2\n      pop\n      pop\n      jump\t// out\n        /* \"#utility.yul\":1828:1954   */\n    tag_208:\n        /* \"#utility.yul\":1865:1872   */\n      0x00\n        /* \"#utility.yul\":1905:1947   */\n      0xffffffffffffffffffffffffffffffffffffffff\n        /* \"#utility.yul\":1898:1903   */\n      dup3\n        /* \"#utility.yul\":1894:1948   */\n      and\n        /* \"#utility.yul\":1883:1948   */\n      swap1\n      pop\n        /* \"#utility.yul\":1828:1954   */\n      swap2\n      swap1\n      pop\n      jump\t// out\n        /* \"#utility.yul\":1960:2056   */\n    tag_209:\n        /* \"#utility.yul\":1997:2004   */\n      0x00\n        /* \"#utility.yul\":2026:2050   */\n      tag_288\n        /* \"#utility.yul\":2044:2049   */\n      dup3\n        /* \"#utility.yul\":2026:2050   */\n      tag_208\n      jump\t// in\n    tag_288:\n        /* \"#utility.yul\":2015:2050   */\n      swap1\n      pop\n        /* \"#utility.yul\":1960:2056   */\n      swap2\n      swap1\n      pop\n      jump\t// out\n        /* \"#utility.yul\":2062:2184   */\n    tag_210:\n        /* \"#utility.yul\":2135:2159   */\n      tag_290\n        /* \"#utility.yul\":2153:2158   */\n      dup2\n        /* \"#utility.yul\":2135:2159   */\n      tag_209\n      jump\t// in\n    tag_290:\n        /* \"#utility.yul\":2128:2133   */\n      dup2\n        /* \"#utility.yul\":2125:2160   */\n      eq\n        /* \"#utility.yul\":2115:2178   */\n      tag_291\n      jumpi\n        /* \"#utility.yul\":2174:2175   */\n      0x00\n        /* \"#utility.yul\":2171:2172   */\n      dup1\n        /* \"#utility.yul\":2164:2176   */\n      revert\n        /* \"#utility.yul\":2115:2178   */\n    tag_291:\n        /* \"#utility.yul\":2062:2184   */\n      pop\n      jump\t// out\n        /* \"#utility.yul\":2190:2329   */\n    tag_211:\n        /* \"#utility.yul\":2236:2241   */\n      0x00\n        /* \"#utility.yul\":2274:2280   */\n      dup2\n        /* \"#utility.yul\":2261:2281   */\n      calldataload\n        /* \"#utility.yul\":2252:2281   */\n      swap1\n      pop\n        /* \"#utility.yul\":2290:2323   */\n      tag_293\n        /* \"#utility.yul\":2317:2322   */\n      dup2\n        /* \"#utility.yul\":2290:2323   */\n      tag_210\n      jump\t// in\n    tag_293:\n        /* \"#utility.yul\":2190:2329   */\n      swap3\n      swap2\n      pop\n      pop\n      jump\t// out\n        /* \"#utility.yul\":2335:2664   */\n    tag_49:\n        /* \"#utility.yul\":2394:2400   */\n      0x00\n        /* \"#utility.yul\":2443:2445   */\n      0x20\n        /* \"#utility.yul\":2431:2440   */\n      dup3\n        /* \"#utility.yul\":2422:2429   */\n      dup5\n        /* \"#utility.yul\":2418:2441   */\n      sub\n        /* \"#utility.yul\":2414:2446   */\n      slt\n        /* \"#utility.yul\":2411:2530   */\n      iszero\n      tag_295\n      jumpi\n        /* \"#utility.yul\":2449:2528   */\n      tag_296\n      tag_204\n      jump\t// in\n    tag_296:\n        /* \"#utility.yul\":2411:2530   */\n    tag_295:\n        /* \"#utility.yul\":2569:2570   */\n      0x00\n        /* \"#utility.yul\":2594:2647   */\n      tag_297\n        /* \"#utility.yul\":2639:2646   */\n      dup5\n        /* \"#utility.yul\":2630:2636   */\n      dup3\n        /* \"#utility.yul\":2619:2628   */\n      dup6\n        /* \"#utility.yul\":2615:2637   */\n      add\n        /* \"#utility.yul\":2594:2647   */\n      tag_211\n      jump\t// in\n    tag_297:\n        /* \"#utility.yul\":2584:2647   */\n      swap2\n      pop\n        /* \"#utility.yul\":2540:2657   */\n      pop\n        /* \"#utility.yul\":2335:2664   */\n      swap3\n      swap2\n      pop\n      pop\n      jump\t// out\n        /* \"#utility.yul\":2670:2760   */\n    tag_212:\n        /* \"#utility.yul\":2704:2711   */\n      0x00\n        /* \"#utility.yul\":2747:2752   */\n      dup2\n        /* \"#utility.yul\":2740:2753   */\n      iszero\n        /* \"#utility.yul\":2733:2754   */\n      iszero\n        /* \"#utility.yul\":2722:2754   */\n      swap1\n      pop\n        /* \"#utility.yul\":2670:2760   */\n      swap2\n      swap1\n      pop\n      jump\t// out\n        /* \"#utility.yul\":2766:2875   */\n    tag_213:\n        /* \"#utility.yul\":2847:2868   */\n      tag_300\n        /* \"#utility.yul\":2862:2867   */\n      dup2\n        /* \"#utility.yul\":2847:2868   */\n      tag_212\n      jump\t// in\n    tag_300:\n        /* \"#utility.yul\":2842:2845   */\n      dup3\n        /* \"#utility.yul\":2835:2869   */\n      mstore\n        /* \"#utility.yul\":2766:2875   */\n      pop\n      pop\n      jump\t// out\n        /* \"#utility.yul\":2881:3091   */\n    tag_52:\n        /* \"#utility.yul\":2968:2972   */\n      0x00\n        /* \"#utility.yul\":3006:3008   */\n      0x20\n        /* \"#utility.yul\":2995:3004   */\n      dup3\n        /* \"#utility.yul\":2991:3009   */\n      add\n        /* \"#utility.yul\":2983:3009   */\n      swap1\n      pop\n        /* \"#utility.yul\":3019:3084   */\n      tag_302\n        /* \"#utility.yul\":3081:3082   */\n      0x00\n        /* \"#utility.yul\":3070:3079   */\n      dup4\n        /* \"#utility.yul\":3066:3083   */\n      add\n        /* \"#utility.yul\":3057:3063   */\n      dup5\n        /* \"#utility.yul\":3019:3084   */\n      tag_213\n      jump\t// in\n    tag_302:\n        /* \"#utility.yul\":2881:3091   */\n      swap3\n      swap2\n      pop\n      pop\n      jump\t// out\n        /* \"#utility.yul\":3097:3186   */\n    tag_214:\n        /* \"#utility.yul\":3133:3140   */\n      0x00\n        /* \"#utility.yul\":3173:3179   */\n      0xffff\n        /* \"#utility.yul\":3166:3171   */\n      dup3\n        /* \"#utility.yul\":3162:3180   */\n      and\n        /* \"#utility.yul\":3151:3180   */\n      swap1\n      pop\n        /* \"#utility.yul\":3097:3186   */\n      swap2\n      swap1\n      pop\n      jump\t// out\n        /* \"#utility.yul\":3192:3307   */\n    tag_215:\n        /* \"#utility.yul\":3277:3300   */\n      tag_305\n        /* \"#utility.yul\":3294:3299   */\n      dup2\n        /* \"#utility.yul\":3277:3300   */\n      tag_214\n      jump\t// in\n    tag_305:\n        /* \"#utility.yul\":3272:3275   */\n      dup3\n        /* \"#utility.yul\":3265:3301   */\n      mstore\n        /* \"#utility.yul\":3192:3307   */\n      pop\n      pop\n      jump\t// out\n        /* \"#utility.yul\":3313:3531   */\n    tag_57:\n        /* \"#utility.yul\":3404:3408   */\n      0x00\n        /* \"#utility.yul\":3442:3444   */\n      0x20\n        /* \"#utility.yul\":3431:3440   */\n      dup3\n        /* \"#utility.yul\":3427:3445   */\n      add\n        /* \"#utility.yul\":3419:3445   */\n      swap1\n      pop\n        /* \"#utility.yul\":3455:3524   */\n      tag_307\n        /* \"#utility.yul\":3521:3522   */\n      0x00\n        /* \"#utility.yul\":3510:3519   */\n      dup4\n        /* \"#utility.yul\":3506:3523   */\n      add\n        /* \"#utility.yul\":3497:3503   */\n      dup5\n        /* \"#utility.yul\":3455:3524   */\n      tag_215\n      jump\t// in\n    tag_307:\n        /* \"#utility.yul\":3313:3531   */\n      swap3\n      swap2\n      pop\n      pop\n      jump\t// out\n        /* \"#utility.yul\":3537:3636   */\n    tag_216:\n        /* \"#utility.yul\":3589:3595   */\n      0x00\n        /* \"#utility.yul\":3623:3628   */\n      dup2\n        /* \"#utility.yul\":3617:3629   */\n      mload\n        /* \"#utility.yul\":3607:3629   */\n      swap1\n      pop\n        /* \"#utility.yul\":3537:3636   */\n      swap2\n      swap1\n      pop\n      jump\t// out\n        /* \"#utility.yul\":3642:3811   */\n    tag_217:\n        /* \"#utility.yul\":3726:3737   */\n      0x00\n        /* \"#utility.yul\":3760:3766   */\n      dup3\n        /* \"#utility.yul\":3755:3758   */\n      dup3\n        /* \"#utility.yul\":3748:3767   */\n      mstore\n        /* \"#utility.yul\":3800:3804   */\n      0x20\n        /* \"#utility.yul\":3795:3798   */\n      dup3\n        /* \"#utility.yul\":3791:3805   */\n      add\n        /* \"#utility.yul\":3776:3805   */\n      swap1\n      pop\n        /* \"#utility.yul\":3642:3811   */\n      swap3\n      swap2\n      pop\n      pop\n      jump\t// out\n        /* \"#utility.yul\":3817:4063   */\n    tag_218:\n        /* \"#utility.yul\":3898:3899   */\n      0x00\n        /* \"#utility.yul\":3908:4021   */\n    tag_311:\n        /* \"#utility.yul\":3922:3928   */\n      dup4\n        /* \"#utility.yul\":3919:3920   */\n      dup2\n        /* \"#utility.yul\":3916:3929   */\n      lt\n        /* \"#utility.yul\":3908:4021   */\n      iszero\n      tag_313\n      jumpi\n        /* \"#utility.yul\":4007:4008   */\n      dup1\n        /* \"#utility.yul\":4002:4005   */\n      dup3\n        /* \"#utility.yul\":3998:4009   */\n      add\n        /* \"#utility.yul\":3992:4010   */\n      mload\n        /* \"#utility.yul\":3988:3989   */\n      dup2\n        /* \"#utility.yul\":3983:3986   */\n      dup5\n        /* \"#utility.yul\":3979:3990   */\n      add\n        /* \"#utility.yul\":3972:4011   */\n      mstore\n        /* \"#utility.yul\":3944:3946   */\n      0x20\n        /* \"#utility.yul\":3941:3942   */\n      dup2\n        /* \"#utility.yul\":3937:3947   */\n      add\n        /* \"#utility.yul\":3932:3947   */\n      swap1\n      pop\n        /* \"#utility.yul\":3908:4021   */\n      jump(tag_311)\n    tag_313:\n        /* \"#utility.yul\":4055:4056   */\n      0x00\n        /* \"#utility.yul\":4046:4052   */\n      dup5\n        /* \"#utility.yul\":4041:4044   */\n      dup5\n        /* \"#utility.yul\":4037:4053   */\n      add\n        /* \"#utility.yul\":4030:4057   */\n      mstore\n        /* \"#utility.yul\":3879:4063   */\n      pop\n        /* \"#utility.yul\":3817:4063   */\n      pop\n      pop\n      pop\n      jump\t// out\n        /* \"#utility.yul\":4069:4171   */\n    tag_219:\n        /* \"#utility.yul\":4110:4116   */\n      0x00\n        /* \"#utility.yul\":4161:4163   */\n      0x1f\n        /* \"#utility.yul\":4157:4164   */\n      not\n        /* \"#utility.yul\":4152:4154   */\n      0x1f\n        /* \"#utility.yul\":4145:4150   */\n      dup4\n        /* \"#utility.yul\":4141:4155   */\n      add\n        /* \"#utility.yul\":4137:4165   */\n      and\n        /* \"#utility.yul\":4127:4165   */\n      swap1\n      pop\n        /* \"#utility.yul\":4069:4171   */\n      swap2\n      swap1\n      pop\n      jump\t// out\n        /* \"#utility.yul\":4177:4554   */\n    tag_220:\n        /* \"#utility.yul\":4265:4268   */\n      0x00\n        /* \"#utility.yul\":4293:4332   */\n      tag_316\n        /* \"#utility.yul\":4326:4331   */\n      dup3\n        /* \"#utility.yul\":4293:4332   */\n      tag_216\n      jump\t// in\n    tag_316:\n        /* \"#utility.yul\":4348:4419   */\n      tag_317\n        /* \"#utility.yul\":4412:4418   */\n      dup2\n        /* \"#utility.yul\":4407:4410   */\n      dup6\n        /* \"#utility.yul\":4348:4419   */\n      tag_217\n      jump\t// in\n    tag_317:\n        /* \"#utility.yul\":4341:4419   */\n      swap4\n      pop\n        /* \"#utility.yul\":4428:4493   */\n      tag_318\n        /* \"#utility.yul\":4486:4492   */\n      dup2\n        /* \"#utility.yul\":4481:4484   */\n      dup6\n        /* \"#utility.yul\":4474:4478   */\n      0x20\n        /* \"#utility.yul\":4467:4472   */\n      dup7\n        /* \"#utility.yul\":4463:4479   */\n      add\n        /* \"#utility.yul\":4428:4493   */\n      tag_218\n      jump\t// in\n    tag_318:\n        /* \"#utility.yul\":4518:4547   */\n      tag_319\n        /* \"#utility.yul\":4540:4546   */\n      dup2\n        /* \"#utility.yul\":4518:4547   */\n      tag_219\n      jump\t// in\n    tag_319:\n        /* \"#utility.yul\":4513:4516   */\n      dup5\n        /* \"#utility.yul\":4509:4548   */\n      add\n        /* \"#utility.yul\":4502:4548   */\n      swap2\n      pop\n        /* \"#utility.yul\":4269:4554   */\n      pop\n        /* \"#utility.yul\":4177:4554   */\n      swap3\n      swap2\n      pop\n      pop\n      jump\t// out\n        /* \"#utility.yul\":4560:4873   */\n    tag_76:\n        /* \"#utility.yul\":4673:4677   */\n      0x00\n        /* \"#utility.yul\":4711:4713   */\n      0x20\n        /* \"#utility.yul\":4700:4709   */\n      dup3\n        /* \"#utility.yul\":4696:4714   */\n      add\n        /* \"#utility.yul\":4688:4714   */\n      swap1\n      pop\n        /* \"#utility.yul\":4760:4769   */\n      dup2\n        /* \"#utility.yul\":4754:4758   */\n      dup2\n        /* \"#utility.yul\":4750:4770   */\n      sub\n        /* \"#utility.yul\":4746:4747   */\n      0x00\n        /* \"#utility.yul\":4735:4744   */\n      dup4\n        /* \"#utility.yul\":4731:4748   */\n      add\n        /* \"#utility.yul\":4724:4771   */\n      mstore\n        /* \"#utility.yul\":4788:4866   */\n      tag_321\n        /* \"#utility.yul\":4861:4865   */\n      dup2\n        /* \"#utility.yul\":4852:4858   */\n      dup5\n        /* \"#utility.yul\":4788:4866   */\n      tag_220\n      jump\t// in\n    tag_321:\n        /* \"#utility.yul\":4780:4866   */\n      swap1\n      pop\n        /* \"#utility.yul\":4560:4873   */\n      swap3\n      swap2\n      pop\n      pop\n      jump\t// out\n        /* \"#utility.yul\":4879:4997   */\n    tag_221:\n        /* \"#utility.yul\":4966:4990   */\n      tag_323\n        /* \"#utility.yul\":4984:4989   */\n      dup2\n        /* \"#utility.yul\":4966:4990   */\n      tag_209\n      jump\t// in\n    tag_323:\n        /* \"#utility.yul\":4961:4964   */\n      dup3\n        /* \"#utility.yul\":4954:4991   */\n      mstore\n        /* \"#utility.yul\":4879:4997   */\n      pop\n      pop\n      jump\t// out\n        /* \"#utility.yul\":5003:5225   */\n    tag_86:\n        /* \"#utility.yul\":5096:5100   */\n      0x00\n        /* \"#utility.yul\":5134:5136   */\n      0x20\n        /* \"#utility.yul\":5123:5132   */\n      dup3\n        /* \"#utility.yul\":5119:5137   */\n      add\n        /* \"#utility.yul\":5111:5137   */\n      swap1\n      pop\n        /* \"#utility.yul\":5147:5218   */\n      tag_325\n        /* \"#utility.yul\":5215:5216   */\n      0x00\n        /* \"#utility.yul\":5204:5213   */\n      dup4\n        /* \"#utility.yul\":5200:5217   */\n      add\n        /* \"#utility.yul\":5191:5197   */\n      dup5\n        /* \"#utility.yul\":5147:5218   */\n      tag_221\n      jump\t// in\n    tag_325:\n        /* \"#utility.yul\":5003:5225   */\n      swap3\n      swap2\n      pop\n      pop\n      jump\t// out\n        /* \"#utility.yul\":5231:5351   */\n    tag_222:\n        /* \"#utility.yul\":5303:5326   */\n      tag_327\n        /* \"#utility.yul\":5320:5325   */\n      dup2\n        /* \"#utility.yul\":5303:5326   */\n      tag_199\n      jump\t// in\n    tag_327:\n        /* \"#utility.yul\":5296:5301   */\n      dup2\n        /* \"#utility.yul\":5293:5327   */\n      eq\n        /* \"#utility.yul\":5283:5345   */\n      tag_328\n      jumpi\n        /* \"#utility.yul\":5341:5342   */\n      0x00\n        /* \"#utility.yul\":5338:5339   */\n      dup1\n        /* \"#utility.yul\":5331:5343   */\n      revert\n        /* \"#utility.yul\":5283:5345   */\n    tag_328:\n        /* \"#utility.yul\":5231:5351   */\n      pop\n      jump\t// out\n        /* \"#utility.yul\":5357:5494   */\n    tag_223:\n        /* \"#utility.yul\":5402:5407   */\n      0x00\n        /* \"#utility.yul\":5440:5446   */\n      dup2\n        /* \"#utility.yul\":5427:5447   */\n      calldataload\n        /* \"#utility.yul\":5418:5447   */\n      swap1\n      pop\n        /* \"#utility.yul\":5456:5488   */\n      tag_330\n        /* \"#utility.yul\":5482:5487   */\n      dup2\n        /* \"#utility.yul\":5456:5488   */\n      tag_222\n      jump\t// in\n    tag_330:\n        /* \"#utility.yul\":5357:5494   */\n      swap3\n      swap2\n      pop\n      pop\n      jump\t// out\n        /* \"#utility.yul\":5500:5827   */\n    tag_97:\n        /* \"#utility.yul\":5558:5564   */\n      0x00\n        /* \"#utility.yul\":5607:5609   */\n      0x20\n        /* \"#utility.yul\":5595:5604   */\n      dup3\n        /* \"#utility.yul\":5586:5593   */\n      dup5\n        /* \"#utility.yul\":5582:5605   */\n      sub\n        /* \"#utility.yul\":5578:5610   */\n      slt\n        /* \"#utility.yul\":5575:5694   */\n      iszero\n      tag_332\n      jumpi\n        /* \"#utility.yul\":5613:5692   */\n      tag_333\n      tag_204\n      jump\t// in\n    tag_333:\n        /* \"#utility.yul\":5575:5694   */\n    tag_332:\n        /* \"#utility.yul\":5733:5734   */\n      0x00\n        /* \"#utility.yul\":5758:5810   */\n      tag_334\n        /* \"#utility.yul\":5802:5809   */\n      dup5\n        /* \"#utility.yul\":5793:5799   */\n      dup3\n        /* \"#utility.yul\":5782:5791   */\n      dup6\n        /* \"#utility.yul\":5778:5800   */\n      add\n        /* \"#utility.yul\":5758:5810   */\n      tag_223\n      jump\t// in\n    tag_334:\n        /* \"#utility.yul\":5748:5810   */\n      swap2\n      pop\n        /* \"#utility.yul\":5704:5820   */\n      pop\n        /* \"#utility.yul\":5500:5827   */\n      swap3\n      swap2\n      pop\n      pop\n      jump\t// out\n        /* \"#utility.yul\":5833:5953   */\n    tag_224:\n        /* \"#utility.yul\":5905:5928   */\n      tag_336\n        /* \"#utility.yul\":5922:5927   */\n      dup2\n        /* \"#utility.yul\":5905:5928   */\n      tag_214\n      jump\t// in\n    tag_336:\n        /* \"#utility.yul\":5898:5903   */\n      dup2\n        /* \"#utility.yul\":5895:5929   */\n      eq\n        /* \"#utility.yul\":5885:5947   */\n      tag_337\n      jumpi\n        /* \"#utility.yul\":5943:5944   */\n      0x00\n        /* \"#utility.yul\":5940:5941   */\n      dup1\n        /* \"#utility.yul\":5933:5945   */\n      revert\n        /* \"#utility.yul\":5885:5947   */\n    tag_337:\n        /* \"#utility.yul\":5833:5953   */\n      pop\n      jump\t// out\n        /* \"#utility.yul\":5959:6096   */\n    tag_225:\n        /* \"#utility.yul\":6004:6009   */\n      0x00\n        /* \"#utility.yul\":6042:6048   */\n      dup2\n        /* \"#utility.yul\":6029:6049   */\n      calldataload\n        /* \"#utility.yul\":6020:6049   */\n      swap1\n      pop\n        /* \"#utility.yul\":6058:6090   */\n      tag_339\n        /* \"#utility.yul\":6084:6089   */\n      dup2\n        /* \"#utility.yul\":6058:6090   */\n      tag_224\n      jump\t// in\n    tag_339:\n        /* \"#utility.yul\":5959:6096   */\n      swap3\n      swap2\n      pop\n      pop\n      jump\t// out\n        /* \"#utility.yul\":6102:6429   */\n    tag_106:\n        /* \"#utility.yul\":6160:6166   */\n      0x00\n        /* \"#utility.yul\":6209:6211   */\n      0x20\n        /* \"#utility.yul\":6197:6206   */\n      dup3\n        /* \"#utility.yul\":6188:6195   */\n      dup5\n        /* \"#utility.yul\":6184:6207   */\n      sub\n        /* \"#utility.yul\":6180:6212   */\n      slt\n        /* \"#utility.yul\":6177:6296   */\n      iszero\n      tag_341\n      jumpi\n        /* \"#utility.yul\":6215:6294   */\n      tag_342\n      tag_204\n      jump\t// in\n    tag_342:\n        /* \"#utility.yul\":6177:6296   */\n    tag_341:\n        /* \"#utility.yul\":6335:6336   */\n      0x00\n        /* \"#utility.yul\":6360:6412   */\n      tag_343\n        /* \"#utility.yul\":6404:6411   */\n      dup5\n        /* \"#utility.yul\":6395:6401   */\n      dup3\n        /* \"#utility.yul\":6384:6393   */\n      dup6\n        /* \"#utility.yul\":6380:6402   */\n      add\n        /* \"#utility.yul\":6360:6412   */\n      tag_225\n      jump\t// in\n    tag_343:\n        /* \"#utility.yul\":6350:6412   */\n      swap2\n      pop\n        /* \"#utility.yul\":6306:6422   */\n      pop\n        /* \"#utility.yul\":6102:6429   */\n      swap3\n      swap2\n      pop\n      pop\n      jump\t// out\n        /* \"#utility.yul\":6435:6599   */\n    tag_226:\n        /* \"#utility.yul\":6575:6591   */\n      0x4e6f2072652d656e7472616e6379000000000000000000000000000000000000\n        /* \"#utility.yul\":6571:6572   */\n      0x00\n        /* \"#utility.yul\":6563:6569   */\n      dup3\n        /* \"#utility.yul\":6559:6573   */\n      add\n        /* \"#utility.yul\":6552:6592   */\n      mstore\n        /* \"#utility.yul\":6435:6599   */\n      pop\n      jump\t// out\n        /* \"#utility.yul\":6605:6971   */\n    tag_227:\n        /* \"#utility.yul\":6747:6750   */\n      0x00\n        /* \"#utility.yul\":6768:6835   */\n      tag_346\n        /* \"#utility.yul\":6832:6834   */\n      0x0e\n        /* \"#utility.yul\":6827:6830   */\n      dup4\n        /* \"#utility.yul\":6768:6835   */\n      tag_217\n      jump\t// in\n    tag_346:\n        /* \"#utility.yul\":6761:6835   */\n      swap2\n      pop\n        /* \"#utility.yul\":6844:6937   */\n      tag_347\n        /* \"#utility.yul\":6933:6936   */\n      dup3\n        /* \"#utility.yul\":6844:6937   */\n      tag_226\n      jump\t// in\n    tag_347:\n        /* \"#utility.yul\":6962:6964   */\n      0x20\n        /* \"#utility.yul\":6957:6960   */\n      dup3\n        /* \"#utility.yul\":6953:6965   */\n      add\n        /* \"#utility.yul\":6946:6965   */\n      swap1\n      pop\n        /* \"#utility.yul\":6605:6971   */\n      swap2\n      swap1\n      pop\n      jump\t// out\n        /* \"#utility.yul\":6977:7396   */\n    tag_113:\n        /* \"#utility.yul\":7143:7147   */\n      0x00\n        /* \"#utility.yul\":7181:7183   */\n      0x20\n        /* \"#utility.yul\":7170:7179   */\n      dup3\n        /* \"#utility.yul\":7166:7184   */\n      add\n        /* \"#utility.yul\":7158:7184   */\n      swap1\n      pop\n        /* \"#utility.yul\":7230:7239   */\n      dup2\n        /* \"#utility.yul\":7224:7228   */\n      dup2\n        /* \"#utility.yul\":7220:7240   */\n      sub\n        /* \"#utility.yul\":7216:7217   */\n      0x00\n        /* \"#utility.yul\":7205:7214   */\n      dup4\n        /* \"#utility.yul\":7201:7218   */\n      add\n        /* \"#utility.yul\":7194:7241   */\n      mstore\n        /* \"#utility.yul\":7258:7389   */\n      tag_349\n        /* \"#utility.yul\":7384:7388   */\n      dup2\n        /* \"#utility.yul\":7258:7389   */\n      tag_227\n      jump\t// in\n    tag_349:\n        /* \"#utility.yul\":7250:7389   */\n      swap1\n      pop\n        /* \"#utility.yul\":6977:7396   */\n      swap2\n      swap1\n      pop\n      jump\t// out\n        /* \"#utility.yul\":7402:7574   */\n    tag_228:\n        /* \"#utility.yul\":7542:7566   */\n      0x4b65696e20476577696e6e2065696e67657a61686c7400000000000000000000\n        /* \"#utility.yul\":7538:7539   */\n      0x00\n        /* \"#utility.yul\":7530:7536   */\n      dup3\n        /* \"#utility.yul\":7526:7540   */\n      add\n        /* \"#utility.yul\":7519:7567   */\n      mstore\n        /* \"#utility.yul\":7402:7574   */\n      pop\n      jump\t// out\n        /* \"#utility.yul\":7580:7946   */\n    tag_229:\n        /* \"#utility.yul\":7722:7725   */\n      0x00\n        /* \"#utility.yul\":7743:7810   */\n      tag_352\n        /* \"#utility.yul\":7807:7809   */\n      0x16\n        /* \"#utility.yul\":7802:7805   */\n      dup4\n        /* \"#utility.yul\":7743:7810   */\n      tag_217\n      jump\t// in\n    tag_352:\n        /* \"#utility.yul\":7736:7810   */\n      swap2\n      pop\n        /* \"#utility.yul\":7819:7912   */\n      tag_353\n        /* \"#utility.yul\":7908:7911   */\n      dup3\n        /* \"#utility.yul\":7819:7912   */\n      tag_228\n      jump\t// in\n    tag_353:\n        /* \"#utility.yul\":7937:7939   */\n      0x20\n        /* \"#utility.yul\":7932:7935   */\n      dup3\n        /* \"#utility.yul\":7928:7940   */\n      add\n        /* \"#utility.yul\":7921:7940   */\n      swap1\n      pop\n        /* \"#utility.yul\":7580:7946   */\n      swap2\n      swap1\n      pop\n      jump\t// out\n        /* \"#utility.yul\":7952:8371   */\n    tag_117:\n        /* \"#utility.yul\":8118:8122   */\n      0x00\n        /* \"#utility.yul\":8156:8158   */\n      0x20\n        /* \"#utility.yul\":8145:8154   */\n      dup3\n        /* \"#utility.yul\":8141:8159   */\n      add\n        /* \"#utility.yul\":8133:8159   */\n      swap1\n      pop\n        /* \"#utility.yul\":8205:8214   */\n      dup2\n        /* \"#utility.yul\":8199:8203   */\n      dup2\n        /* \"#utility.yul\":8195:8215   */\n      sub\n        /* \"#utility.yul\":8191:8192   */\n      0x00\n        /* \"#utility.yul\":8180:8189   */\n      dup4\n        /* \"#utility.yul\":8176:8193   */\n      add\n        /* \"#utility.yul\":8169:8216   */\n      mstore\n        /* \"#utility.yul\":8233:8364   */\n      tag_355\n        /* \"#utility.yul\":8359:8363   */\n      dup2\n        /* \"#utility.yul\":8233:8364   */\n      tag_229\n      jump\t// in\n    tag_355:\n        /* \"#utility.yul\":8225:8364   */\n      swap1\n      pop\n        /* \"#utility.yul\":7952:8371   */\n      swap2\n      swap1\n      pop\n      jump\t// out\n        /* \"#utility.yul\":8377:8550   */\n    tag_230:\n        /* \"#utility.yul\":8517:8542   */\n      0x44752062697374206b65696e204d6974737069656c6572000000000000000000\n        /* \"#utility.yul\":8513:8514   */\n      0x00\n        /* \"#utility.yul\":8505:8511   */\n      dup3\n        /* \"#utility.yul\":8501:8515   */\n      add\n        /* \"#utility.yul\":8494:8543   */\n      mstore\n        /* \"#utility.yul\":8377:8550   */\n      pop\n      jump\t// out\n        /* \"#utility.yul\":8556:8922   */\n    tag_231:\n        /* \"#utility.yul\":8698:8701   */\n      0x00\n        /* \"#utility.yul\":8719:8786   */\n      tag_358\n        /* \"#utility.yul\":8783:8785   */\n      0x17\n        /* \"#utility.yul\":8778:8781   */\n      dup4\n        /* \"#utility.yul\":8719:8786   */\n      tag_217\n      jump\t// in\n    tag_358:\n        /* \"#utility.yul\":8712:8786   */\n      swap2\n      pop\n        /* \"#utility.yul\":8795:8888   */\n      tag_359\n        /* \"#utility.yul\":8884:8887   */\n      dup3\n        /* \"#utility.yul\":8795:8888   */\n      tag_230\n      jump\t// in\n    tag_359:\n        /* \"#utility.yul\":8913:8915   */\n      0x20\n        /* \"#utility.yul\":8908:8911   */\n      dup3\n        /* \"#utility.yul\":8904:8916   */\n      add\n        /* \"#utility.yul\":8897:8916   */\n      swap1\n      pop\n        /* \"#utility.yul\":8556:8922   */\n      swap2\n      swap1\n      pop\n      jump\t// out\n        /* \"#utility.yul\":8928:9347   */\n    tag_120:\n        /* \"#utility.yul\":9094:9098   */\n      0x00\n        /* \"#utility.yul\":9132:9134   */\n      0x20\n        /* \"#utility.yul\":9121:9130   */\n      dup3\n        /* \"#utility.yul\":9117:9135   */\n      add\n        /* \"#utility.yul\":9109:9135   */\n      swap1\n      pop\n        /* \"#utility.yul\":9181:9190   */\n      dup2\n        /* \"#utility.yul\":9175:9179   */\n      dup2\n        /* \"#utility.yul\":9171:9191   */\n      sub\n        /* \"#utility.yul\":9167:9168   */\n      0x00\n        /* \"#utility.yul\":9156:9165   */\n      dup4\n        /* \"#utility.yul\":9152:9169   */\n      add\n        /* \"#utility.yul\":9145:9192   */\n      mstore\n        /* \"#utility.yul\":9209:9340   */\n      tag_361\n        /* \"#utility.yul\":9335:9339   */\n      dup2\n        /* \"#utility.yul\":9209:9340   */\n      tag_231\n      jump\t// in\n    tag_361:\n        /* \"#utility.yul\":9201:9340   */\n      swap1\n      pop\n        /* \"#utility.yul\":8928:9347   */\n      swap2\n      swap1\n      pop\n      jump\t// out\n        /* \"#utility.yul\":9353:9576   */\n    tag_232:\n        /* \"#utility.yul\":9493:9527   */\n      0x4465696e20476577696e6e20777572646520626572656974732061757367657a\n        /* \"#utility.yul\":9489:9490   */\n      0x00\n        /* \"#utility.yul\":9481:9487   */\n      dup3\n        /* \"#utility.yul\":9477:9491   */\n      add\n        /* \"#utility.yul\":9470:9528   */\n      mstore\n        /* \"#utility.yul\":9562:9568   */\n      0x61686c7400000000000000000000000000000000000000000000000000000000\n        /* \"#utility.yul\":9557:9559   */\n      0x20\n        /* \"#utility.yul\":9549:9555   */\n      dup3\n        /* \"#utility.yul\":9545:9560   */\n      add\n        /* \"#utility.yul\":9538:9569   */\n      mstore\n        /* \"#utility.yul\":9353:9576   */\n      pop\n      jump\t// out\n        /* \"#utility.yul\":9582:9948   */\n    tag_233:\n        /* \"#utility.yul\":9724:9727   */\n      0x00\n        /* \"#utility.yul\":9745:9812   */\n      tag_364\n        /* \"#utility.yul\":9809:9811   */\n      0x24\n        /* \"#utility.yul\":9804:9807   */\n      dup4\n        /* \"#utility.yul\":9745:9812   */\n      tag_217\n      jump\t// in\n    tag_364:\n        /* \"#utility.yul\":9738:9812   */\n      swap2\n      pop\n        /* \"#utility.yul\":9821:9914   */\n      tag_365\n        /* \"#utility.yul\":9910:9913   */\n      dup3\n        /* \"#utility.yul\":9821:9914   */\n      tag_232\n      jump\t// in\n    tag_365:\n        /* \"#utility.yul\":9939:9941   */\n      0x40\n        /* \"#utility.yul\":9934:9937   */\n      dup3\n        /* \"#utility.yul\":9930:9942   */\n      add\n        /* \"#utility.yul\":9923:9942   */\n      swap1\n      pop\n        /* \"#utility.yul\":9582:9948   */\n      swap2\n      swap1\n      pop\n      jump\t// out\n        /* \"#utility.yul\":9954:10373   */\n    tag_123:\n        /* \"#utility.yul\":10120:10124   */\n      0x00\n        /* \"#utility.yul\":10158:10160   */\n      0x20\n        /* \"#utility.yul\":10147:10156   */\n      dup3\n        /* \"#utility.yul\":10143:10161   */\n      add\n        /* \"#utility.yul\":10135:10161   */\n      swap1\n      pop\n        /* \"#utility.yul\":10207:10216   */\n      dup2\n        /* \"#utility.yul\":10201:10205   */\n      dup2\n        /* \"#utility.yul\":10197:10217   */\n      sub\n        /* \"#utility.yul\":10193:10194   */\n      0x00\n        /* \"#utility.yul\":10182:10191   */\n      dup4\n        /* \"#utility.yul\":10178:10195   */\n      add\n        /* \"#utility.yul\":10171:10218   */\n      mstore\n        /* \"#utility.yul\":10235:10366   */\n      tag_367\n        /* \"#utility.yul\":10361:10365   */\n      dup2\n        /* \"#utility.yul\":10235:10366   */\n      tag_233\n      jump\t// in\n    tag_367:\n        /* \"#utility.yul\":10227:10366   */\n      swap1\n      pop\n        /* \"#utility.yul\":9954:10373   */\n      swap2\n      swap1\n      pop\n      jump\t// out\n        /* \"#utility.yul\":10379:10526   */\n    tag_234:\n        /* \"#utility.yul\":10480:10491   */\n      0x00\n        /* \"#utility.yul\":10517:10520   */\n      dup2\n        /* \"#utility.yul\":10502:10520   */\n      swap1\n      pop\n        /* \"#utility.yul\":10379:10526   */\n      swap3\n      swap2\n      pop\n      pop\n      jump\t// out\n        /* \"#utility.yul\":10532:10646   */\n    tag_235:\n      pop\n      jump\t// out\n        /* \"#utility.yul\":10652:11050   */\n    tag_236:\n        /* \"#utility.yul\":10811:10814   */\n      0x00\n        /* \"#utility.yul\":10832:10915   */\n      tag_371\n        /* \"#utility.yul\":10913:10914   */\n      0x00\n        /* \"#utility.yul\":10908:10911   */\n      dup4\n        /* \"#utility.yul\":10832:10915   */\n      tag_234\n      jump\t// in\n    tag_371:\n        /* \"#utility.yul\":10825:10915   */\n      swap2\n      pop\n        /* \"#utility.yul\":10924:11017   */\n      tag_372\n        /* \"#utility.yul\":11013:11016   */\n      dup3\n        /* \"#utility.yul\":10924:11017   */\n      tag_235\n      jump\t// in\n    tag_372:\n        /* \"#utility.yul\":11042:11043   */\n      0x00\n        /* \"#utility.yul\":11037:11040   */\n      dup3\n        /* \"#utility.yul\":11033:11044   */\n      add\n        /* \"#utility.yul\":11026:11044   */\n      swap1\n      pop\n        /* \"#utility.yul\":10652:11050   */\n      swap2\n      swap1\n      pop\n      jump\t// out\n        /* \"#utility.yul\":11056:11435   */\n    tag_125:\n        /* \"#utility.yul\":11240:11243   */\n      0x00\n        /* \"#utility.yul\":11262:11409   */\n      tag_374\n        /* \"#utility.yul\":11405:11408   */\n      dup3\n        /* \"#utility.yul\":11262:11409   */\n      tag_236\n      jump\t// in\n    tag_374:\n        /* \"#utility.yul\":11255:11409   */\n      swap2\n      pop\n        /* \"#utility.yul\":11426:11429   */\n      dup2\n        /* \"#utility.yul\":11419:11429   */\n      swap1\n      pop\n        /* \"#utility.yul\":11056:11435   */\n      swap2\n      swap1\n      pop\n      jump\t// out\n        /* \"#utility.yul\":11441:11665   */\n    tag_237:\n        /* \"#utility.yul\":11581:11615   */\n      0x4175737a61686c756e672064657320476577696e6e73206665686c6765736368\n        /* \"#utility.yul\":11577:11578   */\n      0x00\n        /* \"#utility.yul\":11569:11575   */\n      dup3\n        /* \"#utility.yul\":11565:11579   */\n      add\n        /* \"#utility.yul\":11558:11616   */\n      mstore\n        /* \"#utility.yul\":11650:11657   */\n      0x6c6167656e000000000000000000000000000000000000000000000000000000\n        /* \"#utility.yul\":11645:11647   */\n      0x20\n        /* \"#utility.yul\":11637:11643   */\n      dup3\n        /* \"#utility.yul\":11633:11648   */\n      add\n        /* \"#utility.yul\":11626:11658   */\n      mstore\n        /* \"#utility.yul\":11441:11665   */\n      pop\n      jump\t// out\n        /* \"#utility.yul\":11671:12037   */\n    tag_238:\n        /* \"#utility.yul\":11813:11816   */\n      0x00\n        /* \"#utility.yul\":11834:11901   */\n      tag_377\n        /* \"#utility.yul\":11898:11900   */\n      0x25\n        /* \"#utility.yul\":11893:11896   */\n      dup4\n        /* \"#utility.yul\":11834:11901   */\n      tag_217\n      jump\t// in\n    tag_377:\n        /* \"#utility.yul\":11827:11901   */\n      swap2\n      pop\n        /* \"#utility.yul\":11910:12003   */\n      tag_378\n        /* \"#utility.yul\":11999:12002   */\n      dup3\n        /* \"#utility.yul\":11910:12003   */\n      tag_237\n      jump\t// in\n    tag_378:\n        /* \"#utility.yul\":12028:12030   */\n      0x40\n        /* \"#utility.yul\":12023:12026   */\n      dup3\n        /* \"#utility.yul\":12019:12031   */\n      add\n        /* \"#utility.yul\":12012:12031   */\n      swap1\n      pop\n        /* \"#utility.yul\":11671:12037   */\n      swap2\n      swap1\n      pop\n      jump\t// out\n        /* \"#utility.yul\":12043:12462   */\n    tag_131:\n        /* \"#utility.yul\":12209:12213   */\n      0x00\n        /* \"#utility.yul\":12247:12249   */\n      0x20\n        /* \"#utility.yul\":12236:12245   */\n      dup3\n        /* \"#utility.yul\":12232:12250   */\n      add\n        /* \"#utility.yul\":12224:12250   */\n      swap1\n      pop\n        /* \"#utility.yul\":12296:12305   */\n      dup2\n        /* \"#utility.yul\":12290:12294   */\n      dup2\n        /* \"#utility.yul\":12286:12306   */\n      sub\n        /* \"#utility.yul\":12282:12283   */\n      0x00\n        /* \"#utility.yul\":12271:12280   */\n      dup4\n        /* \"#utility.yul\":12267:12284   */\n      add\n        /* \"#utility.yul\":12260:12307   */\n      mstore\n        /* \"#utility.yul\":12324:12455   */\n      tag_380\n        /* \"#utility.yul\":12450:12454   */\n      dup2\n        /* \"#utility.yul\":12324:12455   */\n      tag_238\n      jump\t// in\n    tag_380:\n        /* \"#utility.yul\":12316:12455   */\n      swap1\n      pop\n        /* \"#utility.yul\":12043:12462   */\n      swap2\n      swap1\n      pop\n      jump\t// out\n        /* \"#utility.yul\":12468:12718   */\n    tag_239:\n        /* \"#utility.yul\":12608:12642   */\n      0x457320676962742062657265697473204d6974737069656c65722e2050726569\n        /* \"#utility.yul\":12604:12605   */\n      0x00\n        /* \"#utility.yul\":12596:12602   */\n      dup3\n        /* \"#utility.yul\":12592:12606   */\n      add\n        /* \"#utility.yul\":12585:12643   */\n      mstore\n        /* \"#utility.yul\":12677:12710   */\n      0x7361656e646572756e67206e69636874206d656872206d6f65676c6963682e00\n        /* \"#utility.yul\":12672:12674   */\n      0x20\n        /* \"#utility.yul\":12664:12670   */\n      dup3\n        /* \"#utility.yul\":12660:12675   */\n      add\n        /* \"#utility.yul\":12653:12711   */\n      mstore\n        /* \"#utility.yul\":12468:12718   */\n      pop\n      jump\t// out\n        /* \"#utility.yul\":12724:13090   */\n    tag_240:\n        /* \"#utility.yul\":12866:12869   */\n      0x00\n        /* \"#utility.yul\":12887:12954   */\n      tag_383\n        /* \"#utility.yul\":12951:12953   */\n      0x3f\n        /* \"#utility.yul\":12946:12949   */\n      dup4\n        /* \"#utility.yul\":12887:12954   */\n      tag_217\n      jump\t// in\n    tag_383:\n        /* \"#utility.yul\":12880:12954   */\n      swap2\n      pop\n        /* \"#utility.yul\":12963:13056   */\n      tag_384\n        /* \"#utility.yul\":13052:13055   */\n      dup3\n        /* \"#utility.yul\":12963:13056   */\n      tag_239\n      jump\t// in\n    tag_384:\n        /* \"#utility.yul\":13081:13083   */\n      0x40\n        /* \"#utility.yul\":13076:13079   */\n      dup3\n        /* \"#utility.yul\":13072:13084   */\n      add\n        /* \"#utility.yul\":13065:13084   */\n      swap1\n      pop\n        /* \"#utility.yul\":12724:13090   */\n      swap2\n      swap1\n      pop\n      jump\t// out\n        /* \"#utility.yul\":13096:13515   */\n    tag_137:\n        /* \"#utility.yul\":13262:13266   */\n      0x00\n        /* \"#utility.yul\":13300:13302   */\n      0x20\n        /* \"#utility.yul\":13289:13298   */\n      dup3\n        /* \"#utility.yul\":13285:13303   */\n      add\n        /* \"#utility.yul\":13277:13303   */\n      swap1\n      pop\n        /* \"#utility.yul\":13349:13358   */\n      dup2\n        /* \"#utility.yul\":13343:13347   */\n      dup2\n        /* \"#utility.yul\":13339:13359   */\n      sub\n        /* \"#utility.yul\":13335:13336   */\n      0x00\n        /* \"#utility.yul\":13324:13333   */\n      dup4\n        /* \"#utility.yul\":13320:13337   */\n      add\n        /* \"#utility.yul\":13313:13360   */\n      mstore\n        /* \"#utility.yul\":13377:13508   */\n      tag_386\n        /* \"#utility.yul\":13503:13507   */\n      dup2\n        /* \"#utility.yul\":13377:13508   */\n      tag_240\n      jump\t// in\n    tag_386:\n        /* \"#utility.yul\":13369:13508   */\n      swap1\n      pop\n        /* \"#utility.yul\":13096:13515   */\n      swap2\n      swap1\n      pop\n      jump\t// out\n        /* \"#utility.yul\":13521:13766   */\n    tag_241:\n        /* \"#utility.yul\":13661:13695   */\n      0x457320676962742062657265697473204d6974737069656c65722e2041656e64\n        /* \"#utility.yul\":13657:13658   */\n      0x00\n        /* \"#utility.yul\":13649:13655   */\n      dup3\n        /* \"#utility.yul\":13645:13659   */\n      add\n        /* \"#utility.yul\":13638:13696   */\n      mstore\n        /* \"#utility.yul\":13730:13758   */\n      0x6572756e67206e69636874206d656872206d6f65676c6963682e000000000000\n        /* \"#utility.yul\":13725:13727   */\n      0x20\n        /* \"#utility.yul\":13717:13723   */\n      dup3\n        /* \"#utility.yul\":13713:13728   */\n      add\n        /* \"#utility.yul\":13706:13759   */\n      mstore\n        /* \"#utility.yul\":13521:13766   */\n      pop\n      jump\t// out\n        /* \"#utility.yul\":13772:14138   */\n    tag_242:\n        /* \"#utility.yul\":13914:13917   */\n      0x00\n        /* \"#utility.yul\":13935:14002   */\n      tag_389\n        /* \"#utility.yul\":13999:14001   */\n      0x3a\n        /* \"#utility.yul\":13994:13997   */\n      dup4\n        /* \"#utility.yul\":13935:14002   */\n      tag_217\n      jump\t// in\n    tag_389:\n        /* \"#utility.yul\":13928:14002   */\n      swap2\n      pop\n        /* \"#utility.yul\":14011:14104   */\n      tag_390\n        /* \"#utility.yul\":14100:14103   */\n      dup3\n        /* \"#utility.yul\":14011:14104   */\n      tag_241\n      jump\t// in\n    tag_390:\n        /* \"#utility.yul\":14129:14131   */\n      0x40\n        /* \"#utility.yul\":14124:14127   */\n      dup3\n        /* \"#utility.yul\":14120:14132   */\n      add\n        /* \"#utility.yul\":14113:14132   */\n      swap1\n      pop\n        /* \"#utility.yul\":13772:14138   */\n      swap2\n      swap1\n      pop\n      jump\t// out\n        /* \"#utility.yul\":14144:14563   */\n    tag_143:\n        /* \"#utility.yul\":14310:14314   */\n      0x00\n        /* \"#utility.yul\":14348:14350   */\n      0x20\n        /* \"#utility.yul\":14337:14346   */\n      dup3\n        /* \"#utility.yul\":14333:14351   */\n      add\n        /* \"#utility.yul\":14325:14351   */\n      swap1\n      pop\n        /* \"#utility.yul\":14397:14406   */\n      dup2\n        /* \"#utility.yul\":14391:14395   */\n      dup2\n        /* \"#utility.yul\":14387:14407   */\n      sub\n        /* \"#utility.yul\":14383:14384   */\n      0x00\n        /* \"#utility.yul\":14372:14381   */\n      dup4\n        /* \"#utility.yul\":14368:14385   */\n      add\n        /* \"#utility.yul\":14361:14408   */\n      mstore\n        /* \"#utility.yul\":14425:14556   */\n      tag_392\n        /* \"#utility.yul\":14551:14555   */\n      dup2\n        /* \"#utility.yul\":14425:14556   */\n      tag_242\n      jump\t// in\n    tag_392:\n        /* \"#utility.yul\":14417:14556   */\n      swap1\n      pop\n        /* \"#utility.yul\":14144:14563   */\n      swap2\n      swap1\n      pop\n      jump\t// out\n        /* \"#utility.yul\":14569:14749   */\n    tag_243:\n        /* \"#utility.yul\":14617:14694   */\n      0x4e487b7100000000000000000000000000000000000000000000000000000000\n        /* \"#utility.yul\":14614:14615   */\n      0x00\n        /* \"#utility.yul\":14607:14695   */\n      mstore\n        /* \"#utility.yul\":14714:14718   */\n      0x12\n        /* \"#utility.yul\":14711:14712   */\n      0x04\n        /* \"#utility.yul\":14704:14719   */\n      mstore\n        /* \"#utility.yul\":14738:14742   */\n      0x24\n        /* \"#utility.yul\":14735:14736   */\n      0x00\n        /* \"#utility.yul\":14728:14743   */\n      revert\n        /* \"#utility.yul\":14755:14935   */\n    tag_244:\n        /* \"#utility.yul\":14803:14880   */\n      0x4e487b7100000000000000000000000000000000000000000000000000000000\n        /* \"#utility.yul\":14800:14801   */\n      0x00\n        /* \"#utility.yul\":14793:14881   */\n      mstore\n        /* \"#utility.yul\":14900:14904   */\n      0x11\n        /* \"#utility.yul\":14897:14898   */\n      0x04\n        /* \"#utility.yul\":14890:14905   */\n      mstore\n        /* \"#utility.yul\":14924:14928   */\n      0x24\n        /* \"#utility.yul\":14921:14922   */\n      0x00\n        /* \"#utility.yul\":14914:14929   */\n      revert\n        /* \"#utility.yul\":14941:15123   */\n    tag_146:\n        /* \"#utility.yul\":14980:14981   */\n      0x00\n        /* \"#utility.yul\":14997:15016   */\n      tag_396\n        /* \"#utility.yul\":15014:15015   */\n      dup3\n        /* \"#utility.yul\":14997:15016   */\n      tag_201\n      jump\t// in\n    tag_396:\n        /* \"#utility.yul\":14992:15016   */\n      swap2\n      pop\n        /* \"#utility.yul\":15030:15049   */\n      tag_397\n        /* \"#utility.yul\":15047:15048   */\n      dup4\n        /* \"#utility.yul\":15030:15049   */\n      tag_201\n      jump\t// in\n    tag_397:\n        /* \"#utility.yul\":15025:15049   */\n      swap3\n      pop\n        /* \"#utility.yul\":15068:15069   */\n      dup3\n        /* \"#utility.yul\":15058:15093   */\n      tag_398\n      jumpi\n        /* \"#utility.yul\":15073:15091   */\n      tag_399\n      tag_243\n      jump\t// in\n    tag_399:\n        /* \"#utility.yul\":15058:15093   */\n    tag_398:\n        /* \"#utility.yul\":15115:15116   */\n      dup3\n        /* \"#utility.yul\":15112:15113   */\n      dup3\n        /* \"#utility.yul\":15108:15117   */\n      div\n        /* \"#utility.yul\":15103:15117   */\n      swap1\n      pop\n        /* \"#utility.yul\":14941:15123   */\n      swap3\n      swap2\n      pop\n      pop\n      jump\t// out\n        /* \"#utility.yul\":15129:15304   */\n    tag_245:\n        /* \"#utility.yul\":15269:15296   */\n      0x4b65696e2050726569732070726f204d6974737069656c657200000000000000\n        /* \"#utility.yul\":15265:15266   */\n      0x00\n        /* \"#utility.yul\":15257:15263   */\n      dup3\n        /* \"#utility.yul\":15253:15267   */\n      add\n        /* \"#utility.yul\":15246:15297   */\n      mstore\n        /* \"#utility.yul\":15129:15304   */\n      pop\n      jump\t// out\n        /* \"#utility.yul\":15310:15676   */\n    tag_246:\n        /* \"#utility.yul\":15452:15455   */\n      0x00\n        /* \"#utility.yul\":15473:15540   */\n      tag_402\n        /* \"#utility.yul\":15537:15539   */\n      0x19\n        /* \"#utility.yul\":15532:15535   */\n      dup4\n        /* \"#utility.yul\":15473:15540   */\n      tag_217\n      jump\t// in\n    tag_402:\n        /* \"#utility.yul\":15466:15540   */\n      swap2\n      pop\n        /* \"#utility.yul\":15549:15642   */\n      tag_403\n        /* \"#utility.yul\":15638:15641   */\n      dup3\n        /* \"#utility.yul\":15549:15642   */\n      tag_245\n      jump\t// in\n    tag_403:\n        /* \"#utility.yul\":15667:15669   */\n      0x20\n        /* \"#utility.yul\":15662:15665   */\n      dup3\n        /* \"#utility.yul\":15658:15670   */\n      add\n        /* \"#utility.yul\":15651:15670   */\n      swap1\n      pop\n        /* \"#utility.yul\":15310:15676   */\n      swap2\n      swap1\n      pop\n      jump\t// out\n        /* \"#utility.yul\":15682:16101   */\n    tag_149:\n        /* \"#utility.yul\":15848:15852   */\n      0x00\n        /* \"#utility.yul\":15886:15888   */\n      0x20\n        /* \"#utility.yul\":15875:15884   */\n      dup3\n        /* \"#utility.yul\":15871:15889   */\n      add\n        /* \"#utility.yul\":15863:15889   */\n      swap1\n      pop\n        /* \"#utility.yul\":15935:15944   */\n      dup2\n        /* \"#utility.yul\":15929:15933   */\n      dup2\n        /* \"#utility.yul\":15925:15945   */\n      sub\n        /* \"#utility.yul\":15921:15922   */\n      0x00\n        /* \"#utility.yul\":15910:15919   */\n      dup4\n        /* \"#utility.yul\":15906:15923   */\n      add\n        /* \"#utility.yul\":15899:15946   */\n      mstore\n        /* \"#utility.yul\":15963:16094   */\n      tag_405\n        /* \"#utility.yul\":16089:16093   */\n      dup2\n        /* \"#utility.yul\":15963:16094   */\n      tag_246\n      jump\t// in\n    tag_405:\n        /* \"#utility.yul\":15955:16094   */\n      swap1\n      pop\n        /* \"#utility.yul\":15682:16101   */\n      swap2\n      swap1\n      pop\n      jump\t// out\n        /* \"#utility.yul\":16107:16286   */\n    tag_247:\n        /* \"#utility.yul\":16247:16278   */\n      0x5a7520676572696e6765722045696e7a61686c756e6773626574726167000000\n        /* \"#utility.yul\":16243:16244   */\n      0x00\n        /* \"#utility.yul\":16235:16241   */\n      dup3\n        /* \"#utility.yul\":16231:16245   */\n      add\n        /* \"#utility.yul\":16224:16279   */\n      mstore\n        /* \"#utility.yul\":16107:16286   */\n      pop\n      jump\t// out\n        /* \"#utility.yul\":16292:16658   */\n    tag_248:\n        /* \"#utility.yul\":16434:16437   */\n      0x00\n        /* \"#utility.yul\":16455:16522   */\n      tag_408\n        /* \"#utility.yul\":16519:16521   */\n      0x1d\n        /* \"#utility.yul\":16514:16517   */\n      dup4\n        /* \"#utility.yul\":16455:16522   */\n      tag_217\n      jump\t// in\n    tag_408:\n        /* \"#utility.yul\":16448:16522   */\n      swap2\n      pop\n        /* \"#utility.yul\":16531:16624   */\n      tag_409\n        /* \"#utility.yul\":16620:16623   */\n      dup3\n        /* \"#utility.yul\":16531:16624   */\n      tag_247\n      jump\t// in\n    tag_409:\n        /* \"#utility.yul\":16649:16651   */\n      0x20\n        /* \"#utility.yul\":16644:16647   */\n      dup3\n        /* \"#utility.yul\":16640:16652   */\n      add\n        /* \"#utility.yul\":16633:16652   */\n      swap1\n      pop\n        /* \"#utility.yul\":16292:16658   */\n      swap2\n      swap1\n      pop\n      jump\t// out\n        /* \"#utility.yul\":16664:17083   */\n    tag_152:\n        /* \"#utility.yul\":16830:16834   */\n      0x00\n        /* \"#utility.yul\":16868:16870   */\n      0x20\n        /* \"#utility.yul\":16857:16866   */\n      dup3\n        /* \"#utility.yul\":16853:16871   */\n      add\n        /* \"#utility.yul\":16845:16871   */\n      swap1\n      pop\n        /* \"#utility.yul\":16917:16926   */\n      dup2\n        /* \"#utility.yul\":16911:16915   */\n      dup2\n        /* \"#utility.yul\":16907:16927   */\n      sub\n        /* \"#utility.yul\":16903:16904   */\n      0x00\n        /* \"#utility.yul\":16892:16901   */\n      dup4\n        /* \"#utility.yul\":16888:16905   */\n      add\n        /* \"#utility.yul\":16881:16928   */\n      mstore\n        /* \"#utility.yul\":16945:17076   */\n      tag_411\n        /* \"#utility.yul\":17071:17075   */\n      dup2\n        /* \"#utility.yul\":16945:17076   */\n      tag_248\n      jump\t// in\n    tag_411:\n        /* \"#utility.yul\":16937:17076   */\n      swap1\n      pop\n        /* \"#utility.yul\":16664:17083   */\n      swap2\n      swap1\n      pop\n      jump\t// out\n        /* \"#utility.yul\":17089:17310   */\n    tag_249:\n        /* \"#utility.yul\":17229:17263   */\n      0x4265726569747320616c73204d6974737069656c657220726567697374726965\n        /* \"#utility.yul\":17225:17226   */\n      0x00\n        /* \"#utility.yul\":17217:17223   */\n      dup3\n        /* \"#utility.yul\":17213:17227   */\n      add\n        /* \"#utility.yul\":17206:17264   */\n      mstore\n        /* \"#utility.yul\":17298:17302   */\n      0x7274000000000000000000000000000000000000000000000000000000000000\n        /* \"#utility.yul\":17293:17295   */\n      0x20\n        /* \"#utility.yul\":17285:17291   */\n      dup3\n        /* \"#utility.yul\":17281:17296   */\n      add\n        /* \"#utility.yul\":17274:17303   */\n      mstore\n        /* \"#utility.yul\":17089:17310   */\n      pop\n      jump\t// out\n        /* \"#utility.yul\":17316:17682   */\n    tag_250:\n        /* \"#utility.yul\":17458:17461   */\n      0x00\n        /* \"#utility.yul\":17479:17546   */\n      tag_414\n        /* \"#utility.yul\":17543:17545   */\n      0x22\n        /* \"#utility.yul\":17538:17541   */\n      dup4\n        /* \"#utility.yul\":17479:17546   */\n      tag_217\n      jump\t// in\n    tag_414:\n        /* \"#utility.yul\":17472:17546   */\n      swap2\n      pop\n        /* \"#utility.yul\":17555:17648   */\n      tag_415\n        /* \"#utility.yul\":17644:17647   */\n      dup3\n        /* \"#utility.yul\":17555:17648   */\n      tag_249\n      jump\t// in\n    tag_415:\n        /* \"#utility.yul\":17673:17675   */\n      0x40\n        /* \"#utility.yul\":17668:17671   */\n      dup3\n        /* \"#utility.yul\":17664:17676   */\n      add\n        /* \"#utility.yul\":17657:17676   */\n      swap1\n      pop\n        /* \"#utility.yul\":17316:17682   */\n      swap2\n      swap1\n      pop\n      jump\t// out\n        /* \"#utility.yul\":17688:18107   */\n    tag_155:\n        /* \"#utility.yul\":17854:17858   */\n      0x00\n        /* \"#utility.yul\":17892:17894   */\n      0x20\n        /* \"#utility.yul\":17881:17890   */\n      dup3\n        /* \"#utility.yul\":17877:17895   */\n      add\n        /* \"#utility.yul\":17869:17895   */\n      swap1\n      pop\n        /* \"#utility.yul\":17941:17950   */\n      dup2\n        /* \"#utility.yul\":17935:17939   */\n      dup2\n        /* \"#utility.yul\":17931:17951   */\n      sub\n        /* \"#utility.yul\":17927:17928   */\n      0x00\n        /* \"#utility.yul\":17916:17925   */\n      dup4\n        /* \"#utility.yul\":17912:17929   */\n      add\n        /* \"#utility.yul\":17905:17952   */\n      mstore\n        /* \"#utility.yul\":17969:18100   */\n      tag_417\n        /* \"#utility.yul\":18095:18099   */\n      dup2\n        /* \"#utility.yul\":17969:18100   */\n      tag_250\n      jump\t// in\n    tag_417:\n        /* \"#utility.yul\":17961:18100   */\n      swap1\n      pop\n        /* \"#utility.yul\":17688:18107   */\n      swap2\n      swap1\n      pop\n      jump\t// out\n        /* \"#utility.yul\":18113:18295   */\n    tag_251:\n        /* \"#utility.yul\":18253:18287   */\n      0x4d6178696d616c65205465696c6e65686d65727a61686c206572726569636874\n        /* \"#utility.yul\":18249:18250   */\n      0x00\n        /* \"#utility.yul\":18241:18247   */\n      dup3\n        /* \"#utility.yul\":18237:18251   */\n      add\n        /* \"#utility.yul\":18230:18288   */\n      mstore\n        /* \"#utility.yul\":18113:18295   */\n      pop\n      jump\t// out\n        /* \"#utility.yul\":18301:18667   */\n    tag_252:\n        /* \"#utility.yul\":18443:18446   */\n      0x00\n        /* \"#utility.yul\":18464:18531   */\n      tag_420\n        /* \"#utility.yul\":18528:18530   */\n      0x20\n        /* \"#utility.yul\":18523:18526   */\n      dup4\n        /* \"#utility.yul\":18464:18531   */\n      tag_217\n      jump\t// in\n    tag_420:\n        /* \"#utility.yul\":18457:18531   */\n      swap2\n      pop\n        /* \"#utility.yul\":18540:18633   */\n      tag_421\n        /* \"#utility.yul\":18629:18632   */\n      dup3\n        /* \"#utility.yul\":18540:18633   */\n      tag_251\n      jump\t// in\n    tag_421:\n        /* \"#utility.yul\":18658:18660   */\n      0x20\n        /* \"#utility.yul\":18653:18656   */\n      dup3\n        /* \"#utility.yul\":18649:18661   */\n      add\n        /* \"#utility.yul\":18642:18661   */\n      swap1\n      pop\n        /* \"#utility.yul\":18301:18667   */\n      swap2\n      swap1\n      pop\n      jump\t// out\n        /* \"#utility.yul\":18673:19092   */\n    tag_158:\n        /* \"#utility.yul\":18839:18843   */\n      0x00\n        /* \"#utility.yul\":18877:18879   */\n      0x20\n        /* \"#utility.yul\":18866:18875   */\n      dup3\n        /* \"#utility.yul\":18862:18880   */\n      add\n        /* \"#utility.yul\":18854:18880   */\n      swap1\n      pop\n        /* \"#utility.yul\":18926:18935   */\n      dup2\n        /* \"#utility.yul\":18920:18924   */\n      dup2\n        /* \"#utility.yul\":18916:18936   */\n      sub\n        /* \"#utility.yul\":18912:18913   */\n      0x00\n        /* \"#utility.yul\":18901:18910   */\n      dup4\n        /* \"#utility.yul\":18897:18914   */\n      add\n        /* \"#utility.yul\":18890:18937   */\n      mstore\n        /* \"#utility.yul\":18954:19085   */\n      tag_423\n        /* \"#utility.yul\":19080:19084   */\n      dup2\n        /* \"#utility.yul\":18954:19085   */\n      tag_252\n      jump\t// in\n    tag_423:\n        /* \"#utility.yul\":18946:19085   */\n      swap1\n      pop\n        /* \"#utility.yul\":18673:19092   */\n      swap2\n      swap1\n      pop\n      jump\t// out\n        /* \"#utility.yul\":19098:19279   */\n    tag_253:\n        /* \"#utility.yul\":19238:19271   */\n      0x476577696e6e20777572646520626572656974732065696e67657a61686c7400\n        /* \"#utility.yul\":19234:19235   */\n      0x00\n        /* \"#utility.yul\":19226:19232   */\n      dup3\n        /* \"#utility.yul\":19222:19236   */\n      add\n        /* \"#utility.yul\":19215:19272   */\n      mstore\n        /* \"#utility.yul\":19098:19279   */\n      pop\n      jump\t// out\n        /* \"#utility.yul\":19285:19651   */\n    tag_254:\n        /* \"#utility.yul\":19427:19430   */\n      0x00\n        /* \"#utility.yul\":19448:19515   */\n      tag_426\n        /* \"#utility.yul\":19512:19514   */\n      0x1f\n        /* \"#utility.yul\":19507:19510   */\n      dup4\n        /* \"#utility.yul\":19448:19515   */\n      tag_217\n      jump\t// in\n    tag_426:\n        /* \"#utility.yul\":19441:19515   */\n      swap2\n      pop\n        /* \"#utility.yul\":19524:19617   */\n      tag_427\n        /* \"#utility.yul\":19613:19616   */\n      dup3\n        /* \"#utility.yul\":19524:19617   */\n      tag_253\n      jump\t// in\n    tag_427:\n        /* \"#utility.yul\":19642:19644   */\n      0x20\n        /* \"#utility.yul\":19637:19640   */\n      dup3\n        /* \"#utility.yul\":19633:19645   */\n      add\n        /* \"#utility.yul\":19626:19645   */\n      swap1\n      pop\n        /* \"#utility.yul\":19285:19651   */\n      swap2\n      swap1\n      pop\n      jump\t// out\n        /* \"#utility.yul\":19657:20076   */\n    tag_161:\n        /* \"#utility.yul\":19823:19827   */\n      0x00\n        /* \"#utility.yul\":19861:19863   */\n      0x20\n        /* \"#utility.yul\":19850:19859   */\n      dup3\n        /* \"#utility.yul\":19846:19864   */\n      add\n        /* \"#utility.yul\":19838:19864   */\n      swap1\n      pop\n        /* \"#utility.yul\":19910:19919   */\n      dup2\n        /* \"#utility.yul\":19904:19908   */\n      dup2\n        /* \"#utility.yul\":19900:19920   */\n      sub\n        /* \"#utility.yul\":19896:19897   */\n      0x00\n        /* \"#utility.yul\":19885:19894   */\n      dup4\n        /* \"#utility.yul\":19881:19898   */\n      add\n        /* \"#utility.yul\":19874:19921   */\n      mstore\n        /* \"#utility.yul\":19938:20069   */\n      tag_429\n        /* \"#utility.yul\":20064:20068   */\n      dup2\n        /* \"#utility.yul\":19938:20069   */\n      tag_254\n      jump\t// in\n    tag_429:\n        /* \"#utility.yul\":19930:20069   */\n      swap1\n      pop\n        /* \"#utility.yul\":19657:20076   */\n      swap2\n      swap1\n      pop\n      jump\t// out\n        /* \"#utility.yul\":20082:20159   */\n    tag_255:\n        /* \"#utility.yul\":20119:20126   */\n      0x00\n        /* \"#utility.yul\":20148:20153   */\n      dup2\n        /* \"#utility.yul\":20137:20153   */\n      swap1\n      pop\n        /* \"#utility.yul\":20082:20159   */\n      swap2\n      swap1\n      pop\n      jump\t// out\n        /* \"#utility.yul\":20165:20359   */\n    tag_165:\n        /* \"#utility.yul\":20205:20209   */\n      0x00\n        /* \"#utility.yul\":20225:20245   */\n      tag_432\n        /* \"#utility.yul\":20243:20244   */\n      dup3\n        /* \"#utility.yul\":20225:20245   */\n      tag_255\n      jump\t// in\n    tag_432:\n        /* \"#utility.yul\":20220:20245   */\n      swap2\n      pop\n        /* \"#utility.yul\":20259:20279   */\n      tag_433\n        /* \"#utility.yul\":20277:20278   */\n      dup4\n        /* \"#utility.yul\":20259:20279   */\n      tag_255\n      jump\t// in\n    tag_433:\n        /* \"#utility.yul\":20254:20279   */\n      swap3\n      pop\n        /* \"#utility.yul\":20303:20304   */\n      dup3\n        /* \"#utility.yul\":20300:20301   */\n      dup3\n        /* \"#utility.yul\":20296:20305   */\n      sub\n        /* \"#utility.yul\":20288:20305   */\n      swap1\n      pop\n        /* \"#utility.yul\":20327:20328   */\n      dup2\n        /* \"#utility.yul\":20321:20325   */\n      dup2\n        /* \"#utility.yul\":20318:20329   */\n      gt\n        /* \"#utility.yul\":20315:20352   */\n      iszero\n      tag_434\n      jumpi\n        /* \"#utility.yul\":20332:20350   */\n      tag_435\n      tag_244\n      jump\t// in\n    tag_435:\n        /* \"#utility.yul\":20315:20352   */\n    tag_434:\n        /* \"#utility.yul\":20165:20359   */\n      swap3\n      swap2\n      pop\n      pop\n      jump\t// out\n        /* \"#utility.yul\":20365:20536   */\n    tag_167:\n        /* \"#utility.yul\":20403:20406   */\n      0x00\n        /* \"#utility.yul\":20426:20449   */\n      tag_437\n        /* \"#utility.yul\":20443:20448   */\n      dup3\n        /* \"#utility.yul\":20426:20449   */\n      tag_214\n      jump\t// in\n    tag_437:\n        /* \"#utility.yul\":20417:20449   */\n      swap2\n      pop\n        /* \"#utility.yul\":20471:20477   */\n      0xffff\n        /* \"#utility.yul\":20464:20469   */\n      dup3\n        /* \"#utility.yul\":20461:20478   */\n      sub\n        /* \"#utility.yul\":20458:20501   */\n      tag_438\n      jumpi\n        /* \"#utility.yul\":20481:20499   */\n      tag_439\n      tag_244\n      jump\t// in\n    tag_439:\n        /* \"#utility.yul\":20458:20501   */\n    tag_438:\n        /* \"#utility.yul\":20528:20529   */\n      0x01\n        /* \"#utility.yul\":20521:20526   */\n      dup3\n        /* \"#utility.yul\":20517:20530   */\n      add\n        /* \"#utility.yul\":20510:20530   */\n      swap1\n      pop\n        /* \"#utility.yul\":20365:20536   */\n      swap2\n      swap1\n      pop\n      jump\t// out\n        /* \"#utility.yul\":20542:20722   */\n    tag_256:\n        /* \"#utility.yul\":20590:20667   */\n      0x4e487b7100000000000000000000000000000000000000000000000000000000\n        /* \"#utility.yul\":20587:20588   */\n      0x00\n        /* \"#utility.yul\":20580:20668   */\n      mstore\n        /* \"#utility.yul\":20687:20691   */\n      0x22\n        /* \"#utility.yul\":20684:20685   */\n      0x04\n        /* \"#utility.yul\":20677:20692   */\n      mstore\n        /* \"#utility.yul\":20711:20715   */\n      0x24\n        /* \"#utility.yul\":20708:20709   */\n      0x00\n        /* \"#utility.yul\":20701:20716   */\n      revert\n        /* \"#utility.yul\":20728:21048   */\n    tag_172:\n        /* \"#utility.yul\":20772:20778   */\n      0x00\n        /* \"#utility.yul\":20809:20810   */\n      0x02\n        /* \"#utility.yul\":20803:20807   */\n      dup3\n        /* \"#utility.yul\":20799:20811   */\n      div\n        /* \"#utility.yul\":20789:20811   */\n      swap1\n      pop\n        /* \"#utility.yul\":20856:20857   */\n      0x01\n        /* \"#utility.yul\":20850:20854   */\n      dup3\n        /* \"#utility.yul\":20846:20858   */\n      and\n        /* \"#utility.yul\":20877:20895   */\n      dup1\n        /* \"#utility.yul\":20867:20948   */\n      tag_442\n      jumpi\n        /* \"#utility.yul\":20933:20937   */\n      0x7f\n        /* \"#utility.yul\":20925:20931   */\n      dup3\n        /* \"#utility.yul\":20921:20938   */\n      and\n        /* \"#utility.yul\":20911:20938   */\n      swap2\n      pop\n        /* \"#utility.yul\":20867:20948   */\n    tag_442:\n        /* \"#utility.yul\":20995:20997   */\n      0x20\n        /* \"#utility.yul\":20987:20993   */\n      dup3\n        /* \"#utility.yul\":20984:20998   */\n      lt\n        /* \"#utility.yul\":20964:20982   */\n      dup2\n        /* \"#utility.yul\":20961:20999   */\n      sub\n        /* \"#utility.yul\":20958:21042   */\n      tag_443\n      jumpi\n        /* \"#utility.yul\":21014:21032   */\n      tag_444\n      tag_256\n      jump\t// in\n    tag_444:\n        /* \"#utility.yul\":20958:21042   */\n    tag_443:\n        /* \"#utility.yul\":20779:21048   */\n      pop\n        /* \"#utility.yul\":20728:21048   */\n      swap2\n      swap1\n      pop\n      jump\t// out\n        /* \"#utility.yul\":21054:21283   */\n    tag_257:\n        /* \"#utility.yul\":21194:21228   */\n      0x45696e7a61686c756e6773626574726167206d7573732067726f657373657220\n        /* \"#utility.yul\":21190:21191   */\n      0x00\n        /* \"#utility.yul\":21182:21188   */\n      dup3\n        /* \"#utility.yul\":21178:21192   */\n      add\n        /* \"#utility.yul\":21171:21229   */\n      mstore\n        /* \"#utility.yul\":21263:21275   */\n      0x616c732030207365696e00000000000000000000000000000000000000000000\n        /* \"#utility.yul\":21258:21260   */\n      0x20\n        /* \"#utility.yul\":21250:21256   */\n      dup3\n        /* \"#utility.yul\":21246:21261   */\n      add\n        /* \"#utility.yul\":21239:21276   */\n      mstore\n        /* \"#utility.yul\":21054:21283   */\n      pop\n      jump\t// out\n        /* \"#utility.yul\":21289:21655   */\n    tag_258:\n        /* \"#utility.yul\":21431:21434   */\n      0x00\n        /* \"#utility.yul\":21452:21519   */\n      tag_447\n        /* \"#utility.yul\":21516:21518   */\n      0x2a\n        /* \"#utility.yul\":21511:21514   */\n      dup4\n        /* \"#utility.yul\":21452:21519   */\n      tag_217\n      jump\t// in\n    tag_447:\n        /* \"#utility.yul\":21445:21519   */\n      swap2\n      pop\n        /* \"#utility.yul\":21528:21621   */\n      tag_448\n        /* \"#utility.yul\":21617:21620   */\n      dup3\n        /* \"#utility.yul\":21528:21621   */\n      tag_257\n      jump\t// in\n    tag_448:\n        /* \"#utility.yul\":21646:21648   */\n      0x40\n        /* \"#utility.yul\":21641:21644   */\n      dup3\n        /* \"#utility.yul\":21637:21649   */\n      add\n        /* \"#utility.yul\":21630:21649   */\n      swap1\n      pop\n        /* \"#utility.yul\":21289:21655   */\n      swap2\n      swap1\n      pop\n      jump\t// out\n        /* \"#utility.yul\":21661:22080   */\n    tag_182:\n        /* \"#utility.yul\":21827:21831   */\n      0x00\n        /* \"#utility.yul\":21865:21867   */\n      0x20\n        /* \"#utility.yul\":21854:21863   */\n      dup3\n        /* \"#utility.yul\":21850:21868   */\n      add\n        /* \"#utility.yul\":21842:21868   */\n      swap1\n      pop\n        /* \"#utility.yul\":21914:21923   */\n      dup2\n        /* \"#utility.yul\":21908:21912   */\n      dup2\n        /* \"#utility.yul\":21904:21924   */\n      sub\n        /* \"#utility.yul\":21900:21901   */\n      0x00\n        /* \"#utility.yul\":21889:21898   */\n      dup4\n        /* \"#utility.yul\":21885:21902   */\n      add\n        /* \"#utility.yul\":21878:21925   */\n      mstore\n        /* \"#utility.yul\":21942:22073   */\n      tag_450\n        /* \"#utility.yul\":22068:22072   */\n      dup2\n        /* \"#utility.yul\":21942:22073   */\n      tag_258\n      jump\t// in\n    tag_450:\n        /* \"#utility.yul\":21934:22073   */\n      swap1\n      pop\n        /* \"#utility.yul\":21661:22080   */\n      swap2\n      swap1\n      pop\n      jump\t// out\n        /* \"#utility.yul\":22086:22268   */\n    tag_259:\n        /* \"#utility.yul\":22226:22260   */\n      0x476577696e6e20777572646520626572656974732065696e67657a61686c742e\n        /* \"#utility.yul\":22222:22223   */\n      0x00\n        /* \"#utility.yul\":22214:22220   */\n      dup3\n        /* \"#utility.yul\":22210:22224   */\n      add\n        /* \"#utility.yul\":22203:22261   */\n      mstore\n        /* \"#utility.yul\":22086:22268   */\n      pop\n      jump\t// out\n        /* \"#utility.yul\":22274:22640   */\n    tag_260:\n        /* \"#utility.yul\":22416:22419   */\n      0x00\n        /* \"#utility.yul\":22437:22504   */\n      tag_453\n        /* \"#utility.yul\":22501:22503   */\n      0x20\n        /* \"#utility.yul\":22496:22499   */\n      dup4\n        /* \"#utility.yul\":22437:22504   */\n      tag_217\n      jump\t// in\n    tag_453:\n        /* \"#utility.yul\":22430:22504   */\n      swap2\n      pop\n        /* \"#utility.yul\":22513:22606   */\n      tag_454\n        /* \"#utility.yul\":22602:22605   */\n      dup3\n        /* \"#utility.yul\":22513:22606   */\n      tag_259\n      jump\t// in\n    tag_454:\n        /* \"#utility.yul\":22631:22633   */\n      0x20\n        /* \"#utility.yul\":22626:22629   */\n      dup3\n        /* \"#utility.yul\":22622:22634   */\n      add\n        /* \"#utility.yul\":22615:22634   */\n      swap1\n      pop\n        /* \"#utility.yul\":22274:22640   */\n      swap2\n      swap1\n      pop\n      jump\t// out\n        /* \"#utility.yul\":22646:23065   */\n    tag_185:\n        /* \"#utility.yul\":22812:22816   */\n      0x00\n        /* \"#utility.yul\":22850:22852   */\n      0x20\n        /* \"#utility.yul\":22839:22848   */\n      dup3\n        /* \"#utility.yul\":22835:22853   */\n      add\n        /* \"#utility.yul\":22827:22853   */\n      swap1\n      pop\n        /* \"#utility.yul\":22899:22908   */\n      dup2\n        /* \"#utility.yul\":22893:22897   */\n      dup2\n        /* \"#utility.yul\":22889:22909   */\n      sub\n        /* \"#utility.yul\":22885:22886   */\n      0x00\n        /* \"#utility.yul\":22874:22883   */\n      dup4\n        /* \"#utility.yul\":22870:22887   */\n      add\n        /* \"#utility.yul\":22863:22910   */\n      mstore\n        /* \"#utility.yul\":22927:23058   */\n      tag_456\n        /* \"#utility.yul\":23053:23057   */\n      dup2\n        /* \"#utility.yul\":22927:23058   */\n      tag_260\n      jump\t// in\n    tag_456:\n        /* \"#utility.yul\":22919:23058   */\n      swap1\n      pop\n        /* \"#utility.yul\":22646:23065   */\n      swap2\n      swap1\n      pop\n      jump\t// out\n        /* \"#utility.yul\":23071:23253   */\n    tag_187:\n        /* \"#utility.yul\":23110:23111   */\n      0x00\n        /* \"#utility.yul\":23127:23146   */\n      tag_458\n        /* \"#utility.yul\":23144:23145   */\n      dup3\n        /* \"#utility.yul\":23127:23146   */\n      tag_199\n      jump\t// in\n    tag_458:\n        /* \"#utility.yul\":23122:23146   */\n      swap2\n      pop\n        /* \"#utility.yul\":23160:23179   */\n      tag_459\n        /* \"#utility.yul\":23177:23178   */\n      dup4\n        /* \"#utility.yul\":23160:23179   */\n      tag_199\n      jump\t// in\n    tag_459:\n        /* \"#utility.yul\":23155:23179   */\n      swap3\n      pop\n        /* \"#utility.yul\":23198:23199   */\n      dup3\n        /* \"#utility.yul\":23188:23223   */\n      tag_460\n      jumpi\n        /* \"#utility.yul\":23203:23221   */\n      tag_461\n      tag_243\n      jump\t// in\n    tag_461:\n        /* \"#utility.yul\":23188:23223   */\n    tag_460:\n        /* \"#utility.yul\":23245:23246   */\n      dup3\n        /* \"#utility.yul\":23242:23243   */\n      dup3\n        /* \"#utility.yul\":23238:23247   */\n      div\n        /* \"#utility.yul\":23233:23247   */\n      swap1\n      pop\n        /* \"#utility.yul\":23071:23253   */\n      swap3\n      swap2\n      pop\n      pop\n      jump\t// out\n        /* \"#utility.yul\":23259:23567   */\n    tag_261:\n        /* \"#utility.yul\":23399:23433   */\n      0x457320676962742062657265697473204d6974737069656c65722e2041656e64\n        /* \"#utility.yul\":23395:23396   */\n      0x00\n        /* \"#utility.yul\":23387:23393   */\n      dup3\n        /* \"#utility.yul\":23383:23397   */\n      add\n        /* \"#utility.yul\":23376:23434   */\n      mstore\n        /* \"#utility.yul\":23468:23502   */\n      0x6572756e672064657220416e7a61686c20616e204d6974737069656c65726e20\n        /* \"#utility.yul\":23463:23465   */\n      0x20\n        /* \"#utility.yul\":23455:23461   */\n      dup3\n        /* \"#utility.yul\":23451:23466   */\n      add\n        /* \"#utility.yul\":23444:23503   */\n      mstore\n        /* \"#utility.yul\":23537:23559   */\n      0x6e69636874206d656872206d6f65676c6963682e000000000000000000000000\n        /* \"#utility.yul\":23532:23534   */\n      0x40\n        /* \"#utility.yul\":23524:23530   */\n      dup3\n        /* \"#utility.yul\":23520:23535   */\n      add\n        /* \"#utility.yul\":23513:23560   */\n      mstore\n        /* \"#utility.yul\":23259:23567   */\n      pop\n      jump\t// out\n        /* \"#utility.yul\":23573:23939   */\n    tag_262:\n        /* \"#utility.yul\":23715:23718   */\n      0x00\n        /* \"#utility.yul\":23736:23803   */\n      tag_464\n        /* \"#utility.yul\":23800:23802   */\n      0x54\n        /* \"#utility.yul\":23795:23798   */\n      dup4\n        /* \"#utility.yul\":23736:23803   */\n      tag_217\n      jump\t// in\n    tag_464:\n        /* \"#utility.yul\":23729:23803   */\n      swap2\n      pop\n        /* \"#utility.yul\":23812:23905   */\n      tag_465\n        /* \"#utility.yul\":23901:23904   */\n      dup3\n        /* \"#utility.yul\":23812:23905   */\n      tag_261\n      jump\t// in\n    tag_465:\n        /* \"#utility.yul\":23930:23932   */\n      0x60\n        /* \"#utility.yul\":23925:23928   */\n      dup3\n        /* \"#utility.yul\":23921:23933   */\n      add\n        /* \"#utility.yul\":23914:23933   */\n      swap1\n      pop\n        /* \"#utility.yul\":23573:23939   */\n      swap2\n      swap1\n      pop\n      jump\t// out\n        /* \"#utility.yul\":23945:24364   */\n    tag_198:\n        /* \"#utility.yul\":24111:24115   */\n      0x00\n        /* \"#utility.yul\":24149:24151   */\n      0x20\n        /* \"#utility.yul\":24138:24147   */\n      dup3\n        /* \"#utility.yul\":24134:24152   */\n      add\n        /* \"#utility.yul\":24126:24152   */\n      swap1\n      pop\n        /* \"#utility.yul\":24198:24207   */\n      dup2\n        /* \"#utility.yul\":24192:24196   */\n      dup2\n        /* \"#utility.yul\":24188:24208   */\n      sub\n        /* \"#utility.yul\":24184:24185   */\n      0x00\n        /* \"#utility.yul\":24173:24182   */\n      dup4\n        /* \"#utility.yul\":24169:24186   */\n      add\n        /* \"#utility.yul\":24162:24209   */\n      mstore\n        /* \"#utility.yul\":24226:24357   */\n      tag_467\n        /* \"#utility.yul\":24352:24356   */\n      dup2\n        /* \"#utility.yul\":24226:24357   */\n      tag_262\n      jump\t// in\n    tag_467:\n        /* \"#utility.yul\":24218:24357   */\n      swap1\n      pop\n        /* \"#utility.yul\":23945:24364   */\n      swap2\n      swap1\n      pop\n      jump\t// out\n\n    auxdata: 0xa2646970667358221220f1ca5a167470ba3d604131284aa72d426de7fc02545743866dfd54908c3851a564736f6c63430008170033\n}\n","bytecode":{"linkReferences":{},"object":"60806040525f600760026101000a81548165ffffffffffff021916908365ffffffffffff1602179055505f600760086101000a81548160ff0219169083151502179055505f600760096101000a81548160ff02191690831515021790555034801562000069575f80fd5b50604051620028813803806200288183398181016040528101906200008f919062000509565b61ffff8461ffff1610620000da576040517f08c379a0000000000000000000000000000000000000000000000000000000008152600401620000d1906200063d565b60405180910390fd5b63ffffffff8363ffffffff161062000129576040517f08c379a00000000000000000000000000000000000000000000000000000000081526004016200012090620006ab565b60405180910390fd5b845f806101000a81548173ffffffffffffffffffffffffffffffffffffffff021916908373ffffffffffffffffffffffffffffffffffffffff160217905550856001908162000179919062000902565b508360025f6101000a81548161ffff021916908361ffff160217905550826002806101000a81548163ffffffff021916908363ffffffff16021790555080600760096101000a81548160ff0219169083151502179055508160039081620001e1919062000902565b50670de0b6b3a764000060025f9054906101000a900461ffff1661ffff16670de0b6b3a764000060028054906101000a900463ffffffff1663ffffffff166200022b919062000a13565b62000237919062000a8a565b62000243919062000a8a565b600260066101000a81548163ffffffff021916908363ffffffff16021790555050505050505062000ac1565b5f604051905090565b5f80fd5b5f80fd5b5f80fd5b5f80fd5b5f601f19601f8301169050919050565b7f4e487b71000000000000000000000000000000000000000000000000000000005f52604160045260245ffd5b620002d08262000288565b810181811067ffffffffffffffff82111715620002f257620002f162000298565b5b80604052505050565b5f620003066200026f565b9050620003148282620002c5565b919050565b5f67ffffffffffffffff82111562000336576200033562000298565b5b620003418262000288565b9050602081019050919050565b5f5b838110156200036d57808201518184015260208101905062000350565b5f8484015250505050565b5f6200038e620003888462000319565b620002fb565b905082815260208101848484011115620003ad57620003ac62000284565b5b620003ba8482856200034e565b509392505050565b5f82601f830112620003d957620003d862000280565b5b8151620003eb84826020860162000378565b91505092915050565b5f73ffffffffffffffffffffffffffffffffffffffff82169050919050565b5f6200041f82620003f4565b9050919050565b620004318162000413565b81146200043c575f80fd5b50565b5f815190506200044f8162000426565b92915050565b5f61ffff82169050919050565b6200046d8162000455565b811462000478575f80fd5b50565b5f815190506200048b8162000462565b92915050565b5f63ffffffff82169050919050565b620004ab8162000491565b8114620004b6575f80fd5b50565b5f81519050620004c981620004a0565b92915050565b5f8115159050919050565b620004e581620004cf565b8114620004f0575f80fd5b50565b5f815190506200050381620004da565b92915050565b5f805f805f8060c0878903121562000526576200052562000278565b5b5f87015167ffffffffffffffff8111156200054657620005456200027c565b5b6200055489828a01620003c2565b96505060206200056789828a016200043f565b95505060406200057a89828a016200047b565b94505060606200058d89828a01620004b9565b935050608087015167ffffffffffffffff811115620005b157620005b06200027c565b5b620005bf89828a01620003c2565b92505060a0620005d289828a01620004f3565b9150509295509295509295565b5f82825260208201905092915050565b7f4d6178696d616c203635353334204d6974737069656c65722065726c617562745f82015250565b5f62000625602083620005df565b91506200063282620005ef565b602082019050919050565b5f6020820190508181035f830152620006568162000617565b9050919050565b7f4d6178696d616c657220507265697320343239343936373239350000000000005f82015250565b5f62000693601a83620005df565b9150620006a0826200065d565b602082019050919050565b5f6020820190508181035f830152620006c48162000685565b9050919050565b5f81519050919050565b7f4e487b71000000000000000000000000000000000000000000000000000000005f52602260045260245ffd5b5f60028204905060018216806200071a57607f821691505b60208210810362000730576200072f620006d5565b5b50919050565b5f819050815f5260205f209050919050565b5f6020601f8301049050919050565b5f82821b905092915050565b5f60088302620007947fffffffffffffffffffffffffffffffffffffffffffffffffffffffffffffffff8262000757565b620007a0868362000757565b95508019841693508086168417925050509392505050565b5f819050919050565b5f819050919050565b5f620007ea620007e4620007de84620007b8565b620007c1565b620007b8565b9050919050565b5f819050919050565b6200080583620007ca565b6200081d6200081482620007f1565b84845462000763565b825550505050565b5f90565b6200083362000825565b62000840818484620007fa565b505050565b5b8181101562000867576200085b5f8262000829565b60018101905062000846565b5050565b601f821115620008b657620008808162000736565b6200088b8462000748565b810160208510156200089b578190505b620008b3620008aa8562000748565b83018262000845565b50505b505050565b5f82821c905092915050565b5f620008d85f1984600802620008bb565b1980831691505092915050565b5f620008f28383620008c7565b9150826002028217905092915050565b6200090d82620006cb565b67ffffffffffffffff81111562000929576200092862000298565b5b62000935825462000702565b620009428282856200086b565b5f60209050601f83116001811462000978575f841562000963578287015190505b6200096f8582620008e5565b865550620009de565b601f198416620009888662000736565b5f5b82811015620009b1578489015182556001820191506020850194506020810190506200098a565b86831015620009d15784890151620009cd601f891682620008c7565b8355505b6001600288020188555050505b505050505050565b7f4e487b71000000000000000000000000000000000000000000000000000000005f52601160045260245ffd5b5f62000a1f82620007b8565b915062000a2c83620007b8565b925082820262000a3c81620007b8565b9150828204841483151762000a565762000a55620009e6565b5b5092915050565b7f4e487b71000000000000000000000000000000000000000000000000000000005f52601260045260245ffd5b5f62000a9682620007b8565b915062000aa383620007b8565b92508262000ab65762000ab562000a5d565b5b828204905092915050565b611db28062000acf5f395ff3fe608060405260043610610113575f3560e01c8063526024ea1161009f578063b08c707611610063578063b08c70761461034f578063b609e68414610379578063c6ca9d19146103a3578063d27d06c0146103bf578063e068561a146103e957610113565b8063526024ea1461028b57806370a41bc0146102955780638acb4624146102bf57806391243239146102e9578063ad2c046c1461032557610113565b806331c45120116100e657806331c45120146101ab57806336927060146101d35780633babb15a1461020f5780633f0f5d5114610239578063437678321461026357610113565b8063084263f5146101175780630c96b701146101415780630f085e50146101575780632df368a514610181575b5f80fd5b348015610122575f80fd5b5061012b610411565b6040516101389190611165565b60405180910390f35b34801561014c575f80fd5b50610155610428565b005b348015610162575f80fd5b5061016b61078e565b6040516101789190611165565b60405180910390f35b34801561018c575f80fd5b506101956107a6565b6040516101a2919061119c565b60405180910390f35b3480156101b6575f80fd5b506101d160048036038101906101cc91906111e3565b6107bc565b005b3480156101de575f80fd5b506101f960048036038101906101f49190611268565b61088a565b60405161020691906112ad565b60405180910390f35b34801561021a575f80fd5b506102236108a7565b60405161023091906112e2565b60405180910390f35b348015610244575f80fd5b5061024d6108ba565b60405161025a919061119c565b60405180910390f35b34801561026e575f80fd5b5061028960048036038101906102849190611268565b6108ce565b005b6102936109d1565b005b3480156102a0575f80fd5b506102a9610d93565b6040516102b691906112e2565b60405180910390f35b3480156102ca575f80fd5b506102d3610da6565b6040516102e09190611385565b60405180910390f35b3480156102f4575f80fd5b5061030f600480360381019061030a9190611268565b610e32565b60405161031c91906112ad565b60405180910390f35b348015610330575f80fd5b50610339610e4f565b60405161034691906113b4565b60405180910390f35b34801561035a575f80fd5b50610363610e72565b60405161037091906112ad565b60405180910390f35b348015610384575f80fd5b5061038d610e85565b60405161039a91906112ad565b60405180910390f35b6103bd60048036038101906103b891906113f7565b610e98565b005b3480156103ca575f80fd5b506103d3610fef565b6040516103e09190611385565b60405180910390f35b3480156103f4575f80fd5b5061040f600480360381019061040a919061144c565b61107b565b005b60045f9054906101000a900465ffffffffffff1681565b60055f3373ffffffffffffffffffffffffffffffffffffffff1673ffffffffffffffffffffffffffffffffffffffff1681526020019081526020015f205f9054906101000a900460ff1661047a575f80fd5b60095f9054906101000a900460ff16156104c9576040517f08c379a00000000000000000000000000000000000000000000000000000000081526004016104c0906114c1565b60405180910390fd5b600160095f6101000a81548160ff0219169083151502179055505f600760029054906101000a900465ffffffffffff1665ffffffffffff1611610541576040517f08c379a000000000000000000000000000000000000000000000000000000000815260040161053890611529565b60405180910390fd5b60055f3373ffffffffffffffffffffffffffffffffffffffff1673ffffffffffffffffffffffffffffffffffffffff1681526020019081526020015f205f9054906101000a900460ff166105ca576040517f08c379a00000000000000000000000000000000000000000000000000000000081526004016105c190611591565b60405180910390fd5b60065f3373ffffffffffffffffffffffffffffffffffffffff1673ffffffffffffffffffffffffffffffffffffffff1681526020019081526020015f205f9054906101000a900460ff1615610654576040517f08c379a000000000000000000000000000000000000000000000000000000000815260040161064b9061161f565b60405180910390fd5b600160065f3373ffffffffffffffffffffffffffffffffffffffff1673ffffffffffffffffffffffffffffffffffffffff1681526020019081526020015f205f6101000a81548160ff0219169083151502179055505f600760029054906101000a900465ffffffffffff1665ffffffffffff1690505f3373ffffffffffffffffffffffffffffffffffffffff16826040516106ee9061166a565b5f6040518083038185875af1925050503d805f8114610728576040519150601f19603f3d011682016040523d82523d5f602084013e61072d565b606091505b5050905080610771576040517f08c379a0000000000000000000000000000000000000000000000000000000008152600401610768906116ee565b60405180910390fd5b50505f60095f6101000a81548160ff021916908315150217905550565b600760029054906101000a900465ffffffffffff1681565b600260069054906101000a900463ffffffff1681565b5f8054906101000a900473ffffffffffffffffffffffffffffffffffffffff1673ffffffffffffffffffffffffffffffffffffffff163373ffffffffffffffffffffffffffffffffffffffff1614610812575f80fd5b5f60075f9054906101000a900461ffff1661ffff1614610867576040517f08c379a000000000000000000000000000000000000000000000000000000000815260040161085e9061177c565b60405180910390fd5b806002806101000a81548163ffffffff021916908363ffffffff16021790555050565b6005602052805f5260405f205f915054906101000a900460ff1681565b60075f9054906101000a900461ffff1681565b60028054906101000a900463ffffffff1681565b5f8054906101000a900473ffffffffffffffffffffffffffffffffffffffff1673ffffffffffffffffffffffffffffffffffffffff163373ffffffffffffffffffffffffffffffffffffffff1614610924575f80fd5b5f60075f9054906101000a900461ffff1661ffff1614610979576040517f08c379a00000000000000000000000000000000000000000000000000000000081526004016109709061180a565b60405180910390fd5b600160085f8373ffffffffffffffffffffffffffffffffffffffff1673ffffffffffffffffffffffffffffffffffffffff1681526020019081526020015f205f6101000a81548160ff02191690831515021790555050565b60025f9054906101000a900461ffff1661ffff1660028054906101000a900463ffffffff16610a009190611882565b600260066101000a81548163ffffffff021916908363ffffffff1602179055505f600260069054906101000a900463ffffffff1663ffffffff1611610a7a576040517f08c379a0000000000000000000000000000000000000000000000000000000008152600401610a71906118fc565b60405180910390fd5b600260069054906101000a900463ffffffff1663ffffffff16341015610ad5576040517f08c379a0000000000000000000000000000000000000000000000000000000008152600401610acc90611964565b60405180910390fd5b60055f3373ffffffffffffffffffffffffffffffffffffffff1673ffffffffffffffffffffffffffffffffffffffff1681526020019081526020015f205f9054906101000a900460ff1615610b5f576040517f08c379a0000000000000000000000000000000000000000000000000000000008152600401610b56906119f2565b60405180910390fd5b60025f9054906101000a900461ffff1661ffff1660075f9054906101000a900461ffff1661ffff1610610bc7576040517f08c379a0000000000000000000000000000000000000000000000000000000008152600401610bbe90611a5a565b60405180910390fd5b5f600760029054906101000a900465ffffffffffff1665ffffffffffff1614610c25576040517f08c379a0000000000000000000000000000000000000000000000000000000008152600401610c1c90611ac2565b60405180910390fd5b600760099054906101000a900460ff1615610c8d5760085f3373ffffffffffffffffffffffffffffffffffffffff1673ffffffffffffffffffffffffffffffffffffffff1681526020019081526020015f205f9054906101000a900460ff16610c8c575f80fd5b5b5f600260069054906101000a900463ffffffff1663ffffffff1634610cb29190611ae9565b9050600160055f3373ffffffffffffffffffffffffffffffffffffffff1673ffffffffffffffffffffffffffffffffffffffff1681526020019081526020015f205f6101000a81548160ff02191690831515021790555060075f81819054906101000a900461ffff1680929190610d2890611b1c565b91906101000a81548161ffff021916908361ffff160217905550505f811115610d90573373ffffffffffffffffffffffffffffffffffffffff166108fc8290811502906040515f60405180830381858888f19350505050158015610d8e573d5f803e3d5ffd5b505b50565b60025f9054906101000a900461ffff1681565b60038054610db390611b72565b80601f0160208091040260200160405190810160405280929190818152602001828054610ddf90611b72565b8015610e2a5780601f10610e0157610100808354040283529160200191610e2a565b820191905f5260205f20905b815481529060010190602001808311610e0d57829003601f168201915b505050505081565b6006602052805f5260405f205f915054906101000a900460ff1681565b5f8054906101000a900473ffffffffffffffffffffffffffffffffffffffff1681565b600760099054906101000a900460ff1681565b600760089054906101000a900460ff1681565b5f8054906101000a900473ffffffffffffffffffffffffffffffffffffffff1673ffffffffffffffffffffffffffffffffffffffff163373ffffffffffffffffffffffffffffffffffffffff1614610eee575f80fd5b5f3411610f30576040517f08c379a0000000000000000000000000000000000000000000000000000000008152600401610f2790611c12565b60405180910390fd5b5f600760029054906101000a900465ffffffffffff1665ffffffffffff1614610f8e576040517f08c379a0000000000000000000000000000000000000000000000000000000008152600401610f8590611c7a565b60405180910390fd5b60075f9054906101000a900461ffff1661ffff1681610fad9190611c98565b600760026101000a81548165ffffffffffff021916908365ffffffffffff1602179055506001600760086101000a81548160ff02191690831515021790555050565b60018054610ffc90611b72565b80601f016020809104026020016040519081016040528092919081815260200182805461102890611b72565b80156110735780601f1061104a57610100808354040283529160200191611073565b820191905f5260205f20905b81548152906001019060200180831161105657829003601f168201915b505050505081565b5f8054906101000a900473ffffffffffffffffffffffffffffffffffffffff1673ffffffffffffffffffffffffffffffffffffffff163373ffffffffffffffffffffffffffffffffffffffff16146110d1575f80fd5b5f60075f9054906101000a900461ffff1661ffff1614611126576040517f08c379a000000000000000000000000000000000000000000000000000000000815260040161111d90611d5e565b60405180910390fd5b8060025f6101000a81548161ffff021916908361ffff16021790555050565b5f65ffffffffffff82169050919050565b61115f81611145565b82525050565b5f6020820190506111785f830184611156565b92915050565b5f63ffffffff82169050919050565b6111968161117e565b82525050565b5f6020820190506111af5f83018461118d565b92915050565b5f80fd5b6111c28161117e565b81146111cc575f80fd5b50565b5f813590506111dd816111b9565b92915050565b5f602082840312156111f8576111f76111b5565b5b5f611205848285016111cf565b91505092915050565b5f73ffffffffffffffffffffffffffffffffffffffff82169050919050565b5f6112378261120e565b9050919050565b6112478161122d565b8114611251575f80fd5b50565b5f813590506112628161123e565b92915050565b5f6020828403121561127d5761127c6111b5565b5b5f61128a84828501611254565b91505092915050565b5f8115159050919050565b6112a781611293565b82525050565b5f6020820190506112c05f83018461129e565b92915050565b5f61ffff82169050919050565b6112dc816112c6565b82525050565b5f6020820190506112f55f8301846112d3565b92915050565b5f81519050919050565b5f82825260208201905092915050565b5f5b83811015611332578082015181840152602081019050611317565b5f8484015250505050565b5f601f19601f8301169050919050565b5f611357826112fb565b6113618185611305565b9350611371818560208601611315565b61137a8161133d565b840191505092915050565b5f6020820190508181035f83015261139d818461134d565b905092915050565b6113ae8161122d565b82525050565b5f6020820190506113c75f8301846113a5565b92915050565b6113d681611145565b81146113e0575f80fd5b50565b5f813590506113f1816113cd565b92915050565b5f6020828403121561140c5761140b6111b5565b5b5f611419848285016113e3565b91505092915050565b61142b816112c6565b8114611435575f80fd5b50565b5f8135905061144681611422565b92915050565b5f60208284031215611461576114606111b5565b5b5f61146e84828501611438565b91505092915050565b7f4e6f2072652d656e7472616e63790000000000000000000000000000000000005f82015250565b5f6114ab600e83611305565b91506114b682611477565b602082019050919050565b5f6020820190508181035f8301526114d88161149f565b9050919050565b7f4b65696e20476577696e6e2065696e67657a61686c74000000000000000000005f82015250565b5f611513601683611305565b915061151e826114df565b602082019050919050565b5f6020820190508181035f83015261154081611507565b9050919050565b7f44752062697374206b65696e204d6974737069656c65720000000000000000005f82015250565b5f61157b601783611305565b915061158682611547565b602082019050919050565b5f6020820190508181035f8301526115a88161156f565b9050919050565b7f4465696e20476577696e6e20777572646520626572656974732061757367657a5f8201527f61686c7400000000000000000000000000000000000000000000000000000000602082015250565b5f611609602483611305565b9150611614826115af565b604082019050919050565b5f6020820190508181035f830152611636816115fd565b9050919050565b5f81905092915050565b50565b5f6116555f8361163d565b915061166082611647565b5f82019050919050565b5f6116748261164a565b9150819050919050565b7f4175737a61686c756e672064657320476577696e6e73206665686c67657363685f8201527f6c6167656e000000000000000000000000000000000000000000000000000000602082015250565b5f6116d8602583611305565b91506116e38261167e565b604082019050919050565b5f6020820190508181035f830152611705816116cc565b9050919050565b7f457320676962742062657265697473204d6974737069656c65722e20507265695f8201527f7361656e646572756e67206e69636874206d656872206d6f65676c6963682e00602082015250565b5f611766603f83611305565b91506117718261170c565b604082019050919050565b5f6020820190508181035f8301526117938161175a565b9050919050565b7f457320676962742062657265697473204d6974737069656c65722e2041656e645f8201527f6572756e67206e69636874206d656872206d6f65676c6963682e000000000000602082015250565b5f6117f4603a83611305565b91506117ff8261179a565b604082019050919050565b5f6020820190508181035f830152611821816117e8565b9050919050565b7f4e487b71000000000000000000000000000000000000000000000000000000005f52601260045260245ffd5b7f4e487b71000000000000000000000000000000000000000000000000000000005f52601160045260245ffd5b5f61188c8261117e565b91506118978361117e565b9250826118a7576118a6611828565b5b828204905092915050565b7f4b65696e2050726569732070726f204d6974737069656c6572000000000000005f82015250565b5f6118e6601983611305565b91506118f1826118b2565b602082019050919050565b5f6020820190508181035f830152611913816118da565b9050919050565b7f5a7520676572696e6765722045696e7a61686c756e67736265747261670000005f82015250565b5f61194e601d83611305565b91506119598261191a565b602082019050919050565b5f6020820190508181035f83015261197b81611942565b9050919050565b7f4265726569747320616c73204d6974737069656c6572207265676973747269655f8201527f7274000000000000000000000000000000000000000000000000000000000000602082015250565b5f6119dc602283611305565b91506119e782611982565b604082019050919050565b5f6020820190508181035f830152611a09816119d0565b9050919050565b7f4d6178696d616c65205465696c6e65686d65727a61686c2065727265696368745f82015250565b5f611a44602083611305565b9150611a4f82611a10565b602082019050919050565b5f6020820190508181035f830152611a7181611a38565b9050919050565b7f476577696e6e20777572646520626572656974732065696e67657a61686c74005f82015250565b5f611aac601f83611305565b9150611ab782611a78565b602082019050919050565b5f6020820190508181035f830152611ad981611aa0565b9050919050565b5f819050919050565b5f611af382611ae0565b9150611afe83611ae0565b9250828203905081811115611b1657611b15611855565b5b92915050565b5f611b26826112c6565b915061ffff8203611b3a57611b39611855565b5b600182019050919050565b7f4e487b71000000000000000000000000000000000000000000000000000000005f52602260045260245ffd5b5f6002820490506001821680611b8957607f821691505b602082108103611b9c57611b9b611b45565b5b50919050565b7f45696e7a61686c756e6773626574726167206d7573732067726f6573736572205f8201527f616c732030207365696e00000000000000000000000000000000000000000000602082015250565b5f611bfc602a83611305565b9150611c0782611ba2565b604082019050919050565b5f6020820190508181035f830152611c2981611bf0565b9050919050565b7f476577696e6e20777572646520626572656974732065696e67657a61686c742e5f82015250565b5f611c64602083611305565b9150611c6f82611c30565b602082019050919050565b5f6020820190508181035f830152611c9181611c58565b9050919050565b5f611ca282611145565b9150611cad83611145565b925082611cbd57611cbc611828565b5b828204905092915050565b7f457320676962742062657265697473204d6974737069656c65722e2041656e645f8201527f6572756e672064657220416e7a61686c20616e204d6974737069656c65726e2060208201527f6e69636874206d656872206d6f65676c6963682e000000000000000000000000604082015250565b5f611d48605483611305565b9150611d5382611cc8565b606082019050919050565b5f6020820190508181035f830152611d7581611d3c565b905091905056fea2646970667358221220f1ca5a167470ba3d604131284aa72d426de7fc02545743866dfd54908c3851a564736f6c63430008170033","opcodes":"PUSH1 0x80 PUSH1 0x40 MSTORE PUSH0 PUSH1 0x7 PUSH1 0x2 PUSH2 0x100 EXP DUP2 SLOAD DUP2 PUSH6 0xFFFFFFFFFFFF MUL NOT AND SWAP1 DUP4 PUSH6 0xFFFFFFFFFFFF AND MUL OR SWAP1 SSTORE POP PUSH0 PUSH1 0x7 PUSH1 0x8 PUSH2 0x100 EXP DUP2 SLOAD DUP2 PUSH1 0xFF MUL NOT AND SWAP1 DUP4 ISZERO ISZERO MUL OR SWAP1 SSTORE POP PUSH0 PUSH1 0x7 PUSH1 0x9 PUSH2 0x100 EXP DUP2 SLOAD DUP2 PUSH1 0xFF MUL NOT AND SWAP1 DUP4 ISZERO ISZERO MUL OR SWAP1 SSTORE POP CALLVALUE DUP1 ISZERO PUSH3 0x69 JUMPI PUSH0 DUP1 REVERT JUMPDEST POP PUSH1 0x40 MLOAD PUSH3 0x2881 CODESIZE SUB DUP1 PUSH3 0x2881 DUP4 CODECOPY DUP2 DUP2 ADD PUSH1 0x40 MSTORE DUP2 ADD SWAP1 PUSH3 0x8F SWAP2 SWAP1 PUSH3 0x509 JUMP JUMPDEST PUSH2 0xFFFF DUP5 PUSH2 0xFFFF AND LT PUSH3 0xDA JUMPI PUSH1 0x40 MLOAD PUSH32 0x8C379A000000000000000000000000000000000000000000000000000000000 DUP2 MSTORE PUSH1 0x4 ADD PUSH3 0xD1 SWAP1 PUSH3 0x63D JUMP JUMPDEST PUSH1 0x40 MLOAD DUP1 SWAP2 SUB SWAP1 REVERT JUMPDEST PUSH4 0xFFFFFFFF DUP4 PUSH4 0xFFFFFFFF AND LT PUSH3 0x129 JUMPI PUSH1 0x40 MLOAD PUSH32 0x8C379A000000000000000000000000000000000000000000000000000000000 DUP2 MSTORE PUSH1 0x4 ADD PUSH3 0x120 SWAP1 PUSH3 0x6AB JUMP JUMPDEST PUSH1 0x40 MLOAD DUP1 SWAP2 SUB SWAP1 REVERT JUMPDEST DUP5 PUSH0 DUP1 PUSH2 0x100 EXP DUP2 SLOAD DUP2 PUSH20 0xFFFFFFFFFFFFFFFFFFFFFFFFFFFFFFFFFFFFFFFF MUL NOT AND SWAP1 DUP4 PUSH20 0xFFFFFFFFFFFFFFFFFFFFFFFFFFFFFFFFFFFFFFFF AND MUL OR SWAP1 SSTORE POP DUP6 PUSH1 0x1 SWAP1 DUP2 PUSH3 0x179 SWAP2 SWAP1 PUSH3 0x902 JUMP JUMPDEST POP DUP4 PUSH1 0x2 PUSH0 PUSH2 0x100 EXP DUP2 SLOAD DUP2 PUSH2 0xFFFF MUL NOT AND SWAP1 DUP4 PUSH2 0xFFFF AND MUL OR SWAP1 SSTORE POP DUP3 PUSH1 0x2 DUP1 PUSH2 0x100 EXP DUP2 SLOAD DUP2 PUSH4 0xFFFFFFFF MUL NOT AND SWAP1 DUP4 PUSH4 0xFFFFFFFF AND MUL OR SWAP1 SSTORE POP DUP1 PUSH1 0x7 PUSH1 0x9 PUSH2 0x100 EXP DUP2 SLOAD DUP2 PUSH1 0xFF MUL NOT AND SWAP1 DUP4 ISZERO ISZERO MUL OR SWAP1 SSTORE POP DUP2 PUSH1 0x3 SWAP1 DUP2 PUSH3 0x1E1 SWAP2 SWAP1 PUSH3 0x902 JUMP JUMPDEST POP PUSH8 0xDE0B6B3A7640000 PUSH1 0x2 PUSH0 SWAP1 SLOAD SWAP1 PUSH2 0x100 EXP SWAP1 DIV PUSH2 0xFFFF AND PUSH2 0xFFFF AND PUSH8 0xDE0B6B3A7640000 PUSH1 0x2 DUP1 SLOAD SWAP1 PUSH2 0x100 EXP SWAP1 DIV PUSH4 0xFFFFFFFF AND PUSH4 0xFFFFFFFF AND PUSH3 0x22B SWAP2 SWAP1 PUSH3 0xA13 JUMP JUMPDEST PUSH3 0x237 SWAP2 SWAP1 PUSH3 0xA8A JUMP JUMPDEST PUSH3 0x243 SWAP2 SWAP1 PUSH3 0xA8A JUMP JUMPDEST PUSH1 0x2 PUSH1 0x6 PUSH2 0x100 EXP DUP2 SLOAD DUP2 PUSH4 0xFFFFFFFF MUL NOT AND SWAP1 DUP4 PUSH4 0xFFFFFFFF AND MUL OR SWAP1 SSTORE POP POP POP POP POP POP POP PUSH3 0xAC1 JUMP JUMPDEST PUSH0 PUSH1 0x40 MLOAD SWAP1 POP SWAP1 JUMP JUMPDEST PUSH0 DUP1 REVERT JUMPDEST PUSH0 DUP1 REVERT JUMPDEST PUSH0 DUP1 REVERT JUMPDEST PUSH0 DUP1 REVERT JUMPDEST PUSH0 PUSH1 0x1F NOT PUSH1 0x1F DUP4 ADD AND SWAP1 POP SWAP2 SWAP1 POP JUMP JUMPDEST PUSH32 0x4E487B7100000000000000000000000000000000000000000000000000000000 PUSH0 MSTORE PUSH1 0x41 PUSH1 0x4 MSTORE PUSH1 0x24 PUSH0 REVERT JUMPDEST PUSH3 0x2D0 DUP3 PUSH3 0x288 JUMP JUMPDEST DUP2 ADD DUP2 DUP2 LT PUSH8 0xFFFFFFFFFFFFFFFF DUP3 GT OR ISZERO PUSH3 0x2F2 JUMPI PUSH3 0x2F1 PUSH3 0x298 JUMP JUMPDEST JUMPDEST DUP1 PUSH1 0x40 MSTORE POP POP POP JUMP JUMPDEST PUSH0 PUSH3 0x306 PUSH3 0x26F JUMP JUMPDEST SWAP1 POP PUSH3 0x314 DUP3 DUP3 PUSH3 0x2C5 JUMP JUMPDEST SWAP2 SWAP1 POP JUMP JUMPDEST PUSH0 PUSH8 0xFFFFFFFFFFFFFFFF DUP3 GT ISZERO PUSH3 0x336 JUMPI PUSH3 0x335 PUSH3 0x298 JUMP JUMPDEST JUMPDEST PUSH3 0x341 DUP3 PUSH3 0x288 JUMP JUMPDEST SWAP1 POP PUSH1 0x20 DUP2 ADD SWAP1 POP SWAP2 SWAP1 POP JUMP JUMPDEST PUSH0 JUMPDEST DUP4 DUP2 LT ISZERO PUSH3 0x36D JUMPI DUP1 DUP3 ADD MLOAD DUP2 DUP5 ADD MSTORE PUSH1 0x20 DUP2 ADD SWAP1 POP PUSH3 0x350 JUMP JUMPDEST PUSH0 DUP5 DUP5 ADD MSTORE POP POP POP POP JUMP JUMPDEST PUSH0 PUSH3 0x38E PUSH3 0x388 DUP5 PUSH3 0x319 JUMP JUMPDEST PUSH3 0x2FB JUMP JUMPDEST SWAP1 POP DUP3 DUP2 MSTORE PUSH1 0x20 DUP2 ADD DUP5 DUP5 DUP5 ADD GT ISZERO PUSH3 0x3AD JUMPI PUSH3 0x3AC PUSH3 0x284 JUMP JUMPDEST JUMPDEST PUSH3 0x3BA DUP5 DUP3 DUP6 PUSH3 0x34E JUMP JUMPDEST POP SWAP4 SWAP3 POP POP POP JUMP JUMPDEST PUSH0 DUP3 PUSH1 0x1F DUP4 ADD SLT PUSH3 0x3D9 JUMPI PUSH3 0x3D8 PUSH3 0x280 JUMP JUMPDEST JUMPDEST DUP2 MLOAD PUSH3 0x3EB DUP5 DUP3 PUSH1 0x20 DUP7 ADD PUSH3 0x378 JUMP JUMPDEST SWAP2 POP POP SWAP3 SWAP2 POP POP JUMP JUMPDEST PUSH0 PUSH20 0xFFFFFFFFFFFFFFFFFFFFFFFFFFFFFFFFFFFFFFFF DUP3 AND SWAP1 POP SWAP2 SWAP1 POP JUMP JUMPDEST PUSH0 PUSH3 0x41F DUP3 PUSH3 0x3F4 JUMP JUMPDEST SWAP1 POP SWAP2 SWAP1 POP JUMP JUMPDEST PUSH3 0x431 DUP2 PUSH3 0x413 JUMP JUMPDEST DUP2 EQ PUSH3 0x43C JUMPI PUSH0 DUP1 REVERT JUMPDEST POP JUMP JUMPDEST PUSH0 DUP2 MLOAD SWAP1 POP PUSH3 0x44F DUP2 PUSH3 0x426 JUMP JUMPDEST SWAP3 SWAP2 POP POP JUMP JUMPDEST PUSH0 PUSH2 0xFFFF DUP3 AND SWAP1 POP SWAP2 SWAP1 POP JUMP JUMPDEST PUSH3 0x46D DUP2 PUSH3 0x455 JUMP JUMPDEST DUP2 EQ PUSH3 0x478 JUMPI PUSH0 DUP1 REVERT JUMPDEST POP JUMP JUMPDEST PUSH0 DUP2 MLOAD SWAP1 POP PUSH3 0x48B DUP2 PUSH3 0x462 JUMP JUMPDEST SWAP3 SWAP2 POP POP JUMP JUMPDEST PUSH0 PUSH4 0xFFFFFFFF DUP3 AND SWAP1 POP SWAP2 SWAP1 POP JUMP JUMPDEST PUSH3 0x4AB DUP2 PUSH3 0x491 JUMP JUMPDEST DUP2 EQ PUSH3 0x4B6 JUMPI PUSH0 DUP1 REVERT JUMPDEST POP JUMP JUMPDEST PUSH0 DUP2 MLOAD SWAP1 POP PUSH3 0x4C9 DUP2 PUSH3 0x4A0 JUMP JUMPDEST SWAP3 SWAP2 POP POP JUMP JUMPDEST PUSH0 DUP2 ISZERO ISZERO SWAP1 POP SWAP2 SWAP1 POP JUMP JUMPDEST PUSH3 0x4E5 DUP2 PUSH3 0x4CF JUMP JUMPDEST DUP2 EQ PUSH3 0x4F0 JUMPI PUSH0 DUP1 REVERT JUMPDEST POP JUMP JUMPDEST PUSH0 DUP2 MLOAD SWAP1 POP PUSH3 0x503 DUP2 PUSH3 0x4DA JUMP JUMPDEST SWAP3 SWAP2 POP POP JUMP JUMPDEST PUSH0 DUP1 PUSH0 DUP1 PUSH0 DUP1 PUSH1 0xC0 DUP8 DUP10 SUB SLT ISZERO PUSH3 0x526 JUMPI PUSH3 0x525 PUSH3 0x278 JUMP JUMPDEST JUMPDEST PUSH0 DUP8 ADD MLOAD PUSH8 0xFFFFFFFFFFFFFFFF DUP2 GT ISZERO PUSH3 0x546 JUMPI PUSH3 0x545 PUSH3 0x27C JUMP JUMPDEST JUMPDEST PUSH3 0x554 DUP10 DUP3 DUP11 ADD PUSH3 0x3C2 JUMP JUMPDEST SWAP7 POP POP PUSH1 0x20 PUSH3 0x567 DUP10 DUP3 DUP11 ADD PUSH3 0x43F JUMP JUMPDEST SWAP6 POP POP PUSH1 0x40 PUSH3 0x57A DUP10 DUP3 DUP11 ADD PUSH3 0x47B JUMP JUMPDEST SWAP5 POP POP PUSH1 0x60 PUSH3 0x58D DUP10 DUP3 DUP11 ADD PUSH3 0x4B9 JUMP JUMPDEST SWAP4 POP POP PUSH1 0x80 DUP8 ADD MLOAD PUSH8 0xFFFFFFFFFFFFFFFF DUP2 GT ISZERO PUSH3 0x5B1 JUMPI PUSH3 0x5B0 PUSH3 0x27C JUMP JUMPDEST JUMPDEST PUSH3 0x5BF DUP10 DUP3 DUP11 ADD PUSH3 0x3C2 JUMP JUMPDEST SWAP3 POP POP PUSH1 0xA0 PUSH3 0x5D2 DUP10 DUP3 DUP11 ADD PUSH3 0x4F3 JUMP JUMPDEST SWAP2 POP POP SWAP3 SWAP6 POP SWAP3 SWAP6 POP SWAP3 SWAP6 JUMP JUMPDEST PUSH0 DUP3 DUP3 MSTORE PUSH1 0x20 DUP3 ADD SWAP1 POP SWAP3 SWAP2 POP POP JUMP JUMPDEST PUSH32 0x4D6178696D616C203635353334204D6974737069656C65722065726C61756274 PUSH0 DUP3 ADD MSTORE POP JUMP JUMPDEST PUSH0 PUSH3 0x625 PUSH1 0x20 DUP4 PUSH3 0x5DF JUMP JUMPDEST SWAP2 POP PUSH3 0x632 DUP3 PUSH3 0x5EF JUMP JUMPDEST PUSH1 0x20 DUP3 ADD SWAP1 POP SWAP2 SWAP1 POP JUMP JUMPDEST PUSH0 PUSH1 0x20 DUP3 ADD SWAP1 POP DUP2 DUP2 SUB PUSH0 DUP4 ADD MSTORE PUSH3 0x656 DUP2 PUSH3 0x617 JUMP JUMPDEST SWAP1 POP SWAP2 SWAP1 POP JUMP JUMPDEST PUSH32 0x4D6178696D616C65722050726569732034323934393637323935000000000000 PUSH0 DUP3 ADD MSTORE POP JUMP JUMPDEST PUSH0 PUSH3 0x693 PUSH1 0x1A DUP4 PUSH3 0x5DF JUMP JUMPDEST SWAP2 POP PUSH3 0x6A0 DUP3 PUSH3 0x65D JUMP JUMPDEST PUSH1 0x20 DUP3 ADD SWAP1 POP SWAP2 SWAP1 POP JUMP JUMPDEST PUSH0 PUSH1 0x20 DUP3 ADD SWAP1 POP DUP2 DUP2 SUB PUSH0 DUP4 ADD MSTORE PUSH3 0x6C4 DUP2 PUSH3 0x685 JUMP JUMPDEST SWAP1 POP SWAP2 SWAP1 POP JUMP JUMPDEST PUSH0 DUP2 MLOAD SWAP1 POP SWAP2 SWAP1 POP JUMP JUMPDEST PUSH32 0x4E487B7100000000000000000000000000000000000000000000000000000000 PUSH0 MSTORE PUSH1 0x22 PUSH1 0x4 MSTORE PUSH1 0x24 PUSH0 REVERT JUMPDEST PUSH0 PUSH1 0x2 DUP3 DIV SWAP1 POP PUSH1 0x1 DUP3 AND DUP1 PUSH3 0x71A JUMPI PUSH1 0x7F DUP3 AND SWAP2 POP JUMPDEST PUSH1 0x20 DUP3 LT DUP2 SUB PUSH3 0x730 JUMPI PUSH3 0x72F PUSH3 0x6D5 JUMP JUMPDEST JUMPDEST POP SWAP2 SWAP1 POP JUMP JUMPDEST PUSH0 DUP2 SWAP1 POP DUP2 PUSH0 MSTORE PUSH1 0x20 PUSH0 KECCAK256 SWAP1 POP SWAP2 SWAP1 POP JUMP JUMPDEST PUSH0 PUSH1 0x20 PUSH1 0x1F DUP4 ADD DIV SWAP1 POP SWAP2 SWAP1 POP JUMP JUMPDEST PUSH0 DUP3 DUP3 SHL SWAP1 POP SWAP3 SWAP2 POP POP JUMP JUMPDEST PUSH0 PUSH1 0x8 DUP4 MUL PUSH3 0x794 PUSH32 0xFFFFFFFFFFFFFFFFFFFFFFFFFFFFFFFFFFFFFFFFFFFFFFFFFFFFFFFFFFFFFFFF DUP3 PUSH3 0x757 JUMP JUMPDEST PUSH3 0x7A0 DUP7 DUP4 PUSH3 0x757 JUMP JUMPDEST SWAP6 POP DUP1 NOT DUP5 AND SWAP4 POP DUP1 DUP7 AND DUP5 OR SWAP3 POP POP POP SWAP4 SWAP3 POP POP POP JUMP JUMPDEST PUSH0 DUP2 SWAP1 POP SWAP2 SWAP1 POP JUMP JUMPDEST PUSH0 DUP2 SWAP1 POP SWAP2 SWAP1 POP JUMP JUMPDEST PUSH0 PUSH3 0x7EA PUSH3 0x7E4 PUSH3 0x7DE DUP5 PUSH3 0x7B8 JUMP JUMPDEST PUSH3 0x7C1 JUMP JUMPDEST PUSH3 0x7B8 JUMP JUMPDEST SWAP1 POP SWAP2 SWAP1 POP JUMP JUMPDEST PUSH0 DUP2 SWAP1 POP SWAP2 SWAP1 POP JUMP JUMPDEST PUSH3 0x805 DUP4 PUSH3 0x7CA JUMP JUMPDEST PUSH3 0x81D PUSH3 0x814 DUP3 PUSH3 0x7F1 JUMP JUMPDEST DUP5 DUP5 SLOAD PUSH3 0x763 JUMP JUMPDEST DUP3 SSTORE POP POP POP POP JUMP JUMPDEST PUSH0 SWAP1 JUMP JUMPDEST PUSH3 0x833 PUSH3 0x825 JUMP JUMPDEST PUSH3 0x840 DUP2 DUP5 DUP5 PUSH3 0x7FA JUMP JUMPDEST POP POP POP JUMP JUMPDEST JUMPDEST DUP2 DUP2 LT ISZERO PUSH3 0x867 JUMPI PUSH3 0x85B PUSH0 DUP3 PUSH3 0x829 JUMP JUMPDEST PUSH1 0x1 DUP2 ADD SWAP1 POP PUSH3 0x846 JUMP JUMPDEST POP POP JUMP JUMPDEST PUSH1 0x1F DUP3 GT ISZERO PUSH3 0x8B6 JUMPI PUSH3 0x880 DUP2 PUSH3 0x736 JUMP JUMPDEST PUSH3 0x88B DUP5 PUSH3 0x748 JUMP JUMPDEST DUP2 ADD PUSH1 0x20 DUP6 LT ISZERO PUSH3 0x89B JUMPI DUP2 SWAP1 POP JUMPDEST PUSH3 0x8B3 PUSH3 0x8AA DUP6 PUSH3 0x748 JUMP JUMPDEST DUP4 ADD DUP3 PUSH3 0x845 JUMP JUMPDEST POP POP JUMPDEST POP POP POP JUMP JUMPDEST PUSH0 DUP3 DUP3 SHR SWAP1 POP SWAP3 SWAP2 POP POP JUMP JUMPDEST PUSH0 PUSH3 0x8D8 PUSH0 NOT DUP5 PUSH1 0x8 MUL PUSH3 0x8BB JUMP JUMPDEST NOT DUP1 DUP4 AND SWAP2 POP POP SWAP3 SWAP2 POP POP JUMP JUMPDEST PUSH0 PUSH3 0x8F2 DUP4 DUP4 PUSH3 0x8C7 JUMP JUMPDEST SWAP2 POP DUP3 PUSH1 0x2 MUL DUP3 OR SWAP1 POP SWAP3 SWAP2 POP POP JUMP JUMPDEST PUSH3 0x90D DUP3 PUSH3 0x6CB JUMP JUMPDEST PUSH8 0xFFFFFFFFFFFFFFFF DUP2 GT ISZERO PUSH3 0x929 JUMPI PUSH3 0x928 PUSH3 0x298 JUMP JUMPDEST JUMPDEST PUSH3 0x935 DUP3 SLOAD PUSH3 0x702 JUMP JUMPDEST PUSH3 0x942 DUP3 DUP3 DUP6 PUSH3 0x86B JUMP JUMPDEST PUSH0 PUSH1 0x20 SWAP1 POP PUSH1 0x1F DUP4 GT PUSH1 0x1 DUP2 EQ PUSH3 0x978 JUMPI PUSH0 DUP5 ISZERO PUSH3 0x963 JUMPI DUP3 DUP8 ADD MLOAD SWAP1 POP JUMPDEST PUSH3 0x96F DUP6 DUP3 PUSH3 0x8E5 JUMP JUMPDEST DUP7 SSTORE POP PUSH3 0x9DE JUMP JUMPDEST PUSH1 0x1F NOT DUP5 AND PUSH3 0x988 DUP7 PUSH3 0x736 JUMP JUMPDEST PUSH0 JUMPDEST DUP3 DUP2 LT ISZERO PUSH3 0x9B1 JUMPI DUP5 DUP10 ADD MLOAD DUP3 SSTORE PUSH1 0x1 DUP3 ADD SWAP2 POP PUSH1 0x20 DUP6 ADD SWAP5 POP PUSH1 0x20 DUP2 ADD SWAP1 POP PUSH3 0x98A JUMP JUMPDEST DUP7 DUP4 LT ISZERO PUSH3 0x9D1 JUMPI DUP5 DUP10 ADD MLOAD PUSH3 0x9CD PUSH1 0x1F DUP10 AND DUP3 PUSH3 0x8C7 JUMP JUMPDEST DUP4 SSTORE POP JUMPDEST PUSH1 0x1 PUSH1 0x2 DUP9 MUL ADD DUP9 SSTORE POP POP POP JUMPDEST POP POP POP POP POP POP JUMP JUMPDEST PUSH32 0x4E487B7100000000000000000000000000000000000000000000000000000000 PUSH0 MSTORE PUSH1 0x11 PUSH1 0x4 MSTORE PUSH1 0x24 PUSH0 REVERT JUMPDEST PUSH0 PUSH3 0xA1F DUP3 PUSH3 0x7B8 JUMP JUMPDEST SWAP2 POP PUSH3 0xA2C DUP4 PUSH3 0x7B8 JUMP JUMPDEST SWAP3 POP DUP3 DUP3 MUL PUSH3 0xA3C DUP2 PUSH3 0x7B8 JUMP JUMPDEST SWAP2 POP DUP3 DUP3 DIV DUP5 EQ DUP4 ISZERO OR PUSH3 0xA56 JUMPI PUSH3 0xA55 PUSH3 0x9E6 JUMP JUMPDEST JUMPDEST POP SWAP3 SWAP2 POP POP JUMP JUMPDEST PUSH32 0x4E487B7100000000000000000000000000000000000000000000000000000000 PUSH0 MSTORE PUSH1 0x12 PUSH1 0x4 MSTORE PUSH1 0x24 PUSH0 REVERT JUMPDEST PUSH0 PUSH3 0xA96 DUP3 PUSH3 0x7B8 JUMP JUMPDEST SWAP2 POP PUSH3 0xAA3 DUP4 PUSH3 0x7B8 JUMP JUMPDEST SWAP3 POP DUP3 PUSH3 0xAB6 JUMPI PUSH3 0xAB5 PUSH3 0xA5D JUMP JUMPDEST JUMPDEST DUP3 DUP3 DIV SWAP1 POP SWAP3 SWAP2 POP POP JUMP JUMPDEST PUSH2 0x1DB2 DUP1 PUSH3 0xACF PUSH0 CODECOPY PUSH0 RETURN INVALID PUSH1 0x80 PUSH1 0x40 MSTORE PUSH1 0x4 CALLDATASIZE LT PUSH2 0x113 JUMPI PUSH0 CALLDATALOAD PUSH1 0xE0 SHR DUP1 PUSH4 0x526024EA GT PUSH2 0x9F JUMPI DUP1 PUSH4 0xB08C7076 GT PUSH2 0x63 JUMPI DUP1 PUSH4 0xB08C7076 EQ PUSH2 0x34F JUMPI DUP1 PUSH4 0xB609E684 EQ PUSH2 0x379 JUMPI DUP1 PUSH4 0xC6CA9D19 EQ PUSH2 0x3A3 JUMPI DUP1 PUSH4 0xD27D06C0 EQ PUSH2 0x3BF JUMPI DUP1 PUSH4 0xE068561A EQ PUSH2 0x3E9 JUMPI PUSH2 0x113 JUMP JUMPDEST DUP1 PUSH4 0x526024EA EQ PUSH2 0x28B JUMPI DUP1 PUSH4 0x70A41BC0 EQ PUSH2 0x295 JUMPI DUP1 PUSH4 0x8ACB4624 EQ PUSH2 0x2BF JUMPI DUP1 PUSH4 0x91243239 EQ PUSH2 0x2E9 JUMPI DUP1 PUSH4 0xAD2C046C EQ PUSH2 0x325 JUMPI PUSH2 0x113 JUMP JUMPDEST DUP1 PUSH4 0x31C45120 GT PUSH2 0xE6 JUMPI DUP1 PUSH4 0x31C45120 EQ PUSH2 0x1AB JUMPI DUP1 PUSH4 0x36927060 EQ PUSH2 0x1D3 JUMPI DUP1 PUSH4 0x3BABB15A EQ PUSH2 0x20F JUMPI DUP1 PUSH4 0x3F0F5D51 EQ PUSH2 0x239 JUMPI DUP1 PUSH4 0x43767832 EQ PUSH2 0x263 JUMPI PUSH2 0x113 JUMP JUMPDEST DUP1 PUSH4 0x84263F5 EQ PUSH2 0x117 JUMPI DUP1 PUSH4 0xC96B701 EQ PUSH2 0x141 JUMPI DUP1 PUSH4 0xF085E50 EQ PUSH2 0x157 JUMPI DUP1 PUSH4 0x2DF368A5 EQ PUSH2 0x181 JUMPI JUMPDEST PUSH0 DUP1 REVERT JUMPDEST CALLVALUE DUP1 ISZERO PUSH2 0x122 JUMPI PUSH0 DUP1 REVERT JUMPDEST POP PUSH2 0x12B PUSH2 0x411 JUMP JUMPDEST PUSH1 0x40 MLOAD PUSH2 0x138 SWAP2 SWAP1 PUSH2 0x1165 JUMP JUMPDEST PUSH1 0x40 MLOAD DUP1 SWAP2 SUB SWAP1 RETURN JUMPDEST CALLVALUE DUP1 ISZERO PUSH2 0x14C JUMPI PUSH0 DUP1 REVERT JUMPDEST POP PUSH2 0x155 PUSH2 0x428 JUMP JUMPDEST STOP JUMPDEST CALLVALUE DUP1 ISZERO PUSH2 0x162 JUMPI PUSH0 DUP1 REVERT JUMPDEST POP PUSH2 0x16B PUSH2 0x78E JUMP JUMPDEST PUSH1 0x40 MLOAD PUSH2 0x178 SWAP2 SWAP1 PUSH2 0x1165 JUMP JUMPDEST PUSH1 0x40 MLOAD DUP1 SWAP2 SUB SWAP1 RETURN JUMPDEST CALLVALUE DUP1 ISZERO PUSH2 0x18C JUMPI PUSH0 DUP1 REVERT JUMPDEST POP PUSH2 0x195 PUSH2 0x7A6 JUMP JUMPDEST PUSH1 0x40 MLOAD PUSH2 0x1A2 SWAP2 SWAP1 PUSH2 0x119C JUMP JUMPDEST PUSH1 0x40 MLOAD DUP1 SWAP2 SUB SWAP1 RETURN JUMPDEST CALLVALUE DUP1 ISZERO PUSH2 0x1B6 JUMPI PUSH0 DUP1 REVERT JUMPDEST POP PUSH2 0x1D1 PUSH1 0x4 DUP1 CALLDATASIZE SUB DUP2 ADD SWAP1 PUSH2 0x1CC SWAP2 SWAP1 PUSH2 0x11E3 JUMP JUMPDEST PUSH2 0x7BC JUMP JUMPDEST STOP JUMPDEST CALLVALUE DUP1 ISZERO PUSH2 0x1DE JUMPI PUSH0 DUP1 REVERT JUMPDEST POP PUSH2 0x1F9 PUSH1 0x4 DUP1 CALLDATASIZE SUB DUP2 ADD SWAP1 PUSH2 0x1F4 SWAP2 SWAP1 PUSH2 0x1268 JUMP JUMPDEST PUSH2 0x88A JUMP JUMPDEST PUSH1 0x40 MLOAD PUSH2 0x206 SWAP2 SWAP1 PUSH2 0x12AD JUMP JUMPDEST PUSH1 0x40 MLOAD DUP1 SWAP2 SUB SWAP1 RETURN JUMPDEST CALLVALUE DUP1 ISZERO PUSH2 0x21A JUMPI PUSH0 DUP1 REVERT JUMPDEST POP PUSH2 0x223 PUSH2 0x8A7 JUMP JUMPDEST PUSH1 0x40 MLOAD PUSH2 0x230 SWAP2 SWAP1 PUSH2 0x12E2 JUMP JUMPDEST PUSH1 0x40 MLOAD DUP1 SWAP2 SUB SWAP1 RETURN JUMPDEST CALLVALUE DUP1 ISZERO PUSH2 0x244 JUMPI PUSH0 DUP1 REVERT JUMPDEST POP PUSH2 0x24D PUSH2 0x8BA JUMP JUMPDEST PUSH1 0x40 MLOAD PUSH2 0x25A SWAP2 SWAP1 PUSH2 0x119C JUMP JUMPDEST PUSH1 0x40 MLOAD DUP1 SWAP2 SUB SWAP1 RETURN JUMPDEST CALLVALUE DUP1 ISZERO PUSH2 0x26E JUMPI PUSH0 DUP1 REVERT JUMPDEST POP PUSH2 0x289 PUSH1 0x4 DUP1 CALLDATASIZE SUB DUP2 ADD SWAP1 PUSH2 0x284 SWAP2 SWAP1 PUSH2 0x1268 JUMP JUMPDEST PUSH2 0x8CE JUMP JUMPDEST STOP JUMPDEST PUSH2 0x293 PUSH2 0x9D1 JUMP JUMPDEST STOP JUMPDEST CALLVALUE DUP1 ISZERO PUSH2 0x2A0 JUMPI PUSH0 DUP1 REVERT JUMPDEST POP PUSH2 0x2A9 PUSH2 0xD93 JUMP JUMPDEST PUSH1 0x40 MLOAD PUSH2 0x2B6 SWAP2 SWAP1 PUSH2 0x12E2 JUMP JUMPDEST PUSH1 0x40 MLOAD DUP1 SWAP2 SUB SWAP1 RETURN JUMPDEST CALLVALUE DUP1 ISZERO PUSH2 0x2CA JUMPI PUSH0 DUP1 REVERT JUMPDEST POP PUSH2 0x2D3 PUSH2 0xDA6 JUMP JUMPDEST PUSH1 0x40 MLOAD PUSH2 0x2E0 SWAP2 SWAP1 PUSH2 0x1385 JUMP JUMPDEST PUSH1 0x40 MLOAD DUP1 SWAP2 SUB SWAP1 RETURN JUMPDEST CALLVALUE DUP1 ISZERO PUSH2 0x2F4 JUMPI PUSH0 DUP1 REVERT JUMPDEST POP PUSH2 0x30F PUSH1 0x4 DUP1 CALLDATASIZE SUB DUP2 ADD SWAP1 PUSH2 0x30A SWAP2 SWAP1 PUSH2 0x1268 JUMP JUMPDEST PUSH2 0xE32 JUMP JUMPDEST PUSH1 0x40 MLOAD PUSH2 0x31C SWAP2 SWAP1 PUSH2 0x12AD JUMP JUMPDEST PUSH1 0x40 MLOAD DUP1 SWAP2 SUB SWAP1 RETURN JUMPDEST CALLVALUE DUP1 ISZERO PUSH2 0x330 JUMPI PUSH0 DUP1 REVERT JUMPDEST POP PUSH2 0x339 PUSH2 0xE4F JUMP JUMPDEST PUSH1 0x40 MLOAD PUSH2 0x346 SWAP2 SWAP1 PUSH2 0x13B4 JUMP JUMPDEST PUSH1 0x40 MLOAD DUP1 SWAP2 SUB SWAP1 RETURN JUMPDEST CALLVALUE DUP1 ISZERO PUSH2 0x35A JUMPI PUSH0 DUP1 REVERT JUMPDEST POP PUSH2 0x363 PUSH2 0xE72 JUMP JUMPDEST PUSH1 0x40 MLOAD PUSH2 0x370 SWAP2 SWAP1 PUSH2 0x12AD JUMP JUMPDEST PUSH1 0x40 MLOAD DUP1 SWAP2 SUB SWAP1 RETURN JUMPDEST CALLVALUE DUP1 ISZERO PUSH2 0x384 JUMPI PUSH0 DUP1 REVERT JUMPDEST POP PUSH2 0x38D PUSH2 0xE85 JUMP JUMPDEST PUSH1 0x40 MLOAD PUSH2 0x39A SWAP2 SWAP1 PUSH2 0x12AD JUMP JUMPDEST PUSH1 0x40 MLOAD DUP1 SWAP2 SUB SWAP1 RETURN JUMPDEST PUSH2 0x3BD PUSH1 0x4 DUP1 CALLDATASIZE SUB DUP2 ADD SWAP1 PUSH2 0x3B8 SWAP2 SWAP1 PUSH2 0x13F7 JUMP JUMPDEST PUSH2 0xE98 JUMP JUMPDEST STOP JUMPDEST CALLVALUE DUP1 ISZERO PUSH2 0x3CA JUMPI PUSH0 DUP1 REVERT JUMPDEST POP PUSH2 0x3D3 PUSH2 0xFEF JUMP JUMPDEST PUSH1 0x40 MLOAD PUSH2 0x3E0 SWAP2 SWAP1 PUSH2 0x1385 JUMP JUMPDEST PUSH1 0x40 MLOAD DUP1 SWAP2 SUB SWAP1 RETURN JUMPDEST CALLVALUE DUP1 ISZERO PUSH2 0x3F4 JUMPI PUSH0 DUP1 REVERT JUMPDEST POP PUSH2 0x40F PUSH1 0x4 DUP1 CALLDATASIZE SUB DUP2 ADD SWAP1 PUSH2 0x40A SWAP2 SWAP1 PUSH2 0x144C JUMP JUMPDEST PUSH2 0x107B JUMP JUMPDEST STOP JUMPDEST PUSH1 0x4 PUSH0 SWAP1 SLOAD SWAP1 PUSH2 0x100 EXP SWAP1 DIV PUSH6 0xFFFFFFFFFFFF AND DUP2 JUMP JUMPDEST PUSH1 0x5 PUSH0 CALLER PUSH20 0xFFFFFFFFFFFFFFFFFFFFFFFFFFFFFFFFFFFFFFFF AND PUSH20 0xFFFFFFFFFFFFFFFFFFFFFFFFFFFFFFFFFFFFFFFF AND DUP2 MSTORE PUSH1 0x20 ADD SWAP1 DUP2 MSTORE PUSH1 0x20 ADD PUSH0 KECCAK256 PUSH0 SWAP1 SLOAD SWAP1 PUSH2 0x100 EXP SWAP1 DIV PUSH1 0xFF AND PUSH2 0x47A JUMPI PUSH0 DUP1 REVERT JUMPDEST PUSH1 0x9 PUSH0 SWAP1 SLOAD SWAP1 PUSH2 0x100 EXP SWAP1 DIV PUSH1 0xFF AND ISZERO PUSH2 0x4C9 JUMPI PUSH1 0x40 MLOAD PUSH32 0x8C379A000000000000000000000000000000000000000000000000000000000 DUP2 MSTORE PUSH1 0x4 ADD PUSH2 0x4C0 SWAP1 PUSH2 0x14C1 JUMP JUMPDEST PUSH1 0x40 MLOAD DUP1 SWAP2 SUB SWAP1 REVERT JUMPDEST PUSH1 0x1 PUSH1 0x9 PUSH0 PUSH2 0x100 EXP DUP2 SLOAD DUP2 PUSH1 0xFF MUL NOT AND SWAP1 DUP4 ISZERO ISZERO MUL OR SWAP1 SSTORE POP PUSH0 PUSH1 0x7 PUSH1 0x2 SWAP1 SLOAD SWAP1 PUSH2 0x100 EXP SWAP1 DIV PUSH6 0xFFFFFFFFFFFF AND PUSH6 0xFFFFFFFFFFFF AND GT PUSH2 0x541 JUMPI PUSH1 0x40 MLOAD PUSH32 0x8C379A000000000000000000000000000000000000000000000000000000000 DUP2 MSTORE PUSH1 0x4 ADD PUSH2 0x538 SWAP1 PUSH2 0x1529 JUMP JUMPDEST PUSH1 0x40 MLOAD DUP1 SWAP2 SUB SWAP1 REVERT JUMPDEST PUSH1 0x5 PUSH0 CALLER PUSH20 0xFFFFFFFFFFFFFFFFFFFFFFFFFFFFFFFFFFFFFFFF AND PUSH20 0xFFFFFFFFFFFFFFFFFFFFFFFFFFFFFFFFFFFFFFFF AND DUP2 MSTORE PUSH1 0x20 ADD SWAP1 DUP2 MSTORE PUSH1 0x20 ADD PUSH0 KECCAK256 PUSH0 SWAP1 SLOAD SWAP1 PUSH2 0x100 EXP SWAP1 DIV PUSH1 0xFF AND PUSH2 0x5CA JUMPI PUSH1 0x40 MLOAD PUSH32 0x8C379A000000000000000000000000000000000000000000000000000000000 DUP2 MSTORE PUSH1 0x4 ADD PUSH2 0x5C1 SWAP1 PUSH2 0x1591 JUMP JUMPDEST PUSH1 0x40 MLOAD DUP1 SWAP2 SUB SWAP1 REVERT JUMPDEST PUSH1 0x6 PUSH0 CALLER PUSH20 0xFFFFFFFFFFFFFFFFFFFFFFFFFFFFFFFFFFFFFFFF AND PUSH20 0xFFFFFFFFFFFFFFFFFFFFFFFFFFFFFFFFFFFFFFFF AND DUP2 MSTORE PUSH1 0x20 ADD SWAP1 DUP2 MSTORE PUSH1 0x20 ADD PUSH0 KECCAK256 PUSH0 SWAP1 SLOAD SWAP1 PUSH2 0x100 EXP SWAP1 DIV PUSH1 0xFF AND ISZERO PUSH2 0x654 JUMPI PUSH1 0x40 MLOAD PUSH32 0x8C379A000000000000000000000000000000000000000000000000000000000 DUP2 MSTORE PUSH1 0x4 ADD PUSH2 0x64B SWAP1 PUSH2 0x161F JUMP JUMPDEST PUSH1 0x40 MLOAD DUP1 SWAP2 SUB SWAP1 REVERT JUMPDEST PUSH1 0x1 PUSH1 0x6 PUSH0 CALLER PUSH20 0xFFFFFFFFFFFFFFFFFFFFFFFFFFFFFFFFFFFFFFFF AND PUSH20 0xFFFFFFFFFFFFFFFFFFFFFFFFFFFFFFFFFFFFFFFF AND DUP2 MSTORE PUSH1 0x20 ADD SWAP1 DUP2 MSTORE PUSH1 0x20 ADD PUSH0 KECCAK256 PUSH0 PUSH2 0x100 EXP DUP2 SLOAD DUP2 PUSH1 0xFF MUL NOT AND SWAP1 DUP4 ISZERO ISZERO MUL OR SWAP1 SSTORE POP PUSH0 PUSH1 0x7 PUSH1 0x2 SWAP1 SLOAD SWAP1 PUSH2 0x100 EXP SWAP1 DIV PUSH6 0xFFFFFFFFFFFF AND PUSH6 0xFFFFFFFFFFFF AND SWAP1 POP PUSH0 CALLER PUSH20 0xFFFFFFFFFFFFFFFFFFFFFFFFFFFFFFFFFFFFFFFF AND DUP3 PUSH1 0x40 MLOAD PUSH2 0x6EE SWAP1 PUSH2 0x166A JUMP JUMPDEST PUSH0 PUSH1 0x40 MLOAD DUP1 DUP4 SUB DUP2 DUP6 DUP8 GAS CALL SWAP3 POP POP POP RETURNDATASIZE DUP1 PUSH0 DUP2 EQ PUSH2 0x728 JUMPI PUSH1 0x40 MLOAD SWAP2 POP PUSH1 0x1F NOT PUSH1 0x3F RETURNDATASIZE ADD AND DUP3 ADD PUSH1 0x40 MSTORE RETURNDATASIZE DUP3 MSTORE RETURNDATASIZE PUSH0 PUSH1 0x20 DUP5 ADD RETURNDATACOPY PUSH2 0x72D JUMP JUMPDEST PUSH1 0x60 SWAP2 POP JUMPDEST POP POP SWAP1 POP DUP1 PUSH2 0x771 JUMPI PUSH1 0x40 MLOAD PUSH32 0x8C379A000000000000000000000000000000000000000000000000000000000 DUP2 MSTORE PUSH1 0x4 ADD PUSH2 0x768 SWAP1 PUSH2 0x16EE JUMP JUMPDEST PUSH1 0x40 MLOAD DUP1 SWAP2 SUB SWAP1 REVERT JUMPDEST POP POP PUSH0 PUSH1 0x9 PUSH0 PUSH2 0x100 EXP DUP2 SLOAD DUP2 PUSH1 0xFF MUL NOT AND SWAP1 DUP4 ISZERO ISZERO MUL OR SWAP1 SSTORE POP JUMP JUMPDEST PUSH1 0x7 PUSH1 0x2 SWAP1 SLOAD SWAP1 PUSH2 0x100 EXP SWAP1 DIV PUSH6 0xFFFFFFFFFFFF AND DUP2 JUMP JUMPDEST PUSH1 0x2 PUSH1 0x6 SWAP1 SLOAD SWAP1 PUSH2 0x100 EXP SWAP1 DIV PUSH4 0xFFFFFFFF AND DUP2 JUMP JUMPDEST PUSH0 DUP1 SLOAD SWAP1 PUSH2 0x100 EXP SWAP1 DIV PUSH20 0xFFFFFFFFFFFFFFFFFFFFFFFFFFFFFFFFFFFFFFFF AND PUSH20 0xFFFFFFFFFFFFFFFFFFFFFFFFFFFFFFFFFFFFFFFF AND CALLER PUSH20 0xFFFFFFFFFFFFFFFFFFFFFFFFFFFFFFFFFFFFFFFF AND EQ PUSH2 0x812 JUMPI PUSH0 DUP1 REVERT JUMPDEST PUSH0 PUSH1 0x7 PUSH0 SWAP1 SLOAD SWAP1 PUSH2 0x100 EXP SWAP1 DIV PUSH2 0xFFFF AND PUSH2 0xFFFF AND EQ PUSH2 0x867 JUMPI PUSH1 0x40 MLOAD PUSH32 0x8C379A000000000000000000000000000000000000000000000000000000000 DUP2 MSTORE PUSH1 0x4 ADD PUSH2 0x85E SWAP1 PUSH2 0x177C JUMP JUMPDEST PUSH1 0x40 MLOAD DUP1 SWAP2 SUB SWAP1 REVERT JUMPDEST DUP1 PUSH1 0x2 DUP1 PUSH2 0x100 EXP DUP2 SLOAD DUP2 PUSH4 0xFFFFFFFF MUL NOT AND SWAP1 DUP4 PUSH4 0xFFFFFFFF AND MUL OR SWAP1 SSTORE POP POP JUMP JUMPDEST PUSH1 0x5 PUSH1 0x20 MSTORE DUP1 PUSH0 MSTORE PUSH1 0x40 PUSH0 KECCAK256 PUSH0 SWAP2 POP SLOAD SWAP1 PUSH2 0x100 EXP SWAP1 DIV PUSH1 0xFF AND DUP2 JUMP JUMPDEST PUSH1 0x7 PUSH0 SWAP1 SLOAD SWAP1 PUSH2 0x100 EXP SWAP1 DIV PUSH2 0xFFFF AND DUP2 JUMP JUMPDEST PUSH1 0x2 DUP1 SLOAD SWAP1 PUSH2 0x100 EXP SWAP1 DIV PUSH4 0xFFFFFFFF AND DUP2 JUMP JUMPDEST PUSH0 DUP1 SLOAD SWAP1 PUSH2 0x100 EXP SWAP1 DIV PUSH20 0xFFFFFFFFFFFFFFFFFFFFFFFFFFFFFFFFFFFFFFFF AND PUSH20 0xFFFFFFFFFFFFFFFFFFFFFFFFFFFFFFFFFFFFFFFF AND CALLER PUSH20 0xFFFFFFFFFFFFFFFFFFFFFFFFFFFFFFFFFFFFFFFF AND EQ PUSH2 0x924 JUMPI PUSH0 DUP1 REVERT JUMPDEST PUSH0 PUSH1 0x7 PUSH0 SWAP1 SLOAD SWAP1 PUSH2 0x100 EXP SWAP1 DIV PUSH2 0xFFFF AND PUSH2 0xFFFF AND EQ PUSH2 0x979 JUMPI PUSH1 0x40 MLOAD PUSH32 0x8C379A000000000000000000000000000000000000000000000000000000000 DUP2 MSTORE PUSH1 0x4 ADD PUSH2 0x970 SWAP1 PUSH2 0x180A JUMP JUMPDEST PUSH1 0x40 MLOAD DUP1 SWAP2 SUB SWAP1 REVERT JUMPDEST PUSH1 0x1 PUSH1 0x8 PUSH0 DUP4 PUSH20 0xFFFFFFFFFFFFFFFFFFFFFFFFFFFFFFFFFFFFFFFF AND PUSH20 0xFFFFFFFFFFFFFFFFFFFFFFFFFFFFFFFFFFFFFFFF AND DUP2 MSTORE PUSH1 0x20 ADD SWAP1 DUP2 MSTORE PUSH1 0x20 ADD PUSH0 KECCAK256 PUSH0 PUSH2 0x100 EXP DUP2 SLOAD DUP2 PUSH1 0xFF MUL NOT AND SWAP1 DUP4 ISZERO ISZERO MUL OR SWAP1 SSTORE POP POP JUMP JUMPDEST PUSH1 0x2 PUSH0 SWAP1 SLOAD SWAP1 PUSH2 0x100 EXP SWAP1 DIV PUSH2 0xFFFF AND PUSH2 0xFFFF AND PUSH1 0x2 DUP1 SLOAD SWAP1 PUSH2 0x100 EXP SWAP1 DIV PUSH4 0xFFFFFFFF AND PUSH2 0xA00 SWAP2 SWAP1 PUSH2 0x1882 JUMP JUMPDEST PUSH1 0x2 PUSH1 0x6 PUSH2 0x100 EXP DUP2 SLOAD DUP2 PUSH4 0xFFFFFFFF MUL NOT AND SWAP1 DUP4 PUSH4 0xFFFFFFFF AND MUL OR SWAP1 SSTORE POP PUSH0 PUSH1 0x2 PUSH1 0x6 SWAP1 SLOAD SWAP1 PUSH2 0x100 EXP SWAP1 DIV PUSH4 0xFFFFFFFF AND PUSH4 0xFFFFFFFF AND GT PUSH2 0xA7A JUMPI PUSH1 0x40 MLOAD PUSH32 0x8C379A000000000000000000000000000000000000000000000000000000000 DUP2 MSTORE PUSH1 0x4 ADD PUSH2 0xA71 SWAP1 PUSH2 0x18FC JUMP JUMPDEST PUSH1 0x40 MLOAD DUP1 SWAP2 SUB SWAP1 REVERT JUMPDEST PUSH1 0x2 PUSH1 0x6 SWAP1 SLOAD SWAP1 PUSH2 0x100 EXP SWAP1 DIV PUSH4 0xFFFFFFFF AND PUSH4 0xFFFFFFFF AND CALLVALUE LT ISZERO PUSH2 0xAD5 JUMPI PUSH1 0x40 MLOAD PUSH32 0x8C379A000000000000000000000000000000000000000000000000000000000 DUP2 MSTORE PUSH1 0x4 ADD PUSH2 0xACC SWAP1 PUSH2 0x1964 JUMP JUMPDEST PUSH1 0x40 MLOAD DUP1 SWAP2 SUB SWAP1 REVERT JUMPDEST PUSH1 0x5 PUSH0 CALLER PUSH20 0xFFFFFFFFFFFFFFFFFFFFFFFFFFFFFFFFFFFFFFFF AND PUSH20 0xFFFFFFFFFFFFFFFFFFFFFFFFFFFFFFFFFFFFFFFF AND DUP2 MSTORE PUSH1 0x20 ADD SWAP1 DUP2 MSTORE PUSH1 0x20 ADD PUSH0 KECCAK256 PUSH0 SWAP1 SLOAD SWAP1 PUSH2 0x100 EXP SWAP1 DIV PUSH1 0xFF AND ISZERO PUSH2 0xB5F JUMPI PUSH1 0x40 MLOAD PUSH32 0x8C379A000000000000000000000000000000000000000000000000000000000 DUP2 MSTORE PUSH1 0x4 ADD PUSH2 0xB56 SWAP1 PUSH2 0x19F2 JUMP JUMPDEST PUSH1 0x40 MLOAD DUP1 SWAP2 SUB SWAP1 REVERT JUMPDEST PUSH1 0x2 PUSH0 SWAP1 SLOAD SWAP1 PUSH2 0x100 EXP SWAP1 DIV PUSH2 0xFFFF AND PUSH2 0xFFFF AND PUSH1 0x7 PUSH0 SWAP1 SLOAD SWAP1 PUSH2 0x100 EXP SWAP1 DIV PUSH2 0xFFFF AND PUSH2 0xFFFF AND LT PUSH2 0xBC7 JUMPI PUSH1 0x40 MLOAD PUSH32 0x8C379A000000000000000000000000000000000000000000000000000000000 DUP2 MSTORE PUSH1 0x4 ADD PUSH2 0xBBE SWAP1 PUSH2 0x1A5A JUMP JUMPDEST PUSH1 0x40 MLOAD DUP1 SWAP2 SUB SWAP1 REVERT JUMPDEST PUSH0 PUSH1 0x7 PUSH1 0x2 SWAP1 SLOAD SWAP1 PUSH2 0x100 EXP SWAP1 DIV PUSH6 0xFFFFFFFFFFFF AND PUSH6 0xFFFFFFFFFFFF AND EQ PUSH2 0xC25 JUMPI PUSH1 0x40 MLOAD PUSH32 0x8C379A000000000000000000000000000000000000000000000000000000000 DUP2 MSTORE PUSH1 0x4 ADD PUSH2 0xC1C SWAP1 PUSH2 0x1AC2 JUMP JUMPDEST PUSH1 0x40 MLOAD DUP1 SWAP2 SUB SWAP1 REVERT JUMPDEST PUSH1 0x7 PUSH1 0x9 SWAP1 SLOAD SWAP1 PUSH2 0x100 EXP SWAP1 DIV PUSH1 0xFF AND ISZERO PUSH2 0xC8D JUMPI PUSH1 0x8 PUSH0 CALLER PUSH20 0xFFFFFFFFFFFFFFFFFFFFFFFFFFFFFFFFFFFFFFFF AND PUSH20 0xFFFFFFFFFFFFFFFFFFFFFFFFFFFFFFFFFFFFFFFF AND DUP2 MSTORE PUSH1 0x20 ADD SWAP1 DUP2 MSTORE PUSH1 0x20 ADD PUSH0 KECCAK256 PUSH0 SWAP1 SLOAD SWAP1 PUSH2 0x100 EXP SWAP1 DIV PUSH1 0xFF AND PUSH2 0xC8C JUMPI PUSH0 DUP1 REVERT JUMPDEST JUMPDEST PUSH0 PUSH1 0x2 PUSH1 0x6 SWAP1 SLOAD SWAP1 PUSH2 0x100 EXP SWAP1 DIV PUSH4 0xFFFFFFFF AND PUSH4 0xFFFFFFFF AND CALLVALUE PUSH2 0xCB2 SWAP2 SWAP1 PUSH2 0x1AE9 JUMP JUMPDEST SWAP1 POP PUSH1 0x1 PUSH1 0x5 PUSH0 CALLER PUSH20 0xFFFFFFFFFFFFFFFFFFFFFFFFFFFFFFFFFFFFFFFF AND PUSH20 0xFFFFFFFFFFFFFFFFFFFFFFFFFFFFFFFFFFFFFFFF AND DUP2 MSTORE PUSH1 0x20 ADD SWAP1 DUP2 MSTORE PUSH1 0x20 ADD PUSH0 KECCAK256 PUSH0 PUSH2 0x100 EXP DUP2 SLOAD DUP2 PUSH1 0xFF MUL NOT AND SWAP1 DUP4 ISZERO ISZERO MUL OR SWAP1 SSTORE POP PUSH1 0x7 PUSH0 DUP2 DUP2 SWAP1 SLOAD SWAP1 PUSH2 0x100 EXP SWAP1 DIV PUSH2 0xFFFF AND DUP1 SWAP3 SWAP2 SWAP1 PUSH2 0xD28 SWAP1 PUSH2 0x1B1C JUMP JUMPDEST SWAP2 SWAP1 PUSH2 0x100 EXP DUP2 SLOAD DUP2 PUSH2 0xFFFF MUL NOT AND SWAP1 DUP4 PUSH2 0xFFFF AND MUL OR SWAP1 SSTORE POP POP PUSH0 DUP2 GT ISZERO PUSH2 0xD90 JUMPI CALLER PUSH20 0xFFFFFFFFFFFFFFFFFFFFFFFFFFFFFFFFFFFFFFFF AND PUSH2 0x8FC DUP3 SWAP1 DUP2 ISZERO MUL SWAP1 PUSH1 0x40 MLOAD PUSH0 PUSH1 0x40 MLOAD DUP1 DUP4 SUB DUP2 DUP6 DUP9 DUP9 CALL SWAP4 POP POP POP POP ISZERO DUP1 ISZERO PUSH2 0xD8E JUMPI RETURNDATASIZE PUSH0 DUP1 RETURNDATACOPY RETURNDATASIZE PUSH0 REVERT JUMPDEST POP JUMPDEST POP JUMP JUMPDEST PUSH1 0x2 PUSH0 SWAP1 SLOAD SWAP1 PUSH2 0x100 EXP SWAP1 DIV PUSH2 0xFFFF AND DUP2 JUMP JUMPDEST PUSH1 0x3 DUP1 SLOAD PUSH2 0xDB3 SWAP1 PUSH2 0x1B72 JUMP JUMPDEST DUP1 PUSH1 0x1F ADD PUSH1 0x20 DUP1 SWAP2 DIV MUL PUSH1 0x20 ADD PUSH1 0x40 MLOAD SWAP1 DUP2 ADD PUSH1 0x40 MSTORE DUP1 SWAP3 SWAP2 SWAP1 DUP2 DUP2 MSTORE PUSH1 0x20 ADD DUP3 DUP1 SLOAD PUSH2 0xDDF SWAP1 PUSH2 0x1B72 JUMP JUMPDEST DUP1 ISZERO PUSH2 0xE2A JUMPI DUP1 PUSH1 0x1F LT PUSH2 0xE01 JUMPI PUSH2 0x100 DUP1 DUP4 SLOAD DIV MUL DUP4 MSTORE SWAP2 PUSH1 0x20 ADD SWAP2 PUSH2 0xE2A JUMP JUMPDEST DUP3 ADD SWAP2 SWAP1 PUSH0 MSTORE PUSH1 0x20 PUSH0 KECCAK256 SWAP1 JUMPDEST DUP2 SLOAD DUP2 MSTORE SWAP1 PUSH1 0x1 ADD SWAP1 PUSH1 0x20 ADD DUP1 DUP4 GT PUSH2 0xE0D JUMPI DUP3 SWAP1 SUB PUSH1 0x1F AND DUP3 ADD SWAP2 JUMPDEST POP POP POP POP POP DUP2 JUMP JUMPDEST PUSH1 0x6 PUSH1 0x20 MSTORE DUP1 PUSH0 MSTORE PUSH1 0x40 PUSH0 KECCAK256 PUSH0 SWAP2 POP SLOAD SWAP1 PUSH2 0x100 EXP SWAP1 DIV PUSH1 0xFF AND DUP2 JUMP JUMPDEST PUSH0 DUP1 SLOAD SWAP1 PUSH2 0x100 EXP SWAP1 DIV PUSH20 0xFFFFFFFFFFFFFFFFFFFFFFFFFFFFFFFFFFFFFFFF AND DUP2 JUMP JUMPDEST PUSH1 0x7 PUSH1 0x9 SWAP1 SLOAD SWAP1 PUSH2 0x100 EXP SWAP1 DIV PUSH1 0xFF AND DUP2 JUMP JUMPDEST PUSH1 0x7 PUSH1 0x8 SWAP1 SLOAD SWAP1 PUSH2 0x100 EXP SWAP1 DIV PUSH1 0xFF AND DUP2 JUMP JUMPDEST PUSH0 DUP1 SLOAD SWAP1 PUSH2 0x100 EXP SWAP1 DIV PUSH20 0xFFFFFFFFFFFFFFFFFFFFFFFFFFFFFFFFFFFFFFFF AND PUSH20 0xFFFFFFFFFFFFFFFFFFFFFFFFFFFFFFFFFFFFFFFF AND CALLER PUSH20 0xFFFFFFFFFFFFFFFFFFFFFFFFFFFFFFFFFFFFFFFF AND EQ PUSH2 0xEEE JUMPI PUSH0 DUP1 REVERT JUMPDEST PUSH0 CALLVALUE GT PUSH2 0xF30 JUMPI PUSH1 0x40 MLOAD PUSH32 0x8C379A000000000000000000000000000000000000000000000000000000000 DUP2 MSTORE PUSH1 0x4 ADD PUSH2 0xF27 SWAP1 PUSH2 0x1C12 JUMP JUMPDEST PUSH1 0x40 MLOAD DUP1 SWAP2 SUB SWAP1 REVERT JUMPDEST PUSH0 PUSH1 0x7 PUSH1 0x2 SWAP1 SLOAD SWAP1 PUSH2 0x100 EXP SWAP1 DIV PUSH6 0xFFFFFFFFFFFF AND PUSH6 0xFFFFFFFFFFFF AND EQ PUSH2 0xF8E JUMPI PUSH1 0x40 MLOAD PUSH32 0x8C379A000000000000000000000000000000000000000000000000000000000 DUP2 MSTORE PUSH1 0x4 ADD PUSH2 0xF85 SWAP1 PUSH2 0x1C7A JUMP JUMPDEST PUSH1 0x40 MLOAD DUP1 SWAP2 SUB SWAP1 REVERT JUMPDEST PUSH1 0x7 PUSH0 SWAP1 SLOAD SWAP1 PUSH2 0x100 EXP SWAP1 DIV PUSH2 0xFFFF AND PUSH2 0xFFFF AND DUP2 PUSH2 0xFAD SWAP2 SWAP1 PUSH2 0x1C98 JUMP JUMPDEST PUSH1 0x7 PUSH1 0x2 PUSH2 0x100 EXP DUP2 SLOAD DUP2 PUSH6 0xFFFFFFFFFFFF MUL NOT AND SWAP1 DUP4 PUSH6 0xFFFFFFFFFFFF AND MUL OR SWAP1 SSTORE POP PUSH1 0x1 PUSH1 0x7 PUSH1 0x8 PUSH2 0x100 EXP DUP2 SLOAD DUP2 PUSH1 0xFF MUL NOT AND SWAP1 DUP4 ISZERO ISZERO MUL OR SWAP1 SSTORE POP POP JUMP JUMPDEST PUSH1 0x1 DUP1 SLOAD PUSH2 0xFFC SWAP1 PUSH2 0x1B72 JUMP JUMPDEST DUP1 PUSH1 0x1F ADD PUSH1 0x20 DUP1 SWAP2 DIV MUL PUSH1 0x20 ADD PUSH1 0x40 MLOAD SWAP1 DUP2 ADD PUSH1 0x40 MSTORE DUP1 SWAP3 SWAP2 SWAP1 DUP2 DUP2 MSTORE PUSH1 0x20 ADD DUP3 DUP1 SLOAD PUSH2 0x1028 SWAP1 PUSH2 0x1B72 JUMP JUMPDEST DUP1 ISZERO PUSH2 0x1073 JUMPI DUP1 PUSH1 0x1F LT PUSH2 0x104A JUMPI PUSH2 0x100 DUP1 DUP4 SLOAD DIV MUL DUP4 MSTORE SWAP2 PUSH1 0x20 ADD SWAP2 PUSH2 0x1073 JUMP JUMPDEST DUP3 ADD SWAP2 SWAP1 PUSH0 MSTORE PUSH1 0x20 PUSH0 KECCAK256 SWAP1 JUMPDEST DUP2 SLOAD DUP2 MSTORE SWAP1 PUSH1 0x1 ADD SWAP1 PUSH1 0x20 ADD DUP1 DUP4 GT PUSH2 0x1056 JUMPI DUP3 SWAP1 SUB PUSH1 0x1F AND DUP3 ADD SWAP2 JUMPDEST POP POP POP POP POP DUP2 JUMP JUMPDEST PUSH0 DUP1 SLOAD SWAP1 PUSH2 0x100 EXP SWAP1 DIV PUSH20 0xFFFFFFFFFFFFFFFFFFFFFFFFFFFFFFFFFFFFFFFF AND PUSH20 0xFFFFFFFFFFFFFFFFFFFFFFFFFFFFFFFFFFFFFFFF AND CALLER PUSH20 0xFFFFFFFFFFFFFFFFFFFFFFFFFFFFFFFFFFFFFFFF AND EQ PUSH2 0x10D1 JUMPI PUSH0 DUP1 REVERT JUMPDEST PUSH0 PUSH1 0x7 PUSH0 SWAP1 SLOAD SWAP1 PUSH2 0x100 EXP SWAP1 DIV PUSH2 0xFFFF AND PUSH2 0xFFFF AND EQ PUSH2 0x1126 JUMPI PUSH1 0x40 MLOAD PUSH32 0x8C379A000000000000000000000000000000000000000000000000000000000 DUP2 MSTORE PUSH1 0x4 ADD PUSH2 0x111D SWAP1 PUSH2 0x1D5E JUMP JUMPDEST PUSH1 0x40 MLOAD DUP1 SWAP2 SUB SWAP1 REVERT JUMPDEST DUP1 PUSH1 0x2 PUSH0 PUSH2 0x100 EXP DUP2 SLOAD DUP2 PUSH2 0xFFFF MUL NOT AND SWAP1 DUP4 PUSH2 0xFFFF AND MUL OR SWAP1 SSTORE POP POP JUMP JUMPDEST PUSH0 PUSH6 0xFFFFFFFFFFFF DUP3 AND SWAP1 POP SWAP2 SWAP1 POP JUMP JUMPDEST PUSH2 0x115F DUP2 PUSH2 0x1145 JUMP JUMPDEST DUP3 MSTORE POP POP JUMP JUMPDEST PUSH0 PUSH1 0x20 DUP3 ADD SWAP1 POP PUSH2 0x1178 PUSH0 DUP4 ADD DUP5 PUSH2 0x1156 JUMP JUMPDEST SWAP3 SWAP2 POP POP JUMP JUMPDEST PUSH0 PUSH4 0xFFFFFFFF DUP3 AND SWAP1 POP SWAP2 SWAP1 POP JUMP JUMPDEST PUSH2 0x1196 DUP2 PUSH2 0x117E JUMP JUMPDEST DUP3 MSTORE POP POP JUMP JUMPDEST PUSH0 PUSH1 0x20 DUP3 ADD SWAP1 POP PUSH2 0x11AF PUSH0 DUP4 ADD DUP5 PUSH2 0x118D JUMP JUMPDEST SWAP3 SWAP2 POP POP JUMP JUMPDEST PUSH0 DUP1 REVERT JUMPDEST PUSH2 0x11C2 DUP2 PUSH2 0x117E JUMP JUMPDEST DUP2 EQ PUSH2 0x11CC JUMPI PUSH0 DUP1 REVERT JUMPDEST POP JUMP JUMPDEST PUSH0 DUP2 CALLDATALOAD SWAP1 POP PUSH2 0x11DD DUP2 PUSH2 0x11B9 JUMP JUMPDEST SWAP3 SWAP2 POP POP JUMP JUMPDEST PUSH0 PUSH1 0x20 DUP3 DUP5 SUB SLT ISZERO PUSH2 0x11F8 JUMPI PUSH2 0x11F7 PUSH2 0x11B5 JUMP JUMPDEST JUMPDEST PUSH0 PUSH2 0x1205 DUP5 DUP3 DUP6 ADD PUSH2 0x11CF JUMP JUMPDEST SWAP2 POP POP SWAP3 SWAP2 POP POP JUMP JUMPDEST PUSH0 PUSH20 0xFFFFFFFFFFFFFFFFFFFFFFFFFFFFFFFFFFFFFFFF DUP3 AND SWAP1 POP SWAP2 SWAP1 POP JUMP JUMPDEST PUSH0 PUSH2 0x1237 DUP3 PUSH2 0x120E JUMP JUMPDEST SWAP1 POP SWAP2 SWAP1 POP JUMP JUMPDEST PUSH2 0x1247 DUP2 PUSH2 0x122D JUMP JUMPDEST DUP2 EQ PUSH2 0x1251 JUMPI PUSH0 DUP1 REVERT JUMPDEST POP JUMP JUMPDEST PUSH0 DUP2 CALLDATALOAD SWAP1 POP PUSH2 0x1262 DUP2 PUSH2 0x123E JUMP JUMPDEST SWAP3 SWAP2 POP POP JUMP JUMPDEST PUSH0 PUSH1 0x20 DUP3 DUP5 SUB SLT ISZERO PUSH2 0x127D JUMPI PUSH2 0x127C PUSH2 0x11B5 JUMP JUMPDEST JUMPDEST PUSH0 PUSH2 0x128A DUP5 DUP3 DUP6 ADD PUSH2 0x1254 JUMP JUMPDEST SWAP2 POP POP SWAP3 SWAP2 POP POP JUMP JUMPDEST PUSH0 DUP2 ISZERO ISZERO SWAP1 POP SWAP2 SWAP1 POP JUMP JUMPDEST PUSH2 0x12A7 DUP2 PUSH2 0x1293 JUMP JUMPDEST DUP3 MSTORE POP POP JUMP JUMPDEST PUSH0 PUSH1 0x20 DUP3 ADD SWAP1 POP PUSH2 0x12C0 PUSH0 DUP4 ADD DUP5 PUSH2 0x129E JUMP JUMPDEST SWAP3 SWAP2 POP POP JUMP JUMPDEST PUSH0 PUSH2 0xFFFF DUP3 AND SWAP1 POP SWAP2 SWAP1 POP JUMP JUMPDEST PUSH2 0x12DC DUP2 PUSH2 0x12C6 JUMP JUMPDEST DUP3 MSTORE POP POP JUMP JUMPDEST PUSH0 PUSH1 0x20 DUP3 ADD SWAP1 POP PUSH2 0x12F5 PUSH0 DUP4 ADD DUP5 PUSH2 0x12D3 JUMP JUMPDEST SWAP3 SWAP2 POP POP JUMP JUMPDEST PUSH0 DUP2 MLOAD SWAP1 POP SWAP2 SWAP1 POP JUMP JUMPDEST PUSH0 DUP3 DUP3 MSTORE PUSH1 0x20 DUP3 ADD SWAP1 POP SWAP3 SWAP2 POP POP JUMP JUMPDEST PUSH0 JUMPDEST DUP4 DUP2 LT ISZERO PUSH2 0x1332 JUMPI DUP1 DUP3 ADD MLOAD DUP2 DUP5 ADD MSTORE PUSH1 0x20 DUP2 ADD SWAP1 POP PUSH2 0x1317 JUMP JUMPDEST PUSH0 DUP5 DUP5 ADD MSTORE POP POP POP POP JUMP JUMPDEST PUSH0 PUSH1 0x1F NOT PUSH1 0x1F DUP4 ADD AND SWAP1 POP SWAP2 SWAP1 POP JUMP JUMPDEST PUSH0 PUSH2 0x1357 DUP3 PUSH2 0x12FB JUMP JUMPDEST PUSH2 0x1361 DUP2 DUP6 PUSH2 0x1305 JUMP JUMPDEST SWAP4 POP PUSH2 0x1371 DUP2 DUP6 PUSH1 0x20 DUP7 ADD PUSH2 0x1315 JUMP JUMPDEST PUSH2 0x137A DUP2 PUSH2 0x133D JUMP JUMPDEST DUP5 ADD SWAP2 POP POP SWAP3 SWAP2 POP POP JUMP JUMPDEST PUSH0 PUSH1 0x20 DUP3 ADD SWAP1 POP DUP2 DUP2 SUB PUSH0 DUP4 ADD MSTORE PUSH2 0x139D DUP2 DUP5 PUSH2 0x134D JUMP JUMPDEST SWAP1 POP SWAP3 SWAP2 POP POP JUMP JUMPDEST PUSH2 0x13AE DUP2 PUSH2 0x122D JUMP JUMPDEST DUP3 MSTORE POP POP JUMP JUMPDEST PUSH0 PUSH1 0x20 DUP3 ADD SWAP1 POP PUSH2 0x13C7 PUSH0 DUP4 ADD DUP5 PUSH2 0x13A5 JUMP JUMPDEST SWAP3 SWAP2 POP POP JUMP JUMPDEST PUSH2 0x13D6 DUP2 PUSH2 0x1145 JUMP JUMPDEST DUP2 EQ PUSH2 0x13E0 JUMPI PUSH0 DUP1 REVERT JUMPDEST POP JUMP JUMPDEST PUSH0 DUP2 CALLDATALOAD SWAP1 POP PUSH2 0x13F1 DUP2 PUSH2 0x13CD JUMP JUMPDEST SWAP3 SWAP2 POP POP JUMP JUMPDEST PUSH0 PUSH1 0x20 DUP3 DUP5 SUB SLT ISZERO PUSH2 0x140C JUMPI PUSH2 0x140B PUSH2 0x11B5 JUMP JUMPDEST JUMPDEST PUSH0 PUSH2 0x1419 DUP5 DUP3 DUP6 ADD PUSH2 0x13E3 JUMP JUMPDEST SWAP2 POP POP SWAP3 SWAP2 POP POP JUMP JUMPDEST PUSH2 0x142B DUP2 PUSH2 0x12C6 JUMP JUMPDEST DUP2 EQ PUSH2 0x1435 JUMPI PUSH0 DUP1 REVERT JUMPDEST POP JUMP JUMPDEST PUSH0 DUP2 CALLDATALOAD SWAP1 POP PUSH2 0x1446 DUP2 PUSH2 0x1422 JUMP JUMPDEST SWAP3 SWAP2 POP POP JUMP JUMPDEST PUSH0 PUSH1 0x20 DUP3 DUP5 SUB SLT ISZERO PUSH2 0x1461 JUMPI PUSH2 0x1460 PUSH2 0x11B5 JUMP JUMPDEST JUMPDEST PUSH0 PUSH2 0x146E DUP5 DUP3 DUP6 ADD PUSH2 0x1438 JUMP JUMPDEST SWAP2 POP POP SWAP3 SWAP2 POP POP JUMP JUMPDEST PUSH32 0x4E6F2072652D656E7472616E6379000000000000000000000000000000000000 PUSH0 DUP3 ADD MSTORE POP JUMP JUMPDEST PUSH0 PUSH2 0x14AB PUSH1 0xE DUP4 PUSH2 0x1305 JUMP JUMPDEST SWAP2 POP PUSH2 0x14B6 DUP3 PUSH2 0x1477 JUMP JUMPDEST PUSH1 0x20 DUP3 ADD SWAP1 POP SWAP2 SWAP1 POP JUMP JUMPDEST PUSH0 PUSH1 0x20 DUP3 ADD SWAP1 POP DUP2 DUP2 SUB PUSH0 DUP4 ADD MSTORE PUSH2 0x14D8 DUP2 PUSH2 0x149F JUMP JUMPDEST SWAP1 POP SWAP2 SWAP1 POP JUMP JUMPDEST PUSH32 0x4B65696E20476577696E6E2065696E67657A61686C7400000000000000000000 PUSH0 DUP3 ADD MSTORE POP JUMP JUMPDEST PUSH0 PUSH2 0x1513 PUSH1 0x16 DUP4 PUSH2 0x1305 JUMP JUMPDEST SWAP2 POP PUSH2 0x151E DUP3 PUSH2 0x14DF JUMP JUMPDEST PUSH1 0x20 DUP3 ADD SWAP1 POP SWAP2 SWAP1 POP JUMP JUMPDEST PUSH0 PUSH1 0x20 DUP3 ADD SWAP1 POP DUP2 DUP2 SUB PUSH0 DUP4 ADD MSTORE PUSH2 0x1540 DUP2 PUSH2 0x1507 JUMP JUMPDEST SWAP1 POP SWAP2 SWAP1 POP JUMP JUMPDEST PUSH32 0x44752062697374206B65696E204D6974737069656C6572000000000000000000 PUSH0 DUP3 ADD MSTORE POP JUMP JUMPDEST PUSH0 PUSH2 0x157B PUSH1 0x17 DUP4 PUSH2 0x1305 JUMP JUMPDEST SWAP2 POP PUSH2 0x1586 DUP3 PUSH2 0x1547 JUMP JUMPDEST PUSH1 0x20 DUP3 ADD SWAP1 POP SWAP2 SWAP1 POP JUMP JUMPDEST PUSH0 PUSH1 0x20 DUP3 ADD SWAP1 POP DUP2 DUP2 SUB PUSH0 DUP4 ADD MSTORE PUSH2 0x15A8 DUP2 PUSH2 0x156F JUMP JUMPDEST SWAP1 POP SWAP2 SWAP1 POP JUMP JUMPDEST PUSH32 0x4465696E20476577696E6E20777572646520626572656974732061757367657A PUSH0 DUP3 ADD MSTORE PUSH32 0x61686C7400000000000000000000000000000000000000000000000000000000 PUSH1 0x20 DUP3 ADD MSTORE POP JUMP JUMPDEST PUSH0 PUSH2 0x1609 PUSH1 0x24 DUP4 PUSH2 0x1305 JUMP JUMPDEST SWAP2 POP PUSH2 0x1614 DUP3 PUSH2 0x15AF JUMP JUMPDEST PUSH1 0x40 DUP3 ADD SWAP1 POP SWAP2 SWAP1 POP JUMP JUMPDEST PUSH0 PUSH1 0x20 DUP3 ADD SWAP1 POP DUP2 DUP2 SUB PUSH0 DUP4 ADD MSTORE PUSH2 0x1636 DUP2 PUSH2 0x15FD JUMP JUMPDEST SWAP1 POP SWAP2 SWAP1 POP JUMP JUMPDEST PUSH0 DUP2 SWAP1 POP SWAP3 SWAP2 POP POP JUMP JUMPDEST POP JUMP JUMPDEST PUSH0 PUSH2 0x1655 PUSH0 DUP4 PUSH2 0x163D JUMP JUMPDEST SWAP2 POP PUSH2 0x1660 DUP3 PUSH2 0x1647 JUMP JUMPDEST PUSH0 DUP3 ADD SWAP1 POP SWAP2 SWAP1 POP JUMP JUMPDEST PUSH0 PUSH2 0x1674 DUP3 PUSH2 0x164A JUMP JUMPDEST SWAP2 POP DUP2 SWAP1 POP SWAP2 SWAP1 POP JUMP JUMPDEST PUSH32 0x4175737A61686C756E672064657320476577696E6E73206665686C6765736368 PUSH0 DUP3 ADD MSTORE PUSH32 0x6C6167656E000000000000000000000000000000000000000000000000000000 PUSH1 0x20 DUP3 ADD MSTORE POP JUMP JUMPDEST PUSH0 PUSH2 0x16D8 PUSH1 0x25 DUP4 PUSH2 0x1305 JUMP JUMPDEST SWAP2 POP PUSH2 0x16E3 DUP3 PUSH2 0x167E JUMP JUMPDEST PUSH1 0x40 DUP3 ADD SWAP1 POP SWAP2 SWAP1 POP JUMP JUMPDEST PUSH0 PUSH1 0x20 DUP3 ADD SWAP1 POP DUP2 DUP2 SUB PUSH0 DUP4 ADD MSTORE PUSH2 0x1705 DUP2 PUSH2 0x16CC JUMP JUMPDEST SWAP1 POP SWAP2 SWAP1 POP JUMP JUMPDEST PUSH32 0x457320676962742062657265697473204D6974737069656C65722E2050726569 PUSH0 DUP3 ADD MSTORE PUSH32 0x7361656E646572756E67206E69636874206D656872206D6F65676C6963682E00 PUSH1 0x20 DUP3 ADD MSTORE POP JUMP JUMPDEST PUSH0 PUSH2 0x1766 PUSH1 0x3F DUP4 PUSH2 0x1305 JUMP JUMPDEST SWAP2 POP PUSH2 0x1771 DUP3 PUSH2 0x170C JUMP JUMPDEST PUSH1 0x40 DUP3 ADD SWAP1 POP SWAP2 SWAP1 POP JUMP JUMPDEST PUSH0 PUSH1 0x20 DUP3 ADD SWAP1 POP DUP2 DUP2 SUB PUSH0 DUP4 ADD MSTORE PUSH2 0x1793 DUP2 PUSH2 0x175A JUMP JUMPDEST SWAP1 POP SWAP2 SWAP1 POP JUMP JUMPDEST PUSH32 0x457320676962742062657265697473204D6974737069656C65722E2041656E64 PUSH0 DUP3 ADD MSTORE PUSH32 0x6572756E67206E69636874206D656872206D6F65676C6963682E000000000000 PUSH1 0x20 DUP3 ADD MSTORE POP JUMP JUMPDEST PUSH0 PUSH2 0x17F4 PUSH1 0x3A DUP4 PUSH2 0x1305 JUMP JUMPDEST SWAP2 POP PUSH2 0x17FF DUP3 PUSH2 0x179A JUMP JUMPDEST PUSH1 0x40 DUP3 ADD SWAP1 POP SWAP2 SWAP1 POP JUMP JUMPDEST PUSH0 PUSH1 0x20 DUP3 ADD SWAP1 POP DUP2 DUP2 SUB PUSH0 DUP4 ADD MSTORE PUSH2 0x1821 DUP2 PUSH2 0x17E8 JUMP JUMPDEST SWAP1 POP SWAP2 SWAP1 POP JUMP JUMPDEST PUSH32 0x4E487B7100000000000000000000000000000000000000000000000000000000 PUSH0 MSTORE PUSH1 0x12 PUSH1 0x4 MSTORE PUSH1 0x24 PUSH0 REVERT JUMPDEST PUSH32 0x4E487B7100000000000000000000000000000000000000000000000000000000 PUSH0 MSTORE PUSH1 0x11 PUSH1 0x4 MSTORE PUSH1 0x24 PUSH0 REVERT JUMPDEST PUSH0 PUSH2 0x188C DUP3 PUSH2 0x117E JUMP JUMPDEST SWAP2 POP PUSH2 0x1897 DUP4 PUSH2 0x117E JUMP JUMPDEST SWAP3 POP DUP3 PUSH2 0x18A7 JUMPI PUSH2 0x18A6 PUSH2 0x1828 JUMP JUMPDEST JUMPDEST DUP3 DUP3 DIV SWAP1 POP SWAP3 SWAP2 POP POP JUMP JUMPDEST PUSH32 0x4B65696E2050726569732070726F204D6974737069656C657200000000000000 PUSH0 DUP3 ADD MSTORE POP JUMP JUMPDEST PUSH0 PUSH2 0x18E6 PUSH1 0x19 DUP4 PUSH2 0x1305 JUMP JUMPDEST SWAP2 POP PUSH2 0x18F1 DUP3 PUSH2 0x18B2 JUMP JUMPDEST PUSH1 0x20 DUP3 ADD SWAP1 POP SWAP2 SWAP1 POP JUMP JUMPDEST PUSH0 PUSH1 0x20 DUP3 ADD SWAP1 POP DUP2 DUP2 SUB PUSH0 DUP4 ADD MSTORE PUSH2 0x1913 DUP2 PUSH2 0x18DA JUMP JUMPDEST SWAP1 POP SWAP2 SWAP1 POP JUMP JUMPDEST PUSH32 0x5A7520676572696E6765722045696E7A61686C756E6773626574726167000000 PUSH0 DUP3 ADD MSTORE POP JUMP JUMPDEST PUSH0 PUSH2 0x194E PUSH1 0x1D DUP4 PUSH2 0x1305 JUMP JUMPDEST SWAP2 POP PUSH2 0x1959 DUP3 PUSH2 0x191A JUMP JUMPDEST PUSH1 0x20 DUP3 ADD SWAP1 POP SWAP2 SWAP1 POP JUMP JUMPDEST PUSH0 PUSH1 0x20 DUP3 ADD SWAP1 POP DUP2 DUP2 SUB PUSH0 DUP4 ADD MSTORE PUSH2 0x197B DUP2 PUSH2 0x1942 JUMP JUMPDEST SWAP1 POP SWAP2 SWAP1 POP JUMP JUMPDEST PUSH32 0x4265726569747320616C73204D6974737069656C657220726567697374726965 PUSH0 DUP3 ADD MSTORE PUSH32 0x7274000000000000000000000000000000000000000000000000000000000000 PUSH1 0x20 DUP3 ADD MSTORE POP JUMP JUMPDEST PUSH0 PUSH2 0x19DC PUSH1 0x22 DUP4 PUSH2 0x1305 JUMP JUMPDEST SWAP2 POP PUSH2 0x19E7 DUP3 PUSH2 0x1982 JUMP JUMPDEST PUSH1 0x40 DUP3 ADD SWAP1 POP SWAP2 SWAP1 POP JUMP JUMPDEST PUSH0 PUSH1 0x20 DUP3 ADD SWAP1 POP DUP2 DUP2 SUB PUSH0 DUP4 ADD MSTORE PUSH2 0x1A09 DUP2 PUSH2 0x19D0 JUMP JUMPDEST SWAP1 POP SWAP2 SWAP1 POP JUMP JUMPDEST PUSH32 0x4D6178696D616C65205465696C6E65686D65727A61686C206572726569636874 PUSH0 DUP3 ADD MSTORE POP JUMP JUMPDEST PUSH0 PUSH2 0x1A44 PUSH1 0x20 DUP4 PUSH2 0x1305 JUMP JUMPDEST SWAP2 POP PUSH2 0x1A4F DUP3 PUSH2 0x1A10 JUMP JUMPDEST PUSH1 0x20 DUP3 ADD SWAP1 POP SWAP2 SWAP1 POP JUMP JUMPDEST PUSH0 PUSH1 0x20 DUP3 ADD SWAP1 POP DUP2 DUP2 SUB PUSH0 DUP4 ADD MSTORE PUSH2 0x1A71 DUP2 PUSH2 0x1A38 JUMP JUMPDEST SWAP1 POP SWAP2 SWAP1 POP JUMP JUMPDEST PUSH32 0x476577696E6E20777572646520626572656974732065696E67657A61686C7400 PUSH0 DUP3 ADD MSTORE POP JUMP JUMPDEST PUSH0 PUSH2 0x1AAC PUSH1 0x1F DUP4 PUSH2 0x1305 JUMP JUMPDEST SWAP2 POP PUSH2 0x1AB7 DUP3 PUSH2 0x1A78 JUMP JUMPDEST PUSH1 0x20 DUP3 ADD SWAP1 POP SWAP2 SWAP1 POP JUMP JUMPDEST PUSH0 PUSH1 0x20 DUP3 ADD SWAP1 POP DUP2 DUP2 SUB PUSH0 DUP4 ADD MSTORE PUSH2 0x1AD9 DUP2 PUSH2 0x1AA0 JUMP JUMPDEST SWAP1 POP SWAP2 SWAP1 POP JUMP JUMPDEST PUSH0 DUP2 SWAP1 POP SWAP2 SWAP1 POP JUMP JUMPDEST PUSH0 PUSH2 0x1AF3 DUP3 PUSH2 0x1AE0 JUMP JUMPDEST SWAP2 POP PUSH2 0x1AFE DUP4 PUSH2 0x1AE0 JUMP JUMPDEST SWAP3 POP DUP3 DUP3 SUB SWAP1 POP DUP2 DUP2 GT ISZERO PUSH2 0x1B16 JUMPI PUSH2 0x1B15 PUSH2 0x1855 JUMP JUMPDEST JUMPDEST SWAP3 SWAP2 POP POP JUMP JUMPDEST PUSH0 PUSH2 0x1B26 DUP3 PUSH2 0x12C6 JUMP JUMPDEST SWAP2 POP PUSH2 0xFFFF DUP3 SUB PUSH2 0x1B3A JUMPI PUSH2 0x1B39 PUSH2 0x1855 JUMP JUMPDEST JUMPDEST PUSH1 0x1 DUP3 ADD SWAP1 POP SWAP2 SWAP1 POP JUMP JUMPDEST PUSH32 0x4E487B7100000000000000000000000000000000000000000000000000000000 PUSH0 MSTORE PUSH1 0x22 PUSH1 0x4 MSTORE PUSH1 0x24 PUSH0 REVERT JUMPDEST PUSH0 PUSH1 0x2 DUP3 DIV SWAP1 POP PUSH1 0x1 DUP3 AND DUP1 PUSH2 0x1B89 JUMPI PUSH1 0x7F DUP3 AND SWAP2 POP JUMPDEST PUSH1 0x20 DUP3 LT DUP2 SUB PUSH2 0x1B9C JUMPI PUSH2 0x1B9B PUSH2 0x1B45 JUMP JUMPDEST JUMPDEST POP SWAP2 SWAP1 POP JUMP JUMPDEST PUSH32 0x45696E7A61686C756E6773626574726167206D7573732067726F657373657220 PUSH0 DUP3 ADD MSTORE PUSH32 0x616C732030207365696E00000000000000000000000000000000000000000000 PUSH1 0x20 DUP3 ADD MSTORE POP JUMP JUMPDEST PUSH0 PUSH2 0x1BFC PUSH1 0x2A DUP4 PUSH2 0x1305 JUMP JUMPDEST SWAP2 POP PUSH2 0x1C07 DUP3 PUSH2 0x1BA2 JUMP JUMPDEST PUSH1 0x40 DUP3 ADD SWAP1 POP SWAP2 SWAP1 POP JUMP JUMPDEST PUSH0 PUSH1 0x20 DUP3 ADD SWAP1 POP DUP2 DUP2 SUB PUSH0 DUP4 ADD MSTORE PUSH2 0x1C29 DUP2 PUSH2 0x1BF0 JUMP JUMPDEST SWAP1 POP SWAP2 SWAP1 POP JUMP JUMPDEST PUSH32 0x476577696E6E20777572646520626572656974732065696E67657A61686C742E PUSH0 DUP3 ADD MSTORE POP JUMP JUMPDEST PUSH0 PUSH2 0x1C64 PUSH1 0x20 DUP4 PUSH2 0x1305 JUMP JUMPDEST SWAP2 POP PUSH2 0x1C6F DUP3 PUSH2 0x1C30 JUMP JUMPDEST PUSH1 0x20 DUP3 ADD SWAP1 POP SWAP2 SWAP1 POP JUMP JUMPDEST PUSH0 PUSH1 0x20 DUP3 ADD SWAP1 POP DUP2 DUP2 SUB PUSH0 DUP4 ADD MSTORE PUSH2 0x1C91 DUP2 PUSH2 0x1C58 JUMP JUMPDEST SWAP1 POP SWAP2 SWAP1 POP JUMP JUMPDEST PUSH0 PUSH2 0x1CA2 DUP3 PUSH2 0x1145 JUMP JUMPDEST SWAP2 POP PUSH2 0x1CAD DUP4 PUSH2 0x1145 JUMP JUMPDEST SWAP3 POP DUP3 PUSH2 0x1CBD JUMPI PUSH2 0x1CBC PUSH2 0x1828 JUMP JUMPDEST JUMPDEST DUP3 DUP3 DIV SWAP1 POP SWAP3 SWAP2 POP POP JUMP JUMPDEST PUSH32 0x457320676962742062657265697473204D6974737069656C65722E2041656E64 PUSH0 DUP3 ADD MSTORE PUSH32 0x6572756E672064657220416E7A61686C20616E204D6974737069656C65726E20 PUSH1 0x20 DUP3 ADD MSTORE PUSH32 0x6E69636874206D656872206D6F65676C6963682E000000000000000000000000 PUSH1 0x40 DUP3 ADD MSTORE POP JUMP JUMPDEST PUSH0 PUSH2 0x1D48 PUSH1 0x54 DUP4 PUSH2 0x1305 JUMP JUMPDEST SWAP2 POP PUSH2 0x1D53 DUP3 PUSH2 0x1CC8 JUMP JUMPDEST PUSH1 0x60 DUP3 ADD SWAP1 POP SWAP2 SWAP1 POP JUMP JUMPDEST PUSH0 PUSH1 0x20 DUP3 ADD SWAP1 POP DUP2 DUP2 SUB PUSH0 DUP4 ADD MSTORE PUSH2 0x1D75 DUP2 PUSH2 0x1D3C JUMP JUMPDEST SWAP1 POP SWAP2 SWAP1 POP JUMP INVALID LOG2 PUSH5 0x6970667358 0x22 SLT KECCAK256 CALL 0xCA GAS AND PUSH21 0x70BA3D604131284AA72D426DE7FC02545743866DFD SLOAD SWAP1 DUP13 CODESIZE MLOAD 0xA5 PUSH5 0x736F6C6343 STOP ADDMOD OR STOP CALLER "},"gasEstimates":{"creation":{"codeDepositCost":"1520400","executionCost":"infinite","totalCost":"infinite"},"external":{"anzahlMitspielerAendern(uint16)":"29112","anzahlTeilnehmerAktuell()":"2533","auszahlung()":"2490","erlaubteMitspielerAdresseHinzufuegen(address)":"29243","gewinnAusgezahlt(address)":"2922","gewinnAuszahlen()":"infinite","gewinnEinzahlen(uint48)":"infinite","gewinnProMitspieler()":"2585","gruender()":"2616","kannGewinnAbgeholtWerden()":"2561","maxTeilnehmerAnzahl()":"2511","mitmachen()":"infinite","mitspieler(address)":"2878","nurErlaubteMitspieler()":"2539","preisLottoschein()":"2603","preisLottoscheinAendern(uint32)":"29076","preisProMitspieler()":"2607","spielauftragsNummer()":"infinite","tippgemeinschaftsName()":"infinite"}},"methodIdentifiers":{"anzahlMitspielerAendern(uint16)":"e068561a","anzahlTeilnehmerAktuell()":"3babb15a","auszahlung()":"084263f5","erlaubteMitspielerAdresseHinzufuegen(address)":"43767832","gewinnAusgezahlt(address)":"91243239","gewinnAuszahlen()":"0c96b701","gewinnEinzahlen(uint48)":"c6ca9d19","gewinnProMitspieler()":"0f085e50","gruender()":"ad2c046c","kannGewinnAbgeholtWerden()":"b609e684","maxTeilnehmerAnzahl()":"70a41bc0","mitmachen()":"526024ea","mitspieler(address)":"36927060","nurErlaubteMitspieler()":"b08c7076","preisLottoschein()":"3f0f5d51","preisLottoscheinAendern(uint32)":"31c45120","preisProMitspieler()":"2df368a5","spielauftragsNummer()":"8acb4624","tippgemeinschaftsName()":"d27d06c0"}},"storageLayout":{"storage":[{"astId":160,"contract":"Lottogemeinschaft.sol:Lottogemeinschaft","label":"gruender","offset":0,"slot":"0","type":"t_address"},{"astId":162,"contract":"Lottogemeinschaft.sol:Lottogemeinschaft","label":"tippgemeinschaftsName","offset":0,"slot":"1","type":"t_string_storage"},{"astId":164,"contract":"Lottogemeinschaft.sol:Lottogemeinschaft","label":"maxTeilnehmerAnzahl","offset":0,"slot":"2","type":"t_uint16"},{"astId":166,"contract":"Lottogemeinschaft.sol:Lottogemeinschaft","label":"preisLottoschein","offset":2,"slot":"2","type":"t_uint32"},{"astId":168,"contract":"Lottogemeinschaft.sol:Lottogemeinschaft","label":"preisProMitspieler","offset":6,"slot":"2","type":"t_uint32"},{"astId":170,"contract":"Lottogemeinschaft.sol:Lottogemeinschaft","label":"spielauftragsNummer","offset":0,"slot":"3","type":"t_string_storage"},{"astId":172,"contract":"Lottogemeinschaft.sol:Lottogemeinschaft","label":"auszahlung","offset":0,"slot":"4","type":"t_uint48"},{"astId":176,"contract":"Lottogemeinschaft.sol:Lottogemeinschaft","label":"mitspieler","offset":0,"slot":"5","type":"t_mapping(t_address,t_bool)"},{"astId":180,"contract":"Lottogemeinschaft.sol:Lottogemeinschaft","label":"gewinnAusgezahlt","offset":0,"slot":"6","type":"t_mapping(t_address,t_bool)"},{"astId":182,"contract":"Lottogemeinschaft.sol:Lottogemeinschaft","label":"anzahlTeilnehmerAktuell","offset":0,"slot":"7","type":"t_uint16"},{"astId":185,"contract":"Lottogemeinschaft.sol:Lottogemeinschaft","label":"gewinnProMitspieler","offset":2,"slot":"7","type":"t_uint48"},{"astId":188,"contract":"Lottogemeinschaft.sol:Lottogemeinschaft","label":"kannGewinnAbgeholtWerden","offset":8,"slot":"7","type":"t_bool"},{"astId":191,"contract":"Lottogemeinschaft.sol:Lottogemeinschaft","label":"nurErlaubteMitspieler","offset":9,"slot":"7","type":"t_bool"},{"astId":195,"contract":"Lottogemeinschaft.sol:Lottogemeinschaft","label":"erlaubteMitspieler","offset":0,"slot":"8","type":"t_mapping(t_address,t_bool)"},{"astId":197,"contract":"Lottogemeinschaft.sol:Lottogemeinschaft","label":"locked","offset":0,"slot":"9","type":"t_bool"}],"types":{"t_address":{"encoding":"inplace","label":"address","numberOfBytes":"20"},"t_bool":{"encoding":"inplace","label":"bool","numberOfBytes":"1"},"t_mapping(t_address,t_bool)":{"encoding":"mapping","key":"t_address","label":"mapping(address => bool)","numberOfBytes":"32","value":"t_bool"},"t_string_storage":{"encoding":"bytes","label":"string","numberOfBytes":"32"},"t_uint16":{"encoding":"inplace","label":"uint16","numberOfBytes":"2"},"t_uint32":{"encoding":"inplace","label":"uint32","numberOfBytes":"4"},"t_uint48":{"encoding":"inplace","label":"uint48","numberOfBytes":"6"}}},"userdoc":{"kind":"user","methods":{},"version":1}}