{"abi":[{"inputs":[],"name":"getGegruendeteLottogemeinschaften","outputs":[{"internalType":"address payable[]","name":"","type":"address[]"}],"stateMutability":"view","type":"function"},{"inputs":[{"internalType":"string","name":"name","type":"string"},{"internalType":"uint256","name":"anzahl","type":"uint256"},{"internalType":"uint256","name":"preis","type":"uint256"}],"name":"gruendeLottogemeinschaft","outputs":[],"stateMutability":"nonpayable","type":"function"},{"inputs":[{"internalType":"uint256","name":"","type":"uint256"}],"name":"lottogemeinschaften","outputs":[{"internalType":"address payable","name":"","type":"address"}],"stateMutability":"view","type":"function"},{"inputs":[{"internalType":"uint256","name":"","type":"uint256"}],"name":"lottogemeinschaftsnamen","outputs":[{"internalType":"string","name":"","type":"string"}],"stateMutability":"view","type":"function"},{"inputs":[{"internalType":"string","name":"","type":"string"}],"name":"lottogemeinschaftsnamenmapping","outputs":[{"internalType":"address","name":"","type":"address"}],"stateMutability":"view","type":"function"}],"devdoc":{"kind":"dev","methods":{},"version":1},"evm":{"assembly":"    /* \"Lottogemeinschaft.sol\":70:798  contract LottogemeinschaftFabrik{... */\n  mstore(0x40, 0x80)\n  callvalue\n  dup1\n  iszero\n  tag_1\n  jumpi\n  0x00\n  dup1\n  revert\ntag_1:\n  pop\n  dataSize(sub_0)\n  dup1\n  dataOffset(sub_0)\n  0x00\n  codecopy\n  0x00\n  return\nstop\n\nsub_0: assembly {\n        /* \"Lottogemeinschaft.sol\":70:798  contract LottogemeinschaftFabrik{... */\n      mstore(0x40, 0x80)\n      callvalue\n      dup1\n      iszero\n      tag_1\n      jumpi\n      0x00\n      dup1\n      revert\n    tag_1:\n      pop\n      jumpi(tag_2, lt(calldatasize, 0x04))\n      shr(0xe0, calldataload(0x00))\n      dup1\n      0x535da87c\n      eq\n      tag_3\n      jumpi\n      dup1\n      0x95097fe1\n      eq\n      tag_4\n      jumpi\n      dup1\n      0xad6eb6d9\n      eq\n      tag_5\n      jumpi\n      dup1\n      0xfb670056\n      eq\n      tag_6\n      jumpi\n      dup1\n      0xfbc7f11e\n      eq\n      tag_7\n      jumpi\n    tag_2:\n      0x00\n      dup1\n      revert\n        /* \"Lottogemeinschaft.sol\":661:796  function getGegruendeteLottogemeinschaften() public view returns (address payable[] memory) {... */\n    tag_3:\n      tag_8\n      tag_9\n      jump\t// in\n    tag_8:\n      mload(0x40)\n      tag_10\n      swap2\n      swap1\n      tag_11\n      jump\t// in\n    tag_10:\n      mload(0x40)\n      dup1\n      swap2\n      sub\n      swap1\n      return\n        /* \"Lottogemeinschaft.sol\":204:268  mapping(string => address) public lottogemeinschaftsnamenmapping */\n    tag_4:\n      tag_12\n      0x04\n      dup1\n      calldatasize\n      sub\n      dup2\n      add\n      swap1\n      tag_13\n      swap2\n      swap1\n      tag_14\n      jump\t// in\n    tag_13:\n      tag_15\n      jump\t// in\n    tag_12:\n      mload(0x40)\n      tag_16\n      swap2\n      swap1\n      tag_17\n      jump\t// in\n    tag_16:\n      mload(0x40)\n      dup1\n      swap2\n      sub\n      swap1\n      return\n        /* \"Lottogemeinschaft.sol\":159:198  string[] public lottogemeinschaftsnamen */\n    tag_5:\n      tag_18\n      0x04\n      dup1\n      calldatasize\n      sub\n      dup2\n      add\n      swap1\n      tag_19\n      swap2\n      swap1\n      tag_20\n      jump\t// in\n    tag_19:\n      tag_21\n      jump\t// in\n    tag_18:\n      mload(0x40)\n      tag_22\n      swap2\n      swap1\n      tag_23\n      jump\t// in\n    tag_22:\n      mload(0x40)\n      dup1\n      swap2\n      sub\n      swap1\n      return\n        /* \"Lottogemeinschaft.sol\":109:153  address payable[] public lottogemeinschaften */\n    tag_6:\n      tag_24\n      0x04\n      dup1\n      calldatasize\n      sub\n      dup2\n      add\n      swap1\n      tag_25\n      swap2\n      swap1\n      tag_20\n      jump\t// in\n    tag_25:\n      tag_26\n      jump\t// in\n    tag_24:\n      mload(0x40)\n      tag_27\n      swap2\n      swap1\n      tag_28\n      jump\t// in\n    tag_27:\n      mload(0x40)\n      dup1\n      swap2\n      sub\n      swap1\n      return\n        /* \"Lottogemeinschaft.sol\":275:655  function gruendeLottogemeinschaft (string memory name, uint anzahl, uint preis) public {... */\n    tag_7:\n      tag_29\n      0x04\n      dup1\n      calldatasize\n      sub\n      dup2\n      add\n      swap1\n      tag_30\n      swap2\n      swap1\n      tag_31\n      jump\t// in\n    tag_30:\n      tag_32\n      jump\t// in\n    tag_29:\n      stop\n        /* \"Lottogemeinschaft.sol\":661:796  function getGegruendeteLottogemeinschaften() public view returns (address payable[] memory) {... */\n    tag_9:\n        /* \"Lottogemeinschaft.sol\":727:751  address payable[] memory */\n      0x60\n        /* \"Lottogemeinschaft.sol\":770:789  lottogemeinschaften */\n      0x00\n        /* \"Lottogemeinschaft.sol\":763:789  return lottogemeinschaften */\n      dup1\n      sload\n      dup1\n      0x20\n      mul\n      0x20\n      add\n      mload(0x40)\n      swap1\n      dup2\n      add\n      0x40\n      mstore\n      dup1\n      swap3\n      swap2\n      swap1\n      dup2\n      dup2\n      mstore\n      0x20\n      add\n      dup3\n      dup1\n      sload\n      dup1\n      iszero\n      tag_34\n      jumpi\n      0x20\n      mul\n      dup3\n      add\n      swap2\n      swap1\n      0x00\n      mstore\n      keccak256(0x00, 0x20)\n      swap1\n    tag_35:\n      dup2\n      0x00\n      swap1\n      sload\n      swap1\n      0x0100\n      exp\n      swap1\n      div\n      0xffffffffffffffffffffffffffffffffffffffff\n      and\n      0xffffffffffffffffffffffffffffffffffffffff\n      and\n      dup2\n      mstore\n      0x20\n      add\n      swap1\n      0x01\n      add\n      swap1\n      dup1\n      dup4\n      gt\n      tag_35\n      jumpi\n    tag_34:\n      pop\n      pop\n      pop\n      pop\n      pop\n      swap1\n      pop\n        /* \"Lottogemeinschaft.sol\":661:796  function getGegruendeteLottogemeinschaften() public view returns (address payable[] memory) {... */\n      swap1\n      jump\t// out\n        /* \"Lottogemeinschaft.sol\":204:268  mapping(string => address) public lottogemeinschaftsnamenmapping */\n    tag_15:\n      0x02\n      dup2\n      dup1\n      mload\n      0x20\n      dup2\n      add\n      dup3\n      add\n      dup1\n      mload\n      dup5\n      dup3\n      mstore\n      0x20\n      dup4\n      add\n      0x20\n      dup6\n      add\n      keccak256\n      dup2\n      dup4\n      mstore\n      dup1\n      swap6\n      pop\n      pop\n      pop\n      pop\n      pop\n      pop\n      0x00\n      swap2\n      pop\n      sload\n      swap1\n      0x0100\n      exp\n      swap1\n      div\n      0xffffffffffffffffffffffffffffffffffffffff\n      and\n      dup2\n      jump\t// out\n        /* \"Lottogemeinschaft.sol\":159:198  string[] public lottogemeinschaftsnamen */\n    tag_21:\n      0x01\n      dup2\n      dup2\n      sload\n      dup2\n      lt\n      tag_36\n      jumpi\n      0x00\n      dup1\n      revert\n    tag_36:\n      swap1\n      0x00\n      mstore\n      keccak256(0x00, 0x20)\n      add\n      0x00\n      swap2\n      pop\n      swap1\n      pop\n      dup1\n      sload\n      tag_38\n      swap1\n      tag_39\n      jump\t// in\n    tag_38:\n      dup1\n      0x1f\n      add\n      0x20\n      dup1\n      swap2\n      div\n      mul\n      0x20\n      add\n      mload(0x40)\n      swap1\n      dup2\n      add\n      0x40\n      mstore\n      dup1\n      swap3\n      swap2\n      swap1\n      dup2\n      dup2\n      mstore\n      0x20\n      add\n      dup3\n      dup1\n      sload\n      tag_40\n      swap1\n      tag_39\n      jump\t// in\n    tag_40:\n      dup1\n      iszero\n      tag_41\n      jumpi\n      dup1\n      0x1f\n      lt\n      tag_42\n      jumpi\n      0x0100\n      dup1\n      dup4\n      sload\n      div\n      mul\n      dup4\n      mstore\n      swap2\n      0x20\n      add\n      swap2\n      jump(tag_41)\n    tag_42:\n      dup3\n      add\n      swap2\n      swap1\n      0x00\n      mstore\n      keccak256(0x00, 0x20)\n      swap1\n    tag_43:\n      dup2\n      sload\n      dup2\n      mstore\n      swap1\n      0x01\n      add\n      swap1\n      0x20\n      add\n      dup1\n      dup4\n      gt\n      tag_43\n      jumpi\n      dup3\n      swap1\n      sub\n      0x1f\n      and\n      dup3\n      add\n      swap2\n    tag_41:\n      pop\n      pop\n      pop\n      pop\n      pop\n      dup2\n      jump\t// out\n        /* \"Lottogemeinschaft.sol\":109:153  address payable[] public lottogemeinschaften */\n    tag_26:\n      0x00\n      dup2\n      dup2\n      sload\n      dup2\n      lt\n      tag_44\n      jumpi\n      0x00\n      dup1\n      revert\n    tag_44:\n      swap1\n      0x00\n      mstore\n      keccak256(0x00, 0x20)\n      add\n      0x00\n      swap2\n      pop\n      sload\n      swap1\n      0x0100\n      exp\n      swap1\n      div\n      0xffffffffffffffffffffffffffffffffffffffff\n      and\n      dup2\n      jump\t// out\n        /* \"Lottogemeinschaft.sol\":275:655  function gruendeLottogemeinschaft (string memory name, uint anzahl, uint preis) public {... */\n    tag_32:\n        /* \"Lottogemeinschaft.sol\":372:401  address neueLottogemeinschaft */\n      0x00\n        /* \"Lottogemeinschaft.sol\":435:439  name */\n      dup4\n        /* \"Lottogemeinschaft.sol\":441:451  msg.sender */\n      caller\n        /* \"Lottogemeinschaft.sol\":453:459  anzahl */\n      dup5\n        /* \"Lottogemeinschaft.sol\":461:466  preis */\n      dup5\n        /* \"Lottogemeinschaft.sol\":413:467  new Lottogemeinschaft(name, msg.sender, anzahl, preis) */\n      mload(0x40)\n      tag_47\n      swap1\n      tag_48\n      jump\t// in\n    tag_47:\n      tag_49\n      swap5\n      swap4\n      swap3\n      swap2\n      swap1\n      tag_50\n      jump\t// in\n    tag_49:\n      mload(0x40)\n      dup1\n      swap2\n      sub\n      swap1\n      0x00\n      create\n      dup1\n      iszero\n      dup1\n      iszero\n      tag_51\n      jumpi\n      returndatasize\n      0x00\n      dup1\n      returndatacopy\n      revert(0x00, returndatasize)\n    tag_51:\n      pop\n        /* \"Lottogemeinschaft.sol\":372:468  address neueLottogemeinschaft = address( new Lottogemeinschaft(name, msg.sender, anzahl, preis)) */\n      swap1\n      pop\n        /* \"Lottogemeinschaft.sol\":478:497  lottogemeinschaften */\n      0x00\n        /* \"Lottogemeinschaft.sol\":511:532  neueLottogemeinschaft */\n      dup2\n        /* \"Lottogemeinschaft.sol\":478:534  lottogemeinschaften.push(payable(neueLottogemeinschaft)) */\n      swap1\n      dup1\n      0x01\n      dup2\n      sload\n      add\n      dup1\n      dup3\n      sstore\n      dup1\n      swap2\n      pop\n      pop\n      0x01\n      swap1\n      sub\n      swap1\n      0x00\n      mstore\n      keccak256(0x00, 0x20)\n      add\n      0x00\n      swap1\n      swap2\n      swap1\n      swap2\n      swap1\n      swap2\n      0x0100\n      exp\n      dup2\n      sload\n      dup2\n      0xffffffffffffffffffffffffffffffffffffffff\n      mul\n      not\n      and\n      swap1\n      dup4\n      0xffffffffffffffffffffffffffffffffffffffff\n      and\n      mul\n      or\n      swap1\n      sstore\n      pop\n        /* \"Lottogemeinschaft.sol\":544:567  lottogemeinschaftsnamen */\n      0x01\n        /* \"Lottogemeinschaft.sol\":573:577  name */\n      dup5\n        /* \"Lottogemeinschaft.sol\":544:578  lottogemeinschaftsnamen.push(name) */\n      swap1\n      dup1\n      0x01\n      dup2\n      sload\n      add\n      dup1\n      dup3\n      sstore\n      dup1\n      swap2\n      pop\n      pop\n      0x01\n      swap1\n      sub\n      swap1\n      0x00\n      mstore\n      keccak256(0x00, 0x20)\n      add\n      0x00\n      swap1\n      swap2\n      swap1\n      swap2\n      swap1\n      swap2\n      pop\n      swap1\n      dup2\n      tag_54\n      swap2\n      swap1\n      tag_55\n      jump\t// in\n    tag_54:\n      pop\n        /* \"Lottogemeinschaft.sol\":627:648  neueLottogemeinschaft */\n      dup1\n        /* \"Lottogemeinschaft.sol\":588:618  lottogemeinschaftsnamenmapping */\n      0x02\n        /* \"Lottogemeinschaft.sol\":619:623  name */\n      dup6\n        /* \"Lottogemeinschaft.sol\":588:624  lottogemeinschaftsnamenmapping[name] */\n      mload(0x40)\n      tag_56\n      swap2\n      swap1\n      tag_57\n      jump\t// in\n    tag_56:\n      swap1\n      dup2\n      mstore\n      0x20\n      add\n      mload(0x40)\n      dup1\n      swap2\n      sub\n      swap1\n      keccak256\n      0x00\n        /* \"Lottogemeinschaft.sol\":588:648  lottogemeinschaftsnamenmapping[name] = neueLottogemeinschaft */\n      0x0100\n      exp\n      dup2\n      sload\n      dup2\n      0xffffffffffffffffffffffffffffffffffffffff\n      mul\n      not\n      and\n      swap1\n      dup4\n      0xffffffffffffffffffffffffffffffffffffffff\n      and\n      mul\n      or\n      swap1\n      sstore\n      pop\n        /* \"Lottogemeinschaft.sol\":362:655  {... */\n      pop\n        /* \"Lottogemeinschaft.sol\":275:655  function gruendeLottogemeinschaft (string memory name, uint anzahl, uint preis) public {... */\n      pop\n      pop\n      pop\n      jump\t// out\n    tag_48:\n      dataSize(sub_0)\n      dup1\n      dataOffset(sub_0)\n      dup4\n      codecopy\n      add\n      swap1\n      jump\t// out\n        /* \"#utility.yul\":7:129   */\n    tag_58:\n        /* \"#utility.yul\":82:88   */\n      0x00\n        /* \"#utility.yul\":116:121   */\n      dup2\n        /* \"#utility.yul\":110:122   */\n      mload\n        /* \"#utility.yul\":100:122   */\n      swap1\n      pop\n        /* \"#utility.yul\":7:129   */\n      swap2\n      swap1\n      pop\n      jump\t// out\n        /* \"#utility.yul\":135:327   */\n    tag_59:\n        /* \"#utility.yul\":242:253   */\n      0x00\n        /* \"#utility.yul\":276:282   */\n      dup3\n        /* \"#utility.yul\":271:274   */\n      dup3\n        /* \"#utility.yul\":264:283   */\n      mstore\n        /* \"#utility.yul\":316:320   */\n      0x20\n        /* \"#utility.yul\":311:314   */\n      dup3\n        /* \"#utility.yul\":307:321   */\n      add\n        /* \"#utility.yul\":292:321   */\n      swap1\n      pop\n        /* \"#utility.yul\":135:327   */\n      swap3\n      swap2\n      pop\n      pop\n      jump\t// out\n        /* \"#utility.yul\":333:473   */\n    tag_60:\n        /* \"#utility.yul\":408:412   */\n      0x00\n        /* \"#utility.yul\":431:434   */\n      dup2\n        /* \"#utility.yul\":423:434   */\n      swap1\n      pop\n        /* \"#utility.yul\":461:465   */\n      0x20\n        /* \"#utility.yul\":456:459   */\n      dup3\n        /* \"#utility.yul\":452:466   */\n      add\n        /* \"#utility.yul\":444:466   */\n      swap1\n      pop\n        /* \"#utility.yul\":333:473   */\n      swap2\n      swap1\n      pop\n      jump\t// out\n        /* \"#utility.yul\":479:605   */\n    tag_61:\n        /* \"#utility.yul\":516:523   */\n      0x00\n        /* \"#utility.yul\":556:598   */\n      0xffffffffffffffffffffffffffffffffffffffff\n        /* \"#utility.yul\":549:554   */\n      dup3\n        /* \"#utility.yul\":545:599   */\n      and\n        /* \"#utility.yul\":534:599   */\n      swap1\n      pop\n        /* \"#utility.yul\":479:605   */\n      swap2\n      swap1\n      pop\n      jump\t// out\n        /* \"#utility.yul\":611:715   */\n    tag_62:\n        /* \"#utility.yul\":656:663   */\n      0x00\n        /* \"#utility.yul\":685:709   */\n      tag_115\n        /* \"#utility.yul\":703:708   */\n      dup3\n        /* \"#utility.yul\":685:709   */\n      tag_61\n      jump\t// in\n    tag_115:\n        /* \"#utility.yul\":674:709   */\n      swap1\n      pop\n        /* \"#utility.yul\":611:715   */\n      swap2\n      swap1\n      pop\n      jump\t// out\n        /* \"#utility.yul\":721:853   */\n    tag_63:\n        /* \"#utility.yul\":814:846   */\n      tag_117\n        /* \"#utility.yul\":840:845   */\n      dup2\n        /* \"#utility.yul\":814:846   */\n      tag_62\n      jump\t// in\n    tag_117:\n        /* \"#utility.yul\":809:812   */\n      dup3\n        /* \"#utility.yul\":802:847   */\n      mstore\n        /* \"#utility.yul\":721:853   */\n      pop\n      pop\n      jump\t// out\n        /* \"#utility.yul\":859:1070   */\n    tag_64:\n        /* \"#utility.yul\":944:954   */\n      0x00\n        /* \"#utility.yul\":965:1027   */\n      tag_119\n        /* \"#utility.yul\":1023:1026   */\n      dup4\n        /* \"#utility.yul\":1015:1021   */\n      dup4\n        /* \"#utility.yul\":965:1027   */\n      tag_63\n      jump\t// in\n    tag_119:\n        /* \"#utility.yul\":1059:1063   */\n      0x20\n        /* \"#utility.yul\":1054:1057   */\n      dup4\n        /* \"#utility.yul\":1050:1064   */\n      add\n        /* \"#utility.yul\":1036:1064   */\n      swap1\n      pop\n        /* \"#utility.yul\":859:1070   */\n      swap3\n      swap2\n      pop\n      pop\n      jump\t// out\n        /* \"#utility.yul\":1076:1197   */\n    tag_65:\n        /* \"#utility.yul\":1154:1158   */\n      0x00\n        /* \"#utility.yul\":1186:1190   */\n      0x20\n        /* \"#utility.yul\":1181:1184   */\n      dup3\n        /* \"#utility.yul\":1177:1191   */\n      add\n        /* \"#utility.yul\":1169:1191   */\n      swap1\n      pop\n        /* \"#utility.yul\":1076:1197   */\n      swap2\n      swap1\n      pop\n      jump\t// out\n        /* \"#utility.yul\":1249:2045   */\n    tag_66:\n        /* \"#utility.yul\":1384:1387   */\n      0x00\n        /* \"#utility.yul\":1413:1475   */\n      tag_122\n        /* \"#utility.yul\":1469:1474   */\n      dup3\n        /* \"#utility.yul\":1413:1475   */\n      tag_58\n      jump\t// in\n    tag_122:\n        /* \"#utility.yul\":1491:1585   */\n      tag_123\n        /* \"#utility.yul\":1578:1584   */\n      dup2\n        /* \"#utility.yul\":1573:1576   */\n      dup6\n        /* \"#utility.yul\":1491:1585   */\n      tag_59\n      jump\t// in\n    tag_123:\n        /* \"#utility.yul\":1484:1585   */\n      swap4\n      pop\n        /* \"#utility.yul\":1609:1673   */\n      tag_124\n        /* \"#utility.yul\":1667:1672   */\n      dup4\n        /* \"#utility.yul\":1609:1673   */\n      tag_60\n      jump\t// in\n    tag_124:\n        /* \"#utility.yul\":1696:1703   */\n      dup1\n        /* \"#utility.yul\":1727:1728   */\n      0x00\n        /* \"#utility.yul\":1712:2020   */\n    tag_125:\n        /* \"#utility.yul\":1737:1743   */\n      dup4\n        /* \"#utility.yul\":1734:1735   */\n      dup2\n        /* \"#utility.yul\":1731:1744   */\n      lt\n        /* \"#utility.yul\":1712:2020   */\n      iszero\n      tag_127\n      jumpi\n        /* \"#utility.yul\":1813:1819   */\n      dup2\n        /* \"#utility.yul\":1807:1820   */\n      mload\n        /* \"#utility.yul\":1840:1919   */\n      tag_128\n        /* \"#utility.yul\":1915:1918   */\n      dup9\n        /* \"#utility.yul\":1900:1913   */\n      dup3\n        /* \"#utility.yul\":1840:1919   */\n      tag_64\n      jump\t// in\n    tag_128:\n        /* \"#utility.yul\":1833:1919   */\n      swap8\n      pop\n        /* \"#utility.yul\":1942:2010   */\n      tag_129\n        /* \"#utility.yul\":2003:2009   */\n      dup4\n        /* \"#utility.yul\":1942:2010   */\n      tag_65\n      jump\t// in\n    tag_129:\n        /* \"#utility.yul\":1932:2010   */\n      swap3\n      pop\n        /* \"#utility.yul\":1772:2020   */\n      pop\n        /* \"#utility.yul\":1759:1760   */\n      0x01\n        /* \"#utility.yul\":1756:1757   */\n      dup2\n        /* \"#utility.yul\":1752:1761   */\n      add\n        /* \"#utility.yul\":1747:1761   */\n      swap1\n      pop\n        /* \"#utility.yul\":1712:2020   */\n      jump(tag_125)\n    tag_127:\n        /* \"#utility.yul\":1716:1730   */\n      pop\n        /* \"#utility.yul\":2036:2039   */\n      dup6\n        /* \"#utility.yul\":2029:2039   */\n      swap4\n      pop\n        /* \"#utility.yul\":1389:2045   */\n      pop\n      pop\n      pop\n        /* \"#utility.yul\":1249:2045   */\n      swap3\n      swap2\n      pop\n      pop\n      jump\t// out\n        /* \"#utility.yul\":2051:2456   */\n    tag_11:\n        /* \"#utility.yul\":2210:2214   */\n      0x00\n        /* \"#utility.yul\":2248:2250   */\n      0x20\n        /* \"#utility.yul\":2237:2246   */\n      dup3\n        /* \"#utility.yul\":2233:2251   */\n      add\n        /* \"#utility.yul\":2225:2251   */\n      swap1\n      pop\n        /* \"#utility.yul\":2297:2306   */\n      dup2\n        /* \"#utility.yul\":2291:2295   */\n      dup2\n        /* \"#utility.yul\":2287:2307   */\n      sub\n        /* \"#utility.yul\":2283:2284   */\n      0x00\n        /* \"#utility.yul\":2272:2281   */\n      dup4\n        /* \"#utility.yul\":2268:2285   */\n      add\n        /* \"#utility.yul\":2261:2308   */\n      mstore\n        /* \"#utility.yul\":2325:2449   */\n      tag_131\n        /* \"#utility.yul\":2444:2448   */\n      dup2\n        /* \"#utility.yul\":2435:2441   */\n      dup5\n        /* \"#utility.yul\":2325:2449   */\n      tag_66\n      jump\t// in\n    tag_131:\n        /* \"#utility.yul\":2317:2449   */\n      swap1\n      pop\n        /* \"#utility.yul\":2051:2456   */\n      swap3\n      swap2\n      pop\n      pop\n      jump\t// out\n        /* \"#utility.yul\":2462:2537   */\n    tag_67:\n        /* \"#utility.yul\":2495:2501   */\n      0x00\n        /* \"#utility.yul\":2528:2530   */\n      0x40\n        /* \"#utility.yul\":2522:2531   */\n      mload\n        /* \"#utility.yul\":2512:2531   */\n      swap1\n      pop\n        /* \"#utility.yul\":2462:2537   */\n      swap1\n      jump\t// out\n        /* \"#utility.yul\":2543:2660   */\n    tag_68:\n        /* \"#utility.yul\":2652:2653   */\n      0x00\n        /* \"#utility.yul\":2649:2650   */\n      dup1\n        /* \"#utility.yul\":2642:2654   */\n      revert\n        /* \"#utility.yul\":2666:2783   */\n    tag_69:\n        /* \"#utility.yul\":2775:2776   */\n      0x00\n        /* \"#utility.yul\":2772:2773   */\n      dup1\n        /* \"#utility.yul\":2765:2777   */\n      revert\n        /* \"#utility.yul\":2789:2906   */\n    tag_70:\n        /* \"#utility.yul\":2898:2899   */\n      0x00\n        /* \"#utility.yul\":2895:2896   */\n      dup1\n        /* \"#utility.yul\":2888:2900   */\n      revert\n        /* \"#utility.yul\":2912:3029   */\n    tag_71:\n        /* \"#utility.yul\":3021:3022   */\n      0x00\n        /* \"#utility.yul\":3018:3019   */\n      dup1\n        /* \"#utility.yul\":3011:3023   */\n      revert\n        /* \"#utility.yul\":3035:3137   */\n    tag_72:\n        /* \"#utility.yul\":3076:3082   */\n      0x00\n        /* \"#utility.yul\":3127:3129   */\n      0x1f\n        /* \"#utility.yul\":3123:3130   */\n      not\n        /* \"#utility.yul\":3118:3120   */\n      0x1f\n        /* \"#utility.yul\":3111:3116   */\n      dup4\n        /* \"#utility.yul\":3107:3121   */\n      add\n        /* \"#utility.yul\":3103:3131   */\n      and\n        /* \"#utility.yul\":3093:3131   */\n      swap1\n      pop\n        /* \"#utility.yul\":3035:3137   */\n      swap2\n      swap1\n      pop\n      jump\t// out\n        /* \"#utility.yul\":3143:3323   */\n    tag_73:\n        /* \"#utility.yul\":3191:3268   */\n      0x4e487b7100000000000000000000000000000000000000000000000000000000\n        /* \"#utility.yul\":3188:3189   */\n      0x00\n        /* \"#utility.yul\":3181:3269   */\n      mstore\n        /* \"#utility.yul\":3288:3292   */\n      0x41\n        /* \"#utility.yul\":3285:3286   */\n      0x04\n        /* \"#utility.yul\":3278:3293   */\n      mstore\n        /* \"#utility.yul\":3312:3316   */\n      0x24\n        /* \"#utility.yul\":3309:3310   */\n      0x00\n        /* \"#utility.yul\":3302:3317   */\n      revert\n        /* \"#utility.yul\":3329:3610   */\n    tag_74:\n        /* \"#utility.yul\":3412:3439   */\n      tag_140\n        /* \"#utility.yul\":3434:3438   */\n      dup3\n        /* \"#utility.yul\":3412:3439   */\n      tag_72\n      jump\t// in\n    tag_140:\n        /* \"#utility.yul\":3404:3410   */\n      dup2\n        /* \"#utility.yul\":3400:3440   */\n      add\n        /* \"#utility.yul\":3542:3548   */\n      dup2\n        /* \"#utility.yul\":3530:3540   */\n      dup2\n        /* \"#utility.yul\":3527:3549   */\n      lt\n        /* \"#utility.yul\":3506:3524   */\n      0xffffffffffffffff\n        /* \"#utility.yul\":3494:3504   */\n      dup3\n        /* \"#utility.yul\":3491:3525   */\n      gt\n        /* \"#utility.yul\":3488:3550   */\n      or\n        /* \"#utility.yul\":3485:3573   */\n      iszero\n      tag_141\n      jumpi\n        /* \"#utility.yul\":3553:3571   */\n      tag_142\n      tag_73\n      jump\t// in\n    tag_142:\n        /* \"#utility.yul\":3485:3573   */\n    tag_141:\n        /* \"#utility.yul\":3593:3603   */\n      dup1\n        /* \"#utility.yul\":3589:3591   */\n      0x40\n        /* \"#utility.yul\":3582:3604   */\n      mstore\n        /* \"#utility.yul\":3372:3610   */\n      pop\n        /* \"#utility.yul\":3329:3610   */\n      pop\n      pop\n      jump\t// out\n        /* \"#utility.yul\":3616:3745   */\n    tag_75:\n        /* \"#utility.yul\":3650:3656   */\n      0x00\n        /* \"#utility.yul\":3677:3697   */\n      tag_144\n      tag_67\n      jump\t// in\n    tag_144:\n        /* \"#utility.yul\":3667:3697   */\n      swap1\n      pop\n        /* \"#utility.yul\":3706:3739   */\n      tag_145\n        /* \"#utility.yul\":3734:3738   */\n      dup3\n        /* \"#utility.yul\":3726:3732   */\n      dup3\n        /* \"#utility.yul\":3706:3739   */\n      tag_74\n      jump\t// in\n    tag_145:\n        /* \"#utility.yul\":3616:3745   */\n      swap2\n      swap1\n      pop\n      jump\t// out\n        /* \"#utility.yul\":3751:4059   */\n    tag_76:\n        /* \"#utility.yul\":3813:3817   */\n      0x00\n        /* \"#utility.yul\":3903:3921   */\n      0xffffffffffffffff\n        /* \"#utility.yul\":3895:3901   */\n      dup3\n        /* \"#utility.yul\":3892:3922   */\n      gt\n        /* \"#utility.yul\":3889:3945   */\n      iszero\n      tag_147\n      jumpi\n        /* \"#utility.yul\":3925:3943   */\n      tag_148\n      tag_73\n      jump\t// in\n    tag_148:\n        /* \"#utility.yul\":3889:3945   */\n    tag_147:\n        /* \"#utility.yul\":3963:3992   */\n      tag_149\n        /* \"#utility.yul\":3985:3991   */\n      dup3\n        /* \"#utility.yul\":3963:3992   */\n      tag_72\n      jump\t// in\n    tag_149:\n        /* \"#utility.yul\":3955:3992   */\n      swap1\n      pop\n        /* \"#utility.yul\":4047:4051   */\n      0x20\n        /* \"#utility.yul\":4041:4045   */\n      dup2\n        /* \"#utility.yul\":4037:4052   */\n      add\n        /* \"#utility.yul\":4029:4052   */\n      swap1\n      pop\n        /* \"#utility.yul\":3751:4059   */\n      swap2\n      swap1\n      pop\n      jump\t// out\n        /* \"#utility.yul\":4065:4211   */\n    tag_77:\n        /* \"#utility.yul\":4162:4168   */\n      dup3\n        /* \"#utility.yul\":4157:4160   */\n      dup2\n        /* \"#utility.yul\":4152:4155   */\n      dup4\n        /* \"#utility.yul\":4139:4169   */\n      calldatacopy\n        /* \"#utility.yul\":4203:4204   */\n      0x00\n        /* \"#utility.yul\":4194:4200   */\n      dup4\n        /* \"#utility.yul\":4189:4192   */\n      dup4\n        /* \"#utility.yul\":4185:4201   */\n      add\n        /* \"#utility.yul\":4178:4205   */\n      mstore\n        /* \"#utility.yul\":4065:4211   */\n      pop\n      pop\n      pop\n      jump\t// out\n        /* \"#utility.yul\":4217:4642   */\n    tag_78:\n        /* \"#utility.yul\":4295:4300   */\n      0x00\n        /* \"#utility.yul\":4320:4386   */\n      tag_152\n        /* \"#utility.yul\":4336:4385   */\n      tag_153\n        /* \"#utility.yul\":4378:4384   */\n      dup5\n        /* \"#utility.yul\":4336:4385   */\n      tag_76\n      jump\t// in\n    tag_153:\n        /* \"#utility.yul\":4320:4386   */\n      tag_75\n      jump\t// in\n    tag_152:\n        /* \"#utility.yul\":4311:4386   */\n      swap1\n      pop\n        /* \"#utility.yul\":4409:4415   */\n      dup3\n        /* \"#utility.yul\":4402:4407   */\n      dup2\n        /* \"#utility.yul\":4395:4416   */\n      mstore\n        /* \"#utility.yul\":4447:4451   */\n      0x20\n        /* \"#utility.yul\":4440:4445   */\n      dup2\n        /* \"#utility.yul\":4436:4452   */\n      add\n        /* \"#utility.yul\":4485:4488   */\n      dup5\n        /* \"#utility.yul\":4476:4482   */\n      dup5\n        /* \"#utility.yul\":4471:4474   */\n      dup5\n        /* \"#utility.yul\":4467:4483   */\n      add\n        /* \"#utility.yul\":4464:4489   */\n      gt\n        /* \"#utility.yul\":4461:4573   */\n      iszero\n      tag_154\n      jumpi\n        /* \"#utility.yul\":4492:4571   */\n      tag_155\n      tag_71\n      jump\t// in\n    tag_155:\n        /* \"#utility.yul\":4461:4573   */\n    tag_154:\n        /* \"#utility.yul\":4582:4636   */\n      tag_156\n        /* \"#utility.yul\":4629:4635   */\n      dup5\n        /* \"#utility.yul\":4624:4627   */\n      dup3\n        /* \"#utility.yul\":4619:4622   */\n      dup6\n        /* \"#utility.yul\":4582:4636   */\n      tag_77\n      jump\t// in\n    tag_156:\n        /* \"#utility.yul\":4301:4642   */\n      pop\n        /* \"#utility.yul\":4217:4642   */\n      swap4\n      swap3\n      pop\n      pop\n      pop\n      jump\t// out\n        /* \"#utility.yul\":4662:5002   */\n    tag_79:\n        /* \"#utility.yul\":4718:4723   */\n      0x00\n        /* \"#utility.yul\":4767:4770   */\n      dup3\n        /* \"#utility.yul\":4760:4764   */\n      0x1f\n        /* \"#utility.yul\":4752:4758   */\n      dup4\n        /* \"#utility.yul\":4748:4765   */\n      add\n        /* \"#utility.yul\":4744:4771   */\n      slt\n        /* \"#utility.yul\":4734:4856   */\n      tag_158\n      jumpi\n        /* \"#utility.yul\":4775:4854   */\n      tag_159\n      tag_70\n      jump\t// in\n    tag_159:\n        /* \"#utility.yul\":4734:4856   */\n    tag_158:\n        /* \"#utility.yul\":4892:4898   */\n      dup2\n        /* \"#utility.yul\":4879:4899   */\n      calldataload\n        /* \"#utility.yul\":4917:4996   */\n      tag_160\n        /* \"#utility.yul\":4992:4995   */\n      dup5\n        /* \"#utility.yul\":4984:4990   */\n      dup3\n        /* \"#utility.yul\":4977:4981   */\n      0x20\n        /* \"#utility.yul\":4969:4975   */\n      dup7\n        /* \"#utility.yul\":4965:4982   */\n      add\n        /* \"#utility.yul\":4917:4996   */\n      tag_78\n      jump\t// in\n    tag_160:\n        /* \"#utility.yul\":4908:4996   */\n      swap2\n      pop\n        /* \"#utility.yul\":4724:5002   */\n      pop\n        /* \"#utility.yul\":4662:5002   */\n      swap3\n      swap2\n      pop\n      pop\n      jump\t// out\n        /* \"#utility.yul\":5008:5517   */\n    tag_14:\n        /* \"#utility.yul\":5077:5083   */\n      0x00\n        /* \"#utility.yul\":5126:5128   */\n      0x20\n        /* \"#utility.yul\":5114:5123   */\n      dup3\n        /* \"#utility.yul\":5105:5112   */\n      dup5\n        /* \"#utility.yul\":5101:5124   */\n      sub\n        /* \"#utility.yul\":5097:5129   */\n      slt\n        /* \"#utility.yul\":5094:5213   */\n      iszero\n      tag_162\n      jumpi\n        /* \"#utility.yul\":5132:5211   */\n      tag_163\n      tag_68\n      jump\t// in\n    tag_163:\n        /* \"#utility.yul\":5094:5213   */\n    tag_162:\n        /* \"#utility.yul\":5280:5281   */\n      0x00\n        /* \"#utility.yul\":5269:5278   */\n      dup3\n        /* \"#utility.yul\":5265:5282   */\n      add\n        /* \"#utility.yul\":5252:5283   */\n      calldataload\n        /* \"#utility.yul\":5310:5328   */\n      0xffffffffffffffff\n        /* \"#utility.yul\":5302:5308   */\n      dup2\n        /* \"#utility.yul\":5299:5329   */\n      gt\n        /* \"#utility.yul\":5296:5413   */\n      iszero\n      tag_164\n      jumpi\n        /* \"#utility.yul\":5332:5411   */\n      tag_165\n      tag_69\n      jump\t// in\n    tag_165:\n        /* \"#utility.yul\":5296:5413   */\n    tag_164:\n        /* \"#utility.yul\":5437:5500   */\n      tag_166\n        /* \"#utility.yul\":5492:5499   */\n      dup5\n        /* \"#utility.yul\":5483:5489   */\n      dup3\n        /* \"#utility.yul\":5472:5481   */\n      dup6\n        /* \"#utility.yul\":5468:5490   */\n      add\n        /* \"#utility.yul\":5437:5500   */\n      tag_79\n      jump\t// in\n    tag_166:\n        /* \"#utility.yul\":5427:5500   */\n      swap2\n      pop\n        /* \"#utility.yul\":5223:5510   */\n      pop\n        /* \"#utility.yul\":5008:5517   */\n      swap3\n      swap2\n      pop\n      pop\n      jump\t// out\n        /* \"#utility.yul\":5523:5619   */\n    tag_80:\n        /* \"#utility.yul\":5560:5567   */\n      0x00\n        /* \"#utility.yul\":5589:5613   */\n      tag_168\n        /* \"#utility.yul\":5607:5612   */\n      dup3\n        /* \"#utility.yul\":5589:5613   */\n      tag_61\n      jump\t// in\n    tag_168:\n        /* \"#utility.yul\":5578:5613   */\n      swap1\n      pop\n        /* \"#utility.yul\":5523:5619   */\n      swap2\n      swap1\n      pop\n      jump\t// out\n        /* \"#utility.yul\":5625:5743   */\n    tag_81:\n        /* \"#utility.yul\":5712:5736   */\n      tag_170\n        /* \"#utility.yul\":5730:5735   */\n      dup2\n        /* \"#utility.yul\":5712:5736   */\n      tag_80\n      jump\t// in\n    tag_170:\n        /* \"#utility.yul\":5707:5710   */\n      dup3\n        /* \"#utility.yul\":5700:5737   */\n      mstore\n        /* \"#utility.yul\":5625:5743   */\n      pop\n      pop\n      jump\t// out\n        /* \"#utility.yul\":5749:5971   */\n    tag_17:\n        /* \"#utility.yul\":5842:5846   */\n      0x00\n        /* \"#utility.yul\":5880:5882   */\n      0x20\n        /* \"#utility.yul\":5869:5878   */\n      dup3\n        /* \"#utility.yul\":5865:5883   */\n      add\n        /* \"#utility.yul\":5857:5883   */\n      swap1\n      pop\n        /* \"#utility.yul\":5893:5964   */\n      tag_172\n        /* \"#utility.yul\":5961:5962   */\n      0x00\n        /* \"#utility.yul\":5950:5959   */\n      dup4\n        /* \"#utility.yul\":5946:5963   */\n      add\n        /* \"#utility.yul\":5937:5943   */\n      dup5\n        /* \"#utility.yul\":5893:5964   */\n      tag_81\n      jump\t// in\n    tag_172:\n        /* \"#utility.yul\":5749:5971   */\n      swap3\n      swap2\n      pop\n      pop\n      jump\t// out\n        /* \"#utility.yul\":5977:6054   */\n    tag_82:\n        /* \"#utility.yul\":6014:6021   */\n      0x00\n        /* \"#utility.yul\":6043:6048   */\n      dup2\n        /* \"#utility.yul\":6032:6048   */\n      swap1\n      pop\n        /* \"#utility.yul\":5977:6054   */\n      swap2\n      swap1\n      pop\n      jump\t// out\n        /* \"#utility.yul\":6060:6182   */\n    tag_83:\n        /* \"#utility.yul\":6133:6157   */\n      tag_175\n        /* \"#utility.yul\":6151:6156   */\n      dup2\n        /* \"#utility.yul\":6133:6157   */\n      tag_82\n      jump\t// in\n    tag_175:\n        /* \"#utility.yul\":6126:6131   */\n      dup2\n        /* \"#utility.yul\":6123:6158   */\n      eq\n        /* \"#utility.yul\":6113:6176   */\n      tag_176\n      jumpi\n        /* \"#utility.yul\":6172:6173   */\n      0x00\n        /* \"#utility.yul\":6169:6170   */\n      dup1\n        /* \"#utility.yul\":6162:6174   */\n      revert\n        /* \"#utility.yul\":6113:6176   */\n    tag_176:\n        /* \"#utility.yul\":6060:6182   */\n      pop\n      jump\t// out\n        /* \"#utility.yul\":6188:6327   */\n    tag_84:\n        /* \"#utility.yul\":6234:6239   */\n      0x00\n        /* \"#utility.yul\":6272:6278   */\n      dup2\n        /* \"#utility.yul\":6259:6279   */\n      calldataload\n        /* \"#utility.yul\":6250:6279   */\n      swap1\n      pop\n        /* \"#utility.yul\":6288:6321   */\n      tag_178\n        /* \"#utility.yul\":6315:6320   */\n      dup2\n        /* \"#utility.yul\":6288:6321   */\n      tag_83\n      jump\t// in\n    tag_178:\n        /* \"#utility.yul\":6188:6327   */\n      swap3\n      swap2\n      pop\n      pop\n      jump\t// out\n        /* \"#utility.yul\":6333:6662   */\n    tag_20:\n        /* \"#utility.yul\":6392:6398   */\n      0x00\n        /* \"#utility.yul\":6441:6443   */\n      0x20\n        /* \"#utility.yul\":6429:6438   */\n      dup3\n        /* \"#utility.yul\":6420:6427   */\n      dup5\n        /* \"#utility.yul\":6416:6439   */\n      sub\n        /* \"#utility.yul\":6412:6444   */\n      slt\n        /* \"#utility.yul\":6409:6528   */\n      iszero\n      tag_180\n      jumpi\n        /* \"#utility.yul\":6447:6526   */\n      tag_181\n      tag_68\n      jump\t// in\n    tag_181:\n        /* \"#utility.yul\":6409:6528   */\n    tag_180:\n        /* \"#utility.yul\":6567:6568   */\n      0x00\n        /* \"#utility.yul\":6592:6645   */\n      tag_182\n        /* \"#utility.yul\":6637:6644   */\n      dup5\n        /* \"#utility.yul\":6628:6634   */\n      dup3\n        /* \"#utility.yul\":6617:6626   */\n      dup6\n        /* \"#utility.yul\":6613:6635   */\n      add\n        /* \"#utility.yul\":6592:6645   */\n      tag_84\n      jump\t// in\n    tag_182:\n        /* \"#utility.yul\":6582:6645   */\n      swap2\n      pop\n        /* \"#utility.yul\":6538:6655   */\n      pop\n        /* \"#utility.yul\":6333:6662   */\n      swap3\n      swap2\n      pop\n      pop\n      jump\t// out\n        /* \"#utility.yul\":6668:6767   */\n    tag_85:\n        /* \"#utility.yul\":6720:6726   */\n      0x00\n        /* \"#utility.yul\":6754:6759   */\n      dup2\n        /* \"#utility.yul\":6748:6760   */\n      mload\n        /* \"#utility.yul\":6738:6760   */\n      swap1\n      pop\n        /* \"#utility.yul\":6668:6767   */\n      swap2\n      swap1\n      pop\n      jump\t// out\n        /* \"#utility.yul\":6773:6942   */\n    tag_86:\n        /* \"#utility.yul\":6857:6868   */\n      0x00\n        /* \"#utility.yul\":6891:6897   */\n      dup3\n        /* \"#utility.yul\":6886:6889   */\n      dup3\n        /* \"#utility.yul\":6879:6898   */\n      mstore\n        /* \"#utility.yul\":6931:6935   */\n      0x20\n        /* \"#utility.yul\":6926:6929   */\n      dup3\n        /* \"#utility.yul\":6922:6936   */\n      add\n        /* \"#utility.yul\":6907:6936   */\n      swap1\n      pop\n        /* \"#utility.yul\":6773:6942   */\n      swap3\n      swap2\n      pop\n      pop\n      jump\t// out\n        /* \"#utility.yul\":6948:7194   */\n    tag_87:\n        /* \"#utility.yul\":7029:7030   */\n      0x00\n        /* \"#utility.yul\":7039:7152   */\n    tag_186:\n        /* \"#utility.yul\":7053:7059   */\n      dup4\n        /* \"#utility.yul\":7050:7051   */\n      dup2\n        /* \"#utility.yul\":7047:7060   */\n      lt\n        /* \"#utility.yul\":7039:7152   */\n      iszero\n      tag_188\n      jumpi\n        /* \"#utility.yul\":7138:7139   */\n      dup1\n        /* \"#utility.yul\":7133:7136   */\n      dup3\n        /* \"#utility.yul\":7129:7140   */\n      add\n        /* \"#utility.yul\":7123:7141   */\n      mload\n        /* \"#utility.yul\":7119:7120   */\n      dup2\n        /* \"#utility.yul\":7114:7117   */\n      dup5\n        /* \"#utility.yul\":7110:7121   */\n      add\n        /* \"#utility.yul\":7103:7142   */\n      mstore\n        /* \"#utility.yul\":7075:7077   */\n      0x20\n        /* \"#utility.yul\":7072:7073   */\n      dup2\n        /* \"#utility.yul\":7068:7078   */\n      add\n        /* \"#utility.yul\":7063:7078   */\n      swap1\n      pop\n        /* \"#utility.yul\":7039:7152   */\n      jump(tag_186)\n    tag_188:\n        /* \"#utility.yul\":7186:7187   */\n      0x00\n        /* \"#utility.yul\":7177:7183   */\n      dup5\n        /* \"#utility.yul\":7172:7175   */\n      dup5\n        /* \"#utility.yul\":7168:7184   */\n      add\n        /* \"#utility.yul\":7161:7188   */\n      mstore\n        /* \"#utility.yul\":7010:7194   */\n      pop\n        /* \"#utility.yul\":6948:7194   */\n      pop\n      pop\n      pop\n      jump\t// out\n        /* \"#utility.yul\":7200:7577   */\n    tag_88:\n        /* \"#utility.yul\":7288:7291   */\n      0x00\n        /* \"#utility.yul\":7316:7355   */\n      tag_190\n        /* \"#utility.yul\":7349:7354   */\n      dup3\n        /* \"#utility.yul\":7316:7355   */\n      tag_85\n      jump\t// in\n    tag_190:\n        /* \"#utility.yul\":7371:7442   */\n      tag_191\n        /* \"#utility.yul\":7435:7441   */\n      dup2\n        /* \"#utility.yul\":7430:7433   */\n      dup6\n        /* \"#utility.yul\":7371:7442   */\n      tag_86\n      jump\t// in\n    tag_191:\n        /* \"#utility.yul\":7364:7442   */\n      swap4\n      pop\n        /* \"#utility.yul\":7451:7516   */\n      tag_192\n        /* \"#utility.yul\":7509:7515   */\n      dup2\n        /* \"#utility.yul\":7504:7507   */\n      dup6\n        /* \"#utility.yul\":7497:7501   */\n      0x20\n        /* \"#utility.yul\":7490:7495   */\n      dup7\n        /* \"#utility.yul\":7486:7502   */\n      add\n        /* \"#utility.yul\":7451:7516   */\n      tag_87\n      jump\t// in\n    tag_192:\n        /* \"#utility.yul\":7541:7570   */\n      tag_193\n        /* \"#utility.yul\":7563:7569   */\n      dup2\n        /* \"#utility.yul\":7541:7570   */\n      tag_72\n      jump\t// in\n    tag_193:\n        /* \"#utility.yul\":7536:7539   */\n      dup5\n        /* \"#utility.yul\":7532:7571   */\n      add\n        /* \"#utility.yul\":7525:7571   */\n      swap2\n      pop\n        /* \"#utility.yul\":7292:7577   */\n      pop\n        /* \"#utility.yul\":7200:7577   */\n      swap3\n      swap2\n      pop\n      pop\n      jump\t// out\n        /* \"#utility.yul\":7583:7896   */\n    tag_23:\n        /* \"#utility.yul\":7696:7700   */\n      0x00\n        /* \"#utility.yul\":7734:7736   */\n      0x20\n        /* \"#utility.yul\":7723:7732   */\n      dup3\n        /* \"#utility.yul\":7719:7737   */\n      add\n        /* \"#utility.yul\":7711:7737   */\n      swap1\n      pop\n        /* \"#utility.yul\":7783:7792   */\n      dup2\n        /* \"#utility.yul\":7777:7781   */\n      dup2\n        /* \"#utility.yul\":7773:7793   */\n      sub\n        /* \"#utility.yul\":7769:7770   */\n      0x00\n        /* \"#utility.yul\":7758:7767   */\n      dup4\n        /* \"#utility.yul\":7754:7771   */\n      add\n        /* \"#utility.yul\":7747:7794   */\n      mstore\n        /* \"#utility.yul\":7811:7889   */\n      tag_195\n        /* \"#utility.yul\":7884:7888   */\n      dup2\n        /* \"#utility.yul\":7875:7881   */\n      dup5\n        /* \"#utility.yul\":7811:7889   */\n      tag_88\n      jump\t// in\n    tag_195:\n        /* \"#utility.yul\":7803:7889   */\n      swap1\n      pop\n        /* \"#utility.yul\":7583:7896   */\n      swap3\n      swap2\n      pop\n      pop\n      jump\t// out\n        /* \"#utility.yul\":7902:8044   */\n    tag_89:\n        /* \"#utility.yul\":8005:8037   */\n      tag_197\n        /* \"#utility.yul\":8031:8036   */\n      dup2\n        /* \"#utility.yul\":8005:8037   */\n      tag_62\n      jump\t// in\n    tag_197:\n        /* \"#utility.yul\":8000:8003   */\n      dup3\n        /* \"#utility.yul\":7993:8038   */\n      mstore\n        /* \"#utility.yul\":7902:8044   */\n      pop\n      pop\n      jump\t// out\n        /* \"#utility.yul\":8050:8304   */\n    tag_28:\n        /* \"#utility.yul\":8159:8163   */\n      0x00\n        /* \"#utility.yul\":8197:8199   */\n      0x20\n        /* \"#utility.yul\":8186:8195   */\n      dup3\n        /* \"#utility.yul\":8182:8200   */\n      add\n        /* \"#utility.yul\":8174:8200   */\n      swap1\n      pop\n        /* \"#utility.yul\":8210:8297   */\n      tag_199\n        /* \"#utility.yul\":8294:8295   */\n      0x00\n        /* \"#utility.yul\":8283:8292   */\n      dup4\n        /* \"#utility.yul\":8279:8296   */\n      add\n        /* \"#utility.yul\":8270:8276   */\n      dup5\n        /* \"#utility.yul\":8210:8297   */\n      tag_89\n      jump\t// in\n    tag_199:\n        /* \"#utility.yul\":8050:8304   */\n      swap3\n      swap2\n      pop\n      pop\n      jump\t// out\n        /* \"#utility.yul\":8310:9109   */\n    tag_31:\n        /* \"#utility.yul\":8397:8403   */\n      0x00\n        /* \"#utility.yul\":8405:8411   */\n      dup1\n        /* \"#utility.yul\":8413:8419   */\n      0x00\n        /* \"#utility.yul\":8462:8464   */\n      0x60\n        /* \"#utility.yul\":8450:8459   */\n      dup5\n        /* \"#utility.yul\":8441:8448   */\n      dup7\n        /* \"#utility.yul\":8437:8460   */\n      sub\n        /* \"#utility.yul\":8433:8465   */\n      slt\n        /* \"#utility.yul\":8430:8549   */\n      iszero\n      tag_201\n      jumpi\n        /* \"#utility.yul\":8468:8547   */\n      tag_202\n      tag_68\n      jump\t// in\n    tag_202:\n        /* \"#utility.yul\":8430:8549   */\n    tag_201:\n        /* \"#utility.yul\":8616:8617   */\n      0x00\n        /* \"#utility.yul\":8605:8614   */\n      dup5\n        /* \"#utility.yul\":8601:8618   */\n      add\n        /* \"#utility.yul\":8588:8619   */\n      calldataload\n        /* \"#utility.yul\":8646:8664   */\n      0xffffffffffffffff\n        /* \"#utility.yul\":8638:8644   */\n      dup2\n        /* \"#utility.yul\":8635:8665   */\n      gt\n        /* \"#utility.yul\":8632:8749   */\n      iszero\n      tag_203\n      jumpi\n        /* \"#utility.yul\":8668:8747   */\n      tag_204\n      tag_69\n      jump\t// in\n    tag_204:\n        /* \"#utility.yul\":8632:8749   */\n    tag_203:\n        /* \"#utility.yul\":8773:8836   */\n      tag_205\n        /* \"#utility.yul\":8828:8835   */\n      dup7\n        /* \"#utility.yul\":8819:8825   */\n      dup3\n        /* \"#utility.yul\":8808:8817   */\n      dup8\n        /* \"#utility.yul\":8804:8826   */\n      add\n        /* \"#utility.yul\":8773:8836   */\n      tag_79\n      jump\t// in\n    tag_205:\n        /* \"#utility.yul\":8763:8836   */\n      swap4\n      pop\n        /* \"#utility.yul\":8559:8846   */\n      pop\n        /* \"#utility.yul\":8885:8887   */\n      0x20\n        /* \"#utility.yul\":8911:8964   */\n      tag_206\n        /* \"#utility.yul\":8956:8963   */\n      dup7\n        /* \"#utility.yul\":8947:8953   */\n      dup3\n        /* \"#utility.yul\":8936:8945   */\n      dup8\n        /* \"#utility.yul\":8932:8954   */\n      add\n        /* \"#utility.yul\":8911:8964   */\n      tag_84\n      jump\t// in\n    tag_206:\n        /* \"#utility.yul\":8901:8964   */\n      swap3\n      pop\n        /* \"#utility.yul\":8856:8974   */\n      pop\n        /* \"#utility.yul\":9013:9015   */\n      0x40\n        /* \"#utility.yul\":9039:9092   */\n      tag_207\n        /* \"#utility.yul\":9084:9091   */\n      dup7\n        /* \"#utility.yul\":9075:9081   */\n      dup3\n        /* \"#utility.yul\":9064:9073   */\n      dup8\n        /* \"#utility.yul\":9060:9082   */\n      add\n        /* \"#utility.yul\":9039:9092   */\n      tag_84\n      jump\t// in\n    tag_207:\n        /* \"#utility.yul\":9029:9092   */\n      swap2\n      pop\n        /* \"#utility.yul\":8984:9102   */\n      pop\n        /* \"#utility.yul\":8310:9109   */\n      swap3\n      pop\n      swap3\n      pop\n      swap3\n      jump\t// out\n        /* \"#utility.yul\":9115:9295   */\n    tag_90:\n        /* \"#utility.yul\":9163:9240   */\n      0x4e487b7100000000000000000000000000000000000000000000000000000000\n        /* \"#utility.yul\":9160:9161   */\n      0x00\n        /* \"#utility.yul\":9153:9241   */\n      mstore\n        /* \"#utility.yul\":9260:9264   */\n      0x22\n        /* \"#utility.yul\":9257:9258   */\n      0x04\n        /* \"#utility.yul\":9250:9265   */\n      mstore\n        /* \"#utility.yul\":9284:9288   */\n      0x24\n        /* \"#utility.yul\":9281:9282   */\n      0x00\n        /* \"#utility.yul\":9274:9289   */\n      revert\n        /* \"#utility.yul\":9301:9621   */\n    tag_39:\n        /* \"#utility.yul\":9345:9351   */\n      0x00\n        /* \"#utility.yul\":9382:9383   */\n      0x02\n        /* \"#utility.yul\":9376:9380   */\n      dup3\n        /* \"#utility.yul\":9372:9384   */\n      div\n        /* \"#utility.yul\":9362:9384   */\n      swap1\n      pop\n        /* \"#utility.yul\":9429:9430   */\n      0x01\n        /* \"#utility.yul\":9423:9427   */\n      dup3\n        /* \"#utility.yul\":9419:9431   */\n      and\n        /* \"#utility.yul\":9450:9468   */\n      dup1\n        /* \"#utility.yul\":9440:9521   */\n      tag_210\n      jumpi\n        /* \"#utility.yul\":9506:9510   */\n      0x7f\n        /* \"#utility.yul\":9498:9504   */\n      dup3\n        /* \"#utility.yul\":9494:9511   */\n      and\n        /* \"#utility.yul\":9484:9511   */\n      swap2\n      pop\n        /* \"#utility.yul\":9440:9521   */\n    tag_210:\n        /* \"#utility.yul\":9568:9570   */\n      0x20\n        /* \"#utility.yul\":9560:9566   */\n      dup3\n        /* \"#utility.yul\":9557:9571   */\n      lt\n        /* \"#utility.yul\":9537:9555   */\n      dup2\n        /* \"#utility.yul\":9534:9572   */\n      sub\n        /* \"#utility.yul\":9531:9615   */\n      tag_211\n      jumpi\n        /* \"#utility.yul\":9587:9605   */\n      tag_212\n      tag_90\n      jump\t// in\n    tag_212:\n        /* \"#utility.yul\":9531:9615   */\n    tag_211:\n        /* \"#utility.yul\":9352:9621   */\n      pop\n        /* \"#utility.yul\":9301:9621   */\n      swap2\n      swap1\n      pop\n      jump\t// out\n        /* \"#utility.yul\":9627:9745   */\n    tag_91:\n        /* \"#utility.yul\":9714:9738   */\n      tag_214\n        /* \"#utility.yul\":9732:9737   */\n      dup2\n        /* \"#utility.yul\":9714:9738   */\n      tag_82\n      jump\t// in\n    tag_214:\n        /* \"#utility.yul\":9709:9712   */\n      dup3\n        /* \"#utility.yul\":9702:9739   */\n      mstore\n        /* \"#utility.yul\":9627:9745   */\n      pop\n      pop\n      jump\t// out\n        /* \"#utility.yul\":9751:10395   */\n    tag_50:\n        /* \"#utility.yul\":9948:9952   */\n      0x00\n        /* \"#utility.yul\":9986:9989   */\n      0x80\n        /* \"#utility.yul\":9975:9984   */\n      dup3\n        /* \"#utility.yul\":9971:9990   */\n      add\n        /* \"#utility.yul\":9963:9990   */\n      swap1\n      pop\n        /* \"#utility.yul\":10036:10045   */\n      dup2\n        /* \"#utility.yul\":10030:10034   */\n      dup2\n        /* \"#utility.yul\":10026:10046   */\n      sub\n        /* \"#utility.yul\":10022:10023   */\n      0x00\n        /* \"#utility.yul\":10011:10020   */\n      dup4\n        /* \"#utility.yul\":10007:10024   */\n      add\n        /* \"#utility.yul\":10000:10047   */\n      mstore\n        /* \"#utility.yul\":10064:10142   */\n      tag_216\n        /* \"#utility.yul\":10137:10141   */\n      dup2\n        /* \"#utility.yul\":10128:10134   */\n      dup8\n        /* \"#utility.yul\":10064:10142   */\n      tag_88\n      jump\t// in\n    tag_216:\n        /* \"#utility.yul\":10056:10142   */\n      swap1\n      pop\n        /* \"#utility.yul\":10152:10224   */\n      tag_217\n        /* \"#utility.yul\":10220:10222   */\n      0x20\n        /* \"#utility.yul\":10209:10218   */\n      dup4\n        /* \"#utility.yul\":10205:10223   */\n      add\n        /* \"#utility.yul\":10196:10202   */\n      dup7\n        /* \"#utility.yul\":10152:10224   */\n      tag_81\n      jump\t// in\n    tag_217:\n        /* \"#utility.yul\":10234:10306   */\n      tag_218\n        /* \"#utility.yul\":10302:10304   */\n      0x40\n        /* \"#utility.yul\":10291:10300   */\n      dup4\n        /* \"#utility.yul\":10287:10305   */\n      add\n        /* \"#utility.yul\":10278:10284   */\n      dup6\n        /* \"#utility.yul\":10234:10306   */\n      tag_91\n      jump\t// in\n    tag_218:\n        /* \"#utility.yul\":10316:10388   */\n      tag_219\n        /* \"#utility.yul\":10384:10386   */\n      0x60\n        /* \"#utility.yul\":10373:10382   */\n      dup4\n        /* \"#utility.yul\":10369:10387   */\n      add\n        /* \"#utility.yul\":10360:10366   */\n      dup5\n        /* \"#utility.yul\":10316:10388   */\n      tag_91\n      jump\t// in\n    tag_219:\n        /* \"#utility.yul\":9751:10395   */\n      swap6\n      swap5\n      pop\n      pop\n      pop\n      pop\n      pop\n      jump\t// out\n        /* \"#utility.yul\":10401:10542   */\n    tag_92:\n        /* \"#utility.yul\":10450:10454   */\n      0x00\n        /* \"#utility.yul\":10473:10476   */\n      dup2\n        /* \"#utility.yul\":10465:10476   */\n      swap1\n      pop\n        /* \"#utility.yul\":10496:10499   */\n      dup2\n        /* \"#utility.yul\":10493:10494   */\n      0x00\n        /* \"#utility.yul\":10486:10500   */\n      mstore\n        /* \"#utility.yul\":10530:10534   */\n      0x20\n        /* \"#utility.yul\":10527:10528   */\n      0x00\n        /* \"#utility.yul\":10517:10535   */\n      keccak256\n        /* \"#utility.yul\":10509:10535   */\n      swap1\n      pop\n        /* \"#utility.yul\":10401:10542   */\n      swap2\n      swap1\n      pop\n      jump\t// out\n        /* \"#utility.yul\":10548:10641   */\n    tag_93:\n        /* \"#utility.yul\":10585:10591   */\n      0x00\n        /* \"#utility.yul\":10632:10634   */\n      0x20\n        /* \"#utility.yul\":10627:10629   */\n      0x1f\n        /* \"#utility.yul\":10620:10625   */\n      dup4\n        /* \"#utility.yul\":10616:10630   */\n      add\n        /* \"#utility.yul\":10612:10635   */\n      div\n        /* \"#utility.yul\":10602:10635   */\n      swap1\n      pop\n        /* \"#utility.yul\":10548:10641   */\n      swap2\n      swap1\n      pop\n      jump\t// out\n        /* \"#utility.yul\":10647:10754   */\n    tag_94:\n        /* \"#utility.yul\":10691:10699   */\n      0x00\n        /* \"#utility.yul\":10741:10746   */\n      dup3\n        /* \"#utility.yul\":10735:10739   */\n      dup3\n        /* \"#utility.yul\":10731:10747   */\n      shl\n        /* \"#utility.yul\":10710:10747   */\n      swap1\n      pop\n        /* \"#utility.yul\":10647:10754   */\n      swap3\n      swap2\n      pop\n      pop\n      jump\t// out\n        /* \"#utility.yul\":10760:11153   */\n    tag_95:\n        /* \"#utility.yul\":10829:10835   */\n      0x00\n        /* \"#utility.yul\":10879:10880   */\n      0x08\n        /* \"#utility.yul\":10867:10877   */\n      dup4\n        /* \"#utility.yul\":10863:10881   */\n      mul\n        /* \"#utility.yul\":10902:10999   */\n      tag_224\n        /* \"#utility.yul\":10932:10998   */\n      0xffffffffffffffffffffffffffffffffffffffffffffffffffffffffffffffff\n        /* \"#utility.yul\":10921:10930   */\n      dup3\n        /* \"#utility.yul\":10902:10999   */\n      tag_94\n      jump\t// in\n    tag_224:\n        /* \"#utility.yul\":11020:11059   */\n      tag_225\n        /* \"#utility.yul\":11050:11058   */\n      dup7\n        /* \"#utility.yul\":11039:11048   */\n      dup4\n        /* \"#utility.yul\":11020:11059   */\n      tag_94\n      jump\t// in\n    tag_225:\n        /* \"#utility.yul\":11008:11059   */\n      swap6\n      pop\n        /* \"#utility.yul\":11092:11096   */\n      dup1\n        /* \"#utility.yul\":11088:11097   */\n      not\n        /* \"#utility.yul\":11081:11086   */\n      dup5\n        /* \"#utility.yul\":11077:11098   */\n      and\n        /* \"#utility.yul\":11068:11098   */\n      swap4\n      pop\n        /* \"#utility.yul\":11141:11145   */\n      dup1\n        /* \"#utility.yul\":11131:11139   */\n      dup7\n        /* \"#utility.yul\":11127:11146   */\n      and\n        /* \"#utility.yul\":11120:11125   */\n      dup5\n        /* \"#utility.yul\":11117:11147   */\n      or\n        /* \"#utility.yul\":11107:11147   */\n      swap3\n      pop\n        /* \"#utility.yul\":10836:11153   */\n      pop\n      pop\n        /* \"#utility.yul\":10760:11153   */\n      swap4\n      swap3\n      pop\n      pop\n      pop\n      jump\t// out\n        /* \"#utility.yul\":11159:11219   */\n    tag_96:\n        /* \"#utility.yul\":11187:11190   */\n      0x00\n        /* \"#utility.yul\":11208:11213   */\n      dup2\n        /* \"#utility.yul\":11201:11213   */\n      swap1\n      pop\n        /* \"#utility.yul\":11159:11219   */\n      swap2\n      swap1\n      pop\n      jump\t// out\n        /* \"#utility.yul\":11225:11367   */\n    tag_97:\n        /* \"#utility.yul\":11275:11284   */\n      0x00\n        /* \"#utility.yul\":11308:11361   */\n      tag_228\n        /* \"#utility.yul\":11326:11360   */\n      tag_229\n        /* \"#utility.yul\":11335:11359   */\n      tag_230\n        /* \"#utility.yul\":11353:11358   */\n      dup5\n        /* \"#utility.yul\":11335:11359   */\n      tag_82\n      jump\t// in\n    tag_230:\n        /* \"#utility.yul\":11326:11360   */\n      tag_96\n      jump\t// in\n    tag_229:\n        /* \"#utility.yul\":11308:11361   */\n      tag_82\n      jump\t// in\n    tag_228:\n        /* \"#utility.yul\":11295:11361   */\n      swap1\n      pop\n        /* \"#utility.yul\":11225:11367   */\n      swap2\n      swap1\n      pop\n      jump\t// out\n        /* \"#utility.yul\":11373:11448   */\n    tag_98:\n        /* \"#utility.yul\":11416:11419   */\n      0x00\n        /* \"#utility.yul\":11437:11442   */\n      dup2\n        /* \"#utility.yul\":11430:11442   */\n      swap1\n      pop\n        /* \"#utility.yul\":11373:11448   */\n      swap2\n      swap1\n      pop\n      jump\t// out\n        /* \"#utility.yul\":11454:11723   */\n    tag_99:\n        /* \"#utility.yul\":11564:11603   */\n      tag_233\n        /* \"#utility.yul\":11595:11602   */\n      dup4\n        /* \"#utility.yul\":11564:11603   */\n      tag_97\n      jump\t// in\n    tag_233:\n        /* \"#utility.yul\":11625:11716   */\n      tag_234\n        /* \"#utility.yul\":11674:11715   */\n      tag_235\n        /* \"#utility.yul\":11698:11714   */\n      dup3\n        /* \"#utility.yul\":11674:11715   */\n      tag_98\n      jump\t// in\n    tag_235:\n        /* \"#utility.yul\":11666:11672   */\n      dup5\n        /* \"#utility.yul\":11659:11663   */\n      dup5\n        /* \"#utility.yul\":11653:11664   */\n      sload\n        /* \"#utility.yul\":11625:11716   */\n      tag_95\n      jump\t// in\n    tag_234:\n        /* \"#utility.yul\":11619:11623   */\n      dup3\n        /* \"#utility.yul\":11612:11717   */\n      sstore\n        /* \"#utility.yul\":11530:11723   */\n      pop\n        /* \"#utility.yul\":11454:11723   */\n      pop\n      pop\n      pop\n      jump\t// out\n        /* \"#utility.yul\":11729:11802   */\n    tag_100:\n        /* \"#utility.yul\":11774:11777   */\n      0x00\n        /* \"#utility.yul\":11729:11802   */\n      swap1\n      jump\t// out\n        /* \"#utility.yul\":11808:11997   */\n    tag_101:\n        /* \"#utility.yul\":11885:11917   */\n      tag_238\n      tag_100\n      jump\t// in\n    tag_238:\n        /* \"#utility.yul\":11926:11991   */\n      tag_239\n        /* \"#utility.yul\":11984:11990   */\n      dup2\n        /* \"#utility.yul\":11976:11982   */\n      dup5\n        /* \"#utility.yul\":11970:11974   */\n      dup5\n        /* \"#utility.yul\":11926:11991   */\n      tag_99\n      jump\t// in\n    tag_239:\n        /* \"#utility.yul\":11861:11997   */\n      pop\n        /* \"#utility.yul\":11808:11997   */\n      pop\n      pop\n      jump\t// out\n        /* \"#utility.yul\":12003:12189   */\n    tag_102:\n        /* \"#utility.yul\":12063:12183   */\n    tag_241:\n        /* \"#utility.yul\":12080:12083   */\n      dup2\n        /* \"#utility.yul\":12073:12078   */\n      dup2\n        /* \"#utility.yul\":12070:12084   */\n      lt\n        /* \"#utility.yul\":12063:12183   */\n      iszero\n      tag_243\n      jumpi\n        /* \"#utility.yul\":12134:12173   */\n      tag_244\n        /* \"#utility.yul\":12171:12172   */\n      0x00\n        /* \"#utility.yul\":12164:12169   */\n      dup3\n        /* \"#utility.yul\":12134:12173   */\n      tag_101\n      jump\t// in\n    tag_244:\n        /* \"#utility.yul\":12107:12108   */\n      0x01\n        /* \"#utility.yul\":12100:12105   */\n      dup2\n        /* \"#utility.yul\":12096:12109   */\n      add\n        /* \"#utility.yul\":12087:12109   */\n      swap1\n      pop\n        /* \"#utility.yul\":12063:12183   */\n      jump(tag_241)\n    tag_243:\n        /* \"#utility.yul\":12003:12189   */\n      pop\n      pop\n      jump\t// out\n        /* \"#utility.yul\":12195:12738   */\n    tag_103:\n        /* \"#utility.yul\":12296:12298   */\n      0x1f\n        /* \"#utility.yul\":12291:12294   */\n      dup3\n        /* \"#utility.yul\":12288:12299   */\n      gt\n        /* \"#utility.yul\":12285:12731   */\n      iszero\n      tag_246\n      jumpi\n        /* \"#utility.yul\":12330:12368   */\n      tag_247\n        /* \"#utility.yul\":12362:12367   */\n      dup2\n        /* \"#utility.yul\":12330:12368   */\n      tag_92\n      jump\t// in\n    tag_247:\n        /* \"#utility.yul\":12414:12443   */\n      tag_248\n        /* \"#utility.yul\":12432:12442   */\n      dup5\n        /* \"#utility.yul\":12414:12443   */\n      tag_93\n      jump\t// in\n    tag_248:\n        /* \"#utility.yul\":12404:12412   */\n      dup2\n        /* \"#utility.yul\":12400:12444   */\n      add\n        /* \"#utility.yul\":12597:12599   */\n      0x20\n        /* \"#utility.yul\":12585:12595   */\n      dup6\n        /* \"#utility.yul\":12582:12600   */\n      lt\n        /* \"#utility.yul\":12579:12628   */\n      iszero\n      tag_249\n      jumpi\n        /* \"#utility.yul\":12618:12626   */\n      dup2\n        /* \"#utility.yul\":12603:12626   */\n      swap1\n      pop\n        /* \"#utility.yul\":12579:12628   */\n    tag_249:\n        /* \"#utility.yul\":12641:12721   */\n      tag_250\n        /* \"#utility.yul\":12697:12719   */\n      tag_251\n        /* \"#utility.yul\":12715:12718   */\n      dup6\n        /* \"#utility.yul\":12697:12719   */\n      tag_93\n      jump\t// in\n    tag_251:\n        /* \"#utility.yul\":12687:12695   */\n      dup4\n        /* \"#utility.yul\":12683:12720   */\n      add\n        /* \"#utility.yul\":12670:12681   */\n      dup3\n        /* \"#utility.yul\":12641:12721   */\n      tag_102\n      jump\t// in\n    tag_250:\n        /* \"#utility.yul\":12300:12731   */\n      pop\n      pop\n        /* \"#utility.yul\":12285:12731   */\n    tag_246:\n        /* \"#utility.yul\":12195:12738   */\n      pop\n      pop\n      pop\n      jump\t// out\n        /* \"#utility.yul\":12744:12861   */\n    tag_104:\n        /* \"#utility.yul\":12798:12806   */\n      0x00\n        /* \"#utility.yul\":12848:12853   */\n      dup3\n        /* \"#utility.yul\":12842:12846   */\n      dup3\n        /* \"#utility.yul\":12838:12854   */\n      shr\n        /* \"#utility.yul\":12817:12854   */\n      swap1\n      pop\n        /* \"#utility.yul\":12744:12861   */\n      swap3\n      swap2\n      pop\n      pop\n      jump\t// out\n        /* \"#utility.yul\":12867:13036   */\n    tag_105:\n        /* \"#utility.yul\":12911:12917   */\n      0x00\n        /* \"#utility.yul\":12944:12995   */\n      tag_254\n        /* \"#utility.yul\":12992:12993   */\n      0x00\n        /* \"#utility.yul\":12988:12994   */\n      not\n        /* \"#utility.yul\":12980:12985   */\n      dup5\n        /* \"#utility.yul\":12977:12978   */\n      0x08\n        /* \"#utility.yul\":12973:12986   */\n      mul\n        /* \"#utility.yul\":12944:12995   */\n      tag_104\n      jump\t// in\n    tag_254:\n        /* \"#utility.yul\":12940:12996   */\n      not\n        /* \"#utility.yul\":13025:13029   */\n      dup1\n        /* \"#utility.yul\":13019:13023   */\n      dup4\n        /* \"#utility.yul\":13015:13030   */\n      and\n        /* \"#utility.yul\":13005:13030   */\n      swap2\n      pop\n        /* \"#utility.yul\":12918:13036   */\n      pop\n        /* \"#utility.yul\":12867:13036   */\n      swap3\n      swap2\n      pop\n      pop\n      jump\t// out\n        /* \"#utility.yul\":13041:13336   */\n    tag_106:\n        /* \"#utility.yul\":13117:13121   */\n      0x00\n        /* \"#utility.yul\":13263:13292   */\n      tag_256\n        /* \"#utility.yul\":13288:13291   */\n      dup4\n        /* \"#utility.yul\":13282:13286   */\n      dup4\n        /* \"#utility.yul\":13263:13292   */\n      tag_105\n      jump\t// in\n    tag_256:\n        /* \"#utility.yul\":13255:13292   */\n      swap2\n      pop\n        /* \"#utility.yul\":13325:13328   */\n      dup3\n        /* \"#utility.yul\":13322:13323   */\n      0x02\n        /* \"#utility.yul\":13318:13329   */\n      mul\n        /* \"#utility.yul\":13312:13316   */\n      dup3\n        /* \"#utility.yul\":13309:13330   */\n      or\n        /* \"#utility.yul\":13301:13330   */\n      swap1\n      pop\n        /* \"#utility.yul\":13041:13336   */\n      swap3\n      swap2\n      pop\n      pop\n      jump\t// out\n        /* \"#utility.yul\":13341:14736   */\n    tag_55:\n        /* \"#utility.yul\":13458:13495   */\n      tag_258\n        /* \"#utility.yul\":13491:13494   */\n      dup3\n        /* \"#utility.yul\":13458:13495   */\n      tag_85\n      jump\t// in\n    tag_258:\n        /* \"#utility.yul\":13560:13578   */\n      0xffffffffffffffff\n        /* \"#utility.yul\":13552:13558   */\n      dup2\n        /* \"#utility.yul\":13549:13579   */\n      gt\n        /* \"#utility.yul\":13546:13602   */\n      iszero\n      tag_259\n      jumpi\n        /* \"#utility.yul\":13582:13600   */\n      tag_260\n      tag_73\n      jump\t// in\n    tag_260:\n        /* \"#utility.yul\":13546:13602   */\n    tag_259:\n        /* \"#utility.yul\":13626:13664   */\n      tag_261\n        /* \"#utility.yul\":13658:13662   */\n      dup3\n        /* \"#utility.yul\":13652:13663   */\n      sload\n        /* \"#utility.yul\":13626:13664   */\n      tag_39\n      jump\t// in\n    tag_261:\n        /* \"#utility.yul\":13711:13778   */\n      tag_262\n        /* \"#utility.yul\":13771:13777   */\n      dup3\n        /* \"#utility.yul\":13763:13769   */\n      dup3\n        /* \"#utility.yul\":13757:13761   */\n      dup6\n        /* \"#utility.yul\":13711:13778   */\n      tag_103\n      jump\t// in\n    tag_262:\n        /* \"#utility.yul\":13805:13806   */\n      0x00\n        /* \"#utility.yul\":13829:13833   */\n      0x20\n        /* \"#utility.yul\":13816:13833   */\n      swap1\n      pop\n        /* \"#utility.yul\":13861:13863   */\n      0x1f\n        /* \"#utility.yul\":13853:13859   */\n      dup4\n        /* \"#utility.yul\":13850:13864   */\n      gt\n        /* \"#utility.yul\":13878:13879   */\n      0x01\n        /* \"#utility.yul\":13873:14491   */\n      dup2\n      eq\n      tag_264\n      jumpi\n        /* \"#utility.yul\":14535:14536   */\n      0x00\n        /* \"#utility.yul\":14552:14558   */\n      dup5\n        /* \"#utility.yul\":14549:14626   */\n      iszero\n      tag_265\n      jumpi\n        /* \"#utility.yul\":14601:14610   */\n      dup3\n        /* \"#utility.yul\":14596:14599   */\n      dup8\n        /* \"#utility.yul\":14592:14611   */\n      add\n        /* \"#utility.yul\":14586:14612   */\n      mload\n        /* \"#utility.yul\":14577:14612   */\n      swap1\n      pop\n        /* \"#utility.yul\":14549:14626   */\n    tag_265:\n        /* \"#utility.yul\":14652:14719   */\n      tag_266\n        /* \"#utility.yul\":14712:14718   */\n      dup6\n        /* \"#utility.yul\":14705:14710   */\n      dup3\n        /* \"#utility.yul\":14652:14719   */\n      tag_106\n      jump\t// in\n    tag_266:\n        /* \"#utility.yul\":14646:14650   */\n      dup7\n        /* \"#utility.yul\":14639:14720   */\n      sstore\n        /* \"#utility.yul\":14508:14730   */\n      pop\n        /* \"#utility.yul\":13843:14730   */\n      jump(tag_263)\n        /* \"#utility.yul\":13873:14491   */\n    tag_264:\n        /* \"#utility.yul\":13925:13929   */\n      0x1f\n        /* \"#utility.yul\":13921:13930   */\n      not\n        /* \"#utility.yul\":13913:13919   */\n      dup5\n        /* \"#utility.yul\":13909:13931   */\n      and\n        /* \"#utility.yul\":13959:13996   */\n      tag_267\n        /* \"#utility.yul\":13991:13995   */\n      dup7\n        /* \"#utility.yul\":13959:13996   */\n      tag_92\n      jump\t// in\n    tag_267:\n        /* \"#utility.yul\":14018:14019   */\n      0x00\n        /* \"#utility.yul\":14032:14240   */\n    tag_268:\n        /* \"#utility.yul\":14046:14053   */\n      dup3\n        /* \"#utility.yul\":14043:14044   */\n      dup2\n        /* \"#utility.yul\":14040:14054   */\n      lt\n        /* \"#utility.yul\":14032:14240   */\n      iszero\n      tag_270\n      jumpi\n        /* \"#utility.yul\":14125:14134   */\n      dup5\n        /* \"#utility.yul\":14120:14123   */\n      dup10\n        /* \"#utility.yul\":14116:14135   */\n      add\n        /* \"#utility.yul\":14110:14136   */\n      mload\n        /* \"#utility.yul\":14102:14108   */\n      dup3\n        /* \"#utility.yul\":14095:14137   */\n      sstore\n        /* \"#utility.yul\":14176:14177   */\n      0x01\n        /* \"#utility.yul\":14168:14174   */\n      dup3\n        /* \"#utility.yul\":14164:14178   */\n      add\n        /* \"#utility.yul\":14154:14178   */\n      swap2\n      pop\n        /* \"#utility.yul\":14223:14225   */\n      0x20\n        /* \"#utility.yul\":14212:14221   */\n      dup6\n        /* \"#utility.yul\":14208:14226   */\n      add\n        /* \"#utility.yul\":14195:14226   */\n      swap5\n      pop\n        /* \"#utility.yul\":14069:14073   */\n      0x20\n        /* \"#utility.yul\":14066:14067   */\n      dup2\n        /* \"#utility.yul\":14062:14074   */\n      add\n        /* \"#utility.yul\":14057:14074   */\n      swap1\n      pop\n        /* \"#utility.yul\":14032:14240   */\n      jump(tag_268)\n    tag_270:\n        /* \"#utility.yul\":14268:14274   */\n      dup7\n        /* \"#utility.yul\":14259:14266   */\n      dup4\n        /* \"#utility.yul\":14256:14275   */\n      lt\n        /* \"#utility.yul\":14253:14432   */\n      iszero\n      tag_271\n      jumpi\n        /* \"#utility.yul\":14326:14335   */\n      dup5\n        /* \"#utility.yul\":14321:14324   */\n      dup10\n        /* \"#utility.yul\":14317:14336   */\n      add\n        /* \"#utility.yul\":14311:14337   */\n      mload\n        /* \"#utility.yul\":14369:14417   */\n      tag_272\n        /* \"#utility.yul\":14411:14415   */\n      0x1f\n        /* \"#utility.yul\":14403:14409   */\n      dup10\n        /* \"#utility.yul\":14399:14416   */\n      and\n        /* \"#utility.yul\":14388:14397   */\n      dup3\n        /* \"#utility.yul\":14369:14417   */\n      tag_105\n      jump\t// in\n    tag_272:\n        /* \"#utility.yul\":14361:14367   */\n      dup4\n        /* \"#utility.yul\":14354:14418   */\n      sstore\n        /* \"#utility.yul\":14276:14432   */\n      pop\n        /* \"#utility.yul\":14253:14432   */\n    tag_271:\n        /* \"#utility.yul\":14478:14479   */\n      0x01\n        /* \"#utility.yul\":14474:14475   */\n      0x02\n        /* \"#utility.yul\":14466:14472   */\n      dup9\n        /* \"#utility.yul\":14462:14476   */\n      mul\n        /* \"#utility.yul\":14458:14480   */\n      add\n        /* \"#utility.yul\":14452:14456   */\n      dup9\n        /* \"#utility.yul\":14445:14481   */\n      sstore\n        /* \"#utility.yul\":13880:14491   */\n      pop\n      pop\n      pop\n        /* \"#utility.yul\":13843:14730   */\n    tag_263:\n      pop\n        /* \"#utility.yul\":13433:14736   */\n      pop\n      pop\n      pop\n        /* \"#utility.yul\":13341:14736   */\n      pop\n      pop\n      jump\t// out\n        /* \"#utility.yul\":14742:14890   */\n    tag_107:\n        /* \"#utility.yul\":14844:14855   */\n      0x00\n        /* \"#utility.yul\":14881:14884   */\n      dup2\n        /* \"#utility.yul\":14866:14884   */\n      swap1\n      pop\n        /* \"#utility.yul\":14742:14890   */\n      swap3\n      swap2\n      pop\n      pop\n      jump\t// out\n        /* \"#utility.yul\":14896:15286   */\n    tag_108:\n        /* \"#utility.yul\":15002:15005   */\n      0x00\n        /* \"#utility.yul\":15030:15069   */\n      tag_275\n        /* \"#utility.yul\":15063:15068   */\n      dup3\n        /* \"#utility.yul\":15030:15069   */\n      tag_85\n      jump\t// in\n    tag_275:\n        /* \"#utility.yul\":15085:15174   */\n      tag_276\n        /* \"#utility.yul\":15167:15173   */\n      dup2\n        /* \"#utility.yul\":15162:15165   */\n      dup6\n        /* \"#utility.yul\":15085:15174   */\n      tag_107\n      jump\t// in\n    tag_276:\n        /* \"#utility.yul\":15078:15174   */\n      swap4\n      pop\n        /* \"#utility.yul\":15183:15248   */\n      tag_277\n        /* \"#utility.yul\":15241:15247   */\n      dup2\n        /* \"#utility.yul\":15236:15239   */\n      dup6\n        /* \"#utility.yul\":15229:15233   */\n      0x20\n        /* \"#utility.yul\":15222:15227   */\n      dup7\n        /* \"#utility.yul\":15218:15234   */\n      add\n        /* \"#utility.yul\":15183:15248   */\n      tag_87\n      jump\t// in\n    tag_277:\n        /* \"#utility.yul\":15273:15279   */\n      dup1\n        /* \"#utility.yul\":15268:15271   */\n      dup5\n        /* \"#utility.yul\":15264:15280   */\n      add\n        /* \"#utility.yul\":15257:15280   */\n      swap2\n      pop\n        /* \"#utility.yul\":15006:15286   */\n      pop\n        /* \"#utility.yul\":14896:15286   */\n      swap3\n      swap2\n      pop\n      pop\n      jump\t// out\n        /* \"#utility.yul\":15292:15567   */\n    tag_57:\n        /* \"#utility.yul\":15424:15427   */\n      0x00\n        /* \"#utility.yul\":15446:15541   */\n      tag_279\n        /* \"#utility.yul\":15537:15540   */\n      dup3\n        /* \"#utility.yul\":15528:15534   */\n      dup5\n        /* \"#utility.yul\":15446:15541   */\n      tag_108\n      jump\t// in\n    tag_279:\n        /* \"#utility.yul\":15439:15541   */\n      swap2\n      pop\n        /* \"#utility.yul\":15558:15561   */\n      dup2\n        /* \"#utility.yul\":15551:15561   */\n      swap1\n      pop\n        /* \"#utility.yul\":15292:15567   */\n      swap3\n      swap2\n      pop\n      pop\n      jump\t// out\n    stop\n\n    sub_0: assembly {\n            /* \"Lottogemeinschaft.sol\":800:6209  contract Lottogemeinschaft {... */\n          mstore(0x40, 0x80)\n            /* \"Lottogemeinschaft.sol\":1325:1326  0 */\n          0x00\n            /* \"Lottogemeinschaft.sol\":1298:1326  uint public gewinnBetrag = 0 */\n          0x0a\n          sstore\n            /* \"Lottogemeinschaft.sol\":1364:1365  0 */\n          0x00\n            /* \"Lottogemeinschaft.sol\":1332:1365  uint private auszahlungsIndex = 0 */\n          0x0b\n          sstore\n            /* \"Lottogemeinschaft.sol\":1613:1838  constructor ( string memory name, address ersteller, uint anzahl, uint preis) {... */\n          callvalue\n          dup1\n          iszero\n          tag_1\n          jumpi\n          0x00\n          dup1\n          revert\n        tag_1:\n          pop\n          mload(0x40)\n          sub(codesize, bytecodeSize)\n          dup1\n          bytecodeSize\n          dup4\n          codecopy\n          dup2\n          dup2\n          add\n          0x40\n          mstore\n          dup2\n          add\n          swap1\n          tag_2\n          swap2\n          swap1\n          tag_3\n          jump\t// in\n        tag_2:\n            /* \"Lottogemeinschaft.sol\":1712:1721  ersteller */\n          dup3\n            /* \"Lottogemeinschaft.sol\":1701:1709  gruender */\n          0x00\n          dup1\n            /* \"Lottogemeinschaft.sol\":1701:1721  gruender = ersteller */\n          0x0100\n          exp\n          dup2\n          sload\n          dup2\n          0xffffffffffffffffffffffffffffffffffffffff\n          mul\n          not\n          and\n          swap1\n          dup4\n          0xffffffffffffffffffffffffffffffffffffffff\n          and\n          mul\n          or\n          swap1\n          sstore\n          pop\n            /* \"Lottogemeinschaft.sol\":1755:1759  name */\n          dup4\n            /* \"Lottogemeinschaft.sol\":1731:1752  tippgemeinschaftsName */\n          0x01\n            /* \"Lottogemeinschaft.sol\":1731:1759  tippgemeinschaftsName = name */\n          swap1\n          dup2\n          tag_6\n          swap2\n          swap1\n          tag_7\n          jump\t// in\n        tag_6:\n          pop\n            /* \"Lottogemeinschaft.sol\":1791:1797  anzahl */\n          dup2\n            /* \"Lottogemeinschaft.sol\":1769:1788  maxTeilnehmerAnzahl */\n          0x02\n            /* \"Lottogemeinschaft.sol\":1769:1797  maxTeilnehmerAnzahl = anzahl */\n          dup2\n          swap1\n          sstore\n          pop\n            /* \"Lottogemeinschaft.sol\":1826:1831  preis */\n          dup1\n            /* \"Lottogemeinschaft.sol\":1807:1823  preisLottoschein */\n          0x04\n            /* \"Lottogemeinschaft.sol\":1807:1831  preisLottoschein = preis */\n          dup2\n          swap1\n          sstore\n          pop\n            /* \"Lottogemeinschaft.sol\":1613:1838  constructor ( string memory name, address ersteller, uint anzahl, uint preis) {... */\n          pop\n          pop\n          pop\n          pop\n            /* \"Lottogemeinschaft.sol\":800:6209  contract Lottogemeinschaft {... */\n          jump(tag_8)\n            /* \"#utility.yul\":7:82   */\n        tag_9:\n            /* \"#utility.yul\":40:46   */\n          0x00\n            /* \"#utility.yul\":73:75   */\n          0x40\n            /* \"#utility.yul\":67:76   */\n          mload\n            /* \"#utility.yul\":57:76   */\n          swap1\n          pop\n            /* \"#utility.yul\":7:82   */\n          swap1\n          jump\t// out\n            /* \"#utility.yul\":88:205   */\n        tag_10:\n            /* \"#utility.yul\":197:198   */\n          0x00\n            /* \"#utility.yul\":194:195   */\n          dup1\n            /* \"#utility.yul\":187:199   */\n          revert\n            /* \"#utility.yul\":211:328   */\n        tag_11:\n            /* \"#utility.yul\":320:321   */\n          0x00\n            /* \"#utility.yul\":317:318   */\n          dup1\n            /* \"#utility.yul\":310:322   */\n          revert\n            /* \"#utility.yul\":334:451   */\n        tag_12:\n            /* \"#utility.yul\":443:444   */\n          0x00\n            /* \"#utility.yul\":440:441   */\n          dup1\n            /* \"#utility.yul\":433:445   */\n          revert\n            /* \"#utility.yul\":457:574   */\n        tag_13:\n            /* \"#utility.yul\":566:567   */\n          0x00\n            /* \"#utility.yul\":563:564   */\n          dup1\n            /* \"#utility.yul\":556:568   */\n          revert\n            /* \"#utility.yul\":580:682   */\n        tag_14:\n            /* \"#utility.yul\":621:627   */\n          0x00\n            /* \"#utility.yul\":672:674   */\n          0x1f\n            /* \"#utility.yul\":668:675   */\n          not\n            /* \"#utility.yul\":663:665   */\n          0x1f\n            /* \"#utility.yul\":656:661   */\n          dup4\n            /* \"#utility.yul\":652:666   */\n          add\n            /* \"#utility.yul\":648:676   */\n          and\n            /* \"#utility.yul\":638:676   */\n          swap1\n          pop\n            /* \"#utility.yul\":580:682   */\n          swap2\n          swap1\n          pop\n          jump\t// out\n            /* \"#utility.yul\":688:868   */\n        tag_15:\n            /* \"#utility.yul\":736:813   */\n          0x4e487b7100000000000000000000000000000000000000000000000000000000\n            /* \"#utility.yul\":733:734   */\n          0x00\n            /* \"#utility.yul\":726:814   */\n          mstore\n            /* \"#utility.yul\":833:837   */\n          0x41\n            /* \"#utility.yul\":830:831   */\n          0x04\n            /* \"#utility.yul\":823:838   */\n          mstore\n            /* \"#utility.yul\":857:861   */\n          0x24\n            /* \"#utility.yul\":854:855   */\n          0x00\n            /* \"#utility.yul\":847:862   */\n          revert\n            /* \"#utility.yul\":874:1155   */\n        tag_16:\n            /* \"#utility.yul\":957:984   */\n          tag_56\n            /* \"#utility.yul\":979:983   */\n          dup3\n            /* \"#utility.yul\":957:984   */\n          tag_14\n          jump\t// in\n        tag_56:\n            /* \"#utility.yul\":949:955   */\n          dup2\n            /* \"#utility.yul\":945:985   */\n          add\n            /* \"#utility.yul\":1087:1093   */\n          dup2\n            /* \"#utility.yul\":1075:1085   */\n          dup2\n            /* \"#utility.yul\":1072:1094   */\n          lt\n            /* \"#utility.yul\":1051:1069   */\n          0xffffffffffffffff\n            /* \"#utility.yul\":1039:1049   */\n          dup3\n            /* \"#utility.yul\":1036:1070   */\n          gt\n            /* \"#utility.yul\":1033:1095   */\n          or\n            /* \"#utility.yul\":1030:1118   */\n          iszero\n          tag_57\n          jumpi\n            /* \"#utility.yul\":1098:1116   */\n          tag_58\n          tag_15\n          jump\t// in\n        tag_58:\n            /* \"#utility.yul\":1030:1118   */\n        tag_57:\n            /* \"#utility.yul\":1138:1148   */\n          dup1\n            /* \"#utility.yul\":1134:1136   */\n          0x40\n            /* \"#utility.yul\":1127:1149   */\n          mstore\n            /* \"#utility.yul\":917:1155   */\n          pop\n            /* \"#utility.yul\":874:1155   */\n          pop\n          pop\n          jump\t// out\n            /* \"#utility.yul\":1161:1290   */\n        tag_17:\n            /* \"#utility.yul\":1195:1201   */\n          0x00\n            /* \"#utility.yul\":1222:1242   */\n          tag_60\n          tag_9\n          jump\t// in\n        tag_60:\n            /* \"#utility.yul\":1212:1242   */\n          swap1\n          pop\n            /* \"#utility.yul\":1251:1284   */\n          tag_61\n            /* \"#utility.yul\":1279:1283   */\n          dup3\n            /* \"#utility.yul\":1271:1277   */\n          dup3\n            /* \"#utility.yul\":1251:1284   */\n          tag_16\n          jump\t// in\n        tag_61:\n            /* \"#utility.yul\":1161:1290   */\n          swap2\n          swap1\n          pop\n          jump\t// out\n            /* \"#utility.yul\":1296:1604   */\n        tag_18:\n            /* \"#utility.yul\":1358:1362   */\n          0x00\n            /* \"#utility.yul\":1448:1466   */\n          0xffffffffffffffff\n            /* \"#utility.yul\":1440:1446   */\n          dup3\n            /* \"#utility.yul\":1437:1467   */\n          gt\n            /* \"#utility.yul\":1434:1490   */\n          iszero\n          tag_63\n          jumpi\n            /* \"#utility.yul\":1470:1488   */\n          tag_64\n          tag_15\n          jump\t// in\n        tag_64:\n            /* \"#utility.yul\":1434:1490   */\n        tag_63:\n            /* \"#utility.yul\":1508:1537   */\n          tag_65\n            /* \"#utility.yul\":1530:1536   */\n          dup3\n            /* \"#utility.yul\":1508:1537   */\n          tag_14\n          jump\t// in\n        tag_65:\n            /* \"#utility.yul\":1500:1537   */\n          swap1\n          pop\n            /* \"#utility.yul\":1592:1596   */\n          0x20\n            /* \"#utility.yul\":1586:1590   */\n          dup2\n            /* \"#utility.yul\":1582:1597   */\n          add\n            /* \"#utility.yul\":1574:1597   */\n          swap1\n          pop\n            /* \"#utility.yul\":1296:1604   */\n          swap2\n          swap1\n          pop\n          jump\t// out\n            /* \"#utility.yul\":1610:1856   */\n        tag_19:\n            /* \"#utility.yul\":1691:1692   */\n          0x00\n            /* \"#utility.yul\":1701:1814   */\n        tag_67:\n            /* \"#utility.yul\":1715:1721   */\n          dup4\n            /* \"#utility.yul\":1712:1713   */\n          dup2\n            /* \"#utility.yul\":1709:1722   */\n          lt\n            /* \"#utility.yul\":1701:1814   */\n          iszero\n          tag_69\n          jumpi\n            /* \"#utility.yul\":1800:1801   */\n          dup1\n            /* \"#utility.yul\":1795:1798   */\n          dup3\n            /* \"#utility.yul\":1791:1802   */\n          add\n            /* \"#utility.yul\":1785:1803   */\n          mload\n            /* \"#utility.yul\":1781:1782   */\n          dup2\n            /* \"#utility.yul\":1776:1779   */\n          dup5\n            /* \"#utility.yul\":1772:1783   */\n          add\n            /* \"#utility.yul\":1765:1804   */\n          mstore\n            /* \"#utility.yul\":1737:1739   */\n          0x20\n            /* \"#utility.yul\":1734:1735   */\n          dup2\n            /* \"#utility.yul\":1730:1740   */\n          add\n            /* \"#utility.yul\":1725:1740   */\n          swap1\n          pop\n            /* \"#utility.yul\":1701:1814   */\n          jump(tag_67)\n        tag_69:\n            /* \"#utility.yul\":1848:1849   */\n          0x00\n            /* \"#utility.yul\":1839:1845   */\n          dup5\n            /* \"#utility.yul\":1834:1837   */\n          dup5\n            /* \"#utility.yul\":1830:1846   */\n          add\n            /* \"#utility.yul\":1823:1850   */\n          mstore\n            /* \"#utility.yul\":1672:1856   */\n          pop\n            /* \"#utility.yul\":1610:1856   */\n          pop\n          pop\n          pop\n          jump\t// out\n            /* \"#utility.yul\":1862:2296   */\n        tag_20:\n            /* \"#utility.yul\":1951:1956   */\n          0x00\n            /* \"#utility.yul\":1976:2042   */\n          tag_71\n            /* \"#utility.yul\":1992:2041   */\n          tag_72\n            /* \"#utility.yul\":2034:2040   */\n          dup5\n            /* \"#utility.yul\":1992:2041   */\n          tag_18\n          jump\t// in\n        tag_72:\n            /* \"#utility.yul\":1976:2042   */\n          tag_17\n          jump\t// in\n        tag_71:\n            /* \"#utility.yul\":1967:2042   */\n          swap1\n          pop\n            /* \"#utility.yul\":2065:2071   */\n          dup3\n            /* \"#utility.yul\":2058:2063   */\n          dup2\n            /* \"#utility.yul\":2051:2072   */\n          mstore\n            /* \"#utility.yul\":2103:2107   */\n          0x20\n            /* \"#utility.yul\":2096:2101   */\n          dup2\n            /* \"#utility.yul\":2092:2108   */\n          add\n            /* \"#utility.yul\":2141:2144   */\n          dup5\n            /* \"#utility.yul\":2132:2138   */\n          dup5\n            /* \"#utility.yul\":2127:2130   */\n          dup5\n            /* \"#utility.yul\":2123:2139   */\n          add\n            /* \"#utility.yul\":2120:2145   */\n          gt\n            /* \"#utility.yul\":2117:2229   */\n          iszero\n          tag_73\n          jumpi\n            /* \"#utility.yul\":2148:2227   */\n          tag_74\n          tag_13\n          jump\t// in\n        tag_74:\n            /* \"#utility.yul\":2117:2229   */\n        tag_73:\n            /* \"#utility.yul\":2238:2290   */\n          tag_75\n            /* \"#utility.yul\":2283:2289   */\n          dup5\n            /* \"#utility.yul\":2278:2281   */\n          dup3\n            /* \"#utility.yul\":2273:2276   */\n          dup6\n            /* \"#utility.yul\":2238:2290   */\n          tag_19\n          jump\t// in\n        tag_75:\n            /* \"#utility.yul\":1957:2296   */\n          pop\n            /* \"#utility.yul\":1862:2296   */\n          swap4\n          swap3\n          pop\n          pop\n          pop\n          jump\t// out\n            /* \"#utility.yul\":2316:2671   */\n        tag_21:\n            /* \"#utility.yul\":2383:2388   */\n          0x00\n            /* \"#utility.yul\":2432:2435   */\n          dup3\n            /* \"#utility.yul\":2425:2429   */\n          0x1f\n            /* \"#utility.yul\":2417:2423   */\n          dup4\n            /* \"#utility.yul\":2413:2430   */\n          add\n            /* \"#utility.yul\":2409:2436   */\n          slt\n            /* \"#utility.yul\":2399:2521   */\n          tag_77\n          jumpi\n            /* \"#utility.yul\":2440:2519   */\n          tag_78\n          tag_12\n          jump\t// in\n        tag_78:\n            /* \"#utility.yul\":2399:2521   */\n        tag_77:\n            /* \"#utility.yul\":2550:2556   */\n          dup2\n            /* \"#utility.yul\":2544:2557   */\n          mload\n            /* \"#utility.yul\":2575:2665   */\n          tag_79\n            /* \"#utility.yul\":2661:2664   */\n          dup5\n            /* \"#utility.yul\":2653:2659   */\n          dup3\n            /* \"#utility.yul\":2646:2650   */\n          0x20\n            /* \"#utility.yul\":2638:2644   */\n          dup7\n            /* \"#utility.yul\":2634:2651   */\n          add\n            /* \"#utility.yul\":2575:2665   */\n          tag_20\n          jump\t// in\n        tag_79:\n            /* \"#utility.yul\":2566:2665   */\n          swap2\n          pop\n            /* \"#utility.yul\":2389:2671   */\n          pop\n            /* \"#utility.yul\":2316:2671   */\n          swap3\n          swap2\n          pop\n          pop\n          jump\t// out\n            /* \"#utility.yul\":2677:2803   */\n        tag_22:\n            /* \"#utility.yul\":2714:2721   */\n          0x00\n            /* \"#utility.yul\":2754:2796   */\n          0xffffffffffffffffffffffffffffffffffffffff\n            /* \"#utility.yul\":2747:2752   */\n          dup3\n            /* \"#utility.yul\":2743:2797   */\n          and\n            /* \"#utility.yul\":2732:2797   */\n          swap1\n          pop\n            /* \"#utility.yul\":2677:2803   */\n          swap2\n          swap1\n          pop\n          jump\t// out\n            /* \"#utility.yul\":2809:2905   */\n        tag_23:\n            /* \"#utility.yul\":2846:2853   */\n          0x00\n            /* \"#utility.yul\":2875:2899   */\n          tag_82\n            /* \"#utility.yul\":2893:2898   */\n          dup3\n            /* \"#utility.yul\":2875:2899   */\n          tag_22\n          jump\t// in\n        tag_82:\n            /* \"#utility.yul\":2864:2899   */\n          swap1\n          pop\n            /* \"#utility.yul\":2809:2905   */\n          swap2\n          swap1\n          pop\n          jump\t// out\n            /* \"#utility.yul\":2911:3033   */\n        tag_24:\n            /* \"#utility.yul\":2984:3008   */\n          tag_84\n            /* \"#utility.yul\":3002:3007   */\n          dup2\n            /* \"#utility.yul\":2984:3008   */\n          tag_23\n          jump\t// in\n        tag_84:\n            /* \"#utility.yul\":2977:2982   */\n          dup2\n            /* \"#utility.yul\":2974:3009   */\n          eq\n            /* \"#utility.yul\":2964:3027   */\n          tag_85\n          jumpi\n            /* \"#utility.yul\":3023:3024   */\n          0x00\n            /* \"#utility.yul\":3020:3021   */\n          dup1\n            /* \"#utility.yul\":3013:3025   */\n          revert\n            /* \"#utility.yul\":2964:3027   */\n        tag_85:\n            /* \"#utility.yul\":2911:3033   */\n          pop\n          jump\t// out\n            /* \"#utility.yul\":3039:3182   */\n        tag_25:\n            /* \"#utility.yul\":3096:3101   */\n          0x00\n            /* \"#utility.yul\":3127:3133   */\n          dup2\n            /* \"#utility.yul\":3121:3134   */\n          mload\n            /* \"#utility.yul\":3112:3134   */\n          swap1\n          pop\n            /* \"#utility.yul\":3143:3176   */\n          tag_87\n            /* \"#utility.yul\":3170:3175   */\n          dup2\n            /* \"#utility.yul\":3143:3176   */\n          tag_24\n          jump\t// in\n        tag_87:\n            /* \"#utility.yul\":3039:3182   */\n          swap3\n          swap2\n          pop\n          pop\n          jump\t// out\n            /* \"#utility.yul\":3188:3265   */\n        tag_26:\n            /* \"#utility.yul\":3225:3232   */\n          0x00\n            /* \"#utility.yul\":3254:3259   */\n          dup2\n            /* \"#utility.yul\":3243:3259   */\n          swap1\n          pop\n            /* \"#utility.yul\":3188:3265   */\n          swap2\n          swap1\n          pop\n          jump\t// out\n            /* \"#utility.yul\":3271:3393   */\n        tag_27:\n            /* \"#utility.yul\":3344:3368   */\n          tag_90\n            /* \"#utility.yul\":3362:3367   */\n          dup2\n            /* \"#utility.yul\":3344:3368   */\n          tag_26\n          jump\t// in\n        tag_90:\n            /* \"#utility.yul\":3337:3342   */\n          dup2\n            /* \"#utility.yul\":3334:3369   */\n          eq\n            /* \"#utility.yul\":3324:3387   */\n          tag_91\n          jumpi\n            /* \"#utility.yul\":3383:3384   */\n          0x00\n            /* \"#utility.yul\":3380:3381   */\n          dup1\n            /* \"#utility.yul\":3373:3385   */\n          revert\n            /* \"#utility.yul\":3324:3387   */\n        tag_91:\n            /* \"#utility.yul\":3271:3393   */\n          pop\n          jump\t// out\n            /* \"#utility.yul\":3399:3542   */\n        tag_28:\n            /* \"#utility.yul\":3456:3461   */\n          0x00\n            /* \"#utility.yul\":3487:3493   */\n          dup2\n            /* \"#utility.yul\":3481:3494   */\n          mload\n            /* \"#utility.yul\":3472:3494   */\n          swap1\n          pop\n            /* \"#utility.yul\":3503:3536   */\n          tag_93\n            /* \"#utility.yul\":3530:3535   */\n          dup2\n            /* \"#utility.yul\":3503:3536   */\n          tag_27\n          jump\t// in\n        tag_93:\n            /* \"#utility.yul\":3399:3542   */\n          swap3\n          swap2\n          pop\n          pop\n          jump\t// out\n            /* \"#utility.yul\":3548:4541   */\n        tag_3:\n            /* \"#utility.yul\":3655:3661   */\n          0x00\n            /* \"#utility.yul\":3663:3669   */\n          dup1\n            /* \"#utility.yul\":3671:3677   */\n          0x00\n            /* \"#utility.yul\":3679:3685   */\n          dup1\n            /* \"#utility.yul\":3728:3731   */\n          0x80\n            /* \"#utility.yul\":3716:3725   */\n          dup6\n            /* \"#utility.yul\":3707:3714   */\n          dup8\n            /* \"#utility.yul\":3703:3726   */\n          sub\n            /* \"#utility.yul\":3699:3732   */\n          slt\n            /* \"#utility.yul\":3696:3816   */\n          iszero\n          tag_95\n          jumpi\n            /* \"#utility.yul\":3735:3814   */\n          tag_96\n          tag_10\n          jump\t// in\n        tag_96:\n            /* \"#utility.yul\":3696:3816   */\n        tag_95:\n            /* \"#utility.yul\":3876:3877   */\n          0x00\n            /* \"#utility.yul\":3865:3874   */\n          dup6\n            /* \"#utility.yul\":3861:3878   */\n          add\n            /* \"#utility.yul\":3855:3879   */\n          mload\n            /* \"#utility.yul\":3906:3924   */\n          0xffffffffffffffff\n            /* \"#utility.yul\":3898:3904   */\n          dup2\n            /* \"#utility.yul\":3895:3925   */\n          gt\n            /* \"#utility.yul\":3892:4009   */\n          iszero\n          tag_97\n          jumpi\n            /* \"#utility.yul\":3928:4007   */\n          tag_98\n          tag_11\n          jump\t// in\n        tag_98:\n            /* \"#utility.yul\":3892:4009   */\n        tag_97:\n            /* \"#utility.yul\":4033:4107   */\n          tag_99\n            /* \"#utility.yul\":4099:4106   */\n          dup8\n            /* \"#utility.yul\":4090:4096   */\n          dup3\n            /* \"#utility.yul\":4079:4088   */\n          dup9\n            /* \"#utility.yul\":4075:4097   */\n          add\n            /* \"#utility.yul\":4033:4107   */\n          tag_21\n          jump\t// in\n        tag_99:\n            /* \"#utility.yul\":4023:4107   */\n          swap5\n          pop\n            /* \"#utility.yul\":3826:4117   */\n          pop\n            /* \"#utility.yul\":4156:4158   */\n          0x20\n            /* \"#utility.yul\":4182:4246   */\n          tag_100\n            /* \"#utility.yul\":4238:4245   */\n          dup8\n            /* \"#utility.yul\":4229:4235   */\n          dup3\n            /* \"#utility.yul\":4218:4227   */\n          dup9\n            /* \"#utility.yul\":4214:4236   */\n          add\n            /* \"#utility.yul\":4182:4246   */\n          tag_25\n          jump\t// in\n        tag_100:\n            /* \"#utility.yul\":4172:4246   */\n          swap4\n          pop\n            /* \"#utility.yul\":4127:4256   */\n          pop\n            /* \"#utility.yul\":4295:4297   */\n          0x40\n            /* \"#utility.yul\":4321:4385   */\n          tag_101\n            /* \"#utility.yul\":4377:4384   */\n          dup8\n            /* \"#utility.yul\":4368:4374   */\n          dup3\n            /* \"#utility.yul\":4357:4366   */\n          dup9\n            /* \"#utility.yul\":4353:4375   */\n          add\n            /* \"#utility.yul\":4321:4385   */\n          tag_28\n          jump\t// in\n        tag_101:\n            /* \"#utility.yul\":4311:4385   */\n          swap3\n          pop\n            /* \"#utility.yul\":4266:4395   */\n          pop\n            /* \"#utility.yul\":4434:4436   */\n          0x60\n            /* \"#utility.yul\":4460:4524   */\n          tag_102\n            /* \"#utility.yul\":4516:4523   */\n          dup8\n            /* \"#utility.yul\":4507:4513   */\n          dup3\n            /* \"#utility.yul\":4496:4505   */\n          dup9\n            /* \"#utility.yul\":4492:4514   */\n          add\n            /* \"#utility.yul\":4460:4524   */\n          tag_28\n          jump\t// in\n        tag_102:\n            /* \"#utility.yul\":4450:4524   */\n          swap2\n          pop\n            /* \"#utility.yul\":4405:4534   */\n          pop\n            /* \"#utility.yul\":3548:4541   */\n          swap3\n          swap6\n          swap2\n          swap5\n          pop\n          swap3\n          pop\n          jump\t// out\n            /* \"#utility.yul\":4547:4646   */\n        tag_29:\n            /* \"#utility.yul\":4599:4605   */\n          0x00\n            /* \"#utility.yul\":4633:4638   */\n          dup2\n            /* \"#utility.yul\":4627:4639   */\n          mload\n            /* \"#utility.yul\":4617:4639   */\n          swap1\n          pop\n            /* \"#utility.yul\":4547:4646   */\n          swap2\n          swap1\n          pop\n          jump\t// out\n            /* \"#utility.yul\":4652:4832   */\n        tag_30:\n            /* \"#utility.yul\":4700:4777   */\n          0x4e487b7100000000000000000000000000000000000000000000000000000000\n            /* \"#utility.yul\":4697:4698   */\n          0x00\n            /* \"#utility.yul\":4690:4778   */\n          mstore\n            /* \"#utility.yul\":4797:4801   */\n          0x22\n            /* \"#utility.yul\":4794:4795   */\n          0x04\n            /* \"#utility.yul\":4787:4802   */\n          mstore\n            /* \"#utility.yul\":4821:4825   */\n          0x24\n            /* \"#utility.yul\":4818:4819   */\n          0x00\n            /* \"#utility.yul\":4811:4826   */\n          revert\n            /* \"#utility.yul\":4838:5158   */\n        tag_31:\n            /* \"#utility.yul\":4882:4888   */\n          0x00\n            /* \"#utility.yul\":4919:4920   */\n          0x02\n            /* \"#utility.yul\":4913:4917   */\n          dup3\n            /* \"#utility.yul\":4909:4921   */\n          div\n            /* \"#utility.yul\":4899:4921   */\n          swap1\n          pop\n            /* \"#utility.yul\":4966:4967   */\n          0x01\n            /* \"#utility.yul\":4960:4964   */\n          dup3\n            /* \"#utility.yul\":4956:4968   */\n          and\n            /* \"#utility.yul\":4987:5005   */\n          dup1\n            /* \"#utility.yul\":4977:5058   */\n          tag_106\n          jumpi\n            /* \"#utility.yul\":5043:5047   */\n          0x7f\n            /* \"#utility.yul\":5035:5041   */\n          dup3\n            /* \"#utility.yul\":5031:5048   */\n          and\n            /* \"#utility.yul\":5021:5048   */\n          swap2\n          pop\n            /* \"#utility.yul\":4977:5058   */\n        tag_106:\n            /* \"#utility.yul\":5105:5107   */\n          0x20\n            /* \"#utility.yul\":5097:5103   */\n          dup3\n            /* \"#utility.yul\":5094:5108   */\n          lt\n            /* \"#utility.yul\":5074:5092   */\n          dup2\n            /* \"#utility.yul\":5071:5109   */\n          sub\n            /* \"#utility.yul\":5068:5152   */\n          tag_107\n          jumpi\n            /* \"#utility.yul\":5124:5142   */\n          tag_108\n          tag_30\n          jump\t// in\n        tag_108:\n            /* \"#utility.yul\":5068:5152   */\n        tag_107:\n            /* \"#utility.yul\":4889:5158   */\n          pop\n            /* \"#utility.yul\":4838:5158   */\n          swap2\n          swap1\n          pop\n          jump\t// out\n            /* \"#utility.yul\":5164:5305   */\n        tag_32:\n            /* \"#utility.yul\":5213:5217   */\n          0x00\n            /* \"#utility.yul\":5236:5239   */\n          dup2\n            /* \"#utility.yul\":5228:5239   */\n          swap1\n          pop\n            /* \"#utility.yul\":5259:5262   */\n          dup2\n            /* \"#utility.yul\":5256:5257   */\n          0x00\n            /* \"#utility.yul\":5249:5263   */\n          mstore\n            /* \"#utility.yul\":5293:5297   */\n          0x20\n            /* \"#utility.yul\":5290:5291   */\n          0x00\n            /* \"#utility.yul\":5280:5298   */\n          keccak256\n            /* \"#utility.yul\":5272:5298   */\n          swap1\n          pop\n            /* \"#utility.yul\":5164:5305   */\n          swap2\n          swap1\n          pop\n          jump\t// out\n            /* \"#utility.yul\":5311:5404   */\n        tag_33:\n            /* \"#utility.yul\":5348:5354   */\n          0x00\n            /* \"#utility.yul\":5395:5397   */\n          0x20\n            /* \"#utility.yul\":5390:5392   */\n          0x1f\n            /* \"#utility.yul\":5383:5388   */\n          dup4\n            /* \"#utility.yul\":5379:5393   */\n          add\n            /* \"#utility.yul\":5375:5398   */\n          div\n            /* \"#utility.yul\":5365:5398   */\n          swap1\n          pop\n            /* \"#utility.yul\":5311:5404   */\n          swap2\n          swap1\n          pop\n          jump\t// out\n            /* \"#utility.yul\":5410:5517   */\n        tag_34:\n            /* \"#utility.yul\":5454:5462   */\n          0x00\n            /* \"#utility.yul\":5504:5509   */\n          dup3\n            /* \"#utility.yul\":5498:5502   */\n          dup3\n            /* \"#utility.yul\":5494:5510   */\n          shl\n            /* \"#utility.yul\":5473:5510   */\n          swap1\n          pop\n            /* \"#utility.yul\":5410:5517   */\n          swap3\n          swap2\n          pop\n          pop\n          jump\t// out\n            /* \"#utility.yul\":5523:5916   */\n        tag_35:\n            /* \"#utility.yul\":5592:5598   */\n          0x00\n            /* \"#utility.yul\":5642:5643   */\n          0x08\n            /* \"#utility.yul\":5630:5640   */\n          dup4\n            /* \"#utility.yul\":5626:5644   */\n          mul\n            /* \"#utility.yul\":5665:5762   */\n          tag_113\n            /* \"#utility.yul\":5695:5761   */\n          0xffffffffffffffffffffffffffffffffffffffffffffffffffffffffffffffff\n            /* \"#utility.yul\":5684:5693   */\n          dup3\n            /* \"#utility.yul\":5665:5762   */\n          tag_34\n          jump\t// in\n        tag_113:\n            /* \"#utility.yul\":5783:5822   */\n          tag_114\n            /* \"#utility.yul\":5813:5821   */\n          dup7\n            /* \"#utility.yul\":5802:5811   */\n          dup4\n            /* \"#utility.yul\":5783:5822   */\n          tag_34\n          jump\t// in\n        tag_114:\n            /* \"#utility.yul\":5771:5822   */\n          swap6\n          pop\n            /* \"#utility.yul\":5855:5859   */\n          dup1\n            /* \"#utility.yul\":5851:5860   */\n          not\n            /* \"#utility.yul\":5844:5849   */\n          dup5\n            /* \"#utility.yul\":5840:5861   */\n          and\n            /* \"#utility.yul\":5831:5861   */\n          swap4\n          pop\n            /* \"#utility.yul\":5904:5908   */\n          dup1\n            /* \"#utility.yul\":5894:5902   */\n          dup7\n            /* \"#utility.yul\":5890:5909   */\n          and\n            /* \"#utility.yul\":5883:5888   */\n          dup5\n            /* \"#utility.yul\":5880:5910   */\n          or\n            /* \"#utility.yul\":5870:5910   */\n          swap3\n          pop\n            /* \"#utility.yul\":5599:5916   */\n          pop\n          pop\n            /* \"#utility.yul\":5523:5916   */\n          swap4\n          swap3\n          pop\n          pop\n          pop\n          jump\t// out\n            /* \"#utility.yul\":5922:5982   */\n        tag_36:\n            /* \"#utility.yul\":5950:5953   */\n          0x00\n            /* \"#utility.yul\":5971:5976   */\n          dup2\n            /* \"#utility.yul\":5964:5976   */\n          swap1\n          pop\n            /* \"#utility.yul\":5922:5982   */\n          swap2\n          swap1\n          pop\n          jump\t// out\n            /* \"#utility.yul\":5988:6130   */\n        tag_37:\n            /* \"#utility.yul\":6038:6047   */\n          0x00\n            /* \"#utility.yul\":6071:6124   */\n          tag_117\n            /* \"#utility.yul\":6089:6123   */\n          tag_118\n            /* \"#utility.yul\":6098:6122   */\n          tag_119\n            /* \"#utility.yul\":6116:6121   */\n          dup5\n            /* \"#utility.yul\":6098:6122   */\n          tag_26\n          jump\t// in\n        tag_119:\n            /* \"#utility.yul\":6089:6123   */\n          tag_36\n          jump\t// in\n        tag_118:\n            /* \"#utility.yul\":6071:6124   */\n          tag_26\n          jump\t// in\n        tag_117:\n            /* \"#utility.yul\":6058:6124   */\n          swap1\n          pop\n            /* \"#utility.yul\":5988:6130   */\n          swap2\n          swap1\n          pop\n          jump\t// out\n            /* \"#utility.yul\":6136:6211   */\n        tag_38:\n            /* \"#utility.yul\":6179:6182   */\n          0x00\n            /* \"#utility.yul\":6200:6205   */\n          dup2\n            /* \"#utility.yul\":6193:6205   */\n          swap1\n          pop\n            /* \"#utility.yul\":6136:6211   */\n          swap2\n          swap1\n          pop\n          jump\t// out\n            /* \"#utility.yul\":6217:6486   */\n        tag_39:\n            /* \"#utility.yul\":6327:6366   */\n          tag_122\n            /* \"#utility.yul\":6358:6365   */\n          dup4\n            /* \"#utility.yul\":6327:6366   */\n          tag_37\n          jump\t// in\n        tag_122:\n            /* \"#utility.yul\":6388:6479   */\n          tag_123\n            /* \"#utility.yul\":6437:6478   */\n          tag_124\n            /* \"#utility.yul\":6461:6477   */\n          dup3\n            /* \"#utility.yul\":6437:6478   */\n          tag_38\n          jump\t// in\n        tag_124:\n            /* \"#utility.yul\":6429:6435   */\n          dup5\n            /* \"#utility.yul\":6422:6426   */\n          dup5\n            /* \"#utility.yul\":6416:6427   */\n          sload\n            /* \"#utility.yul\":6388:6479   */\n          tag_35\n          jump\t// in\n        tag_123:\n            /* \"#utility.yul\":6382:6386   */\n          dup3\n            /* \"#utility.yul\":6375:6480   */\n          sstore\n            /* \"#utility.yul\":6293:6486   */\n          pop\n            /* \"#utility.yul\":6217:6486   */\n          pop\n          pop\n          pop\n          jump\t// out\n            /* \"#utility.yul\":6492:6565   */\n        tag_40:\n            /* \"#utility.yul\":6537:6540   */\n          0x00\n            /* \"#utility.yul\":6492:6565   */\n          swap1\n          jump\t// out\n            /* \"#utility.yul\":6571:6760   */\n        tag_41:\n            /* \"#utility.yul\":6648:6680   */\n          tag_127\n          tag_40\n          jump\t// in\n        tag_127:\n            /* \"#utility.yul\":6689:6754   */\n          tag_128\n            /* \"#utility.yul\":6747:6753   */\n          dup2\n            /* \"#utility.yul\":6739:6745   */\n          dup5\n            /* \"#utility.yul\":6733:6737   */\n          dup5\n            /* \"#utility.yul\":6689:6754   */\n          tag_39\n          jump\t// in\n        tag_128:\n            /* \"#utility.yul\":6624:6760   */\n          pop\n            /* \"#utility.yul\":6571:6760   */\n          pop\n          pop\n          jump\t// out\n            /* \"#utility.yul\":6766:6952   */\n        tag_42:\n            /* \"#utility.yul\":6826:6946   */\n        tag_130:\n            /* \"#utility.yul\":6843:6846   */\n          dup2\n            /* \"#utility.yul\":6836:6841   */\n          dup2\n            /* \"#utility.yul\":6833:6847   */\n          lt\n            /* \"#utility.yul\":6826:6946   */\n          iszero\n          tag_132\n          jumpi\n            /* \"#utility.yul\":6897:6936   */\n          tag_133\n            /* \"#utility.yul\":6934:6935   */\n          0x00\n            /* \"#utility.yul\":6927:6932   */\n          dup3\n            /* \"#utility.yul\":6897:6936   */\n          tag_41\n          jump\t// in\n        tag_133:\n            /* \"#utility.yul\":6870:6871   */\n          0x01\n            /* \"#utility.yul\":6863:6868   */\n          dup2\n            /* \"#utility.yul\":6859:6872   */\n          add\n            /* \"#utility.yul\":6850:6872   */\n          swap1\n          pop\n            /* \"#utility.yul\":6826:6946   */\n          jump(tag_130)\n        tag_132:\n            /* \"#utility.yul\":6766:6952   */\n          pop\n          pop\n          jump\t// out\n            /* \"#utility.yul\":6958:7501   */\n        tag_43:\n            /* \"#utility.yul\":7059:7061   */\n          0x1f\n            /* \"#utility.yul\":7054:7057   */\n          dup3\n            /* \"#utility.yul\":7051:7062   */\n          gt\n            /* \"#utility.yul\":7048:7494   */\n          iszero\n          tag_135\n          jumpi\n            /* \"#utility.yul\":7093:7131   */\n          tag_136\n            /* \"#utility.yul\":7125:7130   */\n          dup2\n            /* \"#utility.yul\":7093:7131   */\n          tag_32\n          jump\t// in\n        tag_136:\n            /* \"#utility.yul\":7177:7206   */\n          tag_137\n            /* \"#utility.yul\":7195:7205   */\n          dup5\n            /* \"#utility.yul\":7177:7206   */\n          tag_33\n          jump\t// in\n        tag_137:\n            /* \"#utility.yul\":7167:7175   */\n          dup2\n            /* \"#utility.yul\":7163:7207   */\n          add\n            /* \"#utility.yul\":7360:7362   */\n          0x20\n            /* \"#utility.yul\":7348:7358   */\n          dup6\n            /* \"#utility.yul\":7345:7363   */\n          lt\n            /* \"#utility.yul\":7342:7391   */\n          iszero\n          tag_138\n          jumpi\n            /* \"#utility.yul\":7381:7389   */\n          dup2\n            /* \"#utility.yul\":7366:7389   */\n          swap1\n          pop\n            /* \"#utility.yul\":7342:7391   */\n        tag_138:\n            /* \"#utility.yul\":7404:7484   */\n          tag_139\n            /* \"#utility.yul\":7460:7482   */\n          tag_140\n            /* \"#utility.yul\":7478:7481   */\n          dup6\n            /* \"#utility.yul\":7460:7482   */\n          tag_33\n          jump\t// in\n        tag_140:\n            /* \"#utility.yul\":7450:7458   */\n          dup4\n            /* \"#utility.yul\":7446:7483   */\n          add\n            /* \"#utility.yul\":7433:7444   */\n          dup3\n            /* \"#utility.yul\":7404:7484   */\n          tag_42\n          jump\t// in\n        tag_139:\n            /* \"#utility.yul\":7063:7494   */\n          pop\n          pop\n            /* \"#utility.yul\":7048:7494   */\n        tag_135:\n            /* \"#utility.yul\":6958:7501   */\n          pop\n          pop\n          pop\n          jump\t// out\n            /* \"#utility.yul\":7507:7624   */\n        tag_44:\n            /* \"#utility.yul\":7561:7569   */\n          0x00\n            /* \"#utility.yul\":7611:7616   */\n          dup3\n            /* \"#utility.yul\":7605:7609   */\n          dup3\n            /* \"#utility.yul\":7601:7617   */\n          shr\n            /* \"#utility.yul\":7580:7617   */\n          swap1\n          pop\n            /* \"#utility.yul\":7507:7624   */\n          swap3\n          swap2\n          pop\n          pop\n          jump\t// out\n            /* \"#utility.yul\":7630:7799   */\n        tag_45:\n            /* \"#utility.yul\":7674:7680   */\n          0x00\n            /* \"#utility.yul\":7707:7758   */\n          tag_143\n            /* \"#utility.yul\":7755:7756   */\n          0x00\n            /* \"#utility.yul\":7751:7757   */\n          not\n            /* \"#utility.yul\":7743:7748   */\n          dup5\n            /* \"#utility.yul\":7740:7741   */\n          0x08\n            /* \"#utility.yul\":7736:7749   */\n          mul\n            /* \"#utility.yul\":7707:7758   */\n          tag_44\n          jump\t// in\n        tag_143:\n            /* \"#utility.yul\":7703:7759   */\n          not\n            /* \"#utility.yul\":7788:7792   */\n          dup1\n            /* \"#utility.yul\":7782:7786   */\n          dup4\n            /* \"#utility.yul\":7778:7793   */\n          and\n            /* \"#utility.yul\":7768:7793   */\n          swap2\n          pop\n            /* \"#utility.yul\":7681:7799   */\n          pop\n            /* \"#utility.yul\":7630:7799   */\n          swap3\n          swap2\n          pop\n          pop\n          jump\t// out\n            /* \"#utility.yul\":7804:8099   */\n        tag_46:\n            /* \"#utility.yul\":7880:7884   */\n          0x00\n            /* \"#utility.yul\":8026:8055   */\n          tag_145\n            /* \"#utility.yul\":8051:8054   */\n          dup4\n            /* \"#utility.yul\":8045:8049   */\n          dup4\n            /* \"#utility.yul\":8026:8055   */\n          tag_45\n          jump\t// in\n        tag_145:\n            /* \"#utility.yul\":8018:8055   */\n          swap2\n          pop\n            /* \"#utility.yul\":8088:8091   */\n          dup3\n            /* \"#utility.yul\":8085:8086   */\n          0x02\n            /* \"#utility.yul\":8081:8092   */\n          mul\n            /* \"#utility.yul\":8075:8079   */\n          dup3\n            /* \"#utility.yul\":8072:8093   */\n          or\n            /* \"#utility.yul\":8064:8093   */\n          swap1\n          pop\n            /* \"#utility.yul\":7804:8099   */\n          swap3\n          swap2\n          pop\n          pop\n          jump\t// out\n            /* \"#utility.yul\":8104:9499   */\n        tag_7:\n            /* \"#utility.yul\":8221:8258   */\n          tag_147\n            /* \"#utility.yul\":8254:8257   */\n          dup3\n            /* \"#utility.yul\":8221:8258   */\n          tag_29\n          jump\t// in\n        tag_147:\n            /* \"#utility.yul\":8323:8341   */\n          0xffffffffffffffff\n            /* \"#utility.yul\":8315:8321   */\n          dup2\n            /* \"#utility.yul\":8312:8342   */\n          gt\n            /* \"#utility.yul\":8309:8365   */\n          iszero\n          tag_148\n          jumpi\n            /* \"#utility.yul\":8345:8363   */\n          tag_149\n          tag_15\n          jump\t// in\n        tag_149:\n            /* \"#utility.yul\":8309:8365   */\n        tag_148:\n            /* \"#utility.yul\":8389:8427   */\n          tag_150\n            /* \"#utility.yul\":8421:8425   */\n          dup3\n            /* \"#utility.yul\":8415:8426   */\n          sload\n            /* \"#utility.yul\":8389:8427   */\n          tag_31\n          jump\t// in\n        tag_150:\n            /* \"#utility.yul\":8474:8541   */\n          tag_151\n            /* \"#utility.yul\":8534:8540   */\n          dup3\n            /* \"#utility.yul\":8526:8532   */\n          dup3\n            /* \"#utility.yul\":8520:8524   */\n          dup6\n            /* \"#utility.yul\":8474:8541   */\n          tag_43\n          jump\t// in\n        tag_151:\n            /* \"#utility.yul\":8568:8569   */\n          0x00\n            /* \"#utility.yul\":8592:8596   */\n          0x20\n            /* \"#utility.yul\":8579:8596   */\n          swap1\n          pop\n            /* \"#utility.yul\":8624:8626   */\n          0x1f\n            /* \"#utility.yul\":8616:8622   */\n          dup4\n            /* \"#utility.yul\":8613:8627   */\n          gt\n            /* \"#utility.yul\":8641:8642   */\n          0x01\n            /* \"#utility.yul\":8636:9254   */\n          dup2\n          eq\n          tag_153\n          jumpi\n            /* \"#utility.yul\":9298:9299   */\n          0x00\n            /* \"#utility.yul\":9315:9321   */\n          dup5\n            /* \"#utility.yul\":9312:9389   */\n          iszero\n          tag_154\n          jumpi\n            /* \"#utility.yul\":9364:9373   */\n          dup3\n            /* \"#utility.yul\":9359:9362   */\n          dup8\n            /* \"#utility.yul\":9355:9374   */\n          add\n            /* \"#utility.yul\":9349:9375   */\n          mload\n            /* \"#utility.yul\":9340:9375   */\n          swap1\n          pop\n            /* \"#utility.yul\":9312:9389   */\n        tag_154:\n            /* \"#utility.yul\":9415:9482   */\n          tag_155\n            /* \"#utility.yul\":9475:9481   */\n          dup6\n            /* \"#utility.yul\":9468:9473   */\n          dup3\n            /* \"#utility.yul\":9415:9482   */\n          tag_46\n          jump\t// in\n        tag_155:\n            /* \"#utility.yul\":9409:9413   */\n          dup7\n            /* \"#utility.yul\":9402:9483   */\n          sstore\n            /* \"#utility.yul\":9271:9493   */\n          pop\n            /* \"#utility.yul\":8606:9493   */\n          jump(tag_152)\n            /* \"#utility.yul\":8636:9254   */\n        tag_153:\n            /* \"#utility.yul\":8688:8692   */\n          0x1f\n            /* \"#utility.yul\":8684:8693   */\n          not\n            /* \"#utility.yul\":8676:8682   */\n          dup5\n            /* \"#utility.yul\":8672:8694   */\n          and\n            /* \"#utility.yul\":8722:8759   */\n          tag_156\n            /* \"#utility.yul\":8754:8758   */\n          dup7\n            /* \"#utility.yul\":8722:8759   */\n          tag_32\n          jump\t// in\n        tag_156:\n            /* \"#utility.yul\":8781:8782   */\n          0x00\n            /* \"#utility.yul\":8795:9003   */\n        tag_157:\n            /* \"#utility.yul\":8809:8816   */\n          dup3\n            /* \"#utility.yul\":8806:8807   */\n          dup2\n            /* \"#utility.yul\":8803:8817   */\n          lt\n            /* \"#utility.yul\":8795:9003   */\n          iszero\n          tag_159\n          jumpi\n            /* \"#utility.yul\":8888:8897   */\n          dup5\n            /* \"#utility.yul\":8883:8886   */\n          dup10\n            /* \"#utility.yul\":8879:8898   */\n          add\n            /* \"#utility.yul\":8873:8899   */\n          mload\n            /* \"#utility.yul\":8865:8871   */\n          dup3\n            /* \"#utility.yul\":8858:8900   */\n          sstore\n            /* \"#utility.yul\":8939:8940   */\n          0x01\n            /* \"#utility.yul\":8931:8937   */\n          dup3\n            /* \"#utility.yul\":8927:8941   */\n          add\n            /* \"#utility.yul\":8917:8941   */\n          swap2\n          pop\n            /* \"#utility.yul\":8986:8988   */\n          0x20\n            /* \"#utility.yul\":8975:8984   */\n          dup6\n            /* \"#utility.yul\":8971:8989   */\n          add\n            /* \"#utility.yul\":8958:8989   */\n          swap5\n          pop\n            /* \"#utility.yul\":8832:8836   */\n          0x20\n            /* \"#utility.yul\":8829:8830   */\n          dup2\n            /* \"#utility.yul\":8825:8837   */\n          add\n            /* \"#utility.yul\":8820:8837   */\n          swap1\n          pop\n            /* \"#utility.yul\":8795:9003   */\n          jump(tag_157)\n        tag_159:\n            /* \"#utility.yul\":9031:9037   */\n          dup7\n            /* \"#utility.yul\":9022:9029   */\n          dup4\n            /* \"#utility.yul\":9019:9038   */\n          lt\n            /* \"#utility.yul\":9016:9195   */\n          iszero\n          tag_160\n          jumpi\n            /* \"#utility.yul\":9089:9098   */\n          dup5\n            /* \"#utility.yul\":9084:9087   */\n          dup10\n            /* \"#utility.yul\":9080:9099   */\n          add\n            /* \"#utility.yul\":9074:9100   */\n          mload\n            /* \"#utility.yul\":9132:9180   */\n          tag_161\n            /* \"#utility.yul\":9174:9178   */\n          0x1f\n            /* \"#utility.yul\":9166:9172   */\n          dup10\n            /* \"#utility.yul\":9162:9179   */\n          and\n            /* \"#utility.yul\":9151:9160   */\n          dup3\n            /* \"#utility.yul\":9132:9180   */\n          tag_45\n          jump\t// in\n        tag_161:\n            /* \"#utility.yul\":9124:9130   */\n          dup4\n            /* \"#utility.yul\":9117:9181   */\n          sstore\n            /* \"#utility.yul\":9039:9195   */\n          pop\n            /* \"#utility.yul\":9016:9195   */\n        tag_160:\n            /* \"#utility.yul\":9241:9242   */\n          0x01\n            /* \"#utility.yul\":9237:9238   */\n          0x02\n            /* \"#utility.yul\":9229:9235   */\n          dup9\n            /* \"#utility.yul\":9225:9239   */\n          mul\n            /* \"#utility.yul\":9221:9243   */\n          add\n            /* \"#utility.yul\":9215:9219   */\n          dup9\n            /* \"#utility.yul\":9208:9244   */\n          sstore\n            /* \"#utility.yul\":8643:9254   */\n          pop\n          pop\n          pop\n            /* \"#utility.yul\":8606:9493   */\n        tag_152:\n          pop\n            /* \"#utility.yul\":8196:9499   */\n          pop\n          pop\n          pop\n            /* \"#utility.yul\":8104:9499   */\n          pop\n          pop\n          jump\t// out\n            /* \"Lottogemeinschaft.sol\":800:6209  contract Lottogemeinschaft {... */\n        tag_8:\n          dataSize(sub_0)\n          dup1\n          dataOffset(sub_0)\n          0x00\n          codecopy\n          0x00\n          return\n        stop\n\n        sub_0: assembly {\n                /* \"Lottogemeinschaft.sol\":800:6209  contract Lottogemeinschaft {... */\n              mstore(0x40, 0x80)\n              jumpi(tag_1, lt(calldatasize, 0x04))\n              shr(0xe0, calldataload(0x00))\n              dup1\n              0x70a41bc0\n              gt\n              tag_19\n              jumpi\n              dup1\n              0xbb864be3\n              gt\n              tag_20\n              jumpi\n              dup1\n              0xbb864be3\n              eq\n              tag_14\n              jumpi\n              dup1\n              0xd27d06c0\n              eq\n              tag_15\n              jumpi\n              dup1\n              0xd78c28dc\n              eq\n              tag_16\n              jumpi\n              dup1\n              0xe75b3b25\n              eq\n              tag_17\n              jumpi\n              dup1\n              0xedaa52c5\n              eq\n              tag_18\n              jumpi\n              jump(tag_1)\n            tag_20:\n              dup1\n              0x70a41bc0\n              eq\n              tag_10\n              jumpi\n              dup1\n              0x822b8023\n              eq\n              tag_11\n              jumpi\n              dup1\n              0x8e5676fd\n              eq\n              tag_12\n              jumpi\n              dup1\n              0xad2c046c\n              eq\n              tag_13\n              jumpi\n              jump(tag_1)\n            tag_19:\n              dup1\n              0x3f0f5d51\n              gt\n              tag_21\n              jumpi\n              dup1\n              0x3f0f5d51\n              eq\n              tag_6\n              jumpi\n              dup1\n              0x526024ea\n              eq\n              tag_7\n              jumpi\n              dup1\n              0x535c98dd\n              eq\n              tag_8\n              jumpi\n              dup1\n              0x6f07affb\n              eq\n              tag_9\n              jumpi\n              jump(tag_1)\n            tag_21:\n              dup1\n              0x084263f5\n              eq\n              tag_2\n              jumpi\n              dup1\n              0x311e73da\n              eq\n              tag_3\n              jumpi\n              dup1\n              0x36927060\n              eq\n              tag_4\n              jumpi\n              dup1\n              0x3babb15a\n              eq\n              tag_5\n              jumpi\n            tag_1:\n              0x00\n              dup1\n              revert\n                /* \"Lottogemeinschaft.sol\":1032:1054  uint public auszahlung */\n            tag_2:\n              callvalue\n              dup1\n              iszero\n              tag_22\n              jumpi\n              0x00\n              dup1\n              revert\n            tag_22:\n              pop\n              tag_23\n              tag_24\n              jump\t// in\n            tag_23:\n              mload(0x40)\n              tag_25\n              swap2\n              swap1\n              tag_26\n              jump\t// in\n            tag_25:\n              mload(0x40)\n              dup1\n              swap2\n              sub\n              swap1\n              return\n                /* \"Lottogemeinschaft.sol\":2804:3308  function gewinnEinzahlen(uint gewinn) public payable restictedToGruender {... */\n            tag_3:\n              tag_27\n              0x04\n              dup1\n              calldatasize\n              sub\n              dup2\n              add\n              swap1\n              tag_28\n              swap2\n              swap1\n              tag_29\n              jump\t// in\n            tag_28:\n              tag_30\n              jump\t// in\n            tag_27:\n              stop\n                /* \"Lottogemeinschaft.sol\":1166:1208  mapping(address => bool) public mitspieler */\n            tag_4:\n              callvalue\n              dup1\n              iszero\n              tag_31\n              jumpi\n              0x00\n              dup1\n              revert\n            tag_31:\n              pop\n              tag_32\n              0x04\n              dup1\n              calldatasize\n              sub\n              dup2\n              add\n              swap1\n              tag_33\n              swap2\n              swap1\n              tag_34\n              jump\t// in\n            tag_33:\n              tag_35\n              jump\t// in\n            tag_32:\n              mload(0x40)\n              tag_36\n              swap2\n              swap1\n              tag_37\n              jump\t// in\n            tag_36:\n              mload(0x40)\n              dup1\n              swap2\n              sub\n              swap1\n              return\n                /* \"Lottogemeinschaft.sol\":1256:1291  uint public anzahlTeilnehmerAktuell */\n            tag_5:\n              callvalue\n              dup1\n              iszero\n              tag_38\n              jumpi\n              0x00\n              dup1\n              revert\n            tag_38:\n              pop\n              tag_39\n              tag_40\n              jump\t// in\n            tag_39:\n              mload(0x40)\n              tag_41\n              swap2\n              swap1\n              tag_26\n              jump\t// in\n            tag_41:\n              mload(0x40)\n              dup1\n              swap2\n              sub\n              swap1\n              return\n                /* \"Lottogemeinschaft.sol\":1060:1088  uint public preisLottoschein */\n            tag_6:\n              callvalue\n              dup1\n              iszero\n              tag_42\n              jumpi\n              0x00\n              dup1\n              revert\n            tag_42:\n              pop\n              tag_43\n              tag_44\n              jump\t// in\n            tag_43:\n              mload(0x40)\n              tag_45\n              swap2\n              swap1\n              tag_26\n              jump\t// in\n            tag_45:\n              mload(0x40)\n              dup1\n              swap2\n              sub\n              swap1\n              return\n                /* \"Lottogemeinschaft.sol\":2036:2756  function mitmachen() public payable {... */\n            tag_7:\n              tag_46\n              tag_47\n              jump\t// in\n            tag_46:\n              stop\n                /* \"Lottogemeinschaft.sol\":1132:1160  uint public anzahlLottotipps */\n            tag_8:\n              callvalue\n              dup1\n              iszero\n              tag_48\n              jumpi\n              0x00\n              dup1\n              revert\n            tag_48:\n              pop\n              tag_49\n              tag_50\n              jump\t// in\n            tag_49:\n              mload(0x40)\n              tag_51\n              swap2\n              swap1\n              tag_26\n              jump\t// in\n            tag_51:\n              mload(0x40)\n              dup1\n              swap2\n              sub\n              swap1\n              return\n                /* \"Lottogemeinschaft.sol\":1214:1250  address[] public mitspielerAddressen */\n            tag_9:\n              callvalue\n              dup1\n              iszero\n              tag_52\n              jumpi\n              0x00\n              dup1\n              revert\n            tag_52:\n              pop\n              tag_53\n              0x04\n              dup1\n              calldatasize\n              sub\n              dup2\n              add\n              swap1\n              tag_54\n              swap2\n              swap1\n              tag_29\n              jump\t// in\n            tag_54:\n              tag_55\n              jump\t// in\n            tag_53:\n              mload(0x40)\n              tag_56\n              swap2\n              swap1\n              tag_57\n              jump\t// in\n            tag_56:\n              mload(0x40)\n              dup1\n              swap2\n              sub\n              swap1\n              return\n                /* \"Lottogemeinschaft.sol\":995:1026  uint public maxTeilnehmerAnzahl */\n            tag_10:\n              callvalue\n              dup1\n              iszero\n              tag_58\n              jumpi\n              0x00\n              dup1\n              revert\n            tag_58:\n              pop\n              tag_59\n              tag_60\n              jump\t// in\n            tag_59:\n              mload(0x40)\n              tag_61\n              swap2\n              swap1\n              tag_26\n              jump\t// in\n            tag_61:\n              mload(0x40)\n              dup1\n              swap2\n              sub\n              swap1\n              return\n                /* \"Lottogemeinschaft.sol\":5921:6205  function anzahlMitspielerAendern(uint neueAnzahlMaxTeilnehmer) public restictedToGruender{... */\n            tag_11:\n              callvalue\n              dup1\n              iszero\n              tag_62\n              jumpi\n              0x00\n              dup1\n              revert\n            tag_62:\n              pop\n              tag_63\n              0x04\n              dup1\n              calldatasize\n              sub\n              dup2\n              add\n              swap1\n              tag_64\n              swap2\n              swap1\n              tag_29\n              jump\t// in\n            tag_64:\n              tag_65\n              jump\t// in\n            tag_63:\n              stop\n                /* \"Lottogemeinschaft.sol\":5681:5915  function preisLottoscheinAendern(uint neuerPreis) public restictedToGruender{... */\n            tag_12:\n              callvalue\n              dup1\n              iszero\n              tag_66\n              jumpi\n              0x00\n              dup1\n              revert\n            tag_66:\n              pop\n              tag_67\n              0x04\n              dup1\n              calldatasize\n              sub\n              dup2\n              add\n              swap1\n              tag_68\n              swap2\n              swap1\n              tag_29\n              jump\t// in\n            tag_68:\n              tag_69\n              jump\t// in\n            tag_67:\n              stop\n                /* \"Lottogemeinschaft.sol\":925:948  address public gruender */\n            tag_13:\n              callvalue\n              dup1\n              iszero\n              tag_70\n              jumpi\n              0x00\n              dup1\n              revert\n            tag_70:\n              pop\n              tag_71\n              tag_72\n              jump\t// in\n            tag_71:\n              mload(0x40)\n              tag_73\n              swap2\n              swap1\n              tag_57\n              jump\t// in\n            tag_73:\n              mload(0x40)\n              dup1\n              swap2\n              sub\n              swap1\n              return\n                /* \"Lottogemeinschaft.sol\":3358:4942  function auszahlen() public payable restictedToGruender {... */\n            tag_14:\n              tag_74\n              tag_75\n              jump\t// in\n            tag_74:\n              stop\n                /* \"Lottogemeinschaft.sol\":954:989  string public tippgemeinschaftsName */\n            tag_15:\n              callvalue\n              dup1\n              iszero\n              tag_76\n              jumpi\n              0x00\n              dup1\n              revert\n            tag_76:\n              pop\n              tag_77\n              tag_78\n              jump\t// in\n            tag_77:\n              mload(0x40)\n              tag_79\n              swap2\n              swap1\n              tag_80\n              jump\t// in\n            tag_79:\n              mload(0x40)\n              dup1\n              swap2\n              sub\n              swap1\n              return\n                /* \"Lottogemeinschaft.sol\":1459:1557  function getAuszahlungsIndex() public view returns (uint) {... */\n            tag_16:\n              callvalue\n              dup1\n              iszero\n              tag_81\n              jumpi\n              0x00\n              dup1\n              revert\n            tag_81:\n              pop\n              tag_82\n              tag_83\n              jump\t// in\n            tag_82:\n              mload(0x40)\n              tag_84\n              swap2\n              swap1\n              tag_26\n              jump\t// in\n            tag_84:\n              mload(0x40)\n              dup1\n              swap2\n              sub\n              swap1\n              return\n                /* \"Lottogemeinschaft.sol\":4948:5675  function lottotippEintragen(uint8[5] memory _hauptzahlen, uint8[2] memory _zusatzzahlen) public restictedToGruender{... */\n            tag_17:\n              callvalue\n              dup1\n              iszero\n              tag_85\n              jumpi\n              0x00\n              dup1\n              revert\n            tag_85:\n              pop\n              tag_86\n              0x04\n              dup1\n              calldatasize\n              sub\n              dup2\n              add\n              swap1\n              tag_87\n              swap2\n              swap1\n              tag_88\n              jump\t// in\n            tag_87:\n              tag_89\n              jump\t// in\n            tag_86:\n              stop\n                /* \"Lottogemeinschaft.sol\":1298:1326  uint public gewinnBetrag = 0 */\n            tag_18:\n              callvalue\n              dup1\n              iszero\n              tag_90\n              jumpi\n              0x00\n              dup1\n              revert\n            tag_90:\n              pop\n              tag_91\n              tag_92\n              jump\t// in\n            tag_91:\n              mload(0x40)\n              tag_93\n              swap2\n              swap1\n              tag_26\n              jump\t// in\n            tag_93:\n              mload(0x40)\n              dup1\n              swap2\n              sub\n              swap1\n              return\n                /* \"Lottogemeinschaft.sol\":1032:1054  uint public auszahlung */\n            tag_24:\n              sload(0x03)\n              dup2\n              jump\t// out\n                /* \"Lottogemeinschaft.sol\":2804:3308  function gewinnEinzahlen(uint gewinn) public payable restictedToGruender {... */\n            tag_30:\n                /* \"Lottogemeinschaft.sol\":1906:1914  gruender */\n              0x00\n              dup1\n              sload\n              swap1\n              0x0100\n              exp\n              swap1\n              div\n              0xffffffffffffffffffffffffffffffffffffffff\n              and\n                /* \"Lottogemeinschaft.sol\":1892:1914  msg.sender == gruender */\n              0xffffffffffffffffffffffffffffffffffffffff\n              and\n                /* \"Lottogemeinschaft.sol\":1892:1902  msg.sender */\n              caller\n                /* \"Lottogemeinschaft.sol\":1892:1914  msg.sender == gruender */\n              0xffffffffffffffffffffffffffffffffffffffff\n              and\n              eq\n                /* \"Lottogemeinschaft.sol\":1884:1915  require(msg.sender == gruender) */\n              tag_95\n              jumpi\n              0x00\n              dup1\n              revert\n            tag_95:\n                /* \"Lottogemeinschaft.sol\":2993:2994  0 */\n              0x00\n                /* \"Lottogemeinschaft.sol\":2981:2990  msg.value */\n              callvalue\n                /* \"Lottogemeinschaft.sol\":2981:2994  msg.value > 0 */\n              gt\n                /* \"Lottogemeinschaft.sol\":2973:3041  require(msg.value > 0, \"Einzahlungsbetrag muss groesser als 0 sein\") */\n              tag_97\n              jumpi\n              mload(0x40)\n              0x08c379a000000000000000000000000000000000000000000000000000000000\n              dup2\n              mstore\n              0x04\n              add\n              tag_98\n              swap1\n              tag_99\n              jump\t// in\n            tag_98:\n              mload(0x40)\n              dup1\n              swap2\n              sub\n              swap1\n              revert\n            tag_97:\n                /* \"Lottogemeinschaft.sol\":3295:3301  gewinn */\n              dup1\n                /* \"Lottogemeinschaft.sol\":3280:3292  gewinnBetrag */\n              0x0a\n                /* \"Lottogemeinschaft.sol\":3280:3301  gewinnBetrag = gewinn */\n              dup2\n              swap1\n              sstore\n              pop\n                /* \"Lottogemeinschaft.sol\":2804:3308  function gewinnEinzahlen(uint gewinn) public payable restictedToGruender {... */\n              pop\n              jump\t// out\n                /* \"Lottogemeinschaft.sol\":1166:1208  mapping(address => bool) public mitspieler */\n            tag_35:\n              mstore(0x20, 0x07)\n              dup1\n              0x00\n              mstore\n              keccak256(0x00, 0x40)\n              0x00\n              swap2\n              pop\n              sload\n              swap1\n              0x0100\n              exp\n              swap1\n              div\n              0xff\n              and\n              dup2\n              jump\t// out\n                /* \"Lottogemeinschaft.sol\":1256:1291  uint public anzahlTeilnehmerAktuell */\n            tag_40:\n              sload(0x09)\n              dup2\n              jump\t// out\n                /* \"Lottogemeinschaft.sol\":1060:1088  uint public preisLottoschein */\n            tag_44:\n              sload(0x04)\n              dup2\n              jump\t// out\n                /* \"Lottogemeinschaft.sol\":2036:2756  function mitmachen() public payable {... */\n            tag_47:\n                /* \"Lottogemeinschaft.sol\":2096:2121  uint erforderlicherBetrag */\n              0x00\n                /* \"Lottogemeinschaft.sol\":2143:2162  maxTeilnehmerAnzahl */\n              sload(0x02)\n                /* \"Lottogemeinschaft.sol\":2124:2140  preisLottoschein */\n              sload(0x04)\n                /* \"Lottogemeinschaft.sol\":2124:2162  preisLottoschein / maxTeilnehmerAnzahl */\n              tag_101\n              swap2\n              swap1\n              tag_102\n              jump\t// in\n            tag_101:\n                /* \"Lottogemeinschaft.sol\":2096:2162  uint erforderlicherBetrag = preisLottoschein / maxTeilnehmerAnzahl */\n              swap1\n              pop\n                /* \"Lottogemeinschaft.sol\":2193:2213  erforderlicherBetrag */\n              dup1\n                /* \"Lottogemeinschaft.sol\":2180:2189  msg.value */\n              callvalue\n                /* \"Lottogemeinschaft.sol\":2180:2213  msg.value >= erforderlicherBetrag */\n              lt\n              iszero\n                /* \"Lottogemeinschaft.sol\":2172:2247  require(msg.value >= erforderlicherBetrag, \"Zu geringer Einzahlungsbetrag\") */\n              tag_103\n              jumpi\n              mload(0x40)\n              0x08c379a000000000000000000000000000000000000000000000000000000000\n              dup2\n              mstore\n              0x04\n              add\n              tag_104\n              swap1\n              tag_105\n              jump\t// in\n            tag_104:\n              mload(0x40)\n              dup1\n              swap2\n              sub\n              swap1\n              revert\n            tag_103:\n                /* \"Lottogemeinschaft.sol\":2266:2276  mitspieler */\n              0x07\n                /* \"Lottogemeinschaft.sol\":2266:2288  mitspieler[msg.sender] */\n              0x00\n                /* \"Lottogemeinschaft.sol\":2277:2287  msg.sender */\n              caller\n                /* \"Lottogemeinschaft.sol\":2266:2288  mitspieler[msg.sender] */\n              0xffffffffffffffffffffffffffffffffffffffff\n              and\n              0xffffffffffffffffffffffffffffffffffffffff\n              and\n              dup2\n              mstore\n              0x20\n              add\n              swap1\n              dup2\n              mstore\n              0x20\n              add\n              0x00\n              keccak256\n              0x00\n              swap1\n              sload\n              swap1\n              0x0100\n              exp\n              swap1\n              div\n              0xff\n              and\n                /* \"Lottogemeinschaft.sol\":2265:2288  !mitspieler[msg.sender] */\n              iszero\n                /* \"Lottogemeinschaft.sol\":2257:2327  require(!mitspieler[msg.sender], \"Bereits als Mitspieler registriert\") */\n              tag_106\n              jumpi\n              mload(0x40)\n              0x08c379a000000000000000000000000000000000000000000000000000000000\n              dup2\n              mstore\n              0x04\n              add\n              tag_107\n              swap1\n              tag_108\n              jump\t// in\n            tag_107:\n              mload(0x40)\n              dup1\n              swap2\n              sub\n              swap1\n              revert\n            tag_106:\n                /* \"Lottogemeinschaft.sol\":2371:2390  maxTeilnehmerAnzahl */\n              sload(0x02)\n                /* \"Lottogemeinschaft.sol\":2345:2368  anzahlTeilnehmerAktuell */\n              sload(0x09)\n                /* \"Lottogemeinschaft.sol\":2345:2390  anzahlTeilnehmerAktuell < maxTeilnehmerAnzahl */\n              lt\n                /* \"Lottogemeinschaft.sol\":2337:2427  require(anzahlTeilnehmerAktuell < maxTeilnehmerAnzahl, \"Maximale Teilnehmerzahl erreicht\") */\n              tag_109\n              jumpi\n              mload(0x40)\n              0x08c379a000000000000000000000000000000000000000000000000000000000\n              dup2\n              mstore\n              0x04\n              add\n              tag_110\n              swap1\n              tag_111\n              jump\t// in\n            tag_110:\n              mload(0x40)\n              dup1\n              swap2\n              sub\n              swap1\n              revert\n            tag_109:\n                /* \"Lottogemeinschaft.sol\":2457:2473  uint ueberschuss */\n              0x00\n                /* \"Lottogemeinschaft.sol\":2488:2508  erforderlicherBetrag */\n              dup2\n                /* \"Lottogemeinschaft.sol\":2476:2485  msg.value */\n              callvalue\n                /* \"Lottogemeinschaft.sol\":2476:2508  msg.value - erforderlicherBetrag */\n              tag_112\n              swap2\n              swap1\n              tag_113\n              jump\t// in\n            tag_112:\n                /* \"Lottogemeinschaft.sol\":2457:2508  uint ueberschuss = msg.value - erforderlicherBetrag */\n              swap1\n              pop\n                /* \"Lottogemeinschaft.sol\":2543:2547  true */\n              0x01\n                /* \"Lottogemeinschaft.sol\":2518:2528  mitspieler */\n              0x07\n                /* \"Lottogemeinschaft.sol\":2518:2540  mitspieler[msg.sender] */\n              0x00\n                /* \"Lottogemeinschaft.sol\":2529:2539  msg.sender */\n              caller\n                /* \"Lottogemeinschaft.sol\":2518:2540  mitspieler[msg.sender] */\n              0xffffffffffffffffffffffffffffffffffffffff\n              and\n              0xffffffffffffffffffffffffffffffffffffffff\n              and\n              dup2\n              mstore\n              0x20\n              add\n              swap1\n              dup2\n              mstore\n              0x20\n              add\n              0x00\n              keccak256\n              0x00\n                /* \"Lottogemeinschaft.sol\":2518:2547  mitspieler[msg.sender] = true */\n              0x0100\n              exp\n              dup2\n              sload\n              dup2\n              0xff\n              mul\n              not\n              and\n              swap1\n              dup4\n              iszero\n              iszero\n              mul\n              or\n              swap1\n              sstore\n              pop\n                /* \"Lottogemeinschaft.sol\":2557:2576  mitspielerAddressen */\n              0x08\n                /* \"Lottogemeinschaft.sol\":2582:2592  msg.sender */\n              caller\n                /* \"Lottogemeinschaft.sol\":2557:2593  mitspielerAddressen.push(msg.sender) */\n              swap1\n              dup1\n              0x01\n              dup2\n              sload\n              add\n              dup1\n              dup3\n              sstore\n              dup1\n              swap2\n              pop\n              pop\n              0x01\n              swap1\n              sub\n              swap1\n              0x00\n              mstore\n              keccak256(0x00, 0x20)\n              add\n              0x00\n              swap1\n              swap2\n              swap1\n              swap2\n              swap1\n              swap2\n              0x0100\n              exp\n              dup2\n              sload\n              dup2\n              0xffffffffffffffffffffffffffffffffffffffff\n              mul\n              not\n              and\n              swap1\n              dup4\n              0xffffffffffffffffffffffffffffffffffffffff\n              and\n              mul\n              or\n              swap1\n              sstore\n              pop\n                /* \"Lottogemeinschaft.sol\":2603:2626  anzahlTeilnehmerAktuell */\n              0x09\n              0x00\n                /* \"Lottogemeinschaft.sol\":2603:2628  anzahlTeilnehmerAktuell++ */\n              dup2\n              sload\n              dup1\n              swap3\n              swap2\n              swap1\n              tag_115\n              swap1\n              tag_116\n              jump\t// in\n            tag_115:\n              swap2\n              swap1\n              pop\n              sstore\n              pop\n                /* \"Lottogemeinschaft.sol\":2681:2682  0 */\n              0x00\n                /* \"Lottogemeinschaft.sol\":2667:2678  ueberschuss */\n              dup2\n                /* \"Lottogemeinschaft.sol\":2667:2682  ueberschuss > 0 */\n              gt\n                /* \"Lottogemeinschaft.sol\":2663:2750  if (ueberschuss > 0) {... */\n              iszero\n              tag_117\n              jumpi\n                /* \"Lottogemeinschaft.sol\":2706:2716  msg.sender */\n              caller\n                /* \"Lottogemeinschaft.sol\":2698:2726  payable(msg.sender).transfer */\n              0xffffffffffffffffffffffffffffffffffffffff\n              and\n                /* \"Lottogemeinschaft.sol\":2698:2739  payable(msg.sender).transfer(ueberschuss) */\n              0x08fc\n                /* \"Lottogemeinschaft.sol\":2727:2738  ueberschuss */\n              dup3\n                /* \"Lottogemeinschaft.sol\":2698:2739  payable(msg.sender).transfer(ueberschuss) */\n              swap1\n              dup2\n              iszero\n              mul\n              swap1\n              mload(0x40)\n              0x00\n              mload(0x40)\n              dup1\n              dup4\n              sub\n              dup2\n              dup6\n              dup9\n              dup9\n              call\n              swap4\n              pop\n              pop\n              pop\n              pop\n              iszero\n              dup1\n              iszero\n              tag_119\n              jumpi\n              returndatasize\n              0x00\n              dup1\n              returndatacopy\n              revert(0x00, returndatasize)\n            tag_119:\n              pop\n                /* \"Lottogemeinschaft.sol\":2663:2750  if (ueberschuss > 0) {... */\n            tag_117:\n                /* \"Lottogemeinschaft.sol\":2072:2756  {... */\n              pop\n              pop\n                /* \"Lottogemeinschaft.sol\":2036:2756  function mitmachen() public payable {... */\n              jump\t// out\n                /* \"Lottogemeinschaft.sol\":1132:1160  uint public anzahlLottotipps */\n            tag_50:\n              sload(0x06)\n              dup2\n              jump\t// out\n                /* \"Lottogemeinschaft.sol\":1214:1250  address[] public mitspielerAddressen */\n            tag_55:\n              0x08\n              dup2\n              dup2\n              sload\n              dup2\n              lt\n              tag_120\n              jumpi\n              0x00\n              dup1\n              revert\n            tag_120:\n              swap1\n              0x00\n              mstore\n              keccak256(0x00, 0x20)\n              add\n              0x00\n              swap2\n              pop\n              sload\n              swap1\n              0x0100\n              exp\n              swap1\n              div\n              0xffffffffffffffffffffffffffffffffffffffff\n              and\n              dup2\n              jump\t// out\n                /* \"Lottogemeinschaft.sol\":995:1026  uint public maxTeilnehmerAnzahl */\n            tag_60:\n              sload(0x02)\n              dup2\n              jump\t// out\n                /* \"Lottogemeinschaft.sol\":5921:6205  function anzahlMitspielerAendern(uint neueAnzahlMaxTeilnehmer) public restictedToGruender{... */\n            tag_65:\n                /* \"Lottogemeinschaft.sol\":1906:1914  gruender */\n              0x00\n              dup1\n              sload\n              swap1\n              0x0100\n              exp\n              swap1\n              div\n              0xffffffffffffffffffffffffffffffffffffffff\n              and\n                /* \"Lottogemeinschaft.sol\":1892:1914  msg.sender == gruender */\n              0xffffffffffffffffffffffffffffffffffffffff\n              and\n                /* \"Lottogemeinschaft.sol\":1892:1902  msg.sender */\n              caller\n                /* \"Lottogemeinschaft.sol\":1892:1914  msg.sender == gruender */\n              0xffffffffffffffffffffffffffffffffffffffff\n              and\n              eq\n                /* \"Lottogemeinschaft.sol\":1884:1915  require(msg.sender == gruender) */\n              tag_123\n              jumpi\n              0x00\n              dup1\n              revert\n            tag_123:\n                /* \"Lottogemeinschaft.sol\":6053:6054  0 */\n              0x00\n                /* \"Lottogemeinschaft.sol\":6028:6051  anzahlTeilnehmerAktuell */\n              sload(0x09)\n                /* \"Lottogemeinschaft.sol\":6028:6054  anzahlTeilnehmerAktuell==0 */\n              eq\n                /* \"Lottogemeinschaft.sol\":6020:6143  require(anzahlTeilnehmerAktuell==0, \"Es gibt bereits Mitspieler. Aenderung der Anzahl an Mitspielern nicht mehr moeglich.\") */\n              tag_125\n              jumpi\n              mload(0x40)\n              0x08c379a000000000000000000000000000000000000000000000000000000000\n              dup2\n              mstore\n              0x04\n              add\n              tag_126\n              swap1\n              tag_127\n              jump\t// in\n            tag_126:\n              mload(0x40)\n              dup1\n              swap2\n              sub\n              swap1\n              revert\n            tag_125:\n                /* \"Lottogemeinschaft.sol\":6175:6198  neueAnzahlMaxTeilnehmer */\n              dup1\n                /* \"Lottogemeinschaft.sol\":6153:6172  maxTeilnehmerAnzahl */\n              0x02\n                /* \"Lottogemeinschaft.sol\":6153:6198  maxTeilnehmerAnzahl = neueAnzahlMaxTeilnehmer */\n              dup2\n              swap1\n              sstore\n              pop\n                /* \"Lottogemeinschaft.sol\":5921:6205  function anzahlMitspielerAendern(uint neueAnzahlMaxTeilnehmer) public restictedToGruender{... */\n              pop\n              jump\t// out\n                /* \"Lottogemeinschaft.sol\":5681:5915  function preisLottoscheinAendern(uint neuerPreis) public restictedToGruender{... */\n            tag_69:\n                /* \"Lottogemeinschaft.sol\":1906:1914  gruender */\n              0x00\n              dup1\n              sload\n              swap1\n              0x0100\n              exp\n              swap1\n              div\n              0xffffffffffffffffffffffffffffffffffffffff\n              and\n                /* \"Lottogemeinschaft.sol\":1892:1914  msg.sender == gruender */\n              0xffffffffffffffffffffffffffffffffffffffff\n              and\n                /* \"Lottogemeinschaft.sol\":1892:1902  msg.sender */\n              caller\n                /* \"Lottogemeinschaft.sol\":1892:1914  msg.sender == gruender */\n              0xffffffffffffffffffffffffffffffffffffffff\n              and\n              eq\n                /* \"Lottogemeinschaft.sol\":1884:1915  require(msg.sender == gruender) */\n              tag_129\n              jumpi\n              0x00\n              dup1\n              revert\n            tag_129:\n                /* \"Lottogemeinschaft.sol\":5800:5801  0 */\n              0x00\n                /* \"Lottogemeinschaft.sol\":5775:5798  anzahlTeilnehmerAktuell */\n              sload(0x09)\n                /* \"Lottogemeinschaft.sol\":5775:5801  anzahlTeilnehmerAktuell==0 */\n              eq\n                /* \"Lottogemeinschaft.sol\":5767:5869  require(anzahlTeilnehmerAktuell==0, \"Es gibt bereits Mitspieler. Preisaenderung nicht mehr moeglich.\") */\n              tag_131\n              jumpi\n              mload(0x40)\n              0x08c379a000000000000000000000000000000000000000000000000000000000\n              dup2\n              mstore\n              0x04\n              add\n              tag_132\n              swap1\n              tag_133\n              jump\t// in\n            tag_132:\n              mload(0x40)\n              dup1\n              swap2\n              sub\n              swap1\n              revert\n            tag_131:\n                /* \"Lottogemeinschaft.sol\":5898:5908  neuerPreis */\n              dup1\n                /* \"Lottogemeinschaft.sol\":5879:5895  preisLottoschein */\n              0x04\n                /* \"Lottogemeinschaft.sol\":5879:5908  preisLottoschein = neuerPreis */\n              dup2\n              swap1\n              sstore\n              pop\n                /* \"Lottogemeinschaft.sol\":5681:5915  function preisLottoscheinAendern(uint neuerPreis) public restictedToGruender{... */\n              pop\n              jump\t// out\n                /* \"Lottogemeinschaft.sol\":925:948  address public gruender */\n            tag_72:\n              0x00\n              dup1\n              sload\n              swap1\n              0x0100\n              exp\n              swap1\n              div\n              0xffffffffffffffffffffffffffffffffffffffff\n              and\n              dup2\n              jump\t// out\n                /* \"Lottogemeinschaft.sol\":3358:4942  function auszahlen() public payable restictedToGruender {... */\n            tag_75:\n                /* \"Lottogemeinschaft.sol\":1906:1914  gruender */\n              0x00\n              dup1\n              sload\n              swap1\n              0x0100\n              exp\n              swap1\n              div\n              0xffffffffffffffffffffffffffffffffffffffff\n              and\n                /* \"Lottogemeinschaft.sol\":1892:1914  msg.sender == gruender */\n              0xffffffffffffffffffffffffffffffffffffffff\n              and\n                /* \"Lottogemeinschaft.sol\":1892:1902  msg.sender */\n              caller\n                /* \"Lottogemeinschaft.sol\":1892:1914  msg.sender == gruender */\n              0xffffffffffffffffffffffffffffffffffffffff\n              and\n              eq\n                /* \"Lottogemeinschaft.sol\":1884:1915  require(msg.sender == gruender) */\n              tag_135\n              jumpi\n              0x00\n              dup1\n              revert\n            tag_135:\n                /* \"Lottogemeinschaft.sol\":3442:3466  uint anzahlDerMitspieler */\n              0x00\n                /* \"Lottogemeinschaft.sol\":3469:3492  anzahlTeilnehmerAktuell */\n              sload(0x09)\n                /* \"Lottogemeinschaft.sol\":3442:3492  uint anzahlDerMitspieler = anzahlTeilnehmerAktuell */\n              swap1\n              pop\n                /* \"Lottogemeinschaft.sol\":3532:3533  0 */\n              0x00\n                /* \"Lottogemeinschaft.sol\":3510:3529  anzahlDerMitspieler */\n              dup2\n                /* \"Lottogemeinschaft.sol\":3510:3533  anzahlDerMitspieler > 0 */\n              gt\n                /* \"Lottogemeinschaft.sol\":3502:3564  require(anzahlDerMitspieler > 0, \"Keine Mitspieler vorhanden\") */\n              tag_137\n              jumpi\n              mload(0x40)\n              0x08c379a000000000000000000000000000000000000000000000000000000000\n              dup2\n              mstore\n              0x04\n              add\n              tag_138\n              swap1\n              tag_139\n              jump\t// in\n            tag_138:\n              mload(0x40)\n              dup1\n              swap2\n              sub\n              swap1\n              revert\n            tag_137:\n                /* \"Lottogemeinschaft.sol\":3609:3628  maxTeilnehmerAnzahl */\n              sload(0x02)\n                /* \"Lottogemeinschaft.sol\":3582:3605  anzahlTeilnehmerAktuell */\n              sload(0x09)\n                /* \"Lottogemeinschaft.sol\":3582:3628  anzahlTeilnehmerAktuell == maxTeilnehmerAnzahl */\n              eq\n                /* \"Lottogemeinschaft.sol\":3574:3673  require(anzahlTeilnehmerAktuell == maxTeilnehmerAnzahl, \"Nicht alle Mitspieler haben teilgenommen\") */\n              tag_140\n              jumpi\n              mload(0x40)\n              0x08c379a000000000000000000000000000000000000000000000000000000000\n              dup2\n              mstore\n              0x04\n              add\n              tag_141\n              swap1\n              tag_142\n              jump\t// in\n            tag_141:\n              mload(0x40)\n              dup1\n              swap2\n              sub\n              swap1\n              revert\n            tag_140:\n                /* \"Lottogemeinschaft.sol\":3683:3703  uint gewinnProPerson */\n              0x00\n                /* \"Lottogemeinschaft.sol\":3730:3749  anzahlDerMitspieler */\n              dup2\n                /* \"Lottogemeinschaft.sol\":3706:3727  address(this).balance */\n              selfbalance\n                /* \"Lottogemeinschaft.sol\":3706:3749  address(this).balance / anzahlDerMitspieler */\n              tag_143\n              swap2\n              swap1\n              tag_102\n              jump\t// in\n            tag_143:\n                /* \"Lottogemeinschaft.sol\":3683:3749  uint gewinnProPerson = address(this).balance / anzahlDerMitspieler */\n              swap1\n              pop\n                /* \"Lottogemeinschaft.sol\":3785:3786  0 */\n              0x00\n                /* \"Lottogemeinschaft.sol\":3767:3782  gewinnProPerson */\n              dup2\n                /* \"Lottogemeinschaft.sol\":3767:3786  gewinnProPerson > 0 */\n              gt\n                /* \"Lottogemeinschaft.sol\":3759:3831  require(gewinnProPerson > 0, \"Nicht genuegend Guthaben fuer Auszahlung\") */\n              tag_144\n              jumpi\n              mload(0x40)\n              0x08c379a000000000000000000000000000000000000000000000000000000000\n              dup2\n              mstore\n              0x04\n              add\n              tag_145\n              swap1\n              tag_146\n              jump\t// in\n            tag_145:\n              mload(0x40)\n              dup1\n              swap2\n              sub\n              swap1\n              revert\n            tag_144:\n                /* \"Lottogemeinschaft.sol\":3920:3939  uint endChargeIndex */\n              0x00\n                /* \"Lottogemeinschaft.sol\":1402:1403  5 */\n              0x05\n                /* \"Lottogemeinschaft.sol\":3942:3958  auszahlungsIndex */\n              sload(0x0b)\n                /* \"Lottogemeinschaft.sol\":3942:3975  auszahlungsIndex + CHARGE_GROESSE */\n              tag_147\n              swap2\n              swap1\n              tag_148\n              jump\t// in\n            tag_147:\n                /* \"Lottogemeinschaft.sol\":3920:3975  uint endChargeIndex = auszahlungsIndex + CHARGE_GROESSE */\n              swap1\n              pop\n                /* \"Lottogemeinschaft.sol\":3990:3996  uint i */\n              0x00\n                /* \"Lottogemeinschaft.sol\":3999:4015  auszahlungsIndex */\n              sload(0x0b)\n                /* \"Lottogemeinschaft.sol\":3990:4015  uint i = auszahlungsIndex */\n              swap1\n              pop\n                /* \"Lottogemeinschaft.sol\":3985:4346  for (uint i = auszahlungsIndex; i < endChargeIndex && i < anzahlDerMitspieler; i++) {... */\n            tag_149:\n                /* \"Lottogemeinschaft.sol\":4021:4035  endChargeIndex */\n              dup2\n                /* \"Lottogemeinschaft.sol\":4017:4018  i */\n              dup2\n                /* \"Lottogemeinschaft.sol\":4017:4035  i < endChargeIndex */\n              lt\n                /* \"Lottogemeinschaft.sol\":4017:4062  i < endChargeIndex && i < anzahlDerMitspieler */\n              dup1\n              iszero\n              tag_152\n              jumpi\n              pop\n                /* \"Lottogemeinschaft.sol\":4043:4062  anzahlDerMitspieler */\n              dup4\n                /* \"Lottogemeinschaft.sol\":4039:4040  i */\n              dup2\n                /* \"Lottogemeinschaft.sol\":4039:4062  i < anzahlDerMitspieler */\n              lt\n                /* \"Lottogemeinschaft.sol\":4017:4062  i < endChargeIndex && i < anzahlDerMitspieler */\n            tag_152:\n                /* \"Lottogemeinschaft.sol\":3985:4346  for (uint i = auszahlungsIndex; i < endChargeIndex && i < anzahlDerMitspieler; i++) {... */\n              iszero\n              tag_150\n              jumpi\n                /* \"Lottogemeinschaft.sol\":4083:4108  address mitspielerAdresse */\n              0x00\n                /* \"Lottogemeinschaft.sol\":4111:4130  mitspielerAddressen */\n              0x08\n                /* \"Lottogemeinschaft.sol\":4131:4132  i */\n              dup3\n                /* \"Lottogemeinschaft.sol\":4111:4133  mitspielerAddressen[i] */\n              dup2\n              sload\n              dup2\n              lt\n              tag_153\n              jumpi\n              tag_154\n              tag_155\n              jump\t// in\n            tag_154:\n            tag_153:\n              swap1\n              0x00\n              mstore\n              keccak256(0x00, 0x20)\n              add\n              0x00\n              swap1\n              sload\n              swap1\n              0x0100\n              exp\n              swap1\n              div\n              0xffffffffffffffffffffffffffffffffffffffff\n              and\n                /* \"Lottogemeinschaft.sol\":4083:4133  address mitspielerAdresse = mitspielerAddressen[i] */\n              swap1\n              pop\n                /* \"Lottogemeinschaft.sol\":4205:4214  bool sent */\n              0x00\n                /* \"Lottogemeinschaft.sol\":4228:4245  mitspielerAdresse */\n              dup2\n                /* \"Lottogemeinschaft.sol\":4220:4251  payable(mitspielerAdresse).call */\n              0xffffffffffffffffffffffffffffffffffffffff\n              and\n                /* \"Lottogemeinschaft.sol\":4259:4274  gewinnProPerson */\n              dup6\n                /* \"Lottogemeinschaft.sol\":4220:4279  payable(mitspielerAdresse).call{value: gewinnProPerson}(\"\") */\n              mload(0x40)\n              tag_157\n              swap1\n              tag_158\n              jump\t// in\n            tag_157:\n              0x00\n              mload(0x40)\n              dup1\n              dup4\n              sub\n              dup2\n              dup6\n              dup8\n              gas\n              call\n              swap3\n              pop\n              pop\n              pop\n              returndatasize\n              dup1\n              0x00\n              dup2\n              eq\n              tag_161\n              jumpi\n              mload(0x40)\n              swap2\n              pop\n              and(add(returndatasize, 0x3f), not(0x1f))\n              dup3\n              add\n              0x40\n              mstore\n              returndatasize\n              dup3\n              mstore\n              returndatasize\n              0x00\n              0x20\n              dup5\n              add\n              returndatacopy\n              jump(tag_160)\n            tag_161:\n              0x60\n              swap2\n              pop\n            tag_160:\n              pop\n                /* \"Lottogemeinschaft.sol\":4204:4279  (bool sent, ) = payable(mitspielerAdresse).call{value: gewinnProPerson}(\"\") */\n              pop\n              swap1\n              pop\n                /* \"Lottogemeinschaft.sol\":4301:4305  sent */\n              dup1\n                /* \"Lottogemeinschaft.sol\":4293:4335  require(sent, \"Auszahlung fehlgeschlagen\") */\n              tag_162\n              jumpi\n              mload(0x40)\n              0x08c379a000000000000000000000000000000000000000000000000000000000\n              dup2\n              mstore\n              0x04\n              add\n              tag_163\n              swap1\n              tag_164\n              jump\t// in\n            tag_163:\n              mload(0x40)\n              dup1\n              swap2\n              sub\n              swap1\n              revert\n            tag_162:\n                /* \"Lottogemeinschaft.sol\":4069:4346  {... */\n              pop\n              pop\n                /* \"Lottogemeinschaft.sol\":4064:4067  i++ */\n              dup1\n              dup1\n              tag_165\n              swap1\n              tag_116\n              jump\t// in\n            tag_165:\n              swap2\n              pop\n              pop\n                /* \"Lottogemeinschaft.sol\":3985:4346  for (uint i = auszahlungsIndex; i < endChargeIndex && i < anzahlDerMitspieler; i++) {... */\n              jump(tag_149)\n            tag_150:\n              pop\n                /* \"Lottogemeinschaft.sol\":4438:4457  anzahlDerMitspieler */\n              dup3\n                /* \"Lottogemeinschaft.sol\":4421:4435  endChargeIndex */\n              dup2\n                /* \"Lottogemeinschaft.sol\":4421:4457  endChargeIndex > anzahlDerMitspieler */\n              gt\n                /* \"Lottogemeinschaft.sol\":4421:4496  endChargeIndex > anzahlDerMitspieler ? anzahlDerMitspieler : endChargeIndex */\n              tag_166\n              jumpi\n                /* \"Lottogemeinschaft.sol\":4482:4496  endChargeIndex */\n              dup1\n                /* \"Lottogemeinschaft.sol\":4421:4496  endChargeIndex > anzahlDerMitspieler ? anzahlDerMitspieler : endChargeIndex */\n              jump(tag_167)\n            tag_166:\n                /* \"Lottogemeinschaft.sol\":4460:4479  anzahlDerMitspieler */\n              dup3\n                /* \"Lottogemeinschaft.sol\":4421:4496  endChargeIndex > anzahlDerMitspieler ? anzahlDerMitspieler : endChargeIndex */\n            tag_167:\n                /* \"Lottogemeinschaft.sol\":4402:4418  auszahlungsIndex */\n              0x0b\n                /* \"Lottogemeinschaft.sol\":4402:4496  auszahlungsIndex = endChargeIndex > anzahlDerMitspieler ? anzahlDerMitspieler : endChargeIndex */\n              dup2\n              swap1\n              sstore\n              pop\n                /* \"Lottogemeinschaft.sol\":4591:4610  anzahlDerMitspieler */\n              dup3\n                /* \"Lottogemeinschaft.sol\":4571:4587  auszahlungsIndex */\n              sload(0x0b)\n                /* \"Lottogemeinschaft.sol\":4571:4610  auszahlungsIndex == anzahlDerMitspieler */\n              sub\n                /* \"Lottogemeinschaft.sol\":4567:4936  if (auszahlungsIndex == anzahlDerMitspieler) {... */\n              tag_168\n              jumpi\n                /* \"Lottogemeinschaft.sol\":4631:4637  uint i */\n              0x00\n                /* \"Lottogemeinschaft.sol\":4626:4810  for (uint i = 0; i < anzahlDerMitspieler; i++) {... */\n            tag_169:\n                /* \"Lottogemeinschaft.sol\":4647:4666  anzahlDerMitspieler */\n              dup4\n                /* \"Lottogemeinschaft.sol\":4643:4644  i */\n              dup2\n                /* \"Lottogemeinschaft.sol\":4643:4666  i < anzahlDerMitspieler */\n              lt\n                /* \"Lottogemeinschaft.sol\":4626:4810  for (uint i = 0; i < anzahlDerMitspieler; i++) {... */\n              iszero\n              tag_170\n              jumpi\n                /* \"Lottogemeinschaft.sol\":4691:4716  address mitspielerAdresse */\n              0x00\n                /* \"Lottogemeinschaft.sol\":4719:4738  mitspielerAddressen */\n              0x08\n                /* \"Lottogemeinschaft.sol\":4739:4740  i */\n              dup3\n                /* \"Lottogemeinschaft.sol\":4719:4741  mitspielerAddressen[i] */\n              dup2\n              sload\n              dup2\n              lt\n              tag_172\n              jumpi\n              tag_173\n              tag_155\n              jump\t// in\n            tag_173:\n            tag_172:\n              swap1\n              0x00\n              mstore\n              keccak256(0x00, 0x20)\n              add\n              0x00\n              swap1\n              sload\n              swap1\n              0x0100\n              exp\n              swap1\n              div\n              0xffffffffffffffffffffffffffffffffffffffff\n              and\n                /* \"Lottogemeinschaft.sol\":4691:4741  address mitspielerAdresse = mitspielerAddressen[i] */\n              swap1\n              pop\n                /* \"Lottogemeinschaft.sol\":4766:4776  mitspieler */\n              0x07\n                /* \"Lottogemeinschaft.sol\":4766:4795  mitspieler[mitspielerAdresse] */\n              0x00\n                /* \"Lottogemeinschaft.sol\":4777:4794  mitspielerAdresse */\n              dup3\n                /* \"Lottogemeinschaft.sol\":4766:4795  mitspieler[mitspielerAdresse] */\n              0xffffffffffffffffffffffffffffffffffffffff\n              and\n              0xffffffffffffffffffffffffffffffffffffffff\n              and\n              dup2\n              mstore\n              0x20\n              add\n              swap1\n              dup2\n              mstore\n              0x20\n              add\n              0x00\n              keccak256\n              0x00\n                /* \"Lottogemeinschaft.sol\":4759:4795  delete mitspieler[mitspielerAdresse] */\n              0x0100\n              exp\n              dup2\n              sload\n              swap1\n              0xff\n              mul\n              not\n              and\n              swap1\n              sstore\n                /* \"Lottogemeinschaft.sol\":4673:4810  {... */\n              pop\n                /* \"Lottogemeinschaft.sol\":4668:4671  i++ */\n              dup1\n              dup1\n              0x01\n              add\n              swap2\n              pop\n              pop\n                /* \"Lottogemeinschaft.sol\":4626:4810  for (uint i = 0; i < anzahlDerMitspieler; i++) {... */\n              jump(tag_169)\n            tag_170:\n              pop\n                /* \"Lottogemeinschaft.sol\":4831:4850  mitspielerAddressen */\n              0x08\n              0x00\n                /* \"Lottogemeinschaft.sol\":4824:4850  delete mitspielerAddressen */\n              tag_175\n              swap2\n              swap1\n              tag_176\n              jump\t// in\n            tag_175:\n                /* \"Lottogemeinschaft.sol\":4890:4891  0 */\n              0x00\n                /* \"Lottogemeinschaft.sol\":4864:4887  anzahlTeilnehmerAktuell */\n              0x09\n                /* \"Lottogemeinschaft.sol\":4864:4891  anzahlTeilnehmerAktuell = 0 */\n              dup2\n              swap1\n              sstore\n              pop\n                /* \"Lottogemeinschaft.sol\":4924:4925  0 */\n              0x00\n                /* \"Lottogemeinschaft.sol\":4905:4921  auszahlungsIndex */\n              0x0b\n                /* \"Lottogemeinschaft.sol\":4905:4925  auszahlungsIndex = 0 */\n              dup2\n              swap1\n              sstore\n              pop\n                /* \"Lottogemeinschaft.sol\":4567:4936  if (auszahlungsIndex == anzahlDerMitspieler) {... */\n            tag_168:\n                /* \"Lottogemeinschaft.sol\":3414:4942  {... */\n              pop\n              pop\n              pop\n                /* \"Lottogemeinschaft.sol\":3358:4942  function auszahlen() public payable restictedToGruender {... */\n              jump\t// out\n                /* \"Lottogemeinschaft.sol\":954:989  string public tippgemeinschaftsName */\n            tag_78:\n              0x01\n              dup1\n              sload\n              tag_177\n              swap1\n              tag_178\n              jump\t// in\n            tag_177:\n              dup1\n              0x1f\n              add\n              0x20\n              dup1\n              swap2\n              div\n              mul\n              0x20\n              add\n              mload(0x40)\n              swap1\n              dup2\n              add\n              0x40\n              mstore\n              dup1\n              swap3\n              swap2\n              swap1\n              dup2\n              dup2\n              mstore\n              0x20\n              add\n              dup3\n              dup1\n              sload\n              tag_179\n              swap1\n              tag_178\n              jump\t// in\n            tag_179:\n              dup1\n              iszero\n              tag_180\n              jumpi\n              dup1\n              0x1f\n              lt\n              tag_181\n              jumpi\n              0x0100\n              dup1\n              dup4\n              sload\n              div\n              mul\n              dup4\n              mstore\n              swap2\n              0x20\n              add\n              swap2\n              jump(tag_180)\n            tag_181:\n              dup3\n              add\n              swap2\n              swap1\n              0x00\n              mstore\n              keccak256(0x00, 0x20)\n              swap1\n            tag_182:\n              dup2\n              sload\n              dup2\n              mstore\n              swap1\n              0x01\n              add\n              swap1\n              0x20\n              add\n              dup1\n              dup4\n              gt\n              tag_182\n              jumpi\n              dup3\n              swap1\n              sub\n              0x1f\n              and\n              dup3\n              add\n              swap2\n            tag_180:\n              pop\n              pop\n              pop\n              pop\n              pop\n              dup2\n              jump\t// out\n                /* \"Lottogemeinschaft.sol\":1459:1557  function getAuszahlungsIndex() public view returns (uint) {... */\n            tag_83:\n                /* \"Lottogemeinschaft.sol\":1511:1515  uint */\n              0x00\n                /* \"Lottogemeinschaft.sol\":1534:1550  auszahlungsIndex */\n              sload(0x0b)\n                /* \"Lottogemeinschaft.sol\":1527:1550  return auszahlungsIndex */\n              swap1\n              pop\n                /* \"Lottogemeinschaft.sol\":1459:1557  function getAuszahlungsIndex() public view returns (uint) {... */\n              swap1\n              jump\t// out\n                /* \"Lottogemeinschaft.sol\":4948:5675  function lottotippEintragen(uint8[5] memory _hauptzahlen, uint8[2] memory _zusatzzahlen) public restictedToGruender{... */\n            tag_89:\n                /* \"Lottogemeinschaft.sol\":1906:1914  gruender */\n              0x00\n              dup1\n              sload\n              swap1\n              0x0100\n              exp\n              swap1\n              div\n              0xffffffffffffffffffffffffffffffffffffffff\n              and\n                /* \"Lottogemeinschaft.sol\":1892:1914  msg.sender == gruender */\n              0xffffffffffffffffffffffffffffffffffffffff\n              and\n                /* \"Lottogemeinschaft.sol\":1892:1902  msg.sender */\n              caller\n                /* \"Lottogemeinschaft.sol\":1892:1914  msg.sender == gruender */\n              0xffffffffffffffffffffffffffffffffffffffff\n              and\n              eq\n                /* \"Lottogemeinschaft.sol\":1884:1915  require(msg.sender == gruender) */\n              tag_185\n              jumpi\n              0x00\n              dup1\n              revert\n            tag_185:\n                /* \"Lottogemeinschaft.sol\":5116:5122  uint i */\n              0x00\n                /* \"Lottogemeinschaft.sol\":5112:5274  for(uint i = 0; i < _hauptzahlen.length; i++) {... */\n            tag_187:\n                /* \"Lottogemeinschaft.sol\":5132:5151  _hauptzahlen.length */\n              0x05\n                /* \"Lottogemeinschaft.sol\":5128:5129  i */\n              dup2\n                /* \"Lottogemeinschaft.sol\":5128:5151  i < _hauptzahlen.length */\n              lt\n                /* \"Lottogemeinschaft.sol\":5112:5274  for(uint i = 0; i < _hauptzahlen.length; i++) {... */\n              iszero\n              tag_188\n              jumpi\n                /* \"Lottogemeinschaft.sol\":5199:5200  1 */\n              0x01\n                /* \"Lottogemeinschaft.sol\":5180:5192  _hauptzahlen */\n              dup4\n                /* \"Lottogemeinschaft.sol\":5193:5194  i */\n              dup3\n                /* \"Lottogemeinschaft.sol\":5180:5195  _hauptzahlen[i] */\n              0x05\n              dup2\n              lt\n              tag_190\n              jumpi\n              tag_191\n              tag_155\n              jump\t// in\n            tag_191:\n            tag_190:\n              0x20\n              mul\n              add\n              mload\n                /* \"Lottogemeinschaft.sol\":5180:5200  _hauptzahlen[i] >= 1 */\n              0xff\n              and\n              lt\n              iszero\n                /* \"Lottogemeinschaft.sol\":5180:5225  _hauptzahlen[i] >= 1 && _hauptzahlen[i] <= 50 */\n              dup1\n              iszero\n              tag_192\n              jumpi\n              pop\n                /* \"Lottogemeinschaft.sol\":5223:5225  50 */\n              0x32\n                /* \"Lottogemeinschaft.sol\":5204:5216  _hauptzahlen */\n              dup4\n                /* \"Lottogemeinschaft.sol\":5217:5218  i */\n              dup3\n                /* \"Lottogemeinschaft.sol\":5204:5219  _hauptzahlen[i] */\n              0x05\n              dup2\n              lt\n              tag_193\n              jumpi\n              tag_194\n              tag_155\n              jump\t// in\n            tag_194:\n            tag_193:\n              0x20\n              mul\n              add\n              mload\n                /* \"Lottogemeinschaft.sol\":5204:5225  _hauptzahlen[i] <= 50 */\n              0xff\n              and\n              gt\n              iszero\n                /* \"Lottogemeinschaft.sol\":5180:5225  _hauptzahlen[i] >= 1 && _hauptzahlen[i] <= 50 */\n            tag_192:\n                /* \"Lottogemeinschaft.sol\":5172:5263  require(_hauptzahlen[i] >= 1 && _hauptzahlen[i] <= 50, \"Hauptzahl ausserhalb des Bereichs\") */\n              tag_195\n              jumpi\n              mload(0x40)\n              0x08c379a000000000000000000000000000000000000000000000000000000000\n              dup2\n              mstore\n              0x04\n              add\n              tag_196\n              swap1\n              tag_197\n              jump\t// in\n            tag_196:\n              mload(0x40)\n              dup1\n              swap2\n              sub\n              swap1\n              revert\n            tag_195:\n                /* \"Lottogemeinschaft.sol\":5153:5156  i++ */\n              dup1\n              dup1\n              0x01\n              add\n              swap2\n              pop\n              pop\n                /* \"Lottogemeinschaft.sol\":5112:5274  for(uint i = 0; i < _hauptzahlen.length; i++) {... */\n              jump(tag_187)\n            tag_188:\n              pop\n                /* \"Lottogemeinschaft.sol\":5328:5334  uint i */\n              0x00\n                /* \"Lottogemeinschaft.sol\":5324:5490  for(uint i = 0; i < _zusatzzahlen.length; i++) {... */\n            tag_198:\n                /* \"Lottogemeinschaft.sol\":5344:5364  _zusatzzahlen.length */\n              0x02\n                /* \"Lottogemeinschaft.sol\":5340:5341  i */\n              dup2\n                /* \"Lottogemeinschaft.sol\":5340:5364  i < _zusatzzahlen.length */\n              lt\n                /* \"Lottogemeinschaft.sol\":5324:5490  for(uint i = 0; i < _zusatzzahlen.length; i++) {... */\n              iszero\n              tag_199\n              jumpi\n                /* \"Lottogemeinschaft.sol\":5413:5414  1 */\n              0x01\n                /* \"Lottogemeinschaft.sol\":5393:5406  _zusatzzahlen */\n              dup3\n                /* \"Lottogemeinschaft.sol\":5407:5408  i */\n              dup3\n                /* \"Lottogemeinschaft.sol\":5393:5409  _zusatzzahlen[i] */\n              0x02\n              dup2\n              lt\n              tag_201\n              jumpi\n              tag_202\n              tag_155\n              jump\t// in\n            tag_202:\n            tag_201:\n              0x20\n              mul\n              add\n              mload\n                /* \"Lottogemeinschaft.sol\":5393:5414  _zusatzzahlen[i] >= 1 */\n              0xff\n              and\n              lt\n              iszero\n                /* \"Lottogemeinschaft.sol\":5393:5440  _zusatzzahlen[i] >= 1 && _zusatzzahlen[i] <= 12 */\n              dup1\n              iszero\n              tag_203\n              jumpi\n              pop\n                /* \"Lottogemeinschaft.sol\":5438:5440  12 */\n              0x0c\n                /* \"Lottogemeinschaft.sol\":5418:5431  _zusatzzahlen */\n              dup3\n                /* \"Lottogemeinschaft.sol\":5432:5433  i */\n              dup3\n                /* \"Lottogemeinschaft.sol\":5418:5434  _zusatzzahlen[i] */\n              0x02\n              dup2\n              lt\n              tag_204\n              jumpi\n              tag_205\n              tag_155\n              jump\t// in\n            tag_205:\n            tag_204:\n              0x20\n              mul\n              add\n              mload\n                /* \"Lottogemeinschaft.sol\":5418:5440  _zusatzzahlen[i] <= 12 */\n              0xff\n              and\n              gt\n              iszero\n                /* \"Lottogemeinschaft.sol\":5393:5440  _zusatzzahlen[i] >= 1 && _zusatzzahlen[i] <= 12 */\n            tag_203:\n                /* \"Lottogemeinschaft.sol\":5385:5479  require(_zusatzzahlen[i] >= 1 && _zusatzzahlen[i] <= 12, \"Zusatzzahl ausserhalb des Bereichs\") */\n              tag_206\n              jumpi\n              mload(0x40)\n              0x08c379a000000000000000000000000000000000000000000000000000000000\n              dup2\n              mstore\n              0x04\n              add\n              tag_207\n              swap1\n              tag_208\n              jump\t// in\n            tag_207:\n              mload(0x40)\n              dup1\n              swap2\n              sub\n              swap1\n              revert\n            tag_206:\n                /* \"Lottogemeinschaft.sol\":5366:5369  i++ */\n              dup1\n              dup1\n              0x01\n              add\n              swap2\n              pop\n              pop\n                /* \"Lottogemeinschaft.sol\":5324:5490  for(uint i = 0; i < _zusatzzahlen.length; i++) {... */\n              jump(tag_198)\n            tag_199:\n              pop\n                /* \"Lottogemeinschaft.sol\":5500:5526  Lottotipp memory neuerTipp */\n              0x00\n                /* \"Lottogemeinschaft.sol\":5529:5630  Lottotipp({... */\n              mload(0x40)\n              dup1\n              0x40\n              add\n              0x40\n              mstore\n              dup1\n                /* \"Lottogemeinschaft.sol\":5566:5578  _hauptzahlen */\n              dup5\n                /* \"Lottogemeinschaft.sol\":5529:5630  Lottotipp({... */\n              dup2\n              mstore\n              0x20\n              add\n                /* \"Lottogemeinschaft.sol\":5606:5619  _zusatzzahlen */\n              dup4\n                /* \"Lottogemeinschaft.sol\":5529:5630  Lottotipp({... */\n              dup2\n              mstore\n              pop\n                /* \"Lottogemeinschaft.sol\":5500:5630  Lottotipp memory neuerTipp = Lottotipp({... */\n              swap1\n              pop\n                /* \"Lottogemeinschaft.sol\":5641:5652  lottoschein */\n              0x05\n                /* \"Lottogemeinschaft.sol\":5658:5667  neuerTipp */\n              dup2\n                /* \"Lottogemeinschaft.sol\":5641:5668  lottoschein.push(neuerTipp) */\n              swap1\n              dup1\n              0x01\n              dup2\n              sload\n              add\n              dup1\n              dup3\n              sstore\n              dup1\n              swap2\n              pop\n              pop\n              0x01\n              swap1\n              sub\n              swap1\n              0x00\n              mstore\n              keccak256(0x00, 0x20)\n              swap1\n              0x02\n              mul\n              add\n              0x00\n              swap1\n              swap2\n              swap1\n              swap2\n              swap1\n              swap2\n              pop\n              0x00\n              dup3\n              add\n              mload\n              dup2\n              0x00\n              add\n              swap1\n              0x05\n              tag_210\n              swap3\n              swap2\n              swap1\n              tag_211\n              jump\t// in\n            tag_210:\n              pop\n              0x20\n              dup3\n              add\n              mload\n              dup2\n              0x01\n              add\n              swap1\n              0x02\n              tag_212\n              swap3\n              swap2\n              swap1\n              tag_213\n              jump\t// in\n            tag_212:\n              pop\n              pop\n              pop\n                /* \"Lottogemeinschaft.sol\":5063:5675  {... */\n              pop\n                /* \"Lottogemeinschaft.sol\":4948:5675  function lottotippEintragen(uint8[5] memory _hauptzahlen, uint8[2] memory _zusatzzahlen) public restictedToGruender{... */\n              pop\n              pop\n              jump\t// out\n                /* \"Lottogemeinschaft.sol\":1298:1326  uint public gewinnBetrag = 0 */\n            tag_92:\n              sload(0x0a)\n              dup2\n              jump\t// out\n            tag_176:\n              pop\n              dup1\n              sload\n              0x00\n              dup3\n              sstore\n              swap1\n              0x00\n              mstore\n              keccak256(0x00, 0x20)\n              swap1\n              dup2\n              add\n              swap1\n              tag_215\n              swap2\n              swap1\n              tag_216\n              jump\t// in\n            tag_215:\n              pop\n              jump\t// out\n            tag_211:\n              dup3\n              add(0x1f, 0x05)\n              0x20\n              swap1\n              div\n              dup2\n              add\n              swap3\n              dup3\n              iszero\n              tag_217\n              jumpi\n              swap2\n              0x20\n              mul\n              dup3\n              add\n              0x00\n            tag_218:\n              dup4\n              dup3\n              gt\n              iszero\n              tag_219\n              jumpi\n              dup4\n              mload\n              dup4\n              dup3\n              0x0100\n              exp\n              dup2\n              sload\n              dup2\n              0xff\n              mul\n              not\n              and\n              swap1\n              dup4\n              0xff\n              and\n              mul\n              or\n              swap1\n              sstore\n              pop\n              swap3\n              0x20\n              add\n              swap3\n              0x01\n              add\n              0x20\n              dup2\n              0x00\n              add\n              div\n              swap3\n              dup4\n              add\n              swap3\n              0x01\n              sub\n              mul\n              jump(tag_218)\n            tag_219:\n              dup1\n              iszero\n              tag_220\n              jumpi\n              dup3\n              dup2\n              0x0100\n              exp\n              dup2\n              sload\n              swap1\n              0xff\n              mul\n              not\n              and\n              swap1\n              sstore\n              0x01\n              add\n              0x20\n              dup2\n              0x00\n              add\n              div\n              swap3\n              dup4\n              add\n              swap3\n              0x01\n              sub\n              mul\n              jump(tag_219)\n            tag_220:\n              pop\n            tag_217:\n              pop\n              swap1\n              pop\n              tag_221\n              swap2\n              swap1\n              tag_216\n              jump\t// in\n            tag_221:\n              pop\n              swap1\n              jump\t// out\n            tag_213:\n              dup3\n              add(0x1f, 0x02)\n              0x20\n              swap1\n              div\n              dup2\n              add\n              swap3\n              dup3\n              iszero\n              tag_222\n              jumpi\n              swap2\n              0x20\n              mul\n              dup3\n              add\n              0x00\n            tag_223:\n              dup4\n              dup3\n              gt\n              iszero\n              tag_224\n              jumpi\n              dup4\n              mload\n              dup4\n              dup3\n              0x0100\n              exp\n              dup2\n              sload\n              dup2\n              0xff\n              mul\n              not\n              and\n              swap1\n              dup4\n              0xff\n              and\n              mul\n              or\n              swap1\n              sstore\n              pop\n              swap3\n              0x20\n              add\n              swap3\n              0x01\n              add\n              0x20\n              dup2\n              0x00\n              add\n              div\n              swap3\n              dup4\n              add\n              swap3\n              0x01\n              sub\n              mul\n              jump(tag_223)\n            tag_224:\n              dup1\n              iszero\n              tag_225\n              jumpi\n              dup3\n              dup2\n              0x0100\n              exp\n              dup2\n              sload\n              swap1\n              0xff\n              mul\n              not\n              and\n              swap1\n              sstore\n              0x01\n              add\n              0x20\n              dup2\n              0x00\n              add\n              div\n              swap3\n              dup4\n              add\n              swap3\n              0x01\n              sub\n              mul\n              jump(tag_224)\n            tag_225:\n              pop\n            tag_222:\n              pop\n              swap1\n              pop\n              tag_226\n              swap2\n              swap1\n              tag_216\n              jump\t// in\n            tag_226:\n              pop\n              swap1\n              jump\t// out\n            tag_216:\n            tag_227:\n              dup1\n              dup3\n              gt\n              iszero\n              tag_228\n              jumpi\n              0x00\n              dup2\n              0x00\n              swap1\n              sstore\n              pop\n              0x01\n              add\n              jump(tag_227)\n            tag_228:\n              pop\n              swap1\n              jump\t// out\n                /* \"#utility.yul\":7:84   */\n            tag_229:\n                /* \"#utility.yul\":44:51   */\n              0x00\n                /* \"#utility.yul\":73:78   */\n              dup2\n                /* \"#utility.yul\":62:78   */\n              swap1\n              pop\n                /* \"#utility.yul\":7:84   */\n              swap2\n              swap1\n              pop\n              jump\t// out\n                /* \"#utility.yul\":90:208   */\n            tag_230:\n                /* \"#utility.yul\":177:201   */\n              tag_295\n                /* \"#utility.yul\":195:200   */\n              dup2\n                /* \"#utility.yul\":177:201   */\n              tag_229\n              jump\t// in\n            tag_295:\n                /* \"#utility.yul\":172:175   */\n              dup3\n                /* \"#utility.yul\":165:202   */\n              mstore\n                /* \"#utility.yul\":90:208   */\n              pop\n              pop\n              jump\t// out\n                /* \"#utility.yul\":214:436   */\n            tag_26:\n                /* \"#utility.yul\":307:311   */\n              0x00\n                /* \"#utility.yul\":345:347   */\n              0x20\n                /* \"#utility.yul\":334:343   */\n              dup3\n                /* \"#utility.yul\":330:348   */\n              add\n                /* \"#utility.yul\":322:348   */\n              swap1\n              pop\n                /* \"#utility.yul\":358:429   */\n              tag_297\n                /* \"#utility.yul\":426:427   */\n              0x00\n                /* \"#utility.yul\":415:424   */\n              dup4\n                /* \"#utility.yul\":411:428   */\n              add\n                /* \"#utility.yul\":402:408   */\n              dup5\n                /* \"#utility.yul\":358:429   */\n              tag_230\n              jump\t// in\n            tag_297:\n                /* \"#utility.yul\":214:436   */\n              swap3\n              swap2\n              pop\n              pop\n              jump\t// out\n                /* \"#utility.yul\":442:517   */\n            tag_231:\n                /* \"#utility.yul\":475:481   */\n              0x00\n                /* \"#utility.yul\":508:510   */\n              0x40\n                /* \"#utility.yul\":502:511   */\n              mload\n                /* \"#utility.yul\":492:511   */\n              swap1\n              pop\n                /* \"#utility.yul\":442:517   */\n              swap1\n              jump\t// out\n                /* \"#utility.yul\":523:640   */\n            tag_232:\n                /* \"#utility.yul\":632:633   */\n              0x00\n                /* \"#utility.yul\":629:630   */\n              dup1\n                /* \"#utility.yul\":622:634   */\n              revert\n                /* \"#utility.yul\":769:891   */\n            tag_234:\n                /* \"#utility.yul\":842:866   */\n              tag_302\n                /* \"#utility.yul\":860:865   */\n              dup2\n                /* \"#utility.yul\":842:866   */\n              tag_229\n              jump\t// in\n            tag_302:\n                /* \"#utility.yul\":835:840   */\n              dup2\n                /* \"#utility.yul\":832:867   */\n              eq\n                /* \"#utility.yul\":822:885   */\n              tag_303\n              jumpi\n                /* \"#utility.yul\":881:882   */\n              0x00\n                /* \"#utility.yul\":878:879   */\n              dup1\n                /* \"#utility.yul\":871:883   */\n              revert\n                /* \"#utility.yul\":822:885   */\n            tag_303:\n                /* \"#utility.yul\":769:891   */\n              pop\n              jump\t// out\n                /* \"#utility.yul\":897:1036   */\n            tag_235:\n                /* \"#utility.yul\":943:948   */\n              0x00\n                /* \"#utility.yul\":981:987   */\n              dup2\n                /* \"#utility.yul\":968:988   */\n              calldataload\n                /* \"#utility.yul\":959:988   */\n              swap1\n              pop\n                /* \"#utility.yul\":997:1030   */\n              tag_305\n                /* \"#utility.yul\":1024:1029   */\n              dup2\n                /* \"#utility.yul\":997:1030   */\n              tag_234\n              jump\t// in\n            tag_305:\n                /* \"#utility.yul\":897:1036   */\n              swap3\n              swap2\n              pop\n              pop\n              jump\t// out\n                /* \"#utility.yul\":1042:1371   */\n            tag_29:\n                /* \"#utility.yul\":1101:1107   */\n              0x00\n                /* \"#utility.yul\":1150:1152   */\n              0x20\n                /* \"#utility.yul\":1138:1147   */\n              dup3\n                /* \"#utility.yul\":1129:1136   */\n              dup5\n                /* \"#utility.yul\":1125:1148   */\n              sub\n                /* \"#utility.yul\":1121:1153   */\n              slt\n                /* \"#utility.yul\":1118:1237   */\n              iszero\n              tag_307\n              jumpi\n                /* \"#utility.yul\":1156:1235   */\n              tag_308\n              tag_232\n              jump\t// in\n            tag_308:\n                /* \"#utility.yul\":1118:1237   */\n            tag_307:\n                /* \"#utility.yul\":1276:1277   */\n              0x00\n                /* \"#utility.yul\":1301:1354   */\n              tag_309\n                /* \"#utility.yul\":1346:1353   */\n              dup5\n                /* \"#utility.yul\":1337:1343   */\n              dup3\n                /* \"#utility.yul\":1326:1335   */\n              dup6\n                /* \"#utility.yul\":1322:1344   */\n              add\n                /* \"#utility.yul\":1301:1354   */\n              tag_235\n              jump\t// in\n            tag_309:\n                /* \"#utility.yul\":1291:1354   */\n              swap2\n              pop\n                /* \"#utility.yul\":1247:1364   */\n              pop\n                /* \"#utility.yul\":1042:1371   */\n              swap3\n              swap2\n              pop\n              pop\n              jump\t// out\n                /* \"#utility.yul\":1377:1503   */\n            tag_236:\n                /* \"#utility.yul\":1414:1421   */\n              0x00\n                /* \"#utility.yul\":1454:1496   */\n              0xffffffffffffffffffffffffffffffffffffffff\n                /* \"#utility.yul\":1447:1452   */\n              dup3\n                /* \"#utility.yul\":1443:1497   */\n              and\n                /* \"#utility.yul\":1432:1497   */\n              swap1\n              pop\n                /* \"#utility.yul\":1377:1503   */\n              swap2\n              swap1\n              pop\n              jump\t// out\n                /* \"#utility.yul\":1509:1605   */\n            tag_237:\n                /* \"#utility.yul\":1546:1553   */\n              0x00\n                /* \"#utility.yul\":1575:1599   */\n              tag_312\n                /* \"#utility.yul\":1593:1598   */\n              dup3\n                /* \"#utility.yul\":1575:1599   */\n              tag_236\n              jump\t// in\n            tag_312:\n                /* \"#utility.yul\":1564:1599   */\n              swap1\n              pop\n                /* \"#utility.yul\":1509:1605   */\n              swap2\n              swap1\n              pop\n              jump\t// out\n                /* \"#utility.yul\":1611:1733   */\n            tag_238:\n                /* \"#utility.yul\":1684:1708   */\n              tag_314\n                /* \"#utility.yul\":1702:1707   */\n              dup2\n                /* \"#utility.yul\":1684:1708   */\n              tag_237\n              jump\t// in\n            tag_314:\n                /* \"#utility.yul\":1677:1682   */\n              dup2\n                /* \"#utility.yul\":1674:1709   */\n              eq\n                /* \"#utility.yul\":1664:1727   */\n              tag_315\n              jumpi\n                /* \"#utility.yul\":1723:1724   */\n              0x00\n                /* \"#utility.yul\":1720:1721   */\n              dup1\n                /* \"#utility.yul\":1713:1725   */\n              revert\n                /* \"#utility.yul\":1664:1727   */\n            tag_315:\n                /* \"#utility.yul\":1611:1733   */\n              pop\n              jump\t// out\n                /* \"#utility.yul\":1739:1878   */\n            tag_239:\n                /* \"#utility.yul\":1785:1790   */\n              0x00\n                /* \"#utility.yul\":1823:1829   */\n              dup2\n                /* \"#utility.yul\":1810:1830   */\n              calldataload\n                /* \"#utility.yul\":1801:1830   */\n              swap1\n              pop\n                /* \"#utility.yul\":1839:1872   */\n              tag_317\n                /* \"#utility.yul\":1866:1871   */\n              dup2\n                /* \"#utility.yul\":1839:1872   */\n              tag_238\n              jump\t// in\n            tag_317:\n                /* \"#utility.yul\":1739:1878   */\n              swap3\n              swap2\n              pop\n              pop\n              jump\t// out\n                /* \"#utility.yul\":1884:2213   */\n            tag_34:\n                /* \"#utility.yul\":1943:1949   */\n              0x00\n                /* \"#utility.yul\":1992:1994   */\n              0x20\n                /* \"#utility.yul\":1980:1989   */\n              dup3\n                /* \"#utility.yul\":1971:1978   */\n              dup5\n                /* \"#utility.yul\":1967:1990   */\n              sub\n                /* \"#utility.yul\":1963:1995   */\n              slt\n                /* \"#utility.yul\":1960:2079   */\n              iszero\n              tag_319\n              jumpi\n                /* \"#utility.yul\":1998:2077   */\n              tag_320\n              tag_232\n              jump\t// in\n            tag_320:\n                /* \"#utility.yul\":1960:2079   */\n            tag_319:\n                /* \"#utility.yul\":2118:2119   */\n              0x00\n                /* \"#utility.yul\":2143:2196   */\n              tag_321\n                /* \"#utility.yul\":2188:2195   */\n              dup5\n                /* \"#utility.yul\":2179:2185   */\n              dup3\n                /* \"#utility.yul\":2168:2177   */\n              dup6\n                /* \"#utility.yul\":2164:2186   */\n              add\n                /* \"#utility.yul\":2143:2196   */\n              tag_239\n              jump\t// in\n            tag_321:\n                /* \"#utility.yul\":2133:2196   */\n              swap2\n              pop\n                /* \"#utility.yul\":2089:2206   */\n              pop\n                /* \"#utility.yul\":1884:2213   */\n              swap3\n              swap2\n              pop\n              pop\n              jump\t// out\n                /* \"#utility.yul\":2219:2309   */\n            tag_240:\n                /* \"#utility.yul\":2253:2260   */\n              0x00\n                /* \"#utility.yul\":2296:2301   */\n              dup2\n                /* \"#utility.yul\":2289:2302   */\n              iszero\n                /* \"#utility.yul\":2282:2303   */\n              iszero\n                /* \"#utility.yul\":2271:2303   */\n              swap1\n              pop\n                /* \"#utility.yul\":2219:2309   */\n              swap2\n              swap1\n              pop\n              jump\t// out\n                /* \"#utility.yul\":2315:2424   */\n            tag_241:\n                /* \"#utility.yul\":2396:2417   */\n              tag_324\n                /* \"#utility.yul\":2411:2416   */\n              dup2\n                /* \"#utility.yul\":2396:2417   */\n              tag_240\n              jump\t// in\n            tag_324:\n                /* \"#utility.yul\":2391:2394   */\n              dup3\n                /* \"#utility.yul\":2384:2418   */\n              mstore\n                /* \"#utility.yul\":2315:2424   */\n              pop\n              pop\n              jump\t// out\n                /* \"#utility.yul\":2430:2640   */\n            tag_37:\n                /* \"#utility.yul\":2517:2521   */\n              0x00\n                /* \"#utility.yul\":2555:2557   */\n              0x20\n                /* \"#utility.yul\":2544:2553   */\n              dup3\n                /* \"#utility.yul\":2540:2558   */\n              add\n                /* \"#utility.yul\":2532:2558   */\n              swap1\n              pop\n                /* \"#utility.yul\":2568:2633   */\n              tag_326\n                /* \"#utility.yul\":2630:2631   */\n              0x00\n                /* \"#utility.yul\":2619:2628   */\n              dup4\n                /* \"#utility.yul\":2615:2632   */\n              add\n                /* \"#utility.yul\":2606:2612   */\n              dup5\n                /* \"#utility.yul\":2568:2633   */\n              tag_241\n              jump\t// in\n            tag_326:\n                /* \"#utility.yul\":2430:2640   */\n              swap3\n              swap2\n              pop\n              pop\n              jump\t// out\n                /* \"#utility.yul\":2646:2764   */\n            tag_242:\n                /* \"#utility.yul\":2733:2757   */\n              tag_328\n                /* \"#utility.yul\":2751:2756   */\n              dup2\n                /* \"#utility.yul\":2733:2757   */\n              tag_237\n              jump\t// in\n            tag_328:\n                /* \"#utility.yul\":2728:2731   */\n              dup3\n                /* \"#utility.yul\":2721:2758   */\n              mstore\n                /* \"#utility.yul\":2646:2764   */\n              pop\n              pop\n              jump\t// out\n                /* \"#utility.yul\":2770:2992   */\n            tag_57:\n                /* \"#utility.yul\":2863:2867   */\n              0x00\n                /* \"#utility.yul\":2901:2903   */\n              0x20\n                /* \"#utility.yul\":2890:2899   */\n              dup3\n                /* \"#utility.yul\":2886:2904   */\n              add\n                /* \"#utility.yul\":2878:2904   */\n              swap1\n              pop\n                /* \"#utility.yul\":2914:2985   */\n              tag_330\n                /* \"#utility.yul\":2982:2983   */\n              0x00\n                /* \"#utility.yul\":2971:2980   */\n              dup4\n                /* \"#utility.yul\":2967:2984   */\n              add\n                /* \"#utility.yul\":2958:2964   */\n              dup5\n                /* \"#utility.yul\":2914:2985   */\n              tag_242\n              jump\t// in\n            tag_330:\n                /* \"#utility.yul\":2770:2992   */\n              swap3\n              swap2\n              pop\n              pop\n              jump\t// out\n                /* \"#utility.yul\":2998:3097   */\n            tag_243:\n                /* \"#utility.yul\":3050:3056   */\n              0x00\n                /* \"#utility.yul\":3084:3089   */\n              dup2\n                /* \"#utility.yul\":3078:3090   */\n              mload\n                /* \"#utility.yul\":3068:3090   */\n              swap1\n              pop\n                /* \"#utility.yul\":2998:3097   */\n              swap2\n              swap1\n              pop\n              jump\t// out\n                /* \"#utility.yul\":3103:3272   */\n            tag_244:\n                /* \"#utility.yul\":3187:3198   */\n              0x00\n                /* \"#utility.yul\":3221:3227   */\n              dup3\n                /* \"#utility.yul\":3216:3219   */\n              dup3\n                /* \"#utility.yul\":3209:3228   */\n              mstore\n                /* \"#utility.yul\":3261:3265   */\n              0x20\n                /* \"#utility.yul\":3256:3259   */\n              dup3\n                /* \"#utility.yul\":3252:3266   */\n              add\n                /* \"#utility.yul\":3237:3266   */\n              swap1\n              pop\n                /* \"#utility.yul\":3103:3272   */\n              swap3\n              swap2\n              pop\n              pop\n              jump\t// out\n                /* \"#utility.yul\":3278:3524   */\n            tag_245:\n                /* \"#utility.yul\":3359:3360   */\n              0x00\n                /* \"#utility.yul\":3369:3482   */\n            tag_334:\n                /* \"#utility.yul\":3383:3389   */\n              dup4\n                /* \"#utility.yul\":3380:3381   */\n              dup2\n                /* \"#utility.yul\":3377:3390   */\n              lt\n                /* \"#utility.yul\":3369:3482   */\n              iszero\n              tag_336\n              jumpi\n                /* \"#utility.yul\":3468:3469   */\n              dup1\n                /* \"#utility.yul\":3463:3466   */\n              dup3\n                /* \"#utility.yul\":3459:3470   */\n              add\n                /* \"#utility.yul\":3453:3471   */\n              mload\n                /* \"#utility.yul\":3449:3450   */\n              dup2\n                /* \"#utility.yul\":3444:3447   */\n              dup5\n                /* \"#utility.yul\":3440:3451   */\n              add\n                /* \"#utility.yul\":3433:3472   */\n              mstore\n                /* \"#utility.yul\":3405:3407   */\n              0x20\n                /* \"#utility.yul\":3402:3403   */\n              dup2\n                /* \"#utility.yul\":3398:3408   */\n              add\n                /* \"#utility.yul\":3393:3408   */\n              swap1\n              pop\n                /* \"#utility.yul\":3369:3482   */\n              jump(tag_334)\n            tag_336:\n                /* \"#utility.yul\":3516:3517   */\n              0x00\n                /* \"#utility.yul\":3507:3513   */\n              dup5\n                /* \"#utility.yul\":3502:3505   */\n              dup5\n                /* \"#utility.yul\":3498:3514   */\n              add\n                /* \"#utility.yul\":3491:3518   */\n              mstore\n                /* \"#utility.yul\":3340:3524   */\n              pop\n                /* \"#utility.yul\":3278:3524   */\n              pop\n              pop\n              pop\n              jump\t// out\n                /* \"#utility.yul\":3530:3632   */\n            tag_246:\n                /* \"#utility.yul\":3571:3577   */\n              0x00\n                /* \"#utility.yul\":3622:3624   */\n              0x1f\n                /* \"#utility.yul\":3618:3625   */\n              not\n                /* \"#utility.yul\":3613:3615   */\n              0x1f\n                /* \"#utility.yul\":3606:3611   */\n              dup4\n                /* \"#utility.yul\":3602:3616   */\n              add\n                /* \"#utility.yul\":3598:3626   */\n              and\n                /* \"#utility.yul\":3588:3626   */\n              swap1\n              pop\n                /* \"#utility.yul\":3530:3632   */\n              swap2\n              swap1\n              pop\n              jump\t// out\n                /* \"#utility.yul\":3638:4015   */\n            tag_247:\n                /* \"#utility.yul\":3726:3729   */\n              0x00\n                /* \"#utility.yul\":3754:3793   */\n              tag_339\n                /* \"#utility.yul\":3787:3792   */\n              dup3\n                /* \"#utility.yul\":3754:3793   */\n              tag_243\n              jump\t// in\n            tag_339:\n                /* \"#utility.yul\":3809:3880   */\n              tag_340\n                /* \"#utility.yul\":3873:3879   */\n              dup2\n                /* \"#utility.yul\":3868:3871   */\n              dup6\n                /* \"#utility.yul\":3809:3880   */\n              tag_244\n              jump\t// in\n            tag_340:\n                /* \"#utility.yul\":3802:3880   */\n              swap4\n              pop\n                /* \"#utility.yul\":3889:3954   */\n              tag_341\n                /* \"#utility.yul\":3947:3953   */\n              dup2\n                /* \"#utility.yul\":3942:3945   */\n              dup6\n                /* \"#utility.yul\":3935:3939   */\n              0x20\n                /* \"#utility.yul\":3928:3933   */\n              dup7\n                /* \"#utility.yul\":3924:3940   */\n              add\n                /* \"#utility.yul\":3889:3954   */\n              tag_245\n              jump\t// in\n            tag_341:\n                /* \"#utility.yul\":3979:4008   */\n              tag_342\n                /* \"#utility.yul\":4001:4007   */\n              dup2\n                /* \"#utility.yul\":3979:4008   */\n              tag_246\n              jump\t// in\n            tag_342:\n                /* \"#utility.yul\":3974:3977   */\n              dup5\n                /* \"#utility.yul\":3970:4009   */\n              add\n                /* \"#utility.yul\":3963:4009   */\n              swap2\n              pop\n                /* \"#utility.yul\":3730:4015   */\n              pop\n                /* \"#utility.yul\":3638:4015   */\n              swap3\n              swap2\n              pop\n              pop\n              jump\t// out\n                /* \"#utility.yul\":4021:4334   */\n            tag_80:\n                /* \"#utility.yul\":4134:4138   */\n              0x00\n                /* \"#utility.yul\":4172:4174   */\n              0x20\n                /* \"#utility.yul\":4161:4170   */\n              dup3\n                /* \"#utility.yul\":4157:4175   */\n              add\n                /* \"#utility.yul\":4149:4175   */\n              swap1\n              pop\n                /* \"#utility.yul\":4221:4230   */\n              dup2\n                /* \"#utility.yul\":4215:4219   */\n              dup2\n                /* \"#utility.yul\":4211:4231   */\n              sub\n                /* \"#utility.yul\":4207:4208   */\n              0x00\n                /* \"#utility.yul\":4196:4205   */\n              dup4\n                /* \"#utility.yul\":4192:4209   */\n              add\n                /* \"#utility.yul\":4185:4232   */\n              mstore\n                /* \"#utility.yul\":4249:4327   */\n              tag_344\n                /* \"#utility.yul\":4322:4326   */\n              dup2\n                /* \"#utility.yul\":4313:4319   */\n              dup5\n                /* \"#utility.yul\":4249:4327   */\n              tag_247\n              jump\t// in\n            tag_344:\n                /* \"#utility.yul\":4241:4327   */\n              swap1\n              pop\n                /* \"#utility.yul\":4021:4334   */\n              swap3\n              swap2\n              pop\n              pop\n              jump\t// out\n                /* \"#utility.yul\":4340:4457   */\n            tag_248:\n                /* \"#utility.yul\":4449:4450   */\n              0x00\n                /* \"#utility.yul\":4446:4447   */\n              dup1\n                /* \"#utility.yul\":4439:4451   */\n              revert\n                /* \"#utility.yul\":4463:4643   */\n            tag_249:\n                /* \"#utility.yul\":4511:4588   */\n              0x4e487b7100000000000000000000000000000000000000000000000000000000\n                /* \"#utility.yul\":4508:4509   */\n              0x00\n                /* \"#utility.yul\":4501:4589   */\n              mstore\n                /* \"#utility.yul\":4608:4612   */\n              0x41\n                /* \"#utility.yul\":4605:4606   */\n              0x04\n                /* \"#utility.yul\":4598:4613   */\n              mstore\n                /* \"#utility.yul\":4632:4636   */\n              0x24\n                /* \"#utility.yul\":4629:4630   */\n              0x00\n                /* \"#utility.yul\":4622:4637   */\n              revert\n                /* \"#utility.yul\":4649:4930   */\n            tag_250:\n                /* \"#utility.yul\":4732:4759   */\n              tag_348\n                /* \"#utility.yul\":4754:4758   */\n              dup3\n                /* \"#utility.yul\":4732:4759   */\n              tag_246\n              jump\t// in\n            tag_348:\n                /* \"#utility.yul\":4724:4730   */\n              dup2\n                /* \"#utility.yul\":4720:4760   */\n              add\n                /* \"#utility.yul\":4862:4868   */\n              dup2\n                /* \"#utility.yul\":4850:4860   */\n              dup2\n                /* \"#utility.yul\":4847:4869   */\n              lt\n                /* \"#utility.yul\":4826:4844   */\n              0xffffffffffffffff\n                /* \"#utility.yul\":4814:4824   */\n              dup3\n                /* \"#utility.yul\":4811:4845   */\n              gt\n                /* \"#utility.yul\":4808:4870   */\n              or\n                /* \"#utility.yul\":4805:4893   */\n              iszero\n              tag_349\n              jumpi\n                /* \"#utility.yul\":4873:4891   */\n              tag_350\n              tag_249\n              jump\t// in\n            tag_350:\n                /* \"#utility.yul\":4805:4893   */\n            tag_349:\n                /* \"#utility.yul\":4913:4923   */\n              dup1\n                /* \"#utility.yul\":4909:4911   */\n              0x40\n                /* \"#utility.yul\":4902:4924   */\n              mstore\n                /* \"#utility.yul\":4692:4930   */\n              pop\n                /* \"#utility.yul\":4649:4930   */\n              pop\n              pop\n              jump\t// out\n                /* \"#utility.yul\":4936:5065   */\n            tag_251:\n                /* \"#utility.yul\":4970:4976   */\n              0x00\n                /* \"#utility.yul\":4997:5017   */\n              tag_352\n              tag_231\n              jump\t// in\n            tag_352:\n                /* \"#utility.yul\":4987:5017   */\n              swap1\n              pop\n                /* \"#utility.yul\":5026:5059   */\n              tag_353\n                /* \"#utility.yul\":5054:5058   */\n              dup3\n                /* \"#utility.yul\":5046:5052   */\n              dup3\n                /* \"#utility.yul\":5026:5059   */\n              tag_250\n              jump\t// in\n            tag_353:\n                /* \"#utility.yul\":4936:5065   */\n              swap2\n              swap1\n              pop\n              jump\t// out\n                /* \"#utility.yul\":5071:5318   */\n            tag_252:\n                /* \"#utility.yul\":5144:5148   */\n              0x00\n                /* \"#utility.yul\":5234:5252   */\n              0xffffffffffffffff\n                /* \"#utility.yul\":5226:5232   */\n              dup3\n                /* \"#utility.yul\":5223:5253   */\n              gt\n                /* \"#utility.yul\":5220:5276   */\n              iszero\n              tag_355\n              jumpi\n                /* \"#utility.yul\":5256:5274   */\n              tag_356\n              tag_249\n              jump\t// in\n            tag_356:\n                /* \"#utility.yul\":5220:5276   */\n            tag_355:\n                /* \"#utility.yul\":5306:5310   */\n              0x20\n                /* \"#utility.yul\":5298:5304   */\n              dup3\n                /* \"#utility.yul\":5294:5311   */\n              mul\n                /* \"#utility.yul\":5286:5311   */\n              swap1\n              pop\n                /* \"#utility.yul\":5071:5318   */\n              swap2\n              swap1\n              pop\n              jump\t// out\n                /* \"#utility.yul\":5324:5441   */\n            tag_253:\n                /* \"#utility.yul\":5433:5434   */\n              0x00\n                /* \"#utility.yul\":5430:5431   */\n              dup1\n                /* \"#utility.yul\":5423:5435   */\n              revert\n                /* \"#utility.yul\":5447:5533   */\n            tag_254:\n                /* \"#utility.yul\":5482:5489   */\n              0x00\n                /* \"#utility.yul\":5522:5526   */\n              0xff\n                /* \"#utility.yul\":5515:5520   */\n              dup3\n                /* \"#utility.yul\":5511:5527   */\n              and\n                /* \"#utility.yul\":5500:5527   */\n              swap1\n              pop\n                /* \"#utility.yul\":5447:5533   */\n              swap2\n              swap1\n              pop\n              jump\t// out\n                /* \"#utility.yul\":5539:5657   */\n            tag_255:\n                /* \"#utility.yul\":5610:5632   */\n              tag_360\n                /* \"#utility.yul\":5626:5631   */\n              dup2\n                /* \"#utility.yul\":5610:5632   */\n              tag_254\n              jump\t// in\n            tag_360:\n                /* \"#utility.yul\":5603:5608   */\n              dup2\n                /* \"#utility.yul\":5600:5633   */\n              eq\n                /* \"#utility.yul\":5590:5651   */\n              tag_361\n              jumpi\n                /* \"#utility.yul\":5647:5648   */\n              0x00\n                /* \"#utility.yul\":5644:5645   */\n              dup1\n                /* \"#utility.yul\":5637:5649   */\n              revert\n                /* \"#utility.yul\":5590:5651   */\n            tag_361:\n                /* \"#utility.yul\":5539:5657   */\n              pop\n              jump\t// out\n                /* \"#utility.yul\":5663:5798   */\n            tag_256:\n                /* \"#utility.yul\":5707:5712   */\n              0x00\n                /* \"#utility.yul\":5745:5751   */\n              dup2\n                /* \"#utility.yul\":5732:5752   */\n              calldataload\n                /* \"#utility.yul\":5723:5752   */\n              swap1\n              pop\n                /* \"#utility.yul\":5761:5792   */\n              tag_363\n                /* \"#utility.yul\":5786:5791   */\n              dup2\n                /* \"#utility.yul\":5761:5792   */\n              tag_255\n              jump\t// in\n            tag_363:\n                /* \"#utility.yul\":5663:5798   */\n              swap3\n              swap2\n              pop\n              pop\n              jump\t// out\n                /* \"#utility.yul\":5820:6457   */\n            tag_257:\n                /* \"#utility.yul\":5912:5917   */\n              0x00\n                /* \"#utility.yul\":5937:6014   */\n              tag_365\n                /* \"#utility.yul\":5953:6013   */\n              tag_366\n                /* \"#utility.yul\":6006:6012   */\n              dup5\n                /* \"#utility.yul\":5953:6013   */\n              tag_252\n              jump\t// in\n            tag_366:\n                /* \"#utility.yul\":5937:6014   */\n              tag_251\n              jump\t// in\n            tag_365:\n                /* \"#utility.yul\":5928:6014   */\n              swap1\n              pop\n                /* \"#utility.yul\":6034:6039   */\n              dup1\n                /* \"#utility.yul\":6087:6091   */\n              0x20\n                /* \"#utility.yul\":6079:6085   */\n              dup5\n                /* \"#utility.yul\":6075:6092   */\n              mul\n                /* \"#utility.yul\":6067:6073   */\n              dup4\n                /* \"#utility.yul\":6063:6093   */\n              add\n                /* \"#utility.yul\":6116:6119   */\n              dup6\n                /* \"#utility.yul\":6108:6114   */\n              dup2\n                /* \"#utility.yul\":6105:6120   */\n              gt\n                /* \"#utility.yul\":6102:6224   */\n              iszero\n              tag_367\n              jumpi\n                /* \"#utility.yul\":6135:6214   */\n              tag_368\n              tag_253\n              jump\t// in\n            tag_368:\n                /* \"#utility.yul\":6102:6224   */\n            tag_367:\n                /* \"#utility.yul\":6250:6256   */\n              dup4\n                /* \"#utility.yul\":6233:6451   */\n            tag_369:\n                /* \"#utility.yul\":6267:6273   */\n              dup2\n                /* \"#utility.yul\":6262:6265   */\n              dup2\n                /* \"#utility.yul\":6259:6274   */\n              lt\n                /* \"#utility.yul\":6233:6451   */\n              iszero\n              tag_371\n              jumpi\n                /* \"#utility.yul\":6342:6345   */\n              dup1\n                /* \"#utility.yul\":6371:6406   */\n              tag_372\n                /* \"#utility.yul\":6402:6405   */\n              dup9\n                /* \"#utility.yul\":6390:6400   */\n              dup3\n                /* \"#utility.yul\":6371:6406   */\n              tag_256\n              jump\t// in\n            tag_372:\n                /* \"#utility.yul\":6366:6369   */\n              dup5\n                /* \"#utility.yul\":6359:6407   */\n              mstore\n                /* \"#utility.yul\":6436:6440   */\n              0x20\n                /* \"#utility.yul\":6431:6434   */\n              dup5\n                /* \"#utility.yul\":6427:6441   */\n              add\n                /* \"#utility.yul\":6420:6441   */\n              swap4\n              pop\n                /* \"#utility.yul\":6309:6451   */\n              pop\n                /* \"#utility.yul\":6293:6297   */\n              0x20\n                /* \"#utility.yul\":6288:6291   */\n              dup2\n                /* \"#utility.yul\":6284:6298   */\n              add\n                /* \"#utility.yul\":6277:6298   */\n              swap1\n              pop\n                /* \"#utility.yul\":6233:6451   */\n              jump(tag_369)\n            tag_371:\n                /* \"#utility.yul\":6237:6258   */\n              pop\n                /* \"#utility.yul\":5918:6457   */\n              pop\n              pop\n                /* \"#utility.yul\":5820:6457   */\n              swap4\n              swap3\n              pop\n              pop\n              pop\n              jump\t// out\n                /* \"#utility.yul\":6479:6814   */\n            tag_258:\n                /* \"#utility.yul\":6546:6551   */\n              0x00\n                /* \"#utility.yul\":6595:6598   */\n              dup3\n                /* \"#utility.yul\":6588:6592   */\n              0x1f\n                /* \"#utility.yul\":6580:6586   */\n              dup4\n                /* \"#utility.yul\":6576:6593   */\n              add\n                /* \"#utility.yul\":6572:6599   */\n              slt\n                /* \"#utility.yul\":6562:6684   */\n              tag_374\n              jumpi\n                /* \"#utility.yul\":6603:6682   */\n              tag_375\n              tag_248\n              jump\t// in\n            tag_375:\n                /* \"#utility.yul\":6562:6684   */\n            tag_374:\n                /* \"#utility.yul\":6707:6711   */\n              0x05\n                /* \"#utility.yul\":6729:6808   */\n              tag_376\n                /* \"#utility.yul\":6804:6807   */\n              dup5\n                /* \"#utility.yul\":6796:6802   */\n              dup3\n                /* \"#utility.yul\":6788:6794   */\n              dup6\n                /* \"#utility.yul\":6729:6808   */\n              tag_257\n              jump\t// in\n            tag_376:\n                /* \"#utility.yul\":6720:6808   */\n              swap2\n              pop\n                /* \"#utility.yul\":6552:6814   */\n              pop\n                /* \"#utility.yul\":6479:6814   */\n              swap3\n              swap2\n              pop\n              pop\n              jump\t// out\n                /* \"#utility.yul\":6820:7067   */\n            tag_259:\n                /* \"#utility.yul\":6893:6897   */\n              0x00\n                /* \"#utility.yul\":6983:7001   */\n              0xffffffffffffffff\n                /* \"#utility.yul\":6975:6981   */\n              dup3\n                /* \"#utility.yul\":6972:7002   */\n              gt\n                /* \"#utility.yul\":6969:7025   */\n              iszero\n              tag_378\n              jumpi\n                /* \"#utility.yul\":7005:7023   */\n              tag_379\n              tag_249\n              jump\t// in\n            tag_379:\n                /* \"#utility.yul\":6969:7025   */\n            tag_378:\n                /* \"#utility.yul\":7055:7059   */\n              0x20\n                /* \"#utility.yul\":7047:7053   */\n              dup3\n                /* \"#utility.yul\":7043:7060   */\n              mul\n                /* \"#utility.yul\":7035:7060   */\n              swap1\n              pop\n                /* \"#utility.yul\":6820:7067   */\n              swap2\n              swap1\n              pop\n              jump\t// out\n                /* \"#utility.yul\":7089:7726   */\n            tag_260:\n                /* \"#utility.yul\":7181:7186   */\n              0x00\n                /* \"#utility.yul\":7206:7283   */\n              tag_381\n                /* \"#utility.yul\":7222:7282   */\n              tag_382\n                /* \"#utility.yul\":7275:7281   */\n              dup5\n                /* \"#utility.yul\":7222:7282   */\n              tag_259\n              jump\t// in\n            tag_382:\n                /* \"#utility.yul\":7206:7283   */\n              tag_251\n              jump\t// in\n            tag_381:\n                /* \"#utility.yul\":7197:7283   */\n              swap1\n              pop\n                /* \"#utility.yul\":7303:7308   */\n              dup1\n                /* \"#utility.yul\":7356:7360   */\n              0x20\n                /* \"#utility.yul\":7348:7354   */\n              dup5\n                /* \"#utility.yul\":7344:7361   */\n              mul\n                /* \"#utility.yul\":7336:7342   */\n              dup4\n                /* \"#utility.yul\":7332:7362   */\n              add\n                /* \"#utility.yul\":7385:7388   */\n              dup6\n                /* \"#utility.yul\":7377:7383   */\n              dup2\n                /* \"#utility.yul\":7374:7389   */\n              gt\n                /* \"#utility.yul\":7371:7493   */\n              iszero\n              tag_383\n              jumpi\n                /* \"#utility.yul\":7404:7483   */\n              tag_384\n              tag_253\n              jump\t// in\n            tag_384:\n                /* \"#utility.yul\":7371:7493   */\n            tag_383:\n                /* \"#utility.yul\":7519:7525   */\n              dup4\n                /* \"#utility.yul\":7502:7720   */\n            tag_385:\n                /* \"#utility.yul\":7536:7542   */\n              dup2\n                /* \"#utility.yul\":7531:7534   */\n              dup2\n                /* \"#utility.yul\":7528:7543   */\n              lt\n                /* \"#utility.yul\":7502:7720   */\n              iszero\n              tag_387\n              jumpi\n                /* \"#utility.yul\":7611:7614   */\n              dup1\n                /* \"#utility.yul\":7640:7675   */\n              tag_388\n                /* \"#utility.yul\":7671:7674   */\n              dup9\n                /* \"#utility.yul\":7659:7669   */\n              dup3\n                /* \"#utility.yul\":7640:7675   */\n              tag_256\n              jump\t// in\n            tag_388:\n                /* \"#utility.yul\":7635:7638   */\n              dup5\n                /* \"#utility.yul\":7628:7676   */\n              mstore\n                /* \"#utility.yul\":7705:7709   */\n              0x20\n                /* \"#utility.yul\":7700:7703   */\n              dup5\n                /* \"#utility.yul\":7696:7710   */\n              add\n                /* \"#utility.yul\":7689:7710   */\n              swap4\n              pop\n                /* \"#utility.yul\":7578:7720   */\n              pop\n                /* \"#utility.yul\":7562:7566   */\n              0x20\n                /* \"#utility.yul\":7557:7560   */\n              dup2\n                /* \"#utility.yul\":7553:7567   */\n              add\n                /* \"#utility.yul\":7546:7567   */\n              swap1\n              pop\n                /* \"#utility.yul\":7502:7720   */\n              jump(tag_385)\n            tag_387:\n                /* \"#utility.yul\":7506:7527   */\n              pop\n                /* \"#utility.yul\":7187:7726   */\n              pop\n              pop\n                /* \"#utility.yul\":7089:7726   */\n              swap4\n              swap3\n              pop\n              pop\n              pop\n              jump\t// out\n                /* \"#utility.yul\":7748:8083   */\n            tag_261:\n                /* \"#utility.yul\":7815:7820   */\n              0x00\n                /* \"#utility.yul\":7864:7867   */\n              dup3\n                /* \"#utility.yul\":7857:7861   */\n              0x1f\n                /* \"#utility.yul\":7849:7855   */\n              dup4\n                /* \"#utility.yul\":7845:7862   */\n              add\n                /* \"#utility.yul\":7841:7868   */\n              slt\n                /* \"#utility.yul\":7831:7953   */\n              tag_390\n              jumpi\n                /* \"#utility.yul\":7872:7951   */\n              tag_391\n              tag_248\n              jump\t// in\n            tag_391:\n                /* \"#utility.yul\":7831:7953   */\n            tag_390:\n                /* \"#utility.yul\":7976:7980   */\n              0x02\n                /* \"#utility.yul\":7998:8077   */\n              tag_392\n                /* \"#utility.yul\":8073:8076   */\n              dup5\n                /* \"#utility.yul\":8065:8071   */\n              dup3\n                /* \"#utility.yul\":8057:8063   */\n              dup6\n                /* \"#utility.yul\":7998:8077   */\n              tag_260\n              jump\t// in\n            tag_392:\n                /* \"#utility.yul\":7989:8077   */\n              swap2\n              pop\n                /* \"#utility.yul\":7821:8083   */\n              pop\n                /* \"#utility.yul\":7748:8083   */\n              swap3\n              swap2\n              pop\n              pop\n              jump\t// out\n                /* \"#utility.yul\":8089:8649   */\n            tag_88:\n                /* \"#utility.yul\":8199:8205   */\n              0x00\n                /* \"#utility.yul\":8207:8213   */\n              dup1\n                /* \"#utility.yul\":8256:8259   */\n              0xe0\n                /* \"#utility.yul\":8244:8253   */\n              dup4\n                /* \"#utility.yul\":8235:8242   */\n              dup6\n                /* \"#utility.yul\":8231:8254   */\n              sub\n                /* \"#utility.yul\":8227:8260   */\n              slt\n                /* \"#utility.yul\":8224:8344   */\n              iszero\n              tag_394\n              jumpi\n                /* \"#utility.yul\":8263:8342   */\n              tag_395\n              tag_232\n              jump\t// in\n            tag_395:\n                /* \"#utility.yul\":8224:8344   */\n            tag_394:\n                /* \"#utility.yul\":8383:8384   */\n              0x00\n                /* \"#utility.yul\":8408:8482   */\n              tag_396\n                /* \"#utility.yul\":8474:8481   */\n              dup6\n                /* \"#utility.yul\":8465:8471   */\n              dup3\n                /* \"#utility.yul\":8454:8463   */\n              dup7\n                /* \"#utility.yul\":8450:8472   */\n              add\n                /* \"#utility.yul\":8408:8482   */\n              tag_258\n              jump\t// in\n            tag_396:\n                /* \"#utility.yul\":8398:8482   */\n              swap3\n              pop\n                /* \"#utility.yul\":8354:8492   */\n              pop\n                /* \"#utility.yul\":8531:8534   */\n              0xa0\n                /* \"#utility.yul\":8558:8632   */\n              tag_397\n                /* \"#utility.yul\":8624:8631   */\n              dup6\n                /* \"#utility.yul\":8615:8621   */\n              dup3\n                /* \"#utility.yul\":8604:8613   */\n              dup7\n                /* \"#utility.yul\":8600:8622   */\n              add\n                /* \"#utility.yul\":8558:8632   */\n              tag_261\n              jump\t// in\n            tag_397:\n                /* \"#utility.yul\":8548:8632   */\n              swap2\n              pop\n                /* \"#utility.yul\":8502:8642   */\n              pop\n                /* \"#utility.yul\":8089:8649   */\n              swap3\n              pop\n              swap3\n              swap1\n              pop\n              jump\t// out\n                /* \"#utility.yul\":8655:8884   */\n            tag_262:\n                /* \"#utility.yul\":8795:8829   */\n              0x45696e7a61686c756e6773626574726167206d7573732067726f657373657220\n                /* \"#utility.yul\":8791:8792   */\n              0x00\n                /* \"#utility.yul\":8783:8789   */\n              dup3\n                /* \"#utility.yul\":8779:8793   */\n              add\n                /* \"#utility.yul\":8772:8830   */\n              mstore\n                /* \"#utility.yul\":8864:8876   */\n              0x616c732030207365696e00000000000000000000000000000000000000000000\n                /* \"#utility.yul\":8859:8861   */\n              0x20\n                /* \"#utility.yul\":8851:8857   */\n              dup3\n                /* \"#utility.yul\":8847:8862   */\n              add\n                /* \"#utility.yul\":8840:8877   */\n              mstore\n                /* \"#utility.yul\":8655:8884   */\n              pop\n              jump\t// out\n                /* \"#utility.yul\":8890:9256   */\n            tag_263:\n                /* \"#utility.yul\":9032:9035   */\n              0x00\n                /* \"#utility.yul\":9053:9120   */\n              tag_400\n                /* \"#utility.yul\":9117:9119   */\n              0x2a\n                /* \"#utility.yul\":9112:9115   */\n              dup4\n                /* \"#utility.yul\":9053:9120   */\n              tag_244\n              jump\t// in\n            tag_400:\n                /* \"#utility.yul\":9046:9120   */\n              swap2\n              pop\n                /* \"#utility.yul\":9129:9222   */\n              tag_401\n                /* \"#utility.yul\":9218:9221   */\n              dup3\n                /* \"#utility.yul\":9129:9222   */\n              tag_262\n              jump\t// in\n            tag_401:\n                /* \"#utility.yul\":9247:9249   */\n              0x40\n                /* \"#utility.yul\":9242:9245   */\n              dup3\n                /* \"#utility.yul\":9238:9250   */\n              add\n                /* \"#utility.yul\":9231:9250   */\n              swap1\n              pop\n                /* \"#utility.yul\":8890:9256   */\n              swap2\n              swap1\n              pop\n              jump\t// out\n                /* \"#utility.yul\":9262:9681   */\n            tag_99:\n                /* \"#utility.yul\":9428:9432   */\n              0x00\n                /* \"#utility.yul\":9466:9468   */\n              0x20\n                /* \"#utility.yul\":9455:9464   */\n              dup3\n                /* \"#utility.yul\":9451:9469   */\n              add\n                /* \"#utility.yul\":9443:9469   */\n              swap1\n              pop\n                /* \"#utility.yul\":9515:9524   */\n              dup2\n                /* \"#utility.yul\":9509:9513   */\n              dup2\n                /* \"#utility.yul\":9505:9525   */\n              sub\n                /* \"#utility.yul\":9501:9502   */\n              0x00\n                /* \"#utility.yul\":9490:9499   */\n              dup4\n                /* \"#utility.yul\":9486:9503   */\n              add\n                /* \"#utility.yul\":9479:9526   */\n              mstore\n                /* \"#utility.yul\":9543:9674   */\n              tag_403\n                /* \"#utility.yul\":9669:9673   */\n              dup2\n                /* \"#utility.yul\":9543:9674   */\n              tag_263\n              jump\t// in\n            tag_403:\n                /* \"#utility.yul\":9535:9674   */\n              swap1\n              pop\n                /* \"#utility.yul\":9262:9681   */\n              swap2\n              swap1\n              pop\n              jump\t// out\n                /* \"#utility.yul\":9687:9867   */\n            tag_264:\n                /* \"#utility.yul\":9735:9812   */\n              0x4e487b7100000000000000000000000000000000000000000000000000000000\n                /* \"#utility.yul\":9732:9733   */\n              0x00\n                /* \"#utility.yul\":9725:9813   */\n              mstore\n                /* \"#utility.yul\":9832:9836   */\n              0x12\n                /* \"#utility.yul\":9829:9830   */\n              0x04\n                /* \"#utility.yul\":9822:9837   */\n              mstore\n                /* \"#utility.yul\":9856:9860   */\n              0x24\n                /* \"#utility.yul\":9853:9854   */\n              0x00\n                /* \"#utility.yul\":9846:9861   */\n              revert\n                /* \"#utility.yul\":9873:10053   */\n            tag_265:\n                /* \"#utility.yul\":9921:9998   */\n              0x4e487b7100000000000000000000000000000000000000000000000000000000\n                /* \"#utility.yul\":9918:9919   */\n              0x00\n                /* \"#utility.yul\":9911:9999   */\n              mstore\n                /* \"#utility.yul\":10018:10022   */\n              0x11\n                /* \"#utility.yul\":10015:10016   */\n              0x04\n                /* \"#utility.yul\":10008:10023   */\n              mstore\n                /* \"#utility.yul\":10042:10046   */\n              0x24\n                /* \"#utility.yul\":10039:10040   */\n              0x00\n                /* \"#utility.yul\":10032:10047   */\n              revert\n                /* \"#utility.yul\":10059:10244   */\n            tag_102:\n                /* \"#utility.yul\":10099:10100   */\n              0x00\n                /* \"#utility.yul\":10116:10136   */\n              tag_407\n                /* \"#utility.yul\":10134:10135   */\n              dup3\n                /* \"#utility.yul\":10116:10136   */\n              tag_229\n              jump\t// in\n            tag_407:\n                /* \"#utility.yul\":10111:10136   */\n              swap2\n              pop\n                /* \"#utility.yul\":10150:10170   */\n              tag_408\n                /* \"#utility.yul\":10168:10169   */\n              dup4\n                /* \"#utility.yul\":10150:10170   */\n              tag_229\n              jump\t// in\n            tag_408:\n                /* \"#utility.yul\":10145:10170   */\n              swap3\n              pop\n                /* \"#utility.yul\":10189:10190   */\n              dup3\n                /* \"#utility.yul\":10179:10214   */\n              tag_409\n              jumpi\n                /* \"#utility.yul\":10194:10212   */\n              tag_410\n              tag_264\n              jump\t// in\n            tag_410:\n                /* \"#utility.yul\":10179:10214   */\n            tag_409:\n                /* \"#utility.yul\":10236:10237   */\n              dup3\n                /* \"#utility.yul\":10233:10234   */\n              dup3\n                /* \"#utility.yul\":10229:10238   */\n              div\n                /* \"#utility.yul\":10224:10238   */\n              swap1\n              pop\n                /* \"#utility.yul\":10059:10244   */\n              swap3\n              swap2\n              pop\n              pop\n              jump\t// out\n                /* \"#utility.yul\":10250:10429   */\n            tag_266:\n                /* \"#utility.yul\":10390:10421   */\n              0x5a7520676572696e6765722045696e7a61686c756e6773626574726167000000\n                /* \"#utility.yul\":10386:10387   */\n              0x00\n                /* \"#utility.yul\":10378:10384   */\n              dup3\n                /* \"#utility.yul\":10374:10388   */\n              add\n                /* \"#utility.yul\":10367:10422   */\n              mstore\n                /* \"#utility.yul\":10250:10429   */\n              pop\n              jump\t// out\n                /* \"#utility.yul\":10435:10801   */\n            tag_267:\n                /* \"#utility.yul\":10577:10580   */\n              0x00\n                /* \"#utility.yul\":10598:10665   */\n              tag_413\n                /* \"#utility.yul\":10662:10664   */\n              0x1d\n                /* \"#utility.yul\":10657:10660   */\n              dup4\n                /* \"#utility.yul\":10598:10665   */\n              tag_244\n              jump\t// in\n            tag_413:\n                /* \"#utility.yul\":10591:10665   */\n              swap2\n              pop\n                /* \"#utility.yul\":10674:10767   */\n              tag_414\n                /* \"#utility.yul\":10763:10766   */\n              dup3\n                /* \"#utility.yul\":10674:10767   */\n              tag_266\n              jump\t// in\n            tag_414:\n                /* \"#utility.yul\":10792:10794   */\n              0x20\n                /* \"#utility.yul\":10787:10790   */\n              dup3\n                /* \"#utility.yul\":10783:10795   */\n              add\n                /* \"#utility.yul\":10776:10795   */\n              swap1\n              pop\n                /* \"#utility.yul\":10435:10801   */\n              swap2\n              swap1\n              pop\n              jump\t// out\n                /* \"#utility.yul\":10807:11226   */\n            tag_105:\n                /* \"#utility.yul\":10973:10977   */\n              0x00\n                /* \"#utility.yul\":11011:11013   */\n              0x20\n                /* \"#utility.yul\":11000:11009   */\n              dup3\n                /* \"#utility.yul\":10996:11014   */\n              add\n                /* \"#utility.yul\":10988:11014   */\n              swap1\n              pop\n                /* \"#utility.yul\":11060:11069   */\n              dup2\n                /* \"#utility.yul\":11054:11058   */\n              dup2\n                /* \"#utility.yul\":11050:11070   */\n              sub\n                /* \"#utility.yul\":11046:11047   */\n              0x00\n                /* \"#utility.yul\":11035:11044   */\n              dup4\n                /* \"#utility.yul\":11031:11048   */\n              add\n                /* \"#utility.yul\":11024:11071   */\n              mstore\n                /* \"#utility.yul\":11088:11219   */\n              tag_416\n                /* \"#utility.yul\":11214:11218   */\n              dup2\n                /* \"#utility.yul\":11088:11219   */\n              tag_267\n              jump\t// in\n            tag_416:\n                /* \"#utility.yul\":11080:11219   */\n              swap1\n              pop\n                /* \"#utility.yul\":10807:11226   */\n              swap2\n              swap1\n              pop\n              jump\t// out\n                /* \"#utility.yul\":11232:11453   */\n            tag_268:\n                /* \"#utility.yul\":11372:11406   */\n              0x4265726569747320616c73204d6974737069656c657220726567697374726965\n                /* \"#utility.yul\":11368:11369   */\n              0x00\n                /* \"#utility.yul\":11360:11366   */\n              dup3\n                /* \"#utility.yul\":11356:11370   */\n              add\n                /* \"#utility.yul\":11349:11407   */\n              mstore\n                /* \"#utility.yul\":11441:11445   */\n              0x7274000000000000000000000000000000000000000000000000000000000000\n                /* \"#utility.yul\":11436:11438   */\n              0x20\n                /* \"#utility.yul\":11428:11434   */\n              dup3\n                /* \"#utility.yul\":11424:11439   */\n              add\n                /* \"#utility.yul\":11417:11446   */\n              mstore\n                /* \"#utility.yul\":11232:11453   */\n              pop\n              jump\t// out\n                /* \"#utility.yul\":11459:11825   */\n            tag_269:\n                /* \"#utility.yul\":11601:11604   */\n              0x00\n                /* \"#utility.yul\":11622:11689   */\n              tag_419\n                /* \"#utility.yul\":11686:11688   */\n              0x22\n                /* \"#utility.yul\":11681:11684   */\n              dup4\n                /* \"#utility.yul\":11622:11689   */\n              tag_244\n              jump\t// in\n            tag_419:\n                /* \"#utility.yul\":11615:11689   */\n              swap2\n              pop\n                /* \"#utility.yul\":11698:11791   */\n              tag_420\n                /* \"#utility.yul\":11787:11790   */\n              dup3\n                /* \"#utility.yul\":11698:11791   */\n              tag_268\n              jump\t// in\n            tag_420:\n                /* \"#utility.yul\":11816:11818   */\n              0x40\n                /* \"#utility.yul\":11811:11814   */\n              dup3\n                /* \"#utility.yul\":11807:11819   */\n              add\n                /* \"#utility.yul\":11800:11819   */\n              swap1\n              pop\n                /* \"#utility.yul\":11459:11825   */\n              swap2\n              swap1\n              pop\n              jump\t// out\n                /* \"#utility.yul\":11831:12250   */\n            tag_108:\n                /* \"#utility.yul\":11997:12001   */\n              0x00\n                /* \"#utility.yul\":12035:12037   */\n              0x20\n                /* \"#utility.yul\":12024:12033   */\n              dup3\n                /* \"#utility.yul\":12020:12038   */\n              add\n                /* \"#utility.yul\":12012:12038   */\n              swap1\n              pop\n                /* \"#utility.yul\":12084:12093   */\n              dup2\n                /* \"#utility.yul\":12078:12082   */\n              dup2\n                /* \"#utility.yul\":12074:12094   */\n              sub\n                /* \"#utility.yul\":12070:12071   */\n              0x00\n                /* \"#utility.yul\":12059:12068   */\n              dup4\n                /* \"#utility.yul\":12055:12072   */\n              add\n                /* \"#utility.yul\":12048:12095   */\n              mstore\n                /* \"#utility.yul\":12112:12243   */\n              tag_422\n                /* \"#utility.yul\":12238:12242   */\n              dup2\n                /* \"#utility.yul\":12112:12243   */\n              tag_269\n              jump\t// in\n            tag_422:\n                /* \"#utility.yul\":12104:12243   */\n              swap1\n              pop\n                /* \"#utility.yul\":11831:12250   */\n              swap2\n              swap1\n              pop\n              jump\t// out\n                /* \"#utility.yul\":12256:12438   */\n            tag_270:\n                /* \"#utility.yul\":12396:12430   */\n              0x4d6178696d616c65205465696c6e65686d65727a61686c206572726569636874\n                /* \"#utility.yul\":12392:12393   */\n              0x00\n                /* \"#utility.yul\":12384:12390   */\n              dup3\n                /* \"#utility.yul\":12380:12394   */\n              add\n                /* \"#utility.yul\":12373:12431   */\n              mstore\n                /* \"#utility.yul\":12256:12438   */\n              pop\n              jump\t// out\n                /* \"#utility.yul\":12444:12810   */\n            tag_271:\n                /* \"#utility.yul\":12586:12589   */\n              0x00\n                /* \"#utility.yul\":12607:12674   */\n              tag_425\n                /* \"#utility.yul\":12671:12673   */\n              0x20\n                /* \"#utility.yul\":12666:12669   */\n              dup4\n                /* \"#utility.yul\":12607:12674   */\n              tag_244\n              jump\t// in\n            tag_425:\n                /* \"#utility.yul\":12600:12674   */\n              swap2\n              pop\n                /* \"#utility.yul\":12683:12776   */\n              tag_426\n                /* \"#utility.yul\":12772:12775   */\n              dup3\n                /* \"#utility.yul\":12683:12776   */\n              tag_270\n              jump\t// in\n            tag_426:\n                /* \"#utility.yul\":12801:12803   */\n              0x20\n                /* \"#utility.yul\":12796:12799   */\n              dup3\n                /* \"#utility.yul\":12792:12804   */\n              add\n                /* \"#utility.yul\":12785:12804   */\n              swap1\n              pop\n                /* \"#utility.yul\":12444:12810   */\n              swap2\n              swap1\n              pop\n              jump\t// out\n                /* \"#utility.yul\":12816:13235   */\n            tag_111:\n                /* \"#utility.yul\":12982:12986   */\n              0x00\n                /* \"#utility.yul\":13020:13022   */\n              0x20\n                /* \"#utility.yul\":13009:13018   */\n              dup3\n                /* \"#utility.yul\":13005:13023   */\n              add\n                /* \"#utility.yul\":12997:13023   */\n              swap1\n              pop\n                /* \"#utility.yul\":13069:13078   */\n              dup2\n                /* \"#utility.yul\":13063:13067   */\n              dup2\n                /* \"#utility.yul\":13059:13079   */\n              sub\n                /* \"#utility.yul\":13055:13056   */\n              0x00\n                /* \"#utility.yul\":13044:13053   */\n              dup4\n                /* \"#utility.yul\":13040:13057   */\n              add\n                /* \"#utility.yul\":13033:13080   */\n              mstore\n                /* \"#utility.yul\":13097:13228   */\n              tag_428\n                /* \"#utility.yul\":13223:13227   */\n              dup2\n                /* \"#utility.yul\":13097:13228   */\n              tag_271\n              jump\t// in\n            tag_428:\n                /* \"#utility.yul\":13089:13228   */\n              swap1\n              pop\n                /* \"#utility.yul\":12816:13235   */\n              swap2\n              swap1\n              pop\n              jump\t// out\n                /* \"#utility.yul\":13241:13435   */\n            tag_113:\n                /* \"#utility.yul\":13281:13285   */\n              0x00\n                /* \"#utility.yul\":13301:13321   */\n              tag_430\n                /* \"#utility.yul\":13319:13320   */\n              dup3\n                /* \"#utility.yul\":13301:13321   */\n              tag_229\n              jump\t// in\n            tag_430:\n                /* \"#utility.yul\":13296:13321   */\n              swap2\n              pop\n                /* \"#utility.yul\":13335:13355   */\n              tag_431\n                /* \"#utility.yul\":13353:13354   */\n              dup4\n                /* \"#utility.yul\":13335:13355   */\n              tag_229\n              jump\t// in\n            tag_431:\n                /* \"#utility.yul\":13330:13355   */\n              swap3\n              pop\n                /* \"#utility.yul\":13379:13380   */\n              dup3\n                /* \"#utility.yul\":13376:13377   */\n              dup3\n                /* \"#utility.yul\":13372:13381   */\n              sub\n                /* \"#utility.yul\":13364:13381   */\n              swap1\n              pop\n                /* \"#utility.yul\":13403:13404   */\n              dup2\n                /* \"#utility.yul\":13397:13401   */\n              dup2\n                /* \"#utility.yul\":13394:13405   */\n              gt\n                /* \"#utility.yul\":13391:13428   */\n              iszero\n              tag_432\n              jumpi\n                /* \"#utility.yul\":13408:13426   */\n              tag_433\n              tag_265\n              jump\t// in\n            tag_433:\n                /* \"#utility.yul\":13391:13428   */\n            tag_432:\n                /* \"#utility.yul\":13241:13435   */\n              swap3\n              swap2\n              pop\n              pop\n              jump\t// out\n                /* \"#utility.yul\":13441:13674   */\n            tag_116:\n                /* \"#utility.yul\":13480:13483   */\n              0x00\n                /* \"#utility.yul\":13503:13527   */\n              tag_435\n                /* \"#utility.yul\":13521:13526   */\n              dup3\n                /* \"#utility.yul\":13503:13527   */\n              tag_229\n              jump\t// in\n            tag_435:\n                /* \"#utility.yul\":13494:13527   */\n              swap2\n              pop\n                /* \"#utility.yul\":13549:13615   */\n              0xffffffffffffffffffffffffffffffffffffffffffffffffffffffffffffffff\n                /* \"#utility.yul\":13542:13547   */\n              dup3\n                /* \"#utility.yul\":13539:13616   */\n              sub\n                /* \"#utility.yul\":13536:13639   */\n              tag_436\n              jumpi\n                /* \"#utility.yul\":13619:13637   */\n              tag_437\n              tag_265\n              jump\t// in\n            tag_437:\n                /* \"#utility.yul\":13536:13639   */\n            tag_436:\n                /* \"#utility.yul\":13666:13667   */\n              0x01\n                /* \"#utility.yul\":13659:13664   */\n              dup3\n                /* \"#utility.yul\":13655:13668   */\n              add\n                /* \"#utility.yul\":13648:13668   */\n              swap1\n              pop\n                /* \"#utility.yul\":13441:13674   */\n              swap2\n              swap1\n              pop\n              jump\t// out\n                /* \"#utility.yul\":13680:13988   */\n            tag_272:\n                /* \"#utility.yul\":13820:13854   */\n              0x457320676962742062657265697473204d6974737069656c65722e2041656e64\n                /* \"#utility.yul\":13816:13817   */\n              0x00\n                /* \"#utility.yul\":13808:13814   */\n              dup3\n                /* \"#utility.yul\":13804:13818   */\n              add\n                /* \"#utility.yul\":13797:13855   */\n              mstore\n                /* \"#utility.yul\":13889:13923   */\n              0x6572756e672064657220416e7a61686c20616e204d6974737069656c65726e20\n                /* \"#utility.yul\":13884:13886   */\n              0x20\n                /* \"#utility.yul\":13876:13882   */\n              dup3\n                /* \"#utility.yul\":13872:13887   */\n              add\n                /* \"#utility.yul\":13865:13924   */\n              mstore\n                /* \"#utility.yul\":13958:13980   */\n              0x6e69636874206d656872206d6f65676c6963682e000000000000000000000000\n                /* \"#utility.yul\":13953:13955   */\n              0x40\n                /* \"#utility.yul\":13945:13951   */\n              dup3\n                /* \"#utility.yul\":13941:13956   */\n              add\n                /* \"#utility.yul\":13934:13981   */\n              mstore\n                /* \"#utility.yul\":13680:13988   */\n              pop\n              jump\t// out\n                /* \"#utility.yul\":13994:14360   */\n            tag_273:\n                /* \"#utility.yul\":14136:14139   */\n              0x00\n                /* \"#utility.yul\":14157:14224   */\n              tag_440\n                /* \"#utility.yul\":14221:14223   */\n              0x54\n                /* \"#utility.yul\":14216:14219   */\n              dup4\n                /* \"#utility.yul\":14157:14224   */\n              tag_244\n              jump\t// in\n            tag_440:\n                /* \"#utility.yul\":14150:14224   */\n              swap2\n              pop\n                /* \"#utility.yul\":14233:14326   */\n              tag_441\n                /* \"#utility.yul\":14322:14325   */\n              dup3\n                /* \"#utility.yul\":14233:14326   */\n              tag_272\n              jump\t// in\n            tag_441:\n                /* \"#utility.yul\":14351:14353   */\n              0x60\n                /* \"#utility.yul\":14346:14349   */\n              dup3\n                /* \"#utility.yul\":14342:14354   */\n              add\n                /* \"#utility.yul\":14335:14354   */\n              swap1\n              pop\n                /* \"#utility.yul\":13994:14360   */\n              swap2\n              swap1\n              pop\n              jump\t// out\n                /* \"#utility.yul\":14366:14785   */\n            tag_127:\n                /* \"#utility.yul\":14532:14536   */\n              0x00\n                /* \"#utility.yul\":14570:14572   */\n              0x20\n                /* \"#utility.yul\":14559:14568   */\n              dup3\n                /* \"#utility.yul\":14555:14573   */\n              add\n                /* \"#utility.yul\":14547:14573   */\n              swap1\n              pop\n                /* \"#utility.yul\":14619:14628   */\n              dup2\n                /* \"#utility.yul\":14613:14617   */\n              dup2\n                /* \"#utility.yul\":14609:14629   */\n              sub\n                /* \"#utility.yul\":14605:14606   */\n              0x00\n                /* \"#utility.yul\":14594:14603   */\n              dup4\n                /* \"#utility.yul\":14590:14607   */\n              add\n                /* \"#utility.yul\":14583:14630   */\n              mstore\n                /* \"#utility.yul\":14647:14778   */\n              tag_443\n                /* \"#utility.yul\":14773:14777   */\n              dup2\n                /* \"#utility.yul\":14647:14778   */\n              tag_273\n              jump\t// in\n            tag_443:\n                /* \"#utility.yul\":14639:14778   */\n              swap1\n              pop\n                /* \"#utility.yul\":14366:14785   */\n              swap2\n              swap1\n              pop\n              jump\t// out\n                /* \"#utility.yul\":14791:15041   */\n            tag_274:\n                /* \"#utility.yul\":14931:14965   */\n              0x457320676962742062657265697473204d6974737069656c65722e2050726569\n                /* \"#utility.yul\":14927:14928   */\n              0x00\n                /* \"#utility.yul\":14919:14925   */\n              dup3\n                /* \"#utility.yul\":14915:14929   */\n              add\n                /* \"#utility.yul\":14908:14966   */\n              mstore\n                /* \"#utility.yul\":15000:15033   */\n              0x7361656e646572756e67206e69636874206d656872206d6f65676c6963682e00\n                /* \"#utility.yul\":14995:14997   */\n              0x20\n                /* \"#utility.yul\":14987:14993   */\n              dup3\n                /* \"#utility.yul\":14983:14998   */\n              add\n                /* \"#utility.yul\":14976:15034   */\n              mstore\n                /* \"#utility.yul\":14791:15041   */\n              pop\n              jump\t// out\n                /* \"#utility.yul\":15047:15413   */\n            tag_275:\n                /* \"#utility.yul\":15189:15192   */\n              0x00\n                /* \"#utility.yul\":15210:15277   */\n              tag_446\n                /* \"#utility.yul\":15274:15276   */\n              0x3f\n                /* \"#utility.yul\":15269:15272   */\n              dup4\n                /* \"#utility.yul\":15210:15277   */\n              tag_244\n              jump\t// in\n            tag_446:\n                /* \"#utility.yul\":15203:15277   */\n              swap2\n              pop\n                /* \"#utility.yul\":15286:15379   */\n              tag_447\n                /* \"#utility.yul\":15375:15378   */\n              dup3\n                /* \"#utility.yul\":15286:15379   */\n              tag_274\n              jump\t// in\n            tag_447:\n                /* \"#utility.yul\":15404:15406   */\n              0x40\n                /* \"#utility.yul\":15399:15402   */\n              dup3\n                /* \"#utility.yul\":15395:15407   */\n              add\n                /* \"#utility.yul\":15388:15407   */\n              swap1\n              pop\n                /* \"#utility.yul\":15047:15413   */\n              swap2\n              swap1\n              pop\n              jump\t// out\n                /* \"#utility.yul\":15419:15838   */\n            tag_133:\n                /* \"#utility.yul\":15585:15589   */\n              0x00\n                /* \"#utility.yul\":15623:15625   */\n              0x20\n                /* \"#utility.yul\":15612:15621   */\n              dup3\n                /* \"#utility.yul\":15608:15626   */\n              add\n                /* \"#utility.yul\":15600:15626   */\n              swap1\n              pop\n                /* \"#utility.yul\":15672:15681   */\n              dup2\n                /* \"#utility.yul\":15666:15670   */\n              dup2\n                /* \"#utility.yul\":15662:15682   */\n              sub\n                /* \"#utility.yul\":15658:15659   */\n              0x00\n                /* \"#utility.yul\":15647:15656   */\n              dup4\n                /* \"#utility.yul\":15643:15660   */\n              add\n                /* \"#utility.yul\":15636:15683   */\n              mstore\n                /* \"#utility.yul\":15700:15831   */\n              tag_449\n                /* \"#utility.yul\":15826:15830   */\n              dup2\n                /* \"#utility.yul\":15700:15831   */\n              tag_275\n              jump\t// in\n            tag_449:\n                /* \"#utility.yul\":15692:15831   */\n              swap1\n              pop\n                /* \"#utility.yul\":15419:15838   */\n              swap2\n              swap1\n              pop\n              jump\t// out\n                /* \"#utility.yul\":15844:16020   */\n            tag_276:\n                /* \"#utility.yul\":15984:16012   */\n              0x4b65696e65204d6974737069656c657220766f7268616e64656e000000000000\n                /* \"#utility.yul\":15980:15981   */\n              0x00\n                /* \"#utility.yul\":15972:15978   */\n              dup3\n                /* \"#utility.yul\":15968:15982   */\n              add\n                /* \"#utility.yul\":15961:16013   */\n              mstore\n                /* \"#utility.yul\":15844:16020   */\n              pop\n              jump\t// out\n                /* \"#utility.yul\":16026:16392   */\n            tag_277:\n                /* \"#utility.yul\":16168:16171   */\n              0x00\n                /* \"#utility.yul\":16189:16256   */\n              tag_452\n                /* \"#utility.yul\":16253:16255   */\n              0x1a\n                /* \"#utility.yul\":16248:16251   */\n              dup4\n                /* \"#utility.yul\":16189:16256   */\n              tag_244\n              jump\t// in\n            tag_452:\n                /* \"#utility.yul\":16182:16256   */\n              swap2\n              pop\n                /* \"#utility.yul\":16265:16358   */\n              tag_453\n                /* \"#utility.yul\":16354:16357   */\n              dup3\n                /* \"#utility.yul\":16265:16358   */\n              tag_276\n              jump\t// in\n            tag_453:\n                /* \"#utility.yul\":16383:16385   */\n              0x20\n                /* \"#utility.yul\":16378:16381   */\n              dup3\n                /* \"#utility.yul\":16374:16386   */\n              add\n                /* \"#utility.yul\":16367:16386   */\n              swap1\n              pop\n                /* \"#utility.yul\":16026:16392   */\n              swap2\n              swap1\n              pop\n              jump\t// out\n                /* \"#utility.yul\":16398:16817   */\n            tag_139:\n                /* \"#utility.yul\":16564:16568   */\n              0x00\n                /* \"#utility.yul\":16602:16604   */\n              0x20\n                /* \"#utility.yul\":16591:16600   */\n              dup3\n                /* \"#utility.yul\":16587:16605   */\n              add\n                /* \"#utility.yul\":16579:16605   */\n              swap1\n              pop\n                /* \"#utility.yul\":16651:16660   */\n              dup2\n                /* \"#utility.yul\":16645:16649   */\n              dup2\n                /* \"#utility.yul\":16641:16661   */\n              sub\n                /* \"#utility.yul\":16637:16638   */\n              0x00\n                /* \"#utility.yul\":16626:16635   */\n              dup4\n                /* \"#utility.yul\":16622:16639   */\n              add\n                /* \"#utility.yul\":16615:16662   */\n              mstore\n                /* \"#utility.yul\":16679:16810   */\n              tag_455\n                /* \"#utility.yul\":16805:16809   */\n              dup2\n                /* \"#utility.yul\":16679:16810   */\n              tag_277\n              jump\t// in\n            tag_455:\n                /* \"#utility.yul\":16671:16810   */\n              swap1\n              pop\n                /* \"#utility.yul\":16398:16817   */\n              swap2\n              swap1\n              pop\n              jump\t// out\n                /* \"#utility.yul\":16823:17050   */\n            tag_278:\n                /* \"#utility.yul\":16963:16997   */\n              0x4e6963687420616c6c65204d6974737069656c657220686162656e207465696c\n                /* \"#utility.yul\":16959:16960   */\n              0x00\n                /* \"#utility.yul\":16951:16957   */\n              dup3\n                /* \"#utility.yul\":16947:16961   */\n              add\n                /* \"#utility.yul\":16940:16998   */\n              mstore\n                /* \"#utility.yul\":17032:17042   */\n              0x67656e6f6d6d656e000000000000000000000000000000000000000000000000\n                /* \"#utility.yul\":17027:17029   */\n              0x20\n                /* \"#utility.yul\":17019:17025   */\n              dup3\n                /* \"#utility.yul\":17015:17030   */\n              add\n                /* \"#utility.yul\":17008:17043   */\n              mstore\n                /* \"#utility.yul\":16823:17050   */\n              pop\n              jump\t// out\n                /* \"#utility.yul\":17056:17422   */\n            tag_279:\n                /* \"#utility.yul\":17198:17201   */\n              0x00\n                /* \"#utility.yul\":17219:17286   */\n              tag_458\n                /* \"#utility.yul\":17283:17285   */\n              0x28\n                /* \"#utility.yul\":17278:17281   */\n              dup4\n                /* \"#utility.yul\":17219:17286   */\n              tag_244\n              jump\t// in\n            tag_458:\n                /* \"#utility.yul\":17212:17286   */\n              swap2\n              pop\n                /* \"#utility.yul\":17295:17388   */\n              tag_459\n                /* \"#utility.yul\":17384:17387   */\n              dup3\n                /* \"#utility.yul\":17295:17388   */\n              tag_278\n              jump\t// in\n            tag_459:\n                /* \"#utility.yul\":17413:17415   */\n              0x40\n                /* \"#utility.yul\":17408:17411   */\n              dup3\n                /* \"#utility.yul\":17404:17416   */\n              add\n                /* \"#utility.yul\":17397:17416   */\n              swap1\n              pop\n                /* \"#utility.yul\":17056:17422   */\n              swap2\n              swap1\n              pop\n              jump\t// out\n                /* \"#utility.yul\":17428:17847   */\n            tag_142:\n                /* \"#utility.yul\":17594:17598   */\n              0x00\n                /* \"#utility.yul\":17632:17634   */\n              0x20\n                /* \"#utility.yul\":17621:17630   */\n              dup3\n                /* \"#utility.yul\":17617:17635   */\n              add\n                /* \"#utility.yul\":17609:17635   */\n              swap1\n              pop\n                /* \"#utility.yul\":17681:17690   */\n              dup2\n                /* \"#utility.yul\":17675:17679   */\n              dup2\n                /* \"#utility.yul\":17671:17691   */\n              sub\n                /* \"#utility.yul\":17667:17668   */\n              0x00\n                /* \"#utility.yul\":17656:17665   */\n              dup4\n                /* \"#utility.yul\":17652:17669   */\n              add\n                /* \"#utility.yul\":17645:17692   */\n              mstore\n                /* \"#utility.yul\":17709:17840   */\n              tag_461\n                /* \"#utility.yul\":17835:17839   */\n              dup2\n                /* \"#utility.yul\":17709:17840   */\n              tag_279\n              jump\t// in\n            tag_461:\n                /* \"#utility.yul\":17701:17840   */\n              swap1\n              pop\n                /* \"#utility.yul\":17428:17847   */\n              swap2\n              swap1\n              pop\n              jump\t// out\n                /* \"#utility.yul\":17853:18080   */\n            tag_280:\n                /* \"#utility.yul\":17993:18027   */\n              0x4e696368742067656e756567656e6420477574686162656e2066756572204175\n                /* \"#utility.yul\":17989:17990   */\n              0x00\n                /* \"#utility.yul\":17981:17987   */\n              dup3\n                /* \"#utility.yul\":17977:17991   */\n              add\n                /* \"#utility.yul\":17970:18028   */\n              mstore\n                /* \"#utility.yul\":18062:18072   */\n              0x737a61686c756e67000000000000000000000000000000000000000000000000\n                /* \"#utility.yul\":18057:18059   */\n              0x20\n                /* \"#utility.yul\":18049:18055   */\n              dup3\n                /* \"#utility.yul\":18045:18060   */\n              add\n                /* \"#utility.yul\":18038:18073   */\n              mstore\n                /* \"#utility.yul\":17853:18080   */\n              pop\n              jump\t// out\n                /* \"#utility.yul\":18086:18452   */\n            tag_281:\n                /* \"#utility.yul\":18228:18231   */\n              0x00\n                /* \"#utility.yul\":18249:18316   */\n              tag_464\n                /* \"#utility.yul\":18313:18315   */\n              0x28\n                /* \"#utility.yul\":18308:18311   */\n              dup4\n                /* \"#utility.yul\":18249:18316   */\n              tag_244\n              jump\t// in\n            tag_464:\n                /* \"#utility.yul\":18242:18316   */\n              swap2\n              pop\n                /* \"#utility.yul\":18325:18418   */\n              tag_465\n                /* \"#utility.yul\":18414:18417   */\n              dup3\n                /* \"#utility.yul\":18325:18418   */\n              tag_280\n              jump\t// in\n            tag_465:\n                /* \"#utility.yul\":18443:18445   */\n              0x40\n                /* \"#utility.yul\":18438:18441   */\n              dup3\n                /* \"#utility.yul\":18434:18446   */\n              add\n                /* \"#utility.yul\":18427:18446   */\n              swap1\n              pop\n                /* \"#utility.yul\":18086:18452   */\n              swap2\n              swap1\n              pop\n              jump\t// out\n                /* \"#utility.yul\":18458:18877   */\n            tag_146:\n                /* \"#utility.yul\":18624:18628   */\n              0x00\n                /* \"#utility.yul\":18662:18664   */\n              0x20\n                /* \"#utility.yul\":18651:18660   */\n              dup3\n                /* \"#utility.yul\":18647:18665   */\n              add\n                /* \"#utility.yul\":18639:18665   */\n              swap1\n              pop\n                /* \"#utility.yul\":18711:18720   */\n              dup2\n                /* \"#utility.yul\":18705:18709   */\n              dup2\n                /* \"#utility.yul\":18701:18721   */\n              sub\n                /* \"#utility.yul\":18697:18698   */\n              0x00\n                /* \"#utility.yul\":18686:18695   */\n              dup4\n                /* \"#utility.yul\":18682:18699   */\n              add\n                /* \"#utility.yul\":18675:18722   */\n              mstore\n                /* \"#utility.yul\":18739:18870   */\n              tag_467\n                /* \"#utility.yul\":18865:18869   */\n              dup2\n                /* \"#utility.yul\":18739:18870   */\n              tag_281\n              jump\t// in\n            tag_467:\n                /* \"#utility.yul\":18731:18870   */\n              swap1\n              pop\n                /* \"#utility.yul\":18458:18877   */\n              swap2\n              swap1\n              pop\n              jump\t// out\n                /* \"#utility.yul\":18883:19074   */\n            tag_148:\n                /* \"#utility.yul\":18923:18926   */\n              0x00\n                /* \"#utility.yul\":18942:18962   */\n              tag_469\n                /* \"#utility.yul\":18960:18961   */\n              dup3\n                /* \"#utility.yul\":18942:18962   */\n              tag_229\n              jump\t// in\n            tag_469:\n                /* \"#utility.yul\":18937:18962   */\n              swap2\n              pop\n                /* \"#utility.yul\":18976:18996   */\n              tag_470\n                /* \"#utility.yul\":18994:18995   */\n              dup4\n                /* \"#utility.yul\":18976:18996   */\n              tag_229\n              jump\t// in\n            tag_470:\n                /* \"#utility.yul\":18971:18996   */\n              swap3\n              pop\n                /* \"#utility.yul\":19019:19020   */\n              dup3\n                /* \"#utility.yul\":19016:19017   */\n              dup3\n                /* \"#utility.yul\":19012:19021   */\n              add\n                /* \"#utility.yul\":19005:19021   */\n              swap1\n              pop\n                /* \"#utility.yul\":19040:19043   */\n              dup1\n                /* \"#utility.yul\":19037:19038   */\n              dup3\n                /* \"#utility.yul\":19034:19044   */\n              gt\n                /* \"#utility.yul\":19031:19067   */\n              iszero\n              tag_471\n              jumpi\n                /* \"#utility.yul\":19047:19065   */\n              tag_472\n              tag_265\n              jump\t// in\n            tag_472:\n                /* \"#utility.yul\":19031:19067   */\n            tag_471:\n                /* \"#utility.yul\":18883:19074   */\n              swap3\n              swap2\n              pop\n              pop\n              jump\t// out\n                /* \"#utility.yul\":19080:19260   */\n            tag_155:\n                /* \"#utility.yul\":19128:19205   */\n              0x4e487b7100000000000000000000000000000000000000000000000000000000\n                /* \"#utility.yul\":19125:19126   */\n              0x00\n                /* \"#utility.yul\":19118:19206   */\n              mstore\n                /* \"#utility.yul\":19225:19229   */\n              0x32\n                /* \"#utility.yul\":19222:19223   */\n              0x04\n                /* \"#utility.yul\":19215:19230   */\n              mstore\n                /* \"#utility.yul\":19249:19253   */\n              0x24\n                /* \"#utility.yul\":19246:19247   */\n              0x00\n                /* \"#utility.yul\":19239:19254   */\n              revert\n                /* \"#utility.yul\":19266:19413   */\n            tag_282:\n                /* \"#utility.yul\":19367:19378   */\n              0x00\n                /* \"#utility.yul\":19404:19407   */\n              dup2\n                /* \"#utility.yul\":19389:19407   */\n              swap1\n              pop\n                /* \"#utility.yul\":19266:19413   */\n              swap3\n              swap2\n              pop\n              pop\n              jump\t// out\n                /* \"#utility.yul\":19419:19533   */\n            tag_283:\n              pop\n              jump\t// out\n                /* \"#utility.yul\":19539:19937   */\n            tag_284:\n                /* \"#utility.yul\":19698:19701   */\n              0x00\n                /* \"#utility.yul\":19719:19802   */\n              tag_477\n                /* \"#utility.yul\":19800:19801   */\n              0x00\n                /* \"#utility.yul\":19795:19798   */\n              dup4\n                /* \"#utility.yul\":19719:19802   */\n              tag_282\n              jump\t// in\n            tag_477:\n                /* \"#utility.yul\":19712:19802   */\n              swap2\n              pop\n                /* \"#utility.yul\":19811:19904   */\n              tag_478\n                /* \"#utility.yul\":19900:19903   */\n              dup3\n                /* \"#utility.yul\":19811:19904   */\n              tag_283\n              jump\t// in\n            tag_478:\n                /* \"#utility.yul\":19929:19930   */\n              0x00\n                /* \"#utility.yul\":19924:19927   */\n              dup3\n                /* \"#utility.yul\":19920:19931   */\n              add\n                /* \"#utility.yul\":19913:19931   */\n              swap1\n              pop\n                /* \"#utility.yul\":19539:19937   */\n              swap2\n              swap1\n              pop\n              jump\t// out\n                /* \"#utility.yul\":19943:20322   */\n            tag_158:\n                /* \"#utility.yul\":20127:20130   */\n              0x00\n                /* \"#utility.yul\":20149:20296   */\n              tag_480\n                /* \"#utility.yul\":20292:20295   */\n              dup3\n                /* \"#utility.yul\":20149:20296   */\n              tag_284\n              jump\t// in\n            tag_480:\n                /* \"#utility.yul\":20142:20296   */\n              swap2\n              pop\n                /* \"#utility.yul\":20313:20316   */\n              dup2\n                /* \"#utility.yul\":20306:20316   */\n              swap1\n              pop\n                /* \"#utility.yul\":19943:20322   */\n              swap2\n              swap1\n              pop\n              jump\t// out\n                /* \"#utility.yul\":20328:20503   */\n            tag_285:\n                /* \"#utility.yul\":20468:20495   */\n              0x4175737a61686c756e67206665686c67657363686c6167656e00000000000000\n                /* \"#utility.yul\":20464:20465   */\n              0x00\n                /* \"#utility.yul\":20456:20462   */\n              dup3\n                /* \"#utility.yul\":20452:20466   */\n              add\n                /* \"#utility.yul\":20445:20496   */\n              mstore\n                /* \"#utility.yul\":20328:20503   */\n              pop\n              jump\t// out\n                /* \"#utility.yul\":20509:20875   */\n            tag_286:\n                /* \"#utility.yul\":20651:20654   */\n              0x00\n                /* \"#utility.yul\":20672:20739   */\n              tag_483\n                /* \"#utility.yul\":20736:20738   */\n              0x19\n                /* \"#utility.yul\":20731:20734   */\n              dup4\n                /* \"#utility.yul\":20672:20739   */\n              tag_244\n              jump\t// in\n            tag_483:\n                /* \"#utility.yul\":20665:20739   */\n              swap2\n              pop\n                /* \"#utility.yul\":20748:20841   */\n              tag_484\n                /* \"#utility.yul\":20837:20840   */\n              dup3\n                /* \"#utility.yul\":20748:20841   */\n              tag_285\n              jump\t// in\n            tag_484:\n                /* \"#utility.yul\":20866:20868   */\n              0x20\n                /* \"#utility.yul\":20861:20864   */\n              dup3\n                /* \"#utility.yul\":20857:20869   */\n              add\n                /* \"#utility.yul\":20850:20869   */\n              swap1\n              pop\n                /* \"#utility.yul\":20509:20875   */\n              swap2\n              swap1\n              pop\n              jump\t// out\n                /* \"#utility.yul\":20881:21300   */\n            tag_164:\n                /* \"#utility.yul\":21047:21051   */\n              0x00\n                /* \"#utility.yul\":21085:21087   */\n              0x20\n                /* \"#utility.yul\":21074:21083   */\n              dup3\n                /* \"#utility.yul\":21070:21088   */\n              add\n                /* \"#utility.yul\":21062:21088   */\n              swap1\n              pop\n                /* \"#utility.yul\":21134:21143   */\n              dup2\n                /* \"#utility.yul\":21128:21132   */\n              dup2\n                /* \"#utility.yul\":21124:21144   */\n              sub\n                /* \"#utility.yul\":21120:21121   */\n              0x00\n                /* \"#utility.yul\":21109:21118   */\n              dup4\n                /* \"#utility.yul\":21105:21122   */\n              add\n                /* \"#utility.yul\":21098:21145   */\n              mstore\n                /* \"#utility.yul\":21162:21293   */\n              tag_486\n                /* \"#utility.yul\":21288:21292   */\n              dup2\n                /* \"#utility.yul\":21162:21293   */\n              tag_286\n              jump\t// in\n            tag_486:\n                /* \"#utility.yul\":21154:21293   */\n              swap1\n              pop\n                /* \"#utility.yul\":20881:21300   */\n              swap2\n              swap1\n              pop\n              jump\t// out\n                /* \"#utility.yul\":21306:21486   */\n            tag_287:\n                /* \"#utility.yul\":21354:21431   */\n              0x4e487b7100000000000000000000000000000000000000000000000000000000\n                /* \"#utility.yul\":21351:21352   */\n              0x00\n                /* \"#utility.yul\":21344:21432   */\n              mstore\n                /* \"#utility.yul\":21451:21455   */\n              0x22\n                /* \"#utility.yul\":21448:21449   */\n              0x04\n                /* \"#utility.yul\":21441:21456   */\n              mstore\n                /* \"#utility.yul\":21475:21479   */\n              0x24\n                /* \"#utility.yul\":21472:21473   */\n              0x00\n                /* \"#utility.yul\":21465:21480   */\n              revert\n                /* \"#utility.yul\":21492:21812   */\n            tag_178:\n                /* \"#utility.yul\":21536:21542   */\n              0x00\n                /* \"#utility.yul\":21573:21574   */\n              0x02\n                /* \"#utility.yul\":21567:21571   */\n              dup3\n                /* \"#utility.yul\":21563:21575   */\n              div\n                /* \"#utility.yul\":21553:21575   */\n              swap1\n              pop\n                /* \"#utility.yul\":21620:21621   */\n              0x01\n                /* \"#utility.yul\":21614:21618   */\n              dup3\n                /* \"#utility.yul\":21610:21622   */\n              and\n                /* \"#utility.yul\":21641:21659   */\n              dup1\n                /* \"#utility.yul\":21631:21712   */\n              tag_489\n              jumpi\n                /* \"#utility.yul\":21697:21701   */\n              0x7f\n                /* \"#utility.yul\":21689:21695   */\n              dup3\n                /* \"#utility.yul\":21685:21702   */\n              and\n                /* \"#utility.yul\":21675:21702   */\n              swap2\n              pop\n                /* \"#utility.yul\":21631:21712   */\n            tag_489:\n                /* \"#utility.yul\":21759:21761   */\n              0x20\n                /* \"#utility.yul\":21751:21757   */\n              dup3\n                /* \"#utility.yul\":21748:21762   */\n              lt\n                /* \"#utility.yul\":21728:21746   */\n              dup2\n                /* \"#utility.yul\":21725:21763   */\n              sub\n                /* \"#utility.yul\":21722:21806   */\n              tag_490\n              jumpi\n                /* \"#utility.yul\":21778:21796   */\n              tag_491\n              tag_287\n              jump\t// in\n            tag_491:\n                /* \"#utility.yul\":21722:21806   */\n            tag_490:\n                /* \"#utility.yul\":21543:21812   */\n              pop\n                /* \"#utility.yul\":21492:21812   */\n              swap2\n              swap1\n              pop\n              jump\t// out\n                /* \"#utility.yul\":21818:22038   */\n            tag_288:\n                /* \"#utility.yul\":21958:21992   */\n              0x48617570747a61686c2061757373657268616c62206465732042657265696368\n                /* \"#utility.yul\":21954:21955   */\n              0x00\n                /* \"#utility.yul\":21946:21952   */\n              dup3\n                /* \"#utility.yul\":21942:21956   */\n              add\n                /* \"#utility.yul\":21935:21993   */\n              mstore\n                /* \"#utility.yul\":22027:22030   */\n              0x7300000000000000000000000000000000000000000000000000000000000000\n                /* \"#utility.yul\":22022:22024   */\n              0x20\n                /* \"#utility.yul\":22014:22020   */\n              dup3\n                /* \"#utility.yul\":22010:22025   */\n              add\n                /* \"#utility.yul\":22003:22031   */\n              mstore\n                /* \"#utility.yul\":21818:22038   */\n              pop\n              jump\t// out\n                /* \"#utility.yul\":22044:22410   */\n            tag_289:\n                /* \"#utility.yul\":22186:22189   */\n              0x00\n                /* \"#utility.yul\":22207:22274   */\n              tag_494\n                /* \"#utility.yul\":22271:22273   */\n              0x21\n                /* \"#utility.yul\":22266:22269   */\n              dup4\n                /* \"#utility.yul\":22207:22274   */\n              tag_244\n              jump\t// in\n            tag_494:\n                /* \"#utility.yul\":22200:22274   */\n              swap2\n              pop\n                /* \"#utility.yul\":22283:22376   */\n              tag_495\n                /* \"#utility.yul\":22372:22375   */\n              dup3\n                /* \"#utility.yul\":22283:22376   */\n              tag_288\n              jump\t// in\n            tag_495:\n                /* \"#utility.yul\":22401:22403   */\n              0x40\n                /* \"#utility.yul\":22396:22399   */\n              dup3\n                /* \"#utility.yul\":22392:22404   */\n              add\n                /* \"#utility.yul\":22385:22404   */\n              swap1\n              pop\n                /* \"#utility.yul\":22044:22410   */\n              swap2\n              swap1\n              pop\n              jump\t// out\n                /* \"#utility.yul\":22416:22835   */\n            tag_197:\n                /* \"#utility.yul\":22582:22586   */\n              0x00\n                /* \"#utility.yul\":22620:22622   */\n              0x20\n                /* \"#utility.yul\":22609:22618   */\n              dup3\n                /* \"#utility.yul\":22605:22623   */\n              add\n                /* \"#utility.yul\":22597:22623   */\n              swap1\n              pop\n                /* \"#utility.yul\":22669:22678   */\n              dup2\n                /* \"#utility.yul\":22663:22667   */\n              dup2\n                /* \"#utility.yul\":22659:22679   */\n              sub\n                /* \"#utility.yul\":22655:22656   */\n              0x00\n                /* \"#utility.yul\":22644:22653   */\n              dup4\n                /* \"#utility.yul\":22640:22657   */\n              add\n                /* \"#utility.yul\":22633:22680   */\n              mstore\n                /* \"#utility.yul\":22697:22828   */\n              tag_497\n                /* \"#utility.yul\":22823:22827   */\n              dup2\n                /* \"#utility.yul\":22697:22828   */\n              tag_289\n              jump\t// in\n            tag_497:\n                /* \"#utility.yul\":22689:22828   */\n              swap1\n              pop\n                /* \"#utility.yul\":22416:22835   */\n              swap2\n              swap1\n              pop\n              jump\t// out\n                /* \"#utility.yul\":22841:23062   */\n            tag_290:\n                /* \"#utility.yul\":22981:23015   */\n              0x5a757361747a7a61686c2061757373657268616c622064657320426572656963\n                /* \"#utility.yul\":22977:22978   */\n              0x00\n                /* \"#utility.yul\":22969:22975   */\n              dup3\n                /* \"#utility.yul\":22965:22979   */\n              add\n                /* \"#utility.yul\":22958:23016   */\n              mstore\n                /* \"#utility.yul\":23050:23054   */\n              0x6873000000000000000000000000000000000000000000000000000000000000\n                /* \"#utility.yul\":23045:23047   */\n              0x20\n                /* \"#utility.yul\":23037:23043   */\n              dup3\n                /* \"#utility.yul\":23033:23048   */\n              add\n                /* \"#utility.yul\":23026:23055   */\n              mstore\n                /* \"#utility.yul\":22841:23062   */\n              pop\n              jump\t// out\n                /* \"#utility.yul\":23068:23434   */\n            tag_291:\n                /* \"#utility.yul\":23210:23213   */\n              0x00\n                /* \"#utility.yul\":23231:23298   */\n              tag_500\n                /* \"#utility.yul\":23295:23297   */\n              0x22\n                /* \"#utility.yul\":23290:23293   */\n              dup4\n                /* \"#utility.yul\":23231:23298   */\n              tag_244\n              jump\t// in\n            tag_500:\n                /* \"#utility.yul\":23224:23298   */\n              swap2\n              pop\n                /* \"#utility.yul\":23307:23400   */\n              tag_501\n                /* \"#utility.yul\":23396:23399   */\n              dup3\n                /* \"#utility.yul\":23307:23400   */\n              tag_290\n              jump\t// in\n            tag_501:\n                /* \"#utility.yul\":23425:23427   */\n              0x40\n                /* \"#utility.yul\":23420:23423   */\n              dup3\n                /* \"#utility.yul\":23416:23428   */\n              add\n                /* \"#utility.yul\":23409:23428   */\n              swap1\n              pop\n                /* \"#utility.yul\":23068:23434   */\n              swap2\n              swap1\n              pop\n              jump\t// out\n                /* \"#utility.yul\":23440:23859   */\n            tag_208:\n                /* \"#utility.yul\":23606:23610   */\n              0x00\n                /* \"#utility.yul\":23644:23646   */\n              0x20\n                /* \"#utility.yul\":23633:23642   */\n              dup3\n                /* \"#utility.yul\":23629:23647   */\n              add\n                /* \"#utility.yul\":23621:23647   */\n              swap1\n              pop\n                /* \"#utility.yul\":23693:23702   */\n              dup2\n                /* \"#utility.yul\":23687:23691   */\n              dup2\n                /* \"#utility.yul\":23683:23703   */\n              sub\n                /* \"#utility.yul\":23679:23680   */\n              0x00\n                /* \"#utility.yul\":23668:23677   */\n              dup4\n                /* \"#utility.yul\":23664:23681   */\n              add\n                /* \"#utility.yul\":23657:23704   */\n              mstore\n                /* \"#utility.yul\":23721:23852   */\n              tag_503\n                /* \"#utility.yul\":23847:23851   */\n              dup2\n                /* \"#utility.yul\":23721:23852   */\n              tag_291\n              jump\t// in\n            tag_503:\n                /* \"#utility.yul\":23713:23852   */\n              swap1\n              pop\n                /* \"#utility.yul\":23440:23859   */\n              swap2\n              swap1\n              pop\n              jump\t// out\n\n            auxdata: 0xa26469706673582212206b7c55759b1b4eb9f9655687736684259d423d51c42f4045b60792b23e0807bd64736f6c63430008170033\n        }\n    }\n\n    auxdata: 0xa2646970667358221220ac6dd8660c708f8c1c9b07b4f8d3e340a0d22497d9288d36b73de8ea3120b5cd64736f6c63430008170033\n}\n","bytecode":{"linkReferences":{},"object":"608060405234801561000f575f80fd5b5061300c8061001d5f395ff3fe608060405234801562000010575f80fd5b50600436106200005c575f3560e01c8063535da87c146200006057806395097fe11462000082578063ad6eb6d914620000b8578063fb67005614620000ee578063fbc7f11e1462000124575b5f80fd5b6200006a62000144565b6040516200007991906200053f565b60405180910390f35b620000a060048036038101906200009a9190620006ca565b620001d0565b604051620000af91906200073d565b60405180910390f35b620000d66004803603810190620000d0919062000790565b62000218565b604051620000e5919062000844565b60405180910390f35b6200010c600480360381019062000106919062000790565b620002c7565b6040516200011b919062000877565b60405180910390f35b6200014260048036038101906200013c919062000892565b62000302565b005b60605f805480602002602001604051908101604052809291908181526020018280548015620001c657602002820191905f5260205f20905b815f9054906101000a900473ffffffffffffffffffffffffffffffffffffffff1673ffffffffffffffffffffffffffffffffffffffff16815260200190600101908083116200017c575b5050505050905090565b6002818051602081018201805184825260208301602085012081835280955050505050505f915054906101000a900473ffffffffffffffffffffffffffffffffffffffff1681565b6001818154811062000228575f80fd5b905f5260205f20015f915090508054620002429062000937565b80601f0160208091040260200160405190810160405280929190818152602001828054620002709062000937565b8015620002bf5780601f106200029557610100808354040283529160200191620002bf565b820191905f5260205f20905b815481529060010190602001808311620002a157829003601f168201915b505050505081565b5f8181548110620002d6575f80fd5b905f5260205f20015f915054906101000a900473ffffffffffffffffffffffffffffffffffffffff1681565b5f83338484604051620003159062000438565b6200032494939291906200097c565b604051809103905ff0801580156200033e573d5f803e3d5ffd5b5090505f81908060018154018082558091505060019003905f5260205f20015f9091909190916101000a81548173ffffffffffffffffffffffffffffffffffffffff021916908373ffffffffffffffffffffffffffffffffffffffff160217905550600184908060018154018082558091505060019003905f5260205f20015f909190919091509081620003d3919062000b91565b5080600285604051620003e7919062000cb5565b90815260200160405180910390205f6101000a81548173ffffffffffffffffffffffffffffffffffffffff021916908373ffffffffffffffffffffffffffffffffffffffff16021790555050505050565b6123098062000cce83390190565b5f81519050919050565b5f82825260208201905092915050565b5f819050602082019050919050565b5f73ffffffffffffffffffffffffffffffffffffffff82169050919050565b5f6200049a826200046f565b9050919050565b620004ac816200048e565b82525050565b5f620004bf8383620004a1565b60208301905092915050565b5f602082019050919050565b5f620004e38262000446565b620004ef818562000450565b9350620004fc8362000460565b805f5b8381101562000532578151620005168882620004b2565b97506200052383620004cb565b925050600181019050620004ff565b5085935050505092915050565b5f6020820190508181035f830152620005598184620004d7565b905092915050565b5f604051905090565b5f80fd5b5f80fd5b5f80fd5b5f80fd5b5f601f19601f8301169050919050565b7f4e487b71000000000000000000000000000000000000000000000000000000005f52604160045260245ffd5b620005c2826200057a565b810181811067ffffffffffffffff82111715620005e457620005e36200058a565b5b80604052505050565b5f620005f862000561565b9050620006068282620005b7565b919050565b5f67ffffffffffffffff8211156200062857620006276200058a565b5b62000633826200057a565b9050602081019050919050565b828183375f83830152505050565b5f620006646200065e846200060b565b620005ed565b90508281526020810184848401111562000683576200068262000576565b5b6200069084828562000640565b509392505050565b5f82601f830112620006af57620006ae62000572565b5b8135620006c18482602086016200064e565b91505092915050565b5f60208284031215620006e257620006e16200056a565b5b5f82013567ffffffffffffffff8111156200070257620007016200056e565b5b620007108482850162000698565b91505092915050565b5f62000725826200046f565b9050919050565b620007378162000719565b82525050565b5f602082019050620007525f8301846200072c565b92915050565b5f819050919050565b6200076c8162000758565b811462000777575f80fd5b50565b5f813590506200078a8162000761565b92915050565b5f60208284031215620007a857620007a76200056a565b5b5f620007b7848285016200077a565b91505092915050565b5f81519050919050565b5f82825260208201905092915050565b5f5b83811015620007f9578082015181840152602081019050620007dc565b5f8484015250505050565b5f6200081082620007c0565b6200081c8185620007ca565b93506200082e818560208601620007da565b62000839816200057a565b840191505092915050565b5f6020820190508181035f8301526200085e818462000804565b905092915050565b62000871816200048e565b82525050565b5f6020820190506200088c5f83018462000866565b92915050565b5f805f60608486031215620008ac57620008ab6200056a565b5b5f84013567ffffffffffffffff811115620008cc57620008cb6200056e565b5b620008da8682870162000698565b9350506020620008ed868287016200077a565b925050604062000900868287016200077a565b9150509250925092565b7f4e487b71000000000000000000000000000000000000000000000000000000005f52602260045260245ffd5b5f60028204905060018216806200094f57607f821691505b6020821081036200096557620009646200090a565b5b50919050565b620009768162000758565b82525050565b5f6080820190508181035f83015262000996818762000804565b9050620009a760208301866200072c565b620009b660408301856200096b565b620009c560608301846200096b565b95945050505050565b5f819050815f5260205f209050919050565b5f6020601f8301049050919050565b5f82821b905092915050565b5f6008830262000a2c7fffffffffffffffffffffffffffffffffffffffffffffffffffffffffffffffff82620009ef565b62000a388683620009ef565b95508019841693508086168417925050509392505050565b5f819050919050565b5f62000a7962000a7362000a6d8462000758565b62000a50565b62000758565b9050919050565b5f819050919050565b62000a948362000a59565b62000aac62000aa38262000a80565b848454620009fb565b825550505050565b5f90565b62000ac262000ab4565b62000acf81848462000a89565b505050565b5b8181101562000af65762000aea5f8262000ab8565b60018101905062000ad5565b5050565b601f82111562000b455762000b0f81620009ce565b62000b1a84620009e0565b8101602085101562000b2a578190505b62000b4262000b3985620009e0565b83018262000ad4565b50505b505050565b5f82821c905092915050565b5f62000b675f198460080262000b4a565b1980831691505092915050565b5f62000b81838362000b56565b9150826002028217905092915050565b62000b9c82620007c0565b67ffffffffffffffff81111562000bb85762000bb76200058a565b5b62000bc4825462000937565b62000bd182828562000afa565b5f60209050601f83116001811462000c07575f841562000bf2578287015190505b62000bfe858262000b74565b86555062000c6d565b601f19841662000c1786620009ce565b5f5b8281101562000c405784890151825560018201915060208501945060208101905062000c19565b8683101562000c60578489015162000c5c601f89168262000b56565b8355505b6001600288020188555050505b505050505050565b5f81905092915050565b5f62000c8b82620007c0565b62000c97818562000c75565b935062000ca9818560208601620007da565b80840191505092915050565b5f62000cc2828462000c7f565b91508190509291505056fe60806040525f600a555f600b5534801562000018575f80fd5b50604051620023093803806200230983398181016040528101906200003e9190620002c5565b825f806101000a81548173ffffffffffffffffffffffffffffffffffffffff021916908373ffffffffffffffffffffffffffffffffffffffff16021790555083600190816200008e919062000581565b5081600281905550806004819055505050505062000665565b5f604051905090565b5f80fd5b5f80fd5b5f80fd5b5f80fd5b5f601f19601f8301169050919050565b7f4e487b71000000000000000000000000000000000000000000000000000000005f52604160045260245ffd5b6200010882620000c0565b810181811067ffffffffffffffff821117156200012a5762000129620000d0565b5b80604052505050565b5f6200013e620000a7565b90506200014c8282620000fd565b919050565b5f67ffffffffffffffff8211156200016e576200016d620000d0565b5b6200017982620000c0565b9050602081019050919050565b5f5b83811015620001a557808201518184015260208101905062000188565b5f8484015250505050565b5f620001c6620001c08462000151565b62000133565b905082815260208101848484011115620001e557620001e4620000bc565b5b620001f284828562000186565b509392505050565b5f82601f830112620002115762000210620000b8565b5b815162000223848260208601620001b0565b91505092915050565b5f73ffffffffffffffffffffffffffffffffffffffff82169050919050565b5f62000257826200022c565b9050919050565b62000269816200024b565b811462000274575f80fd5b50565b5f8151905062000287816200025e565b92915050565b5f819050919050565b620002a1816200028d565b8114620002ac575f80fd5b50565b5f81519050620002bf8162000296565b92915050565b5f805f8060808587031215620002e057620002df620000b0565b5b5f85015167ffffffffffffffff8111156200030057620002ff620000b4565b5b6200030e87828801620001fa565b9450506020620003218782880162000277565b93505060406200033487828801620002af565b92505060606200034787828801620002af565b91505092959194509250565b5f81519050919050565b7f4e487b71000000000000000000000000000000000000000000000000000000005f52602260045260245ffd5b5f6002820490506001821680620003a257607f821691505b602082108103620003b857620003b76200035d565b5b50919050565b5f819050815f5260205f209050919050565b5f6020601f8301049050919050565b5f82821b905092915050565b5f600883026200041c7fffffffffffffffffffffffffffffffffffffffffffffffffffffffffffffffff82620003df565b620004288683620003df565b95508019841693508086168417925050509392505050565b5f819050919050565b5f62000469620004636200045d846200028d565b62000440565b6200028d565b9050919050565b5f819050919050565b620004848362000449565b6200049c620004938262000470565b848454620003eb565b825550505050565b5f90565b620004b2620004a4565b620004bf81848462000479565b505050565b5b81811015620004e657620004da5f82620004a8565b600181019050620004c5565b5050565b601f8211156200053557620004ff81620003be565b6200050a84620003d0565b810160208510156200051a578190505b620005326200052985620003d0565b830182620004c4565b50505b505050565b5f82821c905092915050565b5f620005575f19846008026200053a565b1980831691505092915050565b5f62000571838362000546565b9150826002028217905092915050565b6200058c8262000353565b67ffffffffffffffff811115620005a857620005a7620000d0565b5b620005b482546200038a565b620005c1828285620004ea565b5f60209050601f831160018114620005f7575f8415620005e2578287015190505b620005ee858262000564565b8655506200065d565b601f1984166200060786620003be565b5f5b82811015620006305784890151825560018201915060208501945060208101905062000609565b868310156200065057848901516200064c601f89168262000546565b8355505b6001600288020188555050505b505050505050565b611c9680620006735f395ff3fe6080604052600436106100fd575f3560e01c806370a41bc011610094578063bb864be311610063578063bb864be3146102eb578063d27d06c0146102f5578063d78c28dc1461031f578063e75b3b2514610349578063edaa52c514610371576100fd565b806370a41bc014610247578063822b8023146102715780638e5676fd14610299578063ad2c046c146102c1576100fd565b80633f0f5d51116100d05780633f0f5d51146101ad578063526024ea146101d7578063535c98dd146101e15780636f07affb1461020b576100fd565b8063084263f514610101578063311e73da1461012b57806336927060146101475780633babb15a14610183575b5f80fd5b34801561010c575f80fd5b5061011561039b565b6040516101229190610fd3565b60405180910390f35b61014560048036038101906101409190611023565b6103a1565b005b348015610152575f80fd5b5061016d600480360381019061016891906110a8565b610443565b60405161017a91906110ed565b60405180910390f35b34801561018e575f80fd5b50610197610460565b6040516101a49190610fd3565b60405180910390f35b3480156101b8575f80fd5b506101c1610466565b6040516101ce9190610fd3565b60405180910390f35b6101df61046c565b005b3480156101ec575f80fd5b506101f56106be565b6040516102029190610fd3565b60405180910390f35b348015610216575f80fd5b50610231600480360381019061022c9190611023565b6106c4565b60405161023e9190611115565b60405180910390f35b348015610252575f80fd5b5061025b6106ff565b6040516102689190610fd3565b60405180910390f35b34801561027c575f80fd5b5061029760048036038101906102929190611023565b610705565b005b3480156102a4575f80fd5b506102bf60048036038101906102ba9190611023565b6107a9565b005b3480156102cc575f80fd5b506102d561084d565b6040516102e29190611115565b60405180910390f35b6102f3610870565b005b348015610300575f80fd5b50610309610bb1565b60405161031691906111b8565b60405180910390f35b34801561032a575f80fd5b50610333610c3d565b6040516103409190610fd3565b60405180910390f35b348015610354575f80fd5b5061036f600480360381019061036a91906113ea565b610c46565b005b34801561037c575f80fd5b50610385610e4e565b6040516103929190610fd3565b60405180910390f35b60035481565b5f8054906101000a900473ffffffffffffffffffffffffffffffffffffffff1673ffffffffffffffffffffffffffffffffffffffff163373ffffffffffffffffffffffffffffffffffffffff16146103f7575f80fd5b5f3411610439576040517f08c379a000000000000000000000000000000000000000000000000000000000815260040161043090611498565b60405180910390fd5b80600a8190555050565b6007602052805f5260405f205f915054906101000a900460ff1681565b60095481565b60045481565b5f60025460045461047d9190611510565b9050803410156104c2576040517f08c379a00000000000000000000000000000000000000000000000000000000081526004016104b99061158a565b60405180910390fd5b60075f3373ffffffffffffffffffffffffffffffffffffffff1673ffffffffffffffffffffffffffffffffffffffff1681526020019081526020015f205f9054906101000a900460ff161561054c576040517f08c379a000000000000000000000000000000000000000000000000000000000815260040161054390611618565b60405180910390fd5b60025460095410610592576040517f08c379a000000000000000000000000000000000000000000000000000000000815260040161058990611680565b60405180910390fd5b5f813461059f919061169e565b9050600160075f3373ffffffffffffffffffffffffffffffffffffffff1673ffffffffffffffffffffffffffffffffffffffff1681526020019081526020015f205f6101000a81548160ff021916908315150217905550600833908060018154018082558091505060019003905f5260205f20015f9091909190916101000a81548173ffffffffffffffffffffffffffffffffffffffff021916908373ffffffffffffffffffffffffffffffffffffffff16021790555060095f815480929190610668906116d1565b91905055505f8111156106ba573373ffffffffffffffffffffffffffffffffffffffff166108fc8290811502906040515f60405180830381858888f193505050501580156106b8573d5f803e3d5ffd5b505b5050565b60065481565b600881815481106106d3575f80fd5b905f5260205f20015f915054906101000a900473ffffffffffffffffffffffffffffffffffffffff1681565b60025481565b5f8054906101000a900473ffffffffffffffffffffffffffffffffffffffff1673ffffffffffffffffffffffffffffffffffffffff163373ffffffffffffffffffffffffffffffffffffffff161461075b575f80fd5b5f6009541461079f576040517f08c379a0000000000000000000000000000000000000000000000000000000008152600401610796906117ae565b60405180910390fd5b8060028190555050565b5f8054906101000a900473ffffffffffffffffffffffffffffffffffffffff1673ffffffffffffffffffffffffffffffffffffffff163373ffffffffffffffffffffffffffffffffffffffff16146107ff575f80fd5b5f60095414610843576040517f08c379a000000000000000000000000000000000000000000000000000000000815260040161083a9061183c565b60405180910390fd5b8060048190555050565b5f8054906101000a900473ffffffffffffffffffffffffffffffffffffffff1681565b5f8054906101000a900473ffffffffffffffffffffffffffffffffffffffff1673ffffffffffffffffffffffffffffffffffffffff163373ffffffffffffffffffffffffffffffffffffffff16146108c6575f80fd5b5f60095490505f811161090e576040517f08c379a0000000000000000000000000000000000000000000000000000000008152600401610905906118a4565b60405180910390fd5b60025460095414610954576040517f08c379a000000000000000000000000000000000000000000000000000000000815260040161094b90611932565b60405180910390fd5b5f81476109619190611510565b90505f81116109a5576040517f08c379a000000000000000000000000000000000000000000000000000000000815260040161099c906119c0565b60405180910390fd5b5f6005600b546109b591906119de565b90505f600b5490505b81811080156109cc57508381105b15610acd575f600882815481106109e6576109e5611a11565b5b905f5260205f20015f9054906101000a900473ffffffffffffffffffffffffffffffffffffffff1690505f8173ffffffffffffffffffffffffffffffffffffffff1685604051610a3590611a6b565b5f6040518083038185875af1925050503d805f8114610a6f576040519150601f19603f3d011682016040523d82523d5f602084013e610a74565b606091505b5050905080610ab8576040517f08c379a0000000000000000000000000000000000000000000000000000000008152600401610aaf90611ac9565b60405180910390fd5b50508080610ac5906116d1565b9150506109be565b50828111610adb5780610add565b825b600b8190555082600b5403610bac575f5b83811015610b8f575f60088281548110610b0b57610b0a611a11565b5b905f5260205f20015f9054906101000a900473ffffffffffffffffffffffffffffffffffffffff16905060075f8273ffffffffffffffffffffffffffffffffffffffff1673ffffffffffffffffffffffffffffffffffffffff1681526020019081526020015f205f6101000a81549060ff0219169055508080600101915050610aee565b5060085f610b9d9190610e54565b5f6009819055505f600b819055505b505050565b60018054610bbe90611b14565b80601f0160208091040260200160405190810160405280929190818152602001828054610bea90611b14565b8015610c355780601f10610c0c57610100808354040283529160200191610c35565b820191905f5260205f20905b815481529060010190602001808311610c1857829003601f168201915b505050505081565b5f600b54905090565b5f8054906101000a900473ffffffffffffffffffffffffffffffffffffffff1673ffffffffffffffffffffffffffffffffffffffff163373ffffffffffffffffffffffffffffffffffffffff1614610c9c575f80fd5b5f5b6005811015610d39576001838260058110610cbc57610cbb611a11565b5b602002015160ff1610158015610ced57506032838260058110610ce257610ce1611a11565b5b602002015160ff1611155b610d2c576040517f08c379a0000000000000000000000000000000000000000000000000000000008152600401610d2390611bb4565b60405180910390fd5b8080600101915050610c9e565b505f5b6002811015610dd7576001828260028110610d5a57610d59611a11565b5b602002015160ff1610158015610d8b5750600c828260028110610d8057610d7f611a11565b5b602002015160ff1611155b610dca576040517f08c379a0000000000000000000000000000000000000000000000000000000008152600401610dc190611c42565b60405180910390fd5b8080600101915050610d3c565b505f6040518060400160405280848152602001838152509050600581908060018154018082558091505060019003905f5260205f2090600202015f909190919091505f820151815f01906005610e2e929190610e72565b50602082015181600101906002610e46929190610f09565b505050505050565b600a5481565b5080545f8255905f5260205f2090810190610e6f9190610fa0565b50565b826005601f01602090048101928215610ef8579160200282015f5b83821115610eca57835183826101000a81548160ff021916908360ff16021790555092602001926001016020815f01049283019260010302610e8d565b8015610ef65782816101000a81549060ff02191690556001016020815f01049283019260010302610eca565b505b509050610f059190610fa0565b5090565b826002601f01602090048101928215610f8f579160200282015f5b83821115610f6157835183826101000a81548160ff021916908360ff16021790555092602001926001016020815f01049283019260010302610f24565b8015610f8d5782816101000a81549060ff02191690556001016020815f01049283019260010302610f61565b505b509050610f9c9190610fa0565b5090565b5b80821115610fb7575f815f905550600101610fa1565b5090565b5f819050919050565b610fcd81610fbb565b82525050565b5f602082019050610fe65f830184610fc4565b92915050565b5f604051905090565b5f80fd5b61100281610fbb565b811461100c575f80fd5b50565b5f8135905061101d81610ff9565b92915050565b5f6020828403121561103857611037610ff5565b5b5f6110458482850161100f565b91505092915050565b5f73ffffffffffffffffffffffffffffffffffffffff82169050919050565b5f6110778261104e565b9050919050565b6110878161106d565b8114611091575f80fd5b50565b5f813590506110a28161107e565b92915050565b5f602082840312156110bd576110bc610ff5565b5b5f6110ca84828501611094565b91505092915050565b5f8115159050919050565b6110e7816110d3565b82525050565b5f6020820190506111005f8301846110de565b92915050565b61110f8161106d565b82525050565b5f6020820190506111285f830184611106565b92915050565b5f81519050919050565b5f82825260208201905092915050565b5f5b8381101561116557808201518184015260208101905061114a565b5f8484015250505050565b5f601f19601f8301169050919050565b5f61118a8261112e565b6111948185611138565b93506111a4818560208601611148565b6111ad81611170565b840191505092915050565b5f6020820190508181035f8301526111d08184611180565b905092915050565b5f80fd5b7f4e487b71000000000000000000000000000000000000000000000000000000005f52604160045260245ffd5b61121282611170565b810181811067ffffffffffffffff82111715611231576112306111dc565b5b80604052505050565b5f611243610fec565b905061124f8282611209565b919050565b5f67ffffffffffffffff82111561126e5761126d6111dc565b5b602082029050919050565b5f80fd5b5f60ff82169050919050565b6112928161127d565b811461129c575f80fd5b50565b5f813590506112ad81611289565b92915050565b5f6112c56112c084611254565b61123a565b905080602084028301858111156112df576112de611279565b5b835b8181101561130857806112f4888261129f565b8452602084019350506020810190506112e1565b5050509392505050565b5f82601f830112611326576113256111d8565b5b60056113338482856112b3565b91505092915050565b5f67ffffffffffffffff821115611356576113556111dc565b5b602082029050919050565b5f61137361136e8461133c565b61123a565b9050806020840283018581111561138d5761138c611279565b5b835b818110156113b657806113a2888261129f565b84526020840193505060208101905061138f565b5050509392505050565b5f82601f8301126113d4576113d36111d8565b5b60026113e1848285611361565b91505092915050565b5f8060e08385031215611400576113ff610ff5565b5b5f61140d85828601611312565b92505060a061141e858286016113c0565b9150509250929050565b7f45696e7a61686c756e6773626574726167206d7573732067726f6573736572205f8201527f616c732030207365696e00000000000000000000000000000000000000000000602082015250565b5f611482602a83611138565b915061148d82611428565b604082019050919050565b5f6020820190508181035f8301526114af81611476565b9050919050565b7f4e487b71000000000000000000000000000000000000000000000000000000005f52601260045260245ffd5b7f4e487b71000000000000000000000000000000000000000000000000000000005f52601160045260245ffd5b5f61151a82610fbb565b915061152583610fbb565b925082611535576115346114b6565b5b828204905092915050565b7f5a7520676572696e6765722045696e7a61686c756e67736265747261670000005f82015250565b5f611574601d83611138565b915061157f82611540565b602082019050919050565b5f6020820190508181035f8301526115a181611568565b9050919050565b7f4265726569747320616c73204d6974737069656c6572207265676973747269655f8201527f7274000000000000000000000000000000000000000000000000000000000000602082015250565b5f611602602283611138565b915061160d826115a8565b604082019050919050565b5f6020820190508181035f83015261162f816115f6565b9050919050565b7f4d6178696d616c65205465696c6e65686d65727a61686c2065727265696368745f82015250565b5f61166a602083611138565b915061167582611636565b602082019050919050565b5f6020820190508181035f8301526116978161165e565b9050919050565b5f6116a882610fbb565b91506116b383610fbb565b92508282039050818111156116cb576116ca6114e3565b5b92915050565b5f6116db82610fbb565b91507fffffffffffffffffffffffffffffffffffffffffffffffffffffffffffffffff820361170d5761170c6114e3565b5b600182019050919050565b7f457320676962742062657265697473204d6974737069656c65722e2041656e645f8201527f6572756e672064657220416e7a61686c20616e204d6974737069656c65726e2060208201527f6e69636874206d656872206d6f65676c6963682e000000000000000000000000604082015250565b5f611798605483611138565b91506117a382611718565b606082019050919050565b5f6020820190508181035f8301526117c58161178c565b9050919050565b7f457320676962742062657265697473204d6974737069656c65722e20507265695f8201527f7361656e646572756e67206e69636874206d656872206d6f65676c6963682e00602082015250565b5f611826603f83611138565b9150611831826117cc565b604082019050919050565b5f6020820190508181035f8301526118538161181a565b9050919050565b7f4b65696e65204d6974737069656c657220766f7268616e64656e0000000000005f82015250565b5f61188e601a83611138565b91506118998261185a565b602082019050919050565b5f6020820190508181035f8301526118bb81611882565b9050919050565b7f4e6963687420616c6c65204d6974737069656c657220686162656e207465696c5f8201527f67656e6f6d6d656e000000000000000000000000000000000000000000000000602082015250565b5f61191c602883611138565b9150611927826118c2565b604082019050919050565b5f6020820190508181035f83015261194981611910565b9050919050565b7f4e696368742067656e756567656e6420477574686162656e20667565722041755f8201527f737a61686c756e67000000000000000000000000000000000000000000000000602082015250565b5f6119aa602883611138565b91506119b582611950565b604082019050919050565b5f6020820190508181035f8301526119d78161199e565b9050919050565b5f6119e882610fbb565b91506119f383610fbb565b9250828201905080821115611a0b57611a0a6114e3565b5b92915050565b7f4e487b71000000000000000000000000000000000000000000000000000000005f52603260045260245ffd5b5f81905092915050565b50565b5f611a565f83611a3e565b9150611a6182611a48565b5f82019050919050565b5f611a7582611a4b565b9150819050919050565b7f4175737a61686c756e67206665686c67657363686c6167656e000000000000005f82015250565b5f611ab3601983611138565b9150611abe82611a7f565b602082019050919050565b5f6020820190508181035f830152611ae081611aa7565b9050919050565b7f4e487b71000000000000000000000000000000000000000000000000000000005f52602260045260245ffd5b5f6002820490506001821680611b2b57607f821691505b602082108103611b3e57611b3d611ae7565b5b50919050565b7f48617570747a61686c2061757373657268616c622064657320426572656963685f8201527f7300000000000000000000000000000000000000000000000000000000000000602082015250565b5f611b9e602183611138565b9150611ba982611b44565b604082019050919050565b5f6020820190508181035f830152611bcb81611b92565b9050919050565b7f5a757361747a7a61686c2061757373657268616c6220646573204265726569635f8201527f6873000000000000000000000000000000000000000000000000000000000000602082015250565b5f611c2c602283611138565b9150611c3782611bd2565b604082019050919050565b5f6020820190508181035f830152611c5981611c20565b905091905056fea26469706673582212206b7c55759b1b4eb9f9655687736684259d423d51c42f4045b60792b23e0807bd64736f6c63430008170033a2646970667358221220ac6dd8660c708f8c1c9b07b4f8d3e340a0d22497d9288d36b73de8ea3120b5cd64736f6c63430008170033","opcodes":"PUSH1 0x80 PUSH1 0x40 MSTORE CALLVALUE DUP1 ISZERO PUSH2 0xF JUMPI PUSH0 DUP1 REVERT JUMPDEST POP PUSH2 0x300C DUP1 PUSH2 0x1D PUSH0 CODECOPY PUSH0 RETURN INVALID PUSH1 0x80 PUSH1 0x40 MSTORE CALLVALUE DUP1 ISZERO PUSH3 0x10 JUMPI PUSH0 DUP1 REVERT JUMPDEST POP PUSH1 0x4 CALLDATASIZE LT PUSH3 0x5C JUMPI PUSH0 CALLDATALOAD PUSH1 0xE0 SHR DUP1 PUSH4 0x535DA87C EQ PUSH3 0x60 JUMPI DUP1 PUSH4 0x95097FE1 EQ PUSH3 0x82 JUMPI DUP1 PUSH4 0xAD6EB6D9 EQ PUSH3 0xB8 JUMPI DUP1 PUSH4 0xFB670056 EQ PUSH3 0xEE JUMPI DUP1 PUSH4 0xFBC7F11E EQ PUSH3 0x124 JUMPI JUMPDEST PUSH0 DUP1 REVERT JUMPDEST PUSH3 0x6A PUSH3 0x144 JUMP JUMPDEST PUSH1 0x40 MLOAD PUSH3 0x79 SWAP2 SWAP1 PUSH3 0x53F JUMP JUMPDEST PUSH1 0x40 MLOAD DUP1 SWAP2 SUB SWAP1 RETURN JUMPDEST PUSH3 0xA0 PUSH1 0x4 DUP1 CALLDATASIZE SUB DUP2 ADD SWAP1 PUSH3 0x9A SWAP2 SWAP1 PUSH3 0x6CA JUMP JUMPDEST PUSH3 0x1D0 JUMP JUMPDEST PUSH1 0x40 MLOAD PUSH3 0xAF SWAP2 SWAP1 PUSH3 0x73D JUMP JUMPDEST PUSH1 0x40 MLOAD DUP1 SWAP2 SUB SWAP1 RETURN JUMPDEST PUSH3 0xD6 PUSH1 0x4 DUP1 CALLDATASIZE SUB DUP2 ADD SWAP1 PUSH3 0xD0 SWAP2 SWAP1 PUSH3 0x790 JUMP JUMPDEST PUSH3 0x218 JUMP JUMPDEST PUSH1 0x40 MLOAD PUSH3 0xE5 SWAP2 SWAP1 PUSH3 0x844 JUMP JUMPDEST PUSH1 0x40 MLOAD DUP1 SWAP2 SUB SWAP1 RETURN JUMPDEST PUSH3 0x10C PUSH1 0x4 DUP1 CALLDATASIZE SUB DUP2 ADD SWAP1 PUSH3 0x106 SWAP2 SWAP1 PUSH3 0x790 JUMP JUMPDEST PUSH3 0x2C7 JUMP JUMPDEST PUSH1 0x40 MLOAD PUSH3 0x11B SWAP2 SWAP1 PUSH3 0x877 JUMP JUMPDEST PUSH1 0x40 MLOAD DUP1 SWAP2 SUB SWAP1 RETURN JUMPDEST PUSH3 0x142 PUSH1 0x4 DUP1 CALLDATASIZE SUB DUP2 ADD SWAP1 PUSH3 0x13C SWAP2 SWAP1 PUSH3 0x892 JUMP JUMPDEST PUSH3 0x302 JUMP JUMPDEST STOP JUMPDEST PUSH1 0x60 PUSH0 DUP1 SLOAD DUP1 PUSH1 0x20 MUL PUSH1 0x20 ADD PUSH1 0x40 MLOAD SWAP1 DUP2 ADD PUSH1 0x40 MSTORE DUP1 SWAP3 SWAP2 SWAP1 DUP2 DUP2 MSTORE PUSH1 0x20 ADD DUP3 DUP1 SLOAD DUP1 ISZERO PUSH3 0x1C6 JUMPI PUSH1 0x20 MUL DUP3 ADD SWAP2 SWAP1 PUSH0 MSTORE PUSH1 0x20 PUSH0 KECCAK256 SWAP1 JUMPDEST DUP2 PUSH0 SWAP1 SLOAD SWAP1 PUSH2 0x100 EXP SWAP1 DIV PUSH20 0xFFFFFFFFFFFFFFFFFFFFFFFFFFFFFFFFFFFFFFFF AND PUSH20 0xFFFFFFFFFFFFFFFFFFFFFFFFFFFFFFFFFFFFFFFF AND DUP2 MSTORE PUSH1 0x20 ADD SWAP1 PUSH1 0x1 ADD SWAP1 DUP1 DUP4 GT PUSH3 0x17C JUMPI JUMPDEST POP POP POP POP POP SWAP1 POP SWAP1 JUMP JUMPDEST PUSH1 0x2 DUP2 DUP1 MLOAD PUSH1 0x20 DUP2 ADD DUP3 ADD DUP1 MLOAD DUP5 DUP3 MSTORE PUSH1 0x20 DUP4 ADD PUSH1 0x20 DUP6 ADD KECCAK256 DUP2 DUP4 MSTORE DUP1 SWAP6 POP POP POP POP POP POP PUSH0 SWAP2 POP SLOAD SWAP1 PUSH2 0x100 EXP SWAP1 DIV PUSH20 0xFFFFFFFFFFFFFFFFFFFFFFFFFFFFFFFFFFFFFFFF AND DUP2 JUMP JUMPDEST PUSH1 0x1 DUP2 DUP2 SLOAD DUP2 LT PUSH3 0x228 JUMPI PUSH0 DUP1 REVERT JUMPDEST SWAP1 PUSH0 MSTORE PUSH1 0x20 PUSH0 KECCAK256 ADD PUSH0 SWAP2 POP SWAP1 POP DUP1 SLOAD PUSH3 0x242 SWAP1 PUSH3 0x937 JUMP JUMPDEST DUP1 PUSH1 0x1F ADD PUSH1 0x20 DUP1 SWAP2 DIV MUL PUSH1 0x20 ADD PUSH1 0x40 MLOAD SWAP1 DUP2 ADD PUSH1 0x40 MSTORE DUP1 SWAP3 SWAP2 SWAP1 DUP2 DUP2 MSTORE PUSH1 0x20 ADD DUP3 DUP1 SLOAD PUSH3 0x270 SWAP1 PUSH3 0x937 JUMP JUMPDEST DUP1 ISZERO PUSH3 0x2BF JUMPI DUP1 PUSH1 0x1F LT PUSH3 0x295 JUMPI PUSH2 0x100 DUP1 DUP4 SLOAD DIV MUL DUP4 MSTORE SWAP2 PUSH1 0x20 ADD SWAP2 PUSH3 0x2BF JUMP JUMPDEST DUP3 ADD SWAP2 SWAP1 PUSH0 MSTORE PUSH1 0x20 PUSH0 KECCAK256 SWAP1 JUMPDEST DUP2 SLOAD DUP2 MSTORE SWAP1 PUSH1 0x1 ADD SWAP1 PUSH1 0x20 ADD DUP1 DUP4 GT PUSH3 0x2A1 JUMPI DUP3 SWAP1 SUB PUSH1 0x1F AND DUP3 ADD SWAP2 JUMPDEST POP POP POP POP POP DUP2 JUMP JUMPDEST PUSH0 DUP2 DUP2 SLOAD DUP2 LT PUSH3 0x2D6 JUMPI PUSH0 DUP1 REVERT JUMPDEST SWAP1 PUSH0 MSTORE PUSH1 0x20 PUSH0 KECCAK256 ADD PUSH0 SWAP2 POP SLOAD SWAP1 PUSH2 0x100 EXP SWAP1 DIV PUSH20 0xFFFFFFFFFFFFFFFFFFFFFFFFFFFFFFFFFFFFFFFF AND DUP2 JUMP JUMPDEST PUSH0 DUP4 CALLER DUP5 DUP5 PUSH1 0x40 MLOAD PUSH3 0x315 SWAP1 PUSH3 0x438 JUMP JUMPDEST PUSH3 0x324 SWAP5 SWAP4 SWAP3 SWAP2 SWAP1 PUSH3 0x97C JUMP JUMPDEST PUSH1 0x40 MLOAD DUP1 SWAP2 SUB SWAP1 PUSH0 CREATE DUP1 ISZERO DUP1 ISZERO PUSH3 0x33E JUMPI RETURNDATASIZE PUSH0 DUP1 RETURNDATACOPY RETURNDATASIZE PUSH0 REVERT JUMPDEST POP SWAP1 POP PUSH0 DUP2 SWAP1 DUP1 PUSH1 0x1 DUP2 SLOAD ADD DUP1 DUP3 SSTORE DUP1 SWAP2 POP POP PUSH1 0x1 SWAP1 SUB SWAP1 PUSH0 MSTORE PUSH1 0x20 PUSH0 KECCAK256 ADD PUSH0 SWAP1 SWAP2 SWAP1 SWAP2 SWAP1 SWAP2 PUSH2 0x100 EXP DUP2 SLOAD DUP2 PUSH20 0xFFFFFFFFFFFFFFFFFFFFFFFFFFFFFFFFFFFFFFFF MUL NOT AND SWAP1 DUP4 PUSH20 0xFFFFFFFFFFFFFFFFFFFFFFFFFFFFFFFFFFFFFFFF AND MUL OR SWAP1 SSTORE POP PUSH1 0x1 DUP5 SWAP1 DUP1 PUSH1 0x1 DUP2 SLOAD ADD DUP1 DUP3 SSTORE DUP1 SWAP2 POP POP PUSH1 0x1 SWAP1 SUB SWAP1 PUSH0 MSTORE PUSH1 0x20 PUSH0 KECCAK256 ADD PUSH0 SWAP1 SWAP2 SWAP1 SWAP2 SWAP1 SWAP2 POP SWAP1 DUP2 PUSH3 0x3D3 SWAP2 SWAP1 PUSH3 0xB91 JUMP JUMPDEST POP DUP1 PUSH1 0x2 DUP6 PUSH1 0x40 MLOAD PUSH3 0x3E7 SWAP2 SWAP1 PUSH3 0xCB5 JUMP JUMPDEST SWAP1 DUP2 MSTORE PUSH1 0x20 ADD PUSH1 0x40 MLOAD DUP1 SWAP2 SUB SWAP1 KECCAK256 PUSH0 PUSH2 0x100 EXP DUP2 SLOAD DUP2 PUSH20 0xFFFFFFFFFFFFFFFFFFFFFFFFFFFFFFFFFFFFFFFF MUL NOT AND SWAP1 DUP4 PUSH20 0xFFFFFFFFFFFFFFFFFFFFFFFFFFFFFFFFFFFFFFFF AND MUL OR SWAP1 SSTORE POP POP POP POP POP JUMP JUMPDEST PUSH2 0x2309 DUP1 PUSH3 0xCCE DUP4 CODECOPY ADD SWAP1 JUMP JUMPDEST PUSH0 DUP2 MLOAD SWAP1 POP SWAP2 SWAP1 POP JUMP JUMPDEST PUSH0 DUP3 DUP3 MSTORE PUSH1 0x20 DUP3 ADD SWAP1 POP SWAP3 SWAP2 POP POP JUMP JUMPDEST PUSH0 DUP2 SWAP1 POP PUSH1 0x20 DUP3 ADD SWAP1 POP SWAP2 SWAP1 POP JUMP JUMPDEST PUSH0 PUSH20 0xFFFFFFFFFFFFFFFFFFFFFFFFFFFFFFFFFFFFFFFF DUP3 AND SWAP1 POP SWAP2 SWAP1 POP JUMP JUMPDEST PUSH0 PUSH3 0x49A DUP3 PUSH3 0x46F JUMP JUMPDEST SWAP1 POP SWAP2 SWAP1 POP JUMP JUMPDEST PUSH3 0x4AC DUP2 PUSH3 0x48E JUMP JUMPDEST DUP3 MSTORE POP POP JUMP JUMPDEST PUSH0 PUSH3 0x4BF DUP4 DUP4 PUSH3 0x4A1 JUMP JUMPDEST PUSH1 0x20 DUP4 ADD SWAP1 POP SWAP3 SWAP2 POP POP JUMP JUMPDEST PUSH0 PUSH1 0x20 DUP3 ADD SWAP1 POP SWAP2 SWAP1 POP JUMP JUMPDEST PUSH0 PUSH3 0x4E3 DUP3 PUSH3 0x446 JUMP JUMPDEST PUSH3 0x4EF DUP2 DUP6 PUSH3 0x450 JUMP JUMPDEST SWAP4 POP PUSH3 0x4FC DUP4 PUSH3 0x460 JUMP JUMPDEST DUP1 PUSH0 JUMPDEST DUP4 DUP2 LT ISZERO PUSH3 0x532 JUMPI DUP2 MLOAD PUSH3 0x516 DUP9 DUP3 PUSH3 0x4B2 JUMP JUMPDEST SWAP8 POP PUSH3 0x523 DUP4 PUSH3 0x4CB JUMP JUMPDEST SWAP3 POP POP PUSH1 0x1 DUP2 ADD SWAP1 POP PUSH3 0x4FF JUMP JUMPDEST POP DUP6 SWAP4 POP POP POP POP SWAP3 SWAP2 POP POP JUMP JUMPDEST PUSH0 PUSH1 0x20 DUP3 ADD SWAP1 POP DUP2 DUP2 SUB PUSH0 DUP4 ADD MSTORE PUSH3 0x559 DUP2 DUP5 PUSH3 0x4D7 JUMP JUMPDEST SWAP1 POP SWAP3 SWAP2 POP POP JUMP JUMPDEST PUSH0 PUSH1 0x40 MLOAD SWAP1 POP SWAP1 JUMP JUMPDEST PUSH0 DUP1 REVERT JUMPDEST PUSH0 DUP1 REVERT JUMPDEST PUSH0 DUP1 REVERT JUMPDEST PUSH0 DUP1 REVERT JUMPDEST PUSH0 PUSH1 0x1F NOT PUSH1 0x1F DUP4 ADD AND SWAP1 POP SWAP2 SWAP1 POP JUMP JUMPDEST PUSH32 0x4E487B7100000000000000000000000000000000000000000000000000000000 PUSH0 MSTORE PUSH1 0x41 PUSH1 0x4 MSTORE PUSH1 0x24 PUSH0 REVERT JUMPDEST PUSH3 0x5C2 DUP3 PUSH3 0x57A JUMP JUMPDEST DUP2 ADD DUP2 DUP2 LT PUSH8 0xFFFFFFFFFFFFFFFF DUP3 GT OR ISZERO PUSH3 0x5E4 JUMPI PUSH3 0x5E3 PUSH3 0x58A JUMP JUMPDEST JUMPDEST DUP1 PUSH1 0x40 MSTORE POP POP POP JUMP JUMPDEST PUSH0 PUSH3 0x5F8 PUSH3 0x561 JUMP JUMPDEST SWAP1 POP PUSH3 0x606 DUP3 DUP3 PUSH3 0x5B7 JUMP JUMPDEST SWAP2 SWAP1 POP JUMP JUMPDEST PUSH0 PUSH8 0xFFFFFFFFFFFFFFFF DUP3 GT ISZERO PUSH3 0x628 JUMPI PUSH3 0x627 PUSH3 0x58A JUMP JUMPDEST JUMPDEST PUSH3 0x633 DUP3 PUSH3 0x57A JUMP JUMPDEST SWAP1 POP PUSH1 0x20 DUP2 ADD SWAP1 POP SWAP2 SWAP1 POP JUMP JUMPDEST DUP3 DUP2 DUP4 CALLDATACOPY PUSH0 DUP4 DUP4 ADD MSTORE POP POP POP JUMP JUMPDEST PUSH0 PUSH3 0x664 PUSH3 0x65E DUP5 PUSH3 0x60B JUMP JUMPDEST PUSH3 0x5ED JUMP JUMPDEST SWAP1 POP DUP3 DUP2 MSTORE PUSH1 0x20 DUP2 ADD DUP5 DUP5 DUP5 ADD GT ISZERO PUSH3 0x683 JUMPI PUSH3 0x682 PUSH3 0x576 JUMP JUMPDEST JUMPDEST PUSH3 0x690 DUP5 DUP3 DUP6 PUSH3 0x640 JUMP JUMPDEST POP SWAP4 SWAP3 POP POP POP JUMP JUMPDEST PUSH0 DUP3 PUSH1 0x1F DUP4 ADD SLT PUSH3 0x6AF JUMPI PUSH3 0x6AE PUSH3 0x572 JUMP JUMPDEST JUMPDEST DUP2 CALLDATALOAD PUSH3 0x6C1 DUP5 DUP3 PUSH1 0x20 DUP7 ADD PUSH3 0x64E JUMP JUMPDEST SWAP2 POP POP SWAP3 SWAP2 POP POP JUMP JUMPDEST PUSH0 PUSH1 0x20 DUP3 DUP5 SUB SLT ISZERO PUSH3 0x6E2 JUMPI PUSH3 0x6E1 PUSH3 0x56A JUMP JUMPDEST JUMPDEST PUSH0 DUP3 ADD CALLDATALOAD PUSH8 0xFFFFFFFFFFFFFFFF DUP2 GT ISZERO PUSH3 0x702 JUMPI PUSH3 0x701 PUSH3 0x56E JUMP JUMPDEST JUMPDEST PUSH3 0x710 DUP5 DUP3 DUP6 ADD PUSH3 0x698 JUMP JUMPDEST SWAP2 POP POP SWAP3 SWAP2 POP POP JUMP JUMPDEST PUSH0 PUSH3 0x725 DUP3 PUSH3 0x46F JUMP JUMPDEST SWAP1 POP SWAP2 SWAP1 POP JUMP JUMPDEST PUSH3 0x737 DUP2 PUSH3 0x719 JUMP JUMPDEST DUP3 MSTORE POP POP JUMP JUMPDEST PUSH0 PUSH1 0x20 DUP3 ADD SWAP1 POP PUSH3 0x752 PUSH0 DUP4 ADD DUP5 PUSH3 0x72C JUMP JUMPDEST SWAP3 SWAP2 POP POP JUMP JUMPDEST PUSH0 DUP2 SWAP1 POP SWAP2 SWAP1 POP JUMP JUMPDEST PUSH3 0x76C DUP2 PUSH3 0x758 JUMP JUMPDEST DUP2 EQ PUSH3 0x777 JUMPI PUSH0 DUP1 REVERT JUMPDEST POP JUMP JUMPDEST PUSH0 DUP2 CALLDATALOAD SWAP1 POP PUSH3 0x78A DUP2 PUSH3 0x761 JUMP JUMPDEST SWAP3 SWAP2 POP POP JUMP JUMPDEST PUSH0 PUSH1 0x20 DUP3 DUP5 SUB SLT ISZERO PUSH3 0x7A8 JUMPI PUSH3 0x7A7 PUSH3 0x56A JUMP JUMPDEST JUMPDEST PUSH0 PUSH3 0x7B7 DUP5 DUP3 DUP6 ADD PUSH3 0x77A JUMP JUMPDEST SWAP2 POP POP SWAP3 SWAP2 POP POP JUMP JUMPDEST PUSH0 DUP2 MLOAD SWAP1 POP SWAP2 SWAP1 POP JUMP JUMPDEST PUSH0 DUP3 DUP3 MSTORE PUSH1 0x20 DUP3 ADD SWAP1 POP SWAP3 SWAP2 POP POP JUMP JUMPDEST PUSH0 JUMPDEST DUP4 DUP2 LT ISZERO PUSH3 0x7F9 JUMPI DUP1 DUP3 ADD MLOAD DUP2 DUP5 ADD MSTORE PUSH1 0x20 DUP2 ADD SWAP1 POP PUSH3 0x7DC JUMP JUMPDEST PUSH0 DUP5 DUP5 ADD MSTORE POP POP POP POP JUMP JUMPDEST PUSH0 PUSH3 0x810 DUP3 PUSH3 0x7C0 JUMP JUMPDEST PUSH3 0x81C DUP2 DUP6 PUSH3 0x7CA JUMP JUMPDEST SWAP4 POP PUSH3 0x82E DUP2 DUP6 PUSH1 0x20 DUP7 ADD PUSH3 0x7DA JUMP JUMPDEST PUSH3 0x839 DUP2 PUSH3 0x57A JUMP JUMPDEST DUP5 ADD SWAP2 POP POP SWAP3 SWAP2 POP POP JUMP JUMPDEST PUSH0 PUSH1 0x20 DUP3 ADD SWAP1 POP DUP2 DUP2 SUB PUSH0 DUP4 ADD MSTORE PUSH3 0x85E DUP2 DUP5 PUSH3 0x804 JUMP JUMPDEST SWAP1 POP SWAP3 SWAP2 POP POP JUMP JUMPDEST PUSH3 0x871 DUP2 PUSH3 0x48E JUMP JUMPDEST DUP3 MSTORE POP POP JUMP JUMPDEST PUSH0 PUSH1 0x20 DUP3 ADD SWAP1 POP PUSH3 0x88C PUSH0 DUP4 ADD DUP5 PUSH3 0x866 JUMP JUMPDEST SWAP3 SWAP2 POP POP JUMP JUMPDEST PUSH0 DUP1 PUSH0 PUSH1 0x60 DUP5 DUP7 SUB SLT ISZERO PUSH3 0x8AC JUMPI PUSH3 0x8AB PUSH3 0x56A JUMP JUMPDEST JUMPDEST PUSH0 DUP5 ADD CALLDATALOAD PUSH8 0xFFFFFFFFFFFFFFFF DUP2 GT ISZERO PUSH3 0x8CC JUMPI PUSH3 0x8CB PUSH3 0x56E JUMP JUMPDEST JUMPDEST PUSH3 0x8DA DUP7 DUP3 DUP8 ADD PUSH3 0x698 JUMP JUMPDEST SWAP4 POP POP PUSH1 0x20 PUSH3 0x8ED DUP7 DUP3 DUP8 ADD PUSH3 0x77A JUMP JUMPDEST SWAP3 POP POP PUSH1 0x40 PUSH3 0x900 DUP7 DUP3 DUP8 ADD PUSH3 0x77A JUMP JUMPDEST SWAP2 POP POP SWAP3 POP SWAP3 POP SWAP3 JUMP JUMPDEST PUSH32 0x4E487B7100000000000000000000000000000000000000000000000000000000 PUSH0 MSTORE PUSH1 0x22 PUSH1 0x4 MSTORE PUSH1 0x24 PUSH0 REVERT JUMPDEST PUSH0 PUSH1 0x2 DUP3 DIV SWAP1 POP PUSH1 0x1 DUP3 AND DUP1 PUSH3 0x94F JUMPI PUSH1 0x7F DUP3 AND SWAP2 POP JUMPDEST PUSH1 0x20 DUP3 LT DUP2 SUB PUSH3 0x965 JUMPI PUSH3 0x964 PUSH3 0x90A JUMP JUMPDEST JUMPDEST POP SWAP2 SWAP1 POP JUMP JUMPDEST PUSH3 0x976 DUP2 PUSH3 0x758 JUMP JUMPDEST DUP3 MSTORE POP POP JUMP JUMPDEST PUSH0 PUSH1 0x80 DUP3 ADD SWAP1 POP DUP2 DUP2 SUB PUSH0 DUP4 ADD MSTORE PUSH3 0x996 DUP2 DUP8 PUSH3 0x804 JUMP JUMPDEST SWAP1 POP PUSH3 0x9A7 PUSH1 0x20 DUP4 ADD DUP7 PUSH3 0x72C JUMP JUMPDEST PUSH3 0x9B6 PUSH1 0x40 DUP4 ADD DUP6 PUSH3 0x96B JUMP JUMPDEST PUSH3 0x9C5 PUSH1 0x60 DUP4 ADD DUP5 PUSH3 0x96B JUMP JUMPDEST SWAP6 SWAP5 POP POP POP POP POP JUMP JUMPDEST PUSH0 DUP2 SWAP1 POP DUP2 PUSH0 MSTORE PUSH1 0x20 PUSH0 KECCAK256 SWAP1 POP SWAP2 SWAP1 POP JUMP JUMPDEST PUSH0 PUSH1 0x20 PUSH1 0x1F DUP4 ADD DIV SWAP1 POP SWAP2 SWAP1 POP JUMP JUMPDEST PUSH0 DUP3 DUP3 SHL SWAP1 POP SWAP3 SWAP2 POP POP JUMP JUMPDEST PUSH0 PUSH1 0x8 DUP4 MUL PUSH3 0xA2C PUSH32 0xFFFFFFFFFFFFFFFFFFFFFFFFFFFFFFFFFFFFFFFFFFFFFFFFFFFFFFFFFFFFFFFF DUP3 PUSH3 0x9EF JUMP JUMPDEST PUSH3 0xA38 DUP7 DUP4 PUSH3 0x9EF JUMP JUMPDEST SWAP6 POP DUP1 NOT DUP5 AND SWAP4 POP DUP1 DUP7 AND DUP5 OR SWAP3 POP POP POP SWAP4 SWAP3 POP POP POP JUMP JUMPDEST PUSH0 DUP2 SWAP1 POP SWAP2 SWAP1 POP JUMP JUMPDEST PUSH0 PUSH3 0xA79 PUSH3 0xA73 PUSH3 0xA6D DUP5 PUSH3 0x758 JUMP JUMPDEST PUSH3 0xA50 JUMP JUMPDEST PUSH3 0x758 JUMP JUMPDEST SWAP1 POP SWAP2 SWAP1 POP JUMP JUMPDEST PUSH0 DUP2 SWAP1 POP SWAP2 SWAP1 POP JUMP JUMPDEST PUSH3 0xA94 DUP4 PUSH3 0xA59 JUMP JUMPDEST PUSH3 0xAAC PUSH3 0xAA3 DUP3 PUSH3 0xA80 JUMP JUMPDEST DUP5 DUP5 SLOAD PUSH3 0x9FB JUMP JUMPDEST DUP3 SSTORE POP POP POP POP JUMP JUMPDEST PUSH0 SWAP1 JUMP JUMPDEST PUSH3 0xAC2 PUSH3 0xAB4 JUMP JUMPDEST PUSH3 0xACF DUP2 DUP5 DUP5 PUSH3 0xA89 JUMP JUMPDEST POP POP POP JUMP JUMPDEST JUMPDEST DUP2 DUP2 LT ISZERO PUSH3 0xAF6 JUMPI PUSH3 0xAEA PUSH0 DUP3 PUSH3 0xAB8 JUMP JUMPDEST PUSH1 0x1 DUP2 ADD SWAP1 POP PUSH3 0xAD5 JUMP JUMPDEST POP POP JUMP JUMPDEST PUSH1 0x1F DUP3 GT ISZERO PUSH3 0xB45 JUMPI PUSH3 0xB0F DUP2 PUSH3 0x9CE JUMP JUMPDEST PUSH3 0xB1A DUP5 PUSH3 0x9E0 JUMP JUMPDEST DUP2 ADD PUSH1 0x20 DUP6 LT ISZERO PUSH3 0xB2A JUMPI DUP2 SWAP1 POP JUMPDEST PUSH3 0xB42 PUSH3 0xB39 DUP6 PUSH3 0x9E0 JUMP JUMPDEST DUP4 ADD DUP3 PUSH3 0xAD4 JUMP JUMPDEST POP POP JUMPDEST POP POP POP JUMP JUMPDEST PUSH0 DUP3 DUP3 SHR SWAP1 POP SWAP3 SWAP2 POP POP JUMP JUMPDEST PUSH0 PUSH3 0xB67 PUSH0 NOT DUP5 PUSH1 0x8 MUL PUSH3 0xB4A JUMP JUMPDEST NOT DUP1 DUP4 AND SWAP2 POP POP SWAP3 SWAP2 POP POP JUMP JUMPDEST PUSH0 PUSH3 0xB81 DUP4 DUP4 PUSH3 0xB56 JUMP JUMPDEST SWAP2 POP DUP3 PUSH1 0x2 MUL DUP3 OR SWAP1 POP SWAP3 SWAP2 POP POP JUMP JUMPDEST PUSH3 0xB9C DUP3 PUSH3 0x7C0 JUMP JUMPDEST PUSH8 0xFFFFFFFFFFFFFFFF DUP2 GT ISZERO PUSH3 0xBB8 JUMPI PUSH3 0xBB7 PUSH3 0x58A JUMP JUMPDEST JUMPDEST PUSH3 0xBC4 DUP3 SLOAD PUSH3 0x937 JUMP JUMPDEST PUSH3 0xBD1 DUP3 DUP3 DUP6 PUSH3 0xAFA JUMP JUMPDEST PUSH0 PUSH1 0x20 SWAP1 POP PUSH1 0x1F DUP4 GT PUSH1 0x1 DUP2 EQ PUSH3 0xC07 JUMPI PUSH0 DUP5 ISZERO PUSH3 0xBF2 JUMPI DUP3 DUP8 ADD MLOAD SWAP1 POP JUMPDEST PUSH3 0xBFE DUP6 DUP3 PUSH3 0xB74 JUMP JUMPDEST DUP7 SSTORE POP PUSH3 0xC6D JUMP JUMPDEST PUSH1 0x1F NOT DUP5 AND PUSH3 0xC17 DUP7 PUSH3 0x9CE JUMP JUMPDEST PUSH0 JUMPDEST DUP3 DUP2 LT ISZERO PUSH3 0xC40 JUMPI DUP5 DUP10 ADD MLOAD DUP3 SSTORE PUSH1 0x1 DUP3 ADD SWAP2 POP PUSH1 0x20 DUP6 ADD SWAP5 POP PUSH1 0x20 DUP2 ADD SWAP1 POP PUSH3 0xC19 JUMP JUMPDEST DUP7 DUP4 LT ISZERO PUSH3 0xC60 JUMPI DUP5 DUP10 ADD MLOAD PUSH3 0xC5C PUSH1 0x1F DUP10 AND DUP3 PUSH3 0xB56 JUMP JUMPDEST DUP4 SSTORE POP JUMPDEST PUSH1 0x1 PUSH1 0x2 DUP9 MUL ADD DUP9 SSTORE POP POP POP JUMPDEST POP POP POP POP POP POP JUMP JUMPDEST PUSH0 DUP2 SWAP1 POP SWAP3 SWAP2 POP POP JUMP JUMPDEST PUSH0 PUSH3 0xC8B DUP3 PUSH3 0x7C0 JUMP JUMPDEST PUSH3 0xC97 DUP2 DUP6 PUSH3 0xC75 JUMP JUMPDEST SWAP4 POP PUSH3 0xCA9 DUP2 DUP6 PUSH1 0x20 DUP7 ADD PUSH3 0x7DA JUMP JUMPDEST DUP1 DUP5 ADD SWAP2 POP POP SWAP3 SWAP2 POP POP JUMP JUMPDEST PUSH0 PUSH3 0xCC2 DUP3 DUP5 PUSH3 0xC7F JUMP JUMPDEST SWAP2 POP DUP2 SWAP1 POP SWAP3 SWAP2 POP POP JUMP INVALID PUSH1 0x80 PUSH1 0x40 MSTORE PUSH0 PUSH1 0xA SSTORE PUSH0 PUSH1 0xB SSTORE CALLVALUE DUP1 ISZERO PUSH3 0x18 JUMPI PUSH0 DUP1 REVERT JUMPDEST POP PUSH1 0x40 MLOAD PUSH3 0x2309 CODESIZE SUB DUP1 PUSH3 0x2309 DUP4 CODECOPY DUP2 DUP2 ADD PUSH1 0x40 MSTORE DUP2 ADD SWAP1 PUSH3 0x3E SWAP2 SWAP1 PUSH3 0x2C5 JUMP JUMPDEST DUP3 PUSH0 DUP1 PUSH2 0x100 EXP DUP2 SLOAD DUP2 PUSH20 0xFFFFFFFFFFFFFFFFFFFFFFFFFFFFFFFFFFFFFFFF MUL NOT AND SWAP1 DUP4 PUSH20 0xFFFFFFFFFFFFFFFFFFFFFFFFFFFFFFFFFFFFFFFF AND MUL OR SWAP1 SSTORE POP DUP4 PUSH1 0x1 SWAP1 DUP2 PUSH3 0x8E SWAP2 SWAP1 PUSH3 0x581 JUMP JUMPDEST POP DUP2 PUSH1 0x2 DUP2 SWAP1 SSTORE POP DUP1 PUSH1 0x4 DUP2 SWAP1 SSTORE POP POP POP POP POP PUSH3 0x665 JUMP JUMPDEST PUSH0 PUSH1 0x40 MLOAD SWAP1 POP SWAP1 JUMP JUMPDEST PUSH0 DUP1 REVERT JUMPDEST PUSH0 DUP1 REVERT JUMPDEST PUSH0 DUP1 REVERT JUMPDEST PUSH0 DUP1 REVERT JUMPDEST PUSH0 PUSH1 0x1F NOT PUSH1 0x1F DUP4 ADD AND SWAP1 POP SWAP2 SWAP1 POP JUMP JUMPDEST PUSH32 0x4E487B7100000000000000000000000000000000000000000000000000000000 PUSH0 MSTORE PUSH1 0x41 PUSH1 0x4 MSTORE PUSH1 0x24 PUSH0 REVERT JUMPDEST PUSH3 0x108 DUP3 PUSH3 0xC0 JUMP JUMPDEST DUP2 ADD DUP2 DUP2 LT PUSH8 0xFFFFFFFFFFFFFFFF DUP3 GT OR ISZERO PUSH3 0x12A JUMPI PUSH3 0x129 PUSH3 0xD0 JUMP JUMPDEST JUMPDEST DUP1 PUSH1 0x40 MSTORE POP POP POP JUMP JUMPDEST PUSH0 PUSH3 0x13E PUSH3 0xA7 JUMP JUMPDEST SWAP1 POP PUSH3 0x14C DUP3 DUP3 PUSH3 0xFD JUMP JUMPDEST SWAP2 SWAP1 POP JUMP JUMPDEST PUSH0 PUSH8 0xFFFFFFFFFFFFFFFF DUP3 GT ISZERO PUSH3 0x16E JUMPI PUSH3 0x16D PUSH3 0xD0 JUMP JUMPDEST JUMPDEST PUSH3 0x179 DUP3 PUSH3 0xC0 JUMP JUMPDEST SWAP1 POP PUSH1 0x20 DUP2 ADD SWAP1 POP SWAP2 SWAP1 POP JUMP JUMPDEST PUSH0 JUMPDEST DUP4 DUP2 LT ISZERO PUSH3 0x1A5 JUMPI DUP1 DUP3 ADD MLOAD DUP2 DUP5 ADD MSTORE PUSH1 0x20 DUP2 ADD SWAP1 POP PUSH3 0x188 JUMP JUMPDEST PUSH0 DUP5 DUP5 ADD MSTORE POP POP POP POP JUMP JUMPDEST PUSH0 PUSH3 0x1C6 PUSH3 0x1C0 DUP5 PUSH3 0x151 JUMP JUMPDEST PUSH3 0x133 JUMP JUMPDEST SWAP1 POP DUP3 DUP2 MSTORE PUSH1 0x20 DUP2 ADD DUP5 DUP5 DUP5 ADD GT ISZERO PUSH3 0x1E5 JUMPI PUSH3 0x1E4 PUSH3 0xBC JUMP JUMPDEST JUMPDEST PUSH3 0x1F2 DUP5 DUP3 DUP6 PUSH3 0x186 JUMP JUMPDEST POP SWAP4 SWAP3 POP POP POP JUMP JUMPDEST PUSH0 DUP3 PUSH1 0x1F DUP4 ADD SLT PUSH3 0x211 JUMPI PUSH3 0x210 PUSH3 0xB8 JUMP JUMPDEST JUMPDEST DUP2 MLOAD PUSH3 0x223 DUP5 DUP3 PUSH1 0x20 DUP7 ADD PUSH3 0x1B0 JUMP JUMPDEST SWAP2 POP POP SWAP3 SWAP2 POP POP JUMP JUMPDEST PUSH0 PUSH20 0xFFFFFFFFFFFFFFFFFFFFFFFFFFFFFFFFFFFFFFFF DUP3 AND SWAP1 POP SWAP2 SWAP1 POP JUMP JUMPDEST PUSH0 PUSH3 0x257 DUP3 PUSH3 0x22C JUMP JUMPDEST SWAP1 POP SWAP2 SWAP1 POP JUMP JUMPDEST PUSH3 0x269 DUP2 PUSH3 0x24B JUMP JUMPDEST DUP2 EQ PUSH3 0x274 JUMPI PUSH0 DUP1 REVERT JUMPDEST POP JUMP JUMPDEST PUSH0 DUP2 MLOAD SWAP1 POP PUSH3 0x287 DUP2 PUSH3 0x25E JUMP JUMPDEST SWAP3 SWAP2 POP POP JUMP JUMPDEST PUSH0 DUP2 SWAP1 POP SWAP2 SWAP1 POP JUMP JUMPDEST PUSH3 0x2A1 DUP2 PUSH3 0x28D JUMP JUMPDEST DUP2 EQ PUSH3 0x2AC JUMPI PUSH0 DUP1 REVERT JUMPDEST POP JUMP JUMPDEST PUSH0 DUP2 MLOAD SWAP1 POP PUSH3 0x2BF DUP2 PUSH3 0x296 JUMP JUMPDEST SWAP3 SWAP2 POP POP JUMP JUMPDEST PUSH0 DUP1 PUSH0 DUP1 PUSH1 0x80 DUP6 DUP8 SUB SLT ISZERO PUSH3 0x2E0 JUMPI PUSH3 0x2DF PUSH3 0xB0 JUMP JUMPDEST JUMPDEST PUSH0 DUP6 ADD MLOAD PUSH8 0xFFFFFFFFFFFFFFFF DUP2 GT ISZERO PUSH3 0x300 JUMPI PUSH3 0x2FF PUSH3 0xB4 JUMP JUMPDEST JUMPDEST PUSH3 0x30E DUP8 DUP3 DUP9 ADD PUSH3 0x1FA JUMP JUMPDEST SWAP5 POP POP PUSH1 0x20 PUSH3 0x321 DUP8 DUP3 DUP9 ADD PUSH3 0x277 JUMP JUMPDEST SWAP4 POP POP PUSH1 0x40 PUSH3 0x334 DUP8 DUP3 DUP9 ADD PUSH3 0x2AF JUMP JUMPDEST SWAP3 POP POP PUSH1 0x60 PUSH3 0x347 DUP8 DUP3 DUP9 ADD PUSH3 0x2AF JUMP JUMPDEST SWAP2 POP POP SWAP3 SWAP6 SWAP2 SWAP5 POP SWAP3 POP JUMP JUMPDEST PUSH0 DUP2 MLOAD SWAP1 POP SWAP2 SWAP1 POP JUMP JUMPDEST PUSH32 0x4E487B7100000000000000000000000000000000000000000000000000000000 PUSH0 MSTORE PUSH1 0x22 PUSH1 0x4 MSTORE PUSH1 0x24 PUSH0 REVERT JUMPDEST PUSH0 PUSH1 0x2 DUP3 DIV SWAP1 POP PUSH1 0x1 DUP3 AND DUP1 PUSH3 0x3A2 JUMPI PUSH1 0x7F DUP3 AND SWAP2 POP JUMPDEST PUSH1 0x20 DUP3 LT DUP2 SUB PUSH3 0x3B8 JUMPI PUSH3 0x3B7 PUSH3 0x35D JUMP JUMPDEST JUMPDEST POP SWAP2 SWAP1 POP JUMP JUMPDEST PUSH0 DUP2 SWAP1 POP DUP2 PUSH0 MSTORE PUSH1 0x20 PUSH0 KECCAK256 SWAP1 POP SWAP2 SWAP1 POP JUMP JUMPDEST PUSH0 PUSH1 0x20 PUSH1 0x1F DUP4 ADD DIV SWAP1 POP SWAP2 SWAP1 POP JUMP JUMPDEST PUSH0 DUP3 DUP3 SHL SWAP1 POP SWAP3 SWAP2 POP POP JUMP JUMPDEST PUSH0 PUSH1 0x8 DUP4 MUL PUSH3 0x41C PUSH32 0xFFFFFFFFFFFFFFFFFFFFFFFFFFFFFFFFFFFFFFFFFFFFFFFFFFFFFFFFFFFFFFFF DUP3 PUSH3 0x3DF JUMP JUMPDEST PUSH3 0x428 DUP7 DUP4 PUSH3 0x3DF JUMP JUMPDEST SWAP6 POP DUP1 NOT DUP5 AND SWAP4 POP DUP1 DUP7 AND DUP5 OR SWAP3 POP POP POP SWAP4 SWAP3 POP POP POP JUMP JUMPDEST PUSH0 DUP2 SWAP1 POP SWAP2 SWAP1 POP JUMP JUMPDEST PUSH0 PUSH3 0x469 PUSH3 0x463 PUSH3 0x45D DUP5 PUSH3 0x28D JUMP JUMPDEST PUSH3 0x440 JUMP JUMPDEST PUSH3 0x28D JUMP JUMPDEST SWAP1 POP SWAP2 SWAP1 POP JUMP JUMPDEST PUSH0 DUP2 SWAP1 POP SWAP2 SWAP1 POP JUMP JUMPDEST PUSH3 0x484 DUP4 PUSH3 0x449 JUMP JUMPDEST PUSH3 0x49C PUSH3 0x493 DUP3 PUSH3 0x470 JUMP JUMPDEST DUP5 DUP5 SLOAD PUSH3 0x3EB JUMP JUMPDEST DUP3 SSTORE POP POP POP POP JUMP JUMPDEST PUSH0 SWAP1 JUMP JUMPDEST PUSH3 0x4B2 PUSH3 0x4A4 JUMP JUMPDEST PUSH3 0x4BF DUP2 DUP5 DUP5 PUSH3 0x479 JUMP JUMPDEST POP POP POP JUMP JUMPDEST JUMPDEST DUP2 DUP2 LT ISZERO PUSH3 0x4E6 JUMPI PUSH3 0x4DA PUSH0 DUP3 PUSH3 0x4A8 JUMP JUMPDEST PUSH1 0x1 DUP2 ADD SWAP1 POP PUSH3 0x4C5 JUMP JUMPDEST POP POP JUMP JUMPDEST PUSH1 0x1F DUP3 GT ISZERO PUSH3 0x535 JUMPI PUSH3 0x4FF DUP2 PUSH3 0x3BE JUMP JUMPDEST PUSH3 0x50A DUP5 PUSH3 0x3D0 JUMP JUMPDEST DUP2 ADD PUSH1 0x20 DUP6 LT ISZERO PUSH3 0x51A JUMPI DUP2 SWAP1 POP JUMPDEST PUSH3 0x532 PUSH3 0x529 DUP6 PUSH3 0x3D0 JUMP JUMPDEST DUP4 ADD DUP3 PUSH3 0x4C4 JUMP JUMPDEST POP POP JUMPDEST POP POP POP JUMP JUMPDEST PUSH0 DUP3 DUP3 SHR SWAP1 POP SWAP3 SWAP2 POP POP JUMP JUMPDEST PUSH0 PUSH3 0x557 PUSH0 NOT DUP5 PUSH1 0x8 MUL PUSH3 0x53A JUMP JUMPDEST NOT DUP1 DUP4 AND SWAP2 POP POP SWAP3 SWAP2 POP POP JUMP JUMPDEST PUSH0 PUSH3 0x571 DUP4 DUP4 PUSH3 0x546 JUMP JUMPDEST SWAP2 POP DUP3 PUSH1 0x2 MUL DUP3 OR SWAP1 POP SWAP3 SWAP2 POP POP JUMP JUMPDEST PUSH3 0x58C DUP3 PUSH3 0x353 JUMP JUMPDEST PUSH8 0xFFFFFFFFFFFFFFFF DUP2 GT ISZERO PUSH3 0x5A8 JUMPI PUSH3 0x5A7 PUSH3 0xD0 JUMP JUMPDEST JUMPDEST PUSH3 0x5B4 DUP3 SLOAD PUSH3 0x38A JUMP JUMPDEST PUSH3 0x5C1 DUP3 DUP3 DUP6 PUSH3 0x4EA JUMP JUMPDEST PUSH0 PUSH1 0x20 SWAP1 POP PUSH1 0x1F DUP4 GT PUSH1 0x1 DUP2 EQ PUSH3 0x5F7 JUMPI PUSH0 DUP5 ISZERO PUSH3 0x5E2 JUMPI DUP3 DUP8 ADD MLOAD SWAP1 POP JUMPDEST PUSH3 0x5EE DUP6 DUP3 PUSH3 0x564 JUMP JUMPDEST DUP7 SSTORE POP PUSH3 0x65D JUMP JUMPDEST PUSH1 0x1F NOT DUP5 AND PUSH3 0x607 DUP7 PUSH3 0x3BE JUMP JUMPDEST PUSH0 JUMPDEST DUP3 DUP2 LT ISZERO PUSH3 0x630 JUMPI DUP5 DUP10 ADD MLOAD DUP3 SSTORE PUSH1 0x1 DUP3 ADD SWAP2 POP PUSH1 0x20 DUP6 ADD SWAP5 POP PUSH1 0x20 DUP2 ADD SWAP1 POP PUSH3 0x609 JUMP JUMPDEST DUP7 DUP4 LT ISZERO PUSH3 0x650 JUMPI DUP5 DUP10 ADD MLOAD PUSH3 0x64C PUSH1 0x1F DUP10 AND DUP3 PUSH3 0x546 JUMP JUMPDEST DUP4 SSTORE POP JUMPDEST PUSH1 0x1 PUSH1 0x2 DUP9 MUL ADD DUP9 SSTORE POP POP POP JUMPDEST POP POP POP POP POP POP JUMP JUMPDEST PUSH2 0x1C96 DUP1 PUSH3 0x673 PUSH0 CODECOPY PUSH0 RETURN INVALID PUSH1 0x80 PUSH1 0x40 MSTORE PUSH1 0x4 CALLDATASIZE LT PUSH2 0xFD JUMPI PUSH0 CALLDATALOAD PUSH1 0xE0 SHR DUP1 PUSH4 0x70A41BC0 GT PUSH2 0x94 JUMPI DUP1 PUSH4 0xBB864BE3 GT PUSH2 0x63 JUMPI DUP1 PUSH4 0xBB864BE3 EQ PUSH2 0x2EB JUMPI DUP1 PUSH4 0xD27D06C0 EQ PUSH2 0x2F5 JUMPI DUP1 PUSH4 0xD78C28DC EQ PUSH2 0x31F JUMPI DUP1 PUSH4 0xE75B3B25 EQ PUSH2 0x349 JUMPI DUP1 PUSH4 0xEDAA52C5 EQ PUSH2 0x371 JUMPI PUSH2 0xFD JUMP JUMPDEST DUP1 PUSH4 0x70A41BC0 EQ PUSH2 0x247 JUMPI DUP1 PUSH4 0x822B8023 EQ PUSH2 0x271 JUMPI DUP1 PUSH4 0x8E5676FD EQ PUSH2 0x299 JUMPI DUP1 PUSH4 0xAD2C046C EQ PUSH2 0x2C1 JUMPI PUSH2 0xFD JUMP JUMPDEST DUP1 PUSH4 0x3F0F5D51 GT PUSH2 0xD0 JUMPI DUP1 PUSH4 0x3F0F5D51 EQ PUSH2 0x1AD JUMPI DUP1 PUSH4 0x526024EA EQ PUSH2 0x1D7 JUMPI DUP1 PUSH4 0x535C98DD EQ PUSH2 0x1E1 JUMPI DUP1 PUSH4 0x6F07AFFB EQ PUSH2 0x20B JUMPI PUSH2 0xFD JUMP JUMPDEST DUP1 PUSH4 0x84263F5 EQ PUSH2 0x101 JUMPI DUP1 PUSH4 0x311E73DA EQ PUSH2 0x12B JUMPI DUP1 PUSH4 0x36927060 EQ PUSH2 0x147 JUMPI DUP1 PUSH4 0x3BABB15A EQ PUSH2 0x183 JUMPI JUMPDEST PUSH0 DUP1 REVERT JUMPDEST CALLVALUE DUP1 ISZERO PUSH2 0x10C JUMPI PUSH0 DUP1 REVERT JUMPDEST POP PUSH2 0x115 PUSH2 0x39B JUMP JUMPDEST PUSH1 0x40 MLOAD PUSH2 0x122 SWAP2 SWAP1 PUSH2 0xFD3 JUMP JUMPDEST PUSH1 0x40 MLOAD DUP1 SWAP2 SUB SWAP1 RETURN JUMPDEST PUSH2 0x145 PUSH1 0x4 DUP1 CALLDATASIZE SUB DUP2 ADD SWAP1 PUSH2 0x140 SWAP2 SWAP1 PUSH2 0x1023 JUMP JUMPDEST PUSH2 0x3A1 JUMP JUMPDEST STOP JUMPDEST CALLVALUE DUP1 ISZERO PUSH2 0x152 JUMPI PUSH0 DUP1 REVERT JUMPDEST POP PUSH2 0x16D PUSH1 0x4 DUP1 CALLDATASIZE SUB DUP2 ADD SWAP1 PUSH2 0x168 SWAP2 SWAP1 PUSH2 0x10A8 JUMP JUMPDEST PUSH2 0x443 JUMP JUMPDEST PUSH1 0x40 MLOAD PUSH2 0x17A SWAP2 SWAP1 PUSH2 0x10ED JUMP JUMPDEST PUSH1 0x40 MLOAD DUP1 SWAP2 SUB SWAP1 RETURN JUMPDEST CALLVALUE DUP1 ISZERO PUSH2 0x18E JUMPI PUSH0 DUP1 REVERT JUMPDEST POP PUSH2 0x197 PUSH2 0x460 JUMP JUMPDEST PUSH1 0x40 MLOAD PUSH2 0x1A4 SWAP2 SWAP1 PUSH2 0xFD3 JUMP JUMPDEST PUSH1 0x40 MLOAD DUP1 SWAP2 SUB SWAP1 RETURN JUMPDEST CALLVALUE DUP1 ISZERO PUSH2 0x1B8 JUMPI PUSH0 DUP1 REVERT JUMPDEST POP PUSH2 0x1C1 PUSH2 0x466 JUMP JUMPDEST PUSH1 0x40 MLOAD PUSH2 0x1CE SWAP2 SWAP1 PUSH2 0xFD3 JUMP JUMPDEST PUSH1 0x40 MLOAD DUP1 SWAP2 SUB SWAP1 RETURN JUMPDEST PUSH2 0x1DF PUSH2 0x46C JUMP JUMPDEST STOP JUMPDEST CALLVALUE DUP1 ISZERO PUSH2 0x1EC JUMPI PUSH0 DUP1 REVERT JUMPDEST POP PUSH2 0x1F5 PUSH2 0x6BE JUMP JUMPDEST PUSH1 0x40 MLOAD PUSH2 0x202 SWAP2 SWAP1 PUSH2 0xFD3 JUMP JUMPDEST PUSH1 0x40 MLOAD DUP1 SWAP2 SUB SWAP1 RETURN JUMPDEST CALLVALUE DUP1 ISZERO PUSH2 0x216 JUMPI PUSH0 DUP1 REVERT JUMPDEST POP PUSH2 0x231 PUSH1 0x4 DUP1 CALLDATASIZE SUB DUP2 ADD SWAP1 PUSH2 0x22C SWAP2 SWAP1 PUSH2 0x1023 JUMP JUMPDEST PUSH2 0x6C4 JUMP JUMPDEST PUSH1 0x40 MLOAD PUSH2 0x23E SWAP2 SWAP1 PUSH2 0x1115 JUMP JUMPDEST PUSH1 0x40 MLOAD DUP1 SWAP2 SUB SWAP1 RETURN JUMPDEST CALLVALUE DUP1 ISZERO PUSH2 0x252 JUMPI PUSH0 DUP1 REVERT JUMPDEST POP PUSH2 0x25B PUSH2 0x6FF JUMP JUMPDEST PUSH1 0x40 MLOAD PUSH2 0x268 SWAP2 SWAP1 PUSH2 0xFD3 JUMP JUMPDEST PUSH1 0x40 MLOAD DUP1 SWAP2 SUB SWAP1 RETURN JUMPDEST CALLVALUE DUP1 ISZERO PUSH2 0x27C JUMPI PUSH0 DUP1 REVERT JUMPDEST POP PUSH2 0x297 PUSH1 0x4 DUP1 CALLDATASIZE SUB DUP2 ADD SWAP1 PUSH2 0x292 SWAP2 SWAP1 PUSH2 0x1023 JUMP JUMPDEST PUSH2 0x705 JUMP JUMPDEST STOP JUMPDEST CALLVALUE DUP1 ISZERO PUSH2 0x2A4 JUMPI PUSH0 DUP1 REVERT JUMPDEST POP PUSH2 0x2BF PUSH1 0x4 DUP1 CALLDATASIZE SUB DUP2 ADD SWAP1 PUSH2 0x2BA SWAP2 SWAP1 PUSH2 0x1023 JUMP JUMPDEST PUSH2 0x7A9 JUMP JUMPDEST STOP JUMPDEST CALLVALUE DUP1 ISZERO PUSH2 0x2CC JUMPI PUSH0 DUP1 REVERT JUMPDEST POP PUSH2 0x2D5 PUSH2 0x84D JUMP JUMPDEST PUSH1 0x40 MLOAD PUSH2 0x2E2 SWAP2 SWAP1 PUSH2 0x1115 JUMP JUMPDEST PUSH1 0x40 MLOAD DUP1 SWAP2 SUB SWAP1 RETURN JUMPDEST PUSH2 0x2F3 PUSH2 0x870 JUMP JUMPDEST STOP JUMPDEST CALLVALUE DUP1 ISZERO PUSH2 0x300 JUMPI PUSH0 DUP1 REVERT JUMPDEST POP PUSH2 0x309 PUSH2 0xBB1 JUMP JUMPDEST PUSH1 0x40 MLOAD PUSH2 0x316 SWAP2 SWAP1 PUSH2 0x11B8 JUMP JUMPDEST PUSH1 0x40 MLOAD DUP1 SWAP2 SUB SWAP1 RETURN JUMPDEST CALLVALUE DUP1 ISZERO PUSH2 0x32A JUMPI PUSH0 DUP1 REVERT JUMPDEST POP PUSH2 0x333 PUSH2 0xC3D JUMP JUMPDEST PUSH1 0x40 MLOAD PUSH2 0x340 SWAP2 SWAP1 PUSH2 0xFD3 JUMP JUMPDEST PUSH1 0x40 MLOAD DUP1 SWAP2 SUB SWAP1 RETURN JUMPDEST CALLVALUE DUP1 ISZERO PUSH2 0x354 JUMPI PUSH0 DUP1 REVERT JUMPDEST POP PUSH2 0x36F PUSH1 0x4 DUP1 CALLDATASIZE SUB DUP2 ADD SWAP1 PUSH2 0x36A SWAP2 SWAP1 PUSH2 0x13EA JUMP JUMPDEST PUSH2 0xC46 JUMP JUMPDEST STOP JUMPDEST CALLVALUE DUP1 ISZERO PUSH2 0x37C JUMPI PUSH0 DUP1 REVERT JUMPDEST POP PUSH2 0x385 PUSH2 0xE4E JUMP JUMPDEST PUSH1 0x40 MLOAD PUSH2 0x392 SWAP2 SWAP1 PUSH2 0xFD3 JUMP JUMPDEST PUSH1 0x40 MLOAD DUP1 SWAP2 SUB SWAP1 RETURN JUMPDEST PUSH1 0x3 SLOAD DUP2 JUMP JUMPDEST PUSH0 DUP1 SLOAD SWAP1 PUSH2 0x100 EXP SWAP1 DIV PUSH20 0xFFFFFFFFFFFFFFFFFFFFFFFFFFFFFFFFFFFFFFFF AND PUSH20 0xFFFFFFFFFFFFFFFFFFFFFFFFFFFFFFFFFFFFFFFF AND CALLER PUSH20 0xFFFFFFFFFFFFFFFFFFFFFFFFFFFFFFFFFFFFFFFF AND EQ PUSH2 0x3F7 JUMPI PUSH0 DUP1 REVERT JUMPDEST PUSH0 CALLVALUE GT PUSH2 0x439 JUMPI PUSH1 0x40 MLOAD PUSH32 0x8C379A000000000000000000000000000000000000000000000000000000000 DUP2 MSTORE PUSH1 0x4 ADD PUSH2 0x430 SWAP1 PUSH2 0x1498 JUMP JUMPDEST PUSH1 0x40 MLOAD DUP1 SWAP2 SUB SWAP1 REVERT JUMPDEST DUP1 PUSH1 0xA DUP2 SWAP1 SSTORE POP POP JUMP JUMPDEST PUSH1 0x7 PUSH1 0x20 MSTORE DUP1 PUSH0 MSTORE PUSH1 0x40 PUSH0 KECCAK256 PUSH0 SWAP2 POP SLOAD SWAP1 PUSH2 0x100 EXP SWAP1 DIV PUSH1 0xFF AND DUP2 JUMP JUMPDEST PUSH1 0x9 SLOAD DUP2 JUMP JUMPDEST PUSH1 0x4 SLOAD DUP2 JUMP JUMPDEST PUSH0 PUSH1 0x2 SLOAD PUSH1 0x4 SLOAD PUSH2 0x47D SWAP2 SWAP1 PUSH2 0x1510 JUMP JUMPDEST SWAP1 POP DUP1 CALLVALUE LT ISZERO PUSH2 0x4C2 JUMPI PUSH1 0x40 MLOAD PUSH32 0x8C379A000000000000000000000000000000000000000000000000000000000 DUP2 MSTORE PUSH1 0x4 ADD PUSH2 0x4B9 SWAP1 PUSH2 0x158A JUMP JUMPDEST PUSH1 0x40 MLOAD DUP1 SWAP2 SUB SWAP1 REVERT JUMPDEST PUSH1 0x7 PUSH0 CALLER PUSH20 0xFFFFFFFFFFFFFFFFFFFFFFFFFFFFFFFFFFFFFFFF AND PUSH20 0xFFFFFFFFFFFFFFFFFFFFFFFFFFFFFFFFFFFFFFFF AND DUP2 MSTORE PUSH1 0x20 ADD SWAP1 DUP2 MSTORE PUSH1 0x20 ADD PUSH0 KECCAK256 PUSH0 SWAP1 SLOAD SWAP1 PUSH2 0x100 EXP SWAP1 DIV PUSH1 0xFF AND ISZERO PUSH2 0x54C JUMPI PUSH1 0x40 MLOAD PUSH32 0x8C379A000000000000000000000000000000000000000000000000000000000 DUP2 MSTORE PUSH1 0x4 ADD PUSH2 0x543 SWAP1 PUSH2 0x1618 JUMP JUMPDEST PUSH1 0x40 MLOAD DUP1 SWAP2 SUB SWAP1 REVERT JUMPDEST PUSH1 0x2 SLOAD PUSH1 0x9 SLOAD LT PUSH2 0x592 JUMPI PUSH1 0x40 MLOAD PUSH32 0x8C379A000000000000000000000000000000000000000000000000000000000 DUP2 MSTORE PUSH1 0x4 ADD PUSH2 0x589 SWAP1 PUSH2 0x1680 JUMP JUMPDEST PUSH1 0x40 MLOAD DUP1 SWAP2 SUB SWAP1 REVERT JUMPDEST PUSH0 DUP2 CALLVALUE PUSH2 0x59F SWAP2 SWAP1 PUSH2 0x169E JUMP JUMPDEST SWAP1 POP PUSH1 0x1 PUSH1 0x7 PUSH0 CALLER PUSH20 0xFFFFFFFFFFFFFFFFFFFFFFFFFFFFFFFFFFFFFFFF AND PUSH20 0xFFFFFFFFFFFFFFFFFFFFFFFFFFFFFFFFFFFFFFFF AND DUP2 MSTORE PUSH1 0x20 ADD SWAP1 DUP2 MSTORE PUSH1 0x20 ADD PUSH0 KECCAK256 PUSH0 PUSH2 0x100 EXP DUP2 SLOAD DUP2 PUSH1 0xFF MUL NOT AND SWAP1 DUP4 ISZERO ISZERO MUL OR SWAP1 SSTORE POP PUSH1 0x8 CALLER SWAP1 DUP1 PUSH1 0x1 DUP2 SLOAD ADD DUP1 DUP3 SSTORE DUP1 SWAP2 POP POP PUSH1 0x1 SWAP1 SUB SWAP1 PUSH0 MSTORE PUSH1 0x20 PUSH0 KECCAK256 ADD PUSH0 SWAP1 SWAP2 SWAP1 SWAP2 SWAP1 SWAP2 PUSH2 0x100 EXP DUP2 SLOAD DUP2 PUSH20 0xFFFFFFFFFFFFFFFFFFFFFFFFFFFFFFFFFFFFFFFF MUL NOT AND SWAP1 DUP4 PUSH20 0xFFFFFFFFFFFFFFFFFFFFFFFFFFFFFFFFFFFFFFFF AND MUL OR SWAP1 SSTORE POP PUSH1 0x9 PUSH0 DUP2 SLOAD DUP1 SWAP3 SWAP2 SWAP1 PUSH2 0x668 SWAP1 PUSH2 0x16D1 JUMP JUMPDEST SWAP2 SWAP1 POP SSTORE POP PUSH0 DUP2 GT ISZERO PUSH2 0x6BA JUMPI CALLER PUSH20 0xFFFFFFFFFFFFFFFFFFFFFFFFFFFFFFFFFFFFFFFF AND PUSH2 0x8FC DUP3 SWAP1 DUP2 ISZERO MUL SWAP1 PUSH1 0x40 MLOAD PUSH0 PUSH1 0x40 MLOAD DUP1 DUP4 SUB DUP2 DUP6 DUP9 DUP9 CALL SWAP4 POP POP POP POP ISZERO DUP1 ISZERO PUSH2 0x6B8 JUMPI RETURNDATASIZE PUSH0 DUP1 RETURNDATACOPY RETURNDATASIZE PUSH0 REVERT JUMPDEST POP JUMPDEST POP POP JUMP JUMPDEST PUSH1 0x6 SLOAD DUP2 JUMP JUMPDEST PUSH1 0x8 DUP2 DUP2 SLOAD DUP2 LT PUSH2 0x6D3 JUMPI PUSH0 DUP1 REVERT JUMPDEST SWAP1 PUSH0 MSTORE PUSH1 0x20 PUSH0 KECCAK256 ADD PUSH0 SWAP2 POP SLOAD SWAP1 PUSH2 0x100 EXP SWAP1 DIV PUSH20 0xFFFFFFFFFFFFFFFFFFFFFFFFFFFFFFFFFFFFFFFF AND DUP2 JUMP JUMPDEST PUSH1 0x2 SLOAD DUP2 JUMP JUMPDEST PUSH0 DUP1 SLOAD SWAP1 PUSH2 0x100 EXP SWAP1 DIV PUSH20 0xFFFFFFFFFFFFFFFFFFFFFFFFFFFFFFFFFFFFFFFF AND PUSH20 0xFFFFFFFFFFFFFFFFFFFFFFFFFFFFFFFFFFFFFFFF AND CALLER PUSH20 0xFFFFFFFFFFFFFFFFFFFFFFFFFFFFFFFFFFFFFFFF AND EQ PUSH2 0x75B JUMPI PUSH0 DUP1 REVERT JUMPDEST PUSH0 PUSH1 0x9 SLOAD EQ PUSH2 0x79F JUMPI PUSH1 0x40 MLOAD PUSH32 0x8C379A000000000000000000000000000000000000000000000000000000000 DUP2 MSTORE PUSH1 0x4 ADD PUSH2 0x796 SWAP1 PUSH2 0x17AE JUMP JUMPDEST PUSH1 0x40 MLOAD DUP1 SWAP2 SUB SWAP1 REVERT JUMPDEST DUP1 PUSH1 0x2 DUP2 SWAP1 SSTORE POP POP JUMP JUMPDEST PUSH0 DUP1 SLOAD SWAP1 PUSH2 0x100 EXP SWAP1 DIV PUSH20 0xFFFFFFFFFFFFFFFFFFFFFFFFFFFFFFFFFFFFFFFF AND PUSH20 0xFFFFFFFFFFFFFFFFFFFFFFFFFFFFFFFFFFFFFFFF AND CALLER PUSH20 0xFFFFFFFFFFFFFFFFFFFFFFFFFFFFFFFFFFFFFFFF AND EQ PUSH2 0x7FF JUMPI PUSH0 DUP1 REVERT JUMPDEST PUSH0 PUSH1 0x9 SLOAD EQ PUSH2 0x843 JUMPI PUSH1 0x40 MLOAD PUSH32 0x8C379A000000000000000000000000000000000000000000000000000000000 DUP2 MSTORE PUSH1 0x4 ADD PUSH2 0x83A SWAP1 PUSH2 0x183C JUMP JUMPDEST PUSH1 0x40 MLOAD DUP1 SWAP2 SUB SWAP1 REVERT JUMPDEST DUP1 PUSH1 0x4 DUP2 SWAP1 SSTORE POP POP JUMP JUMPDEST PUSH0 DUP1 SLOAD SWAP1 PUSH2 0x100 EXP SWAP1 DIV PUSH20 0xFFFFFFFFFFFFFFFFFFFFFFFFFFFFFFFFFFFFFFFF AND DUP2 JUMP JUMPDEST PUSH0 DUP1 SLOAD SWAP1 PUSH2 0x100 EXP SWAP1 DIV PUSH20 0xFFFFFFFFFFFFFFFFFFFFFFFFFFFFFFFFFFFFFFFF AND PUSH20 0xFFFFFFFFFFFFFFFFFFFFFFFFFFFFFFFFFFFFFFFF AND CALLER PUSH20 0xFFFFFFFFFFFFFFFFFFFFFFFFFFFFFFFFFFFFFFFF AND EQ PUSH2 0x8C6 JUMPI PUSH0 DUP1 REVERT JUMPDEST PUSH0 PUSH1 0x9 SLOAD SWAP1 POP PUSH0 DUP2 GT PUSH2 0x90E JUMPI PUSH1 0x40 MLOAD PUSH32 0x8C379A000000000000000000000000000000000000000000000000000000000 DUP2 MSTORE PUSH1 0x4 ADD PUSH2 0x905 SWAP1 PUSH2 0x18A4 JUMP JUMPDEST PUSH1 0x40 MLOAD DUP1 SWAP2 SUB SWAP1 REVERT JUMPDEST PUSH1 0x2 SLOAD PUSH1 0x9 SLOAD EQ PUSH2 0x954 JUMPI PUSH1 0x40 MLOAD PUSH32 0x8C379A000000000000000000000000000000000000000000000000000000000 DUP2 MSTORE PUSH1 0x4 ADD PUSH2 0x94B SWAP1 PUSH2 0x1932 JUMP JUMPDEST PUSH1 0x40 MLOAD DUP1 SWAP2 SUB SWAP1 REVERT JUMPDEST PUSH0 DUP2 SELFBALANCE PUSH2 0x961 SWAP2 SWAP1 PUSH2 0x1510 JUMP JUMPDEST SWAP1 POP PUSH0 DUP2 GT PUSH2 0x9A5 JUMPI PUSH1 0x40 MLOAD PUSH32 0x8C379A000000000000000000000000000000000000000000000000000000000 DUP2 MSTORE PUSH1 0x4 ADD PUSH2 0x99C SWAP1 PUSH2 0x19C0 JUMP JUMPDEST PUSH1 0x40 MLOAD DUP1 SWAP2 SUB SWAP1 REVERT JUMPDEST PUSH0 PUSH1 0x5 PUSH1 0xB SLOAD PUSH2 0x9B5 SWAP2 SWAP1 PUSH2 0x19DE JUMP JUMPDEST SWAP1 POP PUSH0 PUSH1 0xB SLOAD SWAP1 POP JUMPDEST DUP2 DUP2 LT DUP1 ISZERO PUSH2 0x9CC JUMPI POP DUP4 DUP2 LT JUMPDEST ISZERO PUSH2 0xACD JUMPI PUSH0 PUSH1 0x8 DUP3 DUP2 SLOAD DUP2 LT PUSH2 0x9E6 JUMPI PUSH2 0x9E5 PUSH2 0x1A11 JUMP JUMPDEST JUMPDEST SWAP1 PUSH0 MSTORE PUSH1 0x20 PUSH0 KECCAK256 ADD PUSH0 SWAP1 SLOAD SWAP1 PUSH2 0x100 EXP SWAP1 DIV PUSH20 0xFFFFFFFFFFFFFFFFFFFFFFFFFFFFFFFFFFFFFFFF AND SWAP1 POP PUSH0 DUP2 PUSH20 0xFFFFFFFFFFFFFFFFFFFFFFFFFFFFFFFFFFFFFFFF AND DUP6 PUSH1 0x40 MLOAD PUSH2 0xA35 SWAP1 PUSH2 0x1A6B JUMP JUMPDEST PUSH0 PUSH1 0x40 MLOAD DUP1 DUP4 SUB DUP2 DUP6 DUP8 GAS CALL SWAP3 POP POP POP RETURNDATASIZE DUP1 PUSH0 DUP2 EQ PUSH2 0xA6F JUMPI PUSH1 0x40 MLOAD SWAP2 POP PUSH1 0x1F NOT PUSH1 0x3F RETURNDATASIZE ADD AND DUP3 ADD PUSH1 0x40 MSTORE RETURNDATASIZE DUP3 MSTORE RETURNDATASIZE PUSH0 PUSH1 0x20 DUP5 ADD RETURNDATACOPY PUSH2 0xA74 JUMP JUMPDEST PUSH1 0x60 SWAP2 POP JUMPDEST POP POP SWAP1 POP DUP1 PUSH2 0xAB8 JUMPI PUSH1 0x40 MLOAD PUSH32 0x8C379A000000000000000000000000000000000000000000000000000000000 DUP2 MSTORE PUSH1 0x4 ADD PUSH2 0xAAF SWAP1 PUSH2 0x1AC9 JUMP JUMPDEST PUSH1 0x40 MLOAD DUP1 SWAP2 SUB SWAP1 REVERT JUMPDEST POP POP DUP1 DUP1 PUSH2 0xAC5 SWAP1 PUSH2 0x16D1 JUMP JUMPDEST SWAP2 POP POP PUSH2 0x9BE JUMP JUMPDEST POP DUP3 DUP2 GT PUSH2 0xADB JUMPI DUP1 PUSH2 0xADD JUMP JUMPDEST DUP3 JUMPDEST PUSH1 0xB DUP2 SWAP1 SSTORE POP DUP3 PUSH1 0xB SLOAD SUB PUSH2 0xBAC JUMPI PUSH0 JUMPDEST DUP4 DUP2 LT ISZERO PUSH2 0xB8F JUMPI PUSH0 PUSH1 0x8 DUP3 DUP2 SLOAD DUP2 LT PUSH2 0xB0B JUMPI PUSH2 0xB0A PUSH2 0x1A11 JUMP JUMPDEST JUMPDEST SWAP1 PUSH0 MSTORE PUSH1 0x20 PUSH0 KECCAK256 ADD PUSH0 SWAP1 SLOAD SWAP1 PUSH2 0x100 EXP SWAP1 DIV PUSH20 0xFFFFFFFFFFFFFFFFFFFFFFFFFFFFFFFFFFFFFFFF AND SWAP1 POP PUSH1 0x7 PUSH0 DUP3 PUSH20 0xFFFFFFFFFFFFFFFFFFFFFFFFFFFFFFFFFFFFFFFF AND PUSH20 0xFFFFFFFFFFFFFFFFFFFFFFFFFFFFFFFFFFFFFFFF AND DUP2 MSTORE PUSH1 0x20 ADD SWAP1 DUP2 MSTORE PUSH1 0x20 ADD PUSH0 KECCAK256 PUSH0 PUSH2 0x100 EXP DUP2 SLOAD SWAP1 PUSH1 0xFF MUL NOT AND SWAP1 SSTORE POP DUP1 DUP1 PUSH1 0x1 ADD SWAP2 POP POP PUSH2 0xAEE JUMP JUMPDEST POP PUSH1 0x8 PUSH0 PUSH2 0xB9D SWAP2 SWAP1 PUSH2 0xE54 JUMP JUMPDEST PUSH0 PUSH1 0x9 DUP2 SWAP1 SSTORE POP PUSH0 PUSH1 0xB DUP2 SWAP1 SSTORE POP JUMPDEST POP POP POP JUMP JUMPDEST PUSH1 0x1 DUP1 SLOAD PUSH2 0xBBE SWAP1 PUSH2 0x1B14 JUMP JUMPDEST DUP1 PUSH1 0x1F ADD PUSH1 0x20 DUP1 SWAP2 DIV MUL PUSH1 0x20 ADD PUSH1 0x40 MLOAD SWAP1 DUP2 ADD PUSH1 0x40 MSTORE DUP1 SWAP3 SWAP2 SWAP1 DUP2 DUP2 MSTORE PUSH1 0x20 ADD DUP3 DUP1 SLOAD PUSH2 0xBEA SWAP1 PUSH2 0x1B14 JUMP JUMPDEST DUP1 ISZERO PUSH2 0xC35 JUMPI DUP1 PUSH1 0x1F LT PUSH2 0xC0C JUMPI PUSH2 0x100 DUP1 DUP4 SLOAD DIV MUL DUP4 MSTORE SWAP2 PUSH1 0x20 ADD SWAP2 PUSH2 0xC35 JUMP JUMPDEST DUP3 ADD SWAP2 SWAP1 PUSH0 MSTORE PUSH1 0x20 PUSH0 KECCAK256 SWAP1 JUMPDEST DUP2 SLOAD DUP2 MSTORE SWAP1 PUSH1 0x1 ADD SWAP1 PUSH1 0x20 ADD DUP1 DUP4 GT PUSH2 0xC18 JUMPI DUP3 SWAP1 SUB PUSH1 0x1F AND DUP3 ADD SWAP2 JUMPDEST POP POP POP POP POP DUP2 JUMP JUMPDEST PUSH0 PUSH1 0xB SLOAD SWAP1 POP SWAP1 JUMP JUMPDEST PUSH0 DUP1 SLOAD SWAP1 PUSH2 0x100 EXP SWAP1 DIV PUSH20 0xFFFFFFFFFFFFFFFFFFFFFFFFFFFFFFFFFFFFFFFF AND PUSH20 0xFFFFFFFFFFFFFFFFFFFFFFFFFFFFFFFFFFFFFFFF AND CALLER PUSH20 0xFFFFFFFFFFFFFFFFFFFFFFFFFFFFFFFFFFFFFFFF AND EQ PUSH2 0xC9C JUMPI PUSH0 DUP1 REVERT JUMPDEST PUSH0 JUMPDEST PUSH1 0x5 DUP2 LT ISZERO PUSH2 0xD39 JUMPI PUSH1 0x1 DUP4 DUP3 PUSH1 0x5 DUP2 LT PUSH2 0xCBC JUMPI PUSH2 0xCBB PUSH2 0x1A11 JUMP JUMPDEST JUMPDEST PUSH1 0x20 MUL ADD MLOAD PUSH1 0xFF AND LT ISZERO DUP1 ISZERO PUSH2 0xCED JUMPI POP PUSH1 0x32 DUP4 DUP3 PUSH1 0x5 DUP2 LT PUSH2 0xCE2 JUMPI PUSH2 0xCE1 PUSH2 0x1A11 JUMP JUMPDEST JUMPDEST PUSH1 0x20 MUL ADD MLOAD PUSH1 0xFF AND GT ISZERO JUMPDEST PUSH2 0xD2C JUMPI PUSH1 0x40 MLOAD PUSH32 0x8C379A000000000000000000000000000000000000000000000000000000000 DUP2 MSTORE PUSH1 0x4 ADD PUSH2 0xD23 SWAP1 PUSH2 0x1BB4 JUMP JUMPDEST PUSH1 0x40 MLOAD DUP1 SWAP2 SUB SWAP1 REVERT JUMPDEST DUP1 DUP1 PUSH1 0x1 ADD SWAP2 POP POP PUSH2 0xC9E JUMP JUMPDEST POP PUSH0 JUMPDEST PUSH1 0x2 DUP2 LT ISZERO PUSH2 0xDD7 JUMPI PUSH1 0x1 DUP3 DUP3 PUSH1 0x2 DUP2 LT PUSH2 0xD5A JUMPI PUSH2 0xD59 PUSH2 0x1A11 JUMP JUMPDEST JUMPDEST PUSH1 0x20 MUL ADD MLOAD PUSH1 0xFF AND LT ISZERO DUP1 ISZERO PUSH2 0xD8B JUMPI POP PUSH1 0xC DUP3 DUP3 PUSH1 0x2 DUP2 LT PUSH2 0xD80 JUMPI PUSH2 0xD7F PUSH2 0x1A11 JUMP JUMPDEST JUMPDEST PUSH1 0x20 MUL ADD MLOAD PUSH1 0xFF AND GT ISZERO JUMPDEST PUSH2 0xDCA JUMPI PUSH1 0x40 MLOAD PUSH32 0x8C379A000000000000000000000000000000000000000000000000000000000 DUP2 MSTORE PUSH1 0x4 ADD PUSH2 0xDC1 SWAP1 PUSH2 0x1C42 JUMP JUMPDEST PUSH1 0x40 MLOAD DUP1 SWAP2 SUB SWAP1 REVERT JUMPDEST DUP1 DUP1 PUSH1 0x1 ADD SWAP2 POP POP PUSH2 0xD3C JUMP JUMPDEST POP PUSH0 PUSH1 0x40 MLOAD DUP1 PUSH1 0x40 ADD PUSH1 0x40 MSTORE DUP1 DUP5 DUP2 MSTORE PUSH1 0x20 ADD DUP4 DUP2 MSTORE POP SWAP1 POP PUSH1 0x5 DUP2 SWAP1 DUP1 PUSH1 0x1 DUP2 SLOAD ADD DUP1 DUP3 SSTORE DUP1 SWAP2 POP POP PUSH1 0x1 SWAP1 SUB SWAP1 PUSH0 MSTORE PUSH1 0x20 PUSH0 KECCAK256 SWAP1 PUSH1 0x2 MUL ADD PUSH0 SWAP1 SWAP2 SWAP1 SWAP2 SWAP1 SWAP2 POP PUSH0 DUP3 ADD MLOAD DUP2 PUSH0 ADD SWAP1 PUSH1 0x5 PUSH2 0xE2E SWAP3 SWAP2 SWAP1 PUSH2 0xE72 JUMP JUMPDEST POP PUSH1 0x20 DUP3 ADD MLOAD DUP2 PUSH1 0x1 ADD SWAP1 PUSH1 0x2 PUSH2 0xE46 SWAP3 SWAP2 SWAP1 PUSH2 0xF09 JUMP JUMPDEST POP POP POP POP POP POP JUMP JUMPDEST PUSH1 0xA SLOAD DUP2 JUMP JUMPDEST POP DUP1 SLOAD PUSH0 DUP3 SSTORE SWAP1 PUSH0 MSTORE PUSH1 0x20 PUSH0 KECCAK256 SWAP1 DUP2 ADD SWAP1 PUSH2 0xE6F SWAP2 SWAP1 PUSH2 0xFA0 JUMP JUMPDEST POP JUMP JUMPDEST DUP3 PUSH1 0x5 PUSH1 0x1F ADD PUSH1 0x20 SWAP1 DIV DUP2 ADD SWAP3 DUP3 ISZERO PUSH2 0xEF8 JUMPI SWAP2 PUSH1 0x20 MUL DUP3 ADD PUSH0 JUMPDEST DUP4 DUP3 GT ISZERO PUSH2 0xECA JUMPI DUP4 MLOAD DUP4 DUP3 PUSH2 0x100 EXP DUP2 SLOAD DUP2 PUSH1 0xFF MUL NOT AND SWAP1 DUP4 PUSH1 0xFF AND MUL OR SWAP1 SSTORE POP SWAP3 PUSH1 0x20 ADD SWAP3 PUSH1 0x1 ADD PUSH1 0x20 DUP2 PUSH0 ADD DIV SWAP3 DUP4 ADD SWAP3 PUSH1 0x1 SUB MUL PUSH2 0xE8D JUMP JUMPDEST DUP1 ISZERO PUSH2 0xEF6 JUMPI DUP3 DUP2 PUSH2 0x100 EXP DUP2 SLOAD SWAP1 PUSH1 0xFF MUL NOT AND SWAP1 SSTORE PUSH1 0x1 ADD PUSH1 0x20 DUP2 PUSH0 ADD DIV SWAP3 DUP4 ADD SWAP3 PUSH1 0x1 SUB MUL PUSH2 0xECA JUMP JUMPDEST POP JUMPDEST POP SWAP1 POP PUSH2 0xF05 SWAP2 SWAP1 PUSH2 0xFA0 JUMP JUMPDEST POP SWAP1 JUMP JUMPDEST DUP3 PUSH1 0x2 PUSH1 0x1F ADD PUSH1 0x20 SWAP1 DIV DUP2 ADD SWAP3 DUP3 ISZERO PUSH2 0xF8F JUMPI SWAP2 PUSH1 0x20 MUL DUP3 ADD PUSH0 JUMPDEST DUP4 DUP3 GT ISZERO PUSH2 0xF61 JUMPI DUP4 MLOAD DUP4 DUP3 PUSH2 0x100 EXP DUP2 SLOAD DUP2 PUSH1 0xFF MUL NOT AND SWAP1 DUP4 PUSH1 0xFF AND MUL OR SWAP1 SSTORE POP SWAP3 PUSH1 0x20 ADD SWAP3 PUSH1 0x1 ADD PUSH1 0x20 DUP2 PUSH0 ADD DIV SWAP3 DUP4 ADD SWAP3 PUSH1 0x1 SUB MUL PUSH2 0xF24 JUMP JUMPDEST DUP1 ISZERO PUSH2 0xF8D JUMPI DUP3 DUP2 PUSH2 0x100 EXP DUP2 SLOAD SWAP1 PUSH1 0xFF MUL NOT AND SWAP1 SSTORE PUSH1 0x1 ADD PUSH1 0x20 DUP2 PUSH0 ADD DIV SWAP3 DUP4 ADD SWAP3 PUSH1 0x1 SUB MUL PUSH2 0xF61 JUMP JUMPDEST POP JUMPDEST POP SWAP1 POP PUSH2 0xF9C SWAP2 SWAP1 PUSH2 0xFA0 JUMP JUMPDEST POP SWAP1 JUMP JUMPDEST JUMPDEST DUP1 DUP3 GT ISZERO PUSH2 0xFB7 JUMPI PUSH0 DUP2 PUSH0 SWAP1 SSTORE POP PUSH1 0x1 ADD PUSH2 0xFA1 JUMP JUMPDEST POP SWAP1 JUMP JUMPDEST PUSH0 DUP2 SWAP1 POP SWAP2 SWAP1 POP JUMP JUMPDEST PUSH2 0xFCD DUP2 PUSH2 0xFBB JUMP JUMPDEST DUP3 MSTORE POP POP JUMP JUMPDEST PUSH0 PUSH1 0x20 DUP3 ADD SWAP1 POP PUSH2 0xFE6 PUSH0 DUP4 ADD DUP5 PUSH2 0xFC4 JUMP JUMPDEST SWAP3 SWAP2 POP POP JUMP JUMPDEST PUSH0 PUSH1 0x40 MLOAD SWAP1 POP SWAP1 JUMP JUMPDEST PUSH0 DUP1 REVERT JUMPDEST PUSH2 0x1002 DUP2 PUSH2 0xFBB JUMP JUMPDEST DUP2 EQ PUSH2 0x100C JUMPI PUSH0 DUP1 REVERT JUMPDEST POP JUMP JUMPDEST PUSH0 DUP2 CALLDATALOAD SWAP1 POP PUSH2 0x101D DUP2 PUSH2 0xFF9 JUMP JUMPDEST SWAP3 SWAP2 POP POP JUMP JUMPDEST PUSH0 PUSH1 0x20 DUP3 DUP5 SUB SLT ISZERO PUSH2 0x1038 JUMPI PUSH2 0x1037 PUSH2 0xFF5 JUMP JUMPDEST JUMPDEST PUSH0 PUSH2 0x1045 DUP5 DUP3 DUP6 ADD PUSH2 0x100F JUMP JUMPDEST SWAP2 POP POP SWAP3 SWAP2 POP POP JUMP JUMPDEST PUSH0 PUSH20 0xFFFFFFFFFFFFFFFFFFFFFFFFFFFFFFFFFFFFFFFF DUP3 AND SWAP1 POP SWAP2 SWAP1 POP JUMP JUMPDEST PUSH0 PUSH2 0x1077 DUP3 PUSH2 0x104E JUMP JUMPDEST SWAP1 POP SWAP2 SWAP1 POP JUMP JUMPDEST PUSH2 0x1087 DUP2 PUSH2 0x106D JUMP JUMPDEST DUP2 EQ PUSH2 0x1091 JUMPI PUSH0 DUP1 REVERT JUMPDEST POP JUMP JUMPDEST PUSH0 DUP2 CALLDATALOAD SWAP1 POP PUSH2 0x10A2 DUP2 PUSH2 0x107E JUMP JUMPDEST SWAP3 SWAP2 POP POP JUMP JUMPDEST PUSH0 PUSH1 0x20 DUP3 DUP5 SUB SLT ISZERO PUSH2 0x10BD JUMPI PUSH2 0x10BC PUSH2 0xFF5 JUMP JUMPDEST JUMPDEST PUSH0 PUSH2 0x10CA DUP5 DUP3 DUP6 ADD PUSH2 0x1094 JUMP JUMPDEST SWAP2 POP POP SWAP3 SWAP2 POP POP JUMP JUMPDEST PUSH0 DUP2 ISZERO ISZERO SWAP1 POP SWAP2 SWAP1 POP JUMP JUMPDEST PUSH2 0x10E7 DUP2 PUSH2 0x10D3 JUMP JUMPDEST DUP3 MSTORE POP POP JUMP JUMPDEST PUSH0 PUSH1 0x20 DUP3 ADD SWAP1 POP PUSH2 0x1100 PUSH0 DUP4 ADD DUP5 PUSH2 0x10DE JUMP JUMPDEST SWAP3 SWAP2 POP POP JUMP JUMPDEST PUSH2 0x110F DUP2 PUSH2 0x106D JUMP JUMPDEST DUP3 MSTORE POP POP JUMP JUMPDEST PUSH0 PUSH1 0x20 DUP3 ADD SWAP1 POP PUSH2 0x1128 PUSH0 DUP4 ADD DUP5 PUSH2 0x1106 JUMP JUMPDEST SWAP3 SWAP2 POP POP JUMP JUMPDEST PUSH0 DUP2 MLOAD SWAP1 POP SWAP2 SWAP1 POP JUMP JUMPDEST PUSH0 DUP3 DUP3 MSTORE PUSH1 0x20 DUP3 ADD SWAP1 POP SWAP3 SWAP2 POP POP JUMP JUMPDEST PUSH0 JUMPDEST DUP4 DUP2 LT ISZERO PUSH2 0x1165 JUMPI DUP1 DUP3 ADD MLOAD DUP2 DUP5 ADD MSTORE PUSH1 0x20 DUP2 ADD SWAP1 POP PUSH2 0x114A JUMP JUMPDEST PUSH0 DUP5 DUP5 ADD MSTORE POP POP POP POP JUMP JUMPDEST PUSH0 PUSH1 0x1F NOT PUSH1 0x1F DUP4 ADD AND SWAP1 POP SWAP2 SWAP1 POP JUMP JUMPDEST PUSH0 PUSH2 0x118A DUP3 PUSH2 0x112E JUMP JUMPDEST PUSH2 0x1194 DUP2 DUP6 PUSH2 0x1138 JUMP JUMPDEST SWAP4 POP PUSH2 0x11A4 DUP2 DUP6 PUSH1 0x20 DUP7 ADD PUSH2 0x1148 JUMP JUMPDEST PUSH2 0x11AD DUP2 PUSH2 0x1170 JUMP JUMPDEST DUP5 ADD SWAP2 POP POP SWAP3 SWAP2 POP POP JUMP JUMPDEST PUSH0 PUSH1 0x20 DUP3 ADD SWAP1 POP DUP2 DUP2 SUB PUSH0 DUP4 ADD MSTORE PUSH2 0x11D0 DUP2 DUP5 PUSH2 0x1180 JUMP JUMPDEST SWAP1 POP SWAP3 SWAP2 POP POP JUMP JUMPDEST PUSH0 DUP1 REVERT JUMPDEST PUSH32 0x4E487B7100000000000000000000000000000000000000000000000000000000 PUSH0 MSTORE PUSH1 0x41 PUSH1 0x4 MSTORE PUSH1 0x24 PUSH0 REVERT JUMPDEST PUSH2 0x1212 DUP3 PUSH2 0x1170 JUMP JUMPDEST DUP2 ADD DUP2 DUP2 LT PUSH8 0xFFFFFFFFFFFFFFFF DUP3 GT OR ISZERO PUSH2 0x1231 JUMPI PUSH2 0x1230 PUSH2 0x11DC JUMP JUMPDEST JUMPDEST DUP1 PUSH1 0x40 MSTORE POP POP POP JUMP JUMPDEST PUSH0 PUSH2 0x1243 PUSH2 0xFEC JUMP JUMPDEST SWAP1 POP PUSH2 0x124F DUP3 DUP3 PUSH2 0x1209 JUMP JUMPDEST SWAP2 SWAP1 POP JUMP JUMPDEST PUSH0 PUSH8 0xFFFFFFFFFFFFFFFF DUP3 GT ISZERO PUSH2 0x126E JUMPI PUSH2 0x126D PUSH2 0x11DC JUMP JUMPDEST JUMPDEST PUSH1 0x20 DUP3 MUL SWAP1 POP SWAP2 SWAP1 POP JUMP JUMPDEST PUSH0 DUP1 REVERT JUMPDEST PUSH0 PUSH1 0xFF DUP3 AND SWAP1 POP SWAP2 SWAP1 POP JUMP JUMPDEST PUSH2 0x1292 DUP2 PUSH2 0x127D JUMP JUMPDEST DUP2 EQ PUSH2 0x129C JUMPI PUSH0 DUP1 REVERT JUMPDEST POP JUMP JUMPDEST PUSH0 DUP2 CALLDATALOAD SWAP1 POP PUSH2 0x12AD DUP2 PUSH2 0x1289 JUMP JUMPDEST SWAP3 SWAP2 POP POP JUMP JUMPDEST PUSH0 PUSH2 0x12C5 PUSH2 0x12C0 DUP5 PUSH2 0x1254 JUMP JUMPDEST PUSH2 0x123A JUMP JUMPDEST SWAP1 POP DUP1 PUSH1 0x20 DUP5 MUL DUP4 ADD DUP6 DUP2 GT ISZERO PUSH2 0x12DF JUMPI PUSH2 0x12DE PUSH2 0x1279 JUMP JUMPDEST JUMPDEST DUP4 JUMPDEST DUP2 DUP2 LT ISZERO PUSH2 0x1308 JUMPI DUP1 PUSH2 0x12F4 DUP9 DUP3 PUSH2 0x129F JUMP JUMPDEST DUP5 MSTORE PUSH1 0x20 DUP5 ADD SWAP4 POP POP PUSH1 0x20 DUP2 ADD SWAP1 POP PUSH2 0x12E1 JUMP JUMPDEST POP POP POP SWAP4 SWAP3 POP POP POP JUMP JUMPDEST PUSH0 DUP3 PUSH1 0x1F DUP4 ADD SLT PUSH2 0x1326 JUMPI PUSH2 0x1325 PUSH2 0x11D8 JUMP JUMPDEST JUMPDEST PUSH1 0x5 PUSH2 0x1333 DUP5 DUP3 DUP6 PUSH2 0x12B3 JUMP JUMPDEST SWAP2 POP POP SWAP3 SWAP2 POP POP JUMP JUMPDEST PUSH0 PUSH8 0xFFFFFFFFFFFFFFFF DUP3 GT ISZERO PUSH2 0x1356 JUMPI PUSH2 0x1355 PUSH2 0x11DC JUMP JUMPDEST JUMPDEST PUSH1 0x20 DUP3 MUL SWAP1 POP SWAP2 SWAP1 POP JUMP JUMPDEST PUSH0 PUSH2 0x1373 PUSH2 0x136E DUP5 PUSH2 0x133C JUMP JUMPDEST PUSH2 0x123A JUMP JUMPDEST SWAP1 POP DUP1 PUSH1 0x20 DUP5 MUL DUP4 ADD DUP6 DUP2 GT ISZERO PUSH2 0x138D JUMPI PUSH2 0x138C PUSH2 0x1279 JUMP JUMPDEST JUMPDEST DUP4 JUMPDEST DUP2 DUP2 LT ISZERO PUSH2 0x13B6 JUMPI DUP1 PUSH2 0x13A2 DUP9 DUP3 PUSH2 0x129F JUMP JUMPDEST DUP5 MSTORE PUSH1 0x20 DUP5 ADD SWAP4 POP POP PUSH1 0x20 DUP2 ADD SWAP1 POP PUSH2 0x138F JUMP JUMPDEST POP POP POP SWAP4 SWAP3 POP POP POP JUMP JUMPDEST PUSH0 DUP3 PUSH1 0x1F DUP4 ADD SLT PUSH2 0x13D4 JUMPI PUSH2 0x13D3 PUSH2 0x11D8 JUMP JUMPDEST JUMPDEST PUSH1 0x2 PUSH2 0x13E1 DUP5 DUP3 DUP6 PUSH2 0x1361 JUMP JUMPDEST SWAP2 POP POP SWAP3 SWAP2 POP POP JUMP JUMPDEST PUSH0 DUP1 PUSH1 0xE0 DUP4 DUP6 SUB SLT ISZERO PUSH2 0x1400 JUMPI PUSH2 0x13FF PUSH2 0xFF5 JUMP JUMPDEST JUMPDEST PUSH0 PUSH2 0x140D DUP6 DUP3 DUP7 ADD PUSH2 0x1312 JUMP JUMPDEST SWAP3 POP POP PUSH1 0xA0 PUSH2 0x141E DUP6 DUP3 DUP7 ADD PUSH2 0x13C0 JUMP JUMPDEST SWAP2 POP POP SWAP3 POP SWAP3 SWAP1 POP JUMP JUMPDEST PUSH32 0x45696E7A61686C756E6773626574726167206D7573732067726F657373657220 PUSH0 DUP3 ADD MSTORE PUSH32 0x616C732030207365696E00000000000000000000000000000000000000000000 PUSH1 0x20 DUP3 ADD MSTORE POP JUMP JUMPDEST PUSH0 PUSH2 0x1482 PUSH1 0x2A DUP4 PUSH2 0x1138 JUMP JUMPDEST SWAP2 POP PUSH2 0x148D DUP3 PUSH2 0x1428 JUMP JUMPDEST PUSH1 0x40 DUP3 ADD SWAP1 POP SWAP2 SWAP1 POP JUMP JUMPDEST PUSH0 PUSH1 0x20 DUP3 ADD SWAP1 POP DUP2 DUP2 SUB PUSH0 DUP4 ADD MSTORE PUSH2 0x14AF DUP2 PUSH2 0x1476 JUMP JUMPDEST SWAP1 POP SWAP2 SWAP1 POP JUMP JUMPDEST PUSH32 0x4E487B7100000000000000000000000000000000000000000000000000000000 PUSH0 MSTORE PUSH1 0x12 PUSH1 0x4 MSTORE PUSH1 0x24 PUSH0 REVERT JUMPDEST PUSH32 0x4E487B7100000000000000000000000000000000000000000000000000000000 PUSH0 MSTORE PUSH1 0x11 PUSH1 0x4 MSTORE PUSH1 0x24 PUSH0 REVERT JUMPDEST PUSH0 PUSH2 0x151A DUP3 PUSH2 0xFBB JUMP JUMPDEST SWAP2 POP PUSH2 0x1525 DUP4 PUSH2 0xFBB JUMP JUMPDEST SWAP3 POP DUP3 PUSH2 0x1535 JUMPI PUSH2 0x1534 PUSH2 0x14B6 JUMP JUMPDEST JUMPDEST DUP3 DUP3 DIV SWAP1 POP SWAP3 SWAP2 POP POP JUMP JUMPDEST PUSH32 0x5A7520676572696E6765722045696E7A61686C756E6773626574726167000000 PUSH0 DUP3 ADD MSTORE POP JUMP JUMPDEST PUSH0 PUSH2 0x1574 PUSH1 0x1D DUP4 PUSH2 0x1138 JUMP JUMPDEST SWAP2 POP PUSH2 0x157F DUP3 PUSH2 0x1540 JUMP JUMPDEST PUSH1 0x20 DUP3 ADD SWAP1 POP SWAP2 SWAP1 POP JUMP JUMPDEST PUSH0 PUSH1 0x20 DUP3 ADD SWAP1 POP DUP2 DUP2 SUB PUSH0 DUP4 ADD MSTORE PUSH2 0x15A1 DUP2 PUSH2 0x1568 JUMP JUMPDEST SWAP1 POP SWAP2 SWAP1 POP JUMP JUMPDEST PUSH32 0x4265726569747320616C73204D6974737069656C657220726567697374726965 PUSH0 DUP3 ADD MSTORE PUSH32 0x7274000000000000000000000000000000000000000000000000000000000000 PUSH1 0x20 DUP3 ADD MSTORE POP JUMP JUMPDEST PUSH0 PUSH2 0x1602 PUSH1 0x22 DUP4 PUSH2 0x1138 JUMP JUMPDEST SWAP2 POP PUSH2 0x160D DUP3 PUSH2 0x15A8 JUMP JUMPDEST PUSH1 0x40 DUP3 ADD SWAP1 POP SWAP2 SWAP1 POP JUMP JUMPDEST PUSH0 PUSH1 0x20 DUP3 ADD SWAP1 POP DUP2 DUP2 SUB PUSH0 DUP4 ADD MSTORE PUSH2 0x162F DUP2 PUSH2 0x15F6 JUMP JUMPDEST SWAP1 POP SWAP2 SWAP1 POP JUMP JUMPDEST PUSH32 0x4D6178696D616C65205465696C6E65686D65727A61686C206572726569636874 PUSH0 DUP3 ADD MSTORE POP JUMP JUMPDEST PUSH0 PUSH2 0x166A PUSH1 0x20 DUP4 PUSH2 0x1138 JUMP JUMPDEST SWAP2 POP PUSH2 0x1675 DUP3 PUSH2 0x1636 JUMP JUMPDEST PUSH1 0x20 DUP3 ADD SWAP1 POP SWAP2 SWAP1 POP JUMP JUMPDEST PUSH0 PUSH1 0x20 DUP3 ADD SWAP1 POP DUP2 DUP2 SUB PUSH0 DUP4 ADD MSTORE PUSH2 0x1697 DUP2 PUSH2 0x165E JUMP JUMPDEST SWAP1 POP SWAP2 SWAP1 POP JUMP JUMPDEST PUSH0 PUSH2 0x16A8 DUP3 PUSH2 0xFBB JUMP JUMPDEST SWAP2 POP PUSH2 0x16B3 DUP4 PUSH2 0xFBB JUMP JUMPDEST SWAP3 POP DUP3 DUP3 SUB SWAP1 POP DUP2 DUP2 GT ISZERO PUSH2 0x16CB JUMPI PUSH2 0x16CA PUSH2 0x14E3 JUMP JUMPDEST JUMPDEST SWAP3 SWAP2 POP POP JUMP JUMPDEST PUSH0 PUSH2 0x16DB DUP3 PUSH2 0xFBB JUMP JUMPDEST SWAP2 POP PUSH32 0xFFFFFFFFFFFFFFFFFFFFFFFFFFFFFFFFFFFFFFFFFFFFFFFFFFFFFFFFFFFFFFFF DUP3 SUB PUSH2 0x170D JUMPI PUSH2 0x170C PUSH2 0x14E3 JUMP JUMPDEST JUMPDEST PUSH1 0x1 DUP3 ADD SWAP1 POP SWAP2 SWAP1 POP JUMP JUMPDEST PUSH32 0x457320676962742062657265697473204D6974737069656C65722E2041656E64 PUSH0 DUP3 ADD MSTORE PUSH32 0x6572756E672064657220416E7A61686C20616E204D6974737069656C65726E20 PUSH1 0x20 DUP3 ADD MSTORE PUSH32 0x6E69636874206D656872206D6F65676C6963682E000000000000000000000000 PUSH1 0x40 DUP3 ADD MSTORE POP JUMP JUMPDEST PUSH0 PUSH2 0x1798 PUSH1 0x54 DUP4 PUSH2 0x1138 JUMP JUMPDEST SWAP2 POP PUSH2 0x17A3 DUP3 PUSH2 0x1718 JUMP JUMPDEST PUSH1 0x60 DUP3 ADD SWAP1 POP SWAP2 SWAP1 POP JUMP JUMPDEST PUSH0 PUSH1 0x20 DUP3 ADD SWAP1 POP DUP2 DUP2 SUB PUSH0 DUP4 ADD MSTORE PUSH2 0x17C5 DUP2 PUSH2 0x178C JUMP JUMPDEST SWAP1 POP SWAP2 SWAP1 POP JUMP JUMPDEST PUSH32 0x457320676962742062657265697473204D6974737069656C65722E2050726569 PUSH0 DUP3 ADD MSTORE PUSH32 0x7361656E646572756E67206E69636874206D656872206D6F65676C6963682E00 PUSH1 0x20 DUP3 ADD MSTORE POP JUMP JUMPDEST PUSH0 PUSH2 0x1826 PUSH1 0x3F DUP4 PUSH2 0x1138 JUMP JUMPDEST SWAP2 POP PUSH2 0x1831 DUP3 PUSH2 0x17CC JUMP JUMPDEST PUSH1 0x40 DUP3 ADD SWAP1 POP SWAP2 SWAP1 POP JUMP JUMPDEST PUSH0 PUSH1 0x20 DUP3 ADD SWAP1 POP DUP2 DUP2 SUB PUSH0 DUP4 ADD MSTORE PUSH2 0x1853 DUP2 PUSH2 0x181A JUMP JUMPDEST SWAP1 POP SWAP2 SWAP1 POP JUMP JUMPDEST PUSH32 0x4B65696E65204D6974737069656C657220766F7268616E64656E000000000000 PUSH0 DUP3 ADD MSTORE POP JUMP JUMPDEST PUSH0 PUSH2 0x188E PUSH1 0x1A DUP4 PUSH2 0x1138 JUMP JUMPDEST SWAP2 POP PUSH2 0x1899 DUP3 PUSH2 0x185A JUMP JUMPDEST PUSH1 0x20 DUP3 ADD SWAP1 POP SWAP2 SWAP1 POP JUMP JUMPDEST PUSH0 PUSH1 0x20 DUP3 ADD SWAP1 POP DUP2 DUP2 SUB PUSH0 DUP4 ADD MSTORE PUSH2 0x18BB DUP2 PUSH2 0x1882 JUMP JUMPDEST SWAP1 POP SWAP2 SWAP1 POP JUMP JUMPDEST PUSH32 0x4E6963687420616C6C65204D6974737069656C657220686162656E207465696C PUSH0 DUP3 ADD MSTORE PUSH32 0x67656E6F6D6D656E000000000000000000000000000000000000000000000000 PUSH1 0x20 DUP3 ADD MSTORE POP JUMP JUMPDEST PUSH0 PUSH2 0x191C PUSH1 0x28 DUP4 PUSH2 0x1138 JUMP JUMPDEST SWAP2 POP PUSH2 0x1927 DUP3 PUSH2 0x18C2 JUMP JUMPDEST PUSH1 0x40 DUP3 ADD SWAP1 POP SWAP2 SWAP1 POP JUMP JUMPDEST PUSH0 PUSH1 0x20 DUP3 ADD SWAP1 POP DUP2 DUP2 SUB PUSH0 DUP4 ADD MSTORE PUSH2 0x1949 DUP2 PUSH2 0x1910 JUMP JUMPDEST SWAP1 POP SWAP2 SWAP1 POP JUMP JUMPDEST PUSH32 0x4E696368742067656E756567656E6420477574686162656E2066756572204175 PUSH0 DUP3 ADD MSTORE PUSH32 0x737A61686C756E67000000000000000000000000000000000000000000000000 PUSH1 0x20 DUP3 ADD MSTORE POP JUMP JUMPDEST PUSH0 PUSH2 0x19AA PUSH1 0x28 DUP4 PUSH2 0x1138 JUMP JUMPDEST SWAP2 POP PUSH2 0x19B5 DUP3 PUSH2 0x1950 JUMP JUMPDEST PUSH1 0x40 DUP3 ADD SWAP1 POP SWAP2 SWAP1 POP JUMP JUMPDEST PUSH0 PUSH1 0x20 DUP3 ADD SWAP1 POP DUP2 DUP2 SUB PUSH0 DUP4 ADD MSTORE PUSH2 0x19D7 DUP2 PUSH2 0x199E JUMP JUMPDEST SWAP1 POP SWAP2 SWAP1 POP JUMP JUMPDEST PUSH0 PUSH2 0x19E8 DUP3 PUSH2 0xFBB JUMP JUMPDEST SWAP2 POP PUSH2 0x19F3 DUP4 PUSH2 0xFBB JUMP JUMPDEST SWAP3 POP DUP3 DUP3 ADD SWAP1 POP DUP1 DUP3 GT ISZERO PUSH2 0x1A0B JUMPI PUSH2 0x1A0A PUSH2 0x14E3 JUMP JUMPDEST JUMPDEST SWAP3 SWAP2 POP POP JUMP JUMPDEST PUSH32 0x4E487B7100000000000000000000000000000000000000000000000000000000 PUSH0 MSTORE PUSH1 0x32 PUSH1 0x4 MSTORE PUSH1 0x24 PUSH0 REVERT JUMPDEST PUSH0 DUP2 SWAP1 POP SWAP3 SWAP2 POP POP JUMP JUMPDEST POP JUMP JUMPDEST PUSH0 PUSH2 0x1A56 PUSH0 DUP4 PUSH2 0x1A3E JUMP JUMPDEST SWAP2 POP PUSH2 0x1A61 DUP3 PUSH2 0x1A48 JUMP JUMPDEST PUSH0 DUP3 ADD SWAP1 POP SWAP2 SWAP1 POP JUMP JUMPDEST PUSH0 PUSH2 0x1A75 DUP3 PUSH2 0x1A4B JUMP JUMPDEST SWAP2 POP DUP2 SWAP1 POP SWAP2 SWAP1 POP JUMP JUMPDEST PUSH32 0x4175737A61686C756E67206665686C67657363686C6167656E00000000000000 PUSH0 DUP3 ADD MSTORE POP JUMP JUMPDEST PUSH0 PUSH2 0x1AB3 PUSH1 0x19 DUP4 PUSH2 0x1138 JUMP JUMPDEST SWAP2 POP PUSH2 0x1ABE DUP3 PUSH2 0x1A7F JUMP JUMPDEST PUSH1 0x20 DUP3 ADD SWAP1 POP SWAP2 SWAP1 POP JUMP JUMPDEST PUSH0 PUSH1 0x20 DUP3 ADD SWAP1 POP DUP2 DUP2 SUB PUSH0 DUP4 ADD MSTORE PUSH2 0x1AE0 DUP2 PUSH2 0x1AA7 JUMP JUMPDEST SWAP1 POP SWAP2 SWAP1 POP JUMP JUMPDEST PUSH32 0x4E487B7100000000000000000000000000000000000000000000000000000000 PUSH0 MSTORE PUSH1 0x22 PUSH1 0x4 MSTORE PUSH1 0x24 PUSH0 REVERT JUMPDEST PUSH0 PUSH1 0x2 DUP3 DIV SWAP1 POP PUSH1 0x1 DUP3 AND DUP1 PUSH2 0x1B2B JUMPI PUSH1 0x7F DUP3 AND SWAP2 POP JUMPDEST PUSH1 0x20 DUP3 LT DUP2 SUB PUSH2 0x1B3E JUMPI PUSH2 0x1B3D PUSH2 0x1AE7 JUMP JUMPDEST JUMPDEST POP SWAP2 SWAP1 POP JUMP JUMPDEST PUSH32 0x48617570747A61686C2061757373657268616C62206465732042657265696368 PUSH0 DUP3 ADD MSTORE PUSH32 0x7300000000000000000000000000000000000000000000000000000000000000 PUSH1 0x20 DUP3 ADD MSTORE POP JUMP JUMPDEST PUSH0 PUSH2 0x1B9E PUSH1 0x21 DUP4 PUSH2 0x1138 JUMP JUMPDEST SWAP2 POP PUSH2 0x1BA9 DUP3 PUSH2 0x1B44 JUMP JUMPDEST PUSH1 0x40 DUP3 ADD SWAP1 POP SWAP2 SWAP1 POP JUMP JUMPDEST PUSH0 PUSH1 0x20 DUP3 ADD SWAP1 POP DUP2 DUP2 SUB PUSH0 DUP4 ADD MSTORE PUSH2 0x1BCB DUP2 PUSH2 0x1B92 JUMP JUMPDEST SWAP1 POP SWAP2 SWAP1 POP JUMP JUMPDEST PUSH32 0x5A757361747A7A61686C2061757373657268616C622064657320426572656963 PUSH0 DUP3 ADD MSTORE PUSH32 0x6873000000000000000000000000000000000000000000000000000000000000 PUSH1 0x20 DUP3 ADD MSTORE POP JUMP JUMPDEST PUSH0 PUSH2 0x1C2C PUSH1 0x22 DUP4 PUSH2 0x1138 JUMP JUMPDEST SWAP2 POP PUSH2 0x1C37 DUP3 PUSH2 0x1BD2 JUMP JUMPDEST PUSH1 0x40 DUP3 ADD SWAP1 POP SWAP2 SWAP1 POP JUMP JUMPDEST PUSH0 PUSH1 0x20 DUP3 ADD SWAP1 POP DUP2 DUP2 SUB PUSH0 DUP4 ADD MSTORE PUSH2 0x1C59 DUP2 PUSH2 0x1C20 JUMP JUMPDEST SWAP1 POP SWAP2 SWAP1 POP JUMP INVALID LOG2 PUSH5 0x6970667358 0x22 SLT KECCAK256 PUSH12 0x7C55759B1B4EB9F965568773 PUSH7 0x84259D423D51C4 0x2F BLOCKHASH GASLIMIT 0xB6 SMOD SWAP3 0xB2 RETURNDATACOPY ADDMOD SMOD 0xBD PUSH5 0x736F6C6343 STOP ADDMOD OR STOP CALLER LOG2 PUSH5 0x6970667358 0x22 SLT KECCAK256 0xAC PUSH14 0xD8660C708F8C1C9B07B4F8D3E340 LOG0 0xD2 0x24 SWAP8 0xD9 0x28 DUP14 CALLDATASIZE 0xB7 RETURNDATASIZE 0xE8 0xEA BALANCE KECCAK256 0xB5 0xCD PUSH5 0x736F6C6343 STOP ADDMOD OR STOP CALLER "},"gasEstimates":{"creation":{"codeDepositCost":"2460000","executionCost":"2648","totalCost":"2462648"},"external":{"getGegruendeteLottogemeinschaften()":"infinite","gruendeLottogemeinschaft(string,uint256,uint256)":"infinite","lottogemeinschaften(uint256)":"4987","lottogemeinschaftsnamen(uint256)":"infinite","lottogemeinschaftsnamenmapping(string)":"infinite"}},"methodIdentifiers":{"getGegruendeteLottogemeinschaften()":"535da87c","gruendeLottogemeinschaft(string,uint256,uint256)":"fbc7f11e","lottogemeinschaften(uint256)":"fb670056","lottogemeinschaftsnamen(uint256)":"ad6eb6d9","lottogemeinschaftsnamenmapping(string)":"95097fe1"}},"storageLayout":{"storage":[{"astId":4,"contract":"Lottogemeinschaft.sol:LottogemeinschaftFabrik","label":"lottogemeinschaften","offset":0,"slot":"0","type":"t_array(t_address_payable)dyn_storage"},{"astId":7,"contract":"Lottogemeinschaft.sol:LottogemeinschaftFabrik","label":"lottogemeinschaftsnamen","offset":0,"slot":"1","type":"t_array(t_string_storage)dyn_storage"},{"astId":11,"contract":"Lottogemeinschaft.sol:LottogemeinschaftFabrik","label":"lottogemeinschaftsnamenmapping","offset":0,"slot":"2","type":"t_mapping(t_string_memory_ptr,t_address)"}],"types":{"t_address":{"encoding":"inplace","label":"address","numberOfBytes":"20"},"t_address_payable":{"encoding":"inplace","label":"address payable","numberOfBytes":"20"},"t_array(t_address_payable)dyn_storage":{"base":"t_address_payable","encoding":"dynamic_array","label":"address payable[]","numberOfBytes":"32"},"t_array(t_string_storage)dyn_storage":{"base":"t_string_storage","encoding":"dynamic_array","label":"string[]","numberOfBytes":"32"},"t_mapping(t_string_memory_ptr,t_address)":{"encoding":"mapping","key":"t_string_memory_ptr","label":"mapping(string => address)","numberOfBytes":"32","value":"t_address"},"t_string_memory_ptr":{"encoding":"bytes","label":"string","numberOfBytes":"32"},"t_string_storage":{"encoding":"bytes","label":"string","numberOfBytes":"32"}}},"userdoc":{"kind":"user","methods":{},"version":1}}