{"abi":[{"anonymous":false,"inputs":[{"indexed":false,"internalType":"string","name":"message","type":"string"}],"name":"FehlerBeimGruenden","type":"event"},{"anonymous":false,"inputs":[{"indexed":false,"internalType":"address","name":"lottogemeinschaftAdresse","type":"address"},{"indexed":false,"internalType":"string","name":"name","type":"string"}],"name":"LottogemeinschaftGegruendet","type":"event"},{"inputs":[],"name":"getGegruendeteLottogemeinschaften","outputs":[{"internalType":"address payable[]","name":"","type":"address[]"}],"stateMutability":"view","type":"function"},{"inputs":[],"name":"getLottogemeinschaftsnamen","outputs":[{"internalType":"string[]","name":"","type":"string[]"}],"stateMutability":"view","type":"function"},{"inputs":[{"internalType":"string","name":"name","type":"string"},{"internalType":"uint16","name":"anzahl","type":"uint16"},{"internalType":"uint32","name":"preis","type":"uint32"},{"internalType":"uint48","name":"scheinNummer","type":"uint48"},{"internalType":"bool","name":"mitspielerBestimmen","type":"bool"}],"name":"gruendeLottogemeinschaft","outputs":[],"stateMutability":"nonpayable","type":"function"},{"inputs":[{"internalType":"uint256","name":"","type":"uint256"}],"name":"lottogemeinschaften","outputs":[{"internalType":"address payable","name":"","type":"address"}],"stateMutability":"view","type":"function"},{"inputs":[{"internalType":"uint256","name":"","type":"uint256"}],"name":"lottogemeinschaftsnamen","outputs":[{"internalType":"string","name":"","type":"string"}],"stateMutability":"view","type":"function"},{"inputs":[{"internalType":"string","name":"","type":"string"}],"name":"lottogemeinschaftsnamenmapping","outputs":[{"internalType":"address","name":"","type":"address"}],"stateMutability":"view","type":"function"}],"devdoc":{"kind":"dev","methods":{},"version":1},"evm":{"assembly":"    /* \"Lottogemeinschaft.sol\":70:1657  contract LottogemeinschaftFabrik{... */\n  mstore(0x40, 0x80)\n  callvalue\n  dup1\n  iszero\n  tag_1\n  jumpi\n  0x00\n  dup1\n  revert\ntag_1:\n  pop\n  dataSize(sub_0)\n  dup1\n  dataOffset(sub_0)\n  0x00\n  codecopy\n  0x00\n  return\nstop\n\nsub_0: assembly {\n        /* \"Lottogemeinschaft.sol\":70:1657  contract LottogemeinschaftFabrik{... */\n      mstore(0x40, 0x80)\n      callvalue\n      dup1\n      iszero\n      tag_1\n      jumpi\n      0x00\n      dup1\n      revert\n    tag_1:\n      pop\n      jumpi(tag_2, lt(calldatasize, 0x04))\n      shr(0xe0, calldataload(0x00))\n      dup1\n      0x33abbcbc\n      eq\n      tag_3\n      jumpi\n      dup1\n      0x4fd6f68c\n      eq\n      tag_4\n      jumpi\n      dup1\n      0x535da87c\n      eq\n      tag_5\n      jumpi\n      dup1\n      0x95097fe1\n      eq\n      tag_6\n      jumpi\n      dup1\n      0xad6eb6d9\n      eq\n      tag_7\n      jumpi\n      dup1\n      0xfb670056\n      eq\n      tag_8\n      jumpi\n    tag_2:\n      0x00\n      dup1\n      revert\n        /* \"Lottogemeinschaft.sol\":1532:1655  function getLottogemeinschaftsnamen() public view returns (string[] memory) {... */\n    tag_3:\n      tag_9\n      tag_10\n      jump\t// in\n    tag_9:\n      mload(0x40)\n      tag_11\n      swap2\n      swap1\n      tag_12\n      jump\t// in\n    tag_11:\n      mload(0x40)\n      dup1\n      swap2\n      sub\n      swap1\n      return\n        /* \"Lottogemeinschaft.sol\":443:1385  function gruendeLottogemeinschaft (string memory name, uint16 anzahl, uint32 preis, uint48 scheinNummer, bool mitspielerBestimmen) public {... */\n    tag_4:\n      tag_13\n      0x04\n      dup1\n      calldatasize\n      sub\n      dup2\n      add\n      swap1\n      tag_14\n      swap2\n      swap1\n      tag_15\n      jump\t// in\n    tag_14:\n      tag_16\n      jump\t// in\n    tag_13:\n      stop\n        /* \"Lottogemeinschaft.sol\":1391:1526  function getGegruendeteLottogemeinschaften() public view returns (address payable[] memory) {... */\n    tag_5:\n      tag_17\n      tag_18\n      jump\t// in\n    tag_17:\n      mload(0x40)\n      tag_19\n      swap2\n      swap1\n      tag_20\n      jump\t// in\n    tag_19:\n      mload(0x40)\n      dup1\n      swap2\n      sub\n      swap1\n      return\n        /* \"Lottogemeinschaft.sol\":372:436  mapping(string => address) public lottogemeinschaftsnamenmapping */\n    tag_6:\n      tag_21\n      0x04\n      dup1\n      calldatasize\n      sub\n      dup2\n      add\n      swap1\n      tag_22\n      swap2\n      swap1\n      tag_23\n      jump\t// in\n    tag_22:\n      tag_24\n      jump\t// in\n    tag_21:\n      mload(0x40)\n      tag_25\n      swap2\n      swap1\n      tag_26\n      jump\t// in\n    tag_25:\n      mload(0x40)\n      dup1\n      swap2\n      sub\n      swap1\n      return\n        /* \"Lottogemeinschaft.sol\":327:366  string[] public lottogemeinschaftsnamen */\n    tag_7:\n      tag_27\n      0x04\n      dup1\n      calldatasize\n      sub\n      dup2\n      add\n      swap1\n      tag_28\n      swap2\n      swap1\n      tag_29\n      jump\t// in\n    tag_28:\n      tag_30\n      jump\t// in\n    tag_27:\n      mload(0x40)\n      tag_31\n      swap2\n      swap1\n      tag_32\n      jump\t// in\n    tag_31:\n      mload(0x40)\n      dup1\n      swap2\n      sub\n      swap1\n      return\n        /* \"Lottogemeinschaft.sol\":277:321  address payable[] public lottogemeinschaften */\n    tag_8:\n      tag_33\n      0x04\n      dup1\n      calldatasize\n      sub\n      dup2\n      add\n      swap1\n      tag_34\n      swap2\n      swap1\n      tag_29\n      jump\t// in\n    tag_34:\n      tag_35\n      jump\t// in\n    tag_33:\n      mload(0x40)\n      tag_36\n      swap2\n      swap1\n      tag_37\n      jump\t// in\n    tag_36:\n      mload(0x40)\n      dup1\n      swap2\n      sub\n      swap1\n      return\n        /* \"Lottogemeinschaft.sol\":1532:1655  function getLottogemeinschaftsnamen() public view returns (string[] memory) {... */\n    tag_10:\n        /* \"Lottogemeinschaft.sol\":1591:1606  string[] memory */\n      0x60\n        /* \"Lottogemeinschaft.sol\":1625:1648  lottogemeinschaftsnamen */\n      0x01\n        /* \"Lottogemeinschaft.sol\":1618:1648  return lottogemeinschaftsnamen */\n      dup1\n      sload\n      dup1\n      0x20\n      mul\n      0x20\n      add\n      mload(0x40)\n      swap1\n      dup2\n      add\n      0x40\n      mstore\n      dup1\n      swap3\n      swap2\n      swap1\n      dup2\n      dup2\n      mstore\n      0x20\n      add\n      0x00\n      swap1\n    tag_39:\n      dup3\n      dup3\n      lt\n      iszero\n      tag_40\n      jumpi\n      dup4\n      dup3\n      swap1\n      0x00\n      mstore\n      keccak256(0x00, 0x20)\n      add\n      dup1\n      sload\n      tag_42\n      swap1\n      tag_43\n      jump\t// in\n    tag_42:\n      dup1\n      0x1f\n      add\n      0x20\n      dup1\n      swap2\n      div\n      mul\n      0x20\n      add\n      mload(0x40)\n      swap1\n      dup2\n      add\n      0x40\n      mstore\n      dup1\n      swap3\n      swap2\n      swap1\n      dup2\n      dup2\n      mstore\n      0x20\n      add\n      dup3\n      dup1\n      sload\n      tag_44\n      swap1\n      tag_43\n      jump\t// in\n    tag_44:\n      dup1\n      iszero\n      tag_45\n      jumpi\n      dup1\n      0x1f\n      lt\n      tag_46\n      jumpi\n      0x0100\n      dup1\n      dup4\n      sload\n      div\n      mul\n      dup4\n      mstore\n      swap2\n      0x20\n      add\n      swap2\n      jump(tag_45)\n    tag_46:\n      dup3\n      add\n      swap2\n      swap1\n      0x00\n      mstore\n      keccak256(0x00, 0x20)\n      swap1\n    tag_47:\n      dup2\n      sload\n      dup2\n      mstore\n      swap1\n      0x01\n      add\n      swap1\n      0x20\n      add\n      dup1\n      dup4\n      gt\n      tag_47\n      jumpi\n      dup3\n      swap1\n      sub\n      0x1f\n      and\n      dup3\n      add\n      swap2\n    tag_45:\n      pop\n      pop\n      pop\n      pop\n      pop\n      dup2\n      mstore\n      0x20\n      add\n      swap1\n      0x01\n      add\n      swap1\n      jump(tag_39)\n    tag_40:\n      pop\n      pop\n      pop\n      pop\n      swap1\n      pop\n        /* \"Lottogemeinschaft.sol\":1532:1655  function getLottogemeinschaftsnamen() public view returns (string[] memory) {... */\n      swap1\n      jump\t// out\n        /* \"Lottogemeinschaft.sol\":443:1385  function gruendeLottogemeinschaft (string memory name, uint16 anzahl, uint32 preis, uint48 scheinNummer, bool mitspielerBestimmen) public {... */\n    tag_16:\n        /* \"Lottogemeinschaft.sol\":616:617  0 */\n      0x00\n        /* \"Lottogemeinschaft.sol\":601:605  name */\n      dup6\n        /* \"Lottogemeinschaft.sol\":595:613  bytes(name).length */\n      mload\n        /* \"Lottogemeinschaft.sol\":595:617  bytes(name).length > 0 */\n      gt\n        /* \"Lottogemeinschaft.sol\":587:647  require(bytes(name).length > 0, \"Name darf nicht leer sein\") */\n      tag_49\n      jumpi\n      mload(0x40)\n      0x08c379a000000000000000000000000000000000000000000000000000000000\n      dup2\n      mstore\n      0x04\n      add\n      tag_50\n      swap1\n      tag_51\n      jump\t// in\n    tag_50:\n      mload(0x40)\n      dup1\n      swap2\n      sub\n      swap1\n      revert\n    tag_49:\n        /* \"Lottogemeinschaft.sol\":670:671  0 */\n      0x00\n        /* \"Lottogemeinschaft.sol\":661:667  anzahl */\n      dup5\n        /* \"Lottogemeinschaft.sol\":661:671  anzahl > 0 */\n      0xffff\n      and\n      gt\n        /* \"Lottogemeinschaft.sol\":653:707  require(anzahl > 0, \"Anzahl muss groesser als 0 sein\") */\n      tag_52\n      jumpi\n      mload(0x40)\n      0x08c379a000000000000000000000000000000000000000000000000000000000\n      dup2\n      mstore\n      0x04\n      add\n      tag_53\n      swap1\n      tag_54\n      jump\t// in\n    tag_53:\n      mload(0x40)\n      dup1\n      swap2\n      sub\n      swap1\n      revert\n    tag_52:\n        /* \"Lottogemeinschaft.sol\":730:735  65535 */\n      0xffff\n        /* \"Lottogemeinschaft.sol\":721:727  anzahl */\n      dup5\n        /* \"Lottogemeinschaft.sol\":721:735  anzahl < 65535 */\n      0xffff\n      and\n      lt\n        /* \"Lottogemeinschaft.sol\":713:774  require(anzahl < 65535, \"Anzahl muss kleiner als 65535 sein\") */\n      tag_55\n      jumpi\n      mload(0x40)\n      0x08c379a000000000000000000000000000000000000000000000000000000000\n      dup2\n      mstore\n      0x04\n      add\n      tag_56\n      swap1\n      tag_57\n      jump\t// in\n    tag_56:\n      mload(0x40)\n      dup1\n      swap2\n      sub\n      swap1\n      revert\n    tag_55:\n        /* \"Lottogemeinschaft.sol\":796:797  0 */\n      0x00\n        /* \"Lottogemeinschaft.sol\":788:793  preis */\n      dup4\n        /* \"Lottogemeinschaft.sol\":788:797  preis > 0 */\n      0xffffffff\n      and\n      gt\n        /* \"Lottogemeinschaft.sol\":780:832  require(preis > 0, \"Preis muss groesser als 0 sein\") */\n      tag_58\n      jumpi\n      mload(0x40)\n      0x08c379a000000000000000000000000000000000000000000000000000000000\n      dup2\n      mstore\n      0x04\n      add\n      tag_59\n      swap1\n      tag_60\n      jump\t// in\n    tag_59:\n      mload(0x40)\n      dup1\n      swap2\n      sub\n      swap1\n      revert\n    tag_58:\n        /* \"Lottogemeinschaft.sol\":854:864  4294967295 */\n      0xffffffff\n        /* \"Lottogemeinschaft.sol\":846:851  preis */\n      dup4\n        /* \"Lottogemeinschaft.sol\":846:864  preis < 4294967295 */\n      0xffffffff\n      and\n      lt\n        /* \"Lottogemeinschaft.sol\":838:907  require(preis < 4294967295, \"Preis muss kleiner als 4294967295 sein\") */\n      tag_61\n      jumpi\n      mload(0x40)\n      0x08c379a000000000000000000000000000000000000000000000000000000000\n      dup2\n      mstore\n      0x04\n      add\n      tag_62\n      swap1\n      tag_63\n      jump\t// in\n    tag_62:\n      mload(0x40)\n      dup1\n      swap2\n      sub\n      swap1\n      revert\n    tag_61:\n        /* \"Lottogemeinschaft.sol\":936:951  281474976710655 */\n      0xffffffffffff\n        /* \"Lottogemeinschaft.sol\":921:933  scheinNummer */\n      dup3\n        /* \"Lottogemeinschaft.sol\":921:951  scheinNummer < 281474976710655 */\n      0xffffffffffff\n      and\n      lt\n        /* \"Lottogemeinschaft.sol\":913:1009  require(scheinNummer < 281474976710655, \"ScheinNummer muss zwischen 0 und 281474976710655 sein\") */\n      tag_64\n      jumpi\n      mload(0x40)\n      0x08c379a000000000000000000000000000000000000000000000000000000000\n      dup2\n      mstore\n      0x04\n      add\n      tag_65\n      swap1\n      tag_66\n      jump\t// in\n    tag_65:\n      mload(0x40)\n      dup1\n      swap2\n      sub\n      swap1\n      revert\n    tag_64:\n        /* \"Lottogemeinschaft.sol\":1016:1045  address neueLottogemeinschaft */\n      0x00\n        /* \"Lottogemeinschaft.sol\":1078:1082  name */\n      dup6\n        /* \"Lottogemeinschaft.sol\":1084:1094  msg.sender */\n      caller\n        /* \"Lottogemeinschaft.sol\":1096:1102  anzahl */\n      dup7\n        /* \"Lottogemeinschaft.sol\":1104:1109  preis */\n      dup7\n        /* \"Lottogemeinschaft.sol\":1111:1123  scheinNummer */\n      dup7\n        /* \"Lottogemeinschaft.sol\":1125:1144  mitspielerBestimmen */\n      dup7\n        /* \"Lottogemeinschaft.sol\":1056:1145  new Lottogemeinschaft(name, msg.sender, anzahl, preis, scheinNummer, mitspielerBestimmen) */\n      mload(0x40)\n      tag_67\n      swap1\n      tag_68\n      jump\t// in\n    tag_67:\n      tag_69\n      swap7\n      swap6\n      swap5\n      swap4\n      swap3\n      swap2\n      swap1\n      tag_70\n      jump\t// in\n    tag_69:\n      mload(0x40)\n      dup1\n      swap2\n      sub\n      swap1\n      0x00\n      create\n      dup1\n      iszero\n      dup1\n      iszero\n      tag_71\n      jumpi\n      returndatasize\n      0x00\n      dup1\n      returndatacopy\n      revert(0x00, returndatasize)\n    tag_71:\n      pop\n        /* \"Lottogemeinschaft.sol\":1016:1146  address neueLottogemeinschaft = address(new Lottogemeinschaft(name, msg.sender, anzahl, preis, scheinNummer, mitspielerBestimmen)) */\n      swap1\n      pop\n        /* \"Lottogemeinschaft.sol\":1152:1171  lottogemeinschaften */\n      0x00\n        /* \"Lottogemeinschaft.sol\":1185:1206  neueLottogemeinschaft */\n      dup2\n        /* \"Lottogemeinschaft.sol\":1152:1208  lottogemeinschaften.push(payable(neueLottogemeinschaft)) */\n      swap1\n      dup1\n      0x01\n      dup2\n      sload\n      add\n      dup1\n      dup3\n      sstore\n      dup1\n      swap2\n      pop\n      pop\n      0x01\n      swap1\n      sub\n      swap1\n      0x00\n      mstore\n      keccak256(0x00, 0x20)\n      add\n      0x00\n      swap1\n      swap2\n      swap1\n      swap2\n      swap1\n      swap2\n      0x0100\n      exp\n      dup2\n      sload\n      dup2\n      0xffffffffffffffffffffffffffffffffffffffff\n      mul\n      not\n      and\n      swap1\n      dup4\n      0xffffffffffffffffffffffffffffffffffffffff\n      and\n      mul\n      or\n      swap1\n      sstore\n      pop\n        /* \"Lottogemeinschaft.sol\":1214:1237  lottogemeinschaftsnamen */\n      0x01\n        /* \"Lottogemeinschaft.sol\":1243:1247  name */\n      dup7\n        /* \"Lottogemeinschaft.sol\":1214:1248  lottogemeinschaftsnamen.push(name) */\n      swap1\n      dup1\n      0x01\n      dup2\n      sload\n      add\n      dup1\n      dup3\n      sstore\n      dup1\n      swap2\n      pop\n      pop\n      0x01\n      swap1\n      sub\n      swap1\n      0x00\n      mstore\n      keccak256(0x00, 0x20)\n      add\n      0x00\n      swap1\n      swap2\n      swap1\n      swap2\n      swap1\n      swap2\n      pop\n      swap1\n      dup2\n      tag_74\n      swap2\n      swap1\n      tag_75\n      jump\t// in\n    tag_74:\n      pop\n        /* \"Lottogemeinschaft.sol\":1293:1314  neueLottogemeinschaft */\n      dup1\n        /* \"Lottogemeinschaft.sol\":1254:1284  lottogemeinschaftsnamenmapping */\n      0x02\n        /* \"Lottogemeinschaft.sol\":1285:1289  name */\n      dup8\n        /* \"Lottogemeinschaft.sol\":1254:1290  lottogemeinschaftsnamenmapping[name] */\n      mload(0x40)\n      tag_76\n      swap2\n      swap1\n      tag_77\n      jump\t// in\n    tag_76:\n      swap1\n      dup2\n      mstore\n      0x20\n      add\n      mload(0x40)\n      dup1\n      swap2\n      sub\n      swap1\n      keccak256\n      0x00\n        /* \"Lottogemeinschaft.sol\":1254:1314  lottogemeinschaftsnamenmapping[name] = neueLottogemeinschaft */\n      0x0100\n      exp\n      dup2\n      sload\n      dup2\n      0xffffffffffffffffffffffffffffffffffffffff\n      mul\n      not\n      and\n      swap1\n      dup4\n      0xffffffffffffffffffffffffffffffffffffffff\n      and\n      mul\n      or\n      swap1\n      sstore\n      pop\n        /* \"Lottogemeinschaft.sol\":1326:1382  LottogemeinschaftGegruendet(neueLottogemeinschaft, name) */\n      0x5f745e716eea01cc31d0e70c2af2ecc8792f321db40cbcd16b2c9d2ae97cb5f2\n        /* \"Lottogemeinschaft.sol\":1354:1375  neueLottogemeinschaft */\n      dup2\n        /* \"Lottogemeinschaft.sol\":1377:1381  name */\n      dup8\n        /* \"Lottogemeinschaft.sol\":1326:1382  LottogemeinschaftGegruendet(neueLottogemeinschaft, name) */\n      mload(0x40)\n      tag_78\n      swap3\n      swap2\n      swap1\n      tag_79\n      jump\t// in\n    tag_78:\n      mload(0x40)\n      dup1\n      swap2\n      sub\n      swap1\n      log1\n        /* \"Lottogemeinschaft.sol\":581:1385  {... */\n      pop\n        /* \"Lottogemeinschaft.sol\":443:1385  function gruendeLottogemeinschaft (string memory name, uint16 anzahl, uint32 preis, uint48 scheinNummer, bool mitspielerBestimmen) public {... */\n      pop\n      pop\n      pop\n      pop\n      pop\n      jump\t// out\n        /* \"Lottogemeinschaft.sol\":1391:1526  function getGegruendeteLottogemeinschaften() public view returns (address payable[] memory) {... */\n    tag_18:\n        /* \"Lottogemeinschaft.sol\":1457:1481  address payable[] memory */\n      0x60\n        /* \"Lottogemeinschaft.sol\":1500:1519  lottogemeinschaften */\n      0x00\n        /* \"Lottogemeinschaft.sol\":1493:1519  return lottogemeinschaften */\n      dup1\n      sload\n      dup1\n      0x20\n      mul\n      0x20\n      add\n      mload(0x40)\n      swap1\n      dup2\n      add\n      0x40\n      mstore\n      dup1\n      swap3\n      swap2\n      swap1\n      dup2\n      dup2\n      mstore\n      0x20\n      add\n      dup3\n      dup1\n      sload\n      dup1\n      iszero\n      tag_81\n      jumpi\n      0x20\n      mul\n      dup3\n      add\n      swap2\n      swap1\n      0x00\n      mstore\n      keccak256(0x00, 0x20)\n      swap1\n    tag_82:\n      dup2\n      0x00\n      swap1\n      sload\n      swap1\n      0x0100\n      exp\n      swap1\n      div\n      0xffffffffffffffffffffffffffffffffffffffff\n      and\n      0xffffffffffffffffffffffffffffffffffffffff\n      and\n      dup2\n      mstore\n      0x20\n      add\n      swap1\n      0x01\n      add\n      swap1\n      dup1\n      dup4\n      gt\n      tag_82\n      jumpi\n    tag_81:\n      pop\n      pop\n      pop\n      pop\n      pop\n      swap1\n      pop\n        /* \"Lottogemeinschaft.sol\":1391:1526  function getGegruendeteLottogemeinschaften() public view returns (address payable[] memory) {... */\n      swap1\n      jump\t// out\n        /* \"Lottogemeinschaft.sol\":372:436  mapping(string => address) public lottogemeinschaftsnamenmapping */\n    tag_24:\n      0x02\n      dup2\n      dup1\n      mload\n      0x20\n      dup2\n      add\n      dup3\n      add\n      dup1\n      mload\n      dup5\n      dup3\n      mstore\n      0x20\n      dup4\n      add\n      0x20\n      dup6\n      add\n      keccak256\n      dup2\n      dup4\n      mstore\n      dup1\n      swap6\n      pop\n      pop\n      pop\n      pop\n      pop\n      pop\n      0x00\n      swap2\n      pop\n      sload\n      swap1\n      0x0100\n      exp\n      swap1\n      div\n      0xffffffffffffffffffffffffffffffffffffffff\n      and\n      dup2\n      jump\t// out\n        /* \"Lottogemeinschaft.sol\":327:366  string[] public lottogemeinschaftsnamen */\n    tag_30:\n      0x01\n      dup2\n      dup2\n      sload\n      dup2\n      lt\n      tag_83\n      jumpi\n      0x00\n      dup1\n      revert\n    tag_83:\n      swap1\n      0x00\n      mstore\n      keccak256(0x00, 0x20)\n      add\n      0x00\n      swap2\n      pop\n      swap1\n      pop\n      dup1\n      sload\n      tag_85\n      swap1\n      tag_43\n      jump\t// in\n    tag_85:\n      dup1\n      0x1f\n      add\n      0x20\n      dup1\n      swap2\n      div\n      mul\n      0x20\n      add\n      mload(0x40)\n      swap1\n      dup2\n      add\n      0x40\n      mstore\n      dup1\n      swap3\n      swap2\n      swap1\n      dup2\n      dup2\n      mstore\n      0x20\n      add\n      dup3\n      dup1\n      sload\n      tag_86\n      swap1\n      tag_43\n      jump\t// in\n    tag_86:\n      dup1\n      iszero\n      tag_87\n      jumpi\n      dup1\n      0x1f\n      lt\n      tag_88\n      jumpi\n      0x0100\n      dup1\n      dup4\n      sload\n      div\n      mul\n      dup4\n      mstore\n      swap2\n      0x20\n      add\n      swap2\n      jump(tag_87)\n    tag_88:\n      dup3\n      add\n      swap2\n      swap1\n      0x00\n      mstore\n      keccak256(0x00, 0x20)\n      swap1\n    tag_89:\n      dup2\n      sload\n      dup2\n      mstore\n      swap1\n      0x01\n      add\n      swap1\n      0x20\n      add\n      dup1\n      dup4\n      gt\n      tag_89\n      jumpi\n      dup3\n      swap1\n      sub\n      0x1f\n      and\n      dup3\n      add\n      swap2\n    tag_87:\n      pop\n      pop\n      pop\n      pop\n      pop\n      dup2\n      jump\t// out\n        /* \"Lottogemeinschaft.sol\":277:321  address payable[] public lottogemeinschaften */\n    tag_35:\n      0x00\n      dup2\n      dup2\n      sload\n      dup2\n      lt\n      tag_90\n      jumpi\n      0x00\n      dup1\n      revert\n    tag_90:\n      swap1\n      0x00\n      mstore\n      keccak256(0x00, 0x20)\n      add\n      0x00\n      swap2\n      pop\n      sload\n      swap1\n      0x0100\n      exp\n      swap1\n      div\n      0xffffffffffffffffffffffffffffffffffffffff\n      and\n      dup2\n      jump\t// out\n    tag_68:\n      dataSize(sub_0)\n      dup1\n      dataOffset(sub_0)\n      dup4\n      codecopy\n      add\n      swap1\n      jump\t// out\n        /* \"#utility.yul\":7:131   */\n    tag_92:\n        /* \"#utility.yul\":84:90   */\n      0x00\n        /* \"#utility.yul\":118:123   */\n      dup2\n        /* \"#utility.yul\":112:124   */\n      mload\n        /* \"#utility.yul\":102:124   */\n      swap1\n      pop\n        /* \"#utility.yul\":7:131   */\n      swap2\n      swap1\n      pop\n      jump\t// out\n        /* \"#utility.yul\":137:331   */\n    tag_93:\n        /* \"#utility.yul\":246:257   */\n      0x00\n        /* \"#utility.yul\":280:286   */\n      dup3\n        /* \"#utility.yul\":275:278   */\n      dup3\n        /* \"#utility.yul\":268:287   */\n      mstore\n        /* \"#utility.yul\":320:324   */\n      0x20\n        /* \"#utility.yul\":315:318   */\n      dup3\n        /* \"#utility.yul\":311:325   */\n      add\n        /* \"#utility.yul\":296:325   */\n      swap1\n      pop\n        /* \"#utility.yul\":137:331   */\n      swap3\n      swap2\n      pop\n      pop\n      jump\t// out\n        /* \"#utility.yul\":337:479   */\n    tag_94:\n        /* \"#utility.yul\":414:418   */\n      0x00\n        /* \"#utility.yul\":437:440   */\n      dup2\n        /* \"#utility.yul\":429:440   */\n      swap1\n      pop\n        /* \"#utility.yul\":467:471   */\n      0x20\n        /* \"#utility.yul\":462:465   */\n      dup3\n        /* \"#utility.yul\":458:472   */\n      add\n        /* \"#utility.yul\":450:472   */\n      swap1\n      pop\n        /* \"#utility.yul\":337:479   */\n      swap2\n      swap1\n      pop\n      jump\t// out\n        /* \"#utility.yul\":485:584   */\n    tag_95:\n        /* \"#utility.yul\":537:543   */\n      0x00\n        /* \"#utility.yul\":571:576   */\n      dup2\n        /* \"#utility.yul\":565:577   */\n      mload\n        /* \"#utility.yul\":555:577   */\n      swap1\n      pop\n        /* \"#utility.yul\":485:584   */\n      swap2\n      swap1\n      pop\n      jump\t// out\n        /* \"#utility.yul\":590:749   */\n    tag_96:\n        /* \"#utility.yul\":664:675   */\n      0x00\n        /* \"#utility.yul\":698:704   */\n      dup3\n        /* \"#utility.yul\":693:696   */\n      dup3\n        /* \"#utility.yul\":686:705   */\n      mstore\n        /* \"#utility.yul\":738:742   */\n      0x20\n        /* \"#utility.yul\":733:736   */\n      dup3\n        /* \"#utility.yul\":729:743   */\n      add\n        /* \"#utility.yul\":714:743   */\n      swap1\n      pop\n        /* \"#utility.yul\":590:749   */\n      swap3\n      swap2\n      pop\n      pop\n      jump\t// out\n        /* \"#utility.yul\":755:1001   */\n    tag_97:\n        /* \"#utility.yul\":836:837   */\n      0x00\n        /* \"#utility.yul\":846:959   */\n    tag_185:\n        /* \"#utility.yul\":860:866   */\n      dup4\n        /* \"#utility.yul\":857:858   */\n      dup2\n        /* \"#utility.yul\":854:867   */\n      lt\n        /* \"#utility.yul\":846:959   */\n      iszero\n      tag_187\n      jumpi\n        /* \"#utility.yul\":945:946   */\n      dup1\n        /* \"#utility.yul\":940:943   */\n      dup3\n        /* \"#utility.yul\":936:947   */\n      add\n        /* \"#utility.yul\":930:948   */\n      mload\n        /* \"#utility.yul\":926:927   */\n      dup2\n        /* \"#utility.yul\":921:924   */\n      dup5\n        /* \"#utility.yul\":917:928   */\n      add\n        /* \"#utility.yul\":910:949   */\n      mstore\n        /* \"#utility.yul\":882:884   */\n      0x20\n        /* \"#utility.yul\":879:880   */\n      dup2\n        /* \"#utility.yul\":875:885   */\n      add\n        /* \"#utility.yul\":870:885   */\n      swap1\n      pop\n        /* \"#utility.yul\":846:959   */\n      jump(tag_185)\n    tag_187:\n        /* \"#utility.yul\":993:994   */\n      0x00\n        /* \"#utility.yul\":984:990   */\n      dup5\n        /* \"#utility.yul\":979:982   */\n      dup5\n        /* \"#utility.yul\":975:991   */\n      add\n        /* \"#utility.yul\":968:995   */\n      mstore\n        /* \"#utility.yul\":817:1001   */\n      pop\n        /* \"#utility.yul\":755:1001   */\n      pop\n      pop\n      pop\n      jump\t// out\n        /* \"#utility.yul\":1007:1109   */\n    tag_98:\n        /* \"#utility.yul\":1048:1054   */\n      0x00\n        /* \"#utility.yul\":1099:1101   */\n      0x1f\n        /* \"#utility.yul\":1095:1102   */\n      not\n        /* \"#utility.yul\":1090:1092   */\n      0x1f\n        /* \"#utility.yul\":1083:1088   */\n      dup4\n        /* \"#utility.yul\":1079:1093   */\n      add\n        /* \"#utility.yul\":1075:1103   */\n      and\n        /* \"#utility.yul\":1065:1103   */\n      swap1\n      pop\n        /* \"#utility.yul\":1007:1109   */\n      swap2\n      swap1\n      pop\n      jump\t// out\n        /* \"#utility.yul\":1115:1472   */\n    tag_99:\n        /* \"#utility.yul\":1193:1196   */\n      0x00\n        /* \"#utility.yul\":1221:1260   */\n      tag_190\n        /* \"#utility.yul\":1254:1259   */\n      dup3\n        /* \"#utility.yul\":1221:1260   */\n      tag_95\n      jump\t// in\n    tag_190:\n        /* \"#utility.yul\":1276:1337   */\n      tag_191\n        /* \"#utility.yul\":1330:1336   */\n      dup2\n        /* \"#utility.yul\":1325:1328   */\n      dup6\n        /* \"#utility.yul\":1276:1337   */\n      tag_96\n      jump\t// in\n    tag_191:\n        /* \"#utility.yul\":1269:1337   */\n      swap4\n      pop\n        /* \"#utility.yul\":1346:1411   */\n      tag_192\n        /* \"#utility.yul\":1404:1410   */\n      dup2\n        /* \"#utility.yul\":1399:1402   */\n      dup6\n        /* \"#utility.yul\":1392:1396   */\n      0x20\n        /* \"#utility.yul\":1385:1390   */\n      dup7\n        /* \"#utility.yul\":1381:1397   */\n      add\n        /* \"#utility.yul\":1346:1411   */\n      tag_97\n      jump\t// in\n    tag_192:\n        /* \"#utility.yul\":1436:1465   */\n      tag_193\n        /* \"#utility.yul\":1458:1464   */\n      dup2\n        /* \"#utility.yul\":1436:1465   */\n      tag_98\n      jump\t// in\n    tag_193:\n        /* \"#utility.yul\":1431:1434   */\n      dup5\n        /* \"#utility.yul\":1427:1466   */\n      add\n        /* \"#utility.yul\":1420:1466   */\n      swap2\n      pop\n        /* \"#utility.yul\":1197:1472   */\n      pop\n        /* \"#utility.yul\":1115:1472   */\n      swap3\n      swap2\n      pop\n      pop\n      jump\t// out\n        /* \"#utility.yul\":1478:1674   */\n    tag_100:\n        /* \"#utility.yul\":1567:1577   */\n      0x00\n        /* \"#utility.yul\":1602:1668   */\n      tag_195\n        /* \"#utility.yul\":1664:1667   */\n      dup4\n        /* \"#utility.yul\":1656:1662   */\n      dup4\n        /* \"#utility.yul\":1602:1668   */\n      tag_99\n      jump\t// in\n    tag_195:\n        /* \"#utility.yul\":1588:1668   */\n      swap1\n      pop\n        /* \"#utility.yul\":1478:1674   */\n      swap3\n      swap2\n      pop\n      pop\n      jump\t// out\n        /* \"#utility.yul\":1680:1803   */\n    tag_101:\n        /* \"#utility.yul\":1760:1764   */\n      0x00\n        /* \"#utility.yul\":1792:1796   */\n      0x20\n        /* \"#utility.yul\":1787:1790   */\n      dup3\n        /* \"#utility.yul\":1783:1797   */\n      add\n        /* \"#utility.yul\":1775:1797   */\n      swap1\n      pop\n        /* \"#utility.yul\":1680:1803   */\n      swap2\n      swap1\n      pop\n      jump\t// out\n        /* \"#utility.yul\":1837:2828   */\n    tag_102:\n        /* \"#utility.yul\":1976:1979   */\n      0x00\n        /* \"#utility.yul\":2005:2069   */\n      tag_198\n        /* \"#utility.yul\":2063:2068   */\n      dup3\n        /* \"#utility.yul\":2005:2069   */\n      tag_92\n      jump\t// in\n    tag_198:\n        /* \"#utility.yul\":2085:2181   */\n      tag_199\n        /* \"#utility.yul\":2174:2180   */\n      dup2\n        /* \"#utility.yul\":2169:2172   */\n      dup6\n        /* \"#utility.yul\":2085:2181   */\n      tag_93\n      jump\t// in\n    tag_199:\n        /* \"#utility.yul\":2078:2181   */\n      swap4\n      pop\n        /* \"#utility.yul\":2207:2210   */\n      dup4\n        /* \"#utility.yul\":2252:2256   */\n      0x20\n        /* \"#utility.yul\":2244:2250   */\n      dup3\n        /* \"#utility.yul\":2240:2257   */\n      mul\n        /* \"#utility.yul\":2235:2238   */\n      dup6\n        /* \"#utility.yul\":2231:2258   */\n      add\n        /* \"#utility.yul\":2282:2348   */\n      tag_200\n        /* \"#utility.yul\":2342:2347   */\n      dup6\n        /* \"#utility.yul\":2282:2348   */\n      tag_94\n      jump\t// in\n    tag_200:\n        /* \"#utility.yul\":2371:2378   */\n      dup1\n        /* \"#utility.yul\":2402:2403   */\n      0x00\n        /* \"#utility.yul\":2387:2783   */\n    tag_201:\n        /* \"#utility.yul\":2412:2418   */\n      dup6\n        /* \"#utility.yul\":2409:2410   */\n      dup2\n        /* \"#utility.yul\":2406:2419   */\n      lt\n        /* \"#utility.yul\":2387:2783   */\n      iszero\n      tag_203\n      jumpi\n        /* \"#utility.yul\":2483:2492   */\n      dup5\n        /* \"#utility.yul\":2477:2481   */\n      dup5\n        /* \"#utility.yul\":2473:2493   */\n      sub\n        /* \"#utility.yul\":2468:2471   */\n      dup10\n        /* \"#utility.yul\":2461:2494   */\n      mstore\n        /* \"#utility.yul\":2534:2540   */\n      dup2\n        /* \"#utility.yul\":2528:2541   */\n      mload\n        /* \"#utility.yul\":2562:2646   */\n      tag_204\n        /* \"#utility.yul\":2641:2645   */\n      dup6\n        /* \"#utility.yul\":2626:2639   */\n      dup3\n        /* \"#utility.yul\":2562:2646   */\n      tag_100\n      jump\t// in\n    tag_204:\n        /* \"#utility.yul\":2554:2646   */\n      swap5\n      pop\n        /* \"#utility.yul\":2669:2739   */\n      tag_205\n        /* \"#utility.yul\":2732:2738   */\n      dup4\n        /* \"#utility.yul\":2669:2739   */\n      tag_101\n      jump\t// in\n    tag_205:\n        /* \"#utility.yul\":2659:2739   */\n      swap3\n      pop\n        /* \"#utility.yul\":2768:2772   */\n      0x20\n        /* \"#utility.yul\":2763:2766   */\n      dup11\n        /* \"#utility.yul\":2759:2773   */\n      add\n        /* \"#utility.yul\":2752:2773   */\n      swap10\n      pop\n        /* \"#utility.yul\":2447:2783   */\n      pop\n        /* \"#utility.yul\":2434:2435   */\n      0x01\n        /* \"#utility.yul\":2431:2432   */\n      dup2\n        /* \"#utility.yul\":2427:2436   */\n      add\n        /* \"#utility.yul\":2422:2436   */\n      swap1\n      pop\n        /* \"#utility.yul\":2387:2783   */\n      jump(tag_201)\n    tag_203:\n        /* \"#utility.yul\":2391:2405   */\n      pop\n        /* \"#utility.yul\":2799:2803   */\n      dup3\n        /* \"#utility.yul\":2792:2803   */\n      swap8\n      pop\n        /* \"#utility.yul\":2819:2822   */\n      dup8\n        /* \"#utility.yul\":2812:2822   */\n      swap6\n      pop\n        /* \"#utility.yul\":1981:2828   */\n      pop\n      pop\n      pop\n      pop\n      pop\n        /* \"#utility.yul\":1837:2828   */\n      swap3\n      swap2\n      pop\n      pop\n      jump\t// out\n        /* \"#utility.yul\":2834:3247   */\n    tag_12:\n        /* \"#utility.yul\":2997:3001   */\n      0x00\n        /* \"#utility.yul\":3035:3037   */\n      0x20\n        /* \"#utility.yul\":3024:3033   */\n      dup3\n        /* \"#utility.yul\":3020:3038   */\n      add\n        /* \"#utility.yul\":3012:3038   */\n      swap1\n      pop\n        /* \"#utility.yul\":3084:3093   */\n      dup2\n        /* \"#utility.yul\":3078:3082   */\n      dup2\n        /* \"#utility.yul\":3074:3094   */\n      sub\n        /* \"#utility.yul\":3070:3071   */\n      0x00\n        /* \"#utility.yul\":3059:3068   */\n      dup4\n        /* \"#utility.yul\":3055:3072   */\n      add\n        /* \"#utility.yul\":3048:3095   */\n      mstore\n        /* \"#utility.yul\":3112:3240   */\n      tag_207\n        /* \"#utility.yul\":3235:3239   */\n      dup2\n        /* \"#utility.yul\":3226:3232   */\n      dup5\n        /* \"#utility.yul\":3112:3240   */\n      tag_102\n      jump\t// in\n    tag_207:\n        /* \"#utility.yul\":3104:3240   */\n      swap1\n      pop\n        /* \"#utility.yul\":2834:3247   */\n      swap3\n      swap2\n      pop\n      pop\n      jump\t// out\n        /* \"#utility.yul\":3253:3328   */\n    tag_103:\n        /* \"#utility.yul\":3286:3292   */\n      0x00\n        /* \"#utility.yul\":3319:3321   */\n      0x40\n        /* \"#utility.yul\":3313:3322   */\n      mload\n        /* \"#utility.yul\":3303:3322   */\n      swap1\n      pop\n        /* \"#utility.yul\":3253:3328   */\n      swap1\n      jump\t// out\n        /* \"#utility.yul\":3334:3451   */\n    tag_104:\n        /* \"#utility.yul\":3443:3444   */\n      0x00\n        /* \"#utility.yul\":3440:3441   */\n      dup1\n        /* \"#utility.yul\":3433:3445   */\n      revert\n        /* \"#utility.yul\":3457:3574   */\n    tag_105:\n        /* \"#utility.yul\":3566:3567   */\n      0x00\n        /* \"#utility.yul\":3563:3564   */\n      dup1\n        /* \"#utility.yul\":3556:3568   */\n      revert\n        /* \"#utility.yul\":3580:3697   */\n    tag_106:\n        /* \"#utility.yul\":3689:3690   */\n      0x00\n        /* \"#utility.yul\":3686:3687   */\n      dup1\n        /* \"#utility.yul\":3679:3691   */\n      revert\n        /* \"#utility.yul\":3703:3820   */\n    tag_107:\n        /* \"#utility.yul\":3812:3813   */\n      0x00\n        /* \"#utility.yul\":3809:3810   */\n      dup1\n        /* \"#utility.yul\":3802:3814   */\n      revert\n        /* \"#utility.yul\":3826:4006   */\n    tag_108:\n        /* \"#utility.yul\":3874:3951   */\n      0x4e487b7100000000000000000000000000000000000000000000000000000000\n        /* \"#utility.yul\":3871:3872   */\n      0x00\n        /* \"#utility.yul\":3864:3952   */\n      mstore\n        /* \"#utility.yul\":3971:3975   */\n      0x41\n        /* \"#utility.yul\":3968:3969   */\n      0x04\n        /* \"#utility.yul\":3961:3976   */\n      mstore\n        /* \"#utility.yul\":3995:3999   */\n      0x24\n        /* \"#utility.yul\":3992:3993   */\n      0x00\n        /* \"#utility.yul\":3985:4000   */\n      revert\n        /* \"#utility.yul\":4012:4293   */\n    tag_109:\n        /* \"#utility.yul\":4095:4122   */\n      tag_215\n        /* \"#utility.yul\":4117:4121   */\n      dup3\n        /* \"#utility.yul\":4095:4122   */\n      tag_98\n      jump\t// in\n    tag_215:\n        /* \"#utility.yul\":4087:4093   */\n      dup2\n        /* \"#utility.yul\":4083:4123   */\n      add\n        /* \"#utility.yul\":4225:4231   */\n      dup2\n        /* \"#utility.yul\":4213:4223   */\n      dup2\n        /* \"#utility.yul\":4210:4232   */\n      lt\n        /* \"#utility.yul\":4189:4207   */\n      0xffffffffffffffff\n        /* \"#utility.yul\":4177:4187   */\n      dup3\n        /* \"#utility.yul\":4174:4208   */\n      gt\n        /* \"#utility.yul\":4171:4233   */\n      or\n        /* \"#utility.yul\":4168:4256   */\n      iszero\n      tag_216\n      jumpi\n        /* \"#utility.yul\":4236:4254   */\n      tag_217\n      tag_108\n      jump\t// in\n    tag_217:\n        /* \"#utility.yul\":4168:4256   */\n    tag_216:\n        /* \"#utility.yul\":4276:4286   */\n      dup1\n        /* \"#utility.yul\":4272:4274   */\n      0x40\n        /* \"#utility.yul\":4265:4287   */\n      mstore\n        /* \"#utility.yul\":4055:4293   */\n      pop\n        /* \"#utility.yul\":4012:4293   */\n      pop\n      pop\n      jump\t// out\n        /* \"#utility.yul\":4299:4428   */\n    tag_110:\n        /* \"#utility.yul\":4333:4339   */\n      0x00\n        /* \"#utility.yul\":4360:4380   */\n      tag_219\n      tag_103\n      jump\t// in\n    tag_219:\n        /* \"#utility.yul\":4350:4380   */\n      swap1\n      pop\n        /* \"#utility.yul\":4389:4422   */\n      tag_220\n        /* \"#utility.yul\":4417:4421   */\n      dup3\n        /* \"#utility.yul\":4409:4415   */\n      dup3\n        /* \"#utility.yul\":4389:4422   */\n      tag_109\n      jump\t// in\n    tag_220:\n        /* \"#utility.yul\":4299:4428   */\n      swap2\n      swap1\n      pop\n      jump\t// out\n        /* \"#utility.yul\":4434:4742   */\n    tag_111:\n        /* \"#utility.yul\":4496:4500   */\n      0x00\n        /* \"#utility.yul\":4586:4604   */\n      0xffffffffffffffff\n        /* \"#utility.yul\":4578:4584   */\n      dup3\n        /* \"#utility.yul\":4575:4605   */\n      gt\n        /* \"#utility.yul\":4572:4628   */\n      iszero\n      tag_222\n      jumpi\n        /* \"#utility.yul\":4608:4626   */\n      tag_223\n      tag_108\n      jump\t// in\n    tag_223:\n        /* \"#utility.yul\":4572:4628   */\n    tag_222:\n        /* \"#utility.yul\":4646:4675   */\n      tag_224\n        /* \"#utility.yul\":4668:4674   */\n      dup3\n        /* \"#utility.yul\":4646:4675   */\n      tag_98\n      jump\t// in\n    tag_224:\n        /* \"#utility.yul\":4638:4675   */\n      swap1\n      pop\n        /* \"#utility.yul\":4730:4734   */\n      0x20\n        /* \"#utility.yul\":4724:4728   */\n      dup2\n        /* \"#utility.yul\":4720:4735   */\n      add\n        /* \"#utility.yul\":4712:4735   */\n      swap1\n      pop\n        /* \"#utility.yul\":4434:4742   */\n      swap2\n      swap1\n      pop\n      jump\t// out\n        /* \"#utility.yul\":4748:4894   */\n    tag_112:\n        /* \"#utility.yul\":4845:4851   */\n      dup3\n        /* \"#utility.yul\":4840:4843   */\n      dup2\n        /* \"#utility.yul\":4835:4838   */\n      dup4\n        /* \"#utility.yul\":4822:4852   */\n      calldatacopy\n        /* \"#utility.yul\":4886:4887   */\n      0x00\n        /* \"#utility.yul\":4877:4883   */\n      dup4\n        /* \"#utility.yul\":4872:4875   */\n      dup4\n        /* \"#utility.yul\":4868:4884   */\n      add\n        /* \"#utility.yul\":4861:4888   */\n      mstore\n        /* \"#utility.yul\":4748:4894   */\n      pop\n      pop\n      pop\n      jump\t// out\n        /* \"#utility.yul\":4900:5325   */\n    tag_113:\n        /* \"#utility.yul\":4978:4983   */\n      0x00\n        /* \"#utility.yul\":5003:5069   */\n      tag_227\n        /* \"#utility.yul\":5019:5068   */\n      tag_228\n        /* \"#utility.yul\":5061:5067   */\n      dup5\n        /* \"#utility.yul\":5019:5068   */\n      tag_111\n      jump\t// in\n    tag_228:\n        /* \"#utility.yul\":5003:5069   */\n      tag_110\n      jump\t// in\n    tag_227:\n        /* \"#utility.yul\":4994:5069   */\n      swap1\n      pop\n        /* \"#utility.yul\":5092:5098   */\n      dup3\n        /* \"#utility.yul\":5085:5090   */\n      dup2\n        /* \"#utility.yul\":5078:5099   */\n      mstore\n        /* \"#utility.yul\":5130:5134   */\n      0x20\n        /* \"#utility.yul\":5123:5128   */\n      dup2\n        /* \"#utility.yul\":5119:5135   */\n      add\n        /* \"#utility.yul\":5168:5171   */\n      dup5\n        /* \"#utility.yul\":5159:5165   */\n      dup5\n        /* \"#utility.yul\":5154:5157   */\n      dup5\n        /* \"#utility.yul\":5150:5166   */\n      add\n        /* \"#utility.yul\":5147:5172   */\n      gt\n        /* \"#utility.yul\":5144:5256   */\n      iszero\n      tag_229\n      jumpi\n        /* \"#utility.yul\":5175:5254   */\n      tag_230\n      tag_107\n      jump\t// in\n    tag_230:\n        /* \"#utility.yul\":5144:5256   */\n    tag_229:\n        /* \"#utility.yul\":5265:5319   */\n      tag_231\n        /* \"#utility.yul\":5312:5318   */\n      dup5\n        /* \"#utility.yul\":5307:5310   */\n      dup3\n        /* \"#utility.yul\":5302:5305   */\n      dup6\n        /* \"#utility.yul\":5265:5319   */\n      tag_112\n      jump\t// in\n    tag_231:\n        /* \"#utility.yul\":4984:5325   */\n      pop\n        /* \"#utility.yul\":4900:5325   */\n      swap4\n      swap3\n      pop\n      pop\n      pop\n      jump\t// out\n        /* \"#utility.yul\":5345:5685   */\n    tag_114:\n        /* \"#utility.yul\":5401:5406   */\n      0x00\n        /* \"#utility.yul\":5450:5453   */\n      dup3\n        /* \"#utility.yul\":5443:5447   */\n      0x1f\n        /* \"#utility.yul\":5435:5441   */\n      dup4\n        /* \"#utility.yul\":5431:5448   */\n      add\n        /* \"#utility.yul\":5427:5454   */\n      slt\n        /* \"#utility.yul\":5417:5539   */\n      tag_233\n      jumpi\n        /* \"#utility.yul\":5458:5537   */\n      tag_234\n      tag_106\n      jump\t// in\n    tag_234:\n        /* \"#utility.yul\":5417:5539   */\n    tag_233:\n        /* \"#utility.yul\":5575:5581   */\n      dup2\n        /* \"#utility.yul\":5562:5582   */\n      calldataload\n        /* \"#utility.yul\":5600:5679   */\n      tag_235\n        /* \"#utility.yul\":5675:5678   */\n      dup5\n        /* \"#utility.yul\":5667:5673   */\n      dup3\n        /* \"#utility.yul\":5660:5664   */\n      0x20\n        /* \"#utility.yul\":5652:5658   */\n      dup7\n        /* \"#utility.yul\":5648:5665   */\n      add\n        /* \"#utility.yul\":5600:5679   */\n      tag_113\n      jump\t// in\n    tag_235:\n        /* \"#utility.yul\":5591:5679   */\n      swap2\n      pop\n        /* \"#utility.yul\":5407:5685   */\n      pop\n        /* \"#utility.yul\":5345:5685   */\n      swap3\n      swap2\n      pop\n      pop\n      jump\t// out\n        /* \"#utility.yul\":5691:5780   */\n    tag_115:\n        /* \"#utility.yul\":5727:5734   */\n      0x00\n        /* \"#utility.yul\":5767:5773   */\n      0xffff\n        /* \"#utility.yul\":5760:5765   */\n      dup3\n        /* \"#utility.yul\":5756:5774   */\n      and\n        /* \"#utility.yul\":5745:5774   */\n      swap1\n      pop\n        /* \"#utility.yul\":5691:5780   */\n      swap2\n      swap1\n      pop\n      jump\t// out\n        /* \"#utility.yul\":5786:5906   */\n    tag_116:\n        /* \"#utility.yul\":5858:5881   */\n      tag_238\n        /* \"#utility.yul\":5875:5880   */\n      dup2\n        /* \"#utility.yul\":5858:5881   */\n      tag_115\n      jump\t// in\n    tag_238:\n        /* \"#utility.yul\":5851:5856   */\n      dup2\n        /* \"#utility.yul\":5848:5882   */\n      eq\n        /* \"#utility.yul\":5838:5900   */\n      tag_239\n      jumpi\n        /* \"#utility.yul\":5896:5897   */\n      0x00\n        /* \"#utility.yul\":5893:5894   */\n      dup1\n        /* \"#utility.yul\":5886:5898   */\n      revert\n        /* \"#utility.yul\":5838:5900   */\n    tag_239:\n        /* \"#utility.yul\":5786:5906   */\n      pop\n      jump\t// out\n        /* \"#utility.yul\":5912:6049   */\n    tag_117:\n        /* \"#utility.yul\":5957:5962   */\n      0x00\n        /* \"#utility.yul\":5995:6001   */\n      dup2\n        /* \"#utility.yul\":5982:6002   */\n      calldataload\n        /* \"#utility.yul\":5973:6002   */\n      swap1\n      pop\n        /* \"#utility.yul\":6011:6043   */\n      tag_241\n        /* \"#utility.yul\":6037:6042   */\n      dup2\n        /* \"#utility.yul\":6011:6043   */\n      tag_116\n      jump\t// in\n    tag_241:\n        /* \"#utility.yul\":5912:6049   */\n      swap3\n      swap2\n      pop\n      pop\n      jump\t// out\n        /* \"#utility.yul\":6055:6148   */\n    tag_118:\n        /* \"#utility.yul\":6091:6098   */\n      0x00\n        /* \"#utility.yul\":6131:6141   */\n      0xffffffff\n        /* \"#utility.yul\":6124:6129   */\n      dup3\n        /* \"#utility.yul\":6120:6142   */\n      and\n        /* \"#utility.yul\":6109:6142   */\n      swap1\n      pop\n        /* \"#utility.yul\":6055:6148   */\n      swap2\n      swap1\n      pop\n      jump\t// out\n        /* \"#utility.yul\":6154:6274   */\n    tag_119:\n        /* \"#utility.yul\":6226:6249   */\n      tag_244\n        /* \"#utility.yul\":6243:6248   */\n      dup2\n        /* \"#utility.yul\":6226:6249   */\n      tag_118\n      jump\t// in\n    tag_244:\n        /* \"#utility.yul\":6219:6224   */\n      dup2\n        /* \"#utility.yul\":6216:6250   */\n      eq\n        /* \"#utility.yul\":6206:6268   */\n      tag_245\n      jumpi\n        /* \"#utility.yul\":6264:6265   */\n      0x00\n        /* \"#utility.yul\":6261:6262   */\n      dup1\n        /* \"#utility.yul\":6254:6266   */\n      revert\n        /* \"#utility.yul\":6206:6268   */\n    tag_245:\n        /* \"#utility.yul\":6154:6274   */\n      pop\n      jump\t// out\n        /* \"#utility.yul\":6280:6417   */\n    tag_120:\n        /* \"#utility.yul\":6325:6330   */\n      0x00\n        /* \"#utility.yul\":6363:6369   */\n      dup2\n        /* \"#utility.yul\":6350:6370   */\n      calldataload\n        /* \"#utility.yul\":6341:6370   */\n      swap1\n      pop\n        /* \"#utility.yul\":6379:6411   */\n      tag_247\n        /* \"#utility.yul\":6405:6410   */\n      dup2\n        /* \"#utility.yul\":6379:6411   */\n      tag_119\n      jump\t// in\n    tag_247:\n        /* \"#utility.yul\":6280:6417   */\n      swap3\n      swap2\n      pop\n      pop\n      jump\t// out\n        /* \"#utility.yul\":6423:6520   */\n    tag_121:\n        /* \"#utility.yul\":6459:6466   */\n      0x00\n        /* \"#utility.yul\":6499:6513   */\n      0xffffffffffff\n        /* \"#utility.yul\":6492:6497   */\n      dup3\n        /* \"#utility.yul\":6488:6514   */\n      and\n        /* \"#utility.yul\":6477:6514   */\n      swap1\n      pop\n        /* \"#utility.yul\":6423:6520   */\n      swap2\n      swap1\n      pop\n      jump\t// out\n        /* \"#utility.yul\":6526:6646   */\n    tag_122:\n        /* \"#utility.yul\":6598:6621   */\n      tag_250\n        /* \"#utility.yul\":6615:6620   */\n      dup2\n        /* \"#utility.yul\":6598:6621   */\n      tag_121\n      jump\t// in\n    tag_250:\n        /* \"#utility.yul\":6591:6596   */\n      dup2\n        /* \"#utility.yul\":6588:6622   */\n      eq\n        /* \"#utility.yul\":6578:6640   */\n      tag_251\n      jumpi\n        /* \"#utility.yul\":6636:6637   */\n      0x00\n        /* \"#utility.yul\":6633:6634   */\n      dup1\n        /* \"#utility.yul\":6626:6638   */\n      revert\n        /* \"#utility.yul\":6578:6640   */\n    tag_251:\n        /* \"#utility.yul\":6526:6646   */\n      pop\n      jump\t// out\n        /* \"#utility.yul\":6652:6789   */\n    tag_123:\n        /* \"#utility.yul\":6697:6702   */\n      0x00\n        /* \"#utility.yul\":6735:6741   */\n      dup2\n        /* \"#utility.yul\":6722:6742   */\n      calldataload\n        /* \"#utility.yul\":6713:6742   */\n      swap1\n      pop\n        /* \"#utility.yul\":6751:6783   */\n      tag_253\n        /* \"#utility.yul\":6777:6782   */\n      dup2\n        /* \"#utility.yul\":6751:6783   */\n      tag_122\n      jump\t// in\n    tag_253:\n        /* \"#utility.yul\":6652:6789   */\n      swap3\n      swap2\n      pop\n      pop\n      jump\t// out\n        /* \"#utility.yul\":6795:6885   */\n    tag_124:\n        /* \"#utility.yul\":6829:6836   */\n      0x00\n        /* \"#utility.yul\":6872:6877   */\n      dup2\n        /* \"#utility.yul\":6865:6878   */\n      iszero\n        /* \"#utility.yul\":6858:6879   */\n      iszero\n        /* \"#utility.yul\":6847:6879   */\n      swap1\n      pop\n        /* \"#utility.yul\":6795:6885   */\n      swap2\n      swap1\n      pop\n      jump\t// out\n        /* \"#utility.yul\":6891:7007   */\n    tag_125:\n        /* \"#utility.yul\":6961:6982   */\n      tag_256\n        /* \"#utility.yul\":6976:6981   */\n      dup2\n        /* \"#utility.yul\":6961:6982   */\n      tag_124\n      jump\t// in\n    tag_256:\n        /* \"#utility.yul\":6954:6959   */\n      dup2\n        /* \"#utility.yul\":6951:6983   */\n      eq\n        /* \"#utility.yul\":6941:7001   */\n      tag_257\n      jumpi\n        /* \"#utility.yul\":6997:6998   */\n      0x00\n        /* \"#utility.yul\":6994:6995   */\n      dup1\n        /* \"#utility.yul\":6987:6999   */\n      revert\n        /* \"#utility.yul\":6941:7001   */\n    tag_257:\n        /* \"#utility.yul\":6891:7007   */\n      pop\n      jump\t// out\n        /* \"#utility.yul\":7013:7146   */\n    tag_126:\n        /* \"#utility.yul\":7056:7061   */\n      0x00\n        /* \"#utility.yul\":7094:7100   */\n      dup2\n        /* \"#utility.yul\":7081:7101   */\n      calldataload\n        /* \"#utility.yul\":7072:7101   */\n      swap1\n      pop\n        /* \"#utility.yul\":7110:7140   */\n      tag_259\n        /* \"#utility.yul\":7134:7139   */\n      dup2\n        /* \"#utility.yul\":7110:7140   */\n      tag_125\n      jump\t// in\n    tag_259:\n        /* \"#utility.yul\":7013:7146   */\n      swap3\n      swap2\n      pop\n      pop\n      jump\t// out\n        /* \"#utility.yul\":7152:8231   */\n    tag_15:\n        /* \"#utility.yul\":7251:7257   */\n      0x00\n        /* \"#utility.yul\":7259:7265   */\n      dup1\n        /* \"#utility.yul\":7267:7273   */\n      0x00\n        /* \"#utility.yul\":7275:7281   */\n      dup1\n        /* \"#utility.yul\":7283:7289   */\n      0x00\n        /* \"#utility.yul\":7332:7335   */\n      0xa0\n        /* \"#utility.yul\":7320:7329   */\n      dup7\n        /* \"#utility.yul\":7311:7318   */\n      dup9\n        /* \"#utility.yul\":7307:7330   */\n      sub\n        /* \"#utility.yul\":7303:7336   */\n      slt\n        /* \"#utility.yul\":7300:7420   */\n      iszero\n      tag_261\n      jumpi\n        /* \"#utility.yul\":7339:7418   */\n      tag_262\n      tag_104\n      jump\t// in\n    tag_262:\n        /* \"#utility.yul\":7300:7420   */\n    tag_261:\n        /* \"#utility.yul\":7487:7488   */\n      0x00\n        /* \"#utility.yul\":7476:7485   */\n      dup7\n        /* \"#utility.yul\":7472:7489   */\n      add\n        /* \"#utility.yul\":7459:7490   */\n      calldataload\n        /* \"#utility.yul\":7517:7535   */\n      0xffffffffffffffff\n        /* \"#utility.yul\":7509:7515   */\n      dup2\n        /* \"#utility.yul\":7506:7536   */\n      gt\n        /* \"#utility.yul\":7503:7620   */\n      iszero\n      tag_263\n      jumpi\n        /* \"#utility.yul\":7539:7618   */\n      tag_264\n      tag_105\n      jump\t// in\n    tag_264:\n        /* \"#utility.yul\":7503:7620   */\n    tag_263:\n        /* \"#utility.yul\":7644:7707   */\n      tag_265\n        /* \"#utility.yul\":7699:7706   */\n      dup9\n        /* \"#utility.yul\":7690:7696   */\n      dup3\n        /* \"#utility.yul\":7679:7688   */\n      dup10\n        /* \"#utility.yul\":7675:7697   */\n      add\n        /* \"#utility.yul\":7644:7707   */\n      tag_114\n      jump\t// in\n    tag_265:\n        /* \"#utility.yul\":7634:7707   */\n      swap6\n      pop\n        /* \"#utility.yul\":7430:7717   */\n      pop\n        /* \"#utility.yul\":7756:7758   */\n      0x20\n        /* \"#utility.yul\":7782:7834   */\n      tag_266\n        /* \"#utility.yul\":7826:7833   */\n      dup9\n        /* \"#utility.yul\":7817:7823   */\n      dup3\n        /* \"#utility.yul\":7806:7815   */\n      dup10\n        /* \"#utility.yul\":7802:7824   */\n      add\n        /* \"#utility.yul\":7782:7834   */\n      tag_117\n      jump\t// in\n    tag_266:\n        /* \"#utility.yul\":7772:7834   */\n      swap5\n      pop\n        /* \"#utility.yul\":7727:7844   */\n      pop\n        /* \"#utility.yul\":7883:7885   */\n      0x40\n        /* \"#utility.yul\":7909:7961   */\n      tag_267\n        /* \"#utility.yul\":7953:7960   */\n      dup9\n        /* \"#utility.yul\":7944:7950   */\n      dup3\n        /* \"#utility.yul\":7933:7942   */\n      dup10\n        /* \"#utility.yul\":7929:7951   */\n      add\n        /* \"#utility.yul\":7909:7961   */\n      tag_120\n      jump\t// in\n    tag_267:\n        /* \"#utility.yul\":7899:7961   */\n      swap4\n      pop\n        /* \"#utility.yul\":7854:7971   */\n      pop\n        /* \"#utility.yul\":8010:8012   */\n      0x60\n        /* \"#utility.yul\":8036:8088   */\n      tag_268\n        /* \"#utility.yul\":8080:8087   */\n      dup9\n        /* \"#utility.yul\":8071:8077   */\n      dup3\n        /* \"#utility.yul\":8060:8069   */\n      dup10\n        /* \"#utility.yul\":8056:8078   */\n      add\n        /* \"#utility.yul\":8036:8088   */\n      tag_123\n      jump\t// in\n    tag_268:\n        /* \"#utility.yul\":8026:8088   */\n      swap3\n      pop\n        /* \"#utility.yul\":7981:8098   */\n      pop\n        /* \"#utility.yul\":8137:8140   */\n      0x80\n        /* \"#utility.yul\":8164:8214   */\n      tag_269\n        /* \"#utility.yul\":8206:8213   */\n      dup9\n        /* \"#utility.yul\":8197:8203   */\n      dup3\n        /* \"#utility.yul\":8186:8195   */\n      dup10\n        /* \"#utility.yul\":8182:8204   */\n      add\n        /* \"#utility.yul\":8164:8214   */\n      tag_126\n      jump\t// in\n    tag_269:\n        /* \"#utility.yul\":8154:8214   */\n      swap2\n      pop\n        /* \"#utility.yul\":8108:8224   */\n      pop\n        /* \"#utility.yul\":7152:8231   */\n      swap3\n      swap6\n      pop\n      swap3\n      swap6\n      swap1\n      swap4\n      pop\n      jump\t// out\n        /* \"#utility.yul\":8237:8359   */\n    tag_127:\n        /* \"#utility.yul\":8312:8318   */\n      0x00\n        /* \"#utility.yul\":8346:8351   */\n      dup2\n        /* \"#utility.yul\":8340:8352   */\n      mload\n        /* \"#utility.yul\":8330:8352   */\n      swap1\n      pop\n        /* \"#utility.yul\":8237:8359   */\n      swap2\n      swap1\n      pop\n      jump\t// out\n        /* \"#utility.yul\":8365:8557   */\n    tag_128:\n        /* \"#utility.yul\":8472:8483   */\n      0x00\n        /* \"#utility.yul\":8506:8512   */\n      dup3\n        /* \"#utility.yul\":8501:8504   */\n      dup3\n        /* \"#utility.yul\":8494:8513   */\n      mstore\n        /* \"#utility.yul\":8546:8550   */\n      0x20\n        /* \"#utility.yul\":8541:8544   */\n      dup3\n        /* \"#utility.yul\":8537:8551   */\n      add\n        /* \"#utility.yul\":8522:8551   */\n      swap1\n      pop\n        /* \"#utility.yul\":8365:8557   */\n      swap3\n      swap2\n      pop\n      pop\n      jump\t// out\n        /* \"#utility.yul\":8563:8703   */\n    tag_129:\n        /* \"#utility.yul\":8638:8642   */\n      0x00\n        /* \"#utility.yul\":8661:8664   */\n      dup2\n        /* \"#utility.yul\":8653:8664   */\n      swap1\n      pop\n        /* \"#utility.yul\":8691:8695   */\n      0x20\n        /* \"#utility.yul\":8686:8689   */\n      dup3\n        /* \"#utility.yul\":8682:8696   */\n      add\n        /* \"#utility.yul\":8674:8696   */\n      swap1\n      pop\n        /* \"#utility.yul\":8563:8703   */\n      swap2\n      swap1\n      pop\n      jump\t// out\n        /* \"#utility.yul\":8709:8835   */\n    tag_130:\n        /* \"#utility.yul\":8746:8753   */\n      0x00\n        /* \"#utility.yul\":8786:8828   */\n      0xffffffffffffffffffffffffffffffffffffffff\n        /* \"#utility.yul\":8779:8784   */\n      dup3\n        /* \"#utility.yul\":8775:8829   */\n      and\n        /* \"#utility.yul\":8764:8829   */\n      swap1\n      pop\n        /* \"#utility.yul\":8709:8835   */\n      swap2\n      swap1\n      pop\n      jump\t// out\n        /* \"#utility.yul\":8841:8945   */\n    tag_131:\n        /* \"#utility.yul\":8886:8893   */\n      0x00\n        /* \"#utility.yul\":8915:8939   */\n      tag_275\n        /* \"#utility.yul\":8933:8938   */\n      dup3\n        /* \"#utility.yul\":8915:8939   */\n      tag_130\n      jump\t// in\n    tag_275:\n        /* \"#utility.yul\":8904:8939   */\n      swap1\n      pop\n        /* \"#utility.yul\":8841:8945   */\n      swap2\n      swap1\n      pop\n      jump\t// out\n        /* \"#utility.yul\":8951:9083   */\n    tag_132:\n        /* \"#utility.yul\":9044:9076   */\n      tag_277\n        /* \"#utility.yul\":9070:9075   */\n      dup2\n        /* \"#utility.yul\":9044:9076   */\n      tag_131\n      jump\t// in\n    tag_277:\n        /* \"#utility.yul\":9039:9042   */\n      dup3\n        /* \"#utility.yul\":9032:9077   */\n      mstore\n        /* \"#utility.yul\":8951:9083   */\n      pop\n      pop\n      jump\t// out\n        /* \"#utility.yul\":9089:9300   */\n    tag_133:\n        /* \"#utility.yul\":9174:9184   */\n      0x00\n        /* \"#utility.yul\":9195:9257   */\n      tag_279\n        /* \"#utility.yul\":9253:9256   */\n      dup4\n        /* \"#utility.yul\":9245:9251   */\n      dup4\n        /* \"#utility.yul\":9195:9257   */\n      tag_132\n      jump\t// in\n    tag_279:\n        /* \"#utility.yul\":9289:9293   */\n      0x20\n        /* \"#utility.yul\":9284:9287   */\n      dup4\n        /* \"#utility.yul\":9280:9294   */\n      add\n        /* \"#utility.yul\":9266:9294   */\n      swap1\n      pop\n        /* \"#utility.yul\":9089:9300   */\n      swap3\n      swap2\n      pop\n      pop\n      jump\t// out\n        /* \"#utility.yul\":9306:9427   */\n    tag_134:\n        /* \"#utility.yul\":9384:9388   */\n      0x00\n        /* \"#utility.yul\":9416:9420   */\n      0x20\n        /* \"#utility.yul\":9411:9414   */\n      dup3\n        /* \"#utility.yul\":9407:9421   */\n      add\n        /* \"#utility.yul\":9399:9421   */\n      swap1\n      pop\n        /* \"#utility.yul\":9306:9427   */\n      swap2\n      swap1\n      pop\n      jump\t// out\n        /* \"#utility.yul\":9479:10275   */\n    tag_135:\n        /* \"#utility.yul\":9614:9617   */\n      0x00\n        /* \"#utility.yul\":9643:9705   */\n      tag_282\n        /* \"#utility.yul\":9699:9704   */\n      dup3\n        /* \"#utility.yul\":9643:9705   */\n      tag_127\n      jump\t// in\n    tag_282:\n        /* \"#utility.yul\":9721:9815   */\n      tag_283\n        /* \"#utility.yul\":9808:9814   */\n      dup2\n        /* \"#utility.yul\":9803:9806   */\n      dup6\n        /* \"#utility.yul\":9721:9815   */\n      tag_128\n      jump\t// in\n    tag_283:\n        /* \"#utility.yul\":9714:9815   */\n      swap4\n      pop\n        /* \"#utility.yul\":9839:9903   */\n      tag_284\n        /* \"#utility.yul\":9897:9902   */\n      dup4\n        /* \"#utility.yul\":9839:9903   */\n      tag_129\n      jump\t// in\n    tag_284:\n        /* \"#utility.yul\":9926:9933   */\n      dup1\n        /* \"#utility.yul\":9957:9958   */\n      0x00\n        /* \"#utility.yul\":9942:10250   */\n    tag_285:\n        /* \"#utility.yul\":9967:9973   */\n      dup4\n        /* \"#utility.yul\":9964:9965   */\n      dup2\n        /* \"#utility.yul\":9961:9974   */\n      lt\n        /* \"#utility.yul\":9942:10250   */\n      iszero\n      tag_287\n      jumpi\n        /* \"#utility.yul\":10043:10049   */\n      dup2\n        /* \"#utility.yul\":10037:10050   */\n      mload\n        /* \"#utility.yul\":10070:10149   */\n      tag_288\n        /* \"#utility.yul\":10145:10148   */\n      dup9\n        /* \"#utility.yul\":10130:10143   */\n      dup3\n        /* \"#utility.yul\":10070:10149   */\n      tag_133\n      jump\t// in\n    tag_288:\n        /* \"#utility.yul\":10063:10149   */\n      swap8\n      pop\n        /* \"#utility.yul\":10172:10240   */\n      tag_289\n        /* \"#utility.yul\":10233:10239   */\n      dup4\n        /* \"#utility.yul\":10172:10240   */\n      tag_134\n      jump\t// in\n    tag_289:\n        /* \"#utility.yul\":10162:10240   */\n      swap3\n      pop\n        /* \"#utility.yul\":10002:10250   */\n      pop\n        /* \"#utility.yul\":9989:9990   */\n      0x01\n        /* \"#utility.yul\":9986:9987   */\n      dup2\n        /* \"#utility.yul\":9982:9991   */\n      add\n        /* \"#utility.yul\":9977:9991   */\n      swap1\n      pop\n        /* \"#utility.yul\":9942:10250   */\n      jump(tag_285)\n    tag_287:\n        /* \"#utility.yul\":9946:9960   */\n      pop\n        /* \"#utility.yul\":10266:10269   */\n      dup6\n        /* \"#utility.yul\":10259:10269   */\n      swap4\n      pop\n        /* \"#utility.yul\":9619:10275   */\n      pop\n      pop\n      pop\n        /* \"#utility.yul\":9479:10275   */\n      swap3\n      swap2\n      pop\n      pop\n      jump\t// out\n        /* \"#utility.yul\":10281:10686   */\n    tag_20:\n        /* \"#utility.yul\":10440:10444   */\n      0x00\n        /* \"#utility.yul\":10478:10480   */\n      0x20\n        /* \"#utility.yul\":10467:10476   */\n      dup3\n        /* \"#utility.yul\":10463:10481   */\n      add\n        /* \"#utility.yul\":10455:10481   */\n      swap1\n      pop\n        /* \"#utility.yul\":10527:10536   */\n      dup2\n        /* \"#utility.yul\":10521:10525   */\n      dup2\n        /* \"#utility.yul\":10517:10537   */\n      sub\n        /* \"#utility.yul\":10513:10514   */\n      0x00\n        /* \"#utility.yul\":10502:10511   */\n      dup4\n        /* \"#utility.yul\":10498:10515   */\n      add\n        /* \"#utility.yul\":10491:10538   */\n      mstore\n        /* \"#utility.yul\":10555:10679   */\n      tag_291\n        /* \"#utility.yul\":10674:10678   */\n      dup2\n        /* \"#utility.yul\":10665:10671   */\n      dup5\n        /* \"#utility.yul\":10555:10679   */\n      tag_135\n      jump\t// in\n    tag_291:\n        /* \"#utility.yul\":10547:10679   */\n      swap1\n      pop\n        /* \"#utility.yul\":10281:10686   */\n      swap3\n      swap2\n      pop\n      pop\n      jump\t// out\n        /* \"#utility.yul\":10692:11201   */\n    tag_23:\n        /* \"#utility.yul\":10761:10767   */\n      0x00\n        /* \"#utility.yul\":10810:10812   */\n      0x20\n        /* \"#utility.yul\":10798:10807   */\n      dup3\n        /* \"#utility.yul\":10789:10796   */\n      dup5\n        /* \"#utility.yul\":10785:10808   */\n      sub\n        /* \"#utility.yul\":10781:10813   */\n      slt\n        /* \"#utility.yul\":10778:10897   */\n      iszero\n      tag_293\n      jumpi\n        /* \"#utility.yul\":10816:10895   */\n      tag_294\n      tag_104\n      jump\t// in\n    tag_294:\n        /* \"#utility.yul\":10778:10897   */\n    tag_293:\n        /* \"#utility.yul\":10964:10965   */\n      0x00\n        /* \"#utility.yul\":10953:10962   */\n      dup3\n        /* \"#utility.yul\":10949:10966   */\n      add\n        /* \"#utility.yul\":10936:10967   */\n      calldataload\n        /* \"#utility.yul\":10994:11012   */\n      0xffffffffffffffff\n        /* \"#utility.yul\":10986:10992   */\n      dup2\n        /* \"#utility.yul\":10983:11013   */\n      gt\n        /* \"#utility.yul\":10980:11097   */\n      iszero\n      tag_295\n      jumpi\n        /* \"#utility.yul\":11016:11095   */\n      tag_296\n      tag_105\n      jump\t// in\n    tag_296:\n        /* \"#utility.yul\":10980:11097   */\n    tag_295:\n        /* \"#utility.yul\":11121:11184   */\n      tag_297\n        /* \"#utility.yul\":11176:11183   */\n      dup5\n        /* \"#utility.yul\":11167:11173   */\n      dup3\n        /* \"#utility.yul\":11156:11165   */\n      dup6\n        /* \"#utility.yul\":11152:11174   */\n      add\n        /* \"#utility.yul\":11121:11184   */\n      tag_114\n      jump\t// in\n    tag_297:\n        /* \"#utility.yul\":11111:11184   */\n      swap2\n      pop\n        /* \"#utility.yul\":10907:11194   */\n      pop\n        /* \"#utility.yul\":10692:11201   */\n      swap3\n      swap2\n      pop\n      pop\n      jump\t// out\n        /* \"#utility.yul\":11207:11303   */\n    tag_136:\n        /* \"#utility.yul\":11244:11251   */\n      0x00\n        /* \"#utility.yul\":11273:11297   */\n      tag_299\n        /* \"#utility.yul\":11291:11296   */\n      dup3\n        /* \"#utility.yul\":11273:11297   */\n      tag_130\n      jump\t// in\n    tag_299:\n        /* \"#utility.yul\":11262:11297   */\n      swap1\n      pop\n        /* \"#utility.yul\":11207:11303   */\n      swap2\n      swap1\n      pop\n      jump\t// out\n        /* \"#utility.yul\":11309:11427   */\n    tag_137:\n        /* \"#utility.yul\":11396:11420   */\n      tag_301\n        /* \"#utility.yul\":11414:11419   */\n      dup2\n        /* \"#utility.yul\":11396:11420   */\n      tag_136\n      jump\t// in\n    tag_301:\n        /* \"#utility.yul\":11391:11394   */\n      dup3\n        /* \"#utility.yul\":11384:11421   */\n      mstore\n        /* \"#utility.yul\":11309:11427   */\n      pop\n      pop\n      jump\t// out\n        /* \"#utility.yul\":11433:11655   */\n    tag_26:\n        /* \"#utility.yul\":11526:11530   */\n      0x00\n        /* \"#utility.yul\":11564:11566   */\n      0x20\n        /* \"#utility.yul\":11553:11562   */\n      dup3\n        /* \"#utility.yul\":11549:11567   */\n      add\n        /* \"#utility.yul\":11541:11567   */\n      swap1\n      pop\n        /* \"#utility.yul\":11577:11648   */\n      tag_303\n        /* \"#utility.yul\":11645:11646   */\n      0x00\n        /* \"#utility.yul\":11634:11643   */\n      dup4\n        /* \"#utility.yul\":11630:11647   */\n      add\n        /* \"#utility.yul\":11621:11627   */\n      dup5\n        /* \"#utility.yul\":11577:11648   */\n      tag_137\n      jump\t// in\n    tag_303:\n        /* \"#utility.yul\":11433:11655   */\n      swap3\n      swap2\n      pop\n      pop\n      jump\t// out\n        /* \"#utility.yul\":11661:11738   */\n    tag_138:\n        /* \"#utility.yul\":11698:11705   */\n      0x00\n        /* \"#utility.yul\":11727:11732   */\n      dup2\n        /* \"#utility.yul\":11716:11732   */\n      swap1\n      pop\n        /* \"#utility.yul\":11661:11738   */\n      swap2\n      swap1\n      pop\n      jump\t// out\n        /* \"#utility.yul\":11744:11866   */\n    tag_139:\n        /* \"#utility.yul\":11817:11841   */\n      tag_306\n        /* \"#utility.yul\":11835:11840   */\n      dup2\n        /* \"#utility.yul\":11817:11841   */\n      tag_138\n      jump\t// in\n    tag_306:\n        /* \"#utility.yul\":11810:11815   */\n      dup2\n        /* \"#utility.yul\":11807:11842   */\n      eq\n        /* \"#utility.yul\":11797:11860   */\n      tag_307\n      jumpi\n        /* \"#utility.yul\":11856:11857   */\n      0x00\n        /* \"#utility.yul\":11853:11854   */\n      dup1\n        /* \"#utility.yul\":11846:11858   */\n      revert\n        /* \"#utility.yul\":11797:11860   */\n    tag_307:\n        /* \"#utility.yul\":11744:11866   */\n      pop\n      jump\t// out\n        /* \"#utility.yul\":11872:12011   */\n    tag_140:\n        /* \"#utility.yul\":11918:11923   */\n      0x00\n        /* \"#utility.yul\":11956:11962   */\n      dup2\n        /* \"#utility.yul\":11943:11963   */\n      calldataload\n        /* \"#utility.yul\":11934:11963   */\n      swap1\n      pop\n        /* \"#utility.yul\":11972:12005   */\n      tag_309\n        /* \"#utility.yul\":11999:12004   */\n      dup2\n        /* \"#utility.yul\":11972:12005   */\n      tag_139\n      jump\t// in\n    tag_309:\n        /* \"#utility.yul\":11872:12011   */\n      swap3\n      swap2\n      pop\n      pop\n      jump\t// out\n        /* \"#utility.yul\":12017:12346   */\n    tag_29:\n        /* \"#utility.yul\":12076:12082   */\n      0x00\n        /* \"#utility.yul\":12125:12127   */\n      0x20\n        /* \"#utility.yul\":12113:12122   */\n      dup3\n        /* \"#utility.yul\":12104:12111   */\n      dup5\n        /* \"#utility.yul\":12100:12123   */\n      sub\n        /* \"#utility.yul\":12096:12128   */\n      slt\n        /* \"#utility.yul\":12093:12212   */\n      iszero\n      tag_311\n      jumpi\n        /* \"#utility.yul\":12131:12210   */\n      tag_312\n      tag_104\n      jump\t// in\n    tag_312:\n        /* \"#utility.yul\":12093:12212   */\n    tag_311:\n        /* \"#utility.yul\":12251:12252   */\n      0x00\n        /* \"#utility.yul\":12276:12329   */\n      tag_313\n        /* \"#utility.yul\":12321:12328   */\n      dup5\n        /* \"#utility.yul\":12312:12318   */\n      dup3\n        /* \"#utility.yul\":12301:12310   */\n      dup6\n        /* \"#utility.yul\":12297:12319   */\n      add\n        /* \"#utility.yul\":12276:12329   */\n      tag_140\n      jump\t// in\n    tag_313:\n        /* \"#utility.yul\":12266:12329   */\n      swap2\n      pop\n        /* \"#utility.yul\":12222:12339   */\n      pop\n        /* \"#utility.yul\":12017:12346   */\n      swap3\n      swap2\n      pop\n      pop\n      jump\t// out\n        /* \"#utility.yul\":12352:12521   */\n    tag_141:\n        /* \"#utility.yul\":12436:12447   */\n      0x00\n        /* \"#utility.yul\":12470:12476   */\n      dup3\n        /* \"#utility.yul\":12465:12468   */\n      dup3\n        /* \"#utility.yul\":12458:12477   */\n      mstore\n        /* \"#utility.yul\":12510:12514   */\n      0x20\n        /* \"#utility.yul\":12505:12508   */\n      dup3\n        /* \"#utility.yul\":12501:12515   */\n      add\n        /* \"#utility.yul\":12486:12515   */\n      swap1\n      pop\n        /* \"#utility.yul\":12352:12521   */\n      swap3\n      swap2\n      pop\n      pop\n      jump\t// out\n        /* \"#utility.yul\":12527:12904   */\n    tag_142:\n        /* \"#utility.yul\":12615:12618   */\n      0x00\n        /* \"#utility.yul\":12643:12682   */\n      tag_316\n        /* \"#utility.yul\":12676:12681   */\n      dup3\n        /* \"#utility.yul\":12643:12682   */\n      tag_95\n      jump\t// in\n    tag_316:\n        /* \"#utility.yul\":12698:12769   */\n      tag_317\n        /* \"#utility.yul\":12762:12768   */\n      dup2\n        /* \"#utility.yul\":12757:12760   */\n      dup6\n        /* \"#utility.yul\":12698:12769   */\n      tag_141\n      jump\t// in\n    tag_317:\n        /* \"#utility.yul\":12691:12769   */\n      swap4\n      pop\n        /* \"#utility.yul\":12778:12843   */\n      tag_318\n        /* \"#utility.yul\":12836:12842   */\n      dup2\n        /* \"#utility.yul\":12831:12834   */\n      dup6\n        /* \"#utility.yul\":12824:12828   */\n      0x20\n        /* \"#utility.yul\":12817:12822   */\n      dup7\n        /* \"#utility.yul\":12813:12829   */\n      add\n        /* \"#utility.yul\":12778:12843   */\n      tag_97\n      jump\t// in\n    tag_318:\n        /* \"#utility.yul\":12868:12897   */\n      tag_319\n        /* \"#utility.yul\":12890:12896   */\n      dup2\n        /* \"#utility.yul\":12868:12897   */\n      tag_98\n      jump\t// in\n    tag_319:\n        /* \"#utility.yul\":12863:12866   */\n      dup5\n        /* \"#utility.yul\":12859:12898   */\n      add\n        /* \"#utility.yul\":12852:12898   */\n      swap2\n      pop\n        /* \"#utility.yul\":12619:12904   */\n      pop\n        /* \"#utility.yul\":12527:12904   */\n      swap3\n      swap2\n      pop\n      pop\n      jump\t// out\n        /* \"#utility.yul\":12910:13223   */\n    tag_32:\n        /* \"#utility.yul\":13023:13027   */\n      0x00\n        /* \"#utility.yul\":13061:13063   */\n      0x20\n        /* \"#utility.yul\":13050:13059   */\n      dup3\n        /* \"#utility.yul\":13046:13064   */\n      add\n        /* \"#utility.yul\":13038:13064   */\n      swap1\n      pop\n        /* \"#utility.yul\":13110:13119   */\n      dup2\n        /* \"#utility.yul\":13104:13108   */\n      dup2\n        /* \"#utility.yul\":13100:13120   */\n      sub\n        /* \"#utility.yul\":13096:13097   */\n      0x00\n        /* \"#utility.yul\":13085:13094   */\n      dup4\n        /* \"#utility.yul\":13081:13098   */\n      add\n        /* \"#utility.yul\":13074:13121   */\n      mstore\n        /* \"#utility.yul\":13138:13216   */\n      tag_321\n        /* \"#utility.yul\":13211:13215   */\n      dup2\n        /* \"#utility.yul\":13202:13208   */\n      dup5\n        /* \"#utility.yul\":13138:13216   */\n      tag_142\n      jump\t// in\n    tag_321:\n        /* \"#utility.yul\":13130:13216   */\n      swap1\n      pop\n        /* \"#utility.yul\":12910:13223   */\n      swap3\n      swap2\n      pop\n      pop\n      jump\t// out\n        /* \"#utility.yul\":13229:13371   */\n    tag_143:\n        /* \"#utility.yul\":13332:13364   */\n      tag_323\n        /* \"#utility.yul\":13358:13363   */\n      dup2\n        /* \"#utility.yul\":13332:13364   */\n      tag_131\n      jump\t// in\n    tag_323:\n        /* \"#utility.yul\":13327:13330   */\n      dup3\n        /* \"#utility.yul\":13320:13365   */\n      mstore\n        /* \"#utility.yul\":13229:13371   */\n      pop\n      pop\n      jump\t// out\n        /* \"#utility.yul\":13377:13631   */\n    tag_37:\n        /* \"#utility.yul\":13486:13490   */\n      0x00\n        /* \"#utility.yul\":13524:13526   */\n      0x20\n        /* \"#utility.yul\":13513:13522   */\n      dup3\n        /* \"#utility.yul\":13509:13527   */\n      add\n        /* \"#utility.yul\":13501:13527   */\n      swap1\n      pop\n        /* \"#utility.yul\":13537:13624   */\n      tag_325\n        /* \"#utility.yul\":13621:13622   */\n      0x00\n        /* \"#utility.yul\":13610:13619   */\n      dup4\n        /* \"#utility.yul\":13606:13623   */\n      add\n        /* \"#utility.yul\":13597:13603   */\n      dup5\n        /* \"#utility.yul\":13537:13624   */\n      tag_143\n      jump\t// in\n    tag_325:\n        /* \"#utility.yul\":13377:13631   */\n      swap3\n      swap2\n      pop\n      pop\n      jump\t// out\n        /* \"#utility.yul\":13637:13817   */\n    tag_144:\n        /* \"#utility.yul\":13685:13762   */\n      0x4e487b7100000000000000000000000000000000000000000000000000000000\n        /* \"#utility.yul\":13682:13683   */\n      0x00\n        /* \"#utility.yul\":13675:13763   */\n      mstore\n        /* \"#utility.yul\":13782:13786   */\n      0x22\n        /* \"#utility.yul\":13779:13780   */\n      0x04\n        /* \"#utility.yul\":13772:13787   */\n      mstore\n        /* \"#utility.yul\":13806:13810   */\n      0x24\n        /* \"#utility.yul\":13803:13804   */\n      0x00\n        /* \"#utility.yul\":13796:13811   */\n      revert\n        /* \"#utility.yul\":13823:14143   */\n    tag_43:\n        /* \"#utility.yul\":13867:13873   */\n      0x00\n        /* \"#utility.yul\":13904:13905   */\n      0x02\n        /* \"#utility.yul\":13898:13902   */\n      dup3\n        /* \"#utility.yul\":13894:13906   */\n      div\n        /* \"#utility.yul\":13884:13906   */\n      swap1\n      pop\n        /* \"#utility.yul\":13951:13952   */\n      0x01\n        /* \"#utility.yul\":13945:13949   */\n      dup3\n        /* \"#utility.yul\":13941:13953   */\n      and\n        /* \"#utility.yul\":13972:13990   */\n      dup1\n        /* \"#utility.yul\":13962:14043   */\n      tag_328\n      jumpi\n        /* \"#utility.yul\":14028:14032   */\n      0x7f\n        /* \"#utility.yul\":14020:14026   */\n      dup3\n        /* \"#utility.yul\":14016:14033   */\n      and\n        /* \"#utility.yul\":14006:14033   */\n      swap2\n      pop\n        /* \"#utility.yul\":13962:14043   */\n    tag_328:\n        /* \"#utility.yul\":14090:14092   */\n      0x20\n        /* \"#utility.yul\":14082:14088   */\n      dup3\n        /* \"#utility.yul\":14079:14093   */\n      lt\n        /* \"#utility.yul\":14059:14077   */\n      dup2\n        /* \"#utility.yul\":14056:14094   */\n      sub\n        /* \"#utility.yul\":14053:14137   */\n      tag_329\n      jumpi\n        /* \"#utility.yul\":14109:14127   */\n      tag_330\n      tag_144\n      jump\t// in\n    tag_330:\n        /* \"#utility.yul\":14053:14137   */\n    tag_329:\n        /* \"#utility.yul\":13874:14143   */\n      pop\n        /* \"#utility.yul\":13823:14143   */\n      swap2\n      swap1\n      pop\n      jump\t// out\n        /* \"#utility.yul\":14149:14324   */\n    tag_145:\n        /* \"#utility.yul\":14289:14316   */\n      0x4e616d652064617266206e69636874206c656572207365696e00000000000000\n        /* \"#utility.yul\":14285:14286   */\n      0x00\n        /* \"#utility.yul\":14277:14283   */\n      dup3\n        /* \"#utility.yul\":14273:14287   */\n      add\n        /* \"#utility.yul\":14266:14317   */\n      mstore\n        /* \"#utility.yul\":14149:14324   */\n      pop\n      jump\t// out\n        /* \"#utility.yul\":14330:14696   */\n    tag_146:\n        /* \"#utility.yul\":14472:14475   */\n      0x00\n        /* \"#utility.yul\":14493:14560   */\n      tag_333\n        /* \"#utility.yul\":14557:14559   */\n      0x19\n        /* \"#utility.yul\":14552:14555   */\n      dup4\n        /* \"#utility.yul\":14493:14560   */\n      tag_141\n      jump\t// in\n    tag_333:\n        /* \"#utility.yul\":14486:14560   */\n      swap2\n      pop\n        /* \"#utility.yul\":14569:14662   */\n      tag_334\n        /* \"#utility.yul\":14658:14661   */\n      dup3\n        /* \"#utility.yul\":14569:14662   */\n      tag_145\n      jump\t// in\n    tag_334:\n        /* \"#utility.yul\":14687:14689   */\n      0x20\n        /* \"#utility.yul\":14682:14685   */\n      dup3\n        /* \"#utility.yul\":14678:14690   */\n      add\n        /* \"#utility.yul\":14671:14690   */\n      swap1\n      pop\n        /* \"#utility.yul\":14330:14696   */\n      swap2\n      swap1\n      pop\n      jump\t// out\n        /* \"#utility.yul\":14702:15121   */\n    tag_51:\n        /* \"#utility.yul\":14868:14872   */\n      0x00\n        /* \"#utility.yul\":14906:14908   */\n      0x20\n        /* \"#utility.yul\":14895:14904   */\n      dup3\n        /* \"#utility.yul\":14891:14909   */\n      add\n        /* \"#utility.yul\":14883:14909   */\n      swap1\n      pop\n        /* \"#utility.yul\":14955:14964   */\n      dup2\n        /* \"#utility.yul\":14949:14953   */\n      dup2\n        /* \"#utility.yul\":14945:14965   */\n      sub\n        /* \"#utility.yul\":14941:14942   */\n      0x00\n        /* \"#utility.yul\":14930:14939   */\n      dup4\n        /* \"#utility.yul\":14926:14943   */\n      add\n        /* \"#utility.yul\":14919:14966   */\n      mstore\n        /* \"#utility.yul\":14983:15114   */\n      tag_336\n        /* \"#utility.yul\":15109:15113   */\n      dup2\n        /* \"#utility.yul\":14983:15114   */\n      tag_146\n      jump\t// in\n    tag_336:\n        /* \"#utility.yul\":14975:15114   */\n      swap1\n      pop\n        /* \"#utility.yul\":14702:15121   */\n      swap2\n      swap1\n      pop\n      jump\t// out\n        /* \"#utility.yul\":15127:15308   */\n    tag_147:\n        /* \"#utility.yul\":15267:15300   */\n      0x416e7a61686c206d7573732067726f657373657220616c732030207365696e00\n        /* \"#utility.yul\":15263:15264   */\n      0x00\n        /* \"#utility.yul\":15255:15261   */\n      dup3\n        /* \"#utility.yul\":15251:15265   */\n      add\n        /* \"#utility.yul\":15244:15301   */\n      mstore\n        /* \"#utility.yul\":15127:15308   */\n      pop\n      jump\t// out\n        /* \"#utility.yul\":15314:15680   */\n    tag_148:\n        /* \"#utility.yul\":15456:15459   */\n      0x00\n        /* \"#utility.yul\":15477:15544   */\n      tag_339\n        /* \"#utility.yul\":15541:15543   */\n      0x1f\n        /* \"#utility.yul\":15536:15539   */\n      dup4\n        /* \"#utility.yul\":15477:15544   */\n      tag_141\n      jump\t// in\n    tag_339:\n        /* \"#utility.yul\":15470:15544   */\n      swap2\n      pop\n        /* \"#utility.yul\":15553:15646   */\n      tag_340\n        /* \"#utility.yul\":15642:15645   */\n      dup3\n        /* \"#utility.yul\":15553:15646   */\n      tag_147\n      jump\t// in\n    tag_340:\n        /* \"#utility.yul\":15671:15673   */\n      0x20\n        /* \"#utility.yul\":15666:15669   */\n      dup3\n        /* \"#utility.yul\":15662:15674   */\n      add\n        /* \"#utility.yul\":15655:15674   */\n      swap1\n      pop\n        /* \"#utility.yul\":15314:15680   */\n      swap2\n      swap1\n      pop\n      jump\t// out\n        /* \"#utility.yul\":15686:16105   */\n    tag_54:\n        /* \"#utility.yul\":15852:15856   */\n      0x00\n        /* \"#utility.yul\":15890:15892   */\n      0x20\n        /* \"#utility.yul\":15879:15888   */\n      dup3\n        /* \"#utility.yul\":15875:15893   */\n      add\n        /* \"#utility.yul\":15867:15893   */\n      swap1\n      pop\n        /* \"#utility.yul\":15939:15948   */\n      dup2\n        /* \"#utility.yul\":15933:15937   */\n      dup2\n        /* \"#utility.yul\":15929:15949   */\n      sub\n        /* \"#utility.yul\":15925:15926   */\n      0x00\n        /* \"#utility.yul\":15914:15923   */\n      dup4\n        /* \"#utility.yul\":15910:15927   */\n      add\n        /* \"#utility.yul\":15903:15950   */\n      mstore\n        /* \"#utility.yul\":15967:16098   */\n      tag_342\n        /* \"#utility.yul\":16093:16097   */\n      dup2\n        /* \"#utility.yul\":15967:16098   */\n      tag_148\n      jump\t// in\n    tag_342:\n        /* \"#utility.yul\":15959:16098   */\n      swap1\n      pop\n        /* \"#utility.yul\":15686:16105   */\n      swap2\n      swap1\n      pop\n      jump\t// out\n        /* \"#utility.yul\":16111:16332   */\n    tag_149:\n        /* \"#utility.yul\":16251:16285   */\n      0x416e7a61686c206d757373206b6c65696e657220616c73203635353335207365\n        /* \"#utility.yul\":16247:16248   */\n      0x00\n        /* \"#utility.yul\":16239:16245   */\n      dup3\n        /* \"#utility.yul\":16235:16249   */\n      add\n        /* \"#utility.yul\":16228:16286   */\n      mstore\n        /* \"#utility.yul\":16320:16324   */\n      0x696e000000000000000000000000000000000000000000000000000000000000\n        /* \"#utility.yul\":16315:16317   */\n      0x20\n        /* \"#utility.yul\":16307:16313   */\n      dup3\n        /* \"#utility.yul\":16303:16318   */\n      add\n        /* \"#utility.yul\":16296:16325   */\n      mstore\n        /* \"#utility.yul\":16111:16332   */\n      pop\n      jump\t// out\n        /* \"#utility.yul\":16338:16704   */\n    tag_150:\n        /* \"#utility.yul\":16480:16483   */\n      0x00\n        /* \"#utility.yul\":16501:16568   */\n      tag_345\n        /* \"#utility.yul\":16565:16567   */\n      0x22\n        /* \"#utility.yul\":16560:16563   */\n      dup4\n        /* \"#utility.yul\":16501:16568   */\n      tag_141\n      jump\t// in\n    tag_345:\n        /* \"#utility.yul\":16494:16568   */\n      swap2\n      pop\n        /* \"#utility.yul\":16577:16670   */\n      tag_346\n        /* \"#utility.yul\":16666:16669   */\n      dup3\n        /* \"#utility.yul\":16577:16670   */\n      tag_149\n      jump\t// in\n    tag_346:\n        /* \"#utility.yul\":16695:16697   */\n      0x40\n        /* \"#utility.yul\":16690:16693   */\n      dup3\n        /* \"#utility.yul\":16686:16698   */\n      add\n        /* \"#utility.yul\":16679:16698   */\n      swap1\n      pop\n        /* \"#utility.yul\":16338:16704   */\n      swap2\n      swap1\n      pop\n      jump\t// out\n        /* \"#utility.yul\":16710:17129   */\n    tag_57:\n        /* \"#utility.yul\":16876:16880   */\n      0x00\n        /* \"#utility.yul\":16914:16916   */\n      0x20\n        /* \"#utility.yul\":16903:16912   */\n      dup3\n        /* \"#utility.yul\":16899:16917   */\n      add\n        /* \"#utility.yul\":16891:16917   */\n      swap1\n      pop\n        /* \"#utility.yul\":16963:16972   */\n      dup2\n        /* \"#utility.yul\":16957:16961   */\n      dup2\n        /* \"#utility.yul\":16953:16973   */\n      sub\n        /* \"#utility.yul\":16949:16950   */\n      0x00\n        /* \"#utility.yul\":16938:16947   */\n      dup4\n        /* \"#utility.yul\":16934:16951   */\n      add\n        /* \"#utility.yul\":16927:16974   */\n      mstore\n        /* \"#utility.yul\":16991:17122   */\n      tag_348\n        /* \"#utility.yul\":17117:17121   */\n      dup2\n        /* \"#utility.yul\":16991:17122   */\n      tag_150\n      jump\t// in\n    tag_348:\n        /* \"#utility.yul\":16983:17122   */\n      swap1\n      pop\n        /* \"#utility.yul\":16710:17129   */\n      swap2\n      swap1\n      pop\n      jump\t// out\n        /* \"#utility.yul\":17135:17315   */\n    tag_151:\n        /* \"#utility.yul\":17275:17307   */\n      0x5072656973206d7573732067726f657373657220616c732030207365696e0000\n        /* \"#utility.yul\":17271:17272   */\n      0x00\n        /* \"#utility.yul\":17263:17269   */\n      dup3\n        /* \"#utility.yul\":17259:17273   */\n      add\n        /* \"#utility.yul\":17252:17308   */\n      mstore\n        /* \"#utility.yul\":17135:17315   */\n      pop\n      jump\t// out\n        /* \"#utility.yul\":17321:17687   */\n    tag_152:\n        /* \"#utility.yul\":17463:17466   */\n      0x00\n        /* \"#utility.yul\":17484:17551   */\n      tag_351\n        /* \"#utility.yul\":17548:17550   */\n      0x1e\n        /* \"#utility.yul\":17543:17546   */\n      dup4\n        /* \"#utility.yul\":17484:17551   */\n      tag_141\n      jump\t// in\n    tag_351:\n        /* \"#utility.yul\":17477:17551   */\n      swap2\n      pop\n        /* \"#utility.yul\":17560:17653   */\n      tag_352\n        /* \"#utility.yul\":17649:17652   */\n      dup3\n        /* \"#utility.yul\":17560:17653   */\n      tag_151\n      jump\t// in\n    tag_352:\n        /* \"#utility.yul\":17678:17680   */\n      0x20\n        /* \"#utility.yul\":17673:17676   */\n      dup3\n        /* \"#utility.yul\":17669:17681   */\n      add\n        /* \"#utility.yul\":17662:17681   */\n      swap1\n      pop\n        /* \"#utility.yul\":17321:17687   */\n      swap2\n      swap1\n      pop\n      jump\t// out\n        /* \"#utility.yul\":17693:18112   */\n    tag_60:\n        /* \"#utility.yul\":17859:17863   */\n      0x00\n        /* \"#utility.yul\":17897:17899   */\n      0x20\n        /* \"#utility.yul\":17886:17895   */\n      dup3\n        /* \"#utility.yul\":17882:17900   */\n      add\n        /* \"#utility.yul\":17874:17900   */\n      swap1\n      pop\n        /* \"#utility.yul\":17946:17955   */\n      dup2\n        /* \"#utility.yul\":17940:17944   */\n      dup2\n        /* \"#utility.yul\":17936:17956   */\n      sub\n        /* \"#utility.yul\":17932:17933   */\n      0x00\n        /* \"#utility.yul\":17921:17930   */\n      dup4\n        /* \"#utility.yul\":17917:17934   */\n      add\n        /* \"#utility.yul\":17910:17957   */\n      mstore\n        /* \"#utility.yul\":17974:18105   */\n      tag_354\n        /* \"#utility.yul\":18100:18104   */\n      dup2\n        /* \"#utility.yul\":17974:18105   */\n      tag_152\n      jump\t// in\n    tag_354:\n        /* \"#utility.yul\":17966:18105   */\n      swap1\n      pop\n        /* \"#utility.yul\":17693:18112   */\n      swap2\n      swap1\n      pop\n      jump\t// out\n        /* \"#utility.yul\":18118:18343   */\n    tag_153:\n        /* \"#utility.yul\":18258:18292   */\n      0x5072656973206d757373206b6c65696e657220616c7320343239343936373239\n        /* \"#utility.yul\":18254:18255   */\n      0x00\n        /* \"#utility.yul\":18246:18252   */\n      dup3\n        /* \"#utility.yul\":18242:18256   */\n      add\n        /* \"#utility.yul\":18235:18293   */\n      mstore\n        /* \"#utility.yul\":18327:18335   */\n      0x35207365696e0000000000000000000000000000000000000000000000000000\n        /* \"#utility.yul\":18322:18324   */\n      0x20\n        /* \"#utility.yul\":18314:18320   */\n      dup3\n        /* \"#utility.yul\":18310:18325   */\n      add\n        /* \"#utility.yul\":18303:18336   */\n      mstore\n        /* \"#utility.yul\":18118:18343   */\n      pop\n      jump\t// out\n        /* \"#utility.yul\":18349:18715   */\n    tag_154:\n        /* \"#utility.yul\":18491:18494   */\n      0x00\n        /* \"#utility.yul\":18512:18579   */\n      tag_357\n        /* \"#utility.yul\":18576:18578   */\n      0x26\n        /* \"#utility.yul\":18571:18574   */\n      dup4\n        /* \"#utility.yul\":18512:18579   */\n      tag_141\n      jump\t// in\n    tag_357:\n        /* \"#utility.yul\":18505:18579   */\n      swap2\n      pop\n        /* \"#utility.yul\":18588:18681   */\n      tag_358\n        /* \"#utility.yul\":18677:18680   */\n      dup3\n        /* \"#utility.yul\":18588:18681   */\n      tag_153\n      jump\t// in\n    tag_358:\n        /* \"#utility.yul\":18706:18708   */\n      0x40\n        /* \"#utility.yul\":18701:18704   */\n      dup3\n        /* \"#utility.yul\":18697:18709   */\n      add\n        /* \"#utility.yul\":18690:18709   */\n      swap1\n      pop\n        /* \"#utility.yul\":18349:18715   */\n      swap2\n      swap1\n      pop\n      jump\t// out\n        /* \"#utility.yul\":18721:19140   */\n    tag_63:\n        /* \"#utility.yul\":18887:18891   */\n      0x00\n        /* \"#utility.yul\":18925:18927   */\n      0x20\n        /* \"#utility.yul\":18914:18923   */\n      dup3\n        /* \"#utility.yul\":18910:18928   */\n      add\n        /* \"#utility.yul\":18902:18928   */\n      swap1\n      pop\n        /* \"#utility.yul\":18974:18983   */\n      dup2\n        /* \"#utility.yul\":18968:18972   */\n      dup2\n        /* \"#utility.yul\":18964:18984   */\n      sub\n        /* \"#utility.yul\":18960:18961   */\n      0x00\n        /* \"#utility.yul\":18949:18958   */\n      dup4\n        /* \"#utility.yul\":18945:18962   */\n      add\n        /* \"#utility.yul\":18938:18985   */\n      mstore\n        /* \"#utility.yul\":19002:19133   */\n      tag_360\n        /* \"#utility.yul\":19128:19132   */\n      dup2\n        /* \"#utility.yul\":19002:19133   */\n      tag_154\n      jump\t// in\n    tag_360:\n        /* \"#utility.yul\":18994:19133   */\n      swap1\n      pop\n        /* \"#utility.yul\":18721:19140   */\n      swap2\n      swap1\n      pop\n      jump\t// out\n        /* \"#utility.yul\":19146:19386   */\n    tag_155:\n        /* \"#utility.yul\":19286:19320   */\n      0x53636865696e4e756d6d6572206d757373207a7769736368656e203020756e64\n        /* \"#utility.yul\":19282:19283   */\n      0x00\n        /* \"#utility.yul\":19274:19280   */\n      dup3\n        /* \"#utility.yul\":19270:19284   */\n      add\n        /* \"#utility.yul\":19263:19321   */\n      mstore\n        /* \"#utility.yul\":19355:19378   */\n      0x20323831343734393736373130363535207365696e0000000000000000000000\n        /* \"#utility.yul\":19350:19352   */\n      0x20\n        /* \"#utility.yul\":19342:19348   */\n      dup3\n        /* \"#utility.yul\":19338:19353   */\n      add\n        /* \"#utility.yul\":19331:19379   */\n      mstore\n        /* \"#utility.yul\":19146:19386   */\n      pop\n      jump\t// out\n        /* \"#utility.yul\":19392:19758   */\n    tag_156:\n        /* \"#utility.yul\":19534:19537   */\n      0x00\n        /* \"#utility.yul\":19555:19622   */\n      tag_363\n        /* \"#utility.yul\":19619:19621   */\n      0x35\n        /* \"#utility.yul\":19614:19617   */\n      dup4\n        /* \"#utility.yul\":19555:19622   */\n      tag_141\n      jump\t// in\n    tag_363:\n        /* \"#utility.yul\":19548:19622   */\n      swap2\n      pop\n        /* \"#utility.yul\":19631:19724   */\n      tag_364\n        /* \"#utility.yul\":19720:19723   */\n      dup3\n        /* \"#utility.yul\":19631:19724   */\n      tag_155\n      jump\t// in\n    tag_364:\n        /* \"#utility.yul\":19749:19751   */\n      0x40\n        /* \"#utility.yul\":19744:19747   */\n      dup3\n        /* \"#utility.yul\":19740:19752   */\n      add\n        /* \"#utility.yul\":19733:19752   */\n      swap1\n      pop\n        /* \"#utility.yul\":19392:19758   */\n      swap2\n      swap1\n      pop\n      jump\t// out\n        /* \"#utility.yul\":19764:20183   */\n    tag_66:\n        /* \"#utility.yul\":19930:19934   */\n      0x00\n        /* \"#utility.yul\":19968:19970   */\n      0x20\n        /* \"#utility.yul\":19957:19966   */\n      dup3\n        /* \"#utility.yul\":19953:19971   */\n      add\n        /* \"#utility.yul\":19945:19971   */\n      swap1\n      pop\n        /* \"#utility.yul\":20017:20026   */\n      dup2\n        /* \"#utility.yul\":20011:20015   */\n      dup2\n        /* \"#utility.yul\":20007:20027   */\n      sub\n        /* \"#utility.yul\":20003:20004   */\n      0x00\n        /* \"#utility.yul\":19992:20001   */\n      dup4\n        /* \"#utility.yul\":19988:20005   */\n      add\n        /* \"#utility.yul\":19981:20028   */\n      mstore\n        /* \"#utility.yul\":20045:20176   */\n      tag_366\n        /* \"#utility.yul\":20171:20175   */\n      dup2\n        /* \"#utility.yul\":20045:20176   */\n      tag_156\n      jump\t// in\n    tag_366:\n        /* \"#utility.yul\":20037:20176   */\n      swap1\n      pop\n        /* \"#utility.yul\":19764:20183   */\n      swap2\n      swap1\n      pop\n      jump\t// out\n        /* \"#utility.yul\":20189:20304   */\n    tag_157:\n        /* \"#utility.yul\":20274:20297   */\n      tag_368\n        /* \"#utility.yul\":20291:20296   */\n      dup2\n        /* \"#utility.yul\":20274:20297   */\n      tag_115\n      jump\t// in\n    tag_368:\n        /* \"#utility.yul\":20269:20272   */\n      dup3\n        /* \"#utility.yul\":20262:20298   */\n      mstore\n        /* \"#utility.yul\":20189:20304   */\n      pop\n      pop\n      jump\t// out\n        /* \"#utility.yul\":20310:20425   */\n    tag_158:\n        /* \"#utility.yul\":20395:20418   */\n      tag_370\n        /* \"#utility.yul\":20412:20417   */\n      dup2\n        /* \"#utility.yul\":20395:20418   */\n      tag_118\n      jump\t// in\n    tag_370:\n        /* \"#utility.yul\":20390:20393   */\n      dup3\n        /* \"#utility.yul\":20383:20419   */\n      mstore\n        /* \"#utility.yul\":20310:20425   */\n      pop\n      pop\n      jump\t// out\n        /* \"#utility.yul\":20431:20546   */\n    tag_159:\n        /* \"#utility.yul\":20516:20539   */\n      tag_372\n        /* \"#utility.yul\":20533:20538   */\n      dup2\n        /* \"#utility.yul\":20516:20539   */\n      tag_121\n      jump\t// in\n    tag_372:\n        /* \"#utility.yul\":20511:20514   */\n      dup3\n        /* \"#utility.yul\":20504:20540   */\n      mstore\n        /* \"#utility.yul\":20431:20546   */\n      pop\n      pop\n      jump\t// out\n        /* \"#utility.yul\":20552:20661   */\n    tag_160:\n        /* \"#utility.yul\":20633:20654   */\n      tag_374\n        /* \"#utility.yul\":20648:20653   */\n      dup2\n        /* \"#utility.yul\":20633:20654   */\n      tag_124\n      jump\t// in\n    tag_374:\n        /* \"#utility.yul\":20628:20631   */\n      dup3\n        /* \"#utility.yul\":20621:20655   */\n      mstore\n        /* \"#utility.yul\":20552:20661   */\n      pop\n      pop\n      jump\t// out\n        /* \"#utility.yul\":20667:21509   */\n    tag_70:\n        /* \"#utility.yul\":20908:20912   */\n      0x00\n        /* \"#utility.yul\":20946:20949   */\n      0xc0\n        /* \"#utility.yul\":20935:20944   */\n      dup3\n        /* \"#utility.yul\":20931:20950   */\n      add\n        /* \"#utility.yul\":20923:20950   */\n      swap1\n      pop\n        /* \"#utility.yul\":20996:21005   */\n      dup2\n        /* \"#utility.yul\":20990:20994   */\n      dup2\n        /* \"#utility.yul\":20986:21006   */\n      sub\n        /* \"#utility.yul\":20982:20983   */\n      0x00\n        /* \"#utility.yul\":20971:20980   */\n      dup4\n        /* \"#utility.yul\":20967:20984   */\n      add\n        /* \"#utility.yul\":20960:21007   */\n      mstore\n        /* \"#utility.yul\":21024:21102   */\n      tag_376\n        /* \"#utility.yul\":21097:21101   */\n      dup2\n        /* \"#utility.yul\":21088:21094   */\n      dup10\n        /* \"#utility.yul\":21024:21102   */\n      tag_142\n      jump\t// in\n    tag_376:\n        /* \"#utility.yul\":21016:21102   */\n      swap1\n      pop\n        /* \"#utility.yul\":21112:21184   */\n      tag_377\n        /* \"#utility.yul\":21180:21182   */\n      0x20\n        /* \"#utility.yul\":21169:21178   */\n      dup4\n        /* \"#utility.yul\":21165:21183   */\n      add\n        /* \"#utility.yul\":21156:21162   */\n      dup9\n        /* \"#utility.yul\":21112:21184   */\n      tag_137\n      jump\t// in\n    tag_377:\n        /* \"#utility.yul\":21194:21264   */\n      tag_378\n        /* \"#utility.yul\":21260:21262   */\n      0x40\n        /* \"#utility.yul\":21249:21258   */\n      dup4\n        /* \"#utility.yul\":21245:21263   */\n      add\n        /* \"#utility.yul\":21236:21242   */\n      dup8\n        /* \"#utility.yul\":21194:21264   */\n      tag_157\n      jump\t// in\n    tag_378:\n        /* \"#utility.yul\":21274:21344   */\n      tag_379\n        /* \"#utility.yul\":21340:21342   */\n      0x60\n        /* \"#utility.yul\":21329:21338   */\n      dup4\n        /* \"#utility.yul\":21325:21343   */\n      add\n        /* \"#utility.yul\":21316:21322   */\n      dup7\n        /* \"#utility.yul\":21274:21344   */\n      tag_158\n      jump\t// in\n    tag_379:\n        /* \"#utility.yul\":21354:21425   */\n      tag_380\n        /* \"#utility.yul\":21420:21423   */\n      0x80\n        /* \"#utility.yul\":21409:21418   */\n      dup4\n        /* \"#utility.yul\":21405:21424   */\n      add\n        /* \"#utility.yul\":21396:21402   */\n      dup6\n        /* \"#utility.yul\":21354:21425   */\n      tag_159\n      jump\t// in\n    tag_380:\n        /* \"#utility.yul\":21435:21502   */\n      tag_381\n        /* \"#utility.yul\":21497:21500   */\n      0xa0\n        /* \"#utility.yul\":21486:21495   */\n      dup4\n        /* \"#utility.yul\":21482:21501   */\n      add\n        /* \"#utility.yul\":21473:21479   */\n      dup5\n        /* \"#utility.yul\":21435:21502   */\n      tag_160\n      jump\t// in\n    tag_381:\n        /* \"#utility.yul\":20667:21509   */\n      swap8\n      swap7\n      pop\n      pop\n      pop\n      pop\n      pop\n      pop\n      pop\n      jump\t// out\n        /* \"#utility.yul\":21515:21656   */\n    tag_161:\n        /* \"#utility.yul\":21564:21568   */\n      0x00\n        /* \"#utility.yul\":21587:21590   */\n      dup2\n        /* \"#utility.yul\":21579:21590   */\n      swap1\n      pop\n        /* \"#utility.yul\":21610:21613   */\n      dup2\n        /* \"#utility.yul\":21607:21608   */\n      0x00\n        /* \"#utility.yul\":21600:21614   */\n      mstore\n        /* \"#utility.yul\":21644:21648   */\n      0x20\n        /* \"#utility.yul\":21641:21642   */\n      0x00\n        /* \"#utility.yul\":21631:21649   */\n      keccak256\n        /* \"#utility.yul\":21623:21649   */\n      swap1\n      pop\n        /* \"#utility.yul\":21515:21656   */\n      swap2\n      swap1\n      pop\n      jump\t// out\n        /* \"#utility.yul\":21662:21755   */\n    tag_162:\n        /* \"#utility.yul\":21699:21705   */\n      0x00\n        /* \"#utility.yul\":21746:21748   */\n      0x20\n        /* \"#utility.yul\":21741:21743   */\n      0x1f\n        /* \"#utility.yul\":21734:21739   */\n      dup4\n        /* \"#utility.yul\":21730:21744   */\n      add\n        /* \"#utility.yul\":21726:21749   */\n      div\n        /* \"#utility.yul\":21716:21749   */\n      swap1\n      pop\n        /* \"#utility.yul\":21662:21755   */\n      swap2\n      swap1\n      pop\n      jump\t// out\n        /* \"#utility.yul\":21761:21868   */\n    tag_163:\n        /* \"#utility.yul\":21805:21813   */\n      0x00\n        /* \"#utility.yul\":21855:21860   */\n      dup3\n        /* \"#utility.yul\":21849:21853   */\n      dup3\n        /* \"#utility.yul\":21845:21861   */\n      shl\n        /* \"#utility.yul\":21824:21861   */\n      swap1\n      pop\n        /* \"#utility.yul\":21761:21868   */\n      swap3\n      swap2\n      pop\n      pop\n      jump\t// out\n        /* \"#utility.yul\":21874:22267   */\n    tag_164:\n        /* \"#utility.yul\":21943:21949   */\n      0x00\n        /* \"#utility.yul\":21993:21994   */\n      0x08\n        /* \"#utility.yul\":21981:21991   */\n      dup4\n        /* \"#utility.yul\":21977:21995   */\n      mul\n        /* \"#utility.yul\":22016:22113   */\n      tag_386\n        /* \"#utility.yul\":22046:22112   */\n      0xffffffffffffffffffffffffffffffffffffffffffffffffffffffffffffffff\n        /* \"#utility.yul\":22035:22044   */\n      dup3\n        /* \"#utility.yul\":22016:22113   */\n      tag_163\n      jump\t// in\n    tag_386:\n        /* \"#utility.yul\":22134:22173   */\n      tag_387\n        /* \"#utility.yul\":22164:22172   */\n      dup7\n        /* \"#utility.yul\":22153:22162   */\n      dup4\n        /* \"#utility.yul\":22134:22173   */\n      tag_163\n      jump\t// in\n    tag_387:\n        /* \"#utility.yul\":22122:22173   */\n      swap6\n      pop\n        /* \"#utility.yul\":22206:22210   */\n      dup1\n        /* \"#utility.yul\":22202:22211   */\n      not\n        /* \"#utility.yul\":22195:22200   */\n      dup5\n        /* \"#utility.yul\":22191:22212   */\n      and\n        /* \"#utility.yul\":22182:22212   */\n      swap4\n      pop\n        /* \"#utility.yul\":22255:22259   */\n      dup1\n        /* \"#utility.yul\":22245:22253   */\n      dup7\n        /* \"#utility.yul\":22241:22260   */\n      and\n        /* \"#utility.yul\":22234:22239   */\n      dup5\n        /* \"#utility.yul\":22231:22261   */\n      or\n        /* \"#utility.yul\":22221:22261   */\n      swap3\n      pop\n        /* \"#utility.yul\":21950:22267   */\n      pop\n      pop\n        /* \"#utility.yul\":21874:22267   */\n      swap4\n      swap3\n      pop\n      pop\n      pop\n      jump\t// out\n        /* \"#utility.yul\":22273:22333   */\n    tag_165:\n        /* \"#utility.yul\":22301:22304   */\n      0x00\n        /* \"#utility.yul\":22322:22327   */\n      dup2\n        /* \"#utility.yul\":22315:22327   */\n      swap1\n      pop\n        /* \"#utility.yul\":22273:22333   */\n      swap2\n      swap1\n      pop\n      jump\t// out\n        /* \"#utility.yul\":22339:22481   */\n    tag_166:\n        /* \"#utility.yul\":22389:22398   */\n      0x00\n        /* \"#utility.yul\":22422:22475   */\n      tag_390\n        /* \"#utility.yul\":22440:22474   */\n      tag_391\n        /* \"#utility.yul\":22449:22473   */\n      tag_392\n        /* \"#utility.yul\":22467:22472   */\n      dup5\n        /* \"#utility.yul\":22449:22473   */\n      tag_138\n      jump\t// in\n    tag_392:\n        /* \"#utility.yul\":22440:22474   */\n      tag_165\n      jump\t// in\n    tag_391:\n        /* \"#utility.yul\":22422:22475   */\n      tag_138\n      jump\t// in\n    tag_390:\n        /* \"#utility.yul\":22409:22475   */\n      swap1\n      pop\n        /* \"#utility.yul\":22339:22481   */\n      swap2\n      swap1\n      pop\n      jump\t// out\n        /* \"#utility.yul\":22487:22562   */\n    tag_167:\n        /* \"#utility.yul\":22530:22533   */\n      0x00\n        /* \"#utility.yul\":22551:22556   */\n      dup2\n        /* \"#utility.yul\":22544:22556   */\n      swap1\n      pop\n        /* \"#utility.yul\":22487:22562   */\n      swap2\n      swap1\n      pop\n      jump\t// out\n        /* \"#utility.yul\":22568:22837   */\n    tag_168:\n        /* \"#utility.yul\":22678:22717   */\n      tag_395\n        /* \"#utility.yul\":22709:22716   */\n      dup4\n        /* \"#utility.yul\":22678:22717   */\n      tag_166\n      jump\t// in\n    tag_395:\n        /* \"#utility.yul\":22739:22830   */\n      tag_396\n        /* \"#utility.yul\":22788:22829   */\n      tag_397\n        /* \"#utility.yul\":22812:22828   */\n      dup3\n        /* \"#utility.yul\":22788:22829   */\n      tag_167\n      jump\t// in\n    tag_397:\n        /* \"#utility.yul\":22780:22786   */\n      dup5\n        /* \"#utility.yul\":22773:22777   */\n      dup5\n        /* \"#utility.yul\":22767:22778   */\n      sload\n        /* \"#utility.yul\":22739:22830   */\n      tag_164\n      jump\t// in\n    tag_396:\n        /* \"#utility.yul\":22733:22737   */\n      dup3\n        /* \"#utility.yul\":22726:22831   */\n      sstore\n        /* \"#utility.yul\":22644:22837   */\n      pop\n        /* \"#utility.yul\":22568:22837   */\n      pop\n      pop\n      pop\n      jump\t// out\n        /* \"#utility.yul\":22843:22916   */\n    tag_169:\n        /* \"#utility.yul\":22888:22891   */\n      0x00\n        /* \"#utility.yul\":22843:22916   */\n      swap1\n      jump\t// out\n        /* \"#utility.yul\":22922:23111   */\n    tag_170:\n        /* \"#utility.yul\":22999:23031   */\n      tag_400\n      tag_169\n      jump\t// in\n    tag_400:\n        /* \"#utility.yul\":23040:23105   */\n      tag_401\n        /* \"#utility.yul\":23098:23104   */\n      dup2\n        /* \"#utility.yul\":23090:23096   */\n      dup5\n        /* \"#utility.yul\":23084:23088   */\n      dup5\n        /* \"#utility.yul\":23040:23105   */\n      tag_168\n      jump\t// in\n    tag_401:\n        /* \"#utility.yul\":22975:23111   */\n      pop\n        /* \"#utility.yul\":22922:23111   */\n      pop\n      pop\n      jump\t// out\n        /* \"#utility.yul\":23117:23303   */\n    tag_171:\n        /* \"#utility.yul\":23177:23297   */\n    tag_403:\n        /* \"#utility.yul\":23194:23197   */\n      dup2\n        /* \"#utility.yul\":23187:23192   */\n      dup2\n        /* \"#utility.yul\":23184:23198   */\n      lt\n        /* \"#utility.yul\":23177:23297   */\n      iszero\n      tag_405\n      jumpi\n        /* \"#utility.yul\":23248:23287   */\n      tag_406\n        /* \"#utility.yul\":23285:23286   */\n      0x00\n        /* \"#utility.yul\":23278:23283   */\n      dup3\n        /* \"#utility.yul\":23248:23287   */\n      tag_170\n      jump\t// in\n    tag_406:\n        /* \"#utility.yul\":23221:23222   */\n      0x01\n        /* \"#utility.yul\":23214:23219   */\n      dup2\n        /* \"#utility.yul\":23210:23223   */\n      add\n        /* \"#utility.yul\":23201:23223   */\n      swap1\n      pop\n        /* \"#utility.yul\":23177:23297   */\n      jump(tag_403)\n    tag_405:\n        /* \"#utility.yul\":23117:23303   */\n      pop\n      pop\n      jump\t// out\n        /* \"#utility.yul\":23309:23852   */\n    tag_172:\n        /* \"#utility.yul\":23410:23412   */\n      0x1f\n        /* \"#utility.yul\":23405:23408   */\n      dup3\n        /* \"#utility.yul\":23402:23413   */\n      gt\n        /* \"#utility.yul\":23399:23845   */\n      iszero\n      tag_408\n      jumpi\n        /* \"#utility.yul\":23444:23482   */\n      tag_409\n        /* \"#utility.yul\":23476:23481   */\n      dup2\n        /* \"#utility.yul\":23444:23482   */\n      tag_161\n      jump\t// in\n    tag_409:\n        /* \"#utility.yul\":23528:23557   */\n      tag_410\n        /* \"#utility.yul\":23546:23556   */\n      dup5\n        /* \"#utility.yul\":23528:23557   */\n      tag_162\n      jump\t// in\n    tag_410:\n        /* \"#utility.yul\":23518:23526   */\n      dup2\n        /* \"#utility.yul\":23514:23558   */\n      add\n        /* \"#utility.yul\":23711:23713   */\n      0x20\n        /* \"#utility.yul\":23699:23709   */\n      dup6\n        /* \"#utility.yul\":23696:23714   */\n      lt\n        /* \"#utility.yul\":23693:23742   */\n      iszero\n      tag_411\n      jumpi\n        /* \"#utility.yul\":23732:23740   */\n      dup2\n        /* \"#utility.yul\":23717:23740   */\n      swap1\n      pop\n        /* \"#utility.yul\":23693:23742   */\n    tag_411:\n        /* \"#utility.yul\":23755:23835   */\n      tag_412\n        /* \"#utility.yul\":23811:23833   */\n      tag_413\n        /* \"#utility.yul\":23829:23832   */\n      dup6\n        /* \"#utility.yul\":23811:23833   */\n      tag_162\n      jump\t// in\n    tag_413:\n        /* \"#utility.yul\":23801:23809   */\n      dup4\n        /* \"#utility.yul\":23797:23834   */\n      add\n        /* \"#utility.yul\":23784:23795   */\n      dup3\n        /* \"#utility.yul\":23755:23835   */\n      tag_171\n      jump\t// in\n    tag_412:\n        /* \"#utility.yul\":23414:23845   */\n      pop\n      pop\n        /* \"#utility.yul\":23399:23845   */\n    tag_408:\n        /* \"#utility.yul\":23309:23852   */\n      pop\n      pop\n      pop\n      jump\t// out\n        /* \"#utility.yul\":23858:23975   */\n    tag_173:\n        /* \"#utility.yul\":23912:23920   */\n      0x00\n        /* \"#utility.yul\":23962:23967   */\n      dup3\n        /* \"#utility.yul\":23956:23960   */\n      dup3\n        /* \"#utility.yul\":23952:23968   */\n      shr\n        /* \"#utility.yul\":23931:23968   */\n      swap1\n      pop\n        /* \"#utility.yul\":23858:23975   */\n      swap3\n      swap2\n      pop\n      pop\n      jump\t// out\n        /* \"#utility.yul\":23981:24150   */\n    tag_174:\n        /* \"#utility.yul\":24025:24031   */\n      0x00\n        /* \"#utility.yul\":24058:24109   */\n      tag_416\n        /* \"#utility.yul\":24106:24107   */\n      0x00\n        /* \"#utility.yul\":24102:24108   */\n      not\n        /* \"#utility.yul\":24094:24099   */\n      dup5\n        /* \"#utility.yul\":24091:24092   */\n      0x08\n        /* \"#utility.yul\":24087:24100   */\n      mul\n        /* \"#utility.yul\":24058:24109   */\n      tag_173\n      jump\t// in\n    tag_416:\n        /* \"#utility.yul\":24054:24110   */\n      not\n        /* \"#utility.yul\":24139:24143   */\n      dup1\n        /* \"#utility.yul\":24133:24137   */\n      dup4\n        /* \"#utility.yul\":24129:24144   */\n      and\n        /* \"#utility.yul\":24119:24144   */\n      swap2\n      pop\n        /* \"#utility.yul\":24032:24150   */\n      pop\n        /* \"#utility.yul\":23981:24150   */\n      swap3\n      swap2\n      pop\n      pop\n      jump\t// out\n        /* \"#utility.yul\":24155:24450   */\n    tag_175:\n        /* \"#utility.yul\":24231:24235   */\n      0x00\n        /* \"#utility.yul\":24377:24406   */\n      tag_418\n        /* \"#utility.yul\":24402:24405   */\n      dup4\n        /* \"#utility.yul\":24396:24400   */\n      dup4\n        /* \"#utility.yul\":24377:24406   */\n      tag_174\n      jump\t// in\n    tag_418:\n        /* \"#utility.yul\":24369:24406   */\n      swap2\n      pop\n        /* \"#utility.yul\":24439:24442   */\n      dup3\n        /* \"#utility.yul\":24436:24437   */\n      0x02\n        /* \"#utility.yul\":24432:24443   */\n      mul\n        /* \"#utility.yul\":24426:24430   */\n      dup3\n        /* \"#utility.yul\":24423:24444   */\n      or\n        /* \"#utility.yul\":24415:24444   */\n      swap1\n      pop\n        /* \"#utility.yul\":24155:24450   */\n      swap3\n      swap2\n      pop\n      pop\n      jump\t// out\n        /* \"#utility.yul\":24455:25850   */\n    tag_75:\n        /* \"#utility.yul\":24572:24609   */\n      tag_420\n        /* \"#utility.yul\":24605:24608   */\n      dup3\n        /* \"#utility.yul\":24572:24609   */\n      tag_95\n      jump\t// in\n    tag_420:\n        /* \"#utility.yul\":24674:24692   */\n      0xffffffffffffffff\n        /* \"#utility.yul\":24666:24672   */\n      dup2\n        /* \"#utility.yul\":24663:24693   */\n      gt\n        /* \"#utility.yul\":24660:24716   */\n      iszero\n      tag_421\n      jumpi\n        /* \"#utility.yul\":24696:24714   */\n      tag_422\n      tag_108\n      jump\t// in\n    tag_422:\n        /* \"#utility.yul\":24660:24716   */\n    tag_421:\n        /* \"#utility.yul\":24740:24778   */\n      tag_423\n        /* \"#utility.yul\":24772:24776   */\n      dup3\n        /* \"#utility.yul\":24766:24777   */\n      sload\n        /* \"#utility.yul\":24740:24778   */\n      tag_43\n      jump\t// in\n    tag_423:\n        /* \"#utility.yul\":24825:24892   */\n      tag_424\n        /* \"#utility.yul\":24885:24891   */\n      dup3\n        /* \"#utility.yul\":24877:24883   */\n      dup3\n        /* \"#utility.yul\":24871:24875   */\n      dup6\n        /* \"#utility.yul\":24825:24892   */\n      tag_172\n      jump\t// in\n    tag_424:\n        /* \"#utility.yul\":24919:24920   */\n      0x00\n        /* \"#utility.yul\":24943:24947   */\n      0x20\n        /* \"#utility.yul\":24930:24947   */\n      swap1\n      pop\n        /* \"#utility.yul\":24975:24977   */\n      0x1f\n        /* \"#utility.yul\":24967:24973   */\n      dup4\n        /* \"#utility.yul\":24964:24978   */\n      gt\n        /* \"#utility.yul\":24992:24993   */\n      0x01\n        /* \"#utility.yul\":24987:25605   */\n      dup2\n      eq\n      tag_426\n      jumpi\n        /* \"#utility.yul\":25649:25650   */\n      0x00\n        /* \"#utility.yul\":25666:25672   */\n      dup5\n        /* \"#utility.yul\":25663:25740   */\n      iszero\n      tag_427\n      jumpi\n        /* \"#utility.yul\":25715:25724   */\n      dup3\n        /* \"#utility.yul\":25710:25713   */\n      dup8\n        /* \"#utility.yul\":25706:25725   */\n      add\n        /* \"#utility.yul\":25700:25726   */\n      mload\n        /* \"#utility.yul\":25691:25726   */\n      swap1\n      pop\n        /* \"#utility.yul\":25663:25740   */\n    tag_427:\n        /* \"#utility.yul\":25766:25833   */\n      tag_428\n        /* \"#utility.yul\":25826:25832   */\n      dup6\n        /* \"#utility.yul\":25819:25824   */\n      dup3\n        /* \"#utility.yul\":25766:25833   */\n      tag_175\n      jump\t// in\n    tag_428:\n        /* \"#utility.yul\":25760:25764   */\n      dup7\n        /* \"#utility.yul\":25753:25834   */\n      sstore\n        /* \"#utility.yul\":25622:25844   */\n      pop\n        /* \"#utility.yul\":24957:25844   */\n      jump(tag_425)\n        /* \"#utility.yul\":24987:25605   */\n    tag_426:\n        /* \"#utility.yul\":25039:25043   */\n      0x1f\n        /* \"#utility.yul\":25035:25044   */\n      not\n        /* \"#utility.yul\":25027:25033   */\n      dup5\n        /* \"#utility.yul\":25023:25045   */\n      and\n        /* \"#utility.yul\":25073:25110   */\n      tag_429\n        /* \"#utility.yul\":25105:25109   */\n      dup7\n        /* \"#utility.yul\":25073:25110   */\n      tag_161\n      jump\t// in\n    tag_429:\n        /* \"#utility.yul\":25132:25133   */\n      0x00\n        /* \"#utility.yul\":25146:25354   */\n    tag_430:\n        /* \"#utility.yul\":25160:25167   */\n      dup3\n        /* \"#utility.yul\":25157:25158   */\n      dup2\n        /* \"#utility.yul\":25154:25168   */\n      lt\n        /* \"#utility.yul\":25146:25354   */\n      iszero\n      tag_432\n      jumpi\n        /* \"#utility.yul\":25239:25248   */\n      dup5\n        /* \"#utility.yul\":25234:25237   */\n      dup10\n        /* \"#utility.yul\":25230:25249   */\n      add\n        /* \"#utility.yul\":25224:25250   */\n      mload\n        /* \"#utility.yul\":25216:25222   */\n      dup3\n        /* \"#utility.yul\":25209:25251   */\n      sstore\n        /* \"#utility.yul\":25290:25291   */\n      0x01\n        /* \"#utility.yul\":25282:25288   */\n      dup3\n        /* \"#utility.yul\":25278:25292   */\n      add\n        /* \"#utility.yul\":25268:25292   */\n      swap2\n      pop\n        /* \"#utility.yul\":25337:25339   */\n      0x20\n        /* \"#utility.yul\":25326:25335   */\n      dup6\n        /* \"#utility.yul\":25322:25340   */\n      add\n        /* \"#utility.yul\":25309:25340   */\n      swap5\n      pop\n        /* \"#utility.yul\":25183:25187   */\n      0x20\n        /* \"#utility.yul\":25180:25181   */\n      dup2\n        /* \"#utility.yul\":25176:25188   */\n      add\n        /* \"#utility.yul\":25171:25188   */\n      swap1\n      pop\n        /* \"#utility.yul\":25146:25354   */\n      jump(tag_430)\n    tag_432:\n        /* \"#utility.yul\":25382:25388   */\n      dup7\n        /* \"#utility.yul\":25373:25380   */\n      dup4\n        /* \"#utility.yul\":25370:25389   */\n      lt\n        /* \"#utility.yul\":25367:25546   */\n      iszero\n      tag_433\n      jumpi\n        /* \"#utility.yul\":25440:25449   */\n      dup5\n        /* \"#utility.yul\":25435:25438   */\n      dup10\n        /* \"#utility.yul\":25431:25450   */\n      add\n        /* \"#utility.yul\":25425:25451   */\n      mload\n        /* \"#utility.yul\":25483:25531   */\n      tag_434\n        /* \"#utility.yul\":25525:25529   */\n      0x1f\n        /* \"#utility.yul\":25517:25523   */\n      dup10\n        /* \"#utility.yul\":25513:25530   */\n      and\n        /* \"#utility.yul\":25502:25511   */\n      dup3\n        /* \"#utility.yul\":25483:25531   */\n      tag_174\n      jump\t// in\n    tag_434:\n        /* \"#utility.yul\":25475:25481   */\n      dup4\n        /* \"#utility.yul\":25468:25532   */\n      sstore\n        /* \"#utility.yul\":25390:25546   */\n      pop\n        /* \"#utility.yul\":25367:25546   */\n    tag_433:\n        /* \"#utility.yul\":25592:25593   */\n      0x01\n        /* \"#utility.yul\":25588:25589   */\n      0x02\n        /* \"#utility.yul\":25580:25586   */\n      dup9\n        /* \"#utility.yul\":25576:25590   */\n      mul\n        /* \"#utility.yul\":25572:25594   */\n      add\n        /* \"#utility.yul\":25566:25570   */\n      dup9\n        /* \"#utility.yul\":25559:25595   */\n      sstore\n        /* \"#utility.yul\":24994:25605   */\n      pop\n      pop\n      pop\n        /* \"#utility.yul\":24957:25844   */\n    tag_425:\n      pop\n        /* \"#utility.yul\":24547:25850   */\n      pop\n      pop\n      pop\n        /* \"#utility.yul\":24455:25850   */\n      pop\n      pop\n      jump\t// out\n        /* \"#utility.yul\":25856:26004   */\n    tag_176:\n        /* \"#utility.yul\":25958:25969   */\n      0x00\n        /* \"#utility.yul\":25995:25998   */\n      dup2\n        /* \"#utility.yul\":25980:25998   */\n      swap1\n      pop\n        /* \"#utility.yul\":25856:26004   */\n      swap3\n      swap2\n      pop\n      pop\n      jump\t// out\n        /* \"#utility.yul\":26010:26400   */\n    tag_177:\n        /* \"#utility.yul\":26116:26119   */\n      0x00\n        /* \"#utility.yul\":26144:26183   */\n      tag_437\n        /* \"#utility.yul\":26177:26182   */\n      dup3\n        /* \"#utility.yul\":26144:26183   */\n      tag_95\n      jump\t// in\n    tag_437:\n        /* \"#utility.yul\":26199:26288   */\n      tag_438\n        /* \"#utility.yul\":26281:26287   */\n      dup2\n        /* \"#utility.yul\":26276:26279   */\n      dup6\n        /* \"#utility.yul\":26199:26288   */\n      tag_176\n      jump\t// in\n    tag_438:\n        /* \"#utility.yul\":26192:26288   */\n      swap4\n      pop\n        /* \"#utility.yul\":26297:26362   */\n      tag_439\n        /* \"#utility.yul\":26355:26361   */\n      dup2\n        /* \"#utility.yul\":26350:26353   */\n      dup6\n        /* \"#utility.yul\":26343:26347   */\n      0x20\n        /* \"#utility.yul\":26336:26341   */\n      dup7\n        /* \"#utility.yul\":26332:26348   */\n      add\n        /* \"#utility.yul\":26297:26362   */\n      tag_97\n      jump\t// in\n    tag_439:\n        /* \"#utility.yul\":26387:26393   */\n      dup1\n        /* \"#utility.yul\":26382:26385   */\n      dup5\n        /* \"#utility.yul\":26378:26394   */\n      add\n        /* \"#utility.yul\":26371:26394   */\n      swap2\n      pop\n        /* \"#utility.yul\":26120:26400   */\n      pop\n        /* \"#utility.yul\":26010:26400   */\n      swap3\n      swap2\n      pop\n      pop\n      jump\t// out\n        /* \"#utility.yul\":26406:26681   */\n    tag_77:\n        /* \"#utility.yul\":26538:26541   */\n      0x00\n        /* \"#utility.yul\":26560:26655   */\n      tag_441\n        /* \"#utility.yul\":26651:26654   */\n      dup3\n        /* \"#utility.yul\":26642:26648   */\n      dup5\n        /* \"#utility.yul\":26560:26655   */\n      tag_177\n      jump\t// in\n    tag_441:\n        /* \"#utility.yul\":26553:26655   */\n      swap2\n      pop\n        /* \"#utility.yul\":26672:26675   */\n      dup2\n        /* \"#utility.yul\":26665:26675   */\n      swap1\n      pop\n        /* \"#utility.yul\":26406:26681   */\n      swap3\n      swap2\n      pop\n      pop\n      jump\t// out\n        /* \"#utility.yul\":26687:27110   */\n    tag_79:\n        /* \"#utility.yul\":26828:26832   */\n      0x00\n        /* \"#utility.yul\":26866:26868   */\n      0x40\n        /* \"#utility.yul\":26855:26864   */\n      dup3\n        /* \"#utility.yul\":26851:26869   */\n      add\n        /* \"#utility.yul\":26843:26869   */\n      swap1\n      pop\n        /* \"#utility.yul\":26879:26950   */\n      tag_443\n        /* \"#utility.yul\":26947:26948   */\n      0x00\n        /* \"#utility.yul\":26936:26945   */\n      dup4\n        /* \"#utility.yul\":26932:26949   */\n      add\n        /* \"#utility.yul\":26923:26929   */\n      dup6\n        /* \"#utility.yul\":26879:26950   */\n      tag_137\n      jump\t// in\n    tag_443:\n        /* \"#utility.yul\":26997:27006   */\n      dup2\n        /* \"#utility.yul\":26991:26995   */\n      dup2\n        /* \"#utility.yul\":26987:27007   */\n      sub\n        /* \"#utility.yul\":26982:26984   */\n      0x20\n        /* \"#utility.yul\":26971:26980   */\n      dup4\n        /* \"#utility.yul\":26967:26985   */\n      add\n        /* \"#utility.yul\":26960:27008   */\n      mstore\n        /* \"#utility.yul\":27025:27103   */\n      tag_444\n        /* \"#utility.yul\":27098:27102   */\n      dup2\n        /* \"#utility.yul\":27089:27095   */\n      dup5\n        /* \"#utility.yul\":27025:27103   */\n      tag_142\n      jump\t// in\n    tag_444:\n        /* \"#utility.yul\":27017:27103   */\n      swap1\n      pop\n        /* \"#utility.yul\":26687:27110   */\n      swap4\n      swap3\n      pop\n      pop\n      pop\n      jump\t// out\n    stop\n\n    sub_0: assembly {\n            /* \"Lottogemeinschaft.sol\":1659:6347  contract Lottogemeinschaft {... */\n          mstore(0x40, 0x80)\n            /* \"Lottogemeinschaft.sol\":2124:2125  0 */\n          0x00\n            /* \"Lottogemeinschaft.sol\":2088:2125  uint48 public gewinnProMitspieler = 0 */\n          0x05\n          exp(0x0100, 0x02)\n          dup2\n          sload\n          dup2\n          0xffffffffffff\n          mul\n          not\n          and\n          swap1\n          dup4\n          0xffffffffffff\n          and\n          mul\n          or\n          swap1\n          sstore\n          pop\n            /* \"Lottogemeinschaft.sol\":2168:2173  false */\n          0x00\n            /* \"Lottogemeinschaft.sol\":2131:2173  bool public kannGewinnAbgeholtWerden=false */\n          0x05\n          exp(0x0100, 0x08)\n          dup2\n          sload\n          dup2\n          0xff\n          mul\n          not\n          and\n          swap1\n          dup4\n          iszero\n          iszero\n          mul\n          or\n          swap1\n          sstore\n          pop\n            /* \"Lottogemeinschaft.sol\":2213:2218  false */\n          0x00\n            /* \"Lottogemeinschaft.sol\":2179:2218  bool public nurErlaubteMitspieler=false */\n          0x05\n          exp(0x0100, 0x09)\n          dup2\n          sload\n          dup2\n          0xff\n          mul\n          not\n          and\n          swap1\n          dup4\n          iszero\n          iszero\n          mul\n          or\n          swap1\n          sstore\n          pop\n            /* \"Lottogemeinschaft.sol\":2299:2934  constructor (string memory name, address ersteller, uint16 anzahl, uint32 preis, uint48 scheinNummer, bool mitspielerBestimmen) {... */\n          callvalue\n          dup1\n          iszero\n          tag_1\n          jumpi\n          0x00\n          dup1\n          revert\n        tag_1:\n          pop\n          mload(0x40)\n          sub(codesize, bytecodeSize)\n          dup1\n          bytecodeSize\n          dup4\n          codecopy\n          dup2\n          dup2\n          add\n          0x40\n          mstore\n          dup2\n          add\n          swap1\n          tag_2\n          swap2\n          swap1\n          tag_3\n          jump\t// in\n        tag_2:\n            /* \"Lottogemeinschaft.sol\":2454:2459  65535 */\n          0xffff\n            /* \"Lottogemeinschaft.sol\":2445:2451  anzahl */\n          dup5\n            /* \"Lottogemeinschaft.sol\":2445:2459  anzahl < 65535 */\n          0xffff\n          and\n          lt\n            /* \"Lottogemeinschaft.sol\":2437:2496  require(anzahl < 65535, \"Maximal 65534 Mitspieler erlaubt\") */\n          tag_6\n          jumpi\n          mload(0x40)\n          0x08c379a000000000000000000000000000000000000000000000000000000000\n          dup2\n          mstore\n          0x04\n          add\n          tag_7\n          swap1\n          tag_8\n          jump\t// in\n        tag_7:\n          mload(0x40)\n          dup1\n          swap2\n          sub\n          swap1\n          revert\n        tag_6:\n            /* \"Lottogemeinschaft.sol\":2522:2532  4294967295 */\n          0xffffffff\n            /* \"Lottogemeinschaft.sol\":2514:2519  preis */\n          dup4\n            /* \"Lottogemeinschaft.sol\":2514:2532  preis < 4294967295 */\n          0xffffffff\n          and\n          lt\n            /* \"Lottogemeinschaft.sol\":2506:2563  require(preis < 4294967295, \"Maximaler Preis 4294967295\") */\n          tag_9\n          jumpi\n          mload(0x40)\n          0x08c379a000000000000000000000000000000000000000000000000000000000\n          dup2\n          mstore\n          0x04\n          add\n          tag_10\n          swap1\n          tag_11\n          jump\t// in\n        tag_10:\n          mload(0x40)\n          dup1\n          swap2\n          sub\n          swap1\n          revert\n        tag_9:\n            /* \"Lottogemeinschaft.sol\":2584:2593  ersteller */\n          dup5\n            /* \"Lottogemeinschaft.sol\":2573:2581  gruender */\n          0x00\n          dup1\n            /* \"Lottogemeinschaft.sol\":2573:2593  gruender = ersteller */\n          0x0100\n          exp\n          dup2\n          sload\n          dup2\n          0xffffffffffffffffffffffffffffffffffffffff\n          mul\n          not\n          and\n          swap1\n          dup4\n          0xffffffffffffffffffffffffffffffffffffffff\n          and\n          mul\n          or\n          swap1\n          sstore\n          pop\n            /* \"Lottogemeinschaft.sol\":2627:2631  name */\n          dup6\n            /* \"Lottogemeinschaft.sol\":2603:2624  tippgemeinschaftsName */\n          0x01\n            /* \"Lottogemeinschaft.sol\":2603:2631  tippgemeinschaftsName = name */\n          swap1\n          dup2\n          tag_12\n          swap2\n          swap1\n          tag_13\n          jump\t// in\n        tag_12:\n          pop\n            /* \"Lottogemeinschaft.sol\":2663:2669  anzahl */\n          dup4\n            /* \"Lottogemeinschaft.sol\":2641:2660  maxTeilnehmerAnzahl */\n          0x02\n          0x00\n            /* \"Lottogemeinschaft.sol\":2641:2669  maxTeilnehmerAnzahl = anzahl */\n          0x0100\n          exp\n          dup2\n          sload\n          dup2\n          0xffff\n          mul\n          not\n          and\n          swap1\n          dup4\n          0xffff\n          and\n          mul\n          or\n          swap1\n          sstore\n          pop\n            /* \"Lottogemeinschaft.sol\":2698:2703  preis */\n          dup3\n            /* \"Lottogemeinschaft.sol\":2679:2695  preisLottoschein */\n          0x02\n          dup1\n            /* \"Lottogemeinschaft.sol\":2679:2703  preisLottoschein = preis */\n          0x0100\n          exp\n          dup2\n          sload\n          dup2\n          0xffffffff\n          mul\n          not\n          and\n          swap1\n          dup4\n          0xffffffff\n          and\n          mul\n          or\n          swap1\n          sstore\n          pop\n            /* \"Lottogemeinschaft.sol\":2737:2756  mitspielerBestimmen */\n          dup1\n            /* \"Lottogemeinschaft.sol\":2713:2734  nurErlaubteMitspieler */\n          0x05\n          0x09\n            /* \"Lottogemeinschaft.sol\":2713:2756  nurErlaubteMitspieler = mitspielerBestimmen */\n          0x0100\n          exp\n          dup2\n          sload\n          dup2\n          0xff\n          mul\n          not\n          and\n          swap1\n          dup4\n          iszero\n          iszero\n          mul\n          or\n          swap1\n          sstore\n          pop\n            /* \"Lottogemeinschaft.sol\":2786:2798  scheinNummer */\n          dup2\n            /* \"Lottogemeinschaft.sol\":2766:2783  lottoscheinNummer */\n          0x02\n          0x0a\n            /* \"Lottogemeinschaft.sol\":2766:2798  lottoscheinNummer = scheinNummer */\n          0x0100\n          exp\n          dup2\n          sload\n          dup2\n          0xffffffffffff\n          mul\n          not\n          and\n          swap1\n          dup4\n          0xffffffffffff\n          and\n          mul\n          or\n          swap1\n          sstore\n          pop\n            /* \"Lottogemeinschaft.sol\":2893:2897  1e18 */\n          0x0de0b6b3a7640000\n            /* \"Lottogemeinschaft.sol\":2871:2890  maxTeilnehmerAnzahl */\n          0x02\n          0x00\n          swap1\n          sload\n          swap1\n          0x0100\n          exp\n          swap1\n          div\n          0xffff\n          and\n            /* \"Lottogemeinschaft.sol\":2836:2890  uint256(preisLottoschein) * 1e18 / maxTeilnehmerAnzahl */\n          0xffff\n          and\n            /* \"Lottogemeinschaft.sol\":2864:2868  1e18 */\n          0x0de0b6b3a7640000\n            /* \"Lottogemeinschaft.sol\":2844:2860  preisLottoschein */\n          0x02\n          dup1\n          sload\n          swap1\n          0x0100\n          exp\n          swap1\n          div\n          0xffffffff\n          and\n            /* \"Lottogemeinschaft.sol\":2836:2861  uint256(preisLottoschein) */\n          0xffffffff\n          and\n            /* \"Lottogemeinschaft.sol\":2836:2868  uint256(preisLottoschein) * 1e18 */\n          tag_14\n          swap2\n          swap1\n          tag_15\n          jump\t// in\n        tag_14:\n            /* \"Lottogemeinschaft.sol\":2836:2890  uint256(preisLottoschein) * 1e18 / maxTeilnehmerAnzahl */\n          tag_16\n          swap2\n          swap1\n          tag_17\n          jump\t// in\n        tag_16:\n            /* \"Lottogemeinschaft.sol\":2836:2897  uint256(preisLottoschein) * 1e18 / maxTeilnehmerAnzahl / 1e18 */\n          tag_18\n          swap2\n          swap1\n          tag_17\n          jump\t// in\n        tag_18:\n            /* \"Lottogemeinschaft.sol\":2808:2826  preisProMitspieler */\n          0x02\n          0x06\n            /* \"Lottogemeinschaft.sol\":2808:2898  preisProMitspieler = uint32(uint256(preisLottoschein) * 1e18 / maxTeilnehmerAnzahl / 1e18) */\n          0x0100\n          exp\n          dup2\n          sload\n          dup2\n          0xffffffff\n          mul\n          not\n          and\n          swap1\n          dup4\n          0xffffffff\n          and\n          mul\n          or\n          swap1\n          sstore\n          pop\n            /* \"Lottogemeinschaft.sol\":2299:2934  constructor (string memory name, address ersteller, uint16 anzahl, uint32 preis, uint48 scheinNummer, bool mitspielerBestimmen) {... */\n          pop\n          pop\n          pop\n          pop\n          pop\n          pop\n            /* \"Lottogemeinschaft.sol\":1659:6347  contract Lottogemeinschaft {... */\n          jump(tag_19)\n            /* \"#utility.yul\":7:82   */\n        tag_20:\n            /* \"#utility.yul\":40:46   */\n          0x00\n            /* \"#utility.yul\":73:75   */\n          0x40\n            /* \"#utility.yul\":67:76   */\n          mload\n            /* \"#utility.yul\":57:76   */\n          swap1\n          pop\n            /* \"#utility.yul\":7:82   */\n          swap1\n          jump\t// out\n            /* \"#utility.yul\":88:205   */\n        tag_21:\n            /* \"#utility.yul\":197:198   */\n          0x00\n            /* \"#utility.yul\":194:195   */\n          dup1\n            /* \"#utility.yul\":187:199   */\n          revert\n            /* \"#utility.yul\":211:328   */\n        tag_22:\n            /* \"#utility.yul\":320:321   */\n          0x00\n            /* \"#utility.yul\":317:318   */\n          dup1\n            /* \"#utility.yul\":310:322   */\n          revert\n            /* \"#utility.yul\":334:451   */\n        tag_23:\n            /* \"#utility.yul\":443:444   */\n          0x00\n            /* \"#utility.yul\":440:441   */\n          dup1\n            /* \"#utility.yul\":433:445   */\n          revert\n            /* \"#utility.yul\":457:574   */\n        tag_24:\n            /* \"#utility.yul\":566:567   */\n          0x00\n            /* \"#utility.yul\":563:564   */\n          dup1\n            /* \"#utility.yul\":556:568   */\n          revert\n            /* \"#utility.yul\":580:682   */\n        tag_25:\n            /* \"#utility.yul\":621:627   */\n          0x00\n            /* \"#utility.yul\":672:674   */\n          0x1f\n            /* \"#utility.yul\":668:675   */\n          not\n            /* \"#utility.yul\":663:665   */\n          0x1f\n            /* \"#utility.yul\":656:661   */\n          dup4\n            /* \"#utility.yul\":652:666   */\n          add\n            /* \"#utility.yul\":648:676   */\n          and\n            /* \"#utility.yul\":638:676   */\n          swap1\n          pop\n            /* \"#utility.yul\":580:682   */\n          swap2\n          swap1\n          pop\n          jump\t// out\n            /* \"#utility.yul\":688:868   */\n        tag_26:\n            /* \"#utility.yul\":736:813   */\n          0x4e487b7100000000000000000000000000000000000000000000000000000000\n            /* \"#utility.yul\":733:734   */\n          0x00\n            /* \"#utility.yul\":726:814   */\n          mstore\n            /* \"#utility.yul\":833:837   */\n          0x41\n            /* \"#utility.yul\":830:831   */\n          0x04\n            /* \"#utility.yul\":823:838   */\n          mstore\n            /* \"#utility.yul\":857:861   */\n          0x24\n            /* \"#utility.yul\":854:855   */\n          0x00\n            /* \"#utility.yul\":847:862   */\n          revert\n            /* \"#utility.yul\":874:1155   */\n        tag_27:\n            /* \"#utility.yul\":957:984   */\n          tag_84\n            /* \"#utility.yul\":979:983   */\n          dup3\n            /* \"#utility.yul\":957:984   */\n          tag_25\n          jump\t// in\n        tag_84:\n            /* \"#utility.yul\":949:955   */\n          dup2\n            /* \"#utility.yul\":945:985   */\n          add\n            /* \"#utility.yul\":1087:1093   */\n          dup2\n            /* \"#utility.yul\":1075:1085   */\n          dup2\n            /* \"#utility.yul\":1072:1094   */\n          lt\n            /* \"#utility.yul\":1051:1069   */\n          0xffffffffffffffff\n            /* \"#utility.yul\":1039:1049   */\n          dup3\n            /* \"#utility.yul\":1036:1070   */\n          gt\n            /* \"#utility.yul\":1033:1095   */\n          or\n            /* \"#utility.yul\":1030:1118   */\n          iszero\n          tag_85\n          jumpi\n            /* \"#utility.yul\":1098:1116   */\n          tag_86\n          tag_26\n          jump\t// in\n        tag_86:\n            /* \"#utility.yul\":1030:1118   */\n        tag_85:\n            /* \"#utility.yul\":1138:1148   */\n          dup1\n            /* \"#utility.yul\":1134:1136   */\n          0x40\n            /* \"#utility.yul\":1127:1149   */\n          mstore\n            /* \"#utility.yul\":917:1155   */\n          pop\n            /* \"#utility.yul\":874:1155   */\n          pop\n          pop\n          jump\t// out\n            /* \"#utility.yul\":1161:1290   */\n        tag_28:\n            /* \"#utility.yul\":1195:1201   */\n          0x00\n            /* \"#utility.yul\":1222:1242   */\n          tag_88\n          tag_20\n          jump\t// in\n        tag_88:\n            /* \"#utility.yul\":1212:1242   */\n          swap1\n          pop\n            /* \"#utility.yul\":1251:1284   */\n          tag_89\n            /* \"#utility.yul\":1279:1283   */\n          dup3\n            /* \"#utility.yul\":1271:1277   */\n          dup3\n            /* \"#utility.yul\":1251:1284   */\n          tag_27\n          jump\t// in\n        tag_89:\n            /* \"#utility.yul\":1161:1290   */\n          swap2\n          swap1\n          pop\n          jump\t// out\n            /* \"#utility.yul\":1296:1604   */\n        tag_29:\n            /* \"#utility.yul\":1358:1362   */\n          0x00\n            /* \"#utility.yul\":1448:1466   */\n          0xffffffffffffffff\n            /* \"#utility.yul\":1440:1446   */\n          dup3\n            /* \"#utility.yul\":1437:1467   */\n          gt\n            /* \"#utility.yul\":1434:1490   */\n          iszero\n          tag_91\n          jumpi\n            /* \"#utility.yul\":1470:1488   */\n          tag_92\n          tag_26\n          jump\t// in\n        tag_92:\n            /* \"#utility.yul\":1434:1490   */\n        tag_91:\n            /* \"#utility.yul\":1508:1537   */\n          tag_93\n            /* \"#utility.yul\":1530:1536   */\n          dup3\n            /* \"#utility.yul\":1508:1537   */\n          tag_25\n          jump\t// in\n        tag_93:\n            /* \"#utility.yul\":1500:1537   */\n          swap1\n          pop\n            /* \"#utility.yul\":1592:1596   */\n          0x20\n            /* \"#utility.yul\":1586:1590   */\n          dup2\n            /* \"#utility.yul\":1582:1597   */\n          add\n            /* \"#utility.yul\":1574:1597   */\n          swap1\n          pop\n            /* \"#utility.yul\":1296:1604   */\n          swap2\n          swap1\n          pop\n          jump\t// out\n            /* \"#utility.yul\":1610:1856   */\n        tag_30:\n            /* \"#utility.yul\":1691:1692   */\n          0x00\n            /* \"#utility.yul\":1701:1814   */\n        tag_95:\n            /* \"#utility.yul\":1715:1721   */\n          dup4\n            /* \"#utility.yul\":1712:1713   */\n          dup2\n            /* \"#utility.yul\":1709:1722   */\n          lt\n            /* \"#utility.yul\":1701:1814   */\n          iszero\n          tag_97\n          jumpi\n            /* \"#utility.yul\":1800:1801   */\n          dup1\n            /* \"#utility.yul\":1795:1798   */\n          dup3\n            /* \"#utility.yul\":1791:1802   */\n          add\n            /* \"#utility.yul\":1785:1803   */\n          mload\n            /* \"#utility.yul\":1781:1782   */\n          dup2\n            /* \"#utility.yul\":1776:1779   */\n          dup5\n            /* \"#utility.yul\":1772:1783   */\n          add\n            /* \"#utility.yul\":1765:1804   */\n          mstore\n            /* \"#utility.yul\":1737:1739   */\n          0x20\n            /* \"#utility.yul\":1734:1735   */\n          dup2\n            /* \"#utility.yul\":1730:1740   */\n          add\n            /* \"#utility.yul\":1725:1740   */\n          swap1\n          pop\n            /* \"#utility.yul\":1701:1814   */\n          jump(tag_95)\n        tag_97:\n            /* \"#utility.yul\":1848:1849   */\n          0x00\n            /* \"#utility.yul\":1839:1845   */\n          dup5\n            /* \"#utility.yul\":1834:1837   */\n          dup5\n            /* \"#utility.yul\":1830:1846   */\n          add\n            /* \"#utility.yul\":1823:1850   */\n          mstore\n            /* \"#utility.yul\":1672:1856   */\n          pop\n            /* \"#utility.yul\":1610:1856   */\n          pop\n          pop\n          pop\n          jump\t// out\n            /* \"#utility.yul\":1862:2296   */\n        tag_31:\n            /* \"#utility.yul\":1951:1956   */\n          0x00\n            /* \"#utility.yul\":1976:2042   */\n          tag_99\n            /* \"#utility.yul\":1992:2041   */\n          tag_100\n            /* \"#utility.yul\":2034:2040   */\n          dup5\n            /* \"#utility.yul\":1992:2041   */\n          tag_29\n          jump\t// in\n        tag_100:\n            /* \"#utility.yul\":1976:2042   */\n          tag_28\n          jump\t// in\n        tag_99:\n            /* \"#utility.yul\":1967:2042   */\n          swap1\n          pop\n            /* \"#utility.yul\":2065:2071   */\n          dup3\n            /* \"#utility.yul\":2058:2063   */\n          dup2\n            /* \"#utility.yul\":2051:2072   */\n          mstore\n            /* \"#utility.yul\":2103:2107   */\n          0x20\n            /* \"#utility.yul\":2096:2101   */\n          dup2\n            /* \"#utility.yul\":2092:2108   */\n          add\n            /* \"#utility.yul\":2141:2144   */\n          dup5\n            /* \"#utility.yul\":2132:2138   */\n          dup5\n            /* \"#utility.yul\":2127:2130   */\n          dup5\n            /* \"#utility.yul\":2123:2139   */\n          add\n            /* \"#utility.yul\":2120:2145   */\n          gt\n            /* \"#utility.yul\":2117:2229   */\n          iszero\n          tag_101\n          jumpi\n            /* \"#utility.yul\":2148:2227   */\n          tag_102\n          tag_24\n          jump\t// in\n        tag_102:\n            /* \"#utility.yul\":2117:2229   */\n        tag_101:\n            /* \"#utility.yul\":2238:2290   */\n          tag_103\n            /* \"#utility.yul\":2283:2289   */\n          dup5\n            /* \"#utility.yul\":2278:2281   */\n          dup3\n            /* \"#utility.yul\":2273:2276   */\n          dup6\n            /* \"#utility.yul\":2238:2290   */\n          tag_30\n          jump\t// in\n        tag_103:\n            /* \"#utility.yul\":1957:2296   */\n          pop\n            /* \"#utility.yul\":1862:2296   */\n          swap4\n          swap3\n          pop\n          pop\n          pop\n          jump\t// out\n            /* \"#utility.yul\":2316:2671   */\n        tag_32:\n            /* \"#utility.yul\":2383:2388   */\n          0x00\n            /* \"#utility.yul\":2432:2435   */\n          dup3\n            /* \"#utility.yul\":2425:2429   */\n          0x1f\n            /* \"#utility.yul\":2417:2423   */\n          dup4\n            /* \"#utility.yul\":2413:2430   */\n          add\n            /* \"#utility.yul\":2409:2436   */\n          slt\n            /* \"#utility.yul\":2399:2521   */\n          tag_105\n          jumpi\n            /* \"#utility.yul\":2440:2519   */\n          tag_106\n          tag_23\n          jump\t// in\n        tag_106:\n            /* \"#utility.yul\":2399:2521   */\n        tag_105:\n            /* \"#utility.yul\":2550:2556   */\n          dup2\n            /* \"#utility.yul\":2544:2557   */\n          mload\n            /* \"#utility.yul\":2575:2665   */\n          tag_107\n            /* \"#utility.yul\":2661:2664   */\n          dup5\n            /* \"#utility.yul\":2653:2659   */\n          dup3\n            /* \"#utility.yul\":2646:2650   */\n          0x20\n            /* \"#utility.yul\":2638:2644   */\n          dup7\n            /* \"#utility.yul\":2634:2651   */\n          add\n            /* \"#utility.yul\":2575:2665   */\n          tag_31\n          jump\t// in\n        tag_107:\n            /* \"#utility.yul\":2566:2665   */\n          swap2\n          pop\n            /* \"#utility.yul\":2389:2671   */\n          pop\n            /* \"#utility.yul\":2316:2671   */\n          swap3\n          swap2\n          pop\n          pop\n          jump\t// out\n            /* \"#utility.yul\":2677:2803   */\n        tag_33:\n            /* \"#utility.yul\":2714:2721   */\n          0x00\n            /* \"#utility.yul\":2754:2796   */\n          0xffffffffffffffffffffffffffffffffffffffff\n            /* \"#utility.yul\":2747:2752   */\n          dup3\n            /* \"#utility.yul\":2743:2797   */\n          and\n            /* \"#utility.yul\":2732:2797   */\n          swap1\n          pop\n            /* \"#utility.yul\":2677:2803   */\n          swap2\n          swap1\n          pop\n          jump\t// out\n            /* \"#utility.yul\":2809:2905   */\n        tag_34:\n            /* \"#utility.yul\":2846:2853   */\n          0x00\n            /* \"#utility.yul\":2875:2899   */\n          tag_110\n            /* \"#utility.yul\":2893:2898   */\n          dup3\n            /* \"#utility.yul\":2875:2899   */\n          tag_33\n          jump\t// in\n        tag_110:\n            /* \"#utility.yul\":2864:2899   */\n          swap1\n          pop\n            /* \"#utility.yul\":2809:2905   */\n          swap2\n          swap1\n          pop\n          jump\t// out\n            /* \"#utility.yul\":2911:3033   */\n        tag_35:\n            /* \"#utility.yul\":2984:3008   */\n          tag_112\n            /* \"#utility.yul\":3002:3007   */\n          dup2\n            /* \"#utility.yul\":2984:3008   */\n          tag_34\n          jump\t// in\n        tag_112:\n            /* \"#utility.yul\":2977:2982   */\n          dup2\n            /* \"#utility.yul\":2974:3009   */\n          eq\n            /* \"#utility.yul\":2964:3027   */\n          tag_113\n          jumpi\n            /* \"#utility.yul\":3023:3024   */\n          0x00\n            /* \"#utility.yul\":3020:3021   */\n          dup1\n            /* \"#utility.yul\":3013:3025   */\n          revert\n            /* \"#utility.yul\":2964:3027   */\n        tag_113:\n            /* \"#utility.yul\":2911:3033   */\n          pop\n          jump\t// out\n            /* \"#utility.yul\":3039:3182   */\n        tag_36:\n            /* \"#utility.yul\":3096:3101   */\n          0x00\n            /* \"#utility.yul\":3127:3133   */\n          dup2\n            /* \"#utility.yul\":3121:3134   */\n          mload\n            /* \"#utility.yul\":3112:3134   */\n          swap1\n          pop\n            /* \"#utility.yul\":3143:3176   */\n          tag_115\n            /* \"#utility.yul\":3170:3175   */\n          dup2\n            /* \"#utility.yul\":3143:3176   */\n          tag_35\n          jump\t// in\n        tag_115:\n            /* \"#utility.yul\":3039:3182   */\n          swap3\n          swap2\n          pop\n          pop\n          jump\t// out\n            /* \"#utility.yul\":3188:3277   */\n        tag_37:\n            /* \"#utility.yul\":3224:3231   */\n          0x00\n            /* \"#utility.yul\":3264:3270   */\n          0xffff\n            /* \"#utility.yul\":3257:3262   */\n          dup3\n            /* \"#utility.yul\":3253:3271   */\n          and\n            /* \"#utility.yul\":3242:3271   */\n          swap1\n          pop\n            /* \"#utility.yul\":3188:3277   */\n          swap2\n          swap1\n          pop\n          jump\t// out\n            /* \"#utility.yul\":3283:3403   */\n        tag_38:\n            /* \"#utility.yul\":3355:3378   */\n          tag_118\n            /* \"#utility.yul\":3372:3377   */\n          dup2\n            /* \"#utility.yul\":3355:3378   */\n          tag_37\n          jump\t// in\n        tag_118:\n            /* \"#utility.yul\":3348:3353   */\n          dup2\n            /* \"#utility.yul\":3345:3379   */\n          eq\n            /* \"#utility.yul\":3335:3397   */\n          tag_119\n          jumpi\n            /* \"#utility.yul\":3393:3394   */\n          0x00\n            /* \"#utility.yul\":3390:3391   */\n          dup1\n            /* \"#utility.yul\":3383:3395   */\n          revert\n            /* \"#utility.yul\":3335:3397   */\n        tag_119:\n            /* \"#utility.yul\":3283:3403   */\n          pop\n          jump\t// out\n            /* \"#utility.yul\":3409:3550   */\n        tag_39:\n            /* \"#utility.yul\":3465:3470   */\n          0x00\n            /* \"#utility.yul\":3496:3502   */\n          dup2\n            /* \"#utility.yul\":3490:3503   */\n          mload\n            /* \"#utility.yul\":3481:3503   */\n          swap1\n          pop\n            /* \"#utility.yul\":3512:3544   */\n          tag_121\n            /* \"#utility.yul\":3538:3543   */\n          dup2\n            /* \"#utility.yul\":3512:3544   */\n          tag_38\n          jump\t// in\n        tag_121:\n            /* \"#utility.yul\":3409:3550   */\n          swap3\n          swap2\n          pop\n          pop\n          jump\t// out\n            /* \"#utility.yul\":3556:3649   */\n        tag_40:\n            /* \"#utility.yul\":3592:3599   */\n          0x00\n            /* \"#utility.yul\":3632:3642   */\n          0xffffffff\n            /* \"#utility.yul\":3625:3630   */\n          dup3\n            /* \"#utility.yul\":3621:3643   */\n          and\n            /* \"#utility.yul\":3610:3643   */\n          swap1\n          pop\n            /* \"#utility.yul\":3556:3649   */\n          swap2\n          swap1\n          pop\n          jump\t// out\n            /* \"#utility.yul\":3655:3775   */\n        tag_41:\n            /* \"#utility.yul\":3727:3750   */\n          tag_124\n            /* \"#utility.yul\":3744:3749   */\n          dup2\n            /* \"#utility.yul\":3727:3750   */\n          tag_40\n          jump\t// in\n        tag_124:\n            /* \"#utility.yul\":3720:3725   */\n          dup2\n            /* \"#utility.yul\":3717:3751   */\n          eq\n            /* \"#utility.yul\":3707:3769   */\n          tag_125\n          jumpi\n            /* \"#utility.yul\":3765:3766   */\n          0x00\n            /* \"#utility.yul\":3762:3763   */\n          dup1\n            /* \"#utility.yul\":3755:3767   */\n          revert\n            /* \"#utility.yul\":3707:3769   */\n        tag_125:\n            /* \"#utility.yul\":3655:3775   */\n          pop\n          jump\t// out\n            /* \"#utility.yul\":3781:3922   */\n        tag_42:\n            /* \"#utility.yul\":3837:3842   */\n          0x00\n            /* \"#utility.yul\":3868:3874   */\n          dup2\n            /* \"#utility.yul\":3862:3875   */\n          mload\n            /* \"#utility.yul\":3853:3875   */\n          swap1\n          pop\n            /* \"#utility.yul\":3884:3916   */\n          tag_127\n            /* \"#utility.yul\":3910:3915   */\n          dup2\n            /* \"#utility.yul\":3884:3916   */\n          tag_41\n          jump\t// in\n        tag_127:\n            /* \"#utility.yul\":3781:3922   */\n          swap3\n          swap2\n          pop\n          pop\n          jump\t// out\n            /* \"#utility.yul\":3928:4025   */\n        tag_43:\n            /* \"#utility.yul\":3964:3971   */\n          0x00\n            /* \"#utility.yul\":4004:4018   */\n          0xffffffffffff\n            /* \"#utility.yul\":3997:4002   */\n          dup3\n            /* \"#utility.yul\":3993:4019   */\n          and\n            /* \"#utility.yul\":3982:4019   */\n          swap1\n          pop\n            /* \"#utility.yul\":3928:4025   */\n          swap2\n          swap1\n          pop\n          jump\t// out\n            /* \"#utility.yul\":4031:4151   */\n        tag_44:\n            /* \"#utility.yul\":4103:4126   */\n          tag_130\n            /* \"#utility.yul\":4120:4125   */\n          dup2\n            /* \"#utility.yul\":4103:4126   */\n          tag_43\n          jump\t// in\n        tag_130:\n            /* \"#utility.yul\":4096:4101   */\n          dup2\n            /* \"#utility.yul\":4093:4127   */\n          eq\n            /* \"#utility.yul\":4083:4145   */\n          tag_131\n          jumpi\n            /* \"#utility.yul\":4141:4142   */\n          0x00\n            /* \"#utility.yul\":4138:4139   */\n          dup1\n            /* \"#utility.yul\":4131:4143   */\n          revert\n            /* \"#utility.yul\":4083:4145   */\n        tag_131:\n            /* \"#utility.yul\":4031:4151   */\n          pop\n          jump\t// out\n            /* \"#utility.yul\":4157:4298   */\n        tag_45:\n            /* \"#utility.yul\":4213:4218   */\n          0x00\n            /* \"#utility.yul\":4244:4250   */\n          dup2\n            /* \"#utility.yul\":4238:4251   */\n          mload\n            /* \"#utility.yul\":4229:4251   */\n          swap1\n          pop\n            /* \"#utility.yul\":4260:4292   */\n          tag_133\n            /* \"#utility.yul\":4286:4291   */\n          dup2\n            /* \"#utility.yul\":4260:4292   */\n          tag_44\n          jump\t// in\n        tag_133:\n            /* \"#utility.yul\":4157:4298   */\n          swap3\n          swap2\n          pop\n          pop\n          jump\t// out\n            /* \"#utility.yul\":4304:4394   */\n        tag_46:\n            /* \"#utility.yul\":4338:4345   */\n          0x00\n            /* \"#utility.yul\":4381:4386   */\n          dup2\n            /* \"#utility.yul\":4374:4387   */\n          iszero\n            /* \"#utility.yul\":4367:4388   */\n          iszero\n            /* \"#utility.yul\":4356:4388   */\n          swap1\n          pop\n            /* \"#utility.yul\":4304:4394   */\n          swap2\n          swap1\n          pop\n          jump\t// out\n            /* \"#utility.yul\":4400:4516   */\n        tag_47:\n            /* \"#utility.yul\":4470:4491   */\n          tag_136\n            /* \"#utility.yul\":4485:4490   */\n          dup2\n            /* \"#utility.yul\":4470:4491   */\n          tag_46\n          jump\t// in\n        tag_136:\n            /* \"#utility.yul\":4463:4468   */\n          dup2\n            /* \"#utility.yul\":4460:4492   */\n          eq\n            /* \"#utility.yul\":4450:4510   */\n          tag_137\n          jumpi\n            /* \"#utility.yul\":4506:4507   */\n          0x00\n            /* \"#utility.yul\":4503:4504   */\n          dup1\n            /* \"#utility.yul\":4496:4508   */\n          revert\n            /* \"#utility.yul\":4450:4510   */\n        tag_137:\n            /* \"#utility.yul\":4400:4516   */\n          pop\n          jump\t// out\n            /* \"#utility.yul\":4522:4659   */\n        tag_48:\n            /* \"#utility.yul\":4576:4581   */\n          0x00\n            /* \"#utility.yul\":4607:4613   */\n          dup2\n            /* \"#utility.yul\":4601:4614   */\n          mload\n            /* \"#utility.yul\":4592:4614   */\n          swap1\n          pop\n            /* \"#utility.yul\":4623:4653   */\n          tag_139\n            /* \"#utility.yul\":4647:4652   */\n          dup2\n            /* \"#utility.yul\":4623:4653   */\n          tag_47\n          jump\t// in\n        tag_139:\n            /* \"#utility.yul\":4522:4659   */\n          swap3\n          swap2\n          pop\n          pop\n          jump\t// out\n            /* \"#utility.yul\":4665:5960   */\n        tag_3:\n            /* \"#utility.yul\":4784:4790   */\n          0x00\n            /* \"#utility.yul\":4792:4798   */\n          dup1\n            /* \"#utility.yul\":4800:4806   */\n          0x00\n            /* \"#utility.yul\":4808:4814   */\n          dup1\n            /* \"#utility.yul\":4816:4822   */\n          0x00\n            /* \"#utility.yul\":4824:4830   */\n          dup1\n            /* \"#utility.yul\":4873:4876   */\n          0xc0\n            /* \"#utility.yul\":4861:4870   */\n          dup8\n            /* \"#utility.yul\":4852:4859   */\n          dup10\n            /* \"#utility.yul\":4848:4871   */\n          sub\n            /* \"#utility.yul\":4844:4877   */\n          slt\n            /* \"#utility.yul\":4841:4961   */\n          iszero\n          tag_141\n          jumpi\n            /* \"#utility.yul\":4880:4959   */\n          tag_142\n          tag_21\n          jump\t// in\n        tag_142:\n            /* \"#utility.yul\":4841:4961   */\n        tag_141:\n            /* \"#utility.yul\":5021:5022   */\n          0x00\n            /* \"#utility.yul\":5010:5019   */\n          dup8\n            /* \"#utility.yul\":5006:5023   */\n          add\n            /* \"#utility.yul\":5000:5024   */\n          mload\n            /* \"#utility.yul\":5051:5069   */\n          0xffffffffffffffff\n            /* \"#utility.yul\":5043:5049   */\n          dup2\n            /* \"#utility.yul\":5040:5070   */\n          gt\n            /* \"#utility.yul\":5037:5154   */\n          iszero\n          tag_143\n          jumpi\n            /* \"#utility.yul\":5073:5152   */\n          tag_144\n          tag_22\n          jump\t// in\n        tag_144:\n            /* \"#utility.yul\":5037:5154   */\n        tag_143:\n            /* \"#utility.yul\":5178:5252   */\n          tag_145\n            /* \"#utility.yul\":5244:5251   */\n          dup10\n            /* \"#utility.yul\":5235:5241   */\n          dup3\n            /* \"#utility.yul\":5224:5233   */\n          dup11\n            /* \"#utility.yul\":5220:5242   */\n          add\n            /* \"#utility.yul\":5178:5252   */\n          tag_32\n          jump\t// in\n        tag_145:\n            /* \"#utility.yul\":5168:5252   */\n          swap7\n          pop\n            /* \"#utility.yul\":4971:5262   */\n          pop\n            /* \"#utility.yul\":5301:5303   */\n          0x20\n            /* \"#utility.yul\":5327:5391   */\n          tag_146\n            /* \"#utility.yul\":5383:5390   */\n          dup10\n            /* \"#utility.yul\":5374:5380   */\n          dup3\n            /* \"#utility.yul\":5363:5372   */\n          dup11\n            /* \"#utility.yul\":5359:5381   */\n          add\n            /* \"#utility.yul\":5327:5391   */\n          tag_36\n          jump\t// in\n        tag_146:\n            /* \"#utility.yul\":5317:5391   */\n          swap6\n          pop\n            /* \"#utility.yul\":5272:5401   */\n          pop\n            /* \"#utility.yul\":5440:5442   */\n          0x40\n            /* \"#utility.yul\":5466:5529   */\n          tag_147\n            /* \"#utility.yul\":5521:5528   */\n          dup10\n            /* \"#utility.yul\":5512:5518   */\n          dup3\n            /* \"#utility.yul\":5501:5510   */\n          dup11\n            /* \"#utility.yul\":5497:5519   */\n          add\n            /* \"#utility.yul\":5466:5529   */\n          tag_39\n          jump\t// in\n        tag_147:\n            /* \"#utility.yul\":5456:5529   */\n          swap5\n          pop\n            /* \"#utility.yul\":5411:5539   */\n          pop\n            /* \"#utility.yul\":5578:5580   */\n          0x60\n            /* \"#utility.yul\":5604:5667   */\n          tag_148\n            /* \"#utility.yul\":5659:5666   */\n          dup10\n            /* \"#utility.yul\":5650:5656   */\n          dup3\n            /* \"#utility.yul\":5639:5648   */\n          dup11\n            /* \"#utility.yul\":5635:5657   */\n          add\n            /* \"#utility.yul\":5604:5667   */\n          tag_42\n          jump\t// in\n        tag_148:\n            /* \"#utility.yul\":5594:5667   */\n          swap4\n          pop\n            /* \"#utility.yul\":5549:5677   */\n          pop\n            /* \"#utility.yul\":5716:5719   */\n          0x80\n            /* \"#utility.yul\":5743:5806   */\n          tag_149\n            /* \"#utility.yul\":5798:5805   */\n          dup10\n            /* \"#utility.yul\":5789:5795   */\n          dup3\n            /* \"#utility.yul\":5778:5787   */\n          dup11\n            /* \"#utility.yul\":5774:5796   */\n          add\n            /* \"#utility.yul\":5743:5806   */\n          tag_45\n          jump\t// in\n        tag_149:\n            /* \"#utility.yul\":5733:5806   */\n          swap3\n          pop\n            /* \"#utility.yul\":5687:5816   */\n          pop\n            /* \"#utility.yul\":5855:5858   */\n          0xa0\n            /* \"#utility.yul\":5882:5943   */\n          tag_150\n            /* \"#utility.yul\":5935:5942   */\n          dup10\n            /* \"#utility.yul\":5926:5932   */\n          dup3\n            /* \"#utility.yul\":5915:5924   */\n          dup11\n            /* \"#utility.yul\":5911:5933   */\n          add\n            /* \"#utility.yul\":5882:5943   */\n          tag_48\n          jump\t// in\n        tag_150:\n            /* \"#utility.yul\":5872:5943   */\n          swap2\n          pop\n            /* \"#utility.yul\":5826:5953   */\n          pop\n            /* \"#utility.yul\":4665:5960   */\n          swap3\n          swap6\n          pop\n          swap3\n          swap6\n          pop\n          swap3\n          swap6\n          jump\t// out\n            /* \"#utility.yul\":5966:6135   */\n        tag_49:\n            /* \"#utility.yul\":6050:6061   */\n          0x00\n            /* \"#utility.yul\":6084:6090   */\n          dup3\n            /* \"#utility.yul\":6079:6082   */\n          dup3\n            /* \"#utility.yul\":6072:6091   */\n          mstore\n            /* \"#utility.yul\":6124:6128   */\n          0x20\n            /* \"#utility.yul\":6119:6122   */\n          dup3\n            /* \"#utility.yul\":6115:6129   */\n          add\n            /* \"#utility.yul\":6100:6129   */\n          swap1\n          pop\n            /* \"#utility.yul\":5966:6135   */\n          swap3\n          swap2\n          pop\n          pop\n          jump\t// out\n            /* \"#utility.yul\":6141:6323   */\n        tag_50:\n            /* \"#utility.yul\":6281:6315   */\n          0x4d6178696d616c203635353334204d6974737069656c65722065726c61756274\n            /* \"#utility.yul\":6277:6278   */\n          0x00\n            /* \"#utility.yul\":6269:6275   */\n          dup3\n            /* \"#utility.yul\":6265:6279   */\n          add\n            /* \"#utility.yul\":6258:6316   */\n          mstore\n            /* \"#utility.yul\":6141:6323   */\n          pop\n          jump\t// out\n            /* \"#utility.yul\":6329:6695   */\n        tag_51:\n            /* \"#utility.yul\":6471:6474   */\n          0x00\n            /* \"#utility.yul\":6492:6559   */\n          tag_154\n            /* \"#utility.yul\":6556:6558   */\n          0x20\n            /* \"#utility.yul\":6551:6554   */\n          dup4\n            /* \"#utility.yul\":6492:6559   */\n          tag_49\n          jump\t// in\n        tag_154:\n            /* \"#utility.yul\":6485:6559   */\n          swap2\n          pop\n            /* \"#utility.yul\":6568:6661   */\n          tag_155\n            /* \"#utility.yul\":6657:6660   */\n          dup3\n            /* \"#utility.yul\":6568:6661   */\n          tag_50\n          jump\t// in\n        tag_155:\n            /* \"#utility.yul\":6686:6688   */\n          0x20\n            /* \"#utility.yul\":6681:6684   */\n          dup3\n            /* \"#utility.yul\":6677:6689   */\n          add\n            /* \"#utility.yul\":6670:6689   */\n          swap1\n          pop\n            /* \"#utility.yul\":6329:6695   */\n          swap2\n          swap1\n          pop\n          jump\t// out\n            /* \"#utility.yul\":6701:7120   */\n        tag_8:\n            /* \"#utility.yul\":6867:6871   */\n          0x00\n            /* \"#utility.yul\":6905:6907   */\n          0x20\n            /* \"#utility.yul\":6894:6903   */\n          dup3\n            /* \"#utility.yul\":6890:6908   */\n          add\n            /* \"#utility.yul\":6882:6908   */\n          swap1\n          pop\n            /* \"#utility.yul\":6954:6963   */\n          dup2\n            /* \"#utility.yul\":6948:6952   */\n          dup2\n            /* \"#utility.yul\":6944:6964   */\n          sub\n            /* \"#utility.yul\":6940:6941   */\n          0x00\n            /* \"#utility.yul\":6929:6938   */\n          dup4\n            /* \"#utility.yul\":6925:6942   */\n          add\n            /* \"#utility.yul\":6918:6965   */\n          mstore\n            /* \"#utility.yul\":6982:7113   */\n          tag_157\n            /* \"#utility.yul\":7108:7112   */\n          dup2\n            /* \"#utility.yul\":6982:7113   */\n          tag_51\n          jump\t// in\n        tag_157:\n            /* \"#utility.yul\":6974:7113   */\n          swap1\n          pop\n            /* \"#utility.yul\":6701:7120   */\n          swap2\n          swap1\n          pop\n          jump\t// out\n            /* \"#utility.yul\":7126:7302   */\n        tag_52:\n            /* \"#utility.yul\":7266:7294   */\n          0x4d6178696d616c65722050726569732034323934393637323935000000000000\n            /* \"#utility.yul\":7262:7263   */\n          0x00\n            /* \"#utility.yul\":7254:7260   */\n          dup3\n            /* \"#utility.yul\":7250:7264   */\n          add\n            /* \"#utility.yul\":7243:7295   */\n          mstore\n            /* \"#utility.yul\":7126:7302   */\n          pop\n          jump\t// out\n            /* \"#utility.yul\":7308:7674   */\n        tag_53:\n            /* \"#utility.yul\":7450:7453   */\n          0x00\n            /* \"#utility.yul\":7471:7538   */\n          tag_160\n            /* \"#utility.yul\":7535:7537   */\n          0x1a\n            /* \"#utility.yul\":7530:7533   */\n          dup4\n            /* \"#utility.yul\":7471:7538   */\n          tag_49\n          jump\t// in\n        tag_160:\n            /* \"#utility.yul\":7464:7538   */\n          swap2\n          pop\n            /* \"#utility.yul\":7547:7640   */\n          tag_161\n            /* \"#utility.yul\":7636:7639   */\n          dup3\n            /* \"#utility.yul\":7547:7640   */\n          tag_52\n          jump\t// in\n        tag_161:\n            /* \"#utility.yul\":7665:7667   */\n          0x20\n            /* \"#utility.yul\":7660:7663   */\n          dup3\n            /* \"#utility.yul\":7656:7668   */\n          add\n            /* \"#utility.yul\":7649:7668   */\n          swap1\n          pop\n            /* \"#utility.yul\":7308:7674   */\n          swap2\n          swap1\n          pop\n          jump\t// out\n            /* \"#utility.yul\":7680:8099   */\n        tag_11:\n            /* \"#utility.yul\":7846:7850   */\n          0x00\n            /* \"#utility.yul\":7884:7886   */\n          0x20\n            /* \"#utility.yul\":7873:7882   */\n          dup3\n            /* \"#utility.yul\":7869:7887   */\n          add\n            /* \"#utility.yul\":7861:7887   */\n          swap1\n          pop\n            /* \"#utility.yul\":7933:7942   */\n          dup2\n            /* \"#utility.yul\":7927:7931   */\n          dup2\n            /* \"#utility.yul\":7923:7943   */\n          sub\n            /* \"#utility.yul\":7919:7920   */\n          0x00\n            /* \"#utility.yul\":7908:7917   */\n          dup4\n            /* \"#utility.yul\":7904:7921   */\n          add\n            /* \"#utility.yul\":7897:7944   */\n          mstore\n            /* \"#utility.yul\":7961:8092   */\n          tag_163\n            /* \"#utility.yul\":8087:8091   */\n          dup2\n            /* \"#utility.yul\":7961:8092   */\n          tag_53\n          jump\t// in\n        tag_163:\n            /* \"#utility.yul\":7953:8092   */\n          swap1\n          pop\n            /* \"#utility.yul\":7680:8099   */\n          swap2\n          swap1\n          pop\n          jump\t// out\n            /* \"#utility.yul\":8105:8204   */\n        tag_54:\n            /* \"#utility.yul\":8157:8163   */\n          0x00\n            /* \"#utility.yul\":8191:8196   */\n          dup2\n            /* \"#utility.yul\":8185:8197   */\n          mload\n            /* \"#utility.yul\":8175:8197   */\n          swap1\n          pop\n            /* \"#utility.yul\":8105:8204   */\n          swap2\n          swap1\n          pop\n          jump\t// out\n            /* \"#utility.yul\":8210:8390   */\n        tag_55:\n            /* \"#utility.yul\":8258:8335   */\n          0x4e487b7100000000000000000000000000000000000000000000000000000000\n            /* \"#utility.yul\":8255:8256   */\n          0x00\n            /* \"#utility.yul\":8248:8336   */\n          mstore\n            /* \"#utility.yul\":8355:8359   */\n          0x22\n            /* \"#utility.yul\":8352:8353   */\n          0x04\n            /* \"#utility.yul\":8345:8360   */\n          mstore\n            /* \"#utility.yul\":8379:8383   */\n          0x24\n            /* \"#utility.yul\":8376:8377   */\n          0x00\n            /* \"#utility.yul\":8369:8384   */\n          revert\n            /* \"#utility.yul\":8396:8716   */\n        tag_56:\n            /* \"#utility.yul\":8440:8446   */\n          0x00\n            /* \"#utility.yul\":8477:8478   */\n          0x02\n            /* \"#utility.yul\":8471:8475   */\n          dup3\n            /* \"#utility.yul\":8467:8479   */\n          div\n            /* \"#utility.yul\":8457:8479   */\n          swap1\n          pop\n            /* \"#utility.yul\":8524:8525   */\n          0x01\n            /* \"#utility.yul\":8518:8522   */\n          dup3\n            /* \"#utility.yul\":8514:8526   */\n          and\n            /* \"#utility.yul\":8545:8563   */\n          dup1\n            /* \"#utility.yul\":8535:8616   */\n          tag_167\n          jumpi\n            /* \"#utility.yul\":8601:8605   */\n          0x7f\n            /* \"#utility.yul\":8593:8599   */\n          dup3\n            /* \"#utility.yul\":8589:8606   */\n          and\n            /* \"#utility.yul\":8579:8606   */\n          swap2\n          pop\n            /* \"#utility.yul\":8535:8616   */\n        tag_167:\n            /* \"#utility.yul\":8663:8665   */\n          0x20\n            /* \"#utility.yul\":8655:8661   */\n          dup3\n            /* \"#utility.yul\":8652:8666   */\n          lt\n            /* \"#utility.yul\":8632:8650   */\n          dup2\n            /* \"#utility.yul\":8629:8667   */\n          sub\n            /* \"#utility.yul\":8626:8710   */\n          tag_168\n          jumpi\n            /* \"#utility.yul\":8682:8700   */\n          tag_169\n          tag_55\n          jump\t// in\n        tag_169:\n            /* \"#utility.yul\":8626:8710   */\n        tag_168:\n            /* \"#utility.yul\":8447:8716   */\n          pop\n            /* \"#utility.yul\":8396:8716   */\n          swap2\n          swap1\n          pop\n          jump\t// out\n            /* \"#utility.yul\":8722:8863   */\n        tag_57:\n            /* \"#utility.yul\":8771:8775   */\n          0x00\n            /* \"#utility.yul\":8794:8797   */\n          dup2\n            /* \"#utility.yul\":8786:8797   */\n          swap1\n          pop\n            /* \"#utility.yul\":8817:8820   */\n          dup2\n            /* \"#utility.yul\":8814:8815   */\n          0x00\n            /* \"#utility.yul\":8807:8821   */\n          mstore\n            /* \"#utility.yul\":8851:8855   */\n          0x20\n            /* \"#utility.yul\":8848:8849   */\n          0x00\n            /* \"#utility.yul\":8838:8856   */\n          keccak256\n            /* \"#utility.yul\":8830:8856   */\n          swap1\n          pop\n            /* \"#utility.yul\":8722:8863   */\n          swap2\n          swap1\n          pop\n          jump\t// out\n            /* \"#utility.yul\":8869:8962   */\n        tag_58:\n            /* \"#utility.yul\":8906:8912   */\n          0x00\n            /* \"#utility.yul\":8953:8955   */\n          0x20\n            /* \"#utility.yul\":8948:8950   */\n          0x1f\n            /* \"#utility.yul\":8941:8946   */\n          dup4\n            /* \"#utility.yul\":8937:8951   */\n          add\n            /* \"#utility.yul\":8933:8956   */\n          div\n            /* \"#utility.yul\":8923:8956   */\n          swap1\n          pop\n            /* \"#utility.yul\":8869:8962   */\n          swap2\n          swap1\n          pop\n          jump\t// out\n            /* \"#utility.yul\":8968:9075   */\n        tag_59:\n            /* \"#utility.yul\":9012:9020   */\n          0x00\n            /* \"#utility.yul\":9062:9067   */\n          dup3\n            /* \"#utility.yul\":9056:9060   */\n          dup3\n            /* \"#utility.yul\":9052:9068   */\n          shl\n            /* \"#utility.yul\":9031:9068   */\n          swap1\n          pop\n            /* \"#utility.yul\":8968:9075   */\n          swap3\n          swap2\n          pop\n          pop\n          jump\t// out\n            /* \"#utility.yul\":9081:9474   */\n        tag_60:\n            /* \"#utility.yul\":9150:9156   */\n          0x00\n            /* \"#utility.yul\":9200:9201   */\n          0x08\n            /* \"#utility.yul\":9188:9198   */\n          dup4\n            /* \"#utility.yul\":9184:9202   */\n          mul\n            /* \"#utility.yul\":9223:9320   */\n          tag_174\n            /* \"#utility.yul\":9253:9319   */\n          0xffffffffffffffffffffffffffffffffffffffffffffffffffffffffffffffff\n            /* \"#utility.yul\":9242:9251   */\n          dup3\n            /* \"#utility.yul\":9223:9320   */\n          tag_59\n          jump\t// in\n        tag_174:\n            /* \"#utility.yul\":9341:9380   */\n          tag_175\n            /* \"#utility.yul\":9371:9379   */\n          dup7\n            /* \"#utility.yul\":9360:9369   */\n          dup4\n            /* \"#utility.yul\":9341:9380   */\n          tag_59\n          jump\t// in\n        tag_175:\n            /* \"#utility.yul\":9329:9380   */\n          swap6\n          pop\n            /* \"#utility.yul\":9413:9417   */\n          dup1\n            /* \"#utility.yul\":9409:9418   */\n          not\n            /* \"#utility.yul\":9402:9407   */\n          dup5\n            /* \"#utility.yul\":9398:9419   */\n          and\n            /* \"#utility.yul\":9389:9419   */\n          swap4\n          pop\n            /* \"#utility.yul\":9462:9466   */\n          dup1\n            /* \"#utility.yul\":9452:9460   */\n          dup7\n            /* \"#utility.yul\":9448:9467   */\n          and\n            /* \"#utility.yul\":9441:9446   */\n          dup5\n            /* \"#utility.yul\":9438:9468   */\n          or\n            /* \"#utility.yul\":9428:9468   */\n          swap3\n          pop\n            /* \"#utility.yul\":9157:9474   */\n          pop\n          pop\n            /* \"#utility.yul\":9081:9474   */\n          swap4\n          swap3\n          pop\n          pop\n          pop\n          jump\t// out\n            /* \"#utility.yul\":9480:9557   */\n        tag_61:\n            /* \"#utility.yul\":9517:9524   */\n          0x00\n            /* \"#utility.yul\":9546:9551   */\n          dup2\n            /* \"#utility.yul\":9535:9551   */\n          swap1\n          pop\n            /* \"#utility.yul\":9480:9557   */\n          swap2\n          swap1\n          pop\n          jump\t// out\n            /* \"#utility.yul\":9563:9623   */\n        tag_62:\n            /* \"#utility.yul\":9591:9594   */\n          0x00\n            /* \"#utility.yul\":9612:9617   */\n          dup2\n            /* \"#utility.yul\":9605:9617   */\n          swap1\n          pop\n            /* \"#utility.yul\":9563:9623   */\n          swap2\n          swap1\n          pop\n          jump\t// out\n            /* \"#utility.yul\":9629:9771   */\n        tag_63:\n            /* \"#utility.yul\":9679:9688   */\n          0x00\n            /* \"#utility.yul\":9712:9765   */\n          tag_179\n            /* \"#utility.yul\":9730:9764   */\n          tag_180\n            /* \"#utility.yul\":9739:9763   */\n          tag_181\n            /* \"#utility.yul\":9757:9762   */\n          dup5\n            /* \"#utility.yul\":9739:9763   */\n          tag_61\n          jump\t// in\n        tag_181:\n            /* \"#utility.yul\":9730:9764   */\n          tag_62\n          jump\t// in\n        tag_180:\n            /* \"#utility.yul\":9712:9765   */\n          tag_61\n          jump\t// in\n        tag_179:\n            /* \"#utility.yul\":9699:9765   */\n          swap1\n          pop\n            /* \"#utility.yul\":9629:9771   */\n          swap2\n          swap1\n          pop\n          jump\t// out\n            /* \"#utility.yul\":9777:9852   */\n        tag_64:\n            /* \"#utility.yul\":9820:9823   */\n          0x00\n            /* \"#utility.yul\":9841:9846   */\n          dup2\n            /* \"#utility.yul\":9834:9846   */\n          swap1\n          pop\n            /* \"#utility.yul\":9777:9852   */\n          swap2\n          swap1\n          pop\n          jump\t// out\n            /* \"#utility.yul\":9858:10127   */\n        tag_65:\n            /* \"#utility.yul\":9968:10007   */\n          tag_184\n            /* \"#utility.yul\":9999:10006   */\n          dup4\n            /* \"#utility.yul\":9968:10007   */\n          tag_63\n          jump\t// in\n        tag_184:\n            /* \"#utility.yul\":10029:10120   */\n          tag_185\n            /* \"#utility.yul\":10078:10119   */\n          tag_186\n            /* \"#utility.yul\":10102:10118   */\n          dup3\n            /* \"#utility.yul\":10078:10119   */\n          tag_64\n          jump\t// in\n        tag_186:\n            /* \"#utility.yul\":10070:10076   */\n          dup5\n            /* \"#utility.yul\":10063:10067   */\n          dup5\n            /* \"#utility.yul\":10057:10068   */\n          sload\n            /* \"#utility.yul\":10029:10120   */\n          tag_60\n          jump\t// in\n        tag_185:\n            /* \"#utility.yul\":10023:10027   */\n          dup3\n            /* \"#utility.yul\":10016:10121   */\n          sstore\n            /* \"#utility.yul\":9934:10127   */\n          pop\n            /* \"#utility.yul\":9858:10127   */\n          pop\n          pop\n          pop\n          jump\t// out\n            /* \"#utility.yul\":10133:10206   */\n        tag_66:\n            /* \"#utility.yul\":10178:10181   */\n          0x00\n            /* \"#utility.yul\":10133:10206   */\n          swap1\n          jump\t// out\n            /* \"#utility.yul\":10212:10401   */\n        tag_67:\n            /* \"#utility.yul\":10289:10321   */\n          tag_189\n          tag_66\n          jump\t// in\n        tag_189:\n            /* \"#utility.yul\":10330:10395   */\n          tag_190\n            /* \"#utility.yul\":10388:10394   */\n          dup2\n            /* \"#utility.yul\":10380:10386   */\n          dup5\n            /* \"#utility.yul\":10374:10378   */\n          dup5\n            /* \"#utility.yul\":10330:10395   */\n          tag_65\n          jump\t// in\n        tag_190:\n            /* \"#utility.yul\":10265:10401   */\n          pop\n            /* \"#utility.yul\":10212:10401   */\n          pop\n          pop\n          jump\t// out\n            /* \"#utility.yul\":10407:10593   */\n        tag_68:\n            /* \"#utility.yul\":10467:10587   */\n        tag_192:\n            /* \"#utility.yul\":10484:10487   */\n          dup2\n            /* \"#utility.yul\":10477:10482   */\n          dup2\n            /* \"#utility.yul\":10474:10488   */\n          lt\n            /* \"#utility.yul\":10467:10587   */\n          iszero\n          tag_194\n          jumpi\n            /* \"#utility.yul\":10538:10577   */\n          tag_195\n            /* \"#utility.yul\":10575:10576   */\n          0x00\n            /* \"#utility.yul\":10568:10573   */\n          dup3\n            /* \"#utility.yul\":10538:10577   */\n          tag_67\n          jump\t// in\n        tag_195:\n            /* \"#utility.yul\":10511:10512   */\n          0x01\n            /* \"#utility.yul\":10504:10509   */\n          dup2\n            /* \"#utility.yul\":10500:10513   */\n          add\n            /* \"#utility.yul\":10491:10513   */\n          swap1\n          pop\n            /* \"#utility.yul\":10467:10587   */\n          jump(tag_192)\n        tag_194:\n            /* \"#utility.yul\":10407:10593   */\n          pop\n          pop\n          jump\t// out\n            /* \"#utility.yul\":10599:11142   */\n        tag_69:\n            /* \"#utility.yul\":10700:10702   */\n          0x1f\n            /* \"#utility.yul\":10695:10698   */\n          dup3\n            /* \"#utility.yul\":10692:10703   */\n          gt\n            /* \"#utility.yul\":10689:11135   */\n          iszero\n          tag_197\n          jumpi\n            /* \"#utility.yul\":10734:10772   */\n          tag_198\n            /* \"#utility.yul\":10766:10771   */\n          dup2\n            /* \"#utility.yul\":10734:10772   */\n          tag_57\n          jump\t// in\n        tag_198:\n            /* \"#utility.yul\":10818:10847   */\n          tag_199\n            /* \"#utility.yul\":10836:10846   */\n          dup5\n            /* \"#utility.yul\":10818:10847   */\n          tag_58\n          jump\t// in\n        tag_199:\n            /* \"#utility.yul\":10808:10816   */\n          dup2\n            /* \"#utility.yul\":10804:10848   */\n          add\n            /* \"#utility.yul\":11001:11003   */\n          0x20\n            /* \"#utility.yul\":10989:10999   */\n          dup6\n            /* \"#utility.yul\":10986:11004   */\n          lt\n            /* \"#utility.yul\":10983:11032   */\n          iszero\n          tag_200\n          jumpi\n            /* \"#utility.yul\":11022:11030   */\n          dup2\n            /* \"#utility.yul\":11007:11030   */\n          swap1\n          pop\n            /* \"#utility.yul\":10983:11032   */\n        tag_200:\n            /* \"#utility.yul\":11045:11125   */\n          tag_201\n            /* \"#utility.yul\":11101:11123   */\n          tag_202\n            /* \"#utility.yul\":11119:11122   */\n          dup6\n            /* \"#utility.yul\":11101:11123   */\n          tag_58\n          jump\t// in\n        tag_202:\n            /* \"#utility.yul\":11091:11099   */\n          dup4\n            /* \"#utility.yul\":11087:11124   */\n          add\n            /* \"#utility.yul\":11074:11085   */\n          dup3\n            /* \"#utility.yul\":11045:11125   */\n          tag_68\n          jump\t// in\n        tag_201:\n            /* \"#utility.yul\":10704:11135   */\n          pop\n          pop\n            /* \"#utility.yul\":10689:11135   */\n        tag_197:\n            /* \"#utility.yul\":10599:11142   */\n          pop\n          pop\n          pop\n          jump\t// out\n            /* \"#utility.yul\":11148:11265   */\n        tag_70:\n            /* \"#utility.yul\":11202:11210   */\n          0x00\n            /* \"#utility.yul\":11252:11257   */\n          dup3\n            /* \"#utility.yul\":11246:11250   */\n          dup3\n            /* \"#utility.yul\":11242:11258   */\n          shr\n            /* \"#utility.yul\":11221:11258   */\n          swap1\n          pop\n            /* \"#utility.yul\":11148:11265   */\n          swap3\n          swap2\n          pop\n          pop\n          jump\t// out\n            /* \"#utility.yul\":11271:11440   */\n        tag_71:\n            /* \"#utility.yul\":11315:11321   */\n          0x00\n            /* \"#utility.yul\":11348:11399   */\n          tag_205\n            /* \"#utility.yul\":11396:11397   */\n          0x00\n            /* \"#utility.yul\":11392:11398   */\n          not\n            /* \"#utility.yul\":11384:11389   */\n          dup5\n            /* \"#utility.yul\":11381:11382   */\n          0x08\n            /* \"#utility.yul\":11377:11390   */\n          mul\n            /* \"#utility.yul\":11348:11399   */\n          tag_70\n          jump\t// in\n        tag_205:\n            /* \"#utility.yul\":11344:11400   */\n          not\n            /* \"#utility.yul\":11429:11433   */\n          dup1\n            /* \"#utility.yul\":11423:11427   */\n          dup4\n            /* \"#utility.yul\":11419:11434   */\n          and\n            /* \"#utility.yul\":11409:11434   */\n          swap2\n          pop\n            /* \"#utility.yul\":11322:11440   */\n          pop\n            /* \"#utility.yul\":11271:11440   */\n          swap3\n          swap2\n          pop\n          pop\n          jump\t// out\n            /* \"#utility.yul\":11445:11740   */\n        tag_72:\n            /* \"#utility.yul\":11521:11525   */\n          0x00\n            /* \"#utility.yul\":11667:11696   */\n          tag_207\n            /* \"#utility.yul\":11692:11695   */\n          dup4\n            /* \"#utility.yul\":11686:11690   */\n          dup4\n            /* \"#utility.yul\":11667:11696   */\n          tag_71\n          jump\t// in\n        tag_207:\n            /* \"#utility.yul\":11659:11696   */\n          swap2\n          pop\n            /* \"#utility.yul\":11729:11732   */\n          dup3\n            /* \"#utility.yul\":11726:11727   */\n          0x02\n            /* \"#utility.yul\":11722:11733   */\n          mul\n            /* \"#utility.yul\":11716:11720   */\n          dup3\n            /* \"#utility.yul\":11713:11734   */\n          or\n            /* \"#utility.yul\":11705:11734   */\n          swap1\n          pop\n            /* \"#utility.yul\":11445:11740   */\n          swap3\n          swap2\n          pop\n          pop\n          jump\t// out\n            /* \"#utility.yul\":11745:13140   */\n        tag_13:\n            /* \"#utility.yul\":11862:11899   */\n          tag_209\n            /* \"#utility.yul\":11895:11898   */\n          dup3\n            /* \"#utility.yul\":11862:11899   */\n          tag_54\n          jump\t// in\n        tag_209:\n            /* \"#utility.yul\":11964:11982   */\n          0xffffffffffffffff\n            /* \"#utility.yul\":11956:11962   */\n          dup2\n            /* \"#utility.yul\":11953:11983   */\n          gt\n            /* \"#utility.yul\":11950:12006   */\n          iszero\n          tag_210\n          jumpi\n            /* \"#utility.yul\":11986:12004   */\n          tag_211\n          tag_26\n          jump\t// in\n        tag_211:\n            /* \"#utility.yul\":11950:12006   */\n        tag_210:\n            /* \"#utility.yul\":12030:12068   */\n          tag_212\n            /* \"#utility.yul\":12062:12066   */\n          dup3\n            /* \"#utility.yul\":12056:12067   */\n          sload\n            /* \"#utility.yul\":12030:12068   */\n          tag_56\n          jump\t// in\n        tag_212:\n            /* \"#utility.yul\":12115:12182   */\n          tag_213\n            /* \"#utility.yul\":12175:12181   */\n          dup3\n            /* \"#utility.yul\":12167:12173   */\n          dup3\n            /* \"#utility.yul\":12161:12165   */\n          dup6\n            /* \"#utility.yul\":12115:12182   */\n          tag_69\n          jump\t// in\n        tag_213:\n            /* \"#utility.yul\":12209:12210   */\n          0x00\n            /* \"#utility.yul\":12233:12237   */\n          0x20\n            /* \"#utility.yul\":12220:12237   */\n          swap1\n          pop\n            /* \"#utility.yul\":12265:12267   */\n          0x1f\n            /* \"#utility.yul\":12257:12263   */\n          dup4\n            /* \"#utility.yul\":12254:12268   */\n          gt\n            /* \"#utility.yul\":12282:12283   */\n          0x01\n            /* \"#utility.yul\":12277:12895   */\n          dup2\n          eq\n          tag_215\n          jumpi\n            /* \"#utility.yul\":12939:12940   */\n          0x00\n            /* \"#utility.yul\":12956:12962   */\n          dup5\n            /* \"#utility.yul\":12953:13030   */\n          iszero\n          tag_216\n          jumpi\n            /* \"#utility.yul\":13005:13014   */\n          dup3\n            /* \"#utility.yul\":13000:13003   */\n          dup8\n            /* \"#utility.yul\":12996:13015   */\n          add\n            /* \"#utility.yul\":12990:13016   */\n          mload\n            /* \"#utility.yul\":12981:13016   */\n          swap1\n          pop\n            /* \"#utility.yul\":12953:13030   */\n        tag_216:\n            /* \"#utility.yul\":13056:13123   */\n          tag_217\n            /* \"#utility.yul\":13116:13122   */\n          dup6\n            /* \"#utility.yul\":13109:13114   */\n          dup3\n            /* \"#utility.yul\":13056:13123   */\n          tag_72\n          jump\t// in\n        tag_217:\n            /* \"#utility.yul\":13050:13054   */\n          dup7\n            /* \"#utility.yul\":13043:13124   */\n          sstore\n            /* \"#utility.yul\":12912:13134   */\n          pop\n            /* \"#utility.yul\":12247:13134   */\n          jump(tag_214)\n            /* \"#utility.yul\":12277:12895   */\n        tag_215:\n            /* \"#utility.yul\":12329:12333   */\n          0x1f\n            /* \"#utility.yul\":12325:12334   */\n          not\n            /* \"#utility.yul\":12317:12323   */\n          dup5\n            /* \"#utility.yul\":12313:12335   */\n          and\n            /* \"#utility.yul\":12363:12400   */\n          tag_218\n            /* \"#utility.yul\":12395:12399   */\n          dup7\n            /* \"#utility.yul\":12363:12400   */\n          tag_57\n          jump\t// in\n        tag_218:\n            /* \"#utility.yul\":12422:12423   */\n          0x00\n            /* \"#utility.yul\":12436:12644   */\n        tag_219:\n            /* \"#utility.yul\":12450:12457   */\n          dup3\n            /* \"#utility.yul\":12447:12448   */\n          dup2\n            /* \"#utility.yul\":12444:12458   */\n          lt\n            /* \"#utility.yul\":12436:12644   */\n          iszero\n          tag_221\n          jumpi\n            /* \"#utility.yul\":12529:12538   */\n          dup5\n            /* \"#utility.yul\":12524:12527   */\n          dup10\n            /* \"#utility.yul\":12520:12539   */\n          add\n            /* \"#utility.yul\":12514:12540   */\n          mload\n            /* \"#utility.yul\":12506:12512   */\n          dup3\n            /* \"#utility.yul\":12499:12541   */\n          sstore\n            /* \"#utility.yul\":12580:12581   */\n          0x01\n            /* \"#utility.yul\":12572:12578   */\n          dup3\n            /* \"#utility.yul\":12568:12582   */\n          add\n            /* \"#utility.yul\":12558:12582   */\n          swap2\n          pop\n            /* \"#utility.yul\":12627:12629   */\n          0x20\n            /* \"#utility.yul\":12616:12625   */\n          dup6\n            /* \"#utility.yul\":12612:12630   */\n          add\n            /* \"#utility.yul\":12599:12630   */\n          swap5\n          pop\n            /* \"#utility.yul\":12473:12477   */\n          0x20\n            /* \"#utility.yul\":12470:12471   */\n          dup2\n            /* \"#utility.yul\":12466:12478   */\n          add\n            /* \"#utility.yul\":12461:12478   */\n          swap1\n          pop\n            /* \"#utility.yul\":12436:12644   */\n          jump(tag_219)\n        tag_221:\n            /* \"#utility.yul\":12672:12678   */\n          dup7\n            /* \"#utility.yul\":12663:12670   */\n          dup4\n            /* \"#utility.yul\":12660:12679   */\n          lt\n            /* \"#utility.yul\":12657:12836   */\n          iszero\n          tag_222\n          jumpi\n            /* \"#utility.yul\":12730:12739   */\n          dup5\n            /* \"#utility.yul\":12725:12728   */\n          dup10\n            /* \"#utility.yul\":12721:12740   */\n          add\n            /* \"#utility.yul\":12715:12741   */\n          mload\n            /* \"#utility.yul\":12773:12821   */\n          tag_223\n            /* \"#utility.yul\":12815:12819   */\n          0x1f\n            /* \"#utility.yul\":12807:12813   */\n          dup10\n            /* \"#utility.yul\":12803:12820   */\n          and\n            /* \"#utility.yul\":12792:12801   */\n          dup3\n            /* \"#utility.yul\":12773:12821   */\n          tag_71\n          jump\t// in\n        tag_223:\n            /* \"#utility.yul\":12765:12771   */\n          dup4\n            /* \"#utility.yul\":12758:12822   */\n          sstore\n            /* \"#utility.yul\":12680:12836   */\n          pop\n            /* \"#utility.yul\":12657:12836   */\n        tag_222:\n            /* \"#utility.yul\":12882:12883   */\n          0x01\n            /* \"#utility.yul\":12878:12879   */\n          0x02\n            /* \"#utility.yul\":12870:12876   */\n          dup9\n            /* \"#utility.yul\":12866:12880   */\n          mul\n            /* \"#utility.yul\":12862:12884   */\n          add\n            /* \"#utility.yul\":12856:12860   */\n          dup9\n            /* \"#utility.yul\":12849:12885   */\n          sstore\n            /* \"#utility.yul\":12284:12895   */\n          pop\n          pop\n          pop\n            /* \"#utility.yul\":12247:13134   */\n        tag_214:\n          pop\n            /* \"#utility.yul\":11837:13140   */\n          pop\n          pop\n          pop\n            /* \"#utility.yul\":11745:13140   */\n          pop\n          pop\n          jump\t// out\n            /* \"#utility.yul\":13146:13326   */\n        tag_73:\n            /* \"#utility.yul\":13194:13271   */\n          0x4e487b7100000000000000000000000000000000000000000000000000000000\n            /* \"#utility.yul\":13191:13192   */\n          0x00\n            /* \"#utility.yul\":13184:13272   */\n          mstore\n            /* \"#utility.yul\":13291:13295   */\n          0x11\n            /* \"#utility.yul\":13288:13289   */\n          0x04\n            /* \"#utility.yul\":13281:13296   */\n          mstore\n            /* \"#utility.yul\":13315:13319   */\n          0x24\n            /* \"#utility.yul\":13312:13313   */\n          0x00\n            /* \"#utility.yul\":13305:13320   */\n          revert\n            /* \"#utility.yul\":13332:13742   */\n        tag_15:\n            /* \"#utility.yul\":13372:13379   */\n          0x00\n            /* \"#utility.yul\":13395:13415   */\n          tag_226\n            /* \"#utility.yul\":13413:13414   */\n          dup3\n            /* \"#utility.yul\":13395:13415   */\n          tag_61\n          jump\t// in\n        tag_226:\n            /* \"#utility.yul\":13390:13415   */\n          swap2\n          pop\n            /* \"#utility.yul\":13429:13449   */\n          tag_227\n            /* \"#utility.yul\":13447:13448   */\n          dup4\n            /* \"#utility.yul\":13429:13449   */\n          tag_61\n          jump\t// in\n        tag_227:\n            /* \"#utility.yul\":13424:13449   */\n          swap3\n          pop\n            /* \"#utility.yul\":13484:13485   */\n          dup3\n            /* \"#utility.yul\":13481:13482   */\n          dup3\n            /* \"#utility.yul\":13477:13486   */\n          mul\n            /* \"#utility.yul\":13506:13536   */\n          tag_228\n            /* \"#utility.yul\":13524:13535   */\n          dup2\n            /* \"#utility.yul\":13506:13536   */\n          tag_61\n          jump\t// in\n        tag_228:\n            /* \"#utility.yul\":13495:13536   */\n          swap2\n          pop\n            /* \"#utility.yul\":13685:13686   */\n          dup3\n            /* \"#utility.yul\":13676:13683   */\n          dup3\n            /* \"#utility.yul\":13672:13687   */\n          div\n            /* \"#utility.yul\":13669:13670   */\n          dup5\n            /* \"#utility.yul\":13666:13688   */\n          eq\n            /* \"#utility.yul\":13646:13647   */\n          dup4\n            /* \"#utility.yul\":13639:13648   */\n          iszero\n            /* \"#utility.yul\":13619:13702   */\n          or\n            /* \"#utility.yul\":13596:13735   */\n          tag_229\n          jumpi\n            /* \"#utility.yul\":13715:13733   */\n          tag_230\n          tag_73\n          jump\t// in\n        tag_230:\n            /* \"#utility.yul\":13596:13735   */\n        tag_229:\n            /* \"#utility.yul\":13380:13742   */\n          pop\n            /* \"#utility.yul\":13332:13742   */\n          swap3\n          swap2\n          pop\n          pop\n          jump\t// out\n            /* \"#utility.yul\":13748:13928   */\n        tag_74:\n            /* \"#utility.yul\":13796:13873   */\n          0x4e487b7100000000000000000000000000000000000000000000000000000000\n            /* \"#utility.yul\":13793:13794   */\n          0x00\n            /* \"#utility.yul\":13786:13874   */\n          mstore\n            /* \"#utility.yul\":13893:13897   */\n          0x12\n            /* \"#utility.yul\":13890:13891   */\n          0x04\n            /* \"#utility.yul\":13883:13898   */\n          mstore\n            /* \"#utility.yul\":13917:13921   */\n          0x24\n            /* \"#utility.yul\":13914:13915   */\n          0x00\n            /* \"#utility.yul\":13907:13922   */\n          revert\n            /* \"#utility.yul\":13934:14119   */\n        tag_17:\n            /* \"#utility.yul\":13974:13975   */\n          0x00\n            /* \"#utility.yul\":13991:14011   */\n          tag_233\n            /* \"#utility.yul\":14009:14010   */\n          dup3\n            /* \"#utility.yul\":13991:14011   */\n          tag_61\n          jump\t// in\n        tag_233:\n            /* \"#utility.yul\":13986:14011   */\n          swap2\n          pop\n            /* \"#utility.yul\":14025:14045   */\n          tag_234\n            /* \"#utility.yul\":14043:14044   */\n          dup4\n            /* \"#utility.yul\":14025:14045   */\n          tag_61\n          jump\t// in\n        tag_234:\n            /* \"#utility.yul\":14020:14045   */\n          swap3\n          pop\n            /* \"#utility.yul\":14064:14065   */\n          dup3\n            /* \"#utility.yul\":14054:14089   */\n          tag_235\n          jumpi\n            /* \"#utility.yul\":14069:14087   */\n          tag_236\n          tag_74\n          jump\t// in\n        tag_236:\n            /* \"#utility.yul\":14054:14089   */\n        tag_235:\n            /* \"#utility.yul\":14111:14112   */\n          dup3\n            /* \"#utility.yul\":14108:14109   */\n          dup3\n            /* \"#utility.yul\":14104:14113   */\n          div\n            /* \"#utility.yul\":14099:14113   */\n          swap1\n          pop\n            /* \"#utility.yul\":13934:14119   */\n          swap3\n          swap2\n          pop\n          pop\n          jump\t// out\n            /* \"Lottogemeinschaft.sol\":1659:6347  contract Lottogemeinschaft {... */\n        tag_19:\n          dataSize(sub_0)\n          dup1\n          dataOffset(sub_0)\n          0x00\n          codecopy\n          0x00\n          return\n        stop\n\n        sub_0: assembly {\n                /* \"Lottogemeinschaft.sol\":1659:6347  contract Lottogemeinschaft {... */\n              mstore(0x40, 0x80)\n              jumpi(tag_1, lt(calldatasize, 0x04))\n              shr(0xe0, calldataload(0x00))\n              dup1\n              0x43767832\n              gt\n              tag_21\n              jumpi\n              dup1\n              0xb08c7076\n              gt\n              tag_22\n              jumpi\n              dup1\n              0xb08c7076\n              eq\n              tag_16\n              jumpi\n              dup1\n              0xb609e684\n              eq\n              tag_17\n              jumpi\n              dup1\n              0xc6ca9d19\n              eq\n              tag_18\n              jumpi\n              dup1\n              0xd27d06c0\n              eq\n              tag_19\n              jumpi\n              dup1\n              0xe068561a\n              eq\n              tag_20\n              jumpi\n              jump(tag_1)\n            tag_22:\n              dup1\n              0x43767832\n              eq\n              tag_11\n              jumpi\n              dup1\n              0x526024ea\n              eq\n              tag_12\n              jumpi\n              dup1\n              0x70a41bc0\n              eq\n              tag_13\n              jumpi\n              dup1\n              0x91243239\n              eq\n              tag_14\n              jumpi\n              dup1\n              0xad2c046c\n              eq\n              tag_15\n              jumpi\n              jump(tag_1)\n            tag_21:\n              dup1\n              0x2df368a5\n              gt\n              tag_23\n              jumpi\n              dup1\n              0x2df368a5\n              eq\n              tag_6\n              jumpi\n              dup1\n              0x31c45120\n              eq\n              tag_7\n              jumpi\n              dup1\n              0x36927060\n              eq\n              tag_8\n              jumpi\n              dup1\n              0x3babb15a\n              eq\n              tag_9\n              jumpi\n              dup1\n              0x3f0f5d51\n              eq\n              tag_10\n              jumpi\n              jump(tag_1)\n            tag_23:\n              dup1\n              0x084263f5\n              eq\n              tag_2\n              jumpi\n              dup1\n              0x0c96b701\n              eq\n              tag_3\n              jumpi\n              dup1\n              0x0f085e50\n              eq\n              tag_4\n              jumpi\n              dup1\n              0x143b7caf\n              eq\n              tag_5\n              jumpi\n            tag_1:\n              0x00\n              dup1\n              revert\n                /* \"Lottogemeinschaft.sol\":1913:1937  uint48 public auszahlung */\n            tag_2:\n              callvalue\n              dup1\n              iszero\n              tag_24\n              jumpi\n              0x00\n              dup1\n              revert\n            tag_24:\n              pop\n              tag_25\n              tag_26\n              jump\t// in\n            tag_25:\n              mload(0x40)\n              tag_27\n              swap2\n              swap1\n              tag_28\n              jump\t// in\n            tag_27:\n              mload(0x40)\n              dup1\n              swap2\n              sub\n              swap1\n              return\n                /* \"Lottogemeinschaft.sol\":4934:5531  function gewinnAuszahlen() public restictedToMitspieler nonReentrant {... */\n            tag_3:\n              callvalue\n              dup1\n              iszero\n              tag_29\n              jumpi\n              0x00\n              dup1\n              revert\n            tag_29:\n              pop\n              tag_30\n              tag_31\n              jump\t// in\n            tag_30:\n              stop\n                /* \"Lottogemeinschaft.sol\":2088:2125  uint48 public gewinnProMitspieler = 0 */\n            tag_4:\n              callvalue\n              dup1\n              iszero\n              tag_32\n              jumpi\n              0x00\n              dup1\n              revert\n            tag_32:\n              pop\n              tag_33\n              tag_34\n              jump\t// in\n            tag_33:\n              mload(0x40)\n              tag_35\n              swap2\n              swap1\n              tag_28\n              jump\t// in\n            tag_35:\n              mload(0x40)\n              dup1\n              swap2\n              sub\n              swap1\n              return\n                /* \"Lottogemeinschaft.sol\":1876:1907  uint48 public lottoscheinNummer */\n            tag_5:\n              callvalue\n              dup1\n              iszero\n              tag_36\n              jumpi\n              0x00\n              dup1\n              revert\n            tag_36:\n              pop\n              tag_37\n              tag_38\n              jump\t// in\n            tag_37:\n              mload(0x40)\n              tag_39\n              swap2\n              swap1\n              tag_28\n              jump\t// in\n            tag_39:\n              mload(0x40)\n              dup1\n              swap2\n              sub\n              swap1\n              return\n                /* \"Lottogemeinschaft.sol\":1838:1870  uint32 public preisProMitspieler */\n            tag_6:\n              callvalue\n              dup1\n              iszero\n              tag_40\n              jumpi\n              0x00\n              dup1\n              revert\n            tag_40:\n              pop\n              tag_41\n              tag_42\n              jump\t// in\n            tag_41:\n              mload(0x40)\n              tag_43\n              swap2\n              swap1\n              tag_44\n              jump\t// in\n            tag_43:\n              mload(0x40)\n              dup1\n              swap2\n              sub\n              swap1\n              return\n                /* \"Lottogemeinschaft.sol\":5537:5773  function preisLottoscheinAendern(uint32 neuerPreis) public restictedToGruender{... */\n            tag_7:\n              callvalue\n              dup1\n              iszero\n              tag_45\n              jumpi\n              0x00\n              dup1\n              revert\n            tag_45:\n              pop\n              tag_46\n              0x04\n              dup1\n              calldatasize\n              sub\n              dup2\n              add\n              swap1\n              tag_47\n              swap2\n              swap1\n              tag_48\n              jump\t// in\n            tag_47:\n              tag_49\n              jump\t// in\n            tag_46:\n              stop\n                /* \"Lottogemeinschaft.sol\":1943:1985  mapping(address => bool) public mitspieler */\n            tag_8:\n              callvalue\n              dup1\n              iszero\n              tag_50\n              jumpi\n              0x00\n              dup1\n              revert\n            tag_50:\n              pop\n              tag_51\n              0x04\n              dup1\n              calldatasize\n              sub\n              dup2\n              add\n              swap1\n              tag_52\n              swap2\n              swap1\n              tag_53\n              jump\t// in\n            tag_52:\n              tag_54\n              jump\t// in\n            tag_51:\n              mload(0x40)\n              tag_55\n              swap2\n              swap1\n              tag_56\n              jump\t// in\n            tag_55:\n              mload(0x40)\n              dup1\n              swap2\n              sub\n              swap1\n              return\n                /* \"Lottogemeinschaft.sol\":2045:2082  uint16 public anzahlTeilnehmerAktuell */\n            tag_9:\n              callvalue\n              dup1\n              iszero\n              tag_57\n              jumpi\n              0x00\n              dup1\n              revert\n            tag_57:\n              pop\n              tag_58\n              tag_59\n              jump\t// in\n            tag_58:\n              mload(0x40)\n              tag_60\n              swap2\n              swap1\n              tag_61\n              jump\t// in\n            tag_60:\n              mload(0x40)\n              dup1\n              swap2\n              sub\n              swap1\n              return\n                /* \"Lottogemeinschaft.sol\":1802:1832  uint32 public preisLottoschein */\n            tag_10:\n              callvalue\n              dup1\n              iszero\n              tag_62\n              jumpi\n              0x00\n              dup1\n              revert\n            tag_62:\n              pop\n              tag_63\n              tag_64\n              jump\t// in\n            tag_63:\n              mload(0x40)\n              tag_65\n              swap2\n              swap1\n              tag_44\n              jump\t// in\n            tag_65:\n              mload(0x40)\n              dup1\n              swap2\n              sub\n              swap1\n              return\n                /* \"Lottogemeinschaft.sol\":6071:6344  function erlaubteMitspielerAdresseHinzufuegen(address erlaubterMitspieler) public restictedToGruender{... */\n            tag_11:\n              callvalue\n              dup1\n              iszero\n              tag_66\n              jumpi\n              0x00\n              dup1\n              revert\n            tag_66:\n              pop\n              tag_67\n              0x04\n              dup1\n              calldatasize\n              sub\n              dup2\n              add\n              swap1\n              tag_68\n              swap2\n              swap1\n              tag_53\n              jump\t// in\n            tag_68:\n              tag_69\n              jump\t// in\n            tag_67:\n              stop\n                /* \"Lottogemeinschaft.sol\":3271:4178  function mitmachen() public payable {... */\n            tag_12:\n              tag_70\n              tag_71\n              jump\t// in\n            tag_70:\n              stop\n                /* \"Lottogemeinschaft.sol\":1763:1796  uint16 public maxTeilnehmerAnzahl */\n            tag_13:\n              callvalue\n              dup1\n              iszero\n              tag_72\n              jumpi\n              0x00\n              dup1\n              revert\n            tag_72:\n              pop\n              tag_73\n              tag_74\n              jump\t// in\n            tag_73:\n              mload(0x40)\n              tag_75\n              swap2\n              swap1\n              tag_61\n              jump\t// in\n            tag_75:\n              mload(0x40)\n              dup1\n              swap2\n              sub\n              swap1\n              return\n                /* \"Lottogemeinschaft.sol\":1991:2039  mapping(address => bool) public gewinnAusgezahlt */\n            tag_14:\n              callvalue\n              dup1\n              iszero\n              tag_76\n              jumpi\n              0x00\n              dup1\n              revert\n            tag_76:\n              pop\n              tag_77\n              0x04\n              dup1\n              calldatasize\n              sub\n              dup2\n              add\n              swap1\n              tag_78\n              swap2\n              swap1\n              tag_53\n              jump\t// in\n            tag_78:\n              tag_79\n              jump\t// in\n            tag_77:\n              mload(0x40)\n              tag_80\n              swap2\n              swap1\n              tag_56\n              jump\t// in\n            tag_80:\n              mload(0x40)\n              dup1\n              swap2\n              sub\n              swap1\n              return\n                /* \"Lottogemeinschaft.sol\":1693:1716  address public gruender */\n            tag_15:\n              callvalue\n              dup1\n              iszero\n              tag_81\n              jumpi\n              0x00\n              dup1\n              revert\n            tag_81:\n              pop\n              tag_82\n              tag_83\n              jump\t// in\n            tag_82:\n              mload(0x40)\n              tag_84\n              swap2\n              swap1\n              tag_85\n              jump\t// in\n            tag_84:\n              mload(0x40)\n              dup1\n              swap2\n              sub\n              swap1\n              return\n                /* \"Lottogemeinschaft.sol\":2179:2218  bool public nurErlaubteMitspieler=false */\n            tag_16:\n              callvalue\n              dup1\n              iszero\n              tag_86\n              jumpi\n              0x00\n              dup1\n              revert\n            tag_86:\n              pop\n              tag_87\n              tag_88\n              jump\t// in\n            tag_87:\n              mload(0x40)\n              tag_89\n              swap2\n              swap1\n              tag_56\n              jump\t// in\n            tag_89:\n              mload(0x40)\n              dup1\n              swap2\n              sub\n              swap1\n              return\n                /* \"Lottogemeinschaft.sol\":2131:2173  bool public kannGewinnAbgeholtWerden=false */\n            tag_17:\n              callvalue\n              dup1\n              iszero\n              tag_90\n              jumpi\n              0x00\n              dup1\n              revert\n            tag_90:\n              pop\n              tag_91\n              tag_92\n              jump\t// in\n            tag_91:\n              mload(0x40)\n              tag_93\n              swap2\n              swap1\n              tag_56\n              jump\t// in\n            tag_93:\n              mload(0x40)\n              dup1\n              swap2\n              sub\n              swap1\n              return\n                /* \"Lottogemeinschaft.sol\":4226:4884  function gewinnEinzahlen(uint48 gewinn) public payable restictedToGruender {... */\n            tag_18:\n              tag_94\n              0x04\n              dup1\n              calldatasize\n              sub\n              dup2\n              add\n              swap1\n              tag_95\n              swap2\n              swap1\n              tag_96\n              jump\t// in\n            tag_95:\n              tag_97\n              jump\t// in\n            tag_94:\n              stop\n                /* \"Lottogemeinschaft.sol\":1722:1757  string public tippgemeinschaftsName */\n            tag_19:\n              callvalue\n              dup1\n              iszero\n              tag_98\n              jumpi\n              0x00\n              dup1\n              revert\n            tag_98:\n              pop\n              tag_99\n              tag_100\n              jump\t// in\n            tag_99:\n              mload(0x40)\n              tag_101\n              swap2\n              swap1\n              tag_102\n              jump\t// in\n            tag_101:\n              mload(0x40)\n              dup1\n              swap2\n              sub\n              swap1\n              return\n                /* \"Lottogemeinschaft.sol\":5779:6065  function anzahlMitspielerAendern(uint16 neueAnzahlMaxTeilnehmer) public restictedToGruender{... */\n            tag_20:\n              callvalue\n              dup1\n              iszero\n              tag_103\n              jumpi\n              0x00\n              dup1\n              revert\n            tag_103:\n              pop\n              tag_104\n              0x04\n              dup1\n              calldatasize\n              sub\n              dup2\n              add\n              swap1\n              tag_105\n              swap2\n              swap1\n              tag_106\n              jump\t// in\n            tag_105:\n              tag_107\n              jump\t// in\n            tag_104:\n              stop\n                /* \"Lottogemeinschaft.sol\":1913:1937  uint48 public auszahlung */\n            tag_26:\n              0x02\n              0x10\n              swap1\n              sload\n              swap1\n              0x0100\n              exp\n              swap1\n              div\n              0xffffffffffff\n              and\n              dup2\n              jump\t// out\n                /* \"Lottogemeinschaft.sol\":4934:5531  function gewinnAuszahlen() public restictedToMitspieler nonReentrant {... */\n            tag_31:\n                /* \"Lottogemeinschaft.sol\":3085:3095  mitspieler */\n              0x03\n                /* \"Lottogemeinschaft.sol\":3085:3107  mitspieler[msg.sender] */\n              0x00\n                /* \"Lottogemeinschaft.sol\":3096:3106  msg.sender */\n              caller\n                /* \"Lottogemeinschaft.sol\":3085:3107  mitspieler[msg.sender] */\n              0xffffffffffffffffffffffffffffffffffffffff\n              and\n              0xffffffffffffffffffffffffffffffffffffffff\n              and\n              dup2\n              mstore\n              0x20\n              add\n              swap1\n              dup2\n              mstore\n              0x20\n              add\n              0x00\n              keccak256\n              0x00\n              swap1\n              sload\n              swap1\n              0x0100\n              exp\n              swap1\n              div\n              0xff\n              and\n                /* \"Lottogemeinschaft.sol\":3077:3108  require(mitspieler[msg.sender]) */\n              tag_109\n              jumpi\n              0x00\n              dup1\n              revert\n            tag_109:\n                /* \"Lottogemeinschaft.sol\":3175:3181  locked */\n              0x07\n              0x00\n              swap1\n              sload\n              swap1\n              0x0100\n              exp\n              swap1\n              div\n              0xff\n              and\n                /* \"Lottogemeinschaft.sol\":3174:3181  !locked */\n              iszero\n                /* \"Lottogemeinschaft.sol\":3166:3200  require(!locked, \"No re-entrancy\") */\n              tag_111\n              jumpi\n              mload(0x40)\n              0x08c379a000000000000000000000000000000000000000000000000000000000\n              dup2\n              mstore\n              0x04\n              add\n              tag_112\n              swap1\n              tag_113\n              jump\t// in\n            tag_112:\n              mload(0x40)\n              dup1\n              swap2\n              sub\n              swap1\n              revert\n            tag_111:\n                /* \"Lottogemeinschaft.sol\":3219:3223  true */\n              0x01\n                /* \"Lottogemeinschaft.sol\":3210:3216  locked */\n              0x07\n              0x00\n                /* \"Lottogemeinschaft.sol\":3210:3223  locked = true */\n              0x0100\n              exp\n              dup2\n              sload\n              dup2\n              0xff\n              mul\n              not\n              and\n              swap1\n              dup4\n              iszero\n              iszero\n              mul\n              or\n              swap1\n              sstore\n              pop\n                /* \"Lottogemeinschaft.sol\":5061:5062  0 */\n              0x00\n                /* \"Lottogemeinschaft.sol\":5039:5058  gewinnProMitspieler */\n              0x05\n              0x02\n              swap1\n              sload\n              swap1\n              0x0100\n              exp\n              swap1\n              div\n              0xffffffffffff\n              and\n                /* \"Lottogemeinschaft.sol\":5039:5062  gewinnProMitspieler > 0 */\n              0xffffffffffff\n              and\n              gt\n                /* \"Lottogemeinschaft.sol\":5031:5089  require(gewinnProMitspieler > 0, \"Kein Gewinn eingezahlt\") */\n              tag_115\n              jumpi\n              mload(0x40)\n              0x08c379a000000000000000000000000000000000000000000000000000000000\n              dup2\n              mstore\n              0x04\n              add\n              tag_116\n              swap1\n              tag_117\n              jump\t// in\n            tag_116:\n              mload(0x40)\n              dup1\n              swap2\n              sub\n              swap1\n              revert\n            tag_115:\n                /* \"Lottogemeinschaft.sol\":5107:5117  mitspieler */\n              0x03\n                /* \"Lottogemeinschaft.sol\":5107:5129  mitspieler[msg.sender] */\n              0x00\n                /* \"Lottogemeinschaft.sol\":5118:5128  msg.sender */\n              caller\n                /* \"Lottogemeinschaft.sol\":5107:5129  mitspieler[msg.sender] */\n              0xffffffffffffffffffffffffffffffffffffffff\n              and\n              0xffffffffffffffffffffffffffffffffffffffff\n              and\n              dup2\n              mstore\n              0x20\n              add\n              swap1\n              dup2\n              mstore\n              0x20\n              add\n              0x00\n              keccak256\n              0x00\n              swap1\n              sload\n              swap1\n              0x0100\n              exp\n              swap1\n              div\n              0xff\n              and\n                /* \"Lottogemeinschaft.sol\":5099:5157  require(mitspieler[msg.sender], \"Du bist kein Mitspieler\") */\n              tag_118\n              jumpi\n              mload(0x40)\n              0x08c379a000000000000000000000000000000000000000000000000000000000\n              dup2\n              mstore\n              0x04\n              add\n              tag_119\n              swap1\n              tag_120\n              jump\t// in\n            tag_119:\n              mload(0x40)\n              dup1\n              swap2\n              sub\n              swap1\n              revert\n            tag_118:\n                /* \"Lottogemeinschaft.sol\":5176:5192  gewinnAusgezahlt */\n              0x04\n                /* \"Lottogemeinschaft.sol\":5176:5204  gewinnAusgezahlt[msg.sender] */\n              0x00\n                /* \"Lottogemeinschaft.sol\":5193:5203  msg.sender */\n              caller\n                /* \"Lottogemeinschaft.sol\":5176:5204  gewinnAusgezahlt[msg.sender] */\n              0xffffffffffffffffffffffffffffffffffffffff\n              and\n              0xffffffffffffffffffffffffffffffffffffffff\n              and\n              dup2\n              mstore\n              0x20\n              add\n              swap1\n              dup2\n              mstore\n              0x20\n              add\n              0x00\n              keccak256\n              0x00\n              swap1\n              sload\n              swap1\n              0x0100\n              exp\n              swap1\n              div\n              0xff\n              and\n                /* \"Lottogemeinschaft.sol\":5175:5204  !gewinnAusgezahlt[msg.sender] */\n              iszero\n                /* \"Lottogemeinschaft.sol\":5167:5245  require(!gewinnAusgezahlt[msg.sender], \"Dein Gewinn wurde bereits ausgezahlt\") */\n              tag_121\n              jumpi\n              mload(0x40)\n              0x08c379a000000000000000000000000000000000000000000000000000000000\n              dup2\n              mstore\n              0x04\n              add\n              tag_122\n              swap1\n              tag_123\n              jump\t// in\n            tag_122:\n              mload(0x40)\n              dup1\n              swap2\n              sub\n              swap1\n              revert\n            tag_121:\n                /* \"Lottogemeinschaft.sol\":5306:5310  true */\n              0x01\n                /* \"Lottogemeinschaft.sol\":5275:5291  gewinnAusgezahlt */\n              0x04\n                /* \"Lottogemeinschaft.sol\":5275:5303  gewinnAusgezahlt[msg.sender] */\n              0x00\n                /* \"Lottogemeinschaft.sol\":5292:5302  msg.sender */\n              caller\n                /* \"Lottogemeinschaft.sol\":5275:5303  gewinnAusgezahlt[msg.sender] */\n              0xffffffffffffffffffffffffffffffffffffffff\n              and\n              0xffffffffffffffffffffffffffffffffffffffff\n              and\n              dup2\n              mstore\n              0x20\n              add\n              swap1\n              dup2\n              mstore\n              0x20\n              add\n              0x00\n              keccak256\n              0x00\n                /* \"Lottogemeinschaft.sol\":5275:5310  gewinnAusgezahlt[msg.sender] = true */\n              0x0100\n              exp\n              dup2\n              sload\n              dup2\n              0xff\n              mul\n              not\n              and\n              swap1\n              dup4\n              iszero\n              iszero\n              mul\n              or\n              swap1\n              sstore\n              pop\n                /* \"Lottogemeinschaft.sol\":5345:5367  uint auszahlungsbetrag */\n              0x00\n                /* \"Lottogemeinschaft.sol\":5370:5389  gewinnProMitspieler */\n              0x05\n              0x02\n              swap1\n              sload\n              swap1\n              0x0100\n              exp\n              swap1\n              div\n              0xffffffffffff\n              and\n                /* \"Lottogemeinschaft.sol\":5345:5389  uint auszahlungsbetrag = gewinnProMitspieler */\n              0xffffffffffff\n              and\n              swap1\n              pop\n                /* \"Lottogemeinschaft.sol\":5400:5409  bool sent */\n              0x00\n                /* \"Lottogemeinschaft.sol\":5415:5425  msg.sender */\n              caller\n                /* \"Lottogemeinschaft.sol\":5415:5430  msg.sender.call */\n              0xffffffffffffffffffffffffffffffffffffffff\n              and\n                /* \"Lottogemeinschaft.sol\":5438:5455  auszahlungsbetrag */\n              dup3\n                /* \"Lottogemeinschaft.sol\":5415:5460  msg.sender.call{value: auszahlungsbetrag}(\"\") */\n              mload(0x40)\n              tag_124\n              swap1\n              tag_125\n              jump\t// in\n            tag_124:\n              0x00\n              mload(0x40)\n              dup1\n              dup4\n              sub\n              dup2\n              dup6\n              dup8\n              gas\n              call\n              swap3\n              pop\n              pop\n              pop\n              returndatasize\n              dup1\n              0x00\n              dup2\n              eq\n              tag_128\n              jumpi\n              mload(0x40)\n              swap2\n              pop\n              and(add(returndatasize, 0x3f), not(0x1f))\n              dup3\n              add\n              0x40\n              mstore\n              returndatasize\n              dup3\n              mstore\n              returndatasize\n              0x00\n              0x20\n              dup5\n              add\n              returndatacopy\n              jump(tag_127)\n            tag_128:\n              0x60\n              swap2\n              pop\n            tag_127:\n              pop\n                /* \"Lottogemeinschaft.sol\":5399:5460  (bool sent, ) = msg.sender.call{value: auszahlungsbetrag}(\"\") */\n              pop\n              swap1\n              pop\n                /* \"Lottogemeinschaft.sol\":5478:5482  sent */\n              dup1\n                /* \"Lottogemeinschaft.sol\":5470:5524  require(sent, \"Auszahlung des Gewinns fehlgeschlagen\") */\n              tag_129\n              jumpi\n              mload(0x40)\n              0x08c379a000000000000000000000000000000000000000000000000000000000\n              dup2\n              mstore\n              0x04\n              add\n              tag_130\n              swap1\n              tag_131\n              jump\t// in\n            tag_130:\n              mload(0x40)\n              dup1\n              swap2\n              sub\n              swap1\n              revert\n            tag_129:\n                /* \"Lottogemeinschaft.sol\":5003:5531  {... */\n              pop\n              pop\n                /* \"Lottogemeinschaft.sol\":3253:3258  false */\n              0x00\n                /* \"Lottogemeinschaft.sol\":3244:3250  locked */\n              0x07\n              0x00\n                /* \"Lottogemeinschaft.sol\":3244:3258  locked = false */\n              0x0100\n              exp\n              dup2\n              sload\n              dup2\n              0xff\n              mul\n              not\n              and\n              swap1\n              dup4\n              iszero\n              iszero\n              mul\n              or\n              swap1\n              sstore\n              pop\n                /* \"Lottogemeinschaft.sol\":4934:5531  function gewinnAuszahlen() public restictedToMitspieler nonReentrant {... */\n              jump\t// out\n                /* \"Lottogemeinschaft.sol\":2088:2125  uint48 public gewinnProMitspieler = 0 */\n            tag_34:\n              0x05\n              0x02\n              swap1\n              sload\n              swap1\n              0x0100\n              exp\n              swap1\n              div\n              0xffffffffffff\n              and\n              dup2\n              jump\t// out\n                /* \"Lottogemeinschaft.sol\":1876:1907  uint48 public lottoscheinNummer */\n            tag_38:\n              0x02\n              0x0a\n              swap1\n              sload\n              swap1\n              0x0100\n              exp\n              swap1\n              div\n              0xffffffffffff\n              and\n              dup2\n              jump\t// out\n                /* \"Lottogemeinschaft.sol\":1838:1870  uint32 public preisProMitspieler */\n            tag_42:\n              0x02\n              0x06\n              swap1\n              sload\n              swap1\n              0x0100\n              exp\n              swap1\n              div\n              0xffffffff\n              and\n              dup2\n              jump\t// out\n                /* \"Lottogemeinschaft.sol\":5537:5773  function preisLottoscheinAendern(uint32 neuerPreis) public restictedToGruender{... */\n            tag_49:\n                /* \"Lottogemeinschaft.sol\":3002:3010  gruender */\n              0x00\n              dup1\n              sload\n              swap1\n              0x0100\n              exp\n              swap1\n              div\n              0xffffffffffffffffffffffffffffffffffffffff\n              and\n                /* \"Lottogemeinschaft.sol\":2988:3010  msg.sender == gruender */\n              0xffffffffffffffffffffffffffffffffffffffff\n              and\n                /* \"Lottogemeinschaft.sol\":2988:2998  msg.sender */\n              caller\n                /* \"Lottogemeinschaft.sol\":2988:3010  msg.sender == gruender */\n              0xffffffffffffffffffffffffffffffffffffffff\n              and\n              eq\n                /* \"Lottogemeinschaft.sol\":2980:3011  require(msg.sender == gruender) */\n              tag_133\n              jumpi\n              0x00\n              dup1\n              revert\n            tag_133:\n                /* \"Lottogemeinschaft.sol\":5658:5659  0 */\n              0x00\n                /* \"Lottogemeinschaft.sol\":5633:5656  anzahlTeilnehmerAktuell */\n              0x05\n              0x00\n              swap1\n              sload\n              swap1\n              0x0100\n              exp\n              swap1\n              div\n              0xffff\n              and\n                /* \"Lottogemeinschaft.sol\":5633:5659  anzahlTeilnehmerAktuell==0 */\n              0xffff\n              and\n              eq\n                /* \"Lottogemeinschaft.sol\":5625:5727  require(anzahlTeilnehmerAktuell==0, \"Es gibt bereits Mitspieler. Preisaenderung nicht mehr moeglich.\") */\n              tag_135\n              jumpi\n              mload(0x40)\n              0x08c379a000000000000000000000000000000000000000000000000000000000\n              dup2\n              mstore\n              0x04\n              add\n              tag_136\n              swap1\n              tag_137\n              jump\t// in\n            tag_136:\n              mload(0x40)\n              dup1\n              swap2\n              sub\n              swap1\n              revert\n            tag_135:\n                /* \"Lottogemeinschaft.sol\":5756:5766  neuerPreis */\n              dup1\n                /* \"Lottogemeinschaft.sol\":5737:5753  preisLottoschein */\n              0x02\n              dup1\n                /* \"Lottogemeinschaft.sol\":5737:5766  preisLottoschein = neuerPreis */\n              0x0100\n              exp\n              dup2\n              sload\n              dup2\n              0xffffffff\n              mul\n              not\n              and\n              swap1\n              dup4\n              0xffffffff\n              and\n              mul\n              or\n              swap1\n              sstore\n              pop\n                /* \"Lottogemeinschaft.sol\":5537:5773  function preisLottoscheinAendern(uint32 neuerPreis) public restictedToGruender{... */\n              pop\n              jump\t// out\n                /* \"Lottogemeinschaft.sol\":1943:1985  mapping(address => bool) public mitspieler */\n            tag_54:\n              mstore(0x20, 0x03)\n              dup1\n              0x00\n              mstore\n              keccak256(0x00, 0x40)\n              0x00\n              swap2\n              pop\n              sload\n              swap1\n              0x0100\n              exp\n              swap1\n              div\n              0xff\n              and\n              dup2\n              jump\t// out\n                /* \"Lottogemeinschaft.sol\":2045:2082  uint16 public anzahlTeilnehmerAktuell */\n            tag_59:\n              0x05\n              0x00\n              swap1\n              sload\n              swap1\n              0x0100\n              exp\n              swap1\n              div\n              0xffff\n              and\n              dup2\n              jump\t// out\n                /* \"Lottogemeinschaft.sol\":1802:1832  uint32 public preisLottoschein */\n            tag_64:\n              0x02\n              dup1\n              sload\n              swap1\n              0x0100\n              exp\n              swap1\n              div\n              0xffffffff\n              and\n              dup2\n              jump\t// out\n                /* \"Lottogemeinschaft.sol\":6071:6344  function erlaubteMitspielerAdresseHinzufuegen(address erlaubterMitspieler) public restictedToGruender{... */\n            tag_69:\n                /* \"Lottogemeinschaft.sol\":3002:3010  gruender */\n              0x00\n              dup1\n              sload\n              swap1\n              0x0100\n              exp\n              swap1\n              div\n              0xffffffffffffffffffffffffffffffffffffffff\n              and\n                /* \"Lottogemeinschaft.sol\":2988:3010  msg.sender == gruender */\n              0xffffffffffffffffffffffffffffffffffffffff\n              and\n                /* \"Lottogemeinschaft.sol\":2988:2998  msg.sender */\n              caller\n                /* \"Lottogemeinschaft.sol\":2988:3010  msg.sender == gruender */\n              0xffffffffffffffffffffffffffffffffffffffff\n              and\n              eq\n                /* \"Lottogemeinschaft.sol\":2980:3011  require(msg.sender == gruender) */\n              tag_139\n              jumpi\n              0x00\n              dup1\n              revert\n            tag_139:\n                /* \"Lottogemeinschaft.sol\":6216:6217  0 */\n              0x00\n                /* \"Lottogemeinschaft.sol\":6191:6214  anzahlTeilnehmerAktuell */\n              0x05\n              0x00\n              swap1\n              sload\n              swap1\n              0x0100\n              exp\n              swap1\n              div\n              0xffff\n              and\n                /* \"Lottogemeinschaft.sol\":6191:6217  anzahlTeilnehmerAktuell==0 */\n              0xffff\n              and\n              eq\n                /* \"Lottogemeinschaft.sol\":6183:6280  require(anzahlTeilnehmerAktuell==0, \"Es gibt bereits Mitspieler. Aenderung nicht mehr moeglich.\") */\n              tag_141\n              jumpi\n              mload(0x40)\n              0x08c379a000000000000000000000000000000000000000000000000000000000\n              dup2\n              mstore\n              0x04\n              add\n              tag_142\n              swap1\n              tag_143\n              jump\t// in\n            tag_142:\n              mload(0x40)\n              dup1\n              swap2\n              sub\n              swap1\n              revert\n            tag_141:\n                /* \"Lottogemeinschaft.sol\":6333:6337  true */\n              0x01\n                /* \"Lottogemeinschaft.sol\":6291:6309  erlaubteMitspieler */\n              0x06\n                /* \"Lottogemeinschaft.sol\":6291:6330  erlaubteMitspieler[erlaubterMitspieler] */\n              0x00\n                /* \"Lottogemeinschaft.sol\":6310:6329  erlaubterMitspieler */\n              dup4\n                /* \"Lottogemeinschaft.sol\":6291:6330  erlaubteMitspieler[erlaubterMitspieler] */\n              0xffffffffffffffffffffffffffffffffffffffff\n              and\n              0xffffffffffffffffffffffffffffffffffffffff\n              and\n              dup2\n              mstore\n              0x20\n              add\n              swap1\n              dup2\n              mstore\n              0x20\n              add\n              0x00\n              keccak256\n              0x00\n                /* \"Lottogemeinschaft.sol\":6291:6337  erlaubteMitspieler[erlaubterMitspieler] = true */\n              0x0100\n              exp\n              dup2\n              sload\n              dup2\n              0xff\n              mul\n              not\n              and\n              swap1\n              dup4\n              iszero\n              iszero\n              mul\n              or\n              swap1\n              sstore\n              pop\n                /* \"Lottogemeinschaft.sol\":6071:6344  function erlaubteMitspielerAdresseHinzufuegen(address erlaubterMitspieler) public restictedToGruender{... */\n              pop\n              jump\t// out\n                /* \"Lottogemeinschaft.sol\":3271:4178  function mitmachen() public payable {... */\n            tag_71:\n                /* \"Lottogemeinschaft.sol\":3356:3375  maxTeilnehmerAnzahl */\n              0x02\n              0x00\n              swap1\n              sload\n              swap1\n              0x0100\n              exp\n              swap1\n              div\n              0xffff\n              and\n                /* \"Lottogemeinschaft.sol\":3337:3375  preisLottoschein / maxTeilnehmerAnzahl */\n              0xffff\n              and\n                /* \"Lottogemeinschaft.sol\":3337:3353  preisLottoschein */\n              0x02\n              dup1\n              sload\n              swap1\n              0x0100\n              exp\n              swap1\n              div\n              0xffffffff\n              and\n                /* \"Lottogemeinschaft.sol\":3337:3375  preisLottoschein / maxTeilnehmerAnzahl */\n              tag_145\n              swap2\n              swap1\n              tag_146\n              jump\t// in\n            tag_145:\n                /* \"Lottogemeinschaft.sol\":3317:3335  preisProMitspieler */\n              0x02\n              0x06\n                /* \"Lottogemeinschaft.sol\":3317:3375  preisProMitspieler= preisLottoschein / maxTeilnehmerAnzahl */\n              0x0100\n              exp\n              dup2\n              sload\n              dup2\n              0xffffffff\n              mul\n              not\n              and\n              swap1\n              dup4\n              0xffffffff\n              and\n              mul\n              or\n              swap1\n              sstore\n              pop\n                /* \"Lottogemeinschaft.sol\":3426:3427  0 */\n              0x00\n                /* \"Lottogemeinschaft.sol\":3407:3425  preisProMitspieler */\n              0x02\n              0x06\n              swap1\n              sload\n              swap1\n              0x0100\n              exp\n              swap1\n              div\n              0xffffffff\n              and\n                /* \"Lottogemeinschaft.sol\":3407:3427  preisProMitspieler>0 */\n              0xffffffff\n              and\n              gt\n                /* \"Lottogemeinschaft.sol\":3399:3457  require(preisProMitspieler>0, \"Kein Preis pro Mitspieler\") */\n              tag_147\n              jumpi\n              mload(0x40)\n              0x08c379a000000000000000000000000000000000000000000000000000000000\n              dup2\n              mstore\n              0x04\n              add\n              tag_148\n              swap1\n              tag_149\n              jump\t// in\n            tag_148:\n              mload(0x40)\n              dup1\n              swap2\n              sub\n              swap1\n              revert\n            tag_147:\n                /* \"Lottogemeinschaft.sol\":3488:3506  preisProMitspieler */\n              0x02\n              0x06\n              swap1\n              sload\n              swap1\n              0x0100\n              exp\n              swap1\n              div\n              0xffffffff\n              and\n                /* \"Lottogemeinschaft.sol\":3475:3506  msg.value >= preisProMitspieler */\n              0xffffffff\n              and\n                /* \"Lottogemeinschaft.sol\":3475:3484  msg.value */\n              callvalue\n                /* \"Lottogemeinschaft.sol\":3475:3506  msg.value >= preisProMitspieler */\n              lt\n              iszero\n                /* \"Lottogemeinschaft.sol\":3467:3540  require(msg.value >= preisProMitspieler, \"Zu geringer Einzahlungsbetrag\") */\n              tag_150\n              jumpi\n              mload(0x40)\n              0x08c379a000000000000000000000000000000000000000000000000000000000\n              dup2\n              mstore\n              0x04\n              add\n              tag_151\n              swap1\n              tag_152\n              jump\t// in\n            tag_151:\n              mload(0x40)\n              dup1\n              swap2\n              sub\n              swap1\n              revert\n            tag_150:\n                /* \"Lottogemeinschaft.sol\":3559:3569  mitspieler */\n              0x03\n                /* \"Lottogemeinschaft.sol\":3559:3581  mitspieler[msg.sender] */\n              0x00\n                /* \"Lottogemeinschaft.sol\":3570:3580  msg.sender */\n              caller\n                /* \"Lottogemeinschaft.sol\":3559:3581  mitspieler[msg.sender] */\n              0xffffffffffffffffffffffffffffffffffffffff\n              and\n              0xffffffffffffffffffffffffffffffffffffffff\n              and\n              dup2\n              mstore\n              0x20\n              add\n              swap1\n              dup2\n              mstore\n              0x20\n              add\n              0x00\n              keccak256\n              0x00\n              swap1\n              sload\n              swap1\n              0x0100\n              exp\n              swap1\n              div\n              0xff\n              and\n                /* \"Lottogemeinschaft.sol\":3558:3581  !mitspieler[msg.sender] */\n              iszero\n                /* \"Lottogemeinschaft.sol\":3550:3620  require(!mitspieler[msg.sender], \"Bereits als Mitspieler registriert\") */\n              tag_153\n              jumpi\n              mload(0x40)\n              0x08c379a000000000000000000000000000000000000000000000000000000000\n              dup2\n              mstore\n              0x04\n              add\n              tag_154\n              swap1\n              tag_155\n              jump\t// in\n            tag_154:\n              mload(0x40)\n              dup1\n              swap2\n              sub\n              swap1\n              revert\n            tag_153:\n                /* \"Lottogemeinschaft.sol\":3664:3683  maxTeilnehmerAnzahl */\n              0x02\n              0x00\n              swap1\n              sload\n              swap1\n              0x0100\n              exp\n              swap1\n              div\n              0xffff\n              and\n                /* \"Lottogemeinschaft.sol\":3638:3683  anzahlTeilnehmerAktuell < maxTeilnehmerAnzahl */\n              0xffff\n              and\n                /* \"Lottogemeinschaft.sol\":3638:3661  anzahlTeilnehmerAktuell */\n              0x05\n              0x00\n              swap1\n              sload\n              swap1\n              0x0100\n              exp\n              swap1\n              div\n              0xffff\n              and\n                /* \"Lottogemeinschaft.sol\":3638:3683  anzahlTeilnehmerAktuell < maxTeilnehmerAnzahl */\n              0xffff\n              and\n              lt\n                /* \"Lottogemeinschaft.sol\":3630:3720  require(anzahlTeilnehmerAktuell < maxTeilnehmerAnzahl, \"Maximale Teilnehmerzahl erreicht\") */\n              tag_156\n              jumpi\n              mload(0x40)\n              0x08c379a000000000000000000000000000000000000000000000000000000000\n              dup2\n              mstore\n              0x04\n              add\n              tag_157\n              swap1\n              tag_158\n              jump\t// in\n            tag_157:\n              mload(0x40)\n              dup1\n              swap2\n              sub\n              swap1\n              revert\n            tag_156:\n                /* \"Lottogemeinschaft.sol\":3759:3760  0 */\n              0x00\n                /* \"Lottogemeinschaft.sol\":3738:3757  gewinnProMitspieler */\n              0x05\n              0x02\n              swap1\n              sload\n              swap1\n              0x0100\n              exp\n              swap1\n              div\n              0xffffffffffff\n              and\n                /* \"Lottogemeinschaft.sol\":3738:3760  gewinnProMitspieler==0 */\n              0xffffffffffff\n              and\n              eq\n                /* \"Lottogemeinschaft.sol\":3730:3796  require(gewinnProMitspieler==0, \"Gewinn wurde bereits eingezahlt\") */\n              tag_159\n              jumpi\n              mload(0x40)\n              0x08c379a000000000000000000000000000000000000000000000000000000000\n              dup2\n              mstore\n              0x04\n              add\n              tag_160\n              swap1\n              tag_161\n              jump\t// in\n            tag_160:\n              mload(0x40)\n              dup1\n              swap2\n              sub\n              swap1\n              revert\n            tag_159:\n                /* \"Lottogemeinschaft.sol\":3810:3831  nurErlaubteMitspieler */\n              0x05\n              0x09\n              swap1\n              sload\n              swap1\n              0x0100\n              exp\n              swap1\n              div\n              0xff\n              and\n                /* \"Lottogemeinschaft.sol\":3806:3896  if (nurErlaubteMitspieler){... */\n              iszero\n              tag_162\n              jumpi\n                /* \"Lottogemeinschaft.sol\":3854:3872  erlaubteMitspieler */\n              0x06\n                /* \"Lottogemeinschaft.sol\":3854:3884  erlaubteMitspieler[msg.sender] */\n              0x00\n                /* \"Lottogemeinschaft.sol\":3873:3883  msg.sender */\n              caller\n                /* \"Lottogemeinschaft.sol\":3854:3884  erlaubteMitspieler[msg.sender] */\n              0xffffffffffffffffffffffffffffffffffffffff\n              and\n              0xffffffffffffffffffffffffffffffffffffffff\n              and\n              dup2\n              mstore\n              0x20\n              add\n              swap1\n              dup2\n              mstore\n              0x20\n              add\n              0x00\n              keccak256\n              0x00\n              swap1\n              sload\n              swap1\n              0x0100\n              exp\n              swap1\n              div\n              0xff\n              and\n                /* \"Lottogemeinschaft.sol\":3846:3885  require(erlaubteMitspieler[msg.sender]) */\n              tag_163\n              jumpi\n              0x00\n              dup1\n              revert\n            tag_163:\n                /* \"Lottogemeinschaft.sol\":3806:3896  if (nurErlaubteMitspieler){... */\n            tag_162:\n                /* \"Lottogemeinschaft.sol\":3927:3943  uint ueberschuss */\n              0x00\n                /* \"Lottogemeinschaft.sol\":3958:3976  preisProMitspieler */\n              0x02\n              0x06\n              swap1\n              sload\n              swap1\n              0x0100\n              exp\n              swap1\n              div\n              0xffffffff\n              and\n                /* \"Lottogemeinschaft.sol\":3946:3976  msg.value - preisProMitspieler */\n              0xffffffff\n              and\n                /* \"Lottogemeinschaft.sol\":3946:3955  msg.value */\n              callvalue\n                /* \"Lottogemeinschaft.sol\":3946:3976  msg.value - preisProMitspieler */\n              tag_164\n              swap2\n              swap1\n              tag_165\n              jump\t// in\n            tag_164:\n                /* \"Lottogemeinschaft.sol\":3927:3976  uint ueberschuss = msg.value - preisProMitspieler */\n              swap1\n              pop\n                /* \"Lottogemeinschaft.sol\":4011:4015  true */\n              0x01\n                /* \"Lottogemeinschaft.sol\":3986:3996  mitspieler */\n              0x03\n                /* \"Lottogemeinschaft.sol\":3986:4008  mitspieler[msg.sender] */\n              0x00\n                /* \"Lottogemeinschaft.sol\":3997:4007  msg.sender */\n              caller\n                /* \"Lottogemeinschaft.sol\":3986:4008  mitspieler[msg.sender] */\n              0xffffffffffffffffffffffffffffffffffffffff\n              and\n              0xffffffffffffffffffffffffffffffffffffffff\n              and\n              dup2\n              mstore\n              0x20\n              add\n              swap1\n              dup2\n              mstore\n              0x20\n              add\n              0x00\n              keccak256\n              0x00\n                /* \"Lottogemeinschaft.sol\":3986:4015  mitspieler[msg.sender] = true */\n              0x0100\n              exp\n              dup2\n              sload\n              dup2\n              0xff\n              mul\n              not\n              and\n              swap1\n              dup4\n              iszero\n              iszero\n              mul\n              or\n              swap1\n              sstore\n              pop\n                /* \"Lottogemeinschaft.sol\":4025:4048  anzahlTeilnehmerAktuell */\n              0x05\n              0x00\n                /* \"Lottogemeinschaft.sol\":4025:4050  anzahlTeilnehmerAktuell++ */\n              dup2\n              dup2\n              swap1\n              sload\n              swap1\n              0x0100\n              exp\n              swap1\n              div\n              0xffff\n              and\n              dup1\n              swap3\n              swap2\n              swap1\n              tag_166\n              swap1\n              tag_167\n              jump\t// in\n            tag_166:\n              swap2\n              swap1\n              0x0100\n              exp\n              dup2\n              sload\n              dup2\n              0xffff\n              mul\n              not\n              and\n              swap1\n              dup4\n              0xffff\n              and\n              mul\n              or\n              swap1\n              sstore\n              pop\n              pop\n                /* \"Lottogemeinschaft.sol\":4103:4104  0 */\n              0x00\n                /* \"Lottogemeinschaft.sol\":4089:4100  ueberschuss */\n              dup2\n                /* \"Lottogemeinschaft.sol\":4089:4104  ueberschuss > 0 */\n              gt\n                /* \"Lottogemeinschaft.sol\":4085:4172  if (ueberschuss > 0) {... */\n              iszero\n              tag_168\n              jumpi\n                /* \"Lottogemeinschaft.sol\":4128:4138  msg.sender */\n              caller\n                /* \"Lottogemeinschaft.sol\":4120:4148  payable(msg.sender).transfer */\n              0xffffffffffffffffffffffffffffffffffffffff\n              and\n                /* \"Lottogemeinschaft.sol\":4120:4161  payable(msg.sender).transfer(ueberschuss) */\n              0x08fc\n                /* \"Lottogemeinschaft.sol\":4149:4160  ueberschuss */\n              dup3\n                /* \"Lottogemeinschaft.sol\":4120:4161  payable(msg.sender).transfer(ueberschuss) */\n              swap1\n              dup2\n              iszero\n              mul\n              swap1\n              mload(0x40)\n              0x00\n              mload(0x40)\n              dup1\n              dup4\n              sub\n              dup2\n              dup6\n              dup9\n              dup9\n              call\n              swap4\n              pop\n              pop\n              pop\n              pop\n              iszero\n              dup1\n              iszero\n              tag_170\n              jumpi\n              returndatasize\n              0x00\n              dup1\n              returndatacopy\n              revert(0x00, returndatasize)\n            tag_170:\n              pop\n                /* \"Lottogemeinschaft.sol\":4085:4172  if (ueberschuss > 0) {... */\n            tag_168:\n                /* \"Lottogemeinschaft.sol\":3307:4178  {... */\n              pop\n                /* \"Lottogemeinschaft.sol\":3271:4178  function mitmachen() public payable {... */\n              jump\t// out\n                /* \"Lottogemeinschaft.sol\":1763:1796  uint16 public maxTeilnehmerAnzahl */\n            tag_74:\n              0x02\n              0x00\n              swap1\n              sload\n              swap1\n              0x0100\n              exp\n              swap1\n              div\n              0xffff\n              and\n              dup2\n              jump\t// out\n                /* \"Lottogemeinschaft.sol\":1991:2039  mapping(address => bool) public gewinnAusgezahlt */\n            tag_79:\n              mstore(0x20, 0x04)\n              dup1\n              0x00\n              mstore\n              keccak256(0x00, 0x40)\n              0x00\n              swap2\n              pop\n              sload\n              swap1\n              0x0100\n              exp\n              swap1\n              div\n              0xff\n              and\n              dup2\n              jump\t// out\n                /* \"Lottogemeinschaft.sol\":1693:1716  address public gruender */\n            tag_83:\n              0x00\n              dup1\n              sload\n              swap1\n              0x0100\n              exp\n              swap1\n              div\n              0xffffffffffffffffffffffffffffffffffffffff\n              and\n              dup2\n              jump\t// out\n                /* \"Lottogemeinschaft.sol\":2179:2218  bool public nurErlaubteMitspieler=false */\n            tag_88:\n              0x05\n              0x09\n              swap1\n              sload\n              swap1\n              0x0100\n              exp\n              swap1\n              div\n              0xff\n              and\n              dup2\n              jump\t// out\n                /* \"Lottogemeinschaft.sol\":2131:2173  bool public kannGewinnAbgeholtWerden=false */\n            tag_92:\n              0x05\n              0x08\n              swap1\n              sload\n              swap1\n              0x0100\n              exp\n              swap1\n              div\n              0xff\n              and\n              dup2\n              jump\t// out\n                /* \"Lottogemeinschaft.sol\":4226:4884  function gewinnEinzahlen(uint48 gewinn) public payable restictedToGruender {... */\n            tag_97:\n                /* \"Lottogemeinschaft.sol\":3002:3010  gruender */\n              0x00\n              dup1\n              sload\n              swap1\n              0x0100\n              exp\n              swap1\n              div\n              0xffffffffffffffffffffffffffffffffffffffff\n              and\n                /* \"Lottogemeinschaft.sol\":2988:3010  msg.sender == gruender */\n              0xffffffffffffffffffffffffffffffffffffffff\n              and\n                /* \"Lottogemeinschaft.sol\":2988:2998  msg.sender */\n              caller\n                /* \"Lottogemeinschaft.sol\":2988:3010  msg.sender == gruender */\n              0xffffffffffffffffffffffffffffffffffffffff\n              and\n              eq\n                /* \"Lottogemeinschaft.sol\":2980:3011  require(msg.sender == gruender) */\n              tag_172\n              jumpi\n              0x00\n              dup1\n              revert\n            tag_172:\n                /* \"Lottogemeinschaft.sol\":4417:4418  0 */\n              0x00\n                /* \"Lottogemeinschaft.sol\":4405:4414  msg.value */\n              callvalue\n                /* \"Lottogemeinschaft.sol\":4405:4418  msg.value > 0 */\n              gt\n                /* \"Lottogemeinschaft.sol\":4397:4465  require(msg.value > 0, \"Einzahlungsbetrag muss groesser als 0 sein\") */\n              tag_174\n              jumpi\n              mload(0x40)\n              0x08c379a000000000000000000000000000000000000000000000000000000000\n              dup2\n              mstore\n              0x04\n              add\n              tag_175\n              swap1\n              tag_176\n              jump\t// in\n            tag_175:\n              mload(0x40)\n              dup1\n              swap2\n              sub\n              swap1\n              revert\n            tag_174:\n                /* \"Lottogemeinschaft.sol\":4504:4505  0 */\n              0x00\n                /* \"Lottogemeinschaft.sol\":4483:4502  gewinnProMitspieler */\n              0x05\n              0x02\n              swap1\n              sload\n              swap1\n              0x0100\n              exp\n              swap1\n              div\n              0xffffffffffff\n              and\n                /* \"Lottogemeinschaft.sol\":4483:4505  gewinnProMitspieler==0 */\n              0xffffffffffff\n              and\n              eq\n                /* \"Lottogemeinschaft.sol\":4475:4542  require(gewinnProMitspieler==0, \"Gewinn wurde bereits eingezahlt.\") */\n              tag_177\n              jumpi\n              mload(0x40)\n              0x08c379a000000000000000000000000000000000000000000000000000000000\n              dup2\n              mstore\n              0x04\n              add\n              tag_178\n              swap1\n              tag_179\n              jump\t// in\n            tag_178:\n              mload(0x40)\n              dup1\n              swap2\n              sub\n              swap1\n              revert\n            tag_177:\n                /* \"Lottogemeinschaft.sol\":4812:4835  anzahlTeilnehmerAktuell */\n              0x05\n              0x00\n              swap1\n              sload\n              swap1\n              0x0100\n              exp\n              swap1\n              div\n              0xffff\n              and\n                /* \"Lottogemeinschaft.sol\":4803:4835  gewinn / anzahlTeilnehmerAktuell */\n              0xffff\n              and\n                /* \"Lottogemeinschaft.sol\":4803:4809  gewinn */\n              dup2\n                /* \"Lottogemeinschaft.sol\":4803:4835  gewinn / anzahlTeilnehmerAktuell */\n              tag_180\n              swap2\n              swap1\n              tag_181\n              jump\t// in\n            tag_180:\n                /* \"Lottogemeinschaft.sol\":4781:4800  gewinnProMitspieler */\n              0x05\n              0x02\n                /* \"Lottogemeinschaft.sol\":4781:4835  gewinnProMitspieler = gewinn / anzahlTeilnehmerAktuell */\n              0x0100\n              exp\n              dup2\n              sload\n              dup2\n              0xffffffffffff\n              mul\n              not\n              and\n              swap1\n              dup4\n              0xffffffffffff\n              and\n              mul\n              or\n              swap1\n              sstore\n              pop\n                /* \"Lottogemeinschaft.sol\":4872:4876  true */\n              0x01\n                /* \"Lottogemeinschaft.sol\":4845:4869  kannGewinnAbgeholtWerden */\n              0x05\n              0x08\n                /* \"Lottogemeinschaft.sol\":4845:4876  kannGewinnAbgeholtWerden = true */\n              0x0100\n              exp\n              dup2\n              sload\n              dup2\n              0xff\n              mul\n              not\n              and\n              swap1\n              dup4\n              iszero\n              iszero\n              mul\n              or\n              swap1\n              sstore\n              pop\n                /* \"Lottogemeinschaft.sol\":4226:4884  function gewinnEinzahlen(uint48 gewinn) public payable restictedToGruender {... */\n              pop\n              jump\t// out\n                /* \"Lottogemeinschaft.sol\":1722:1757  string public tippgemeinschaftsName */\n            tag_100:\n              0x01\n              dup1\n              sload\n              tag_182\n              swap1\n              tag_183\n              jump\t// in\n            tag_182:\n              dup1\n              0x1f\n              add\n              0x20\n              dup1\n              swap2\n              div\n              mul\n              0x20\n              add\n              mload(0x40)\n              swap1\n              dup2\n              add\n              0x40\n              mstore\n              dup1\n              swap3\n              swap2\n              swap1\n              dup2\n              dup2\n              mstore\n              0x20\n              add\n              dup3\n              dup1\n              sload\n              tag_184\n              swap1\n              tag_183\n              jump\t// in\n            tag_184:\n              dup1\n              iszero\n              tag_185\n              jumpi\n              dup1\n              0x1f\n              lt\n              tag_186\n              jumpi\n              0x0100\n              dup1\n              dup4\n              sload\n              div\n              mul\n              dup4\n              mstore\n              swap2\n              0x20\n              add\n              swap2\n              jump(tag_185)\n            tag_186:\n              dup3\n              add\n              swap2\n              swap1\n              0x00\n              mstore\n              keccak256(0x00, 0x20)\n              swap1\n            tag_187:\n              dup2\n              sload\n              dup2\n              mstore\n              swap1\n              0x01\n              add\n              swap1\n              0x20\n              add\n              dup1\n              dup4\n              gt\n              tag_187\n              jumpi\n              dup3\n              swap1\n              sub\n              0x1f\n              and\n              dup3\n              add\n              swap2\n            tag_185:\n              pop\n              pop\n              pop\n              pop\n              pop\n              dup2\n              jump\t// out\n                /* \"Lottogemeinschaft.sol\":5779:6065  function anzahlMitspielerAendern(uint16 neueAnzahlMaxTeilnehmer) public restictedToGruender{... */\n            tag_107:\n                /* \"Lottogemeinschaft.sol\":3002:3010  gruender */\n              0x00\n              dup1\n              sload\n              swap1\n              0x0100\n              exp\n              swap1\n              div\n              0xffffffffffffffffffffffffffffffffffffffff\n              and\n                /* \"Lottogemeinschaft.sol\":2988:3010  msg.sender == gruender */\n              0xffffffffffffffffffffffffffffffffffffffff\n              and\n                /* \"Lottogemeinschaft.sol\":2988:2998  msg.sender */\n              caller\n                /* \"Lottogemeinschaft.sol\":2988:3010  msg.sender == gruender */\n              0xffffffffffffffffffffffffffffffffffffffff\n              and\n              eq\n                /* \"Lottogemeinschaft.sol\":2980:3011  require(msg.sender == gruender) */\n              tag_189\n              jumpi\n              0x00\n              dup1\n              revert\n            tag_189:\n                /* \"Lottogemeinschaft.sol\":5913:5914  0 */\n              0x00\n                /* \"Lottogemeinschaft.sol\":5888:5911  anzahlTeilnehmerAktuell */\n              0x05\n              0x00\n              swap1\n              sload\n              swap1\n              0x0100\n              exp\n              swap1\n              div\n              0xffff\n              and\n                /* \"Lottogemeinschaft.sol\":5888:5914  anzahlTeilnehmerAktuell==0 */\n              0xffff\n              and\n              eq\n                /* \"Lottogemeinschaft.sol\":5880:6003  require(anzahlTeilnehmerAktuell==0, \"Es gibt bereits Mitspieler. Aenderung der Anzahl an Mitspielern nicht mehr moeglich.\") */\n              tag_191\n              jumpi\n              mload(0x40)\n              0x08c379a000000000000000000000000000000000000000000000000000000000\n              dup2\n              mstore\n              0x04\n              add\n              tag_192\n              swap1\n              tag_193\n              jump\t// in\n            tag_192:\n              mload(0x40)\n              dup1\n              swap2\n              sub\n              swap1\n              revert\n            tag_191:\n                /* \"Lottogemeinschaft.sol\":6035:6058  neueAnzahlMaxTeilnehmer */\n              dup1\n                /* \"Lottogemeinschaft.sol\":6013:6032  maxTeilnehmerAnzahl */\n              0x02\n              0x00\n                /* \"Lottogemeinschaft.sol\":6013:6058  maxTeilnehmerAnzahl = neueAnzahlMaxTeilnehmer */\n              0x0100\n              exp\n              dup2\n              sload\n              dup2\n              0xffff\n              mul\n              not\n              and\n              swap1\n              dup4\n              0xffff\n              and\n              mul\n              or\n              swap1\n              sstore\n              pop\n                /* \"Lottogemeinschaft.sol\":5779:6065  function anzahlMitspielerAendern(uint16 neueAnzahlMaxTeilnehmer) public restictedToGruender{... */\n              pop\n              jump\t// out\n                /* \"#utility.yul\":7:104   */\n            tag_194:\n                /* \"#utility.yul\":43:50   */\n              0x00\n                /* \"#utility.yul\":83:97   */\n              0xffffffffffff\n                /* \"#utility.yul\":76:81   */\n              dup3\n                /* \"#utility.yul\":72:98   */\n              and\n                /* \"#utility.yul\":61:98   */\n              swap1\n              pop\n                /* \"#utility.yul\":7:104   */\n              swap2\n              swap1\n              pop\n              jump\t// out\n                /* \"#utility.yul\":110:225   */\n            tag_195:\n                /* \"#utility.yul\":195:218   */\n              tag_261\n                /* \"#utility.yul\":212:217   */\n              dup2\n                /* \"#utility.yul\":195:218   */\n              tag_194\n              jump\t// in\n            tag_261:\n                /* \"#utility.yul\":190:193   */\n              dup3\n                /* \"#utility.yul\":183:219   */\n              mstore\n                /* \"#utility.yul\":110:225   */\n              pop\n              pop\n              jump\t// out\n                /* \"#utility.yul\":231:449   */\n            tag_28:\n                /* \"#utility.yul\":322:326   */\n              0x00\n                /* \"#utility.yul\":360:362   */\n              0x20\n                /* \"#utility.yul\":349:358   */\n              dup3\n                /* \"#utility.yul\":345:363   */\n              add\n                /* \"#utility.yul\":337:363   */\n              swap1\n              pop\n                /* \"#utility.yul\":373:442   */\n              tag_263\n                /* \"#utility.yul\":439:440   */\n              0x00\n                /* \"#utility.yul\":428:437   */\n              dup4\n                /* \"#utility.yul\":424:441   */\n              add\n                /* \"#utility.yul\":415:421   */\n              dup5\n                /* \"#utility.yul\":373:442   */\n              tag_195\n              jump\t// in\n            tag_263:\n                /* \"#utility.yul\":231:449   */\n              swap3\n              swap2\n              pop\n              pop\n              jump\t// out\n                /* \"#utility.yul\":455:548   */\n            tag_196:\n                /* \"#utility.yul\":491:498   */\n              0x00\n                /* \"#utility.yul\":531:541   */\n              0xffffffff\n                /* \"#utility.yul\":524:529   */\n              dup3\n                /* \"#utility.yul\":520:542   */\n              and\n                /* \"#utility.yul\":509:542   */\n              swap1\n              pop\n                /* \"#utility.yul\":455:548   */\n              swap2\n              swap1\n              pop\n              jump\t// out\n                /* \"#utility.yul\":554:669   */\n            tag_197:\n                /* \"#utility.yul\":639:662   */\n              tag_266\n                /* \"#utility.yul\":656:661   */\n              dup2\n                /* \"#utility.yul\":639:662   */\n              tag_196\n              jump\t// in\n            tag_266:\n                /* \"#utility.yul\":634:637   */\n              dup3\n                /* \"#utility.yul\":627:663   */\n              mstore\n                /* \"#utility.yul\":554:669   */\n              pop\n              pop\n              jump\t// out\n                /* \"#utility.yul\":675:893   */\n            tag_44:\n                /* \"#utility.yul\":766:770   */\n              0x00\n                /* \"#utility.yul\":804:806   */\n              0x20\n                /* \"#utility.yul\":793:802   */\n              dup3\n                /* \"#utility.yul\":789:807   */\n              add\n                /* \"#utility.yul\":781:807   */\n              swap1\n              pop\n                /* \"#utility.yul\":817:886   */\n              tag_268\n                /* \"#utility.yul\":883:884   */\n              0x00\n                /* \"#utility.yul\":872:881   */\n              dup4\n                /* \"#utility.yul\":868:885   */\n              add\n                /* \"#utility.yul\":859:865   */\n              dup5\n                /* \"#utility.yul\":817:886   */\n              tag_197\n              jump\t// in\n            tag_268:\n                /* \"#utility.yul\":675:893   */\n              swap3\n              swap2\n              pop\n              pop\n              jump\t// out\n                /* \"#utility.yul\":980:1097   */\n            tag_199:\n                /* \"#utility.yul\":1089:1090   */\n              0x00\n                /* \"#utility.yul\":1086:1087   */\n              dup1\n                /* \"#utility.yul\":1079:1091   */\n              revert\n                /* \"#utility.yul\":1226:1346   */\n            tag_201:\n                /* \"#utility.yul\":1298:1321   */\n              tag_273\n                /* \"#utility.yul\":1315:1320   */\n              dup2\n                /* \"#utility.yul\":1298:1321   */\n              tag_196\n              jump\t// in\n            tag_273:\n                /* \"#utility.yul\":1291:1296   */\n              dup2\n                /* \"#utility.yul\":1288:1322   */\n              eq\n                /* \"#utility.yul\":1278:1340   */\n              tag_274\n              jumpi\n                /* \"#utility.yul\":1336:1337   */\n              0x00\n                /* \"#utility.yul\":1333:1334   */\n              dup1\n                /* \"#utility.yul\":1326:1338   */\n              revert\n                /* \"#utility.yul\":1278:1340   */\n            tag_274:\n                /* \"#utility.yul\":1226:1346   */\n              pop\n              jump\t// out\n                /* \"#utility.yul\":1352:1489   */\n            tag_202:\n                /* \"#utility.yul\":1397:1402   */\n              0x00\n                /* \"#utility.yul\":1435:1441   */\n              dup2\n                /* \"#utility.yul\":1422:1442   */\n              calldataload\n                /* \"#utility.yul\":1413:1442   */\n              swap1\n              pop\n                /* \"#utility.yul\":1451:1483   */\n              tag_276\n                /* \"#utility.yul\":1477:1482   */\n              dup2\n                /* \"#utility.yul\":1451:1483   */\n              tag_201\n              jump\t// in\n            tag_276:\n                /* \"#utility.yul\":1352:1489   */\n              swap3\n              swap2\n              pop\n              pop\n              jump\t// out\n                /* \"#utility.yul\":1495:1822   */\n            tag_48:\n                /* \"#utility.yul\":1553:1559   */\n              0x00\n                /* \"#utility.yul\":1602:1604   */\n              0x20\n                /* \"#utility.yul\":1590:1599   */\n              dup3\n                /* \"#utility.yul\":1581:1588   */\n              dup5\n                /* \"#utility.yul\":1577:1600   */\n              sub\n                /* \"#utility.yul\":1573:1605   */\n              slt\n                /* \"#utility.yul\":1570:1689   */\n              iszero\n              tag_278\n              jumpi\n                /* \"#utility.yul\":1608:1687   */\n              tag_279\n              tag_199\n              jump\t// in\n            tag_279:\n                /* \"#utility.yul\":1570:1689   */\n            tag_278:\n                /* \"#utility.yul\":1728:1729   */\n              0x00\n                /* \"#utility.yul\":1753:1805   */\n              tag_280\n                /* \"#utility.yul\":1797:1804   */\n              dup5\n                /* \"#utility.yul\":1788:1794   */\n              dup3\n                /* \"#utility.yul\":1777:1786   */\n              dup6\n                /* \"#utility.yul\":1773:1795   */\n              add\n                /* \"#utility.yul\":1753:1805   */\n              tag_202\n              jump\t// in\n            tag_280:\n                /* \"#utility.yul\":1743:1805   */\n              swap2\n              pop\n                /* \"#utility.yul\":1699:1815   */\n              pop\n                /* \"#utility.yul\":1495:1822   */\n              swap3\n              swap2\n              pop\n              pop\n              jump\t// out\n                /* \"#utility.yul\":1828:1954   */\n            tag_203:\n                /* \"#utility.yul\":1865:1872   */\n              0x00\n                /* \"#utility.yul\":1905:1947   */\n              0xffffffffffffffffffffffffffffffffffffffff\n                /* \"#utility.yul\":1898:1903   */\n              dup3\n                /* \"#utility.yul\":1894:1948   */\n              and\n                /* \"#utility.yul\":1883:1948   */\n              swap1\n              pop\n                /* \"#utility.yul\":1828:1954   */\n              swap2\n              swap1\n              pop\n              jump\t// out\n                /* \"#utility.yul\":1960:2056   */\n            tag_204:\n                /* \"#utility.yul\":1997:2004   */\n              0x00\n                /* \"#utility.yul\":2026:2050   */\n              tag_283\n                /* \"#utility.yul\":2044:2049   */\n              dup3\n                /* \"#utility.yul\":2026:2050   */\n              tag_203\n              jump\t// in\n            tag_283:\n                /* \"#utility.yul\":2015:2050   */\n              swap1\n              pop\n                /* \"#utility.yul\":1960:2056   */\n              swap2\n              swap1\n              pop\n              jump\t// out\n                /* \"#utility.yul\":2062:2184   */\n            tag_205:\n                /* \"#utility.yul\":2135:2159   */\n              tag_285\n                /* \"#utility.yul\":2153:2158   */\n              dup2\n                /* \"#utility.yul\":2135:2159   */\n              tag_204\n              jump\t// in\n            tag_285:\n                /* \"#utility.yul\":2128:2133   */\n              dup2\n                /* \"#utility.yul\":2125:2160   */\n              eq\n                /* \"#utility.yul\":2115:2178   */\n              tag_286\n              jumpi\n                /* \"#utility.yul\":2174:2175   */\n              0x00\n                /* \"#utility.yul\":2171:2172   */\n              dup1\n                /* \"#utility.yul\":2164:2176   */\n              revert\n                /* \"#utility.yul\":2115:2178   */\n            tag_286:\n                /* \"#utility.yul\":2062:2184   */\n              pop\n              jump\t// out\n                /* \"#utility.yul\":2190:2329   */\n            tag_206:\n                /* \"#utility.yul\":2236:2241   */\n              0x00\n                /* \"#utility.yul\":2274:2280   */\n              dup2\n                /* \"#utility.yul\":2261:2281   */\n              calldataload\n                /* \"#utility.yul\":2252:2281   */\n              swap1\n              pop\n                /* \"#utility.yul\":2290:2323   */\n              tag_288\n                /* \"#utility.yul\":2317:2322   */\n              dup2\n                /* \"#utility.yul\":2290:2323   */\n              tag_205\n              jump\t// in\n            tag_288:\n                /* \"#utility.yul\":2190:2329   */\n              swap3\n              swap2\n              pop\n              pop\n              jump\t// out\n                /* \"#utility.yul\":2335:2664   */\n            tag_53:\n                /* \"#utility.yul\":2394:2400   */\n              0x00\n                /* \"#utility.yul\":2443:2445   */\n              0x20\n                /* \"#utility.yul\":2431:2440   */\n              dup3\n                /* \"#utility.yul\":2422:2429   */\n              dup5\n                /* \"#utility.yul\":2418:2441   */\n              sub\n                /* \"#utility.yul\":2414:2446   */\n              slt\n                /* \"#utility.yul\":2411:2530   */\n              iszero\n              tag_290\n              jumpi\n                /* \"#utility.yul\":2449:2528   */\n              tag_291\n              tag_199\n              jump\t// in\n            tag_291:\n                /* \"#utility.yul\":2411:2530   */\n            tag_290:\n                /* \"#utility.yul\":2569:2570   */\n              0x00\n                /* \"#utility.yul\":2594:2647   */\n              tag_292\n                /* \"#utility.yul\":2639:2646   */\n              dup5\n                /* \"#utility.yul\":2630:2636   */\n              dup3\n                /* \"#utility.yul\":2619:2628   */\n              dup6\n                /* \"#utility.yul\":2615:2637   */\n              add\n                /* \"#utility.yul\":2594:2647   */\n              tag_206\n              jump\t// in\n            tag_292:\n                /* \"#utility.yul\":2584:2647   */\n              swap2\n              pop\n                /* \"#utility.yul\":2540:2657   */\n              pop\n                /* \"#utility.yul\":2335:2664   */\n              swap3\n              swap2\n              pop\n              pop\n              jump\t// out\n                /* \"#utility.yul\":2670:2760   */\n            tag_207:\n                /* \"#utility.yul\":2704:2711   */\n              0x00\n                /* \"#utility.yul\":2747:2752   */\n              dup2\n                /* \"#utility.yul\":2740:2753   */\n              iszero\n                /* \"#utility.yul\":2733:2754   */\n              iszero\n                /* \"#utility.yul\":2722:2754   */\n              swap1\n              pop\n                /* \"#utility.yul\":2670:2760   */\n              swap2\n              swap1\n              pop\n              jump\t// out\n                /* \"#utility.yul\":2766:2875   */\n            tag_208:\n                /* \"#utility.yul\":2847:2868   */\n              tag_295\n                /* \"#utility.yul\":2862:2867   */\n              dup2\n                /* \"#utility.yul\":2847:2868   */\n              tag_207\n              jump\t// in\n            tag_295:\n                /* \"#utility.yul\":2842:2845   */\n              dup3\n                /* \"#utility.yul\":2835:2869   */\n              mstore\n                /* \"#utility.yul\":2766:2875   */\n              pop\n              pop\n              jump\t// out\n                /* \"#utility.yul\":2881:3091   */\n            tag_56:\n                /* \"#utility.yul\":2968:2972   */\n              0x00\n                /* \"#utility.yul\":3006:3008   */\n              0x20\n                /* \"#utility.yul\":2995:3004   */\n              dup3\n                /* \"#utility.yul\":2991:3009   */\n              add\n                /* \"#utility.yul\":2983:3009   */\n              swap1\n              pop\n                /* \"#utility.yul\":3019:3084   */\n              tag_297\n                /* \"#utility.yul\":3081:3082   */\n              0x00\n                /* \"#utility.yul\":3070:3079   */\n              dup4\n                /* \"#utility.yul\":3066:3083   */\n              add\n                /* \"#utility.yul\":3057:3063   */\n              dup5\n                /* \"#utility.yul\":3019:3084   */\n              tag_208\n              jump\t// in\n            tag_297:\n                /* \"#utility.yul\":2881:3091   */\n              swap3\n              swap2\n              pop\n              pop\n              jump\t// out\n                /* \"#utility.yul\":3097:3186   */\n            tag_209:\n                /* \"#utility.yul\":3133:3140   */\n              0x00\n                /* \"#utility.yul\":3173:3179   */\n              0xffff\n                /* \"#utility.yul\":3166:3171   */\n              dup3\n                /* \"#utility.yul\":3162:3180   */\n              and\n                /* \"#utility.yul\":3151:3180   */\n              swap1\n              pop\n                /* \"#utility.yul\":3097:3186   */\n              swap2\n              swap1\n              pop\n              jump\t// out\n                /* \"#utility.yul\":3192:3307   */\n            tag_210:\n                /* \"#utility.yul\":3277:3300   */\n              tag_300\n                /* \"#utility.yul\":3294:3299   */\n              dup2\n                /* \"#utility.yul\":3277:3300   */\n              tag_209\n              jump\t// in\n            tag_300:\n                /* \"#utility.yul\":3272:3275   */\n              dup3\n                /* \"#utility.yul\":3265:3301   */\n              mstore\n                /* \"#utility.yul\":3192:3307   */\n              pop\n              pop\n              jump\t// out\n                /* \"#utility.yul\":3313:3531   */\n            tag_61:\n                /* \"#utility.yul\":3404:3408   */\n              0x00\n                /* \"#utility.yul\":3442:3444   */\n              0x20\n                /* \"#utility.yul\":3431:3440   */\n              dup3\n                /* \"#utility.yul\":3427:3445   */\n              add\n                /* \"#utility.yul\":3419:3445   */\n              swap1\n              pop\n                /* \"#utility.yul\":3455:3524   */\n              tag_302\n                /* \"#utility.yul\":3521:3522   */\n              0x00\n                /* \"#utility.yul\":3510:3519   */\n              dup4\n                /* \"#utility.yul\":3506:3523   */\n              add\n                /* \"#utility.yul\":3497:3503   */\n              dup5\n                /* \"#utility.yul\":3455:3524   */\n              tag_210\n              jump\t// in\n            tag_302:\n                /* \"#utility.yul\":3313:3531   */\n              swap3\n              swap2\n              pop\n              pop\n              jump\t// out\n                /* \"#utility.yul\":3537:3655   */\n            tag_211:\n                /* \"#utility.yul\":3624:3648   */\n              tag_304\n                /* \"#utility.yul\":3642:3647   */\n              dup2\n                /* \"#utility.yul\":3624:3648   */\n              tag_204\n              jump\t// in\n            tag_304:\n                /* \"#utility.yul\":3619:3622   */\n              dup3\n                /* \"#utility.yul\":3612:3649   */\n              mstore\n                /* \"#utility.yul\":3537:3655   */\n              pop\n              pop\n              jump\t// out\n                /* \"#utility.yul\":3661:3883   */\n            tag_85:\n                /* \"#utility.yul\":3754:3758   */\n              0x00\n                /* \"#utility.yul\":3792:3794   */\n              0x20\n                /* \"#utility.yul\":3781:3790   */\n              dup3\n                /* \"#utility.yul\":3777:3795   */\n              add\n                /* \"#utility.yul\":3769:3795   */\n              swap1\n              pop\n                /* \"#utility.yul\":3805:3876   */\n              tag_306\n                /* \"#utility.yul\":3873:3874   */\n              0x00\n                /* \"#utility.yul\":3862:3871   */\n              dup4\n                /* \"#utility.yul\":3858:3875   */\n              add\n                /* \"#utility.yul\":3849:3855   */\n              dup5\n                /* \"#utility.yul\":3805:3876   */\n              tag_211\n              jump\t// in\n            tag_306:\n                /* \"#utility.yul\":3661:3883   */\n              swap3\n              swap2\n              pop\n              pop\n              jump\t// out\n                /* \"#utility.yul\":3889:4009   */\n            tag_212:\n                /* \"#utility.yul\":3961:3984   */\n              tag_308\n                /* \"#utility.yul\":3978:3983   */\n              dup2\n                /* \"#utility.yul\":3961:3984   */\n              tag_194\n              jump\t// in\n            tag_308:\n                /* \"#utility.yul\":3954:3959   */\n              dup2\n                /* \"#utility.yul\":3951:3985   */\n              eq\n                /* \"#utility.yul\":3941:4003   */\n              tag_309\n              jumpi\n                /* \"#utility.yul\":3999:4000   */\n              0x00\n                /* \"#utility.yul\":3996:3997   */\n              dup1\n                /* \"#utility.yul\":3989:4001   */\n              revert\n                /* \"#utility.yul\":3941:4003   */\n            tag_309:\n                /* \"#utility.yul\":3889:4009   */\n              pop\n              jump\t// out\n                /* \"#utility.yul\":4015:4152   */\n            tag_213:\n                /* \"#utility.yul\":4060:4065   */\n              0x00\n                /* \"#utility.yul\":4098:4104   */\n              dup2\n                /* \"#utility.yul\":4085:4105   */\n              calldataload\n                /* \"#utility.yul\":4076:4105   */\n              swap1\n              pop\n                /* \"#utility.yul\":4114:4146   */\n              tag_311\n                /* \"#utility.yul\":4140:4145   */\n              dup2\n                /* \"#utility.yul\":4114:4146   */\n              tag_212\n              jump\t// in\n            tag_311:\n                /* \"#utility.yul\":4015:4152   */\n              swap3\n              swap2\n              pop\n              pop\n              jump\t// out\n                /* \"#utility.yul\":4158:4485   */\n            tag_96:\n                /* \"#utility.yul\":4216:4222   */\n              0x00\n                /* \"#utility.yul\":4265:4267   */\n              0x20\n                /* \"#utility.yul\":4253:4262   */\n              dup3\n                /* \"#utility.yul\":4244:4251   */\n              dup5\n                /* \"#utility.yul\":4240:4263   */\n              sub\n                /* \"#utility.yul\":4236:4268   */\n              slt\n                /* \"#utility.yul\":4233:4352   */\n              iszero\n              tag_313\n              jumpi\n                /* \"#utility.yul\":4271:4350   */\n              tag_314\n              tag_199\n              jump\t// in\n            tag_314:\n                /* \"#utility.yul\":4233:4352   */\n            tag_313:\n                /* \"#utility.yul\":4391:4392   */\n              0x00\n                /* \"#utility.yul\":4416:4468   */\n              tag_315\n                /* \"#utility.yul\":4460:4467   */\n              dup5\n                /* \"#utility.yul\":4451:4457   */\n              dup3\n                /* \"#utility.yul\":4440:4449   */\n              dup6\n                /* \"#utility.yul\":4436:4458   */\n              add\n                /* \"#utility.yul\":4416:4468   */\n              tag_213\n              jump\t// in\n            tag_315:\n                /* \"#utility.yul\":4406:4468   */\n              swap2\n              pop\n                /* \"#utility.yul\":4362:4478   */\n              pop\n                /* \"#utility.yul\":4158:4485   */\n              swap3\n              swap2\n              pop\n              pop\n              jump\t// out\n                /* \"#utility.yul\":4491:4590   */\n            tag_214:\n                /* \"#utility.yul\":4543:4549   */\n              0x00\n                /* \"#utility.yul\":4577:4582   */\n              dup2\n                /* \"#utility.yul\":4571:4583   */\n              mload\n                /* \"#utility.yul\":4561:4583   */\n              swap1\n              pop\n                /* \"#utility.yul\":4491:4590   */\n              swap2\n              swap1\n              pop\n              jump\t// out\n                /* \"#utility.yul\":4596:4765   */\n            tag_215:\n                /* \"#utility.yul\":4680:4691   */\n              0x00\n                /* \"#utility.yul\":4714:4720   */\n              dup3\n                /* \"#utility.yul\":4709:4712   */\n              dup3\n                /* \"#utility.yul\":4702:4721   */\n              mstore\n                /* \"#utility.yul\":4754:4758   */\n              0x20\n                /* \"#utility.yul\":4749:4752   */\n              dup3\n                /* \"#utility.yul\":4745:4759   */\n              add\n                /* \"#utility.yul\":4730:4759   */\n              swap1\n              pop\n                /* \"#utility.yul\":4596:4765   */\n              swap3\n              swap2\n              pop\n              pop\n              jump\t// out\n                /* \"#utility.yul\":4771:5017   */\n            tag_216:\n                /* \"#utility.yul\":4852:4853   */\n              0x00\n                /* \"#utility.yul\":4862:4975   */\n            tag_319:\n                /* \"#utility.yul\":4876:4882   */\n              dup4\n                /* \"#utility.yul\":4873:4874   */\n              dup2\n                /* \"#utility.yul\":4870:4883   */\n              lt\n                /* \"#utility.yul\":4862:4975   */\n              iszero\n              tag_321\n              jumpi\n                /* \"#utility.yul\":4961:4962   */\n              dup1\n                /* \"#utility.yul\":4956:4959   */\n              dup3\n                /* \"#utility.yul\":4952:4963   */\n              add\n                /* \"#utility.yul\":4946:4964   */\n              mload\n                /* \"#utility.yul\":4942:4943   */\n              dup2\n                /* \"#utility.yul\":4937:4940   */\n              dup5\n                /* \"#utility.yul\":4933:4944   */\n              add\n                /* \"#utility.yul\":4926:4965   */\n              mstore\n                /* \"#utility.yul\":4898:4900   */\n              0x20\n                /* \"#utility.yul\":4895:4896   */\n              dup2\n                /* \"#utility.yul\":4891:4901   */\n              add\n                /* \"#utility.yul\":4886:4901   */\n              swap1\n              pop\n                /* \"#utility.yul\":4862:4975   */\n              jump(tag_319)\n            tag_321:\n                /* \"#utility.yul\":5009:5010   */\n              0x00\n                /* \"#utility.yul\":5000:5006   */\n              dup5\n                /* \"#utility.yul\":4995:4998   */\n              dup5\n                /* \"#utility.yul\":4991:5007   */\n              add\n                /* \"#utility.yul\":4984:5011   */\n              mstore\n                /* \"#utility.yul\":4833:5017   */\n              pop\n                /* \"#utility.yul\":4771:5017   */\n              pop\n              pop\n              pop\n              jump\t// out\n                /* \"#utility.yul\":5023:5125   */\n            tag_217:\n                /* \"#utility.yul\":5064:5070   */\n              0x00\n                /* \"#utility.yul\":5115:5117   */\n              0x1f\n                /* \"#utility.yul\":5111:5118   */\n              not\n                /* \"#utility.yul\":5106:5108   */\n              0x1f\n                /* \"#utility.yul\":5099:5104   */\n              dup4\n                /* \"#utility.yul\":5095:5109   */\n              add\n                /* \"#utility.yul\":5091:5119   */\n              and\n                /* \"#utility.yul\":5081:5119   */\n              swap1\n              pop\n                /* \"#utility.yul\":5023:5125   */\n              swap2\n              swap1\n              pop\n              jump\t// out\n                /* \"#utility.yul\":5131:5508   */\n            tag_218:\n                /* \"#utility.yul\":5219:5222   */\n              0x00\n                /* \"#utility.yul\":5247:5286   */\n              tag_324\n                /* \"#utility.yul\":5280:5285   */\n              dup3\n                /* \"#utility.yul\":5247:5286   */\n              tag_214\n              jump\t// in\n            tag_324:\n                /* \"#utility.yul\":5302:5373   */\n              tag_325\n                /* \"#utility.yul\":5366:5372   */\n              dup2\n                /* \"#utility.yul\":5361:5364   */\n              dup6\n                /* \"#utility.yul\":5302:5373   */\n              tag_215\n              jump\t// in\n            tag_325:\n                /* \"#utility.yul\":5295:5373   */\n              swap4\n              pop\n                /* \"#utility.yul\":5382:5447   */\n              tag_326\n                /* \"#utility.yul\":5440:5446   */\n              dup2\n                /* \"#utility.yul\":5435:5438   */\n              dup6\n                /* \"#utility.yul\":5428:5432   */\n              0x20\n                /* \"#utility.yul\":5421:5426   */\n              dup7\n                /* \"#utility.yul\":5417:5433   */\n              add\n                /* \"#utility.yul\":5382:5447   */\n              tag_216\n              jump\t// in\n            tag_326:\n                /* \"#utility.yul\":5472:5501   */\n              tag_327\n                /* \"#utility.yul\":5494:5500   */\n              dup2\n                /* \"#utility.yul\":5472:5501   */\n              tag_217\n              jump\t// in\n            tag_327:\n                /* \"#utility.yul\":5467:5470   */\n              dup5\n                /* \"#utility.yul\":5463:5502   */\n              add\n                /* \"#utility.yul\":5456:5502   */\n              swap2\n              pop\n                /* \"#utility.yul\":5223:5508   */\n              pop\n                /* \"#utility.yul\":5131:5508   */\n              swap3\n              swap2\n              pop\n              pop\n              jump\t// out\n                /* \"#utility.yul\":5514:5827   */\n            tag_102:\n                /* \"#utility.yul\":5627:5631   */\n              0x00\n                /* \"#utility.yul\":5665:5667   */\n              0x20\n                /* \"#utility.yul\":5654:5663   */\n              dup3\n                /* \"#utility.yul\":5650:5668   */\n              add\n                /* \"#utility.yul\":5642:5668   */\n              swap1\n              pop\n                /* \"#utility.yul\":5714:5723   */\n              dup2\n                /* \"#utility.yul\":5708:5712   */\n              dup2\n                /* \"#utility.yul\":5704:5724   */\n              sub\n                /* \"#utility.yul\":5700:5701   */\n              0x00\n                /* \"#utility.yul\":5689:5698   */\n              dup4\n                /* \"#utility.yul\":5685:5702   */\n              add\n                /* \"#utility.yul\":5678:5725   */\n              mstore\n                /* \"#utility.yul\":5742:5820   */\n              tag_329\n                /* \"#utility.yul\":5815:5819   */\n              dup2\n                /* \"#utility.yul\":5806:5812   */\n              dup5\n                /* \"#utility.yul\":5742:5820   */\n              tag_218\n              jump\t// in\n            tag_329:\n                /* \"#utility.yul\":5734:5820   */\n              swap1\n              pop\n                /* \"#utility.yul\":5514:5827   */\n              swap3\n              swap2\n              pop\n              pop\n              jump\t// out\n                /* \"#utility.yul\":5833:5953   */\n            tag_219:\n                /* \"#utility.yul\":5905:5928   */\n              tag_331\n                /* \"#utility.yul\":5922:5927   */\n              dup2\n                /* \"#utility.yul\":5905:5928   */\n              tag_209\n              jump\t// in\n            tag_331:\n                /* \"#utility.yul\":5898:5903   */\n              dup2\n                /* \"#utility.yul\":5895:5929   */\n              eq\n                /* \"#utility.yul\":5885:5947   */\n              tag_332\n              jumpi\n                /* \"#utility.yul\":5943:5944   */\n              0x00\n                /* \"#utility.yul\":5940:5941   */\n              dup1\n                /* \"#utility.yul\":5933:5945   */\n              revert\n                /* \"#utility.yul\":5885:5947   */\n            tag_332:\n                /* \"#utility.yul\":5833:5953   */\n              pop\n              jump\t// out\n                /* \"#utility.yul\":5959:6096   */\n            tag_220:\n                /* \"#utility.yul\":6004:6009   */\n              0x00\n                /* \"#utility.yul\":6042:6048   */\n              dup2\n                /* \"#utility.yul\":6029:6049   */\n              calldataload\n                /* \"#utility.yul\":6020:6049   */\n              swap1\n              pop\n                /* \"#utility.yul\":6058:6090   */\n              tag_334\n                /* \"#utility.yul\":6084:6089   */\n              dup2\n                /* \"#utility.yul\":6058:6090   */\n              tag_219\n              jump\t// in\n            tag_334:\n                /* \"#utility.yul\":5959:6096   */\n              swap3\n              swap2\n              pop\n              pop\n              jump\t// out\n                /* \"#utility.yul\":6102:6429   */\n            tag_106:\n                /* \"#utility.yul\":6160:6166   */\n              0x00\n                /* \"#utility.yul\":6209:6211   */\n              0x20\n                /* \"#utility.yul\":6197:6206   */\n              dup3\n                /* \"#utility.yul\":6188:6195   */\n              dup5\n                /* \"#utility.yul\":6184:6207   */\n              sub\n                /* \"#utility.yul\":6180:6212   */\n              slt\n                /* \"#utility.yul\":6177:6296   */\n              iszero\n              tag_336\n              jumpi\n                /* \"#utility.yul\":6215:6294   */\n              tag_337\n              tag_199\n              jump\t// in\n            tag_337:\n                /* \"#utility.yul\":6177:6296   */\n            tag_336:\n                /* \"#utility.yul\":6335:6336   */\n              0x00\n                /* \"#utility.yul\":6360:6412   */\n              tag_338\n                /* \"#utility.yul\":6404:6411   */\n              dup5\n                /* \"#utility.yul\":6395:6401   */\n              dup3\n                /* \"#utility.yul\":6384:6393   */\n              dup6\n                /* \"#utility.yul\":6380:6402   */\n              add\n                /* \"#utility.yul\":6360:6412   */\n              tag_220\n              jump\t// in\n            tag_338:\n                /* \"#utility.yul\":6350:6412   */\n              swap2\n              pop\n                /* \"#utility.yul\":6306:6422   */\n              pop\n                /* \"#utility.yul\":6102:6429   */\n              swap3\n              swap2\n              pop\n              pop\n              jump\t// out\n                /* \"#utility.yul\":6435:6599   */\n            tag_221:\n                /* \"#utility.yul\":6575:6591   */\n              0x4e6f2072652d656e7472616e6379000000000000000000000000000000000000\n                /* \"#utility.yul\":6571:6572   */\n              0x00\n                /* \"#utility.yul\":6563:6569   */\n              dup3\n                /* \"#utility.yul\":6559:6573   */\n              add\n                /* \"#utility.yul\":6552:6592   */\n              mstore\n                /* \"#utility.yul\":6435:6599   */\n              pop\n              jump\t// out\n                /* \"#utility.yul\":6605:6971   */\n            tag_222:\n                /* \"#utility.yul\":6747:6750   */\n              0x00\n                /* \"#utility.yul\":6768:6835   */\n              tag_341\n                /* \"#utility.yul\":6832:6834   */\n              0x0e\n                /* \"#utility.yul\":6827:6830   */\n              dup4\n                /* \"#utility.yul\":6768:6835   */\n              tag_215\n              jump\t// in\n            tag_341:\n                /* \"#utility.yul\":6761:6835   */\n              swap2\n              pop\n                /* \"#utility.yul\":6844:6937   */\n              tag_342\n                /* \"#utility.yul\":6933:6936   */\n              dup3\n                /* \"#utility.yul\":6844:6937   */\n              tag_221\n              jump\t// in\n            tag_342:\n                /* \"#utility.yul\":6962:6964   */\n              0x20\n                /* \"#utility.yul\":6957:6960   */\n              dup3\n                /* \"#utility.yul\":6953:6965   */\n              add\n                /* \"#utility.yul\":6946:6965   */\n              swap1\n              pop\n                /* \"#utility.yul\":6605:6971   */\n              swap2\n              swap1\n              pop\n              jump\t// out\n                /* \"#utility.yul\":6977:7396   */\n            tag_113:\n                /* \"#utility.yul\":7143:7147   */\n              0x00\n                /* \"#utility.yul\":7181:7183   */\n              0x20\n                /* \"#utility.yul\":7170:7179   */\n              dup3\n                /* \"#utility.yul\":7166:7184   */\n              add\n                /* \"#utility.yul\":7158:7184   */\n              swap1\n              pop\n                /* \"#utility.yul\":7230:7239   */\n              dup2\n                /* \"#utility.yul\":7224:7228   */\n              dup2\n                /* \"#utility.yul\":7220:7240   */\n              sub\n                /* \"#utility.yul\":7216:7217   */\n              0x00\n                /* \"#utility.yul\":7205:7214   */\n              dup4\n                /* \"#utility.yul\":7201:7218   */\n              add\n                /* \"#utility.yul\":7194:7241   */\n              mstore\n                /* \"#utility.yul\":7258:7389   */\n              tag_344\n                /* \"#utility.yul\":7384:7388   */\n              dup2\n                /* \"#utility.yul\":7258:7389   */\n              tag_222\n              jump\t// in\n            tag_344:\n                /* \"#utility.yul\":7250:7389   */\n              swap1\n              pop\n                /* \"#utility.yul\":6977:7396   */\n              swap2\n              swap1\n              pop\n              jump\t// out\n                /* \"#utility.yul\":7402:7574   */\n            tag_223:\n                /* \"#utility.yul\":7542:7566   */\n              0x4b65696e20476577696e6e2065696e67657a61686c7400000000000000000000\n                /* \"#utility.yul\":7538:7539   */\n              0x00\n                /* \"#utility.yul\":7530:7536   */\n              dup3\n                /* \"#utility.yul\":7526:7540   */\n              add\n                /* \"#utility.yul\":7519:7567   */\n              mstore\n                /* \"#utility.yul\":7402:7574   */\n              pop\n              jump\t// out\n                /* \"#utility.yul\":7580:7946   */\n            tag_224:\n                /* \"#utility.yul\":7722:7725   */\n              0x00\n                /* \"#utility.yul\":7743:7810   */\n              tag_347\n                /* \"#utility.yul\":7807:7809   */\n              0x16\n                /* \"#utility.yul\":7802:7805   */\n              dup4\n                /* \"#utility.yul\":7743:7810   */\n              tag_215\n              jump\t// in\n            tag_347:\n                /* \"#utility.yul\":7736:7810   */\n              swap2\n              pop\n                /* \"#utility.yul\":7819:7912   */\n              tag_348\n                /* \"#utility.yul\":7908:7911   */\n              dup3\n                /* \"#utility.yul\":7819:7912   */\n              tag_223\n              jump\t// in\n            tag_348:\n                /* \"#utility.yul\":7937:7939   */\n              0x20\n                /* \"#utility.yul\":7932:7935   */\n              dup3\n                /* \"#utility.yul\":7928:7940   */\n              add\n                /* \"#utility.yul\":7921:7940   */\n              swap1\n              pop\n                /* \"#utility.yul\":7580:7946   */\n              swap2\n              swap1\n              pop\n              jump\t// out\n                /* \"#utility.yul\":7952:8371   */\n            tag_117:\n                /* \"#utility.yul\":8118:8122   */\n              0x00\n                /* \"#utility.yul\":8156:8158   */\n              0x20\n                /* \"#utility.yul\":8145:8154   */\n              dup3\n                /* \"#utility.yul\":8141:8159   */\n              add\n                /* \"#utility.yul\":8133:8159   */\n              swap1\n              pop\n                /* \"#utility.yul\":8205:8214   */\n              dup2\n                /* \"#utility.yul\":8199:8203   */\n              dup2\n                /* \"#utility.yul\":8195:8215   */\n              sub\n                /* \"#utility.yul\":8191:8192   */\n              0x00\n                /* \"#utility.yul\":8180:8189   */\n              dup4\n                /* \"#utility.yul\":8176:8193   */\n              add\n                /* \"#utility.yul\":8169:8216   */\n              mstore\n                /* \"#utility.yul\":8233:8364   */\n              tag_350\n                /* \"#utility.yul\":8359:8363   */\n              dup2\n                /* \"#utility.yul\":8233:8364   */\n              tag_224\n              jump\t// in\n            tag_350:\n                /* \"#utility.yul\":8225:8364   */\n              swap1\n              pop\n                /* \"#utility.yul\":7952:8371   */\n              swap2\n              swap1\n              pop\n              jump\t// out\n                /* \"#utility.yul\":8377:8550   */\n            tag_225:\n                /* \"#utility.yul\":8517:8542   */\n              0x44752062697374206b65696e204d6974737069656c6572000000000000000000\n                /* \"#utility.yul\":8513:8514   */\n              0x00\n                /* \"#utility.yul\":8505:8511   */\n              dup3\n                /* \"#utility.yul\":8501:8515   */\n              add\n                /* \"#utility.yul\":8494:8543   */\n              mstore\n                /* \"#utility.yul\":8377:8550   */\n              pop\n              jump\t// out\n                /* \"#utility.yul\":8556:8922   */\n            tag_226:\n                /* \"#utility.yul\":8698:8701   */\n              0x00\n                /* \"#utility.yul\":8719:8786   */\n              tag_353\n                /* \"#utility.yul\":8783:8785   */\n              0x17\n                /* \"#utility.yul\":8778:8781   */\n              dup4\n                /* \"#utility.yul\":8719:8786   */\n              tag_215\n              jump\t// in\n            tag_353:\n                /* \"#utility.yul\":8712:8786   */\n              swap2\n              pop\n                /* \"#utility.yul\":8795:8888   */\n              tag_354\n                /* \"#utility.yul\":8884:8887   */\n              dup3\n                /* \"#utility.yul\":8795:8888   */\n              tag_225\n              jump\t// in\n            tag_354:\n                /* \"#utility.yul\":8913:8915   */\n              0x20\n                /* \"#utility.yul\":8908:8911   */\n              dup3\n                /* \"#utility.yul\":8904:8916   */\n              add\n                /* \"#utility.yul\":8897:8916   */\n              swap1\n              pop\n                /* \"#utility.yul\":8556:8922   */\n              swap2\n              swap1\n              pop\n              jump\t// out\n                /* \"#utility.yul\":8928:9347   */\n            tag_120:\n                /* \"#utility.yul\":9094:9098   */\n              0x00\n                /* \"#utility.yul\":9132:9134   */\n              0x20\n                /* \"#utility.yul\":9121:9130   */\n              dup3\n                /* \"#utility.yul\":9117:9135   */\n              add\n                /* \"#utility.yul\":9109:9135   */\n              swap1\n              pop\n                /* \"#utility.yul\":9181:9190   */\n              dup2\n                /* \"#utility.yul\":9175:9179   */\n              dup2\n                /* \"#utility.yul\":9171:9191   */\n              sub\n                /* \"#utility.yul\":9167:9168   */\n              0x00\n                /* \"#utility.yul\":9156:9165   */\n              dup4\n                /* \"#utility.yul\":9152:9169   */\n              add\n                /* \"#utility.yul\":9145:9192   */\n              mstore\n                /* \"#utility.yul\":9209:9340   */\n              tag_356\n                /* \"#utility.yul\":9335:9339   */\n              dup2\n                /* \"#utility.yul\":9209:9340   */\n              tag_226\n              jump\t// in\n            tag_356:\n                /* \"#utility.yul\":9201:9340   */\n              swap1\n              pop\n                /* \"#utility.yul\":8928:9347   */\n              swap2\n              swap1\n              pop\n              jump\t// out\n                /* \"#utility.yul\":9353:9576   */\n            tag_227:\n                /* \"#utility.yul\":9493:9527   */\n              0x4465696e20476577696e6e20777572646520626572656974732061757367657a\n                /* \"#utility.yul\":9489:9490   */\n              0x00\n                /* \"#utility.yul\":9481:9487   */\n              dup3\n                /* \"#utility.yul\":9477:9491   */\n              add\n                /* \"#utility.yul\":9470:9528   */\n              mstore\n                /* \"#utility.yul\":9562:9568   */\n              0x61686c7400000000000000000000000000000000000000000000000000000000\n                /* \"#utility.yul\":9557:9559   */\n              0x20\n                /* \"#utility.yul\":9549:9555   */\n              dup3\n                /* \"#utility.yul\":9545:9560   */\n              add\n                /* \"#utility.yul\":9538:9569   */\n              mstore\n                /* \"#utility.yul\":9353:9576   */\n              pop\n              jump\t// out\n                /* \"#utility.yul\":9582:9948   */\n            tag_228:\n                /* \"#utility.yul\":9724:9727   */\n              0x00\n                /* \"#utility.yul\":9745:9812   */\n              tag_359\n                /* \"#utility.yul\":9809:9811   */\n              0x24\n                /* \"#utility.yul\":9804:9807   */\n              dup4\n                /* \"#utility.yul\":9745:9812   */\n              tag_215\n              jump\t// in\n            tag_359:\n                /* \"#utility.yul\":9738:9812   */\n              swap2\n              pop\n                /* \"#utility.yul\":9821:9914   */\n              tag_360\n                /* \"#utility.yul\":9910:9913   */\n              dup3\n                /* \"#utility.yul\":9821:9914   */\n              tag_227\n              jump\t// in\n            tag_360:\n                /* \"#utility.yul\":9939:9941   */\n              0x40\n                /* \"#utility.yul\":9934:9937   */\n              dup3\n                /* \"#utility.yul\":9930:9942   */\n              add\n                /* \"#utility.yul\":9923:9942   */\n              swap1\n              pop\n                /* \"#utility.yul\":9582:9948   */\n              swap2\n              swap1\n              pop\n              jump\t// out\n                /* \"#utility.yul\":9954:10373   */\n            tag_123:\n                /* \"#utility.yul\":10120:10124   */\n              0x00\n                /* \"#utility.yul\":10158:10160   */\n              0x20\n                /* \"#utility.yul\":10147:10156   */\n              dup3\n                /* \"#utility.yul\":10143:10161   */\n              add\n                /* \"#utility.yul\":10135:10161   */\n              swap1\n              pop\n                /* \"#utility.yul\":10207:10216   */\n              dup2\n                /* \"#utility.yul\":10201:10205   */\n              dup2\n                /* \"#utility.yul\":10197:10217   */\n              sub\n                /* \"#utility.yul\":10193:10194   */\n              0x00\n                /* \"#utility.yul\":10182:10191   */\n              dup4\n                /* \"#utility.yul\":10178:10195   */\n              add\n                /* \"#utility.yul\":10171:10218   */\n              mstore\n                /* \"#utility.yul\":10235:10366   */\n              tag_362\n                /* \"#utility.yul\":10361:10365   */\n              dup2\n                /* \"#utility.yul\":10235:10366   */\n              tag_228\n              jump\t// in\n            tag_362:\n                /* \"#utility.yul\":10227:10366   */\n              swap1\n              pop\n                /* \"#utility.yul\":9954:10373   */\n              swap2\n              swap1\n              pop\n              jump\t// out\n                /* \"#utility.yul\":10379:10526   */\n            tag_229:\n                /* \"#utility.yul\":10480:10491   */\n              0x00\n                /* \"#utility.yul\":10517:10520   */\n              dup2\n                /* \"#utility.yul\":10502:10520   */\n              swap1\n              pop\n                /* \"#utility.yul\":10379:10526   */\n              swap3\n              swap2\n              pop\n              pop\n              jump\t// out\n                /* \"#utility.yul\":10532:10646   */\n            tag_230:\n              pop\n              jump\t// out\n                /* \"#utility.yul\":10652:11050   */\n            tag_231:\n                /* \"#utility.yul\":10811:10814   */\n              0x00\n                /* \"#utility.yul\":10832:10915   */\n              tag_366\n                /* \"#utility.yul\":10913:10914   */\n              0x00\n                /* \"#utility.yul\":10908:10911   */\n              dup4\n                /* \"#utility.yul\":10832:10915   */\n              tag_229\n              jump\t// in\n            tag_366:\n                /* \"#utility.yul\":10825:10915   */\n              swap2\n              pop\n                /* \"#utility.yul\":10924:11017   */\n              tag_367\n                /* \"#utility.yul\":11013:11016   */\n              dup3\n                /* \"#utility.yul\":10924:11017   */\n              tag_230\n              jump\t// in\n            tag_367:\n                /* \"#utility.yul\":11042:11043   */\n              0x00\n                /* \"#utility.yul\":11037:11040   */\n              dup3\n                /* \"#utility.yul\":11033:11044   */\n              add\n                /* \"#utility.yul\":11026:11044   */\n              swap1\n              pop\n                /* \"#utility.yul\":10652:11050   */\n              swap2\n              swap1\n              pop\n              jump\t// out\n                /* \"#utility.yul\":11056:11435   */\n            tag_125:\n                /* \"#utility.yul\":11240:11243   */\n              0x00\n                /* \"#utility.yul\":11262:11409   */\n              tag_369\n                /* \"#utility.yul\":11405:11408   */\n              dup3\n                /* \"#utility.yul\":11262:11409   */\n              tag_231\n              jump\t// in\n            tag_369:\n                /* \"#utility.yul\":11255:11409   */\n              swap2\n              pop\n                /* \"#utility.yul\":11426:11429   */\n              dup2\n                /* \"#utility.yul\":11419:11429   */\n              swap1\n              pop\n                /* \"#utility.yul\":11056:11435   */\n              swap2\n              swap1\n              pop\n              jump\t// out\n                /* \"#utility.yul\":11441:11665   */\n            tag_232:\n                /* \"#utility.yul\":11581:11615   */\n              0x4175737a61686c756e672064657320476577696e6e73206665686c6765736368\n                /* \"#utility.yul\":11577:11578   */\n              0x00\n                /* \"#utility.yul\":11569:11575   */\n              dup3\n                /* \"#utility.yul\":11565:11579   */\n              add\n                /* \"#utility.yul\":11558:11616   */\n              mstore\n                /* \"#utility.yul\":11650:11657   */\n              0x6c6167656e000000000000000000000000000000000000000000000000000000\n                /* \"#utility.yul\":11645:11647   */\n              0x20\n                /* \"#utility.yul\":11637:11643   */\n              dup3\n                /* \"#utility.yul\":11633:11648   */\n              add\n                /* \"#utility.yul\":11626:11658   */\n              mstore\n                /* \"#utility.yul\":11441:11665   */\n              pop\n              jump\t// out\n                /* \"#utility.yul\":11671:12037   */\n            tag_233:\n                /* \"#utility.yul\":11813:11816   */\n              0x00\n                /* \"#utility.yul\":11834:11901   */\n              tag_372\n                /* \"#utility.yul\":11898:11900   */\n              0x25\n                /* \"#utility.yul\":11893:11896   */\n              dup4\n                /* \"#utility.yul\":11834:11901   */\n              tag_215\n              jump\t// in\n            tag_372:\n                /* \"#utility.yul\":11827:11901   */\n              swap2\n              pop\n                /* \"#utility.yul\":11910:12003   */\n              tag_373\n                /* \"#utility.yul\":11999:12002   */\n              dup3\n                /* \"#utility.yul\":11910:12003   */\n              tag_232\n              jump\t// in\n            tag_373:\n                /* \"#utility.yul\":12028:12030   */\n              0x40\n                /* \"#utility.yul\":12023:12026   */\n              dup3\n                /* \"#utility.yul\":12019:12031   */\n              add\n                /* \"#utility.yul\":12012:12031   */\n              swap1\n              pop\n                /* \"#utility.yul\":11671:12037   */\n              swap2\n              swap1\n              pop\n              jump\t// out\n                /* \"#utility.yul\":12043:12462   */\n            tag_131:\n                /* \"#utility.yul\":12209:12213   */\n              0x00\n                /* \"#utility.yul\":12247:12249   */\n              0x20\n                /* \"#utility.yul\":12236:12245   */\n              dup3\n                /* \"#utility.yul\":12232:12250   */\n              add\n                /* \"#utility.yul\":12224:12250   */\n              swap1\n              pop\n                /* \"#utility.yul\":12296:12305   */\n              dup2\n                /* \"#utility.yul\":12290:12294   */\n              dup2\n                /* \"#utility.yul\":12286:12306   */\n              sub\n                /* \"#utility.yul\":12282:12283   */\n              0x00\n                /* \"#utility.yul\":12271:12280   */\n              dup4\n                /* \"#utility.yul\":12267:12284   */\n              add\n                /* \"#utility.yul\":12260:12307   */\n              mstore\n                /* \"#utility.yul\":12324:12455   */\n              tag_375\n                /* \"#utility.yul\":12450:12454   */\n              dup2\n                /* \"#utility.yul\":12324:12455   */\n              tag_233\n              jump\t// in\n            tag_375:\n                /* \"#utility.yul\":12316:12455   */\n              swap1\n              pop\n                /* \"#utility.yul\":12043:12462   */\n              swap2\n              swap1\n              pop\n              jump\t// out\n                /* \"#utility.yul\":12468:12718   */\n            tag_234:\n                /* \"#utility.yul\":12608:12642   */\n              0x457320676962742062657265697473204d6974737069656c65722e2050726569\n                /* \"#utility.yul\":12604:12605   */\n              0x00\n                /* \"#utility.yul\":12596:12602   */\n              dup3\n                /* \"#utility.yul\":12592:12606   */\n              add\n                /* \"#utility.yul\":12585:12643   */\n              mstore\n                /* \"#utility.yul\":12677:12710   */\n              0x7361656e646572756e67206e69636874206d656872206d6f65676c6963682e00\n                /* \"#utility.yul\":12672:12674   */\n              0x20\n                /* \"#utility.yul\":12664:12670   */\n              dup3\n                /* \"#utility.yul\":12660:12675   */\n              add\n                /* \"#utility.yul\":12653:12711   */\n              mstore\n                /* \"#utility.yul\":12468:12718   */\n              pop\n              jump\t// out\n                /* \"#utility.yul\":12724:13090   */\n            tag_235:\n                /* \"#utility.yul\":12866:12869   */\n              0x00\n                /* \"#utility.yul\":12887:12954   */\n              tag_378\n                /* \"#utility.yul\":12951:12953   */\n              0x3f\n                /* \"#utility.yul\":12946:12949   */\n              dup4\n                /* \"#utility.yul\":12887:12954   */\n              tag_215\n              jump\t// in\n            tag_378:\n                /* \"#utility.yul\":12880:12954   */\n              swap2\n              pop\n                /* \"#utility.yul\":12963:13056   */\n              tag_379\n                /* \"#utility.yul\":13052:13055   */\n              dup3\n                /* \"#utility.yul\":12963:13056   */\n              tag_234\n              jump\t// in\n            tag_379:\n                /* \"#utility.yul\":13081:13083   */\n              0x40\n                /* \"#utility.yul\":13076:13079   */\n              dup3\n                /* \"#utility.yul\":13072:13084   */\n              add\n                /* \"#utility.yul\":13065:13084   */\n              swap1\n              pop\n                /* \"#utility.yul\":12724:13090   */\n              swap2\n              swap1\n              pop\n              jump\t// out\n                /* \"#utility.yul\":13096:13515   */\n            tag_137:\n                /* \"#utility.yul\":13262:13266   */\n              0x00\n                /* \"#utility.yul\":13300:13302   */\n              0x20\n                /* \"#utility.yul\":13289:13298   */\n              dup3\n                /* \"#utility.yul\":13285:13303   */\n              add\n                /* \"#utility.yul\":13277:13303   */\n              swap1\n              pop\n                /* \"#utility.yul\":13349:13358   */\n              dup2\n                /* \"#utility.yul\":13343:13347   */\n              dup2\n                /* \"#utility.yul\":13339:13359   */\n              sub\n                /* \"#utility.yul\":13335:13336   */\n              0x00\n                /* \"#utility.yul\":13324:13333   */\n              dup4\n                /* \"#utility.yul\":13320:13337   */\n              add\n                /* \"#utility.yul\":13313:13360   */\n              mstore\n                /* \"#utility.yul\":13377:13508   */\n              tag_381\n                /* \"#utility.yul\":13503:13507   */\n              dup2\n                /* \"#utility.yul\":13377:13508   */\n              tag_235\n              jump\t// in\n            tag_381:\n                /* \"#utility.yul\":13369:13508   */\n              swap1\n              pop\n                /* \"#utility.yul\":13096:13515   */\n              swap2\n              swap1\n              pop\n              jump\t// out\n                /* \"#utility.yul\":13521:13766   */\n            tag_236:\n                /* \"#utility.yul\":13661:13695   */\n              0x457320676962742062657265697473204d6974737069656c65722e2041656e64\n                /* \"#utility.yul\":13657:13658   */\n              0x00\n                /* \"#utility.yul\":13649:13655   */\n              dup3\n                /* \"#utility.yul\":13645:13659   */\n              add\n                /* \"#utility.yul\":13638:13696   */\n              mstore\n                /* \"#utility.yul\":13730:13758   */\n              0x6572756e67206e69636874206d656872206d6f65676c6963682e000000000000\n                /* \"#utility.yul\":13725:13727   */\n              0x20\n                /* \"#utility.yul\":13717:13723   */\n              dup3\n                /* \"#utility.yul\":13713:13728   */\n              add\n                /* \"#utility.yul\":13706:13759   */\n              mstore\n                /* \"#utility.yul\":13521:13766   */\n              pop\n              jump\t// out\n                /* \"#utility.yul\":13772:14138   */\n            tag_237:\n                /* \"#utility.yul\":13914:13917   */\n              0x00\n                /* \"#utility.yul\":13935:14002   */\n              tag_384\n                /* \"#utility.yul\":13999:14001   */\n              0x3a\n                /* \"#utility.yul\":13994:13997   */\n              dup4\n                /* \"#utility.yul\":13935:14002   */\n              tag_215\n              jump\t// in\n            tag_384:\n                /* \"#utility.yul\":13928:14002   */\n              swap2\n              pop\n                /* \"#utility.yul\":14011:14104   */\n              tag_385\n                /* \"#utility.yul\":14100:14103   */\n              dup3\n                /* \"#utility.yul\":14011:14104   */\n              tag_236\n              jump\t// in\n            tag_385:\n                /* \"#utility.yul\":14129:14131   */\n              0x40\n                /* \"#utility.yul\":14124:14127   */\n              dup3\n                /* \"#utility.yul\":14120:14132   */\n              add\n                /* \"#utility.yul\":14113:14132   */\n              swap1\n              pop\n                /* \"#utility.yul\":13772:14138   */\n              swap2\n              swap1\n              pop\n              jump\t// out\n                /* \"#utility.yul\":14144:14563   */\n            tag_143:\n                /* \"#utility.yul\":14310:14314   */\n              0x00\n                /* \"#utility.yul\":14348:14350   */\n              0x20\n                /* \"#utility.yul\":14337:14346   */\n              dup3\n                /* \"#utility.yul\":14333:14351   */\n              add\n                /* \"#utility.yul\":14325:14351   */\n              swap1\n              pop\n                /* \"#utility.yul\":14397:14406   */\n              dup2\n                /* \"#utility.yul\":14391:14395   */\n              dup2\n                /* \"#utility.yul\":14387:14407   */\n              sub\n                /* \"#utility.yul\":14383:14384   */\n              0x00\n                /* \"#utility.yul\":14372:14381   */\n              dup4\n                /* \"#utility.yul\":14368:14385   */\n              add\n                /* \"#utility.yul\":14361:14408   */\n              mstore\n                /* \"#utility.yul\":14425:14556   */\n              tag_387\n                /* \"#utility.yul\":14551:14555   */\n              dup2\n                /* \"#utility.yul\":14425:14556   */\n              tag_237\n              jump\t// in\n            tag_387:\n                /* \"#utility.yul\":14417:14556   */\n              swap1\n              pop\n                /* \"#utility.yul\":14144:14563   */\n              swap2\n              swap1\n              pop\n              jump\t// out\n                /* \"#utility.yul\":14569:14749   */\n            tag_238:\n                /* \"#utility.yul\":14617:14694   */\n              0x4e487b7100000000000000000000000000000000000000000000000000000000\n                /* \"#utility.yul\":14614:14615   */\n              0x00\n                /* \"#utility.yul\":14607:14695   */\n              mstore\n                /* \"#utility.yul\":14714:14718   */\n              0x12\n                /* \"#utility.yul\":14711:14712   */\n              0x04\n                /* \"#utility.yul\":14704:14719   */\n              mstore\n                /* \"#utility.yul\":14738:14742   */\n              0x24\n                /* \"#utility.yul\":14735:14736   */\n              0x00\n                /* \"#utility.yul\":14728:14743   */\n              revert\n                /* \"#utility.yul\":14755:14935   */\n            tag_239:\n                /* \"#utility.yul\":14803:14880   */\n              0x4e487b7100000000000000000000000000000000000000000000000000000000\n                /* \"#utility.yul\":14800:14801   */\n              0x00\n                /* \"#utility.yul\":14793:14881   */\n              mstore\n                /* \"#utility.yul\":14900:14904   */\n              0x11\n                /* \"#utility.yul\":14897:14898   */\n              0x04\n                /* \"#utility.yul\":14890:14905   */\n              mstore\n                /* \"#utility.yul\":14924:14928   */\n              0x24\n                /* \"#utility.yul\":14921:14922   */\n              0x00\n                /* \"#utility.yul\":14914:14929   */\n              revert\n                /* \"#utility.yul\":14941:15123   */\n            tag_146:\n                /* \"#utility.yul\":14980:14981   */\n              0x00\n                /* \"#utility.yul\":14997:15016   */\n              tag_391\n                /* \"#utility.yul\":15014:15015   */\n              dup3\n                /* \"#utility.yul\":14997:15016   */\n              tag_196\n              jump\t// in\n            tag_391:\n                /* \"#utility.yul\":14992:15016   */\n              swap2\n              pop\n                /* \"#utility.yul\":15030:15049   */\n              tag_392\n                /* \"#utility.yul\":15047:15048   */\n              dup4\n                /* \"#utility.yul\":15030:15049   */\n              tag_196\n              jump\t// in\n            tag_392:\n                /* \"#utility.yul\":15025:15049   */\n              swap3\n              pop\n                /* \"#utility.yul\":15068:15069   */\n              dup3\n                /* \"#utility.yul\":15058:15093   */\n              tag_393\n              jumpi\n                /* \"#utility.yul\":15073:15091   */\n              tag_394\n              tag_238\n              jump\t// in\n            tag_394:\n                /* \"#utility.yul\":15058:15093   */\n            tag_393:\n                /* \"#utility.yul\":15115:15116   */\n              dup3\n                /* \"#utility.yul\":15112:15113   */\n              dup3\n                /* \"#utility.yul\":15108:15117   */\n              div\n                /* \"#utility.yul\":15103:15117   */\n              swap1\n              pop\n                /* \"#utility.yul\":14941:15123   */\n              swap3\n              swap2\n              pop\n              pop\n              jump\t// out\n                /* \"#utility.yul\":15129:15304   */\n            tag_240:\n                /* \"#utility.yul\":15269:15296   */\n              0x4b65696e2050726569732070726f204d6974737069656c657200000000000000\n                /* \"#utility.yul\":15265:15266   */\n              0x00\n                /* \"#utility.yul\":15257:15263   */\n              dup3\n                /* \"#utility.yul\":15253:15267   */\n              add\n                /* \"#utility.yul\":15246:15297   */\n              mstore\n                /* \"#utility.yul\":15129:15304   */\n              pop\n              jump\t// out\n                /* \"#utility.yul\":15310:15676   */\n            tag_241:\n                /* \"#utility.yul\":15452:15455   */\n              0x00\n                /* \"#utility.yul\":15473:15540   */\n              tag_397\n                /* \"#utility.yul\":15537:15539   */\n              0x19\n                /* \"#utility.yul\":15532:15535   */\n              dup4\n                /* \"#utility.yul\":15473:15540   */\n              tag_215\n              jump\t// in\n            tag_397:\n                /* \"#utility.yul\":15466:15540   */\n              swap2\n              pop\n                /* \"#utility.yul\":15549:15642   */\n              tag_398\n                /* \"#utility.yul\":15638:15641   */\n              dup3\n                /* \"#utility.yul\":15549:15642   */\n              tag_240\n              jump\t// in\n            tag_398:\n                /* \"#utility.yul\":15667:15669   */\n              0x20\n                /* \"#utility.yul\":15662:15665   */\n              dup3\n                /* \"#utility.yul\":15658:15670   */\n              add\n                /* \"#utility.yul\":15651:15670   */\n              swap1\n              pop\n                /* \"#utility.yul\":15310:15676   */\n              swap2\n              swap1\n              pop\n              jump\t// out\n                /* \"#utility.yul\":15682:16101   */\n            tag_149:\n                /* \"#utility.yul\":15848:15852   */\n              0x00\n                /* \"#utility.yul\":15886:15888   */\n              0x20\n                /* \"#utility.yul\":15875:15884   */\n              dup3\n                /* \"#utility.yul\":15871:15889   */\n              add\n                /* \"#utility.yul\":15863:15889   */\n              swap1\n              pop\n                /* \"#utility.yul\":15935:15944   */\n              dup2\n                /* \"#utility.yul\":15929:15933   */\n              dup2\n                /* \"#utility.yul\":15925:15945   */\n              sub\n                /* \"#utility.yul\":15921:15922   */\n              0x00\n                /* \"#utility.yul\":15910:15919   */\n              dup4\n                /* \"#utility.yul\":15906:15923   */\n              add\n                /* \"#utility.yul\":15899:15946   */\n              mstore\n                /* \"#utility.yul\":15963:16094   */\n              tag_400\n                /* \"#utility.yul\":16089:16093   */\n              dup2\n                /* \"#utility.yul\":15963:16094   */\n              tag_241\n              jump\t// in\n            tag_400:\n                /* \"#utility.yul\":15955:16094   */\n              swap1\n              pop\n                /* \"#utility.yul\":15682:16101   */\n              swap2\n              swap1\n              pop\n              jump\t// out\n                /* \"#utility.yul\":16107:16286   */\n            tag_242:\n                /* \"#utility.yul\":16247:16278   */\n              0x5a7520676572696e6765722045696e7a61686c756e6773626574726167000000\n                /* \"#utility.yul\":16243:16244   */\n              0x00\n                /* \"#utility.yul\":16235:16241   */\n              dup3\n                /* \"#utility.yul\":16231:16245   */\n              add\n                /* \"#utility.yul\":16224:16279   */\n              mstore\n                /* \"#utility.yul\":16107:16286   */\n              pop\n              jump\t// out\n                /* \"#utility.yul\":16292:16658   */\n            tag_243:\n                /* \"#utility.yul\":16434:16437   */\n              0x00\n                /* \"#utility.yul\":16455:16522   */\n              tag_403\n                /* \"#utility.yul\":16519:16521   */\n              0x1d\n                /* \"#utility.yul\":16514:16517   */\n              dup4\n                /* \"#utility.yul\":16455:16522   */\n              tag_215\n              jump\t// in\n            tag_403:\n                /* \"#utility.yul\":16448:16522   */\n              swap2\n              pop\n                /* \"#utility.yul\":16531:16624   */\n              tag_404\n                /* \"#utility.yul\":16620:16623   */\n              dup3\n                /* \"#utility.yul\":16531:16624   */\n              tag_242\n              jump\t// in\n            tag_404:\n                /* \"#utility.yul\":16649:16651   */\n              0x20\n                /* \"#utility.yul\":16644:16647   */\n              dup3\n                /* \"#utility.yul\":16640:16652   */\n              add\n                /* \"#utility.yul\":16633:16652   */\n              swap1\n              pop\n                /* \"#utility.yul\":16292:16658   */\n              swap2\n              swap1\n              pop\n              jump\t// out\n                /* \"#utility.yul\":16664:17083   */\n            tag_152:\n                /* \"#utility.yul\":16830:16834   */\n              0x00\n                /* \"#utility.yul\":16868:16870   */\n              0x20\n                /* \"#utility.yul\":16857:16866   */\n              dup3\n                /* \"#utility.yul\":16853:16871   */\n              add\n                /* \"#utility.yul\":16845:16871   */\n              swap1\n              pop\n                /* \"#utility.yul\":16917:16926   */\n              dup2\n                /* \"#utility.yul\":16911:16915   */\n              dup2\n                /* \"#utility.yul\":16907:16927   */\n              sub\n                /* \"#utility.yul\":16903:16904   */\n              0x00\n                /* \"#utility.yul\":16892:16901   */\n              dup4\n                /* \"#utility.yul\":16888:16905   */\n              add\n                /* \"#utility.yul\":16881:16928   */\n              mstore\n                /* \"#utility.yul\":16945:17076   */\n              tag_406\n                /* \"#utility.yul\":17071:17075   */\n              dup2\n                /* \"#utility.yul\":16945:17076   */\n              tag_243\n              jump\t// in\n            tag_406:\n                /* \"#utility.yul\":16937:17076   */\n              swap1\n              pop\n                /* \"#utility.yul\":16664:17083   */\n              swap2\n              swap1\n              pop\n              jump\t// out\n                /* \"#utility.yul\":17089:17310   */\n            tag_244:\n                /* \"#utility.yul\":17229:17263   */\n              0x4265726569747320616c73204d6974737069656c657220726567697374726965\n                /* \"#utility.yul\":17225:17226   */\n              0x00\n                /* \"#utility.yul\":17217:17223   */\n              dup3\n                /* \"#utility.yul\":17213:17227   */\n              add\n                /* \"#utility.yul\":17206:17264   */\n              mstore\n                /* \"#utility.yul\":17298:17302   */\n              0x7274000000000000000000000000000000000000000000000000000000000000\n                /* \"#utility.yul\":17293:17295   */\n              0x20\n                /* \"#utility.yul\":17285:17291   */\n              dup3\n                /* \"#utility.yul\":17281:17296   */\n              add\n                /* \"#utility.yul\":17274:17303   */\n              mstore\n                /* \"#utility.yul\":17089:17310   */\n              pop\n              jump\t// out\n                /* \"#utility.yul\":17316:17682   */\n            tag_245:\n                /* \"#utility.yul\":17458:17461   */\n              0x00\n                /* \"#utility.yul\":17479:17546   */\n              tag_409\n                /* \"#utility.yul\":17543:17545   */\n              0x22\n                /* \"#utility.yul\":17538:17541   */\n              dup4\n                /* \"#utility.yul\":17479:17546   */\n              tag_215\n              jump\t// in\n            tag_409:\n                /* \"#utility.yul\":17472:17546   */\n              swap2\n              pop\n                /* \"#utility.yul\":17555:17648   */\n              tag_410\n                /* \"#utility.yul\":17644:17647   */\n              dup3\n                /* \"#utility.yul\":17555:17648   */\n              tag_244\n              jump\t// in\n            tag_410:\n                /* \"#utility.yul\":17673:17675   */\n              0x40\n                /* \"#utility.yul\":17668:17671   */\n              dup3\n                /* \"#utility.yul\":17664:17676   */\n              add\n                /* \"#utility.yul\":17657:17676   */\n              swap1\n              pop\n                /* \"#utility.yul\":17316:17682   */\n              swap2\n              swap1\n              pop\n              jump\t// out\n                /* \"#utility.yul\":17688:18107   */\n            tag_155:\n                /* \"#utility.yul\":17854:17858   */\n              0x00\n                /* \"#utility.yul\":17892:17894   */\n              0x20\n                /* \"#utility.yul\":17881:17890   */\n              dup3\n                /* \"#utility.yul\":17877:17895   */\n              add\n                /* \"#utility.yul\":17869:17895   */\n              swap1\n              pop\n                /* \"#utility.yul\":17941:17950   */\n              dup2\n                /* \"#utility.yul\":17935:17939   */\n              dup2\n                /* \"#utility.yul\":17931:17951   */\n              sub\n                /* \"#utility.yul\":17927:17928   */\n              0x00\n                /* \"#utility.yul\":17916:17925   */\n              dup4\n                /* \"#utility.yul\":17912:17929   */\n              add\n                /* \"#utility.yul\":17905:17952   */\n              mstore\n                /* \"#utility.yul\":17969:18100   */\n              tag_412\n                /* \"#utility.yul\":18095:18099   */\n              dup2\n                /* \"#utility.yul\":17969:18100   */\n              tag_245\n              jump\t// in\n            tag_412:\n                /* \"#utility.yul\":17961:18100   */\n              swap1\n              pop\n                /* \"#utility.yul\":17688:18107   */\n              swap2\n              swap1\n              pop\n              jump\t// out\n                /* \"#utility.yul\":18113:18295   */\n            tag_246:\n                /* \"#utility.yul\":18253:18287   */\n              0x4d6178696d616c65205465696c6e65686d65727a61686c206572726569636874\n                /* \"#utility.yul\":18249:18250   */\n              0x00\n                /* \"#utility.yul\":18241:18247   */\n              dup3\n                /* \"#utility.yul\":18237:18251   */\n              add\n                /* \"#utility.yul\":18230:18288   */\n              mstore\n                /* \"#utility.yul\":18113:18295   */\n              pop\n              jump\t// out\n                /* \"#utility.yul\":18301:18667   */\n            tag_247:\n                /* \"#utility.yul\":18443:18446   */\n              0x00\n                /* \"#utility.yul\":18464:18531   */\n              tag_415\n                /* \"#utility.yul\":18528:18530   */\n              0x20\n                /* \"#utility.yul\":18523:18526   */\n              dup4\n                /* \"#utility.yul\":18464:18531   */\n              tag_215\n              jump\t// in\n            tag_415:\n                /* \"#utility.yul\":18457:18531   */\n              swap2\n              pop\n                /* \"#utility.yul\":18540:18633   */\n              tag_416\n                /* \"#utility.yul\":18629:18632   */\n              dup3\n                /* \"#utility.yul\":18540:18633   */\n              tag_246\n              jump\t// in\n            tag_416:\n                /* \"#utility.yul\":18658:18660   */\n              0x20\n                /* \"#utility.yul\":18653:18656   */\n              dup3\n                /* \"#utility.yul\":18649:18661   */\n              add\n                /* \"#utility.yul\":18642:18661   */\n              swap1\n              pop\n                /* \"#utility.yul\":18301:18667   */\n              swap2\n              swap1\n              pop\n              jump\t// out\n                /* \"#utility.yul\":18673:19092   */\n            tag_158:\n                /* \"#utility.yul\":18839:18843   */\n              0x00\n                /* \"#utility.yul\":18877:18879   */\n              0x20\n                /* \"#utility.yul\":18866:18875   */\n              dup3\n                /* \"#utility.yul\":18862:18880   */\n              add\n                /* \"#utility.yul\":18854:18880   */\n              swap1\n              pop\n                /* \"#utility.yul\":18926:18935   */\n              dup2\n                /* \"#utility.yul\":18920:18924   */\n              dup2\n                /* \"#utility.yul\":18916:18936   */\n              sub\n                /* \"#utility.yul\":18912:18913   */\n              0x00\n                /* \"#utility.yul\":18901:18910   */\n              dup4\n                /* \"#utility.yul\":18897:18914   */\n              add\n                /* \"#utility.yul\":18890:18937   */\n              mstore\n                /* \"#utility.yul\":18954:19085   */\n              tag_418\n                /* \"#utility.yul\":19080:19084   */\n              dup2\n                /* \"#utility.yul\":18954:19085   */\n              tag_247\n              jump\t// in\n            tag_418:\n                /* \"#utility.yul\":18946:19085   */\n              swap1\n              pop\n                /* \"#utility.yul\":18673:19092   */\n              swap2\n              swap1\n              pop\n              jump\t// out\n                /* \"#utility.yul\":19098:19279   */\n            tag_248:\n                /* \"#utility.yul\":19238:19271   */\n              0x476577696e6e20777572646520626572656974732065696e67657a61686c7400\n                /* \"#utility.yul\":19234:19235   */\n              0x00\n                /* \"#utility.yul\":19226:19232   */\n              dup3\n                /* \"#utility.yul\":19222:19236   */\n              add\n                /* \"#utility.yul\":19215:19272   */\n              mstore\n                /* \"#utility.yul\":19098:19279   */\n              pop\n              jump\t// out\n                /* \"#utility.yul\":19285:19651   */\n            tag_249:\n                /* \"#utility.yul\":19427:19430   */\n              0x00\n                /* \"#utility.yul\":19448:19515   */\n              tag_421\n                /* \"#utility.yul\":19512:19514   */\n              0x1f\n                /* \"#utility.yul\":19507:19510   */\n              dup4\n                /* \"#utility.yul\":19448:19515   */\n              tag_215\n              jump\t// in\n            tag_421:\n                /* \"#utility.yul\":19441:19515   */\n              swap2\n              pop\n                /* \"#utility.yul\":19524:19617   */\n              tag_422\n                /* \"#utility.yul\":19613:19616   */\n              dup3\n                /* \"#utility.yul\":19524:19617   */\n              tag_248\n              jump\t// in\n            tag_422:\n                /* \"#utility.yul\":19642:19644   */\n              0x20\n                /* \"#utility.yul\":19637:19640   */\n              dup3\n                /* \"#utility.yul\":19633:19645   */\n              add\n                /* \"#utility.yul\":19626:19645   */\n              swap1\n              pop\n                /* \"#utility.yul\":19285:19651   */\n              swap2\n              swap1\n              pop\n              jump\t// out\n                /* \"#utility.yul\":19657:20076   */\n            tag_161:\n                /* \"#utility.yul\":19823:19827   */\n              0x00\n                /* \"#utility.yul\":19861:19863   */\n              0x20\n                /* \"#utility.yul\":19850:19859   */\n              dup3\n                /* \"#utility.yul\":19846:19864   */\n              add\n                /* \"#utility.yul\":19838:19864   */\n              swap1\n              pop\n                /* \"#utility.yul\":19910:19919   */\n              dup2\n                /* \"#utility.yul\":19904:19908   */\n              dup2\n                /* \"#utility.yul\":19900:19920   */\n              sub\n                /* \"#utility.yul\":19896:19897   */\n              0x00\n                /* \"#utility.yul\":19885:19894   */\n              dup4\n                /* \"#utility.yul\":19881:19898   */\n              add\n                /* \"#utility.yul\":19874:19921   */\n              mstore\n                /* \"#utility.yul\":19938:20069   */\n              tag_424\n                /* \"#utility.yul\":20064:20068   */\n              dup2\n                /* \"#utility.yul\":19938:20069   */\n              tag_249\n              jump\t// in\n            tag_424:\n                /* \"#utility.yul\":19930:20069   */\n              swap1\n              pop\n                /* \"#utility.yul\":19657:20076   */\n              swap2\n              swap1\n              pop\n              jump\t// out\n                /* \"#utility.yul\":20082:20159   */\n            tag_250:\n                /* \"#utility.yul\":20119:20126   */\n              0x00\n                /* \"#utility.yul\":20148:20153   */\n              dup2\n                /* \"#utility.yul\":20137:20153   */\n              swap1\n              pop\n                /* \"#utility.yul\":20082:20159   */\n              swap2\n              swap1\n              pop\n              jump\t// out\n                /* \"#utility.yul\":20165:20359   */\n            tag_165:\n                /* \"#utility.yul\":20205:20209   */\n              0x00\n                /* \"#utility.yul\":20225:20245   */\n              tag_427\n                /* \"#utility.yul\":20243:20244   */\n              dup3\n                /* \"#utility.yul\":20225:20245   */\n              tag_250\n              jump\t// in\n            tag_427:\n                /* \"#utility.yul\":20220:20245   */\n              swap2\n              pop\n                /* \"#utility.yul\":20259:20279   */\n              tag_428\n                /* \"#utility.yul\":20277:20278   */\n              dup4\n                /* \"#utility.yul\":20259:20279   */\n              tag_250\n              jump\t// in\n            tag_428:\n                /* \"#utility.yul\":20254:20279   */\n              swap3\n              pop\n                /* \"#utility.yul\":20303:20304   */\n              dup3\n                /* \"#utility.yul\":20300:20301   */\n              dup3\n                /* \"#utility.yul\":20296:20305   */\n              sub\n                /* \"#utility.yul\":20288:20305   */\n              swap1\n              pop\n                /* \"#utility.yul\":20327:20328   */\n              dup2\n                /* \"#utility.yul\":20321:20325   */\n              dup2\n                /* \"#utility.yul\":20318:20329   */\n              gt\n                /* \"#utility.yul\":20315:20352   */\n              iszero\n              tag_429\n              jumpi\n                /* \"#utility.yul\":20332:20350   */\n              tag_430\n              tag_239\n              jump\t// in\n            tag_430:\n                /* \"#utility.yul\":20315:20352   */\n            tag_429:\n                /* \"#utility.yul\":20165:20359   */\n              swap3\n              swap2\n              pop\n              pop\n              jump\t// out\n                /* \"#utility.yul\":20365:20536   */\n            tag_167:\n                /* \"#utility.yul\":20403:20406   */\n              0x00\n                /* \"#utility.yul\":20426:20449   */\n              tag_432\n                /* \"#utility.yul\":20443:20448   */\n              dup3\n                /* \"#utility.yul\":20426:20449   */\n              tag_209\n              jump\t// in\n            tag_432:\n                /* \"#utility.yul\":20417:20449   */\n              swap2\n              pop\n                /* \"#utility.yul\":20471:20477   */\n              0xffff\n                /* \"#utility.yul\":20464:20469   */\n              dup3\n                /* \"#utility.yul\":20461:20478   */\n              sub\n                /* \"#utility.yul\":20458:20501   */\n              tag_433\n              jumpi\n                /* \"#utility.yul\":20481:20499   */\n              tag_434\n              tag_239\n              jump\t// in\n            tag_434:\n                /* \"#utility.yul\":20458:20501   */\n            tag_433:\n                /* \"#utility.yul\":20528:20529   */\n              0x01\n                /* \"#utility.yul\":20521:20526   */\n              dup3\n                /* \"#utility.yul\":20517:20530   */\n              add\n                /* \"#utility.yul\":20510:20530   */\n              swap1\n              pop\n                /* \"#utility.yul\":20365:20536   */\n              swap2\n              swap1\n              pop\n              jump\t// out\n                /* \"#utility.yul\":20542:20771   */\n            tag_251:\n                /* \"#utility.yul\":20682:20716   */\n              0x45696e7a61686c756e6773626574726167206d7573732067726f657373657220\n                /* \"#utility.yul\":20678:20679   */\n              0x00\n                /* \"#utility.yul\":20670:20676   */\n              dup3\n                /* \"#utility.yul\":20666:20680   */\n              add\n                /* \"#utility.yul\":20659:20717   */\n              mstore\n                /* \"#utility.yul\":20751:20763   */\n              0x616c732030207365696e00000000000000000000000000000000000000000000\n                /* \"#utility.yul\":20746:20748   */\n              0x20\n                /* \"#utility.yul\":20738:20744   */\n              dup3\n                /* \"#utility.yul\":20734:20749   */\n              add\n                /* \"#utility.yul\":20727:20764   */\n              mstore\n                /* \"#utility.yul\":20542:20771   */\n              pop\n              jump\t// out\n                /* \"#utility.yul\":20777:21143   */\n            tag_252:\n                /* \"#utility.yul\":20919:20922   */\n              0x00\n                /* \"#utility.yul\":20940:21007   */\n              tag_437\n                /* \"#utility.yul\":21004:21006   */\n              0x2a\n                /* \"#utility.yul\":20999:21002   */\n              dup4\n                /* \"#utility.yul\":20940:21007   */\n              tag_215\n              jump\t// in\n            tag_437:\n                /* \"#utility.yul\":20933:21007   */\n              swap2\n              pop\n                /* \"#utility.yul\":21016:21109   */\n              tag_438\n                /* \"#utility.yul\":21105:21108   */\n              dup3\n                /* \"#utility.yul\":21016:21109   */\n              tag_251\n              jump\t// in\n            tag_438:\n                /* \"#utility.yul\":21134:21136   */\n              0x40\n                /* \"#utility.yul\":21129:21132   */\n              dup3\n                /* \"#utility.yul\":21125:21137   */\n              add\n                /* \"#utility.yul\":21118:21137   */\n              swap1\n              pop\n                /* \"#utility.yul\":20777:21143   */\n              swap2\n              swap1\n              pop\n              jump\t// out\n                /* \"#utility.yul\":21149:21568   */\n            tag_176:\n                /* \"#utility.yul\":21315:21319   */\n              0x00\n                /* \"#utility.yul\":21353:21355   */\n              0x20\n                /* \"#utility.yul\":21342:21351   */\n              dup3\n                /* \"#utility.yul\":21338:21356   */\n              add\n                /* \"#utility.yul\":21330:21356   */\n              swap1\n              pop\n                /* \"#utility.yul\":21402:21411   */\n              dup2\n                /* \"#utility.yul\":21396:21400   */\n              dup2\n                /* \"#utility.yul\":21392:21412   */\n              sub\n                /* \"#utility.yul\":21388:21389   */\n              0x00\n                /* \"#utility.yul\":21377:21386   */\n              dup4\n                /* \"#utility.yul\":21373:21390   */\n              add\n                /* \"#utility.yul\":21366:21413   */\n              mstore\n                /* \"#utility.yul\":21430:21561   */\n              tag_440\n                /* \"#utility.yul\":21556:21560   */\n              dup2\n                /* \"#utility.yul\":21430:21561   */\n              tag_252\n              jump\t// in\n            tag_440:\n                /* \"#utility.yul\":21422:21561   */\n              swap1\n              pop\n                /* \"#utility.yul\":21149:21568   */\n              swap2\n              swap1\n              pop\n              jump\t// out\n                /* \"#utility.yul\":21574:21756   */\n            tag_253:\n                /* \"#utility.yul\":21714:21748   */\n              0x476577696e6e20777572646520626572656974732065696e67657a61686c742e\n                /* \"#utility.yul\":21710:21711   */\n              0x00\n                /* \"#utility.yul\":21702:21708   */\n              dup3\n                /* \"#utility.yul\":21698:21712   */\n              add\n                /* \"#utility.yul\":21691:21749   */\n              mstore\n                /* \"#utility.yul\":21574:21756   */\n              pop\n              jump\t// out\n                /* \"#utility.yul\":21762:22128   */\n            tag_254:\n                /* \"#utility.yul\":21904:21907   */\n              0x00\n                /* \"#utility.yul\":21925:21992   */\n              tag_443\n                /* \"#utility.yul\":21989:21991   */\n              0x20\n                /* \"#utility.yul\":21984:21987   */\n              dup4\n                /* \"#utility.yul\":21925:21992   */\n              tag_215\n              jump\t// in\n            tag_443:\n                /* \"#utility.yul\":21918:21992   */\n              swap2\n              pop\n                /* \"#utility.yul\":22001:22094   */\n              tag_444\n                /* \"#utility.yul\":22090:22093   */\n              dup3\n                /* \"#utility.yul\":22001:22094   */\n              tag_253\n              jump\t// in\n            tag_444:\n                /* \"#utility.yul\":22119:22121   */\n              0x20\n                /* \"#utility.yul\":22114:22117   */\n              dup3\n                /* \"#utility.yul\":22110:22122   */\n              add\n                /* \"#utility.yul\":22103:22122   */\n              swap1\n              pop\n                /* \"#utility.yul\":21762:22128   */\n              swap2\n              swap1\n              pop\n              jump\t// out\n                /* \"#utility.yul\":22134:22553   */\n            tag_179:\n                /* \"#utility.yul\":22300:22304   */\n              0x00\n                /* \"#utility.yul\":22338:22340   */\n              0x20\n                /* \"#utility.yul\":22327:22336   */\n              dup3\n                /* \"#utility.yul\":22323:22341   */\n              add\n                /* \"#utility.yul\":22315:22341   */\n              swap1\n              pop\n                /* \"#utility.yul\":22387:22396   */\n              dup2\n                /* \"#utility.yul\":22381:22385   */\n              dup2\n                /* \"#utility.yul\":22377:22397   */\n              sub\n                /* \"#utility.yul\":22373:22374   */\n              0x00\n                /* \"#utility.yul\":22362:22371   */\n              dup4\n                /* \"#utility.yul\":22358:22375   */\n              add\n                /* \"#utility.yul\":22351:22398   */\n              mstore\n                /* \"#utility.yul\":22415:22546   */\n              tag_446\n                /* \"#utility.yul\":22541:22545   */\n              dup2\n                /* \"#utility.yul\":22415:22546   */\n              tag_254\n              jump\t// in\n            tag_446:\n                /* \"#utility.yul\":22407:22546   */\n              swap1\n              pop\n                /* \"#utility.yul\":22134:22553   */\n              swap2\n              swap1\n              pop\n              jump\t// out\n                /* \"#utility.yul\":22559:22741   */\n            tag_181:\n                /* \"#utility.yul\":22598:22599   */\n              0x00\n                /* \"#utility.yul\":22615:22634   */\n              tag_448\n                /* \"#utility.yul\":22632:22633   */\n              dup3\n                /* \"#utility.yul\":22615:22634   */\n              tag_194\n              jump\t// in\n            tag_448:\n                /* \"#utility.yul\":22610:22634   */\n              swap2\n              pop\n                /* \"#utility.yul\":22648:22667   */\n              tag_449\n                /* \"#utility.yul\":22665:22666   */\n              dup4\n                /* \"#utility.yul\":22648:22667   */\n              tag_194\n              jump\t// in\n            tag_449:\n                /* \"#utility.yul\":22643:22667   */\n              swap3\n              pop\n                /* \"#utility.yul\":22686:22687   */\n              dup3\n                /* \"#utility.yul\":22676:22711   */\n              tag_450\n              jumpi\n                /* \"#utility.yul\":22691:22709   */\n              tag_451\n              tag_238\n              jump\t// in\n            tag_451:\n                /* \"#utility.yul\":22676:22711   */\n            tag_450:\n                /* \"#utility.yul\":22733:22734   */\n              dup3\n                /* \"#utility.yul\":22730:22731   */\n              dup3\n                /* \"#utility.yul\":22726:22735   */\n              div\n                /* \"#utility.yul\":22721:22735   */\n              swap1\n              pop\n                /* \"#utility.yul\":22559:22741   */\n              swap3\n              swap2\n              pop\n              pop\n              jump\t// out\n                /* \"#utility.yul\":22747:22927   */\n            tag_255:\n                /* \"#utility.yul\":22795:22872   */\n              0x4e487b7100000000000000000000000000000000000000000000000000000000\n                /* \"#utility.yul\":22792:22793   */\n              0x00\n                /* \"#utility.yul\":22785:22873   */\n              mstore\n                /* \"#utility.yul\":22892:22896   */\n              0x22\n                /* \"#utility.yul\":22889:22890   */\n              0x04\n                /* \"#utility.yul\":22882:22897   */\n              mstore\n                /* \"#utility.yul\":22916:22920   */\n              0x24\n                /* \"#utility.yul\":22913:22914   */\n              0x00\n                /* \"#utility.yul\":22906:22921   */\n              revert\n                /* \"#utility.yul\":22933:23253   */\n            tag_183:\n                /* \"#utility.yul\":22977:22983   */\n              0x00\n                /* \"#utility.yul\":23014:23015   */\n              0x02\n                /* \"#utility.yul\":23008:23012   */\n              dup3\n                /* \"#utility.yul\":23004:23016   */\n              div\n                /* \"#utility.yul\":22994:23016   */\n              swap1\n              pop\n                /* \"#utility.yul\":23061:23062   */\n              0x01\n                /* \"#utility.yul\":23055:23059   */\n              dup3\n                /* \"#utility.yul\":23051:23063   */\n              and\n                /* \"#utility.yul\":23082:23100   */\n              dup1\n                /* \"#utility.yul\":23072:23153   */\n              tag_454\n              jumpi\n                /* \"#utility.yul\":23138:23142   */\n              0x7f\n                /* \"#utility.yul\":23130:23136   */\n              dup3\n                /* \"#utility.yul\":23126:23143   */\n              and\n                /* \"#utility.yul\":23116:23143   */\n              swap2\n              pop\n                /* \"#utility.yul\":23072:23153   */\n            tag_454:\n                /* \"#utility.yul\":23200:23202   */\n              0x20\n                /* \"#utility.yul\":23192:23198   */\n              dup3\n                /* \"#utility.yul\":23189:23203   */\n              lt\n                /* \"#utility.yul\":23169:23187   */\n              dup2\n                /* \"#utility.yul\":23166:23204   */\n              sub\n                /* \"#utility.yul\":23163:23247   */\n              tag_455\n              jumpi\n                /* \"#utility.yul\":23219:23237   */\n              tag_456\n              tag_255\n              jump\t// in\n            tag_456:\n                /* \"#utility.yul\":23163:23247   */\n            tag_455:\n                /* \"#utility.yul\":22984:23253   */\n              pop\n                /* \"#utility.yul\":22933:23253   */\n              swap2\n              swap1\n              pop\n              jump\t// out\n                /* \"#utility.yul\":23259:23567   */\n            tag_256:\n                /* \"#utility.yul\":23399:23433   */\n              0x457320676962742062657265697473204d6974737069656c65722e2041656e64\n                /* \"#utility.yul\":23395:23396   */\n              0x00\n                /* \"#utility.yul\":23387:23393   */\n              dup3\n                /* \"#utility.yul\":23383:23397   */\n              add\n                /* \"#utility.yul\":23376:23434   */\n              mstore\n                /* \"#utility.yul\":23468:23502   */\n              0x6572756e672064657220416e7a61686c20616e204d6974737069656c65726e20\n                /* \"#utility.yul\":23463:23465   */\n              0x20\n                /* \"#utility.yul\":23455:23461   */\n              dup3\n                /* \"#utility.yul\":23451:23466   */\n              add\n                /* \"#utility.yul\":23444:23503   */\n              mstore\n                /* \"#utility.yul\":23537:23559   */\n              0x6e69636874206d656872206d6f65676c6963682e000000000000000000000000\n                /* \"#utility.yul\":23532:23534   */\n              0x40\n                /* \"#utility.yul\":23524:23530   */\n              dup3\n                /* \"#utility.yul\":23520:23535   */\n              add\n                /* \"#utility.yul\":23513:23560   */\n              mstore\n                /* \"#utility.yul\":23259:23567   */\n              pop\n              jump\t// out\n                /* \"#utility.yul\":23573:23939   */\n            tag_257:\n                /* \"#utility.yul\":23715:23718   */\n              0x00\n                /* \"#utility.yul\":23736:23803   */\n              tag_459\n                /* \"#utility.yul\":23800:23802   */\n              0x54\n                /* \"#utility.yul\":23795:23798   */\n              dup4\n                /* \"#utility.yul\":23736:23803   */\n              tag_215\n              jump\t// in\n            tag_459:\n                /* \"#utility.yul\":23729:23803   */\n              swap2\n              pop\n                /* \"#utility.yul\":23812:23905   */\n              tag_460\n                /* \"#utility.yul\":23901:23904   */\n              dup3\n                /* \"#utility.yul\":23812:23905   */\n              tag_256\n              jump\t// in\n            tag_460:\n                /* \"#utility.yul\":23930:23932   */\n              0x60\n                /* \"#utility.yul\":23925:23928   */\n              dup3\n                /* \"#utility.yul\":23921:23933   */\n              add\n                /* \"#utility.yul\":23914:23933   */\n              swap1\n              pop\n                /* \"#utility.yul\":23573:23939   */\n              swap2\n              swap1\n              pop\n              jump\t// out\n                /* \"#utility.yul\":23945:24364   */\n            tag_193:\n                /* \"#utility.yul\":24111:24115   */\n              0x00\n                /* \"#utility.yul\":24149:24151   */\n              0x20\n                /* \"#utility.yul\":24138:24147   */\n              dup3\n                /* \"#utility.yul\":24134:24152   */\n              add\n                /* \"#utility.yul\":24126:24152   */\n              swap1\n              pop\n                /* \"#utility.yul\":24198:24207   */\n              dup2\n                /* \"#utility.yul\":24192:24196   */\n              dup2\n                /* \"#utility.yul\":24188:24208   */\n              sub\n                /* \"#utility.yul\":24184:24185   */\n              0x00\n                /* \"#utility.yul\":24173:24182   */\n              dup4\n                /* \"#utility.yul\":24169:24186   */\n              add\n                /* \"#utility.yul\":24162:24209   */\n              mstore\n                /* \"#utility.yul\":24226:24357   */\n              tag_462\n                /* \"#utility.yul\":24352:24356   */\n              dup2\n                /* \"#utility.yul\":24226:24357   */\n              tag_257\n              jump\t// in\n            tag_462:\n                /* \"#utility.yul\":24218:24357   */\n              swap1\n              pop\n                /* \"#utility.yul\":23945:24364   */\n              swap2\n              swap1\n              pop\n              jump\t// out\n\n            auxdata: 0xa264697066735822122063e387194275da689e64f02a0702c75387f847b7c73aa9c0e24f597885f3875164736f6c63430008170033\n        }\n    }\n\n    auxdata: 0xa2646970667358221220320d02aff88cb35ef84ccaeae4f6d6fd749eb13ba5f41b1fca3061e462c5c72b64736f6c63430008170033\n}\n","bytecode":{"linkReferences":{},"object":"608060405234801561000f575f80fd5b50613e3e8061001d5f395ff3fe608060405234801562000010575f80fd5b506004361062000068575f3560e01c806333abbcbc146200006c5780634fd6f68c146200008e578063535da87c14620000ae57806395097fe114620000d0578063ad6eb6d91462000106578063fb670056146200013c575b5f80fd5b6200007662000172565b604051620000859190620008b7565b60405180910390f35b620000ac6004803603810190620000a6919062000b26565b62000250565b005b620000b86200058e565b604051620000c7919062000cc2565b60405180910390f35b620000ee6004803603810190620000e8919062000ce4565b6200061a565b604051620000fd919062000d57565b60405180910390f35b6200012460048036038101906200011e919062000daa565b62000662565b60405162000133919062000e2a565b60405180910390f35b6200015a600480360381019062000154919062000daa565b62000711565b60405162000169919062000e5d565b60405180910390f35b60606001805480602002602001604051908101604052809291908181526020015f905b8282101562000247578382905f5260205f20018054620001b59062000ea5565b80601f0160208091040260200160405190810160405280929190818152602001828054620001e39062000ea5565b8015620002325780601f10620002085761010080835404028352916020019162000232565b820191905f5260205f20905b8154815290600101906020018083116200021457829003601f168201915b50505050508152602001906001019062000195565b50505050905090565b5f85511162000296576040517f08c379a00000000000000000000000000000000000000000000000000000000081526004016200028d9062000f27565b60405180910390fd5b5f8461ffff1611620002df576040517f08c379a0000000000000000000000000000000000000000000000000000000008152600401620002d69062000f95565b60405180910390fd5b61ffff8461ffff16106200032a576040517f08c379a0000000000000000000000000000000000000000000000000000000008152600401620003219062001029565b60405180910390fd5b5f8363ffffffff161162000375576040517f08c379a00000000000000000000000000000000000000000000000000000000081526004016200036c9062001097565b60405180910390fd5b63ffffffff8363ffffffff1610620003c4576040517f08c379a0000000000000000000000000000000000000000000000000000000008152600401620003bb906200112b565b60405180910390fd5b65ffffffffffff8265ffffffffffff161062000417576040517f08c379a00000000000000000000000000000000000000000000000000000000081526004016200040e90620011bf565b60405180910390fd5b5f8533868686866040516200042c906200074c565b6200043d9695949392919062001223565b604051809103905ff08015801562000457573d5f803e3d5ffd5b5090505f81908060018154018082558091505060019003905f5260205f20015f9091909190916101000a81548173ffffffffffffffffffffffffffffffffffffffff021916908373ffffffffffffffffffffffffffffffffffffffff160217905550600186908060018154018082558091505060019003905f5260205f20015f909190919091509081620004ec919062001458565b50806002876040516200050091906200157c565b90815260200160405180910390205f6101000a81548173ffffffffffffffffffffffffffffffffffffffff021916908373ffffffffffffffffffffffffffffffffffffffff1602179055507f5f745e716eea01cc31d0e70c2af2ecc8792f321db40cbcd16b2c9d2ae97cb5f281876040516200057e92919062001594565b60405180910390a1505050505050565b60605f8054806020026020016040519081016040528092919081815260200182805480156200061057602002820191905f5260205f20905b815f9054906101000a900473ffffffffffffffffffffffffffffffffffffffff1673ffffffffffffffffffffffffffffffffffffffff1681526020019060010190808311620005c6575b5050505050905090565b6002818051602081018201805184825260208301602085012081835280955050505050505f915054906101000a900473ffffffffffffffffffffffffffffffffffffffff1681565b6001818154811062000672575f80fd5b905f5260205f20015f9150905080546200068c9062000ea5565b80601f0160208091040260200160405190810160405280929190818152602001828054620006ba9062000ea5565b8015620007095780601f10620006df5761010080835404028352916020019162000709565b820191905f5260205f20905b815481529060010190602001808311620006eb57829003601f168201915b505050505081565b5f818154811062000720575f80fd5b905f5260205f20015f915054906101000a900473ffffffffffffffffffffffffffffffffffffffff1681565b61284280620015c783390190565b5f81519050919050565b5f82825260208201905092915050565b5f819050602082019050919050565b5f81519050919050565b5f82825260208201905092915050565b5f5b83811015620007bc5780820151818401526020810190506200079f565b5f8484015250505050565b5f601f19601f8301169050919050565b5f620007e38262000783565b620007ef81856200078d565b9350620008018185602086016200079d565b6200080c81620007c7565b840191505092915050565b5f620008248383620007d7565b905092915050565b5f602082019050919050565b5f62000844826200075a565b62000850818562000764565b935083602082028501620008648562000774565b805f5b85811015620008a5578484038952815162000883858262000817565b945062000890836200082c565b925060208a0199505060018101905062000867565b50829750879550505050505092915050565b5f6020820190508181035f830152620008d1818462000838565b905092915050565b5f604051905090565b5f80fd5b5f80fd5b5f80fd5b5f80fd5b7f4e487b71000000000000000000000000000000000000000000000000000000005f52604160045260245ffd5b6200092a82620007c7565b810181811067ffffffffffffffff821117156200094c576200094b620008f2565b5b80604052505050565b5f62000960620008d9565b90506200096e82826200091f565b919050565b5f67ffffffffffffffff82111562000990576200098f620008f2565b5b6200099b82620007c7565b9050602081019050919050565b828183375f83830152505050565b5f620009cc620009c68462000973565b62000955565b905082815260208101848484011115620009eb57620009ea620008ee565b5b620009f8848285620009a8565b509392505050565b5f82601f83011262000a175762000a16620008ea565b5b813562000a29848260208601620009b6565b91505092915050565b5f61ffff82169050919050565b62000a4a8162000a32565b811462000a55575f80fd5b50565b5f8135905062000a688162000a3f565b92915050565b5f63ffffffff82169050919050565b62000a888162000a6e565b811462000a93575f80fd5b50565b5f8135905062000aa68162000a7d565b92915050565b5f65ffffffffffff82169050919050565b62000ac88162000aac565b811462000ad3575f80fd5b50565b5f8135905062000ae68162000abd565b92915050565b5f8115159050919050565b62000b028162000aec565b811462000b0d575f80fd5b50565b5f8135905062000b208162000af7565b92915050565b5f805f805f60a0868803121562000b425762000b41620008e2565b5b5f86013567ffffffffffffffff81111562000b625762000b61620008e6565b5b62000b708882890162000a00565b955050602062000b838882890162000a58565b945050604062000b968882890162000a96565b935050606062000ba98882890162000ad6565b925050608062000bbc8882890162000b10565b9150509295509295909350565b5f81519050919050565b5f82825260208201905092915050565b5f819050602082019050919050565b5f73ffffffffffffffffffffffffffffffffffffffff82169050919050565b5f62000c1d8262000bf2565b9050919050565b62000c2f8162000c11565b82525050565b5f62000c42838362000c24565b60208301905092915050565b5f602082019050919050565b5f62000c668262000bc9565b62000c72818562000bd3565b935062000c7f8362000be3565b805f5b8381101562000cb557815162000c99888262000c35565b975062000ca68362000c4e565b92505060018101905062000c82565b5085935050505092915050565b5f6020820190508181035f83015262000cdc818462000c5a565b905092915050565b5f6020828403121562000cfc5762000cfb620008e2565b5b5f82013567ffffffffffffffff81111562000d1c5762000d1b620008e6565b5b62000d2a8482850162000a00565b91505092915050565b5f62000d3f8262000bf2565b9050919050565b62000d518162000d33565b82525050565b5f60208201905062000d6c5f83018462000d46565b92915050565b5f819050919050565b62000d868162000d72565b811462000d91575f80fd5b50565b5f8135905062000da48162000d7b565b92915050565b5f6020828403121562000dc25762000dc1620008e2565b5b5f62000dd18482850162000d94565b91505092915050565b5f82825260208201905092915050565b5f62000df68262000783565b62000e02818562000dda565b935062000e148185602086016200079d565b62000e1f81620007c7565b840191505092915050565b5f6020820190508181035f83015262000e44818462000dea565b905092915050565b62000e578162000c11565b82525050565b5f60208201905062000e725f83018462000e4c565b92915050565b7f4e487b71000000000000000000000000000000000000000000000000000000005f52602260045260245ffd5b5f600282049050600182168062000ebd57607f821691505b60208210810362000ed35762000ed262000e78565b5b50919050565b7f4e616d652064617266206e69636874206c656572207365696e000000000000005f82015250565b5f62000f0f60198362000dda565b915062000f1c8262000ed9565b602082019050919050565b5f6020820190508181035f83015262000f408162000f01565b9050919050565b7f416e7a61686c206d7573732067726f657373657220616c732030207365696e005f82015250565b5f62000f7d601f8362000dda565b915062000f8a8262000f47565b602082019050919050565b5f6020820190508181035f83015262000fae8162000f6f565b9050919050565b7f416e7a61686c206d757373206b6c65696e657220616c732036353533352073655f8201527f696e000000000000000000000000000000000000000000000000000000000000602082015250565b5f6200101160228362000dda565b91506200101e8262000fb5565b604082019050919050565b5f6020820190508181035f830152620010428162001003565b9050919050565b7f5072656973206d7573732067726f657373657220616c732030207365696e00005f82015250565b5f6200107f601e8362000dda565b91506200108c8262001049565b602082019050919050565b5f6020820190508181035f830152620010b08162001071565b9050919050565b7f5072656973206d757373206b6c65696e657220616c73203432393439363732395f8201527f35207365696e0000000000000000000000000000000000000000000000000000602082015250565b5f6200111360268362000dda565b91506200112082620010b7565b604082019050919050565b5f6020820190508181035f830152620011448162001105565b9050919050565b7f53636865696e4e756d6d6572206d757373207a7769736368656e203020756e645f8201527f20323831343734393736373130363535207365696e0000000000000000000000602082015250565b5f620011a760358362000dda565b9150620011b4826200114b565b604082019050919050565b5f6020820190508181035f830152620011d88162001199565b9050919050565b620011ea8162000a32565b82525050565b620011fb8162000a6e565b82525050565b6200120c8162000aac565b82525050565b6200121d8162000aec565b82525050565b5f60c0820190508181035f8301526200123d818962000dea565b90506200124e602083018862000d46565b6200125d6040830187620011df565b6200126c6060830186620011f0565b6200127b608083018562001201565b6200128a60a083018462001212565b979650505050505050565b5f819050815f5260205f209050919050565b5f6020601f8301049050919050565b5f82821b905092915050565b5f60088302620012f37fffffffffffffffffffffffffffffffffffffffffffffffffffffffffffffffff82620012b6565b620012ff8683620012b6565b95508019841693508086168417925050509392505050565b5f819050919050565b5f620013406200133a620013348462000d72565b62001317565b62000d72565b9050919050565b5f819050919050565b6200135b8362001320565b620013736200136a8262001347565b848454620012c2565b825550505050565b5f90565b620013896200137b565b6200139681848462001350565b505050565b5b81811015620013bd57620013b15f826200137f565b6001810190506200139c565b5050565b601f8211156200140c57620013d68162001295565b620013e184620012a7565b81016020851015620013f1578190505b620014096200140085620012a7565b8301826200139b565b50505b505050565b5f82821c905092915050565b5f6200142e5f198460080262001411565b1980831691505092915050565b5f6200144883836200141d565b9150826002028217905092915050565b620014638262000783565b67ffffffffffffffff8111156200147f576200147e620008f2565b5b6200148b825462000ea5565b62001498828285620013c1565b5f60209050601f831160018114620014ce575f8415620014b9578287015190505b620014c585826200143b565b86555062001534565b601f198416620014de8662001295565b5f5b828110156200150757848901518255600182019150602085019450602081019050620014e0565b8683101562001527578489015162001523601f8916826200141d565b8355505b6001600288020188555050505b505050505050565b5f81905092915050565b5f620015528262000783565b6200155e81856200153c565b9350620015708185602086016200079d565b80840191505092915050565b5f62001589828462001546565b915081905092915050565b5f604082019050620015a95f83018562000d46565b8181036020830152620015bd818462000dea565b9050939250505056fe60806040525f600560026101000a81548165ffffffffffff021916908365ffffffffffff1602179055505f600560086101000a81548160ff0219169083151502179055505f600560096101000a81548160ff02191690831515021790555034801562000069575f80fd5b50604051620028423803806200284283398181016040528101906200008f91906200055c565b61ffff8461ffff1610620000da576040517f08c379a0000000000000000000000000000000000000000000000000000000008152600401620000d19062000671565b60405180910390fd5b63ffffffff8363ffffffff161062000129576040517f08c379a00000000000000000000000000000000000000000000000000000000081526004016200012090620006df565b60405180910390fd5b845f806101000a81548173ffffffffffffffffffffffffffffffffffffffff021916908373ffffffffffffffffffffffffffffffffffffffff160217905550856001908162000179919062000936565b508360025f6101000a81548161ffff021916908361ffff160217905550826002806101000a81548163ffffffff021916908363ffffffff16021790555080600560096101000a81548160ff021916908315150217905550816002600a6101000a81548165ffffffffffff021916908365ffffffffffff160217905550670de0b6b3a764000060025f9054906101000a900461ffff1661ffff16670de0b6b3a764000060028054906101000a900463ffffffff1663ffffffff166200023e919062000a47565b6200024a919062000abe565b62000256919062000abe565b600260066101000a81548163ffffffff021916908363ffffffff16021790555050505050505062000af5565b5f604051905090565b5f80fd5b5f80fd5b5f80fd5b5f80fd5b5f601f19601f8301169050919050565b7f4e487b71000000000000000000000000000000000000000000000000000000005f52604160045260245ffd5b620002e3826200029b565b810181811067ffffffffffffffff82111715620003055762000304620002ab565b5b80604052505050565b5f6200031962000282565b9050620003278282620002d8565b919050565b5f67ffffffffffffffff821115620003495762000348620002ab565b5b62000354826200029b565b9050602081019050919050565b5f5b838110156200038057808201518184015260208101905062000363565b5f8484015250505050565b5f620003a16200039b846200032c565b6200030e565b905082815260208101848484011115620003c057620003bf62000297565b5b620003cd84828562000361565b509392505050565b5f82601f830112620003ec57620003eb62000293565b5b8151620003fe8482602086016200038b565b91505092915050565b5f73ffffffffffffffffffffffffffffffffffffffff82169050919050565b5f620004328262000407565b9050919050565b620004448162000426565b81146200044f575f80fd5b50565b5f81519050620004628162000439565b92915050565b5f61ffff82169050919050565b620004808162000468565b81146200048b575f80fd5b50565b5f815190506200049e8162000475565b92915050565b5f63ffffffff82169050919050565b620004be81620004a4565b8114620004c9575f80fd5b50565b5f81519050620004dc81620004b3565b92915050565b5f65ffffffffffff82169050919050565b620004fe81620004e2565b811462000509575f80fd5b50565b5f815190506200051c81620004f3565b92915050565b5f8115159050919050565b620005388162000522565b811462000543575f80fd5b50565b5f8151905062000556816200052d565b92915050565b5f805f805f8060c087890312156200057957620005786200028b565b5b5f87015167ffffffffffffffff8111156200059957620005986200028f565b5b620005a789828a01620003d5565b9650506020620005ba89828a0162000452565b9550506040620005cd89828a016200048e565b9450506060620005e089828a01620004cc565b9350506080620005f389828a016200050c565b92505060a06200060689828a0162000546565b9150509295509295509295565b5f82825260208201905092915050565b7f4d6178696d616c203635353334204d6974737069656c65722065726c617562745f82015250565b5f6200065960208362000613565b9150620006668262000623565b602082019050919050565b5f6020820190508181035f8301526200068a816200064b565b9050919050565b7f4d6178696d616c657220507265697320343239343936373239350000000000005f82015250565b5f620006c7601a8362000613565b9150620006d48262000691565b602082019050919050565b5f6020820190508181035f830152620006f881620006b9565b9050919050565b5f81519050919050565b7f4e487b71000000000000000000000000000000000000000000000000000000005f52602260045260245ffd5b5f60028204905060018216806200074e57607f821691505b60208210810362000764576200076362000709565b5b50919050565b5f819050815f5260205f209050919050565b5f6020601f8301049050919050565b5f82821b905092915050565b5f60088302620007c87fffffffffffffffffffffffffffffffffffffffffffffffffffffffffffffffff826200078b565b620007d486836200078b565b95508019841693508086168417925050509392505050565b5f819050919050565b5f819050919050565b5f6200081e620008186200081284620007ec565b620007f5565b620007ec565b9050919050565b5f819050919050565b6200083983620007fe565b62000851620008488262000825565b84845462000797565b825550505050565b5f90565b6200086762000859565b620008748184846200082e565b505050565b5b818110156200089b576200088f5f826200085d565b6001810190506200087a565b5050565b601f821115620008ea57620008b4816200076a565b620008bf846200077c565b81016020851015620008cf578190505b620008e7620008de856200077c565b83018262000879565b50505b505050565b5f82821c905092915050565b5f6200090c5f1984600802620008ef565b1980831691505092915050565b5f620009268383620008fb565b9150826002028217905092915050565b6200094182620006ff565b67ffffffffffffffff8111156200095d576200095c620002ab565b5b62000969825462000736565b620009768282856200089f565b5f60209050601f831160018114620009ac575f841562000997578287015190505b620009a3858262000919565b86555062000a12565b601f198416620009bc866200076a565b5f5b82811015620009e557848901518255600182019150602085019450602081019050620009be565b8683101562000a05578489015162000a01601f891682620008fb565b8355505b6001600288020188555050505b505050505050565b7f4e487b71000000000000000000000000000000000000000000000000000000005f52601160045260245ffd5b5f62000a5382620007ec565b915062000a6083620007ec565b925082820262000a7081620007ec565b9150828204841483151762000a8a5762000a8962000a1a565b5b5092915050565b7f4e487b71000000000000000000000000000000000000000000000000000000005f52601260045260245ffd5b5f62000aca82620007ec565b915062000ad783620007ec565b92508262000aea5762000ae962000a91565b5b828204905092915050565b611d3f8062000b035f395ff3fe608060405260043610610113575f3560e01c8063437678321161009f578063b08c707611610063578063b08c70761461034f578063b609e68414610379578063c6ca9d19146103a3578063d27d06c0146103bf578063e068561a146103e957610113565b8063437678321461028d578063526024ea146102b557806370a41bc0146102bf57806391243239146102e9578063ad2c046c1461032557610113565b80632df368a5116100e65780632df368a5146101ab57806331c45120146101d557806336927060146101fd5780633babb15a146102395780633f0f5d511461026357610113565b8063084263f5146101175780630c96b701146101415780630f085e5014610157578063143b7caf14610181575b5f80fd5b348015610122575f80fd5b5061012b610411565b60405161013891906110f2565b60405180910390f35b34801561014c575f80fd5b50610155610429565b005b348015610162575f80fd5b5061016b61078f565b60405161017891906110f2565b60405180910390f35b34801561018c575f80fd5b506101956107a7565b6040516101a291906110f2565b60405180910390f35b3480156101b6575f80fd5b506101bf6107bf565b6040516101cc9190611129565b60405180910390f35b3480156101e0575f80fd5b506101fb60048036038101906101f69190611170565b6107d5565b005b348015610208575f80fd5b50610223600480360381019061021e91906111f5565b6108a3565b604051610230919061123a565b60405180910390f35b348015610244575f80fd5b5061024d6108c0565b60405161025a919061126f565b60405180910390f35b34801561026e575f80fd5b506102776108d3565b6040516102849190611129565b60405180910390f35b348015610298575f80fd5b506102b360048036038101906102ae91906111f5565b6108e7565b005b6102bd6109ea565b005b3480156102ca575f80fd5b506102d3610dac565b6040516102e0919061126f565b60405180910390f35b3480156102f4575f80fd5b5061030f600480360381019061030a91906111f5565b610dbf565b60405161031c919061123a565b60405180910390f35b348015610330575f80fd5b50610339610ddc565b6040516103469190611297565b60405180910390f35b34801561035a575f80fd5b50610363610dff565b604051610370919061123a565b60405180910390f35b348015610384575f80fd5b5061038d610e12565b60405161039a919061123a565b60405180910390f35b6103bd60048036038101906103b891906112da565b610e25565b005b3480156103ca575f80fd5b506103d3610f7c565b6040516103e0919061138f565b60405180910390f35b3480156103f4575f80fd5b5061040f600480360381019061040a91906113d9565b611008565b005b600260109054906101000a900465ffffffffffff1681565b60035f3373ffffffffffffffffffffffffffffffffffffffff1673ffffffffffffffffffffffffffffffffffffffff1681526020019081526020015f205f9054906101000a900460ff1661047b575f80fd5b60075f9054906101000a900460ff16156104ca576040517f08c379a00000000000000000000000000000000000000000000000000000000081526004016104c19061144e565b60405180910390fd5b600160075f6101000a81548160ff0219169083151502179055505f600560029054906101000a900465ffffffffffff1665ffffffffffff1611610542576040517f08c379a0000000000000000000000000000000000000000000000000000000008152600401610539906114b6565b60405180910390fd5b60035f3373ffffffffffffffffffffffffffffffffffffffff1673ffffffffffffffffffffffffffffffffffffffff1681526020019081526020015f205f9054906101000a900460ff166105cb576040517f08c379a00000000000000000000000000000000000000000000000000000000081526004016105c29061151e565b60405180910390fd5b60045f3373ffffffffffffffffffffffffffffffffffffffff1673ffffffffffffffffffffffffffffffffffffffff1681526020019081526020015f205f9054906101000a900460ff1615610655576040517f08c379a000000000000000000000000000000000000000000000000000000000815260040161064c906115ac565b60405180910390fd5b600160045f3373ffffffffffffffffffffffffffffffffffffffff1673ffffffffffffffffffffffffffffffffffffffff1681526020019081526020015f205f6101000a81548160ff0219169083151502179055505f600560029054906101000a900465ffffffffffff1665ffffffffffff1690505f3373ffffffffffffffffffffffffffffffffffffffff16826040516106ef906115f7565b5f6040518083038185875af1925050503d805f8114610729576040519150601f19603f3d011682016040523d82523d5f602084013e61072e565b606091505b5050905080610772576040517f08c379a00000000000000000000000000000000000000000000000000000000081526004016107699061167b565b60405180910390fd5b50505f60075f6101000a81548160ff021916908315150217905550565b600560029054906101000a900465ffffffffffff1681565b6002600a9054906101000a900465ffffffffffff1681565b600260069054906101000a900463ffffffff1681565b5f8054906101000a900473ffffffffffffffffffffffffffffffffffffffff1673ffffffffffffffffffffffffffffffffffffffff163373ffffffffffffffffffffffffffffffffffffffff161461082b575f80fd5b5f60055f9054906101000a900461ffff1661ffff1614610880576040517f08c379a000000000000000000000000000000000000000000000000000000000815260040161087790611709565b60405180910390fd5b806002806101000a81548163ffffffff021916908363ffffffff16021790555050565b6003602052805f5260405f205f915054906101000a900460ff1681565b60055f9054906101000a900461ffff1681565b60028054906101000a900463ffffffff1681565b5f8054906101000a900473ffffffffffffffffffffffffffffffffffffffff1673ffffffffffffffffffffffffffffffffffffffff163373ffffffffffffffffffffffffffffffffffffffff161461093d575f80fd5b5f60055f9054906101000a900461ffff1661ffff1614610992576040517f08c379a000000000000000000000000000000000000000000000000000000000815260040161098990611797565b60405180910390fd5b600160065f8373ffffffffffffffffffffffffffffffffffffffff1673ffffffffffffffffffffffffffffffffffffffff1681526020019081526020015f205f6101000a81548160ff02191690831515021790555050565b60025f9054906101000a900461ffff1661ffff1660028054906101000a900463ffffffff16610a19919061180f565b600260066101000a81548163ffffffff021916908363ffffffff1602179055505f600260069054906101000a900463ffffffff1663ffffffff1611610a93576040517f08c379a0000000000000000000000000000000000000000000000000000000008152600401610a8a90611889565b60405180910390fd5b600260069054906101000a900463ffffffff1663ffffffff16341015610aee576040517f08c379a0000000000000000000000000000000000000000000000000000000008152600401610ae5906118f1565b60405180910390fd5b60035f3373ffffffffffffffffffffffffffffffffffffffff1673ffffffffffffffffffffffffffffffffffffffff1681526020019081526020015f205f9054906101000a900460ff1615610b78576040517f08c379a0000000000000000000000000000000000000000000000000000000008152600401610b6f9061197f565b60405180910390fd5b60025f9054906101000a900461ffff1661ffff1660055f9054906101000a900461ffff1661ffff1610610be0576040517f08c379a0000000000000000000000000000000000000000000000000000000008152600401610bd7906119e7565b60405180910390fd5b5f600560029054906101000a900465ffffffffffff1665ffffffffffff1614610c3e576040517f08c379a0000000000000000000000000000000000000000000000000000000008152600401610c3590611a4f565b60405180910390fd5b600560099054906101000a900460ff1615610ca65760065f3373ffffffffffffffffffffffffffffffffffffffff1673ffffffffffffffffffffffffffffffffffffffff1681526020019081526020015f205f9054906101000a900460ff16610ca5575f80fd5b5b5f600260069054906101000a900463ffffffff1663ffffffff1634610ccb9190611a76565b9050600160035f3373ffffffffffffffffffffffffffffffffffffffff1673ffffffffffffffffffffffffffffffffffffffff1681526020019081526020015f205f6101000a81548160ff02191690831515021790555060055f81819054906101000a900461ffff1680929190610d4190611aa9565b91906101000a81548161ffff021916908361ffff160217905550505f811115610da9573373ffffffffffffffffffffffffffffffffffffffff166108fc8290811502906040515f60405180830381858888f19350505050158015610da7573d5f803e3d5ffd5b505b50565b60025f9054906101000a900461ffff1681565b6004602052805f5260405f205f915054906101000a900460ff1681565b5f8054906101000a900473ffffffffffffffffffffffffffffffffffffffff1681565b600560099054906101000a900460ff1681565b600560089054906101000a900460ff1681565b5f8054906101000a900473ffffffffffffffffffffffffffffffffffffffff1673ffffffffffffffffffffffffffffffffffffffff163373ffffffffffffffffffffffffffffffffffffffff1614610e7b575f80fd5b5f3411610ebd576040517f08c379a0000000000000000000000000000000000000000000000000000000008152600401610eb490611b42565b60405180910390fd5b5f600560029054906101000a900465ffffffffffff1665ffffffffffff1614610f1b576040517f08c379a0000000000000000000000000000000000000000000000000000000008152600401610f1290611baa565b60405180910390fd5b60055f9054906101000a900461ffff1661ffff1681610f3a9190611bc8565b600560026101000a81548165ffffffffffff021916908365ffffffffffff1602179055506001600560086101000a81548160ff02191690831515021790555050565b60018054610f8990611c25565b80601f0160208091040260200160405190810160405280929190818152602001828054610fb590611c25565b80156110005780601f10610fd757610100808354040283529160200191611000565b820191905f5260205f20905b815481529060010190602001808311610fe357829003601f168201915b505050505081565b5f8054906101000a900473ffffffffffffffffffffffffffffffffffffffff1673ffffffffffffffffffffffffffffffffffffffff163373ffffffffffffffffffffffffffffffffffffffff161461105e575f80fd5b5f60055f9054906101000a900461ffff1661ffff16146110b3576040517f08c379a00000000000000000000000000000000000000000000000000000000081526004016110aa90611ceb565b60405180910390fd5b8060025f6101000a81548161ffff021916908361ffff16021790555050565b5f65ffffffffffff82169050919050565b6110ec816110d2565b82525050565b5f6020820190506111055f8301846110e3565b92915050565b5f63ffffffff82169050919050565b6111238161110b565b82525050565b5f60208201905061113c5f83018461111a565b92915050565b5f80fd5b61114f8161110b565b8114611159575f80fd5b50565b5f8135905061116a81611146565b92915050565b5f6020828403121561118557611184611142565b5b5f6111928482850161115c565b91505092915050565b5f73ffffffffffffffffffffffffffffffffffffffff82169050919050565b5f6111c48261119b565b9050919050565b6111d4816111ba565b81146111de575f80fd5b50565b5f813590506111ef816111cb565b92915050565b5f6020828403121561120a57611209611142565b5b5f611217848285016111e1565b91505092915050565b5f8115159050919050565b61123481611220565b82525050565b5f60208201905061124d5f83018461122b565b92915050565b5f61ffff82169050919050565b61126981611253565b82525050565b5f6020820190506112825f830184611260565b92915050565b611291816111ba565b82525050565b5f6020820190506112aa5f830184611288565b92915050565b6112b9816110d2565b81146112c3575f80fd5b50565b5f813590506112d4816112b0565b92915050565b5f602082840312156112ef576112ee611142565b5b5f6112fc848285016112c6565b91505092915050565b5f81519050919050565b5f82825260208201905092915050565b5f5b8381101561133c578082015181840152602081019050611321565b5f8484015250505050565b5f601f19601f8301169050919050565b5f61136182611305565b61136b818561130f565b935061137b81856020860161131f565b61138481611347565b840191505092915050565b5f6020820190508181035f8301526113a78184611357565b905092915050565b6113b881611253565b81146113c2575f80fd5b50565b5f813590506113d3816113af565b92915050565b5f602082840312156113ee576113ed611142565b5b5f6113fb848285016113c5565b91505092915050565b7f4e6f2072652d656e7472616e63790000000000000000000000000000000000005f82015250565b5f611438600e8361130f565b915061144382611404565b602082019050919050565b5f6020820190508181035f8301526114658161142c565b9050919050565b7f4b65696e20476577696e6e2065696e67657a61686c74000000000000000000005f82015250565b5f6114a060168361130f565b91506114ab8261146c565b602082019050919050565b5f6020820190508181035f8301526114cd81611494565b9050919050565b7f44752062697374206b65696e204d6974737069656c65720000000000000000005f82015250565b5f61150860178361130f565b9150611513826114d4565b602082019050919050565b5f6020820190508181035f830152611535816114fc565b9050919050565b7f4465696e20476577696e6e20777572646520626572656974732061757367657a5f8201527f61686c7400000000000000000000000000000000000000000000000000000000602082015250565b5f61159660248361130f565b91506115a18261153c565b604082019050919050565b5f6020820190508181035f8301526115c38161158a565b9050919050565b5f81905092915050565b50565b5f6115e25f836115ca565b91506115ed826115d4565b5f82019050919050565b5f611601826115d7565b9150819050919050565b7f4175737a61686c756e672064657320476577696e6e73206665686c67657363685f8201527f6c6167656e000000000000000000000000000000000000000000000000000000602082015250565b5f61166560258361130f565b91506116708261160b565b604082019050919050565b5f6020820190508181035f83015261169281611659565b9050919050565b7f457320676962742062657265697473204d6974737069656c65722e20507265695f8201527f7361656e646572756e67206e69636874206d656872206d6f65676c6963682e00602082015250565b5f6116f3603f8361130f565b91506116fe82611699565b604082019050919050565b5f6020820190508181035f830152611720816116e7565b9050919050565b7f457320676962742062657265697473204d6974737069656c65722e2041656e645f8201527f6572756e67206e69636874206d656872206d6f65676c6963682e000000000000602082015250565b5f611781603a8361130f565b915061178c82611727565b604082019050919050565b5f6020820190508181035f8301526117ae81611775565b9050919050565b7f4e487b71000000000000000000000000000000000000000000000000000000005f52601260045260245ffd5b7f4e487b71000000000000000000000000000000000000000000000000000000005f52601160045260245ffd5b5f6118198261110b565b91506118248361110b565b925082611834576118336117b5565b5b828204905092915050565b7f4b65696e2050726569732070726f204d6974737069656c6572000000000000005f82015250565b5f61187360198361130f565b915061187e8261183f565b602082019050919050565b5f6020820190508181035f8301526118a081611867565b9050919050565b7f5a7520676572696e6765722045696e7a61686c756e67736265747261670000005f82015250565b5f6118db601d8361130f565b91506118e6826118a7565b602082019050919050565b5f6020820190508181035f830152611908816118cf565b9050919050565b7f4265726569747320616c73204d6974737069656c6572207265676973747269655f8201527f7274000000000000000000000000000000000000000000000000000000000000602082015250565b5f61196960228361130f565b91506119748261190f565b604082019050919050565b5f6020820190508181035f8301526119968161195d565b9050919050565b7f4d6178696d616c65205465696c6e65686d65727a61686c2065727265696368745f82015250565b5f6119d160208361130f565b91506119dc8261199d565b602082019050919050565b5f6020820190508181035f8301526119fe816119c5565b9050919050565b7f476577696e6e20777572646520626572656974732065696e67657a61686c74005f82015250565b5f611a39601f8361130f565b9150611a4482611a05565b602082019050919050565b5f6020820190508181035f830152611a6681611a2d565b9050919050565b5f819050919050565b5f611a8082611a6d565b9150611a8b83611a6d565b9250828203905081811115611aa357611aa26117e2565b5b92915050565b5f611ab382611253565b915061ffff8203611ac757611ac66117e2565b5b600182019050919050565b7f45696e7a61686c756e6773626574726167206d7573732067726f6573736572205f8201527f616c732030207365696e00000000000000000000000000000000000000000000602082015250565b5f611b2c602a8361130f565b9150611b3782611ad2565b604082019050919050565b5f6020820190508181035f830152611b5981611b20565b9050919050565b7f476577696e6e20777572646520626572656974732065696e67657a61686c742e5f82015250565b5f611b9460208361130f565b9150611b9f82611b60565b602082019050919050565b5f6020820190508181035f830152611bc181611b88565b9050919050565b5f611bd2826110d2565b9150611bdd836110d2565b925082611bed57611bec6117b5565b5b828204905092915050565b7f4e487b71000000000000000000000000000000000000000000000000000000005f52602260045260245ffd5b5f6002820490506001821680611c3c57607f821691505b602082108103611c4f57611c4e611bf8565b5b50919050565b7f457320676962742062657265697473204d6974737069656c65722e2041656e645f8201527f6572756e672064657220416e7a61686c20616e204d6974737069656c65726e2060208201527f6e69636874206d656872206d6f65676c6963682e000000000000000000000000604082015250565b5f611cd560548361130f565b9150611ce082611c55565b606082019050919050565b5f6020820190508181035f830152611d0281611cc9565b905091905056fea264697066735822122063e387194275da689e64f02a0702c75387f847b7c73aa9c0e24f597885f3875164736f6c63430008170033a2646970667358221220320d02aff88cb35ef84ccaeae4f6d6fd749eb13ba5f41b1fca3061e462c5c72b64736f6c63430008170033","opcodes":"PUSH1 0x80 PUSH1 0x40 MSTORE CALLVALUE DUP1 ISZERO PUSH2 0xF JUMPI PUSH0 DUP1 REVERT JUMPDEST POP PUSH2 0x3E3E DUP1 PUSH2 0x1D PUSH0 CODECOPY PUSH0 RETURN INVALID PUSH1 0x80 PUSH1 0x40 MSTORE CALLVALUE DUP1 ISZERO PUSH3 0x10 JUMPI PUSH0 DUP1 REVERT JUMPDEST POP PUSH1 0x4 CALLDATASIZE LT PUSH3 0x68 JUMPI PUSH0 CALLDATALOAD PUSH1 0xE0 SHR DUP1 PUSH4 0x33ABBCBC EQ PUSH3 0x6C JUMPI DUP1 PUSH4 0x4FD6F68C EQ PUSH3 0x8E JUMPI DUP1 PUSH4 0x535DA87C EQ PUSH3 0xAE JUMPI DUP1 PUSH4 0x95097FE1 EQ PUSH3 0xD0 JUMPI DUP1 PUSH4 0xAD6EB6D9 EQ PUSH3 0x106 JUMPI DUP1 PUSH4 0xFB670056 EQ PUSH3 0x13C JUMPI JUMPDEST PUSH0 DUP1 REVERT JUMPDEST PUSH3 0x76 PUSH3 0x172 JUMP JUMPDEST PUSH1 0x40 MLOAD PUSH3 0x85 SWAP2 SWAP1 PUSH3 0x8B7 JUMP JUMPDEST PUSH1 0x40 MLOAD DUP1 SWAP2 SUB SWAP1 RETURN JUMPDEST PUSH3 0xAC PUSH1 0x4 DUP1 CALLDATASIZE SUB DUP2 ADD SWAP1 PUSH3 0xA6 SWAP2 SWAP1 PUSH3 0xB26 JUMP JUMPDEST PUSH3 0x250 JUMP JUMPDEST STOP JUMPDEST PUSH3 0xB8 PUSH3 0x58E JUMP JUMPDEST PUSH1 0x40 MLOAD PUSH3 0xC7 SWAP2 SWAP1 PUSH3 0xCC2 JUMP JUMPDEST PUSH1 0x40 MLOAD DUP1 SWAP2 SUB SWAP1 RETURN JUMPDEST PUSH3 0xEE PUSH1 0x4 DUP1 CALLDATASIZE SUB DUP2 ADD SWAP1 PUSH3 0xE8 SWAP2 SWAP1 PUSH3 0xCE4 JUMP JUMPDEST PUSH3 0x61A JUMP JUMPDEST PUSH1 0x40 MLOAD PUSH3 0xFD SWAP2 SWAP1 PUSH3 0xD57 JUMP JUMPDEST PUSH1 0x40 MLOAD DUP1 SWAP2 SUB SWAP1 RETURN JUMPDEST PUSH3 0x124 PUSH1 0x4 DUP1 CALLDATASIZE SUB DUP2 ADD SWAP1 PUSH3 0x11E SWAP2 SWAP1 PUSH3 0xDAA JUMP JUMPDEST PUSH3 0x662 JUMP JUMPDEST PUSH1 0x40 MLOAD PUSH3 0x133 SWAP2 SWAP1 PUSH3 0xE2A JUMP JUMPDEST PUSH1 0x40 MLOAD DUP1 SWAP2 SUB SWAP1 RETURN JUMPDEST PUSH3 0x15A PUSH1 0x4 DUP1 CALLDATASIZE SUB DUP2 ADD SWAP1 PUSH3 0x154 SWAP2 SWAP1 PUSH3 0xDAA JUMP JUMPDEST PUSH3 0x711 JUMP JUMPDEST PUSH1 0x40 MLOAD PUSH3 0x169 SWAP2 SWAP1 PUSH3 0xE5D JUMP JUMPDEST PUSH1 0x40 MLOAD DUP1 SWAP2 SUB SWAP1 RETURN JUMPDEST PUSH1 0x60 PUSH1 0x1 DUP1 SLOAD DUP1 PUSH1 0x20 MUL PUSH1 0x20 ADD PUSH1 0x40 MLOAD SWAP1 DUP2 ADD PUSH1 0x40 MSTORE DUP1 SWAP3 SWAP2 SWAP1 DUP2 DUP2 MSTORE PUSH1 0x20 ADD PUSH0 SWAP1 JUMPDEST DUP3 DUP3 LT ISZERO PUSH3 0x247 JUMPI DUP4 DUP3 SWAP1 PUSH0 MSTORE PUSH1 0x20 PUSH0 KECCAK256 ADD DUP1 SLOAD PUSH3 0x1B5 SWAP1 PUSH3 0xEA5 JUMP JUMPDEST DUP1 PUSH1 0x1F ADD PUSH1 0x20 DUP1 SWAP2 DIV MUL PUSH1 0x20 ADD PUSH1 0x40 MLOAD SWAP1 DUP2 ADD PUSH1 0x40 MSTORE DUP1 SWAP3 SWAP2 SWAP1 DUP2 DUP2 MSTORE PUSH1 0x20 ADD DUP3 DUP1 SLOAD PUSH3 0x1E3 SWAP1 PUSH3 0xEA5 JUMP JUMPDEST DUP1 ISZERO PUSH3 0x232 JUMPI DUP1 PUSH1 0x1F LT PUSH3 0x208 JUMPI PUSH2 0x100 DUP1 DUP4 SLOAD DIV MUL DUP4 MSTORE SWAP2 PUSH1 0x20 ADD SWAP2 PUSH3 0x232 JUMP JUMPDEST DUP3 ADD SWAP2 SWAP1 PUSH0 MSTORE PUSH1 0x20 PUSH0 KECCAK256 SWAP1 JUMPDEST DUP2 SLOAD DUP2 MSTORE SWAP1 PUSH1 0x1 ADD SWAP1 PUSH1 0x20 ADD DUP1 DUP4 GT PUSH3 0x214 JUMPI DUP3 SWAP1 SUB PUSH1 0x1F AND DUP3 ADD SWAP2 JUMPDEST POP POP POP POP POP DUP2 MSTORE PUSH1 0x20 ADD SWAP1 PUSH1 0x1 ADD SWAP1 PUSH3 0x195 JUMP JUMPDEST POP POP POP POP SWAP1 POP SWAP1 JUMP JUMPDEST PUSH0 DUP6 MLOAD GT PUSH3 0x296 JUMPI PUSH1 0x40 MLOAD PUSH32 0x8C379A000000000000000000000000000000000000000000000000000000000 DUP2 MSTORE PUSH1 0x4 ADD PUSH3 0x28D SWAP1 PUSH3 0xF27 JUMP JUMPDEST PUSH1 0x40 MLOAD DUP1 SWAP2 SUB SWAP1 REVERT JUMPDEST PUSH0 DUP5 PUSH2 0xFFFF AND GT PUSH3 0x2DF JUMPI PUSH1 0x40 MLOAD PUSH32 0x8C379A000000000000000000000000000000000000000000000000000000000 DUP2 MSTORE PUSH1 0x4 ADD PUSH3 0x2D6 SWAP1 PUSH3 0xF95 JUMP JUMPDEST PUSH1 0x40 MLOAD DUP1 SWAP2 SUB SWAP1 REVERT JUMPDEST PUSH2 0xFFFF DUP5 PUSH2 0xFFFF AND LT PUSH3 0x32A JUMPI PUSH1 0x40 MLOAD PUSH32 0x8C379A000000000000000000000000000000000000000000000000000000000 DUP2 MSTORE PUSH1 0x4 ADD PUSH3 0x321 SWAP1 PUSH3 0x1029 JUMP JUMPDEST PUSH1 0x40 MLOAD DUP1 SWAP2 SUB SWAP1 REVERT JUMPDEST PUSH0 DUP4 PUSH4 0xFFFFFFFF AND GT PUSH3 0x375 JUMPI PUSH1 0x40 MLOAD PUSH32 0x8C379A000000000000000000000000000000000000000000000000000000000 DUP2 MSTORE PUSH1 0x4 ADD PUSH3 0x36C SWAP1 PUSH3 0x1097 JUMP JUMPDEST PUSH1 0x40 MLOAD DUP1 SWAP2 SUB SWAP1 REVERT JUMPDEST PUSH4 0xFFFFFFFF DUP4 PUSH4 0xFFFFFFFF AND LT PUSH3 0x3C4 JUMPI PUSH1 0x40 MLOAD PUSH32 0x8C379A000000000000000000000000000000000000000000000000000000000 DUP2 MSTORE PUSH1 0x4 ADD PUSH3 0x3BB SWAP1 PUSH3 0x112B JUMP JUMPDEST PUSH1 0x40 MLOAD DUP1 SWAP2 SUB SWAP1 REVERT JUMPDEST PUSH6 0xFFFFFFFFFFFF DUP3 PUSH6 0xFFFFFFFFFFFF AND LT PUSH3 0x417 JUMPI PUSH1 0x40 MLOAD PUSH32 0x8C379A000000000000000000000000000000000000000000000000000000000 DUP2 MSTORE PUSH1 0x4 ADD PUSH3 0x40E SWAP1 PUSH3 0x11BF JUMP JUMPDEST PUSH1 0x40 MLOAD DUP1 SWAP2 SUB SWAP1 REVERT JUMPDEST PUSH0 DUP6 CALLER DUP7 DUP7 DUP7 DUP7 PUSH1 0x40 MLOAD PUSH3 0x42C SWAP1 PUSH3 0x74C JUMP JUMPDEST PUSH3 0x43D SWAP7 SWAP6 SWAP5 SWAP4 SWAP3 SWAP2 SWAP1 PUSH3 0x1223 JUMP JUMPDEST PUSH1 0x40 MLOAD DUP1 SWAP2 SUB SWAP1 PUSH0 CREATE DUP1 ISZERO DUP1 ISZERO PUSH3 0x457 JUMPI RETURNDATASIZE PUSH0 DUP1 RETURNDATACOPY RETURNDATASIZE PUSH0 REVERT JUMPDEST POP SWAP1 POP PUSH0 DUP2 SWAP1 DUP1 PUSH1 0x1 DUP2 SLOAD ADD DUP1 DUP3 SSTORE DUP1 SWAP2 POP POP PUSH1 0x1 SWAP1 SUB SWAP1 PUSH0 MSTORE PUSH1 0x20 PUSH0 KECCAK256 ADD PUSH0 SWAP1 SWAP2 SWAP1 SWAP2 SWAP1 SWAP2 PUSH2 0x100 EXP DUP2 SLOAD DUP2 PUSH20 0xFFFFFFFFFFFFFFFFFFFFFFFFFFFFFFFFFFFFFFFF MUL NOT AND SWAP1 DUP4 PUSH20 0xFFFFFFFFFFFFFFFFFFFFFFFFFFFFFFFFFFFFFFFF AND MUL OR SWAP1 SSTORE POP PUSH1 0x1 DUP7 SWAP1 DUP1 PUSH1 0x1 DUP2 SLOAD ADD DUP1 DUP3 SSTORE DUP1 SWAP2 POP POP PUSH1 0x1 SWAP1 SUB SWAP1 PUSH0 MSTORE PUSH1 0x20 PUSH0 KECCAK256 ADD PUSH0 SWAP1 SWAP2 SWAP1 SWAP2 SWAP1 SWAP2 POP SWAP1 DUP2 PUSH3 0x4EC SWAP2 SWAP1 PUSH3 0x1458 JUMP JUMPDEST POP DUP1 PUSH1 0x2 DUP8 PUSH1 0x40 MLOAD PUSH3 0x500 SWAP2 SWAP1 PUSH3 0x157C JUMP JUMPDEST SWAP1 DUP2 MSTORE PUSH1 0x20 ADD PUSH1 0x40 MLOAD DUP1 SWAP2 SUB SWAP1 KECCAK256 PUSH0 PUSH2 0x100 EXP DUP2 SLOAD DUP2 PUSH20 0xFFFFFFFFFFFFFFFFFFFFFFFFFFFFFFFFFFFFFFFF MUL NOT AND SWAP1 DUP4 PUSH20 0xFFFFFFFFFFFFFFFFFFFFFFFFFFFFFFFFFFFFFFFF AND MUL OR SWAP1 SSTORE POP PUSH32 0x5F745E716EEA01CC31D0E70C2AF2ECC8792F321DB40CBCD16B2C9D2AE97CB5F2 DUP2 DUP8 PUSH1 0x40 MLOAD PUSH3 0x57E SWAP3 SWAP2 SWAP1 PUSH3 0x1594 JUMP JUMPDEST PUSH1 0x40 MLOAD DUP1 SWAP2 SUB SWAP1 LOG1 POP POP POP POP POP POP JUMP JUMPDEST PUSH1 0x60 PUSH0 DUP1 SLOAD DUP1 PUSH1 0x20 MUL PUSH1 0x20 ADD PUSH1 0x40 MLOAD SWAP1 DUP2 ADD PUSH1 0x40 MSTORE DUP1 SWAP3 SWAP2 SWAP1 DUP2 DUP2 MSTORE PUSH1 0x20 ADD DUP3 DUP1 SLOAD DUP1 ISZERO PUSH3 0x610 JUMPI PUSH1 0x20 MUL DUP3 ADD SWAP2 SWAP1 PUSH0 MSTORE PUSH1 0x20 PUSH0 KECCAK256 SWAP1 JUMPDEST DUP2 PUSH0 SWAP1 SLOAD SWAP1 PUSH2 0x100 EXP SWAP1 DIV PUSH20 0xFFFFFFFFFFFFFFFFFFFFFFFFFFFFFFFFFFFFFFFF AND PUSH20 0xFFFFFFFFFFFFFFFFFFFFFFFFFFFFFFFFFFFFFFFF AND DUP2 MSTORE PUSH1 0x20 ADD SWAP1 PUSH1 0x1 ADD SWAP1 DUP1 DUP4 GT PUSH3 0x5C6 JUMPI JUMPDEST POP POP POP POP POP SWAP1 POP SWAP1 JUMP JUMPDEST PUSH1 0x2 DUP2 DUP1 MLOAD PUSH1 0x20 DUP2 ADD DUP3 ADD DUP1 MLOAD DUP5 DUP3 MSTORE PUSH1 0x20 DUP4 ADD PUSH1 0x20 DUP6 ADD KECCAK256 DUP2 DUP4 MSTORE DUP1 SWAP6 POP POP POP POP POP POP PUSH0 SWAP2 POP SLOAD SWAP1 PUSH2 0x100 EXP SWAP1 DIV PUSH20 0xFFFFFFFFFFFFFFFFFFFFFFFFFFFFFFFFFFFFFFFF AND DUP2 JUMP JUMPDEST PUSH1 0x1 DUP2 DUP2 SLOAD DUP2 LT PUSH3 0x672 JUMPI PUSH0 DUP1 REVERT JUMPDEST SWAP1 PUSH0 MSTORE PUSH1 0x20 PUSH0 KECCAK256 ADD PUSH0 SWAP2 POP SWAP1 POP DUP1 SLOAD PUSH3 0x68C SWAP1 PUSH3 0xEA5 JUMP JUMPDEST DUP1 PUSH1 0x1F ADD PUSH1 0x20 DUP1 SWAP2 DIV MUL PUSH1 0x20 ADD PUSH1 0x40 MLOAD SWAP1 DUP2 ADD PUSH1 0x40 MSTORE DUP1 SWAP3 SWAP2 SWAP1 DUP2 DUP2 MSTORE PUSH1 0x20 ADD DUP3 DUP1 SLOAD PUSH3 0x6BA SWAP1 PUSH3 0xEA5 JUMP JUMPDEST DUP1 ISZERO PUSH3 0x709 JUMPI DUP1 PUSH1 0x1F LT PUSH3 0x6DF JUMPI PUSH2 0x100 DUP1 DUP4 SLOAD DIV MUL DUP4 MSTORE SWAP2 PUSH1 0x20 ADD SWAP2 PUSH3 0x709 JUMP JUMPDEST DUP3 ADD SWAP2 SWAP1 PUSH0 MSTORE PUSH1 0x20 PUSH0 KECCAK256 SWAP1 JUMPDEST DUP2 SLOAD DUP2 MSTORE SWAP1 PUSH1 0x1 ADD SWAP1 PUSH1 0x20 ADD DUP1 DUP4 GT PUSH3 0x6EB JUMPI DUP3 SWAP1 SUB PUSH1 0x1F AND DUP3 ADD SWAP2 JUMPDEST POP POP POP POP POP DUP2 JUMP JUMPDEST PUSH0 DUP2 DUP2 SLOAD DUP2 LT PUSH3 0x720 JUMPI PUSH0 DUP1 REVERT JUMPDEST SWAP1 PUSH0 MSTORE PUSH1 0x20 PUSH0 KECCAK256 ADD PUSH0 SWAP2 POP SLOAD SWAP1 PUSH2 0x100 EXP SWAP1 DIV PUSH20 0xFFFFFFFFFFFFFFFFFFFFFFFFFFFFFFFFFFFFFFFF AND DUP2 JUMP JUMPDEST PUSH2 0x2842 DUP1 PUSH3 0x15C7 DUP4 CODECOPY ADD SWAP1 JUMP JUMPDEST PUSH0 DUP2 MLOAD SWAP1 POP SWAP2 SWAP1 POP JUMP JUMPDEST PUSH0 DUP3 DUP3 MSTORE PUSH1 0x20 DUP3 ADD SWAP1 POP SWAP3 SWAP2 POP POP JUMP JUMPDEST PUSH0 DUP2 SWAP1 POP PUSH1 0x20 DUP3 ADD SWAP1 POP SWAP2 SWAP1 POP JUMP JUMPDEST PUSH0 DUP2 MLOAD SWAP1 POP SWAP2 SWAP1 POP JUMP JUMPDEST PUSH0 DUP3 DUP3 MSTORE PUSH1 0x20 DUP3 ADD SWAP1 POP SWAP3 SWAP2 POP POP JUMP JUMPDEST PUSH0 JUMPDEST DUP4 DUP2 LT ISZERO PUSH3 0x7BC JUMPI DUP1 DUP3 ADD MLOAD DUP2 DUP5 ADD MSTORE PUSH1 0x20 DUP2 ADD SWAP1 POP PUSH3 0x79F JUMP JUMPDEST PUSH0 DUP5 DUP5 ADD MSTORE POP POP POP POP JUMP JUMPDEST PUSH0 PUSH1 0x1F NOT PUSH1 0x1F DUP4 ADD AND SWAP1 POP SWAP2 SWAP1 POP JUMP JUMPDEST PUSH0 PUSH3 0x7E3 DUP3 PUSH3 0x783 JUMP JUMPDEST PUSH3 0x7EF DUP2 DUP6 PUSH3 0x78D JUMP JUMPDEST SWAP4 POP PUSH3 0x801 DUP2 DUP6 PUSH1 0x20 DUP7 ADD PUSH3 0x79D JUMP JUMPDEST PUSH3 0x80C DUP2 PUSH3 0x7C7 JUMP JUMPDEST DUP5 ADD SWAP2 POP POP SWAP3 SWAP2 POP POP JUMP JUMPDEST PUSH0 PUSH3 0x824 DUP4 DUP4 PUSH3 0x7D7 JUMP JUMPDEST SWAP1 POP SWAP3 SWAP2 POP POP JUMP JUMPDEST PUSH0 PUSH1 0x20 DUP3 ADD SWAP1 POP SWAP2 SWAP1 POP JUMP JUMPDEST PUSH0 PUSH3 0x844 DUP3 PUSH3 0x75A JUMP JUMPDEST PUSH3 0x850 DUP2 DUP6 PUSH3 0x764 JUMP JUMPDEST SWAP4 POP DUP4 PUSH1 0x20 DUP3 MUL DUP6 ADD PUSH3 0x864 DUP6 PUSH3 0x774 JUMP JUMPDEST DUP1 PUSH0 JUMPDEST DUP6 DUP2 LT ISZERO PUSH3 0x8A5 JUMPI DUP5 DUP5 SUB DUP10 MSTORE DUP2 MLOAD PUSH3 0x883 DUP6 DUP3 PUSH3 0x817 JUMP JUMPDEST SWAP5 POP PUSH3 0x890 DUP4 PUSH3 0x82C JUMP JUMPDEST SWAP3 POP PUSH1 0x20 DUP11 ADD SWAP10 POP POP PUSH1 0x1 DUP2 ADD SWAP1 POP PUSH3 0x867 JUMP JUMPDEST POP DUP3 SWAP8 POP DUP8 SWAP6 POP POP POP POP POP POP SWAP3 SWAP2 POP POP JUMP JUMPDEST PUSH0 PUSH1 0x20 DUP3 ADD SWAP1 POP DUP2 DUP2 SUB PUSH0 DUP4 ADD MSTORE PUSH3 0x8D1 DUP2 DUP5 PUSH3 0x838 JUMP JUMPDEST SWAP1 POP SWAP3 SWAP2 POP POP JUMP JUMPDEST PUSH0 PUSH1 0x40 MLOAD SWAP1 POP SWAP1 JUMP JUMPDEST PUSH0 DUP1 REVERT JUMPDEST PUSH0 DUP1 REVERT JUMPDEST PUSH0 DUP1 REVERT JUMPDEST PUSH0 DUP1 REVERT JUMPDEST PUSH32 0x4E487B7100000000000000000000000000000000000000000000000000000000 PUSH0 MSTORE PUSH1 0x41 PUSH1 0x4 MSTORE PUSH1 0x24 PUSH0 REVERT JUMPDEST PUSH3 0x92A DUP3 PUSH3 0x7C7 JUMP JUMPDEST DUP2 ADD DUP2 DUP2 LT PUSH8 0xFFFFFFFFFFFFFFFF DUP3 GT OR ISZERO PUSH3 0x94C JUMPI PUSH3 0x94B PUSH3 0x8F2 JUMP JUMPDEST JUMPDEST DUP1 PUSH1 0x40 MSTORE POP POP POP JUMP JUMPDEST PUSH0 PUSH3 0x960 PUSH3 0x8D9 JUMP JUMPDEST SWAP1 POP PUSH3 0x96E DUP3 DUP3 PUSH3 0x91F JUMP JUMPDEST SWAP2 SWAP1 POP JUMP JUMPDEST PUSH0 PUSH8 0xFFFFFFFFFFFFFFFF DUP3 GT ISZERO PUSH3 0x990 JUMPI PUSH3 0x98F PUSH3 0x8F2 JUMP JUMPDEST JUMPDEST PUSH3 0x99B DUP3 PUSH3 0x7C7 JUMP JUMPDEST SWAP1 POP PUSH1 0x20 DUP2 ADD SWAP1 POP SWAP2 SWAP1 POP JUMP JUMPDEST DUP3 DUP2 DUP4 CALLDATACOPY PUSH0 DUP4 DUP4 ADD MSTORE POP POP POP JUMP JUMPDEST PUSH0 PUSH3 0x9CC PUSH3 0x9C6 DUP5 PUSH3 0x973 JUMP JUMPDEST PUSH3 0x955 JUMP JUMPDEST SWAP1 POP DUP3 DUP2 MSTORE PUSH1 0x20 DUP2 ADD DUP5 DUP5 DUP5 ADD GT ISZERO PUSH3 0x9EB JUMPI PUSH3 0x9EA PUSH3 0x8EE JUMP JUMPDEST JUMPDEST PUSH3 0x9F8 DUP5 DUP3 DUP6 PUSH3 0x9A8 JUMP JUMPDEST POP SWAP4 SWAP3 POP POP POP JUMP JUMPDEST PUSH0 DUP3 PUSH1 0x1F DUP4 ADD SLT PUSH3 0xA17 JUMPI PUSH3 0xA16 PUSH3 0x8EA JUMP JUMPDEST JUMPDEST DUP2 CALLDATALOAD PUSH3 0xA29 DUP5 DUP3 PUSH1 0x20 DUP7 ADD PUSH3 0x9B6 JUMP JUMPDEST SWAP2 POP POP SWAP3 SWAP2 POP POP JUMP JUMPDEST PUSH0 PUSH2 0xFFFF DUP3 AND SWAP1 POP SWAP2 SWAP1 POP JUMP JUMPDEST PUSH3 0xA4A DUP2 PUSH3 0xA32 JUMP JUMPDEST DUP2 EQ PUSH3 0xA55 JUMPI PUSH0 DUP1 REVERT JUMPDEST POP JUMP JUMPDEST PUSH0 DUP2 CALLDATALOAD SWAP1 POP PUSH3 0xA68 DUP2 PUSH3 0xA3F JUMP JUMPDEST SWAP3 SWAP2 POP POP JUMP JUMPDEST PUSH0 PUSH4 0xFFFFFFFF DUP3 AND SWAP1 POP SWAP2 SWAP1 POP JUMP JUMPDEST PUSH3 0xA88 DUP2 PUSH3 0xA6E JUMP JUMPDEST DUP2 EQ PUSH3 0xA93 JUMPI PUSH0 DUP1 REVERT JUMPDEST POP JUMP JUMPDEST PUSH0 DUP2 CALLDATALOAD SWAP1 POP PUSH3 0xAA6 DUP2 PUSH3 0xA7D JUMP JUMPDEST SWAP3 SWAP2 POP POP JUMP JUMPDEST PUSH0 PUSH6 0xFFFFFFFFFFFF DUP3 AND SWAP1 POP SWAP2 SWAP1 POP JUMP JUMPDEST PUSH3 0xAC8 DUP2 PUSH3 0xAAC JUMP JUMPDEST DUP2 EQ PUSH3 0xAD3 JUMPI PUSH0 DUP1 REVERT JUMPDEST POP JUMP JUMPDEST PUSH0 DUP2 CALLDATALOAD SWAP1 POP PUSH3 0xAE6 DUP2 PUSH3 0xABD JUMP JUMPDEST SWAP3 SWAP2 POP POP JUMP JUMPDEST PUSH0 DUP2 ISZERO ISZERO SWAP1 POP SWAP2 SWAP1 POP JUMP JUMPDEST PUSH3 0xB02 DUP2 PUSH3 0xAEC JUMP JUMPDEST DUP2 EQ PUSH3 0xB0D JUMPI PUSH0 DUP1 REVERT JUMPDEST POP JUMP JUMPDEST PUSH0 DUP2 CALLDATALOAD SWAP1 POP PUSH3 0xB20 DUP2 PUSH3 0xAF7 JUMP JUMPDEST SWAP3 SWAP2 POP POP JUMP JUMPDEST PUSH0 DUP1 PUSH0 DUP1 PUSH0 PUSH1 0xA0 DUP7 DUP9 SUB SLT ISZERO PUSH3 0xB42 JUMPI PUSH3 0xB41 PUSH3 0x8E2 JUMP JUMPDEST JUMPDEST PUSH0 DUP7 ADD CALLDATALOAD PUSH8 0xFFFFFFFFFFFFFFFF DUP2 GT ISZERO PUSH3 0xB62 JUMPI PUSH3 0xB61 PUSH3 0x8E6 JUMP JUMPDEST JUMPDEST PUSH3 0xB70 DUP9 DUP3 DUP10 ADD PUSH3 0xA00 JUMP JUMPDEST SWAP6 POP POP PUSH1 0x20 PUSH3 0xB83 DUP9 DUP3 DUP10 ADD PUSH3 0xA58 JUMP JUMPDEST SWAP5 POP POP PUSH1 0x40 PUSH3 0xB96 DUP9 DUP3 DUP10 ADD PUSH3 0xA96 JUMP JUMPDEST SWAP4 POP POP PUSH1 0x60 PUSH3 0xBA9 DUP9 DUP3 DUP10 ADD PUSH3 0xAD6 JUMP JUMPDEST SWAP3 POP POP PUSH1 0x80 PUSH3 0xBBC DUP9 DUP3 DUP10 ADD PUSH3 0xB10 JUMP JUMPDEST SWAP2 POP POP SWAP3 SWAP6 POP SWAP3 SWAP6 SWAP1 SWAP4 POP JUMP JUMPDEST PUSH0 DUP2 MLOAD SWAP1 POP SWAP2 SWAP1 POP JUMP JUMPDEST PUSH0 DUP3 DUP3 MSTORE PUSH1 0x20 DUP3 ADD SWAP1 POP SWAP3 SWAP2 POP POP JUMP JUMPDEST PUSH0 DUP2 SWAP1 POP PUSH1 0x20 DUP3 ADD SWAP1 POP SWAP2 SWAP1 POP JUMP JUMPDEST PUSH0 PUSH20 0xFFFFFFFFFFFFFFFFFFFFFFFFFFFFFFFFFFFFFFFF DUP3 AND SWAP1 POP SWAP2 SWAP1 POP JUMP JUMPDEST PUSH0 PUSH3 0xC1D DUP3 PUSH3 0xBF2 JUMP JUMPDEST SWAP1 POP SWAP2 SWAP1 POP JUMP JUMPDEST PUSH3 0xC2F DUP2 PUSH3 0xC11 JUMP JUMPDEST DUP3 MSTORE POP POP JUMP JUMPDEST PUSH0 PUSH3 0xC42 DUP4 DUP4 PUSH3 0xC24 JUMP JUMPDEST PUSH1 0x20 DUP4 ADD SWAP1 POP SWAP3 SWAP2 POP POP JUMP JUMPDEST PUSH0 PUSH1 0x20 DUP3 ADD SWAP1 POP SWAP2 SWAP1 POP JUMP JUMPDEST PUSH0 PUSH3 0xC66 DUP3 PUSH3 0xBC9 JUMP JUMPDEST PUSH3 0xC72 DUP2 DUP6 PUSH3 0xBD3 JUMP JUMPDEST SWAP4 POP PUSH3 0xC7F DUP4 PUSH3 0xBE3 JUMP JUMPDEST DUP1 PUSH0 JUMPDEST DUP4 DUP2 LT ISZERO PUSH3 0xCB5 JUMPI DUP2 MLOAD PUSH3 0xC99 DUP9 DUP3 PUSH3 0xC35 JUMP JUMPDEST SWAP8 POP PUSH3 0xCA6 DUP4 PUSH3 0xC4E JUMP JUMPDEST SWAP3 POP POP PUSH1 0x1 DUP2 ADD SWAP1 POP PUSH3 0xC82 JUMP JUMPDEST POP DUP6 SWAP4 POP POP POP POP SWAP3 SWAP2 POP POP JUMP JUMPDEST PUSH0 PUSH1 0x20 DUP3 ADD SWAP1 POP DUP2 DUP2 SUB PUSH0 DUP4 ADD MSTORE PUSH3 0xCDC DUP2 DUP5 PUSH3 0xC5A JUMP JUMPDEST SWAP1 POP SWAP3 SWAP2 POP POP JUMP JUMPDEST PUSH0 PUSH1 0x20 DUP3 DUP5 SUB SLT ISZERO PUSH3 0xCFC JUMPI PUSH3 0xCFB PUSH3 0x8E2 JUMP JUMPDEST JUMPDEST PUSH0 DUP3 ADD CALLDATALOAD PUSH8 0xFFFFFFFFFFFFFFFF DUP2 GT ISZERO PUSH3 0xD1C JUMPI PUSH3 0xD1B PUSH3 0x8E6 JUMP JUMPDEST JUMPDEST PUSH3 0xD2A DUP5 DUP3 DUP6 ADD PUSH3 0xA00 JUMP JUMPDEST SWAP2 POP POP SWAP3 SWAP2 POP POP JUMP JUMPDEST PUSH0 PUSH3 0xD3F DUP3 PUSH3 0xBF2 JUMP JUMPDEST SWAP1 POP SWAP2 SWAP1 POP JUMP JUMPDEST PUSH3 0xD51 DUP2 PUSH3 0xD33 JUMP JUMPDEST DUP3 MSTORE POP POP JUMP JUMPDEST PUSH0 PUSH1 0x20 DUP3 ADD SWAP1 POP PUSH3 0xD6C PUSH0 DUP4 ADD DUP5 PUSH3 0xD46 JUMP JUMPDEST SWAP3 SWAP2 POP POP JUMP JUMPDEST PUSH0 DUP2 SWAP1 POP SWAP2 SWAP1 POP JUMP JUMPDEST PUSH3 0xD86 DUP2 PUSH3 0xD72 JUMP JUMPDEST DUP2 EQ PUSH3 0xD91 JUMPI PUSH0 DUP1 REVERT JUMPDEST POP JUMP JUMPDEST PUSH0 DUP2 CALLDATALOAD SWAP1 POP PUSH3 0xDA4 DUP2 PUSH3 0xD7B JUMP JUMPDEST SWAP3 SWAP2 POP POP JUMP JUMPDEST PUSH0 PUSH1 0x20 DUP3 DUP5 SUB SLT ISZERO PUSH3 0xDC2 JUMPI PUSH3 0xDC1 PUSH3 0x8E2 JUMP JUMPDEST JUMPDEST PUSH0 PUSH3 0xDD1 DUP5 DUP3 DUP6 ADD PUSH3 0xD94 JUMP JUMPDEST SWAP2 POP POP SWAP3 SWAP2 POP POP JUMP JUMPDEST PUSH0 DUP3 DUP3 MSTORE PUSH1 0x20 DUP3 ADD SWAP1 POP SWAP3 SWAP2 POP POP JUMP JUMPDEST PUSH0 PUSH3 0xDF6 DUP3 PUSH3 0x783 JUMP JUMPDEST PUSH3 0xE02 DUP2 DUP6 PUSH3 0xDDA JUMP JUMPDEST SWAP4 POP PUSH3 0xE14 DUP2 DUP6 PUSH1 0x20 DUP7 ADD PUSH3 0x79D JUMP JUMPDEST PUSH3 0xE1F DUP2 PUSH3 0x7C7 JUMP JUMPDEST DUP5 ADD SWAP2 POP POP SWAP3 SWAP2 POP POP JUMP JUMPDEST PUSH0 PUSH1 0x20 DUP3 ADD SWAP1 POP DUP2 DUP2 SUB PUSH0 DUP4 ADD MSTORE PUSH3 0xE44 DUP2 DUP5 PUSH3 0xDEA JUMP JUMPDEST SWAP1 POP SWAP3 SWAP2 POP POP JUMP JUMPDEST PUSH3 0xE57 DUP2 PUSH3 0xC11 JUMP JUMPDEST DUP3 MSTORE POP POP JUMP JUMPDEST PUSH0 PUSH1 0x20 DUP3 ADD SWAP1 POP PUSH3 0xE72 PUSH0 DUP4 ADD DUP5 PUSH3 0xE4C JUMP JUMPDEST SWAP3 SWAP2 POP POP JUMP JUMPDEST PUSH32 0x4E487B7100000000000000000000000000000000000000000000000000000000 PUSH0 MSTORE PUSH1 0x22 PUSH1 0x4 MSTORE PUSH1 0x24 PUSH0 REVERT JUMPDEST PUSH0 PUSH1 0x2 DUP3 DIV SWAP1 POP PUSH1 0x1 DUP3 AND DUP1 PUSH3 0xEBD JUMPI PUSH1 0x7F DUP3 AND SWAP2 POP JUMPDEST PUSH1 0x20 DUP3 LT DUP2 SUB PUSH3 0xED3 JUMPI PUSH3 0xED2 PUSH3 0xE78 JUMP JUMPDEST JUMPDEST POP SWAP2 SWAP1 POP JUMP JUMPDEST PUSH32 0x4E616D652064617266206E69636874206C656572207365696E00000000000000 PUSH0 DUP3 ADD MSTORE POP JUMP JUMPDEST PUSH0 PUSH3 0xF0F PUSH1 0x19 DUP4 PUSH3 0xDDA JUMP JUMPDEST SWAP2 POP PUSH3 0xF1C DUP3 PUSH3 0xED9 JUMP JUMPDEST PUSH1 0x20 DUP3 ADD SWAP1 POP SWAP2 SWAP1 POP JUMP JUMPDEST PUSH0 PUSH1 0x20 DUP3 ADD SWAP1 POP DUP2 DUP2 SUB PUSH0 DUP4 ADD MSTORE PUSH3 0xF40 DUP2 PUSH3 0xF01 JUMP JUMPDEST SWAP1 POP SWAP2 SWAP1 POP JUMP JUMPDEST PUSH32 0x416E7A61686C206D7573732067726F657373657220616C732030207365696E00 PUSH0 DUP3 ADD MSTORE POP JUMP JUMPDEST PUSH0 PUSH3 0xF7D PUSH1 0x1F DUP4 PUSH3 0xDDA JUMP JUMPDEST SWAP2 POP PUSH3 0xF8A DUP3 PUSH3 0xF47 JUMP JUMPDEST PUSH1 0x20 DUP3 ADD SWAP1 POP SWAP2 SWAP1 POP JUMP JUMPDEST PUSH0 PUSH1 0x20 DUP3 ADD SWAP1 POP DUP2 DUP2 SUB PUSH0 DUP4 ADD MSTORE PUSH3 0xFAE DUP2 PUSH3 0xF6F JUMP JUMPDEST SWAP1 POP SWAP2 SWAP1 POP JUMP JUMPDEST PUSH32 0x416E7A61686C206D757373206B6C65696E657220616C73203635353335207365 PUSH0 DUP3 ADD MSTORE PUSH32 0x696E000000000000000000000000000000000000000000000000000000000000 PUSH1 0x20 DUP3 ADD MSTORE POP JUMP JUMPDEST PUSH0 PUSH3 0x1011 PUSH1 0x22 DUP4 PUSH3 0xDDA JUMP JUMPDEST SWAP2 POP PUSH3 0x101E DUP3 PUSH3 0xFB5 JUMP JUMPDEST PUSH1 0x40 DUP3 ADD SWAP1 POP SWAP2 SWAP1 POP JUMP JUMPDEST PUSH0 PUSH1 0x20 DUP3 ADD SWAP1 POP DUP2 DUP2 SUB PUSH0 DUP4 ADD MSTORE PUSH3 0x1042 DUP2 PUSH3 0x1003 JUMP JUMPDEST SWAP1 POP SWAP2 SWAP1 POP JUMP JUMPDEST PUSH32 0x5072656973206D7573732067726F657373657220616C732030207365696E0000 PUSH0 DUP3 ADD MSTORE POP JUMP JUMPDEST PUSH0 PUSH3 0x107F PUSH1 0x1E DUP4 PUSH3 0xDDA JUMP JUMPDEST SWAP2 POP PUSH3 0x108C DUP3 PUSH3 0x1049 JUMP JUMPDEST PUSH1 0x20 DUP3 ADD SWAP1 POP SWAP2 SWAP1 POP JUMP JUMPDEST PUSH0 PUSH1 0x20 DUP3 ADD SWAP1 POP DUP2 DUP2 SUB PUSH0 DUP4 ADD MSTORE PUSH3 0x10B0 DUP2 PUSH3 0x1071 JUMP JUMPDEST SWAP1 POP SWAP2 SWAP1 POP JUMP JUMPDEST PUSH32 0x5072656973206D757373206B6C65696E657220616C7320343239343936373239 PUSH0 DUP3 ADD MSTORE PUSH32 0x35207365696E0000000000000000000000000000000000000000000000000000 PUSH1 0x20 DUP3 ADD MSTORE POP JUMP JUMPDEST PUSH0 PUSH3 0x1113 PUSH1 0x26 DUP4 PUSH3 0xDDA JUMP JUMPDEST SWAP2 POP PUSH3 0x1120 DUP3 PUSH3 0x10B7 JUMP JUMPDEST PUSH1 0x40 DUP3 ADD SWAP1 POP SWAP2 SWAP1 POP JUMP JUMPDEST PUSH0 PUSH1 0x20 DUP3 ADD SWAP1 POP DUP2 DUP2 SUB PUSH0 DUP4 ADD MSTORE PUSH3 0x1144 DUP2 PUSH3 0x1105 JUMP JUMPDEST SWAP1 POP SWAP2 SWAP1 POP JUMP JUMPDEST PUSH32 0x53636865696E4E756D6D6572206D757373207A7769736368656E203020756E64 PUSH0 DUP3 ADD MSTORE PUSH32 0x20323831343734393736373130363535207365696E0000000000000000000000 PUSH1 0x20 DUP3 ADD MSTORE POP JUMP JUMPDEST PUSH0 PUSH3 0x11A7 PUSH1 0x35 DUP4 PUSH3 0xDDA JUMP JUMPDEST SWAP2 POP PUSH3 0x11B4 DUP3 PUSH3 0x114B JUMP JUMPDEST PUSH1 0x40 DUP3 ADD SWAP1 POP SWAP2 SWAP1 POP JUMP JUMPDEST PUSH0 PUSH1 0x20 DUP3 ADD SWAP1 POP DUP2 DUP2 SUB PUSH0 DUP4 ADD MSTORE PUSH3 0x11D8 DUP2 PUSH3 0x1199 JUMP JUMPDEST SWAP1 POP SWAP2 SWAP1 POP JUMP JUMPDEST PUSH3 0x11EA DUP2 PUSH3 0xA32 JUMP JUMPDEST DUP3 MSTORE POP POP JUMP JUMPDEST PUSH3 0x11FB DUP2 PUSH3 0xA6E JUMP JUMPDEST DUP3 MSTORE POP POP JUMP JUMPDEST PUSH3 0x120C DUP2 PUSH3 0xAAC JUMP JUMPDEST DUP3 MSTORE POP POP JUMP JUMPDEST PUSH3 0x121D DUP2 PUSH3 0xAEC JUMP JUMPDEST DUP3 MSTORE POP POP JUMP JUMPDEST PUSH0 PUSH1 0xC0 DUP3 ADD SWAP1 POP DUP2 DUP2 SUB PUSH0 DUP4 ADD MSTORE PUSH3 0x123D DUP2 DUP10 PUSH3 0xDEA JUMP JUMPDEST SWAP1 POP PUSH3 0x124E PUSH1 0x20 DUP4 ADD DUP9 PUSH3 0xD46 JUMP JUMPDEST PUSH3 0x125D PUSH1 0x40 DUP4 ADD DUP8 PUSH3 0x11DF JUMP JUMPDEST PUSH3 0x126C PUSH1 0x60 DUP4 ADD DUP7 PUSH3 0x11F0 JUMP JUMPDEST PUSH3 0x127B PUSH1 0x80 DUP4 ADD DUP6 PUSH3 0x1201 JUMP JUMPDEST PUSH3 0x128A PUSH1 0xA0 DUP4 ADD DUP5 PUSH3 0x1212 JUMP JUMPDEST SWAP8 SWAP7 POP POP POP POP POP POP POP JUMP JUMPDEST PUSH0 DUP2 SWAP1 POP DUP2 PUSH0 MSTORE PUSH1 0x20 PUSH0 KECCAK256 SWAP1 POP SWAP2 SWAP1 POP JUMP JUMPDEST PUSH0 PUSH1 0x20 PUSH1 0x1F DUP4 ADD DIV SWAP1 POP SWAP2 SWAP1 POP JUMP JUMPDEST PUSH0 DUP3 DUP3 SHL SWAP1 POP SWAP3 SWAP2 POP POP JUMP JUMPDEST PUSH0 PUSH1 0x8 DUP4 MUL PUSH3 0x12F3 PUSH32 0xFFFFFFFFFFFFFFFFFFFFFFFFFFFFFFFFFFFFFFFFFFFFFFFFFFFFFFFFFFFFFFFF DUP3 PUSH3 0x12B6 JUMP JUMPDEST PUSH3 0x12FF DUP7 DUP4 PUSH3 0x12B6 JUMP JUMPDEST SWAP6 POP DUP1 NOT DUP5 AND SWAP4 POP DUP1 DUP7 AND DUP5 OR SWAP3 POP POP POP SWAP4 SWAP3 POP POP POP JUMP JUMPDEST PUSH0 DUP2 SWAP1 POP SWAP2 SWAP1 POP JUMP JUMPDEST PUSH0 PUSH3 0x1340 PUSH3 0x133A PUSH3 0x1334 DUP5 PUSH3 0xD72 JUMP JUMPDEST PUSH3 0x1317 JUMP JUMPDEST PUSH3 0xD72 JUMP JUMPDEST SWAP1 POP SWAP2 SWAP1 POP JUMP JUMPDEST PUSH0 DUP2 SWAP1 POP SWAP2 SWAP1 POP JUMP JUMPDEST PUSH3 0x135B DUP4 PUSH3 0x1320 JUMP JUMPDEST PUSH3 0x1373 PUSH3 0x136A DUP3 PUSH3 0x1347 JUMP JUMPDEST DUP5 DUP5 SLOAD PUSH3 0x12C2 JUMP JUMPDEST DUP3 SSTORE POP POP POP POP JUMP JUMPDEST PUSH0 SWAP1 JUMP JUMPDEST PUSH3 0x1389 PUSH3 0x137B JUMP JUMPDEST PUSH3 0x1396 DUP2 DUP5 DUP5 PUSH3 0x1350 JUMP JUMPDEST POP POP POP JUMP JUMPDEST JUMPDEST DUP2 DUP2 LT ISZERO PUSH3 0x13BD JUMPI PUSH3 0x13B1 PUSH0 DUP3 PUSH3 0x137F JUMP JUMPDEST PUSH1 0x1 DUP2 ADD SWAP1 POP PUSH3 0x139C JUMP JUMPDEST POP POP JUMP JUMPDEST PUSH1 0x1F DUP3 GT ISZERO PUSH3 0x140C JUMPI PUSH3 0x13D6 DUP2 PUSH3 0x1295 JUMP JUMPDEST PUSH3 0x13E1 DUP5 PUSH3 0x12A7 JUMP JUMPDEST DUP2 ADD PUSH1 0x20 DUP6 LT ISZERO PUSH3 0x13F1 JUMPI DUP2 SWAP1 POP JUMPDEST PUSH3 0x1409 PUSH3 0x1400 DUP6 PUSH3 0x12A7 JUMP JUMPDEST DUP4 ADD DUP3 PUSH3 0x139B JUMP JUMPDEST POP POP JUMPDEST POP POP POP JUMP JUMPDEST PUSH0 DUP3 DUP3 SHR SWAP1 POP SWAP3 SWAP2 POP POP JUMP JUMPDEST PUSH0 PUSH3 0x142E PUSH0 NOT DUP5 PUSH1 0x8 MUL PUSH3 0x1411 JUMP JUMPDEST NOT DUP1 DUP4 AND SWAP2 POP POP SWAP3 SWAP2 POP POP JUMP JUMPDEST PUSH0 PUSH3 0x1448 DUP4 DUP4 PUSH3 0x141D JUMP JUMPDEST SWAP2 POP DUP3 PUSH1 0x2 MUL DUP3 OR SWAP1 POP SWAP3 SWAP2 POP POP JUMP JUMPDEST PUSH3 0x1463 DUP3 PUSH3 0x783 JUMP JUMPDEST PUSH8 0xFFFFFFFFFFFFFFFF DUP2 GT ISZERO PUSH3 0x147F JUMPI PUSH3 0x147E PUSH3 0x8F2 JUMP JUMPDEST JUMPDEST PUSH3 0x148B DUP3 SLOAD PUSH3 0xEA5 JUMP JUMPDEST PUSH3 0x1498 DUP3 DUP3 DUP6 PUSH3 0x13C1 JUMP JUMPDEST PUSH0 PUSH1 0x20 SWAP1 POP PUSH1 0x1F DUP4 GT PUSH1 0x1 DUP2 EQ PUSH3 0x14CE JUMPI PUSH0 DUP5 ISZERO PUSH3 0x14B9 JUMPI DUP3 DUP8 ADD MLOAD SWAP1 POP JUMPDEST PUSH3 0x14C5 DUP6 DUP3 PUSH3 0x143B JUMP JUMPDEST DUP7 SSTORE POP PUSH3 0x1534 JUMP JUMPDEST PUSH1 0x1F NOT DUP5 AND PUSH3 0x14DE DUP7 PUSH3 0x1295 JUMP JUMPDEST PUSH0 JUMPDEST DUP3 DUP2 LT ISZERO PUSH3 0x1507 JUMPI DUP5 DUP10 ADD MLOAD DUP3 SSTORE PUSH1 0x1 DUP3 ADD SWAP2 POP PUSH1 0x20 DUP6 ADD SWAP5 POP PUSH1 0x20 DUP2 ADD SWAP1 POP PUSH3 0x14E0 JUMP JUMPDEST DUP7 DUP4 LT ISZERO PUSH3 0x1527 JUMPI DUP5 DUP10 ADD MLOAD PUSH3 0x1523 PUSH1 0x1F DUP10 AND DUP3 PUSH3 0x141D JUMP JUMPDEST DUP4 SSTORE POP JUMPDEST PUSH1 0x1 PUSH1 0x2 DUP9 MUL ADD DUP9 SSTORE POP POP POP JUMPDEST POP POP POP POP POP POP JUMP JUMPDEST PUSH0 DUP2 SWAP1 POP SWAP3 SWAP2 POP POP JUMP JUMPDEST PUSH0 PUSH3 0x1552 DUP3 PUSH3 0x783 JUMP JUMPDEST PUSH3 0x155E DUP2 DUP6 PUSH3 0x153C JUMP JUMPDEST SWAP4 POP PUSH3 0x1570 DUP2 DUP6 PUSH1 0x20 DUP7 ADD PUSH3 0x79D JUMP JUMPDEST DUP1 DUP5 ADD SWAP2 POP POP SWAP3 SWAP2 POP POP JUMP JUMPDEST PUSH0 PUSH3 0x1589 DUP3 DUP5 PUSH3 0x1546 JUMP JUMPDEST SWAP2 POP DUP2 SWAP1 POP SWAP3 SWAP2 POP POP JUMP JUMPDEST PUSH0 PUSH1 0x40 DUP3 ADD SWAP1 POP PUSH3 0x15A9 PUSH0 DUP4 ADD DUP6 PUSH3 0xD46 JUMP JUMPDEST DUP2 DUP2 SUB PUSH1 0x20 DUP4 ADD MSTORE PUSH3 0x15BD DUP2 DUP5 PUSH3 0xDEA JUMP JUMPDEST SWAP1 POP SWAP4 SWAP3 POP POP POP JUMP INVALID PUSH1 0x80 PUSH1 0x40 MSTORE PUSH0 PUSH1 0x5 PUSH1 0x2 PUSH2 0x100 EXP DUP2 SLOAD DUP2 PUSH6 0xFFFFFFFFFFFF MUL NOT AND SWAP1 DUP4 PUSH6 0xFFFFFFFFFFFF AND MUL OR SWAP1 SSTORE POP PUSH0 PUSH1 0x5 PUSH1 0x8 PUSH2 0x100 EXP DUP2 SLOAD DUP2 PUSH1 0xFF MUL NOT AND SWAP1 DUP4 ISZERO ISZERO MUL OR SWAP1 SSTORE POP PUSH0 PUSH1 0x5 PUSH1 0x9 PUSH2 0x100 EXP DUP2 SLOAD DUP2 PUSH1 0xFF MUL NOT AND SWAP1 DUP4 ISZERO ISZERO MUL OR SWAP1 SSTORE POP CALLVALUE DUP1 ISZERO PUSH3 0x69 JUMPI PUSH0 DUP1 REVERT JUMPDEST POP PUSH1 0x40 MLOAD PUSH3 0x2842 CODESIZE SUB DUP1 PUSH3 0x2842 DUP4 CODECOPY DUP2 DUP2 ADD PUSH1 0x40 MSTORE DUP2 ADD SWAP1 PUSH3 0x8F SWAP2 SWAP1 PUSH3 0x55C JUMP JUMPDEST PUSH2 0xFFFF DUP5 PUSH2 0xFFFF AND LT PUSH3 0xDA JUMPI PUSH1 0x40 MLOAD PUSH32 0x8C379A000000000000000000000000000000000000000000000000000000000 DUP2 MSTORE PUSH1 0x4 ADD PUSH3 0xD1 SWAP1 PUSH3 0x671 JUMP JUMPDEST PUSH1 0x40 MLOAD DUP1 SWAP2 SUB SWAP1 REVERT JUMPDEST PUSH4 0xFFFFFFFF DUP4 PUSH4 0xFFFFFFFF AND LT PUSH3 0x129 JUMPI PUSH1 0x40 MLOAD PUSH32 0x8C379A000000000000000000000000000000000000000000000000000000000 DUP2 MSTORE PUSH1 0x4 ADD PUSH3 0x120 SWAP1 PUSH3 0x6DF JUMP JUMPDEST PUSH1 0x40 MLOAD DUP1 SWAP2 SUB SWAP1 REVERT JUMPDEST DUP5 PUSH0 DUP1 PUSH2 0x100 EXP DUP2 SLOAD DUP2 PUSH20 0xFFFFFFFFFFFFFFFFFFFFFFFFFFFFFFFFFFFFFFFF MUL NOT AND SWAP1 DUP4 PUSH20 0xFFFFFFFFFFFFFFFFFFFFFFFFFFFFFFFFFFFFFFFF AND MUL OR SWAP1 SSTORE POP DUP6 PUSH1 0x1 SWAP1 DUP2 PUSH3 0x179 SWAP2 SWAP1 PUSH3 0x936 JUMP JUMPDEST POP DUP4 PUSH1 0x2 PUSH0 PUSH2 0x100 EXP DUP2 SLOAD DUP2 PUSH2 0xFFFF MUL NOT AND SWAP1 DUP4 PUSH2 0xFFFF AND MUL OR SWAP1 SSTORE POP DUP3 PUSH1 0x2 DUP1 PUSH2 0x100 EXP DUP2 SLOAD DUP2 PUSH4 0xFFFFFFFF MUL NOT AND SWAP1 DUP4 PUSH4 0xFFFFFFFF AND MUL OR SWAP1 SSTORE POP DUP1 PUSH1 0x5 PUSH1 0x9 PUSH2 0x100 EXP DUP2 SLOAD DUP2 PUSH1 0xFF MUL NOT AND SWAP1 DUP4 ISZERO ISZERO MUL OR SWAP1 SSTORE POP DUP2 PUSH1 0x2 PUSH1 0xA PUSH2 0x100 EXP DUP2 SLOAD DUP2 PUSH6 0xFFFFFFFFFFFF MUL NOT AND SWAP1 DUP4 PUSH6 0xFFFFFFFFFFFF AND MUL OR SWAP1 SSTORE POP PUSH8 0xDE0B6B3A7640000 PUSH1 0x2 PUSH0 SWAP1 SLOAD SWAP1 PUSH2 0x100 EXP SWAP1 DIV PUSH2 0xFFFF AND PUSH2 0xFFFF AND PUSH8 0xDE0B6B3A7640000 PUSH1 0x2 DUP1 SLOAD SWAP1 PUSH2 0x100 EXP SWAP1 DIV PUSH4 0xFFFFFFFF AND PUSH4 0xFFFFFFFF AND PUSH3 0x23E SWAP2 SWAP1 PUSH3 0xA47 JUMP JUMPDEST PUSH3 0x24A SWAP2 SWAP1 PUSH3 0xABE JUMP JUMPDEST PUSH3 0x256 SWAP2 SWAP1 PUSH3 0xABE JUMP JUMPDEST PUSH1 0x2 PUSH1 0x6 PUSH2 0x100 EXP DUP2 SLOAD DUP2 PUSH4 0xFFFFFFFF MUL NOT AND SWAP1 DUP4 PUSH4 0xFFFFFFFF AND MUL OR SWAP1 SSTORE POP POP POP POP POP POP POP PUSH3 0xAF5 JUMP JUMPDEST PUSH0 PUSH1 0x40 MLOAD SWAP1 POP SWAP1 JUMP JUMPDEST PUSH0 DUP1 REVERT JUMPDEST PUSH0 DUP1 REVERT JUMPDEST PUSH0 DUP1 REVERT JUMPDEST PUSH0 DUP1 REVERT JUMPDEST PUSH0 PUSH1 0x1F NOT PUSH1 0x1F DUP4 ADD AND SWAP1 POP SWAP2 SWAP1 POP JUMP JUMPDEST PUSH32 0x4E487B7100000000000000000000000000000000000000000000000000000000 PUSH0 MSTORE PUSH1 0x41 PUSH1 0x4 MSTORE PUSH1 0x24 PUSH0 REVERT JUMPDEST PUSH3 0x2E3 DUP3 PUSH3 0x29B JUMP JUMPDEST DUP2 ADD DUP2 DUP2 LT PUSH8 0xFFFFFFFFFFFFFFFF DUP3 GT OR ISZERO PUSH3 0x305 JUMPI PUSH3 0x304 PUSH3 0x2AB JUMP JUMPDEST JUMPDEST DUP1 PUSH1 0x40 MSTORE POP POP POP JUMP JUMPDEST PUSH0 PUSH3 0x319 PUSH3 0x282 JUMP JUMPDEST SWAP1 POP PUSH3 0x327 DUP3 DUP3 PUSH3 0x2D8 JUMP JUMPDEST SWAP2 SWAP1 POP JUMP JUMPDEST PUSH0 PUSH8 0xFFFFFFFFFFFFFFFF DUP3 GT ISZERO PUSH3 0x349 JUMPI PUSH3 0x348 PUSH3 0x2AB JUMP JUMPDEST JUMPDEST PUSH3 0x354 DUP3 PUSH3 0x29B JUMP JUMPDEST SWAP1 POP PUSH1 0x20 DUP2 ADD SWAP1 POP SWAP2 SWAP1 POP JUMP JUMPDEST PUSH0 JUMPDEST DUP4 DUP2 LT ISZERO PUSH3 0x380 JUMPI DUP1 DUP3 ADD MLOAD DUP2 DUP5 ADD MSTORE PUSH1 0x20 DUP2 ADD SWAP1 POP PUSH3 0x363 JUMP JUMPDEST PUSH0 DUP5 DUP5 ADD MSTORE POP POP POP POP JUMP JUMPDEST PUSH0 PUSH3 0x3A1 PUSH3 0x39B DUP5 PUSH3 0x32C JUMP JUMPDEST PUSH3 0x30E JUMP JUMPDEST SWAP1 POP DUP3 DUP2 MSTORE PUSH1 0x20 DUP2 ADD DUP5 DUP5 DUP5 ADD GT ISZERO PUSH3 0x3C0 JUMPI PUSH3 0x3BF PUSH3 0x297 JUMP JUMPDEST JUMPDEST PUSH3 0x3CD DUP5 DUP3 DUP6 PUSH3 0x361 JUMP JUMPDEST POP SWAP4 SWAP3 POP POP POP JUMP JUMPDEST PUSH0 DUP3 PUSH1 0x1F DUP4 ADD SLT PUSH3 0x3EC JUMPI PUSH3 0x3EB PUSH3 0x293 JUMP JUMPDEST JUMPDEST DUP2 MLOAD PUSH3 0x3FE DUP5 DUP3 PUSH1 0x20 DUP7 ADD PUSH3 0x38B JUMP JUMPDEST SWAP2 POP POP SWAP3 SWAP2 POP POP JUMP JUMPDEST PUSH0 PUSH20 0xFFFFFFFFFFFFFFFFFFFFFFFFFFFFFFFFFFFFFFFF DUP3 AND SWAP1 POP SWAP2 SWAP1 POP JUMP JUMPDEST PUSH0 PUSH3 0x432 DUP3 PUSH3 0x407 JUMP JUMPDEST SWAP1 POP SWAP2 SWAP1 POP JUMP JUMPDEST PUSH3 0x444 DUP2 PUSH3 0x426 JUMP JUMPDEST DUP2 EQ PUSH3 0x44F JUMPI PUSH0 DUP1 REVERT JUMPDEST POP JUMP JUMPDEST PUSH0 DUP2 MLOAD SWAP1 POP PUSH3 0x462 DUP2 PUSH3 0x439 JUMP JUMPDEST SWAP3 SWAP2 POP POP JUMP JUMPDEST PUSH0 PUSH2 0xFFFF DUP3 AND SWAP1 POP SWAP2 SWAP1 POP JUMP JUMPDEST PUSH3 0x480 DUP2 PUSH3 0x468 JUMP JUMPDEST DUP2 EQ PUSH3 0x48B JUMPI PUSH0 DUP1 REVERT JUMPDEST POP JUMP JUMPDEST PUSH0 DUP2 MLOAD SWAP1 POP PUSH3 0x49E DUP2 PUSH3 0x475 JUMP JUMPDEST SWAP3 SWAP2 POP POP JUMP JUMPDEST PUSH0 PUSH4 0xFFFFFFFF DUP3 AND SWAP1 POP SWAP2 SWAP1 POP JUMP JUMPDEST PUSH3 0x4BE DUP2 PUSH3 0x4A4 JUMP JUMPDEST DUP2 EQ PUSH3 0x4C9 JUMPI PUSH0 DUP1 REVERT JUMPDEST POP JUMP JUMPDEST PUSH0 DUP2 MLOAD SWAP1 POP PUSH3 0x4DC DUP2 PUSH3 0x4B3 JUMP JUMPDEST SWAP3 SWAP2 POP POP JUMP JUMPDEST PUSH0 PUSH6 0xFFFFFFFFFFFF DUP3 AND SWAP1 POP SWAP2 SWAP1 POP JUMP JUMPDEST PUSH3 0x4FE DUP2 PUSH3 0x4E2 JUMP JUMPDEST DUP2 EQ PUSH3 0x509 JUMPI PUSH0 DUP1 REVERT JUMPDEST POP JUMP JUMPDEST PUSH0 DUP2 MLOAD SWAP1 POP PUSH3 0x51C DUP2 PUSH3 0x4F3 JUMP JUMPDEST SWAP3 SWAP2 POP POP JUMP JUMPDEST PUSH0 DUP2 ISZERO ISZERO SWAP1 POP SWAP2 SWAP1 POP JUMP JUMPDEST PUSH3 0x538 DUP2 PUSH3 0x522 JUMP JUMPDEST DUP2 EQ PUSH3 0x543 JUMPI PUSH0 DUP1 REVERT JUMPDEST POP JUMP JUMPDEST PUSH0 DUP2 MLOAD SWAP1 POP PUSH3 0x556 DUP2 PUSH3 0x52D JUMP JUMPDEST SWAP3 SWAP2 POP POP JUMP JUMPDEST PUSH0 DUP1 PUSH0 DUP1 PUSH0 DUP1 PUSH1 0xC0 DUP8 DUP10 SUB SLT ISZERO PUSH3 0x579 JUMPI PUSH3 0x578 PUSH3 0x28B JUMP JUMPDEST JUMPDEST PUSH0 DUP8 ADD MLOAD PUSH8 0xFFFFFFFFFFFFFFFF DUP2 GT ISZERO PUSH3 0x599 JUMPI PUSH3 0x598 PUSH3 0x28F JUMP JUMPDEST JUMPDEST PUSH3 0x5A7 DUP10 DUP3 DUP11 ADD PUSH3 0x3D5 JUMP JUMPDEST SWAP7 POP POP PUSH1 0x20 PUSH3 0x5BA DUP10 DUP3 DUP11 ADD PUSH3 0x452 JUMP JUMPDEST SWAP6 POP POP PUSH1 0x40 PUSH3 0x5CD DUP10 DUP3 DUP11 ADD PUSH3 0x48E JUMP JUMPDEST SWAP5 POP POP PUSH1 0x60 PUSH3 0x5E0 DUP10 DUP3 DUP11 ADD PUSH3 0x4CC JUMP JUMPDEST SWAP4 POP POP PUSH1 0x80 PUSH3 0x5F3 DUP10 DUP3 DUP11 ADD PUSH3 0x50C JUMP JUMPDEST SWAP3 POP POP PUSH1 0xA0 PUSH3 0x606 DUP10 DUP3 DUP11 ADD PUSH3 0x546 JUMP JUMPDEST SWAP2 POP POP SWAP3 SWAP6 POP SWAP3 SWAP6 POP SWAP3 SWAP6 JUMP JUMPDEST PUSH0 DUP3 DUP3 MSTORE PUSH1 0x20 DUP3 ADD SWAP1 POP SWAP3 SWAP2 POP POP JUMP JUMPDEST PUSH32 0x4D6178696D616C203635353334204D6974737069656C65722065726C61756274 PUSH0 DUP3 ADD MSTORE POP JUMP JUMPDEST PUSH0 PUSH3 0x659 PUSH1 0x20 DUP4 PUSH3 0x613 JUMP JUMPDEST SWAP2 POP PUSH3 0x666 DUP3 PUSH3 0x623 JUMP JUMPDEST PUSH1 0x20 DUP3 ADD SWAP1 POP SWAP2 SWAP1 POP JUMP JUMPDEST PUSH0 PUSH1 0x20 DUP3 ADD SWAP1 POP DUP2 DUP2 SUB PUSH0 DUP4 ADD MSTORE PUSH3 0x68A DUP2 PUSH3 0x64B JUMP JUMPDEST SWAP1 POP SWAP2 SWAP1 POP JUMP JUMPDEST PUSH32 0x4D6178696D616C65722050726569732034323934393637323935000000000000 PUSH0 DUP3 ADD MSTORE POP JUMP JUMPDEST PUSH0 PUSH3 0x6C7 PUSH1 0x1A DUP4 PUSH3 0x613 JUMP JUMPDEST SWAP2 POP PUSH3 0x6D4 DUP3 PUSH3 0x691 JUMP JUMPDEST PUSH1 0x20 DUP3 ADD SWAP1 POP SWAP2 SWAP1 POP JUMP JUMPDEST PUSH0 PUSH1 0x20 DUP3 ADD SWAP1 POP DUP2 DUP2 SUB PUSH0 DUP4 ADD MSTORE PUSH3 0x6F8 DUP2 PUSH3 0x6B9 JUMP JUMPDEST SWAP1 POP SWAP2 SWAP1 POP JUMP JUMPDEST PUSH0 DUP2 MLOAD SWAP1 POP SWAP2 SWAP1 POP JUMP JUMPDEST PUSH32 0x4E487B7100000000000000000000000000000000000000000000000000000000 PUSH0 MSTORE PUSH1 0x22 PUSH1 0x4 MSTORE PUSH1 0x24 PUSH0 REVERT JUMPDEST PUSH0 PUSH1 0x2 DUP3 DIV SWAP1 POP PUSH1 0x1 DUP3 AND DUP1 PUSH3 0x74E JUMPI PUSH1 0x7F DUP3 AND SWAP2 POP JUMPDEST PUSH1 0x20 DUP3 LT DUP2 SUB PUSH3 0x764 JUMPI PUSH3 0x763 PUSH3 0x709 JUMP JUMPDEST JUMPDEST POP SWAP2 SWAP1 POP JUMP JUMPDEST PUSH0 DUP2 SWAP1 POP DUP2 PUSH0 MSTORE PUSH1 0x20 PUSH0 KECCAK256 SWAP1 POP SWAP2 SWAP1 POP JUMP JUMPDEST PUSH0 PUSH1 0x20 PUSH1 0x1F DUP4 ADD DIV SWAP1 POP SWAP2 SWAP1 POP JUMP JUMPDEST PUSH0 DUP3 DUP3 SHL SWAP1 POP SWAP3 SWAP2 POP POP JUMP JUMPDEST PUSH0 PUSH1 0x8 DUP4 MUL PUSH3 0x7C8 PUSH32 0xFFFFFFFFFFFFFFFFFFFFFFFFFFFFFFFFFFFFFFFFFFFFFFFFFFFFFFFFFFFFFFFF DUP3 PUSH3 0x78B JUMP JUMPDEST PUSH3 0x7D4 DUP7 DUP4 PUSH3 0x78B JUMP JUMPDEST SWAP6 POP DUP1 NOT DUP5 AND SWAP4 POP DUP1 DUP7 AND DUP5 OR SWAP3 POP POP POP SWAP4 SWAP3 POP POP POP JUMP JUMPDEST PUSH0 DUP2 SWAP1 POP SWAP2 SWAP1 POP JUMP JUMPDEST PUSH0 DUP2 SWAP1 POP SWAP2 SWAP1 POP JUMP JUMPDEST PUSH0 PUSH3 0x81E PUSH3 0x818 PUSH3 0x812 DUP5 PUSH3 0x7EC JUMP JUMPDEST PUSH3 0x7F5 JUMP JUMPDEST PUSH3 0x7EC JUMP JUMPDEST SWAP1 POP SWAP2 SWAP1 POP JUMP JUMPDEST PUSH0 DUP2 SWAP1 POP SWAP2 SWAP1 POP JUMP JUMPDEST PUSH3 0x839 DUP4 PUSH3 0x7FE JUMP JUMPDEST PUSH3 0x851 PUSH3 0x848 DUP3 PUSH3 0x825 JUMP JUMPDEST DUP5 DUP5 SLOAD PUSH3 0x797 JUMP JUMPDEST DUP3 SSTORE POP POP POP POP JUMP JUMPDEST PUSH0 SWAP1 JUMP JUMPDEST PUSH3 0x867 PUSH3 0x859 JUMP JUMPDEST PUSH3 0x874 DUP2 DUP5 DUP5 PUSH3 0x82E JUMP JUMPDEST POP POP POP JUMP JUMPDEST JUMPDEST DUP2 DUP2 LT ISZERO PUSH3 0x89B JUMPI PUSH3 0x88F PUSH0 DUP3 PUSH3 0x85D JUMP JUMPDEST PUSH1 0x1 DUP2 ADD SWAP1 POP PUSH3 0x87A JUMP JUMPDEST POP POP JUMP JUMPDEST PUSH1 0x1F DUP3 GT ISZERO PUSH3 0x8EA JUMPI PUSH3 0x8B4 DUP2 PUSH3 0x76A JUMP JUMPDEST PUSH3 0x8BF DUP5 PUSH3 0x77C JUMP JUMPDEST DUP2 ADD PUSH1 0x20 DUP6 LT ISZERO PUSH3 0x8CF JUMPI DUP2 SWAP1 POP JUMPDEST PUSH3 0x8E7 PUSH3 0x8DE DUP6 PUSH3 0x77C JUMP JUMPDEST DUP4 ADD DUP3 PUSH3 0x879 JUMP JUMPDEST POP POP JUMPDEST POP POP POP JUMP JUMPDEST PUSH0 DUP3 DUP3 SHR SWAP1 POP SWAP3 SWAP2 POP POP JUMP JUMPDEST PUSH0 PUSH3 0x90C PUSH0 NOT DUP5 PUSH1 0x8 MUL PUSH3 0x8EF JUMP JUMPDEST NOT DUP1 DUP4 AND SWAP2 POP POP SWAP3 SWAP2 POP POP JUMP JUMPDEST PUSH0 PUSH3 0x926 DUP4 DUP4 PUSH3 0x8FB JUMP JUMPDEST SWAP2 POP DUP3 PUSH1 0x2 MUL DUP3 OR SWAP1 POP SWAP3 SWAP2 POP POP JUMP JUMPDEST PUSH3 0x941 DUP3 PUSH3 0x6FF JUMP JUMPDEST PUSH8 0xFFFFFFFFFFFFFFFF DUP2 GT ISZERO PUSH3 0x95D JUMPI PUSH3 0x95C PUSH3 0x2AB JUMP JUMPDEST JUMPDEST PUSH3 0x969 DUP3 SLOAD PUSH3 0x736 JUMP JUMPDEST PUSH3 0x976 DUP3 DUP3 DUP6 PUSH3 0x89F JUMP JUMPDEST PUSH0 PUSH1 0x20 SWAP1 POP PUSH1 0x1F DUP4 GT PUSH1 0x1 DUP2 EQ PUSH3 0x9AC JUMPI PUSH0 DUP5 ISZERO PUSH3 0x997 JUMPI DUP3 DUP8 ADD MLOAD SWAP1 POP JUMPDEST PUSH3 0x9A3 DUP6 DUP3 PUSH3 0x919 JUMP JUMPDEST DUP7 SSTORE POP PUSH3 0xA12 JUMP JUMPDEST PUSH1 0x1F NOT DUP5 AND PUSH3 0x9BC DUP7 PUSH3 0x76A JUMP JUMPDEST PUSH0 JUMPDEST DUP3 DUP2 LT ISZERO PUSH3 0x9E5 JUMPI DUP5 DUP10 ADD MLOAD DUP3 SSTORE PUSH1 0x1 DUP3 ADD SWAP2 POP PUSH1 0x20 DUP6 ADD SWAP5 POP PUSH1 0x20 DUP2 ADD SWAP1 POP PUSH3 0x9BE JUMP JUMPDEST DUP7 DUP4 LT ISZERO PUSH3 0xA05 JUMPI DUP5 DUP10 ADD MLOAD PUSH3 0xA01 PUSH1 0x1F DUP10 AND DUP3 PUSH3 0x8FB JUMP JUMPDEST DUP4 SSTORE POP JUMPDEST PUSH1 0x1 PUSH1 0x2 DUP9 MUL ADD DUP9 SSTORE POP POP POP JUMPDEST POP POP POP POP POP POP JUMP JUMPDEST PUSH32 0x4E487B7100000000000000000000000000000000000000000000000000000000 PUSH0 MSTORE PUSH1 0x11 PUSH1 0x4 MSTORE PUSH1 0x24 PUSH0 REVERT JUMPDEST PUSH0 PUSH3 0xA53 DUP3 PUSH3 0x7EC JUMP JUMPDEST SWAP2 POP PUSH3 0xA60 DUP4 PUSH3 0x7EC JUMP JUMPDEST SWAP3 POP DUP3 DUP3 MUL PUSH3 0xA70 DUP2 PUSH3 0x7EC JUMP JUMPDEST SWAP2 POP DUP3 DUP3 DIV DUP5 EQ DUP4 ISZERO OR PUSH3 0xA8A JUMPI PUSH3 0xA89 PUSH3 0xA1A JUMP JUMPDEST JUMPDEST POP SWAP3 SWAP2 POP POP JUMP JUMPDEST PUSH32 0x4E487B7100000000000000000000000000000000000000000000000000000000 PUSH0 MSTORE PUSH1 0x12 PUSH1 0x4 MSTORE PUSH1 0x24 PUSH0 REVERT JUMPDEST PUSH0 PUSH3 0xACA DUP3 PUSH3 0x7EC JUMP JUMPDEST SWAP2 POP PUSH3 0xAD7 DUP4 PUSH3 0x7EC JUMP JUMPDEST SWAP3 POP DUP3 PUSH3 0xAEA JUMPI PUSH3 0xAE9 PUSH3 0xA91 JUMP JUMPDEST JUMPDEST DUP3 DUP3 DIV SWAP1 POP SWAP3 SWAP2 POP POP JUMP JUMPDEST PUSH2 0x1D3F DUP1 PUSH3 0xB03 PUSH0 CODECOPY PUSH0 RETURN INVALID PUSH1 0x80 PUSH1 0x40 MSTORE PUSH1 0x4 CALLDATASIZE LT PUSH2 0x113 JUMPI PUSH0 CALLDATALOAD PUSH1 0xE0 SHR DUP1 PUSH4 0x43767832 GT PUSH2 0x9F JUMPI DUP1 PUSH4 0xB08C7076 GT PUSH2 0x63 JUMPI DUP1 PUSH4 0xB08C7076 EQ PUSH2 0x34F JUMPI DUP1 PUSH4 0xB609E684 EQ PUSH2 0x379 JUMPI DUP1 PUSH4 0xC6CA9D19 EQ PUSH2 0x3A3 JUMPI DUP1 PUSH4 0xD27D06C0 EQ PUSH2 0x3BF JUMPI DUP1 PUSH4 0xE068561A EQ PUSH2 0x3E9 JUMPI PUSH2 0x113 JUMP JUMPDEST DUP1 PUSH4 0x43767832 EQ PUSH2 0x28D JUMPI DUP1 PUSH4 0x526024EA EQ PUSH2 0x2B5 JUMPI DUP1 PUSH4 0x70A41BC0 EQ PUSH2 0x2BF JUMPI DUP1 PUSH4 0x91243239 EQ PUSH2 0x2E9 JUMPI DUP1 PUSH4 0xAD2C046C EQ PUSH2 0x325 JUMPI PUSH2 0x113 JUMP JUMPDEST DUP1 PUSH4 0x2DF368A5 GT PUSH2 0xE6 JUMPI DUP1 PUSH4 0x2DF368A5 EQ PUSH2 0x1AB JUMPI DUP1 PUSH4 0x31C45120 EQ PUSH2 0x1D5 JUMPI DUP1 PUSH4 0x36927060 EQ PUSH2 0x1FD JUMPI DUP1 PUSH4 0x3BABB15A EQ PUSH2 0x239 JUMPI DUP1 PUSH4 0x3F0F5D51 EQ PUSH2 0x263 JUMPI PUSH2 0x113 JUMP JUMPDEST DUP1 PUSH4 0x84263F5 EQ PUSH2 0x117 JUMPI DUP1 PUSH4 0xC96B701 EQ PUSH2 0x141 JUMPI DUP1 PUSH4 0xF085E50 EQ PUSH2 0x157 JUMPI DUP1 PUSH4 0x143B7CAF EQ PUSH2 0x181 JUMPI JUMPDEST PUSH0 DUP1 REVERT JUMPDEST CALLVALUE DUP1 ISZERO PUSH2 0x122 JUMPI PUSH0 DUP1 REVERT JUMPDEST POP PUSH2 0x12B PUSH2 0x411 JUMP JUMPDEST PUSH1 0x40 MLOAD PUSH2 0x138 SWAP2 SWAP1 PUSH2 0x10F2 JUMP JUMPDEST PUSH1 0x40 MLOAD DUP1 SWAP2 SUB SWAP1 RETURN JUMPDEST CALLVALUE DUP1 ISZERO PUSH2 0x14C JUMPI PUSH0 DUP1 REVERT JUMPDEST POP PUSH2 0x155 PUSH2 0x429 JUMP JUMPDEST STOP JUMPDEST CALLVALUE DUP1 ISZERO PUSH2 0x162 JUMPI PUSH0 DUP1 REVERT JUMPDEST POP PUSH2 0x16B PUSH2 0x78F JUMP JUMPDEST PUSH1 0x40 MLOAD PUSH2 0x178 SWAP2 SWAP1 PUSH2 0x10F2 JUMP JUMPDEST PUSH1 0x40 MLOAD DUP1 SWAP2 SUB SWAP1 RETURN JUMPDEST CALLVALUE DUP1 ISZERO PUSH2 0x18C JUMPI PUSH0 DUP1 REVERT JUMPDEST POP PUSH2 0x195 PUSH2 0x7A7 JUMP JUMPDEST PUSH1 0x40 MLOAD PUSH2 0x1A2 SWAP2 SWAP1 PUSH2 0x10F2 JUMP JUMPDEST PUSH1 0x40 MLOAD DUP1 SWAP2 SUB SWAP1 RETURN JUMPDEST CALLVALUE DUP1 ISZERO PUSH2 0x1B6 JUMPI PUSH0 DUP1 REVERT JUMPDEST POP PUSH2 0x1BF PUSH2 0x7BF JUMP JUMPDEST PUSH1 0x40 MLOAD PUSH2 0x1CC SWAP2 SWAP1 PUSH2 0x1129 JUMP JUMPDEST PUSH1 0x40 MLOAD DUP1 SWAP2 SUB SWAP1 RETURN JUMPDEST CALLVALUE DUP1 ISZERO PUSH2 0x1E0 JUMPI PUSH0 DUP1 REVERT JUMPDEST POP PUSH2 0x1FB PUSH1 0x4 DUP1 CALLDATASIZE SUB DUP2 ADD SWAP1 PUSH2 0x1F6 SWAP2 SWAP1 PUSH2 0x1170 JUMP JUMPDEST PUSH2 0x7D5 JUMP JUMPDEST STOP JUMPDEST CALLVALUE DUP1 ISZERO PUSH2 0x208 JUMPI PUSH0 DUP1 REVERT JUMPDEST POP PUSH2 0x223 PUSH1 0x4 DUP1 CALLDATASIZE SUB DUP2 ADD SWAP1 PUSH2 0x21E SWAP2 SWAP1 PUSH2 0x11F5 JUMP JUMPDEST PUSH2 0x8A3 JUMP JUMPDEST PUSH1 0x40 MLOAD PUSH2 0x230 SWAP2 SWAP1 PUSH2 0x123A JUMP JUMPDEST PUSH1 0x40 MLOAD DUP1 SWAP2 SUB SWAP1 RETURN JUMPDEST CALLVALUE DUP1 ISZERO PUSH2 0x244 JUMPI PUSH0 DUP1 REVERT JUMPDEST POP PUSH2 0x24D PUSH2 0x8C0 JUMP JUMPDEST PUSH1 0x40 MLOAD PUSH2 0x25A SWAP2 SWAP1 PUSH2 0x126F JUMP JUMPDEST PUSH1 0x40 MLOAD DUP1 SWAP2 SUB SWAP1 RETURN JUMPDEST CALLVALUE DUP1 ISZERO PUSH2 0x26E JUMPI PUSH0 DUP1 REVERT JUMPDEST POP PUSH2 0x277 PUSH2 0x8D3 JUMP JUMPDEST PUSH1 0x40 MLOAD PUSH2 0x284 SWAP2 SWAP1 PUSH2 0x1129 JUMP JUMPDEST PUSH1 0x40 MLOAD DUP1 SWAP2 SUB SWAP1 RETURN JUMPDEST CALLVALUE DUP1 ISZERO PUSH2 0x298 JUMPI PUSH0 DUP1 REVERT JUMPDEST POP PUSH2 0x2B3 PUSH1 0x4 DUP1 CALLDATASIZE SUB DUP2 ADD SWAP1 PUSH2 0x2AE SWAP2 SWAP1 PUSH2 0x11F5 JUMP JUMPDEST PUSH2 0x8E7 JUMP JUMPDEST STOP JUMPDEST PUSH2 0x2BD PUSH2 0x9EA JUMP JUMPDEST STOP JUMPDEST CALLVALUE DUP1 ISZERO PUSH2 0x2CA JUMPI PUSH0 DUP1 REVERT JUMPDEST POP PUSH2 0x2D3 PUSH2 0xDAC JUMP JUMPDEST PUSH1 0x40 MLOAD PUSH2 0x2E0 SWAP2 SWAP1 PUSH2 0x126F JUMP JUMPDEST PUSH1 0x40 MLOAD DUP1 SWAP2 SUB SWAP1 RETURN JUMPDEST CALLVALUE DUP1 ISZERO PUSH2 0x2F4 JUMPI PUSH0 DUP1 REVERT JUMPDEST POP PUSH2 0x30F PUSH1 0x4 DUP1 CALLDATASIZE SUB DUP2 ADD SWAP1 PUSH2 0x30A SWAP2 SWAP1 PUSH2 0x11F5 JUMP JUMPDEST PUSH2 0xDBF JUMP JUMPDEST PUSH1 0x40 MLOAD PUSH2 0x31C SWAP2 SWAP1 PUSH2 0x123A JUMP JUMPDEST PUSH1 0x40 MLOAD DUP1 SWAP2 SUB SWAP1 RETURN JUMPDEST CALLVALUE DUP1 ISZERO PUSH2 0x330 JUMPI PUSH0 DUP1 REVERT JUMPDEST POP PUSH2 0x339 PUSH2 0xDDC JUMP JUMPDEST PUSH1 0x40 MLOAD PUSH2 0x346 SWAP2 SWAP1 PUSH2 0x1297 JUMP JUMPDEST PUSH1 0x40 MLOAD DUP1 SWAP2 SUB SWAP1 RETURN JUMPDEST CALLVALUE DUP1 ISZERO PUSH2 0x35A JUMPI PUSH0 DUP1 REVERT JUMPDEST POP PUSH2 0x363 PUSH2 0xDFF JUMP JUMPDEST PUSH1 0x40 MLOAD PUSH2 0x370 SWAP2 SWAP1 PUSH2 0x123A JUMP JUMPDEST PUSH1 0x40 MLOAD DUP1 SWAP2 SUB SWAP1 RETURN JUMPDEST CALLVALUE DUP1 ISZERO PUSH2 0x384 JUMPI PUSH0 DUP1 REVERT JUMPDEST POP PUSH2 0x38D PUSH2 0xE12 JUMP JUMPDEST PUSH1 0x40 MLOAD PUSH2 0x39A SWAP2 SWAP1 PUSH2 0x123A JUMP JUMPDEST PUSH1 0x40 MLOAD DUP1 SWAP2 SUB SWAP1 RETURN JUMPDEST PUSH2 0x3BD PUSH1 0x4 DUP1 CALLDATASIZE SUB DUP2 ADD SWAP1 PUSH2 0x3B8 SWAP2 SWAP1 PUSH2 0x12DA JUMP JUMPDEST PUSH2 0xE25 JUMP JUMPDEST STOP JUMPDEST CALLVALUE DUP1 ISZERO PUSH2 0x3CA JUMPI PUSH0 DUP1 REVERT JUMPDEST POP PUSH2 0x3D3 PUSH2 0xF7C JUMP JUMPDEST PUSH1 0x40 MLOAD PUSH2 0x3E0 SWAP2 SWAP1 PUSH2 0x138F JUMP JUMPDEST PUSH1 0x40 MLOAD DUP1 SWAP2 SUB SWAP1 RETURN JUMPDEST CALLVALUE DUP1 ISZERO PUSH2 0x3F4 JUMPI PUSH0 DUP1 REVERT JUMPDEST POP PUSH2 0x40F PUSH1 0x4 DUP1 CALLDATASIZE SUB DUP2 ADD SWAP1 PUSH2 0x40A SWAP2 SWAP1 PUSH2 0x13D9 JUMP JUMPDEST PUSH2 0x1008 JUMP JUMPDEST STOP JUMPDEST PUSH1 0x2 PUSH1 0x10 SWAP1 SLOAD SWAP1 PUSH2 0x100 EXP SWAP1 DIV PUSH6 0xFFFFFFFFFFFF AND DUP2 JUMP JUMPDEST PUSH1 0x3 PUSH0 CALLER PUSH20 0xFFFFFFFFFFFFFFFFFFFFFFFFFFFFFFFFFFFFFFFF AND PUSH20 0xFFFFFFFFFFFFFFFFFFFFFFFFFFFFFFFFFFFFFFFF AND DUP2 MSTORE PUSH1 0x20 ADD SWAP1 DUP2 MSTORE PUSH1 0x20 ADD PUSH0 KECCAK256 PUSH0 SWAP1 SLOAD SWAP1 PUSH2 0x100 EXP SWAP1 DIV PUSH1 0xFF AND PUSH2 0x47B JUMPI PUSH0 DUP1 REVERT JUMPDEST PUSH1 0x7 PUSH0 SWAP1 SLOAD SWAP1 PUSH2 0x100 EXP SWAP1 DIV PUSH1 0xFF AND ISZERO PUSH2 0x4CA JUMPI PUSH1 0x40 MLOAD PUSH32 0x8C379A000000000000000000000000000000000000000000000000000000000 DUP2 MSTORE PUSH1 0x4 ADD PUSH2 0x4C1 SWAP1 PUSH2 0x144E JUMP JUMPDEST PUSH1 0x40 MLOAD DUP1 SWAP2 SUB SWAP1 REVERT JUMPDEST PUSH1 0x1 PUSH1 0x7 PUSH0 PUSH2 0x100 EXP DUP2 SLOAD DUP2 PUSH1 0xFF MUL NOT AND SWAP1 DUP4 ISZERO ISZERO MUL OR SWAP1 SSTORE POP PUSH0 PUSH1 0x5 PUSH1 0x2 SWAP1 SLOAD SWAP1 PUSH2 0x100 EXP SWAP1 DIV PUSH6 0xFFFFFFFFFFFF AND PUSH6 0xFFFFFFFFFFFF AND GT PUSH2 0x542 JUMPI PUSH1 0x40 MLOAD PUSH32 0x8C379A000000000000000000000000000000000000000000000000000000000 DUP2 MSTORE PUSH1 0x4 ADD PUSH2 0x539 SWAP1 PUSH2 0x14B6 JUMP JUMPDEST PUSH1 0x40 MLOAD DUP1 SWAP2 SUB SWAP1 REVERT JUMPDEST PUSH1 0x3 PUSH0 CALLER PUSH20 0xFFFFFFFFFFFFFFFFFFFFFFFFFFFFFFFFFFFFFFFF AND PUSH20 0xFFFFFFFFFFFFFFFFFFFFFFFFFFFFFFFFFFFFFFFF AND DUP2 MSTORE PUSH1 0x20 ADD SWAP1 DUP2 MSTORE PUSH1 0x20 ADD PUSH0 KECCAK256 PUSH0 SWAP1 SLOAD SWAP1 PUSH2 0x100 EXP SWAP1 DIV PUSH1 0xFF AND PUSH2 0x5CB JUMPI PUSH1 0x40 MLOAD PUSH32 0x8C379A000000000000000000000000000000000000000000000000000000000 DUP2 MSTORE PUSH1 0x4 ADD PUSH2 0x5C2 SWAP1 PUSH2 0x151E JUMP JUMPDEST PUSH1 0x40 MLOAD DUP1 SWAP2 SUB SWAP1 REVERT JUMPDEST PUSH1 0x4 PUSH0 CALLER PUSH20 0xFFFFFFFFFFFFFFFFFFFFFFFFFFFFFFFFFFFFFFFF AND PUSH20 0xFFFFFFFFFFFFFFFFFFFFFFFFFFFFFFFFFFFFFFFF AND DUP2 MSTORE PUSH1 0x20 ADD SWAP1 DUP2 MSTORE PUSH1 0x20 ADD PUSH0 KECCAK256 PUSH0 SWAP1 SLOAD SWAP1 PUSH2 0x100 EXP SWAP1 DIV PUSH1 0xFF AND ISZERO PUSH2 0x655 JUMPI PUSH1 0x40 MLOAD PUSH32 0x8C379A000000000000000000000000000000000000000000000000000000000 DUP2 MSTORE PUSH1 0x4 ADD PUSH2 0x64C SWAP1 PUSH2 0x15AC JUMP JUMPDEST PUSH1 0x40 MLOAD DUP1 SWAP2 SUB SWAP1 REVERT JUMPDEST PUSH1 0x1 PUSH1 0x4 PUSH0 CALLER PUSH20 0xFFFFFFFFFFFFFFFFFFFFFFFFFFFFFFFFFFFFFFFF AND PUSH20 0xFFFFFFFFFFFFFFFFFFFFFFFFFFFFFFFFFFFFFFFF AND DUP2 MSTORE PUSH1 0x20 ADD SWAP1 DUP2 MSTORE PUSH1 0x20 ADD PUSH0 KECCAK256 PUSH0 PUSH2 0x100 EXP DUP2 SLOAD DUP2 PUSH1 0xFF MUL NOT AND SWAP1 DUP4 ISZERO ISZERO MUL OR SWAP1 SSTORE POP PUSH0 PUSH1 0x5 PUSH1 0x2 SWAP1 SLOAD SWAP1 PUSH2 0x100 EXP SWAP1 DIV PUSH6 0xFFFFFFFFFFFF AND PUSH6 0xFFFFFFFFFFFF AND SWAP1 POP PUSH0 CALLER PUSH20 0xFFFFFFFFFFFFFFFFFFFFFFFFFFFFFFFFFFFFFFFF AND DUP3 PUSH1 0x40 MLOAD PUSH2 0x6EF SWAP1 PUSH2 0x15F7 JUMP JUMPDEST PUSH0 PUSH1 0x40 MLOAD DUP1 DUP4 SUB DUP2 DUP6 DUP8 GAS CALL SWAP3 POP POP POP RETURNDATASIZE DUP1 PUSH0 DUP2 EQ PUSH2 0x729 JUMPI PUSH1 0x40 MLOAD SWAP2 POP PUSH1 0x1F NOT PUSH1 0x3F RETURNDATASIZE ADD AND DUP3 ADD PUSH1 0x40 MSTORE RETURNDATASIZE DUP3 MSTORE RETURNDATASIZE PUSH0 PUSH1 0x20 DUP5 ADD RETURNDATACOPY PUSH2 0x72E JUMP JUMPDEST PUSH1 0x60 SWAP2 POP JUMPDEST POP POP SWAP1 POP DUP1 PUSH2 0x772 JUMPI PUSH1 0x40 MLOAD PUSH32 0x8C379A000000000000000000000000000000000000000000000000000000000 DUP2 MSTORE PUSH1 0x4 ADD PUSH2 0x769 SWAP1 PUSH2 0x167B JUMP JUMPDEST PUSH1 0x40 MLOAD DUP1 SWAP2 SUB SWAP1 REVERT JUMPDEST POP POP PUSH0 PUSH1 0x7 PUSH0 PUSH2 0x100 EXP DUP2 SLOAD DUP2 PUSH1 0xFF MUL NOT AND SWAP1 DUP4 ISZERO ISZERO MUL OR SWAP1 SSTORE POP JUMP JUMPDEST PUSH1 0x5 PUSH1 0x2 SWAP1 SLOAD SWAP1 PUSH2 0x100 EXP SWAP1 DIV PUSH6 0xFFFFFFFFFFFF AND DUP2 JUMP JUMPDEST PUSH1 0x2 PUSH1 0xA SWAP1 SLOAD SWAP1 PUSH2 0x100 EXP SWAP1 DIV PUSH6 0xFFFFFFFFFFFF AND DUP2 JUMP JUMPDEST PUSH1 0x2 PUSH1 0x6 SWAP1 SLOAD SWAP1 PUSH2 0x100 EXP SWAP1 DIV PUSH4 0xFFFFFFFF AND DUP2 JUMP JUMPDEST PUSH0 DUP1 SLOAD SWAP1 PUSH2 0x100 EXP SWAP1 DIV PUSH20 0xFFFFFFFFFFFFFFFFFFFFFFFFFFFFFFFFFFFFFFFF AND PUSH20 0xFFFFFFFFFFFFFFFFFFFFFFFFFFFFFFFFFFFFFFFF AND CALLER PUSH20 0xFFFFFFFFFFFFFFFFFFFFFFFFFFFFFFFFFFFFFFFF AND EQ PUSH2 0x82B JUMPI PUSH0 DUP1 REVERT JUMPDEST PUSH0 PUSH1 0x5 PUSH0 SWAP1 SLOAD SWAP1 PUSH2 0x100 EXP SWAP1 DIV PUSH2 0xFFFF AND PUSH2 0xFFFF AND EQ PUSH2 0x880 JUMPI PUSH1 0x40 MLOAD PUSH32 0x8C379A000000000000000000000000000000000000000000000000000000000 DUP2 MSTORE PUSH1 0x4 ADD PUSH2 0x877 SWAP1 PUSH2 0x1709 JUMP JUMPDEST PUSH1 0x40 MLOAD DUP1 SWAP2 SUB SWAP1 REVERT JUMPDEST DUP1 PUSH1 0x2 DUP1 PUSH2 0x100 EXP DUP2 SLOAD DUP2 PUSH4 0xFFFFFFFF MUL NOT AND SWAP1 DUP4 PUSH4 0xFFFFFFFF AND MUL OR SWAP1 SSTORE POP POP JUMP JUMPDEST PUSH1 0x3 PUSH1 0x20 MSTORE DUP1 PUSH0 MSTORE PUSH1 0x40 PUSH0 KECCAK256 PUSH0 SWAP2 POP SLOAD SWAP1 PUSH2 0x100 EXP SWAP1 DIV PUSH1 0xFF AND DUP2 JUMP JUMPDEST PUSH1 0x5 PUSH0 SWAP1 SLOAD SWAP1 PUSH2 0x100 EXP SWAP1 DIV PUSH2 0xFFFF AND DUP2 JUMP JUMPDEST PUSH1 0x2 DUP1 SLOAD SWAP1 PUSH2 0x100 EXP SWAP1 DIV PUSH4 0xFFFFFFFF AND DUP2 JUMP JUMPDEST PUSH0 DUP1 SLOAD SWAP1 PUSH2 0x100 EXP SWAP1 DIV PUSH20 0xFFFFFFFFFFFFFFFFFFFFFFFFFFFFFFFFFFFFFFFF AND PUSH20 0xFFFFFFFFFFFFFFFFFFFFFFFFFFFFFFFFFFFFFFFF AND CALLER PUSH20 0xFFFFFFFFFFFFFFFFFFFFFFFFFFFFFFFFFFFFFFFF AND EQ PUSH2 0x93D JUMPI PUSH0 DUP1 REVERT JUMPDEST PUSH0 PUSH1 0x5 PUSH0 SWAP1 SLOAD SWAP1 PUSH2 0x100 EXP SWAP1 DIV PUSH2 0xFFFF AND PUSH2 0xFFFF AND EQ PUSH2 0x992 JUMPI PUSH1 0x40 MLOAD PUSH32 0x8C379A000000000000000000000000000000000000000000000000000000000 DUP2 MSTORE PUSH1 0x4 ADD PUSH2 0x989 SWAP1 PUSH2 0x1797 JUMP JUMPDEST PUSH1 0x40 MLOAD DUP1 SWAP2 SUB SWAP1 REVERT JUMPDEST PUSH1 0x1 PUSH1 0x6 PUSH0 DUP4 PUSH20 0xFFFFFFFFFFFFFFFFFFFFFFFFFFFFFFFFFFFFFFFF AND PUSH20 0xFFFFFFFFFFFFFFFFFFFFFFFFFFFFFFFFFFFFFFFF AND DUP2 MSTORE PUSH1 0x20 ADD SWAP1 DUP2 MSTORE PUSH1 0x20 ADD PUSH0 KECCAK256 PUSH0 PUSH2 0x100 EXP DUP2 SLOAD DUP2 PUSH1 0xFF MUL NOT AND SWAP1 DUP4 ISZERO ISZERO MUL OR SWAP1 SSTORE POP POP JUMP JUMPDEST PUSH1 0x2 PUSH0 SWAP1 SLOAD SWAP1 PUSH2 0x100 EXP SWAP1 DIV PUSH2 0xFFFF AND PUSH2 0xFFFF AND PUSH1 0x2 DUP1 SLOAD SWAP1 PUSH2 0x100 EXP SWAP1 DIV PUSH4 0xFFFFFFFF AND PUSH2 0xA19 SWAP2 SWAP1 PUSH2 0x180F JUMP JUMPDEST PUSH1 0x2 PUSH1 0x6 PUSH2 0x100 EXP DUP2 SLOAD DUP2 PUSH4 0xFFFFFFFF MUL NOT AND SWAP1 DUP4 PUSH4 0xFFFFFFFF AND MUL OR SWAP1 SSTORE POP PUSH0 PUSH1 0x2 PUSH1 0x6 SWAP1 SLOAD SWAP1 PUSH2 0x100 EXP SWAP1 DIV PUSH4 0xFFFFFFFF AND PUSH4 0xFFFFFFFF AND GT PUSH2 0xA93 JUMPI PUSH1 0x40 MLOAD PUSH32 0x8C379A000000000000000000000000000000000000000000000000000000000 DUP2 MSTORE PUSH1 0x4 ADD PUSH2 0xA8A SWAP1 PUSH2 0x1889 JUMP JUMPDEST PUSH1 0x40 MLOAD DUP1 SWAP2 SUB SWAP1 REVERT JUMPDEST PUSH1 0x2 PUSH1 0x6 SWAP1 SLOAD SWAP1 PUSH2 0x100 EXP SWAP1 DIV PUSH4 0xFFFFFFFF AND PUSH4 0xFFFFFFFF AND CALLVALUE LT ISZERO PUSH2 0xAEE JUMPI PUSH1 0x40 MLOAD PUSH32 0x8C379A000000000000000000000000000000000000000000000000000000000 DUP2 MSTORE PUSH1 0x4 ADD PUSH2 0xAE5 SWAP1 PUSH2 0x18F1 JUMP JUMPDEST PUSH1 0x40 MLOAD DUP1 SWAP2 SUB SWAP1 REVERT JUMPDEST PUSH1 0x3 PUSH0 CALLER PUSH20 0xFFFFFFFFFFFFFFFFFFFFFFFFFFFFFFFFFFFFFFFF AND PUSH20 0xFFFFFFFFFFFFFFFFFFFFFFFFFFFFFFFFFFFFFFFF AND DUP2 MSTORE PUSH1 0x20 ADD SWAP1 DUP2 MSTORE PUSH1 0x20 ADD PUSH0 KECCAK256 PUSH0 SWAP1 SLOAD SWAP1 PUSH2 0x100 EXP SWAP1 DIV PUSH1 0xFF AND ISZERO PUSH2 0xB78 JUMPI PUSH1 0x40 MLOAD PUSH32 0x8C379A000000000000000000000000000000000000000000000000000000000 DUP2 MSTORE PUSH1 0x4 ADD PUSH2 0xB6F SWAP1 PUSH2 0x197F JUMP JUMPDEST PUSH1 0x40 MLOAD DUP1 SWAP2 SUB SWAP1 REVERT JUMPDEST PUSH1 0x2 PUSH0 SWAP1 SLOAD SWAP1 PUSH2 0x100 EXP SWAP1 DIV PUSH2 0xFFFF AND PUSH2 0xFFFF AND PUSH1 0x5 PUSH0 SWAP1 SLOAD SWAP1 PUSH2 0x100 EXP SWAP1 DIV PUSH2 0xFFFF AND PUSH2 0xFFFF AND LT PUSH2 0xBE0 JUMPI PUSH1 0x40 MLOAD PUSH32 0x8C379A000000000000000000000000000000000000000000000000000000000 DUP2 MSTORE PUSH1 0x4 ADD PUSH2 0xBD7 SWAP1 PUSH2 0x19E7 JUMP JUMPDEST PUSH1 0x40 MLOAD DUP1 SWAP2 SUB SWAP1 REVERT JUMPDEST PUSH0 PUSH1 0x5 PUSH1 0x2 SWAP1 SLOAD SWAP1 PUSH2 0x100 EXP SWAP1 DIV PUSH6 0xFFFFFFFFFFFF AND PUSH6 0xFFFFFFFFFFFF AND EQ PUSH2 0xC3E JUMPI PUSH1 0x40 MLOAD PUSH32 0x8C379A000000000000000000000000000000000000000000000000000000000 DUP2 MSTORE PUSH1 0x4 ADD PUSH2 0xC35 SWAP1 PUSH2 0x1A4F JUMP JUMPDEST PUSH1 0x40 MLOAD DUP1 SWAP2 SUB SWAP1 REVERT JUMPDEST PUSH1 0x5 PUSH1 0x9 SWAP1 SLOAD SWAP1 PUSH2 0x100 EXP SWAP1 DIV PUSH1 0xFF AND ISZERO PUSH2 0xCA6 JUMPI PUSH1 0x6 PUSH0 CALLER PUSH20 0xFFFFFFFFFFFFFFFFFFFFFFFFFFFFFFFFFFFFFFFF AND PUSH20 0xFFFFFFFFFFFFFFFFFFFFFFFFFFFFFFFFFFFFFFFF AND DUP2 MSTORE PUSH1 0x20 ADD SWAP1 DUP2 MSTORE PUSH1 0x20 ADD PUSH0 KECCAK256 PUSH0 SWAP1 SLOAD SWAP1 PUSH2 0x100 EXP SWAP1 DIV PUSH1 0xFF AND PUSH2 0xCA5 JUMPI PUSH0 DUP1 REVERT JUMPDEST JUMPDEST PUSH0 PUSH1 0x2 PUSH1 0x6 SWAP1 SLOAD SWAP1 PUSH2 0x100 EXP SWAP1 DIV PUSH4 0xFFFFFFFF AND PUSH4 0xFFFFFFFF AND CALLVALUE PUSH2 0xCCB SWAP2 SWAP1 PUSH2 0x1A76 JUMP JUMPDEST SWAP1 POP PUSH1 0x1 PUSH1 0x3 PUSH0 CALLER PUSH20 0xFFFFFFFFFFFFFFFFFFFFFFFFFFFFFFFFFFFFFFFF AND PUSH20 0xFFFFFFFFFFFFFFFFFFFFFFFFFFFFFFFFFFFFFFFF AND DUP2 MSTORE PUSH1 0x20 ADD SWAP1 DUP2 MSTORE PUSH1 0x20 ADD PUSH0 KECCAK256 PUSH0 PUSH2 0x100 EXP DUP2 SLOAD DUP2 PUSH1 0xFF MUL NOT AND SWAP1 DUP4 ISZERO ISZERO MUL OR SWAP1 SSTORE POP PUSH1 0x5 PUSH0 DUP2 DUP2 SWAP1 SLOAD SWAP1 PUSH2 0x100 EXP SWAP1 DIV PUSH2 0xFFFF AND DUP1 SWAP3 SWAP2 SWAP1 PUSH2 0xD41 SWAP1 PUSH2 0x1AA9 JUMP JUMPDEST SWAP2 SWAP1 PUSH2 0x100 EXP DUP2 SLOAD DUP2 PUSH2 0xFFFF MUL NOT AND SWAP1 DUP4 PUSH2 0xFFFF AND MUL OR SWAP1 SSTORE POP POP PUSH0 DUP2 GT ISZERO PUSH2 0xDA9 JUMPI CALLER PUSH20 0xFFFFFFFFFFFFFFFFFFFFFFFFFFFFFFFFFFFFFFFF AND PUSH2 0x8FC DUP3 SWAP1 DUP2 ISZERO MUL SWAP1 PUSH1 0x40 MLOAD PUSH0 PUSH1 0x40 MLOAD DUP1 DUP4 SUB DUP2 DUP6 DUP9 DUP9 CALL SWAP4 POP POP POP POP ISZERO DUP1 ISZERO PUSH2 0xDA7 JUMPI RETURNDATASIZE PUSH0 DUP1 RETURNDATACOPY RETURNDATASIZE PUSH0 REVERT JUMPDEST POP JUMPDEST POP JUMP JUMPDEST PUSH1 0x2 PUSH0 SWAP1 SLOAD SWAP1 PUSH2 0x100 EXP SWAP1 DIV PUSH2 0xFFFF AND DUP2 JUMP JUMPDEST PUSH1 0x4 PUSH1 0x20 MSTORE DUP1 PUSH0 MSTORE PUSH1 0x40 PUSH0 KECCAK256 PUSH0 SWAP2 POP SLOAD SWAP1 PUSH2 0x100 EXP SWAP1 DIV PUSH1 0xFF AND DUP2 JUMP JUMPDEST PUSH0 DUP1 SLOAD SWAP1 PUSH2 0x100 EXP SWAP1 DIV PUSH20 0xFFFFFFFFFFFFFFFFFFFFFFFFFFFFFFFFFFFFFFFF AND DUP2 JUMP JUMPDEST PUSH1 0x5 PUSH1 0x9 SWAP1 SLOAD SWAP1 PUSH2 0x100 EXP SWAP1 DIV PUSH1 0xFF AND DUP2 JUMP JUMPDEST PUSH1 0x5 PUSH1 0x8 SWAP1 SLOAD SWAP1 PUSH2 0x100 EXP SWAP1 DIV PUSH1 0xFF AND DUP2 JUMP JUMPDEST PUSH0 DUP1 SLOAD SWAP1 PUSH2 0x100 EXP SWAP1 DIV PUSH20 0xFFFFFFFFFFFFFFFFFFFFFFFFFFFFFFFFFFFFFFFF AND PUSH20 0xFFFFFFFFFFFFFFFFFFFFFFFFFFFFFFFFFFFFFFFF AND CALLER PUSH20 0xFFFFFFFFFFFFFFFFFFFFFFFFFFFFFFFFFFFFFFFF AND EQ PUSH2 0xE7B JUMPI PUSH0 DUP1 REVERT JUMPDEST PUSH0 CALLVALUE GT PUSH2 0xEBD JUMPI PUSH1 0x40 MLOAD PUSH32 0x8C379A000000000000000000000000000000000000000000000000000000000 DUP2 MSTORE PUSH1 0x4 ADD PUSH2 0xEB4 SWAP1 PUSH2 0x1B42 JUMP JUMPDEST PUSH1 0x40 MLOAD DUP1 SWAP2 SUB SWAP1 REVERT JUMPDEST PUSH0 PUSH1 0x5 PUSH1 0x2 SWAP1 SLOAD SWAP1 PUSH2 0x100 EXP SWAP1 DIV PUSH6 0xFFFFFFFFFFFF AND PUSH6 0xFFFFFFFFFFFF AND EQ PUSH2 0xF1B JUMPI PUSH1 0x40 MLOAD PUSH32 0x8C379A000000000000000000000000000000000000000000000000000000000 DUP2 MSTORE PUSH1 0x4 ADD PUSH2 0xF12 SWAP1 PUSH2 0x1BAA JUMP JUMPDEST PUSH1 0x40 MLOAD DUP1 SWAP2 SUB SWAP1 REVERT JUMPDEST PUSH1 0x5 PUSH0 SWAP1 SLOAD SWAP1 PUSH2 0x100 EXP SWAP1 DIV PUSH2 0xFFFF AND PUSH2 0xFFFF AND DUP2 PUSH2 0xF3A SWAP2 SWAP1 PUSH2 0x1BC8 JUMP JUMPDEST PUSH1 0x5 PUSH1 0x2 PUSH2 0x100 EXP DUP2 SLOAD DUP2 PUSH6 0xFFFFFFFFFFFF MUL NOT AND SWAP1 DUP4 PUSH6 0xFFFFFFFFFFFF AND MUL OR SWAP1 SSTORE POP PUSH1 0x1 PUSH1 0x5 PUSH1 0x8 PUSH2 0x100 EXP DUP2 SLOAD DUP2 PUSH1 0xFF MUL NOT AND SWAP1 DUP4 ISZERO ISZERO MUL OR SWAP1 SSTORE POP POP JUMP JUMPDEST PUSH1 0x1 DUP1 SLOAD PUSH2 0xF89 SWAP1 PUSH2 0x1C25 JUMP JUMPDEST DUP1 PUSH1 0x1F ADD PUSH1 0x20 DUP1 SWAP2 DIV MUL PUSH1 0x20 ADD PUSH1 0x40 MLOAD SWAP1 DUP2 ADD PUSH1 0x40 MSTORE DUP1 SWAP3 SWAP2 SWAP1 DUP2 DUP2 MSTORE PUSH1 0x20 ADD DUP3 DUP1 SLOAD PUSH2 0xFB5 SWAP1 PUSH2 0x1C25 JUMP JUMPDEST DUP1 ISZERO PUSH2 0x1000 JUMPI DUP1 PUSH1 0x1F LT PUSH2 0xFD7 JUMPI PUSH2 0x100 DUP1 DUP4 SLOAD DIV MUL DUP4 MSTORE SWAP2 PUSH1 0x20 ADD SWAP2 PUSH2 0x1000 JUMP JUMPDEST DUP3 ADD SWAP2 SWAP1 PUSH0 MSTORE PUSH1 0x20 PUSH0 KECCAK256 SWAP1 JUMPDEST DUP2 SLOAD DUP2 MSTORE SWAP1 PUSH1 0x1 ADD SWAP1 PUSH1 0x20 ADD DUP1 DUP4 GT PUSH2 0xFE3 JUMPI DUP3 SWAP1 SUB PUSH1 0x1F AND DUP3 ADD SWAP2 JUMPDEST POP POP POP POP POP DUP2 JUMP JUMPDEST PUSH0 DUP1 SLOAD SWAP1 PUSH2 0x100 EXP SWAP1 DIV PUSH20 0xFFFFFFFFFFFFFFFFFFFFFFFFFFFFFFFFFFFFFFFF AND PUSH20 0xFFFFFFFFFFFFFFFFFFFFFFFFFFFFFFFFFFFFFFFF AND CALLER PUSH20 0xFFFFFFFFFFFFFFFFFFFFFFFFFFFFFFFFFFFFFFFF AND EQ PUSH2 0x105E JUMPI PUSH0 DUP1 REVERT JUMPDEST PUSH0 PUSH1 0x5 PUSH0 SWAP1 SLOAD SWAP1 PUSH2 0x100 EXP SWAP1 DIV PUSH2 0xFFFF AND PUSH2 0xFFFF AND EQ PUSH2 0x10B3 JUMPI PUSH1 0x40 MLOAD PUSH32 0x8C379A000000000000000000000000000000000000000000000000000000000 DUP2 MSTORE PUSH1 0x4 ADD PUSH2 0x10AA SWAP1 PUSH2 0x1CEB JUMP JUMPDEST PUSH1 0x40 MLOAD DUP1 SWAP2 SUB SWAP1 REVERT JUMPDEST DUP1 PUSH1 0x2 PUSH0 PUSH2 0x100 EXP DUP2 SLOAD DUP2 PUSH2 0xFFFF MUL NOT AND SWAP1 DUP4 PUSH2 0xFFFF AND MUL OR SWAP1 SSTORE POP POP JUMP JUMPDEST PUSH0 PUSH6 0xFFFFFFFFFFFF DUP3 AND SWAP1 POP SWAP2 SWAP1 POP JUMP JUMPDEST PUSH2 0x10EC DUP2 PUSH2 0x10D2 JUMP JUMPDEST DUP3 MSTORE POP POP JUMP JUMPDEST PUSH0 PUSH1 0x20 DUP3 ADD SWAP1 POP PUSH2 0x1105 PUSH0 DUP4 ADD DUP5 PUSH2 0x10E3 JUMP JUMPDEST SWAP3 SWAP2 POP POP JUMP JUMPDEST PUSH0 PUSH4 0xFFFFFFFF DUP3 AND SWAP1 POP SWAP2 SWAP1 POP JUMP JUMPDEST PUSH2 0x1123 DUP2 PUSH2 0x110B JUMP JUMPDEST DUP3 MSTORE POP POP JUMP JUMPDEST PUSH0 PUSH1 0x20 DUP3 ADD SWAP1 POP PUSH2 0x113C PUSH0 DUP4 ADD DUP5 PUSH2 0x111A JUMP JUMPDEST SWAP3 SWAP2 POP POP JUMP JUMPDEST PUSH0 DUP1 REVERT JUMPDEST PUSH2 0x114F DUP2 PUSH2 0x110B JUMP JUMPDEST DUP2 EQ PUSH2 0x1159 JUMPI PUSH0 DUP1 REVERT JUMPDEST POP JUMP JUMPDEST PUSH0 DUP2 CALLDATALOAD SWAP1 POP PUSH2 0x116A DUP2 PUSH2 0x1146 JUMP JUMPDEST SWAP3 SWAP2 POP POP JUMP JUMPDEST PUSH0 PUSH1 0x20 DUP3 DUP5 SUB SLT ISZERO PUSH2 0x1185 JUMPI PUSH2 0x1184 PUSH2 0x1142 JUMP JUMPDEST JUMPDEST PUSH0 PUSH2 0x1192 DUP5 DUP3 DUP6 ADD PUSH2 0x115C JUMP JUMPDEST SWAP2 POP POP SWAP3 SWAP2 POP POP JUMP JUMPDEST PUSH0 PUSH20 0xFFFFFFFFFFFFFFFFFFFFFFFFFFFFFFFFFFFFFFFF DUP3 AND SWAP1 POP SWAP2 SWAP1 POP JUMP JUMPDEST PUSH0 PUSH2 0x11C4 DUP3 PUSH2 0x119B JUMP JUMPDEST SWAP1 POP SWAP2 SWAP1 POP JUMP JUMPDEST PUSH2 0x11D4 DUP2 PUSH2 0x11BA JUMP JUMPDEST DUP2 EQ PUSH2 0x11DE JUMPI PUSH0 DUP1 REVERT JUMPDEST POP JUMP JUMPDEST PUSH0 DUP2 CALLDATALOAD SWAP1 POP PUSH2 0x11EF DUP2 PUSH2 0x11CB JUMP JUMPDEST SWAP3 SWAP2 POP POP JUMP JUMPDEST PUSH0 PUSH1 0x20 DUP3 DUP5 SUB SLT ISZERO PUSH2 0x120A JUMPI PUSH2 0x1209 PUSH2 0x1142 JUMP JUMPDEST JUMPDEST PUSH0 PUSH2 0x1217 DUP5 DUP3 DUP6 ADD PUSH2 0x11E1 JUMP JUMPDEST SWAP2 POP POP SWAP3 SWAP2 POP POP JUMP JUMPDEST PUSH0 DUP2 ISZERO ISZERO SWAP1 POP SWAP2 SWAP1 POP JUMP JUMPDEST PUSH2 0x1234 DUP2 PUSH2 0x1220 JUMP JUMPDEST DUP3 MSTORE POP POP JUMP JUMPDEST PUSH0 PUSH1 0x20 DUP3 ADD SWAP1 POP PUSH2 0x124D PUSH0 DUP4 ADD DUP5 PUSH2 0x122B JUMP JUMPDEST SWAP3 SWAP2 POP POP JUMP JUMPDEST PUSH0 PUSH2 0xFFFF DUP3 AND SWAP1 POP SWAP2 SWAP1 POP JUMP JUMPDEST PUSH2 0x1269 DUP2 PUSH2 0x1253 JUMP JUMPDEST DUP3 MSTORE POP POP JUMP JUMPDEST PUSH0 PUSH1 0x20 DUP3 ADD SWAP1 POP PUSH2 0x1282 PUSH0 DUP4 ADD DUP5 PUSH2 0x1260 JUMP JUMPDEST SWAP3 SWAP2 POP POP JUMP JUMPDEST PUSH2 0x1291 DUP2 PUSH2 0x11BA JUMP JUMPDEST DUP3 MSTORE POP POP JUMP JUMPDEST PUSH0 PUSH1 0x20 DUP3 ADD SWAP1 POP PUSH2 0x12AA PUSH0 DUP4 ADD DUP5 PUSH2 0x1288 JUMP JUMPDEST SWAP3 SWAP2 POP POP JUMP JUMPDEST PUSH2 0x12B9 DUP2 PUSH2 0x10D2 JUMP JUMPDEST DUP2 EQ PUSH2 0x12C3 JUMPI PUSH0 DUP1 REVERT JUMPDEST POP JUMP JUMPDEST PUSH0 DUP2 CALLDATALOAD SWAP1 POP PUSH2 0x12D4 DUP2 PUSH2 0x12B0 JUMP JUMPDEST SWAP3 SWAP2 POP POP JUMP JUMPDEST PUSH0 PUSH1 0x20 DUP3 DUP5 SUB SLT ISZERO PUSH2 0x12EF JUMPI PUSH2 0x12EE PUSH2 0x1142 JUMP JUMPDEST JUMPDEST PUSH0 PUSH2 0x12FC DUP5 DUP3 DUP6 ADD PUSH2 0x12C6 JUMP JUMPDEST SWAP2 POP POP SWAP3 SWAP2 POP POP JUMP JUMPDEST PUSH0 DUP2 MLOAD SWAP1 POP SWAP2 SWAP1 POP JUMP JUMPDEST PUSH0 DUP3 DUP3 MSTORE PUSH1 0x20 DUP3 ADD SWAP1 POP SWAP3 SWAP2 POP POP JUMP JUMPDEST PUSH0 JUMPDEST DUP4 DUP2 LT ISZERO PUSH2 0x133C JUMPI DUP1 DUP3 ADD MLOAD DUP2 DUP5 ADD MSTORE PUSH1 0x20 DUP2 ADD SWAP1 POP PUSH2 0x1321 JUMP JUMPDEST PUSH0 DUP5 DUP5 ADD MSTORE POP POP POP POP JUMP JUMPDEST PUSH0 PUSH1 0x1F NOT PUSH1 0x1F DUP4 ADD AND SWAP1 POP SWAP2 SWAP1 POP JUMP JUMPDEST PUSH0 PUSH2 0x1361 DUP3 PUSH2 0x1305 JUMP JUMPDEST PUSH2 0x136B DUP2 DUP6 PUSH2 0x130F JUMP JUMPDEST SWAP4 POP PUSH2 0x137B DUP2 DUP6 PUSH1 0x20 DUP7 ADD PUSH2 0x131F JUMP JUMPDEST PUSH2 0x1384 DUP2 PUSH2 0x1347 JUMP JUMPDEST DUP5 ADD SWAP2 POP POP SWAP3 SWAP2 POP POP JUMP JUMPDEST PUSH0 PUSH1 0x20 DUP3 ADD SWAP1 POP DUP2 DUP2 SUB PUSH0 DUP4 ADD MSTORE PUSH2 0x13A7 DUP2 DUP5 PUSH2 0x1357 JUMP JUMPDEST SWAP1 POP SWAP3 SWAP2 POP POP JUMP JUMPDEST PUSH2 0x13B8 DUP2 PUSH2 0x1253 JUMP JUMPDEST DUP2 EQ PUSH2 0x13C2 JUMPI PUSH0 DUP1 REVERT JUMPDEST POP JUMP JUMPDEST PUSH0 DUP2 CALLDATALOAD SWAP1 POP PUSH2 0x13D3 DUP2 PUSH2 0x13AF JUMP JUMPDEST SWAP3 SWAP2 POP POP JUMP JUMPDEST PUSH0 PUSH1 0x20 DUP3 DUP5 SUB SLT ISZERO PUSH2 0x13EE JUMPI PUSH2 0x13ED PUSH2 0x1142 JUMP JUMPDEST JUMPDEST PUSH0 PUSH2 0x13FB DUP5 DUP3 DUP6 ADD PUSH2 0x13C5 JUMP JUMPDEST SWAP2 POP POP SWAP3 SWAP2 POP POP JUMP JUMPDEST PUSH32 0x4E6F2072652D656E7472616E6379000000000000000000000000000000000000 PUSH0 DUP3 ADD MSTORE POP JUMP JUMPDEST PUSH0 PUSH2 0x1438 PUSH1 0xE DUP4 PUSH2 0x130F JUMP JUMPDEST SWAP2 POP PUSH2 0x1443 DUP3 PUSH2 0x1404 JUMP JUMPDEST PUSH1 0x20 DUP3 ADD SWAP1 POP SWAP2 SWAP1 POP JUMP JUMPDEST PUSH0 PUSH1 0x20 DUP3 ADD SWAP1 POP DUP2 DUP2 SUB PUSH0 DUP4 ADD MSTORE PUSH2 0x1465 DUP2 PUSH2 0x142C JUMP JUMPDEST SWAP1 POP SWAP2 SWAP1 POP JUMP JUMPDEST PUSH32 0x4B65696E20476577696E6E2065696E67657A61686C7400000000000000000000 PUSH0 DUP3 ADD MSTORE POP JUMP JUMPDEST PUSH0 PUSH2 0x14A0 PUSH1 0x16 DUP4 PUSH2 0x130F JUMP JUMPDEST SWAP2 POP PUSH2 0x14AB DUP3 PUSH2 0x146C JUMP JUMPDEST PUSH1 0x20 DUP3 ADD SWAP1 POP SWAP2 SWAP1 POP JUMP JUMPDEST PUSH0 PUSH1 0x20 DUP3 ADD SWAP1 POP DUP2 DUP2 SUB PUSH0 DUP4 ADD MSTORE PUSH2 0x14CD DUP2 PUSH2 0x1494 JUMP JUMPDEST SWAP1 POP SWAP2 SWAP1 POP JUMP JUMPDEST PUSH32 0x44752062697374206B65696E204D6974737069656C6572000000000000000000 PUSH0 DUP3 ADD MSTORE POP JUMP JUMPDEST PUSH0 PUSH2 0x1508 PUSH1 0x17 DUP4 PUSH2 0x130F JUMP JUMPDEST SWAP2 POP PUSH2 0x1513 DUP3 PUSH2 0x14D4 JUMP JUMPDEST PUSH1 0x20 DUP3 ADD SWAP1 POP SWAP2 SWAP1 POP JUMP JUMPDEST PUSH0 PUSH1 0x20 DUP3 ADD SWAP1 POP DUP2 DUP2 SUB PUSH0 DUP4 ADD MSTORE PUSH2 0x1535 DUP2 PUSH2 0x14FC JUMP JUMPDEST SWAP1 POP SWAP2 SWAP1 POP JUMP JUMPDEST PUSH32 0x4465696E20476577696E6E20777572646520626572656974732061757367657A PUSH0 DUP3 ADD MSTORE PUSH32 0x61686C7400000000000000000000000000000000000000000000000000000000 PUSH1 0x20 DUP3 ADD MSTORE POP JUMP JUMPDEST PUSH0 PUSH2 0x1596 PUSH1 0x24 DUP4 PUSH2 0x130F JUMP JUMPDEST SWAP2 POP PUSH2 0x15A1 DUP3 PUSH2 0x153C JUMP JUMPDEST PUSH1 0x40 DUP3 ADD SWAP1 POP SWAP2 SWAP1 POP JUMP JUMPDEST PUSH0 PUSH1 0x20 DUP3 ADD SWAP1 POP DUP2 DUP2 SUB PUSH0 DUP4 ADD MSTORE PUSH2 0x15C3 DUP2 PUSH2 0x158A JUMP JUMPDEST SWAP1 POP SWAP2 SWAP1 POP JUMP JUMPDEST PUSH0 DUP2 SWAP1 POP SWAP3 SWAP2 POP POP JUMP JUMPDEST POP JUMP JUMPDEST PUSH0 PUSH2 0x15E2 PUSH0 DUP4 PUSH2 0x15CA JUMP JUMPDEST SWAP2 POP PUSH2 0x15ED DUP3 PUSH2 0x15D4 JUMP JUMPDEST PUSH0 DUP3 ADD SWAP1 POP SWAP2 SWAP1 POP JUMP JUMPDEST PUSH0 PUSH2 0x1601 DUP3 PUSH2 0x15D7 JUMP JUMPDEST SWAP2 POP DUP2 SWAP1 POP SWAP2 SWAP1 POP JUMP JUMPDEST PUSH32 0x4175737A61686C756E672064657320476577696E6E73206665686C6765736368 PUSH0 DUP3 ADD MSTORE PUSH32 0x6C6167656E000000000000000000000000000000000000000000000000000000 PUSH1 0x20 DUP3 ADD MSTORE POP JUMP JUMPDEST PUSH0 PUSH2 0x1665 PUSH1 0x25 DUP4 PUSH2 0x130F JUMP JUMPDEST SWAP2 POP PUSH2 0x1670 DUP3 PUSH2 0x160B JUMP JUMPDEST PUSH1 0x40 DUP3 ADD SWAP1 POP SWAP2 SWAP1 POP JUMP JUMPDEST PUSH0 PUSH1 0x20 DUP3 ADD SWAP1 POP DUP2 DUP2 SUB PUSH0 DUP4 ADD MSTORE PUSH2 0x1692 DUP2 PUSH2 0x1659 JUMP JUMPDEST SWAP1 POP SWAP2 SWAP1 POP JUMP JUMPDEST PUSH32 0x457320676962742062657265697473204D6974737069656C65722E2050726569 PUSH0 DUP3 ADD MSTORE PUSH32 0x7361656E646572756E67206E69636874206D656872206D6F65676C6963682E00 PUSH1 0x20 DUP3 ADD MSTORE POP JUMP JUMPDEST PUSH0 PUSH2 0x16F3 PUSH1 0x3F DUP4 PUSH2 0x130F JUMP JUMPDEST SWAP2 POP PUSH2 0x16FE DUP3 PUSH2 0x1699 JUMP JUMPDEST PUSH1 0x40 DUP3 ADD SWAP1 POP SWAP2 SWAP1 POP JUMP JUMPDEST PUSH0 PUSH1 0x20 DUP3 ADD SWAP1 POP DUP2 DUP2 SUB PUSH0 DUP4 ADD MSTORE PUSH2 0x1720 DUP2 PUSH2 0x16E7 JUMP JUMPDEST SWAP1 POP SWAP2 SWAP1 POP JUMP JUMPDEST PUSH32 0x457320676962742062657265697473204D6974737069656C65722E2041656E64 PUSH0 DUP3 ADD MSTORE PUSH32 0x6572756E67206E69636874206D656872206D6F65676C6963682E000000000000 PUSH1 0x20 DUP3 ADD MSTORE POP JUMP JUMPDEST PUSH0 PUSH2 0x1781 PUSH1 0x3A DUP4 PUSH2 0x130F JUMP JUMPDEST SWAP2 POP PUSH2 0x178C DUP3 PUSH2 0x1727 JUMP JUMPDEST PUSH1 0x40 DUP3 ADD SWAP1 POP SWAP2 SWAP1 POP JUMP JUMPDEST PUSH0 PUSH1 0x20 DUP3 ADD SWAP1 POP DUP2 DUP2 SUB PUSH0 DUP4 ADD MSTORE PUSH2 0x17AE DUP2 PUSH2 0x1775 JUMP JUMPDEST SWAP1 POP SWAP2 SWAP1 POP JUMP JUMPDEST PUSH32 0x4E487B7100000000000000000000000000000000000000000000000000000000 PUSH0 MSTORE PUSH1 0x12 PUSH1 0x4 MSTORE PUSH1 0x24 PUSH0 REVERT JUMPDEST PUSH32 0x4E487B7100000000000000000000000000000000000000000000000000000000 PUSH0 MSTORE PUSH1 0x11 PUSH1 0x4 MSTORE PUSH1 0x24 PUSH0 REVERT JUMPDEST PUSH0 PUSH2 0x1819 DUP3 PUSH2 0x110B JUMP JUMPDEST SWAP2 POP PUSH2 0x1824 DUP4 PUSH2 0x110B JUMP JUMPDEST SWAP3 POP DUP3 PUSH2 0x1834 JUMPI PUSH2 0x1833 PUSH2 0x17B5 JUMP JUMPDEST JUMPDEST DUP3 DUP3 DIV SWAP1 POP SWAP3 SWAP2 POP POP JUMP JUMPDEST PUSH32 0x4B65696E2050726569732070726F204D6974737069656C657200000000000000 PUSH0 DUP3 ADD MSTORE POP JUMP JUMPDEST PUSH0 PUSH2 0x1873 PUSH1 0x19 DUP4 PUSH2 0x130F JUMP JUMPDEST SWAP2 POP PUSH2 0x187E DUP3 PUSH2 0x183F JUMP JUMPDEST PUSH1 0x20 DUP3 ADD SWAP1 POP SWAP2 SWAP1 POP JUMP JUMPDEST PUSH0 PUSH1 0x20 DUP3 ADD SWAP1 POP DUP2 DUP2 SUB PUSH0 DUP4 ADD MSTORE PUSH2 0x18A0 DUP2 PUSH2 0x1867 JUMP JUMPDEST SWAP1 POP SWAP2 SWAP1 POP JUMP JUMPDEST PUSH32 0x5A7520676572696E6765722045696E7A61686C756E6773626574726167000000 PUSH0 DUP3 ADD MSTORE POP JUMP JUMPDEST PUSH0 PUSH2 0x18DB PUSH1 0x1D DUP4 PUSH2 0x130F JUMP JUMPDEST SWAP2 POP PUSH2 0x18E6 DUP3 PUSH2 0x18A7 JUMP JUMPDEST PUSH1 0x20 DUP3 ADD SWAP1 POP SWAP2 SWAP1 POP JUMP JUMPDEST PUSH0 PUSH1 0x20 DUP3 ADD SWAP1 POP DUP2 DUP2 SUB PUSH0 DUP4 ADD MSTORE PUSH2 0x1908 DUP2 PUSH2 0x18CF JUMP JUMPDEST SWAP1 POP SWAP2 SWAP1 POP JUMP JUMPDEST PUSH32 0x4265726569747320616C73204D6974737069656C657220726567697374726965 PUSH0 DUP3 ADD MSTORE PUSH32 0x7274000000000000000000000000000000000000000000000000000000000000 PUSH1 0x20 DUP3 ADD MSTORE POP JUMP JUMPDEST PUSH0 PUSH2 0x1969 PUSH1 0x22 DUP4 PUSH2 0x130F JUMP JUMPDEST SWAP2 POP PUSH2 0x1974 DUP3 PUSH2 0x190F JUMP JUMPDEST PUSH1 0x40 DUP3 ADD SWAP1 POP SWAP2 SWAP1 POP JUMP JUMPDEST PUSH0 PUSH1 0x20 DUP3 ADD SWAP1 POP DUP2 DUP2 SUB PUSH0 DUP4 ADD MSTORE PUSH2 0x1996 DUP2 PUSH2 0x195D JUMP JUMPDEST SWAP1 POP SWAP2 SWAP1 POP JUMP JUMPDEST PUSH32 0x4D6178696D616C65205465696C6E65686D65727A61686C206572726569636874 PUSH0 DUP3 ADD MSTORE POP JUMP JUMPDEST PUSH0 PUSH2 0x19D1 PUSH1 0x20 DUP4 PUSH2 0x130F JUMP JUMPDEST SWAP2 POP PUSH2 0x19DC DUP3 PUSH2 0x199D JUMP JUMPDEST PUSH1 0x20 DUP3 ADD SWAP1 POP SWAP2 SWAP1 POP JUMP JUMPDEST PUSH0 PUSH1 0x20 DUP3 ADD SWAP1 POP DUP2 DUP2 SUB PUSH0 DUP4 ADD MSTORE PUSH2 0x19FE DUP2 PUSH2 0x19C5 JUMP JUMPDEST SWAP1 POP SWAP2 SWAP1 POP JUMP JUMPDEST PUSH32 0x476577696E6E20777572646520626572656974732065696E67657A61686C7400 PUSH0 DUP3 ADD MSTORE POP JUMP JUMPDEST PUSH0 PUSH2 0x1A39 PUSH1 0x1F DUP4 PUSH2 0x130F JUMP JUMPDEST SWAP2 POP PUSH2 0x1A44 DUP3 PUSH2 0x1A05 JUMP JUMPDEST PUSH1 0x20 DUP3 ADD SWAP1 POP SWAP2 SWAP1 POP JUMP JUMPDEST PUSH0 PUSH1 0x20 DUP3 ADD SWAP1 POP DUP2 DUP2 SUB PUSH0 DUP4 ADD MSTORE PUSH2 0x1A66 DUP2 PUSH2 0x1A2D JUMP JUMPDEST SWAP1 POP SWAP2 SWAP1 POP JUMP JUMPDEST PUSH0 DUP2 SWAP1 POP SWAP2 SWAP1 POP JUMP JUMPDEST PUSH0 PUSH2 0x1A80 DUP3 PUSH2 0x1A6D JUMP JUMPDEST SWAP2 POP PUSH2 0x1A8B DUP4 PUSH2 0x1A6D JUMP JUMPDEST SWAP3 POP DUP3 DUP3 SUB SWAP1 POP DUP2 DUP2 GT ISZERO PUSH2 0x1AA3 JUMPI PUSH2 0x1AA2 PUSH2 0x17E2 JUMP JUMPDEST JUMPDEST SWAP3 SWAP2 POP POP JUMP JUMPDEST PUSH0 PUSH2 0x1AB3 DUP3 PUSH2 0x1253 JUMP JUMPDEST SWAP2 POP PUSH2 0xFFFF DUP3 SUB PUSH2 0x1AC7 JUMPI PUSH2 0x1AC6 PUSH2 0x17E2 JUMP JUMPDEST JUMPDEST PUSH1 0x1 DUP3 ADD SWAP1 POP SWAP2 SWAP1 POP JUMP JUMPDEST PUSH32 0x45696E7A61686C756E6773626574726167206D7573732067726F657373657220 PUSH0 DUP3 ADD MSTORE PUSH32 0x616C732030207365696E00000000000000000000000000000000000000000000 PUSH1 0x20 DUP3 ADD MSTORE POP JUMP JUMPDEST PUSH0 PUSH2 0x1B2C PUSH1 0x2A DUP4 PUSH2 0x130F JUMP JUMPDEST SWAP2 POP PUSH2 0x1B37 DUP3 PUSH2 0x1AD2 JUMP JUMPDEST PUSH1 0x40 DUP3 ADD SWAP1 POP SWAP2 SWAP1 POP JUMP JUMPDEST PUSH0 PUSH1 0x20 DUP3 ADD SWAP1 POP DUP2 DUP2 SUB PUSH0 DUP4 ADD MSTORE PUSH2 0x1B59 DUP2 PUSH2 0x1B20 JUMP JUMPDEST SWAP1 POP SWAP2 SWAP1 POP JUMP JUMPDEST PUSH32 0x476577696E6E20777572646520626572656974732065696E67657A61686C742E PUSH0 DUP3 ADD MSTORE POP JUMP JUMPDEST PUSH0 PUSH2 0x1B94 PUSH1 0x20 DUP4 PUSH2 0x130F JUMP JUMPDEST SWAP2 POP PUSH2 0x1B9F DUP3 PUSH2 0x1B60 JUMP JUMPDEST PUSH1 0x20 DUP3 ADD SWAP1 POP SWAP2 SWAP1 POP JUMP JUMPDEST PUSH0 PUSH1 0x20 DUP3 ADD SWAP1 POP DUP2 DUP2 SUB PUSH0 DUP4 ADD MSTORE PUSH2 0x1BC1 DUP2 PUSH2 0x1B88 JUMP JUMPDEST SWAP1 POP SWAP2 SWAP1 POP JUMP JUMPDEST PUSH0 PUSH2 0x1BD2 DUP3 PUSH2 0x10D2 JUMP JUMPDEST SWAP2 POP PUSH2 0x1BDD DUP4 PUSH2 0x10D2 JUMP JUMPDEST SWAP3 POP DUP3 PUSH2 0x1BED JUMPI PUSH2 0x1BEC PUSH2 0x17B5 JUMP JUMPDEST JUMPDEST DUP3 DUP3 DIV SWAP1 POP SWAP3 SWAP2 POP POP JUMP JUMPDEST PUSH32 0x4E487B7100000000000000000000000000000000000000000000000000000000 PUSH0 MSTORE PUSH1 0x22 PUSH1 0x4 MSTORE PUSH1 0x24 PUSH0 REVERT JUMPDEST PUSH0 PUSH1 0x2 DUP3 DIV SWAP1 POP PUSH1 0x1 DUP3 AND DUP1 PUSH2 0x1C3C JUMPI PUSH1 0x7F DUP3 AND SWAP2 POP JUMPDEST PUSH1 0x20 DUP3 LT DUP2 SUB PUSH2 0x1C4F JUMPI PUSH2 0x1C4E PUSH2 0x1BF8 JUMP JUMPDEST JUMPDEST POP SWAP2 SWAP1 POP JUMP JUMPDEST PUSH32 0x457320676962742062657265697473204D6974737069656C65722E2041656E64 PUSH0 DUP3 ADD MSTORE PUSH32 0x6572756E672064657220416E7A61686C20616E204D6974737069656C65726E20 PUSH1 0x20 DUP3 ADD MSTORE PUSH32 0x6E69636874206D656872206D6F65676C6963682E000000000000000000000000 PUSH1 0x40 DUP3 ADD MSTORE POP JUMP JUMPDEST PUSH0 PUSH2 0x1CD5 PUSH1 0x54 DUP4 PUSH2 0x130F JUMP JUMPDEST SWAP2 POP PUSH2 0x1CE0 DUP3 PUSH2 0x1C55 JUMP JUMPDEST PUSH1 0x60 DUP3 ADD SWAP1 POP SWAP2 SWAP1 POP JUMP JUMPDEST PUSH0 PUSH1 0x20 DUP3 ADD SWAP1 POP DUP2 DUP2 SUB PUSH0 DUP4 ADD MSTORE PUSH2 0x1D02 DUP2 PUSH2 0x1CC9 JUMP JUMPDEST SWAP1 POP SWAP2 SWAP1 POP JUMP INVALID LOG2 PUSH5 0x6970667358 0x22 SLT KECCAK256 PUSH4 0xE3871942 PUSH22 0xDA689E64F02A0702C75387F847B7C73AA9C0E24F5978 DUP6 RETURN DUP8 MLOAD PUSH5 0x736F6C6343 STOP ADDMOD OR STOP CALLER LOG2 PUSH5 0x6970667358 0x22 SLT KECCAK256 ORIGIN 0xD MUL 0xAF 0xF8 DUP13 0xB3 0x5E 0xF8 0x4C 0xCA 0xEA 0xE4 0xF6 0xD6 REVERT PUSH21 0x9EB13BA5F41B1FCA3061E462C5C72B64736F6C6343 STOP ADDMOD OR STOP CALLER "},"gasEstimates":{"creation":{"codeDepositCost":"3186800","executionCost":"3521","totalCost":"3190321"},"external":{"getGegruendeteLottogemeinschaften()":"infinite","getLottogemeinschaftsnamen()":"infinite","gruendeLottogemeinschaft(string,uint16,uint32,uint48,bool)":"infinite","lottogemeinschaften(uint256)":"5031","lottogemeinschaftsnamen(uint256)":"infinite","lottogemeinschaftsnamenmapping(string)":"infinite"}},"methodIdentifiers":{"getGegruendeteLottogemeinschaften()":"535da87c","getLottogemeinschaftsnamen()":"33abbcbc","gruendeLottogemeinschaft(string,uint16,uint32,uint48,bool)":"4fd6f68c","lottogemeinschaften(uint256)":"fb670056","lottogemeinschaftsnamen(uint256)":"ad6eb6d9","lottogemeinschaftsnamenmapping(string)":"95097fe1"}},"storageLayout":{"storage":[{"astId":14,"contract":"Lottogemeinschaft.sol:LottogemeinschaftFabrik","label":"lottogemeinschaften","offset":0,"slot":"0","type":"t_array(t_address_payable)dyn_storage"},{"astId":17,"contract":"Lottogemeinschaft.sol:LottogemeinschaftFabrik","label":"lottogemeinschaftsnamen","offset":0,"slot":"1","type":"t_array(t_string_storage)dyn_storage"},{"astId":21,"contract":"Lottogemeinschaft.sol:LottogemeinschaftFabrik","label":"lottogemeinschaftsnamenmapping","offset":0,"slot":"2","type":"t_mapping(t_string_memory_ptr,t_address)"}],"types":{"t_address":{"encoding":"inplace","label":"address","numberOfBytes":"20"},"t_address_payable":{"encoding":"inplace","label":"address payable","numberOfBytes":"20"},"t_array(t_address_payable)dyn_storage":{"base":"t_address_payable","encoding":"dynamic_array","label":"address payable[]","numberOfBytes":"32"},"t_array(t_string_storage)dyn_storage":{"base":"t_string_storage","encoding":"dynamic_array","label":"string[]","numberOfBytes":"32"},"t_mapping(t_string_memory_ptr,t_address)":{"encoding":"mapping","key":"t_string_memory_ptr","label":"mapping(string => address)","numberOfBytes":"32","value":"t_address"},"t_string_memory_ptr":{"encoding":"bytes","label":"string","numberOfBytes":"32"},"t_string_storage":{"encoding":"bytes","label":"string","numberOfBytes":"32"}}},"userdoc":{"kind":"user","methods":{},"version":1}}