{"abi":[{"inputs":[{"internalType":"string","name":"name","type":"string"},{"internalType":"address","name":"ersteller","type":"address"},{"internalType":"uint256","name":"anzahl","type":"uint256"},{"internalType":"uint256","name":"preis","type":"uint256"}],"stateMutability":"nonpayable","type":"constructor"},{"inputs":[],"name":"anzahlLottotipps","outputs":[{"internalType":"uint256","name":"","type":"uint256"}],"stateMutability":"view","type":"function"},{"inputs":[{"internalType":"uint256","name":"neueAnzahlMaxTeilnehmer","type":"uint256"}],"name":"anzahlMitspielerAendern","outputs":[],"stateMutability":"nonpayable","type":"function"},{"inputs":[],"name":"anzahlTeilnehmerAktuell","outputs":[{"internalType":"uint256","name":"","type":"uint256"}],"stateMutability":"view","type":"function"},{"inputs":[],"name":"auszahlen","outputs":[],"stateMutability":"payable","type":"function"},{"inputs":[],"name":"auszahlung","outputs":[{"internalType":"uint256","name":"","type":"uint256"}],"stateMutability":"view","type":"function"},{"inputs":[],"name":"getAuszahlungsIndex","outputs":[{"internalType":"uint256","name":"","type":"uint256"}],"stateMutability":"view","type":"function"},{"inputs":[],"name":"gewinnBetrag","outputs":[{"internalType":"uint256","name":"","type":"uint256"}],"stateMutability":"view","type":"function"},{"inputs":[{"internalType":"uint256","name":"gewinn","type":"uint256"}],"name":"gewinnEinzahlen","outputs":[],"stateMutability":"payable","type":"function"},{"inputs":[],"name":"gruender","outputs":[{"internalType":"address","name":"","type":"address"}],"stateMutability":"view","type":"function"},{"inputs":[{"internalType":"uint8[5]","name":"_hauptzahlen","type":"uint8[5]"},{"internalType":"uint8[2]","name":"_zusatzzahlen","type":"uint8[2]"}],"name":"lottotippEintragen","outputs":[],"stateMutability":"nonpayable","type":"function"},{"inputs":[],"name":"maxTeilnehmerAnzahl","outputs":[{"internalType":"uint256","name":"","type":"uint256"}],"stateMutability":"view","type":"function"},{"inputs":[],"name":"mitmachen","outputs":[],"stateMutability":"payable","type":"function"},{"inputs":[{"internalType":"address","name":"","type":"address"}],"name":"mitspieler","outputs":[{"internalType":"bool","name":"","type":"bool"}],"stateMutability":"view","type":"function"},{"inputs":[{"internalType":"uint256","name":"","type":"uint256"}],"name":"mitspielerAddressen","outputs":[{"internalType":"address","name":"","type":"address"}],"stateMutability":"view","type":"function"},{"inputs":[{"internalType":"uint256","name":"","type":"uint256"}],"name":"mitspielerIndex","outputs":[{"internalType":"address","name":"","type":"address"}],"stateMutability":"view","type":"function"},{"inputs":[],"name":"preisLottoschein","outputs":[{"internalType":"uint256","name":"","type":"uint256"}],"stateMutability":"view","type":"function"},{"inputs":[{"internalType":"uint256","name":"neuerPreis","type":"uint256"}],"name":"preisLottoscheinAendern","outputs":[],"stateMutability":"nonpayable","type":"function"},{"inputs":[],"name":"tippgemeinschaftsName","outputs":[{"internalType":"string","name":"","type":"string"}],"stateMutability":"view","type":"function"}],"devdoc":{"kind":"dev","methods":{},"version":1},"evm":{"assembly":"    /* \"Lottogemeinschaft.sol\":929:6635  contract Lottogemeinschaft {... */\n  mstore(0x40, 0x80)\n    /* \"Lottogemeinschaft.sol\":1541:1542  0 */\n  0x00\n    /* \"Lottogemeinschaft.sol\":1514:1542  uint public gewinnBetrag = 0 */\n  0x0b\n  sstore\n    /* \"Lottogemeinschaft.sol\":1580:1581  0 */\n  0x00\n    /* \"Lottogemeinschaft.sol\":1548:1581  uint private auszahlungsIndex = 0 */\n  0x0c\n  sstore\n    /* \"Lottogemeinschaft.sol\":1829:2054  constructor ( string memory name, address ersteller, uint anzahl, uint preis) {... */\n  callvalue\n  dup1\n  iszero\n  tag_1\n  jumpi\n  0x00\n  dup1\n  revert\ntag_1:\n  pop\n  mload(0x40)\n  sub(codesize, bytecodeSize)\n  dup1\n  bytecodeSize\n  dup4\n  codecopy\n  dup2\n  dup2\n  add\n  0x40\n  mstore\n  dup2\n  add\n  swap1\n  tag_2\n  swap2\n  swap1\n  tag_3\n  jump\t// in\ntag_2:\n    /* \"Lottogemeinschaft.sol\":1928:1937  ersteller */\n  dup3\n    /* \"Lottogemeinschaft.sol\":1917:1925  gruender */\n  0x00\n  dup1\n    /* \"Lottogemeinschaft.sol\":1917:1937  gruender = ersteller */\n  0x0100\n  exp\n  dup2\n  sload\n  dup2\n  0xffffffffffffffffffffffffffffffffffffffff\n  mul\n  not\n  and\n  swap1\n  dup4\n  0xffffffffffffffffffffffffffffffffffffffff\n  and\n  mul\n  or\n  swap1\n  sstore\n  pop\n    /* \"Lottogemeinschaft.sol\":1971:1975  name */\n  dup4\n    /* \"Lottogemeinschaft.sol\":1947:1968  tippgemeinschaftsName */\n  0x01\n    /* \"Lottogemeinschaft.sol\":1947:1975  tippgemeinschaftsName = name */\n  swap1\n  dup2\n  tag_6\n  swap2\n  swap1\n  tag_7\n  jump\t// in\ntag_6:\n  pop\n    /* \"Lottogemeinschaft.sol\":2007:2013  anzahl */\n  dup2\n    /* \"Lottogemeinschaft.sol\":1985:2004  maxTeilnehmerAnzahl */\n  0x02\n    /* \"Lottogemeinschaft.sol\":1985:2013  maxTeilnehmerAnzahl = anzahl */\n  dup2\n  swap1\n  sstore\n  pop\n    /* \"Lottogemeinschaft.sol\":2042:2047  preis */\n  dup1\n    /* \"Lottogemeinschaft.sol\":2023:2039  preisLottoschein */\n  0x04\n    /* \"Lottogemeinschaft.sol\":2023:2047  preisLottoschein = preis */\n  dup2\n  swap1\n  sstore\n  pop\n    /* \"Lottogemeinschaft.sol\":1829:2054  constructor ( string memory name, address ersteller, uint anzahl, uint preis) {... */\n  pop\n  pop\n  pop\n  pop\n    /* \"Lottogemeinschaft.sol\":929:6635  contract Lottogemeinschaft {... */\n  jump(tag_8)\n    /* \"#utility.yul\":7:82   */\ntag_9:\n    /* \"#utility.yul\":40:46   */\n  0x00\n    /* \"#utility.yul\":73:75   */\n  0x40\n    /* \"#utility.yul\":67:76   */\n  mload\n    /* \"#utility.yul\":57:76   */\n  swap1\n  pop\n    /* \"#utility.yul\":7:82   */\n  swap1\n  jump\t// out\n    /* \"#utility.yul\":88:205   */\ntag_10:\n    /* \"#utility.yul\":197:198   */\n  0x00\n    /* \"#utility.yul\":194:195   */\n  dup1\n    /* \"#utility.yul\":187:199   */\n  revert\n    /* \"#utility.yul\":211:328   */\ntag_11:\n    /* \"#utility.yul\":320:321   */\n  0x00\n    /* \"#utility.yul\":317:318   */\n  dup1\n    /* \"#utility.yul\":310:322   */\n  revert\n    /* \"#utility.yul\":334:451   */\ntag_12:\n    /* \"#utility.yul\":443:444   */\n  0x00\n    /* \"#utility.yul\":440:441   */\n  dup1\n    /* \"#utility.yul\":433:445   */\n  revert\n    /* \"#utility.yul\":457:574   */\ntag_13:\n    /* \"#utility.yul\":566:567   */\n  0x00\n    /* \"#utility.yul\":563:564   */\n  dup1\n    /* \"#utility.yul\":556:568   */\n  revert\n    /* \"#utility.yul\":580:682   */\ntag_14:\n    /* \"#utility.yul\":621:627   */\n  0x00\n    /* \"#utility.yul\":672:674   */\n  0x1f\n    /* \"#utility.yul\":668:675   */\n  not\n    /* \"#utility.yul\":663:665   */\n  0x1f\n    /* \"#utility.yul\":656:661   */\n  dup4\n    /* \"#utility.yul\":652:666   */\n  add\n    /* \"#utility.yul\":648:676   */\n  and\n    /* \"#utility.yul\":638:676   */\n  swap1\n  pop\n    /* \"#utility.yul\":580:682   */\n  swap2\n  swap1\n  pop\n  jump\t// out\n    /* \"#utility.yul\":688:868   */\ntag_15:\n    /* \"#utility.yul\":736:813   */\n  0x4e487b7100000000000000000000000000000000000000000000000000000000\n    /* \"#utility.yul\":733:734   */\n  0x00\n    /* \"#utility.yul\":726:814   */\n  mstore\n    /* \"#utility.yul\":833:837   */\n  0x41\n    /* \"#utility.yul\":830:831   */\n  0x04\n    /* \"#utility.yul\":823:838   */\n  mstore\n    /* \"#utility.yul\":857:861   */\n  0x24\n    /* \"#utility.yul\":854:855   */\n  0x00\n    /* \"#utility.yul\":847:862   */\n  revert\n    /* \"#utility.yul\":874:1155   */\ntag_16:\n    /* \"#utility.yul\":957:984   */\n  tag_56\n    /* \"#utility.yul\":979:983   */\n  dup3\n    /* \"#utility.yul\":957:984   */\n  tag_14\n  jump\t// in\ntag_56:\n    /* \"#utility.yul\":949:955   */\n  dup2\n    /* \"#utility.yul\":945:985   */\n  add\n    /* \"#utility.yul\":1087:1093   */\n  dup2\n    /* \"#utility.yul\":1075:1085   */\n  dup2\n    /* \"#utility.yul\":1072:1094   */\n  lt\n    /* \"#utility.yul\":1051:1069   */\n  0xffffffffffffffff\n    /* \"#utility.yul\":1039:1049   */\n  dup3\n    /* \"#utility.yul\":1036:1070   */\n  gt\n    /* \"#utility.yul\":1033:1095   */\n  or\n    /* \"#utility.yul\":1030:1118   */\n  iszero\n  tag_57\n  jumpi\n    /* \"#utility.yul\":1098:1116   */\n  tag_58\n  tag_15\n  jump\t// in\ntag_58:\n    /* \"#utility.yul\":1030:1118   */\ntag_57:\n    /* \"#utility.yul\":1138:1148   */\n  dup1\n    /* \"#utility.yul\":1134:1136   */\n  0x40\n    /* \"#utility.yul\":1127:1149   */\n  mstore\n    /* \"#utility.yul\":917:1155   */\n  pop\n    /* \"#utility.yul\":874:1155   */\n  pop\n  pop\n  jump\t// out\n    /* \"#utility.yul\":1161:1290   */\ntag_17:\n    /* \"#utility.yul\":1195:1201   */\n  0x00\n    /* \"#utility.yul\":1222:1242   */\n  tag_60\n  tag_9\n  jump\t// in\ntag_60:\n    /* \"#utility.yul\":1212:1242   */\n  swap1\n  pop\n    /* \"#utility.yul\":1251:1284   */\n  tag_61\n    /* \"#utility.yul\":1279:1283   */\n  dup3\n    /* \"#utility.yul\":1271:1277   */\n  dup3\n    /* \"#utility.yul\":1251:1284   */\n  tag_16\n  jump\t// in\ntag_61:\n    /* \"#utility.yul\":1161:1290   */\n  swap2\n  swap1\n  pop\n  jump\t// out\n    /* \"#utility.yul\":1296:1604   */\ntag_18:\n    /* \"#utility.yul\":1358:1362   */\n  0x00\n    /* \"#utility.yul\":1448:1466   */\n  0xffffffffffffffff\n    /* \"#utility.yul\":1440:1446   */\n  dup3\n    /* \"#utility.yul\":1437:1467   */\n  gt\n    /* \"#utility.yul\":1434:1490   */\n  iszero\n  tag_63\n  jumpi\n    /* \"#utility.yul\":1470:1488   */\n  tag_64\n  tag_15\n  jump\t// in\ntag_64:\n    /* \"#utility.yul\":1434:1490   */\ntag_63:\n    /* \"#utility.yul\":1508:1537   */\n  tag_65\n    /* \"#utility.yul\":1530:1536   */\n  dup3\n    /* \"#utility.yul\":1508:1537   */\n  tag_14\n  jump\t// in\ntag_65:\n    /* \"#utility.yul\":1500:1537   */\n  swap1\n  pop\n    /* \"#utility.yul\":1592:1596   */\n  0x20\n    /* \"#utility.yul\":1586:1590   */\n  dup2\n    /* \"#utility.yul\":1582:1597   */\n  add\n    /* \"#utility.yul\":1574:1597   */\n  swap1\n  pop\n    /* \"#utility.yul\":1296:1604   */\n  swap2\n  swap1\n  pop\n  jump\t// out\n    /* \"#utility.yul\":1610:1856   */\ntag_19:\n    /* \"#utility.yul\":1691:1692   */\n  0x00\n    /* \"#utility.yul\":1701:1814   */\ntag_67:\n    /* \"#utility.yul\":1715:1721   */\n  dup4\n    /* \"#utility.yul\":1712:1713   */\n  dup2\n    /* \"#utility.yul\":1709:1722   */\n  lt\n    /* \"#utility.yul\":1701:1814   */\n  iszero\n  tag_69\n  jumpi\n    /* \"#utility.yul\":1800:1801   */\n  dup1\n    /* \"#utility.yul\":1795:1798   */\n  dup3\n    /* \"#utility.yul\":1791:1802   */\n  add\n    /* \"#utility.yul\":1785:1803   */\n  mload\n    /* \"#utility.yul\":1781:1782   */\n  dup2\n    /* \"#utility.yul\":1776:1779   */\n  dup5\n    /* \"#utility.yul\":1772:1783   */\n  add\n    /* \"#utility.yul\":1765:1804   */\n  mstore\n    /* \"#utility.yul\":1737:1739   */\n  0x20\n    /* \"#utility.yul\":1734:1735   */\n  dup2\n    /* \"#utility.yul\":1730:1740   */\n  add\n    /* \"#utility.yul\":1725:1740   */\n  swap1\n  pop\n    /* \"#utility.yul\":1701:1814   */\n  jump(tag_67)\ntag_69:\n    /* \"#utility.yul\":1848:1849   */\n  0x00\n    /* \"#utility.yul\":1839:1845   */\n  dup5\n    /* \"#utility.yul\":1834:1837   */\n  dup5\n    /* \"#utility.yul\":1830:1846   */\n  add\n    /* \"#utility.yul\":1823:1850   */\n  mstore\n    /* \"#utility.yul\":1672:1856   */\n  pop\n    /* \"#utility.yul\":1610:1856   */\n  pop\n  pop\n  pop\n  jump\t// out\n    /* \"#utility.yul\":1862:2296   */\ntag_20:\n    /* \"#utility.yul\":1951:1956   */\n  0x00\n    /* \"#utility.yul\":1976:2042   */\n  tag_71\n    /* \"#utility.yul\":1992:2041   */\n  tag_72\n    /* \"#utility.yul\":2034:2040   */\n  dup5\n    /* \"#utility.yul\":1992:2041   */\n  tag_18\n  jump\t// in\ntag_72:\n    /* \"#utility.yul\":1976:2042   */\n  tag_17\n  jump\t// in\ntag_71:\n    /* \"#utility.yul\":1967:2042   */\n  swap1\n  pop\n    /* \"#utility.yul\":2065:2071   */\n  dup3\n    /* \"#utility.yul\":2058:2063   */\n  dup2\n    /* \"#utility.yul\":2051:2072   */\n  mstore\n    /* \"#utility.yul\":2103:2107   */\n  0x20\n    /* \"#utility.yul\":2096:2101   */\n  dup2\n    /* \"#utility.yul\":2092:2108   */\n  add\n    /* \"#utility.yul\":2141:2144   */\n  dup5\n    /* \"#utility.yul\":2132:2138   */\n  dup5\n    /* \"#utility.yul\":2127:2130   */\n  dup5\n    /* \"#utility.yul\":2123:2139   */\n  add\n    /* \"#utility.yul\":2120:2145   */\n  gt\n    /* \"#utility.yul\":2117:2229   */\n  iszero\n  tag_73\n  jumpi\n    /* \"#utility.yul\":2148:2227   */\n  tag_74\n  tag_13\n  jump\t// in\ntag_74:\n    /* \"#utility.yul\":2117:2229   */\ntag_73:\n    /* \"#utility.yul\":2238:2290   */\n  tag_75\n    /* \"#utility.yul\":2283:2289   */\n  dup5\n    /* \"#utility.yul\":2278:2281   */\n  dup3\n    /* \"#utility.yul\":2273:2276   */\n  dup6\n    /* \"#utility.yul\":2238:2290   */\n  tag_19\n  jump\t// in\ntag_75:\n    /* \"#utility.yul\":1957:2296   */\n  pop\n    /* \"#utility.yul\":1862:2296   */\n  swap4\n  swap3\n  pop\n  pop\n  pop\n  jump\t// out\n    /* \"#utility.yul\":2316:2671   */\ntag_21:\n    /* \"#utility.yul\":2383:2388   */\n  0x00\n    /* \"#utility.yul\":2432:2435   */\n  dup3\n    /* \"#utility.yul\":2425:2429   */\n  0x1f\n    /* \"#utility.yul\":2417:2423   */\n  dup4\n    /* \"#utility.yul\":2413:2430   */\n  add\n    /* \"#utility.yul\":2409:2436   */\n  slt\n    /* \"#utility.yul\":2399:2521   */\n  tag_77\n  jumpi\n    /* \"#utility.yul\":2440:2519   */\n  tag_78\n  tag_12\n  jump\t// in\ntag_78:\n    /* \"#utility.yul\":2399:2521   */\ntag_77:\n    /* \"#utility.yul\":2550:2556   */\n  dup2\n    /* \"#utility.yul\":2544:2557   */\n  mload\n    /* \"#utility.yul\":2575:2665   */\n  tag_79\n    /* \"#utility.yul\":2661:2664   */\n  dup5\n    /* \"#utility.yul\":2653:2659   */\n  dup3\n    /* \"#utility.yul\":2646:2650   */\n  0x20\n    /* \"#utility.yul\":2638:2644   */\n  dup7\n    /* \"#utility.yul\":2634:2651   */\n  add\n    /* \"#utility.yul\":2575:2665   */\n  tag_20\n  jump\t// in\ntag_79:\n    /* \"#utility.yul\":2566:2665   */\n  swap2\n  pop\n    /* \"#utility.yul\":2389:2671   */\n  pop\n    /* \"#utility.yul\":2316:2671   */\n  swap3\n  swap2\n  pop\n  pop\n  jump\t// out\n    /* \"#utility.yul\":2677:2803   */\ntag_22:\n    /* \"#utility.yul\":2714:2721   */\n  0x00\n    /* \"#utility.yul\":2754:2796   */\n  0xffffffffffffffffffffffffffffffffffffffff\n    /* \"#utility.yul\":2747:2752   */\n  dup3\n    /* \"#utility.yul\":2743:2797   */\n  and\n    /* \"#utility.yul\":2732:2797   */\n  swap1\n  pop\n    /* \"#utility.yul\":2677:2803   */\n  swap2\n  swap1\n  pop\n  jump\t// out\n    /* \"#utility.yul\":2809:2905   */\ntag_23:\n    /* \"#utility.yul\":2846:2853   */\n  0x00\n    /* \"#utility.yul\":2875:2899   */\n  tag_82\n    /* \"#utility.yul\":2893:2898   */\n  dup3\n    /* \"#utility.yul\":2875:2899   */\n  tag_22\n  jump\t// in\ntag_82:\n    /* \"#utility.yul\":2864:2899   */\n  swap1\n  pop\n    /* \"#utility.yul\":2809:2905   */\n  swap2\n  swap1\n  pop\n  jump\t// out\n    /* \"#utility.yul\":2911:3033   */\ntag_24:\n    /* \"#utility.yul\":2984:3008   */\n  tag_84\n    /* \"#utility.yul\":3002:3007   */\n  dup2\n    /* \"#utility.yul\":2984:3008   */\n  tag_23\n  jump\t// in\ntag_84:\n    /* \"#utility.yul\":2977:2982   */\n  dup2\n    /* \"#utility.yul\":2974:3009   */\n  eq\n    /* \"#utility.yul\":2964:3027   */\n  tag_85\n  jumpi\n    /* \"#utility.yul\":3023:3024   */\n  0x00\n    /* \"#utility.yul\":3020:3021   */\n  dup1\n    /* \"#utility.yul\":3013:3025   */\n  revert\n    /* \"#utility.yul\":2964:3027   */\ntag_85:\n    /* \"#utility.yul\":2911:3033   */\n  pop\n  jump\t// out\n    /* \"#utility.yul\":3039:3182   */\ntag_25:\n    /* \"#utility.yul\":3096:3101   */\n  0x00\n    /* \"#utility.yul\":3127:3133   */\n  dup2\n    /* \"#utility.yul\":3121:3134   */\n  mload\n    /* \"#utility.yul\":3112:3134   */\n  swap1\n  pop\n    /* \"#utility.yul\":3143:3176   */\n  tag_87\n    /* \"#utility.yul\":3170:3175   */\n  dup2\n    /* \"#utility.yul\":3143:3176   */\n  tag_24\n  jump\t// in\ntag_87:\n    /* \"#utility.yul\":3039:3182   */\n  swap3\n  swap2\n  pop\n  pop\n  jump\t// out\n    /* \"#utility.yul\":3188:3265   */\ntag_26:\n    /* \"#utility.yul\":3225:3232   */\n  0x00\n    /* \"#utility.yul\":3254:3259   */\n  dup2\n    /* \"#utility.yul\":3243:3259   */\n  swap1\n  pop\n    /* \"#utility.yul\":3188:3265   */\n  swap2\n  swap1\n  pop\n  jump\t// out\n    /* \"#utility.yul\":3271:3393   */\ntag_27:\n    /* \"#utility.yul\":3344:3368   */\n  tag_90\n    /* \"#utility.yul\":3362:3367   */\n  dup2\n    /* \"#utility.yul\":3344:3368   */\n  tag_26\n  jump\t// in\ntag_90:\n    /* \"#utility.yul\":3337:3342   */\n  dup2\n    /* \"#utility.yul\":3334:3369   */\n  eq\n    /* \"#utility.yul\":3324:3387   */\n  tag_91\n  jumpi\n    /* \"#utility.yul\":3383:3384   */\n  0x00\n    /* \"#utility.yul\":3380:3381   */\n  dup1\n    /* \"#utility.yul\":3373:3385   */\n  revert\n    /* \"#utility.yul\":3324:3387   */\ntag_91:\n    /* \"#utility.yul\":3271:3393   */\n  pop\n  jump\t// out\n    /* \"#utility.yul\":3399:3542   */\ntag_28:\n    /* \"#utility.yul\":3456:3461   */\n  0x00\n    /* \"#utility.yul\":3487:3493   */\n  dup2\n    /* \"#utility.yul\":3481:3494   */\n  mload\n    /* \"#utility.yul\":3472:3494   */\n  swap1\n  pop\n    /* \"#utility.yul\":3503:3536   */\n  tag_93\n    /* \"#utility.yul\":3530:3535   */\n  dup2\n    /* \"#utility.yul\":3503:3536   */\n  tag_27\n  jump\t// in\ntag_93:\n    /* \"#utility.yul\":3399:3542   */\n  swap3\n  swap2\n  pop\n  pop\n  jump\t// out\n    /* \"#utility.yul\":3548:4541   */\ntag_3:\n    /* \"#utility.yul\":3655:3661   */\n  0x00\n    /* \"#utility.yul\":3663:3669   */\n  dup1\n    /* \"#utility.yul\":3671:3677   */\n  0x00\n    /* \"#utility.yul\":3679:3685   */\n  dup1\n    /* \"#utility.yul\":3728:3731   */\n  0x80\n    /* \"#utility.yul\":3716:3725   */\n  dup6\n    /* \"#utility.yul\":3707:3714   */\n  dup8\n    /* \"#utility.yul\":3703:3726   */\n  sub\n    /* \"#utility.yul\":3699:3732   */\n  slt\n    /* \"#utility.yul\":3696:3816   */\n  iszero\n  tag_95\n  jumpi\n    /* \"#utility.yul\":3735:3814   */\n  tag_96\n  tag_10\n  jump\t// in\ntag_96:\n    /* \"#utility.yul\":3696:3816   */\ntag_95:\n    /* \"#utility.yul\":3876:3877   */\n  0x00\n    /* \"#utility.yul\":3865:3874   */\n  dup6\n    /* \"#utility.yul\":3861:3878   */\n  add\n    /* \"#utility.yul\":3855:3879   */\n  mload\n    /* \"#utility.yul\":3906:3924   */\n  0xffffffffffffffff\n    /* \"#utility.yul\":3898:3904   */\n  dup2\n    /* \"#utility.yul\":3895:3925   */\n  gt\n    /* \"#utility.yul\":3892:4009   */\n  iszero\n  tag_97\n  jumpi\n    /* \"#utility.yul\":3928:4007   */\n  tag_98\n  tag_11\n  jump\t// in\ntag_98:\n    /* \"#utility.yul\":3892:4009   */\ntag_97:\n    /* \"#utility.yul\":4033:4107   */\n  tag_99\n    /* \"#utility.yul\":4099:4106   */\n  dup8\n    /* \"#utility.yul\":4090:4096   */\n  dup3\n    /* \"#utility.yul\":4079:4088   */\n  dup9\n    /* \"#utility.yul\":4075:4097   */\n  add\n    /* \"#utility.yul\":4033:4107   */\n  tag_21\n  jump\t// in\ntag_99:\n    /* \"#utility.yul\":4023:4107   */\n  swap5\n  pop\n    /* \"#utility.yul\":3826:4117   */\n  pop\n    /* \"#utility.yul\":4156:4158   */\n  0x20\n    /* \"#utility.yul\":4182:4246   */\n  tag_100\n    /* \"#utility.yul\":4238:4245   */\n  dup8\n    /* \"#utility.yul\":4229:4235   */\n  dup3\n    /* \"#utility.yul\":4218:4227   */\n  dup9\n    /* \"#utility.yul\":4214:4236   */\n  add\n    /* \"#utility.yul\":4182:4246   */\n  tag_25\n  jump\t// in\ntag_100:\n    /* \"#utility.yul\":4172:4246   */\n  swap4\n  pop\n    /* \"#utility.yul\":4127:4256   */\n  pop\n    /* \"#utility.yul\":4295:4297   */\n  0x40\n    /* \"#utility.yul\":4321:4385   */\n  tag_101\n    /* \"#utility.yul\":4377:4384   */\n  dup8\n    /* \"#utility.yul\":4368:4374   */\n  dup3\n    /* \"#utility.yul\":4357:4366   */\n  dup9\n    /* \"#utility.yul\":4353:4375   */\n  add\n    /* \"#utility.yul\":4321:4385   */\n  tag_28\n  jump\t// in\ntag_101:\n    /* \"#utility.yul\":4311:4385   */\n  swap3\n  pop\n    /* \"#utility.yul\":4266:4395   */\n  pop\n    /* \"#utility.yul\":4434:4436   */\n  0x60\n    /* \"#utility.yul\":4460:4524   */\n  tag_102\n    /* \"#utility.yul\":4516:4523   */\n  dup8\n    /* \"#utility.yul\":4507:4513   */\n  dup3\n    /* \"#utility.yul\":4496:4505   */\n  dup9\n    /* \"#utility.yul\":4492:4514   */\n  add\n    /* \"#utility.yul\":4460:4524   */\n  tag_28\n  jump\t// in\ntag_102:\n    /* \"#utility.yul\":4450:4524   */\n  swap2\n  pop\n    /* \"#utility.yul\":4405:4534   */\n  pop\n    /* \"#utility.yul\":3548:4541   */\n  swap3\n  swap6\n  swap2\n  swap5\n  pop\n  swap3\n  pop\n  jump\t// out\n    /* \"#utility.yul\":4547:4646   */\ntag_29:\n    /* \"#utility.yul\":4599:4605   */\n  0x00\n    /* \"#utility.yul\":4633:4638   */\n  dup2\n    /* \"#utility.yul\":4627:4639   */\n  mload\n    /* \"#utility.yul\":4617:4639   */\n  swap1\n  pop\n    /* \"#utility.yul\":4547:4646   */\n  swap2\n  swap1\n  pop\n  jump\t// out\n    /* \"#utility.yul\":4652:4832   */\ntag_30:\n    /* \"#utility.yul\":4700:4777   */\n  0x4e487b7100000000000000000000000000000000000000000000000000000000\n    /* \"#utility.yul\":4697:4698   */\n  0x00\n    /* \"#utility.yul\":4690:4778   */\n  mstore\n    /* \"#utility.yul\":4797:4801   */\n  0x22\n    /* \"#utility.yul\":4794:4795   */\n  0x04\n    /* \"#utility.yul\":4787:4802   */\n  mstore\n    /* \"#utility.yul\":4821:4825   */\n  0x24\n    /* \"#utility.yul\":4818:4819   */\n  0x00\n    /* \"#utility.yul\":4811:4826   */\n  revert\n    /* \"#utility.yul\":4838:5158   */\ntag_31:\n    /* \"#utility.yul\":4882:4888   */\n  0x00\n    /* \"#utility.yul\":4919:4920   */\n  0x02\n    /* \"#utility.yul\":4913:4917   */\n  dup3\n    /* \"#utility.yul\":4909:4921   */\n  div\n    /* \"#utility.yul\":4899:4921   */\n  swap1\n  pop\n    /* \"#utility.yul\":4966:4967   */\n  0x01\n    /* \"#utility.yul\":4960:4964   */\n  dup3\n    /* \"#utility.yul\":4956:4968   */\n  and\n    /* \"#utility.yul\":4987:5005   */\n  dup1\n    /* \"#utility.yul\":4977:5058   */\n  tag_106\n  jumpi\n    /* \"#utility.yul\":5043:5047   */\n  0x7f\n    /* \"#utility.yul\":5035:5041   */\n  dup3\n    /* \"#utility.yul\":5031:5048   */\n  and\n    /* \"#utility.yul\":5021:5048   */\n  swap2\n  pop\n    /* \"#utility.yul\":4977:5058   */\ntag_106:\n    /* \"#utility.yul\":5105:5107   */\n  0x20\n    /* \"#utility.yul\":5097:5103   */\n  dup3\n    /* \"#utility.yul\":5094:5108   */\n  lt\n    /* \"#utility.yul\":5074:5092   */\n  dup2\n    /* \"#utility.yul\":5071:5109   */\n  sub\n    /* \"#utility.yul\":5068:5152   */\n  tag_107\n  jumpi\n    /* \"#utility.yul\":5124:5142   */\n  tag_108\n  tag_30\n  jump\t// in\ntag_108:\n    /* \"#utility.yul\":5068:5152   */\ntag_107:\n    /* \"#utility.yul\":4889:5158   */\n  pop\n    /* \"#utility.yul\":4838:5158   */\n  swap2\n  swap1\n  pop\n  jump\t// out\n    /* \"#utility.yul\":5164:5305   */\ntag_32:\n    /* \"#utility.yul\":5213:5217   */\n  0x00\n    /* \"#utility.yul\":5236:5239   */\n  dup2\n    /* \"#utility.yul\":5228:5239   */\n  swap1\n  pop\n    /* \"#utility.yul\":5259:5262   */\n  dup2\n    /* \"#utility.yul\":5256:5257   */\n  0x00\n    /* \"#utility.yul\":5249:5263   */\n  mstore\n    /* \"#utility.yul\":5293:5297   */\n  0x20\n    /* \"#utility.yul\":5290:5291   */\n  0x00\n    /* \"#utility.yul\":5280:5298   */\n  keccak256\n    /* \"#utility.yul\":5272:5298   */\n  swap1\n  pop\n    /* \"#utility.yul\":5164:5305   */\n  swap2\n  swap1\n  pop\n  jump\t// out\n    /* \"#utility.yul\":5311:5404   */\ntag_33:\n    /* \"#utility.yul\":5348:5354   */\n  0x00\n    /* \"#utility.yul\":5395:5397   */\n  0x20\n    /* \"#utility.yul\":5390:5392   */\n  0x1f\n    /* \"#utility.yul\":5383:5388   */\n  dup4\n    /* \"#utility.yul\":5379:5393   */\n  add\n    /* \"#utility.yul\":5375:5398   */\n  div\n    /* \"#utility.yul\":5365:5398   */\n  swap1\n  pop\n    /* \"#utility.yul\":5311:5404   */\n  swap2\n  swap1\n  pop\n  jump\t// out\n    /* \"#utility.yul\":5410:5517   */\ntag_34:\n    /* \"#utility.yul\":5454:5462   */\n  0x00\n    /* \"#utility.yul\":5504:5509   */\n  dup3\n    /* \"#utility.yul\":5498:5502   */\n  dup3\n    /* \"#utility.yul\":5494:5510   */\n  shl\n    /* \"#utility.yul\":5473:5510   */\n  swap1\n  pop\n    /* \"#utility.yul\":5410:5517   */\n  swap3\n  swap2\n  pop\n  pop\n  jump\t// out\n    /* \"#utility.yul\":5523:5916   */\ntag_35:\n    /* \"#utility.yul\":5592:5598   */\n  0x00\n    /* \"#utility.yul\":5642:5643   */\n  0x08\n    /* \"#utility.yul\":5630:5640   */\n  dup4\n    /* \"#utility.yul\":5626:5644   */\n  mul\n    /* \"#utility.yul\":5665:5762   */\n  tag_113\n    /* \"#utility.yul\":5695:5761   */\n  0xffffffffffffffffffffffffffffffffffffffffffffffffffffffffffffffff\n    /* \"#utility.yul\":5684:5693   */\n  dup3\n    /* \"#utility.yul\":5665:5762   */\n  tag_34\n  jump\t// in\ntag_113:\n    /* \"#utility.yul\":5783:5822   */\n  tag_114\n    /* \"#utility.yul\":5813:5821   */\n  dup7\n    /* \"#utility.yul\":5802:5811   */\n  dup4\n    /* \"#utility.yul\":5783:5822   */\n  tag_34\n  jump\t// in\ntag_114:\n    /* \"#utility.yul\":5771:5822   */\n  swap6\n  pop\n    /* \"#utility.yul\":5855:5859   */\n  dup1\n    /* \"#utility.yul\":5851:5860   */\n  not\n    /* \"#utility.yul\":5844:5849   */\n  dup5\n    /* \"#utility.yul\":5840:5861   */\n  and\n    /* \"#utility.yul\":5831:5861   */\n  swap4\n  pop\n    /* \"#utility.yul\":5904:5908   */\n  dup1\n    /* \"#utility.yul\":5894:5902   */\n  dup7\n    /* \"#utility.yul\":5890:5909   */\n  and\n    /* \"#utility.yul\":5883:5888   */\n  dup5\n    /* \"#utility.yul\":5880:5910   */\n  or\n    /* \"#utility.yul\":5870:5910   */\n  swap3\n  pop\n    /* \"#utility.yul\":5599:5916   */\n  pop\n  pop\n    /* \"#utility.yul\":5523:5916   */\n  swap4\n  swap3\n  pop\n  pop\n  pop\n  jump\t// out\n    /* \"#utility.yul\":5922:5982   */\ntag_36:\n    /* \"#utility.yul\":5950:5953   */\n  0x00\n    /* \"#utility.yul\":5971:5976   */\n  dup2\n    /* \"#utility.yul\":5964:5976   */\n  swap1\n  pop\n    /* \"#utility.yul\":5922:5982   */\n  swap2\n  swap1\n  pop\n  jump\t// out\n    /* \"#utility.yul\":5988:6130   */\ntag_37:\n    /* \"#utility.yul\":6038:6047   */\n  0x00\n    /* \"#utility.yul\":6071:6124   */\n  tag_117\n    /* \"#utility.yul\":6089:6123   */\n  tag_118\n    /* \"#utility.yul\":6098:6122   */\n  tag_119\n    /* \"#utility.yul\":6116:6121   */\n  dup5\n    /* \"#utility.yul\":6098:6122   */\n  tag_26\n  jump\t// in\ntag_119:\n    /* \"#utility.yul\":6089:6123   */\n  tag_36\n  jump\t// in\ntag_118:\n    /* \"#utility.yul\":6071:6124   */\n  tag_26\n  jump\t// in\ntag_117:\n    /* \"#utility.yul\":6058:6124   */\n  swap1\n  pop\n    /* \"#utility.yul\":5988:6130   */\n  swap2\n  swap1\n  pop\n  jump\t// out\n    /* \"#utility.yul\":6136:6211   */\ntag_38:\n    /* \"#utility.yul\":6179:6182   */\n  0x00\n    /* \"#utility.yul\":6200:6205   */\n  dup2\n    /* \"#utility.yul\":6193:6205   */\n  swap1\n  pop\n    /* \"#utility.yul\":6136:6211   */\n  swap2\n  swap1\n  pop\n  jump\t// out\n    /* \"#utility.yul\":6217:6486   */\ntag_39:\n    /* \"#utility.yul\":6327:6366   */\n  tag_122\n    /* \"#utility.yul\":6358:6365   */\n  dup4\n    /* \"#utility.yul\":6327:6366   */\n  tag_37\n  jump\t// in\ntag_122:\n    /* \"#utility.yul\":6388:6479   */\n  tag_123\n    /* \"#utility.yul\":6437:6478   */\n  tag_124\n    /* \"#utility.yul\":6461:6477   */\n  dup3\n    /* \"#utility.yul\":6437:6478   */\n  tag_38\n  jump\t// in\ntag_124:\n    /* \"#utility.yul\":6429:6435   */\n  dup5\n    /* \"#utility.yul\":6422:6426   */\n  dup5\n    /* \"#utility.yul\":6416:6427   */\n  sload\n    /* \"#utility.yul\":6388:6479   */\n  tag_35\n  jump\t// in\ntag_123:\n    /* \"#utility.yul\":6382:6386   */\n  dup3\n    /* \"#utility.yul\":6375:6480   */\n  sstore\n    /* \"#utility.yul\":6293:6486   */\n  pop\n    /* \"#utility.yul\":6217:6486   */\n  pop\n  pop\n  pop\n  jump\t// out\n    /* \"#utility.yul\":6492:6565   */\ntag_40:\n    /* \"#utility.yul\":6537:6540   */\n  0x00\n    /* \"#utility.yul\":6492:6565   */\n  swap1\n  jump\t// out\n    /* \"#utility.yul\":6571:6760   */\ntag_41:\n    /* \"#utility.yul\":6648:6680   */\n  tag_127\n  tag_40\n  jump\t// in\ntag_127:\n    /* \"#utility.yul\":6689:6754   */\n  tag_128\n    /* \"#utility.yul\":6747:6753   */\n  dup2\n    /* \"#utility.yul\":6739:6745   */\n  dup5\n    /* \"#utility.yul\":6733:6737   */\n  dup5\n    /* \"#utility.yul\":6689:6754   */\n  tag_39\n  jump\t// in\ntag_128:\n    /* \"#utility.yul\":6624:6760   */\n  pop\n    /* \"#utility.yul\":6571:6760   */\n  pop\n  pop\n  jump\t// out\n    /* \"#utility.yul\":6766:6952   */\ntag_42:\n    /* \"#utility.yul\":6826:6946   */\ntag_130:\n    /* \"#utility.yul\":6843:6846   */\n  dup2\n    /* \"#utility.yul\":6836:6841   */\n  dup2\n    /* \"#utility.yul\":6833:6847   */\n  lt\n    /* \"#utility.yul\":6826:6946   */\n  iszero\n  tag_132\n  jumpi\n    /* \"#utility.yul\":6897:6936   */\n  tag_133\n    /* \"#utility.yul\":6934:6935   */\n  0x00\n    /* \"#utility.yul\":6927:6932   */\n  dup3\n    /* \"#utility.yul\":6897:6936   */\n  tag_41\n  jump\t// in\ntag_133:\n    /* \"#utility.yul\":6870:6871   */\n  0x01\n    /* \"#utility.yul\":6863:6868   */\n  dup2\n    /* \"#utility.yul\":6859:6872   */\n  add\n    /* \"#utility.yul\":6850:6872   */\n  swap1\n  pop\n    /* \"#utility.yul\":6826:6946   */\n  jump(tag_130)\ntag_132:\n    /* \"#utility.yul\":6766:6952   */\n  pop\n  pop\n  jump\t// out\n    /* \"#utility.yul\":6958:7501   */\ntag_43:\n    /* \"#utility.yul\":7059:7061   */\n  0x1f\n    /* \"#utility.yul\":7054:7057   */\n  dup3\n    /* \"#utility.yul\":7051:7062   */\n  gt\n    /* \"#utility.yul\":7048:7494   */\n  iszero\n  tag_135\n  jumpi\n    /* \"#utility.yul\":7093:7131   */\n  tag_136\n    /* \"#utility.yul\":7125:7130   */\n  dup2\n    /* \"#utility.yul\":7093:7131   */\n  tag_32\n  jump\t// in\ntag_136:\n    /* \"#utility.yul\":7177:7206   */\n  tag_137\n    /* \"#utility.yul\":7195:7205   */\n  dup5\n    /* \"#utility.yul\":7177:7206   */\n  tag_33\n  jump\t// in\ntag_137:\n    /* \"#utility.yul\":7167:7175   */\n  dup2\n    /* \"#utility.yul\":7163:7207   */\n  add\n    /* \"#utility.yul\":7360:7362   */\n  0x20\n    /* \"#utility.yul\":7348:7358   */\n  dup6\n    /* \"#utility.yul\":7345:7363   */\n  lt\n    /* \"#utility.yul\":7342:7391   */\n  iszero\n  tag_138\n  jumpi\n    /* \"#utility.yul\":7381:7389   */\n  dup2\n    /* \"#utility.yul\":7366:7389   */\n  swap1\n  pop\n    /* \"#utility.yul\":7342:7391   */\ntag_138:\n    /* \"#utility.yul\":7404:7484   */\n  tag_139\n    /* \"#utility.yul\":7460:7482   */\n  tag_140\n    /* \"#utility.yul\":7478:7481   */\n  dup6\n    /* \"#utility.yul\":7460:7482   */\n  tag_33\n  jump\t// in\ntag_140:\n    /* \"#utility.yul\":7450:7458   */\n  dup4\n    /* \"#utility.yul\":7446:7483   */\n  add\n    /* \"#utility.yul\":7433:7444   */\n  dup3\n    /* \"#utility.yul\":7404:7484   */\n  tag_42\n  jump\t// in\ntag_139:\n    /* \"#utility.yul\":7063:7494   */\n  pop\n  pop\n    /* \"#utility.yul\":7048:7494   */\ntag_135:\n    /* \"#utility.yul\":6958:7501   */\n  pop\n  pop\n  pop\n  jump\t// out\n    /* \"#utility.yul\":7507:7624   */\ntag_44:\n    /* \"#utility.yul\":7561:7569   */\n  0x00\n    /* \"#utility.yul\":7611:7616   */\n  dup3\n    /* \"#utility.yul\":7605:7609   */\n  dup3\n    /* \"#utility.yul\":7601:7617   */\n  shr\n    /* \"#utility.yul\":7580:7617   */\n  swap1\n  pop\n    /* \"#utility.yul\":7507:7624   */\n  swap3\n  swap2\n  pop\n  pop\n  jump\t// out\n    /* \"#utility.yul\":7630:7799   */\ntag_45:\n    /* \"#utility.yul\":7674:7680   */\n  0x00\n    /* \"#utility.yul\":7707:7758   */\n  tag_143\n    /* \"#utility.yul\":7755:7756   */\n  0x00\n    /* \"#utility.yul\":7751:7757   */\n  not\n    /* \"#utility.yul\":7743:7748   */\n  dup5\n    /* \"#utility.yul\":7740:7741   */\n  0x08\n    /* \"#utility.yul\":7736:7749   */\n  mul\n    /* \"#utility.yul\":7707:7758   */\n  tag_44\n  jump\t// in\ntag_143:\n    /* \"#utility.yul\":7703:7759   */\n  not\n    /* \"#utility.yul\":7788:7792   */\n  dup1\n    /* \"#utility.yul\":7782:7786   */\n  dup4\n    /* \"#utility.yul\":7778:7793   */\n  and\n    /* \"#utility.yul\":7768:7793   */\n  swap2\n  pop\n    /* \"#utility.yul\":7681:7799   */\n  pop\n    /* \"#utility.yul\":7630:7799   */\n  swap3\n  swap2\n  pop\n  pop\n  jump\t// out\n    /* \"#utility.yul\":7804:8099   */\ntag_46:\n    /* \"#utility.yul\":7880:7884   */\n  0x00\n    /* \"#utility.yul\":8026:8055   */\n  tag_145\n    /* \"#utility.yul\":8051:8054   */\n  dup4\n    /* \"#utility.yul\":8045:8049   */\n  dup4\n    /* \"#utility.yul\":8026:8055   */\n  tag_45\n  jump\t// in\ntag_145:\n    /* \"#utility.yul\":8018:8055   */\n  swap2\n  pop\n    /* \"#utility.yul\":8088:8091   */\n  dup3\n    /* \"#utility.yul\":8085:8086   */\n  0x02\n    /* \"#utility.yul\":8081:8092   */\n  mul\n    /* \"#utility.yul\":8075:8079   */\n  dup3\n    /* \"#utility.yul\":8072:8093   */\n  or\n    /* \"#utility.yul\":8064:8093   */\n  swap1\n  pop\n    /* \"#utility.yul\":7804:8099   */\n  swap3\n  swap2\n  pop\n  pop\n  jump\t// out\n    /* \"#utility.yul\":8104:9499   */\ntag_7:\n    /* \"#utility.yul\":8221:8258   */\n  tag_147\n    /* \"#utility.yul\":8254:8257   */\n  dup3\n    /* \"#utility.yul\":8221:8258   */\n  tag_29\n  jump\t// in\ntag_147:\n    /* \"#utility.yul\":8323:8341   */\n  0xffffffffffffffff\n    /* \"#utility.yul\":8315:8321   */\n  dup2\n    /* \"#utility.yul\":8312:8342   */\n  gt\n    /* \"#utility.yul\":8309:8365   */\n  iszero\n  tag_148\n  jumpi\n    /* \"#utility.yul\":8345:8363   */\n  tag_149\n  tag_15\n  jump\t// in\ntag_149:\n    /* \"#utility.yul\":8309:8365   */\ntag_148:\n    /* \"#utility.yul\":8389:8427   */\n  tag_150\n    /* \"#utility.yul\":8421:8425   */\n  dup3\n    /* \"#utility.yul\":8415:8426   */\n  sload\n    /* \"#utility.yul\":8389:8427   */\n  tag_31\n  jump\t// in\ntag_150:\n    /* \"#utility.yul\":8474:8541   */\n  tag_151\n    /* \"#utility.yul\":8534:8540   */\n  dup3\n    /* \"#utility.yul\":8526:8532   */\n  dup3\n    /* \"#utility.yul\":8520:8524   */\n  dup6\n    /* \"#utility.yul\":8474:8541   */\n  tag_43\n  jump\t// in\ntag_151:\n    /* \"#utility.yul\":8568:8569   */\n  0x00\n    /* \"#utility.yul\":8592:8596   */\n  0x20\n    /* \"#utility.yul\":8579:8596   */\n  swap1\n  pop\n    /* \"#utility.yul\":8624:8626   */\n  0x1f\n    /* \"#utility.yul\":8616:8622   */\n  dup4\n    /* \"#utility.yul\":8613:8627   */\n  gt\n    /* \"#utility.yul\":8641:8642   */\n  0x01\n    /* \"#utility.yul\":8636:9254   */\n  dup2\n  eq\n  tag_153\n  jumpi\n    /* \"#utility.yul\":9298:9299   */\n  0x00\n    /* \"#utility.yul\":9315:9321   */\n  dup5\n    /* \"#utility.yul\":9312:9389   */\n  iszero\n  tag_154\n  jumpi\n    /* \"#utility.yul\":9364:9373   */\n  dup3\n    /* \"#utility.yul\":9359:9362   */\n  dup8\n    /* \"#utility.yul\":9355:9374   */\n  add\n    /* \"#utility.yul\":9349:9375   */\n  mload\n    /* \"#utility.yul\":9340:9375   */\n  swap1\n  pop\n    /* \"#utility.yul\":9312:9389   */\ntag_154:\n    /* \"#utility.yul\":9415:9482   */\n  tag_155\n    /* \"#utility.yul\":9475:9481   */\n  dup6\n    /* \"#utility.yul\":9468:9473   */\n  dup3\n    /* \"#utility.yul\":9415:9482   */\n  tag_46\n  jump\t// in\ntag_155:\n    /* \"#utility.yul\":9409:9413   */\n  dup7\n    /* \"#utility.yul\":9402:9483   */\n  sstore\n    /* \"#utility.yul\":9271:9493   */\n  pop\n    /* \"#utility.yul\":8606:9493   */\n  jump(tag_152)\n    /* \"#utility.yul\":8636:9254   */\ntag_153:\n    /* \"#utility.yul\":8688:8692   */\n  0x1f\n    /* \"#utility.yul\":8684:8693   */\n  not\n    /* \"#utility.yul\":8676:8682   */\n  dup5\n    /* \"#utility.yul\":8672:8694   */\n  and\n    /* \"#utility.yul\":8722:8759   */\n  tag_156\n    /* \"#utility.yul\":8754:8758   */\n  dup7\n    /* \"#utility.yul\":8722:8759   */\n  tag_32\n  jump\t// in\ntag_156:\n    /* \"#utility.yul\":8781:8782   */\n  0x00\n    /* \"#utility.yul\":8795:9003   */\ntag_157:\n    /* \"#utility.yul\":8809:8816   */\n  dup3\n    /* \"#utility.yul\":8806:8807   */\n  dup2\n    /* \"#utility.yul\":8803:8817   */\n  lt\n    /* \"#utility.yul\":8795:9003   */\n  iszero\n  tag_159\n  jumpi\n    /* \"#utility.yul\":8888:8897   */\n  dup5\n    /* \"#utility.yul\":8883:8886   */\n  dup10\n    /* \"#utility.yul\":8879:8898   */\n  add\n    /* \"#utility.yul\":8873:8899   */\n  mload\n    /* \"#utility.yul\":8865:8871   */\n  dup3\n    /* \"#utility.yul\":8858:8900   */\n  sstore\n    /* \"#utility.yul\":8939:8940   */\n  0x01\n    /* \"#utility.yul\":8931:8937   */\n  dup3\n    /* \"#utility.yul\":8927:8941   */\n  add\n    /* \"#utility.yul\":8917:8941   */\n  swap2\n  pop\n    /* \"#utility.yul\":8986:8988   */\n  0x20\n    /* \"#utility.yul\":8975:8984   */\n  dup6\n    /* \"#utility.yul\":8971:8989   */\n  add\n    /* \"#utility.yul\":8958:8989   */\n  swap5\n  pop\n    /* \"#utility.yul\":8832:8836   */\n  0x20\n    /* \"#utility.yul\":8829:8830   */\n  dup2\n    /* \"#utility.yul\":8825:8837   */\n  add\n    /* \"#utility.yul\":8820:8837   */\n  swap1\n  pop\n    /* \"#utility.yul\":8795:9003   */\n  jump(tag_157)\ntag_159:\n    /* \"#utility.yul\":9031:9037   */\n  dup7\n    /* \"#utility.yul\":9022:9029   */\n  dup4\n    /* \"#utility.yul\":9019:9038   */\n  lt\n    /* \"#utility.yul\":9016:9195   */\n  iszero\n  tag_160\n  jumpi\n    /* \"#utility.yul\":9089:9098   */\n  dup5\n    /* \"#utility.yul\":9084:9087   */\n  dup10\n    /* \"#utility.yul\":9080:9099   */\n  add\n    /* \"#utility.yul\":9074:9100   */\n  mload\n    /* \"#utility.yul\":9132:9180   */\n  tag_161\n    /* \"#utility.yul\":9174:9178   */\n  0x1f\n    /* \"#utility.yul\":9166:9172   */\n  dup10\n    /* \"#utility.yul\":9162:9179   */\n  and\n    /* \"#utility.yul\":9151:9160   */\n  dup3\n    /* \"#utility.yul\":9132:9180   */\n  tag_45\n  jump\t// in\ntag_161:\n    /* \"#utility.yul\":9124:9130   */\n  dup4\n    /* \"#utility.yul\":9117:9181   */\n  sstore\n    /* \"#utility.yul\":9039:9195   */\n  pop\n    /* \"#utility.yul\":9016:9195   */\ntag_160:\n    /* \"#utility.yul\":9241:9242   */\n  0x01\n    /* \"#utility.yul\":9237:9238   */\n  0x02\n    /* \"#utility.yul\":9229:9235   */\n  dup9\n    /* \"#utility.yul\":9225:9239   */\n  mul\n    /* \"#utility.yul\":9221:9243   */\n  add\n    /* \"#utility.yul\":9215:9219   */\n  dup9\n    /* \"#utility.yul\":9208:9244   */\n  sstore\n    /* \"#utility.yul\":8643:9254   */\n  pop\n  pop\n  pop\n    /* \"#utility.yul\":8606:9493   */\ntag_152:\n  pop\n    /* \"#utility.yul\":8196:9499   */\n  pop\n  pop\n  pop\n    /* \"#utility.yul\":8104:9499   */\n  pop\n  pop\n  jump\t// out\n    /* \"Lottogemeinschaft.sol\":929:6635  contract Lottogemeinschaft {... */\ntag_8:\n  dataSize(sub_0)\n  dup1\n  dataOffset(sub_0)\n  0x00\n  codecopy\n  0x00\n  return\nstop\n\nsub_0: assembly {\n        /* \"Lottogemeinschaft.sol\":929:6635  contract Lottogemeinschaft {... */\n      mstore(0x40, 0x80)\n      jumpi(tag_1, lt(calldatasize, 0x04))\n      shr(0xe0, calldataload(0x00))\n      dup1\n      0x70a41bc0\n      gt\n      tag_20\n      jumpi\n      dup1\n      0xbb864be3\n      gt\n      tag_21\n      jumpi\n      dup1\n      0xbb864be3\n      eq\n      tag_15\n      jumpi\n      dup1\n      0xd27d06c0\n      eq\n      tag_16\n      jumpi\n      dup1\n      0xd78c28dc\n      eq\n      tag_17\n      jumpi\n      dup1\n      0xe75b3b25\n      eq\n      tag_18\n      jumpi\n      dup1\n      0xedaa52c5\n      eq\n      tag_19\n      jumpi\n      jump(tag_1)\n    tag_21:\n      dup1\n      0x70a41bc0\n      eq\n      tag_11\n      jumpi\n      dup1\n      0x822b8023\n      eq\n      tag_12\n      jumpi\n      dup1\n      0x8e5676fd\n      eq\n      tag_13\n      jumpi\n      dup1\n      0xad2c046c\n      eq\n      tag_14\n      jumpi\n      jump(tag_1)\n    tag_20:\n      dup1\n      0x3f0f5d51\n      gt\n      tag_22\n      jumpi\n      dup1\n      0x3f0f5d51\n      eq\n      tag_6\n      jumpi\n      dup1\n      0x4a5ae1cf\n      eq\n      tag_7\n      jumpi\n      dup1\n      0x526024ea\n      eq\n      tag_8\n      jumpi\n      dup1\n      0x535c98dd\n      eq\n      tag_9\n      jumpi\n      dup1\n      0x6f07affb\n      eq\n      tag_10\n      jumpi\n      jump(tag_1)\n    tag_22:\n      dup1\n      0x084263f5\n      eq\n      tag_2\n      jumpi\n      dup1\n      0x311e73da\n      eq\n      tag_3\n      jumpi\n      dup1\n      0x36927060\n      eq\n      tag_4\n      jumpi\n      dup1\n      0x3babb15a\n      eq\n      tag_5\n      jumpi\n    tag_1:\n      0x00\n      dup1\n      revert\n        /* \"Lottogemeinschaft.sol\":1161:1183  uint public auszahlung */\n    tag_2:\n      callvalue\n      dup1\n      iszero\n      tag_23\n      jumpi\n      0x00\n      dup1\n      revert\n    tag_23:\n      pop\n      tag_24\n      tag_25\n      jump\t// in\n    tag_24:\n      mload(0x40)\n      tag_26\n      swap2\n      swap1\n      tag_27\n      jump\t// in\n    tag_26:\n      mload(0x40)\n      dup1\n      swap2\n      sub\n      swap1\n      return\n        /* \"Lottogemeinschaft.sol\":3230:3734  function gewinnEinzahlen(uint gewinn) public payable restictedToGruender {... */\n    tag_3:\n      tag_28\n      0x04\n      dup1\n      calldatasize\n      sub\n      dup2\n      add\n      swap1\n      tag_29\n      swap2\n      swap1\n      tag_30\n      jump\t// in\n    tag_29:\n      tag_31\n      jump\t// in\n    tag_28:\n      stop\n        /* \"Lottogemeinschaft.sol\":1295:1337  mapping(address => bool) public mitspieler */\n    tag_4:\n      callvalue\n      dup1\n      iszero\n      tag_32\n      jumpi\n      0x00\n      dup1\n      revert\n    tag_32:\n      pop\n      tag_33\n      0x04\n      dup1\n      calldatasize\n      sub\n      dup2\n      add\n      swap1\n      tag_34\n      swap2\n      swap1\n      tag_35\n      jump\t// in\n    tag_34:\n      tag_36\n      jump\t// in\n    tag_33:\n      mload(0x40)\n      tag_37\n      swap2\n      swap1\n      tag_38\n      jump\t// in\n    tag_37:\n      mload(0x40)\n      dup1\n      swap2\n      sub\n      swap1\n      return\n        /* \"Lottogemeinschaft.sol\":1472:1507  uint public anzahlTeilnehmerAktuell */\n    tag_5:\n      callvalue\n      dup1\n      iszero\n      tag_39\n      jumpi\n      0x00\n      dup1\n      revert\n    tag_39:\n      pop\n      tag_40\n      tag_41\n      jump\t// in\n    tag_40:\n      mload(0x40)\n      tag_42\n      swap2\n      swap1\n      tag_27\n      jump\t// in\n    tag_42:\n      mload(0x40)\n      dup1\n      swap2\n      sub\n      swap1\n      return\n        /* \"Lottogemeinschaft.sol\":1189:1217  uint public preisLottoschein */\n    tag_6:\n      callvalue\n      dup1\n      iszero\n      tag_43\n      jumpi\n      0x00\n      dup1\n      revert\n    tag_43:\n      pop\n      tag_44\n      tag_45\n      jump\t// in\n    tag_44:\n      mload(0x40)\n      tag_46\n      swap2\n      swap1\n      tag_27\n      jump\t// in\n    tag_46:\n      mload(0x40)\n      dup1\n      swap2\n      sub\n      swap1\n      return\n        /* \"Lottogemeinschaft.sol\":1343:1390  mapping(uint => address) public mitspielerIndex */\n    tag_7:\n      callvalue\n      dup1\n      iszero\n      tag_47\n      jumpi\n      0x00\n      dup1\n      revert\n    tag_47:\n      pop\n      tag_48\n      0x04\n      dup1\n      calldatasize\n      sub\n      dup2\n      add\n      swap1\n      tag_49\n      swap2\n      swap1\n      tag_30\n      jump\t// in\n    tag_49:\n      tag_50\n      jump\t// in\n    tag_48:\n      mload(0x40)\n      tag_51\n      swap2\n      swap1\n      tag_52\n      jump\t// in\n    tag_51:\n      mload(0x40)\n      dup1\n      swap2\n      sub\n      swap1\n      return\n        /* \"Lottogemeinschaft.sol\":2252:3182  function mitmachen() public payable {... */\n    tag_8:\n      tag_53\n      tag_54\n      jump\t// in\n    tag_53:\n      stop\n        /* \"Lottogemeinschaft.sol\":1261:1289  uint public anzahlLottotipps */\n    tag_9:\n      callvalue\n      dup1\n      iszero\n      tag_55\n      jumpi\n      0x00\n      dup1\n      revert\n    tag_55:\n      pop\n      tag_56\n      tag_57\n      jump\t// in\n    tag_56:\n      mload(0x40)\n      tag_58\n      swap2\n      swap1\n      tag_27\n      jump\t// in\n    tag_58:\n      mload(0x40)\n      dup1\n      swap2\n      sub\n      swap1\n      return\n        /* \"Lottogemeinschaft.sol\":1430:1466  address[] public mitspielerAddressen */\n    tag_10:\n      callvalue\n      dup1\n      iszero\n      tag_59\n      jumpi\n      0x00\n      dup1\n      revert\n    tag_59:\n      pop\n      tag_60\n      0x04\n      dup1\n      calldatasize\n      sub\n      dup2\n      add\n      swap1\n      tag_61\n      swap2\n      swap1\n      tag_30\n      jump\t// in\n    tag_61:\n      tag_62\n      jump\t// in\n    tag_60:\n      mload(0x40)\n      tag_63\n      swap2\n      swap1\n      tag_52\n      jump\t// in\n    tag_63:\n      mload(0x40)\n      dup1\n      swap2\n      sub\n      swap1\n      return\n        /* \"Lottogemeinschaft.sol\":1124:1155  uint public maxTeilnehmerAnzahl */\n    tag_11:\n      callvalue\n      dup1\n      iszero\n      tag_64\n      jumpi\n      0x00\n      dup1\n      revert\n    tag_64:\n      pop\n      tag_65\n      tag_66\n      jump\t// in\n    tag_65:\n      mload(0x40)\n      tag_67\n      swap2\n      swap1\n      tag_27\n      jump\t// in\n    tag_67:\n      mload(0x40)\n      dup1\n      swap2\n      sub\n      swap1\n      return\n        /* \"Lottogemeinschaft.sol\":6347:6631  function anzahlMitspielerAendern(uint neueAnzahlMaxTeilnehmer) public restictedToGruender{... */\n    tag_12:\n      callvalue\n      dup1\n      iszero\n      tag_68\n      jumpi\n      0x00\n      dup1\n      revert\n    tag_68:\n      pop\n      tag_69\n      0x04\n      dup1\n      calldatasize\n      sub\n      dup2\n      add\n      swap1\n      tag_70\n      swap2\n      swap1\n      tag_30\n      jump\t// in\n    tag_70:\n      tag_71\n      jump\t// in\n    tag_69:\n      stop\n        /* \"Lottogemeinschaft.sol\":6107:6341  function preisLottoscheinAendern(uint neuerPreis) public restictedToGruender{... */\n    tag_13:\n      callvalue\n      dup1\n      iszero\n      tag_72\n      jumpi\n      0x00\n      dup1\n      revert\n    tag_72:\n      pop\n      tag_73\n      0x04\n      dup1\n      calldatasize\n      sub\n      dup2\n      add\n      swap1\n      tag_74\n      swap2\n      swap1\n      tag_30\n      jump\t// in\n    tag_74:\n      tag_75\n      jump\t// in\n    tag_73:\n      stop\n        /* \"Lottogemeinschaft.sol\":1054:1077  address public gruender */\n    tag_14:\n      callvalue\n      dup1\n      iszero\n      tag_76\n      jumpi\n      0x00\n      dup1\n      revert\n    tag_76:\n      pop\n      tag_77\n      tag_78\n      jump\t// in\n    tag_77:\n      mload(0x40)\n      tag_79\n      swap2\n      swap1\n      tag_52\n      jump\t// in\n    tag_79:\n      mload(0x40)\n      dup1\n      swap2\n      sub\n      swap1\n      return\n        /* \"Lottogemeinschaft.sol\":3784:5368  function auszahlen() public payable restictedToGruender {... */\n    tag_15:\n      tag_80\n      tag_81\n      jump\t// in\n    tag_80:\n      stop\n        /* \"Lottogemeinschaft.sol\":1083:1118  string public tippgemeinschaftsName */\n    tag_16:\n      callvalue\n      dup1\n      iszero\n      tag_82\n      jumpi\n      0x00\n      dup1\n      revert\n    tag_82:\n      pop\n      tag_83\n      tag_84\n      jump\t// in\n    tag_83:\n      mload(0x40)\n      tag_85\n      swap2\n      swap1\n      tag_86\n      jump\t// in\n    tag_85:\n      mload(0x40)\n      dup1\n      swap2\n      sub\n      swap1\n      return\n        /* \"Lottogemeinschaft.sol\":1675:1773  function getAuszahlungsIndex() public view returns (uint) {... */\n    tag_17:\n      callvalue\n      dup1\n      iszero\n      tag_87\n      jumpi\n      0x00\n      dup1\n      revert\n    tag_87:\n      pop\n      tag_88\n      tag_89\n      jump\t// in\n    tag_88:\n      mload(0x40)\n      tag_90\n      swap2\n      swap1\n      tag_27\n      jump\t// in\n    tag_90:\n      mload(0x40)\n      dup1\n      swap2\n      sub\n      swap1\n      return\n        /* \"Lottogemeinschaft.sol\":5374:6101  function lottotippEintragen(uint8[5] memory _hauptzahlen, uint8[2] memory _zusatzzahlen) public restictedToGruender{... */\n    tag_18:\n      callvalue\n      dup1\n      iszero\n      tag_91\n      jumpi\n      0x00\n      dup1\n      revert\n    tag_91:\n      pop\n      tag_92\n      0x04\n      dup1\n      calldatasize\n      sub\n      dup2\n      add\n      swap1\n      tag_93\n      swap2\n      swap1\n      tag_94\n      jump\t// in\n    tag_93:\n      tag_95\n      jump\t// in\n    tag_92:\n      stop\n        /* \"Lottogemeinschaft.sol\":1514:1542  uint public gewinnBetrag = 0 */\n    tag_19:\n      callvalue\n      dup1\n      iszero\n      tag_96\n      jumpi\n      0x00\n      dup1\n      revert\n    tag_96:\n      pop\n      tag_97\n      tag_98\n      jump\t// in\n    tag_97:\n      mload(0x40)\n      tag_99\n      swap2\n      swap1\n      tag_27\n      jump\t// in\n    tag_99:\n      mload(0x40)\n      dup1\n      swap2\n      sub\n      swap1\n      return\n        /* \"Lottogemeinschaft.sol\":1161:1183  uint public auszahlung */\n    tag_25:\n      sload(0x03)\n      dup2\n      jump\t// out\n        /* \"Lottogemeinschaft.sol\":3230:3734  function gewinnEinzahlen(uint gewinn) public payable restictedToGruender {... */\n    tag_31:\n        /* \"Lottogemeinschaft.sol\":2122:2130  gruender */\n      0x00\n      dup1\n      sload\n      swap1\n      0x0100\n      exp\n      swap1\n      div\n      0xffffffffffffffffffffffffffffffffffffffff\n      and\n        /* \"Lottogemeinschaft.sol\":2108:2130  msg.sender == gruender */\n      0xffffffffffffffffffffffffffffffffffffffff\n      and\n        /* \"Lottogemeinschaft.sol\":2108:2118  msg.sender */\n      caller\n        /* \"Lottogemeinschaft.sol\":2108:2130  msg.sender == gruender */\n      0xffffffffffffffffffffffffffffffffffffffff\n      and\n      eq\n        /* \"Lottogemeinschaft.sol\":2100:2131  require(msg.sender == gruender) */\n      tag_101\n      jumpi\n      0x00\n      dup1\n      revert\n    tag_101:\n        /* \"Lottogemeinschaft.sol\":3419:3420  0 */\n      0x00\n        /* \"Lottogemeinschaft.sol\":3407:3416  msg.value */\n      callvalue\n        /* \"Lottogemeinschaft.sol\":3407:3420  msg.value > 0 */\n      gt\n        /* \"Lottogemeinschaft.sol\":3399:3467  require(msg.value > 0, \"Einzahlungsbetrag muss groesser als 0 sein\") */\n      tag_103\n      jumpi\n      mload(0x40)\n      0x08c379a000000000000000000000000000000000000000000000000000000000\n      dup2\n      mstore\n      0x04\n      add\n      tag_104\n      swap1\n      tag_105\n      jump\t// in\n    tag_104:\n      mload(0x40)\n      dup1\n      swap2\n      sub\n      swap1\n      revert\n    tag_103:\n        /* \"Lottogemeinschaft.sol\":3721:3727  gewinn */\n      dup1\n        /* \"Lottogemeinschaft.sol\":3706:3718  gewinnBetrag */\n      0x0b\n        /* \"Lottogemeinschaft.sol\":3706:3727  gewinnBetrag = gewinn */\n      dup2\n      swap1\n      sstore\n      pop\n        /* \"Lottogemeinschaft.sol\":3230:3734  function gewinnEinzahlen(uint gewinn) public payable restictedToGruender {... */\n      pop\n      jump\t// out\n        /* \"Lottogemeinschaft.sol\":1295:1337  mapping(address => bool) public mitspieler */\n    tag_36:\n      mstore(0x20, 0x07)\n      dup1\n      0x00\n      mstore\n      keccak256(0x00, 0x40)\n      0x00\n      swap2\n      pop\n      sload\n      swap1\n      0x0100\n      exp\n      swap1\n      div\n      0xff\n      and\n      dup2\n      jump\t// out\n        /* \"Lottogemeinschaft.sol\":1472:1507  uint public anzahlTeilnehmerAktuell */\n    tag_41:\n      sload(0x0a)\n      dup2\n      jump\t// out\n        /* \"Lottogemeinschaft.sol\":1189:1217  uint public preisLottoschein */\n    tag_45:\n      sload(0x04)\n      dup2\n      jump\t// out\n        /* \"Lottogemeinschaft.sol\":1343:1390  mapping(uint => address) public mitspielerIndex */\n    tag_50:\n      mstore(0x20, 0x08)\n      dup1\n      0x00\n      mstore\n      keccak256(0x00, 0x40)\n      0x00\n      swap2\n      pop\n      sload\n      swap1\n      0x0100\n      exp\n      swap1\n      div\n      0xffffffffffffffffffffffffffffffffffffffff\n      and\n      dup2\n      jump\t// out\n        /* \"Lottogemeinschaft.sol\":2252:3182  function mitmachen() public payable {... */\n    tag_54:\n        /* \"Lottogemeinschaft.sol\":2312:2337  uint erforderlicherBetrag */\n      0x00\n        /* \"Lottogemeinschaft.sol\":2359:2378  maxTeilnehmerAnzahl */\n      sload(0x02)\n        /* \"Lottogemeinschaft.sol\":2340:2356  preisLottoschein */\n      sload(0x04)\n        /* \"Lottogemeinschaft.sol\":2340:2378  preisLottoschein / maxTeilnehmerAnzahl */\n      tag_107\n      swap2\n      swap1\n      tag_108\n      jump\t// in\n    tag_107:\n        /* \"Lottogemeinschaft.sol\":2312:2378  uint erforderlicherBetrag = preisLottoschein / maxTeilnehmerAnzahl */\n      swap1\n      pop\n        /* \"Lottogemeinschaft.sol\":2409:2429  erforderlicherBetrag */\n      dup1\n        /* \"Lottogemeinschaft.sol\":2396:2405  msg.value */\n      callvalue\n        /* \"Lottogemeinschaft.sol\":2396:2429  msg.value >= erforderlicherBetrag */\n      lt\n      iszero\n        /* \"Lottogemeinschaft.sol\":2388:2463  require(msg.value >= erforderlicherBetrag, \"Zu geringer Einzahlungsbetrag\") */\n      tag_109\n      jumpi\n      mload(0x40)\n      0x08c379a000000000000000000000000000000000000000000000000000000000\n      dup2\n      mstore\n      0x04\n      add\n      tag_110\n      swap1\n      tag_111\n      jump\t// in\n    tag_110:\n      mload(0x40)\n      dup1\n      swap2\n      sub\n      swap1\n      revert\n    tag_109:\n        /* \"Lottogemeinschaft.sol\":2482:2492  mitspieler */\n      0x07\n        /* \"Lottogemeinschaft.sol\":2482:2504  mitspieler[msg.sender] */\n      0x00\n        /* \"Lottogemeinschaft.sol\":2493:2503  msg.sender */\n      caller\n        /* \"Lottogemeinschaft.sol\":2482:2504  mitspieler[msg.sender] */\n      0xffffffffffffffffffffffffffffffffffffffff\n      and\n      0xffffffffffffffffffffffffffffffffffffffff\n      and\n      dup2\n      mstore\n      0x20\n      add\n      swap1\n      dup2\n      mstore\n      0x20\n      add\n      0x00\n      keccak256\n      0x00\n      swap1\n      sload\n      swap1\n      0x0100\n      exp\n      swap1\n      div\n      0xff\n      and\n        /* \"Lottogemeinschaft.sol\":2481:2504  !mitspieler[msg.sender] */\n      iszero\n        /* \"Lottogemeinschaft.sol\":2473:2543  require(!mitspieler[msg.sender], \"Bereits als Mitspieler registriert\") */\n      tag_112\n      jumpi\n      mload(0x40)\n      0x08c379a000000000000000000000000000000000000000000000000000000000\n      dup2\n      mstore\n      0x04\n      add\n      tag_113\n      swap1\n      tag_114\n      jump\t// in\n    tag_113:\n      mload(0x40)\n      dup1\n      swap2\n      sub\n      swap1\n      revert\n    tag_112:\n        /* \"Lottogemeinschaft.sol\":2587:2606  maxTeilnehmerAnzahl */\n      sload(0x02)\n        /* \"Lottogemeinschaft.sol\":2561:2584  anzahlTeilnehmerAktuell */\n      sload(0x0a)\n        /* \"Lottogemeinschaft.sol\":2561:2606  anzahlTeilnehmerAktuell < maxTeilnehmerAnzahl */\n      lt\n        /* \"Lottogemeinschaft.sol\":2553:2643  require(anzahlTeilnehmerAktuell < maxTeilnehmerAnzahl, \"Maximale Teilnehmerzahl erreicht\") */\n      tag_115\n      jumpi\n      mload(0x40)\n      0x08c379a000000000000000000000000000000000000000000000000000000000\n      dup2\n      mstore\n      0x04\n      add\n      tag_116\n      swap1\n      tag_117\n      jump\t// in\n    tag_116:\n      mload(0x40)\n      dup1\n      swap2\n      sub\n      swap1\n      revert\n    tag_115:\n        /* \"Lottogemeinschaft.sol\":2673:2689  uint ueberschuss */\n      0x00\n        /* \"Lottogemeinschaft.sol\":2704:2724  erforderlicherBetrag */\n      dup2\n        /* \"Lottogemeinschaft.sol\":2692:2701  msg.value */\n      callvalue\n        /* \"Lottogemeinschaft.sol\":2692:2724  msg.value - erforderlicherBetrag */\n      tag_118\n      swap2\n      swap1\n      tag_119\n      jump\t// in\n    tag_118:\n        /* \"Lottogemeinschaft.sol\":2673:2724  uint ueberschuss = msg.value - erforderlicherBetrag */\n      swap1\n      pop\n        /* \"Lottogemeinschaft.sol\":2759:2763  true */\n      0x01\n        /* \"Lottogemeinschaft.sol\":2734:2744  mitspieler */\n      0x07\n        /* \"Lottogemeinschaft.sol\":2734:2756  mitspieler[msg.sender] */\n      0x00\n        /* \"Lottogemeinschaft.sol\":2745:2755  msg.sender */\n      caller\n        /* \"Lottogemeinschaft.sol\":2734:2756  mitspieler[msg.sender] */\n      0xffffffffffffffffffffffffffffffffffffffff\n      and\n      0xffffffffffffffffffffffffffffffffffffffff\n      and\n      dup2\n      mstore\n      0x20\n      add\n      swap1\n      dup2\n      mstore\n      0x20\n      add\n      0x00\n      keccak256\n      0x00\n        /* \"Lottogemeinschaft.sol\":2734:2763  mitspieler[msg.sender] = true */\n      0x0100\n      exp\n      dup2\n      sload\n      dup2\n      0xff\n      mul\n      not\n      and\n      swap1\n      dup4\n      iszero\n      iszero\n      mul\n      or\n      swap1\n      sstore\n      pop\n        /* \"Lottogemeinschaft.sol\":2820:2830  msg.sender */\n      caller\n        /* \"Lottogemeinschaft.sol\":2773:2788  mitspielerIndex */\n      0x08\n        /* \"Lottogemeinschaft.sol\":2773:2817  mitspielerIndex[anzahlTeilnehmerAktuell - 1] */\n      0x00\n        /* \"Lottogemeinschaft.sol\":2815:2816  1 */\n      0x01\n        /* \"Lottogemeinschaft.sol\":2789:2812  anzahlTeilnehmerAktuell */\n      sload(0x0a)\n        /* \"Lottogemeinschaft.sol\":2789:2816  anzahlTeilnehmerAktuell - 1 */\n      tag_120\n      swap2\n      swap1\n      tag_119\n      jump\t// in\n    tag_120:\n        /* \"Lottogemeinschaft.sol\":2773:2817  mitspielerIndex[anzahlTeilnehmerAktuell - 1] */\n      dup2\n      mstore\n      0x20\n      add\n      swap1\n      dup2\n      mstore\n      0x20\n      add\n      0x00\n      keccak256\n      0x00\n        /* \"Lottogemeinschaft.sol\":2773:2830  mitspielerIndex[anzahlTeilnehmerAktuell - 1] = msg.sender */\n      0x0100\n      exp\n      dup2\n      sload\n      dup2\n      0xffffffffffffffffffffffffffffffffffffffff\n      mul\n      not\n      and\n      swap1\n      dup4\n      0xffffffffffffffffffffffffffffffffffffffff\n      and\n      mul\n      or\n      swap1\n      sstore\n      pop\n        /* \"Lottogemeinschaft.sol\":2878:2897  mitspielerAddressen */\n      0x09\n        /* \"Lottogemeinschaft.sol\":2903:2913  msg.sender */\n      caller\n        /* \"Lottogemeinschaft.sol\":2878:2914  mitspielerAddressen.push(msg.sender) */\n      swap1\n      dup1\n      0x01\n      dup2\n      sload\n      add\n      dup1\n      dup3\n      sstore\n      dup1\n      swap2\n      pop\n      pop\n      0x01\n      swap1\n      sub\n      swap1\n      0x00\n      mstore\n      keccak256(0x00, 0x20)\n      add\n      0x00\n      swap1\n      swap2\n      swap1\n      swap2\n      swap1\n      swap2\n      0x0100\n      exp\n      dup2\n      sload\n      dup2\n      0xffffffffffffffffffffffffffffffffffffffff\n      mul\n      not\n      and\n      swap1\n      dup4\n      0xffffffffffffffffffffffffffffffffffffffff\n      and\n      mul\n      or\n      swap1\n      sstore\n      pop\n        /* \"Lottogemeinschaft.sol\":2924:2947  anzahlTeilnehmerAktuell */\n      0x0a\n      0x00\n        /* \"Lottogemeinschaft.sol\":2924:2949  anzahlTeilnehmerAktuell++ */\n      dup2\n      sload\n      dup1\n      swap3\n      swap2\n      swap1\n      tag_122\n      swap1\n      tag_123\n      jump\t// in\n    tag_122:\n      swap2\n      swap1\n      pop\n      sstore\n      pop\n        /* \"Lottogemeinschaft.sol\":3002:3003  0 */\n      0x00\n        /* \"Lottogemeinschaft.sol\":2988:2999  ueberschuss */\n      dup2\n        /* \"Lottogemeinschaft.sol\":2988:3003  ueberschuss > 0 */\n      gt\n        /* \"Lottogemeinschaft.sol\":2984:3071  if (ueberschuss > 0) {... */\n      iszero\n      tag_124\n      jumpi\n        /* \"Lottogemeinschaft.sol\":3027:3037  msg.sender */\n      caller\n        /* \"Lottogemeinschaft.sol\":3019:3047  payable(msg.sender).transfer */\n      0xffffffffffffffffffffffffffffffffffffffff\n      and\n        /* \"Lottogemeinschaft.sol\":3019:3060  payable(msg.sender).transfer(ueberschuss) */\n      0x08fc\n        /* \"Lottogemeinschaft.sol\":3048:3059  ueberschuss */\n      dup3\n        /* \"Lottogemeinschaft.sol\":3019:3060  payable(msg.sender).transfer(ueberschuss) */\n      swap1\n      dup2\n      iszero\n      mul\n      swap1\n      mload(0x40)\n      0x00\n      mload(0x40)\n      dup1\n      dup4\n      sub\n      dup2\n      dup6\n      dup9\n      dup9\n      call\n      swap4\n      pop\n      pop\n      pop\n      pop\n      iszero\n      dup1\n      iszero\n      tag_126\n      jumpi\n      returndatasize\n      0x00\n      dup1\n      returndatacopy\n      revert(0x00, returndatasize)\n    tag_126:\n      pop\n        /* \"Lottogemeinschaft.sol\":2984:3071  if (ueberschuss > 0) {... */\n    tag_124:\n        /* \"Lottogemeinschaft.sol\":3127:3137  msg.sender */\n      caller\n        /* \"Lottogemeinschaft.sol\":3080:3095  mitspielerIndex */\n      0x08\n        /* \"Lottogemeinschaft.sol\":3080:3124  mitspielerIndex[anzahlTeilnehmerAktuell - 1] */\n      0x00\n        /* \"Lottogemeinschaft.sol\":3122:3123  1 */\n      0x01\n        /* \"Lottogemeinschaft.sol\":3096:3119  anzahlTeilnehmerAktuell */\n      sload(0x0a)\n        /* \"Lottogemeinschaft.sol\":3096:3123  anzahlTeilnehmerAktuell - 1 */\n      tag_127\n      swap2\n      swap1\n      tag_119\n      jump\t// in\n    tag_127:\n        /* \"Lottogemeinschaft.sol\":3080:3124  mitspielerIndex[anzahlTeilnehmerAktuell - 1] */\n      dup2\n      mstore\n      0x20\n      add\n      swap1\n      dup2\n      mstore\n      0x20\n      add\n      0x00\n      keccak256\n      0x00\n        /* \"Lottogemeinschaft.sol\":3080:3137  mitspielerIndex[anzahlTeilnehmerAktuell - 1] = msg.sender */\n      0x0100\n      exp\n      dup2\n      sload\n      dup2\n      0xffffffffffffffffffffffffffffffffffffffff\n      mul\n      not\n      and\n      swap1\n      dup4\n      0xffffffffffffffffffffffffffffffffffffffff\n      and\n      mul\n      or\n      swap1\n      sstore\n      pop\n        /* \"Lottogemeinschaft.sol\":2288:3182  {... */\n      pop\n      pop\n        /* \"Lottogemeinschaft.sol\":2252:3182  function mitmachen() public payable {... */\n      jump\t// out\n        /* \"Lottogemeinschaft.sol\":1261:1289  uint public anzahlLottotipps */\n    tag_57:\n      sload(0x06)\n      dup2\n      jump\t// out\n        /* \"Lottogemeinschaft.sol\":1430:1466  address[] public mitspielerAddressen */\n    tag_62:\n      0x09\n      dup2\n      dup2\n      sload\n      dup2\n      lt\n      tag_128\n      jumpi\n      0x00\n      dup1\n      revert\n    tag_128:\n      swap1\n      0x00\n      mstore\n      keccak256(0x00, 0x20)\n      add\n      0x00\n      swap2\n      pop\n      sload\n      swap1\n      0x0100\n      exp\n      swap1\n      div\n      0xffffffffffffffffffffffffffffffffffffffff\n      and\n      dup2\n      jump\t// out\n        /* \"Lottogemeinschaft.sol\":1124:1155  uint public maxTeilnehmerAnzahl */\n    tag_66:\n      sload(0x02)\n      dup2\n      jump\t// out\n        /* \"Lottogemeinschaft.sol\":6347:6631  function anzahlMitspielerAendern(uint neueAnzahlMaxTeilnehmer) public restictedToGruender{... */\n    tag_71:\n        /* \"Lottogemeinschaft.sol\":2122:2130  gruender */\n      0x00\n      dup1\n      sload\n      swap1\n      0x0100\n      exp\n      swap1\n      div\n      0xffffffffffffffffffffffffffffffffffffffff\n      and\n        /* \"Lottogemeinschaft.sol\":2108:2130  msg.sender == gruender */\n      0xffffffffffffffffffffffffffffffffffffffff\n      and\n        /* \"Lottogemeinschaft.sol\":2108:2118  msg.sender */\n      caller\n        /* \"Lottogemeinschaft.sol\":2108:2130  msg.sender == gruender */\n      0xffffffffffffffffffffffffffffffffffffffff\n      and\n      eq\n        /* \"Lottogemeinschaft.sol\":2100:2131  require(msg.sender == gruender) */\n      tag_131\n      jumpi\n      0x00\n      dup1\n      revert\n    tag_131:\n        /* \"Lottogemeinschaft.sol\":6479:6480  0 */\n      0x00\n        /* \"Lottogemeinschaft.sol\":6454:6477  anzahlTeilnehmerAktuell */\n      sload(0x0a)\n        /* \"Lottogemeinschaft.sol\":6454:6480  anzahlTeilnehmerAktuell==0 */\n      eq\n        /* \"Lottogemeinschaft.sol\":6446:6569  require(anzahlTeilnehmerAktuell==0, \"Es gibt bereits Mitspieler. Aenderung der Anzahl an Mitspielern nicht mehr moeglich.\") */\n      tag_133\n      jumpi\n      mload(0x40)\n      0x08c379a000000000000000000000000000000000000000000000000000000000\n      dup2\n      mstore\n      0x04\n      add\n      tag_134\n      swap1\n      tag_135\n      jump\t// in\n    tag_134:\n      mload(0x40)\n      dup1\n      swap2\n      sub\n      swap1\n      revert\n    tag_133:\n        /* \"Lottogemeinschaft.sol\":6601:6624  neueAnzahlMaxTeilnehmer */\n      dup1\n        /* \"Lottogemeinschaft.sol\":6579:6598  maxTeilnehmerAnzahl */\n      0x02\n        /* \"Lottogemeinschaft.sol\":6579:6624  maxTeilnehmerAnzahl = neueAnzahlMaxTeilnehmer */\n      dup2\n      swap1\n      sstore\n      pop\n        /* \"Lottogemeinschaft.sol\":6347:6631  function anzahlMitspielerAendern(uint neueAnzahlMaxTeilnehmer) public restictedToGruender{... */\n      pop\n      jump\t// out\n        /* \"Lottogemeinschaft.sol\":6107:6341  function preisLottoscheinAendern(uint neuerPreis) public restictedToGruender{... */\n    tag_75:\n        /* \"Lottogemeinschaft.sol\":2122:2130  gruender */\n      0x00\n      dup1\n      sload\n      swap1\n      0x0100\n      exp\n      swap1\n      div\n      0xffffffffffffffffffffffffffffffffffffffff\n      and\n        /* \"Lottogemeinschaft.sol\":2108:2130  msg.sender == gruender */\n      0xffffffffffffffffffffffffffffffffffffffff\n      and\n        /* \"Lottogemeinschaft.sol\":2108:2118  msg.sender */\n      caller\n        /* \"Lottogemeinschaft.sol\":2108:2130  msg.sender == gruender */\n      0xffffffffffffffffffffffffffffffffffffffff\n      and\n      eq\n        /* \"Lottogemeinschaft.sol\":2100:2131  require(msg.sender == gruender) */\n      tag_137\n      jumpi\n      0x00\n      dup1\n      revert\n    tag_137:\n        /* \"Lottogemeinschaft.sol\":6226:6227  0 */\n      0x00\n        /* \"Lottogemeinschaft.sol\":6201:6224  anzahlTeilnehmerAktuell */\n      sload(0x0a)\n        /* \"Lottogemeinschaft.sol\":6201:6227  anzahlTeilnehmerAktuell==0 */\n      eq\n        /* \"Lottogemeinschaft.sol\":6193:6295  require(anzahlTeilnehmerAktuell==0, \"Es gibt bereits Mitspieler. Preisaenderung nicht mehr moeglich.\") */\n      tag_139\n      jumpi\n      mload(0x40)\n      0x08c379a000000000000000000000000000000000000000000000000000000000\n      dup2\n      mstore\n      0x04\n      add\n      tag_140\n      swap1\n      tag_141\n      jump\t// in\n    tag_140:\n      mload(0x40)\n      dup1\n      swap2\n      sub\n      swap1\n      revert\n    tag_139:\n        /* \"Lottogemeinschaft.sol\":6324:6334  neuerPreis */\n      dup1\n        /* \"Lottogemeinschaft.sol\":6305:6321  preisLottoschein */\n      0x04\n        /* \"Lottogemeinschaft.sol\":6305:6334  preisLottoschein = neuerPreis */\n      dup2\n      swap1\n      sstore\n      pop\n        /* \"Lottogemeinschaft.sol\":6107:6341  function preisLottoscheinAendern(uint neuerPreis) public restictedToGruender{... */\n      pop\n      jump\t// out\n        /* \"Lottogemeinschaft.sol\":1054:1077  address public gruender */\n    tag_78:\n      0x00\n      dup1\n      sload\n      swap1\n      0x0100\n      exp\n      swap1\n      div\n      0xffffffffffffffffffffffffffffffffffffffff\n      and\n      dup2\n      jump\t// out\n        /* \"Lottogemeinschaft.sol\":3784:5368  function auszahlen() public payable restictedToGruender {... */\n    tag_81:\n        /* \"Lottogemeinschaft.sol\":2122:2130  gruender */\n      0x00\n      dup1\n      sload\n      swap1\n      0x0100\n      exp\n      swap1\n      div\n      0xffffffffffffffffffffffffffffffffffffffff\n      and\n        /* \"Lottogemeinschaft.sol\":2108:2130  msg.sender == gruender */\n      0xffffffffffffffffffffffffffffffffffffffff\n      and\n        /* \"Lottogemeinschaft.sol\":2108:2118  msg.sender */\n      caller\n        /* \"Lottogemeinschaft.sol\":2108:2130  msg.sender == gruender */\n      0xffffffffffffffffffffffffffffffffffffffff\n      and\n      eq\n        /* \"Lottogemeinschaft.sol\":2100:2131  require(msg.sender == gruender) */\n      tag_143\n      jumpi\n      0x00\n      dup1\n      revert\n    tag_143:\n        /* \"Lottogemeinschaft.sol\":3868:3892  uint anzahlDerMitspieler */\n      0x00\n        /* \"Lottogemeinschaft.sol\":3895:3918  anzahlTeilnehmerAktuell */\n      sload(0x0a)\n        /* \"Lottogemeinschaft.sol\":3868:3918  uint anzahlDerMitspieler = anzahlTeilnehmerAktuell */\n      swap1\n      pop\n        /* \"Lottogemeinschaft.sol\":3928:3948  uint gewinnProPerson */\n      0x00\n        /* \"Lottogemeinschaft.sol\":3975:3998  anzahlTeilnehmerAktuell */\n      sload(0x0a)\n        /* \"Lottogemeinschaft.sol\":3951:3972  address(this).balance */\n      selfbalance\n        /* \"Lottogemeinschaft.sol\":3951:3998  address(this).balance / anzahlTeilnehmerAktuell */\n      tag_145\n      swap2\n      swap1\n      tag_108\n      jump\t// in\n    tag_145:\n        /* \"Lottogemeinschaft.sol\":3928:3998  uint gewinnProPerson = address(this).balance / anzahlTeilnehmerAktuell */\n      swap1\n      pop\n        /* \"Lottogemeinschaft.sol\":4062:4063  0 */\n      0x00\n        /* \"Lottogemeinschaft.sol\":4040:4059  anzahlDerMitspieler */\n      dup3\n        /* \"Lottogemeinschaft.sol\":4040:4063  anzahlDerMitspieler > 0 */\n      gt\n        /* \"Lottogemeinschaft.sol\":4032:4094  require(anzahlDerMitspieler > 0, \"Keine Mitspieler vorhanden\") */\n      tag_146\n      jumpi\n      mload(0x40)\n      0x08c379a000000000000000000000000000000000000000000000000000000000\n      dup2\n      mstore\n      0x04\n      add\n      tag_147\n      swap1\n      tag_148\n      jump\t// in\n    tag_147:\n      mload(0x40)\n      dup1\n      swap2\n      sub\n      swap1\n      revert\n    tag_146:\n        /* \"Lottogemeinschaft.sol\":4139:4158  maxTeilnehmerAnzahl */\n      sload(0x02)\n        /* \"Lottogemeinschaft.sol\":4112:4135  anzahlTeilnehmerAktuell */\n      sload(0x0a)\n        /* \"Lottogemeinschaft.sol\":4112:4158  anzahlTeilnehmerAktuell == maxTeilnehmerAnzahl */\n      eq\n        /* \"Lottogemeinschaft.sol\":4104:4203  require(anzahlTeilnehmerAktuell == maxTeilnehmerAnzahl, \"Nicht alle Mitspieler haben teilgenommen\") */\n      tag_149\n      jumpi\n      mload(0x40)\n      0x08c379a000000000000000000000000000000000000000000000000000000000\n      dup2\n      mstore\n      0x04\n      add\n      tag_150\n      swap1\n      tag_151\n      jump\t// in\n    tag_150:\n      mload(0x40)\n      dup1\n      swap2\n      sub\n      swap1\n      revert\n    tag_149:\n        /* \"Lottogemeinschaft.sol\":4239:4240  0 */\n      0x00\n        /* \"Lottogemeinschaft.sol\":4221:4236  gewinnProPerson */\n      dup2\n        /* \"Lottogemeinschaft.sol\":4221:4240  gewinnProPerson > 0 */\n      gt\n        /* \"Lottogemeinschaft.sol\":4213:4285  require(gewinnProPerson > 0, \"Nicht genuegend Guthaben fuer Auszahlung\") */\n      tag_152\n      jumpi\n      mload(0x40)\n      0x08c379a000000000000000000000000000000000000000000000000000000000\n      dup2\n      mstore\n      0x04\n      add\n      tag_153\n      swap1\n      tag_154\n      jump\t// in\n    tag_153:\n      mload(0x40)\n      dup1\n      swap2\n      sub\n      swap1\n      revert\n    tag_152:\n        /* \"Lottogemeinschaft.sol\":4374:4393  uint endChargeIndex */\n      0x00\n        /* \"Lottogemeinschaft.sol\":1618:1619  5 */\n      0x05\n        /* \"Lottogemeinschaft.sol\":4396:4412  auszahlungsIndex */\n      sload(0x0c)\n        /* \"Lottogemeinschaft.sol\":4396:4429  auszahlungsIndex + CHARGE_GROESSE */\n      tag_155\n      swap2\n      swap1\n      tag_156\n      jump\t// in\n    tag_155:\n        /* \"Lottogemeinschaft.sol\":4374:4429  uint endChargeIndex = auszahlungsIndex + CHARGE_GROESSE */\n      swap1\n      pop\n        /* \"Lottogemeinschaft.sol\":4444:4450  uint i */\n      0x00\n        /* \"Lottogemeinschaft.sol\":4453:4469  auszahlungsIndex */\n      sload(0x0c)\n        /* \"Lottogemeinschaft.sol\":4444:4469  uint i = auszahlungsIndex */\n      swap1\n      pop\n        /* \"Lottogemeinschaft.sol\":4439:4800  for (uint i = auszahlungsIndex; i < endChargeIndex && i < anzahlTeilnehmerAktuell; i++) {... */\n    tag_157:\n        /* \"Lottogemeinschaft.sol\":4475:4489  endChargeIndex */\n      dup2\n        /* \"Lottogemeinschaft.sol\":4471:4472  i */\n      dup2\n        /* \"Lottogemeinschaft.sol\":4471:4489  i < endChargeIndex */\n      lt\n        /* \"Lottogemeinschaft.sol\":4471:4520  i < endChargeIndex && i < anzahlTeilnehmerAktuell */\n      dup1\n      iszero\n      tag_160\n      jumpi\n      pop\n        /* \"Lottogemeinschaft.sol\":4497:4520  anzahlTeilnehmerAktuell */\n      sload(0x0a)\n        /* \"Lottogemeinschaft.sol\":4493:4494  i */\n      dup2\n        /* \"Lottogemeinschaft.sol\":4493:4520  i < anzahlTeilnehmerAktuell */\n      lt\n        /* \"Lottogemeinschaft.sol\":4471:4520  i < endChargeIndex && i < anzahlTeilnehmerAktuell */\n    tag_160:\n        /* \"Lottogemeinschaft.sol\":4439:4800  for (uint i = auszahlungsIndex; i < endChargeIndex && i < anzahlTeilnehmerAktuell; i++) {... */\n      iszero\n      tag_158\n      jumpi\n        /* \"Lottogemeinschaft.sol\":4541:4566  address mitspielerAdresse */\n      0x00\n        /* \"Lottogemeinschaft.sol\":4569:4584  mitspielerIndex */\n      0x08\n        /* \"Lottogemeinschaft.sol\":4569:4587  mitspielerIndex[i] */\n      0x00\n        /* \"Lottogemeinschaft.sol\":4585:4586  i */\n      dup4\n        /* \"Lottogemeinschaft.sol\":4569:4587  mitspielerIndex[i] */\n      dup2\n      mstore\n      0x20\n      add\n      swap1\n      dup2\n      mstore\n      0x20\n      add\n      0x00\n      keccak256\n      0x00\n      swap1\n      sload\n      swap1\n      0x0100\n      exp\n      swap1\n      div\n      0xffffffffffffffffffffffffffffffffffffffff\n      and\n        /* \"Lottogemeinschaft.sol\":4541:4587  address mitspielerAdresse = mitspielerIndex[i] */\n      swap1\n      pop\n        /* \"Lottogemeinschaft.sol\":4659:4668  bool sent */\n      0x00\n        /* \"Lottogemeinschaft.sol\":4682:4699  mitspielerAdresse */\n      dup2\n        /* \"Lottogemeinschaft.sol\":4674:4705  payable(mitspielerAdresse).call */\n      0xffffffffffffffffffffffffffffffffffffffff\n      and\n        /* \"Lottogemeinschaft.sol\":4713:4728  gewinnProPerson */\n      dup6\n        /* \"Lottogemeinschaft.sol\":4674:4733  payable(mitspielerAdresse).call{value: gewinnProPerson}(\"\") */\n      mload(0x40)\n      tag_161\n      swap1\n      tag_162\n      jump\t// in\n    tag_161:\n      0x00\n      mload(0x40)\n      dup1\n      dup4\n      sub\n      dup2\n      dup6\n      dup8\n      gas\n      call\n      swap3\n      pop\n      pop\n      pop\n      returndatasize\n      dup1\n      0x00\n      dup2\n      eq\n      tag_165\n      jumpi\n      mload(0x40)\n      swap2\n      pop\n      and(add(returndatasize, 0x3f), not(0x1f))\n      dup3\n      add\n      0x40\n      mstore\n      returndatasize\n      dup3\n      mstore\n      returndatasize\n      0x00\n      0x20\n      dup5\n      add\n      returndatacopy\n      jump(tag_164)\n    tag_165:\n      0x60\n      swap2\n      pop\n    tag_164:\n      pop\n        /* \"Lottogemeinschaft.sol\":4658:4733  (bool sent, ) = payable(mitspielerAdresse).call{value: gewinnProPerson}(\"\") */\n      pop\n      swap1\n      pop\n        /* \"Lottogemeinschaft.sol\":4755:4759  sent */\n      dup1\n        /* \"Lottogemeinschaft.sol\":4747:4789  require(sent, \"Auszahlung fehlgeschlagen\") */\n      tag_166\n      jumpi\n      mload(0x40)\n      0x08c379a000000000000000000000000000000000000000000000000000000000\n      dup2\n      mstore\n      0x04\n      add\n      tag_167\n      swap1\n      tag_168\n      jump\t// in\n    tag_167:\n      mload(0x40)\n      dup1\n      swap2\n      sub\n      swap1\n      revert\n    tag_166:\n        /* \"Lottogemeinschaft.sol\":4527:4800  {... */\n      pop\n      pop\n        /* \"Lottogemeinschaft.sol\":4522:4525  i++ */\n      dup1\n      dup1\n      tag_169\n      swap1\n      tag_123\n      jump\t// in\n    tag_169:\n      swap2\n      pop\n      pop\n        /* \"Lottogemeinschaft.sol\":4439:4800  for (uint i = auszahlungsIndex; i < endChargeIndex && i < anzahlTeilnehmerAktuell; i++) {... */\n      jump(tag_157)\n    tag_158:\n      pop\n        /* \"Lottogemeinschaft.sol\":4892:4911  anzahlDerMitspieler */\n      dup3\n        /* \"Lottogemeinschaft.sol\":4875:4889  endChargeIndex */\n      dup2\n        /* \"Lottogemeinschaft.sol\":4875:4911  endChargeIndex > anzahlDerMitspieler */\n      gt\n        /* \"Lottogemeinschaft.sol\":4875:4950  endChargeIndex > anzahlDerMitspieler ? anzahlDerMitspieler : endChargeIndex */\n      tag_170\n      jumpi\n        /* \"Lottogemeinschaft.sol\":4936:4950  endChargeIndex */\n      dup1\n        /* \"Lottogemeinschaft.sol\":4875:4950  endChargeIndex > anzahlDerMitspieler ? anzahlDerMitspieler : endChargeIndex */\n      jump(tag_171)\n    tag_170:\n        /* \"Lottogemeinschaft.sol\":4914:4933  anzahlDerMitspieler */\n      dup3\n        /* \"Lottogemeinschaft.sol\":4875:4950  endChargeIndex > anzahlDerMitspieler ? anzahlDerMitspieler : endChargeIndex */\n    tag_171:\n        /* \"Lottogemeinschaft.sol\":4856:4872  auszahlungsIndex */\n      0x0c\n        /* \"Lottogemeinschaft.sol\":4856:4950  auszahlungsIndex = endChargeIndex > anzahlDerMitspieler ? anzahlDerMitspieler : endChargeIndex */\n      dup2\n      swap1\n      sstore\n      pop\n        /* \"Lottogemeinschaft.sol\":5045:5064  anzahlDerMitspieler */\n      dup3\n        /* \"Lottogemeinschaft.sol\":5025:5041  auszahlungsIndex */\n      sload(0x0c)\n        /* \"Lottogemeinschaft.sol\":5025:5064  auszahlungsIndex == anzahlDerMitspieler */\n      sub\n        /* \"Lottogemeinschaft.sol\":5021:5362  if (auszahlungsIndex == anzahlDerMitspieler) {... */\n      tag_172\n      jumpi\n        /* \"Lottogemeinschaft.sol\":5085:5091  uint i */\n      0x00\n        /* \"Lottogemeinschaft.sol\":5080:5197  for (uint i = 0; i < anzahlDerMitspieler; i++) {... */\n    tag_173:\n        /* \"Lottogemeinschaft.sol\":5101:5120  anzahlDerMitspieler */\n      dup4\n        /* \"Lottogemeinschaft.sol\":5097:5098  i */\n      dup2\n        /* \"Lottogemeinschaft.sol\":5097:5120  i < anzahlDerMitspieler */\n      lt\n        /* \"Lottogemeinschaft.sol\":5080:5197  for (uint i = 0; i < anzahlDerMitspieler; i++) {... */\n      iszero\n      tag_174\n      jumpi\n        /* \"Lottogemeinschaft.sol\":5152:5162  mitspieler */\n      0x07\n        /* \"Lottogemeinschaft.sol\":5152:5182  mitspieler[mitspielerIndex[i]] */\n      0x00\n        /* \"Lottogemeinschaft.sol\":5163:5178  mitspielerIndex */\n      0x08\n        /* \"Lottogemeinschaft.sol\":5163:5181  mitspielerIndex[i] */\n      0x00\n        /* \"Lottogemeinschaft.sol\":5179:5180  i */\n      dup5\n        /* \"Lottogemeinschaft.sol\":5163:5181  mitspielerIndex[i] */\n      dup2\n      mstore\n      0x20\n      add\n      swap1\n      dup2\n      mstore\n      0x20\n      add\n      0x00\n      keccak256\n      0x00\n      swap1\n      sload\n      swap1\n      0x0100\n      exp\n      swap1\n      div\n      0xffffffffffffffffffffffffffffffffffffffff\n      and\n        /* \"Lottogemeinschaft.sol\":5152:5182  mitspieler[mitspielerIndex[i]] */\n      0xffffffffffffffffffffffffffffffffffffffff\n      and\n      0xffffffffffffffffffffffffffffffffffffffff\n      and\n      dup2\n      mstore\n      0x20\n      add\n      swap1\n      dup2\n      mstore\n      0x20\n      add\n      0x00\n      keccak256\n      0x00\n        /* \"Lottogemeinschaft.sol\":5145:5182  delete mitspieler[mitspielerIndex[i]] */\n      0x0100\n      exp\n      dup2\n      sload\n      swap1\n      0xff\n      mul\n      not\n      and\n      swap1\n      sstore\n        /* \"Lottogemeinschaft.sol\":5122:5125  i++ */\n      dup1\n      dup1\n      0x01\n      add\n      swap2\n      pop\n      pop\n        /* \"Lottogemeinschaft.sol\":5080:5197  for (uint i = 0; i < anzahlDerMitspieler; i++) {... */\n      jump(tag_173)\n    tag_174:\n      pop\n        /* \"Lottogemeinschaft.sol\":5236:5237  0 */\n      0x00\n        /* \"Lottogemeinschaft.sol\":5210:5233  anzahlTeilnehmerAktuell */\n      0x0a\n        /* \"Lottogemeinschaft.sol\":5210:5237  anzahlTeilnehmerAktuell = 0 */\n      dup2\n      swap1\n      sstore\n      pop\n        /* \"Lottogemeinschaft.sol\":5270:5271  0 */\n      0x00\n        /* \"Lottogemeinschaft.sol\":5251:5267  auszahlungsIndex */\n      0x0c\n        /* \"Lottogemeinschaft.sol\":5251:5271  auszahlungsIndex = 0 */\n      dup2\n      swap1\n      sstore\n      pop\n        /* \"Lottogemeinschaft.sol\":5321:5322  0 */\n      0x00\n        /* \"Lottogemeinschaft.sol\":5307:5323  new address[](0) */\n      0xffffffffffffffff\n      dup2\n      gt\n      iszero\n      tag_176\n      jumpi\n      tag_177\n      tag_178\n      jump\t// in\n    tag_177:\n    tag_176:\n      mload(0x40)\n      swap1\n      dup1\n      dup3\n      mstore\n      dup1\n      0x20\n      mul\n      0x20\n      add\n      dup3\n      add\n      0x40\n      mstore\n      dup1\n      iszero\n      tag_179\n      jumpi\n      dup2\n      0x20\n      add\n      0x20\n      dup3\n      mul\n      dup1\n      calldatasize\n      dup4\n      calldatacopy\n      dup1\n      dup3\n      add\n      swap2\n      pop\n      pop\n      swap1\n      pop\n    tag_179:\n      pop\n        /* \"Lottogemeinschaft.sol\":5285:5304  mitspielerAddressen */\n      0x09\n        /* \"Lottogemeinschaft.sol\":5285:5323  mitspielerAddressen = new address[](0) */\n      swap1\n      dup1\n      mload\n      swap1\n      0x20\n      add\n      swap1\n      tag_180\n      swap3\n      swap2\n      swap1\n      tag_181\n      jump\t// in\n    tag_180:\n      pop\n        /* \"Lottogemeinschaft.sol\":5021:5362  if (auszahlungsIndex == anzahlDerMitspieler) {... */\n    tag_172:\n        /* \"Lottogemeinschaft.sol\":3840:5368  {... */\n      pop\n      pop\n      pop\n        /* \"Lottogemeinschaft.sol\":3784:5368  function auszahlen() public payable restictedToGruender {... */\n      jump\t// out\n        /* \"Lottogemeinschaft.sol\":1083:1118  string public tippgemeinschaftsName */\n    tag_84:\n      0x01\n      dup1\n      sload\n      tag_182\n      swap1\n      tag_183\n      jump\t// in\n    tag_182:\n      dup1\n      0x1f\n      add\n      0x20\n      dup1\n      swap2\n      div\n      mul\n      0x20\n      add\n      mload(0x40)\n      swap1\n      dup2\n      add\n      0x40\n      mstore\n      dup1\n      swap3\n      swap2\n      swap1\n      dup2\n      dup2\n      mstore\n      0x20\n      add\n      dup3\n      dup1\n      sload\n      tag_184\n      swap1\n      tag_183\n      jump\t// in\n    tag_184:\n      dup1\n      iszero\n      tag_185\n      jumpi\n      dup1\n      0x1f\n      lt\n      tag_186\n      jumpi\n      0x0100\n      dup1\n      dup4\n      sload\n      div\n      mul\n      dup4\n      mstore\n      swap2\n      0x20\n      add\n      swap2\n      jump(tag_185)\n    tag_186:\n      dup3\n      add\n      swap2\n      swap1\n      0x00\n      mstore\n      keccak256(0x00, 0x20)\n      swap1\n    tag_187:\n      dup2\n      sload\n      dup2\n      mstore\n      swap1\n      0x01\n      add\n      swap1\n      0x20\n      add\n      dup1\n      dup4\n      gt\n      tag_187\n      jumpi\n      dup3\n      swap1\n      sub\n      0x1f\n      and\n      dup3\n      add\n      swap2\n    tag_185:\n      pop\n      pop\n      pop\n      pop\n      pop\n      dup2\n      jump\t// out\n        /* \"Lottogemeinschaft.sol\":1675:1773  function getAuszahlungsIndex() public view returns (uint) {... */\n    tag_89:\n        /* \"Lottogemeinschaft.sol\":1727:1731  uint */\n      0x00\n        /* \"Lottogemeinschaft.sol\":1750:1766  auszahlungsIndex */\n      sload(0x0c)\n        /* \"Lottogemeinschaft.sol\":1743:1766  return auszahlungsIndex */\n      swap1\n      pop\n        /* \"Lottogemeinschaft.sol\":1675:1773  function getAuszahlungsIndex() public view returns (uint) {... */\n      swap1\n      jump\t// out\n        /* \"Lottogemeinschaft.sol\":5374:6101  function lottotippEintragen(uint8[5] memory _hauptzahlen, uint8[2] memory _zusatzzahlen) public restictedToGruender{... */\n    tag_95:\n        /* \"Lottogemeinschaft.sol\":2122:2130  gruender */\n      0x00\n      dup1\n      sload\n      swap1\n      0x0100\n      exp\n      swap1\n      div\n      0xffffffffffffffffffffffffffffffffffffffff\n      and\n        /* \"Lottogemeinschaft.sol\":2108:2130  msg.sender == gruender */\n      0xffffffffffffffffffffffffffffffffffffffff\n      and\n        /* \"Lottogemeinschaft.sol\":2108:2118  msg.sender */\n      caller\n        /* \"Lottogemeinschaft.sol\":2108:2130  msg.sender == gruender */\n      0xffffffffffffffffffffffffffffffffffffffff\n      and\n      eq\n        /* \"Lottogemeinschaft.sol\":2100:2131  require(msg.sender == gruender) */\n      tag_190\n      jumpi\n      0x00\n      dup1\n      revert\n    tag_190:\n        /* \"Lottogemeinschaft.sol\":5542:5548  uint i */\n      0x00\n        /* \"Lottogemeinschaft.sol\":5538:5700  for(uint i = 0; i < _hauptzahlen.length; i++) {... */\n    tag_192:\n        /* \"Lottogemeinschaft.sol\":5558:5577  _hauptzahlen.length */\n      0x05\n        /* \"Lottogemeinschaft.sol\":5554:5555  i */\n      dup2\n        /* \"Lottogemeinschaft.sol\":5554:5577  i < _hauptzahlen.length */\n      lt\n        /* \"Lottogemeinschaft.sol\":5538:5700  for(uint i = 0; i < _hauptzahlen.length; i++) {... */\n      iszero\n      tag_193\n      jumpi\n        /* \"Lottogemeinschaft.sol\":5625:5626  1 */\n      0x01\n        /* \"Lottogemeinschaft.sol\":5606:5618  _hauptzahlen */\n      dup4\n        /* \"Lottogemeinschaft.sol\":5619:5620  i */\n      dup3\n        /* \"Lottogemeinschaft.sol\":5606:5621  _hauptzahlen[i] */\n      0x05\n      dup2\n      lt\n      tag_195\n      jumpi\n      tag_196\n      tag_197\n      jump\t// in\n    tag_196:\n    tag_195:\n      0x20\n      mul\n      add\n      mload\n        /* \"Lottogemeinschaft.sol\":5606:5626  _hauptzahlen[i] >= 1 */\n      0xff\n      and\n      lt\n      iszero\n        /* \"Lottogemeinschaft.sol\":5606:5651  _hauptzahlen[i] >= 1 && _hauptzahlen[i] <= 50 */\n      dup1\n      iszero\n      tag_198\n      jumpi\n      pop\n        /* \"Lottogemeinschaft.sol\":5649:5651  50 */\n      0x32\n        /* \"Lottogemeinschaft.sol\":5630:5642  _hauptzahlen */\n      dup4\n        /* \"Lottogemeinschaft.sol\":5643:5644  i */\n      dup3\n        /* \"Lottogemeinschaft.sol\":5630:5645  _hauptzahlen[i] */\n      0x05\n      dup2\n      lt\n      tag_199\n      jumpi\n      tag_200\n      tag_197\n      jump\t// in\n    tag_200:\n    tag_199:\n      0x20\n      mul\n      add\n      mload\n        /* \"Lottogemeinschaft.sol\":5630:5651  _hauptzahlen[i] <= 50 */\n      0xff\n      and\n      gt\n      iszero\n        /* \"Lottogemeinschaft.sol\":5606:5651  _hauptzahlen[i] >= 1 && _hauptzahlen[i] <= 50 */\n    tag_198:\n        /* \"Lottogemeinschaft.sol\":5598:5689  require(_hauptzahlen[i] >= 1 && _hauptzahlen[i] <= 50, \"Hauptzahl ausserhalb des Bereichs\") */\n      tag_201\n      jumpi\n      mload(0x40)\n      0x08c379a000000000000000000000000000000000000000000000000000000000\n      dup2\n      mstore\n      0x04\n      add\n      tag_202\n      swap1\n      tag_203\n      jump\t// in\n    tag_202:\n      mload(0x40)\n      dup1\n      swap2\n      sub\n      swap1\n      revert\n    tag_201:\n        /* \"Lottogemeinschaft.sol\":5579:5582  i++ */\n      dup1\n      dup1\n      0x01\n      add\n      swap2\n      pop\n      pop\n        /* \"Lottogemeinschaft.sol\":5538:5700  for(uint i = 0; i < _hauptzahlen.length; i++) {... */\n      jump(tag_192)\n    tag_193:\n      pop\n        /* \"Lottogemeinschaft.sol\":5754:5760  uint i */\n      0x00\n        /* \"Lottogemeinschaft.sol\":5750:5916  for(uint i = 0; i < _zusatzzahlen.length; i++) {... */\n    tag_204:\n        /* \"Lottogemeinschaft.sol\":5770:5790  _zusatzzahlen.length */\n      0x02\n        /* \"Lottogemeinschaft.sol\":5766:5767  i */\n      dup2\n        /* \"Lottogemeinschaft.sol\":5766:5790  i < _zusatzzahlen.length */\n      lt\n        /* \"Lottogemeinschaft.sol\":5750:5916  for(uint i = 0; i < _zusatzzahlen.length; i++) {... */\n      iszero\n      tag_205\n      jumpi\n        /* \"Lottogemeinschaft.sol\":5839:5840  1 */\n      0x01\n        /* \"Lottogemeinschaft.sol\":5819:5832  _zusatzzahlen */\n      dup3\n        /* \"Lottogemeinschaft.sol\":5833:5834  i */\n      dup3\n        /* \"Lottogemeinschaft.sol\":5819:5835  _zusatzzahlen[i] */\n      0x02\n      dup2\n      lt\n      tag_207\n      jumpi\n      tag_208\n      tag_197\n      jump\t// in\n    tag_208:\n    tag_207:\n      0x20\n      mul\n      add\n      mload\n        /* \"Lottogemeinschaft.sol\":5819:5840  _zusatzzahlen[i] >= 1 */\n      0xff\n      and\n      lt\n      iszero\n        /* \"Lottogemeinschaft.sol\":5819:5866  _zusatzzahlen[i] >= 1 && _zusatzzahlen[i] <= 12 */\n      dup1\n      iszero\n      tag_209\n      jumpi\n      pop\n        /* \"Lottogemeinschaft.sol\":5864:5866  12 */\n      0x0c\n        /* \"Lottogemeinschaft.sol\":5844:5857  _zusatzzahlen */\n      dup3\n        /* \"Lottogemeinschaft.sol\":5858:5859  i */\n      dup3\n        /* \"Lottogemeinschaft.sol\":5844:5860  _zusatzzahlen[i] */\n      0x02\n      dup2\n      lt\n      tag_210\n      jumpi\n      tag_211\n      tag_197\n      jump\t// in\n    tag_211:\n    tag_210:\n      0x20\n      mul\n      add\n      mload\n        /* \"Lottogemeinschaft.sol\":5844:5866  _zusatzzahlen[i] <= 12 */\n      0xff\n      and\n      gt\n      iszero\n        /* \"Lottogemeinschaft.sol\":5819:5866  _zusatzzahlen[i] >= 1 && _zusatzzahlen[i] <= 12 */\n    tag_209:\n        /* \"Lottogemeinschaft.sol\":5811:5905  require(_zusatzzahlen[i] >= 1 && _zusatzzahlen[i] <= 12, \"Zusatzzahl ausserhalb des Bereichs\") */\n      tag_212\n      jumpi\n      mload(0x40)\n      0x08c379a000000000000000000000000000000000000000000000000000000000\n      dup2\n      mstore\n      0x04\n      add\n      tag_213\n      swap1\n      tag_214\n      jump\t// in\n    tag_213:\n      mload(0x40)\n      dup1\n      swap2\n      sub\n      swap1\n      revert\n    tag_212:\n        /* \"Lottogemeinschaft.sol\":5792:5795  i++ */\n      dup1\n      dup1\n      0x01\n      add\n      swap2\n      pop\n      pop\n        /* \"Lottogemeinschaft.sol\":5750:5916  for(uint i = 0; i < _zusatzzahlen.length; i++) {... */\n      jump(tag_204)\n    tag_205:\n      pop\n        /* \"Lottogemeinschaft.sol\":5926:5952  Lottotipp memory neuerTipp */\n      0x00\n        /* \"Lottogemeinschaft.sol\":5955:6056  Lottotipp({... */\n      mload(0x40)\n      dup1\n      0x40\n      add\n      0x40\n      mstore\n      dup1\n        /* \"Lottogemeinschaft.sol\":5992:6004  _hauptzahlen */\n      dup5\n        /* \"Lottogemeinschaft.sol\":5955:6056  Lottotipp({... */\n      dup2\n      mstore\n      0x20\n      add\n        /* \"Lottogemeinschaft.sol\":6032:6045  _zusatzzahlen */\n      dup4\n        /* \"Lottogemeinschaft.sol\":5955:6056  Lottotipp({... */\n      dup2\n      mstore\n      pop\n        /* \"Lottogemeinschaft.sol\":5926:6056  Lottotipp memory neuerTipp = Lottotipp({... */\n      swap1\n      pop\n        /* \"Lottogemeinschaft.sol\":6067:6078  lottoschein */\n      0x05\n        /* \"Lottogemeinschaft.sol\":6084:6093  neuerTipp */\n      dup2\n        /* \"Lottogemeinschaft.sol\":6067:6094  lottoschein.push(neuerTipp) */\n      swap1\n      dup1\n      0x01\n      dup2\n      sload\n      add\n      dup1\n      dup3\n      sstore\n      dup1\n      swap2\n      pop\n      pop\n      0x01\n      swap1\n      sub\n      swap1\n      0x00\n      mstore\n      keccak256(0x00, 0x20)\n      swap1\n      0x02\n      mul\n      add\n      0x00\n      swap1\n      swap2\n      swap1\n      swap2\n      swap1\n      swap2\n      pop\n      0x00\n      dup3\n      add\n      mload\n      dup2\n      0x00\n      add\n      swap1\n      0x05\n      tag_216\n      swap3\n      swap2\n      swap1\n      tag_217\n      jump\t// in\n    tag_216:\n      pop\n      0x20\n      dup3\n      add\n      mload\n      dup2\n      0x01\n      add\n      swap1\n      0x02\n      tag_218\n      swap3\n      swap2\n      swap1\n      tag_219\n      jump\t// in\n    tag_218:\n      pop\n      pop\n      pop\n        /* \"Lottogemeinschaft.sol\":5489:6101  {... */\n      pop\n        /* \"Lottogemeinschaft.sol\":5374:6101  function lottotippEintragen(uint8[5] memory _hauptzahlen, uint8[2] memory _zusatzzahlen) public restictedToGruender{... */\n      pop\n      pop\n      jump\t// out\n        /* \"Lottogemeinschaft.sol\":1514:1542  uint public gewinnBetrag = 0 */\n    tag_98:\n      sload(0x0b)\n      dup2\n      jump\t// out\n    tag_181:\n      dup3\n      dup1\n      sload\n      dup3\n      dup3\n      sstore\n      swap1\n      0x00\n      mstore\n      keccak256(0x00, 0x20)\n      swap1\n      dup2\n      add\n      swap3\n      dup3\n      iszero\n      tag_220\n      jumpi\n      swap2\n      0x20\n      mul\n      dup3\n      add\n    tag_221:\n      dup3\n      dup2\n      gt\n      iszero\n      tag_222\n      jumpi\n      dup3\n      mload\n      dup3\n      exp(0x0100, 0x00)\n      dup2\n      sload\n      dup2\n      0xffffffffffffffffffffffffffffffffffffffff\n      mul\n      not\n      and\n      swap1\n      dup4\n      0xffffffffffffffffffffffffffffffffffffffff\n      and\n      mul\n      or\n      swap1\n      sstore\n      pop\n      swap2\n      0x20\n      add\n      swap2\n      swap1\n      0x01\n      add\n      swap1\n      jump(tag_221)\n    tag_222:\n    tag_220:\n      pop\n      swap1\n      pop\n      tag_223\n      swap2\n      swap1\n      tag_224\n      jump\t// in\n    tag_223:\n      pop\n      swap1\n      jump\t// out\n    tag_217:\n      dup3\n      add(0x1f, 0x05)\n      0x20\n      swap1\n      div\n      dup2\n      add\n      swap3\n      dup3\n      iszero\n      tag_225\n      jumpi\n      swap2\n      0x20\n      mul\n      dup3\n      add\n      0x00\n    tag_226:\n      dup4\n      dup3\n      gt\n      iszero\n      tag_227\n      jumpi\n      dup4\n      mload\n      dup4\n      dup3\n      0x0100\n      exp\n      dup2\n      sload\n      dup2\n      0xff\n      mul\n      not\n      and\n      swap1\n      dup4\n      0xff\n      and\n      mul\n      or\n      swap1\n      sstore\n      pop\n      swap3\n      0x20\n      add\n      swap3\n      0x01\n      add\n      0x20\n      dup2\n      0x00\n      add\n      div\n      swap3\n      dup4\n      add\n      swap3\n      0x01\n      sub\n      mul\n      jump(tag_226)\n    tag_227:\n      dup1\n      iszero\n      tag_228\n      jumpi\n      dup3\n      dup2\n      0x0100\n      exp\n      dup2\n      sload\n      swap1\n      0xff\n      mul\n      not\n      and\n      swap1\n      sstore\n      0x01\n      add\n      0x20\n      dup2\n      0x00\n      add\n      div\n      swap3\n      dup4\n      add\n      swap3\n      0x01\n      sub\n      mul\n      jump(tag_227)\n    tag_228:\n      pop\n    tag_225:\n      pop\n      swap1\n      pop\n      tag_229\n      swap2\n      swap1\n      tag_224\n      jump\t// in\n    tag_229:\n      pop\n      swap1\n      jump\t// out\n    tag_219:\n      dup3\n      add(0x1f, 0x02)\n      0x20\n      swap1\n      div\n      dup2\n      add\n      swap3\n      dup3\n      iszero\n      tag_230\n      jumpi\n      swap2\n      0x20\n      mul\n      dup3\n      add\n      0x00\n    tag_231:\n      dup4\n      dup3\n      gt\n      iszero\n      tag_232\n      jumpi\n      dup4\n      mload\n      dup4\n      dup3\n      0x0100\n      exp\n      dup2\n      sload\n      dup2\n      0xff\n      mul\n      not\n      and\n      swap1\n      dup4\n      0xff\n      and\n      mul\n      or\n      swap1\n      sstore\n      pop\n      swap3\n      0x20\n      add\n      swap3\n      0x01\n      add\n      0x20\n      dup2\n      0x00\n      add\n      div\n      swap3\n      dup4\n      add\n      swap3\n      0x01\n      sub\n      mul\n      jump(tag_231)\n    tag_232:\n      dup1\n      iszero\n      tag_233\n      jumpi\n      dup3\n      dup2\n      0x0100\n      exp\n      dup2\n      sload\n      swap1\n      0xff\n      mul\n      not\n      and\n      swap1\n      sstore\n      0x01\n      add\n      0x20\n      dup2\n      0x00\n      add\n      div\n      swap3\n      dup4\n      add\n      swap3\n      0x01\n      sub\n      mul\n      jump(tag_232)\n    tag_233:\n      pop\n    tag_230:\n      pop\n      swap1\n      pop\n      tag_234\n      swap2\n      swap1\n      tag_224\n      jump\t// in\n    tag_234:\n      pop\n      swap1\n      jump\t// out\n    tag_224:\n    tag_235:\n      dup1\n      dup3\n      gt\n      iszero\n      tag_236\n      jumpi\n      0x00\n      dup2\n      0x00\n      swap1\n      sstore\n      pop\n      0x01\n      add\n      jump(tag_235)\n    tag_236:\n      pop\n      swap1\n      jump\t// out\n        /* \"#utility.yul\":7:84   */\n    tag_237:\n        /* \"#utility.yul\":44:51   */\n      0x00\n        /* \"#utility.yul\":73:78   */\n      dup2\n        /* \"#utility.yul\":62:78   */\n      swap1\n      pop\n        /* \"#utility.yul\":7:84   */\n      swap2\n      swap1\n      pop\n      jump\t// out\n        /* \"#utility.yul\":90:208   */\n    tag_238:\n        /* \"#utility.yul\":177:201   */\n      tag_302\n        /* \"#utility.yul\":195:200   */\n      dup2\n        /* \"#utility.yul\":177:201   */\n      tag_237\n      jump\t// in\n    tag_302:\n        /* \"#utility.yul\":172:175   */\n      dup3\n        /* \"#utility.yul\":165:202   */\n      mstore\n        /* \"#utility.yul\":90:208   */\n      pop\n      pop\n      jump\t// out\n        /* \"#utility.yul\":214:436   */\n    tag_27:\n        /* \"#utility.yul\":307:311   */\n      0x00\n        /* \"#utility.yul\":345:347   */\n      0x20\n        /* \"#utility.yul\":334:343   */\n      dup3\n        /* \"#utility.yul\":330:348   */\n      add\n        /* \"#utility.yul\":322:348   */\n      swap1\n      pop\n        /* \"#utility.yul\":358:429   */\n      tag_304\n        /* \"#utility.yul\":426:427   */\n      0x00\n        /* \"#utility.yul\":415:424   */\n      dup4\n        /* \"#utility.yul\":411:428   */\n      add\n        /* \"#utility.yul\":402:408   */\n      dup5\n        /* \"#utility.yul\":358:429   */\n      tag_238\n      jump\t// in\n    tag_304:\n        /* \"#utility.yul\":214:436   */\n      swap3\n      swap2\n      pop\n      pop\n      jump\t// out\n        /* \"#utility.yul\":442:517   */\n    tag_239:\n        /* \"#utility.yul\":475:481   */\n      0x00\n        /* \"#utility.yul\":508:510   */\n      0x40\n        /* \"#utility.yul\":502:511   */\n      mload\n        /* \"#utility.yul\":492:511   */\n      swap1\n      pop\n        /* \"#utility.yul\":442:517   */\n      swap1\n      jump\t// out\n        /* \"#utility.yul\":523:640   */\n    tag_240:\n        /* \"#utility.yul\":632:633   */\n      0x00\n        /* \"#utility.yul\":629:630   */\n      dup1\n        /* \"#utility.yul\":622:634   */\n      revert\n        /* \"#utility.yul\":769:891   */\n    tag_242:\n        /* \"#utility.yul\":842:866   */\n      tag_309\n        /* \"#utility.yul\":860:865   */\n      dup2\n        /* \"#utility.yul\":842:866   */\n      tag_237\n      jump\t// in\n    tag_309:\n        /* \"#utility.yul\":835:840   */\n      dup2\n        /* \"#utility.yul\":832:867   */\n      eq\n        /* \"#utility.yul\":822:885   */\n      tag_310\n      jumpi\n        /* \"#utility.yul\":881:882   */\n      0x00\n        /* \"#utility.yul\":878:879   */\n      dup1\n        /* \"#utility.yul\":871:883   */\n      revert\n        /* \"#utility.yul\":822:885   */\n    tag_310:\n        /* \"#utility.yul\":769:891   */\n      pop\n      jump\t// out\n        /* \"#utility.yul\":897:1036   */\n    tag_243:\n        /* \"#utility.yul\":943:948   */\n      0x00\n        /* \"#utility.yul\":981:987   */\n      dup2\n        /* \"#utility.yul\":968:988   */\n      calldataload\n        /* \"#utility.yul\":959:988   */\n      swap1\n      pop\n        /* \"#utility.yul\":997:1030   */\n      tag_312\n        /* \"#utility.yul\":1024:1029   */\n      dup2\n        /* \"#utility.yul\":997:1030   */\n      tag_242\n      jump\t// in\n    tag_312:\n        /* \"#utility.yul\":897:1036   */\n      swap3\n      swap2\n      pop\n      pop\n      jump\t// out\n        /* \"#utility.yul\":1042:1371   */\n    tag_30:\n        /* \"#utility.yul\":1101:1107   */\n      0x00\n        /* \"#utility.yul\":1150:1152   */\n      0x20\n        /* \"#utility.yul\":1138:1147   */\n      dup3\n        /* \"#utility.yul\":1129:1136   */\n      dup5\n        /* \"#utility.yul\":1125:1148   */\n      sub\n        /* \"#utility.yul\":1121:1153   */\n      slt\n        /* \"#utility.yul\":1118:1237   */\n      iszero\n      tag_314\n      jumpi\n        /* \"#utility.yul\":1156:1235   */\n      tag_315\n      tag_240\n      jump\t// in\n    tag_315:\n        /* \"#utility.yul\":1118:1237   */\n    tag_314:\n        /* \"#utility.yul\":1276:1277   */\n      0x00\n        /* \"#utility.yul\":1301:1354   */\n      tag_316\n        /* \"#utility.yul\":1346:1353   */\n      dup5\n        /* \"#utility.yul\":1337:1343   */\n      dup3\n        /* \"#utility.yul\":1326:1335   */\n      dup6\n        /* \"#utility.yul\":1322:1344   */\n      add\n        /* \"#utility.yul\":1301:1354   */\n      tag_243\n      jump\t// in\n    tag_316:\n        /* \"#utility.yul\":1291:1354   */\n      swap2\n      pop\n        /* \"#utility.yul\":1247:1364   */\n      pop\n        /* \"#utility.yul\":1042:1371   */\n      swap3\n      swap2\n      pop\n      pop\n      jump\t// out\n        /* \"#utility.yul\":1377:1503   */\n    tag_244:\n        /* \"#utility.yul\":1414:1421   */\n      0x00\n        /* \"#utility.yul\":1454:1496   */\n      0xffffffffffffffffffffffffffffffffffffffff\n        /* \"#utility.yul\":1447:1452   */\n      dup3\n        /* \"#utility.yul\":1443:1497   */\n      and\n        /* \"#utility.yul\":1432:1497   */\n      swap1\n      pop\n        /* \"#utility.yul\":1377:1503   */\n      swap2\n      swap1\n      pop\n      jump\t// out\n        /* \"#utility.yul\":1509:1605   */\n    tag_245:\n        /* \"#utility.yul\":1546:1553   */\n      0x00\n        /* \"#utility.yul\":1575:1599   */\n      tag_319\n        /* \"#utility.yul\":1593:1598   */\n      dup3\n        /* \"#utility.yul\":1575:1599   */\n      tag_244\n      jump\t// in\n    tag_319:\n        /* \"#utility.yul\":1564:1599   */\n      swap1\n      pop\n        /* \"#utility.yul\":1509:1605   */\n      swap2\n      swap1\n      pop\n      jump\t// out\n        /* \"#utility.yul\":1611:1733   */\n    tag_246:\n        /* \"#utility.yul\":1684:1708   */\n      tag_321\n        /* \"#utility.yul\":1702:1707   */\n      dup2\n        /* \"#utility.yul\":1684:1708   */\n      tag_245\n      jump\t// in\n    tag_321:\n        /* \"#utility.yul\":1677:1682   */\n      dup2\n        /* \"#utility.yul\":1674:1709   */\n      eq\n        /* \"#utility.yul\":1664:1727   */\n      tag_322\n      jumpi\n        /* \"#utility.yul\":1723:1724   */\n      0x00\n        /* \"#utility.yul\":1720:1721   */\n      dup1\n        /* \"#utility.yul\":1713:1725   */\n      revert\n        /* \"#utility.yul\":1664:1727   */\n    tag_322:\n        /* \"#utility.yul\":1611:1733   */\n      pop\n      jump\t// out\n        /* \"#utility.yul\":1739:1878   */\n    tag_247:\n        /* \"#utility.yul\":1785:1790   */\n      0x00\n        /* \"#utility.yul\":1823:1829   */\n      dup2\n        /* \"#utility.yul\":1810:1830   */\n      calldataload\n        /* \"#utility.yul\":1801:1830   */\n      swap1\n      pop\n        /* \"#utility.yul\":1839:1872   */\n      tag_324\n        /* \"#utility.yul\":1866:1871   */\n      dup2\n        /* \"#utility.yul\":1839:1872   */\n      tag_246\n      jump\t// in\n    tag_324:\n        /* \"#utility.yul\":1739:1878   */\n      swap3\n      swap2\n      pop\n      pop\n      jump\t// out\n        /* \"#utility.yul\":1884:2213   */\n    tag_35:\n        /* \"#utility.yul\":1943:1949   */\n      0x00\n        /* \"#utility.yul\":1992:1994   */\n      0x20\n        /* \"#utility.yul\":1980:1989   */\n      dup3\n        /* \"#utility.yul\":1971:1978   */\n      dup5\n        /* \"#utility.yul\":1967:1990   */\n      sub\n        /* \"#utility.yul\":1963:1995   */\n      slt\n        /* \"#utility.yul\":1960:2079   */\n      iszero\n      tag_326\n      jumpi\n        /* \"#utility.yul\":1998:2077   */\n      tag_327\n      tag_240\n      jump\t// in\n    tag_327:\n        /* \"#utility.yul\":1960:2079   */\n    tag_326:\n        /* \"#utility.yul\":2118:2119   */\n      0x00\n        /* \"#utility.yul\":2143:2196   */\n      tag_328\n        /* \"#utility.yul\":2188:2195   */\n      dup5\n        /* \"#utility.yul\":2179:2185   */\n      dup3\n        /* \"#utility.yul\":2168:2177   */\n      dup6\n        /* \"#utility.yul\":2164:2186   */\n      add\n        /* \"#utility.yul\":2143:2196   */\n      tag_247\n      jump\t// in\n    tag_328:\n        /* \"#utility.yul\":2133:2196   */\n      swap2\n      pop\n        /* \"#utility.yul\":2089:2206   */\n      pop\n        /* \"#utility.yul\":1884:2213   */\n      swap3\n      swap2\n      pop\n      pop\n      jump\t// out\n        /* \"#utility.yul\":2219:2309   */\n    tag_248:\n        /* \"#utility.yul\":2253:2260   */\n      0x00\n        /* \"#utility.yul\":2296:2301   */\n      dup2\n        /* \"#utility.yul\":2289:2302   */\n      iszero\n        /* \"#utility.yul\":2282:2303   */\n      iszero\n        /* \"#utility.yul\":2271:2303   */\n      swap1\n      pop\n        /* \"#utility.yul\":2219:2309   */\n      swap2\n      swap1\n      pop\n      jump\t// out\n        /* \"#utility.yul\":2315:2424   */\n    tag_249:\n        /* \"#utility.yul\":2396:2417   */\n      tag_331\n        /* \"#utility.yul\":2411:2416   */\n      dup2\n        /* \"#utility.yul\":2396:2417   */\n      tag_248\n      jump\t// in\n    tag_331:\n        /* \"#utility.yul\":2391:2394   */\n      dup3\n        /* \"#utility.yul\":2384:2418   */\n      mstore\n        /* \"#utility.yul\":2315:2424   */\n      pop\n      pop\n      jump\t// out\n        /* \"#utility.yul\":2430:2640   */\n    tag_38:\n        /* \"#utility.yul\":2517:2521   */\n      0x00\n        /* \"#utility.yul\":2555:2557   */\n      0x20\n        /* \"#utility.yul\":2544:2553   */\n      dup3\n        /* \"#utility.yul\":2540:2558   */\n      add\n        /* \"#utility.yul\":2532:2558   */\n      swap1\n      pop\n        /* \"#utility.yul\":2568:2633   */\n      tag_333\n        /* \"#utility.yul\":2630:2631   */\n      0x00\n        /* \"#utility.yul\":2619:2628   */\n      dup4\n        /* \"#utility.yul\":2615:2632   */\n      add\n        /* \"#utility.yul\":2606:2612   */\n      dup5\n        /* \"#utility.yul\":2568:2633   */\n      tag_249\n      jump\t// in\n    tag_333:\n        /* \"#utility.yul\":2430:2640   */\n      swap3\n      swap2\n      pop\n      pop\n      jump\t// out\n        /* \"#utility.yul\":2646:2764   */\n    tag_250:\n        /* \"#utility.yul\":2733:2757   */\n      tag_335\n        /* \"#utility.yul\":2751:2756   */\n      dup2\n        /* \"#utility.yul\":2733:2757   */\n      tag_245\n      jump\t// in\n    tag_335:\n        /* \"#utility.yul\":2728:2731   */\n      dup3\n        /* \"#utility.yul\":2721:2758   */\n      mstore\n        /* \"#utility.yul\":2646:2764   */\n      pop\n      pop\n      jump\t// out\n        /* \"#utility.yul\":2770:2992   */\n    tag_52:\n        /* \"#utility.yul\":2863:2867   */\n      0x00\n        /* \"#utility.yul\":2901:2903   */\n      0x20\n        /* \"#utility.yul\":2890:2899   */\n      dup3\n        /* \"#utility.yul\":2886:2904   */\n      add\n        /* \"#utility.yul\":2878:2904   */\n      swap1\n      pop\n        /* \"#utility.yul\":2914:2985   */\n      tag_337\n        /* \"#utility.yul\":2982:2983   */\n      0x00\n        /* \"#utility.yul\":2971:2980   */\n      dup4\n        /* \"#utility.yul\":2967:2984   */\n      add\n        /* \"#utility.yul\":2958:2964   */\n      dup5\n        /* \"#utility.yul\":2914:2985   */\n      tag_250\n      jump\t// in\n    tag_337:\n        /* \"#utility.yul\":2770:2992   */\n      swap3\n      swap2\n      pop\n      pop\n      jump\t// out\n        /* \"#utility.yul\":2998:3097   */\n    tag_251:\n        /* \"#utility.yul\":3050:3056   */\n      0x00\n        /* \"#utility.yul\":3084:3089   */\n      dup2\n        /* \"#utility.yul\":3078:3090   */\n      mload\n        /* \"#utility.yul\":3068:3090   */\n      swap1\n      pop\n        /* \"#utility.yul\":2998:3097   */\n      swap2\n      swap1\n      pop\n      jump\t// out\n        /* \"#utility.yul\":3103:3272   */\n    tag_252:\n        /* \"#utility.yul\":3187:3198   */\n      0x00\n        /* \"#utility.yul\":3221:3227   */\n      dup3\n        /* \"#utility.yul\":3216:3219   */\n      dup3\n        /* \"#utility.yul\":3209:3228   */\n      mstore\n        /* \"#utility.yul\":3261:3265   */\n      0x20\n        /* \"#utility.yul\":3256:3259   */\n      dup3\n        /* \"#utility.yul\":3252:3266   */\n      add\n        /* \"#utility.yul\":3237:3266   */\n      swap1\n      pop\n        /* \"#utility.yul\":3103:3272   */\n      swap3\n      swap2\n      pop\n      pop\n      jump\t// out\n        /* \"#utility.yul\":3278:3524   */\n    tag_253:\n        /* \"#utility.yul\":3359:3360   */\n      0x00\n        /* \"#utility.yul\":3369:3482   */\n    tag_341:\n        /* \"#utility.yul\":3383:3389   */\n      dup4\n        /* \"#utility.yul\":3380:3381   */\n      dup2\n        /* \"#utility.yul\":3377:3390   */\n      lt\n        /* \"#utility.yul\":3369:3482   */\n      iszero\n      tag_343\n      jumpi\n        /* \"#utility.yul\":3468:3469   */\n      dup1\n        /* \"#utility.yul\":3463:3466   */\n      dup3\n        /* \"#utility.yul\":3459:3470   */\n      add\n        /* \"#utility.yul\":3453:3471   */\n      mload\n        /* \"#utility.yul\":3449:3450   */\n      dup2\n        /* \"#utility.yul\":3444:3447   */\n      dup5\n        /* \"#utility.yul\":3440:3451   */\n      add\n        /* \"#utility.yul\":3433:3472   */\n      mstore\n        /* \"#utility.yul\":3405:3407   */\n      0x20\n        /* \"#utility.yul\":3402:3403   */\n      dup2\n        /* \"#utility.yul\":3398:3408   */\n      add\n        /* \"#utility.yul\":3393:3408   */\n      swap1\n      pop\n        /* \"#utility.yul\":3369:3482   */\n      jump(tag_341)\n    tag_343:\n        /* \"#utility.yul\":3516:3517   */\n      0x00\n        /* \"#utility.yul\":3507:3513   */\n      dup5\n        /* \"#utility.yul\":3502:3505   */\n      dup5\n        /* \"#utility.yul\":3498:3514   */\n      add\n        /* \"#utility.yul\":3491:3518   */\n      mstore\n        /* \"#utility.yul\":3340:3524   */\n      pop\n        /* \"#utility.yul\":3278:3524   */\n      pop\n      pop\n      pop\n      jump\t// out\n        /* \"#utility.yul\":3530:3632   */\n    tag_254:\n        /* \"#utility.yul\":3571:3577   */\n      0x00\n        /* \"#utility.yul\":3622:3624   */\n      0x1f\n        /* \"#utility.yul\":3618:3625   */\n      not\n        /* \"#utility.yul\":3613:3615   */\n      0x1f\n        /* \"#utility.yul\":3606:3611   */\n      dup4\n        /* \"#utility.yul\":3602:3616   */\n      add\n        /* \"#utility.yul\":3598:3626   */\n      and\n        /* \"#utility.yul\":3588:3626   */\n      swap1\n      pop\n        /* \"#utility.yul\":3530:3632   */\n      swap2\n      swap1\n      pop\n      jump\t// out\n        /* \"#utility.yul\":3638:4015   */\n    tag_255:\n        /* \"#utility.yul\":3726:3729   */\n      0x00\n        /* \"#utility.yul\":3754:3793   */\n      tag_346\n        /* \"#utility.yul\":3787:3792   */\n      dup3\n        /* \"#utility.yul\":3754:3793   */\n      tag_251\n      jump\t// in\n    tag_346:\n        /* \"#utility.yul\":3809:3880   */\n      tag_347\n        /* \"#utility.yul\":3873:3879   */\n      dup2\n        /* \"#utility.yul\":3868:3871   */\n      dup6\n        /* \"#utility.yul\":3809:3880   */\n      tag_252\n      jump\t// in\n    tag_347:\n        /* \"#utility.yul\":3802:3880   */\n      swap4\n      pop\n        /* \"#utility.yul\":3889:3954   */\n      tag_348\n        /* \"#utility.yul\":3947:3953   */\n      dup2\n        /* \"#utility.yul\":3942:3945   */\n      dup6\n        /* \"#utility.yul\":3935:3939   */\n      0x20\n        /* \"#utility.yul\":3928:3933   */\n      dup7\n        /* \"#utility.yul\":3924:3940   */\n      add\n        /* \"#utility.yul\":3889:3954   */\n      tag_253\n      jump\t// in\n    tag_348:\n        /* \"#utility.yul\":3979:4008   */\n      tag_349\n        /* \"#utility.yul\":4001:4007   */\n      dup2\n        /* \"#utility.yul\":3979:4008   */\n      tag_254\n      jump\t// in\n    tag_349:\n        /* \"#utility.yul\":3974:3977   */\n      dup5\n        /* \"#utility.yul\":3970:4009   */\n      add\n        /* \"#utility.yul\":3963:4009   */\n      swap2\n      pop\n        /* \"#utility.yul\":3730:4015   */\n      pop\n        /* \"#utility.yul\":3638:4015   */\n      swap3\n      swap2\n      pop\n      pop\n      jump\t// out\n        /* \"#utility.yul\":4021:4334   */\n    tag_86:\n        /* \"#utility.yul\":4134:4138   */\n      0x00\n        /* \"#utility.yul\":4172:4174   */\n      0x20\n        /* \"#utility.yul\":4161:4170   */\n      dup3\n        /* \"#utility.yul\":4157:4175   */\n      add\n        /* \"#utility.yul\":4149:4175   */\n      swap1\n      pop\n        /* \"#utility.yul\":4221:4230   */\n      dup2\n        /* \"#utility.yul\":4215:4219   */\n      dup2\n        /* \"#utility.yul\":4211:4231   */\n      sub\n        /* \"#utility.yul\":4207:4208   */\n      0x00\n        /* \"#utility.yul\":4196:4205   */\n      dup4\n        /* \"#utility.yul\":4192:4209   */\n      add\n        /* \"#utility.yul\":4185:4232   */\n      mstore\n        /* \"#utility.yul\":4249:4327   */\n      tag_351\n        /* \"#utility.yul\":4322:4326   */\n      dup2\n        /* \"#utility.yul\":4313:4319   */\n      dup5\n        /* \"#utility.yul\":4249:4327   */\n      tag_255\n      jump\t// in\n    tag_351:\n        /* \"#utility.yul\":4241:4327   */\n      swap1\n      pop\n        /* \"#utility.yul\":4021:4334   */\n      swap3\n      swap2\n      pop\n      pop\n      jump\t// out\n        /* \"#utility.yul\":4340:4457   */\n    tag_256:\n        /* \"#utility.yul\":4449:4450   */\n      0x00\n        /* \"#utility.yul\":4446:4447   */\n      dup1\n        /* \"#utility.yul\":4439:4451   */\n      revert\n        /* \"#utility.yul\":4463:4643   */\n    tag_178:\n        /* \"#utility.yul\":4511:4588   */\n      0x4e487b7100000000000000000000000000000000000000000000000000000000\n        /* \"#utility.yul\":4508:4509   */\n      0x00\n        /* \"#utility.yul\":4501:4589   */\n      mstore\n        /* \"#utility.yul\":4608:4612   */\n      0x41\n        /* \"#utility.yul\":4605:4606   */\n      0x04\n        /* \"#utility.yul\":4598:4613   */\n      mstore\n        /* \"#utility.yul\":4632:4636   */\n      0x24\n        /* \"#utility.yul\":4629:4630   */\n      0x00\n        /* \"#utility.yul\":4622:4637   */\n      revert\n        /* \"#utility.yul\":4649:4930   */\n    tag_257:\n        /* \"#utility.yul\":4732:4759   */\n      tag_355\n        /* \"#utility.yul\":4754:4758   */\n      dup3\n        /* \"#utility.yul\":4732:4759   */\n      tag_254\n      jump\t// in\n    tag_355:\n        /* \"#utility.yul\":4724:4730   */\n      dup2\n        /* \"#utility.yul\":4720:4760   */\n      add\n        /* \"#utility.yul\":4862:4868   */\n      dup2\n        /* \"#utility.yul\":4850:4860   */\n      dup2\n        /* \"#utility.yul\":4847:4869   */\n      lt\n        /* \"#utility.yul\":4826:4844   */\n      0xffffffffffffffff\n        /* \"#utility.yul\":4814:4824   */\n      dup3\n        /* \"#utility.yul\":4811:4845   */\n      gt\n        /* \"#utility.yul\":4808:4870   */\n      or\n        /* \"#utility.yul\":4805:4893   */\n      iszero\n      tag_356\n      jumpi\n        /* \"#utility.yul\":4873:4891   */\n      tag_357\n      tag_178\n      jump\t// in\n    tag_357:\n        /* \"#utility.yul\":4805:4893   */\n    tag_356:\n        /* \"#utility.yul\":4913:4923   */\n      dup1\n        /* \"#utility.yul\":4909:4911   */\n      0x40\n        /* \"#utility.yul\":4902:4924   */\n      mstore\n        /* \"#utility.yul\":4692:4930   */\n      pop\n        /* \"#utility.yul\":4649:4930   */\n      pop\n      pop\n      jump\t// out\n        /* \"#utility.yul\":4936:5065   */\n    tag_258:\n        /* \"#utility.yul\":4970:4976   */\n      0x00\n        /* \"#utility.yul\":4997:5017   */\n      tag_359\n      tag_239\n      jump\t// in\n    tag_359:\n        /* \"#utility.yul\":4987:5017   */\n      swap1\n      pop\n        /* \"#utility.yul\":5026:5059   */\n      tag_360\n        /* \"#utility.yul\":5054:5058   */\n      dup3\n        /* \"#utility.yul\":5046:5052   */\n      dup3\n        /* \"#utility.yul\":5026:5059   */\n      tag_257\n      jump\t// in\n    tag_360:\n        /* \"#utility.yul\":4936:5065   */\n      swap2\n      swap1\n      pop\n      jump\t// out\n        /* \"#utility.yul\":5071:5318   */\n    tag_259:\n        /* \"#utility.yul\":5144:5148   */\n      0x00\n        /* \"#utility.yul\":5234:5252   */\n      0xffffffffffffffff\n        /* \"#utility.yul\":5226:5232   */\n      dup3\n        /* \"#utility.yul\":5223:5253   */\n      gt\n        /* \"#utility.yul\":5220:5276   */\n      iszero\n      tag_362\n      jumpi\n        /* \"#utility.yul\":5256:5274   */\n      tag_363\n      tag_178\n      jump\t// in\n    tag_363:\n        /* \"#utility.yul\":5220:5276   */\n    tag_362:\n        /* \"#utility.yul\":5306:5310   */\n      0x20\n        /* \"#utility.yul\":5298:5304   */\n      dup3\n        /* \"#utility.yul\":5294:5311   */\n      mul\n        /* \"#utility.yul\":5286:5311   */\n      swap1\n      pop\n        /* \"#utility.yul\":5071:5318   */\n      swap2\n      swap1\n      pop\n      jump\t// out\n        /* \"#utility.yul\":5324:5441   */\n    tag_260:\n        /* \"#utility.yul\":5433:5434   */\n      0x00\n        /* \"#utility.yul\":5430:5431   */\n      dup1\n        /* \"#utility.yul\":5423:5435   */\n      revert\n        /* \"#utility.yul\":5447:5533   */\n    tag_261:\n        /* \"#utility.yul\":5482:5489   */\n      0x00\n        /* \"#utility.yul\":5522:5526   */\n      0xff\n        /* \"#utility.yul\":5515:5520   */\n      dup3\n        /* \"#utility.yul\":5511:5527   */\n      and\n        /* \"#utility.yul\":5500:5527   */\n      swap1\n      pop\n        /* \"#utility.yul\":5447:5533   */\n      swap2\n      swap1\n      pop\n      jump\t// out\n        /* \"#utility.yul\":5539:5657   */\n    tag_262:\n        /* \"#utility.yul\":5610:5632   */\n      tag_367\n        /* \"#utility.yul\":5626:5631   */\n      dup2\n        /* \"#utility.yul\":5610:5632   */\n      tag_261\n      jump\t// in\n    tag_367:\n        /* \"#utility.yul\":5603:5608   */\n      dup2\n        /* \"#utility.yul\":5600:5633   */\n      eq\n        /* \"#utility.yul\":5590:5651   */\n      tag_368\n      jumpi\n        /* \"#utility.yul\":5647:5648   */\n      0x00\n        /* \"#utility.yul\":5644:5645   */\n      dup1\n        /* \"#utility.yul\":5637:5649   */\n      revert\n        /* \"#utility.yul\":5590:5651   */\n    tag_368:\n        /* \"#utility.yul\":5539:5657   */\n      pop\n      jump\t// out\n        /* \"#utility.yul\":5663:5798   */\n    tag_263:\n        /* \"#utility.yul\":5707:5712   */\n      0x00\n        /* \"#utility.yul\":5745:5751   */\n      dup2\n        /* \"#utility.yul\":5732:5752   */\n      calldataload\n        /* \"#utility.yul\":5723:5752   */\n      swap1\n      pop\n        /* \"#utility.yul\":5761:5792   */\n      tag_370\n        /* \"#utility.yul\":5786:5791   */\n      dup2\n        /* \"#utility.yul\":5761:5792   */\n      tag_262\n      jump\t// in\n    tag_370:\n        /* \"#utility.yul\":5663:5798   */\n      swap3\n      swap2\n      pop\n      pop\n      jump\t// out\n        /* \"#utility.yul\":5820:6457   */\n    tag_264:\n        /* \"#utility.yul\":5912:5917   */\n      0x00\n        /* \"#utility.yul\":5937:6014   */\n      tag_372\n        /* \"#utility.yul\":5953:6013   */\n      tag_373\n        /* \"#utility.yul\":6006:6012   */\n      dup5\n        /* \"#utility.yul\":5953:6013   */\n      tag_259\n      jump\t// in\n    tag_373:\n        /* \"#utility.yul\":5937:6014   */\n      tag_258\n      jump\t// in\n    tag_372:\n        /* \"#utility.yul\":5928:6014   */\n      swap1\n      pop\n        /* \"#utility.yul\":6034:6039   */\n      dup1\n        /* \"#utility.yul\":6087:6091   */\n      0x20\n        /* \"#utility.yul\":6079:6085   */\n      dup5\n        /* \"#utility.yul\":6075:6092   */\n      mul\n        /* \"#utility.yul\":6067:6073   */\n      dup4\n        /* \"#utility.yul\":6063:6093   */\n      add\n        /* \"#utility.yul\":6116:6119   */\n      dup6\n        /* \"#utility.yul\":6108:6114   */\n      dup2\n        /* \"#utility.yul\":6105:6120   */\n      gt\n        /* \"#utility.yul\":6102:6224   */\n      iszero\n      tag_374\n      jumpi\n        /* \"#utility.yul\":6135:6214   */\n      tag_375\n      tag_260\n      jump\t// in\n    tag_375:\n        /* \"#utility.yul\":6102:6224   */\n    tag_374:\n        /* \"#utility.yul\":6250:6256   */\n      dup4\n        /* \"#utility.yul\":6233:6451   */\n    tag_376:\n        /* \"#utility.yul\":6267:6273   */\n      dup2\n        /* \"#utility.yul\":6262:6265   */\n      dup2\n        /* \"#utility.yul\":6259:6274   */\n      lt\n        /* \"#utility.yul\":6233:6451   */\n      iszero\n      tag_378\n      jumpi\n        /* \"#utility.yul\":6342:6345   */\n      dup1\n        /* \"#utility.yul\":6371:6406   */\n      tag_379\n        /* \"#utility.yul\":6402:6405   */\n      dup9\n        /* \"#utility.yul\":6390:6400   */\n      dup3\n        /* \"#utility.yul\":6371:6406   */\n      tag_263\n      jump\t// in\n    tag_379:\n        /* \"#utility.yul\":6366:6369   */\n      dup5\n        /* \"#utility.yul\":6359:6407   */\n      mstore\n        /* \"#utility.yul\":6436:6440   */\n      0x20\n        /* \"#utility.yul\":6431:6434   */\n      dup5\n        /* \"#utility.yul\":6427:6441   */\n      add\n        /* \"#utility.yul\":6420:6441   */\n      swap4\n      pop\n        /* \"#utility.yul\":6309:6451   */\n      pop\n        /* \"#utility.yul\":6293:6297   */\n      0x20\n        /* \"#utility.yul\":6288:6291   */\n      dup2\n        /* \"#utility.yul\":6284:6298   */\n      add\n        /* \"#utility.yul\":6277:6298   */\n      swap1\n      pop\n        /* \"#utility.yul\":6233:6451   */\n      jump(tag_376)\n    tag_378:\n        /* \"#utility.yul\":6237:6258   */\n      pop\n        /* \"#utility.yul\":5918:6457   */\n      pop\n      pop\n        /* \"#utility.yul\":5820:6457   */\n      swap4\n      swap3\n      pop\n      pop\n      pop\n      jump\t// out\n        /* \"#utility.yul\":6479:6814   */\n    tag_265:\n        /* \"#utility.yul\":6546:6551   */\n      0x00\n        /* \"#utility.yul\":6595:6598   */\n      dup3\n        /* \"#utility.yul\":6588:6592   */\n      0x1f\n        /* \"#utility.yul\":6580:6586   */\n      dup4\n        /* \"#utility.yul\":6576:6593   */\n      add\n        /* \"#utility.yul\":6572:6599   */\n      slt\n        /* \"#utility.yul\":6562:6684   */\n      tag_381\n      jumpi\n        /* \"#utility.yul\":6603:6682   */\n      tag_382\n      tag_256\n      jump\t// in\n    tag_382:\n        /* \"#utility.yul\":6562:6684   */\n    tag_381:\n        /* \"#utility.yul\":6707:6711   */\n      0x05\n        /* \"#utility.yul\":6729:6808   */\n      tag_383\n        /* \"#utility.yul\":6804:6807   */\n      dup5\n        /* \"#utility.yul\":6796:6802   */\n      dup3\n        /* \"#utility.yul\":6788:6794   */\n      dup6\n        /* \"#utility.yul\":6729:6808   */\n      tag_264\n      jump\t// in\n    tag_383:\n        /* \"#utility.yul\":6720:6808   */\n      swap2\n      pop\n        /* \"#utility.yul\":6552:6814   */\n      pop\n        /* \"#utility.yul\":6479:6814   */\n      swap3\n      swap2\n      pop\n      pop\n      jump\t// out\n        /* \"#utility.yul\":6820:7067   */\n    tag_266:\n        /* \"#utility.yul\":6893:6897   */\n      0x00\n        /* \"#utility.yul\":6983:7001   */\n      0xffffffffffffffff\n        /* \"#utility.yul\":6975:6981   */\n      dup3\n        /* \"#utility.yul\":6972:7002   */\n      gt\n        /* \"#utility.yul\":6969:7025   */\n      iszero\n      tag_385\n      jumpi\n        /* \"#utility.yul\":7005:7023   */\n      tag_386\n      tag_178\n      jump\t// in\n    tag_386:\n        /* \"#utility.yul\":6969:7025   */\n    tag_385:\n        /* \"#utility.yul\":7055:7059   */\n      0x20\n        /* \"#utility.yul\":7047:7053   */\n      dup3\n        /* \"#utility.yul\":7043:7060   */\n      mul\n        /* \"#utility.yul\":7035:7060   */\n      swap1\n      pop\n        /* \"#utility.yul\":6820:7067   */\n      swap2\n      swap1\n      pop\n      jump\t// out\n        /* \"#utility.yul\":7089:7726   */\n    tag_267:\n        /* \"#utility.yul\":7181:7186   */\n      0x00\n        /* \"#utility.yul\":7206:7283   */\n      tag_388\n        /* \"#utility.yul\":7222:7282   */\n      tag_389\n        /* \"#utility.yul\":7275:7281   */\n      dup5\n        /* \"#utility.yul\":7222:7282   */\n      tag_266\n      jump\t// in\n    tag_389:\n        /* \"#utility.yul\":7206:7283   */\n      tag_258\n      jump\t// in\n    tag_388:\n        /* \"#utility.yul\":7197:7283   */\n      swap1\n      pop\n        /* \"#utility.yul\":7303:7308   */\n      dup1\n        /* \"#utility.yul\":7356:7360   */\n      0x20\n        /* \"#utility.yul\":7348:7354   */\n      dup5\n        /* \"#utility.yul\":7344:7361   */\n      mul\n        /* \"#utility.yul\":7336:7342   */\n      dup4\n        /* \"#utility.yul\":7332:7362   */\n      add\n        /* \"#utility.yul\":7385:7388   */\n      dup6\n        /* \"#utility.yul\":7377:7383   */\n      dup2\n        /* \"#utility.yul\":7374:7389   */\n      gt\n        /* \"#utility.yul\":7371:7493   */\n      iszero\n      tag_390\n      jumpi\n        /* \"#utility.yul\":7404:7483   */\n      tag_391\n      tag_260\n      jump\t// in\n    tag_391:\n        /* \"#utility.yul\":7371:7493   */\n    tag_390:\n        /* \"#utility.yul\":7519:7525   */\n      dup4\n        /* \"#utility.yul\":7502:7720   */\n    tag_392:\n        /* \"#utility.yul\":7536:7542   */\n      dup2\n        /* \"#utility.yul\":7531:7534   */\n      dup2\n        /* \"#utility.yul\":7528:7543   */\n      lt\n        /* \"#utility.yul\":7502:7720   */\n      iszero\n      tag_394\n      jumpi\n        /* \"#utility.yul\":7611:7614   */\n      dup1\n        /* \"#utility.yul\":7640:7675   */\n      tag_395\n        /* \"#utility.yul\":7671:7674   */\n      dup9\n        /* \"#utility.yul\":7659:7669   */\n      dup3\n        /* \"#utility.yul\":7640:7675   */\n      tag_263\n      jump\t// in\n    tag_395:\n        /* \"#utility.yul\":7635:7638   */\n      dup5\n        /* \"#utility.yul\":7628:7676   */\n      mstore\n        /* \"#utility.yul\":7705:7709   */\n      0x20\n        /* \"#utility.yul\":7700:7703   */\n      dup5\n        /* \"#utility.yul\":7696:7710   */\n      add\n        /* \"#utility.yul\":7689:7710   */\n      swap4\n      pop\n        /* \"#utility.yul\":7578:7720   */\n      pop\n        /* \"#utility.yul\":7562:7566   */\n      0x20\n        /* \"#utility.yul\":7557:7560   */\n      dup2\n        /* \"#utility.yul\":7553:7567   */\n      add\n        /* \"#utility.yul\":7546:7567   */\n      swap1\n      pop\n        /* \"#utility.yul\":7502:7720   */\n      jump(tag_392)\n    tag_394:\n        /* \"#utility.yul\":7506:7527   */\n      pop\n        /* \"#utility.yul\":7187:7726   */\n      pop\n      pop\n        /* \"#utility.yul\":7089:7726   */\n      swap4\n      swap3\n      pop\n      pop\n      pop\n      jump\t// out\n        /* \"#utility.yul\":7748:8083   */\n    tag_268:\n        /* \"#utility.yul\":7815:7820   */\n      0x00\n        /* \"#utility.yul\":7864:7867   */\n      dup3\n        /* \"#utility.yul\":7857:7861   */\n      0x1f\n        /* \"#utility.yul\":7849:7855   */\n      dup4\n        /* \"#utility.yul\":7845:7862   */\n      add\n        /* \"#utility.yul\":7841:7868   */\n      slt\n        /* \"#utility.yul\":7831:7953   */\n      tag_397\n      jumpi\n        /* \"#utility.yul\":7872:7951   */\n      tag_398\n      tag_256\n      jump\t// in\n    tag_398:\n        /* \"#utility.yul\":7831:7953   */\n    tag_397:\n        /* \"#utility.yul\":7976:7980   */\n      0x02\n        /* \"#utility.yul\":7998:8077   */\n      tag_399\n        /* \"#utility.yul\":8073:8076   */\n      dup5\n        /* \"#utility.yul\":8065:8071   */\n      dup3\n        /* \"#utility.yul\":8057:8063   */\n      dup6\n        /* \"#utility.yul\":7998:8077   */\n      tag_267\n      jump\t// in\n    tag_399:\n        /* \"#utility.yul\":7989:8077   */\n      swap2\n      pop\n        /* \"#utility.yul\":7821:8083   */\n      pop\n        /* \"#utility.yul\":7748:8083   */\n      swap3\n      swap2\n      pop\n      pop\n      jump\t// out\n        /* \"#utility.yul\":8089:8649   */\n    tag_94:\n        /* \"#utility.yul\":8199:8205   */\n      0x00\n        /* \"#utility.yul\":8207:8213   */\n      dup1\n        /* \"#utility.yul\":8256:8259   */\n      0xe0\n        /* \"#utility.yul\":8244:8253   */\n      dup4\n        /* \"#utility.yul\":8235:8242   */\n      dup6\n        /* \"#utility.yul\":8231:8254   */\n      sub\n        /* \"#utility.yul\":8227:8260   */\n      slt\n        /* \"#utility.yul\":8224:8344   */\n      iszero\n      tag_401\n      jumpi\n        /* \"#utility.yul\":8263:8342   */\n      tag_402\n      tag_240\n      jump\t// in\n    tag_402:\n        /* \"#utility.yul\":8224:8344   */\n    tag_401:\n        /* \"#utility.yul\":8383:8384   */\n      0x00\n        /* \"#utility.yul\":8408:8482   */\n      tag_403\n        /* \"#utility.yul\":8474:8481   */\n      dup6\n        /* \"#utility.yul\":8465:8471   */\n      dup3\n        /* \"#utility.yul\":8454:8463   */\n      dup7\n        /* \"#utility.yul\":8450:8472   */\n      add\n        /* \"#utility.yul\":8408:8482   */\n      tag_265\n      jump\t// in\n    tag_403:\n        /* \"#utility.yul\":8398:8482   */\n      swap3\n      pop\n        /* \"#utility.yul\":8354:8492   */\n      pop\n        /* \"#utility.yul\":8531:8534   */\n      0xa0\n        /* \"#utility.yul\":8558:8632   */\n      tag_404\n        /* \"#utility.yul\":8624:8631   */\n      dup6\n        /* \"#utility.yul\":8615:8621   */\n      dup3\n        /* \"#utility.yul\":8604:8613   */\n      dup7\n        /* \"#utility.yul\":8600:8622   */\n      add\n        /* \"#utility.yul\":8558:8632   */\n      tag_268\n      jump\t// in\n    tag_404:\n        /* \"#utility.yul\":8548:8632   */\n      swap2\n      pop\n        /* \"#utility.yul\":8502:8642   */\n      pop\n        /* \"#utility.yul\":8089:8649   */\n      swap3\n      pop\n      swap3\n      swap1\n      pop\n      jump\t// out\n        /* \"#utility.yul\":8655:8884   */\n    tag_269:\n        /* \"#utility.yul\":8795:8829   */\n      0x45696e7a61686c756e6773626574726167206d7573732067726f657373657220\n        /* \"#utility.yul\":8791:8792   */\n      0x00\n        /* \"#utility.yul\":8783:8789   */\n      dup3\n        /* \"#utility.yul\":8779:8793   */\n      add\n        /* \"#utility.yul\":8772:8830   */\n      mstore\n        /* \"#utility.yul\":8864:8876   */\n      0x616c732030207365696e00000000000000000000000000000000000000000000\n        /* \"#utility.yul\":8859:8861   */\n      0x20\n        /* \"#utility.yul\":8851:8857   */\n      dup3\n        /* \"#utility.yul\":8847:8862   */\n      add\n        /* \"#utility.yul\":8840:8877   */\n      mstore\n        /* \"#utility.yul\":8655:8884   */\n      pop\n      jump\t// out\n        /* \"#utility.yul\":8890:9256   */\n    tag_270:\n        /* \"#utility.yul\":9032:9035   */\n      0x00\n        /* \"#utility.yul\":9053:9120   */\n      tag_407\n        /* \"#utility.yul\":9117:9119   */\n      0x2a\n        /* \"#utility.yul\":9112:9115   */\n      dup4\n        /* \"#utility.yul\":9053:9120   */\n      tag_252\n      jump\t// in\n    tag_407:\n        /* \"#utility.yul\":9046:9120   */\n      swap2\n      pop\n        /* \"#utility.yul\":9129:9222   */\n      tag_408\n        /* \"#utility.yul\":9218:9221   */\n      dup3\n        /* \"#utility.yul\":9129:9222   */\n      tag_269\n      jump\t// in\n    tag_408:\n        /* \"#utility.yul\":9247:9249   */\n      0x40\n        /* \"#utility.yul\":9242:9245   */\n      dup3\n        /* \"#utility.yul\":9238:9250   */\n      add\n        /* \"#utility.yul\":9231:9250   */\n      swap1\n      pop\n        /* \"#utility.yul\":8890:9256   */\n      swap2\n      swap1\n      pop\n      jump\t// out\n        /* \"#utility.yul\":9262:9681   */\n    tag_105:\n        /* \"#utility.yul\":9428:9432   */\n      0x00\n        /* \"#utility.yul\":9466:9468   */\n      0x20\n        /* \"#utility.yul\":9455:9464   */\n      dup3\n        /* \"#utility.yul\":9451:9469   */\n      add\n        /* \"#utility.yul\":9443:9469   */\n      swap1\n      pop\n        /* \"#utility.yul\":9515:9524   */\n      dup2\n        /* \"#utility.yul\":9509:9513   */\n      dup2\n        /* \"#utility.yul\":9505:9525   */\n      sub\n        /* \"#utility.yul\":9501:9502   */\n      0x00\n        /* \"#utility.yul\":9490:9499   */\n      dup4\n        /* \"#utility.yul\":9486:9503   */\n      add\n        /* \"#utility.yul\":9479:9526   */\n      mstore\n        /* \"#utility.yul\":9543:9674   */\n      tag_410\n        /* \"#utility.yul\":9669:9673   */\n      dup2\n        /* \"#utility.yul\":9543:9674   */\n      tag_270\n      jump\t// in\n    tag_410:\n        /* \"#utility.yul\":9535:9674   */\n      swap1\n      pop\n        /* \"#utility.yul\":9262:9681   */\n      swap2\n      swap1\n      pop\n      jump\t// out\n        /* \"#utility.yul\":9687:9867   */\n    tag_271:\n        /* \"#utility.yul\":9735:9812   */\n      0x4e487b7100000000000000000000000000000000000000000000000000000000\n        /* \"#utility.yul\":9732:9733   */\n      0x00\n        /* \"#utility.yul\":9725:9813   */\n      mstore\n        /* \"#utility.yul\":9832:9836   */\n      0x12\n        /* \"#utility.yul\":9829:9830   */\n      0x04\n        /* \"#utility.yul\":9822:9837   */\n      mstore\n        /* \"#utility.yul\":9856:9860   */\n      0x24\n        /* \"#utility.yul\":9853:9854   */\n      0x00\n        /* \"#utility.yul\":9846:9861   */\n      revert\n        /* \"#utility.yul\":9873:10053   */\n    tag_272:\n        /* \"#utility.yul\":9921:9998   */\n      0x4e487b7100000000000000000000000000000000000000000000000000000000\n        /* \"#utility.yul\":9918:9919   */\n      0x00\n        /* \"#utility.yul\":9911:9999   */\n      mstore\n        /* \"#utility.yul\":10018:10022   */\n      0x11\n        /* \"#utility.yul\":10015:10016   */\n      0x04\n        /* \"#utility.yul\":10008:10023   */\n      mstore\n        /* \"#utility.yul\":10042:10046   */\n      0x24\n        /* \"#utility.yul\":10039:10040   */\n      0x00\n        /* \"#utility.yul\":10032:10047   */\n      revert\n        /* \"#utility.yul\":10059:10244   */\n    tag_108:\n        /* \"#utility.yul\":10099:10100   */\n      0x00\n        /* \"#utility.yul\":10116:10136   */\n      tag_414\n        /* \"#utility.yul\":10134:10135   */\n      dup3\n        /* \"#utility.yul\":10116:10136   */\n      tag_237\n      jump\t// in\n    tag_414:\n        /* \"#utility.yul\":10111:10136   */\n      swap2\n      pop\n        /* \"#utility.yul\":10150:10170   */\n      tag_415\n        /* \"#utility.yul\":10168:10169   */\n      dup4\n        /* \"#utility.yul\":10150:10170   */\n      tag_237\n      jump\t// in\n    tag_415:\n        /* \"#utility.yul\":10145:10170   */\n      swap3\n      pop\n        /* \"#utility.yul\":10189:10190   */\n      dup3\n        /* \"#utility.yul\":10179:10214   */\n      tag_416\n      jumpi\n        /* \"#utility.yul\":10194:10212   */\n      tag_417\n      tag_271\n      jump\t// in\n    tag_417:\n        /* \"#utility.yul\":10179:10214   */\n    tag_416:\n        /* \"#utility.yul\":10236:10237   */\n      dup3\n        /* \"#utility.yul\":10233:10234   */\n      dup3\n        /* \"#utility.yul\":10229:10238   */\n      div\n        /* \"#utility.yul\":10224:10238   */\n      swap1\n      pop\n        /* \"#utility.yul\":10059:10244   */\n      swap3\n      swap2\n      pop\n      pop\n      jump\t// out\n        /* \"#utility.yul\":10250:10429   */\n    tag_273:\n        /* \"#utility.yul\":10390:10421   */\n      0x5a7520676572696e6765722045696e7a61686c756e6773626574726167000000\n        /* \"#utility.yul\":10386:10387   */\n      0x00\n        /* \"#utility.yul\":10378:10384   */\n      dup3\n        /* \"#utility.yul\":10374:10388   */\n      add\n        /* \"#utility.yul\":10367:10422   */\n      mstore\n        /* \"#utility.yul\":10250:10429   */\n      pop\n      jump\t// out\n        /* \"#utility.yul\":10435:10801   */\n    tag_274:\n        /* \"#utility.yul\":10577:10580   */\n      0x00\n        /* \"#utility.yul\":10598:10665   */\n      tag_420\n        /* \"#utility.yul\":10662:10664   */\n      0x1d\n        /* \"#utility.yul\":10657:10660   */\n      dup4\n        /* \"#utility.yul\":10598:10665   */\n      tag_252\n      jump\t// in\n    tag_420:\n        /* \"#utility.yul\":10591:10665   */\n      swap2\n      pop\n        /* \"#utility.yul\":10674:10767   */\n      tag_421\n        /* \"#utility.yul\":10763:10766   */\n      dup3\n        /* \"#utility.yul\":10674:10767   */\n      tag_273\n      jump\t// in\n    tag_421:\n        /* \"#utility.yul\":10792:10794   */\n      0x20\n        /* \"#utility.yul\":10787:10790   */\n      dup3\n        /* \"#utility.yul\":10783:10795   */\n      add\n        /* \"#utility.yul\":10776:10795   */\n      swap1\n      pop\n        /* \"#utility.yul\":10435:10801   */\n      swap2\n      swap1\n      pop\n      jump\t// out\n        /* \"#utility.yul\":10807:11226   */\n    tag_111:\n        /* \"#utility.yul\":10973:10977   */\n      0x00\n        /* \"#utility.yul\":11011:11013   */\n      0x20\n        /* \"#utility.yul\":11000:11009   */\n      dup3\n        /* \"#utility.yul\":10996:11014   */\n      add\n        /* \"#utility.yul\":10988:11014   */\n      swap1\n      pop\n        /* \"#utility.yul\":11060:11069   */\n      dup2\n        /* \"#utility.yul\":11054:11058   */\n      dup2\n        /* \"#utility.yul\":11050:11070   */\n      sub\n        /* \"#utility.yul\":11046:11047   */\n      0x00\n        /* \"#utility.yul\":11035:11044   */\n      dup4\n        /* \"#utility.yul\":11031:11048   */\n      add\n        /* \"#utility.yul\":11024:11071   */\n      mstore\n        /* \"#utility.yul\":11088:11219   */\n      tag_423\n        /* \"#utility.yul\":11214:11218   */\n      dup2\n        /* \"#utility.yul\":11088:11219   */\n      tag_274\n      jump\t// in\n    tag_423:\n        /* \"#utility.yul\":11080:11219   */\n      swap1\n      pop\n        /* \"#utility.yul\":10807:11226   */\n      swap2\n      swap1\n      pop\n      jump\t// out\n        /* \"#utility.yul\":11232:11453   */\n    tag_275:\n        /* \"#utility.yul\":11372:11406   */\n      0x4265726569747320616c73204d6974737069656c657220726567697374726965\n        /* \"#utility.yul\":11368:11369   */\n      0x00\n        /* \"#utility.yul\":11360:11366   */\n      dup3\n        /* \"#utility.yul\":11356:11370   */\n      add\n        /* \"#utility.yul\":11349:11407   */\n      mstore\n        /* \"#utility.yul\":11441:11445   */\n      0x7274000000000000000000000000000000000000000000000000000000000000\n        /* \"#utility.yul\":11436:11438   */\n      0x20\n        /* \"#utility.yul\":11428:11434   */\n      dup3\n        /* \"#utility.yul\":11424:11439   */\n      add\n        /* \"#utility.yul\":11417:11446   */\n      mstore\n        /* \"#utility.yul\":11232:11453   */\n      pop\n      jump\t// out\n        /* \"#utility.yul\":11459:11825   */\n    tag_276:\n        /* \"#utility.yul\":11601:11604   */\n      0x00\n        /* \"#utility.yul\":11622:11689   */\n      tag_426\n        /* \"#utility.yul\":11686:11688   */\n      0x22\n        /* \"#utility.yul\":11681:11684   */\n      dup4\n        /* \"#utility.yul\":11622:11689   */\n      tag_252\n      jump\t// in\n    tag_426:\n        /* \"#utility.yul\":11615:11689   */\n      swap2\n      pop\n        /* \"#utility.yul\":11698:11791   */\n      tag_427\n        /* \"#utility.yul\":11787:11790   */\n      dup3\n        /* \"#utility.yul\":11698:11791   */\n      tag_275\n      jump\t// in\n    tag_427:\n        /* \"#utility.yul\":11816:11818   */\n      0x40\n        /* \"#utility.yul\":11811:11814   */\n      dup3\n        /* \"#utility.yul\":11807:11819   */\n      add\n        /* \"#utility.yul\":11800:11819   */\n      swap1\n      pop\n        /* \"#utility.yul\":11459:11825   */\n      swap2\n      swap1\n      pop\n      jump\t// out\n        /* \"#utility.yul\":11831:12250   */\n    tag_114:\n        /* \"#utility.yul\":11997:12001   */\n      0x00\n        /* \"#utility.yul\":12035:12037   */\n      0x20\n        /* \"#utility.yul\":12024:12033   */\n      dup3\n        /* \"#utility.yul\":12020:12038   */\n      add\n        /* \"#utility.yul\":12012:12038   */\n      swap1\n      pop\n        /* \"#utility.yul\":12084:12093   */\n      dup2\n        /* \"#utility.yul\":12078:12082   */\n      dup2\n        /* \"#utility.yul\":12074:12094   */\n      sub\n        /* \"#utility.yul\":12070:12071   */\n      0x00\n        /* \"#utility.yul\":12059:12068   */\n      dup4\n        /* \"#utility.yul\":12055:12072   */\n      add\n        /* \"#utility.yul\":12048:12095   */\n      mstore\n        /* \"#utility.yul\":12112:12243   */\n      tag_429\n        /* \"#utility.yul\":12238:12242   */\n      dup2\n        /* \"#utility.yul\":12112:12243   */\n      tag_276\n      jump\t// in\n    tag_429:\n        /* \"#utility.yul\":12104:12243   */\n      swap1\n      pop\n        /* \"#utility.yul\":11831:12250   */\n      swap2\n      swap1\n      pop\n      jump\t// out\n        /* \"#utility.yul\":12256:12438   */\n    tag_277:\n        /* \"#utility.yul\":12396:12430   */\n      0x4d6178696d616c65205465696c6e65686d65727a61686c206572726569636874\n        /* \"#utility.yul\":12392:12393   */\n      0x00\n        /* \"#utility.yul\":12384:12390   */\n      dup3\n        /* \"#utility.yul\":12380:12394   */\n      add\n        /* \"#utility.yul\":12373:12431   */\n      mstore\n        /* \"#utility.yul\":12256:12438   */\n      pop\n      jump\t// out\n        /* \"#utility.yul\":12444:12810   */\n    tag_278:\n        /* \"#utility.yul\":12586:12589   */\n      0x00\n        /* \"#utility.yul\":12607:12674   */\n      tag_432\n        /* \"#utility.yul\":12671:12673   */\n      0x20\n        /* \"#utility.yul\":12666:12669   */\n      dup4\n        /* \"#utility.yul\":12607:12674   */\n      tag_252\n      jump\t// in\n    tag_432:\n        /* \"#utility.yul\":12600:12674   */\n      swap2\n      pop\n        /* \"#utility.yul\":12683:12776   */\n      tag_433\n        /* \"#utility.yul\":12772:12775   */\n      dup3\n        /* \"#utility.yul\":12683:12776   */\n      tag_277\n      jump\t// in\n    tag_433:\n        /* \"#utility.yul\":12801:12803   */\n      0x20\n        /* \"#utility.yul\":12796:12799   */\n      dup3\n        /* \"#utility.yul\":12792:12804   */\n      add\n        /* \"#utility.yul\":12785:12804   */\n      swap1\n      pop\n        /* \"#utility.yul\":12444:12810   */\n      swap2\n      swap1\n      pop\n      jump\t// out\n        /* \"#utility.yul\":12816:13235   */\n    tag_117:\n        /* \"#utility.yul\":12982:12986   */\n      0x00\n        /* \"#utility.yul\":13020:13022   */\n      0x20\n        /* \"#utility.yul\":13009:13018   */\n      dup3\n        /* \"#utility.yul\":13005:13023   */\n      add\n        /* \"#utility.yul\":12997:13023   */\n      swap1\n      pop\n        /* \"#utility.yul\":13069:13078   */\n      dup2\n        /* \"#utility.yul\":13063:13067   */\n      dup2\n        /* \"#utility.yul\":13059:13079   */\n      sub\n        /* \"#utility.yul\":13055:13056   */\n      0x00\n        /* \"#utility.yul\":13044:13053   */\n      dup4\n        /* \"#utility.yul\":13040:13057   */\n      add\n        /* \"#utility.yul\":13033:13080   */\n      mstore\n        /* \"#utility.yul\":13097:13228   */\n      tag_435\n        /* \"#utility.yul\":13223:13227   */\n      dup2\n        /* \"#utility.yul\":13097:13228   */\n      tag_278\n      jump\t// in\n    tag_435:\n        /* \"#utility.yul\":13089:13228   */\n      swap1\n      pop\n        /* \"#utility.yul\":12816:13235   */\n      swap2\n      swap1\n      pop\n      jump\t// out\n        /* \"#utility.yul\":13241:13435   */\n    tag_119:\n        /* \"#utility.yul\":13281:13285   */\n      0x00\n        /* \"#utility.yul\":13301:13321   */\n      tag_437\n        /* \"#utility.yul\":13319:13320   */\n      dup3\n        /* \"#utility.yul\":13301:13321   */\n      tag_237\n      jump\t// in\n    tag_437:\n        /* \"#utility.yul\":13296:13321   */\n      swap2\n      pop\n        /* \"#utility.yul\":13335:13355   */\n      tag_438\n        /* \"#utility.yul\":13353:13354   */\n      dup4\n        /* \"#utility.yul\":13335:13355   */\n      tag_237\n      jump\t// in\n    tag_438:\n        /* \"#utility.yul\":13330:13355   */\n      swap3\n      pop\n        /* \"#utility.yul\":13379:13380   */\n      dup3\n        /* \"#utility.yul\":13376:13377   */\n      dup3\n        /* \"#utility.yul\":13372:13381   */\n      sub\n        /* \"#utility.yul\":13364:13381   */\n      swap1\n      pop\n        /* \"#utility.yul\":13403:13404   */\n      dup2\n        /* \"#utility.yul\":13397:13401   */\n      dup2\n        /* \"#utility.yul\":13394:13405   */\n      gt\n        /* \"#utility.yul\":13391:13428   */\n      iszero\n      tag_439\n      jumpi\n        /* \"#utility.yul\":13408:13426   */\n      tag_440\n      tag_272\n      jump\t// in\n    tag_440:\n        /* \"#utility.yul\":13391:13428   */\n    tag_439:\n        /* \"#utility.yul\":13241:13435   */\n      swap3\n      swap2\n      pop\n      pop\n      jump\t// out\n        /* \"#utility.yul\":13441:13674   */\n    tag_123:\n        /* \"#utility.yul\":13480:13483   */\n      0x00\n        /* \"#utility.yul\":13503:13527   */\n      tag_442\n        /* \"#utility.yul\":13521:13526   */\n      dup3\n        /* \"#utility.yul\":13503:13527   */\n      tag_237\n      jump\t// in\n    tag_442:\n        /* \"#utility.yul\":13494:13527   */\n      swap2\n      pop\n        /* \"#utility.yul\":13549:13615   */\n      0xffffffffffffffffffffffffffffffffffffffffffffffffffffffffffffffff\n        /* \"#utility.yul\":13542:13547   */\n      dup3\n        /* \"#utility.yul\":13539:13616   */\n      sub\n        /* \"#utility.yul\":13536:13639   */\n      tag_443\n      jumpi\n        /* \"#utility.yul\":13619:13637   */\n      tag_444\n      tag_272\n      jump\t// in\n    tag_444:\n        /* \"#utility.yul\":13536:13639   */\n    tag_443:\n        /* \"#utility.yul\":13666:13667   */\n      0x01\n        /* \"#utility.yul\":13659:13664   */\n      dup3\n        /* \"#utility.yul\":13655:13668   */\n      add\n        /* \"#utility.yul\":13648:13668   */\n      swap1\n      pop\n        /* \"#utility.yul\":13441:13674   */\n      swap2\n      swap1\n      pop\n      jump\t// out\n        /* \"#utility.yul\":13680:13988   */\n    tag_279:\n        /* \"#utility.yul\":13820:13854   */\n      0x457320676962742062657265697473204d6974737069656c65722e2041656e64\n        /* \"#utility.yul\":13816:13817   */\n      0x00\n        /* \"#utility.yul\":13808:13814   */\n      dup3\n        /* \"#utility.yul\":13804:13818   */\n      add\n        /* \"#utility.yul\":13797:13855   */\n      mstore\n        /* \"#utility.yul\":13889:13923   */\n      0x6572756e672064657220416e7a61686c20616e204d6974737069656c65726e20\n        /* \"#utility.yul\":13884:13886   */\n      0x20\n        /* \"#utility.yul\":13876:13882   */\n      dup3\n        /* \"#utility.yul\":13872:13887   */\n      add\n        /* \"#utility.yul\":13865:13924   */\n      mstore\n        /* \"#utility.yul\":13958:13980   */\n      0x6e69636874206d656872206d6f65676c6963682e000000000000000000000000\n        /* \"#utility.yul\":13953:13955   */\n      0x40\n        /* \"#utility.yul\":13945:13951   */\n      dup3\n        /* \"#utility.yul\":13941:13956   */\n      add\n        /* \"#utility.yul\":13934:13981   */\n      mstore\n        /* \"#utility.yul\":13680:13988   */\n      pop\n      jump\t// out\n        /* \"#utility.yul\":13994:14360   */\n    tag_280:\n        /* \"#utility.yul\":14136:14139   */\n      0x00\n        /* \"#utility.yul\":14157:14224   */\n      tag_447\n        /* \"#utility.yul\":14221:14223   */\n      0x54\n        /* \"#utility.yul\":14216:14219   */\n      dup4\n        /* \"#utility.yul\":14157:14224   */\n      tag_252\n      jump\t// in\n    tag_447:\n        /* \"#utility.yul\":14150:14224   */\n      swap2\n      pop\n        /* \"#utility.yul\":14233:14326   */\n      tag_448\n        /* \"#utility.yul\":14322:14325   */\n      dup3\n        /* \"#utility.yul\":14233:14326   */\n      tag_279\n      jump\t// in\n    tag_448:\n        /* \"#utility.yul\":14351:14353   */\n      0x60\n        /* \"#utility.yul\":14346:14349   */\n      dup3\n        /* \"#utility.yul\":14342:14354   */\n      add\n        /* \"#utility.yul\":14335:14354   */\n      swap1\n      pop\n        /* \"#utility.yul\":13994:14360   */\n      swap2\n      swap1\n      pop\n      jump\t// out\n        /* \"#utility.yul\":14366:14785   */\n    tag_135:\n        /* \"#utility.yul\":14532:14536   */\n      0x00\n        /* \"#utility.yul\":14570:14572   */\n      0x20\n        /* \"#utility.yul\":14559:14568   */\n      dup3\n        /* \"#utility.yul\":14555:14573   */\n      add\n        /* \"#utility.yul\":14547:14573   */\n      swap1\n      pop\n        /* \"#utility.yul\":14619:14628   */\n      dup2\n        /* \"#utility.yul\":14613:14617   */\n      dup2\n        /* \"#utility.yul\":14609:14629   */\n      sub\n        /* \"#utility.yul\":14605:14606   */\n      0x00\n        /* \"#utility.yul\":14594:14603   */\n      dup4\n        /* \"#utility.yul\":14590:14607   */\n      add\n        /* \"#utility.yul\":14583:14630   */\n      mstore\n        /* \"#utility.yul\":14647:14778   */\n      tag_450\n        /* \"#utility.yul\":14773:14777   */\n      dup2\n        /* \"#utility.yul\":14647:14778   */\n      tag_280\n      jump\t// in\n    tag_450:\n        /* \"#utility.yul\":14639:14778   */\n      swap1\n      pop\n        /* \"#utility.yul\":14366:14785   */\n      swap2\n      swap1\n      pop\n      jump\t// out\n        /* \"#utility.yul\":14791:15041   */\n    tag_281:\n        /* \"#utility.yul\":14931:14965   */\n      0x457320676962742062657265697473204d6974737069656c65722e2050726569\n        /* \"#utility.yul\":14927:14928   */\n      0x00\n        /* \"#utility.yul\":14919:14925   */\n      dup3\n        /* \"#utility.yul\":14915:14929   */\n      add\n        /* \"#utility.yul\":14908:14966   */\n      mstore\n        /* \"#utility.yul\":15000:15033   */\n      0x7361656e646572756e67206e69636874206d656872206d6f65676c6963682e00\n        /* \"#utility.yul\":14995:14997   */\n      0x20\n        /* \"#utility.yul\":14987:14993   */\n      dup3\n        /* \"#utility.yul\":14983:14998   */\n      add\n        /* \"#utility.yul\":14976:15034   */\n      mstore\n        /* \"#utility.yul\":14791:15041   */\n      pop\n      jump\t// out\n        /* \"#utility.yul\":15047:15413   */\n    tag_282:\n        /* \"#utility.yul\":15189:15192   */\n      0x00\n        /* \"#utility.yul\":15210:15277   */\n      tag_453\n        /* \"#utility.yul\":15274:15276   */\n      0x3f\n        /* \"#utility.yul\":15269:15272   */\n      dup4\n        /* \"#utility.yul\":15210:15277   */\n      tag_252\n      jump\t// in\n    tag_453:\n        /* \"#utility.yul\":15203:15277   */\n      swap2\n      pop\n        /* \"#utility.yul\":15286:15379   */\n      tag_454\n        /* \"#utility.yul\":15375:15378   */\n      dup3\n        /* \"#utility.yul\":15286:15379   */\n      tag_281\n      jump\t// in\n    tag_454:\n        /* \"#utility.yul\":15404:15406   */\n      0x40\n        /* \"#utility.yul\":15399:15402   */\n      dup3\n        /* \"#utility.yul\":15395:15407   */\n      add\n        /* \"#utility.yul\":15388:15407   */\n      swap1\n      pop\n        /* \"#utility.yul\":15047:15413   */\n      swap2\n      swap1\n      pop\n      jump\t// out\n        /* \"#utility.yul\":15419:15838   */\n    tag_141:\n        /* \"#utility.yul\":15585:15589   */\n      0x00\n        /* \"#utility.yul\":15623:15625   */\n      0x20\n        /* \"#utility.yul\":15612:15621   */\n      dup3\n        /* \"#utility.yul\":15608:15626   */\n      add\n        /* \"#utility.yul\":15600:15626   */\n      swap1\n      pop\n        /* \"#utility.yul\":15672:15681   */\n      dup2\n        /* \"#utility.yul\":15666:15670   */\n      dup2\n        /* \"#utility.yul\":15662:15682   */\n      sub\n        /* \"#utility.yul\":15658:15659   */\n      0x00\n        /* \"#utility.yul\":15647:15656   */\n      dup4\n        /* \"#utility.yul\":15643:15660   */\n      add\n        /* \"#utility.yul\":15636:15683   */\n      mstore\n        /* \"#utility.yul\":15700:15831   */\n      tag_456\n        /* \"#utility.yul\":15826:15830   */\n      dup2\n        /* \"#utility.yul\":15700:15831   */\n      tag_282\n      jump\t// in\n    tag_456:\n        /* \"#utility.yul\":15692:15831   */\n      swap1\n      pop\n        /* \"#utility.yul\":15419:15838   */\n      swap2\n      swap1\n      pop\n      jump\t// out\n        /* \"#utility.yul\":15844:16020   */\n    tag_283:\n        /* \"#utility.yul\":15984:16012   */\n      0x4b65696e65204d6974737069656c657220766f7268616e64656e000000000000\n        /* \"#utility.yul\":15980:15981   */\n      0x00\n        /* \"#utility.yul\":15972:15978   */\n      dup3\n        /* \"#utility.yul\":15968:15982   */\n      add\n        /* \"#utility.yul\":15961:16013   */\n      mstore\n        /* \"#utility.yul\":15844:16020   */\n      pop\n      jump\t// out\n        /* \"#utility.yul\":16026:16392   */\n    tag_284:\n        /* \"#utility.yul\":16168:16171   */\n      0x00\n        /* \"#utility.yul\":16189:16256   */\n      tag_459\n        /* \"#utility.yul\":16253:16255   */\n      0x1a\n        /* \"#utility.yul\":16248:16251   */\n      dup4\n        /* \"#utility.yul\":16189:16256   */\n      tag_252\n      jump\t// in\n    tag_459:\n        /* \"#utility.yul\":16182:16256   */\n      swap2\n      pop\n        /* \"#utility.yul\":16265:16358   */\n      tag_460\n        /* \"#utility.yul\":16354:16357   */\n      dup3\n        /* \"#utility.yul\":16265:16358   */\n      tag_283\n      jump\t// in\n    tag_460:\n        /* \"#utility.yul\":16383:16385   */\n      0x20\n        /* \"#utility.yul\":16378:16381   */\n      dup3\n        /* \"#utility.yul\":16374:16386   */\n      add\n        /* \"#utility.yul\":16367:16386   */\n      swap1\n      pop\n        /* \"#utility.yul\":16026:16392   */\n      swap2\n      swap1\n      pop\n      jump\t// out\n        /* \"#utility.yul\":16398:16817   */\n    tag_148:\n        /* \"#utility.yul\":16564:16568   */\n      0x00\n        /* \"#utility.yul\":16602:16604   */\n      0x20\n        /* \"#utility.yul\":16591:16600   */\n      dup3\n        /* \"#utility.yul\":16587:16605   */\n      add\n        /* \"#utility.yul\":16579:16605   */\n      swap1\n      pop\n        /* \"#utility.yul\":16651:16660   */\n      dup2\n        /* \"#utility.yul\":16645:16649   */\n      dup2\n        /* \"#utility.yul\":16641:16661   */\n      sub\n        /* \"#utility.yul\":16637:16638   */\n      0x00\n        /* \"#utility.yul\":16626:16635   */\n      dup4\n        /* \"#utility.yul\":16622:16639   */\n      add\n        /* \"#utility.yul\":16615:16662   */\n      mstore\n        /* \"#utility.yul\":16679:16810   */\n      tag_462\n        /* \"#utility.yul\":16805:16809   */\n      dup2\n        /* \"#utility.yul\":16679:16810   */\n      tag_284\n      jump\t// in\n    tag_462:\n        /* \"#utility.yul\":16671:16810   */\n      swap1\n      pop\n        /* \"#utility.yul\":16398:16817   */\n      swap2\n      swap1\n      pop\n      jump\t// out\n        /* \"#utility.yul\":16823:17050   */\n    tag_285:\n        /* \"#utility.yul\":16963:16997   */\n      0x4e6963687420616c6c65204d6974737069656c657220686162656e207465696c\n        /* \"#utility.yul\":16959:16960   */\n      0x00\n        /* \"#utility.yul\":16951:16957   */\n      dup3\n        /* \"#utility.yul\":16947:16961   */\n      add\n        /* \"#utility.yul\":16940:16998   */\n      mstore\n        /* \"#utility.yul\":17032:17042   */\n      0x67656e6f6d6d656e000000000000000000000000000000000000000000000000\n        /* \"#utility.yul\":17027:17029   */\n      0x20\n        /* \"#utility.yul\":17019:17025   */\n      dup3\n        /* \"#utility.yul\":17015:17030   */\n      add\n        /* \"#utility.yul\":17008:17043   */\n      mstore\n        /* \"#utility.yul\":16823:17050   */\n      pop\n      jump\t// out\n        /* \"#utility.yul\":17056:17422   */\n    tag_286:\n        /* \"#utility.yul\":17198:17201   */\n      0x00\n        /* \"#utility.yul\":17219:17286   */\n      tag_465\n        /* \"#utility.yul\":17283:17285   */\n      0x28\n        /* \"#utility.yul\":17278:17281   */\n      dup4\n        /* \"#utility.yul\":17219:17286   */\n      tag_252\n      jump\t// in\n    tag_465:\n        /* \"#utility.yul\":17212:17286   */\n      swap2\n      pop\n        /* \"#utility.yul\":17295:17388   */\n      tag_466\n        /* \"#utility.yul\":17384:17387   */\n      dup3\n        /* \"#utility.yul\":17295:17388   */\n      tag_285\n      jump\t// in\n    tag_466:\n        /* \"#utility.yul\":17413:17415   */\n      0x40\n        /* \"#utility.yul\":17408:17411   */\n      dup3\n        /* \"#utility.yul\":17404:17416   */\n      add\n        /* \"#utility.yul\":17397:17416   */\n      swap1\n      pop\n        /* \"#utility.yul\":17056:17422   */\n      swap2\n      swap1\n      pop\n      jump\t// out\n        /* \"#utility.yul\":17428:17847   */\n    tag_151:\n        /* \"#utility.yul\":17594:17598   */\n      0x00\n        /* \"#utility.yul\":17632:17634   */\n      0x20\n        /* \"#utility.yul\":17621:17630   */\n      dup3\n        /* \"#utility.yul\":17617:17635   */\n      add\n        /* \"#utility.yul\":17609:17635   */\n      swap1\n      pop\n        /* \"#utility.yul\":17681:17690   */\n      dup2\n        /* \"#utility.yul\":17675:17679   */\n      dup2\n        /* \"#utility.yul\":17671:17691   */\n      sub\n        /* \"#utility.yul\":17667:17668   */\n      0x00\n        /* \"#utility.yul\":17656:17665   */\n      dup4\n        /* \"#utility.yul\":17652:17669   */\n      add\n        /* \"#utility.yul\":17645:17692   */\n      mstore\n        /* \"#utility.yul\":17709:17840   */\n      tag_468\n        /* \"#utility.yul\":17835:17839   */\n      dup2\n        /* \"#utility.yul\":17709:17840   */\n      tag_286\n      jump\t// in\n    tag_468:\n        /* \"#utility.yul\":17701:17840   */\n      swap1\n      pop\n        /* \"#utility.yul\":17428:17847   */\n      swap2\n      swap1\n      pop\n      jump\t// out\n        /* \"#utility.yul\":17853:18080   */\n    tag_287:\n        /* \"#utility.yul\":17993:18027   */\n      0x4e696368742067656e756567656e6420477574686162656e2066756572204175\n        /* \"#utility.yul\":17989:17990   */\n      0x00\n        /* \"#utility.yul\":17981:17987   */\n      dup3\n        /* \"#utility.yul\":17977:17991   */\n      add\n        /* \"#utility.yul\":17970:18028   */\n      mstore\n        /* \"#utility.yul\":18062:18072   */\n      0x737a61686c756e67000000000000000000000000000000000000000000000000\n        /* \"#utility.yul\":18057:18059   */\n      0x20\n        /* \"#utility.yul\":18049:18055   */\n      dup3\n        /* \"#utility.yul\":18045:18060   */\n      add\n        /* \"#utility.yul\":18038:18073   */\n      mstore\n        /* \"#utility.yul\":17853:18080   */\n      pop\n      jump\t// out\n        /* \"#utility.yul\":18086:18452   */\n    tag_288:\n        /* \"#utility.yul\":18228:18231   */\n      0x00\n        /* \"#utility.yul\":18249:18316   */\n      tag_471\n        /* \"#utility.yul\":18313:18315   */\n      0x28\n        /* \"#utility.yul\":18308:18311   */\n      dup4\n        /* \"#utility.yul\":18249:18316   */\n      tag_252\n      jump\t// in\n    tag_471:\n        /* \"#utility.yul\":18242:18316   */\n      swap2\n      pop\n        /* \"#utility.yul\":18325:18418   */\n      tag_472\n        /* \"#utility.yul\":18414:18417   */\n      dup3\n        /* \"#utility.yul\":18325:18418   */\n      tag_287\n      jump\t// in\n    tag_472:\n        /* \"#utility.yul\":18443:18445   */\n      0x40\n        /* \"#utility.yul\":18438:18441   */\n      dup3\n        /* \"#utility.yul\":18434:18446   */\n      add\n        /* \"#utility.yul\":18427:18446   */\n      swap1\n      pop\n        /* \"#utility.yul\":18086:18452   */\n      swap2\n      swap1\n      pop\n      jump\t// out\n        /* \"#utility.yul\":18458:18877   */\n    tag_154:\n        /* \"#utility.yul\":18624:18628   */\n      0x00\n        /* \"#utility.yul\":18662:18664   */\n      0x20\n        /* \"#utility.yul\":18651:18660   */\n      dup3\n        /* \"#utility.yul\":18647:18665   */\n      add\n        /* \"#utility.yul\":18639:18665   */\n      swap1\n      pop\n        /* \"#utility.yul\":18711:18720   */\n      dup2\n        /* \"#utility.yul\":18705:18709   */\n      dup2\n        /* \"#utility.yul\":18701:18721   */\n      sub\n        /* \"#utility.yul\":18697:18698   */\n      0x00\n        /* \"#utility.yul\":18686:18695   */\n      dup4\n        /* \"#utility.yul\":18682:18699   */\n      add\n        /* \"#utility.yul\":18675:18722   */\n      mstore\n        /* \"#utility.yul\":18739:18870   */\n      tag_474\n        /* \"#utility.yul\":18865:18869   */\n      dup2\n        /* \"#utility.yul\":18739:18870   */\n      tag_288\n      jump\t// in\n    tag_474:\n        /* \"#utility.yul\":18731:18870   */\n      swap1\n      pop\n        /* \"#utility.yul\":18458:18877   */\n      swap2\n      swap1\n      pop\n      jump\t// out\n        /* \"#utility.yul\":18883:19074   */\n    tag_156:\n        /* \"#utility.yul\":18923:18926   */\n      0x00\n        /* \"#utility.yul\":18942:18962   */\n      tag_476\n        /* \"#utility.yul\":18960:18961   */\n      dup3\n        /* \"#utility.yul\":18942:18962   */\n      tag_237\n      jump\t// in\n    tag_476:\n        /* \"#utility.yul\":18937:18962   */\n      swap2\n      pop\n        /* \"#utility.yul\":18976:18996   */\n      tag_477\n        /* \"#utility.yul\":18994:18995   */\n      dup4\n        /* \"#utility.yul\":18976:18996   */\n      tag_237\n      jump\t// in\n    tag_477:\n        /* \"#utility.yul\":18971:18996   */\n      swap3\n      pop\n        /* \"#utility.yul\":19019:19020   */\n      dup3\n        /* \"#utility.yul\":19016:19017   */\n      dup3\n        /* \"#utility.yul\":19012:19021   */\n      add\n        /* \"#utility.yul\":19005:19021   */\n      swap1\n      pop\n        /* \"#utility.yul\":19040:19043   */\n      dup1\n        /* \"#utility.yul\":19037:19038   */\n      dup3\n        /* \"#utility.yul\":19034:19044   */\n      gt\n        /* \"#utility.yul\":19031:19067   */\n      iszero\n      tag_478\n      jumpi\n        /* \"#utility.yul\":19047:19065   */\n      tag_479\n      tag_272\n      jump\t// in\n    tag_479:\n        /* \"#utility.yul\":19031:19067   */\n    tag_478:\n        /* \"#utility.yul\":18883:19074   */\n      swap3\n      swap2\n      pop\n      pop\n      jump\t// out\n        /* \"#utility.yul\":19080:19227   */\n    tag_289:\n        /* \"#utility.yul\":19181:19192   */\n      0x00\n        /* \"#utility.yul\":19218:19221   */\n      dup2\n        /* \"#utility.yul\":19203:19221   */\n      swap1\n      pop\n        /* \"#utility.yul\":19080:19227   */\n      swap3\n      swap2\n      pop\n      pop\n      jump\t// out\n        /* \"#utility.yul\":19233:19347   */\n    tag_290:\n      pop\n      jump\t// out\n        /* \"#utility.yul\":19353:19751   */\n    tag_291:\n        /* \"#utility.yul\":19512:19515   */\n      0x00\n        /* \"#utility.yul\":19533:19616   */\n      tag_483\n        /* \"#utility.yul\":19614:19615   */\n      0x00\n        /* \"#utility.yul\":19609:19612   */\n      dup4\n        /* \"#utility.yul\":19533:19616   */\n      tag_289\n      jump\t// in\n    tag_483:\n        /* \"#utility.yul\":19526:19616   */\n      swap2\n      pop\n        /* \"#utility.yul\":19625:19718   */\n      tag_484\n        /* \"#utility.yul\":19714:19717   */\n      dup3\n        /* \"#utility.yul\":19625:19718   */\n      tag_290\n      jump\t// in\n    tag_484:\n        /* \"#utility.yul\":19743:19744   */\n      0x00\n        /* \"#utility.yul\":19738:19741   */\n      dup3\n        /* \"#utility.yul\":19734:19745   */\n      add\n        /* \"#utility.yul\":19727:19745   */\n      swap1\n      pop\n        /* \"#utility.yul\":19353:19751   */\n      swap2\n      swap1\n      pop\n      jump\t// out\n        /* \"#utility.yul\":19757:20136   */\n    tag_162:\n        /* \"#utility.yul\":19941:19944   */\n      0x00\n        /* \"#utility.yul\":19963:20110   */\n      tag_486\n        /* \"#utility.yul\":20106:20109   */\n      dup3\n        /* \"#utility.yul\":19963:20110   */\n      tag_291\n      jump\t// in\n    tag_486:\n        /* \"#utility.yul\":19956:20110   */\n      swap2\n      pop\n        /* \"#utility.yul\":20127:20130   */\n      dup2\n        /* \"#utility.yul\":20120:20130   */\n      swap1\n      pop\n        /* \"#utility.yul\":19757:20136   */\n      swap2\n      swap1\n      pop\n      jump\t// out\n        /* \"#utility.yul\":20142:20317   */\n    tag_292:\n        /* \"#utility.yul\":20282:20309   */\n      0x4175737a61686c756e67206665686c67657363686c6167656e00000000000000\n        /* \"#utility.yul\":20278:20279   */\n      0x00\n        /* \"#utility.yul\":20270:20276   */\n      dup3\n        /* \"#utility.yul\":20266:20280   */\n      add\n        /* \"#utility.yul\":20259:20310   */\n      mstore\n        /* \"#utility.yul\":20142:20317   */\n      pop\n      jump\t// out\n        /* \"#utility.yul\":20323:20689   */\n    tag_293:\n        /* \"#utility.yul\":20465:20468   */\n      0x00\n        /* \"#utility.yul\":20486:20553   */\n      tag_489\n        /* \"#utility.yul\":20550:20552   */\n      0x19\n        /* \"#utility.yul\":20545:20548   */\n      dup4\n        /* \"#utility.yul\":20486:20553   */\n      tag_252\n      jump\t// in\n    tag_489:\n        /* \"#utility.yul\":20479:20553   */\n      swap2\n      pop\n        /* \"#utility.yul\":20562:20655   */\n      tag_490\n        /* \"#utility.yul\":20651:20654   */\n      dup3\n        /* \"#utility.yul\":20562:20655   */\n      tag_292\n      jump\t// in\n    tag_490:\n        /* \"#utility.yul\":20680:20682   */\n      0x20\n        /* \"#utility.yul\":20675:20678   */\n      dup3\n        /* \"#utility.yul\":20671:20683   */\n      add\n        /* \"#utility.yul\":20664:20683   */\n      swap1\n      pop\n        /* \"#utility.yul\":20323:20689   */\n      swap2\n      swap1\n      pop\n      jump\t// out\n        /* \"#utility.yul\":20695:21114   */\n    tag_168:\n        /* \"#utility.yul\":20861:20865   */\n      0x00\n        /* \"#utility.yul\":20899:20901   */\n      0x20\n        /* \"#utility.yul\":20888:20897   */\n      dup3\n        /* \"#utility.yul\":20884:20902   */\n      add\n        /* \"#utility.yul\":20876:20902   */\n      swap1\n      pop\n        /* \"#utility.yul\":20948:20957   */\n      dup2\n        /* \"#utility.yul\":20942:20946   */\n      dup2\n        /* \"#utility.yul\":20938:20958   */\n      sub\n        /* \"#utility.yul\":20934:20935   */\n      0x00\n        /* \"#utility.yul\":20923:20932   */\n      dup4\n        /* \"#utility.yul\":20919:20936   */\n      add\n        /* \"#utility.yul\":20912:20959   */\n      mstore\n        /* \"#utility.yul\":20976:21107   */\n      tag_492\n        /* \"#utility.yul\":21102:21106   */\n      dup2\n        /* \"#utility.yul\":20976:21107   */\n      tag_293\n      jump\t// in\n    tag_492:\n        /* \"#utility.yul\":20968:21107   */\n      swap1\n      pop\n        /* \"#utility.yul\":20695:21114   */\n      swap2\n      swap1\n      pop\n      jump\t// out\n        /* \"#utility.yul\":21120:21300   */\n    tag_294:\n        /* \"#utility.yul\":21168:21245   */\n      0x4e487b7100000000000000000000000000000000000000000000000000000000\n        /* \"#utility.yul\":21165:21166   */\n      0x00\n        /* \"#utility.yul\":21158:21246   */\n      mstore\n        /* \"#utility.yul\":21265:21269   */\n      0x22\n        /* \"#utility.yul\":21262:21263   */\n      0x04\n        /* \"#utility.yul\":21255:21270   */\n      mstore\n        /* \"#utility.yul\":21289:21293   */\n      0x24\n        /* \"#utility.yul\":21286:21287   */\n      0x00\n        /* \"#utility.yul\":21279:21294   */\n      revert\n        /* \"#utility.yul\":21306:21626   */\n    tag_183:\n        /* \"#utility.yul\":21350:21356   */\n      0x00\n        /* \"#utility.yul\":21387:21388   */\n      0x02\n        /* \"#utility.yul\":21381:21385   */\n      dup3\n        /* \"#utility.yul\":21377:21389   */\n      div\n        /* \"#utility.yul\":21367:21389   */\n      swap1\n      pop\n        /* \"#utility.yul\":21434:21435   */\n      0x01\n        /* \"#utility.yul\":21428:21432   */\n      dup3\n        /* \"#utility.yul\":21424:21436   */\n      and\n        /* \"#utility.yul\":21455:21473   */\n      dup1\n        /* \"#utility.yul\":21445:21526   */\n      tag_495\n      jumpi\n        /* \"#utility.yul\":21511:21515   */\n      0x7f\n        /* \"#utility.yul\":21503:21509   */\n      dup3\n        /* \"#utility.yul\":21499:21516   */\n      and\n        /* \"#utility.yul\":21489:21516   */\n      swap2\n      pop\n        /* \"#utility.yul\":21445:21526   */\n    tag_495:\n        /* \"#utility.yul\":21573:21575   */\n      0x20\n        /* \"#utility.yul\":21565:21571   */\n      dup3\n        /* \"#utility.yul\":21562:21576   */\n      lt\n        /* \"#utility.yul\":21542:21560   */\n      dup2\n        /* \"#utility.yul\":21539:21577   */\n      sub\n        /* \"#utility.yul\":21536:21620   */\n      tag_496\n      jumpi\n        /* \"#utility.yul\":21592:21610   */\n      tag_497\n      tag_294\n      jump\t// in\n    tag_497:\n        /* \"#utility.yul\":21536:21620   */\n    tag_496:\n        /* \"#utility.yul\":21357:21626   */\n      pop\n        /* \"#utility.yul\":21306:21626   */\n      swap2\n      swap1\n      pop\n      jump\t// out\n        /* \"#utility.yul\":21632:21812   */\n    tag_197:\n        /* \"#utility.yul\":21680:21757   */\n      0x4e487b7100000000000000000000000000000000000000000000000000000000\n        /* \"#utility.yul\":21677:21678   */\n      0x00\n        /* \"#utility.yul\":21670:21758   */\n      mstore\n        /* \"#utility.yul\":21777:21781   */\n      0x32\n        /* \"#utility.yul\":21774:21775   */\n      0x04\n        /* \"#utility.yul\":21767:21782   */\n      mstore\n        /* \"#utility.yul\":21801:21805   */\n      0x24\n        /* \"#utility.yul\":21798:21799   */\n      0x00\n        /* \"#utility.yul\":21791:21806   */\n      revert\n        /* \"#utility.yul\":21818:22038   */\n    tag_295:\n        /* \"#utility.yul\":21958:21992   */\n      0x48617570747a61686c2061757373657268616c62206465732042657265696368\n        /* \"#utility.yul\":21954:21955   */\n      0x00\n        /* \"#utility.yul\":21946:21952   */\n      dup3\n        /* \"#utility.yul\":21942:21956   */\n      add\n        /* \"#utility.yul\":21935:21993   */\n      mstore\n        /* \"#utility.yul\":22027:22030   */\n      0x7300000000000000000000000000000000000000000000000000000000000000\n        /* \"#utility.yul\":22022:22024   */\n      0x20\n        /* \"#utility.yul\":22014:22020   */\n      dup3\n        /* \"#utility.yul\":22010:22025   */\n      add\n        /* \"#utility.yul\":22003:22031   */\n      mstore\n        /* \"#utility.yul\":21818:22038   */\n      pop\n      jump\t// out\n        /* \"#utility.yul\":22044:22410   */\n    tag_296:\n        /* \"#utility.yul\":22186:22189   */\n      0x00\n        /* \"#utility.yul\":22207:22274   */\n      tag_501\n        /* \"#utility.yul\":22271:22273   */\n      0x21\n        /* \"#utility.yul\":22266:22269   */\n      dup4\n        /* \"#utility.yul\":22207:22274   */\n      tag_252\n      jump\t// in\n    tag_501:\n        /* \"#utility.yul\":22200:22274   */\n      swap2\n      pop\n        /* \"#utility.yul\":22283:22376   */\n      tag_502\n        /* \"#utility.yul\":22372:22375   */\n      dup3\n        /* \"#utility.yul\":22283:22376   */\n      tag_295\n      jump\t// in\n    tag_502:\n        /* \"#utility.yul\":22401:22403   */\n      0x40\n        /* \"#utility.yul\":22396:22399   */\n      dup3\n        /* \"#utility.yul\":22392:22404   */\n      add\n        /* \"#utility.yul\":22385:22404   */\n      swap1\n      pop\n        /* \"#utility.yul\":22044:22410   */\n      swap2\n      swap1\n      pop\n      jump\t// out\n        /* \"#utility.yul\":22416:22835   */\n    tag_203:\n        /* \"#utility.yul\":22582:22586   */\n      0x00\n        /* \"#utility.yul\":22620:22622   */\n      0x20\n        /* \"#utility.yul\":22609:22618   */\n      dup3\n        /* \"#utility.yul\":22605:22623   */\n      add\n        /* \"#utility.yul\":22597:22623   */\n      swap1\n      pop\n        /* \"#utility.yul\":22669:22678   */\n      dup2\n        /* \"#utility.yul\":22663:22667   */\n      dup2\n        /* \"#utility.yul\":22659:22679   */\n      sub\n        /* \"#utility.yul\":22655:22656   */\n      0x00\n        /* \"#utility.yul\":22644:22653   */\n      dup4\n        /* \"#utility.yul\":22640:22657   */\n      add\n        /* \"#utility.yul\":22633:22680   */\n      mstore\n        /* \"#utility.yul\":22697:22828   */\n      tag_504\n        /* \"#utility.yul\":22823:22827   */\n      dup2\n        /* \"#utility.yul\":22697:22828   */\n      tag_296\n      jump\t// in\n    tag_504:\n        /* \"#utility.yul\":22689:22828   */\n      swap1\n      pop\n        /* \"#utility.yul\":22416:22835   */\n      swap2\n      swap1\n      pop\n      jump\t// out\n        /* \"#utility.yul\":22841:23062   */\n    tag_297:\n        /* \"#utility.yul\":22981:23015   */\n      0x5a757361747a7a61686c2061757373657268616c622064657320426572656963\n        /* \"#utility.yul\":22977:22978   */\n      0x00\n        /* \"#utility.yul\":22969:22975   */\n      dup3\n        /* \"#utility.yul\":22965:22979   */\n      add\n        /* \"#utility.yul\":22958:23016   */\n      mstore\n        /* \"#utility.yul\":23050:23054   */\n      0x6873000000000000000000000000000000000000000000000000000000000000\n        /* \"#utility.yul\":23045:23047   */\n      0x20\n        /* \"#utility.yul\":23037:23043   */\n      dup3\n        /* \"#utility.yul\":23033:23048   */\n      add\n        /* \"#utility.yul\":23026:23055   */\n      mstore\n        /* \"#utility.yul\":22841:23062   */\n      pop\n      jump\t// out\n        /* \"#utility.yul\":23068:23434   */\n    tag_298:\n        /* \"#utility.yul\":23210:23213   */\n      0x00\n        /* \"#utility.yul\":23231:23298   */\n      tag_507\n        /* \"#utility.yul\":23295:23297   */\n      0x22\n        /* \"#utility.yul\":23290:23293   */\n      dup4\n        /* \"#utility.yul\":23231:23298   */\n      tag_252\n      jump\t// in\n    tag_507:\n        /* \"#utility.yul\":23224:23298   */\n      swap2\n      pop\n        /* \"#utility.yul\":23307:23400   */\n      tag_508\n        /* \"#utility.yul\":23396:23399   */\n      dup3\n        /* \"#utility.yul\":23307:23400   */\n      tag_297\n      jump\t// in\n    tag_508:\n        /* \"#utility.yul\":23425:23427   */\n      0x40\n        /* \"#utility.yul\":23420:23423   */\n      dup3\n        /* \"#utility.yul\":23416:23428   */\n      add\n        /* \"#utility.yul\":23409:23428   */\n      swap1\n      pop\n        /* \"#utility.yul\":23068:23434   */\n      swap2\n      swap1\n      pop\n      jump\t// out\n        /* \"#utility.yul\":23440:23859   */\n    tag_214:\n        /* \"#utility.yul\":23606:23610   */\n      0x00\n        /* \"#utility.yul\":23644:23646   */\n      0x20\n        /* \"#utility.yul\":23633:23642   */\n      dup3\n        /* \"#utility.yul\":23629:23647   */\n      add\n        /* \"#utility.yul\":23621:23647   */\n      swap1\n      pop\n        /* \"#utility.yul\":23693:23702   */\n      dup2\n        /* \"#utility.yul\":23687:23691   */\n      dup2\n        /* \"#utility.yul\":23683:23703   */\n      sub\n        /* \"#utility.yul\":23679:23680   */\n      0x00\n        /* \"#utility.yul\":23668:23677   */\n      dup4\n        /* \"#utility.yul\":23664:23681   */\n      add\n        /* \"#utility.yul\":23657:23704   */\n      mstore\n        /* \"#utility.yul\":23721:23852   */\n      tag_510\n        /* \"#utility.yul\":23847:23851   */\n      dup2\n        /* \"#utility.yul\":23721:23852   */\n      tag_298\n      jump\t// in\n    tag_510:\n        /* \"#utility.yul\":23713:23852   */\n      swap1\n      pop\n        /* \"#utility.yul\":23440:23859   */\n      swap2\n      swap1\n      pop\n      jump\t// out\n\n    auxdata: 0xa264697066735822122090dc82b9ca13d7dca68526881a764f742f6ce0be338f79913225be57ea7870a464736f6c63430008170033\n}\n","bytecode":{"linkReferences":{},"object":"60806040525f600b555f600c5534801562000018575f80fd5b50604051620024de380380620024de83398181016040528101906200003e9190620002c5565b825f806101000a81548173ffffffffffffffffffffffffffffffffffffffff021916908373ffffffffffffffffffffffffffffffffffffffff16021790555083600190816200008e919062000581565b5081600281905550806004819055505050505062000665565b5f604051905090565b5f80fd5b5f80fd5b5f80fd5b5f80fd5b5f601f19601f8301169050919050565b7f4e487b71000000000000000000000000000000000000000000000000000000005f52604160045260245ffd5b6200010882620000c0565b810181811067ffffffffffffffff821117156200012a5762000129620000d0565b5b80604052505050565b5f6200013e620000a7565b90506200014c8282620000fd565b919050565b5f67ffffffffffffffff8211156200016e576200016d620000d0565b5b6200017982620000c0565b9050602081019050919050565b5f5b83811015620001a557808201518184015260208101905062000188565b5f8484015250505050565b5f620001c6620001c08462000151565b62000133565b905082815260208101848484011115620001e557620001e4620000bc565b5b620001f284828562000186565b509392505050565b5f82601f830112620002115762000210620000b8565b5b815162000223848260208601620001b0565b91505092915050565b5f73ffffffffffffffffffffffffffffffffffffffff82169050919050565b5f62000257826200022c565b9050919050565b62000269816200024b565b811462000274575f80fd5b50565b5f8151905062000287816200025e565b92915050565b5f819050919050565b620002a1816200028d565b8114620002ac575f80fd5b50565b5f81519050620002bf8162000296565b92915050565b5f805f8060808587031215620002e057620002df620000b0565b5b5f85015167ffffffffffffffff8111156200030057620002ff620000b4565b5b6200030e87828801620001fa565b9450506020620003218782880162000277565b93505060406200033487828801620002af565b92505060606200034787828801620002af565b91505092959194509250565b5f81519050919050565b7f4e487b71000000000000000000000000000000000000000000000000000000005f52602260045260245ffd5b5f6002820490506001821680620003a257607f821691505b602082108103620003b857620003b76200035d565b5b50919050565b5f819050815f5260205f209050919050565b5f6020601f8301049050919050565b5f82821b905092915050565b5f600883026200041c7fffffffffffffffffffffffffffffffffffffffffffffffffffffffffffffffff82620003df565b620004288683620003df565b95508019841693508086168417925050509392505050565b5f819050919050565b5f62000469620004636200045d846200028d565b62000440565b6200028d565b9050919050565b5f819050919050565b620004848362000449565b6200049c620004938262000470565b848454620003eb565b825550505050565b5f90565b620004b2620004a4565b620004bf81848462000479565b505050565b5b81811015620004e657620004da5f82620004a8565b600181019050620004c5565b5050565b601f8211156200053557620004ff81620003be565b6200050a84620003d0565b810160208510156200051a578190505b620005326200052985620003d0565b830182620004c4565b50505b505050565b5f82821c905092915050565b5f620005575f19846008026200053a565b1980831691505092915050565b5f62000571838362000546565b9150826002028217905092915050565b6200058c8262000353565b67ffffffffffffffff811115620005a857620005a7620000d0565b5b620005b482546200038a565b620005c1828285620004ea565b5f60209050601f831160018114620005f7575f8415620005e2578287015190505b620005ee858262000564565b8655506200065d565b601f1984166200060786620003be565b5f5b82811015620006305784890151825560018201915060208501945060208101905062000609565b868310156200065057848901516200064c601f89168262000546565b8355505b6001600288020188555050505b505050505050565b611e6b80620006735f395ff3fe608060405260043610610108575f3560e01c806370a41bc011610094578063bb864be311610063578063bb864be314610332578063d27d06c01461033c578063d78c28dc14610366578063e75b3b2514610390578063edaa52c5146103b857610108565b806370a41bc01461028e578063822b8023146102b85780638e5676fd146102e0578063ad2c046c1461030857610108565b80633f0f5d51116100db5780633f0f5d51146101b85780634a5ae1cf146101e2578063526024ea1461021e578063535c98dd146102285780636f07affb1461025257610108565b8063084263f51461010c578063311e73da1461013657806336927060146101525780633babb15a1461018e575b5f80fd5b348015610117575f80fd5b506101206103e2565b60405161012d91906111a8565b60405180910390f35b610150600480360381019061014b91906111f8565b6103e8565b005b34801561015d575f80fd5b506101786004803603810190610173919061127d565b61048a565b60405161018591906112c2565b60405180910390f35b348015610199575f80fd5b506101a26104a7565b6040516101af91906111a8565b60405180910390f35b3480156101c3575f80fd5b506101cc6104ad565b6040516101d991906111a8565b60405180910390f35b3480156101ed575f80fd5b50610208600480360381019061020391906111f8565b6104b3565b60405161021591906112ea565b60405180910390f35b6102266104e3565b005b348015610233575f80fd5b5061023c6107ef565b60405161024991906111a8565b60405180910390f35b34801561025d575f80fd5b50610278600480360381019061027391906111f8565b6107f5565b60405161028591906112ea565b60405180910390f35b348015610299575f80fd5b506102a2610830565b6040516102af91906111a8565b60405180910390f35b3480156102c3575f80fd5b506102de60048036038101906102d991906111f8565b610836565b005b3480156102eb575f80fd5b50610306600480360381019061030191906111f8565b6108da565b005b348015610313575f80fd5b5061031c61097e565b60405161032991906112ea565b60405180910390f35b61033a6109a1565b005b348015610347575f80fd5b50610350610d1d565b60405161035d919061138d565b60405180910390f35b348015610371575f80fd5b5061037a610da9565b60405161038791906111a8565b60405180910390f35b34801561039b575f80fd5b506103b660048036038101906103b191906115bf565b610db2565b005b3480156103c3575f80fd5b506103cc610fba565b6040516103d991906111a8565b60405180910390f35b60035481565b5f8054906101000a900473ffffffffffffffffffffffffffffffffffffffff1673ffffffffffffffffffffffffffffffffffffffff163373ffffffffffffffffffffffffffffffffffffffff161461043e575f80fd5b5f3411610480576040517f08c379a00000000000000000000000000000000000000000000000000000000081526004016104779061166d565b60405180910390fd5b80600b8190555050565b6007602052805f5260405f205f915054906101000a900460ff1681565b600a5481565b60045481565b6008602052805f5260405f205f915054906101000a900473ffffffffffffffffffffffffffffffffffffffff1681565b5f6002546004546104f491906116e5565b905080341015610539576040517f08c379a00000000000000000000000000000000000000000000000000000000081526004016105309061175f565b60405180910390fd5b60075f3373ffffffffffffffffffffffffffffffffffffffff1673ffffffffffffffffffffffffffffffffffffffff1681526020019081526020015f205f9054906101000a900460ff16156105c3576040517f08c379a00000000000000000000000000000000000000000000000000000000081526004016105ba906117ed565b60405180910390fd5b600254600a5410610609576040517f08c379a000000000000000000000000000000000000000000000000000000000815260040161060090611855565b60405180910390fd5b5f81346106169190611873565b9050600160075f3373ffffffffffffffffffffffffffffffffffffffff1673ffffffffffffffffffffffffffffffffffffffff1681526020019081526020015f205f6101000a81548160ff0219169083151502179055503360085f6001600a546106809190611873565b81526020019081526020015f205f6101000a81548173ffffffffffffffffffffffffffffffffffffffff021916908373ffffffffffffffffffffffffffffffffffffffff160217905550600933908060018154018082558091505060019003905f5260205f20015f9091909190916101000a81548173ffffffffffffffffffffffffffffffffffffffff021916908373ffffffffffffffffffffffffffffffffffffffff160217905550600a5f81548092919061073c906118a6565b91905055505f81111561078e573373ffffffffffffffffffffffffffffffffffffffff166108fc8290811502906040515f60405180830381858888f1935050505015801561078c573d5f803e3d5ffd5b505b3360085f6001600a546107a19190611873565b81526020019081526020015f205f6101000a81548173ffffffffffffffffffffffffffffffffffffffff021916908373ffffffffffffffffffffffffffffffffffffffff1602179055505050565b60065481565b60098181548110610804575f80fd5b905f5260205f20015f915054906101000a900473ffffffffffffffffffffffffffffffffffffffff1681565b60025481565b5f8054906101000a900473ffffffffffffffffffffffffffffffffffffffff1673ffffffffffffffffffffffffffffffffffffffff163373ffffffffffffffffffffffffffffffffffffffff161461088c575f80fd5b5f600a54146108d0576040517f08c379a00000000000000000000000000000000000000000000000000000000081526004016108c790611983565b60405180910390fd5b8060028190555050565b5f8054906101000a900473ffffffffffffffffffffffffffffffffffffffff1673ffffffffffffffffffffffffffffffffffffffff163373ffffffffffffffffffffffffffffffffffffffff1614610930575f80fd5b5f600a5414610974576040517f08c379a000000000000000000000000000000000000000000000000000000000815260040161096b90611a11565b60405180910390fd5b8060048190555050565b5f8054906101000a900473ffffffffffffffffffffffffffffffffffffffff1681565b5f8054906101000a900473ffffffffffffffffffffffffffffffffffffffff1673ffffffffffffffffffffffffffffffffffffffff163373ffffffffffffffffffffffffffffffffffffffff16146109f7575f80fd5b5f600a5490505f600a5447610a0c91906116e5565b90505f8211610a50576040517f08c379a0000000000000000000000000000000000000000000000000000000008152600401610a4790611a79565b60405180910390fd5b600254600a5414610a96576040517f08c379a0000000000000000000000000000000000000000000000000000000008152600401610a8d90611b07565b60405180910390fd5b5f8111610ad8576040517f08c379a0000000000000000000000000000000000000000000000000000000008152600401610acf90611b95565b60405180910390fd5b5f6005600c54610ae89190611bb3565b90505f600c5490505b8181108015610b015750600a5481105b15610bf7575f60085f8381526020019081526020015f205f9054906101000a900473ffffffffffffffffffffffffffffffffffffffff1690505f8173ffffffffffffffffffffffffffffffffffffffff1685604051610b5f90611c13565b5f6040518083038185875af1925050503d805f8114610b99576040519150601f19603f3d011682016040523d82523d5f602084013e610b9e565b606091505b5050905080610be2576040517f08c379a0000000000000000000000000000000000000000000000000000000008152600401610bd990611c71565b60405180910390fd5b50508080610bef906118a6565b915050610af1565b50828111610c055780610c07565b825b600c8190555082600c5403610d18575f5b83811015610ca95760075f60085f8481526020019081526020015f205f9054906101000a900473ffffffffffffffffffffffffffffffffffffffff1673ffffffffffffffffffffffffffffffffffffffff1673ffffffffffffffffffffffffffffffffffffffff1681526020019081526020015f205f6101000a81549060ff02191690558080600101915050610c18565b505f600a819055505f600c819055505f67ffffffffffffffff811115610cd257610cd16113b1565b5b604051908082528060200260200182016040528015610d005781602001602082028036833780820191505090505b5060099080519060200190610d16929190610fc0565b505b505050565b60018054610d2a90611cbc565b80601f0160208091040260200160405190810160405280929190818152602001828054610d5690611cbc565b8015610da15780601f10610d7857610100808354040283529160200191610da1565b820191905f5260205f20905b815481529060010190602001808311610d8457829003601f168201915b505050505081565b5f600c54905090565b5f8054906101000a900473ffffffffffffffffffffffffffffffffffffffff1673ffffffffffffffffffffffffffffffffffffffff163373ffffffffffffffffffffffffffffffffffffffff1614610e08575f80fd5b5f5b6005811015610ea5576001838260058110610e2857610e27611cec565b5b602002015160ff1610158015610e5957506032838260058110610e4e57610e4d611cec565b5b602002015160ff1611155b610e98576040517f08c379a0000000000000000000000000000000000000000000000000000000008152600401610e8f90611d89565b60405180910390fd5b8080600101915050610e0a565b505f5b6002811015610f43576001828260028110610ec657610ec5611cec565b5b602002015160ff1610158015610ef75750600c828260028110610eec57610eeb611cec565b5b602002015160ff1611155b610f36576040517f08c379a0000000000000000000000000000000000000000000000000000000008152600401610f2d90611e17565b60405180910390fd5b8080600101915050610ea8565b505f6040518060400160405280848152602001838152509050600581908060018154018082558091505060019003905f5260205f2090600202015f909190919091505f820151815f01906005610f9a929190611047565b50602082015181600101906002610fb29291906110de565b505050505050565b600b5481565b828054828255905f5260205f20908101928215611036579160200282015b82811115611035578251825f6101000a81548173ffffffffffffffffffffffffffffffffffffffff021916908373ffffffffffffffffffffffffffffffffffffffff16021790555091602001919060010190610fde565b5b5090506110439190611175565b5090565b826005601f016020900481019282156110cd579160200282015f5b8382111561109f57835183826101000a81548160ff021916908360ff16021790555092602001926001016020815f01049283019260010302611062565b80156110cb5782816101000a81549060ff02191690556001016020815f0104928301926001030261109f565b505b5090506110da9190611175565b5090565b826002601f01602090048101928215611164579160200282015f5b8382111561113657835183826101000a81548160ff021916908360ff16021790555092602001926001016020815f010492830192600103026110f9565b80156111625782816101000a81549060ff02191690556001016020815f01049283019260010302611136565b505b5090506111719190611175565b5090565b5b8082111561118c575f815f905550600101611176565b5090565b5f819050919050565b6111a281611190565b82525050565b5f6020820190506111bb5f830184611199565b92915050565b5f604051905090565b5f80fd5b6111d781611190565b81146111e1575f80fd5b50565b5f813590506111f2816111ce565b92915050565b5f6020828403121561120d5761120c6111ca565b5b5f61121a848285016111e4565b91505092915050565b5f73ffffffffffffffffffffffffffffffffffffffff82169050919050565b5f61124c82611223565b9050919050565b61125c81611242565b8114611266575f80fd5b50565b5f8135905061127781611253565b92915050565b5f60208284031215611292576112916111ca565b5b5f61129f84828501611269565b91505092915050565b5f8115159050919050565b6112bc816112a8565b82525050565b5f6020820190506112d55f8301846112b3565b92915050565b6112e481611242565b82525050565b5f6020820190506112fd5f8301846112db565b92915050565b5f81519050919050565b5f82825260208201905092915050565b5f5b8381101561133a57808201518184015260208101905061131f565b5f8484015250505050565b5f601f19601f8301169050919050565b5f61135f82611303565b611369818561130d565b935061137981856020860161131d565b61138281611345565b840191505092915050565b5f6020820190508181035f8301526113a58184611355565b905092915050565b5f80fd5b7f4e487b71000000000000000000000000000000000000000000000000000000005f52604160045260245ffd5b6113e782611345565b810181811067ffffffffffffffff82111715611406576114056113b1565b5b80604052505050565b5f6114186111c1565b905061142482826113de565b919050565b5f67ffffffffffffffff821115611443576114426113b1565b5b602082029050919050565b5f80fd5b5f60ff82169050919050565b61146781611452565b8114611471575f80fd5b50565b5f813590506114828161145e565b92915050565b5f61149a61149584611429565b61140f565b905080602084028301858111156114b4576114b361144e565b5b835b818110156114dd57806114c98882611474565b8452602084019350506020810190506114b6565b5050509392505050565b5f82601f8301126114fb576114fa6113ad565b5b6005611508848285611488565b91505092915050565b5f67ffffffffffffffff82111561152b5761152a6113b1565b5b602082029050919050565b5f61154861154384611511565b61140f565b905080602084028301858111156115625761156161144e565b5b835b8181101561158b57806115778882611474565b845260208401935050602081019050611564565b5050509392505050565b5f82601f8301126115a9576115a86113ad565b5b60026115b6848285611536565b91505092915050565b5f8060e083850312156115d5576115d46111ca565b5b5f6115e2858286016114e7565b92505060a06115f385828601611595565b9150509250929050565b7f45696e7a61686c756e6773626574726167206d7573732067726f6573736572205f8201527f616c732030207365696e00000000000000000000000000000000000000000000602082015250565b5f611657602a8361130d565b9150611662826115fd565b604082019050919050565b5f6020820190508181035f8301526116848161164b565b9050919050565b7f4e487b71000000000000000000000000000000000000000000000000000000005f52601260045260245ffd5b7f4e487b71000000000000000000000000000000000000000000000000000000005f52601160045260245ffd5b5f6116ef82611190565b91506116fa83611190565b92508261170a5761170961168b565b5b828204905092915050565b7f5a7520676572696e6765722045696e7a61686c756e67736265747261670000005f82015250565b5f611749601d8361130d565b915061175482611715565b602082019050919050565b5f6020820190508181035f8301526117768161173d565b9050919050565b7f4265726569747320616c73204d6974737069656c6572207265676973747269655f8201527f7274000000000000000000000000000000000000000000000000000000000000602082015250565b5f6117d760228361130d565b91506117e28261177d565b604082019050919050565b5f6020820190508181035f830152611804816117cb565b9050919050565b7f4d6178696d616c65205465696c6e65686d65727a61686c2065727265696368745f82015250565b5f61183f60208361130d565b915061184a8261180b565b602082019050919050565b5f6020820190508181035f83015261186c81611833565b9050919050565b5f61187d82611190565b915061188883611190565b92508282039050818111156118a05761189f6116b8565b5b92915050565b5f6118b082611190565b91507fffffffffffffffffffffffffffffffffffffffffffffffffffffffffffffffff82036118e2576118e16116b8565b5b600182019050919050565b7f457320676962742062657265697473204d6974737069656c65722e2041656e645f8201527f6572756e672064657220416e7a61686c20616e204d6974737069656c65726e2060208201527f6e69636874206d656872206d6f65676c6963682e000000000000000000000000604082015250565b5f61196d60548361130d565b9150611978826118ed565b606082019050919050565b5f6020820190508181035f83015261199a81611961565b9050919050565b7f457320676962742062657265697473204d6974737069656c65722e20507265695f8201527f7361656e646572756e67206e69636874206d656872206d6f65676c6963682e00602082015250565b5f6119fb603f8361130d565b9150611a06826119a1565b604082019050919050565b5f6020820190508181035f830152611a28816119ef565b9050919050565b7f4b65696e65204d6974737069656c657220766f7268616e64656e0000000000005f82015250565b5f611a63601a8361130d565b9150611a6e82611a2f565b602082019050919050565b5f6020820190508181035f830152611a9081611a57565b9050919050565b7f4e6963687420616c6c65204d6974737069656c657220686162656e207465696c5f8201527f67656e6f6d6d656e000000000000000000000000000000000000000000000000602082015250565b5f611af160288361130d565b9150611afc82611a97565b604082019050919050565b5f6020820190508181035f830152611b1e81611ae5565b9050919050565b7f4e696368742067656e756567656e6420477574686162656e20667565722041755f8201527f737a61686c756e67000000000000000000000000000000000000000000000000602082015250565b5f611b7f60288361130d565b9150611b8a82611b25565b604082019050919050565b5f6020820190508181035f830152611bac81611b73565b9050919050565b5f611bbd82611190565b9150611bc883611190565b9250828201905080821115611be057611bdf6116b8565b5b92915050565b5f81905092915050565b50565b5f611bfe5f83611be6565b9150611c0982611bf0565b5f82019050919050565b5f611c1d82611bf3565b9150819050919050565b7f4175737a61686c756e67206665686c67657363686c6167656e000000000000005f82015250565b5f611c5b60198361130d565b9150611c6682611c27565b602082019050919050565b5f6020820190508181035f830152611c8881611c4f565b9050919050565b7f4e487b71000000000000000000000000000000000000000000000000000000005f52602260045260245ffd5b5f6002820490506001821680611cd357607f821691505b602082108103611ce657611ce5611c8f565b5b50919050565b7f4e487b71000000000000000000000000000000000000000000000000000000005f52603260045260245ffd5b7f48617570747a61686c2061757373657268616c622064657320426572656963685f8201527f7300000000000000000000000000000000000000000000000000000000000000602082015250565b5f611d7360218361130d565b9150611d7e82611d19565b604082019050919050565b5f6020820190508181035f830152611da081611d67565b9050919050565b7f5a757361747a7a61686c2061757373657268616c6220646573204265726569635f8201527f6873000000000000000000000000000000000000000000000000000000000000602082015250565b5f611e0160228361130d565b9150611e0c82611da7565b604082019050919050565b5f6020820190508181035f830152611e2e81611df5565b905091905056fea264697066735822122090dc82b9ca13d7dca68526881a764f742f6ce0be338f79913225be57ea7870a464736f6c63430008170033","opcodes":"PUSH1 0x80 PUSH1 0x40 MSTORE PUSH0 PUSH1 0xB SSTORE PUSH0 PUSH1 0xC SSTORE CALLVALUE DUP1 ISZERO PUSH3 0x18 JUMPI PUSH0 DUP1 REVERT JUMPDEST POP PUSH1 0x40 MLOAD PUSH3 0x24DE CODESIZE SUB DUP1 PUSH3 0x24DE DUP4 CODECOPY DUP2 DUP2 ADD PUSH1 0x40 MSTORE DUP2 ADD SWAP1 PUSH3 0x3E SWAP2 SWAP1 PUSH3 0x2C5 JUMP JUMPDEST DUP3 PUSH0 DUP1 PUSH2 0x100 EXP DUP2 SLOAD DUP2 PUSH20 0xFFFFFFFFFFFFFFFFFFFFFFFFFFFFFFFFFFFFFFFF MUL NOT AND SWAP1 DUP4 PUSH20 0xFFFFFFFFFFFFFFFFFFFFFFFFFFFFFFFFFFFFFFFF AND MUL OR SWAP1 SSTORE POP DUP4 PUSH1 0x1 SWAP1 DUP2 PUSH3 0x8E SWAP2 SWAP1 PUSH3 0x581 JUMP JUMPDEST POP DUP2 PUSH1 0x2 DUP2 SWAP1 SSTORE POP DUP1 PUSH1 0x4 DUP2 SWAP1 SSTORE POP POP POP POP POP PUSH3 0x665 JUMP JUMPDEST PUSH0 PUSH1 0x40 MLOAD SWAP1 POP SWAP1 JUMP JUMPDEST PUSH0 DUP1 REVERT JUMPDEST PUSH0 DUP1 REVERT JUMPDEST PUSH0 DUP1 REVERT JUMPDEST PUSH0 DUP1 REVERT JUMPDEST PUSH0 PUSH1 0x1F NOT PUSH1 0x1F DUP4 ADD AND SWAP1 POP SWAP2 SWAP1 POP JUMP JUMPDEST PUSH32 0x4E487B7100000000000000000000000000000000000000000000000000000000 PUSH0 MSTORE PUSH1 0x41 PUSH1 0x4 MSTORE PUSH1 0x24 PUSH0 REVERT JUMPDEST PUSH3 0x108 DUP3 PUSH3 0xC0 JUMP JUMPDEST DUP2 ADD DUP2 DUP2 LT PUSH8 0xFFFFFFFFFFFFFFFF DUP3 GT OR ISZERO PUSH3 0x12A JUMPI PUSH3 0x129 PUSH3 0xD0 JUMP JUMPDEST JUMPDEST DUP1 PUSH1 0x40 MSTORE POP POP POP JUMP JUMPDEST PUSH0 PUSH3 0x13E PUSH3 0xA7 JUMP JUMPDEST SWAP1 POP PUSH3 0x14C DUP3 DUP3 PUSH3 0xFD JUMP JUMPDEST SWAP2 SWAP1 POP JUMP JUMPDEST PUSH0 PUSH8 0xFFFFFFFFFFFFFFFF DUP3 GT ISZERO PUSH3 0x16E JUMPI PUSH3 0x16D PUSH3 0xD0 JUMP JUMPDEST JUMPDEST PUSH3 0x179 DUP3 PUSH3 0xC0 JUMP JUMPDEST SWAP1 POP PUSH1 0x20 DUP2 ADD SWAP1 POP SWAP2 SWAP1 POP JUMP JUMPDEST PUSH0 JUMPDEST DUP4 DUP2 LT ISZERO PUSH3 0x1A5 JUMPI DUP1 DUP3 ADD MLOAD DUP2 DUP5 ADD MSTORE PUSH1 0x20 DUP2 ADD SWAP1 POP PUSH3 0x188 JUMP JUMPDEST PUSH0 DUP5 DUP5 ADD MSTORE POP POP POP POP JUMP JUMPDEST PUSH0 PUSH3 0x1C6 PUSH3 0x1C0 DUP5 PUSH3 0x151 JUMP JUMPDEST PUSH3 0x133 JUMP JUMPDEST SWAP1 POP DUP3 DUP2 MSTORE PUSH1 0x20 DUP2 ADD DUP5 DUP5 DUP5 ADD GT ISZERO PUSH3 0x1E5 JUMPI PUSH3 0x1E4 PUSH3 0xBC JUMP JUMPDEST JUMPDEST PUSH3 0x1F2 DUP5 DUP3 DUP6 PUSH3 0x186 JUMP JUMPDEST POP SWAP4 SWAP3 POP POP POP JUMP JUMPDEST PUSH0 DUP3 PUSH1 0x1F DUP4 ADD SLT PUSH3 0x211 JUMPI PUSH3 0x210 PUSH3 0xB8 JUMP JUMPDEST JUMPDEST DUP2 MLOAD PUSH3 0x223 DUP5 DUP3 PUSH1 0x20 DUP7 ADD PUSH3 0x1B0 JUMP JUMPDEST SWAP2 POP POP SWAP3 SWAP2 POP POP JUMP JUMPDEST PUSH0 PUSH20 0xFFFFFFFFFFFFFFFFFFFFFFFFFFFFFFFFFFFFFFFF DUP3 AND SWAP1 POP SWAP2 SWAP1 POP JUMP JUMPDEST PUSH0 PUSH3 0x257 DUP3 PUSH3 0x22C JUMP JUMPDEST SWAP1 POP SWAP2 SWAP1 POP JUMP JUMPDEST PUSH3 0x269 DUP2 PUSH3 0x24B JUMP JUMPDEST DUP2 EQ PUSH3 0x274 JUMPI PUSH0 DUP1 REVERT JUMPDEST POP JUMP JUMPDEST PUSH0 DUP2 MLOAD SWAP1 POP PUSH3 0x287 DUP2 PUSH3 0x25E JUMP JUMPDEST SWAP3 SWAP2 POP POP JUMP JUMPDEST PUSH0 DUP2 SWAP1 POP SWAP2 SWAP1 POP JUMP JUMPDEST PUSH3 0x2A1 DUP2 PUSH3 0x28D JUMP JUMPDEST DUP2 EQ PUSH3 0x2AC JUMPI PUSH0 DUP1 REVERT JUMPDEST POP JUMP JUMPDEST PUSH0 DUP2 MLOAD SWAP1 POP PUSH3 0x2BF DUP2 PUSH3 0x296 JUMP JUMPDEST SWAP3 SWAP2 POP POP JUMP JUMPDEST PUSH0 DUP1 PUSH0 DUP1 PUSH1 0x80 DUP6 DUP8 SUB SLT ISZERO PUSH3 0x2E0 JUMPI PUSH3 0x2DF PUSH3 0xB0 JUMP JUMPDEST JUMPDEST PUSH0 DUP6 ADD MLOAD PUSH8 0xFFFFFFFFFFFFFFFF DUP2 GT ISZERO PUSH3 0x300 JUMPI PUSH3 0x2FF PUSH3 0xB4 JUMP JUMPDEST JUMPDEST PUSH3 0x30E DUP8 DUP3 DUP9 ADD PUSH3 0x1FA JUMP JUMPDEST SWAP5 POP POP PUSH1 0x20 PUSH3 0x321 DUP8 DUP3 DUP9 ADD PUSH3 0x277 JUMP JUMPDEST SWAP4 POP POP PUSH1 0x40 PUSH3 0x334 DUP8 DUP3 DUP9 ADD PUSH3 0x2AF JUMP JUMPDEST SWAP3 POP POP PUSH1 0x60 PUSH3 0x347 DUP8 DUP3 DUP9 ADD PUSH3 0x2AF JUMP JUMPDEST SWAP2 POP POP SWAP3 SWAP6 SWAP2 SWAP5 POP SWAP3 POP JUMP JUMPDEST PUSH0 DUP2 MLOAD SWAP1 POP SWAP2 SWAP1 POP JUMP JUMPDEST PUSH32 0x4E487B7100000000000000000000000000000000000000000000000000000000 PUSH0 MSTORE PUSH1 0x22 PUSH1 0x4 MSTORE PUSH1 0x24 PUSH0 REVERT JUMPDEST PUSH0 PUSH1 0x2 DUP3 DIV SWAP1 POP PUSH1 0x1 DUP3 AND DUP1 PUSH3 0x3A2 JUMPI PUSH1 0x7F DUP3 AND SWAP2 POP JUMPDEST PUSH1 0x20 DUP3 LT DUP2 SUB PUSH3 0x3B8 JUMPI PUSH3 0x3B7 PUSH3 0x35D JUMP JUMPDEST JUMPDEST POP SWAP2 SWAP1 POP JUMP JUMPDEST PUSH0 DUP2 SWAP1 POP DUP2 PUSH0 MSTORE PUSH1 0x20 PUSH0 KECCAK256 SWAP1 POP SWAP2 SWAP1 POP JUMP JUMPDEST PUSH0 PUSH1 0x20 PUSH1 0x1F DUP4 ADD DIV SWAP1 POP SWAP2 SWAP1 POP JUMP JUMPDEST PUSH0 DUP3 DUP3 SHL SWAP1 POP SWAP3 SWAP2 POP POP JUMP JUMPDEST PUSH0 PUSH1 0x8 DUP4 MUL PUSH3 0x41C PUSH32 0xFFFFFFFFFFFFFFFFFFFFFFFFFFFFFFFFFFFFFFFFFFFFFFFFFFFFFFFFFFFFFFFF DUP3 PUSH3 0x3DF JUMP JUMPDEST PUSH3 0x428 DUP7 DUP4 PUSH3 0x3DF JUMP JUMPDEST SWAP6 POP DUP1 NOT DUP5 AND SWAP4 POP DUP1 DUP7 AND DUP5 OR SWAP3 POP POP POP SWAP4 SWAP3 POP POP POP JUMP JUMPDEST PUSH0 DUP2 SWAP1 POP SWAP2 SWAP1 POP JUMP JUMPDEST PUSH0 PUSH3 0x469 PUSH3 0x463 PUSH3 0x45D DUP5 PUSH3 0x28D JUMP JUMPDEST PUSH3 0x440 JUMP JUMPDEST PUSH3 0x28D JUMP JUMPDEST SWAP1 POP SWAP2 SWAP1 POP JUMP JUMPDEST PUSH0 DUP2 SWAP1 POP SWAP2 SWAP1 POP JUMP JUMPDEST PUSH3 0x484 DUP4 PUSH3 0x449 JUMP JUMPDEST PUSH3 0x49C PUSH3 0x493 DUP3 PUSH3 0x470 JUMP JUMPDEST DUP5 DUP5 SLOAD PUSH3 0x3EB JUMP JUMPDEST DUP3 SSTORE POP POP POP POP JUMP JUMPDEST PUSH0 SWAP1 JUMP JUMPDEST PUSH3 0x4B2 PUSH3 0x4A4 JUMP JUMPDEST PUSH3 0x4BF DUP2 DUP5 DUP5 PUSH3 0x479 JUMP JUMPDEST POP POP POP JUMP JUMPDEST JUMPDEST DUP2 DUP2 LT ISZERO PUSH3 0x4E6 JUMPI PUSH3 0x4DA PUSH0 DUP3 PUSH3 0x4A8 JUMP JUMPDEST PUSH1 0x1 DUP2 ADD SWAP1 POP PUSH3 0x4C5 JUMP JUMPDEST POP POP JUMP JUMPDEST PUSH1 0x1F DUP3 GT ISZERO PUSH3 0x535 JUMPI PUSH3 0x4FF DUP2 PUSH3 0x3BE JUMP JUMPDEST PUSH3 0x50A DUP5 PUSH3 0x3D0 JUMP JUMPDEST DUP2 ADD PUSH1 0x20 DUP6 LT ISZERO PUSH3 0x51A JUMPI DUP2 SWAP1 POP JUMPDEST PUSH3 0x532 PUSH3 0x529 DUP6 PUSH3 0x3D0 JUMP JUMPDEST DUP4 ADD DUP3 PUSH3 0x4C4 JUMP JUMPDEST POP POP JUMPDEST POP POP POP JUMP JUMPDEST PUSH0 DUP3 DUP3 SHR SWAP1 POP SWAP3 SWAP2 POP POP JUMP JUMPDEST PUSH0 PUSH3 0x557 PUSH0 NOT DUP5 PUSH1 0x8 MUL PUSH3 0x53A JUMP JUMPDEST NOT DUP1 DUP4 AND SWAP2 POP POP SWAP3 SWAP2 POP POP JUMP JUMPDEST PUSH0 PUSH3 0x571 DUP4 DUP4 PUSH3 0x546 JUMP JUMPDEST SWAP2 POP DUP3 PUSH1 0x2 MUL DUP3 OR SWAP1 POP SWAP3 SWAP2 POP POP JUMP JUMPDEST PUSH3 0x58C DUP3 PUSH3 0x353 JUMP JUMPDEST PUSH8 0xFFFFFFFFFFFFFFFF DUP2 GT ISZERO PUSH3 0x5A8 JUMPI PUSH3 0x5A7 PUSH3 0xD0 JUMP JUMPDEST JUMPDEST PUSH3 0x5B4 DUP3 SLOAD PUSH3 0x38A JUMP JUMPDEST PUSH3 0x5C1 DUP3 DUP3 DUP6 PUSH3 0x4EA JUMP JUMPDEST PUSH0 PUSH1 0x20 SWAP1 POP PUSH1 0x1F DUP4 GT PUSH1 0x1 DUP2 EQ PUSH3 0x5F7 JUMPI PUSH0 DUP5 ISZERO PUSH3 0x5E2 JUMPI DUP3 DUP8 ADD MLOAD SWAP1 POP JUMPDEST PUSH3 0x5EE DUP6 DUP3 PUSH3 0x564 JUMP JUMPDEST DUP7 SSTORE POP PUSH3 0x65D JUMP JUMPDEST PUSH1 0x1F NOT DUP5 AND PUSH3 0x607 DUP7 PUSH3 0x3BE JUMP JUMPDEST PUSH0 JUMPDEST DUP3 DUP2 LT ISZERO PUSH3 0x630 JUMPI DUP5 DUP10 ADD MLOAD DUP3 SSTORE PUSH1 0x1 DUP3 ADD SWAP2 POP PUSH1 0x20 DUP6 ADD SWAP5 POP PUSH1 0x20 DUP2 ADD SWAP1 POP PUSH3 0x609 JUMP JUMPDEST DUP7 DUP4 LT ISZERO PUSH3 0x650 JUMPI DUP5 DUP10 ADD MLOAD PUSH3 0x64C PUSH1 0x1F DUP10 AND DUP3 PUSH3 0x546 JUMP JUMPDEST DUP4 SSTORE POP JUMPDEST PUSH1 0x1 PUSH1 0x2 DUP9 MUL ADD DUP9 SSTORE POP POP POP JUMPDEST POP POP POP POP POP POP JUMP JUMPDEST PUSH2 0x1E6B DUP1 PUSH3 0x673 PUSH0 CODECOPY PUSH0 RETURN INVALID PUSH1 0x80 PUSH1 0x40 MSTORE PUSH1 0x4 CALLDATASIZE LT PUSH2 0x108 JUMPI PUSH0 CALLDATALOAD PUSH1 0xE0 SHR DUP1 PUSH4 0x70A41BC0 GT PUSH2 0x94 JUMPI DUP1 PUSH4 0xBB864BE3 GT PUSH2 0x63 JUMPI DUP1 PUSH4 0xBB864BE3 EQ PUSH2 0x332 JUMPI DUP1 PUSH4 0xD27D06C0 EQ PUSH2 0x33C JUMPI DUP1 PUSH4 0xD78C28DC EQ PUSH2 0x366 JUMPI DUP1 PUSH4 0xE75B3B25 EQ PUSH2 0x390 JUMPI DUP1 PUSH4 0xEDAA52C5 EQ PUSH2 0x3B8 JUMPI PUSH2 0x108 JUMP JUMPDEST DUP1 PUSH4 0x70A41BC0 EQ PUSH2 0x28E JUMPI DUP1 PUSH4 0x822B8023 EQ PUSH2 0x2B8 JUMPI DUP1 PUSH4 0x8E5676FD EQ PUSH2 0x2E0 JUMPI DUP1 PUSH4 0xAD2C046C EQ PUSH2 0x308 JUMPI PUSH2 0x108 JUMP JUMPDEST DUP1 PUSH4 0x3F0F5D51 GT PUSH2 0xDB JUMPI DUP1 PUSH4 0x3F0F5D51 EQ PUSH2 0x1B8 JUMPI DUP1 PUSH4 0x4A5AE1CF EQ PUSH2 0x1E2 JUMPI DUP1 PUSH4 0x526024EA EQ PUSH2 0x21E JUMPI DUP1 PUSH4 0x535C98DD EQ PUSH2 0x228 JUMPI DUP1 PUSH4 0x6F07AFFB EQ PUSH2 0x252 JUMPI PUSH2 0x108 JUMP JUMPDEST DUP1 PUSH4 0x84263F5 EQ PUSH2 0x10C JUMPI DUP1 PUSH4 0x311E73DA EQ PUSH2 0x136 JUMPI DUP1 PUSH4 0x36927060 EQ PUSH2 0x152 JUMPI DUP1 PUSH4 0x3BABB15A EQ PUSH2 0x18E JUMPI JUMPDEST PUSH0 DUP1 REVERT JUMPDEST CALLVALUE DUP1 ISZERO PUSH2 0x117 JUMPI PUSH0 DUP1 REVERT JUMPDEST POP PUSH2 0x120 PUSH2 0x3E2 JUMP JUMPDEST PUSH1 0x40 MLOAD PUSH2 0x12D SWAP2 SWAP1 PUSH2 0x11A8 JUMP JUMPDEST PUSH1 0x40 MLOAD DUP1 SWAP2 SUB SWAP1 RETURN JUMPDEST PUSH2 0x150 PUSH1 0x4 DUP1 CALLDATASIZE SUB DUP2 ADD SWAP1 PUSH2 0x14B SWAP2 SWAP1 PUSH2 0x11F8 JUMP JUMPDEST PUSH2 0x3E8 JUMP JUMPDEST STOP JUMPDEST CALLVALUE DUP1 ISZERO PUSH2 0x15D JUMPI PUSH0 DUP1 REVERT JUMPDEST POP PUSH2 0x178 PUSH1 0x4 DUP1 CALLDATASIZE SUB DUP2 ADD SWAP1 PUSH2 0x173 SWAP2 SWAP1 PUSH2 0x127D JUMP JUMPDEST PUSH2 0x48A JUMP JUMPDEST PUSH1 0x40 MLOAD PUSH2 0x185 SWAP2 SWAP1 PUSH2 0x12C2 JUMP JUMPDEST PUSH1 0x40 MLOAD DUP1 SWAP2 SUB SWAP1 RETURN JUMPDEST CALLVALUE DUP1 ISZERO PUSH2 0x199 JUMPI PUSH0 DUP1 REVERT JUMPDEST POP PUSH2 0x1A2 PUSH2 0x4A7 JUMP JUMPDEST PUSH1 0x40 MLOAD PUSH2 0x1AF SWAP2 SWAP1 PUSH2 0x11A8 JUMP JUMPDEST PUSH1 0x40 MLOAD DUP1 SWAP2 SUB SWAP1 RETURN JUMPDEST CALLVALUE DUP1 ISZERO PUSH2 0x1C3 JUMPI PUSH0 DUP1 REVERT JUMPDEST POP PUSH2 0x1CC PUSH2 0x4AD JUMP JUMPDEST PUSH1 0x40 MLOAD PUSH2 0x1D9 SWAP2 SWAP1 PUSH2 0x11A8 JUMP JUMPDEST PUSH1 0x40 MLOAD DUP1 SWAP2 SUB SWAP1 RETURN JUMPDEST CALLVALUE DUP1 ISZERO PUSH2 0x1ED JUMPI PUSH0 DUP1 REVERT JUMPDEST POP PUSH2 0x208 PUSH1 0x4 DUP1 CALLDATASIZE SUB DUP2 ADD SWAP1 PUSH2 0x203 SWAP2 SWAP1 PUSH2 0x11F8 JUMP JUMPDEST PUSH2 0x4B3 JUMP JUMPDEST PUSH1 0x40 MLOAD PUSH2 0x215 SWAP2 SWAP1 PUSH2 0x12EA JUMP JUMPDEST PUSH1 0x40 MLOAD DUP1 SWAP2 SUB SWAP1 RETURN JUMPDEST PUSH2 0x226 PUSH2 0x4E3 JUMP JUMPDEST STOP JUMPDEST CALLVALUE DUP1 ISZERO PUSH2 0x233 JUMPI PUSH0 DUP1 REVERT JUMPDEST POP PUSH2 0x23C PUSH2 0x7EF JUMP JUMPDEST PUSH1 0x40 MLOAD PUSH2 0x249 SWAP2 SWAP1 PUSH2 0x11A8 JUMP JUMPDEST PUSH1 0x40 MLOAD DUP1 SWAP2 SUB SWAP1 RETURN JUMPDEST CALLVALUE DUP1 ISZERO PUSH2 0x25D JUMPI PUSH0 DUP1 REVERT JUMPDEST POP PUSH2 0x278 PUSH1 0x4 DUP1 CALLDATASIZE SUB DUP2 ADD SWAP1 PUSH2 0x273 SWAP2 SWAP1 PUSH2 0x11F8 JUMP JUMPDEST PUSH2 0x7F5 JUMP JUMPDEST PUSH1 0x40 MLOAD PUSH2 0x285 SWAP2 SWAP1 PUSH2 0x12EA JUMP JUMPDEST PUSH1 0x40 MLOAD DUP1 SWAP2 SUB SWAP1 RETURN JUMPDEST CALLVALUE DUP1 ISZERO PUSH2 0x299 JUMPI PUSH0 DUP1 REVERT JUMPDEST POP PUSH2 0x2A2 PUSH2 0x830 JUMP JUMPDEST PUSH1 0x40 MLOAD PUSH2 0x2AF SWAP2 SWAP1 PUSH2 0x11A8 JUMP JUMPDEST PUSH1 0x40 MLOAD DUP1 SWAP2 SUB SWAP1 RETURN JUMPDEST CALLVALUE DUP1 ISZERO PUSH2 0x2C3 JUMPI PUSH0 DUP1 REVERT JUMPDEST POP PUSH2 0x2DE PUSH1 0x4 DUP1 CALLDATASIZE SUB DUP2 ADD SWAP1 PUSH2 0x2D9 SWAP2 SWAP1 PUSH2 0x11F8 JUMP JUMPDEST PUSH2 0x836 JUMP JUMPDEST STOP JUMPDEST CALLVALUE DUP1 ISZERO PUSH2 0x2EB JUMPI PUSH0 DUP1 REVERT JUMPDEST POP PUSH2 0x306 PUSH1 0x4 DUP1 CALLDATASIZE SUB DUP2 ADD SWAP1 PUSH2 0x301 SWAP2 SWAP1 PUSH2 0x11F8 JUMP JUMPDEST PUSH2 0x8DA JUMP JUMPDEST STOP JUMPDEST CALLVALUE DUP1 ISZERO PUSH2 0x313 JUMPI PUSH0 DUP1 REVERT JUMPDEST POP PUSH2 0x31C PUSH2 0x97E JUMP JUMPDEST PUSH1 0x40 MLOAD PUSH2 0x329 SWAP2 SWAP1 PUSH2 0x12EA JUMP JUMPDEST PUSH1 0x40 MLOAD DUP1 SWAP2 SUB SWAP1 RETURN JUMPDEST PUSH2 0x33A PUSH2 0x9A1 JUMP JUMPDEST STOP JUMPDEST CALLVALUE DUP1 ISZERO PUSH2 0x347 JUMPI PUSH0 DUP1 REVERT JUMPDEST POP PUSH2 0x350 PUSH2 0xD1D JUMP JUMPDEST PUSH1 0x40 MLOAD PUSH2 0x35D SWAP2 SWAP1 PUSH2 0x138D JUMP JUMPDEST PUSH1 0x40 MLOAD DUP1 SWAP2 SUB SWAP1 RETURN JUMPDEST CALLVALUE DUP1 ISZERO PUSH2 0x371 JUMPI PUSH0 DUP1 REVERT JUMPDEST POP PUSH2 0x37A PUSH2 0xDA9 JUMP JUMPDEST PUSH1 0x40 MLOAD PUSH2 0x387 SWAP2 SWAP1 PUSH2 0x11A8 JUMP JUMPDEST PUSH1 0x40 MLOAD DUP1 SWAP2 SUB SWAP1 RETURN JUMPDEST CALLVALUE DUP1 ISZERO PUSH2 0x39B JUMPI PUSH0 DUP1 REVERT JUMPDEST POP PUSH2 0x3B6 PUSH1 0x4 DUP1 CALLDATASIZE SUB DUP2 ADD SWAP1 PUSH2 0x3B1 SWAP2 SWAP1 PUSH2 0x15BF JUMP JUMPDEST PUSH2 0xDB2 JUMP JUMPDEST STOP JUMPDEST CALLVALUE DUP1 ISZERO PUSH2 0x3C3 JUMPI PUSH0 DUP1 REVERT JUMPDEST POP PUSH2 0x3CC PUSH2 0xFBA JUMP JUMPDEST PUSH1 0x40 MLOAD PUSH2 0x3D9 SWAP2 SWAP1 PUSH2 0x11A8 JUMP JUMPDEST PUSH1 0x40 MLOAD DUP1 SWAP2 SUB SWAP1 RETURN JUMPDEST PUSH1 0x3 SLOAD DUP2 JUMP JUMPDEST PUSH0 DUP1 SLOAD SWAP1 PUSH2 0x100 EXP SWAP1 DIV PUSH20 0xFFFFFFFFFFFFFFFFFFFFFFFFFFFFFFFFFFFFFFFF AND PUSH20 0xFFFFFFFFFFFFFFFFFFFFFFFFFFFFFFFFFFFFFFFF AND CALLER PUSH20 0xFFFFFFFFFFFFFFFFFFFFFFFFFFFFFFFFFFFFFFFF AND EQ PUSH2 0x43E JUMPI PUSH0 DUP1 REVERT JUMPDEST PUSH0 CALLVALUE GT PUSH2 0x480 JUMPI PUSH1 0x40 MLOAD PUSH32 0x8C379A000000000000000000000000000000000000000000000000000000000 DUP2 MSTORE PUSH1 0x4 ADD PUSH2 0x477 SWAP1 PUSH2 0x166D JUMP JUMPDEST PUSH1 0x40 MLOAD DUP1 SWAP2 SUB SWAP1 REVERT JUMPDEST DUP1 PUSH1 0xB DUP2 SWAP1 SSTORE POP POP JUMP JUMPDEST PUSH1 0x7 PUSH1 0x20 MSTORE DUP1 PUSH0 MSTORE PUSH1 0x40 PUSH0 KECCAK256 PUSH0 SWAP2 POP SLOAD SWAP1 PUSH2 0x100 EXP SWAP1 DIV PUSH1 0xFF AND DUP2 JUMP JUMPDEST PUSH1 0xA SLOAD DUP2 JUMP JUMPDEST PUSH1 0x4 SLOAD DUP2 JUMP JUMPDEST PUSH1 0x8 PUSH1 0x20 MSTORE DUP1 PUSH0 MSTORE PUSH1 0x40 PUSH0 KECCAK256 PUSH0 SWAP2 POP SLOAD SWAP1 PUSH2 0x100 EXP SWAP1 DIV PUSH20 0xFFFFFFFFFFFFFFFFFFFFFFFFFFFFFFFFFFFFFFFF AND DUP2 JUMP JUMPDEST PUSH0 PUSH1 0x2 SLOAD PUSH1 0x4 SLOAD PUSH2 0x4F4 SWAP2 SWAP1 PUSH2 0x16E5 JUMP JUMPDEST SWAP1 POP DUP1 CALLVALUE LT ISZERO PUSH2 0x539 JUMPI PUSH1 0x40 MLOAD PUSH32 0x8C379A000000000000000000000000000000000000000000000000000000000 DUP2 MSTORE PUSH1 0x4 ADD PUSH2 0x530 SWAP1 PUSH2 0x175F JUMP JUMPDEST PUSH1 0x40 MLOAD DUP1 SWAP2 SUB SWAP1 REVERT JUMPDEST PUSH1 0x7 PUSH0 CALLER PUSH20 0xFFFFFFFFFFFFFFFFFFFFFFFFFFFFFFFFFFFFFFFF AND PUSH20 0xFFFFFFFFFFFFFFFFFFFFFFFFFFFFFFFFFFFFFFFF AND DUP2 MSTORE PUSH1 0x20 ADD SWAP1 DUP2 MSTORE PUSH1 0x20 ADD PUSH0 KECCAK256 PUSH0 SWAP1 SLOAD SWAP1 PUSH2 0x100 EXP SWAP1 DIV PUSH1 0xFF AND ISZERO PUSH2 0x5C3 JUMPI PUSH1 0x40 MLOAD PUSH32 0x8C379A000000000000000000000000000000000000000000000000000000000 DUP2 MSTORE PUSH1 0x4 ADD PUSH2 0x5BA SWAP1 PUSH2 0x17ED JUMP JUMPDEST PUSH1 0x40 MLOAD DUP1 SWAP2 SUB SWAP1 REVERT JUMPDEST PUSH1 0x2 SLOAD PUSH1 0xA SLOAD LT PUSH2 0x609 JUMPI PUSH1 0x40 MLOAD PUSH32 0x8C379A000000000000000000000000000000000000000000000000000000000 DUP2 MSTORE PUSH1 0x4 ADD PUSH2 0x600 SWAP1 PUSH2 0x1855 JUMP JUMPDEST PUSH1 0x40 MLOAD DUP1 SWAP2 SUB SWAP1 REVERT JUMPDEST PUSH0 DUP2 CALLVALUE PUSH2 0x616 SWAP2 SWAP1 PUSH2 0x1873 JUMP JUMPDEST SWAP1 POP PUSH1 0x1 PUSH1 0x7 PUSH0 CALLER PUSH20 0xFFFFFFFFFFFFFFFFFFFFFFFFFFFFFFFFFFFFFFFF AND PUSH20 0xFFFFFFFFFFFFFFFFFFFFFFFFFFFFFFFFFFFFFFFF AND DUP2 MSTORE PUSH1 0x20 ADD SWAP1 DUP2 MSTORE PUSH1 0x20 ADD PUSH0 KECCAK256 PUSH0 PUSH2 0x100 EXP DUP2 SLOAD DUP2 PUSH1 0xFF MUL NOT AND SWAP1 DUP4 ISZERO ISZERO MUL OR SWAP1 SSTORE POP CALLER PUSH1 0x8 PUSH0 PUSH1 0x1 PUSH1 0xA SLOAD PUSH2 0x680 SWAP2 SWAP1 PUSH2 0x1873 JUMP JUMPDEST DUP2 MSTORE PUSH1 0x20 ADD SWAP1 DUP2 MSTORE PUSH1 0x20 ADD PUSH0 KECCAK256 PUSH0 PUSH2 0x100 EXP DUP2 SLOAD DUP2 PUSH20 0xFFFFFFFFFFFFFFFFFFFFFFFFFFFFFFFFFFFFFFFF MUL NOT AND SWAP1 DUP4 PUSH20 0xFFFFFFFFFFFFFFFFFFFFFFFFFFFFFFFFFFFFFFFF AND MUL OR SWAP1 SSTORE POP PUSH1 0x9 CALLER SWAP1 DUP1 PUSH1 0x1 DUP2 SLOAD ADD DUP1 DUP3 SSTORE DUP1 SWAP2 POP POP PUSH1 0x1 SWAP1 SUB SWAP1 PUSH0 MSTORE PUSH1 0x20 PUSH0 KECCAK256 ADD PUSH0 SWAP1 SWAP2 SWAP1 SWAP2 SWAP1 SWAP2 PUSH2 0x100 EXP DUP2 SLOAD DUP2 PUSH20 0xFFFFFFFFFFFFFFFFFFFFFFFFFFFFFFFFFFFFFFFF MUL NOT AND SWAP1 DUP4 PUSH20 0xFFFFFFFFFFFFFFFFFFFFFFFFFFFFFFFFFFFFFFFF AND MUL OR SWAP1 SSTORE POP PUSH1 0xA PUSH0 DUP2 SLOAD DUP1 SWAP3 SWAP2 SWAP1 PUSH2 0x73C SWAP1 PUSH2 0x18A6 JUMP JUMPDEST SWAP2 SWAP1 POP SSTORE POP PUSH0 DUP2 GT ISZERO PUSH2 0x78E JUMPI CALLER PUSH20 0xFFFFFFFFFFFFFFFFFFFFFFFFFFFFFFFFFFFFFFFF AND PUSH2 0x8FC DUP3 SWAP1 DUP2 ISZERO MUL SWAP1 PUSH1 0x40 MLOAD PUSH0 PUSH1 0x40 MLOAD DUP1 DUP4 SUB DUP2 DUP6 DUP9 DUP9 CALL SWAP4 POP POP POP POP ISZERO DUP1 ISZERO PUSH2 0x78C JUMPI RETURNDATASIZE PUSH0 DUP1 RETURNDATACOPY RETURNDATASIZE PUSH0 REVERT JUMPDEST POP JUMPDEST CALLER PUSH1 0x8 PUSH0 PUSH1 0x1 PUSH1 0xA SLOAD PUSH2 0x7A1 SWAP2 SWAP1 PUSH2 0x1873 JUMP JUMPDEST DUP2 MSTORE PUSH1 0x20 ADD SWAP1 DUP2 MSTORE PUSH1 0x20 ADD PUSH0 KECCAK256 PUSH0 PUSH2 0x100 EXP DUP2 SLOAD DUP2 PUSH20 0xFFFFFFFFFFFFFFFFFFFFFFFFFFFFFFFFFFFFFFFF MUL NOT AND SWAP1 DUP4 PUSH20 0xFFFFFFFFFFFFFFFFFFFFFFFFFFFFFFFFFFFFFFFF AND MUL OR SWAP1 SSTORE POP POP POP JUMP JUMPDEST PUSH1 0x6 SLOAD DUP2 JUMP JUMPDEST PUSH1 0x9 DUP2 DUP2 SLOAD DUP2 LT PUSH2 0x804 JUMPI PUSH0 DUP1 REVERT JUMPDEST SWAP1 PUSH0 MSTORE PUSH1 0x20 PUSH0 KECCAK256 ADD PUSH0 SWAP2 POP SLOAD SWAP1 PUSH2 0x100 EXP SWAP1 DIV PUSH20 0xFFFFFFFFFFFFFFFFFFFFFFFFFFFFFFFFFFFFFFFF AND DUP2 JUMP JUMPDEST PUSH1 0x2 SLOAD DUP2 JUMP JUMPDEST PUSH0 DUP1 SLOAD SWAP1 PUSH2 0x100 EXP SWAP1 DIV PUSH20 0xFFFFFFFFFFFFFFFFFFFFFFFFFFFFFFFFFFFFFFFF AND PUSH20 0xFFFFFFFFFFFFFFFFFFFFFFFFFFFFFFFFFFFFFFFF AND CALLER PUSH20 0xFFFFFFFFFFFFFFFFFFFFFFFFFFFFFFFFFFFFFFFF AND EQ PUSH2 0x88C JUMPI PUSH0 DUP1 REVERT JUMPDEST PUSH0 PUSH1 0xA SLOAD EQ PUSH2 0x8D0 JUMPI PUSH1 0x40 MLOAD PUSH32 0x8C379A000000000000000000000000000000000000000000000000000000000 DUP2 MSTORE PUSH1 0x4 ADD PUSH2 0x8C7 SWAP1 PUSH2 0x1983 JUMP JUMPDEST PUSH1 0x40 MLOAD DUP1 SWAP2 SUB SWAP1 REVERT JUMPDEST DUP1 PUSH1 0x2 DUP2 SWAP1 SSTORE POP POP JUMP JUMPDEST PUSH0 DUP1 SLOAD SWAP1 PUSH2 0x100 EXP SWAP1 DIV PUSH20 0xFFFFFFFFFFFFFFFFFFFFFFFFFFFFFFFFFFFFFFFF AND PUSH20 0xFFFFFFFFFFFFFFFFFFFFFFFFFFFFFFFFFFFFFFFF AND CALLER PUSH20 0xFFFFFFFFFFFFFFFFFFFFFFFFFFFFFFFFFFFFFFFF AND EQ PUSH2 0x930 JUMPI PUSH0 DUP1 REVERT JUMPDEST PUSH0 PUSH1 0xA SLOAD EQ PUSH2 0x974 JUMPI PUSH1 0x40 MLOAD PUSH32 0x8C379A000000000000000000000000000000000000000000000000000000000 DUP2 MSTORE PUSH1 0x4 ADD PUSH2 0x96B SWAP1 PUSH2 0x1A11 JUMP JUMPDEST PUSH1 0x40 MLOAD DUP1 SWAP2 SUB SWAP1 REVERT JUMPDEST DUP1 PUSH1 0x4 DUP2 SWAP1 SSTORE POP POP JUMP JUMPDEST PUSH0 DUP1 SLOAD SWAP1 PUSH2 0x100 EXP SWAP1 DIV PUSH20 0xFFFFFFFFFFFFFFFFFFFFFFFFFFFFFFFFFFFFFFFF AND DUP2 JUMP JUMPDEST PUSH0 DUP1 SLOAD SWAP1 PUSH2 0x100 EXP SWAP1 DIV PUSH20 0xFFFFFFFFFFFFFFFFFFFFFFFFFFFFFFFFFFFFFFFF AND PUSH20 0xFFFFFFFFFFFFFFFFFFFFFFFFFFFFFFFFFFFFFFFF AND CALLER PUSH20 0xFFFFFFFFFFFFFFFFFFFFFFFFFFFFFFFFFFFFFFFF AND EQ PUSH2 0x9F7 JUMPI PUSH0 DUP1 REVERT JUMPDEST PUSH0 PUSH1 0xA SLOAD SWAP1 POP PUSH0 PUSH1 0xA SLOAD SELFBALANCE PUSH2 0xA0C SWAP2 SWAP1 PUSH2 0x16E5 JUMP JUMPDEST SWAP1 POP PUSH0 DUP3 GT PUSH2 0xA50 JUMPI PUSH1 0x40 MLOAD PUSH32 0x8C379A000000000000000000000000000000000000000000000000000000000 DUP2 MSTORE PUSH1 0x4 ADD PUSH2 0xA47 SWAP1 PUSH2 0x1A79 JUMP JUMPDEST PUSH1 0x40 MLOAD DUP1 SWAP2 SUB SWAP1 REVERT JUMPDEST PUSH1 0x2 SLOAD PUSH1 0xA SLOAD EQ PUSH2 0xA96 JUMPI PUSH1 0x40 MLOAD PUSH32 0x8C379A000000000000000000000000000000000000000000000000000000000 DUP2 MSTORE PUSH1 0x4 ADD PUSH2 0xA8D SWAP1 PUSH2 0x1B07 JUMP JUMPDEST PUSH1 0x40 MLOAD DUP1 SWAP2 SUB SWAP1 REVERT JUMPDEST PUSH0 DUP2 GT PUSH2 0xAD8 JUMPI PUSH1 0x40 MLOAD PUSH32 0x8C379A000000000000000000000000000000000000000000000000000000000 DUP2 MSTORE PUSH1 0x4 ADD PUSH2 0xACF SWAP1 PUSH2 0x1B95 JUMP JUMPDEST PUSH1 0x40 MLOAD DUP1 SWAP2 SUB SWAP1 REVERT JUMPDEST PUSH0 PUSH1 0x5 PUSH1 0xC SLOAD PUSH2 0xAE8 SWAP2 SWAP1 PUSH2 0x1BB3 JUMP JUMPDEST SWAP1 POP PUSH0 PUSH1 0xC SLOAD SWAP1 POP JUMPDEST DUP2 DUP2 LT DUP1 ISZERO PUSH2 0xB01 JUMPI POP PUSH1 0xA SLOAD DUP2 LT JUMPDEST ISZERO PUSH2 0xBF7 JUMPI PUSH0 PUSH1 0x8 PUSH0 DUP4 DUP2 MSTORE PUSH1 0x20 ADD SWAP1 DUP2 MSTORE PUSH1 0x20 ADD PUSH0 KECCAK256 PUSH0 SWAP1 SLOAD SWAP1 PUSH2 0x100 EXP SWAP1 DIV PUSH20 0xFFFFFFFFFFFFFFFFFFFFFFFFFFFFFFFFFFFFFFFF AND SWAP1 POP PUSH0 DUP2 PUSH20 0xFFFFFFFFFFFFFFFFFFFFFFFFFFFFFFFFFFFFFFFF AND DUP6 PUSH1 0x40 MLOAD PUSH2 0xB5F SWAP1 PUSH2 0x1C13 JUMP JUMPDEST PUSH0 PUSH1 0x40 MLOAD DUP1 DUP4 SUB DUP2 DUP6 DUP8 GAS CALL SWAP3 POP POP POP RETURNDATASIZE DUP1 PUSH0 DUP2 EQ PUSH2 0xB99 JUMPI PUSH1 0x40 MLOAD SWAP2 POP PUSH1 0x1F NOT PUSH1 0x3F RETURNDATASIZE ADD AND DUP3 ADD PUSH1 0x40 MSTORE RETURNDATASIZE DUP3 MSTORE RETURNDATASIZE PUSH0 PUSH1 0x20 DUP5 ADD RETURNDATACOPY PUSH2 0xB9E JUMP JUMPDEST PUSH1 0x60 SWAP2 POP JUMPDEST POP POP SWAP1 POP DUP1 PUSH2 0xBE2 JUMPI PUSH1 0x40 MLOAD PUSH32 0x8C379A000000000000000000000000000000000000000000000000000000000 DUP2 MSTORE PUSH1 0x4 ADD PUSH2 0xBD9 SWAP1 PUSH2 0x1C71 JUMP JUMPDEST PUSH1 0x40 MLOAD DUP1 SWAP2 SUB SWAP1 REVERT JUMPDEST POP POP DUP1 DUP1 PUSH2 0xBEF SWAP1 PUSH2 0x18A6 JUMP JUMPDEST SWAP2 POP POP PUSH2 0xAF1 JUMP JUMPDEST POP DUP3 DUP2 GT PUSH2 0xC05 JUMPI DUP1 PUSH2 0xC07 JUMP JUMPDEST DUP3 JUMPDEST PUSH1 0xC DUP2 SWAP1 SSTORE POP DUP3 PUSH1 0xC SLOAD SUB PUSH2 0xD18 JUMPI PUSH0 JUMPDEST DUP4 DUP2 LT ISZERO PUSH2 0xCA9 JUMPI PUSH1 0x7 PUSH0 PUSH1 0x8 PUSH0 DUP5 DUP2 MSTORE PUSH1 0x20 ADD SWAP1 DUP2 MSTORE PUSH1 0x20 ADD PUSH0 KECCAK256 PUSH0 SWAP1 SLOAD SWAP1 PUSH2 0x100 EXP SWAP1 DIV PUSH20 0xFFFFFFFFFFFFFFFFFFFFFFFFFFFFFFFFFFFFFFFF AND PUSH20 0xFFFFFFFFFFFFFFFFFFFFFFFFFFFFFFFFFFFFFFFF AND PUSH20 0xFFFFFFFFFFFFFFFFFFFFFFFFFFFFFFFFFFFFFFFF AND DUP2 MSTORE PUSH1 0x20 ADD SWAP1 DUP2 MSTORE PUSH1 0x20 ADD PUSH0 KECCAK256 PUSH0 PUSH2 0x100 EXP DUP2 SLOAD SWAP1 PUSH1 0xFF MUL NOT AND SWAP1 SSTORE DUP1 DUP1 PUSH1 0x1 ADD SWAP2 POP POP PUSH2 0xC18 JUMP JUMPDEST POP PUSH0 PUSH1 0xA DUP2 SWAP1 SSTORE POP PUSH0 PUSH1 0xC DUP2 SWAP1 SSTORE POP PUSH0 PUSH8 0xFFFFFFFFFFFFFFFF DUP2 GT ISZERO PUSH2 0xCD2 JUMPI PUSH2 0xCD1 PUSH2 0x13B1 JUMP JUMPDEST JUMPDEST PUSH1 0x40 MLOAD SWAP1 DUP1 DUP3 MSTORE DUP1 PUSH1 0x20 MUL PUSH1 0x20 ADD DUP3 ADD PUSH1 0x40 MSTORE DUP1 ISZERO PUSH2 0xD00 JUMPI DUP2 PUSH1 0x20 ADD PUSH1 0x20 DUP3 MUL DUP1 CALLDATASIZE DUP4 CALLDATACOPY DUP1 DUP3 ADD SWAP2 POP POP SWAP1 POP JUMPDEST POP PUSH1 0x9 SWAP1 DUP1 MLOAD SWAP1 PUSH1 0x20 ADD SWAP1 PUSH2 0xD16 SWAP3 SWAP2 SWAP1 PUSH2 0xFC0 JUMP JUMPDEST POP JUMPDEST POP POP POP JUMP JUMPDEST PUSH1 0x1 DUP1 SLOAD PUSH2 0xD2A SWAP1 PUSH2 0x1CBC JUMP JUMPDEST DUP1 PUSH1 0x1F ADD PUSH1 0x20 DUP1 SWAP2 DIV MUL PUSH1 0x20 ADD PUSH1 0x40 MLOAD SWAP1 DUP2 ADD PUSH1 0x40 MSTORE DUP1 SWAP3 SWAP2 SWAP1 DUP2 DUP2 MSTORE PUSH1 0x20 ADD DUP3 DUP1 SLOAD PUSH2 0xD56 SWAP1 PUSH2 0x1CBC JUMP JUMPDEST DUP1 ISZERO PUSH2 0xDA1 JUMPI DUP1 PUSH1 0x1F LT PUSH2 0xD78 JUMPI PUSH2 0x100 DUP1 DUP4 SLOAD DIV MUL DUP4 MSTORE SWAP2 PUSH1 0x20 ADD SWAP2 PUSH2 0xDA1 JUMP JUMPDEST DUP3 ADD SWAP2 SWAP1 PUSH0 MSTORE PUSH1 0x20 PUSH0 KECCAK256 SWAP1 JUMPDEST DUP2 SLOAD DUP2 MSTORE SWAP1 PUSH1 0x1 ADD SWAP1 PUSH1 0x20 ADD DUP1 DUP4 GT PUSH2 0xD84 JUMPI DUP3 SWAP1 SUB PUSH1 0x1F AND DUP3 ADD SWAP2 JUMPDEST POP POP POP POP POP DUP2 JUMP JUMPDEST PUSH0 PUSH1 0xC SLOAD SWAP1 POP SWAP1 JUMP JUMPDEST PUSH0 DUP1 SLOAD SWAP1 PUSH2 0x100 EXP SWAP1 DIV PUSH20 0xFFFFFFFFFFFFFFFFFFFFFFFFFFFFFFFFFFFFFFFF AND PUSH20 0xFFFFFFFFFFFFFFFFFFFFFFFFFFFFFFFFFFFFFFFF AND CALLER PUSH20 0xFFFFFFFFFFFFFFFFFFFFFFFFFFFFFFFFFFFFFFFF AND EQ PUSH2 0xE08 JUMPI PUSH0 DUP1 REVERT JUMPDEST PUSH0 JUMPDEST PUSH1 0x5 DUP2 LT ISZERO PUSH2 0xEA5 JUMPI PUSH1 0x1 DUP4 DUP3 PUSH1 0x5 DUP2 LT PUSH2 0xE28 JUMPI PUSH2 0xE27 PUSH2 0x1CEC JUMP JUMPDEST JUMPDEST PUSH1 0x20 MUL ADD MLOAD PUSH1 0xFF AND LT ISZERO DUP1 ISZERO PUSH2 0xE59 JUMPI POP PUSH1 0x32 DUP4 DUP3 PUSH1 0x5 DUP2 LT PUSH2 0xE4E JUMPI PUSH2 0xE4D PUSH2 0x1CEC JUMP JUMPDEST JUMPDEST PUSH1 0x20 MUL ADD MLOAD PUSH1 0xFF AND GT ISZERO JUMPDEST PUSH2 0xE98 JUMPI PUSH1 0x40 MLOAD PUSH32 0x8C379A000000000000000000000000000000000000000000000000000000000 DUP2 MSTORE PUSH1 0x4 ADD PUSH2 0xE8F SWAP1 PUSH2 0x1D89 JUMP JUMPDEST PUSH1 0x40 MLOAD DUP1 SWAP2 SUB SWAP1 REVERT JUMPDEST DUP1 DUP1 PUSH1 0x1 ADD SWAP2 POP POP PUSH2 0xE0A JUMP JUMPDEST POP PUSH0 JUMPDEST PUSH1 0x2 DUP2 LT ISZERO PUSH2 0xF43 JUMPI PUSH1 0x1 DUP3 DUP3 PUSH1 0x2 DUP2 LT PUSH2 0xEC6 JUMPI PUSH2 0xEC5 PUSH2 0x1CEC JUMP JUMPDEST JUMPDEST PUSH1 0x20 MUL ADD MLOAD PUSH1 0xFF AND LT ISZERO DUP1 ISZERO PUSH2 0xEF7 JUMPI POP PUSH1 0xC DUP3 DUP3 PUSH1 0x2 DUP2 LT PUSH2 0xEEC JUMPI PUSH2 0xEEB PUSH2 0x1CEC JUMP JUMPDEST JUMPDEST PUSH1 0x20 MUL ADD MLOAD PUSH1 0xFF AND GT ISZERO JUMPDEST PUSH2 0xF36 JUMPI PUSH1 0x40 MLOAD PUSH32 0x8C379A000000000000000000000000000000000000000000000000000000000 DUP2 MSTORE PUSH1 0x4 ADD PUSH2 0xF2D SWAP1 PUSH2 0x1E17 JUMP JUMPDEST PUSH1 0x40 MLOAD DUP1 SWAP2 SUB SWAP1 REVERT JUMPDEST DUP1 DUP1 PUSH1 0x1 ADD SWAP2 POP POP PUSH2 0xEA8 JUMP JUMPDEST POP PUSH0 PUSH1 0x40 MLOAD DUP1 PUSH1 0x40 ADD PUSH1 0x40 MSTORE DUP1 DUP5 DUP2 MSTORE PUSH1 0x20 ADD DUP4 DUP2 MSTORE POP SWAP1 POP PUSH1 0x5 DUP2 SWAP1 DUP1 PUSH1 0x1 DUP2 SLOAD ADD DUP1 DUP3 SSTORE DUP1 SWAP2 POP POP PUSH1 0x1 SWAP1 SUB SWAP1 PUSH0 MSTORE PUSH1 0x20 PUSH0 KECCAK256 SWAP1 PUSH1 0x2 MUL ADD PUSH0 SWAP1 SWAP2 SWAP1 SWAP2 SWAP1 SWAP2 POP PUSH0 DUP3 ADD MLOAD DUP2 PUSH0 ADD SWAP1 PUSH1 0x5 PUSH2 0xF9A SWAP3 SWAP2 SWAP1 PUSH2 0x1047 JUMP JUMPDEST POP PUSH1 0x20 DUP3 ADD MLOAD DUP2 PUSH1 0x1 ADD SWAP1 PUSH1 0x2 PUSH2 0xFB2 SWAP3 SWAP2 SWAP1 PUSH2 0x10DE JUMP JUMPDEST POP POP POP POP POP POP JUMP JUMPDEST PUSH1 0xB SLOAD DUP2 JUMP JUMPDEST DUP3 DUP1 SLOAD DUP3 DUP3 SSTORE SWAP1 PUSH0 MSTORE PUSH1 0x20 PUSH0 KECCAK256 SWAP1 DUP2 ADD SWAP3 DUP3 ISZERO PUSH2 0x1036 JUMPI SWAP2 PUSH1 0x20 MUL DUP3 ADD JUMPDEST DUP3 DUP2 GT ISZERO PUSH2 0x1035 JUMPI DUP3 MLOAD DUP3 PUSH0 PUSH2 0x100 EXP DUP2 SLOAD DUP2 PUSH20 0xFFFFFFFFFFFFFFFFFFFFFFFFFFFFFFFFFFFFFFFF MUL NOT AND SWAP1 DUP4 PUSH20 0xFFFFFFFFFFFFFFFFFFFFFFFFFFFFFFFFFFFFFFFF AND MUL OR SWAP1 SSTORE POP SWAP2 PUSH1 0x20 ADD SWAP2 SWAP1 PUSH1 0x1 ADD SWAP1 PUSH2 0xFDE JUMP JUMPDEST JUMPDEST POP SWAP1 POP PUSH2 0x1043 SWAP2 SWAP1 PUSH2 0x1175 JUMP JUMPDEST POP SWAP1 JUMP JUMPDEST DUP3 PUSH1 0x5 PUSH1 0x1F ADD PUSH1 0x20 SWAP1 DIV DUP2 ADD SWAP3 DUP3 ISZERO PUSH2 0x10CD JUMPI SWAP2 PUSH1 0x20 MUL DUP3 ADD PUSH0 JUMPDEST DUP4 DUP3 GT ISZERO PUSH2 0x109F JUMPI DUP4 MLOAD DUP4 DUP3 PUSH2 0x100 EXP DUP2 SLOAD DUP2 PUSH1 0xFF MUL NOT AND SWAP1 DUP4 PUSH1 0xFF AND MUL OR SWAP1 SSTORE POP SWAP3 PUSH1 0x20 ADD SWAP3 PUSH1 0x1 ADD PUSH1 0x20 DUP2 PUSH0 ADD DIV SWAP3 DUP4 ADD SWAP3 PUSH1 0x1 SUB MUL PUSH2 0x1062 JUMP JUMPDEST DUP1 ISZERO PUSH2 0x10CB JUMPI DUP3 DUP2 PUSH2 0x100 EXP DUP2 SLOAD SWAP1 PUSH1 0xFF MUL NOT AND SWAP1 SSTORE PUSH1 0x1 ADD PUSH1 0x20 DUP2 PUSH0 ADD DIV SWAP3 DUP4 ADD SWAP3 PUSH1 0x1 SUB MUL PUSH2 0x109F JUMP JUMPDEST POP JUMPDEST POP SWAP1 POP PUSH2 0x10DA SWAP2 SWAP1 PUSH2 0x1175 JUMP JUMPDEST POP SWAP1 JUMP JUMPDEST DUP3 PUSH1 0x2 PUSH1 0x1F ADD PUSH1 0x20 SWAP1 DIV DUP2 ADD SWAP3 DUP3 ISZERO PUSH2 0x1164 JUMPI SWAP2 PUSH1 0x20 MUL DUP3 ADD PUSH0 JUMPDEST DUP4 DUP3 GT ISZERO PUSH2 0x1136 JUMPI DUP4 MLOAD DUP4 DUP3 PUSH2 0x100 EXP DUP2 SLOAD DUP2 PUSH1 0xFF MUL NOT AND SWAP1 DUP4 PUSH1 0xFF AND MUL OR SWAP1 SSTORE POP SWAP3 PUSH1 0x20 ADD SWAP3 PUSH1 0x1 ADD PUSH1 0x20 DUP2 PUSH0 ADD DIV SWAP3 DUP4 ADD SWAP3 PUSH1 0x1 SUB MUL PUSH2 0x10F9 JUMP JUMPDEST DUP1 ISZERO PUSH2 0x1162 JUMPI DUP3 DUP2 PUSH2 0x100 EXP DUP2 SLOAD SWAP1 PUSH1 0xFF MUL NOT AND SWAP1 SSTORE PUSH1 0x1 ADD PUSH1 0x20 DUP2 PUSH0 ADD DIV SWAP3 DUP4 ADD SWAP3 PUSH1 0x1 SUB MUL PUSH2 0x1136 JUMP JUMPDEST POP JUMPDEST POP SWAP1 POP PUSH2 0x1171 SWAP2 SWAP1 PUSH2 0x1175 JUMP JUMPDEST POP SWAP1 JUMP JUMPDEST JUMPDEST DUP1 DUP3 GT ISZERO PUSH2 0x118C JUMPI PUSH0 DUP2 PUSH0 SWAP1 SSTORE POP PUSH1 0x1 ADD PUSH2 0x1176 JUMP JUMPDEST POP SWAP1 JUMP JUMPDEST PUSH0 DUP2 SWAP1 POP SWAP2 SWAP1 POP JUMP JUMPDEST PUSH2 0x11A2 DUP2 PUSH2 0x1190 JUMP JUMPDEST DUP3 MSTORE POP POP JUMP JUMPDEST PUSH0 PUSH1 0x20 DUP3 ADD SWAP1 POP PUSH2 0x11BB PUSH0 DUP4 ADD DUP5 PUSH2 0x1199 JUMP JUMPDEST SWAP3 SWAP2 POP POP JUMP JUMPDEST PUSH0 PUSH1 0x40 MLOAD SWAP1 POP SWAP1 JUMP JUMPDEST PUSH0 DUP1 REVERT JUMPDEST PUSH2 0x11D7 DUP2 PUSH2 0x1190 JUMP JUMPDEST DUP2 EQ PUSH2 0x11E1 JUMPI PUSH0 DUP1 REVERT JUMPDEST POP JUMP JUMPDEST PUSH0 DUP2 CALLDATALOAD SWAP1 POP PUSH2 0x11F2 DUP2 PUSH2 0x11CE JUMP JUMPDEST SWAP3 SWAP2 POP POP JUMP JUMPDEST PUSH0 PUSH1 0x20 DUP3 DUP5 SUB SLT ISZERO PUSH2 0x120D JUMPI PUSH2 0x120C PUSH2 0x11CA JUMP JUMPDEST JUMPDEST PUSH0 PUSH2 0x121A DUP5 DUP3 DUP6 ADD PUSH2 0x11E4 JUMP JUMPDEST SWAP2 POP POP SWAP3 SWAP2 POP POP JUMP JUMPDEST PUSH0 PUSH20 0xFFFFFFFFFFFFFFFFFFFFFFFFFFFFFFFFFFFFFFFF DUP3 AND SWAP1 POP SWAP2 SWAP1 POP JUMP JUMPDEST PUSH0 PUSH2 0x124C DUP3 PUSH2 0x1223 JUMP JUMPDEST SWAP1 POP SWAP2 SWAP1 POP JUMP JUMPDEST PUSH2 0x125C DUP2 PUSH2 0x1242 JUMP JUMPDEST DUP2 EQ PUSH2 0x1266 JUMPI PUSH0 DUP1 REVERT JUMPDEST POP JUMP JUMPDEST PUSH0 DUP2 CALLDATALOAD SWAP1 POP PUSH2 0x1277 DUP2 PUSH2 0x1253 JUMP JUMPDEST SWAP3 SWAP2 POP POP JUMP JUMPDEST PUSH0 PUSH1 0x20 DUP3 DUP5 SUB SLT ISZERO PUSH2 0x1292 JUMPI PUSH2 0x1291 PUSH2 0x11CA JUMP JUMPDEST JUMPDEST PUSH0 PUSH2 0x129F DUP5 DUP3 DUP6 ADD PUSH2 0x1269 JUMP JUMPDEST SWAP2 POP POP SWAP3 SWAP2 POP POP JUMP JUMPDEST PUSH0 DUP2 ISZERO ISZERO SWAP1 POP SWAP2 SWAP1 POP JUMP JUMPDEST PUSH2 0x12BC DUP2 PUSH2 0x12A8 JUMP JUMPDEST DUP3 MSTORE POP POP JUMP JUMPDEST PUSH0 PUSH1 0x20 DUP3 ADD SWAP1 POP PUSH2 0x12D5 PUSH0 DUP4 ADD DUP5 PUSH2 0x12B3 JUMP JUMPDEST SWAP3 SWAP2 POP POP JUMP JUMPDEST PUSH2 0x12E4 DUP2 PUSH2 0x1242 JUMP JUMPDEST DUP3 MSTORE POP POP JUMP JUMPDEST PUSH0 PUSH1 0x20 DUP3 ADD SWAP1 POP PUSH2 0x12FD PUSH0 DUP4 ADD DUP5 PUSH2 0x12DB JUMP JUMPDEST SWAP3 SWAP2 POP POP JUMP JUMPDEST PUSH0 DUP2 MLOAD SWAP1 POP SWAP2 SWAP1 POP JUMP JUMPDEST PUSH0 DUP3 DUP3 MSTORE PUSH1 0x20 DUP3 ADD SWAP1 POP SWAP3 SWAP2 POP POP JUMP JUMPDEST PUSH0 JUMPDEST DUP4 DUP2 LT ISZERO PUSH2 0x133A JUMPI DUP1 DUP3 ADD MLOAD DUP2 DUP5 ADD MSTORE PUSH1 0x20 DUP2 ADD SWAP1 POP PUSH2 0x131F JUMP JUMPDEST PUSH0 DUP5 DUP5 ADD MSTORE POP POP POP POP JUMP JUMPDEST PUSH0 PUSH1 0x1F NOT PUSH1 0x1F DUP4 ADD AND SWAP1 POP SWAP2 SWAP1 POP JUMP JUMPDEST PUSH0 PUSH2 0x135F DUP3 PUSH2 0x1303 JUMP JUMPDEST PUSH2 0x1369 DUP2 DUP6 PUSH2 0x130D JUMP JUMPDEST SWAP4 POP PUSH2 0x1379 DUP2 DUP6 PUSH1 0x20 DUP7 ADD PUSH2 0x131D JUMP JUMPDEST PUSH2 0x1382 DUP2 PUSH2 0x1345 JUMP JUMPDEST DUP5 ADD SWAP2 POP POP SWAP3 SWAP2 POP POP JUMP JUMPDEST PUSH0 PUSH1 0x20 DUP3 ADD SWAP1 POP DUP2 DUP2 SUB PUSH0 DUP4 ADD MSTORE PUSH2 0x13A5 DUP2 DUP5 PUSH2 0x1355 JUMP JUMPDEST SWAP1 POP SWAP3 SWAP2 POP POP JUMP JUMPDEST PUSH0 DUP1 REVERT JUMPDEST PUSH32 0x4E487B7100000000000000000000000000000000000000000000000000000000 PUSH0 MSTORE PUSH1 0x41 PUSH1 0x4 MSTORE PUSH1 0x24 PUSH0 REVERT JUMPDEST PUSH2 0x13E7 DUP3 PUSH2 0x1345 JUMP JUMPDEST DUP2 ADD DUP2 DUP2 LT PUSH8 0xFFFFFFFFFFFFFFFF DUP3 GT OR ISZERO PUSH2 0x1406 JUMPI PUSH2 0x1405 PUSH2 0x13B1 JUMP JUMPDEST JUMPDEST DUP1 PUSH1 0x40 MSTORE POP POP POP JUMP JUMPDEST PUSH0 PUSH2 0x1418 PUSH2 0x11C1 JUMP JUMPDEST SWAP1 POP PUSH2 0x1424 DUP3 DUP3 PUSH2 0x13DE JUMP JUMPDEST SWAP2 SWAP1 POP JUMP JUMPDEST PUSH0 PUSH8 0xFFFFFFFFFFFFFFFF DUP3 GT ISZERO PUSH2 0x1443 JUMPI PUSH2 0x1442 PUSH2 0x13B1 JUMP JUMPDEST JUMPDEST PUSH1 0x20 DUP3 MUL SWAP1 POP SWAP2 SWAP1 POP JUMP JUMPDEST PUSH0 DUP1 REVERT JUMPDEST PUSH0 PUSH1 0xFF DUP3 AND SWAP1 POP SWAP2 SWAP1 POP JUMP JUMPDEST PUSH2 0x1467 DUP2 PUSH2 0x1452 JUMP JUMPDEST DUP2 EQ PUSH2 0x1471 JUMPI PUSH0 DUP1 REVERT JUMPDEST POP JUMP JUMPDEST PUSH0 DUP2 CALLDATALOAD SWAP1 POP PUSH2 0x1482 DUP2 PUSH2 0x145E JUMP JUMPDEST SWAP3 SWAP2 POP POP JUMP JUMPDEST PUSH0 PUSH2 0x149A PUSH2 0x1495 DUP5 PUSH2 0x1429 JUMP JUMPDEST PUSH2 0x140F JUMP JUMPDEST SWAP1 POP DUP1 PUSH1 0x20 DUP5 MUL DUP4 ADD DUP6 DUP2 GT ISZERO PUSH2 0x14B4 JUMPI PUSH2 0x14B3 PUSH2 0x144E JUMP JUMPDEST JUMPDEST DUP4 JUMPDEST DUP2 DUP2 LT ISZERO PUSH2 0x14DD JUMPI DUP1 PUSH2 0x14C9 DUP9 DUP3 PUSH2 0x1474 JUMP JUMPDEST DUP5 MSTORE PUSH1 0x20 DUP5 ADD SWAP4 POP POP PUSH1 0x20 DUP2 ADD SWAP1 POP PUSH2 0x14B6 JUMP JUMPDEST POP POP POP SWAP4 SWAP3 POP POP POP JUMP JUMPDEST PUSH0 DUP3 PUSH1 0x1F DUP4 ADD SLT PUSH2 0x14FB JUMPI PUSH2 0x14FA PUSH2 0x13AD JUMP JUMPDEST JUMPDEST PUSH1 0x5 PUSH2 0x1508 DUP5 DUP3 DUP6 PUSH2 0x1488 JUMP JUMPDEST SWAP2 POP POP SWAP3 SWAP2 POP POP JUMP JUMPDEST PUSH0 PUSH8 0xFFFFFFFFFFFFFFFF DUP3 GT ISZERO PUSH2 0x152B JUMPI PUSH2 0x152A PUSH2 0x13B1 JUMP JUMPDEST JUMPDEST PUSH1 0x20 DUP3 MUL SWAP1 POP SWAP2 SWAP1 POP JUMP JUMPDEST PUSH0 PUSH2 0x1548 PUSH2 0x1543 DUP5 PUSH2 0x1511 JUMP JUMPDEST PUSH2 0x140F JUMP JUMPDEST SWAP1 POP DUP1 PUSH1 0x20 DUP5 MUL DUP4 ADD DUP6 DUP2 GT ISZERO PUSH2 0x1562 JUMPI PUSH2 0x1561 PUSH2 0x144E JUMP JUMPDEST JUMPDEST DUP4 JUMPDEST DUP2 DUP2 LT ISZERO PUSH2 0x158B JUMPI DUP1 PUSH2 0x1577 DUP9 DUP3 PUSH2 0x1474 JUMP JUMPDEST DUP5 MSTORE PUSH1 0x20 DUP5 ADD SWAP4 POP POP PUSH1 0x20 DUP2 ADD SWAP1 POP PUSH2 0x1564 JUMP JUMPDEST POP POP POP SWAP4 SWAP3 POP POP POP JUMP JUMPDEST PUSH0 DUP3 PUSH1 0x1F DUP4 ADD SLT PUSH2 0x15A9 JUMPI PUSH2 0x15A8 PUSH2 0x13AD JUMP JUMPDEST JUMPDEST PUSH1 0x2 PUSH2 0x15B6 DUP5 DUP3 DUP6 PUSH2 0x1536 JUMP JUMPDEST SWAP2 POP POP SWAP3 SWAP2 POP POP JUMP JUMPDEST PUSH0 DUP1 PUSH1 0xE0 DUP4 DUP6 SUB SLT ISZERO PUSH2 0x15D5 JUMPI PUSH2 0x15D4 PUSH2 0x11CA JUMP JUMPDEST JUMPDEST PUSH0 PUSH2 0x15E2 DUP6 DUP3 DUP7 ADD PUSH2 0x14E7 JUMP JUMPDEST SWAP3 POP POP PUSH1 0xA0 PUSH2 0x15F3 DUP6 DUP3 DUP7 ADD PUSH2 0x1595 JUMP JUMPDEST SWAP2 POP POP SWAP3 POP SWAP3 SWAP1 POP JUMP JUMPDEST PUSH32 0x45696E7A61686C756E6773626574726167206D7573732067726F657373657220 PUSH0 DUP3 ADD MSTORE PUSH32 0x616C732030207365696E00000000000000000000000000000000000000000000 PUSH1 0x20 DUP3 ADD MSTORE POP JUMP JUMPDEST PUSH0 PUSH2 0x1657 PUSH1 0x2A DUP4 PUSH2 0x130D JUMP JUMPDEST SWAP2 POP PUSH2 0x1662 DUP3 PUSH2 0x15FD JUMP JUMPDEST PUSH1 0x40 DUP3 ADD SWAP1 POP SWAP2 SWAP1 POP JUMP JUMPDEST PUSH0 PUSH1 0x20 DUP3 ADD SWAP1 POP DUP2 DUP2 SUB PUSH0 DUP4 ADD MSTORE PUSH2 0x1684 DUP2 PUSH2 0x164B JUMP JUMPDEST SWAP1 POP SWAP2 SWAP1 POP JUMP JUMPDEST PUSH32 0x4E487B7100000000000000000000000000000000000000000000000000000000 PUSH0 MSTORE PUSH1 0x12 PUSH1 0x4 MSTORE PUSH1 0x24 PUSH0 REVERT JUMPDEST PUSH32 0x4E487B7100000000000000000000000000000000000000000000000000000000 PUSH0 MSTORE PUSH1 0x11 PUSH1 0x4 MSTORE PUSH1 0x24 PUSH0 REVERT JUMPDEST PUSH0 PUSH2 0x16EF DUP3 PUSH2 0x1190 JUMP JUMPDEST SWAP2 POP PUSH2 0x16FA DUP4 PUSH2 0x1190 JUMP JUMPDEST SWAP3 POP DUP3 PUSH2 0x170A JUMPI PUSH2 0x1709 PUSH2 0x168B JUMP JUMPDEST JUMPDEST DUP3 DUP3 DIV SWAP1 POP SWAP3 SWAP2 POP POP JUMP JUMPDEST PUSH32 0x5A7520676572696E6765722045696E7A61686C756E6773626574726167000000 PUSH0 DUP3 ADD MSTORE POP JUMP JUMPDEST PUSH0 PUSH2 0x1749 PUSH1 0x1D DUP4 PUSH2 0x130D JUMP JUMPDEST SWAP2 POP PUSH2 0x1754 DUP3 PUSH2 0x1715 JUMP JUMPDEST PUSH1 0x20 DUP3 ADD SWAP1 POP SWAP2 SWAP1 POP JUMP JUMPDEST PUSH0 PUSH1 0x20 DUP3 ADD SWAP1 POP DUP2 DUP2 SUB PUSH0 DUP4 ADD MSTORE PUSH2 0x1776 DUP2 PUSH2 0x173D JUMP JUMPDEST SWAP1 POP SWAP2 SWAP1 POP JUMP JUMPDEST PUSH32 0x4265726569747320616C73204D6974737069656C657220726567697374726965 PUSH0 DUP3 ADD MSTORE PUSH32 0x7274000000000000000000000000000000000000000000000000000000000000 PUSH1 0x20 DUP3 ADD MSTORE POP JUMP JUMPDEST PUSH0 PUSH2 0x17D7 PUSH1 0x22 DUP4 PUSH2 0x130D JUMP JUMPDEST SWAP2 POP PUSH2 0x17E2 DUP3 PUSH2 0x177D JUMP JUMPDEST PUSH1 0x40 DUP3 ADD SWAP1 POP SWAP2 SWAP1 POP JUMP JUMPDEST PUSH0 PUSH1 0x20 DUP3 ADD SWAP1 POP DUP2 DUP2 SUB PUSH0 DUP4 ADD MSTORE PUSH2 0x1804 DUP2 PUSH2 0x17CB JUMP JUMPDEST SWAP1 POP SWAP2 SWAP1 POP JUMP JUMPDEST PUSH32 0x4D6178696D616C65205465696C6E65686D65727A61686C206572726569636874 PUSH0 DUP3 ADD MSTORE POP JUMP JUMPDEST PUSH0 PUSH2 0x183F PUSH1 0x20 DUP4 PUSH2 0x130D JUMP JUMPDEST SWAP2 POP PUSH2 0x184A DUP3 PUSH2 0x180B JUMP JUMPDEST PUSH1 0x20 DUP3 ADD SWAP1 POP SWAP2 SWAP1 POP JUMP JUMPDEST PUSH0 PUSH1 0x20 DUP3 ADD SWAP1 POP DUP2 DUP2 SUB PUSH0 DUP4 ADD MSTORE PUSH2 0x186C DUP2 PUSH2 0x1833 JUMP JUMPDEST SWAP1 POP SWAP2 SWAP1 POP JUMP JUMPDEST PUSH0 PUSH2 0x187D DUP3 PUSH2 0x1190 JUMP JUMPDEST SWAP2 POP PUSH2 0x1888 DUP4 PUSH2 0x1190 JUMP JUMPDEST SWAP3 POP DUP3 DUP3 SUB SWAP1 POP DUP2 DUP2 GT ISZERO PUSH2 0x18A0 JUMPI PUSH2 0x189F PUSH2 0x16B8 JUMP JUMPDEST JUMPDEST SWAP3 SWAP2 POP POP JUMP JUMPDEST PUSH0 PUSH2 0x18B0 DUP3 PUSH2 0x1190 JUMP JUMPDEST SWAP2 POP PUSH32 0xFFFFFFFFFFFFFFFFFFFFFFFFFFFFFFFFFFFFFFFFFFFFFFFFFFFFFFFFFFFFFFFF DUP3 SUB PUSH2 0x18E2 JUMPI PUSH2 0x18E1 PUSH2 0x16B8 JUMP JUMPDEST JUMPDEST PUSH1 0x1 DUP3 ADD SWAP1 POP SWAP2 SWAP1 POP JUMP JUMPDEST PUSH32 0x457320676962742062657265697473204D6974737069656C65722E2041656E64 PUSH0 DUP3 ADD MSTORE PUSH32 0x6572756E672064657220416E7A61686C20616E204D6974737069656C65726E20 PUSH1 0x20 DUP3 ADD MSTORE PUSH32 0x6E69636874206D656872206D6F65676C6963682E000000000000000000000000 PUSH1 0x40 DUP3 ADD MSTORE POP JUMP JUMPDEST PUSH0 PUSH2 0x196D PUSH1 0x54 DUP4 PUSH2 0x130D JUMP JUMPDEST SWAP2 POP PUSH2 0x1978 DUP3 PUSH2 0x18ED JUMP JUMPDEST PUSH1 0x60 DUP3 ADD SWAP1 POP SWAP2 SWAP1 POP JUMP JUMPDEST PUSH0 PUSH1 0x20 DUP3 ADD SWAP1 POP DUP2 DUP2 SUB PUSH0 DUP4 ADD MSTORE PUSH2 0x199A DUP2 PUSH2 0x1961 JUMP JUMPDEST SWAP1 POP SWAP2 SWAP1 POP JUMP JUMPDEST PUSH32 0x457320676962742062657265697473204D6974737069656C65722E2050726569 PUSH0 DUP3 ADD MSTORE PUSH32 0x7361656E646572756E67206E69636874206D656872206D6F65676C6963682E00 PUSH1 0x20 DUP3 ADD MSTORE POP JUMP JUMPDEST PUSH0 PUSH2 0x19FB PUSH1 0x3F DUP4 PUSH2 0x130D JUMP JUMPDEST SWAP2 POP PUSH2 0x1A06 DUP3 PUSH2 0x19A1 JUMP JUMPDEST PUSH1 0x40 DUP3 ADD SWAP1 POP SWAP2 SWAP1 POP JUMP JUMPDEST PUSH0 PUSH1 0x20 DUP3 ADD SWAP1 POP DUP2 DUP2 SUB PUSH0 DUP4 ADD MSTORE PUSH2 0x1A28 DUP2 PUSH2 0x19EF JUMP JUMPDEST SWAP1 POP SWAP2 SWAP1 POP JUMP JUMPDEST PUSH32 0x4B65696E65204D6974737069656C657220766F7268616E64656E000000000000 PUSH0 DUP3 ADD MSTORE POP JUMP JUMPDEST PUSH0 PUSH2 0x1A63 PUSH1 0x1A DUP4 PUSH2 0x130D JUMP JUMPDEST SWAP2 POP PUSH2 0x1A6E DUP3 PUSH2 0x1A2F JUMP JUMPDEST PUSH1 0x20 DUP3 ADD SWAP1 POP SWAP2 SWAP1 POP JUMP JUMPDEST PUSH0 PUSH1 0x20 DUP3 ADD SWAP1 POP DUP2 DUP2 SUB PUSH0 DUP4 ADD MSTORE PUSH2 0x1A90 DUP2 PUSH2 0x1A57 JUMP JUMPDEST SWAP1 POP SWAP2 SWAP1 POP JUMP JUMPDEST PUSH32 0x4E6963687420616C6C65204D6974737069656C657220686162656E207465696C PUSH0 DUP3 ADD MSTORE PUSH32 0x67656E6F6D6D656E000000000000000000000000000000000000000000000000 PUSH1 0x20 DUP3 ADD MSTORE POP JUMP JUMPDEST PUSH0 PUSH2 0x1AF1 PUSH1 0x28 DUP4 PUSH2 0x130D JUMP JUMPDEST SWAP2 POP PUSH2 0x1AFC DUP3 PUSH2 0x1A97 JUMP JUMPDEST PUSH1 0x40 DUP3 ADD SWAP1 POP SWAP2 SWAP1 POP JUMP JUMPDEST PUSH0 PUSH1 0x20 DUP3 ADD SWAP1 POP DUP2 DUP2 SUB PUSH0 DUP4 ADD MSTORE PUSH2 0x1B1E DUP2 PUSH2 0x1AE5 JUMP JUMPDEST SWAP1 POP SWAP2 SWAP1 POP JUMP JUMPDEST PUSH32 0x4E696368742067656E756567656E6420477574686162656E2066756572204175 PUSH0 DUP3 ADD MSTORE PUSH32 0x737A61686C756E67000000000000000000000000000000000000000000000000 PUSH1 0x20 DUP3 ADD MSTORE POP JUMP JUMPDEST PUSH0 PUSH2 0x1B7F PUSH1 0x28 DUP4 PUSH2 0x130D JUMP JUMPDEST SWAP2 POP PUSH2 0x1B8A DUP3 PUSH2 0x1B25 JUMP JUMPDEST PUSH1 0x40 DUP3 ADD SWAP1 POP SWAP2 SWAP1 POP JUMP JUMPDEST PUSH0 PUSH1 0x20 DUP3 ADD SWAP1 POP DUP2 DUP2 SUB PUSH0 DUP4 ADD MSTORE PUSH2 0x1BAC DUP2 PUSH2 0x1B73 JUMP JUMPDEST SWAP1 POP SWAP2 SWAP1 POP JUMP JUMPDEST PUSH0 PUSH2 0x1BBD DUP3 PUSH2 0x1190 JUMP JUMPDEST SWAP2 POP PUSH2 0x1BC8 DUP4 PUSH2 0x1190 JUMP JUMPDEST SWAP3 POP DUP3 DUP3 ADD SWAP1 POP DUP1 DUP3 GT ISZERO PUSH2 0x1BE0 JUMPI PUSH2 0x1BDF PUSH2 0x16B8 JUMP JUMPDEST JUMPDEST SWAP3 SWAP2 POP POP JUMP JUMPDEST PUSH0 DUP2 SWAP1 POP SWAP3 SWAP2 POP POP JUMP JUMPDEST POP JUMP JUMPDEST PUSH0 PUSH2 0x1BFE PUSH0 DUP4 PUSH2 0x1BE6 JUMP JUMPDEST SWAP2 POP PUSH2 0x1C09 DUP3 PUSH2 0x1BF0 JUMP JUMPDEST PUSH0 DUP3 ADD SWAP1 POP SWAP2 SWAP1 POP JUMP JUMPDEST PUSH0 PUSH2 0x1C1D DUP3 PUSH2 0x1BF3 JUMP JUMPDEST SWAP2 POP DUP2 SWAP1 POP SWAP2 SWAP1 POP JUMP JUMPDEST PUSH32 0x4175737A61686C756E67206665686C67657363686C6167656E00000000000000 PUSH0 DUP3 ADD MSTORE POP JUMP JUMPDEST PUSH0 PUSH2 0x1C5B PUSH1 0x19 DUP4 PUSH2 0x130D JUMP JUMPDEST SWAP2 POP PUSH2 0x1C66 DUP3 PUSH2 0x1C27 JUMP JUMPDEST PUSH1 0x20 DUP3 ADD SWAP1 POP SWAP2 SWAP1 POP JUMP JUMPDEST PUSH0 PUSH1 0x20 DUP3 ADD SWAP1 POP DUP2 DUP2 SUB PUSH0 DUP4 ADD MSTORE PUSH2 0x1C88 DUP2 PUSH2 0x1C4F JUMP JUMPDEST SWAP1 POP SWAP2 SWAP1 POP JUMP JUMPDEST PUSH32 0x4E487B7100000000000000000000000000000000000000000000000000000000 PUSH0 MSTORE PUSH1 0x22 PUSH1 0x4 MSTORE PUSH1 0x24 PUSH0 REVERT JUMPDEST PUSH0 PUSH1 0x2 DUP3 DIV SWAP1 POP PUSH1 0x1 DUP3 AND DUP1 PUSH2 0x1CD3 JUMPI PUSH1 0x7F DUP3 AND SWAP2 POP JUMPDEST PUSH1 0x20 DUP3 LT DUP2 SUB PUSH2 0x1CE6 JUMPI PUSH2 0x1CE5 PUSH2 0x1C8F JUMP JUMPDEST JUMPDEST POP SWAP2 SWAP1 POP JUMP JUMPDEST PUSH32 0x4E487B7100000000000000000000000000000000000000000000000000000000 PUSH0 MSTORE PUSH1 0x32 PUSH1 0x4 MSTORE PUSH1 0x24 PUSH0 REVERT JUMPDEST PUSH32 0x48617570747A61686C2061757373657268616C62206465732042657265696368 PUSH0 DUP3 ADD MSTORE PUSH32 0x7300000000000000000000000000000000000000000000000000000000000000 PUSH1 0x20 DUP3 ADD MSTORE POP JUMP JUMPDEST PUSH0 PUSH2 0x1D73 PUSH1 0x21 DUP4 PUSH2 0x130D JUMP JUMPDEST SWAP2 POP PUSH2 0x1D7E DUP3 PUSH2 0x1D19 JUMP JUMPDEST PUSH1 0x40 DUP3 ADD SWAP1 POP SWAP2 SWAP1 POP JUMP JUMPDEST PUSH0 PUSH1 0x20 DUP3 ADD SWAP1 POP DUP2 DUP2 SUB PUSH0 DUP4 ADD MSTORE PUSH2 0x1DA0 DUP2 PUSH2 0x1D67 JUMP JUMPDEST SWAP1 POP SWAP2 SWAP1 POP JUMP JUMPDEST PUSH32 0x5A757361747A7A61686C2061757373657268616C622064657320426572656963 PUSH0 DUP3 ADD MSTORE PUSH32 0x6873000000000000000000000000000000000000000000000000000000000000 PUSH1 0x20 DUP3 ADD MSTORE POP JUMP JUMPDEST PUSH0 PUSH2 0x1E01 PUSH1 0x22 DUP4 PUSH2 0x130D JUMP JUMPDEST SWAP2 POP PUSH2 0x1E0C DUP3 PUSH2 0x1DA7 JUMP JUMPDEST PUSH1 0x40 DUP3 ADD SWAP1 POP SWAP2 SWAP1 POP JUMP JUMPDEST PUSH0 PUSH1 0x20 DUP3 ADD SWAP1 POP DUP2 DUP2 SUB PUSH0 DUP4 ADD MSTORE PUSH2 0x1E2E DUP2 PUSH2 0x1DF5 JUMP JUMPDEST SWAP1 POP SWAP2 SWAP1 POP JUMP INVALID LOG2 PUSH5 0x6970667358 0x22 SLT KECCAK256 SWAP1 0xDC DUP3 0xB9 0xCA SGT 0xD7 0xDC 0xA6 DUP6 0x26 DUP9 BYTE PUSH23 0x4F742F6CE0BE338F79913225BE57EA7870A464736F6C63 NUMBER STOP ADDMOD OR STOP CALLER "},"gasEstimates":{"creation":{"codeDepositCost":"1557400","executionCost":"infinite","totalCost":"infinite"},"external":{"anzahlLottotipps()":"2514","anzahlMitspielerAendern(uint256)":"26848","anzahlTeilnehmerAktuell()":"2515","auszahlen()":"infinite","auszahlung()":"2449","getAuszahlungsIndex()":"2498","gewinnBetrag()":"2535","gewinnEinzahlen(uint256)":"24724","gruender()":"2594","lottotippEintragen(uint8[5],uint8[2])":"infinite","maxTeilnehmerAnzahl()":"2448","mitmachen()":"infinite","mitspieler(address)":"2901","mitspielerAddressen(uint256)":"5055","mitspielerIndex(uint256)":"2872","preisLottoschein()":"2448","preisLottoscheinAendern(uint256)":"26870","tippgemeinschaftsName()":"infinite"}},"methodIdentifiers":{"anzahlLottotipps()":"535c98dd","anzahlMitspielerAendern(uint256)":"822b8023","anzahlTeilnehmerAktuell()":"3babb15a","auszahlen()":"bb864be3","auszahlung()":"084263f5","getAuszahlungsIndex()":"d78c28dc","gewinnBetrag()":"edaa52c5","gewinnEinzahlen(uint256)":"311e73da","gruender()":"ad2c046c","lottotippEintragen(uint8[5],uint8[2])":"e75b3b25","maxTeilnehmerAnzahl()":"70a41bc0","mitmachen()":"526024ea","mitspieler(address)":"36927060","mitspielerAddressen(uint256)":"6f07affb","mitspielerIndex(uint256)":"4a5ae1cf","preisLottoschein()":"3f0f5d51","preisLottoscheinAendern(uint256)":"8e5676fd","tippgemeinschaftsName()":"d27d06c0"}},"storageLayout":{"storage":[{"astId":87,"contract":"Lottogemeinschaft.sol:Lottogemeinschaft","label":"gruender","offset":0,"slot":"0","type":"t_address"},{"astId":89,"contract":"Lottogemeinschaft.sol:Lottogemeinschaft","label":"tippgemeinschaftsName","offset":0,"slot":"1","type":"t_string_storage"},{"astId":91,"contract":"Lottogemeinschaft.sol:Lottogemeinschaft","label":"maxTeilnehmerAnzahl","offset":0,"slot":"2","type":"t_uint256"},{"astId":93,"contract":"Lottogemeinschaft.sol:Lottogemeinschaft","label":"auszahlung","offset":0,"slot":"3","type":"t_uint256"},{"astId":95,"contract":"Lottogemeinschaft.sol:Lottogemeinschaft","label":"preisLottoschein","offset":0,"slot":"4","type":"t_uint256"},{"astId":99,"contract":"Lottogemeinschaft.sol:Lottogemeinschaft","label":"lottoschein","offset":0,"slot":"5","type":"t_array(t_struct(Lottotipp)85_storage)dyn_storage"},{"astId":101,"contract":"Lottogemeinschaft.sol:Lottogemeinschaft","label":"anzahlLottotipps","offset":0,"slot":"6","type":"t_uint256"},{"astId":105,"contract":"Lottogemeinschaft.sol:Lottogemeinschaft","label":"mitspieler","offset":0,"slot":"7","type":"t_mapping(t_address,t_bool)"},{"astId":109,"contract":"Lottogemeinschaft.sol:Lottogemeinschaft","label":"mitspielerIndex","offset":0,"slot":"8","type":"t_mapping(t_uint256,t_address)"},{"astId":112,"contract":"Lottogemeinschaft.sol:Lottogemeinschaft","label":"mitspielerAddressen","offset":0,"slot":"9","type":"t_array(t_address)dyn_storage"},{"astId":114,"contract":"Lottogemeinschaft.sol:Lottogemeinschaft","label":"anzahlTeilnehmerAktuell","offset":0,"slot":"10","type":"t_uint256"},{"astId":117,"contract":"Lottogemeinschaft.sol:Lottogemeinschaft","label":"gewinnBetrag","offset":0,"slot":"11","type":"t_uint256"},{"astId":120,"contract":"Lottogemeinschaft.sol:Lottogemeinschaft","label":"auszahlungsIndex","offset":0,"slot":"12","type":"t_uint256"},{"astId":135,"contract":"Lottogemeinschaft.sol:Lottogemeinschaft","label":"erlaubteMitspieler","offset":0,"slot":"13","type":"t_mapping(t_address,t_bool)"}],"types":{"t_address":{"encoding":"inplace","label":"address","numberOfBytes":"20"},"t_array(t_address)dyn_storage":{"base":"t_address","encoding":"dynamic_array","label":"address[]","numberOfBytes":"32"},"t_array(t_struct(Lottotipp)85_storage)dyn_storage":{"base":"t_struct(Lottotipp)85_storage","encoding":"dynamic_array","label":"struct Lottogemeinschaft.Lottotipp[]","numberOfBytes":"32"},"t_array(t_uint8)2_storage":{"base":"t_uint8","encoding":"inplace","label":"uint8[2]","numberOfBytes":"32"},"t_array(t_uint8)5_storage":{"base":"t_uint8","encoding":"inplace","label":"uint8[5]","numberOfBytes":"32"},"t_bool":{"encoding":"inplace","label":"bool","numberOfBytes":"1"},"t_mapping(t_address,t_bool)":{"encoding":"mapping","key":"t_address","label":"mapping(address => bool)","numberOfBytes":"32","value":"t_bool"},"t_mapping(t_uint256,t_address)":{"encoding":"mapping","key":"t_uint256","label":"mapping(uint256 => address)","numberOfBytes":"32","value":"t_address"},"t_string_storage":{"encoding":"bytes","label":"string","numberOfBytes":"32"},"t_struct(Lottotipp)85_storage":{"encoding":"inplace","label":"struct Lottogemeinschaft.Lottotipp","members":[{"astId":80,"contract":"Lottogemeinschaft.sol:Lottogemeinschaft","label":"hauptzahlen","offset":0,"slot":"0","type":"t_array(t_uint8)5_storage"},{"astId":84,"contract":"Lottogemeinschaft.sol:Lottogemeinschaft","label":"zusatzzahlen","offset":0,"slot":"1","type":"t_array(t_uint8)2_storage"}],"numberOfBytes":"64"},"t_uint256":{"encoding":"inplace","label":"uint256","numberOfBytes":"32"},"t_uint8":{"encoding":"inplace","label":"uint8","numberOfBytes":"1"}}},"userdoc":{"kind":"user","methods":{},"version":1}}