{"abi":[{"inputs":[{"internalType":"string","name":"name","type":"string"},{"internalType":"address","name":"ersteller","type":"address"},{"internalType":"uint256","name":"anzahl","type":"uint256"},{"internalType":"uint256","name":"preis","type":"uint256"},{"internalType":"string","name":"scheinNummer","type":"string"},{"internalType":"bool","name":"mitspielerBestimmen","type":"bool"}],"stateMutability":"nonpayable","type":"constructor"},{"inputs":[{"internalType":"uint256","name":"neueAnzahlMaxTeilnehmer","type":"uint256"}],"name":"anzahlMitspielerAendern","outputs":[],"stateMutability":"nonpayable","type":"function"},{"inputs":[],"name":"anzahlTeilnehmerAktuell","outputs":[{"internalType":"uint256","name":"","type":"uint256"}],"stateMutability":"view","type":"function"},{"inputs":[],"name":"aufgeloest","outputs":[{"internalType":"bool","name":"","type":"bool"}],"stateMutability":"view","type":"function"},{"inputs":[],"name":"auszahlung","outputs":[{"internalType":"uint256","name":"","type":"uint256"}],"stateMutability":"view","type":"function"},{"inputs":[{"internalType":"address","name":"","type":"address"}],"name":"einsatzZurueckGezahlt","outputs":[{"internalType":"bool","name":"","type":"bool"}],"stateMutability":"view","type":"function"},{"inputs":[],"name":"einsatzZurueckholen","outputs":[],"stateMutability":"nonpayable","type":"function"},{"inputs":[{"internalType":"address","name":"_erlaubterMitspieler","type":"address"}],"name":"erlaubteMitspielerAdresseHinzufuegen","outputs":[],"stateMutability":"nonpayable","type":"function"},{"inputs":[{"internalType":"address","name":"","type":"address"}],"name":"erlaubterMitspieler","outputs":[{"internalType":"bool","name":"","type":"bool"}],"stateMutability":"view","type":"function"},{"inputs":[],"name":"gemeinschaftAufloesen","outputs":[],"stateMutability":"nonpayable","type":"function"},{"inputs":[],"name":"gewinnAbholen","outputs":[],"stateMutability":"nonpayable","type":"function"},{"inputs":[{"internalType":"address","name":"","type":"address"}],"name":"gewinnAusgezahlt","outputs":[{"internalType":"bool","name":"","type":"bool"}],"stateMutability":"view","type":"function"},{"inputs":[{"internalType":"uint256","name":"gewinn","type":"uint256"}],"name":"gewinnEinzahlen","outputs":[],"stateMutability":"payable","type":"function"},{"inputs":[],"name":"gewinnKannAbgeholtWerden","outputs":[{"internalType":"bool","name":"","type":"bool"}],"stateMutability":"view","type":"function"},{"inputs":[],"name":"gewinnProMitspieler","outputs":[{"internalType":"uint256","name":"","type":"uint256"}],"stateMutability":"view","type":"function"},{"inputs":[],"name":"gruender","outputs":[{"internalType":"address","name":"","type":"address"}],"stateMutability":"view","type":"function"},{"inputs":[],"name":"maxTeilnehmerAnzahl","outputs":[{"internalType":"uint256","name":"","type":"uint256"}],"stateMutability":"view","type":"function"},{"inputs":[],"name":"mitmachen","outputs":[],"stateMutability":"payable","type":"function"},{"inputs":[{"internalType":"address","name":"","type":"address"}],"name":"mitspieler","outputs":[{"internalType":"bool","name":"","type":"bool"}],"stateMutability":"view","type":"function"},{"inputs":[],"name":"nurErlaubteMitspieler","outputs":[{"internalType":"bool","name":"","type":"bool"}],"stateMutability":"view","type":"function"},{"inputs":[],"name":"preisLottoschein","outputs":[{"internalType":"uint256","name":"","type":"uint256"}],"stateMutability":"view","type":"function"},{"inputs":[{"internalType":"uint256","name":"neuerPreis","type":"uint256"}],"name":"preisLottoscheinAendern","outputs":[],"stateMutability":"nonpayable","type":"function"},{"inputs":[],"name":"preisProMitspieler","outputs":[{"internalType":"uint256","name":"","type":"uint256"}],"stateMutability":"view","type":"function"},{"inputs":[],"name":"spielauftragsNummer","outputs":[{"internalType":"string","name":"","type":"string"}],"stateMutability":"view","type":"function"},{"inputs":[],"name":"tippgemeinschaftsName","outputs":[{"internalType":"string","name":"","type":"string"}],"stateMutability":"view","type":"function"}],"devdoc":{"kind":"dev","methods":{},"version":1},"evm":{"assembly":"    /* \"Lottogemeinschaft.sol\":1709:7245  contract Lottogemeinschaft {... */\n  mstore(0x40, 0x80)\n    /* \"Lottogemeinschaft.sol\":2246:2247  0 */\n  0x00\n    /* \"Lottogemeinschaft.sol\":2209:2247  uint256 public gewinnProMitspieler = 0 */\n  0x0b\n  sstore\n    /* \"Lottogemeinschaft.sol\":2290:2295  false */\n  0x00\n    /* \"Lottogemeinschaft.sol\":2253:2295  bool public gewinnKannAbgeholtWerden=false */\n  0x0c\n  exp(0x0100, 0x00)\n  dup2\n  sload\n  dup2\n  0xff\n  mul\n  not\n  and\n  swap1\n  dup4\n  iszero\n  iszero\n  mul\n  or\n  swap1\n  sstore\n  pop\n    /* \"Lottogemeinschaft.sol\":2335:2340  false */\n  0x00\n    /* \"Lottogemeinschaft.sol\":2301:2340  bool public nurErlaubteMitspieler=false */\n  0x0c\n  exp(0x0100, 0x01)\n  dup2\n  sload\n  dup2\n  0xff\n  mul\n  not\n  and\n  swap1\n  dup4\n  iszero\n  iszero\n  mul\n  or\n  swap1\n  sstore\n  pop\n    /* \"Lottogemeinschaft.sol\":2457:3089  constructor (string memory name, address ersteller, uint256  anzahl, uint256  preis, string memory scheinNummer, bool mitspielerBestimmen) {... */\n  callvalue\n  dup1\n  iszero\n  tag_1\n  jumpi\n  0x00\n  dup1\n  revert\ntag_1:\n  pop\n  mload(0x40)\n  sub(codesize, bytecodeSize)\n  dup1\n  bytecodeSize\n  dup4\n  codecopy\n  dup2\n  dup2\n  add\n  0x40\n  mstore\n  dup2\n  add\n  swap1\n  tag_2\n  swap2\n  swap1\n  tag_3\n  jump\t// in\ntag_2:\n    /* \"Lottogemeinschaft.sol\":2623:2628  65535 */\n  0xffff\n    /* \"Lottogemeinschaft.sol\":2614:2620  anzahl */\n  dup5\n    /* \"Lottogemeinschaft.sol\":2614:2628  anzahl < 65535 */\n  lt\n    /* \"Lottogemeinschaft.sol\":2606:2665  require(anzahl < 65535, \"Maximal 65534 Mitspieler erlaubt\") */\n  tag_6\n  jumpi\n  mload(0x40)\n  0x08c379a000000000000000000000000000000000000000000000000000000000\n  dup2\n  mstore\n  0x04\n  add\n  tag_7\n  swap1\n  tag_8\n  jump\t// in\ntag_7:\n  mload(0x40)\n  dup1\n  swap2\n  sub\n  swap1\n  revert\ntag_6:\n    /* \"Lottogemeinschaft.sol\":2691:2701  4294967295 */\n  0xffffffff\n    /* \"Lottogemeinschaft.sol\":2683:2688  preis */\n  dup4\n    /* \"Lottogemeinschaft.sol\":2683:2701  preis < 4294967295 */\n  lt\n    /* \"Lottogemeinschaft.sol\":2675:2732  require(preis < 4294967295, \"Maximaler Preis 4294967295\") */\n  tag_9\n  jumpi\n  mload(0x40)\n  0x08c379a000000000000000000000000000000000000000000000000000000000\n  dup2\n  mstore\n  0x04\n  add\n  tag_10\n  swap1\n  tag_11\n  jump\t// in\ntag_10:\n  mload(0x40)\n  dup1\n  swap2\n  sub\n  swap1\n  revert\ntag_9:\n    /* \"Lottogemeinschaft.sol\":2753:2762  ersteller */\n  dup5\n    /* \"Lottogemeinschaft.sol\":2742:2750  gruender */\n  0x00\n  dup1\n    /* \"Lottogemeinschaft.sol\":2742:2762  gruender = ersteller */\n  0x0100\n  exp\n  dup2\n  sload\n  dup2\n  0xffffffffffffffffffffffffffffffffffffffff\n  mul\n  not\n  and\n  swap1\n  dup4\n  0xffffffffffffffffffffffffffffffffffffffff\n  and\n  mul\n  or\n  swap1\n  sstore\n  pop\n    /* \"Lottogemeinschaft.sol\":2796:2800  name */\n  dup6\n    /* \"Lottogemeinschaft.sol\":2772:2793  tippgemeinschaftsName */\n  0x01\n    /* \"Lottogemeinschaft.sol\":2772:2800  tippgemeinschaftsName = name */\n  swap1\n  dup2\n  tag_12\n  swap2\n  swap1\n  tag_13\n  jump\t// in\ntag_12:\n  pop\n    /* \"Lottogemeinschaft.sol\":2832:2838  anzahl */\n  dup4\n    /* \"Lottogemeinschaft.sol\":2810:2829  maxTeilnehmerAnzahl */\n  0x02\n    /* \"Lottogemeinschaft.sol\":2810:2838  maxTeilnehmerAnzahl = anzahl */\n  dup2\n  swap1\n  sstore\n  pop\n    /* \"Lottogemeinschaft.sol\":2867:2872  preis */\n  dup3\n    /* \"Lottogemeinschaft.sol\":2848:2864  preisLottoschein */\n  0x03\n    /* \"Lottogemeinschaft.sol\":2848:2872  preisLottoschein = preis */\n  dup2\n  swap1\n  sstore\n  pop\n    /* \"Lottogemeinschaft.sol\":2906:2925  mitspielerBestimmen */\n  dup1\n    /* \"Lottogemeinschaft.sol\":2882:2903  nurErlaubteMitspieler */\n  0x0c\n  0x01\n    /* \"Lottogemeinschaft.sol\":2882:2925  nurErlaubteMitspieler = mitspielerBestimmen */\n  0x0100\n  exp\n  dup2\n  sload\n  dup2\n  0xff\n  mul\n  not\n  and\n  swap1\n  dup4\n  iszero\n  iszero\n  mul\n  or\n  swap1\n  sstore\n  pop\n    /* \"Lottogemeinschaft.sol\":2957:2969  scheinNummer */\n  dup2\n    /* \"Lottogemeinschaft.sol\":2935:2954  spielauftragsNummer */\n  0x05\n    /* \"Lottogemeinschaft.sol\":2935:2969  spielauftragsNummer = scheinNummer */\n  swap1\n  dup2\n  tag_14\n  swap2\n  swap1\n  tag_13\n  jump\t// in\ntag_14:\n  pop\n    /* \"Lottogemeinschaft.sol\":3048:3052  1e18 */\n  0x0de0b6b3a7640000\n    /* \"Lottogemeinschaft.sol\":3026:3045  maxTeilnehmerAnzahl */\n  sload(0x02)\n    /* \"Lottogemeinschaft.sol\":3019:3023  1e18 */\n  0x0de0b6b3a7640000\n    /* \"Lottogemeinschaft.sol\":3000:3016  preisLottoschein */\n  sload(0x03)\n    /* \"Lottogemeinschaft.sol\":3000:3023  preisLottoschein * 1e18 */\n  tag_15\n  swap2\n  swap1\n  tag_16\n  jump\t// in\ntag_15:\n    /* \"Lottogemeinschaft.sol\":3000:3045  preisLottoschein * 1e18 / maxTeilnehmerAnzahl */\n  tag_17\n  swap2\n  swap1\n  tag_18\n  jump\t// in\ntag_17:\n    /* \"Lottogemeinschaft.sol\":3000:3052  preisLottoschein * 1e18 / maxTeilnehmerAnzahl / 1e18 */\n  tag_19\n  swap2\n  swap1\n  tag_18\n  jump\t// in\ntag_19:\n    /* \"Lottogemeinschaft.sol\":2979:2997  preisProMitspieler */\n  0x04\n    /* \"Lottogemeinschaft.sol\":2979:3052  preisProMitspieler = preisLottoschein * 1e18 / maxTeilnehmerAnzahl / 1e18 */\n  dup2\n  swap1\n  sstore\n  pop\n    /* \"Lottogemeinschaft.sol\":2457:3089  constructor (string memory name, address ersteller, uint256  anzahl, uint256  preis, string memory scheinNummer, bool mitspielerBestimmen) {... */\n  pop\n  pop\n  pop\n  pop\n  pop\n  pop\n    /* \"Lottogemeinschaft.sol\":1709:7245  contract Lottogemeinschaft {... */\n  jump(tag_20)\n    /* \"#utility.yul\":7:82   */\ntag_21:\n    /* \"#utility.yul\":40:46   */\n  0x00\n    /* \"#utility.yul\":73:75   */\n  0x40\n    /* \"#utility.yul\":67:76   */\n  mload\n    /* \"#utility.yul\":57:76   */\n  swap1\n  pop\n    /* \"#utility.yul\":7:82   */\n  swap1\n  jump\t// out\n    /* \"#utility.yul\":88:205   */\ntag_22:\n    /* \"#utility.yul\":197:198   */\n  0x00\n    /* \"#utility.yul\":194:195   */\n  dup1\n    /* \"#utility.yul\":187:199   */\n  revert\n    /* \"#utility.yul\":211:328   */\ntag_23:\n    /* \"#utility.yul\":320:321   */\n  0x00\n    /* \"#utility.yul\":317:318   */\n  dup1\n    /* \"#utility.yul\":310:322   */\n  revert\n    /* \"#utility.yul\":334:451   */\ntag_24:\n    /* \"#utility.yul\":443:444   */\n  0x00\n    /* \"#utility.yul\":440:441   */\n  dup1\n    /* \"#utility.yul\":433:445   */\n  revert\n    /* \"#utility.yul\":457:574   */\ntag_25:\n    /* \"#utility.yul\":566:567   */\n  0x00\n    /* \"#utility.yul\":563:564   */\n  dup1\n    /* \"#utility.yul\":556:568   */\n  revert\n    /* \"#utility.yul\":580:682   */\ntag_26:\n    /* \"#utility.yul\":621:627   */\n  0x00\n    /* \"#utility.yul\":672:674   */\n  0x1f\n    /* \"#utility.yul\":668:675   */\n  not\n    /* \"#utility.yul\":663:665   */\n  0x1f\n    /* \"#utility.yul\":656:661   */\n  dup4\n    /* \"#utility.yul\":652:666   */\n  add\n    /* \"#utility.yul\":648:676   */\n  and\n    /* \"#utility.yul\":638:676   */\n  swap1\n  pop\n    /* \"#utility.yul\":580:682   */\n  swap2\n  swap1\n  pop\n  jump\t// out\n    /* \"#utility.yul\":688:868   */\ntag_27:\n    /* \"#utility.yul\":736:813   */\n  0x4e487b7100000000000000000000000000000000000000000000000000000000\n    /* \"#utility.yul\":733:734   */\n  0x00\n    /* \"#utility.yul\":726:814   */\n  mstore\n    /* \"#utility.yul\":833:837   */\n  0x41\n    /* \"#utility.yul\":830:831   */\n  0x04\n    /* \"#utility.yul\":823:838   */\n  mstore\n    /* \"#utility.yul\":857:861   */\n  0x24\n    /* \"#utility.yul\":854:855   */\n  0x00\n    /* \"#utility.yul\":847:862   */\n  revert\n    /* \"#utility.yul\":874:1155   */\ntag_28:\n    /* \"#utility.yul\":957:984   */\n  tag_78\n    /* \"#utility.yul\":979:983   */\n  dup3\n    /* \"#utility.yul\":957:984   */\n  tag_26\n  jump\t// in\ntag_78:\n    /* \"#utility.yul\":949:955   */\n  dup2\n    /* \"#utility.yul\":945:985   */\n  add\n    /* \"#utility.yul\":1087:1093   */\n  dup2\n    /* \"#utility.yul\":1075:1085   */\n  dup2\n    /* \"#utility.yul\":1072:1094   */\n  lt\n    /* \"#utility.yul\":1051:1069   */\n  0xffffffffffffffff\n    /* \"#utility.yul\":1039:1049   */\n  dup3\n    /* \"#utility.yul\":1036:1070   */\n  gt\n    /* \"#utility.yul\":1033:1095   */\n  or\n    /* \"#utility.yul\":1030:1118   */\n  iszero\n  tag_79\n  jumpi\n    /* \"#utility.yul\":1098:1116   */\n  tag_80\n  tag_27\n  jump\t// in\ntag_80:\n    /* \"#utility.yul\":1030:1118   */\ntag_79:\n    /* \"#utility.yul\":1138:1148   */\n  dup1\n    /* \"#utility.yul\":1134:1136   */\n  0x40\n    /* \"#utility.yul\":1127:1149   */\n  mstore\n    /* \"#utility.yul\":917:1155   */\n  pop\n    /* \"#utility.yul\":874:1155   */\n  pop\n  pop\n  jump\t// out\n    /* \"#utility.yul\":1161:1290   */\ntag_29:\n    /* \"#utility.yul\":1195:1201   */\n  0x00\n    /* \"#utility.yul\":1222:1242   */\n  tag_82\n  tag_21\n  jump\t// in\ntag_82:\n    /* \"#utility.yul\":1212:1242   */\n  swap1\n  pop\n    /* \"#utility.yul\":1251:1284   */\n  tag_83\n    /* \"#utility.yul\":1279:1283   */\n  dup3\n    /* \"#utility.yul\":1271:1277   */\n  dup3\n    /* \"#utility.yul\":1251:1284   */\n  tag_28\n  jump\t// in\ntag_83:\n    /* \"#utility.yul\":1161:1290   */\n  swap2\n  swap1\n  pop\n  jump\t// out\n    /* \"#utility.yul\":1296:1604   */\ntag_30:\n    /* \"#utility.yul\":1358:1362   */\n  0x00\n    /* \"#utility.yul\":1448:1466   */\n  0xffffffffffffffff\n    /* \"#utility.yul\":1440:1446   */\n  dup3\n    /* \"#utility.yul\":1437:1467   */\n  gt\n    /* \"#utility.yul\":1434:1490   */\n  iszero\n  tag_85\n  jumpi\n    /* \"#utility.yul\":1470:1488   */\n  tag_86\n  tag_27\n  jump\t// in\ntag_86:\n    /* \"#utility.yul\":1434:1490   */\ntag_85:\n    /* \"#utility.yul\":1508:1537   */\n  tag_87\n    /* \"#utility.yul\":1530:1536   */\n  dup3\n    /* \"#utility.yul\":1508:1537   */\n  tag_26\n  jump\t// in\ntag_87:\n    /* \"#utility.yul\":1500:1537   */\n  swap1\n  pop\n    /* \"#utility.yul\":1592:1596   */\n  0x20\n    /* \"#utility.yul\":1586:1590   */\n  dup2\n    /* \"#utility.yul\":1582:1597   */\n  add\n    /* \"#utility.yul\":1574:1597   */\n  swap1\n  pop\n    /* \"#utility.yul\":1296:1604   */\n  swap2\n  swap1\n  pop\n  jump\t// out\n    /* \"#utility.yul\":1610:1856   */\ntag_31:\n    /* \"#utility.yul\":1691:1692   */\n  0x00\n    /* \"#utility.yul\":1701:1814   */\ntag_89:\n    /* \"#utility.yul\":1715:1721   */\n  dup4\n    /* \"#utility.yul\":1712:1713   */\n  dup2\n    /* \"#utility.yul\":1709:1722   */\n  lt\n    /* \"#utility.yul\":1701:1814   */\n  iszero\n  tag_91\n  jumpi\n    /* \"#utility.yul\":1800:1801   */\n  dup1\n    /* \"#utility.yul\":1795:1798   */\n  dup3\n    /* \"#utility.yul\":1791:1802   */\n  add\n    /* \"#utility.yul\":1785:1803   */\n  mload\n    /* \"#utility.yul\":1781:1782   */\n  dup2\n    /* \"#utility.yul\":1776:1779   */\n  dup5\n    /* \"#utility.yul\":1772:1783   */\n  add\n    /* \"#utility.yul\":1765:1804   */\n  mstore\n    /* \"#utility.yul\":1737:1739   */\n  0x20\n    /* \"#utility.yul\":1734:1735   */\n  dup2\n    /* \"#utility.yul\":1730:1740   */\n  add\n    /* \"#utility.yul\":1725:1740   */\n  swap1\n  pop\n    /* \"#utility.yul\":1701:1814   */\n  jump(tag_89)\ntag_91:\n    /* \"#utility.yul\":1848:1849   */\n  0x00\n    /* \"#utility.yul\":1839:1845   */\n  dup5\n    /* \"#utility.yul\":1834:1837   */\n  dup5\n    /* \"#utility.yul\":1830:1846   */\n  add\n    /* \"#utility.yul\":1823:1850   */\n  mstore\n    /* \"#utility.yul\":1672:1856   */\n  pop\n    /* \"#utility.yul\":1610:1856   */\n  pop\n  pop\n  pop\n  jump\t// out\n    /* \"#utility.yul\":1862:2296   */\ntag_32:\n    /* \"#utility.yul\":1951:1956   */\n  0x00\n    /* \"#utility.yul\":1976:2042   */\n  tag_93\n    /* \"#utility.yul\":1992:2041   */\n  tag_94\n    /* \"#utility.yul\":2034:2040   */\n  dup5\n    /* \"#utility.yul\":1992:2041   */\n  tag_30\n  jump\t// in\ntag_94:\n    /* \"#utility.yul\":1976:2042   */\n  tag_29\n  jump\t// in\ntag_93:\n    /* \"#utility.yul\":1967:2042   */\n  swap1\n  pop\n    /* \"#utility.yul\":2065:2071   */\n  dup3\n    /* \"#utility.yul\":2058:2063   */\n  dup2\n    /* \"#utility.yul\":2051:2072   */\n  mstore\n    /* \"#utility.yul\":2103:2107   */\n  0x20\n    /* \"#utility.yul\":2096:2101   */\n  dup2\n    /* \"#utility.yul\":2092:2108   */\n  add\n    /* \"#utility.yul\":2141:2144   */\n  dup5\n    /* \"#utility.yul\":2132:2138   */\n  dup5\n    /* \"#utility.yul\":2127:2130   */\n  dup5\n    /* \"#utility.yul\":2123:2139   */\n  add\n    /* \"#utility.yul\":2120:2145   */\n  gt\n    /* \"#utility.yul\":2117:2229   */\n  iszero\n  tag_95\n  jumpi\n    /* \"#utility.yul\":2148:2227   */\n  tag_96\n  tag_25\n  jump\t// in\ntag_96:\n    /* \"#utility.yul\":2117:2229   */\ntag_95:\n    /* \"#utility.yul\":2238:2290   */\n  tag_97\n    /* \"#utility.yul\":2283:2289   */\n  dup5\n    /* \"#utility.yul\":2278:2281   */\n  dup3\n    /* \"#utility.yul\":2273:2276   */\n  dup6\n    /* \"#utility.yul\":2238:2290   */\n  tag_31\n  jump\t// in\ntag_97:\n    /* \"#utility.yul\":1957:2296   */\n  pop\n    /* \"#utility.yul\":1862:2296   */\n  swap4\n  swap3\n  pop\n  pop\n  pop\n  jump\t// out\n    /* \"#utility.yul\":2316:2671   */\ntag_33:\n    /* \"#utility.yul\":2383:2388   */\n  0x00\n    /* \"#utility.yul\":2432:2435   */\n  dup3\n    /* \"#utility.yul\":2425:2429   */\n  0x1f\n    /* \"#utility.yul\":2417:2423   */\n  dup4\n    /* \"#utility.yul\":2413:2430   */\n  add\n    /* \"#utility.yul\":2409:2436   */\n  slt\n    /* \"#utility.yul\":2399:2521   */\n  tag_99\n  jumpi\n    /* \"#utility.yul\":2440:2519   */\n  tag_100\n  tag_24\n  jump\t// in\ntag_100:\n    /* \"#utility.yul\":2399:2521   */\ntag_99:\n    /* \"#utility.yul\":2550:2556   */\n  dup2\n    /* \"#utility.yul\":2544:2557   */\n  mload\n    /* \"#utility.yul\":2575:2665   */\n  tag_101\n    /* \"#utility.yul\":2661:2664   */\n  dup5\n    /* \"#utility.yul\":2653:2659   */\n  dup3\n    /* \"#utility.yul\":2646:2650   */\n  0x20\n    /* \"#utility.yul\":2638:2644   */\n  dup7\n    /* \"#utility.yul\":2634:2651   */\n  add\n    /* \"#utility.yul\":2575:2665   */\n  tag_32\n  jump\t// in\ntag_101:\n    /* \"#utility.yul\":2566:2665   */\n  swap2\n  pop\n    /* \"#utility.yul\":2389:2671   */\n  pop\n    /* \"#utility.yul\":2316:2671   */\n  swap3\n  swap2\n  pop\n  pop\n  jump\t// out\n    /* \"#utility.yul\":2677:2803   */\ntag_34:\n    /* \"#utility.yul\":2714:2721   */\n  0x00\n    /* \"#utility.yul\":2754:2796   */\n  0xffffffffffffffffffffffffffffffffffffffff\n    /* \"#utility.yul\":2747:2752   */\n  dup3\n    /* \"#utility.yul\":2743:2797   */\n  and\n    /* \"#utility.yul\":2732:2797   */\n  swap1\n  pop\n    /* \"#utility.yul\":2677:2803   */\n  swap2\n  swap1\n  pop\n  jump\t// out\n    /* \"#utility.yul\":2809:2905   */\ntag_35:\n    /* \"#utility.yul\":2846:2853   */\n  0x00\n    /* \"#utility.yul\":2875:2899   */\n  tag_104\n    /* \"#utility.yul\":2893:2898   */\n  dup3\n    /* \"#utility.yul\":2875:2899   */\n  tag_34\n  jump\t// in\ntag_104:\n    /* \"#utility.yul\":2864:2899   */\n  swap1\n  pop\n    /* \"#utility.yul\":2809:2905   */\n  swap2\n  swap1\n  pop\n  jump\t// out\n    /* \"#utility.yul\":2911:3033   */\ntag_36:\n    /* \"#utility.yul\":2984:3008   */\n  tag_106\n    /* \"#utility.yul\":3002:3007   */\n  dup2\n    /* \"#utility.yul\":2984:3008   */\n  tag_35\n  jump\t// in\ntag_106:\n    /* \"#utility.yul\":2977:2982   */\n  dup2\n    /* \"#utility.yul\":2974:3009   */\n  eq\n    /* \"#utility.yul\":2964:3027   */\n  tag_107\n  jumpi\n    /* \"#utility.yul\":3023:3024   */\n  0x00\n    /* \"#utility.yul\":3020:3021   */\n  dup1\n    /* \"#utility.yul\":3013:3025   */\n  revert\n    /* \"#utility.yul\":2964:3027   */\ntag_107:\n    /* \"#utility.yul\":2911:3033   */\n  pop\n  jump\t// out\n    /* \"#utility.yul\":3039:3182   */\ntag_37:\n    /* \"#utility.yul\":3096:3101   */\n  0x00\n    /* \"#utility.yul\":3127:3133   */\n  dup2\n    /* \"#utility.yul\":3121:3134   */\n  mload\n    /* \"#utility.yul\":3112:3134   */\n  swap1\n  pop\n    /* \"#utility.yul\":3143:3176   */\n  tag_109\n    /* \"#utility.yul\":3170:3175   */\n  dup2\n    /* \"#utility.yul\":3143:3176   */\n  tag_36\n  jump\t// in\ntag_109:\n    /* \"#utility.yul\":3039:3182   */\n  swap3\n  swap2\n  pop\n  pop\n  jump\t// out\n    /* \"#utility.yul\":3188:3265   */\ntag_38:\n    /* \"#utility.yul\":3225:3232   */\n  0x00\n    /* \"#utility.yul\":3254:3259   */\n  dup2\n    /* \"#utility.yul\":3243:3259   */\n  swap1\n  pop\n    /* \"#utility.yul\":3188:3265   */\n  swap2\n  swap1\n  pop\n  jump\t// out\n    /* \"#utility.yul\":3271:3393   */\ntag_39:\n    /* \"#utility.yul\":3344:3368   */\n  tag_112\n    /* \"#utility.yul\":3362:3367   */\n  dup2\n    /* \"#utility.yul\":3344:3368   */\n  tag_38\n  jump\t// in\ntag_112:\n    /* \"#utility.yul\":3337:3342   */\n  dup2\n    /* \"#utility.yul\":3334:3369   */\n  eq\n    /* \"#utility.yul\":3324:3387   */\n  tag_113\n  jumpi\n    /* \"#utility.yul\":3383:3384   */\n  0x00\n    /* \"#utility.yul\":3380:3381   */\n  dup1\n    /* \"#utility.yul\":3373:3385   */\n  revert\n    /* \"#utility.yul\":3324:3387   */\ntag_113:\n    /* \"#utility.yul\":3271:3393   */\n  pop\n  jump\t// out\n    /* \"#utility.yul\":3399:3542   */\ntag_40:\n    /* \"#utility.yul\":3456:3461   */\n  0x00\n    /* \"#utility.yul\":3487:3493   */\n  dup2\n    /* \"#utility.yul\":3481:3494   */\n  mload\n    /* \"#utility.yul\":3472:3494   */\n  swap1\n  pop\n    /* \"#utility.yul\":3503:3536   */\n  tag_115\n    /* \"#utility.yul\":3530:3535   */\n  dup2\n    /* \"#utility.yul\":3503:3536   */\n  tag_39\n  jump\t// in\ntag_115:\n    /* \"#utility.yul\":3399:3542   */\n  swap3\n  swap2\n  pop\n  pop\n  jump\t// out\n    /* \"#utility.yul\":3548:3638   */\ntag_41:\n    /* \"#utility.yul\":3582:3589   */\n  0x00\n    /* \"#utility.yul\":3625:3630   */\n  dup2\n    /* \"#utility.yul\":3618:3631   */\n  iszero\n    /* \"#utility.yul\":3611:3632   */\n  iszero\n    /* \"#utility.yul\":3600:3632   */\n  swap1\n  pop\n    /* \"#utility.yul\":3548:3638   */\n  swap2\n  swap1\n  pop\n  jump\t// out\n    /* \"#utility.yul\":3644:3760   */\ntag_42:\n    /* \"#utility.yul\":3714:3735   */\n  tag_118\n    /* \"#utility.yul\":3729:3734   */\n  dup2\n    /* \"#utility.yul\":3714:3735   */\n  tag_41\n  jump\t// in\ntag_118:\n    /* \"#utility.yul\":3707:3712   */\n  dup2\n    /* \"#utility.yul\":3704:3736   */\n  eq\n    /* \"#utility.yul\":3694:3754   */\n  tag_119\n  jumpi\n    /* \"#utility.yul\":3750:3751   */\n  0x00\n    /* \"#utility.yul\":3747:3748   */\n  dup1\n    /* \"#utility.yul\":3740:3752   */\n  revert\n    /* \"#utility.yul\":3694:3754   */\ntag_119:\n    /* \"#utility.yul\":3644:3760   */\n  pop\n  jump\t// out\n    /* \"#utility.yul\":3766:3903   */\ntag_43:\n    /* \"#utility.yul\":3820:3825   */\n  0x00\n    /* \"#utility.yul\":3851:3857   */\n  dup2\n    /* \"#utility.yul\":3845:3858   */\n  mload\n    /* \"#utility.yul\":3836:3858   */\n  swap1\n  pop\n    /* \"#utility.yul\":3867:3897   */\n  tag_121\n    /* \"#utility.yul\":3891:3896   */\n  dup2\n    /* \"#utility.yul\":3867:3897   */\n  tag_42\n  jump\t// in\ntag_121:\n    /* \"#utility.yul\":3766:3903   */\n  swap3\n  swap2\n  pop\n  pop\n  jump\t// out\n    /* \"#utility.yul\":3909:5383   */\ntag_3:\n    /* \"#utility.yul\":4041:4047   */\n  0x00\n    /* \"#utility.yul\":4049:4055   */\n  dup1\n    /* \"#utility.yul\":4057:4063   */\n  0x00\n    /* \"#utility.yul\":4065:4071   */\n  dup1\n    /* \"#utility.yul\":4073:4079   */\n  0x00\n    /* \"#utility.yul\":4081:4087   */\n  dup1\n    /* \"#utility.yul\":4130:4133   */\n  0xc0\n    /* \"#utility.yul\":4118:4127   */\n  dup8\n    /* \"#utility.yul\":4109:4116   */\n  dup10\n    /* \"#utility.yul\":4105:4128   */\n  sub\n    /* \"#utility.yul\":4101:4134   */\n  slt\n    /* \"#utility.yul\":4098:4218   */\n  iszero\n  tag_123\n  jumpi\n    /* \"#utility.yul\":4137:4216   */\n  tag_124\n  tag_22\n  jump\t// in\ntag_124:\n    /* \"#utility.yul\":4098:4218   */\ntag_123:\n    /* \"#utility.yul\":4278:4279   */\n  0x00\n    /* \"#utility.yul\":4267:4276   */\n  dup8\n    /* \"#utility.yul\":4263:4280   */\n  add\n    /* \"#utility.yul\":4257:4281   */\n  mload\n    /* \"#utility.yul\":4308:4326   */\n  0xffffffffffffffff\n    /* \"#utility.yul\":4300:4306   */\n  dup2\n    /* \"#utility.yul\":4297:4327   */\n  gt\n    /* \"#utility.yul\":4294:4411   */\n  iszero\n  tag_125\n  jumpi\n    /* \"#utility.yul\":4330:4409   */\n  tag_126\n  tag_23\n  jump\t// in\ntag_126:\n    /* \"#utility.yul\":4294:4411   */\ntag_125:\n    /* \"#utility.yul\":4435:4509   */\n  tag_127\n    /* \"#utility.yul\":4501:4508   */\n  dup10\n    /* \"#utility.yul\":4492:4498   */\n  dup3\n    /* \"#utility.yul\":4481:4490   */\n  dup11\n    /* \"#utility.yul\":4477:4499   */\n  add\n    /* \"#utility.yul\":4435:4509   */\n  tag_33\n  jump\t// in\ntag_127:\n    /* \"#utility.yul\":4425:4509   */\n  swap7\n  pop\n    /* \"#utility.yul\":4228:4519   */\n  pop\n    /* \"#utility.yul\":4558:4560   */\n  0x20\n    /* \"#utility.yul\":4584:4648   */\n  tag_128\n    /* \"#utility.yul\":4640:4647   */\n  dup10\n    /* \"#utility.yul\":4631:4637   */\n  dup3\n    /* \"#utility.yul\":4620:4629   */\n  dup11\n    /* \"#utility.yul\":4616:4638   */\n  add\n    /* \"#utility.yul\":4584:4648   */\n  tag_37\n  jump\t// in\ntag_128:\n    /* \"#utility.yul\":4574:4648   */\n  swap6\n  pop\n    /* \"#utility.yul\":4529:4658   */\n  pop\n    /* \"#utility.yul\":4697:4699   */\n  0x40\n    /* \"#utility.yul\":4723:4787   */\n  tag_129\n    /* \"#utility.yul\":4779:4786   */\n  dup10\n    /* \"#utility.yul\":4770:4776   */\n  dup3\n    /* \"#utility.yul\":4759:4768   */\n  dup11\n    /* \"#utility.yul\":4755:4777   */\n  add\n    /* \"#utility.yul\":4723:4787   */\n  tag_40\n  jump\t// in\ntag_129:\n    /* \"#utility.yul\":4713:4787   */\n  swap5\n  pop\n    /* \"#utility.yul\":4668:4797   */\n  pop\n    /* \"#utility.yul\":4836:4838   */\n  0x60\n    /* \"#utility.yul\":4862:4926   */\n  tag_130\n    /* \"#utility.yul\":4918:4925   */\n  dup10\n    /* \"#utility.yul\":4909:4915   */\n  dup3\n    /* \"#utility.yul\":4898:4907   */\n  dup11\n    /* \"#utility.yul\":4894:4916   */\n  add\n    /* \"#utility.yul\":4862:4926   */\n  tag_40\n  jump\t// in\ntag_130:\n    /* \"#utility.yul\":4852:4926   */\n  swap4\n  pop\n    /* \"#utility.yul\":4807:4936   */\n  pop\n    /* \"#utility.yul\":4996:4999   */\n  0x80\n    /* \"#utility.yul\":4985:4994   */\n  dup8\n    /* \"#utility.yul\":4981:5000   */\n  add\n    /* \"#utility.yul\":4975:5001   */\n  mload\n    /* \"#utility.yul\":5028:5046   */\n  0xffffffffffffffff\n    /* \"#utility.yul\":5020:5026   */\n  dup2\n    /* \"#utility.yul\":5017:5047   */\n  gt\n    /* \"#utility.yul\":5014:5131   */\n  iszero\n  tag_131\n  jumpi\n    /* \"#utility.yul\":5050:5129   */\n  tag_132\n  tag_23\n  jump\t// in\ntag_132:\n    /* \"#utility.yul\":5014:5131   */\ntag_131:\n    /* \"#utility.yul\":5155:5229   */\n  tag_133\n    /* \"#utility.yul\":5221:5228   */\n  dup10\n    /* \"#utility.yul\":5212:5218   */\n  dup3\n    /* \"#utility.yul\":5201:5210   */\n  dup11\n    /* \"#utility.yul\":5197:5219   */\n  add\n    /* \"#utility.yul\":5155:5229   */\n  tag_33\n  jump\t// in\ntag_133:\n    /* \"#utility.yul\":5145:5229   */\n  swap3\n  pop\n    /* \"#utility.yul\":4946:5239   */\n  pop\n    /* \"#utility.yul\":5278:5281   */\n  0xa0\n    /* \"#utility.yul\":5305:5366   */\n  tag_134\n    /* \"#utility.yul\":5358:5365   */\n  dup10\n    /* \"#utility.yul\":5349:5355   */\n  dup3\n    /* \"#utility.yul\":5338:5347   */\n  dup11\n    /* \"#utility.yul\":5334:5356   */\n  add\n    /* \"#utility.yul\":5305:5366   */\n  tag_43\n  jump\t// in\ntag_134:\n    /* \"#utility.yul\":5295:5366   */\n  swap2\n  pop\n    /* \"#utility.yul\":5249:5376   */\n  pop\n    /* \"#utility.yul\":3909:5383   */\n  swap3\n  swap6\n  pop\n  swap3\n  swap6\n  pop\n  swap3\n  swap6\n  jump\t// out\n    /* \"#utility.yul\":5389:5558   */\ntag_44:\n    /* \"#utility.yul\":5473:5484   */\n  0x00\n    /* \"#utility.yul\":5507:5513   */\n  dup3\n    /* \"#utility.yul\":5502:5505   */\n  dup3\n    /* \"#utility.yul\":5495:5514   */\n  mstore\n    /* \"#utility.yul\":5547:5551   */\n  0x20\n    /* \"#utility.yul\":5542:5545   */\n  dup3\n    /* \"#utility.yul\":5538:5552   */\n  add\n    /* \"#utility.yul\":5523:5552   */\n  swap1\n  pop\n    /* \"#utility.yul\":5389:5558   */\n  swap3\n  swap2\n  pop\n  pop\n  jump\t// out\n    /* \"#utility.yul\":5564:5746   */\ntag_45:\n    /* \"#utility.yul\":5704:5738   */\n  0x4d6178696d616c203635353334204d6974737069656c65722065726c61756274\n    /* \"#utility.yul\":5700:5701   */\n  0x00\n    /* \"#utility.yul\":5692:5698   */\n  dup3\n    /* \"#utility.yul\":5688:5702   */\n  add\n    /* \"#utility.yul\":5681:5739   */\n  mstore\n    /* \"#utility.yul\":5564:5746   */\n  pop\n  jump\t// out\n    /* \"#utility.yul\":5752:6118   */\ntag_46:\n    /* \"#utility.yul\":5894:5897   */\n  0x00\n    /* \"#utility.yul\":5915:5982   */\n  tag_138\n    /* \"#utility.yul\":5979:5981   */\n  0x20\n    /* \"#utility.yul\":5974:5977   */\n  dup4\n    /* \"#utility.yul\":5915:5982   */\n  tag_44\n  jump\t// in\ntag_138:\n    /* \"#utility.yul\":5908:5982   */\n  swap2\n  pop\n    /* \"#utility.yul\":5991:6084   */\n  tag_139\n    /* \"#utility.yul\":6080:6083   */\n  dup3\n    /* \"#utility.yul\":5991:6084   */\n  tag_45\n  jump\t// in\ntag_139:\n    /* \"#utility.yul\":6109:6111   */\n  0x20\n    /* \"#utility.yul\":6104:6107   */\n  dup3\n    /* \"#utility.yul\":6100:6112   */\n  add\n    /* \"#utility.yul\":6093:6112   */\n  swap1\n  pop\n    /* \"#utility.yul\":5752:6118   */\n  swap2\n  swap1\n  pop\n  jump\t// out\n    /* \"#utility.yul\":6124:6543   */\ntag_8:\n    /* \"#utility.yul\":6290:6294   */\n  0x00\n    /* \"#utility.yul\":6328:6330   */\n  0x20\n    /* \"#utility.yul\":6317:6326   */\n  dup3\n    /* \"#utility.yul\":6313:6331   */\n  add\n    /* \"#utility.yul\":6305:6331   */\n  swap1\n  pop\n    /* \"#utility.yul\":6377:6386   */\n  dup2\n    /* \"#utility.yul\":6371:6375   */\n  dup2\n    /* \"#utility.yul\":6367:6387   */\n  sub\n    /* \"#utility.yul\":6363:6364   */\n  0x00\n    /* \"#utility.yul\":6352:6361   */\n  dup4\n    /* \"#utility.yul\":6348:6365   */\n  add\n    /* \"#utility.yul\":6341:6388   */\n  mstore\n    /* \"#utility.yul\":6405:6536   */\n  tag_141\n    /* \"#utility.yul\":6531:6535   */\n  dup2\n    /* \"#utility.yul\":6405:6536   */\n  tag_46\n  jump\t// in\ntag_141:\n    /* \"#utility.yul\":6397:6536   */\n  swap1\n  pop\n    /* \"#utility.yul\":6124:6543   */\n  swap2\n  swap1\n  pop\n  jump\t// out\n    /* \"#utility.yul\":6549:6725   */\ntag_47:\n    /* \"#utility.yul\":6689:6717   */\n  0x4d6178696d616c65722050726569732034323934393637323935000000000000\n    /* \"#utility.yul\":6685:6686   */\n  0x00\n    /* \"#utility.yul\":6677:6683   */\n  dup3\n    /* \"#utility.yul\":6673:6687   */\n  add\n    /* \"#utility.yul\":6666:6718   */\n  mstore\n    /* \"#utility.yul\":6549:6725   */\n  pop\n  jump\t// out\n    /* \"#utility.yul\":6731:7097   */\ntag_48:\n    /* \"#utility.yul\":6873:6876   */\n  0x00\n    /* \"#utility.yul\":6894:6961   */\n  tag_144\n    /* \"#utility.yul\":6958:6960   */\n  0x1a\n    /* \"#utility.yul\":6953:6956   */\n  dup4\n    /* \"#utility.yul\":6894:6961   */\n  tag_44\n  jump\t// in\ntag_144:\n    /* \"#utility.yul\":6887:6961   */\n  swap2\n  pop\n    /* \"#utility.yul\":6970:7063   */\n  tag_145\n    /* \"#utility.yul\":7059:7062   */\n  dup3\n    /* \"#utility.yul\":6970:7063   */\n  tag_47\n  jump\t// in\ntag_145:\n    /* \"#utility.yul\":7088:7090   */\n  0x20\n    /* \"#utility.yul\":7083:7086   */\n  dup3\n    /* \"#utility.yul\":7079:7091   */\n  add\n    /* \"#utility.yul\":7072:7091   */\n  swap1\n  pop\n    /* \"#utility.yul\":6731:7097   */\n  swap2\n  swap1\n  pop\n  jump\t// out\n    /* \"#utility.yul\":7103:7522   */\ntag_11:\n    /* \"#utility.yul\":7269:7273   */\n  0x00\n    /* \"#utility.yul\":7307:7309   */\n  0x20\n    /* \"#utility.yul\":7296:7305   */\n  dup3\n    /* \"#utility.yul\":7292:7310   */\n  add\n    /* \"#utility.yul\":7284:7310   */\n  swap1\n  pop\n    /* \"#utility.yul\":7356:7365   */\n  dup2\n    /* \"#utility.yul\":7350:7354   */\n  dup2\n    /* \"#utility.yul\":7346:7366   */\n  sub\n    /* \"#utility.yul\":7342:7343   */\n  0x00\n    /* \"#utility.yul\":7331:7340   */\n  dup4\n    /* \"#utility.yul\":7327:7344   */\n  add\n    /* \"#utility.yul\":7320:7367   */\n  mstore\n    /* \"#utility.yul\":7384:7515   */\n  tag_147\n    /* \"#utility.yul\":7510:7514   */\n  dup2\n    /* \"#utility.yul\":7384:7515   */\n  tag_48\n  jump\t// in\ntag_147:\n    /* \"#utility.yul\":7376:7515   */\n  swap1\n  pop\n    /* \"#utility.yul\":7103:7522   */\n  swap2\n  swap1\n  pop\n  jump\t// out\n    /* \"#utility.yul\":7528:7627   */\ntag_49:\n    /* \"#utility.yul\":7580:7586   */\n  0x00\n    /* \"#utility.yul\":7614:7619   */\n  dup2\n    /* \"#utility.yul\":7608:7620   */\n  mload\n    /* \"#utility.yul\":7598:7620   */\n  swap1\n  pop\n    /* \"#utility.yul\":7528:7627   */\n  swap2\n  swap1\n  pop\n  jump\t// out\n    /* \"#utility.yul\":7633:7813   */\ntag_50:\n    /* \"#utility.yul\":7681:7758   */\n  0x4e487b7100000000000000000000000000000000000000000000000000000000\n    /* \"#utility.yul\":7678:7679   */\n  0x00\n    /* \"#utility.yul\":7671:7759   */\n  mstore\n    /* \"#utility.yul\":7778:7782   */\n  0x22\n    /* \"#utility.yul\":7775:7776   */\n  0x04\n    /* \"#utility.yul\":7768:7783   */\n  mstore\n    /* \"#utility.yul\":7802:7806   */\n  0x24\n    /* \"#utility.yul\":7799:7800   */\n  0x00\n    /* \"#utility.yul\":7792:7807   */\n  revert\n    /* \"#utility.yul\":7819:8139   */\ntag_51:\n    /* \"#utility.yul\":7863:7869   */\n  0x00\n    /* \"#utility.yul\":7900:7901   */\n  0x02\n    /* \"#utility.yul\":7894:7898   */\n  dup3\n    /* \"#utility.yul\":7890:7902   */\n  div\n    /* \"#utility.yul\":7880:7902   */\n  swap1\n  pop\n    /* \"#utility.yul\":7947:7948   */\n  0x01\n    /* \"#utility.yul\":7941:7945   */\n  dup3\n    /* \"#utility.yul\":7937:7949   */\n  and\n    /* \"#utility.yul\":7968:7986   */\n  dup1\n    /* \"#utility.yul\":7958:8039   */\n  tag_151\n  jumpi\n    /* \"#utility.yul\":8024:8028   */\n  0x7f\n    /* \"#utility.yul\":8016:8022   */\n  dup3\n    /* \"#utility.yul\":8012:8029   */\n  and\n    /* \"#utility.yul\":8002:8029   */\n  swap2\n  pop\n    /* \"#utility.yul\":7958:8039   */\ntag_151:\n    /* \"#utility.yul\":8086:8088   */\n  0x20\n    /* \"#utility.yul\":8078:8084   */\n  dup3\n    /* \"#utility.yul\":8075:8089   */\n  lt\n    /* \"#utility.yul\":8055:8073   */\n  dup2\n    /* \"#utility.yul\":8052:8090   */\n  sub\n    /* \"#utility.yul\":8049:8133   */\n  tag_152\n  jumpi\n    /* \"#utility.yul\":8105:8123   */\n  tag_153\n  tag_50\n  jump\t// in\ntag_153:\n    /* \"#utility.yul\":8049:8133   */\ntag_152:\n    /* \"#utility.yul\":7870:8139   */\n  pop\n    /* \"#utility.yul\":7819:8139   */\n  swap2\n  swap1\n  pop\n  jump\t// out\n    /* \"#utility.yul\":8145:8286   */\ntag_52:\n    /* \"#utility.yul\":8194:8198   */\n  0x00\n    /* \"#utility.yul\":8217:8220   */\n  dup2\n    /* \"#utility.yul\":8209:8220   */\n  swap1\n  pop\n    /* \"#utility.yul\":8240:8243   */\n  dup2\n    /* \"#utility.yul\":8237:8238   */\n  0x00\n    /* \"#utility.yul\":8230:8244   */\n  mstore\n    /* \"#utility.yul\":8274:8278   */\n  0x20\n    /* \"#utility.yul\":8271:8272   */\n  0x00\n    /* \"#utility.yul\":8261:8279   */\n  keccak256\n    /* \"#utility.yul\":8253:8279   */\n  swap1\n  pop\n    /* \"#utility.yul\":8145:8286   */\n  swap2\n  swap1\n  pop\n  jump\t// out\n    /* \"#utility.yul\":8292:8385   */\ntag_53:\n    /* \"#utility.yul\":8329:8335   */\n  0x00\n    /* \"#utility.yul\":8376:8378   */\n  0x20\n    /* \"#utility.yul\":8371:8373   */\n  0x1f\n    /* \"#utility.yul\":8364:8369   */\n  dup4\n    /* \"#utility.yul\":8360:8374   */\n  add\n    /* \"#utility.yul\":8356:8379   */\n  div\n    /* \"#utility.yul\":8346:8379   */\n  swap1\n  pop\n    /* \"#utility.yul\":8292:8385   */\n  swap2\n  swap1\n  pop\n  jump\t// out\n    /* \"#utility.yul\":8391:8498   */\ntag_54:\n    /* \"#utility.yul\":8435:8443   */\n  0x00\n    /* \"#utility.yul\":8485:8490   */\n  dup3\n    /* \"#utility.yul\":8479:8483   */\n  dup3\n    /* \"#utility.yul\":8475:8491   */\n  shl\n    /* \"#utility.yul\":8454:8491   */\n  swap1\n  pop\n    /* \"#utility.yul\":8391:8498   */\n  swap3\n  swap2\n  pop\n  pop\n  jump\t// out\n    /* \"#utility.yul\":8504:8897   */\ntag_55:\n    /* \"#utility.yul\":8573:8579   */\n  0x00\n    /* \"#utility.yul\":8623:8624   */\n  0x08\n    /* \"#utility.yul\":8611:8621   */\n  dup4\n    /* \"#utility.yul\":8607:8625   */\n  mul\n    /* \"#utility.yul\":8646:8743   */\n  tag_158\n    /* \"#utility.yul\":8676:8742   */\n  0xffffffffffffffffffffffffffffffffffffffffffffffffffffffffffffffff\n    /* \"#utility.yul\":8665:8674   */\n  dup3\n    /* \"#utility.yul\":8646:8743   */\n  tag_54\n  jump\t// in\ntag_158:\n    /* \"#utility.yul\":8764:8803   */\n  tag_159\n    /* \"#utility.yul\":8794:8802   */\n  dup7\n    /* \"#utility.yul\":8783:8792   */\n  dup4\n    /* \"#utility.yul\":8764:8803   */\n  tag_54\n  jump\t// in\ntag_159:\n    /* \"#utility.yul\":8752:8803   */\n  swap6\n  pop\n    /* \"#utility.yul\":8836:8840   */\n  dup1\n    /* \"#utility.yul\":8832:8841   */\n  not\n    /* \"#utility.yul\":8825:8830   */\n  dup5\n    /* \"#utility.yul\":8821:8842   */\n  and\n    /* \"#utility.yul\":8812:8842   */\n  swap4\n  pop\n    /* \"#utility.yul\":8885:8889   */\n  dup1\n    /* \"#utility.yul\":8875:8883   */\n  dup7\n    /* \"#utility.yul\":8871:8890   */\n  and\n    /* \"#utility.yul\":8864:8869   */\n  dup5\n    /* \"#utility.yul\":8861:8891   */\n  or\n    /* \"#utility.yul\":8851:8891   */\n  swap3\n  pop\n    /* \"#utility.yul\":8580:8897   */\n  pop\n  pop\n    /* \"#utility.yul\":8504:8897   */\n  swap4\n  swap3\n  pop\n  pop\n  pop\n  jump\t// out\n    /* \"#utility.yul\":8903:8963   */\ntag_56:\n    /* \"#utility.yul\":8931:8934   */\n  0x00\n    /* \"#utility.yul\":8952:8957   */\n  dup2\n    /* \"#utility.yul\":8945:8957   */\n  swap1\n  pop\n    /* \"#utility.yul\":8903:8963   */\n  swap2\n  swap1\n  pop\n  jump\t// out\n    /* \"#utility.yul\":8969:9111   */\ntag_57:\n    /* \"#utility.yul\":9019:9028   */\n  0x00\n    /* \"#utility.yul\":9052:9105   */\n  tag_162\n    /* \"#utility.yul\":9070:9104   */\n  tag_163\n    /* \"#utility.yul\":9079:9103   */\n  tag_164\n    /* \"#utility.yul\":9097:9102   */\n  dup5\n    /* \"#utility.yul\":9079:9103   */\n  tag_38\n  jump\t// in\ntag_164:\n    /* \"#utility.yul\":9070:9104   */\n  tag_56\n  jump\t// in\ntag_163:\n    /* \"#utility.yul\":9052:9105   */\n  tag_38\n  jump\t// in\ntag_162:\n    /* \"#utility.yul\":9039:9105   */\n  swap1\n  pop\n    /* \"#utility.yul\":8969:9111   */\n  swap2\n  swap1\n  pop\n  jump\t// out\n    /* \"#utility.yul\":9117:9192   */\ntag_58:\n    /* \"#utility.yul\":9160:9163   */\n  0x00\n    /* \"#utility.yul\":9181:9186   */\n  dup2\n    /* \"#utility.yul\":9174:9186   */\n  swap1\n  pop\n    /* \"#utility.yul\":9117:9192   */\n  swap2\n  swap1\n  pop\n  jump\t// out\n    /* \"#utility.yul\":9198:9467   */\ntag_59:\n    /* \"#utility.yul\":9308:9347   */\n  tag_167\n    /* \"#utility.yul\":9339:9346   */\n  dup4\n    /* \"#utility.yul\":9308:9347   */\n  tag_57\n  jump\t// in\ntag_167:\n    /* \"#utility.yul\":9369:9460   */\n  tag_168\n    /* \"#utility.yul\":9418:9459   */\n  tag_169\n    /* \"#utility.yul\":9442:9458   */\n  dup3\n    /* \"#utility.yul\":9418:9459   */\n  tag_58\n  jump\t// in\ntag_169:\n    /* \"#utility.yul\":9410:9416   */\n  dup5\n    /* \"#utility.yul\":9403:9407   */\n  dup5\n    /* \"#utility.yul\":9397:9408   */\n  sload\n    /* \"#utility.yul\":9369:9460   */\n  tag_55\n  jump\t// in\ntag_168:\n    /* \"#utility.yul\":9363:9367   */\n  dup3\n    /* \"#utility.yul\":9356:9461   */\n  sstore\n    /* \"#utility.yul\":9274:9467   */\n  pop\n    /* \"#utility.yul\":9198:9467   */\n  pop\n  pop\n  pop\n  jump\t// out\n    /* \"#utility.yul\":9473:9546   */\ntag_60:\n    /* \"#utility.yul\":9518:9521   */\n  0x00\n    /* \"#utility.yul\":9473:9546   */\n  swap1\n  jump\t// out\n    /* \"#utility.yul\":9552:9741   */\ntag_61:\n    /* \"#utility.yul\":9629:9661   */\n  tag_172\n  tag_60\n  jump\t// in\ntag_172:\n    /* \"#utility.yul\":9670:9735   */\n  tag_173\n    /* \"#utility.yul\":9728:9734   */\n  dup2\n    /* \"#utility.yul\":9720:9726   */\n  dup5\n    /* \"#utility.yul\":9714:9718   */\n  dup5\n    /* \"#utility.yul\":9670:9735   */\n  tag_59\n  jump\t// in\ntag_173:\n    /* \"#utility.yul\":9605:9741   */\n  pop\n    /* \"#utility.yul\":9552:9741   */\n  pop\n  pop\n  jump\t// out\n    /* \"#utility.yul\":9747:9933   */\ntag_62:\n    /* \"#utility.yul\":9807:9927   */\ntag_175:\n    /* \"#utility.yul\":9824:9827   */\n  dup2\n    /* \"#utility.yul\":9817:9822   */\n  dup2\n    /* \"#utility.yul\":9814:9828   */\n  lt\n    /* \"#utility.yul\":9807:9927   */\n  iszero\n  tag_177\n  jumpi\n    /* \"#utility.yul\":9878:9917   */\n  tag_178\n    /* \"#utility.yul\":9915:9916   */\n  0x00\n    /* \"#utility.yul\":9908:9913   */\n  dup3\n    /* \"#utility.yul\":9878:9917   */\n  tag_61\n  jump\t// in\ntag_178:\n    /* \"#utility.yul\":9851:9852   */\n  0x01\n    /* \"#utility.yul\":9844:9849   */\n  dup2\n    /* \"#utility.yul\":9840:9853   */\n  add\n    /* \"#utility.yul\":9831:9853   */\n  swap1\n  pop\n    /* \"#utility.yul\":9807:9927   */\n  jump(tag_175)\ntag_177:\n    /* \"#utility.yul\":9747:9933   */\n  pop\n  pop\n  jump\t// out\n    /* \"#utility.yul\":9939:10482   */\ntag_63:\n    /* \"#utility.yul\":10040:10042   */\n  0x1f\n    /* \"#utility.yul\":10035:10038   */\n  dup3\n    /* \"#utility.yul\":10032:10043   */\n  gt\n    /* \"#utility.yul\":10029:10475   */\n  iszero\n  tag_180\n  jumpi\n    /* \"#utility.yul\":10074:10112   */\n  tag_181\n    /* \"#utility.yul\":10106:10111   */\n  dup2\n    /* \"#utility.yul\":10074:10112   */\n  tag_52\n  jump\t// in\ntag_181:\n    /* \"#utility.yul\":10158:10187   */\n  tag_182\n    /* \"#utility.yul\":10176:10186   */\n  dup5\n    /* \"#utility.yul\":10158:10187   */\n  tag_53\n  jump\t// in\ntag_182:\n    /* \"#utility.yul\":10148:10156   */\n  dup2\n    /* \"#utility.yul\":10144:10188   */\n  add\n    /* \"#utility.yul\":10341:10343   */\n  0x20\n    /* \"#utility.yul\":10329:10339   */\n  dup6\n    /* \"#utility.yul\":10326:10344   */\n  lt\n    /* \"#utility.yul\":10323:10372   */\n  iszero\n  tag_183\n  jumpi\n    /* \"#utility.yul\":10362:10370   */\n  dup2\n    /* \"#utility.yul\":10347:10370   */\n  swap1\n  pop\n    /* \"#utility.yul\":10323:10372   */\ntag_183:\n    /* \"#utility.yul\":10385:10465   */\n  tag_184\n    /* \"#utility.yul\":10441:10463   */\n  tag_185\n    /* \"#utility.yul\":10459:10462   */\n  dup6\n    /* \"#utility.yul\":10441:10463   */\n  tag_53\n  jump\t// in\ntag_185:\n    /* \"#utility.yul\":10431:10439   */\n  dup4\n    /* \"#utility.yul\":10427:10464   */\n  add\n    /* \"#utility.yul\":10414:10425   */\n  dup3\n    /* \"#utility.yul\":10385:10465   */\n  tag_62\n  jump\t// in\ntag_184:\n    /* \"#utility.yul\":10044:10475   */\n  pop\n  pop\n    /* \"#utility.yul\":10029:10475   */\ntag_180:\n    /* \"#utility.yul\":9939:10482   */\n  pop\n  pop\n  pop\n  jump\t// out\n    /* \"#utility.yul\":10488:10605   */\ntag_64:\n    /* \"#utility.yul\":10542:10550   */\n  0x00\n    /* \"#utility.yul\":10592:10597   */\n  dup3\n    /* \"#utility.yul\":10586:10590   */\n  dup3\n    /* \"#utility.yul\":10582:10598   */\n  shr\n    /* \"#utility.yul\":10561:10598   */\n  swap1\n  pop\n    /* \"#utility.yul\":10488:10605   */\n  swap3\n  swap2\n  pop\n  pop\n  jump\t// out\n    /* \"#utility.yul\":10611:10780   */\ntag_65:\n    /* \"#utility.yul\":10655:10661   */\n  0x00\n    /* \"#utility.yul\":10688:10739   */\n  tag_188\n    /* \"#utility.yul\":10736:10737   */\n  0x00\n    /* \"#utility.yul\":10732:10738   */\n  not\n    /* \"#utility.yul\":10724:10729   */\n  dup5\n    /* \"#utility.yul\":10721:10722   */\n  0x08\n    /* \"#utility.yul\":10717:10730   */\n  mul\n    /* \"#utility.yul\":10688:10739   */\n  tag_64\n  jump\t// in\ntag_188:\n    /* \"#utility.yul\":10684:10740   */\n  not\n    /* \"#utility.yul\":10769:10773   */\n  dup1\n    /* \"#utility.yul\":10763:10767   */\n  dup4\n    /* \"#utility.yul\":10759:10774   */\n  and\n    /* \"#utility.yul\":10749:10774   */\n  swap2\n  pop\n    /* \"#utility.yul\":10662:10780   */\n  pop\n    /* \"#utility.yul\":10611:10780   */\n  swap3\n  swap2\n  pop\n  pop\n  jump\t// out\n    /* \"#utility.yul\":10785:11080   */\ntag_66:\n    /* \"#utility.yul\":10861:10865   */\n  0x00\n    /* \"#utility.yul\":11007:11036   */\n  tag_190\n    /* \"#utility.yul\":11032:11035   */\n  dup4\n    /* \"#utility.yul\":11026:11030   */\n  dup4\n    /* \"#utility.yul\":11007:11036   */\n  tag_65\n  jump\t// in\ntag_190:\n    /* \"#utility.yul\":10999:11036   */\n  swap2\n  pop\n    /* \"#utility.yul\":11069:11072   */\n  dup3\n    /* \"#utility.yul\":11066:11067   */\n  0x02\n    /* \"#utility.yul\":11062:11073   */\n  mul\n    /* \"#utility.yul\":11056:11060   */\n  dup3\n    /* \"#utility.yul\":11053:11074   */\n  or\n    /* \"#utility.yul\":11045:11074   */\n  swap1\n  pop\n    /* \"#utility.yul\":10785:11080   */\n  swap3\n  swap2\n  pop\n  pop\n  jump\t// out\n    /* \"#utility.yul\":11085:12480   */\ntag_13:\n    /* \"#utility.yul\":11202:11239   */\n  tag_192\n    /* \"#utility.yul\":11235:11238   */\n  dup3\n    /* \"#utility.yul\":11202:11239   */\n  tag_49\n  jump\t// in\ntag_192:\n    /* \"#utility.yul\":11304:11322   */\n  0xffffffffffffffff\n    /* \"#utility.yul\":11296:11302   */\n  dup2\n    /* \"#utility.yul\":11293:11323   */\n  gt\n    /* \"#utility.yul\":11290:11346   */\n  iszero\n  tag_193\n  jumpi\n    /* \"#utility.yul\":11326:11344   */\n  tag_194\n  tag_27\n  jump\t// in\ntag_194:\n    /* \"#utility.yul\":11290:11346   */\ntag_193:\n    /* \"#utility.yul\":11370:11408   */\n  tag_195\n    /* \"#utility.yul\":11402:11406   */\n  dup3\n    /* \"#utility.yul\":11396:11407   */\n  sload\n    /* \"#utility.yul\":11370:11408   */\n  tag_51\n  jump\t// in\ntag_195:\n    /* \"#utility.yul\":11455:11522   */\n  tag_196\n    /* \"#utility.yul\":11515:11521   */\n  dup3\n    /* \"#utility.yul\":11507:11513   */\n  dup3\n    /* \"#utility.yul\":11501:11505   */\n  dup6\n    /* \"#utility.yul\":11455:11522   */\n  tag_63\n  jump\t// in\ntag_196:\n    /* \"#utility.yul\":11549:11550   */\n  0x00\n    /* \"#utility.yul\":11573:11577   */\n  0x20\n    /* \"#utility.yul\":11560:11577   */\n  swap1\n  pop\n    /* \"#utility.yul\":11605:11607   */\n  0x1f\n    /* \"#utility.yul\":11597:11603   */\n  dup4\n    /* \"#utility.yul\":11594:11608   */\n  gt\n    /* \"#utility.yul\":11622:11623   */\n  0x01\n    /* \"#utility.yul\":11617:12235   */\n  dup2\n  eq\n  tag_198\n  jumpi\n    /* \"#utility.yul\":12279:12280   */\n  0x00\n    /* \"#utility.yul\":12296:12302   */\n  dup5\n    /* \"#utility.yul\":12293:12370   */\n  iszero\n  tag_199\n  jumpi\n    /* \"#utility.yul\":12345:12354   */\n  dup3\n    /* \"#utility.yul\":12340:12343   */\n  dup8\n    /* \"#utility.yul\":12336:12355   */\n  add\n    /* \"#utility.yul\":12330:12356   */\n  mload\n    /* \"#utility.yul\":12321:12356   */\n  swap1\n  pop\n    /* \"#utility.yul\":12293:12370   */\ntag_199:\n    /* \"#utility.yul\":12396:12463   */\n  tag_200\n    /* \"#utility.yul\":12456:12462   */\n  dup6\n    /* \"#utility.yul\":12449:12454   */\n  dup3\n    /* \"#utility.yul\":12396:12463   */\n  tag_66\n  jump\t// in\ntag_200:\n    /* \"#utility.yul\":12390:12394   */\n  dup7\n    /* \"#utility.yul\":12383:12464   */\n  sstore\n    /* \"#utility.yul\":12252:12474   */\n  pop\n    /* \"#utility.yul\":11587:12474   */\n  jump(tag_197)\n    /* \"#utility.yul\":11617:12235   */\ntag_198:\n    /* \"#utility.yul\":11669:11673   */\n  0x1f\n    /* \"#utility.yul\":11665:11674   */\n  not\n    /* \"#utility.yul\":11657:11663   */\n  dup5\n    /* \"#utility.yul\":11653:11675   */\n  and\n    /* \"#utility.yul\":11703:11740   */\n  tag_201\n    /* \"#utility.yul\":11735:11739   */\n  dup7\n    /* \"#utility.yul\":11703:11740   */\n  tag_52\n  jump\t// in\ntag_201:\n    /* \"#utility.yul\":11762:11763   */\n  0x00\n    /* \"#utility.yul\":11776:11984   */\ntag_202:\n    /* \"#utility.yul\":11790:11797   */\n  dup3\n    /* \"#utility.yul\":11787:11788   */\n  dup2\n    /* \"#utility.yul\":11784:11798   */\n  lt\n    /* \"#utility.yul\":11776:11984   */\n  iszero\n  tag_204\n  jumpi\n    /* \"#utility.yul\":11869:11878   */\n  dup5\n    /* \"#utility.yul\":11864:11867   */\n  dup10\n    /* \"#utility.yul\":11860:11879   */\n  add\n    /* \"#utility.yul\":11854:11880   */\n  mload\n    /* \"#utility.yul\":11846:11852   */\n  dup3\n    /* \"#utility.yul\":11839:11881   */\n  sstore\n    /* \"#utility.yul\":11920:11921   */\n  0x01\n    /* \"#utility.yul\":11912:11918   */\n  dup3\n    /* \"#utility.yul\":11908:11922   */\n  add\n    /* \"#utility.yul\":11898:11922   */\n  swap2\n  pop\n    /* \"#utility.yul\":11967:11969   */\n  0x20\n    /* \"#utility.yul\":11956:11965   */\n  dup6\n    /* \"#utility.yul\":11952:11970   */\n  add\n    /* \"#utility.yul\":11939:11970   */\n  swap5\n  pop\n    /* \"#utility.yul\":11813:11817   */\n  0x20\n    /* \"#utility.yul\":11810:11811   */\n  dup2\n    /* \"#utility.yul\":11806:11818   */\n  add\n    /* \"#utility.yul\":11801:11818   */\n  swap1\n  pop\n    /* \"#utility.yul\":11776:11984   */\n  jump(tag_202)\ntag_204:\n    /* \"#utility.yul\":12012:12018   */\n  dup7\n    /* \"#utility.yul\":12003:12010   */\n  dup4\n    /* \"#utility.yul\":12000:12019   */\n  lt\n    /* \"#utility.yul\":11997:12176   */\n  iszero\n  tag_205\n  jumpi\n    /* \"#utility.yul\":12070:12079   */\n  dup5\n    /* \"#utility.yul\":12065:12068   */\n  dup10\n    /* \"#utility.yul\":12061:12080   */\n  add\n    /* \"#utility.yul\":12055:12081   */\n  mload\n    /* \"#utility.yul\":12113:12161   */\n  tag_206\n    /* \"#utility.yul\":12155:12159   */\n  0x1f\n    /* \"#utility.yul\":12147:12153   */\n  dup10\n    /* \"#utility.yul\":12143:12160   */\n  and\n    /* \"#utility.yul\":12132:12141   */\n  dup3\n    /* \"#utility.yul\":12113:12161   */\n  tag_65\n  jump\t// in\ntag_206:\n    /* \"#utility.yul\":12105:12111   */\n  dup4\n    /* \"#utility.yul\":12098:12162   */\n  sstore\n    /* \"#utility.yul\":12020:12176   */\n  pop\n    /* \"#utility.yul\":11997:12176   */\ntag_205:\n    /* \"#utility.yul\":12222:12223   */\n  0x01\n    /* \"#utility.yul\":12218:12219   */\n  0x02\n    /* \"#utility.yul\":12210:12216   */\n  dup9\n    /* \"#utility.yul\":12206:12220   */\n  mul\n    /* \"#utility.yul\":12202:12224   */\n  add\n    /* \"#utility.yul\":12196:12200   */\n  dup9\n    /* \"#utility.yul\":12189:12225   */\n  sstore\n    /* \"#utility.yul\":11624:12235   */\n  pop\n  pop\n  pop\n    /* \"#utility.yul\":11587:12474   */\ntag_197:\n  pop\n    /* \"#utility.yul\":11177:12480   */\n  pop\n  pop\n  pop\n    /* \"#utility.yul\":11085:12480   */\n  pop\n  pop\n  jump\t// out\n    /* \"#utility.yul\":12486:12666   */\ntag_67:\n    /* \"#utility.yul\":12534:12611   */\n  0x4e487b7100000000000000000000000000000000000000000000000000000000\n    /* \"#utility.yul\":12531:12532   */\n  0x00\n    /* \"#utility.yul\":12524:12612   */\n  mstore\n    /* \"#utility.yul\":12631:12635   */\n  0x11\n    /* \"#utility.yul\":12628:12629   */\n  0x04\n    /* \"#utility.yul\":12621:12636   */\n  mstore\n    /* \"#utility.yul\":12655:12659   */\n  0x24\n    /* \"#utility.yul\":12652:12653   */\n  0x00\n    /* \"#utility.yul\":12645:12660   */\n  revert\n    /* \"#utility.yul\":12672:13082   */\ntag_16:\n    /* \"#utility.yul\":12712:12719   */\n  0x00\n    /* \"#utility.yul\":12735:12755   */\n  tag_209\n    /* \"#utility.yul\":12753:12754   */\n  dup3\n    /* \"#utility.yul\":12735:12755   */\n  tag_38\n  jump\t// in\ntag_209:\n    /* \"#utility.yul\":12730:12755   */\n  swap2\n  pop\n    /* \"#utility.yul\":12769:12789   */\n  tag_210\n    /* \"#utility.yul\":12787:12788   */\n  dup4\n    /* \"#utility.yul\":12769:12789   */\n  tag_38\n  jump\t// in\ntag_210:\n    /* \"#utility.yul\":12764:12789   */\n  swap3\n  pop\n    /* \"#utility.yul\":12824:12825   */\n  dup3\n    /* \"#utility.yul\":12821:12822   */\n  dup3\n    /* \"#utility.yul\":12817:12826   */\n  mul\n    /* \"#utility.yul\":12846:12876   */\n  tag_211\n    /* \"#utility.yul\":12864:12875   */\n  dup2\n    /* \"#utility.yul\":12846:12876   */\n  tag_38\n  jump\t// in\ntag_211:\n    /* \"#utility.yul\":12835:12876   */\n  swap2\n  pop\n    /* \"#utility.yul\":13025:13026   */\n  dup3\n    /* \"#utility.yul\":13016:13023   */\n  dup3\n    /* \"#utility.yul\":13012:13027   */\n  div\n    /* \"#utility.yul\":13009:13010   */\n  dup5\n    /* \"#utility.yul\":13006:13028   */\n  eq\n    /* \"#utility.yul\":12986:12987   */\n  dup4\n    /* \"#utility.yul\":12979:12988   */\n  iszero\n    /* \"#utility.yul\":12959:13042   */\n  or\n    /* \"#utility.yul\":12936:13075   */\n  tag_212\n  jumpi\n    /* \"#utility.yul\":13055:13073   */\n  tag_213\n  tag_67\n  jump\t// in\ntag_213:\n    /* \"#utility.yul\":12936:13075   */\ntag_212:\n    /* \"#utility.yul\":12720:13082   */\n  pop\n    /* \"#utility.yul\":12672:13082   */\n  swap3\n  swap2\n  pop\n  pop\n  jump\t// out\n    /* \"#utility.yul\":13088:13268   */\ntag_68:\n    /* \"#utility.yul\":13136:13213   */\n  0x4e487b7100000000000000000000000000000000000000000000000000000000\n    /* \"#utility.yul\":13133:13134   */\n  0x00\n    /* \"#utility.yul\":13126:13214   */\n  mstore\n    /* \"#utility.yul\":13233:13237   */\n  0x12\n    /* \"#utility.yul\":13230:13231   */\n  0x04\n    /* \"#utility.yul\":13223:13238   */\n  mstore\n    /* \"#utility.yul\":13257:13261   */\n  0x24\n    /* \"#utility.yul\":13254:13255   */\n  0x00\n    /* \"#utility.yul\":13247:13262   */\n  revert\n    /* \"#utility.yul\":13274:13459   */\ntag_18:\n    /* \"#utility.yul\":13314:13315   */\n  0x00\n    /* \"#utility.yul\":13331:13351   */\n  tag_216\n    /* \"#utility.yul\":13349:13350   */\n  dup3\n    /* \"#utility.yul\":13331:13351   */\n  tag_38\n  jump\t// in\ntag_216:\n    /* \"#utility.yul\":13326:13351   */\n  swap2\n  pop\n    /* \"#utility.yul\":13365:13385   */\n  tag_217\n    /* \"#utility.yul\":13383:13384   */\n  dup4\n    /* \"#utility.yul\":13365:13385   */\n  tag_38\n  jump\t// in\ntag_217:\n    /* \"#utility.yul\":13360:13385   */\n  swap3\n  pop\n    /* \"#utility.yul\":13404:13405   */\n  dup3\n    /* \"#utility.yul\":13394:13429   */\n  tag_218\n  jumpi\n    /* \"#utility.yul\":13409:13427   */\n  tag_219\n  tag_68\n  jump\t// in\ntag_219:\n    /* \"#utility.yul\":13394:13429   */\ntag_218:\n    /* \"#utility.yul\":13451:13452   */\n  dup3\n    /* \"#utility.yul\":13448:13449   */\n  dup3\n    /* \"#utility.yul\":13444:13453   */\n  div\n    /* \"#utility.yul\":13439:13453   */\n  swap1\n  pop\n    /* \"#utility.yul\":13274:13459   */\n  swap3\n  swap2\n  pop\n  pop\n  jump\t// out\n    /* \"Lottogemeinschaft.sol\":1709:7245  contract Lottogemeinschaft {... */\ntag_20:\n  dataSize(sub_0)\n  dup1\n  dataOffset(sub_0)\n  0x00\n  codecopy\n  0x00\n  return\nstop\n\nsub_0: assembly {\n        /* \"Lottogemeinschaft.sol\":1709:7245  contract Lottogemeinschaft {... */\n      mstore(0x40, 0x80)\n      jumpi(tag_1, lt(calldatasize, 0x04))\n      shr(0xe0, calldataload(0x00))\n      dup1\n      0x833e92cb\n      gt\n      tag_26\n      jumpi\n      dup1\n      0xad2c046c\n      gt\n      tag_27\n      jumpi\n      dup1\n      0xad2c046c\n      eq\n      tag_20\n      jumpi\n      dup1\n      0xb08c7076\n      eq\n      tag_21\n      jumpi\n      dup1\n      0xbb68a67f\n      eq\n      tag_22\n      jumpi\n      dup1\n      0xd27d06c0\n      eq\n      tag_23\n      jumpi\n      dup1\n      0xe34ad1d7\n      eq\n      tag_24\n      jumpi\n      dup1\n      0xe86c5692\n      eq\n      tag_25\n      jumpi\n      jump(tag_1)\n    tag_27:\n      dup1\n      0x833e92cb\n      eq\n      tag_14\n      jumpi\n      dup1\n      0x8acb4624\n      eq\n      tag_15\n      jumpi\n      dup1\n      0x8e5676fd\n      eq\n      tag_16\n      jumpi\n      dup1\n      0x91243239\n      eq\n      tag_17\n      jumpi\n      dup1\n      0xa299f171\n      eq\n      tag_18\n      jumpi\n      dup1\n      0xab76211e\n      eq\n      tag_19\n      jumpi\n      jump(tag_1)\n    tag_26:\n      dup1\n      0x3babb15a\n      gt\n      tag_28\n      jumpi\n      dup1\n      0x3babb15a\n      eq\n      tag_8\n      jumpi\n      dup1\n      0x3f0f5d51\n      eq\n      tag_9\n      jumpi\n      dup1\n      0x43767832\n      eq\n      tag_10\n      jumpi\n      dup1\n      0x526024ea\n      eq\n      tag_11\n      jumpi\n      dup1\n      0x70a41bc0\n      eq\n      tag_12\n      jumpi\n      dup1\n      0x822b8023\n      eq\n      tag_13\n      jumpi\n      jump(tag_1)\n    tag_28:\n      dup1\n      0x084263f5\n      eq\n      tag_2\n      jumpi\n      dup1\n      0x0f085e50\n      eq\n      tag_3\n      jumpi\n      dup1\n      0x2340983f\n      eq\n      tag_4\n      jumpi\n      dup1\n      0x2df368a5\n      eq\n      tag_5\n      jumpi\n      dup1\n      0x311e73da\n      eq\n      tag_6\n      jumpi\n      dup1\n      0x36927060\n      eq\n      tag_7\n      jumpi\n    tag_1:\n      0x00\n      dup1\n      revert\n        /* \"Lottogemeinschaft.sol\":1971:1997  uint256  public auszahlung */\n    tag_2:\n      callvalue\n      dup1\n      iszero\n      tag_29\n      jumpi\n      0x00\n      dup1\n      revert\n    tag_29:\n      pop\n      tag_30\n      tag_31\n      jump\t// in\n    tag_30:\n      mload(0x40)\n      tag_32\n      swap2\n      swap1\n      tag_33\n      jump\t// in\n    tag_32:\n      mload(0x40)\n      dup1\n      swap2\n      sub\n      swap1\n      return\n        /* \"Lottogemeinschaft.sol\":2209:2247  uint256 public gewinnProMitspieler = 0 */\n    tag_3:\n      callvalue\n      dup1\n      iszero\n      tag_34\n      jumpi\n      0x00\n      dup1\n      revert\n    tag_34:\n      pop\n      tag_35\n      tag_36\n      jump\t// in\n    tag_35:\n      mload(0x40)\n      tag_37\n      swap2\n      swap1\n      tag_33\n      jump\t// in\n    tag_37:\n      mload(0x40)\n      dup1\n      swap2\n      sub\n      swap1\n      return\n        /* \"Lottogemeinschaft.sol\":2253:2295  bool public gewinnKannAbgeholtWerden=false */\n    tag_4:\n      callvalue\n      dup1\n      iszero\n      tag_38\n      jumpi\n      0x00\n      dup1\n      revert\n    tag_38:\n      pop\n      tag_39\n      tag_40\n      jump\t// in\n    tag_39:\n      mload(0x40)\n      tag_41\n      swap2\n      swap1\n      tag_42\n      jump\t// in\n    tag_41:\n      mload(0x40)\n      dup1\n      swap2\n      sub\n      swap1\n      return\n        /* \"Lottogemeinschaft.sol\":1892:1926  uint256  public preisProMitspieler */\n    tag_5:\n      callvalue\n      dup1\n      iszero\n      tag_43\n      jumpi\n      0x00\n      dup1\n      revert\n    tag_43:\n      pop\n      tag_44\n      tag_45\n      jump\t// in\n    tag_44:\n      mload(0x40)\n      tag_46\n      swap2\n      swap1\n      tag_33\n      jump\t// in\n    tag_46:\n      mload(0x40)\n      dup1\n      swap2\n      sub\n      swap1\n      return\n        /* \"Lottogemeinschaft.sol\":4319:4979  function gewinnEinzahlen(uint256  gewinn) public payable restictedToGruender {... */\n    tag_6:\n      tag_47\n      0x04\n      dup1\n      calldatasize\n      sub\n      dup2\n      add\n      swap1\n      tag_48\n      swap2\n      swap1\n      tag_49\n      jump\t// in\n    tag_48:\n      tag_50\n      jump\t// in\n    tag_47:\n      stop\n        /* \"Lottogemeinschaft.sol\":2003:2045  mapping(address => bool) public mitspieler */\n    tag_7:\n      callvalue\n      dup1\n      iszero\n      tag_51\n      jumpi\n      0x00\n      dup1\n      revert\n    tag_51:\n      pop\n      tag_52\n      0x04\n      dup1\n      calldatasize\n      sub\n      dup2\n      add\n      swap1\n      tag_53\n      swap2\n      swap1\n      tag_54\n      jump\t// in\n    tag_53:\n      tag_55\n      jump\t// in\n    tag_52:\n      mload(0x40)\n      tag_56\n      swap2\n      swap1\n      tag_42\n      jump\t// in\n    tag_56:\n      mload(0x40)\n      dup1\n      swap2\n      sub\n      swap1\n      return\n        /* \"Lottogemeinschaft.sol\":2164:2203  uint256  public anzahlTeilnehmerAktuell */\n    tag_8:\n      callvalue\n      dup1\n      iszero\n      tag_57\n      jumpi\n      0x00\n      dup1\n      revert\n    tag_57:\n      pop\n      tag_58\n      tag_59\n      jump\t// in\n    tag_58:\n      mload(0x40)\n      tag_60\n      swap2\n      swap1\n      tag_33\n      jump\t// in\n    tag_60:\n      mload(0x40)\n      dup1\n      swap2\n      sub\n      swap1\n      return\n        /* \"Lottogemeinschaft.sol\":1854:1886  uint256  public preisLottoschein */\n    tag_9:\n      callvalue\n      dup1\n      iszero\n      tag_61\n      jumpi\n      0x00\n      dup1\n      revert\n    tag_61:\n      pop\n      tag_62\n      tag_63\n      jump\t// in\n    tag_62:\n      mload(0x40)\n      tag_64\n      swap2\n      swap1\n      tag_33\n      jump\t// in\n    tag_64:\n      mload(0x40)\n      dup1\n      swap2\n      sub\n      swap1\n      return\n        /* \"Lottogemeinschaft.sol\":6060:6334  function erlaubteMitspielerAdresseHinzufuegen(address _erlaubterMitspieler) public restictedToGruender{... */\n    tag_10:\n      callvalue\n      dup1\n      iszero\n      tag_65\n      jumpi\n      0x00\n      dup1\n      revert\n    tag_65:\n      pop\n      tag_66\n      0x04\n      dup1\n      calldatasize\n      sub\n      dup2\n      add\n      swap1\n      tag_67\n      swap2\n      swap1\n      tag_54\n      jump\t// in\n    tag_67:\n      tag_68\n      jump\t// in\n    tag_66:\n      stop\n        /* \"Lottogemeinschaft.sol\":3427:4271  function mitmachen() public payable {... */\n    tag_11:\n      tag_69\n      tag_70\n      jump\t// in\n    tag_69:\n      stop\n        /* \"Lottogemeinschaft.sol\":1813:1848  uint256  public maxTeilnehmerAnzahl */\n    tag_12:\n      callvalue\n      dup1\n      iszero\n      tag_71\n      jumpi\n      0x00\n      dup1\n      revert\n    tag_71:\n      pop\n      tag_72\n      tag_73\n      jump\t// in\n    tag_72:\n      mload(0x40)\n      tag_74\n      swap2\n      swap1\n      tag_33\n      jump\t// in\n    tag_74:\n      mload(0x40)\n      dup1\n      swap2\n      sub\n      swap1\n      return\n        /* \"Lottogemeinschaft.sol\":5766:6054  function anzahlMitspielerAendern(uint256  neueAnzahlMaxTeilnehmer) public restictedToGruender{... */\n    tag_13:\n      callvalue\n      dup1\n      iszero\n      tag_75\n      jumpi\n      0x00\n      dup1\n      revert\n    tag_75:\n      pop\n      tag_76\n      0x04\n      dup1\n      calldatasize\n      sub\n      dup2\n      add\n      swap1\n      tag_77\n      swap2\n      swap1\n      tag_49\n      jump\t// in\n    tag_77:\n      tag_78\n      jump\t// in\n    tag_76:\n      stop\n        /* \"Lottogemeinschaft.sol\":5027:5515  function gewinnAbholen() public restictedToMitspieler nonReentrant {... */\n    tag_14:\n      callvalue\n      dup1\n      iszero\n      tag_79\n      jumpi\n      0x00\n      dup1\n      revert\n    tag_79:\n      pop\n      tag_80\n      tag_81\n      jump\t// in\n    tag_80:\n      stop\n        /* \"Lottogemeinschaft.sol\":1932:1965  string public spielauftragsNummer */\n    tag_15:\n      callvalue\n      dup1\n      iszero\n      tag_82\n      jumpi\n      0x00\n      dup1\n      revert\n    tag_82:\n      pop\n      tag_83\n      tag_84\n      jump\t// in\n    tag_83:\n      mload(0x40)\n      tag_85\n      swap2\n      swap1\n      tag_86\n      jump\t// in\n    tag_85:\n      mload(0x40)\n      dup1\n      swap2\n      sub\n      swap1\n      return\n        /* \"Lottogemeinschaft.sol\":5522:5760  function preisLottoscheinAendern(uint256  neuerPreis) public restictedToGruender{... */\n    tag_16:\n      callvalue\n      dup1\n      iszero\n      tag_87\n      jumpi\n      0x00\n      dup1\n      revert\n    tag_87:\n      pop\n      tag_88\n      0x04\n      dup1\n      calldatasize\n      sub\n      dup2\n      add\n      swap1\n      tag_89\n      swap2\n      swap1\n      tag_49\n      jump\t// in\n    tag_89:\n      tag_90\n      jump\t// in\n    tag_88:\n      stop\n        /* \"Lottogemeinschaft.sol\":2051:2099  mapping(address => bool) public gewinnAusgezahlt */\n    tag_17:\n      callvalue\n      dup1\n      iszero\n      tag_91\n      jumpi\n      0x00\n      dup1\n      revert\n    tag_91:\n      pop\n      tag_92\n      0x04\n      dup1\n      calldatasize\n      sub\n      dup2\n      add\n      swap1\n      tag_93\n      swap2\n      swap1\n      tag_54\n      jump\t// in\n    tag_93:\n      tag_94\n      jump\t// in\n    tag_92:\n      mload(0x40)\n      tag_95\n      swap2\n      swap1\n      tag_42\n      jump\t// in\n    tag_95:\n      mload(0x40)\n      dup1\n      swap2\n      sub\n      swap1\n      return\n        /* \"Lottogemeinschaft.sol\":6748:7241  function einsatzZurueckholen() public restictedToMitspieler nonReentrant {... */\n    tag_18:\n      callvalue\n      dup1\n      iszero\n      tag_96\n      jumpi\n      0x00\n      dup1\n      revert\n    tag_96:\n      pop\n      tag_97\n      tag_98\n      jump\t// in\n    tag_97:\n      stop\n        /* \"Lottogemeinschaft.sol\":6435:6692  function gemeinschaftAufloesen() public restictedToGruender {... */\n    tag_19:\n      callvalue\n      dup1\n      iszero\n      tag_99\n      jumpi\n      0x00\n      dup1\n      revert\n    tag_99:\n      pop\n      tag_100\n      tag_101\n      jump\t// in\n    tag_100:\n      stop\n        /* \"Lottogemeinschaft.sol\":1743:1766  address public gruender */\n    tag_20:\n      callvalue\n      dup1\n      iszero\n      tag_102\n      jumpi\n      0x00\n      dup1\n      revert\n    tag_102:\n      pop\n      tag_103\n      tag_104\n      jump\t// in\n    tag_103:\n      mload(0x40)\n      tag_105\n      swap2\n      swap1\n      tag_106\n      jump\t// in\n    tag_105:\n      mload(0x40)\n      dup1\n      swap2\n      sub\n      swap1\n      return\n        /* \"Lottogemeinschaft.sol\":2301:2340  bool public nurErlaubteMitspieler=false */\n    tag_21:\n      callvalue\n      dup1\n      iszero\n      tag_107\n      jumpi\n      0x00\n      dup1\n      revert\n    tag_107:\n      pop\n      tag_108\n      tag_109\n      jump\t// in\n    tag_108:\n      mload(0x40)\n      tag_110\n      swap2\n      swap1\n      tag_42\n      jump\t// in\n    tag_110:\n      mload(0x40)\n      dup1\n      swap2\n      sub\n      swap1\n      return\n        /* \"Lottogemeinschaft.sol\":2105:2158  mapping(address => bool) public einsatzZurueckGezahlt */\n    tag_22:\n      callvalue\n      dup1\n      iszero\n      tag_111\n      jumpi\n      0x00\n      dup1\n      revert\n    tag_111:\n      pop\n      tag_112\n      0x04\n      dup1\n      calldatasize\n      sub\n      dup2\n      add\n      swap1\n      tag_113\n      swap2\n      swap1\n      tag_54\n      jump\t// in\n    tag_113:\n      tag_114\n      jump\t// in\n    tag_112:\n      mload(0x40)\n      tag_115\n      swap2\n      swap1\n      tag_42\n      jump\t// in\n    tag_115:\n      mload(0x40)\n      dup1\n      swap2\n      sub\n      swap1\n      return\n        /* \"Lottogemeinschaft.sol\":1772:1807  string public tippgemeinschaftsName */\n    tag_23:\n      callvalue\n      dup1\n      iszero\n      tag_116\n      jumpi\n      0x00\n      dup1\n      revert\n    tag_116:\n      pop\n      tag_117\n      tag_118\n      jump\t// in\n    tag_117:\n      mload(0x40)\n      tag_119\n      swap2\n      swap1\n      tag_86\n      jump\t// in\n    tag_119:\n      mload(0x40)\n      dup1\n      swap2\n      sub\n      swap1\n      return\n        /* \"Lottogemeinschaft.sol\":2428:2450  bool public aufgeloest */\n    tag_24:\n      callvalue\n      dup1\n      iszero\n      tag_120\n      jumpi\n      0x00\n      dup1\n      revert\n    tag_120:\n      pop\n      tag_121\n      tag_122\n      jump\t// in\n    tag_121:\n      mload(0x40)\n      tag_123\n      swap2\n      swap1\n      tag_42\n      jump\t// in\n    tag_123:\n      mload(0x40)\n      dup1\n      swap2\n      sub\n      swap1\n      return\n        /* \"Lottogemeinschaft.sol\":2346:2397  mapping(address => bool) public erlaubterMitspieler */\n    tag_25:\n      callvalue\n      dup1\n      iszero\n      tag_124\n      jumpi\n      0x00\n      dup1\n      revert\n    tag_124:\n      pop\n      tag_125\n      0x04\n      dup1\n      calldatasize\n      sub\n      dup2\n      add\n      swap1\n      tag_126\n      swap2\n      swap1\n      tag_54\n      jump\t// in\n    tag_126:\n      tag_127\n      jump\t// in\n    tag_125:\n      mload(0x40)\n      tag_128\n      swap2\n      swap1\n      tag_42\n      jump\t// in\n    tag_128:\n      mload(0x40)\n      dup1\n      swap2\n      sub\n      swap1\n      return\n        /* \"Lottogemeinschaft.sol\":1971:1997  uint256  public auszahlung */\n    tag_31:\n      sload(0x06)\n      dup2\n      jump\t// out\n        /* \"Lottogemeinschaft.sol\":2209:2247  uint256 public gewinnProMitspieler = 0 */\n    tag_36:\n      sload(0x0b)\n      dup2\n      jump\t// out\n        /* \"Lottogemeinschaft.sol\":2253:2295  bool public gewinnKannAbgeholtWerden=false */\n    tag_40:\n      0x0c\n      0x00\n      swap1\n      sload\n      swap1\n      0x0100\n      exp\n      swap1\n      div\n      0xff\n      and\n      dup2\n      jump\t// out\n        /* \"Lottogemeinschaft.sol\":1892:1926  uint256  public preisProMitspieler */\n    tag_45:\n      sload(0x04)\n      dup2\n      jump\t// out\n        /* \"Lottogemeinschaft.sol\":4319:4979  function gewinnEinzahlen(uint256  gewinn) public payable restictedToGruender {... */\n    tag_50:\n        /* \"Lottogemeinschaft.sol\":3158:3166  gruender */\n      0x00\n      dup1\n      sload\n      swap1\n      0x0100\n      exp\n      swap1\n      div\n      0xffffffffffffffffffffffffffffffffffffffff\n      and\n        /* \"Lottogemeinschaft.sol\":3144:3166  msg.sender == gruender */\n      0xffffffffffffffffffffffffffffffffffffffff\n      and\n        /* \"Lottogemeinschaft.sol\":3144:3154  msg.sender */\n      caller\n        /* \"Lottogemeinschaft.sol\":3144:3166  msg.sender == gruender */\n      0xffffffffffffffffffffffffffffffffffffffff\n      and\n      eq\n        /* \"Lottogemeinschaft.sol\":3136:3167  require(msg.sender == gruender) */\n      tag_130\n      jumpi\n      0x00\n      dup1\n      revert\n    tag_130:\n        /* \"Lottogemeinschaft.sol\":4512:4513  0 */\n      0x00\n        /* \"Lottogemeinschaft.sol\":4500:4509  msg.value */\n      callvalue\n        /* \"Lottogemeinschaft.sol\":4500:4513  msg.value > 0 */\n      gt\n        /* \"Lottogemeinschaft.sol\":4492:4560  require(msg.value > 0, \"Einzahlungsbetrag muss groesser als 0 sein\") */\n      tag_132\n      jumpi\n      mload(0x40)\n      0x08c379a000000000000000000000000000000000000000000000000000000000\n      dup2\n      mstore\n      0x04\n      add\n      tag_133\n      swap1\n      tag_134\n      jump\t// in\n    tag_133:\n      mload(0x40)\n      dup1\n      swap2\n      sub\n      swap1\n      revert\n    tag_132:\n        /* \"Lottogemeinschaft.sol\":4599:4600  0 */\n      0x00\n        /* \"Lottogemeinschaft.sol\":4578:4597  gewinnProMitspieler */\n      sload(0x0b)\n        /* \"Lottogemeinschaft.sol\":4578:4600  gewinnProMitspieler==0 */\n      eq\n        /* \"Lottogemeinschaft.sol\":4570:4637  require(gewinnProMitspieler==0, \"Gewinn wurde bereits eingezahlt.\") */\n      tag_135\n      jumpi\n      mload(0x40)\n      0x08c379a000000000000000000000000000000000000000000000000000000000\n      dup2\n      mstore\n      0x04\n      add\n      tag_136\n      swap1\n      tag_137\n      jump\t// in\n    tag_136:\n      mload(0x40)\n      dup1\n      swap2\n      sub\n      swap1\n      revert\n    tag_135:\n        /* \"Lottogemeinschaft.sol\":4907:4930  anzahlTeilnehmerAktuell */\n      sload(0x0a)\n        /* \"Lottogemeinschaft.sol\":4898:4904  gewinn */\n      dup2\n        /* \"Lottogemeinschaft.sol\":4898:4930  gewinn / anzahlTeilnehmerAktuell */\n      tag_138\n      swap2\n      swap1\n      tag_139\n      jump\t// in\n    tag_138:\n        /* \"Lottogemeinschaft.sol\":4876:4895  gewinnProMitspieler */\n      0x0b\n        /* \"Lottogemeinschaft.sol\":4876:4930  gewinnProMitspieler = gewinn / anzahlTeilnehmerAktuell */\n      dup2\n      swap1\n      sstore\n      pop\n        /* \"Lottogemeinschaft.sol\":4967:4971  true */\n      0x01\n        /* \"Lottogemeinschaft.sol\":4940:4964  gewinnKannAbgeholtWerden */\n      0x0c\n      0x00\n        /* \"Lottogemeinschaft.sol\":4940:4971  gewinnKannAbgeholtWerden = true */\n      0x0100\n      exp\n      dup2\n      sload\n      dup2\n      0xff\n      mul\n      not\n      and\n      swap1\n      dup4\n      iszero\n      iszero\n      mul\n      or\n      swap1\n      sstore\n      pop\n        /* \"Lottogemeinschaft.sol\":4319:4979  function gewinnEinzahlen(uint256  gewinn) public payable restictedToGruender {... */\n      pop\n      jump\t// out\n        /* \"Lottogemeinschaft.sol\":2003:2045  mapping(address => bool) public mitspieler */\n    tag_55:\n      mstore(0x20, 0x07)\n      dup1\n      0x00\n      mstore\n      keccak256(0x00, 0x40)\n      0x00\n      swap2\n      pop\n      sload\n      swap1\n      0x0100\n      exp\n      swap1\n      div\n      0xff\n      and\n      dup2\n      jump\t// out\n        /* \"Lottogemeinschaft.sol\":2164:2203  uint256  public anzahlTeilnehmerAktuell */\n    tag_59:\n      sload(0x0a)\n      dup2\n      jump\t// out\n        /* \"Lottogemeinschaft.sol\":1854:1886  uint256  public preisLottoschein */\n    tag_63:\n      sload(0x03)\n      dup2\n      jump\t// out\n        /* \"Lottogemeinschaft.sol\":6060:6334  function erlaubteMitspielerAdresseHinzufuegen(address _erlaubterMitspieler) public restictedToGruender{... */\n    tag_68:\n        /* \"Lottogemeinschaft.sol\":3158:3166  gruender */\n      0x00\n      dup1\n      sload\n      swap1\n      0x0100\n      exp\n      swap1\n      div\n      0xffffffffffffffffffffffffffffffffffffffff\n      and\n        /* \"Lottogemeinschaft.sol\":3144:3166  msg.sender == gruender */\n      0xffffffffffffffffffffffffffffffffffffffff\n      and\n        /* \"Lottogemeinschaft.sol\":3144:3154  msg.sender */\n      caller\n        /* \"Lottogemeinschaft.sol\":3144:3166  msg.sender == gruender */\n      0xffffffffffffffffffffffffffffffffffffffff\n      and\n      eq\n        /* \"Lottogemeinschaft.sol\":3136:3167  require(msg.sender == gruender) */\n      tag_141\n      jumpi\n      0x00\n      dup1\n      revert\n    tag_141:\n        /* \"Lottogemeinschaft.sol\":6205:6206  0 */\n      0x00\n        /* \"Lottogemeinschaft.sol\":6180:6203  anzahlTeilnehmerAktuell */\n      sload(0x0a)\n        /* \"Lottogemeinschaft.sol\":6180:6206  anzahlTeilnehmerAktuell==0 */\n      eq\n        /* \"Lottogemeinschaft.sol\":6172:6269  require(anzahlTeilnehmerAktuell==0, \"Es gibt bereits Mitspieler. Aenderung nicht mehr moeglich.\") */\n      tag_143\n      jumpi\n      mload(0x40)\n      0x08c379a000000000000000000000000000000000000000000000000000000000\n      dup2\n      mstore\n      0x04\n      add\n      tag_144\n      swap1\n      tag_145\n      jump\t// in\n    tag_144:\n      mload(0x40)\n      dup1\n      swap2\n      sub\n      swap1\n      revert\n    tag_143:\n        /* \"Lottogemeinschaft.sol\":6323:6327  true */\n      0x01\n        /* \"Lottogemeinschaft.sol\":6279:6298  erlaubterMitspieler */\n      0x0d\n        /* \"Lottogemeinschaft.sol\":6279:6320  erlaubterMitspieler[_erlaubterMitspieler] */\n      0x00\n        /* \"Lottogemeinschaft.sol\":6299:6319  _erlaubterMitspieler */\n      dup4\n        /* \"Lottogemeinschaft.sol\":6279:6320  erlaubterMitspieler[_erlaubterMitspieler] */\n      0xffffffffffffffffffffffffffffffffffffffff\n      and\n      0xffffffffffffffffffffffffffffffffffffffff\n      and\n      dup2\n      mstore\n      0x20\n      add\n      swap1\n      dup2\n      mstore\n      0x20\n      add\n      0x00\n      keccak256\n      0x00\n        /* \"Lottogemeinschaft.sol\":6279:6327  erlaubterMitspieler[_erlaubterMitspieler] = true */\n      0x0100\n      exp\n      dup2\n      sload\n      dup2\n      0xff\n      mul\n      not\n      and\n      swap1\n      dup4\n      iszero\n      iszero\n      mul\n      or\n      swap1\n      sstore\n      pop\n        /* \"Lottogemeinschaft.sol\":6060:6334  function erlaubteMitspielerAdresseHinzufuegen(address _erlaubterMitspieler) public restictedToGruender{... */\n      pop\n      jump\t// out\n        /* \"Lottogemeinschaft.sol\":3427:4271  function mitmachen() public payable {... */\n    tag_70:\n        /* \"Lottogemeinschaft.sol\":3514:3515  0 */\n      0x00\n        /* \"Lottogemeinschaft.sol\":3495:3513  preisProMitspieler */\n      sload(0x04)\n        /* \"Lottogemeinschaft.sol\":3495:3515  preisProMitspieler>0 */\n      gt\n        /* \"Lottogemeinschaft.sol\":3487:3545  require(preisProMitspieler>0, \"Kein Preis pro Mitspieler\") */\n      tag_147\n      jumpi\n      mload(0x40)\n      0x08c379a000000000000000000000000000000000000000000000000000000000\n      dup2\n      mstore\n      0x04\n      add\n      tag_148\n      swap1\n      tag_149\n      jump\t// in\n    tag_148:\n      mload(0x40)\n      dup1\n      swap2\n      sub\n      swap1\n      revert\n    tag_147:\n        /* \"Lottogemeinschaft.sol\":3576:3594  preisProMitspieler */\n      sload(0x04)\n        /* \"Lottogemeinschaft.sol\":3563:3572  msg.value */\n      callvalue\n        /* \"Lottogemeinschaft.sol\":3563:3594  msg.value >= preisProMitspieler */\n      lt\n      iszero\n        /* \"Lottogemeinschaft.sol\":3555:3628  require(msg.value >= preisProMitspieler, \"Zu geringer Einzahlungsbetrag\") */\n      tag_150\n      jumpi\n      mload(0x40)\n      0x08c379a000000000000000000000000000000000000000000000000000000000\n      dup2\n      mstore\n      0x04\n      add\n      tag_151\n      swap1\n      tag_152\n      jump\t// in\n    tag_151:\n      mload(0x40)\n      dup1\n      swap2\n      sub\n      swap1\n      revert\n    tag_150:\n        /* \"Lottogemeinschaft.sol\":3647:3657  mitspieler */\n      0x07\n        /* \"Lottogemeinschaft.sol\":3647:3669  mitspieler[msg.sender] */\n      0x00\n        /* \"Lottogemeinschaft.sol\":3658:3668  msg.sender */\n      caller\n        /* \"Lottogemeinschaft.sol\":3647:3669  mitspieler[msg.sender] */\n      0xffffffffffffffffffffffffffffffffffffffff\n      and\n      0xffffffffffffffffffffffffffffffffffffffff\n      and\n      dup2\n      mstore\n      0x20\n      add\n      swap1\n      dup2\n      mstore\n      0x20\n      add\n      0x00\n      keccak256\n      0x00\n      swap1\n      sload\n      swap1\n      0x0100\n      exp\n      swap1\n      div\n      0xff\n      and\n        /* \"Lottogemeinschaft.sol\":3646:3669  !mitspieler[msg.sender] */\n      iszero\n        /* \"Lottogemeinschaft.sol\":3638:3708  require(!mitspieler[msg.sender], \"Bereits als Mitspieler registriert\") */\n      tag_153\n      jumpi\n      mload(0x40)\n      0x08c379a000000000000000000000000000000000000000000000000000000000\n      dup2\n      mstore\n      0x04\n      add\n      tag_154\n      swap1\n      tag_155\n      jump\t// in\n    tag_154:\n      mload(0x40)\n      dup1\n      swap2\n      sub\n      swap1\n      revert\n    tag_153:\n        /* \"Lottogemeinschaft.sol\":3752:3771  maxTeilnehmerAnzahl */\n      sload(0x02)\n        /* \"Lottogemeinschaft.sol\":3726:3749  anzahlTeilnehmerAktuell */\n      sload(0x0a)\n        /* \"Lottogemeinschaft.sol\":3726:3771  anzahlTeilnehmerAktuell < maxTeilnehmerAnzahl */\n      lt\n        /* \"Lottogemeinschaft.sol\":3718:3808  require(anzahlTeilnehmerAktuell < maxTeilnehmerAnzahl, \"Maximale Teilnehmerzahl erreicht\") */\n      tag_156\n      jumpi\n      mload(0x40)\n      0x08c379a000000000000000000000000000000000000000000000000000000000\n      dup2\n      mstore\n      0x04\n      add\n      tag_157\n      swap1\n      tag_158\n      jump\t// in\n    tag_157:\n      mload(0x40)\n      dup1\n      swap2\n      sub\n      swap1\n      revert\n    tag_156:\n        /* \"Lottogemeinschaft.sol\":3847:3848  0 */\n      0x00\n        /* \"Lottogemeinschaft.sol\":3826:3845  gewinnProMitspieler */\n      sload(0x0b)\n        /* \"Lottogemeinschaft.sol\":3826:3848  gewinnProMitspieler==0 */\n      eq\n        /* \"Lottogemeinschaft.sol\":3818:3884  require(gewinnProMitspieler==0, \"Gewinn wurde bereits eingezahlt\") */\n      tag_159\n      jumpi\n      mload(0x40)\n      0x08c379a000000000000000000000000000000000000000000000000000000000\n      dup2\n      mstore\n      0x04\n      add\n      tag_160\n      swap1\n      tag_161\n      jump\t// in\n    tag_160:\n      mload(0x40)\n      dup1\n      swap2\n      sub\n      swap1\n      revert\n    tag_159:\n        /* \"Lottogemeinschaft.sol\":3898:3919  nurErlaubteMitspieler */\n      0x0c\n      0x01\n      swap1\n      sload\n      swap1\n      0x0100\n      exp\n      swap1\n      div\n      0xff\n      and\n        /* \"Lottogemeinschaft.sol\":3894:3985  if (nurErlaubteMitspieler){... */\n      iszero\n      tag_162\n      jumpi\n        /* \"Lottogemeinschaft.sol\":3942:3961  erlaubterMitspieler */\n      0x0d\n        /* \"Lottogemeinschaft.sol\":3942:3973  erlaubterMitspieler[msg.sender] */\n      0x00\n        /* \"Lottogemeinschaft.sol\":3962:3972  msg.sender */\n      caller\n        /* \"Lottogemeinschaft.sol\":3942:3973  erlaubterMitspieler[msg.sender] */\n      0xffffffffffffffffffffffffffffffffffffffff\n      and\n      0xffffffffffffffffffffffffffffffffffffffff\n      and\n      dup2\n      mstore\n      0x20\n      add\n      swap1\n      dup2\n      mstore\n      0x20\n      add\n      0x00\n      keccak256\n      0x00\n      swap1\n      sload\n      swap1\n      0x0100\n      exp\n      swap1\n      div\n      0xff\n      and\n        /* \"Lottogemeinschaft.sol\":3934:3974  require(erlaubterMitspieler[msg.sender]) */\n      tag_163\n      jumpi\n      0x00\n      dup1\n      revert\n    tag_163:\n        /* \"Lottogemeinschaft.sol\":3894:3985  if (nurErlaubteMitspieler){... */\n    tag_162:\n        /* \"Lottogemeinschaft.sol\":4016:4036  uint256  ueberschuss */\n      0x00\n        /* \"Lottogemeinschaft.sol\":4051:4069  preisProMitspieler */\n      sload(0x04)\n        /* \"Lottogemeinschaft.sol\":4039:4048  msg.value */\n      callvalue\n        /* \"Lottogemeinschaft.sol\":4039:4069  msg.value - preisProMitspieler */\n      tag_164\n      swap2\n      swap1\n      tag_165\n      jump\t// in\n    tag_164:\n        /* \"Lottogemeinschaft.sol\":4016:4069  uint256  ueberschuss = msg.value - preisProMitspieler */\n      swap1\n      pop\n        /* \"Lottogemeinschaft.sol\":4104:4108  true */\n      0x01\n        /* \"Lottogemeinschaft.sol\":4079:4089  mitspieler */\n      0x07\n        /* \"Lottogemeinschaft.sol\":4079:4101  mitspieler[msg.sender] */\n      0x00\n        /* \"Lottogemeinschaft.sol\":4090:4100  msg.sender */\n      caller\n        /* \"Lottogemeinschaft.sol\":4079:4101  mitspieler[msg.sender] */\n      0xffffffffffffffffffffffffffffffffffffffff\n      and\n      0xffffffffffffffffffffffffffffffffffffffff\n      and\n      dup2\n      mstore\n      0x20\n      add\n      swap1\n      dup2\n      mstore\n      0x20\n      add\n      0x00\n      keccak256\n      0x00\n        /* \"Lottogemeinschaft.sol\":4079:4108  mitspieler[msg.sender] = true */\n      0x0100\n      exp\n      dup2\n      sload\n      dup2\n      0xff\n      mul\n      not\n      and\n      swap1\n      dup4\n      iszero\n      iszero\n      mul\n      or\n      swap1\n      sstore\n      pop\n        /* \"Lottogemeinschaft.sol\":4118:4141  anzahlTeilnehmerAktuell */\n      0x0a\n      0x00\n        /* \"Lottogemeinschaft.sol\":4118:4143  anzahlTeilnehmerAktuell++ */\n      dup2\n      sload\n      dup1\n      swap3\n      swap2\n      swap1\n      tag_166\n      swap1\n      tag_167\n      jump\t// in\n    tag_166:\n      swap2\n      swap1\n      pop\n      sstore\n      pop\n        /* \"Lottogemeinschaft.sol\":4196:4197  0 */\n      0x00\n        /* \"Lottogemeinschaft.sol\":4182:4193  ueberschuss */\n      dup2\n        /* \"Lottogemeinschaft.sol\":4182:4197  ueberschuss > 0 */\n      gt\n        /* \"Lottogemeinschaft.sol\":4178:4265  if (ueberschuss > 0) {... */\n      iszero\n      tag_168\n      jumpi\n        /* \"Lottogemeinschaft.sol\":4221:4231  msg.sender */\n      caller\n        /* \"Lottogemeinschaft.sol\":4213:4241  payable(msg.sender).transfer */\n      0xffffffffffffffffffffffffffffffffffffffff\n      and\n        /* \"Lottogemeinschaft.sol\":4213:4254  payable(msg.sender).transfer(ueberschuss) */\n      0x08fc\n        /* \"Lottogemeinschaft.sol\":4242:4253  ueberschuss */\n      dup3\n        /* \"Lottogemeinschaft.sol\":4213:4254  payable(msg.sender).transfer(ueberschuss) */\n      swap1\n      dup2\n      iszero\n      mul\n      swap1\n      mload(0x40)\n      0x00\n      mload(0x40)\n      dup1\n      dup4\n      sub\n      dup2\n      dup6\n      dup9\n      dup9\n      call\n      swap4\n      pop\n      pop\n      pop\n      pop\n      iszero\n      dup1\n      iszero\n      tag_170\n      jumpi\n      returndatasize\n      0x00\n      dup1\n      returndatacopy\n      revert(0x00, returndatasize)\n    tag_170:\n      pop\n        /* \"Lottogemeinschaft.sol\":4178:4265  if (ueberschuss > 0) {... */\n    tag_168:\n        /* \"Lottogemeinschaft.sol\":3463:4271  {... */\n      pop\n        /* \"Lottogemeinschaft.sol\":3427:4271  function mitmachen() public payable {... */\n      jump\t// out\n        /* \"Lottogemeinschaft.sol\":1813:1848  uint256  public maxTeilnehmerAnzahl */\n    tag_73:\n      sload(0x02)\n      dup2\n      jump\t// out\n        /* \"Lottogemeinschaft.sol\":5766:6054  function anzahlMitspielerAendern(uint256  neueAnzahlMaxTeilnehmer) public restictedToGruender{... */\n    tag_78:\n        /* \"Lottogemeinschaft.sol\":3158:3166  gruender */\n      0x00\n      dup1\n      sload\n      swap1\n      0x0100\n      exp\n      swap1\n      div\n      0xffffffffffffffffffffffffffffffffffffffff\n      and\n        /* \"Lottogemeinschaft.sol\":3144:3166  msg.sender == gruender */\n      0xffffffffffffffffffffffffffffffffffffffff\n      and\n        /* \"Lottogemeinschaft.sol\":3144:3154  msg.sender */\n      caller\n        /* \"Lottogemeinschaft.sol\":3144:3166  msg.sender == gruender */\n      0xffffffffffffffffffffffffffffffffffffffff\n      and\n      eq\n        /* \"Lottogemeinschaft.sol\":3136:3167  require(msg.sender == gruender) */\n      tag_172\n      jumpi\n      0x00\n      dup1\n      revert\n    tag_172:\n        /* \"Lottogemeinschaft.sol\":5902:5903  0 */\n      0x00\n        /* \"Lottogemeinschaft.sol\":5877:5900  anzahlTeilnehmerAktuell */\n      sload(0x0a)\n        /* \"Lottogemeinschaft.sol\":5877:5903  anzahlTeilnehmerAktuell==0 */\n      eq\n        /* \"Lottogemeinschaft.sol\":5869:5992  require(anzahlTeilnehmerAktuell==0, \"Es gibt bereits Mitspieler. Aenderung der Anzahl an Mitspielern nicht mehr moeglich.\") */\n      tag_174\n      jumpi\n      mload(0x40)\n      0x08c379a000000000000000000000000000000000000000000000000000000000\n      dup2\n      mstore\n      0x04\n      add\n      tag_175\n      swap1\n      tag_176\n      jump\t// in\n    tag_175:\n      mload(0x40)\n      dup1\n      swap2\n      sub\n      swap1\n      revert\n    tag_174:\n        /* \"Lottogemeinschaft.sol\":6024:6047  neueAnzahlMaxTeilnehmer */\n      dup1\n        /* \"Lottogemeinschaft.sol\":6002:6021  maxTeilnehmerAnzahl */\n      0x02\n        /* \"Lottogemeinschaft.sol\":6002:6047  maxTeilnehmerAnzahl = neueAnzahlMaxTeilnehmer */\n      dup2\n      swap1\n      sstore\n      pop\n        /* \"Lottogemeinschaft.sol\":5766:6054  function anzahlMitspielerAendern(uint256  neueAnzahlMaxTeilnehmer) public restictedToGruender{... */\n      pop\n      jump\t// out\n        /* \"Lottogemeinschaft.sol\":5027:5515  function gewinnAbholen() public restictedToMitspieler nonReentrant {... */\n    tag_81:\n        /* \"Lottogemeinschaft.sol\":3241:3251  mitspieler */\n      0x07\n        /* \"Lottogemeinschaft.sol\":3241:3263  mitspieler[msg.sender] */\n      0x00\n        /* \"Lottogemeinschaft.sol\":3252:3262  msg.sender */\n      caller\n        /* \"Lottogemeinschaft.sol\":3241:3263  mitspieler[msg.sender] */\n      0xffffffffffffffffffffffffffffffffffffffff\n      and\n      0xffffffffffffffffffffffffffffffffffffffff\n      and\n      dup2\n      mstore\n      0x20\n      add\n      swap1\n      dup2\n      mstore\n      0x20\n      add\n      0x00\n      keccak256\n      0x00\n      swap1\n      sload\n      swap1\n      0x0100\n      exp\n      swap1\n      div\n      0xff\n      and\n        /* \"Lottogemeinschaft.sol\":3233:3264  require(mitspieler[msg.sender]) */\n      tag_178\n      jumpi\n      0x00\n      dup1\n      revert\n    tag_178:\n        /* \"Lottogemeinschaft.sol\":3331:3337  locked */\n      0x0e\n      0x00\n      swap1\n      sload\n      swap1\n      0x0100\n      exp\n      swap1\n      div\n      0xff\n      and\n        /* \"Lottogemeinschaft.sol\":3330:3337  !locked */\n      iszero\n        /* \"Lottogemeinschaft.sol\":3322:3356  require(!locked, \"No re-entrancy\") */\n      tag_180\n      jumpi\n      mload(0x40)\n      0x08c379a000000000000000000000000000000000000000000000000000000000\n      dup2\n      mstore\n      0x04\n      add\n      tag_181\n      swap1\n      tag_182\n      jump\t// in\n    tag_181:\n      mload(0x40)\n      dup1\n      swap2\n      sub\n      swap1\n      revert\n    tag_180:\n        /* \"Lottogemeinschaft.sol\":3375:3379  true */\n      0x01\n        /* \"Lottogemeinschaft.sol\":3366:3372  locked */\n      0x0e\n      0x00\n        /* \"Lottogemeinschaft.sol\":3366:3379  locked = true */\n      0x0100\n      exp\n      dup2\n      sload\n      dup2\n      0xff\n      mul\n      not\n      and\n      swap1\n      dup4\n      iszero\n      iszero\n      mul\n      or\n      swap1\n      sstore\n      pop\n        /* \"Lottogemeinschaft.sol\":5112:5136  gewinnKannAbgeholtWerden */\n      0x0c\n      0x00\n      swap1\n      sload\n      swap1\n      0x0100\n      exp\n      swap1\n      div\n      0xff\n      and\n        /* \"Lottogemeinschaft.sol\":5104:5180  require(gewinnKannAbgeholtWerden, \"Gewinn kann noch nicht abgeholt werden.\") */\n      tag_184\n      jumpi\n      mload(0x40)\n      0x08c379a000000000000000000000000000000000000000000000000000000000\n      dup2\n      mstore\n      0x04\n      add\n      tag_185\n      swap1\n      tag_186\n      jump\t// in\n    tag_185:\n      mload(0x40)\n      dup1\n      swap2\n      sub\n      swap1\n      revert\n    tag_184:\n        /* \"Lottogemeinschaft.sol\":5220:5221  0 */\n      0x00\n        /* \"Lottogemeinschaft.sol\":5198:5217  gewinnProMitspieler */\n      sload(0x0b)\n        /* \"Lottogemeinschaft.sol\":5198:5221  gewinnProMitspieler > 0 */\n      gt\n        /* \"Lottogemeinschaft.sol\":5190:5264  require(gewinnProMitspieler > 0, \"Kein Gewinn zur Auszahlung verfuegbar.\") */\n      tag_187\n      jumpi\n      mload(0x40)\n      0x08c379a000000000000000000000000000000000000000000000000000000000\n      dup2\n      mstore\n      0x04\n      add\n      tag_188\n      swap1\n      tag_189\n      jump\t// in\n    tag_188:\n      mload(0x40)\n      dup1\n      swap2\n      sub\n      swap1\n      revert\n    tag_187:\n        /* \"Lottogemeinschaft.sol\":5283:5299  gewinnAusgezahlt */\n      0x08\n        /* \"Lottogemeinschaft.sol\":5283:5311  gewinnAusgezahlt[msg.sender] */\n      0x00\n        /* \"Lottogemeinschaft.sol\":5300:5310  msg.sender */\n      caller\n        /* \"Lottogemeinschaft.sol\":5283:5311  gewinnAusgezahlt[msg.sender] */\n      0xffffffffffffffffffffffffffffffffffffffff\n      and\n      0xffffffffffffffffffffffffffffffffffffffff\n      and\n      dup2\n      mstore\n      0x20\n      add\n      swap1\n      dup2\n      mstore\n      0x20\n      add\n      0x00\n      keccak256\n      0x00\n      swap1\n      sload\n      swap1\n      0x0100\n      exp\n      swap1\n      div\n      0xff\n      and\n        /* \"Lottogemeinschaft.sol\":5282:5311  !gewinnAusgezahlt[msg.sender] */\n      iszero\n        /* \"Lottogemeinschaft.sol\":5274:5346  require(!gewinnAusgezahlt[msg.sender], \"Gewinn wurde bereits abgeholt.\") */\n      tag_190\n      jumpi\n      mload(0x40)\n      0x08c379a000000000000000000000000000000000000000000000000000000000\n      dup2\n      mstore\n      0x04\n      add\n      tag_191\n      swap1\n      tag_192\n      jump\t// in\n    tag_191:\n      mload(0x40)\n      dup1\n      swap2\n      sub\n      swap1\n      revert\n    tag_190:\n        /* \"Lottogemeinschaft.sol\":5388:5392  true */\n      0x01\n        /* \"Lottogemeinschaft.sol\":5357:5373  gewinnAusgezahlt */\n      0x08\n        /* \"Lottogemeinschaft.sol\":5357:5385  gewinnAusgezahlt[msg.sender] */\n      0x00\n        /* \"Lottogemeinschaft.sol\":5374:5384  msg.sender */\n      caller\n        /* \"Lottogemeinschaft.sol\":5357:5385  gewinnAusgezahlt[msg.sender] */\n      0xffffffffffffffffffffffffffffffffffffffff\n      and\n      0xffffffffffffffffffffffffffffffffffffffff\n      and\n      dup2\n      mstore\n      0x20\n      add\n      swap1\n      dup2\n      mstore\n      0x20\n      add\n      0x00\n      keccak256\n      0x00\n        /* \"Lottogemeinschaft.sol\":5357:5392  gewinnAusgezahlt[msg.sender] = true */\n      0x0100\n      exp\n      dup2\n      sload\n      dup2\n      0xff\n      mul\n      not\n      and\n      swap1\n      dup4\n      iszero\n      iszero\n      mul\n      or\n      swap1\n      sstore\n      pop\n        /* \"Lottogemeinschaft.sol\":5403:5429  uint256  auszahlungsbetrag */\n      0x00\n        /* \"Lottogemeinschaft.sol\":5432:5451  gewinnProMitspieler */\n      sload(0x0b)\n        /* \"Lottogemeinschaft.sol\":5403:5451  uint256  auszahlungsbetrag = gewinnProMitspieler */\n      swap1\n      pop\n        /* \"Lottogemeinschaft.sol\":5469:5479  msg.sender */\n      caller\n        /* \"Lottogemeinschaft.sol\":5461:5489  payable(msg.sender).transfer */\n      0xffffffffffffffffffffffffffffffffffffffff\n      and\n        /* \"Lottogemeinschaft.sol\":5461:5508  payable(msg.sender).transfer(auszahlungsbetrag) */\n      0x08fc\n        /* \"Lottogemeinschaft.sol\":5490:5507  auszahlungsbetrag */\n      dup3\n        /* \"Lottogemeinschaft.sol\":5461:5508  payable(msg.sender).transfer(auszahlungsbetrag) */\n      swap1\n      dup2\n      iszero\n      mul\n      swap1\n      mload(0x40)\n      0x00\n      mload(0x40)\n      dup1\n      dup4\n      sub\n      dup2\n      dup6\n      dup9\n      dup9\n      call\n      swap4\n      pop\n      pop\n      pop\n      pop\n      iszero\n      dup1\n      iszero\n      tag_194\n      jumpi\n      returndatasize\n      0x00\n      dup1\n      returndatacopy\n      revert(0x00, returndatasize)\n    tag_194:\n      pop\n        /* \"Lottogemeinschaft.sol\":5094:5515  {... */\n      pop\n        /* \"Lottogemeinschaft.sol\":3409:3414  false */\n      0x00\n        /* \"Lottogemeinschaft.sol\":3400:3406  locked */\n      0x0e\n      0x00\n        /* \"Lottogemeinschaft.sol\":3400:3414  locked = false */\n      0x0100\n      exp\n      dup2\n      sload\n      dup2\n      0xff\n      mul\n      not\n      and\n      swap1\n      dup4\n      iszero\n      iszero\n      mul\n      or\n      swap1\n      sstore\n      pop\n        /* \"Lottogemeinschaft.sol\":5027:5515  function gewinnAbholen() public restictedToMitspieler nonReentrant {... */\n      jump\t// out\n        /* \"Lottogemeinschaft.sol\":1932:1965  string public spielauftragsNummer */\n    tag_84:\n      0x05\n      dup1\n      sload\n      tag_195\n      swap1\n      tag_196\n      jump\t// in\n    tag_195:\n      dup1\n      0x1f\n      add\n      0x20\n      dup1\n      swap2\n      div\n      mul\n      0x20\n      add\n      mload(0x40)\n      swap1\n      dup2\n      add\n      0x40\n      mstore\n      dup1\n      swap3\n      swap2\n      swap1\n      dup2\n      dup2\n      mstore\n      0x20\n      add\n      dup3\n      dup1\n      sload\n      tag_197\n      swap1\n      tag_196\n      jump\t// in\n    tag_197:\n      dup1\n      iszero\n      tag_198\n      jumpi\n      dup1\n      0x1f\n      lt\n      tag_199\n      jumpi\n      0x0100\n      dup1\n      dup4\n      sload\n      div\n      mul\n      dup4\n      mstore\n      swap2\n      0x20\n      add\n      swap2\n      jump(tag_198)\n    tag_199:\n      dup3\n      add\n      swap2\n      swap1\n      0x00\n      mstore\n      keccak256(0x00, 0x20)\n      swap1\n    tag_200:\n      dup2\n      sload\n      dup2\n      mstore\n      swap1\n      0x01\n      add\n      swap1\n      0x20\n      add\n      dup1\n      dup4\n      gt\n      tag_200\n      jumpi\n      dup3\n      swap1\n      sub\n      0x1f\n      and\n      dup3\n      add\n      swap2\n    tag_198:\n      pop\n      pop\n      pop\n      pop\n      pop\n      dup2\n      jump\t// out\n        /* \"Lottogemeinschaft.sol\":5522:5760  function preisLottoscheinAendern(uint256  neuerPreis) public restictedToGruender{... */\n    tag_90:\n        /* \"Lottogemeinschaft.sol\":3158:3166  gruender */\n      0x00\n      dup1\n      sload\n      swap1\n      0x0100\n      exp\n      swap1\n      div\n      0xffffffffffffffffffffffffffffffffffffffff\n      and\n        /* \"Lottogemeinschaft.sol\":3144:3166  msg.sender == gruender */\n      0xffffffffffffffffffffffffffffffffffffffff\n      and\n        /* \"Lottogemeinschaft.sol\":3144:3154  msg.sender */\n      caller\n        /* \"Lottogemeinschaft.sol\":3144:3166  msg.sender == gruender */\n      0xffffffffffffffffffffffffffffffffffffffff\n      and\n      eq\n        /* \"Lottogemeinschaft.sol\":3136:3167  require(msg.sender == gruender) */\n      tag_202\n      jumpi\n      0x00\n      dup1\n      revert\n    tag_202:\n        /* \"Lottogemeinschaft.sol\":5645:5646  0 */\n      0x00\n        /* \"Lottogemeinschaft.sol\":5620:5643  anzahlTeilnehmerAktuell */\n      sload(0x0a)\n        /* \"Lottogemeinschaft.sol\":5620:5646  anzahlTeilnehmerAktuell==0 */\n      eq\n        /* \"Lottogemeinschaft.sol\":5612:5714  require(anzahlTeilnehmerAktuell==0, \"Es gibt bereits Mitspieler. Preisaenderung nicht mehr moeglich.\") */\n      tag_204\n      jumpi\n      mload(0x40)\n      0x08c379a000000000000000000000000000000000000000000000000000000000\n      dup2\n      mstore\n      0x04\n      add\n      tag_205\n      swap1\n      tag_206\n      jump\t// in\n    tag_205:\n      mload(0x40)\n      dup1\n      swap2\n      sub\n      swap1\n      revert\n    tag_204:\n        /* \"Lottogemeinschaft.sol\":5743:5753  neuerPreis */\n      dup1\n        /* \"Lottogemeinschaft.sol\":5724:5740  preisLottoschein */\n      0x03\n        /* \"Lottogemeinschaft.sol\":5724:5753  preisLottoschein = neuerPreis */\n      dup2\n      swap1\n      sstore\n      pop\n        /* \"Lottogemeinschaft.sol\":5522:5760  function preisLottoscheinAendern(uint256  neuerPreis) public restictedToGruender{... */\n      pop\n      jump\t// out\n        /* \"Lottogemeinschaft.sol\":2051:2099  mapping(address => bool) public gewinnAusgezahlt */\n    tag_94:\n      mstore(0x20, 0x08)\n      dup1\n      0x00\n      mstore\n      keccak256(0x00, 0x40)\n      0x00\n      swap2\n      pop\n      sload\n      swap1\n      0x0100\n      exp\n      swap1\n      div\n      0xff\n      and\n      dup2\n      jump\t// out\n        /* \"Lottogemeinschaft.sol\":6748:7241  function einsatzZurueckholen() public restictedToMitspieler nonReentrant {... */\n    tag_98:\n        /* \"Lottogemeinschaft.sol\":3241:3251  mitspieler */\n      0x07\n        /* \"Lottogemeinschaft.sol\":3241:3263  mitspieler[msg.sender] */\n      0x00\n        /* \"Lottogemeinschaft.sol\":3252:3262  msg.sender */\n      caller\n        /* \"Lottogemeinschaft.sol\":3241:3263  mitspieler[msg.sender] */\n      0xffffffffffffffffffffffffffffffffffffffff\n      and\n      0xffffffffffffffffffffffffffffffffffffffff\n      and\n      dup2\n      mstore\n      0x20\n      add\n      swap1\n      dup2\n      mstore\n      0x20\n      add\n      0x00\n      keccak256\n      0x00\n      swap1\n      sload\n      swap1\n      0x0100\n      exp\n      swap1\n      div\n      0xff\n      and\n        /* \"Lottogemeinschaft.sol\":3233:3264  require(mitspieler[msg.sender]) */\n      tag_208\n      jumpi\n      0x00\n      dup1\n      revert\n    tag_208:\n        /* \"Lottogemeinschaft.sol\":3331:3337  locked */\n      0x0e\n      0x00\n      swap1\n      sload\n      swap1\n      0x0100\n      exp\n      swap1\n      div\n      0xff\n      and\n        /* \"Lottogemeinschaft.sol\":3330:3337  !locked */\n      iszero\n        /* \"Lottogemeinschaft.sol\":3322:3356  require(!locked, \"No re-entrancy\") */\n      tag_210\n      jumpi\n      mload(0x40)\n      0x08c379a000000000000000000000000000000000000000000000000000000000\n      dup2\n      mstore\n      0x04\n      add\n      tag_211\n      swap1\n      tag_182\n      jump\t// in\n    tag_211:\n      mload(0x40)\n      dup1\n      swap2\n      sub\n      swap1\n      revert\n    tag_210:\n        /* \"Lottogemeinschaft.sol\":3375:3379  true */\n      0x01\n        /* \"Lottogemeinschaft.sol\":3366:3372  locked */\n      0x0e\n      0x00\n        /* \"Lottogemeinschaft.sol\":3366:3379  locked = true */\n      0x0100\n      exp\n      dup2\n      sload\n      dup2\n      0xff\n      mul\n      not\n      and\n      swap1\n      dup4\n      iszero\n      iszero\n      mul\n      or\n      swap1\n      sstore\n      pop\n        /* \"Lottogemeinschaft.sol\":6839:6849  aufgeloest */\n      0x0e\n      0x01\n      swap1\n      sload\n      swap1\n      0x0100\n      exp\n      swap1\n      div\n      0xff\n      and\n        /* \"Lottogemeinschaft.sol\":6831:6888  require(aufgeloest, \"Gemeinschaft muss aufgeloest sein.\") */\n      tag_213\n      jumpi\n      mload(0x40)\n      0x08c379a000000000000000000000000000000000000000000000000000000000\n      dup2\n      mstore\n      0x04\n      add\n      tag_214\n      swap1\n      tag_215\n      jump\t// in\n    tag_214:\n      mload(0x40)\n      dup1\n      swap2\n      sub\n      swap1\n      revert\n    tag_213:\n        /* \"Lottogemeinschaft.sol\":6907:6928  einsatzZurueckGezahlt */\n      0x09\n        /* \"Lottogemeinschaft.sol\":6907:6940  einsatzZurueckGezahlt[msg.sender] */\n      0x00\n        /* \"Lottogemeinschaft.sol\":6929:6939  msg.sender */\n      caller\n        /* \"Lottogemeinschaft.sol\":6907:6940  einsatzZurueckGezahlt[msg.sender] */\n      0xffffffffffffffffffffffffffffffffffffffff\n      and\n      0xffffffffffffffffffffffffffffffffffffffff\n      and\n      dup2\n      mstore\n      0x20\n      add\n      swap1\n      dup2\n      mstore\n      0x20\n      add\n      0x00\n      keccak256\n      0x00\n      swap1\n      sload\n      swap1\n      0x0100\n      exp\n      swap1\n      div\n      0xff\n      and\n        /* \"Lottogemeinschaft.sol\":6906:6940  !einsatzZurueckGezahlt[msg.sender] */\n      iszero\n        /* \"Lottogemeinschaft.sol\":6898:6982  require(!einsatzZurueckGezahlt[msg.sender], \"Einsatz wurde bereits zurueckgezahlt.\") */\n      tag_216\n      jumpi\n      mload(0x40)\n      0x08c379a000000000000000000000000000000000000000000000000000000000\n      dup2\n      mstore\n      0x04\n      add\n      tag_217\n      swap1\n      tag_218\n      jump\t// in\n    tag_217:\n      mload(0x40)\n      dup1\n      swap2\n      sub\n      swap1\n      revert\n    tag_216:\n        /* \"Lottogemeinschaft.sol\":7029:7033  true */\n      0x01\n        /* \"Lottogemeinschaft.sol\":6993:7014  einsatzZurueckGezahlt */\n      0x09\n        /* \"Lottogemeinschaft.sol\":6993:7026  einsatzZurueckGezahlt[msg.sender] */\n      0x00\n        /* \"Lottogemeinschaft.sol\":7015:7025  msg.sender */\n      caller\n        /* \"Lottogemeinschaft.sol\":6993:7026  einsatzZurueckGezahlt[msg.sender] */\n      0xffffffffffffffffffffffffffffffffffffffff\n      and\n      0xffffffffffffffffffffffffffffffffffffffff\n      and\n      dup2\n      mstore\n      0x20\n      add\n      swap1\n      dup2\n      mstore\n      0x20\n      add\n      0x00\n      keccak256\n      0x00\n        /* \"Lottogemeinschaft.sol\":6993:7033  einsatzZurueckGezahlt[msg.sender] = true */\n      0x0100\n      exp\n      dup2\n      sload\n      dup2\n      0xff\n      mul\n      not\n      and\n      swap1\n      dup4\n      iszero\n      iszero\n      mul\n      or\n      swap1\n      sstore\n      pop\n        /* \"Lottogemeinschaft.sol\":7044:7071  uint256 rueckzahlungsbetrag */\n      0x00\n        /* \"Lottogemeinschaft.sol\":7074:7092  preisProMitspieler */\n      sload(0x04)\n        /* \"Lottogemeinschaft.sol\":7044:7092  uint256 rueckzahlungsbetrag = preisProMitspieler */\n      swap1\n      pop\n        /* \"Lottogemeinschaft.sol\":7103:7112  bool sent */\n      0x00\n        /* \"Lottogemeinschaft.sol\":7118:7128  msg.sender */\n      caller\n        /* \"Lottogemeinschaft.sol\":7118:7133  msg.sender.call */\n      0xffffffffffffffffffffffffffffffffffffffff\n      and\n        /* \"Lottogemeinschaft.sol\":7141:7160  rueckzahlungsbetrag */\n      dup3\n        /* \"Lottogemeinschaft.sol\":7118:7165  msg.sender.call{value: rueckzahlungsbetrag}(\"\") */\n      mload(0x40)\n      tag_219\n      swap1\n      tag_220\n      jump\t// in\n    tag_219:\n      0x00\n      mload(0x40)\n      dup1\n      dup4\n      sub\n      dup2\n      dup6\n      dup8\n      gas\n      call\n      swap3\n      pop\n      pop\n      pop\n      returndatasize\n      dup1\n      0x00\n      dup2\n      eq\n      tag_223\n      jumpi\n      mload(0x40)\n      swap2\n      pop\n      and(add(returndatasize, 0x3f), not(0x1f))\n      dup3\n      add\n      0x40\n      mstore\n      returndatasize\n      dup3\n      mstore\n      returndatasize\n      0x00\n      0x20\n      dup5\n      add\n      returndatacopy\n      jump(tag_222)\n    tag_223:\n      0x60\n      swap2\n      pop\n    tag_222:\n      pop\n        /* \"Lottogemeinschaft.sol\":7102:7165  (bool sent, ) = msg.sender.call{value: rueckzahlungsbetrag}(\"\") */\n      pop\n      swap1\n      pop\n        /* \"Lottogemeinschaft.sol\":7183:7187  sent */\n      dup1\n        /* \"Lottogemeinschaft.sol\":7175:7234  require(sent, \"Rueckzahlung des Einsatzes fehlgeschlagen.\") */\n      tag_224\n      jumpi\n      mload(0x40)\n      0x08c379a000000000000000000000000000000000000000000000000000000000\n      dup2\n      mstore\n      0x04\n      add\n      tag_225\n      swap1\n      tag_226\n      jump\t// in\n    tag_225:\n      mload(0x40)\n      dup1\n      swap2\n      sub\n      swap1\n      revert\n    tag_224:\n        /* \"Lottogemeinschaft.sol\":6821:7241  {... */\n      pop\n      pop\n        /* \"Lottogemeinschaft.sol\":3409:3414  false */\n      0x00\n        /* \"Lottogemeinschaft.sol\":3400:3406  locked */\n      0x0e\n      0x00\n        /* \"Lottogemeinschaft.sol\":3400:3414  locked = false */\n      0x0100\n      exp\n      dup2\n      sload\n      dup2\n      0xff\n      mul\n      not\n      and\n      swap1\n      dup4\n      iszero\n      iszero\n      mul\n      or\n      swap1\n      sstore\n      pop\n        /* \"Lottogemeinschaft.sol\":6748:7241  function einsatzZurueckholen() public restictedToMitspieler nonReentrant {... */\n      jump\t// out\n        /* \"Lottogemeinschaft.sol\":6435:6692  function gemeinschaftAufloesen() public restictedToGruender {... */\n    tag_101:\n        /* \"Lottogemeinschaft.sol\":3158:3166  gruender */\n      0x00\n      dup1\n      sload\n      swap1\n      0x0100\n      exp\n      swap1\n      div\n      0xffffffffffffffffffffffffffffffffffffffff\n      and\n        /* \"Lottogemeinschaft.sol\":3144:3166  msg.sender == gruender */\n      0xffffffffffffffffffffffffffffffffffffffff\n      and\n        /* \"Lottogemeinschaft.sol\":3144:3154  msg.sender */\n      caller\n        /* \"Lottogemeinschaft.sol\":3144:3166  msg.sender == gruender */\n      0xffffffffffffffffffffffffffffffffffffffff\n      and\n      eq\n        /* \"Lottogemeinschaft.sol\":3136:3167  require(msg.sender == gruender) */\n      tag_228\n      jumpi\n      0x00\n      dup1\n      revert\n    tag_228:\n        /* \"Lottogemeinschaft.sol\":6541:6546  false */\n      0x00\n        /* \"Lottogemeinschaft.sol\":6513:6546  gewinnKannAbgeholtWerden == false */\n      iszero\n      iszero\n        /* \"Lottogemeinschaft.sol\":6513:6537  gewinnKannAbgeholtWerden */\n      0x0c\n      0x00\n      swap1\n      sload\n      swap1\n      0x0100\n      exp\n      swap1\n      div\n      0xff\n      and\n        /* \"Lottogemeinschaft.sol\":6513:6546  gewinnKannAbgeholtWerden == false */\n      iszero\n      iszero\n      eq\n        /* \"Lottogemeinschaft.sol\":6505:6585  require(gewinnKannAbgeholtWerden == false, \"Gewinn muss noch ausgezahlt werden\") */\n      tag_230\n      jumpi\n      mload(0x40)\n      0x08c379a000000000000000000000000000000000000000000000000000000000\n      dup2\n      mstore\n      0x04\n      add\n      tag_231\n      swap1\n      tag_232\n      jump\t// in\n    tag_231:\n      mload(0x40)\n      dup1\n      swap2\n      sub\n      swap1\n      revert\n    tag_230:\n        /* \"Lottogemeinschaft.sol\":6617:6622  false */\n      0x00\n        /* \"Lottogemeinschaft.sol\":6603:6622  aufgeloest == false */\n      iszero\n      iszero\n        /* \"Lottogemeinschaft.sol\":6603:6613  aufgeloest */\n      0x0e\n      0x01\n      swap1\n      sload\n      swap1\n      0x0100\n      exp\n      swap1\n      div\n      0xff\n      and\n        /* \"Lottogemeinschaft.sol\":6603:6622  aufgeloest == false */\n      iszero\n      iszero\n      eq\n        /* \"Lottogemeinschaft.sol\":6595:6658  require(aufgeloest == false, \"Gemeinschaft bereits aufgeloest\") */\n      tag_233\n      jumpi\n      mload(0x40)\n      0x08c379a000000000000000000000000000000000000000000000000000000000\n      dup2\n      mstore\n      0x04\n      add\n      tag_234\n      swap1\n      tag_235\n      jump\t// in\n    tag_234:\n      mload(0x40)\n      dup1\n      swap2\n      sub\n      swap1\n      revert\n    tag_233:\n        /* \"Lottogemeinschaft.sol\":6681:6685  true */\n      0x01\n        /* \"Lottogemeinschaft.sol\":6668:6678  aufgeloest */\n      0x0e\n      0x01\n        /* \"Lottogemeinschaft.sol\":6668:6685  aufgeloest = true */\n      0x0100\n      exp\n      dup2\n      sload\n      dup2\n      0xff\n      mul\n      not\n      and\n      swap1\n      dup4\n      iszero\n      iszero\n      mul\n      or\n      swap1\n      sstore\n      pop\n        /* \"Lottogemeinschaft.sol\":6435:6692  function gemeinschaftAufloesen() public restictedToGruender {... */\n      jump\t// out\n        /* \"Lottogemeinschaft.sol\":1743:1766  address public gruender */\n    tag_104:\n      0x00\n      dup1\n      sload\n      swap1\n      0x0100\n      exp\n      swap1\n      div\n      0xffffffffffffffffffffffffffffffffffffffff\n      and\n      dup2\n      jump\t// out\n        /* \"Lottogemeinschaft.sol\":2301:2340  bool public nurErlaubteMitspieler=false */\n    tag_109:\n      0x0c\n      0x01\n      swap1\n      sload\n      swap1\n      0x0100\n      exp\n      swap1\n      div\n      0xff\n      and\n      dup2\n      jump\t// out\n        /* \"Lottogemeinschaft.sol\":2105:2158  mapping(address => bool) public einsatzZurueckGezahlt */\n    tag_114:\n      mstore(0x20, 0x09)\n      dup1\n      0x00\n      mstore\n      keccak256(0x00, 0x40)\n      0x00\n      swap2\n      pop\n      sload\n      swap1\n      0x0100\n      exp\n      swap1\n      div\n      0xff\n      and\n      dup2\n      jump\t// out\n        /* \"Lottogemeinschaft.sol\":1772:1807  string public tippgemeinschaftsName */\n    tag_118:\n      0x01\n      dup1\n      sload\n      tag_236\n      swap1\n      tag_196\n      jump\t// in\n    tag_236:\n      dup1\n      0x1f\n      add\n      0x20\n      dup1\n      swap2\n      div\n      mul\n      0x20\n      add\n      mload(0x40)\n      swap1\n      dup2\n      add\n      0x40\n      mstore\n      dup1\n      swap3\n      swap2\n      swap1\n      dup2\n      dup2\n      mstore\n      0x20\n      add\n      dup3\n      dup1\n      sload\n      tag_237\n      swap1\n      tag_196\n      jump\t// in\n    tag_237:\n      dup1\n      iszero\n      tag_238\n      jumpi\n      dup1\n      0x1f\n      lt\n      tag_239\n      jumpi\n      0x0100\n      dup1\n      dup4\n      sload\n      div\n      mul\n      dup4\n      mstore\n      swap2\n      0x20\n      add\n      swap2\n      jump(tag_238)\n    tag_239:\n      dup3\n      add\n      swap2\n      swap1\n      0x00\n      mstore\n      keccak256(0x00, 0x20)\n      swap1\n    tag_240:\n      dup2\n      sload\n      dup2\n      mstore\n      swap1\n      0x01\n      add\n      swap1\n      0x20\n      add\n      dup1\n      dup4\n      gt\n      tag_240\n      jumpi\n      dup3\n      swap1\n      sub\n      0x1f\n      and\n      dup3\n      add\n      swap2\n    tag_238:\n      pop\n      pop\n      pop\n      pop\n      pop\n      dup2\n      jump\t// out\n        /* \"Lottogemeinschaft.sol\":2428:2450  bool public aufgeloest */\n    tag_122:\n      0x0e\n      0x01\n      swap1\n      sload\n      swap1\n      0x0100\n      exp\n      swap1\n      div\n      0xff\n      and\n      dup2\n      jump\t// out\n        /* \"Lottogemeinschaft.sol\":2346:2397  mapping(address => bool) public erlaubterMitspieler */\n    tag_127:\n      mstore(0x20, 0x0d)\n      dup1\n      0x00\n      mstore\n      keccak256(0x00, 0x40)\n      0x00\n      swap2\n      pop\n      sload\n      swap1\n      0x0100\n      exp\n      swap1\n      div\n      0xff\n      and\n      dup2\n      jump\t// out\n        /* \"#utility.yul\":7:84   */\n    tag_241:\n        /* \"#utility.yul\":44:51   */\n      0x00\n        /* \"#utility.yul\":73:78   */\n      dup2\n        /* \"#utility.yul\":62:78   */\n      swap1\n      pop\n        /* \"#utility.yul\":7:84   */\n      swap2\n      swap1\n      pop\n      jump\t// out\n        /* \"#utility.yul\":90:208   */\n    tag_242:\n        /* \"#utility.yul\":177:201   */\n      tag_307\n        /* \"#utility.yul\":195:200   */\n      dup2\n        /* \"#utility.yul\":177:201   */\n      tag_241\n      jump\t// in\n    tag_307:\n        /* \"#utility.yul\":172:175   */\n      dup3\n        /* \"#utility.yul\":165:202   */\n      mstore\n        /* \"#utility.yul\":90:208   */\n      pop\n      pop\n      jump\t// out\n        /* \"#utility.yul\":214:436   */\n    tag_33:\n        /* \"#utility.yul\":307:311   */\n      0x00\n        /* \"#utility.yul\":345:347   */\n      0x20\n        /* \"#utility.yul\":334:343   */\n      dup3\n        /* \"#utility.yul\":330:348   */\n      add\n        /* \"#utility.yul\":322:348   */\n      swap1\n      pop\n        /* \"#utility.yul\":358:429   */\n      tag_309\n        /* \"#utility.yul\":426:427   */\n      0x00\n        /* \"#utility.yul\":415:424   */\n      dup4\n        /* \"#utility.yul\":411:428   */\n      add\n        /* \"#utility.yul\":402:408   */\n      dup5\n        /* \"#utility.yul\":358:429   */\n      tag_242\n      jump\t// in\n    tag_309:\n        /* \"#utility.yul\":214:436   */\n      swap3\n      swap2\n      pop\n      pop\n      jump\t// out\n        /* \"#utility.yul\":442:532   */\n    tag_243:\n        /* \"#utility.yul\":476:483   */\n      0x00\n        /* \"#utility.yul\":519:524   */\n      dup2\n        /* \"#utility.yul\":512:525   */\n      iszero\n        /* \"#utility.yul\":505:526   */\n      iszero\n        /* \"#utility.yul\":494:526   */\n      swap1\n      pop\n        /* \"#utility.yul\":442:532   */\n      swap2\n      swap1\n      pop\n      jump\t// out\n        /* \"#utility.yul\":538:647   */\n    tag_244:\n        /* \"#utility.yul\":619:640   */\n      tag_312\n        /* \"#utility.yul\":634:639   */\n      dup2\n        /* \"#utility.yul\":619:640   */\n      tag_243\n      jump\t// in\n    tag_312:\n        /* \"#utility.yul\":614:617   */\n      dup3\n        /* \"#utility.yul\":607:641   */\n      mstore\n        /* \"#utility.yul\":538:647   */\n      pop\n      pop\n      jump\t// out\n        /* \"#utility.yul\":653:863   */\n    tag_42:\n        /* \"#utility.yul\":740:744   */\n      0x00\n        /* \"#utility.yul\":778:780   */\n      0x20\n        /* \"#utility.yul\":767:776   */\n      dup3\n        /* \"#utility.yul\":763:781   */\n      add\n        /* \"#utility.yul\":755:781   */\n      swap1\n      pop\n        /* \"#utility.yul\":791:856   */\n      tag_314\n        /* \"#utility.yul\":853:854   */\n      0x00\n        /* \"#utility.yul\":842:851   */\n      dup4\n        /* \"#utility.yul\":838:855   */\n      add\n        /* \"#utility.yul\":829:835   */\n      dup5\n        /* \"#utility.yul\":791:856   */\n      tag_244\n      jump\t// in\n    tag_314:\n        /* \"#utility.yul\":653:863   */\n      swap3\n      swap2\n      pop\n      pop\n      jump\t// out\n        /* \"#utility.yul\":950:1067   */\n    tag_246:\n        /* \"#utility.yul\":1059:1060   */\n      0x00\n        /* \"#utility.yul\":1056:1057   */\n      dup1\n        /* \"#utility.yul\":1049:1061   */\n      revert\n        /* \"#utility.yul\":1196:1318   */\n    tag_248:\n        /* \"#utility.yul\":1269:1293   */\n      tag_319\n        /* \"#utility.yul\":1287:1292   */\n      dup2\n        /* \"#utility.yul\":1269:1293   */\n      tag_241\n      jump\t// in\n    tag_319:\n        /* \"#utility.yul\":1262:1267   */\n      dup2\n        /* \"#utility.yul\":1259:1294   */\n      eq\n        /* \"#utility.yul\":1249:1312   */\n      tag_320\n      jumpi\n        /* \"#utility.yul\":1308:1309   */\n      0x00\n        /* \"#utility.yul\":1305:1306   */\n      dup1\n        /* \"#utility.yul\":1298:1310   */\n      revert\n        /* \"#utility.yul\":1249:1312   */\n    tag_320:\n        /* \"#utility.yul\":1196:1318   */\n      pop\n      jump\t// out\n        /* \"#utility.yul\":1324:1463   */\n    tag_249:\n        /* \"#utility.yul\":1370:1375   */\n      0x00\n        /* \"#utility.yul\":1408:1414   */\n      dup2\n        /* \"#utility.yul\":1395:1415   */\n      calldataload\n        /* \"#utility.yul\":1386:1415   */\n      swap1\n      pop\n        /* \"#utility.yul\":1424:1457   */\n      tag_322\n        /* \"#utility.yul\":1451:1456   */\n      dup2\n        /* \"#utility.yul\":1424:1457   */\n      tag_248\n      jump\t// in\n    tag_322:\n        /* \"#utility.yul\":1324:1463   */\n      swap3\n      swap2\n      pop\n      pop\n      jump\t// out\n        /* \"#utility.yul\":1469:1798   */\n    tag_49:\n        /* \"#utility.yul\":1528:1534   */\n      0x00\n        /* \"#utility.yul\":1577:1579   */\n      0x20\n        /* \"#utility.yul\":1565:1574   */\n      dup3\n        /* \"#utility.yul\":1556:1563   */\n      dup5\n        /* \"#utility.yul\":1552:1575   */\n      sub\n        /* \"#utility.yul\":1548:1580   */\n      slt\n        /* \"#utility.yul\":1545:1664   */\n      iszero\n      tag_324\n      jumpi\n        /* \"#utility.yul\":1583:1662   */\n      tag_325\n      tag_246\n      jump\t// in\n    tag_325:\n        /* \"#utility.yul\":1545:1664   */\n    tag_324:\n        /* \"#utility.yul\":1703:1704   */\n      0x00\n        /* \"#utility.yul\":1728:1781   */\n      tag_326\n        /* \"#utility.yul\":1773:1780   */\n      dup5\n        /* \"#utility.yul\":1764:1770   */\n      dup3\n        /* \"#utility.yul\":1753:1762   */\n      dup6\n        /* \"#utility.yul\":1749:1771   */\n      add\n        /* \"#utility.yul\":1728:1781   */\n      tag_249\n      jump\t// in\n    tag_326:\n        /* \"#utility.yul\":1718:1781   */\n      swap2\n      pop\n        /* \"#utility.yul\":1674:1791   */\n      pop\n        /* \"#utility.yul\":1469:1798   */\n      swap3\n      swap2\n      pop\n      pop\n      jump\t// out\n        /* \"#utility.yul\":1804:1930   */\n    tag_250:\n        /* \"#utility.yul\":1841:1848   */\n      0x00\n        /* \"#utility.yul\":1881:1923   */\n      0xffffffffffffffffffffffffffffffffffffffff\n        /* \"#utility.yul\":1874:1879   */\n      dup3\n        /* \"#utility.yul\":1870:1924   */\n      and\n        /* \"#utility.yul\":1859:1924   */\n      swap1\n      pop\n        /* \"#utility.yul\":1804:1930   */\n      swap2\n      swap1\n      pop\n      jump\t// out\n        /* \"#utility.yul\":1936:2032   */\n    tag_251:\n        /* \"#utility.yul\":1973:1980   */\n      0x00\n        /* \"#utility.yul\":2002:2026   */\n      tag_329\n        /* \"#utility.yul\":2020:2025   */\n      dup3\n        /* \"#utility.yul\":2002:2026   */\n      tag_250\n      jump\t// in\n    tag_329:\n        /* \"#utility.yul\":1991:2026   */\n      swap1\n      pop\n        /* \"#utility.yul\":1936:2032   */\n      swap2\n      swap1\n      pop\n      jump\t// out\n        /* \"#utility.yul\":2038:2160   */\n    tag_252:\n        /* \"#utility.yul\":2111:2135   */\n      tag_331\n        /* \"#utility.yul\":2129:2134   */\n      dup2\n        /* \"#utility.yul\":2111:2135   */\n      tag_251\n      jump\t// in\n    tag_331:\n        /* \"#utility.yul\":2104:2109   */\n      dup2\n        /* \"#utility.yul\":2101:2136   */\n      eq\n        /* \"#utility.yul\":2091:2154   */\n      tag_332\n      jumpi\n        /* \"#utility.yul\":2150:2151   */\n      0x00\n        /* \"#utility.yul\":2147:2148   */\n      dup1\n        /* \"#utility.yul\":2140:2152   */\n      revert\n        /* \"#utility.yul\":2091:2154   */\n    tag_332:\n        /* \"#utility.yul\":2038:2160   */\n      pop\n      jump\t// out\n        /* \"#utility.yul\":2166:2305   */\n    tag_253:\n        /* \"#utility.yul\":2212:2217   */\n      0x00\n        /* \"#utility.yul\":2250:2256   */\n      dup2\n        /* \"#utility.yul\":2237:2257   */\n      calldataload\n        /* \"#utility.yul\":2228:2257   */\n      swap1\n      pop\n        /* \"#utility.yul\":2266:2299   */\n      tag_334\n        /* \"#utility.yul\":2293:2298   */\n      dup2\n        /* \"#utility.yul\":2266:2299   */\n      tag_252\n      jump\t// in\n    tag_334:\n        /* \"#utility.yul\":2166:2305   */\n      swap3\n      swap2\n      pop\n      pop\n      jump\t// out\n        /* \"#utility.yul\":2311:2640   */\n    tag_54:\n        /* \"#utility.yul\":2370:2376   */\n      0x00\n        /* \"#utility.yul\":2419:2421   */\n      0x20\n        /* \"#utility.yul\":2407:2416   */\n      dup3\n        /* \"#utility.yul\":2398:2405   */\n      dup5\n        /* \"#utility.yul\":2394:2417   */\n      sub\n        /* \"#utility.yul\":2390:2422   */\n      slt\n        /* \"#utility.yul\":2387:2506   */\n      iszero\n      tag_336\n      jumpi\n        /* \"#utility.yul\":2425:2504   */\n      tag_337\n      tag_246\n      jump\t// in\n    tag_337:\n        /* \"#utility.yul\":2387:2506   */\n    tag_336:\n        /* \"#utility.yul\":2545:2546   */\n      0x00\n        /* \"#utility.yul\":2570:2623   */\n      tag_338\n        /* \"#utility.yul\":2615:2622   */\n      dup5\n        /* \"#utility.yul\":2606:2612   */\n      dup3\n        /* \"#utility.yul\":2595:2604   */\n      dup6\n        /* \"#utility.yul\":2591:2613   */\n      add\n        /* \"#utility.yul\":2570:2623   */\n      tag_253\n      jump\t// in\n    tag_338:\n        /* \"#utility.yul\":2560:2623   */\n      swap2\n      pop\n        /* \"#utility.yul\":2516:2633   */\n      pop\n        /* \"#utility.yul\":2311:2640   */\n      swap3\n      swap2\n      pop\n      pop\n      jump\t// out\n        /* \"#utility.yul\":2646:2745   */\n    tag_254:\n        /* \"#utility.yul\":2698:2704   */\n      0x00\n        /* \"#utility.yul\":2732:2737   */\n      dup2\n        /* \"#utility.yul\":2726:2738   */\n      mload\n        /* \"#utility.yul\":2716:2738   */\n      swap1\n      pop\n        /* \"#utility.yul\":2646:2745   */\n      swap2\n      swap1\n      pop\n      jump\t// out\n        /* \"#utility.yul\":2751:2920   */\n    tag_255:\n        /* \"#utility.yul\":2835:2846   */\n      0x00\n        /* \"#utility.yul\":2869:2875   */\n      dup3\n        /* \"#utility.yul\":2864:2867   */\n      dup3\n        /* \"#utility.yul\":2857:2876   */\n      mstore\n        /* \"#utility.yul\":2909:2913   */\n      0x20\n        /* \"#utility.yul\":2904:2907   */\n      dup3\n        /* \"#utility.yul\":2900:2914   */\n      add\n        /* \"#utility.yul\":2885:2914   */\n      swap1\n      pop\n        /* \"#utility.yul\":2751:2920   */\n      swap3\n      swap2\n      pop\n      pop\n      jump\t// out\n        /* \"#utility.yul\":2926:3172   */\n    tag_256:\n        /* \"#utility.yul\":3007:3008   */\n      0x00\n        /* \"#utility.yul\":3017:3130   */\n    tag_342:\n        /* \"#utility.yul\":3031:3037   */\n      dup4\n        /* \"#utility.yul\":3028:3029   */\n      dup2\n        /* \"#utility.yul\":3025:3038   */\n      lt\n        /* \"#utility.yul\":3017:3130   */\n      iszero\n      tag_344\n      jumpi\n        /* \"#utility.yul\":3116:3117   */\n      dup1\n        /* \"#utility.yul\":3111:3114   */\n      dup3\n        /* \"#utility.yul\":3107:3118   */\n      add\n        /* \"#utility.yul\":3101:3119   */\n      mload\n        /* \"#utility.yul\":3097:3098   */\n      dup2\n        /* \"#utility.yul\":3092:3095   */\n      dup5\n        /* \"#utility.yul\":3088:3099   */\n      add\n        /* \"#utility.yul\":3081:3120   */\n      mstore\n        /* \"#utility.yul\":3053:3055   */\n      0x20\n        /* \"#utility.yul\":3050:3051   */\n      dup2\n        /* \"#utility.yul\":3046:3056   */\n      add\n        /* \"#utility.yul\":3041:3056   */\n      swap1\n      pop\n        /* \"#utility.yul\":3017:3130   */\n      jump(tag_342)\n    tag_344:\n        /* \"#utility.yul\":3164:3165   */\n      0x00\n        /* \"#utility.yul\":3155:3161   */\n      dup5\n        /* \"#utility.yul\":3150:3153   */\n      dup5\n        /* \"#utility.yul\":3146:3162   */\n      add\n        /* \"#utility.yul\":3139:3166   */\n      mstore\n        /* \"#utility.yul\":2988:3172   */\n      pop\n        /* \"#utility.yul\":2926:3172   */\n      pop\n      pop\n      pop\n      jump\t// out\n        /* \"#utility.yul\":3178:3280   */\n    tag_257:\n        /* \"#utility.yul\":3219:3225   */\n      0x00\n        /* \"#utility.yul\":3270:3272   */\n      0x1f\n        /* \"#utility.yul\":3266:3273   */\n      not\n        /* \"#utility.yul\":3261:3263   */\n      0x1f\n        /* \"#utility.yul\":3254:3259   */\n      dup4\n        /* \"#utility.yul\":3250:3264   */\n      add\n        /* \"#utility.yul\":3246:3274   */\n      and\n        /* \"#utility.yul\":3236:3274   */\n      swap1\n      pop\n        /* \"#utility.yul\":3178:3280   */\n      swap2\n      swap1\n      pop\n      jump\t// out\n        /* \"#utility.yul\":3286:3663   */\n    tag_258:\n        /* \"#utility.yul\":3374:3377   */\n      0x00\n        /* \"#utility.yul\":3402:3441   */\n      tag_347\n        /* \"#utility.yul\":3435:3440   */\n      dup3\n        /* \"#utility.yul\":3402:3441   */\n      tag_254\n      jump\t// in\n    tag_347:\n        /* \"#utility.yul\":3457:3528   */\n      tag_348\n        /* \"#utility.yul\":3521:3527   */\n      dup2\n        /* \"#utility.yul\":3516:3519   */\n      dup6\n        /* \"#utility.yul\":3457:3528   */\n      tag_255\n      jump\t// in\n    tag_348:\n        /* \"#utility.yul\":3450:3528   */\n      swap4\n      pop\n        /* \"#utility.yul\":3537:3602   */\n      tag_349\n        /* \"#utility.yul\":3595:3601   */\n      dup2\n        /* \"#utility.yul\":3590:3593   */\n      dup6\n        /* \"#utility.yul\":3583:3587   */\n      0x20\n        /* \"#utility.yul\":3576:3581   */\n      dup7\n        /* \"#utility.yul\":3572:3588   */\n      add\n        /* \"#utility.yul\":3537:3602   */\n      tag_256\n      jump\t// in\n    tag_349:\n        /* \"#utility.yul\":3627:3656   */\n      tag_350\n        /* \"#utility.yul\":3649:3655   */\n      dup2\n        /* \"#utility.yul\":3627:3656   */\n      tag_257\n      jump\t// in\n    tag_350:\n        /* \"#utility.yul\":3622:3625   */\n      dup5\n        /* \"#utility.yul\":3618:3657   */\n      add\n        /* \"#utility.yul\":3611:3657   */\n      swap2\n      pop\n        /* \"#utility.yul\":3378:3663   */\n      pop\n        /* \"#utility.yul\":3286:3663   */\n      swap3\n      swap2\n      pop\n      pop\n      jump\t// out\n        /* \"#utility.yul\":3669:3982   */\n    tag_86:\n        /* \"#utility.yul\":3782:3786   */\n      0x00\n        /* \"#utility.yul\":3820:3822   */\n      0x20\n        /* \"#utility.yul\":3809:3818   */\n      dup3\n        /* \"#utility.yul\":3805:3823   */\n      add\n        /* \"#utility.yul\":3797:3823   */\n      swap1\n      pop\n        /* \"#utility.yul\":3869:3878   */\n      dup2\n        /* \"#utility.yul\":3863:3867   */\n      dup2\n        /* \"#utility.yul\":3859:3879   */\n      sub\n        /* \"#utility.yul\":3855:3856   */\n      0x00\n        /* \"#utility.yul\":3844:3853   */\n      dup4\n        /* \"#utility.yul\":3840:3857   */\n      add\n        /* \"#utility.yul\":3833:3880   */\n      mstore\n        /* \"#utility.yul\":3897:3975   */\n      tag_352\n        /* \"#utility.yul\":3970:3974   */\n      dup2\n        /* \"#utility.yul\":3961:3967   */\n      dup5\n        /* \"#utility.yul\":3897:3975   */\n      tag_258\n      jump\t// in\n    tag_352:\n        /* \"#utility.yul\":3889:3975   */\n      swap1\n      pop\n        /* \"#utility.yul\":3669:3982   */\n      swap3\n      swap2\n      pop\n      pop\n      jump\t// out\n        /* \"#utility.yul\":3988:4106   */\n    tag_259:\n        /* \"#utility.yul\":4075:4099   */\n      tag_354\n        /* \"#utility.yul\":4093:4098   */\n      dup2\n        /* \"#utility.yul\":4075:4099   */\n      tag_251\n      jump\t// in\n    tag_354:\n        /* \"#utility.yul\":4070:4073   */\n      dup3\n        /* \"#utility.yul\":4063:4100   */\n      mstore\n        /* \"#utility.yul\":3988:4106   */\n      pop\n      pop\n      jump\t// out\n        /* \"#utility.yul\":4112:4334   */\n    tag_106:\n        /* \"#utility.yul\":4205:4209   */\n      0x00\n        /* \"#utility.yul\":4243:4245   */\n      0x20\n        /* \"#utility.yul\":4232:4241   */\n      dup3\n        /* \"#utility.yul\":4228:4246   */\n      add\n        /* \"#utility.yul\":4220:4246   */\n      swap1\n      pop\n        /* \"#utility.yul\":4256:4327   */\n      tag_356\n        /* \"#utility.yul\":4324:4325   */\n      0x00\n        /* \"#utility.yul\":4313:4322   */\n      dup4\n        /* \"#utility.yul\":4309:4326   */\n      add\n        /* \"#utility.yul\":4300:4306   */\n      dup5\n        /* \"#utility.yul\":4256:4327   */\n      tag_259\n      jump\t// in\n    tag_356:\n        /* \"#utility.yul\":4112:4334   */\n      swap3\n      swap2\n      pop\n      pop\n      jump\t// out\n        /* \"#utility.yul\":4340:4569   */\n    tag_260:\n        /* \"#utility.yul\":4480:4514   */\n      0x45696e7a61686c756e6773626574726167206d7573732067726f657373657220\n        /* \"#utility.yul\":4476:4477   */\n      0x00\n        /* \"#utility.yul\":4468:4474   */\n      dup3\n        /* \"#utility.yul\":4464:4478   */\n      add\n        /* \"#utility.yul\":4457:4515   */\n      mstore\n        /* \"#utility.yul\":4549:4561   */\n      0x616c732030207365696e00000000000000000000000000000000000000000000\n        /* \"#utility.yul\":4544:4546   */\n      0x20\n        /* \"#utility.yul\":4536:4542   */\n      dup3\n        /* \"#utility.yul\":4532:4547   */\n      add\n        /* \"#utility.yul\":4525:4562   */\n      mstore\n        /* \"#utility.yul\":4340:4569   */\n      pop\n      jump\t// out\n        /* \"#utility.yul\":4575:4941   */\n    tag_261:\n        /* \"#utility.yul\":4717:4720   */\n      0x00\n        /* \"#utility.yul\":4738:4805   */\n      tag_359\n        /* \"#utility.yul\":4802:4804   */\n      0x2a\n        /* \"#utility.yul\":4797:4800   */\n      dup4\n        /* \"#utility.yul\":4738:4805   */\n      tag_255\n      jump\t// in\n    tag_359:\n        /* \"#utility.yul\":4731:4805   */\n      swap2\n      pop\n        /* \"#utility.yul\":4814:4907   */\n      tag_360\n        /* \"#utility.yul\":4903:4906   */\n      dup3\n        /* \"#utility.yul\":4814:4907   */\n      tag_260\n      jump\t// in\n    tag_360:\n        /* \"#utility.yul\":4932:4934   */\n      0x40\n        /* \"#utility.yul\":4927:4930   */\n      dup3\n        /* \"#utility.yul\":4923:4935   */\n      add\n        /* \"#utility.yul\":4916:4935   */\n      swap1\n      pop\n        /* \"#utility.yul\":4575:4941   */\n      swap2\n      swap1\n      pop\n      jump\t// out\n        /* \"#utility.yul\":4947:5366   */\n    tag_134:\n        /* \"#utility.yul\":5113:5117   */\n      0x00\n        /* \"#utility.yul\":5151:5153   */\n      0x20\n        /* \"#utility.yul\":5140:5149   */\n      dup3\n        /* \"#utility.yul\":5136:5154   */\n      add\n        /* \"#utility.yul\":5128:5154   */\n      swap1\n      pop\n        /* \"#utility.yul\":5200:5209   */\n      dup2\n        /* \"#utility.yul\":5194:5198   */\n      dup2\n        /* \"#utility.yul\":5190:5210   */\n      sub\n        /* \"#utility.yul\":5186:5187   */\n      0x00\n        /* \"#utility.yul\":5175:5184   */\n      dup4\n        /* \"#utility.yul\":5171:5188   */\n      add\n        /* \"#utility.yul\":5164:5211   */\n      mstore\n        /* \"#utility.yul\":5228:5359   */\n      tag_362\n        /* \"#utility.yul\":5354:5358   */\n      dup2\n        /* \"#utility.yul\":5228:5359   */\n      tag_261\n      jump\t// in\n    tag_362:\n        /* \"#utility.yul\":5220:5359   */\n      swap1\n      pop\n        /* \"#utility.yul\":4947:5366   */\n      swap2\n      swap1\n      pop\n      jump\t// out\n        /* \"#utility.yul\":5372:5554   */\n    tag_262:\n        /* \"#utility.yul\":5512:5546   */\n      0x476577696e6e20777572646520626572656974732065696e67657a61686c742e\n        /* \"#utility.yul\":5508:5509   */\n      0x00\n        /* \"#utility.yul\":5500:5506   */\n      dup3\n        /* \"#utility.yul\":5496:5510   */\n      add\n        /* \"#utility.yul\":5489:5547   */\n      mstore\n        /* \"#utility.yul\":5372:5554   */\n      pop\n      jump\t// out\n        /* \"#utility.yul\":5560:5926   */\n    tag_263:\n        /* \"#utility.yul\":5702:5705   */\n      0x00\n        /* \"#utility.yul\":5723:5790   */\n      tag_365\n        /* \"#utility.yul\":5787:5789   */\n      0x20\n        /* \"#utility.yul\":5782:5785   */\n      dup4\n        /* \"#utility.yul\":5723:5790   */\n      tag_255\n      jump\t// in\n    tag_365:\n        /* \"#utility.yul\":5716:5790   */\n      swap2\n      pop\n        /* \"#utility.yul\":5799:5892   */\n      tag_366\n        /* \"#utility.yul\":5888:5891   */\n      dup3\n        /* \"#utility.yul\":5799:5892   */\n      tag_262\n      jump\t// in\n    tag_366:\n        /* \"#utility.yul\":5917:5919   */\n      0x20\n        /* \"#utility.yul\":5912:5915   */\n      dup3\n        /* \"#utility.yul\":5908:5920   */\n      add\n        /* \"#utility.yul\":5901:5920   */\n      swap1\n      pop\n        /* \"#utility.yul\":5560:5926   */\n      swap2\n      swap1\n      pop\n      jump\t// out\n        /* \"#utility.yul\":5932:6351   */\n    tag_137:\n        /* \"#utility.yul\":6098:6102   */\n      0x00\n        /* \"#utility.yul\":6136:6138   */\n      0x20\n        /* \"#utility.yul\":6125:6134   */\n      dup3\n        /* \"#utility.yul\":6121:6139   */\n      add\n        /* \"#utility.yul\":6113:6139   */\n      swap1\n      pop\n        /* \"#utility.yul\":6185:6194   */\n      dup2\n        /* \"#utility.yul\":6179:6183   */\n      dup2\n        /* \"#utility.yul\":6175:6195   */\n      sub\n        /* \"#utility.yul\":6171:6172   */\n      0x00\n        /* \"#utility.yul\":6160:6169   */\n      dup4\n        /* \"#utility.yul\":6156:6173   */\n      add\n        /* \"#utility.yul\":6149:6196   */\n      mstore\n        /* \"#utility.yul\":6213:6344   */\n      tag_368\n        /* \"#utility.yul\":6339:6343   */\n      dup2\n        /* \"#utility.yul\":6213:6344   */\n      tag_263\n      jump\t// in\n    tag_368:\n        /* \"#utility.yul\":6205:6344   */\n      swap1\n      pop\n        /* \"#utility.yul\":5932:6351   */\n      swap2\n      swap1\n      pop\n      jump\t// out\n        /* \"#utility.yul\":6357:6537   */\n    tag_264:\n        /* \"#utility.yul\":6405:6482   */\n      0x4e487b7100000000000000000000000000000000000000000000000000000000\n        /* \"#utility.yul\":6402:6403   */\n      0x00\n        /* \"#utility.yul\":6395:6483   */\n      mstore\n        /* \"#utility.yul\":6502:6506   */\n      0x12\n        /* \"#utility.yul\":6499:6500   */\n      0x04\n        /* \"#utility.yul\":6492:6507   */\n      mstore\n        /* \"#utility.yul\":6526:6530   */\n      0x24\n        /* \"#utility.yul\":6523:6524   */\n      0x00\n        /* \"#utility.yul\":6516:6531   */\n      revert\n        /* \"#utility.yul\":6543:6723   */\n    tag_265:\n        /* \"#utility.yul\":6591:6668   */\n      0x4e487b7100000000000000000000000000000000000000000000000000000000\n        /* \"#utility.yul\":6588:6589   */\n      0x00\n        /* \"#utility.yul\":6581:6669   */\n      mstore\n        /* \"#utility.yul\":6688:6692   */\n      0x11\n        /* \"#utility.yul\":6685:6686   */\n      0x04\n        /* \"#utility.yul\":6678:6693   */\n      mstore\n        /* \"#utility.yul\":6712:6716   */\n      0x24\n        /* \"#utility.yul\":6709:6710   */\n      0x00\n        /* \"#utility.yul\":6702:6717   */\n      revert\n        /* \"#utility.yul\":6729:6914   */\n    tag_139:\n        /* \"#utility.yul\":6769:6770   */\n      0x00\n        /* \"#utility.yul\":6786:6806   */\n      tag_372\n        /* \"#utility.yul\":6804:6805   */\n      dup3\n        /* \"#utility.yul\":6786:6806   */\n      tag_241\n      jump\t// in\n    tag_372:\n        /* \"#utility.yul\":6781:6806   */\n      swap2\n      pop\n        /* \"#utility.yul\":6820:6840   */\n      tag_373\n        /* \"#utility.yul\":6838:6839   */\n      dup4\n        /* \"#utility.yul\":6820:6840   */\n      tag_241\n      jump\t// in\n    tag_373:\n        /* \"#utility.yul\":6815:6840   */\n      swap3\n      pop\n        /* \"#utility.yul\":6859:6860   */\n      dup3\n        /* \"#utility.yul\":6849:6884   */\n      tag_374\n      jumpi\n        /* \"#utility.yul\":6864:6882   */\n      tag_375\n      tag_264\n      jump\t// in\n    tag_375:\n        /* \"#utility.yul\":6849:6884   */\n    tag_374:\n        /* \"#utility.yul\":6906:6907   */\n      dup3\n        /* \"#utility.yul\":6903:6904   */\n      dup3\n        /* \"#utility.yul\":6899:6908   */\n      div\n        /* \"#utility.yul\":6894:6908   */\n      swap1\n      pop\n        /* \"#utility.yul\":6729:6914   */\n      swap3\n      swap2\n      pop\n      pop\n      jump\t// out\n        /* \"#utility.yul\":6920:7165   */\n    tag_266:\n        /* \"#utility.yul\":7060:7094   */\n      0x457320676962742062657265697473204d6974737069656c65722e2041656e64\n        /* \"#utility.yul\":7056:7057   */\n      0x00\n        /* \"#utility.yul\":7048:7054   */\n      dup3\n        /* \"#utility.yul\":7044:7058   */\n      add\n        /* \"#utility.yul\":7037:7095   */\n      mstore\n        /* \"#utility.yul\":7129:7157   */\n      0x6572756e67206e69636874206d656872206d6f65676c6963682e000000000000\n        /* \"#utility.yul\":7124:7126   */\n      0x20\n        /* \"#utility.yul\":7116:7122   */\n      dup3\n        /* \"#utility.yul\":7112:7127   */\n      add\n        /* \"#utility.yul\":7105:7158   */\n      mstore\n        /* \"#utility.yul\":6920:7165   */\n      pop\n      jump\t// out\n        /* \"#utility.yul\":7171:7537   */\n    tag_267:\n        /* \"#utility.yul\":7313:7316   */\n      0x00\n        /* \"#utility.yul\":7334:7401   */\n      tag_378\n        /* \"#utility.yul\":7398:7400   */\n      0x3a\n        /* \"#utility.yul\":7393:7396   */\n      dup4\n        /* \"#utility.yul\":7334:7401   */\n      tag_255\n      jump\t// in\n    tag_378:\n        /* \"#utility.yul\":7327:7401   */\n      swap2\n      pop\n        /* \"#utility.yul\":7410:7503   */\n      tag_379\n        /* \"#utility.yul\":7499:7502   */\n      dup3\n        /* \"#utility.yul\":7410:7503   */\n      tag_266\n      jump\t// in\n    tag_379:\n        /* \"#utility.yul\":7528:7530   */\n      0x40\n        /* \"#utility.yul\":7523:7526   */\n      dup3\n        /* \"#utility.yul\":7519:7531   */\n      add\n        /* \"#utility.yul\":7512:7531   */\n      swap1\n      pop\n        /* \"#utility.yul\":7171:7537   */\n      swap2\n      swap1\n      pop\n      jump\t// out\n        /* \"#utility.yul\":7543:7962   */\n    tag_145:\n        /* \"#utility.yul\":7709:7713   */\n      0x00\n        /* \"#utility.yul\":7747:7749   */\n      0x20\n        /* \"#utility.yul\":7736:7745   */\n      dup3\n        /* \"#utility.yul\":7732:7750   */\n      add\n        /* \"#utility.yul\":7724:7750   */\n      swap1\n      pop\n        /* \"#utility.yul\":7796:7805   */\n      dup2\n        /* \"#utility.yul\":7790:7794   */\n      dup2\n        /* \"#utility.yul\":7786:7806   */\n      sub\n        /* \"#utility.yul\":7782:7783   */\n      0x00\n        /* \"#utility.yul\":7771:7780   */\n      dup4\n        /* \"#utility.yul\":7767:7784   */\n      add\n        /* \"#utility.yul\":7760:7807   */\n      mstore\n        /* \"#utility.yul\":7824:7955   */\n      tag_381\n        /* \"#utility.yul\":7950:7954   */\n      dup2\n        /* \"#utility.yul\":7824:7955   */\n      tag_267\n      jump\t// in\n    tag_381:\n        /* \"#utility.yul\":7816:7955   */\n      swap1\n      pop\n        /* \"#utility.yul\":7543:7962   */\n      swap2\n      swap1\n      pop\n      jump\t// out\n        /* \"#utility.yul\":7968:8143   */\n    tag_268:\n        /* \"#utility.yul\":8108:8135   */\n      0x4b65696e2050726569732070726f204d6974737069656c657200000000000000\n        /* \"#utility.yul\":8104:8105   */\n      0x00\n        /* \"#utility.yul\":8096:8102   */\n      dup3\n        /* \"#utility.yul\":8092:8106   */\n      add\n        /* \"#utility.yul\":8085:8136   */\n      mstore\n        /* \"#utility.yul\":7968:8143   */\n      pop\n      jump\t// out\n        /* \"#utility.yul\":8149:8515   */\n    tag_269:\n        /* \"#utility.yul\":8291:8294   */\n      0x00\n        /* \"#utility.yul\":8312:8379   */\n      tag_384\n        /* \"#utility.yul\":8376:8378   */\n      0x19\n        /* \"#utility.yul\":8371:8374   */\n      dup4\n        /* \"#utility.yul\":8312:8379   */\n      tag_255\n      jump\t// in\n    tag_384:\n        /* \"#utility.yul\":8305:8379   */\n      swap2\n      pop\n        /* \"#utility.yul\":8388:8481   */\n      tag_385\n        /* \"#utility.yul\":8477:8480   */\n      dup3\n        /* \"#utility.yul\":8388:8481   */\n      tag_268\n      jump\t// in\n    tag_385:\n        /* \"#utility.yul\":8506:8508   */\n      0x20\n        /* \"#utility.yul\":8501:8504   */\n      dup3\n        /* \"#utility.yul\":8497:8509   */\n      add\n        /* \"#utility.yul\":8490:8509   */\n      swap1\n      pop\n        /* \"#utility.yul\":8149:8515   */\n      swap2\n      swap1\n      pop\n      jump\t// out\n        /* \"#utility.yul\":8521:8940   */\n    tag_149:\n        /* \"#utility.yul\":8687:8691   */\n      0x00\n        /* \"#utility.yul\":8725:8727   */\n      0x20\n        /* \"#utility.yul\":8714:8723   */\n      dup3\n        /* \"#utility.yul\":8710:8728   */\n      add\n        /* \"#utility.yul\":8702:8728   */\n      swap1\n      pop\n        /* \"#utility.yul\":8774:8783   */\n      dup2\n        /* \"#utility.yul\":8768:8772   */\n      dup2\n        /* \"#utility.yul\":8764:8784   */\n      sub\n        /* \"#utility.yul\":8760:8761   */\n      0x00\n        /* \"#utility.yul\":8749:8758   */\n      dup4\n        /* \"#utility.yul\":8745:8762   */\n      add\n        /* \"#utility.yul\":8738:8785   */\n      mstore\n        /* \"#utility.yul\":8802:8933   */\n      tag_387\n        /* \"#utility.yul\":8928:8932   */\n      dup2\n        /* \"#utility.yul\":8802:8933   */\n      tag_269\n      jump\t// in\n    tag_387:\n        /* \"#utility.yul\":8794:8933   */\n      swap1\n      pop\n        /* \"#utility.yul\":8521:8940   */\n      swap2\n      swap1\n      pop\n      jump\t// out\n        /* \"#utility.yul\":8946:9125   */\n    tag_270:\n        /* \"#utility.yul\":9086:9117   */\n      0x5a7520676572696e6765722045696e7a61686c756e6773626574726167000000\n        /* \"#utility.yul\":9082:9083   */\n      0x00\n        /* \"#utility.yul\":9074:9080   */\n      dup3\n        /* \"#utility.yul\":9070:9084   */\n      add\n        /* \"#utility.yul\":9063:9118   */\n      mstore\n        /* \"#utility.yul\":8946:9125   */\n      pop\n      jump\t// out\n        /* \"#utility.yul\":9131:9497   */\n    tag_271:\n        /* \"#utility.yul\":9273:9276   */\n      0x00\n        /* \"#utility.yul\":9294:9361   */\n      tag_390\n        /* \"#utility.yul\":9358:9360   */\n      0x1d\n        /* \"#utility.yul\":9353:9356   */\n      dup4\n        /* \"#utility.yul\":9294:9361   */\n      tag_255\n      jump\t// in\n    tag_390:\n        /* \"#utility.yul\":9287:9361   */\n      swap2\n      pop\n        /* \"#utility.yul\":9370:9463   */\n      tag_391\n        /* \"#utility.yul\":9459:9462   */\n      dup3\n        /* \"#utility.yul\":9370:9463   */\n      tag_270\n      jump\t// in\n    tag_391:\n        /* \"#utility.yul\":9488:9490   */\n      0x20\n        /* \"#utility.yul\":9483:9486   */\n      dup3\n        /* \"#utility.yul\":9479:9491   */\n      add\n        /* \"#utility.yul\":9472:9491   */\n      swap1\n      pop\n        /* \"#utility.yul\":9131:9497   */\n      swap2\n      swap1\n      pop\n      jump\t// out\n        /* \"#utility.yul\":9503:9922   */\n    tag_152:\n        /* \"#utility.yul\":9669:9673   */\n      0x00\n        /* \"#utility.yul\":9707:9709   */\n      0x20\n        /* \"#utility.yul\":9696:9705   */\n      dup3\n        /* \"#utility.yul\":9692:9710   */\n      add\n        /* \"#utility.yul\":9684:9710   */\n      swap1\n      pop\n        /* \"#utility.yul\":9756:9765   */\n      dup2\n        /* \"#utility.yul\":9750:9754   */\n      dup2\n        /* \"#utility.yul\":9746:9766   */\n      sub\n        /* \"#utility.yul\":9742:9743   */\n      0x00\n        /* \"#utility.yul\":9731:9740   */\n      dup4\n        /* \"#utility.yul\":9727:9744   */\n      add\n        /* \"#utility.yul\":9720:9767   */\n      mstore\n        /* \"#utility.yul\":9784:9915   */\n      tag_393\n        /* \"#utility.yul\":9910:9914   */\n      dup2\n        /* \"#utility.yul\":9784:9915   */\n      tag_271\n      jump\t// in\n    tag_393:\n        /* \"#utility.yul\":9776:9915   */\n      swap1\n      pop\n        /* \"#utility.yul\":9503:9922   */\n      swap2\n      swap1\n      pop\n      jump\t// out\n        /* \"#utility.yul\":9928:10149   */\n    tag_272:\n        /* \"#utility.yul\":10068:10102   */\n      0x4265726569747320616c73204d6974737069656c657220726567697374726965\n        /* \"#utility.yul\":10064:10065   */\n      0x00\n        /* \"#utility.yul\":10056:10062   */\n      dup3\n        /* \"#utility.yul\":10052:10066   */\n      add\n        /* \"#utility.yul\":10045:10103   */\n      mstore\n        /* \"#utility.yul\":10137:10141   */\n      0x7274000000000000000000000000000000000000000000000000000000000000\n        /* \"#utility.yul\":10132:10134   */\n      0x20\n        /* \"#utility.yul\":10124:10130   */\n      dup3\n        /* \"#utility.yul\":10120:10135   */\n      add\n        /* \"#utility.yul\":10113:10142   */\n      mstore\n        /* \"#utility.yul\":9928:10149   */\n      pop\n      jump\t// out\n        /* \"#utility.yul\":10155:10521   */\n    tag_273:\n        /* \"#utility.yul\":10297:10300   */\n      0x00\n        /* \"#utility.yul\":10318:10385   */\n      tag_396\n        /* \"#utility.yul\":10382:10384   */\n      0x22\n        /* \"#utility.yul\":10377:10380   */\n      dup4\n        /* \"#utility.yul\":10318:10385   */\n      tag_255\n      jump\t// in\n    tag_396:\n        /* \"#utility.yul\":10311:10385   */\n      swap2\n      pop\n        /* \"#utility.yul\":10394:10487   */\n      tag_397\n        /* \"#utility.yul\":10483:10486   */\n      dup3\n        /* \"#utility.yul\":10394:10487   */\n      tag_272\n      jump\t// in\n    tag_397:\n        /* \"#utility.yul\":10512:10514   */\n      0x40\n        /* \"#utility.yul\":10507:10510   */\n      dup3\n        /* \"#utility.yul\":10503:10515   */\n      add\n        /* \"#utility.yul\":10496:10515   */\n      swap1\n      pop\n        /* \"#utility.yul\":10155:10521   */\n      swap2\n      swap1\n      pop\n      jump\t// out\n        /* \"#utility.yul\":10527:10946   */\n    tag_155:\n        /* \"#utility.yul\":10693:10697   */\n      0x00\n        /* \"#utility.yul\":10731:10733   */\n      0x20\n        /* \"#utility.yul\":10720:10729   */\n      dup3\n        /* \"#utility.yul\":10716:10734   */\n      add\n        /* \"#utility.yul\":10708:10734   */\n      swap1\n      pop\n        /* \"#utility.yul\":10780:10789   */\n      dup2\n        /* \"#utility.yul\":10774:10778   */\n      dup2\n        /* \"#utility.yul\":10770:10790   */\n      sub\n        /* \"#utility.yul\":10766:10767   */\n      0x00\n        /* \"#utility.yul\":10755:10764   */\n      dup4\n        /* \"#utility.yul\":10751:10768   */\n      add\n        /* \"#utility.yul\":10744:10791   */\n      mstore\n        /* \"#utility.yul\":10808:10939   */\n      tag_399\n        /* \"#utility.yul\":10934:10938   */\n      dup2\n        /* \"#utility.yul\":10808:10939   */\n      tag_273\n      jump\t// in\n    tag_399:\n        /* \"#utility.yul\":10800:10939   */\n      swap1\n      pop\n        /* \"#utility.yul\":10527:10946   */\n      swap2\n      swap1\n      pop\n      jump\t// out\n        /* \"#utility.yul\":10952:11134   */\n    tag_274:\n        /* \"#utility.yul\":11092:11126   */\n      0x4d6178696d616c65205465696c6e65686d65727a61686c206572726569636874\n        /* \"#utility.yul\":11088:11089   */\n      0x00\n        /* \"#utility.yul\":11080:11086   */\n      dup3\n        /* \"#utility.yul\":11076:11090   */\n      add\n        /* \"#utility.yul\":11069:11127   */\n      mstore\n        /* \"#utility.yul\":10952:11134   */\n      pop\n      jump\t// out\n        /* \"#utility.yul\":11140:11506   */\n    tag_275:\n        /* \"#utility.yul\":11282:11285   */\n      0x00\n        /* \"#utility.yul\":11303:11370   */\n      tag_402\n        /* \"#utility.yul\":11367:11369   */\n      0x20\n        /* \"#utility.yul\":11362:11365   */\n      dup4\n        /* \"#utility.yul\":11303:11370   */\n      tag_255\n      jump\t// in\n    tag_402:\n        /* \"#utility.yul\":11296:11370   */\n      swap2\n      pop\n        /* \"#utility.yul\":11379:11472   */\n      tag_403\n        /* \"#utility.yul\":11468:11471   */\n      dup3\n        /* \"#utility.yul\":11379:11472   */\n      tag_274\n      jump\t// in\n    tag_403:\n        /* \"#utility.yul\":11497:11499   */\n      0x20\n        /* \"#utility.yul\":11492:11495   */\n      dup3\n        /* \"#utility.yul\":11488:11500   */\n      add\n        /* \"#utility.yul\":11481:11500   */\n      swap1\n      pop\n        /* \"#utility.yul\":11140:11506   */\n      swap2\n      swap1\n      pop\n      jump\t// out\n        /* \"#utility.yul\":11512:11931   */\n    tag_158:\n        /* \"#utility.yul\":11678:11682   */\n      0x00\n        /* \"#utility.yul\":11716:11718   */\n      0x20\n        /* \"#utility.yul\":11705:11714   */\n      dup3\n        /* \"#utility.yul\":11701:11719   */\n      add\n        /* \"#utility.yul\":11693:11719   */\n      swap1\n      pop\n        /* \"#utility.yul\":11765:11774   */\n      dup2\n        /* \"#utility.yul\":11759:11763   */\n      dup2\n        /* \"#utility.yul\":11755:11775   */\n      sub\n        /* \"#utility.yul\":11751:11752   */\n      0x00\n        /* \"#utility.yul\":11740:11749   */\n      dup4\n        /* \"#utility.yul\":11736:11753   */\n      add\n        /* \"#utility.yul\":11729:11776   */\n      mstore\n        /* \"#utility.yul\":11793:11924   */\n      tag_405\n        /* \"#utility.yul\":11919:11923   */\n      dup2\n        /* \"#utility.yul\":11793:11924   */\n      tag_275\n      jump\t// in\n    tag_405:\n        /* \"#utility.yul\":11785:11924   */\n      swap1\n      pop\n        /* \"#utility.yul\":11512:11931   */\n      swap2\n      swap1\n      pop\n      jump\t// out\n        /* \"#utility.yul\":11937:12118   */\n    tag_276:\n        /* \"#utility.yul\":12077:12110   */\n      0x476577696e6e20777572646520626572656974732065696e67657a61686c7400\n        /* \"#utility.yul\":12073:12074   */\n      0x00\n        /* \"#utility.yul\":12065:12071   */\n      dup3\n        /* \"#utility.yul\":12061:12075   */\n      add\n        /* \"#utility.yul\":12054:12111   */\n      mstore\n        /* \"#utility.yul\":11937:12118   */\n      pop\n      jump\t// out\n        /* \"#utility.yul\":12124:12490   */\n    tag_277:\n        /* \"#utility.yul\":12266:12269   */\n      0x00\n        /* \"#utility.yul\":12287:12354   */\n      tag_408\n        /* \"#utility.yul\":12351:12353   */\n      0x1f\n        /* \"#utility.yul\":12346:12349   */\n      dup4\n        /* \"#utility.yul\":12287:12354   */\n      tag_255\n      jump\t// in\n    tag_408:\n        /* \"#utility.yul\":12280:12354   */\n      swap2\n      pop\n        /* \"#utility.yul\":12363:12456   */\n      tag_409\n        /* \"#utility.yul\":12452:12455   */\n      dup3\n        /* \"#utility.yul\":12363:12456   */\n      tag_276\n      jump\t// in\n    tag_409:\n        /* \"#utility.yul\":12481:12483   */\n      0x20\n        /* \"#utility.yul\":12476:12479   */\n      dup3\n        /* \"#utility.yul\":12472:12484   */\n      add\n        /* \"#utility.yul\":12465:12484   */\n      swap1\n      pop\n        /* \"#utility.yul\":12124:12490   */\n      swap2\n      swap1\n      pop\n      jump\t// out\n        /* \"#utility.yul\":12496:12915   */\n    tag_161:\n        /* \"#utility.yul\":12662:12666   */\n      0x00\n        /* \"#utility.yul\":12700:12702   */\n      0x20\n        /* \"#utility.yul\":12689:12698   */\n      dup3\n        /* \"#utility.yul\":12685:12703   */\n      add\n        /* \"#utility.yul\":12677:12703   */\n      swap1\n      pop\n        /* \"#utility.yul\":12749:12758   */\n      dup2\n        /* \"#utility.yul\":12743:12747   */\n      dup2\n        /* \"#utility.yul\":12739:12759   */\n      sub\n        /* \"#utility.yul\":12735:12736   */\n      0x00\n        /* \"#utility.yul\":12724:12733   */\n      dup4\n        /* \"#utility.yul\":12720:12737   */\n      add\n        /* \"#utility.yul\":12713:12760   */\n      mstore\n        /* \"#utility.yul\":12777:12908   */\n      tag_411\n        /* \"#utility.yul\":12903:12907   */\n      dup2\n        /* \"#utility.yul\":12777:12908   */\n      tag_277\n      jump\t// in\n    tag_411:\n        /* \"#utility.yul\":12769:12908   */\n      swap1\n      pop\n        /* \"#utility.yul\":12496:12915   */\n      swap2\n      swap1\n      pop\n      jump\t// out\n        /* \"#utility.yul\":12921:13115   */\n    tag_165:\n        /* \"#utility.yul\":12961:12965   */\n      0x00\n        /* \"#utility.yul\":12981:13001   */\n      tag_413\n        /* \"#utility.yul\":12999:13000   */\n      dup3\n        /* \"#utility.yul\":12981:13001   */\n      tag_241\n      jump\t// in\n    tag_413:\n        /* \"#utility.yul\":12976:13001   */\n      swap2\n      pop\n        /* \"#utility.yul\":13015:13035   */\n      tag_414\n        /* \"#utility.yul\":13033:13034   */\n      dup4\n        /* \"#utility.yul\":13015:13035   */\n      tag_241\n      jump\t// in\n    tag_414:\n        /* \"#utility.yul\":13010:13035   */\n      swap3\n      pop\n        /* \"#utility.yul\":13059:13060   */\n      dup3\n        /* \"#utility.yul\":13056:13057   */\n      dup3\n        /* \"#utility.yul\":13052:13061   */\n      sub\n        /* \"#utility.yul\":13044:13061   */\n      swap1\n      pop\n        /* \"#utility.yul\":13083:13084   */\n      dup2\n        /* \"#utility.yul\":13077:13081   */\n      dup2\n        /* \"#utility.yul\":13074:13085   */\n      gt\n        /* \"#utility.yul\":13071:13108   */\n      iszero\n      tag_415\n      jumpi\n        /* \"#utility.yul\":13088:13106   */\n      tag_416\n      tag_265\n      jump\t// in\n    tag_416:\n        /* \"#utility.yul\":13071:13108   */\n    tag_415:\n        /* \"#utility.yul\":12921:13115   */\n      swap3\n      swap2\n      pop\n      pop\n      jump\t// out\n        /* \"#utility.yul\":13121:13354   */\n    tag_167:\n        /* \"#utility.yul\":13160:13163   */\n      0x00\n        /* \"#utility.yul\":13183:13207   */\n      tag_418\n        /* \"#utility.yul\":13201:13206   */\n      dup3\n        /* \"#utility.yul\":13183:13207   */\n      tag_241\n      jump\t// in\n    tag_418:\n        /* \"#utility.yul\":13174:13207   */\n      swap2\n      pop\n        /* \"#utility.yul\":13229:13295   */\n      0xffffffffffffffffffffffffffffffffffffffffffffffffffffffffffffffff\n        /* \"#utility.yul\":13222:13227   */\n      dup3\n        /* \"#utility.yul\":13219:13296   */\n      sub\n        /* \"#utility.yul\":13216:13319   */\n      tag_419\n      jumpi\n        /* \"#utility.yul\":13299:13317   */\n      tag_420\n      tag_265\n      jump\t// in\n    tag_420:\n        /* \"#utility.yul\":13216:13319   */\n    tag_419:\n        /* \"#utility.yul\":13346:13347   */\n      0x01\n        /* \"#utility.yul\":13339:13344   */\n      dup3\n        /* \"#utility.yul\":13335:13348   */\n      add\n        /* \"#utility.yul\":13328:13348   */\n      swap1\n      pop\n        /* \"#utility.yul\":13121:13354   */\n      swap2\n      swap1\n      pop\n      jump\t// out\n        /* \"#utility.yul\":13360:13668   */\n    tag_278:\n        /* \"#utility.yul\":13500:13534   */\n      0x457320676962742062657265697473204d6974737069656c65722e2041656e64\n        /* \"#utility.yul\":13496:13497   */\n      0x00\n        /* \"#utility.yul\":13488:13494   */\n      dup3\n        /* \"#utility.yul\":13484:13498   */\n      add\n        /* \"#utility.yul\":13477:13535   */\n      mstore\n        /* \"#utility.yul\":13569:13603   */\n      0x6572756e672064657220416e7a61686c20616e204d6974737069656c65726e20\n        /* \"#utility.yul\":13564:13566   */\n      0x20\n        /* \"#utility.yul\":13556:13562   */\n      dup3\n        /* \"#utility.yul\":13552:13567   */\n      add\n        /* \"#utility.yul\":13545:13604   */\n      mstore\n        /* \"#utility.yul\":13638:13660   */\n      0x6e69636874206d656872206d6f65676c6963682e000000000000000000000000\n        /* \"#utility.yul\":13633:13635   */\n      0x40\n        /* \"#utility.yul\":13625:13631   */\n      dup3\n        /* \"#utility.yul\":13621:13636   */\n      add\n        /* \"#utility.yul\":13614:13661   */\n      mstore\n        /* \"#utility.yul\":13360:13668   */\n      pop\n      jump\t// out\n        /* \"#utility.yul\":13674:14040   */\n    tag_279:\n        /* \"#utility.yul\":13816:13819   */\n      0x00\n        /* \"#utility.yul\":13837:13904   */\n      tag_423\n        /* \"#utility.yul\":13901:13903   */\n      0x54\n        /* \"#utility.yul\":13896:13899   */\n      dup4\n        /* \"#utility.yul\":13837:13904   */\n      tag_255\n      jump\t// in\n    tag_423:\n        /* \"#utility.yul\":13830:13904   */\n      swap2\n      pop\n        /* \"#utility.yul\":13913:14006   */\n      tag_424\n        /* \"#utility.yul\":14002:14005   */\n      dup3\n        /* \"#utility.yul\":13913:14006   */\n      tag_278\n      jump\t// in\n    tag_424:\n        /* \"#utility.yul\":14031:14033   */\n      0x60\n        /* \"#utility.yul\":14026:14029   */\n      dup3\n        /* \"#utility.yul\":14022:14034   */\n      add\n        /* \"#utility.yul\":14015:14034   */\n      swap1\n      pop\n        /* \"#utility.yul\":13674:14040   */\n      swap2\n      swap1\n      pop\n      jump\t// out\n        /* \"#utility.yul\":14046:14465   */\n    tag_176:\n        /* \"#utility.yul\":14212:14216   */\n      0x00\n        /* \"#utility.yul\":14250:14252   */\n      0x20\n        /* \"#utility.yul\":14239:14248   */\n      dup3\n        /* \"#utility.yul\":14235:14253   */\n      add\n        /* \"#utility.yul\":14227:14253   */\n      swap1\n      pop\n        /* \"#utility.yul\":14299:14308   */\n      dup2\n        /* \"#utility.yul\":14293:14297   */\n      dup2\n        /* \"#utility.yul\":14289:14309   */\n      sub\n        /* \"#utility.yul\":14285:14286   */\n      0x00\n        /* \"#utility.yul\":14274:14283   */\n      dup4\n        /* \"#utility.yul\":14270:14287   */\n      add\n        /* \"#utility.yul\":14263:14310   */\n      mstore\n        /* \"#utility.yul\":14327:14458   */\n      tag_426\n        /* \"#utility.yul\":14453:14457   */\n      dup2\n        /* \"#utility.yul\":14327:14458   */\n      tag_279\n      jump\t// in\n    tag_426:\n        /* \"#utility.yul\":14319:14458   */\n      swap1\n      pop\n        /* \"#utility.yul\":14046:14465   */\n      swap2\n      swap1\n      pop\n      jump\t// out\n        /* \"#utility.yul\":14471:14635   */\n    tag_280:\n        /* \"#utility.yul\":14611:14627   */\n      0x4e6f2072652d656e7472616e6379000000000000000000000000000000000000\n        /* \"#utility.yul\":14607:14608   */\n      0x00\n        /* \"#utility.yul\":14599:14605   */\n      dup3\n        /* \"#utility.yul\":14595:14609   */\n      add\n        /* \"#utility.yul\":14588:14628   */\n      mstore\n        /* \"#utility.yul\":14471:14635   */\n      pop\n      jump\t// out\n        /* \"#utility.yul\":14641:15007   */\n    tag_281:\n        /* \"#utility.yul\":14783:14786   */\n      0x00\n        /* \"#utility.yul\":14804:14871   */\n      tag_429\n        /* \"#utility.yul\":14868:14870   */\n      0x0e\n        /* \"#utility.yul\":14863:14866   */\n      dup4\n        /* \"#utility.yul\":14804:14871   */\n      tag_255\n      jump\t// in\n    tag_429:\n        /* \"#utility.yul\":14797:14871   */\n      swap2\n      pop\n        /* \"#utility.yul\":14880:14973   */\n      tag_430\n        /* \"#utility.yul\":14969:14972   */\n      dup3\n        /* \"#utility.yul\":14880:14973   */\n      tag_280\n      jump\t// in\n    tag_430:\n        /* \"#utility.yul\":14998:15000   */\n      0x20\n        /* \"#utility.yul\":14993:14996   */\n      dup3\n        /* \"#utility.yul\":14989:15001   */\n      add\n        /* \"#utility.yul\":14982:15001   */\n      swap1\n      pop\n        /* \"#utility.yul\":14641:15007   */\n      swap2\n      swap1\n      pop\n      jump\t// out\n        /* \"#utility.yul\":15013:15432   */\n    tag_182:\n        /* \"#utility.yul\":15179:15183   */\n      0x00\n        /* \"#utility.yul\":15217:15219   */\n      0x20\n        /* \"#utility.yul\":15206:15215   */\n      dup3\n        /* \"#utility.yul\":15202:15220   */\n      add\n        /* \"#utility.yul\":15194:15220   */\n      swap1\n      pop\n        /* \"#utility.yul\":15266:15275   */\n      dup2\n        /* \"#utility.yul\":15260:15264   */\n      dup2\n        /* \"#utility.yul\":15256:15276   */\n      sub\n        /* \"#utility.yul\":15252:15253   */\n      0x00\n        /* \"#utility.yul\":15241:15250   */\n      dup4\n        /* \"#utility.yul\":15237:15254   */\n      add\n        /* \"#utility.yul\":15230:15277   */\n      mstore\n        /* \"#utility.yul\":15294:15425   */\n      tag_432\n        /* \"#utility.yul\":15420:15424   */\n      dup2\n        /* \"#utility.yul\":15294:15425   */\n      tag_281\n      jump\t// in\n    tag_432:\n        /* \"#utility.yul\":15286:15425   */\n      swap1\n      pop\n        /* \"#utility.yul\":15013:15432   */\n      swap2\n      swap1\n      pop\n      jump\t// out\n        /* \"#utility.yul\":15438:15664   */\n    tag_282:\n        /* \"#utility.yul\":15578:15612   */\n      0x476577696e6e206b616e6e206e6f6368206e696368742061626765686f6c7420\n        /* \"#utility.yul\":15574:15575   */\n      0x00\n        /* \"#utility.yul\":15566:15572   */\n      dup3\n        /* \"#utility.yul\":15562:15576   */\n      add\n        /* \"#utility.yul\":15555:15613   */\n      mstore\n        /* \"#utility.yul\":15647:15656   */\n      0x77657264656e2e00000000000000000000000000000000000000000000000000\n        /* \"#utility.yul\":15642:15644   */\n      0x20\n        /* \"#utility.yul\":15634:15640   */\n      dup3\n        /* \"#utility.yul\":15630:15645   */\n      add\n        /* \"#utility.yul\":15623:15657   */\n      mstore\n        /* \"#utility.yul\":15438:15664   */\n      pop\n      jump\t// out\n        /* \"#utility.yul\":15670:16036   */\n    tag_283:\n        /* \"#utility.yul\":15812:15815   */\n      0x00\n        /* \"#utility.yul\":15833:15900   */\n      tag_435\n        /* \"#utility.yul\":15897:15899   */\n      0x27\n        /* \"#utility.yul\":15892:15895   */\n      dup4\n        /* \"#utility.yul\":15833:15900   */\n      tag_255\n      jump\t// in\n    tag_435:\n        /* \"#utility.yul\":15826:15900   */\n      swap2\n      pop\n        /* \"#utility.yul\":15909:16002   */\n      tag_436\n        /* \"#utility.yul\":15998:16001   */\n      dup3\n        /* \"#utility.yul\":15909:16002   */\n      tag_282\n      jump\t// in\n    tag_436:\n        /* \"#utility.yul\":16027:16029   */\n      0x40\n        /* \"#utility.yul\":16022:16025   */\n      dup3\n        /* \"#utility.yul\":16018:16030   */\n      add\n        /* \"#utility.yul\":16011:16030   */\n      swap1\n      pop\n        /* \"#utility.yul\":15670:16036   */\n      swap2\n      swap1\n      pop\n      jump\t// out\n        /* \"#utility.yul\":16042:16461   */\n    tag_186:\n        /* \"#utility.yul\":16208:16212   */\n      0x00\n        /* \"#utility.yul\":16246:16248   */\n      0x20\n        /* \"#utility.yul\":16235:16244   */\n      dup3\n        /* \"#utility.yul\":16231:16249   */\n      add\n        /* \"#utility.yul\":16223:16249   */\n      swap1\n      pop\n        /* \"#utility.yul\":16295:16304   */\n      dup2\n        /* \"#utility.yul\":16289:16293   */\n      dup2\n        /* \"#utility.yul\":16285:16305   */\n      sub\n        /* \"#utility.yul\":16281:16282   */\n      0x00\n        /* \"#utility.yul\":16270:16279   */\n      dup4\n        /* \"#utility.yul\":16266:16283   */\n      add\n        /* \"#utility.yul\":16259:16306   */\n      mstore\n        /* \"#utility.yul\":16323:16454   */\n      tag_438\n        /* \"#utility.yul\":16449:16453   */\n      dup2\n        /* \"#utility.yul\":16323:16454   */\n      tag_283\n      jump\t// in\n    tag_438:\n        /* \"#utility.yul\":16315:16454   */\n      swap1\n      pop\n        /* \"#utility.yul\":16042:16461   */\n      swap2\n      swap1\n      pop\n      jump\t// out\n        /* \"#utility.yul\":16467:16692   */\n    tag_284:\n        /* \"#utility.yul\":16607:16641   */\n      0x4b65696e20476577696e6e207a7572204175737a61686c756e67207665726675\n        /* \"#utility.yul\":16603:16604   */\n      0x00\n        /* \"#utility.yul\":16595:16601   */\n      dup3\n        /* \"#utility.yul\":16591:16605   */\n      add\n        /* \"#utility.yul\":16584:16642   */\n      mstore\n        /* \"#utility.yul\":16676:16684   */\n      0x65676261722e0000000000000000000000000000000000000000000000000000\n        /* \"#utility.yul\":16671:16673   */\n      0x20\n        /* \"#utility.yul\":16663:16669   */\n      dup3\n        /* \"#utility.yul\":16659:16674   */\n      add\n        /* \"#utility.yul\":16652:16685   */\n      mstore\n        /* \"#utility.yul\":16467:16692   */\n      pop\n      jump\t// out\n        /* \"#utility.yul\":16698:17064   */\n    tag_285:\n        /* \"#utility.yul\":16840:16843   */\n      0x00\n        /* \"#utility.yul\":16861:16928   */\n      tag_441\n        /* \"#utility.yul\":16925:16927   */\n      0x26\n        /* \"#utility.yul\":16920:16923   */\n      dup4\n        /* \"#utility.yul\":16861:16928   */\n      tag_255\n      jump\t// in\n    tag_441:\n        /* \"#utility.yul\":16854:16928   */\n      swap2\n      pop\n        /* \"#utility.yul\":16937:17030   */\n      tag_442\n        /* \"#utility.yul\":17026:17029   */\n      dup3\n        /* \"#utility.yul\":16937:17030   */\n      tag_284\n      jump\t// in\n    tag_442:\n        /* \"#utility.yul\":17055:17057   */\n      0x40\n        /* \"#utility.yul\":17050:17053   */\n      dup3\n        /* \"#utility.yul\":17046:17058   */\n      add\n        /* \"#utility.yul\":17039:17058   */\n      swap1\n      pop\n        /* \"#utility.yul\":16698:17064   */\n      swap2\n      swap1\n      pop\n      jump\t// out\n        /* \"#utility.yul\":17070:17489   */\n    tag_189:\n        /* \"#utility.yul\":17236:17240   */\n      0x00\n        /* \"#utility.yul\":17274:17276   */\n      0x20\n        /* \"#utility.yul\":17263:17272   */\n      dup3\n        /* \"#utility.yul\":17259:17277   */\n      add\n        /* \"#utility.yul\":17251:17277   */\n      swap1\n      pop\n        /* \"#utility.yul\":17323:17332   */\n      dup2\n        /* \"#utility.yul\":17317:17321   */\n      dup2\n        /* \"#utility.yul\":17313:17333   */\n      sub\n        /* \"#utility.yul\":17309:17310   */\n      0x00\n        /* \"#utility.yul\":17298:17307   */\n      dup4\n        /* \"#utility.yul\":17294:17311   */\n      add\n        /* \"#utility.yul\":17287:17334   */\n      mstore\n        /* \"#utility.yul\":17351:17482   */\n      tag_444\n        /* \"#utility.yul\":17477:17481   */\n      dup2\n        /* \"#utility.yul\":17351:17482   */\n      tag_285\n      jump\t// in\n    tag_444:\n        /* \"#utility.yul\":17343:17482   */\n      swap1\n      pop\n        /* \"#utility.yul\":17070:17489   */\n      swap2\n      swap1\n      pop\n      jump\t// out\n        /* \"#utility.yul\":17495:17675   */\n    tag_286:\n        /* \"#utility.yul\":17635:17667   */\n      0x476577696e6e20777572646520626572656974732061626765686f6c742e0000\n        /* \"#utility.yul\":17631:17632   */\n      0x00\n        /* \"#utility.yul\":17623:17629   */\n      dup3\n        /* \"#utility.yul\":17619:17633   */\n      add\n        /* \"#utility.yul\":17612:17668   */\n      mstore\n        /* \"#utility.yul\":17495:17675   */\n      pop\n      jump\t// out\n        /* \"#utility.yul\":17681:18047   */\n    tag_287:\n        /* \"#utility.yul\":17823:17826   */\n      0x00\n        /* \"#utility.yul\":17844:17911   */\n      tag_447\n        /* \"#utility.yul\":17908:17910   */\n      0x1e\n        /* \"#utility.yul\":17903:17906   */\n      dup4\n        /* \"#utility.yul\":17844:17911   */\n      tag_255\n      jump\t// in\n    tag_447:\n        /* \"#utility.yul\":17837:17911   */\n      swap2\n      pop\n        /* \"#utility.yul\":17920:18013   */\n      tag_448\n        /* \"#utility.yul\":18009:18012   */\n      dup3\n        /* \"#utility.yul\":17920:18013   */\n      tag_286\n      jump\t// in\n    tag_448:\n        /* \"#utility.yul\":18038:18040   */\n      0x20\n        /* \"#utility.yul\":18033:18036   */\n      dup3\n        /* \"#utility.yul\":18029:18041   */\n      add\n        /* \"#utility.yul\":18022:18041   */\n      swap1\n      pop\n        /* \"#utility.yul\":17681:18047   */\n      swap2\n      swap1\n      pop\n      jump\t// out\n        /* \"#utility.yul\":18053:18472   */\n    tag_192:\n        /* \"#utility.yul\":18219:18223   */\n      0x00\n        /* \"#utility.yul\":18257:18259   */\n      0x20\n        /* \"#utility.yul\":18246:18255   */\n      dup3\n        /* \"#utility.yul\":18242:18260   */\n      add\n        /* \"#utility.yul\":18234:18260   */\n      swap1\n      pop\n        /* \"#utility.yul\":18306:18315   */\n      dup2\n        /* \"#utility.yul\":18300:18304   */\n      dup2\n        /* \"#utility.yul\":18296:18316   */\n      sub\n        /* \"#utility.yul\":18292:18293   */\n      0x00\n        /* \"#utility.yul\":18281:18290   */\n      dup4\n        /* \"#utility.yul\":18277:18294   */\n      add\n        /* \"#utility.yul\":18270:18317   */\n      mstore\n        /* \"#utility.yul\":18334:18465   */\n      tag_450\n        /* \"#utility.yul\":18460:18464   */\n      dup2\n        /* \"#utility.yul\":18334:18465   */\n      tag_287\n      jump\t// in\n    tag_450:\n        /* \"#utility.yul\":18326:18465   */\n      swap1\n      pop\n        /* \"#utility.yul\":18053:18472   */\n      swap2\n      swap1\n      pop\n      jump\t// out\n        /* \"#utility.yul\":18478:18658   */\n    tag_288:\n        /* \"#utility.yul\":18526:18603   */\n      0x4e487b7100000000000000000000000000000000000000000000000000000000\n        /* \"#utility.yul\":18523:18524   */\n      0x00\n        /* \"#utility.yul\":18516:18604   */\n      mstore\n        /* \"#utility.yul\":18623:18627   */\n      0x22\n        /* \"#utility.yul\":18620:18621   */\n      0x04\n        /* \"#utility.yul\":18613:18628   */\n      mstore\n        /* \"#utility.yul\":18647:18651   */\n      0x24\n        /* \"#utility.yul\":18644:18645   */\n      0x00\n        /* \"#utility.yul\":18637:18652   */\n      revert\n        /* \"#utility.yul\":18664:18984   */\n    tag_196:\n        /* \"#utility.yul\":18708:18714   */\n      0x00\n        /* \"#utility.yul\":18745:18746   */\n      0x02\n        /* \"#utility.yul\":18739:18743   */\n      dup3\n        /* \"#utility.yul\":18735:18747   */\n      div\n        /* \"#utility.yul\":18725:18747   */\n      swap1\n      pop\n        /* \"#utility.yul\":18792:18793   */\n      0x01\n        /* \"#utility.yul\":18786:18790   */\n      dup3\n        /* \"#utility.yul\":18782:18794   */\n      and\n        /* \"#utility.yul\":18813:18831   */\n      dup1\n        /* \"#utility.yul\":18803:18884   */\n      tag_453\n      jumpi\n        /* \"#utility.yul\":18869:18873   */\n      0x7f\n        /* \"#utility.yul\":18861:18867   */\n      dup3\n        /* \"#utility.yul\":18857:18874   */\n      and\n        /* \"#utility.yul\":18847:18874   */\n      swap2\n      pop\n        /* \"#utility.yul\":18803:18884   */\n    tag_453:\n        /* \"#utility.yul\":18931:18933   */\n      0x20\n        /* \"#utility.yul\":18923:18929   */\n      dup3\n        /* \"#utility.yul\":18920:18934   */\n      lt\n        /* \"#utility.yul\":18900:18918   */\n      dup2\n        /* \"#utility.yul\":18897:18935   */\n      sub\n        /* \"#utility.yul\":18894:18978   */\n      tag_454\n      jumpi\n        /* \"#utility.yul\":18950:18968   */\n      tag_455\n      tag_288\n      jump\t// in\n    tag_455:\n        /* \"#utility.yul\":18894:18978   */\n    tag_454:\n        /* \"#utility.yul\":18715:18984   */\n      pop\n        /* \"#utility.yul\":18664:18984   */\n      swap2\n      swap1\n      pop\n      jump\t// out\n        /* \"#utility.yul\":18990:19240   */\n    tag_289:\n        /* \"#utility.yul\":19130:19164   */\n      0x457320676962742062657265697473204d6974737069656c65722e2050726569\n        /* \"#utility.yul\":19126:19127   */\n      0x00\n        /* \"#utility.yul\":19118:19124   */\n      dup3\n        /* \"#utility.yul\":19114:19128   */\n      add\n        /* \"#utility.yul\":19107:19165   */\n      mstore\n        /* \"#utility.yul\":19199:19232   */\n      0x7361656e646572756e67206e69636874206d656872206d6f65676c6963682e00\n        /* \"#utility.yul\":19194:19196   */\n      0x20\n        /* \"#utility.yul\":19186:19192   */\n      dup3\n        /* \"#utility.yul\":19182:19197   */\n      add\n        /* \"#utility.yul\":19175:19233   */\n      mstore\n        /* \"#utility.yul\":18990:19240   */\n      pop\n      jump\t// out\n        /* \"#utility.yul\":19246:19612   */\n    tag_290:\n        /* \"#utility.yul\":19388:19391   */\n      0x00\n        /* \"#utility.yul\":19409:19476   */\n      tag_458\n        /* \"#utility.yul\":19473:19475   */\n      0x3f\n        /* \"#utility.yul\":19468:19471   */\n      dup4\n        /* \"#utility.yul\":19409:19476   */\n      tag_255\n      jump\t// in\n    tag_458:\n        /* \"#utility.yul\":19402:19476   */\n      swap2\n      pop\n        /* \"#utility.yul\":19485:19578   */\n      tag_459\n        /* \"#utility.yul\":19574:19577   */\n      dup3\n        /* \"#utility.yul\":19485:19578   */\n      tag_289\n      jump\t// in\n    tag_459:\n        /* \"#utility.yul\":19603:19605   */\n      0x40\n        /* \"#utility.yul\":19598:19601   */\n      dup3\n        /* \"#utility.yul\":19594:19606   */\n      add\n        /* \"#utility.yul\":19587:19606   */\n      swap1\n      pop\n        /* \"#utility.yul\":19246:19612   */\n      swap2\n      swap1\n      pop\n      jump\t// out\n        /* \"#utility.yul\":19618:20037   */\n    tag_206:\n        /* \"#utility.yul\":19784:19788   */\n      0x00\n        /* \"#utility.yul\":19822:19824   */\n      0x20\n        /* \"#utility.yul\":19811:19820   */\n      dup3\n        /* \"#utility.yul\":19807:19825   */\n      add\n        /* \"#utility.yul\":19799:19825   */\n      swap1\n      pop\n        /* \"#utility.yul\":19871:19880   */\n      dup2\n        /* \"#utility.yul\":19865:19869   */\n      dup2\n        /* \"#utility.yul\":19861:19881   */\n      sub\n        /* \"#utility.yul\":19857:19858   */\n      0x00\n        /* \"#utility.yul\":19846:19855   */\n      dup4\n        /* \"#utility.yul\":19842:19859   */\n      add\n        /* \"#utility.yul\":19835:19882   */\n      mstore\n        /* \"#utility.yul\":19899:20030   */\n      tag_461\n        /* \"#utility.yul\":20025:20029   */\n      dup2\n        /* \"#utility.yul\":19899:20030   */\n      tag_290\n      jump\t// in\n    tag_461:\n        /* \"#utility.yul\":19891:20030   */\n      swap1\n      pop\n        /* \"#utility.yul\":19618:20037   */\n      swap2\n      swap1\n      pop\n      jump\t// out\n        /* \"#utility.yul\":20043:20264   */\n    tag_291:\n        /* \"#utility.yul\":20183:20217   */\n      0x47656d65696e736368616674206d7573732061756667656c6f65737420736569\n        /* \"#utility.yul\":20179:20180   */\n      0x00\n        /* \"#utility.yul\":20171:20177   */\n      dup3\n        /* \"#utility.yul\":20167:20181   */\n      add\n        /* \"#utility.yul\":20160:20218   */\n      mstore\n        /* \"#utility.yul\":20252:20256   */\n      0x6e2e000000000000000000000000000000000000000000000000000000000000\n        /* \"#utility.yul\":20247:20249   */\n      0x20\n        /* \"#utility.yul\":20239:20245   */\n      dup3\n        /* \"#utility.yul\":20235:20250   */\n      add\n        /* \"#utility.yul\":20228:20257   */\n      mstore\n        /* \"#utility.yul\":20043:20264   */\n      pop\n      jump\t// out\n        /* \"#utility.yul\":20270:20636   */\n    tag_292:\n        /* \"#utility.yul\":20412:20415   */\n      0x00\n        /* \"#utility.yul\":20433:20500   */\n      tag_464\n        /* \"#utility.yul\":20497:20499   */\n      0x22\n        /* \"#utility.yul\":20492:20495   */\n      dup4\n        /* \"#utility.yul\":20433:20500   */\n      tag_255\n      jump\t// in\n    tag_464:\n        /* \"#utility.yul\":20426:20500   */\n      swap2\n      pop\n        /* \"#utility.yul\":20509:20602   */\n      tag_465\n        /* \"#utility.yul\":20598:20601   */\n      dup3\n        /* \"#utility.yul\":20509:20602   */\n      tag_291\n      jump\t// in\n    tag_465:\n        /* \"#utility.yul\":20627:20629   */\n      0x40\n        /* \"#utility.yul\":20622:20625   */\n      dup3\n        /* \"#utility.yul\":20618:20630   */\n      add\n        /* \"#utility.yul\":20611:20630   */\n      swap1\n      pop\n        /* \"#utility.yul\":20270:20636   */\n      swap2\n      swap1\n      pop\n      jump\t// out\n        /* \"#utility.yul\":20642:21061   */\n    tag_215:\n        /* \"#utility.yul\":20808:20812   */\n      0x00\n        /* \"#utility.yul\":20846:20848   */\n      0x20\n        /* \"#utility.yul\":20835:20844   */\n      dup3\n        /* \"#utility.yul\":20831:20849   */\n      add\n        /* \"#utility.yul\":20823:20849   */\n      swap1\n      pop\n        /* \"#utility.yul\":20895:20904   */\n      dup2\n        /* \"#utility.yul\":20889:20893   */\n      dup2\n        /* \"#utility.yul\":20885:20905   */\n      sub\n        /* \"#utility.yul\":20881:20882   */\n      0x00\n        /* \"#utility.yul\":20870:20879   */\n      dup4\n        /* \"#utility.yul\":20866:20883   */\n      add\n        /* \"#utility.yul\":20859:20906   */\n      mstore\n        /* \"#utility.yul\":20923:21054   */\n      tag_467\n        /* \"#utility.yul\":21049:21053   */\n      dup2\n        /* \"#utility.yul\":20923:21054   */\n      tag_292\n      jump\t// in\n    tag_467:\n        /* \"#utility.yul\":20915:21054   */\n      swap1\n      pop\n        /* \"#utility.yul\":20642:21061   */\n      swap2\n      swap1\n      pop\n      jump\t// out\n        /* \"#utility.yul\":21067:21291   */\n    tag_293:\n        /* \"#utility.yul\":21207:21241   */\n      0x45696e7361747a2077757264652062657265697473207a75727565636b67657a\n        /* \"#utility.yul\":21203:21204   */\n      0x00\n        /* \"#utility.yul\":21195:21201   */\n      dup3\n        /* \"#utility.yul\":21191:21205   */\n      add\n        /* \"#utility.yul\":21184:21242   */\n      mstore\n        /* \"#utility.yul\":21276:21283   */\n      0x61686c742e000000000000000000000000000000000000000000000000000000\n        /* \"#utility.yul\":21271:21273   */\n      0x20\n        /* \"#utility.yul\":21263:21269   */\n      dup3\n        /* \"#utility.yul\":21259:21274   */\n      add\n        /* \"#utility.yul\":21252:21284   */\n      mstore\n        /* \"#utility.yul\":21067:21291   */\n      pop\n      jump\t// out\n        /* \"#utility.yul\":21297:21663   */\n    tag_294:\n        /* \"#utility.yul\":21439:21442   */\n      0x00\n        /* \"#utility.yul\":21460:21527   */\n      tag_470\n        /* \"#utility.yul\":21524:21526   */\n      0x25\n        /* \"#utility.yul\":21519:21522   */\n      dup4\n        /* \"#utility.yul\":21460:21527   */\n      tag_255\n      jump\t// in\n    tag_470:\n        /* \"#utility.yul\":21453:21527   */\n      swap2\n      pop\n        /* \"#utility.yul\":21536:21629   */\n      tag_471\n        /* \"#utility.yul\":21625:21628   */\n      dup3\n        /* \"#utility.yul\":21536:21629   */\n      tag_293\n      jump\t// in\n    tag_471:\n        /* \"#utility.yul\":21654:21656   */\n      0x40\n        /* \"#utility.yul\":21649:21652   */\n      dup3\n        /* \"#utility.yul\":21645:21657   */\n      add\n        /* \"#utility.yul\":21638:21657   */\n      swap1\n      pop\n        /* \"#utility.yul\":21297:21663   */\n      swap2\n      swap1\n      pop\n      jump\t// out\n        /* \"#utility.yul\":21669:22088   */\n    tag_218:\n        /* \"#utility.yul\":21835:21839   */\n      0x00\n        /* \"#utility.yul\":21873:21875   */\n      0x20\n        /* \"#utility.yul\":21862:21871   */\n      dup3\n        /* \"#utility.yul\":21858:21876   */\n      add\n        /* \"#utility.yul\":21850:21876   */\n      swap1\n      pop\n        /* \"#utility.yul\":21922:21931   */\n      dup2\n        /* \"#utility.yul\":21916:21920   */\n      dup2\n        /* \"#utility.yul\":21912:21932   */\n      sub\n        /* \"#utility.yul\":21908:21909   */\n      0x00\n        /* \"#utility.yul\":21897:21906   */\n      dup4\n        /* \"#utility.yul\":21893:21910   */\n      add\n        /* \"#utility.yul\":21886:21933   */\n      mstore\n        /* \"#utility.yul\":21950:22081   */\n      tag_473\n        /* \"#utility.yul\":22076:22080   */\n      dup2\n        /* \"#utility.yul\":21950:22081   */\n      tag_294\n      jump\t// in\n    tag_473:\n        /* \"#utility.yul\":21942:22081   */\n      swap1\n      pop\n        /* \"#utility.yul\":21669:22088   */\n      swap2\n      swap1\n      pop\n      jump\t// out\n        /* \"#utility.yul\":22094:22241   */\n    tag_295:\n        /* \"#utility.yul\":22195:22206   */\n      0x00\n        /* \"#utility.yul\":22232:22235   */\n      dup2\n        /* \"#utility.yul\":22217:22235   */\n      swap1\n      pop\n        /* \"#utility.yul\":22094:22241   */\n      swap3\n      swap2\n      pop\n      pop\n      jump\t// out\n        /* \"#utility.yul\":22247:22361   */\n    tag_296:\n      pop\n      jump\t// out\n        /* \"#utility.yul\":22367:22765   */\n    tag_297:\n        /* \"#utility.yul\":22526:22529   */\n      0x00\n        /* \"#utility.yul\":22547:22630   */\n      tag_477\n        /* \"#utility.yul\":22628:22629   */\n      0x00\n        /* \"#utility.yul\":22623:22626   */\n      dup4\n        /* \"#utility.yul\":22547:22630   */\n      tag_295\n      jump\t// in\n    tag_477:\n        /* \"#utility.yul\":22540:22630   */\n      swap2\n      pop\n        /* \"#utility.yul\":22639:22732   */\n      tag_478\n        /* \"#utility.yul\":22728:22731   */\n      dup3\n        /* \"#utility.yul\":22639:22732   */\n      tag_296\n      jump\t// in\n    tag_478:\n        /* \"#utility.yul\":22757:22758   */\n      0x00\n        /* \"#utility.yul\":22752:22755   */\n      dup3\n        /* \"#utility.yul\":22748:22759   */\n      add\n        /* \"#utility.yul\":22741:22759   */\n      swap1\n      pop\n        /* \"#utility.yul\":22367:22765   */\n      swap2\n      swap1\n      pop\n      jump\t// out\n        /* \"#utility.yul\":22771:23150   */\n    tag_220:\n        /* \"#utility.yul\":22955:22958   */\n      0x00\n        /* \"#utility.yul\":22977:23124   */\n      tag_480\n        /* \"#utility.yul\":23120:23123   */\n      dup3\n        /* \"#utility.yul\":22977:23124   */\n      tag_297\n      jump\t// in\n    tag_480:\n        /* \"#utility.yul\":22970:23124   */\n      swap2\n      pop\n        /* \"#utility.yul\":23141:23144   */\n      dup2\n        /* \"#utility.yul\":23134:23144   */\n      swap1\n      pop\n        /* \"#utility.yul\":22771:23150   */\n      swap2\n      swap1\n      pop\n      jump\t// out\n        /* \"#utility.yul\":23156:23385   */\n    tag_298:\n        /* \"#utility.yul\":23296:23330   */\n      0x527565636b7a61686c756e67206465732045696e7361747a6573206665686c67\n        /* \"#utility.yul\":23292:23293   */\n      0x00\n        /* \"#utility.yul\":23284:23290   */\n      dup3\n        /* \"#utility.yul\":23280:23294   */\n      add\n        /* \"#utility.yul\":23273:23331   */\n      mstore\n        /* \"#utility.yul\":23365:23377   */\n      0x657363686c6167656e2e00000000000000000000000000000000000000000000\n        /* \"#utility.yul\":23360:23362   */\n      0x20\n        /* \"#utility.yul\":23352:23358   */\n      dup3\n        /* \"#utility.yul\":23348:23363   */\n      add\n        /* \"#utility.yul\":23341:23378   */\n      mstore\n        /* \"#utility.yul\":23156:23385   */\n      pop\n      jump\t// out\n        /* \"#utility.yul\":23391:23757   */\n    tag_299:\n        /* \"#utility.yul\":23533:23536   */\n      0x00\n        /* \"#utility.yul\":23554:23621   */\n      tag_483\n        /* \"#utility.yul\":23618:23620   */\n      0x2a\n        /* \"#utility.yul\":23613:23616   */\n      dup4\n        /* \"#utility.yul\":23554:23621   */\n      tag_255\n      jump\t// in\n    tag_483:\n        /* \"#utility.yul\":23547:23621   */\n      swap2\n      pop\n        /* \"#utility.yul\":23630:23723   */\n      tag_484\n        /* \"#utility.yul\":23719:23722   */\n      dup3\n        /* \"#utility.yul\":23630:23723   */\n      tag_298\n      jump\t// in\n    tag_484:\n        /* \"#utility.yul\":23748:23750   */\n      0x40\n        /* \"#utility.yul\":23743:23746   */\n      dup3\n        /* \"#utility.yul\":23739:23751   */\n      add\n        /* \"#utility.yul\":23732:23751   */\n      swap1\n      pop\n        /* \"#utility.yul\":23391:23757   */\n      swap2\n      swap1\n      pop\n      jump\t// out\n        /* \"#utility.yul\":23763:24182   */\n    tag_226:\n        /* \"#utility.yul\":23929:23933   */\n      0x00\n        /* \"#utility.yul\":23967:23969   */\n      0x20\n        /* \"#utility.yul\":23956:23965   */\n      dup3\n        /* \"#utility.yul\":23952:23970   */\n      add\n        /* \"#utility.yul\":23944:23970   */\n      swap1\n      pop\n        /* \"#utility.yul\":24016:24025   */\n      dup2\n        /* \"#utility.yul\":24010:24014   */\n      dup2\n        /* \"#utility.yul\":24006:24026   */\n      sub\n        /* \"#utility.yul\":24002:24003   */\n      0x00\n        /* \"#utility.yul\":23991:24000   */\n      dup4\n        /* \"#utility.yul\":23987:24004   */\n      add\n        /* \"#utility.yul\":23980:24027   */\n      mstore\n        /* \"#utility.yul\":24044:24175   */\n      tag_486\n        /* \"#utility.yul\":24170:24174   */\n      dup2\n        /* \"#utility.yul\":24044:24175   */\n      tag_299\n      jump\t// in\n    tag_486:\n        /* \"#utility.yul\":24036:24175   */\n      swap1\n      pop\n        /* \"#utility.yul\":23763:24182   */\n      swap2\n      swap1\n      pop\n      jump\t// out\n        /* \"#utility.yul\":24188:24409   */\n    tag_300:\n        /* \"#utility.yul\":24328:24362   */\n      0x476577696e6e206d757373206e6f63682061757367657a61686c742077657264\n        /* \"#utility.yul\":24324:24325   */\n      0x00\n        /* \"#utility.yul\":24316:24322   */\n      dup3\n        /* \"#utility.yul\":24312:24326   */\n      add\n        /* \"#utility.yul\":24305:24363   */\n      mstore\n        /* \"#utility.yul\":24397:24401   */\n      0x656e000000000000000000000000000000000000000000000000000000000000\n        /* \"#utility.yul\":24392:24394   */\n      0x20\n        /* \"#utility.yul\":24384:24390   */\n      dup3\n        /* \"#utility.yul\":24380:24395   */\n      add\n        /* \"#utility.yul\":24373:24402   */\n      mstore\n        /* \"#utility.yul\":24188:24409   */\n      pop\n      jump\t// out\n        /* \"#utility.yul\":24415:24781   */\n    tag_301:\n        /* \"#utility.yul\":24557:24560   */\n      0x00\n        /* \"#utility.yul\":24578:24645   */\n      tag_489\n        /* \"#utility.yul\":24642:24644   */\n      0x22\n        /* \"#utility.yul\":24637:24640   */\n      dup4\n        /* \"#utility.yul\":24578:24645   */\n      tag_255\n      jump\t// in\n    tag_489:\n        /* \"#utility.yul\":24571:24645   */\n      swap2\n      pop\n        /* \"#utility.yul\":24654:24747   */\n      tag_490\n        /* \"#utility.yul\":24743:24746   */\n      dup3\n        /* \"#utility.yul\":24654:24747   */\n      tag_300\n      jump\t// in\n    tag_490:\n        /* \"#utility.yul\":24772:24774   */\n      0x40\n        /* \"#utility.yul\":24767:24770   */\n      dup3\n        /* \"#utility.yul\":24763:24775   */\n      add\n        /* \"#utility.yul\":24756:24775   */\n      swap1\n      pop\n        /* \"#utility.yul\":24415:24781   */\n      swap2\n      swap1\n      pop\n      jump\t// out\n        /* \"#utility.yul\":24787:25206   */\n    tag_232:\n        /* \"#utility.yul\":24953:24957   */\n      0x00\n        /* \"#utility.yul\":24991:24993   */\n      0x20\n        /* \"#utility.yul\":24980:24989   */\n      dup3\n        /* \"#utility.yul\":24976:24994   */\n      add\n        /* \"#utility.yul\":24968:24994   */\n      swap1\n      pop\n        /* \"#utility.yul\":25040:25049   */\n      dup2\n        /* \"#utility.yul\":25034:25038   */\n      dup2\n        /* \"#utility.yul\":25030:25050   */\n      sub\n        /* \"#utility.yul\":25026:25027   */\n      0x00\n        /* \"#utility.yul\":25015:25024   */\n      dup4\n        /* \"#utility.yul\":25011:25028   */\n      add\n        /* \"#utility.yul\":25004:25051   */\n      mstore\n        /* \"#utility.yul\":25068:25199   */\n      tag_492\n        /* \"#utility.yul\":25194:25198   */\n      dup2\n        /* \"#utility.yul\":25068:25199   */\n      tag_301\n      jump\t// in\n    tag_492:\n        /* \"#utility.yul\":25060:25199   */\n      swap1\n      pop\n        /* \"#utility.yul\":24787:25206   */\n      swap2\n      swap1\n      pop\n      jump\t// out\n        /* \"#utility.yul\":25212:25393   */\n    tag_302:\n        /* \"#utility.yul\":25352:25385   */\n      0x47656d65696e73636861667420626572656974732061756667656c6f65737400\n        /* \"#utility.yul\":25348:25349   */\n      0x00\n        /* \"#utility.yul\":25340:25346   */\n      dup3\n        /* \"#utility.yul\":25336:25350   */\n      add\n        /* \"#utility.yul\":25329:25386   */\n      mstore\n        /* \"#utility.yul\":25212:25393   */\n      pop\n      jump\t// out\n        /* \"#utility.yul\":25399:25765   */\n    tag_303:\n        /* \"#utility.yul\":25541:25544   */\n      0x00\n        /* \"#utility.yul\":25562:25629   */\n      tag_495\n        /* \"#utility.yul\":25626:25628   */\n      0x1f\n        /* \"#utility.yul\":25621:25624   */\n      dup4\n        /* \"#utility.yul\":25562:25629   */\n      tag_255\n      jump\t// in\n    tag_495:\n        /* \"#utility.yul\":25555:25629   */\n      swap2\n      pop\n        /* \"#utility.yul\":25638:25731   */\n      tag_496\n        /* \"#utility.yul\":25727:25730   */\n      dup3\n        /* \"#utility.yul\":25638:25731   */\n      tag_302\n      jump\t// in\n    tag_496:\n        /* \"#utility.yul\":25756:25758   */\n      0x20\n        /* \"#utility.yul\":25751:25754   */\n      dup3\n        /* \"#utility.yul\":25747:25759   */\n      add\n        /* \"#utility.yul\":25740:25759   */\n      swap1\n      pop\n        /* \"#utility.yul\":25399:25765   */\n      swap2\n      swap1\n      pop\n      jump\t// out\n        /* \"#utility.yul\":25771:26190   */\n    tag_235:\n        /* \"#utility.yul\":25937:25941   */\n      0x00\n        /* \"#utility.yul\":25975:25977   */\n      0x20\n        /* \"#utility.yul\":25964:25973   */\n      dup3\n        /* \"#utility.yul\":25960:25978   */\n      add\n        /* \"#utility.yul\":25952:25978   */\n      swap1\n      pop\n        /* \"#utility.yul\":26024:26033   */\n      dup2\n        /* \"#utility.yul\":26018:26022   */\n      dup2\n        /* \"#utility.yul\":26014:26034   */\n      sub\n        /* \"#utility.yul\":26010:26011   */\n      0x00\n        /* \"#utility.yul\":25999:26008   */\n      dup4\n        /* \"#utility.yul\":25995:26012   */\n      add\n        /* \"#utility.yul\":25988:26035   */\n      mstore\n        /* \"#utility.yul\":26052:26183   */\n      tag_498\n        /* \"#utility.yul\":26178:26182   */\n      dup2\n        /* \"#utility.yul\":26052:26183   */\n      tag_303\n      jump\t// in\n    tag_498:\n        /* \"#utility.yul\":26044:26183   */\n      swap1\n      pop\n        /* \"#utility.yul\":25771:26190   */\n      swap2\n      swap1\n      pop\n      jump\t// out\n\n    auxdata: 0xa26469706673582212206ab1438893f6938ebb04e08583a8bdd727037accb79c366ea5933142f6cfe41c64736f6c63430008170033\n}\n","bytecode":{"linkReferences":{},"object":"60806040525f600b555f600c5f6101000a81548160ff0219169083151502179055505f600c60016101000a81548160ff02191690831515021790555034801562000047575f80fd5b5060405162002af338038062002af383398181016040528101906200006d91906200042e565b61ffff8410620000b4576040517f08c379a0000000000000000000000000000000000000000000000000000000008152600401620000ab9062000562565b60405180910390fd5b63ffffffff8310620000fd576040517f08c379a0000000000000000000000000000000000000000000000000000000008152600401620000f490620005d0565b60405180910390fd5b845f806101000a81548173ffffffffffffffffffffffffffffffffffffffff021916908373ffffffffffffffffffffffffffffffffffffffff16021790555085600190816200014d91906200081e565b50836002819055508260038190555080600c60016101000a81548160ff02191690831515021790555081600590816200018791906200081e565b50670de0b6b3a7640000600254670de0b6b3a7640000600354620001ac91906200092f565b620001b89190620009a6565b620001c49190620009a6565b600481905550505050505050620009dd565b5f604051905090565b5f80fd5b5f80fd5b5f80fd5b5f80fd5b5f601f19601f8301169050919050565b7f4e487b71000000000000000000000000000000000000000000000000000000005f52604160045260245ffd5b6200023782620001ef565b810181811067ffffffffffffffff82111715620002595762000258620001ff565b5b80604052505050565b5f6200026d620001d6565b90506200027b82826200022c565b919050565b5f67ffffffffffffffff8211156200029d576200029c620001ff565b5b620002a882620001ef565b9050602081019050919050565b5f5b83811015620002d4578082015181840152602081019050620002b7565b5f8484015250505050565b5f620002f5620002ef8462000280565b62000262565b905082815260208101848484011115620003145762000313620001eb565b5b62000321848285620002b5565b509392505050565b5f82601f83011262000340576200033f620001e7565b5b815162000352848260208601620002df565b91505092915050565b5f73ffffffffffffffffffffffffffffffffffffffff82169050919050565b5f62000386826200035b565b9050919050565b62000398816200037a565b8114620003a3575f80fd5b50565b5f81519050620003b6816200038d565b92915050565b5f819050919050565b620003d081620003bc565b8114620003db575f80fd5b50565b5f81519050620003ee81620003c5565b92915050565b5f8115159050919050565b6200040a81620003f4565b811462000415575f80fd5b50565b5f815190506200042881620003ff565b92915050565b5f805f805f8060c087890312156200044b576200044a620001df565b5b5f87015167ffffffffffffffff8111156200046b576200046a620001e3565b5b6200047989828a0162000329565b96505060206200048c89828a01620003a6565b95505060406200049f89828a01620003de565b9450506060620004b289828a01620003de565b935050608087015167ffffffffffffffff811115620004d657620004d5620001e3565b5b620004e489828a0162000329565b92505060a0620004f789828a0162000418565b9150509295509295509295565b5f82825260208201905092915050565b7f4d6178696d616c203635353334204d6974737069656c65722065726c617562745f82015250565b5f6200054a60208362000504565b9150620005578262000514565b602082019050919050565b5f6020820190508181035f8301526200057b816200053c565b9050919050565b7f4d6178696d616c657220507265697320343239343936373239350000000000005f82015250565b5f620005b8601a8362000504565b9150620005c58262000582565b602082019050919050565b5f6020820190508181035f830152620005e981620005aa565b9050919050565b5f81519050919050565b7f4e487b71000000000000000000000000000000000000000000000000000000005f52602260045260245ffd5b5f60028204905060018216806200063f57607f821691505b602082108103620006555762000654620005fa565b5b50919050565b5f819050815f5260205f209050919050565b5f6020601f8301049050919050565b5f82821b905092915050565b5f60088302620006b97fffffffffffffffffffffffffffffffffffffffffffffffffffffffffffffffff826200067c565b620006c586836200067c565b95508019841693508086168417925050509392505050565b5f819050919050565b5f6200070662000700620006fa84620003bc565b620006dd565b620003bc565b9050919050565b5f819050919050565b6200072183620006e6565b6200073962000730826200070d565b84845462000688565b825550505050565b5f90565b6200074f62000741565b6200075c81848462000716565b505050565b5b818110156200078357620007775f8262000745565b60018101905062000762565b5050565b601f821115620007d2576200079c816200065b565b620007a7846200066d565b81016020851015620007b7578190505b620007cf620007c6856200066d565b83018262000761565b50505b505050565b5f82821c905092915050565b5f620007f45f1984600802620007d7565b1980831691505092915050565b5f6200080e8383620007e3565b9150826002028217905092915050565b6200082982620005f0565b67ffffffffffffffff811115620008455762000844620001ff565b5b62000851825462000627565b6200085e82828562000787565b5f60209050601f83116001811462000894575f84156200087f578287015190505b6200088b858262000801565b865550620008fa565b601f198416620008a4866200065b565b5f5b82811015620008cd57848901518255600182019150602085019450602081019050620008a6565b86831015620008ed5784890151620008e9601f891682620007e3565b8355505b6001600288020188555050505b505050505050565b7f4e487b71000000000000000000000000000000000000000000000000000000005f52601160045260245ffd5b5f6200093b82620003bc565b91506200094883620003bc565b92508282026200095881620003bc565b9150828204841483151762000972576200097162000902565b5b5092915050565b7f4e487b71000000000000000000000000000000000000000000000000000000005f52601260045260245ffd5b5f620009b282620003bc565b9150620009bf83620003bc565b925082620009d257620009d162000979565b5b828204905092915050565b61210880620009eb5f395ff3fe60806040526004361061014a575f3560e01c8063833e92cb116100b5578063ad2c046c1161006e578063ad2c046c146103f6578063b08c707614610420578063bb68a67f1461044a578063d27d06c014610486578063e34ad1d7146104b0578063e86c5692146104da5761014a565b8063833e92cb146103265780638acb46241461033c5780638e5676fd14610366578063912432391461038e578063a299f171146103ca578063ab76211e146103e05761014a565b80633babb15a116101075780633babb15a1461024e5780633f0f5d511461027857806343767832146102a2578063526024ea146102ca57806370a41bc0146102d4578063822b8023146102fe5761014a565b8063084263f51461014e5780630f085e50146101785780632340983f146101a25780632df368a5146101cc578063311e73da146101f65780633692706014610212575b5f80fd5b348015610159575f80fd5b50610162610516565b60405161016f91906113b4565b60405180910390f35b348015610183575f80fd5b5061018c61051c565b60405161019991906113b4565b60405180910390f35b3480156101ad575f80fd5b506101b6610522565b6040516101c391906113e7565b60405180910390f35b3480156101d7575f80fd5b506101e0610534565b6040516101ed91906113b4565b60405180910390f35b610210600480360381019061020b919061142e565b61053a565b005b34801561021d575f80fd5b50610238600480360381019061023391906114b3565b610647565b60405161024591906113e7565b60405180910390f35b348015610259575f80fd5b50610262610664565b60405161026f91906113b4565b60405180910390f35b348015610283575f80fd5b5061028c61066a565b60405161029991906113b4565b60405180910390f35b3480156102ad575f80fd5b506102c860048036038101906102c391906114b3565b610670565b005b6102d2610762565b005b3480156102df575f80fd5b506102e8610a34565b6040516102f591906113b4565b60405180910390f35b348015610309575f80fd5b50610324600480360381019061031f919061142e565b610a3a565b005b348015610331575f80fd5b5061033a610ade565b005b348015610347575f80fd5b50610350610d70565b60405161035d9190611568565b60405180910390f35b348015610371575f80fd5b5061038c6004803603810190610387919061142e565b610dfc565b005b348015610399575f80fd5b506103b460048036038101906103af91906114b3565b610ea0565b6040516103c191906113e7565b60405180910390f35b3480156103d5575f80fd5b506103de610ebd565b005b3480156103eb575f80fd5b506103f4611171565b005b348015610401575f80fd5b5061040a61128d565b6040516104179190611597565b60405180910390f35b34801561042b575f80fd5b506104346112b0565b60405161044191906113e7565b60405180910390f35b348015610455575f80fd5b50610470600480360381019061046b91906114b3565b6112c3565b60405161047d91906113e7565b60405180910390f35b348015610491575f80fd5b5061049a6112e0565b6040516104a79190611568565b60405180910390f35b3480156104bb575f80fd5b506104c461136c565b6040516104d191906113e7565b60405180910390f35b3480156104e5575f80fd5b5061050060048036038101906104fb91906114b3565b61137f565b60405161050d91906113e7565b60405180910390f35b60065481565b600b5481565b600c5f9054906101000a900460ff1681565b60045481565b5f8054906101000a900473ffffffffffffffffffffffffffffffffffffffff1673ffffffffffffffffffffffffffffffffffffffff163373ffffffffffffffffffffffffffffffffffffffff1614610590575f80fd5b5f34116105d2576040517f08c379a00000000000000000000000000000000000000000000000000000000081526004016105c990611620565b60405180910390fd5b5f600b5414610616576040517f08c379a000000000000000000000000000000000000000000000000000000000815260040161060d90611688565b60405180910390fd5b600a54816106249190611700565b600b819055506001600c5f6101000a81548160ff02191690831515021790555050565b6007602052805f5260405f205f915054906101000a900460ff1681565b600a5481565b60035481565b5f8054906101000a900473ffffffffffffffffffffffffffffffffffffffff1673ffffffffffffffffffffffffffffffffffffffff163373ffffffffffffffffffffffffffffffffffffffff16146106c6575f80fd5b5f600a541461070a576040517f08c379a0000000000000000000000000000000000000000000000000000000008152600401610701906117a0565b60405180910390fd5b6001600d5f8373ffffffffffffffffffffffffffffffffffffffff1673ffffffffffffffffffffffffffffffffffffffff1681526020019081526020015f205f6101000a81548160ff02191690831515021790555050565b5f600454116107a6576040517f08c379a000000000000000000000000000000000000000000000000000000000815260040161079d90611808565b60405180910390fd5b6004543410156107eb576040517f08c379a00000000000000000000000000000000000000000000000000000000081526004016107e290611870565b60405180910390fd5b60075f3373ffffffffffffffffffffffffffffffffffffffff1673ffffffffffffffffffffffffffffffffffffffff1681526020019081526020015f205f9054906101000a900460ff1615610875576040517f08c379a000000000000000000000000000000000000000000000000000000000815260040161086c906118fe565b60405180910390fd5b600254600a54106108bb576040517f08c379a00000000000000000000000000000000000000000000000000000000081526004016108b290611966565b60405180910390fd5b5f600b54146108ff576040517f08c379a00000000000000000000000000000000000000000000000000000000081526004016108f6906119ce565b60405180910390fd5b600c60019054906101000a900460ff161561096757600d5f3373ffffffffffffffffffffffffffffffffffffffff1673ffffffffffffffffffffffffffffffffffffffff1681526020019081526020015f205f9054906101000a900460ff16610966575f80fd5b5b5f6004543461097691906119ec565b9050600160075f3373ffffffffffffffffffffffffffffffffffffffff1673ffffffffffffffffffffffffffffffffffffffff1681526020019081526020015f205f6101000a81548160ff021916908315150217905550600a5f8154809291906109df90611a1f565b91905055505f811115610a31573373ffffffffffffffffffffffffffffffffffffffff166108fc8290811502906040515f60405180830381858888f19350505050158015610a2f573d5f803e3d5ffd5b505b50565b60025481565b5f8054906101000a900473ffffffffffffffffffffffffffffffffffffffff1673ffffffffffffffffffffffffffffffffffffffff163373ffffffffffffffffffffffffffffffffffffffff1614610a90575f80fd5b5f600a5414610ad4576040517f08c379a0000000000000000000000000000000000000000000000000000000008152600401610acb90611afc565b60405180910390fd5b8060028190555050565b60075f3373ffffffffffffffffffffffffffffffffffffffff1673ffffffffffffffffffffffffffffffffffffffff1681526020019081526020015f205f9054906101000a900460ff16610b30575f80fd5b600e5f9054906101000a900460ff1615610b7f576040517f08c379a0000000000000000000000000000000000000000000000000000000008152600401610b7690611b64565b60405180910390fd5b6001600e5f6101000a81548160ff021916908315150217905550600c5f9054906101000a900460ff16610be7576040517f08c379a0000000000000000000000000000000000000000000000000000000008152600401610bde90611bf2565b60405180910390fd5b5f600b5411610c2b576040517f08c379a0000000000000000000000000000000000000000000000000000000008152600401610c2290611c80565b60405180910390fd5b60085f3373ffffffffffffffffffffffffffffffffffffffff1673ffffffffffffffffffffffffffffffffffffffff1681526020019081526020015f205f9054906101000a900460ff1615610cb5576040517f08c379a0000000000000000000000000000000000000000000000000000000008152600401610cac90611ce8565b60405180910390fd5b600160085f3373ffffffffffffffffffffffffffffffffffffffff1673ffffffffffffffffffffffffffffffffffffffff1681526020019081526020015f205f6101000a81548160ff0219169083151502179055505f600b5490503373ffffffffffffffffffffffffffffffffffffffff166108fc8290811502906040515f60405180830381858888f19350505050158015610d53573d5f803e3d5ffd5b50505f600e5f6101000a81548160ff021916908315150217905550565b60058054610d7d90611d33565b80601f0160208091040260200160405190810160405280929190818152602001828054610da990611d33565b8015610df45780601f10610dcb57610100808354040283529160200191610df4565b820191905f5260205f20905b815481529060010190602001808311610dd757829003601f168201915b505050505081565b5f8054906101000a900473ffffffffffffffffffffffffffffffffffffffff1673ffffffffffffffffffffffffffffffffffffffff163373ffffffffffffffffffffffffffffffffffffffff1614610e52575f80fd5b5f600a5414610e96576040517f08c379a0000000000000000000000000000000000000000000000000000000008152600401610e8d90611dd3565b60405180910390fd5b8060038190555050565b6008602052805f5260405f205f915054906101000a900460ff1681565b60075f3373ffffffffffffffffffffffffffffffffffffffff1673ffffffffffffffffffffffffffffffffffffffff1681526020019081526020015f205f9054906101000a900460ff16610f0f575f80fd5b600e5f9054906101000a900460ff1615610f5e576040517f08c379a0000000000000000000000000000000000000000000000000000000008152600401610f5590611b64565b60405180910390fd5b6001600e5f6101000a81548160ff021916908315150217905550600e60019054906101000a900460ff16610fc7576040517f08c379a0000000000000000000000000000000000000000000000000000000008152600401610fbe90611e61565b60405180910390fd5b60095f3373ffffffffffffffffffffffffffffffffffffffff1673ffffffffffffffffffffffffffffffffffffffff1681526020019081526020015f205f9054906101000a900460ff1615611051576040517f08c379a000000000000000000000000000000000000000000000000000000000815260040161104890611eef565b60405180910390fd5b600160095f3373ffffffffffffffffffffffffffffffffffffffff1673ffffffffffffffffffffffffffffffffffffffff1681526020019081526020015f205f6101000a81548160ff0219169083151502179055505f60045490505f3373ffffffffffffffffffffffffffffffffffffffff16826040516110d190611f3a565b5f6040518083038185875af1925050503d805f811461110b576040519150601f19603f3d011682016040523d82523d5f602084013e611110565b606091505b5050905080611154576040517f08c379a000000000000000000000000000000000000000000000000000000000815260040161114b90611fbe565b60405180910390fd5b50505f600e5f6101000a81548160ff021916908315150217905550565b5f8054906101000a900473ffffffffffffffffffffffffffffffffffffffff1673ffffffffffffffffffffffffffffffffffffffff163373ffffffffffffffffffffffffffffffffffffffff16146111c7575f80fd5b5f1515600c5f9054906101000a900460ff1615151461121b576040517f08c379a00000000000000000000000000000000000000000000000000000000081526004016112129061204c565b60405180910390fd5b5f1515600e60019054906101000a900460ff16151514611270576040517f08c379a0000000000000000000000000000000000000000000000000000000008152600401611267906120b4565b60405180910390fd5b6001600e60016101000a81548160ff021916908315150217905550565b5f8054906101000a900473ffffffffffffffffffffffffffffffffffffffff1681565b600c60019054906101000a900460ff1681565b6009602052805f5260405f205f915054906101000a900460ff1681565b600180546112ed90611d33565b80601f016020809104026020016040519081016040528092919081815260200182805461131990611d33565b80156113645780601f1061133b57610100808354040283529160200191611364565b820191905f5260205f20905b81548152906001019060200180831161134757829003601f168201915b505050505081565b600e60019054906101000a900460ff1681565b600d602052805f5260405f205f915054906101000a900460ff1681565b5f819050919050565b6113ae8161139c565b82525050565b5f6020820190506113c75f8301846113a5565b92915050565b5f8115159050919050565b6113e1816113cd565b82525050565b5f6020820190506113fa5f8301846113d8565b92915050565b5f80fd5b61140d8161139c565b8114611417575f80fd5b50565b5f8135905061142881611404565b92915050565b5f6020828403121561144357611442611400565b5b5f6114508482850161141a565b91505092915050565b5f73ffffffffffffffffffffffffffffffffffffffff82169050919050565b5f61148282611459565b9050919050565b61149281611478565b811461149c575f80fd5b50565b5f813590506114ad81611489565b92915050565b5f602082840312156114c8576114c7611400565b5b5f6114d58482850161149f565b91505092915050565b5f81519050919050565b5f82825260208201905092915050565b5f5b838110156115155780820151818401526020810190506114fa565b5f8484015250505050565b5f601f19601f8301169050919050565b5f61153a826114de565b61154481856114e8565b93506115548185602086016114f8565b61155d81611520565b840191505092915050565b5f6020820190508181035f8301526115808184611530565b905092915050565b61159181611478565b82525050565b5f6020820190506115aa5f830184611588565b92915050565b7f45696e7a61686c756e6773626574726167206d7573732067726f6573736572205f8201527f616c732030207365696e00000000000000000000000000000000000000000000602082015250565b5f61160a602a836114e8565b9150611615826115b0565b604082019050919050565b5f6020820190508181035f830152611637816115fe565b9050919050565b7f476577696e6e20777572646520626572656974732065696e67657a61686c742e5f82015250565b5f6116726020836114e8565b915061167d8261163e565b602082019050919050565b5f6020820190508181035f83015261169f81611666565b9050919050565b7f4e487b71000000000000000000000000000000000000000000000000000000005f52601260045260245ffd5b7f4e487b71000000000000000000000000000000000000000000000000000000005f52601160045260245ffd5b5f61170a8261139c565b91506117158361139c565b925082611725576117246116a6565b5b828204905092915050565b7f457320676962742062657265697473204d6974737069656c65722e2041656e645f8201527f6572756e67206e69636874206d656872206d6f65676c6963682e000000000000602082015250565b5f61178a603a836114e8565b915061179582611730565b604082019050919050565b5f6020820190508181035f8301526117b78161177e565b9050919050565b7f4b65696e2050726569732070726f204d6974737069656c6572000000000000005f82015250565b5f6117f26019836114e8565b91506117fd826117be565b602082019050919050565b5f6020820190508181035f83015261181f816117e6565b9050919050565b7f5a7520676572696e6765722045696e7a61686c756e67736265747261670000005f82015250565b5f61185a601d836114e8565b915061186582611826565b602082019050919050565b5f6020820190508181035f8301526118878161184e565b9050919050565b7f4265726569747320616c73204d6974737069656c6572207265676973747269655f8201527f7274000000000000000000000000000000000000000000000000000000000000602082015250565b5f6118e86022836114e8565b91506118f38261188e565b604082019050919050565b5f6020820190508181035f830152611915816118dc565b9050919050565b7f4d6178696d616c65205465696c6e65686d65727a61686c2065727265696368745f82015250565b5f6119506020836114e8565b915061195b8261191c565b602082019050919050565b5f6020820190508181035f83015261197d81611944565b9050919050565b7f476577696e6e20777572646520626572656974732065696e67657a61686c74005f82015250565b5f6119b8601f836114e8565b91506119c382611984565b602082019050919050565b5f6020820190508181035f8301526119e5816119ac565b9050919050565b5f6119f68261139c565b9150611a018361139c565b9250828203905081811115611a1957611a186116d3565b5b92915050565b5f611a298261139c565b91507fffffffffffffffffffffffffffffffffffffffffffffffffffffffffffffffff8203611a5b57611a5a6116d3565b5b600182019050919050565b7f457320676962742062657265697473204d6974737069656c65722e2041656e645f8201527f6572756e672064657220416e7a61686c20616e204d6974737069656c65726e2060208201527f6e69636874206d656872206d6f65676c6963682e000000000000000000000000604082015250565b5f611ae66054836114e8565b9150611af182611a66565b606082019050919050565b5f6020820190508181035f830152611b1381611ada565b9050919050565b7f4e6f2072652d656e7472616e63790000000000000000000000000000000000005f82015250565b5f611b4e600e836114e8565b9150611b5982611b1a565b602082019050919050565b5f6020820190508181035f830152611b7b81611b42565b9050919050565b7f476577696e6e206b616e6e206e6f6368206e696368742061626765686f6c74205f8201527f77657264656e2e00000000000000000000000000000000000000000000000000602082015250565b5f611bdc6027836114e8565b9150611be782611b82565b604082019050919050565b5f6020820190508181035f830152611c0981611bd0565b9050919050565b7f4b65696e20476577696e6e207a7572204175737a61686c756e672076657266755f8201527f65676261722e0000000000000000000000000000000000000000000000000000602082015250565b5f611c6a6026836114e8565b9150611c7582611c10565b604082019050919050565b5f6020820190508181035f830152611c9781611c5e565b9050919050565b7f476577696e6e20777572646520626572656974732061626765686f6c742e00005f82015250565b5f611cd2601e836114e8565b9150611cdd82611c9e565b602082019050919050565b5f6020820190508181035f830152611cff81611cc6565b9050919050565b7f4e487b71000000000000000000000000000000000000000000000000000000005f52602260045260245ffd5b5f6002820490506001821680611d4a57607f821691505b602082108103611d5d57611d5c611d06565b5b50919050565b7f457320676962742062657265697473204d6974737069656c65722e20507265695f8201527f7361656e646572756e67206e69636874206d656872206d6f65676c6963682e00602082015250565b5f611dbd603f836114e8565b9150611dc882611d63565b604082019050919050565b5f6020820190508181035f830152611dea81611db1565b9050919050565b7f47656d65696e736368616674206d7573732061756667656c6f657374207365695f8201527f6e2e000000000000000000000000000000000000000000000000000000000000602082015250565b5f611e4b6022836114e8565b9150611e5682611df1565b604082019050919050565b5f6020820190508181035f830152611e7881611e3f565b9050919050565b7f45696e7361747a2077757264652062657265697473207a75727565636b67657a5f8201527f61686c742e000000000000000000000000000000000000000000000000000000602082015250565b5f611ed96025836114e8565b9150611ee482611e7f565b604082019050919050565b5f6020820190508181035f830152611f0681611ecd565b9050919050565b5f81905092915050565b50565b5f611f255f83611f0d565b9150611f3082611f17565b5f82019050919050565b5f611f4482611f1a565b9150819050919050565b7f527565636b7a61686c756e67206465732045696e7361747a6573206665686c675f8201527f657363686c6167656e2e00000000000000000000000000000000000000000000602082015250565b5f611fa8602a836114e8565b9150611fb382611f4e565b604082019050919050565b5f6020820190508181035f830152611fd581611f9c565b9050919050565b7f476577696e6e206d757373206e6f63682061757367657a61686c7420776572645f8201527f656e000000000000000000000000000000000000000000000000000000000000602082015250565b5f6120366022836114e8565b915061204182611fdc565b604082019050919050565b5f6020820190508181035f8301526120638161202a565b9050919050565b7f47656d65696e73636861667420626572656974732061756667656c6f657374005f82015250565b5f61209e601f836114e8565b91506120a98261206a565b602082019050919050565b5f6020820190508181035f8301526120cb81612092565b905091905056fea26469706673582212206ab1438893f6938ebb04e08583a8bdd727037accb79c366ea5933142f6cfe41c64736f6c63430008170033","opcodes":"PUSH1 0x80 PUSH1 0x40 MSTORE PUSH0 PUSH1 0xB SSTORE PUSH0 PUSH1 0xC PUSH0 PUSH2 0x100 EXP DUP2 SLOAD DUP2 PUSH1 0xFF MUL NOT AND SWAP1 DUP4 ISZERO ISZERO MUL OR SWAP1 SSTORE POP PUSH0 PUSH1 0xC PUSH1 0x1 PUSH2 0x100 EXP DUP2 SLOAD DUP2 PUSH1 0xFF MUL NOT AND SWAP1 DUP4 ISZERO ISZERO MUL OR SWAP1 SSTORE POP CALLVALUE DUP1 ISZERO PUSH3 0x47 JUMPI PUSH0 DUP1 REVERT JUMPDEST POP PUSH1 0x40 MLOAD PUSH3 0x2AF3 CODESIZE SUB DUP1 PUSH3 0x2AF3 DUP4 CODECOPY DUP2 DUP2 ADD PUSH1 0x40 MSTORE DUP2 ADD SWAP1 PUSH3 0x6D SWAP2 SWAP1 PUSH3 0x42E JUMP JUMPDEST PUSH2 0xFFFF DUP5 LT PUSH3 0xB4 JUMPI PUSH1 0x40 MLOAD PUSH32 0x8C379A000000000000000000000000000000000000000000000000000000000 DUP2 MSTORE PUSH1 0x4 ADD PUSH3 0xAB SWAP1 PUSH3 0x562 JUMP JUMPDEST PUSH1 0x40 MLOAD DUP1 SWAP2 SUB SWAP1 REVERT JUMPDEST PUSH4 0xFFFFFFFF DUP4 LT PUSH3 0xFD JUMPI PUSH1 0x40 MLOAD PUSH32 0x8C379A000000000000000000000000000000000000000000000000000000000 DUP2 MSTORE PUSH1 0x4 ADD PUSH3 0xF4 SWAP1 PUSH3 0x5D0 JUMP JUMPDEST PUSH1 0x40 MLOAD DUP1 SWAP2 SUB SWAP1 REVERT JUMPDEST DUP5 PUSH0 DUP1 PUSH2 0x100 EXP DUP2 SLOAD DUP2 PUSH20 0xFFFFFFFFFFFFFFFFFFFFFFFFFFFFFFFFFFFFFFFF MUL NOT AND SWAP1 DUP4 PUSH20 0xFFFFFFFFFFFFFFFFFFFFFFFFFFFFFFFFFFFFFFFF AND MUL OR SWAP1 SSTORE POP DUP6 PUSH1 0x1 SWAP1 DUP2 PUSH3 0x14D SWAP2 SWAP1 PUSH3 0x81E JUMP JUMPDEST POP DUP4 PUSH1 0x2 DUP2 SWAP1 SSTORE POP DUP3 PUSH1 0x3 DUP2 SWAP1 SSTORE POP DUP1 PUSH1 0xC PUSH1 0x1 PUSH2 0x100 EXP DUP2 SLOAD DUP2 PUSH1 0xFF MUL NOT AND SWAP1 DUP4 ISZERO ISZERO MUL OR SWAP1 SSTORE POP DUP2 PUSH1 0x5 SWAP1 DUP2 PUSH3 0x187 SWAP2 SWAP1 PUSH3 0x81E JUMP JUMPDEST POP PUSH8 0xDE0B6B3A7640000 PUSH1 0x2 SLOAD PUSH8 0xDE0B6B3A7640000 PUSH1 0x3 SLOAD PUSH3 0x1AC SWAP2 SWAP1 PUSH3 0x92F JUMP JUMPDEST PUSH3 0x1B8 SWAP2 SWAP1 PUSH3 0x9A6 JUMP JUMPDEST PUSH3 0x1C4 SWAP2 SWAP1 PUSH3 0x9A6 JUMP JUMPDEST PUSH1 0x4 DUP2 SWAP1 SSTORE POP POP POP POP POP POP POP PUSH3 0x9DD JUMP JUMPDEST PUSH0 PUSH1 0x40 MLOAD SWAP1 POP SWAP1 JUMP JUMPDEST PUSH0 DUP1 REVERT JUMPDEST PUSH0 DUP1 REVERT JUMPDEST PUSH0 DUP1 REVERT JUMPDEST PUSH0 DUP1 REVERT JUMPDEST PUSH0 PUSH1 0x1F NOT PUSH1 0x1F DUP4 ADD AND SWAP1 POP SWAP2 SWAP1 POP JUMP JUMPDEST PUSH32 0x4E487B7100000000000000000000000000000000000000000000000000000000 PUSH0 MSTORE PUSH1 0x41 PUSH1 0x4 MSTORE PUSH1 0x24 PUSH0 REVERT JUMPDEST PUSH3 0x237 DUP3 PUSH3 0x1EF JUMP JUMPDEST DUP2 ADD DUP2 DUP2 LT PUSH8 0xFFFFFFFFFFFFFFFF DUP3 GT OR ISZERO PUSH3 0x259 JUMPI PUSH3 0x258 PUSH3 0x1FF JUMP JUMPDEST JUMPDEST DUP1 PUSH1 0x40 MSTORE POP POP POP JUMP JUMPDEST PUSH0 PUSH3 0x26D PUSH3 0x1D6 JUMP JUMPDEST SWAP1 POP PUSH3 0x27B DUP3 DUP3 PUSH3 0x22C JUMP JUMPDEST SWAP2 SWAP1 POP JUMP JUMPDEST PUSH0 PUSH8 0xFFFFFFFFFFFFFFFF DUP3 GT ISZERO PUSH3 0x29D JUMPI PUSH3 0x29C PUSH3 0x1FF JUMP JUMPDEST JUMPDEST PUSH3 0x2A8 DUP3 PUSH3 0x1EF JUMP JUMPDEST SWAP1 POP PUSH1 0x20 DUP2 ADD SWAP1 POP SWAP2 SWAP1 POP JUMP JUMPDEST PUSH0 JUMPDEST DUP4 DUP2 LT ISZERO PUSH3 0x2D4 JUMPI DUP1 DUP3 ADD MLOAD DUP2 DUP5 ADD MSTORE PUSH1 0x20 DUP2 ADD SWAP1 POP PUSH3 0x2B7 JUMP JUMPDEST PUSH0 DUP5 DUP5 ADD MSTORE POP POP POP POP JUMP JUMPDEST PUSH0 PUSH3 0x2F5 PUSH3 0x2EF DUP5 PUSH3 0x280 JUMP JUMPDEST PUSH3 0x262 JUMP JUMPDEST SWAP1 POP DUP3 DUP2 MSTORE PUSH1 0x20 DUP2 ADD DUP5 DUP5 DUP5 ADD GT ISZERO PUSH3 0x314 JUMPI PUSH3 0x313 PUSH3 0x1EB JUMP JUMPDEST JUMPDEST PUSH3 0x321 DUP5 DUP3 DUP6 PUSH3 0x2B5 JUMP JUMPDEST POP SWAP4 SWAP3 POP POP POP JUMP JUMPDEST PUSH0 DUP3 PUSH1 0x1F DUP4 ADD SLT PUSH3 0x340 JUMPI PUSH3 0x33F PUSH3 0x1E7 JUMP JUMPDEST JUMPDEST DUP2 MLOAD PUSH3 0x352 DUP5 DUP3 PUSH1 0x20 DUP7 ADD PUSH3 0x2DF JUMP JUMPDEST SWAP2 POP POP SWAP3 SWAP2 POP POP JUMP JUMPDEST PUSH0 PUSH20 0xFFFFFFFFFFFFFFFFFFFFFFFFFFFFFFFFFFFFFFFF DUP3 AND SWAP1 POP SWAP2 SWAP1 POP JUMP JUMPDEST PUSH0 PUSH3 0x386 DUP3 PUSH3 0x35B JUMP JUMPDEST SWAP1 POP SWAP2 SWAP1 POP JUMP JUMPDEST PUSH3 0x398 DUP2 PUSH3 0x37A JUMP JUMPDEST DUP2 EQ PUSH3 0x3A3 JUMPI PUSH0 DUP1 REVERT JUMPDEST POP JUMP JUMPDEST PUSH0 DUP2 MLOAD SWAP1 POP PUSH3 0x3B6 DUP2 PUSH3 0x38D JUMP JUMPDEST SWAP3 SWAP2 POP POP JUMP JUMPDEST PUSH0 DUP2 SWAP1 POP SWAP2 SWAP1 POP JUMP JUMPDEST PUSH3 0x3D0 DUP2 PUSH3 0x3BC JUMP JUMPDEST DUP2 EQ PUSH3 0x3DB JUMPI PUSH0 DUP1 REVERT JUMPDEST POP JUMP JUMPDEST PUSH0 DUP2 MLOAD SWAP1 POP PUSH3 0x3EE DUP2 PUSH3 0x3C5 JUMP JUMPDEST SWAP3 SWAP2 POP POP JUMP JUMPDEST PUSH0 DUP2 ISZERO ISZERO SWAP1 POP SWAP2 SWAP1 POP JUMP JUMPDEST PUSH3 0x40A DUP2 PUSH3 0x3F4 JUMP JUMPDEST DUP2 EQ PUSH3 0x415 JUMPI PUSH0 DUP1 REVERT JUMPDEST POP JUMP JUMPDEST PUSH0 DUP2 MLOAD SWAP1 POP PUSH3 0x428 DUP2 PUSH3 0x3FF JUMP JUMPDEST SWAP3 SWAP2 POP POP JUMP JUMPDEST PUSH0 DUP1 PUSH0 DUP1 PUSH0 DUP1 PUSH1 0xC0 DUP8 DUP10 SUB SLT ISZERO PUSH3 0x44B JUMPI PUSH3 0x44A PUSH3 0x1DF JUMP JUMPDEST JUMPDEST PUSH0 DUP8 ADD MLOAD PUSH8 0xFFFFFFFFFFFFFFFF DUP2 GT ISZERO PUSH3 0x46B JUMPI PUSH3 0x46A PUSH3 0x1E3 JUMP JUMPDEST JUMPDEST PUSH3 0x479 DUP10 DUP3 DUP11 ADD PUSH3 0x329 JUMP JUMPDEST SWAP7 POP POP PUSH1 0x20 PUSH3 0x48C DUP10 DUP3 DUP11 ADD PUSH3 0x3A6 JUMP JUMPDEST SWAP6 POP POP PUSH1 0x40 PUSH3 0x49F DUP10 DUP3 DUP11 ADD PUSH3 0x3DE JUMP JUMPDEST SWAP5 POP POP PUSH1 0x60 PUSH3 0x4B2 DUP10 DUP3 DUP11 ADD PUSH3 0x3DE JUMP JUMPDEST SWAP4 POP POP PUSH1 0x80 DUP8 ADD MLOAD PUSH8 0xFFFFFFFFFFFFFFFF DUP2 GT ISZERO PUSH3 0x4D6 JUMPI PUSH3 0x4D5 PUSH3 0x1E3 JUMP JUMPDEST JUMPDEST PUSH3 0x4E4 DUP10 DUP3 DUP11 ADD PUSH3 0x329 JUMP JUMPDEST SWAP3 POP POP PUSH1 0xA0 PUSH3 0x4F7 DUP10 DUP3 DUP11 ADD PUSH3 0x418 JUMP JUMPDEST SWAP2 POP POP SWAP3 SWAP6 POP SWAP3 SWAP6 POP SWAP3 SWAP6 JUMP JUMPDEST PUSH0 DUP3 DUP3 MSTORE PUSH1 0x20 DUP3 ADD SWAP1 POP SWAP3 SWAP2 POP POP JUMP JUMPDEST PUSH32 0x4D6178696D616C203635353334204D6974737069656C65722065726C61756274 PUSH0 DUP3 ADD MSTORE POP JUMP JUMPDEST PUSH0 PUSH3 0x54A PUSH1 0x20 DUP4 PUSH3 0x504 JUMP JUMPDEST SWAP2 POP PUSH3 0x557 DUP3 PUSH3 0x514 JUMP JUMPDEST PUSH1 0x20 DUP3 ADD SWAP1 POP SWAP2 SWAP1 POP JUMP JUMPDEST PUSH0 PUSH1 0x20 DUP3 ADD SWAP1 POP DUP2 DUP2 SUB PUSH0 DUP4 ADD MSTORE PUSH3 0x57B DUP2 PUSH3 0x53C JUMP JUMPDEST SWAP1 POP SWAP2 SWAP1 POP JUMP JUMPDEST PUSH32 0x4D6178696D616C65722050726569732034323934393637323935000000000000 PUSH0 DUP3 ADD MSTORE POP JUMP JUMPDEST PUSH0 PUSH3 0x5B8 PUSH1 0x1A DUP4 PUSH3 0x504 JUMP JUMPDEST SWAP2 POP PUSH3 0x5C5 DUP3 PUSH3 0x582 JUMP JUMPDEST PUSH1 0x20 DUP3 ADD SWAP1 POP SWAP2 SWAP1 POP JUMP JUMPDEST PUSH0 PUSH1 0x20 DUP3 ADD SWAP1 POP DUP2 DUP2 SUB PUSH0 DUP4 ADD MSTORE PUSH3 0x5E9 DUP2 PUSH3 0x5AA JUMP JUMPDEST SWAP1 POP SWAP2 SWAP1 POP JUMP JUMPDEST PUSH0 DUP2 MLOAD SWAP1 POP SWAP2 SWAP1 POP JUMP JUMPDEST PUSH32 0x4E487B7100000000000000000000000000000000000000000000000000000000 PUSH0 MSTORE PUSH1 0x22 PUSH1 0x4 MSTORE PUSH1 0x24 PUSH0 REVERT JUMPDEST PUSH0 PUSH1 0x2 DUP3 DIV SWAP1 POP PUSH1 0x1 DUP3 AND DUP1 PUSH3 0x63F JUMPI PUSH1 0x7F DUP3 AND SWAP2 POP JUMPDEST PUSH1 0x20 DUP3 LT DUP2 SUB PUSH3 0x655 JUMPI PUSH3 0x654 PUSH3 0x5FA JUMP JUMPDEST JUMPDEST POP SWAP2 SWAP1 POP JUMP JUMPDEST PUSH0 DUP2 SWAP1 POP DUP2 PUSH0 MSTORE PUSH1 0x20 PUSH0 KECCAK256 SWAP1 POP SWAP2 SWAP1 POP JUMP JUMPDEST PUSH0 PUSH1 0x20 PUSH1 0x1F DUP4 ADD DIV SWAP1 POP SWAP2 SWAP1 POP JUMP JUMPDEST PUSH0 DUP3 DUP3 SHL SWAP1 POP SWAP3 SWAP2 POP POP JUMP JUMPDEST PUSH0 PUSH1 0x8 DUP4 MUL PUSH3 0x6B9 PUSH32 0xFFFFFFFFFFFFFFFFFFFFFFFFFFFFFFFFFFFFFFFFFFFFFFFFFFFFFFFFFFFFFFFF DUP3 PUSH3 0x67C JUMP JUMPDEST PUSH3 0x6C5 DUP7 DUP4 PUSH3 0x67C JUMP JUMPDEST SWAP6 POP DUP1 NOT DUP5 AND SWAP4 POP DUP1 DUP7 AND DUP5 OR SWAP3 POP POP POP SWAP4 SWAP3 POP POP POP JUMP JUMPDEST PUSH0 DUP2 SWAP1 POP SWAP2 SWAP1 POP JUMP JUMPDEST PUSH0 PUSH3 0x706 PUSH3 0x700 PUSH3 0x6FA DUP5 PUSH3 0x3BC JUMP JUMPDEST PUSH3 0x6DD JUMP JUMPDEST PUSH3 0x3BC JUMP JUMPDEST SWAP1 POP SWAP2 SWAP1 POP JUMP JUMPDEST PUSH0 DUP2 SWAP1 POP SWAP2 SWAP1 POP JUMP JUMPDEST PUSH3 0x721 DUP4 PUSH3 0x6E6 JUMP JUMPDEST PUSH3 0x739 PUSH3 0x730 DUP3 PUSH3 0x70D JUMP JUMPDEST DUP5 DUP5 SLOAD PUSH3 0x688 JUMP JUMPDEST DUP3 SSTORE POP POP POP POP JUMP JUMPDEST PUSH0 SWAP1 JUMP JUMPDEST PUSH3 0x74F PUSH3 0x741 JUMP JUMPDEST PUSH3 0x75C DUP2 DUP5 DUP5 PUSH3 0x716 JUMP JUMPDEST POP POP POP JUMP JUMPDEST JUMPDEST DUP2 DUP2 LT ISZERO PUSH3 0x783 JUMPI PUSH3 0x777 PUSH0 DUP3 PUSH3 0x745 JUMP JUMPDEST PUSH1 0x1 DUP2 ADD SWAP1 POP PUSH3 0x762 JUMP JUMPDEST POP POP JUMP JUMPDEST PUSH1 0x1F DUP3 GT ISZERO PUSH3 0x7D2 JUMPI PUSH3 0x79C DUP2 PUSH3 0x65B JUMP JUMPDEST PUSH3 0x7A7 DUP5 PUSH3 0x66D JUMP JUMPDEST DUP2 ADD PUSH1 0x20 DUP6 LT ISZERO PUSH3 0x7B7 JUMPI DUP2 SWAP1 POP JUMPDEST PUSH3 0x7CF PUSH3 0x7C6 DUP6 PUSH3 0x66D JUMP JUMPDEST DUP4 ADD DUP3 PUSH3 0x761 JUMP JUMPDEST POP POP JUMPDEST POP POP POP JUMP JUMPDEST PUSH0 DUP3 DUP3 SHR SWAP1 POP SWAP3 SWAP2 POP POP JUMP JUMPDEST PUSH0 PUSH3 0x7F4 PUSH0 NOT DUP5 PUSH1 0x8 MUL PUSH3 0x7D7 JUMP JUMPDEST NOT DUP1 DUP4 AND SWAP2 POP POP SWAP3 SWAP2 POP POP JUMP JUMPDEST PUSH0 PUSH3 0x80E DUP4 DUP4 PUSH3 0x7E3 JUMP JUMPDEST SWAP2 POP DUP3 PUSH1 0x2 MUL DUP3 OR SWAP1 POP SWAP3 SWAP2 POP POP JUMP JUMPDEST PUSH3 0x829 DUP3 PUSH3 0x5F0 JUMP JUMPDEST PUSH8 0xFFFFFFFFFFFFFFFF DUP2 GT ISZERO PUSH3 0x845 JUMPI PUSH3 0x844 PUSH3 0x1FF JUMP JUMPDEST JUMPDEST PUSH3 0x851 DUP3 SLOAD PUSH3 0x627 JUMP JUMPDEST PUSH3 0x85E DUP3 DUP3 DUP6 PUSH3 0x787 JUMP JUMPDEST PUSH0 PUSH1 0x20 SWAP1 POP PUSH1 0x1F DUP4 GT PUSH1 0x1 DUP2 EQ PUSH3 0x894 JUMPI PUSH0 DUP5 ISZERO PUSH3 0x87F JUMPI DUP3 DUP8 ADD MLOAD SWAP1 POP JUMPDEST PUSH3 0x88B DUP6 DUP3 PUSH3 0x801 JUMP JUMPDEST DUP7 SSTORE POP PUSH3 0x8FA JUMP JUMPDEST PUSH1 0x1F NOT DUP5 AND PUSH3 0x8A4 DUP7 PUSH3 0x65B JUMP JUMPDEST PUSH0 JUMPDEST DUP3 DUP2 LT ISZERO PUSH3 0x8CD JUMPI DUP5 DUP10 ADD MLOAD DUP3 SSTORE PUSH1 0x1 DUP3 ADD SWAP2 POP PUSH1 0x20 DUP6 ADD SWAP5 POP PUSH1 0x20 DUP2 ADD SWAP1 POP PUSH3 0x8A6 JUMP JUMPDEST DUP7 DUP4 LT ISZERO PUSH3 0x8ED JUMPI DUP5 DUP10 ADD MLOAD PUSH3 0x8E9 PUSH1 0x1F DUP10 AND DUP3 PUSH3 0x7E3 JUMP JUMPDEST DUP4 SSTORE POP JUMPDEST PUSH1 0x1 PUSH1 0x2 DUP9 MUL ADD DUP9 SSTORE POP POP POP JUMPDEST POP POP POP POP POP POP JUMP JUMPDEST PUSH32 0x4E487B7100000000000000000000000000000000000000000000000000000000 PUSH0 MSTORE PUSH1 0x11 PUSH1 0x4 MSTORE PUSH1 0x24 PUSH0 REVERT JUMPDEST PUSH0 PUSH3 0x93B DUP3 PUSH3 0x3BC JUMP JUMPDEST SWAP2 POP PUSH3 0x948 DUP4 PUSH3 0x3BC JUMP JUMPDEST SWAP3 POP DUP3 DUP3 MUL PUSH3 0x958 DUP2 PUSH3 0x3BC JUMP JUMPDEST SWAP2 POP DUP3 DUP3 DIV DUP5 EQ DUP4 ISZERO OR PUSH3 0x972 JUMPI PUSH3 0x971 PUSH3 0x902 JUMP JUMPDEST JUMPDEST POP SWAP3 SWAP2 POP POP JUMP JUMPDEST PUSH32 0x4E487B7100000000000000000000000000000000000000000000000000000000 PUSH0 MSTORE PUSH1 0x12 PUSH1 0x4 MSTORE PUSH1 0x24 PUSH0 REVERT JUMPDEST PUSH0 PUSH3 0x9B2 DUP3 PUSH3 0x3BC JUMP JUMPDEST SWAP2 POP PUSH3 0x9BF DUP4 PUSH3 0x3BC JUMP JUMPDEST SWAP3 POP DUP3 PUSH3 0x9D2 JUMPI PUSH3 0x9D1 PUSH3 0x979 JUMP JUMPDEST JUMPDEST DUP3 DUP3 DIV SWAP1 POP SWAP3 SWAP2 POP POP JUMP JUMPDEST PUSH2 0x2108 DUP1 PUSH3 0x9EB PUSH0 CODECOPY PUSH0 RETURN INVALID PUSH1 0x80 PUSH1 0x40 MSTORE PUSH1 0x4 CALLDATASIZE LT PUSH2 0x14A JUMPI PUSH0 CALLDATALOAD PUSH1 0xE0 SHR DUP1 PUSH4 0x833E92CB GT PUSH2 0xB5 JUMPI DUP1 PUSH4 0xAD2C046C GT PUSH2 0x6E JUMPI DUP1 PUSH4 0xAD2C046C EQ PUSH2 0x3F6 JUMPI DUP1 PUSH4 0xB08C7076 EQ PUSH2 0x420 JUMPI DUP1 PUSH4 0xBB68A67F EQ PUSH2 0x44A JUMPI DUP1 PUSH4 0xD27D06C0 EQ PUSH2 0x486 JUMPI DUP1 PUSH4 0xE34AD1D7 EQ PUSH2 0x4B0 JUMPI DUP1 PUSH4 0xE86C5692 EQ PUSH2 0x4DA JUMPI PUSH2 0x14A JUMP JUMPDEST DUP1 PUSH4 0x833E92CB EQ PUSH2 0x326 JUMPI DUP1 PUSH4 0x8ACB4624 EQ PUSH2 0x33C JUMPI DUP1 PUSH4 0x8E5676FD EQ PUSH2 0x366 JUMPI DUP1 PUSH4 0x91243239 EQ PUSH2 0x38E JUMPI DUP1 PUSH4 0xA299F171 EQ PUSH2 0x3CA JUMPI DUP1 PUSH4 0xAB76211E EQ PUSH2 0x3E0 JUMPI PUSH2 0x14A JUMP JUMPDEST DUP1 PUSH4 0x3BABB15A GT PUSH2 0x107 JUMPI DUP1 PUSH4 0x3BABB15A EQ PUSH2 0x24E JUMPI DUP1 PUSH4 0x3F0F5D51 EQ PUSH2 0x278 JUMPI DUP1 PUSH4 0x43767832 EQ PUSH2 0x2A2 JUMPI DUP1 PUSH4 0x526024EA EQ PUSH2 0x2CA JUMPI DUP1 PUSH4 0x70A41BC0 EQ PUSH2 0x2D4 JUMPI DUP1 PUSH4 0x822B8023 EQ PUSH2 0x2FE JUMPI PUSH2 0x14A JUMP JUMPDEST DUP1 PUSH4 0x84263F5 EQ PUSH2 0x14E JUMPI DUP1 PUSH4 0xF085E50 EQ PUSH2 0x178 JUMPI DUP1 PUSH4 0x2340983F EQ PUSH2 0x1A2 JUMPI DUP1 PUSH4 0x2DF368A5 EQ PUSH2 0x1CC JUMPI DUP1 PUSH4 0x311E73DA EQ PUSH2 0x1F6 JUMPI DUP1 PUSH4 0x36927060 EQ PUSH2 0x212 JUMPI JUMPDEST PUSH0 DUP1 REVERT JUMPDEST CALLVALUE DUP1 ISZERO PUSH2 0x159 JUMPI PUSH0 DUP1 REVERT JUMPDEST POP PUSH2 0x162 PUSH2 0x516 JUMP JUMPDEST PUSH1 0x40 MLOAD PUSH2 0x16F SWAP2 SWAP1 PUSH2 0x13B4 JUMP JUMPDEST PUSH1 0x40 MLOAD DUP1 SWAP2 SUB SWAP1 RETURN JUMPDEST CALLVALUE DUP1 ISZERO PUSH2 0x183 JUMPI PUSH0 DUP1 REVERT JUMPDEST POP PUSH2 0x18C PUSH2 0x51C JUMP JUMPDEST PUSH1 0x40 MLOAD PUSH2 0x199 SWAP2 SWAP1 PUSH2 0x13B4 JUMP JUMPDEST PUSH1 0x40 MLOAD DUP1 SWAP2 SUB SWAP1 RETURN JUMPDEST CALLVALUE DUP1 ISZERO PUSH2 0x1AD JUMPI PUSH0 DUP1 REVERT JUMPDEST POP PUSH2 0x1B6 PUSH2 0x522 JUMP JUMPDEST PUSH1 0x40 MLOAD PUSH2 0x1C3 SWAP2 SWAP1 PUSH2 0x13E7 JUMP JUMPDEST PUSH1 0x40 MLOAD DUP1 SWAP2 SUB SWAP1 RETURN JUMPDEST CALLVALUE DUP1 ISZERO PUSH2 0x1D7 JUMPI PUSH0 DUP1 REVERT JUMPDEST POP PUSH2 0x1E0 PUSH2 0x534 JUMP JUMPDEST PUSH1 0x40 MLOAD PUSH2 0x1ED SWAP2 SWAP1 PUSH2 0x13B4 JUMP JUMPDEST PUSH1 0x40 MLOAD DUP1 SWAP2 SUB SWAP1 RETURN JUMPDEST PUSH2 0x210 PUSH1 0x4 DUP1 CALLDATASIZE SUB DUP2 ADD SWAP1 PUSH2 0x20B SWAP2 SWAP1 PUSH2 0x142E JUMP JUMPDEST PUSH2 0x53A JUMP JUMPDEST STOP JUMPDEST CALLVALUE DUP1 ISZERO PUSH2 0x21D JUMPI PUSH0 DUP1 REVERT JUMPDEST POP PUSH2 0x238 PUSH1 0x4 DUP1 CALLDATASIZE SUB DUP2 ADD SWAP1 PUSH2 0x233 SWAP2 SWAP1 PUSH2 0x14B3 JUMP JUMPDEST PUSH2 0x647 JUMP JUMPDEST PUSH1 0x40 MLOAD PUSH2 0x245 SWAP2 SWAP1 PUSH2 0x13E7 JUMP JUMPDEST PUSH1 0x40 MLOAD DUP1 SWAP2 SUB SWAP1 RETURN JUMPDEST CALLVALUE DUP1 ISZERO PUSH2 0x259 JUMPI PUSH0 DUP1 REVERT JUMPDEST POP PUSH2 0x262 PUSH2 0x664 JUMP JUMPDEST PUSH1 0x40 MLOAD PUSH2 0x26F SWAP2 SWAP1 PUSH2 0x13B4 JUMP JUMPDEST PUSH1 0x40 MLOAD DUP1 SWAP2 SUB SWAP1 RETURN JUMPDEST CALLVALUE DUP1 ISZERO PUSH2 0x283 JUMPI PUSH0 DUP1 REVERT JUMPDEST POP PUSH2 0x28C PUSH2 0x66A JUMP JUMPDEST PUSH1 0x40 MLOAD PUSH2 0x299 SWAP2 SWAP1 PUSH2 0x13B4 JUMP JUMPDEST PUSH1 0x40 MLOAD DUP1 SWAP2 SUB SWAP1 RETURN JUMPDEST CALLVALUE DUP1 ISZERO PUSH2 0x2AD JUMPI PUSH0 DUP1 REVERT JUMPDEST POP PUSH2 0x2C8 PUSH1 0x4 DUP1 CALLDATASIZE SUB DUP2 ADD SWAP1 PUSH2 0x2C3 SWAP2 SWAP1 PUSH2 0x14B3 JUMP JUMPDEST PUSH2 0x670 JUMP JUMPDEST STOP JUMPDEST PUSH2 0x2D2 PUSH2 0x762 JUMP JUMPDEST STOP JUMPDEST CALLVALUE DUP1 ISZERO PUSH2 0x2DF JUMPI PUSH0 DUP1 REVERT JUMPDEST POP PUSH2 0x2E8 PUSH2 0xA34 JUMP JUMPDEST PUSH1 0x40 MLOAD PUSH2 0x2F5 SWAP2 SWAP1 PUSH2 0x13B4 JUMP JUMPDEST PUSH1 0x40 MLOAD DUP1 SWAP2 SUB SWAP1 RETURN JUMPDEST CALLVALUE DUP1 ISZERO PUSH2 0x309 JUMPI PUSH0 DUP1 REVERT JUMPDEST POP PUSH2 0x324 PUSH1 0x4 DUP1 CALLDATASIZE SUB DUP2 ADD SWAP1 PUSH2 0x31F SWAP2 SWAP1 PUSH2 0x142E JUMP JUMPDEST PUSH2 0xA3A JUMP JUMPDEST STOP JUMPDEST CALLVALUE DUP1 ISZERO PUSH2 0x331 JUMPI PUSH0 DUP1 REVERT JUMPDEST POP PUSH2 0x33A PUSH2 0xADE JUMP JUMPDEST STOP JUMPDEST CALLVALUE DUP1 ISZERO PUSH2 0x347 JUMPI PUSH0 DUP1 REVERT JUMPDEST POP PUSH2 0x350 PUSH2 0xD70 JUMP JUMPDEST PUSH1 0x40 MLOAD PUSH2 0x35D SWAP2 SWAP1 PUSH2 0x1568 JUMP JUMPDEST PUSH1 0x40 MLOAD DUP1 SWAP2 SUB SWAP1 RETURN JUMPDEST CALLVALUE DUP1 ISZERO PUSH2 0x371 JUMPI PUSH0 DUP1 REVERT JUMPDEST POP PUSH2 0x38C PUSH1 0x4 DUP1 CALLDATASIZE SUB DUP2 ADD SWAP1 PUSH2 0x387 SWAP2 SWAP1 PUSH2 0x142E JUMP JUMPDEST PUSH2 0xDFC JUMP JUMPDEST STOP JUMPDEST CALLVALUE DUP1 ISZERO PUSH2 0x399 JUMPI PUSH0 DUP1 REVERT JUMPDEST POP PUSH2 0x3B4 PUSH1 0x4 DUP1 CALLDATASIZE SUB DUP2 ADD SWAP1 PUSH2 0x3AF SWAP2 SWAP1 PUSH2 0x14B3 JUMP JUMPDEST PUSH2 0xEA0 JUMP JUMPDEST PUSH1 0x40 MLOAD PUSH2 0x3C1 SWAP2 SWAP1 PUSH2 0x13E7 JUMP JUMPDEST PUSH1 0x40 MLOAD DUP1 SWAP2 SUB SWAP1 RETURN JUMPDEST CALLVALUE DUP1 ISZERO PUSH2 0x3D5 JUMPI PUSH0 DUP1 REVERT JUMPDEST POP PUSH2 0x3DE PUSH2 0xEBD JUMP JUMPDEST STOP JUMPDEST CALLVALUE DUP1 ISZERO PUSH2 0x3EB JUMPI PUSH0 DUP1 REVERT JUMPDEST POP PUSH2 0x3F4 PUSH2 0x1171 JUMP JUMPDEST STOP JUMPDEST CALLVALUE DUP1 ISZERO PUSH2 0x401 JUMPI PUSH0 DUP1 REVERT JUMPDEST POP PUSH2 0x40A PUSH2 0x128D JUMP JUMPDEST PUSH1 0x40 MLOAD PUSH2 0x417 SWAP2 SWAP1 PUSH2 0x1597 JUMP JUMPDEST PUSH1 0x40 MLOAD DUP1 SWAP2 SUB SWAP1 RETURN JUMPDEST CALLVALUE DUP1 ISZERO PUSH2 0x42B JUMPI PUSH0 DUP1 REVERT JUMPDEST POP PUSH2 0x434 PUSH2 0x12B0 JUMP JUMPDEST PUSH1 0x40 MLOAD PUSH2 0x441 SWAP2 SWAP1 PUSH2 0x13E7 JUMP JUMPDEST PUSH1 0x40 MLOAD DUP1 SWAP2 SUB SWAP1 RETURN JUMPDEST CALLVALUE DUP1 ISZERO PUSH2 0x455 JUMPI PUSH0 DUP1 REVERT JUMPDEST POP PUSH2 0x470 PUSH1 0x4 DUP1 CALLDATASIZE SUB DUP2 ADD SWAP1 PUSH2 0x46B SWAP2 SWAP1 PUSH2 0x14B3 JUMP JUMPDEST PUSH2 0x12C3 JUMP JUMPDEST PUSH1 0x40 MLOAD PUSH2 0x47D SWAP2 SWAP1 PUSH2 0x13E7 JUMP JUMPDEST PUSH1 0x40 MLOAD DUP1 SWAP2 SUB SWAP1 RETURN JUMPDEST CALLVALUE DUP1 ISZERO PUSH2 0x491 JUMPI PUSH0 DUP1 REVERT JUMPDEST POP PUSH2 0x49A PUSH2 0x12E0 JUMP JUMPDEST PUSH1 0x40 MLOAD PUSH2 0x4A7 SWAP2 SWAP1 PUSH2 0x1568 JUMP JUMPDEST PUSH1 0x40 MLOAD DUP1 SWAP2 SUB SWAP1 RETURN JUMPDEST CALLVALUE DUP1 ISZERO PUSH2 0x4BB JUMPI PUSH0 DUP1 REVERT JUMPDEST POP PUSH2 0x4C4 PUSH2 0x136C JUMP JUMPDEST PUSH1 0x40 MLOAD PUSH2 0x4D1 SWAP2 SWAP1 PUSH2 0x13E7 JUMP JUMPDEST PUSH1 0x40 MLOAD DUP1 SWAP2 SUB SWAP1 RETURN JUMPDEST CALLVALUE DUP1 ISZERO PUSH2 0x4E5 JUMPI PUSH0 DUP1 REVERT JUMPDEST POP PUSH2 0x500 PUSH1 0x4 DUP1 CALLDATASIZE SUB DUP2 ADD SWAP1 PUSH2 0x4FB SWAP2 SWAP1 PUSH2 0x14B3 JUMP JUMPDEST PUSH2 0x137F JUMP JUMPDEST PUSH1 0x40 MLOAD PUSH2 0x50D SWAP2 SWAP1 PUSH2 0x13E7 JUMP JUMPDEST PUSH1 0x40 MLOAD DUP1 SWAP2 SUB SWAP1 RETURN JUMPDEST PUSH1 0x6 SLOAD DUP2 JUMP JUMPDEST PUSH1 0xB SLOAD DUP2 JUMP JUMPDEST PUSH1 0xC PUSH0 SWAP1 SLOAD SWAP1 PUSH2 0x100 EXP SWAP1 DIV PUSH1 0xFF AND DUP2 JUMP JUMPDEST PUSH1 0x4 SLOAD DUP2 JUMP JUMPDEST PUSH0 DUP1 SLOAD SWAP1 PUSH2 0x100 EXP SWAP1 DIV PUSH20 0xFFFFFFFFFFFFFFFFFFFFFFFFFFFFFFFFFFFFFFFF AND PUSH20 0xFFFFFFFFFFFFFFFFFFFFFFFFFFFFFFFFFFFFFFFF AND CALLER PUSH20 0xFFFFFFFFFFFFFFFFFFFFFFFFFFFFFFFFFFFFFFFF AND EQ PUSH2 0x590 JUMPI PUSH0 DUP1 REVERT JUMPDEST PUSH0 CALLVALUE GT PUSH2 0x5D2 JUMPI PUSH1 0x40 MLOAD PUSH32 0x8C379A000000000000000000000000000000000000000000000000000000000 DUP2 MSTORE PUSH1 0x4 ADD PUSH2 0x5C9 SWAP1 PUSH2 0x1620 JUMP JUMPDEST PUSH1 0x40 MLOAD DUP1 SWAP2 SUB SWAP1 REVERT JUMPDEST PUSH0 PUSH1 0xB SLOAD EQ PUSH2 0x616 JUMPI PUSH1 0x40 MLOAD PUSH32 0x8C379A000000000000000000000000000000000000000000000000000000000 DUP2 MSTORE PUSH1 0x4 ADD PUSH2 0x60D SWAP1 PUSH2 0x1688 JUMP JUMPDEST PUSH1 0x40 MLOAD DUP1 SWAP2 SUB SWAP1 REVERT JUMPDEST PUSH1 0xA SLOAD DUP2 PUSH2 0x624 SWAP2 SWAP1 PUSH2 0x1700 JUMP JUMPDEST PUSH1 0xB DUP2 SWAP1 SSTORE POP PUSH1 0x1 PUSH1 0xC PUSH0 PUSH2 0x100 EXP DUP2 SLOAD DUP2 PUSH1 0xFF MUL NOT AND SWAP1 DUP4 ISZERO ISZERO MUL OR SWAP1 SSTORE POP POP JUMP JUMPDEST PUSH1 0x7 PUSH1 0x20 MSTORE DUP1 PUSH0 MSTORE PUSH1 0x40 PUSH0 KECCAK256 PUSH0 SWAP2 POP SLOAD SWAP1 PUSH2 0x100 EXP SWAP1 DIV PUSH1 0xFF AND DUP2 JUMP JUMPDEST PUSH1 0xA SLOAD DUP2 JUMP JUMPDEST PUSH1 0x3 SLOAD DUP2 JUMP JUMPDEST PUSH0 DUP1 SLOAD SWAP1 PUSH2 0x100 EXP SWAP1 DIV PUSH20 0xFFFFFFFFFFFFFFFFFFFFFFFFFFFFFFFFFFFFFFFF AND PUSH20 0xFFFFFFFFFFFFFFFFFFFFFFFFFFFFFFFFFFFFFFFF AND CALLER PUSH20 0xFFFFFFFFFFFFFFFFFFFFFFFFFFFFFFFFFFFFFFFF AND EQ PUSH2 0x6C6 JUMPI PUSH0 DUP1 REVERT JUMPDEST PUSH0 PUSH1 0xA SLOAD EQ PUSH2 0x70A JUMPI PUSH1 0x40 MLOAD PUSH32 0x8C379A000000000000000000000000000000000000000000000000000000000 DUP2 MSTORE PUSH1 0x4 ADD PUSH2 0x701 SWAP1 PUSH2 0x17A0 JUMP JUMPDEST PUSH1 0x40 MLOAD DUP1 SWAP2 SUB SWAP1 REVERT JUMPDEST PUSH1 0x1 PUSH1 0xD PUSH0 DUP4 PUSH20 0xFFFFFFFFFFFFFFFFFFFFFFFFFFFFFFFFFFFFFFFF AND PUSH20 0xFFFFFFFFFFFFFFFFFFFFFFFFFFFFFFFFFFFFFFFF AND DUP2 MSTORE PUSH1 0x20 ADD SWAP1 DUP2 MSTORE PUSH1 0x20 ADD PUSH0 KECCAK256 PUSH0 PUSH2 0x100 EXP DUP2 SLOAD DUP2 PUSH1 0xFF MUL NOT AND SWAP1 DUP4 ISZERO ISZERO MUL OR SWAP1 SSTORE POP POP JUMP JUMPDEST PUSH0 PUSH1 0x4 SLOAD GT PUSH2 0x7A6 JUMPI PUSH1 0x40 MLOAD PUSH32 0x8C379A000000000000000000000000000000000000000000000000000000000 DUP2 MSTORE PUSH1 0x4 ADD PUSH2 0x79D SWAP1 PUSH2 0x1808 JUMP JUMPDEST PUSH1 0x40 MLOAD DUP1 SWAP2 SUB SWAP1 REVERT JUMPDEST PUSH1 0x4 SLOAD CALLVALUE LT ISZERO PUSH2 0x7EB JUMPI PUSH1 0x40 MLOAD PUSH32 0x8C379A000000000000000000000000000000000000000000000000000000000 DUP2 MSTORE PUSH1 0x4 ADD PUSH2 0x7E2 SWAP1 PUSH2 0x1870 JUMP JUMPDEST PUSH1 0x40 MLOAD DUP1 SWAP2 SUB SWAP1 REVERT JUMPDEST PUSH1 0x7 PUSH0 CALLER PUSH20 0xFFFFFFFFFFFFFFFFFFFFFFFFFFFFFFFFFFFFFFFF AND PUSH20 0xFFFFFFFFFFFFFFFFFFFFFFFFFFFFFFFFFFFFFFFF AND DUP2 MSTORE PUSH1 0x20 ADD SWAP1 DUP2 MSTORE PUSH1 0x20 ADD PUSH0 KECCAK256 PUSH0 SWAP1 SLOAD SWAP1 PUSH2 0x100 EXP SWAP1 DIV PUSH1 0xFF AND ISZERO PUSH2 0x875 JUMPI PUSH1 0x40 MLOAD PUSH32 0x8C379A000000000000000000000000000000000000000000000000000000000 DUP2 MSTORE PUSH1 0x4 ADD PUSH2 0x86C SWAP1 PUSH2 0x18FE JUMP JUMPDEST PUSH1 0x40 MLOAD DUP1 SWAP2 SUB SWAP1 REVERT JUMPDEST PUSH1 0x2 SLOAD PUSH1 0xA SLOAD LT PUSH2 0x8BB JUMPI PUSH1 0x40 MLOAD PUSH32 0x8C379A000000000000000000000000000000000000000000000000000000000 DUP2 MSTORE PUSH1 0x4 ADD PUSH2 0x8B2 SWAP1 PUSH2 0x1966 JUMP JUMPDEST PUSH1 0x40 MLOAD DUP1 SWAP2 SUB SWAP1 REVERT JUMPDEST PUSH0 PUSH1 0xB SLOAD EQ PUSH2 0x8FF JUMPI PUSH1 0x40 MLOAD PUSH32 0x8C379A000000000000000000000000000000000000000000000000000000000 DUP2 MSTORE PUSH1 0x4 ADD PUSH2 0x8F6 SWAP1 PUSH2 0x19CE JUMP JUMPDEST PUSH1 0x40 MLOAD DUP1 SWAP2 SUB SWAP1 REVERT JUMPDEST PUSH1 0xC PUSH1 0x1 SWAP1 SLOAD SWAP1 PUSH2 0x100 EXP SWAP1 DIV PUSH1 0xFF AND ISZERO PUSH2 0x967 JUMPI PUSH1 0xD PUSH0 CALLER PUSH20 0xFFFFFFFFFFFFFFFFFFFFFFFFFFFFFFFFFFFFFFFF AND PUSH20 0xFFFFFFFFFFFFFFFFFFFFFFFFFFFFFFFFFFFFFFFF AND DUP2 MSTORE PUSH1 0x20 ADD SWAP1 DUP2 MSTORE PUSH1 0x20 ADD PUSH0 KECCAK256 PUSH0 SWAP1 SLOAD SWAP1 PUSH2 0x100 EXP SWAP1 DIV PUSH1 0xFF AND PUSH2 0x966 JUMPI PUSH0 DUP1 REVERT JUMPDEST JUMPDEST PUSH0 PUSH1 0x4 SLOAD CALLVALUE PUSH2 0x976 SWAP2 SWAP1 PUSH2 0x19EC JUMP JUMPDEST SWAP1 POP PUSH1 0x1 PUSH1 0x7 PUSH0 CALLER PUSH20 0xFFFFFFFFFFFFFFFFFFFFFFFFFFFFFFFFFFFFFFFF AND PUSH20 0xFFFFFFFFFFFFFFFFFFFFFFFFFFFFFFFFFFFFFFFF AND DUP2 MSTORE PUSH1 0x20 ADD SWAP1 DUP2 MSTORE PUSH1 0x20 ADD PUSH0 KECCAK256 PUSH0 PUSH2 0x100 EXP DUP2 SLOAD DUP2 PUSH1 0xFF MUL NOT AND SWAP1 DUP4 ISZERO ISZERO MUL OR SWAP1 SSTORE POP PUSH1 0xA PUSH0 DUP2 SLOAD DUP1 SWAP3 SWAP2 SWAP1 PUSH2 0x9DF SWAP1 PUSH2 0x1A1F JUMP JUMPDEST SWAP2 SWAP1 POP SSTORE POP PUSH0 DUP2 GT ISZERO PUSH2 0xA31 JUMPI CALLER PUSH20 0xFFFFFFFFFFFFFFFFFFFFFFFFFFFFFFFFFFFFFFFF AND PUSH2 0x8FC DUP3 SWAP1 DUP2 ISZERO MUL SWAP1 PUSH1 0x40 MLOAD PUSH0 PUSH1 0x40 MLOAD DUP1 DUP4 SUB DUP2 DUP6 DUP9 DUP9 CALL SWAP4 POP POP POP POP ISZERO DUP1 ISZERO PUSH2 0xA2F JUMPI RETURNDATASIZE PUSH0 DUP1 RETURNDATACOPY RETURNDATASIZE PUSH0 REVERT JUMPDEST POP JUMPDEST POP JUMP JUMPDEST PUSH1 0x2 SLOAD DUP2 JUMP JUMPDEST PUSH0 DUP1 SLOAD SWAP1 PUSH2 0x100 EXP SWAP1 DIV PUSH20 0xFFFFFFFFFFFFFFFFFFFFFFFFFFFFFFFFFFFFFFFF AND PUSH20 0xFFFFFFFFFFFFFFFFFFFFFFFFFFFFFFFFFFFFFFFF AND CALLER PUSH20 0xFFFFFFFFFFFFFFFFFFFFFFFFFFFFFFFFFFFFFFFF AND EQ PUSH2 0xA90 JUMPI PUSH0 DUP1 REVERT JUMPDEST PUSH0 PUSH1 0xA SLOAD EQ PUSH2 0xAD4 JUMPI PUSH1 0x40 MLOAD PUSH32 0x8C379A000000000000000000000000000000000000000000000000000000000 DUP2 MSTORE PUSH1 0x4 ADD PUSH2 0xACB SWAP1 PUSH2 0x1AFC JUMP JUMPDEST PUSH1 0x40 MLOAD DUP1 SWAP2 SUB SWAP1 REVERT JUMPDEST DUP1 PUSH1 0x2 DUP2 SWAP1 SSTORE POP POP JUMP JUMPDEST PUSH1 0x7 PUSH0 CALLER PUSH20 0xFFFFFFFFFFFFFFFFFFFFFFFFFFFFFFFFFFFFFFFF AND PUSH20 0xFFFFFFFFFFFFFFFFFFFFFFFFFFFFFFFFFFFFFFFF AND DUP2 MSTORE PUSH1 0x20 ADD SWAP1 DUP2 MSTORE PUSH1 0x20 ADD PUSH0 KECCAK256 PUSH0 SWAP1 SLOAD SWAP1 PUSH2 0x100 EXP SWAP1 DIV PUSH1 0xFF AND PUSH2 0xB30 JUMPI PUSH0 DUP1 REVERT JUMPDEST PUSH1 0xE PUSH0 SWAP1 SLOAD SWAP1 PUSH2 0x100 EXP SWAP1 DIV PUSH1 0xFF AND ISZERO PUSH2 0xB7F JUMPI PUSH1 0x40 MLOAD PUSH32 0x8C379A000000000000000000000000000000000000000000000000000000000 DUP2 MSTORE PUSH1 0x4 ADD PUSH2 0xB76 SWAP1 PUSH2 0x1B64 JUMP JUMPDEST PUSH1 0x40 MLOAD DUP1 SWAP2 SUB SWAP1 REVERT JUMPDEST PUSH1 0x1 PUSH1 0xE PUSH0 PUSH2 0x100 EXP DUP2 SLOAD DUP2 PUSH1 0xFF MUL NOT AND SWAP1 DUP4 ISZERO ISZERO MUL OR SWAP1 SSTORE POP PUSH1 0xC PUSH0 SWAP1 SLOAD SWAP1 PUSH2 0x100 EXP SWAP1 DIV PUSH1 0xFF AND PUSH2 0xBE7 JUMPI PUSH1 0x40 MLOAD PUSH32 0x8C379A000000000000000000000000000000000000000000000000000000000 DUP2 MSTORE PUSH1 0x4 ADD PUSH2 0xBDE SWAP1 PUSH2 0x1BF2 JUMP JUMPDEST PUSH1 0x40 MLOAD DUP1 SWAP2 SUB SWAP1 REVERT JUMPDEST PUSH0 PUSH1 0xB SLOAD GT PUSH2 0xC2B JUMPI PUSH1 0x40 MLOAD PUSH32 0x8C379A000000000000000000000000000000000000000000000000000000000 DUP2 MSTORE PUSH1 0x4 ADD PUSH2 0xC22 SWAP1 PUSH2 0x1C80 JUMP JUMPDEST PUSH1 0x40 MLOAD DUP1 SWAP2 SUB SWAP1 REVERT JUMPDEST PUSH1 0x8 PUSH0 CALLER PUSH20 0xFFFFFFFFFFFFFFFFFFFFFFFFFFFFFFFFFFFFFFFF AND PUSH20 0xFFFFFFFFFFFFFFFFFFFFFFFFFFFFFFFFFFFFFFFF AND DUP2 MSTORE PUSH1 0x20 ADD SWAP1 DUP2 MSTORE PUSH1 0x20 ADD PUSH0 KECCAK256 PUSH0 SWAP1 SLOAD SWAP1 PUSH2 0x100 EXP SWAP1 DIV PUSH1 0xFF AND ISZERO PUSH2 0xCB5 JUMPI PUSH1 0x40 MLOAD PUSH32 0x8C379A000000000000000000000000000000000000000000000000000000000 DUP2 MSTORE PUSH1 0x4 ADD PUSH2 0xCAC SWAP1 PUSH2 0x1CE8 JUMP JUMPDEST PUSH1 0x40 MLOAD DUP1 SWAP2 SUB SWAP1 REVERT JUMPDEST PUSH1 0x1 PUSH1 0x8 PUSH0 CALLER PUSH20 0xFFFFFFFFFFFFFFFFFFFFFFFFFFFFFFFFFFFFFFFF AND PUSH20 0xFFFFFFFFFFFFFFFFFFFFFFFFFFFFFFFFFFFFFFFF AND DUP2 MSTORE PUSH1 0x20 ADD SWAP1 DUP2 MSTORE PUSH1 0x20 ADD PUSH0 KECCAK256 PUSH0 PUSH2 0x100 EXP DUP2 SLOAD DUP2 PUSH1 0xFF MUL NOT AND SWAP1 DUP4 ISZERO ISZERO MUL OR SWAP1 SSTORE POP PUSH0 PUSH1 0xB SLOAD SWAP1 POP CALLER PUSH20 0xFFFFFFFFFFFFFFFFFFFFFFFFFFFFFFFFFFFFFFFF AND PUSH2 0x8FC DUP3 SWAP1 DUP2 ISZERO MUL SWAP1 PUSH1 0x40 MLOAD PUSH0 PUSH1 0x40 MLOAD DUP1 DUP4 SUB DUP2 DUP6 DUP9 DUP9 CALL SWAP4 POP POP POP POP ISZERO DUP1 ISZERO PUSH2 0xD53 JUMPI RETURNDATASIZE PUSH0 DUP1 RETURNDATACOPY RETURNDATASIZE PUSH0 REVERT JUMPDEST POP POP PUSH0 PUSH1 0xE PUSH0 PUSH2 0x100 EXP DUP2 SLOAD DUP2 PUSH1 0xFF MUL NOT AND SWAP1 DUP4 ISZERO ISZERO MUL OR SWAP1 SSTORE POP JUMP JUMPDEST PUSH1 0x5 DUP1 SLOAD PUSH2 0xD7D SWAP1 PUSH2 0x1D33 JUMP JUMPDEST DUP1 PUSH1 0x1F ADD PUSH1 0x20 DUP1 SWAP2 DIV MUL PUSH1 0x20 ADD PUSH1 0x40 MLOAD SWAP1 DUP2 ADD PUSH1 0x40 MSTORE DUP1 SWAP3 SWAP2 SWAP1 DUP2 DUP2 MSTORE PUSH1 0x20 ADD DUP3 DUP1 SLOAD PUSH2 0xDA9 SWAP1 PUSH2 0x1D33 JUMP JUMPDEST DUP1 ISZERO PUSH2 0xDF4 JUMPI DUP1 PUSH1 0x1F LT PUSH2 0xDCB JUMPI PUSH2 0x100 DUP1 DUP4 SLOAD DIV MUL DUP4 MSTORE SWAP2 PUSH1 0x20 ADD SWAP2 PUSH2 0xDF4 JUMP JUMPDEST DUP3 ADD SWAP2 SWAP1 PUSH0 MSTORE PUSH1 0x20 PUSH0 KECCAK256 SWAP1 JUMPDEST DUP2 SLOAD DUP2 MSTORE SWAP1 PUSH1 0x1 ADD SWAP1 PUSH1 0x20 ADD DUP1 DUP4 GT PUSH2 0xDD7 JUMPI DUP3 SWAP1 SUB PUSH1 0x1F AND DUP3 ADD SWAP2 JUMPDEST POP POP POP POP POP DUP2 JUMP JUMPDEST PUSH0 DUP1 SLOAD SWAP1 PUSH2 0x100 EXP SWAP1 DIV PUSH20 0xFFFFFFFFFFFFFFFFFFFFFFFFFFFFFFFFFFFFFFFF AND PUSH20 0xFFFFFFFFFFFFFFFFFFFFFFFFFFFFFFFFFFFFFFFF AND CALLER PUSH20 0xFFFFFFFFFFFFFFFFFFFFFFFFFFFFFFFFFFFFFFFF AND EQ PUSH2 0xE52 JUMPI PUSH0 DUP1 REVERT JUMPDEST PUSH0 PUSH1 0xA SLOAD EQ PUSH2 0xE96 JUMPI PUSH1 0x40 MLOAD PUSH32 0x8C379A000000000000000000000000000000000000000000000000000000000 DUP2 MSTORE PUSH1 0x4 ADD PUSH2 0xE8D SWAP1 PUSH2 0x1DD3 JUMP JUMPDEST PUSH1 0x40 MLOAD DUP1 SWAP2 SUB SWAP1 REVERT JUMPDEST DUP1 PUSH1 0x3 DUP2 SWAP1 SSTORE POP POP JUMP JUMPDEST PUSH1 0x8 PUSH1 0x20 MSTORE DUP1 PUSH0 MSTORE PUSH1 0x40 PUSH0 KECCAK256 PUSH0 SWAP2 POP SLOAD SWAP1 PUSH2 0x100 EXP SWAP1 DIV PUSH1 0xFF AND DUP2 JUMP JUMPDEST PUSH1 0x7 PUSH0 CALLER PUSH20 0xFFFFFFFFFFFFFFFFFFFFFFFFFFFFFFFFFFFFFFFF AND PUSH20 0xFFFFFFFFFFFFFFFFFFFFFFFFFFFFFFFFFFFFFFFF AND DUP2 MSTORE PUSH1 0x20 ADD SWAP1 DUP2 MSTORE PUSH1 0x20 ADD PUSH0 KECCAK256 PUSH0 SWAP1 SLOAD SWAP1 PUSH2 0x100 EXP SWAP1 DIV PUSH1 0xFF AND PUSH2 0xF0F JUMPI PUSH0 DUP1 REVERT JUMPDEST PUSH1 0xE PUSH0 SWAP1 SLOAD SWAP1 PUSH2 0x100 EXP SWAP1 DIV PUSH1 0xFF AND ISZERO PUSH2 0xF5E JUMPI PUSH1 0x40 MLOAD PUSH32 0x8C379A000000000000000000000000000000000000000000000000000000000 DUP2 MSTORE PUSH1 0x4 ADD PUSH2 0xF55 SWAP1 PUSH2 0x1B64 JUMP JUMPDEST PUSH1 0x40 MLOAD DUP1 SWAP2 SUB SWAP1 REVERT JUMPDEST PUSH1 0x1 PUSH1 0xE PUSH0 PUSH2 0x100 EXP DUP2 SLOAD DUP2 PUSH1 0xFF MUL NOT AND SWAP1 DUP4 ISZERO ISZERO MUL OR SWAP1 SSTORE POP PUSH1 0xE PUSH1 0x1 SWAP1 SLOAD SWAP1 PUSH2 0x100 EXP SWAP1 DIV PUSH1 0xFF AND PUSH2 0xFC7 JUMPI PUSH1 0x40 MLOAD PUSH32 0x8C379A000000000000000000000000000000000000000000000000000000000 DUP2 MSTORE PUSH1 0x4 ADD PUSH2 0xFBE SWAP1 PUSH2 0x1E61 JUMP JUMPDEST PUSH1 0x40 MLOAD DUP1 SWAP2 SUB SWAP1 REVERT JUMPDEST PUSH1 0x9 PUSH0 CALLER PUSH20 0xFFFFFFFFFFFFFFFFFFFFFFFFFFFFFFFFFFFFFFFF AND PUSH20 0xFFFFFFFFFFFFFFFFFFFFFFFFFFFFFFFFFFFFFFFF AND DUP2 MSTORE PUSH1 0x20 ADD SWAP1 DUP2 MSTORE PUSH1 0x20 ADD PUSH0 KECCAK256 PUSH0 SWAP1 SLOAD SWAP1 PUSH2 0x100 EXP SWAP1 DIV PUSH1 0xFF AND ISZERO PUSH2 0x1051 JUMPI PUSH1 0x40 MLOAD PUSH32 0x8C379A000000000000000000000000000000000000000000000000000000000 DUP2 MSTORE PUSH1 0x4 ADD PUSH2 0x1048 SWAP1 PUSH2 0x1EEF JUMP JUMPDEST PUSH1 0x40 MLOAD DUP1 SWAP2 SUB SWAP1 REVERT JUMPDEST PUSH1 0x1 PUSH1 0x9 PUSH0 CALLER PUSH20 0xFFFFFFFFFFFFFFFFFFFFFFFFFFFFFFFFFFFFFFFF AND PUSH20 0xFFFFFFFFFFFFFFFFFFFFFFFFFFFFFFFFFFFFFFFF AND DUP2 MSTORE PUSH1 0x20 ADD SWAP1 DUP2 MSTORE PUSH1 0x20 ADD PUSH0 KECCAK256 PUSH0 PUSH2 0x100 EXP DUP2 SLOAD DUP2 PUSH1 0xFF MUL NOT AND SWAP1 DUP4 ISZERO ISZERO MUL OR SWAP1 SSTORE POP PUSH0 PUSH1 0x4 SLOAD SWAP1 POP PUSH0 CALLER PUSH20 0xFFFFFFFFFFFFFFFFFFFFFFFFFFFFFFFFFFFFFFFF AND DUP3 PUSH1 0x40 MLOAD PUSH2 0x10D1 SWAP1 PUSH2 0x1F3A JUMP JUMPDEST PUSH0 PUSH1 0x40 MLOAD DUP1 DUP4 SUB DUP2 DUP6 DUP8 GAS CALL SWAP3 POP POP POP RETURNDATASIZE DUP1 PUSH0 DUP2 EQ PUSH2 0x110B JUMPI PUSH1 0x40 MLOAD SWAP2 POP PUSH1 0x1F NOT PUSH1 0x3F RETURNDATASIZE ADD AND DUP3 ADD PUSH1 0x40 MSTORE RETURNDATASIZE DUP3 MSTORE RETURNDATASIZE PUSH0 PUSH1 0x20 DUP5 ADD RETURNDATACOPY PUSH2 0x1110 JUMP JUMPDEST PUSH1 0x60 SWAP2 POP JUMPDEST POP POP SWAP1 POP DUP1 PUSH2 0x1154 JUMPI PUSH1 0x40 MLOAD PUSH32 0x8C379A000000000000000000000000000000000000000000000000000000000 DUP2 MSTORE PUSH1 0x4 ADD PUSH2 0x114B SWAP1 PUSH2 0x1FBE JUMP JUMPDEST PUSH1 0x40 MLOAD DUP1 SWAP2 SUB SWAP1 REVERT JUMPDEST POP POP PUSH0 PUSH1 0xE PUSH0 PUSH2 0x100 EXP DUP2 SLOAD DUP2 PUSH1 0xFF MUL NOT AND SWAP1 DUP4 ISZERO ISZERO MUL OR SWAP1 SSTORE POP JUMP JUMPDEST PUSH0 DUP1 SLOAD SWAP1 PUSH2 0x100 EXP SWAP1 DIV PUSH20 0xFFFFFFFFFFFFFFFFFFFFFFFFFFFFFFFFFFFFFFFF AND PUSH20 0xFFFFFFFFFFFFFFFFFFFFFFFFFFFFFFFFFFFFFFFF AND CALLER PUSH20 0xFFFFFFFFFFFFFFFFFFFFFFFFFFFFFFFFFFFFFFFF AND EQ PUSH2 0x11C7 JUMPI PUSH0 DUP1 REVERT JUMPDEST PUSH0 ISZERO ISZERO PUSH1 0xC PUSH0 SWAP1 SLOAD SWAP1 PUSH2 0x100 EXP SWAP1 DIV PUSH1 0xFF AND ISZERO ISZERO EQ PUSH2 0x121B JUMPI PUSH1 0x40 MLOAD PUSH32 0x8C379A000000000000000000000000000000000000000000000000000000000 DUP2 MSTORE PUSH1 0x4 ADD PUSH2 0x1212 SWAP1 PUSH2 0x204C JUMP JUMPDEST PUSH1 0x40 MLOAD DUP1 SWAP2 SUB SWAP1 REVERT JUMPDEST PUSH0 ISZERO ISZERO PUSH1 0xE PUSH1 0x1 SWAP1 SLOAD SWAP1 PUSH2 0x100 EXP SWAP1 DIV PUSH1 0xFF AND ISZERO ISZERO EQ PUSH2 0x1270 JUMPI PUSH1 0x40 MLOAD PUSH32 0x8C379A000000000000000000000000000000000000000000000000000000000 DUP2 MSTORE PUSH1 0x4 ADD PUSH2 0x1267 SWAP1 PUSH2 0x20B4 JUMP JUMPDEST PUSH1 0x40 MLOAD DUP1 SWAP2 SUB SWAP1 REVERT JUMPDEST PUSH1 0x1 PUSH1 0xE PUSH1 0x1 PUSH2 0x100 EXP DUP2 SLOAD DUP2 PUSH1 0xFF MUL NOT AND SWAP1 DUP4 ISZERO ISZERO MUL OR SWAP1 SSTORE POP JUMP JUMPDEST PUSH0 DUP1 SLOAD SWAP1 PUSH2 0x100 EXP SWAP1 DIV PUSH20 0xFFFFFFFFFFFFFFFFFFFFFFFFFFFFFFFFFFFFFFFF AND DUP2 JUMP JUMPDEST PUSH1 0xC PUSH1 0x1 SWAP1 SLOAD SWAP1 PUSH2 0x100 EXP SWAP1 DIV PUSH1 0xFF AND DUP2 JUMP JUMPDEST PUSH1 0x9 PUSH1 0x20 MSTORE DUP1 PUSH0 MSTORE PUSH1 0x40 PUSH0 KECCAK256 PUSH0 SWAP2 POP SLOAD SWAP1 PUSH2 0x100 EXP SWAP1 DIV PUSH1 0xFF AND DUP2 JUMP JUMPDEST PUSH1 0x1 DUP1 SLOAD PUSH2 0x12ED SWAP1 PUSH2 0x1D33 JUMP JUMPDEST DUP1 PUSH1 0x1F ADD PUSH1 0x20 DUP1 SWAP2 DIV MUL PUSH1 0x20 ADD PUSH1 0x40 MLOAD SWAP1 DUP2 ADD PUSH1 0x40 MSTORE DUP1 SWAP3 SWAP2 SWAP1 DUP2 DUP2 MSTORE PUSH1 0x20 ADD DUP3 DUP1 SLOAD PUSH2 0x1319 SWAP1 PUSH2 0x1D33 JUMP JUMPDEST DUP1 ISZERO PUSH2 0x1364 JUMPI DUP1 PUSH1 0x1F LT PUSH2 0x133B JUMPI PUSH2 0x100 DUP1 DUP4 SLOAD DIV MUL DUP4 MSTORE SWAP2 PUSH1 0x20 ADD SWAP2 PUSH2 0x1364 JUMP JUMPDEST DUP3 ADD SWAP2 SWAP1 PUSH0 MSTORE PUSH1 0x20 PUSH0 KECCAK256 SWAP1 JUMPDEST DUP2 SLOAD DUP2 MSTORE SWAP1 PUSH1 0x1 ADD SWAP1 PUSH1 0x20 ADD DUP1 DUP4 GT PUSH2 0x1347 JUMPI DUP3 SWAP1 SUB PUSH1 0x1F AND DUP3 ADD SWAP2 JUMPDEST POP POP POP POP POP DUP2 JUMP JUMPDEST PUSH1 0xE PUSH1 0x1 SWAP1 SLOAD SWAP1 PUSH2 0x100 EXP SWAP1 DIV PUSH1 0xFF AND DUP2 JUMP JUMPDEST PUSH1 0xD PUSH1 0x20 MSTORE DUP1 PUSH0 MSTORE PUSH1 0x40 PUSH0 KECCAK256 PUSH0 SWAP2 POP SLOAD SWAP1 PUSH2 0x100 EXP SWAP1 DIV PUSH1 0xFF AND DUP2 JUMP JUMPDEST PUSH0 DUP2 SWAP1 POP SWAP2 SWAP1 POP JUMP JUMPDEST PUSH2 0x13AE DUP2 PUSH2 0x139C JUMP JUMPDEST DUP3 MSTORE POP POP JUMP JUMPDEST PUSH0 PUSH1 0x20 DUP3 ADD SWAP1 POP PUSH2 0x13C7 PUSH0 DUP4 ADD DUP5 PUSH2 0x13A5 JUMP JUMPDEST SWAP3 SWAP2 POP POP JUMP JUMPDEST PUSH0 DUP2 ISZERO ISZERO SWAP1 POP SWAP2 SWAP1 POP JUMP JUMPDEST PUSH2 0x13E1 DUP2 PUSH2 0x13CD JUMP JUMPDEST DUP3 MSTORE POP POP JUMP JUMPDEST PUSH0 PUSH1 0x20 DUP3 ADD SWAP1 POP PUSH2 0x13FA PUSH0 DUP4 ADD DUP5 PUSH2 0x13D8 JUMP JUMPDEST SWAP3 SWAP2 POP POP JUMP JUMPDEST PUSH0 DUP1 REVERT JUMPDEST PUSH2 0x140D DUP2 PUSH2 0x139C JUMP JUMPDEST DUP2 EQ PUSH2 0x1417 JUMPI PUSH0 DUP1 REVERT JUMPDEST POP JUMP JUMPDEST PUSH0 DUP2 CALLDATALOAD SWAP1 POP PUSH2 0x1428 DUP2 PUSH2 0x1404 JUMP JUMPDEST SWAP3 SWAP2 POP POP JUMP JUMPDEST PUSH0 PUSH1 0x20 DUP3 DUP5 SUB SLT ISZERO PUSH2 0x1443 JUMPI PUSH2 0x1442 PUSH2 0x1400 JUMP JUMPDEST JUMPDEST PUSH0 PUSH2 0x1450 DUP5 DUP3 DUP6 ADD PUSH2 0x141A JUMP JUMPDEST SWAP2 POP POP SWAP3 SWAP2 POP POP JUMP JUMPDEST PUSH0 PUSH20 0xFFFFFFFFFFFFFFFFFFFFFFFFFFFFFFFFFFFFFFFF DUP3 AND SWAP1 POP SWAP2 SWAP1 POP JUMP JUMPDEST PUSH0 PUSH2 0x1482 DUP3 PUSH2 0x1459 JUMP JUMPDEST SWAP1 POP SWAP2 SWAP1 POP JUMP JUMPDEST PUSH2 0x1492 DUP2 PUSH2 0x1478 JUMP JUMPDEST DUP2 EQ PUSH2 0x149C JUMPI PUSH0 DUP1 REVERT JUMPDEST POP JUMP JUMPDEST PUSH0 DUP2 CALLDATALOAD SWAP1 POP PUSH2 0x14AD DUP2 PUSH2 0x1489 JUMP JUMPDEST SWAP3 SWAP2 POP POP JUMP JUMPDEST PUSH0 PUSH1 0x20 DUP3 DUP5 SUB SLT ISZERO PUSH2 0x14C8 JUMPI PUSH2 0x14C7 PUSH2 0x1400 JUMP JUMPDEST JUMPDEST PUSH0 PUSH2 0x14D5 DUP5 DUP3 DUP6 ADD PUSH2 0x149F JUMP JUMPDEST SWAP2 POP POP SWAP3 SWAP2 POP POP JUMP JUMPDEST PUSH0 DUP2 MLOAD SWAP1 POP SWAP2 SWAP1 POP JUMP JUMPDEST PUSH0 DUP3 DUP3 MSTORE PUSH1 0x20 DUP3 ADD SWAP1 POP SWAP3 SWAP2 POP POP JUMP JUMPDEST PUSH0 JUMPDEST DUP4 DUP2 LT ISZERO PUSH2 0x1515 JUMPI DUP1 DUP3 ADD MLOAD DUP2 DUP5 ADD MSTORE PUSH1 0x20 DUP2 ADD SWAP1 POP PUSH2 0x14FA JUMP JUMPDEST PUSH0 DUP5 DUP5 ADD MSTORE POP POP POP POP JUMP JUMPDEST PUSH0 PUSH1 0x1F NOT PUSH1 0x1F DUP4 ADD AND SWAP1 POP SWAP2 SWAP1 POP JUMP JUMPDEST PUSH0 PUSH2 0x153A DUP3 PUSH2 0x14DE JUMP JUMPDEST PUSH2 0x1544 DUP2 DUP6 PUSH2 0x14E8 JUMP JUMPDEST SWAP4 POP PUSH2 0x1554 DUP2 DUP6 PUSH1 0x20 DUP7 ADD PUSH2 0x14F8 JUMP JUMPDEST PUSH2 0x155D DUP2 PUSH2 0x1520 JUMP JUMPDEST DUP5 ADD SWAP2 POP POP SWAP3 SWAP2 POP POP JUMP JUMPDEST PUSH0 PUSH1 0x20 DUP3 ADD SWAP1 POP DUP2 DUP2 SUB PUSH0 DUP4 ADD MSTORE PUSH2 0x1580 DUP2 DUP5 PUSH2 0x1530 JUMP JUMPDEST SWAP1 POP SWAP3 SWAP2 POP POP JUMP JUMPDEST PUSH2 0x1591 DUP2 PUSH2 0x1478 JUMP JUMPDEST DUP3 MSTORE POP POP JUMP JUMPDEST PUSH0 PUSH1 0x20 DUP3 ADD SWAP1 POP PUSH2 0x15AA PUSH0 DUP4 ADD DUP5 PUSH2 0x1588 JUMP JUMPDEST SWAP3 SWAP2 POP POP JUMP JUMPDEST PUSH32 0x45696E7A61686C756E6773626574726167206D7573732067726F657373657220 PUSH0 DUP3 ADD MSTORE PUSH32 0x616C732030207365696E00000000000000000000000000000000000000000000 PUSH1 0x20 DUP3 ADD MSTORE POP JUMP JUMPDEST PUSH0 PUSH2 0x160A PUSH1 0x2A DUP4 PUSH2 0x14E8 JUMP JUMPDEST SWAP2 POP PUSH2 0x1615 DUP3 PUSH2 0x15B0 JUMP JUMPDEST PUSH1 0x40 DUP3 ADD SWAP1 POP SWAP2 SWAP1 POP JUMP JUMPDEST PUSH0 PUSH1 0x20 DUP3 ADD SWAP1 POP DUP2 DUP2 SUB PUSH0 DUP4 ADD MSTORE PUSH2 0x1637 DUP2 PUSH2 0x15FE JUMP JUMPDEST SWAP1 POP SWAP2 SWAP1 POP JUMP JUMPDEST PUSH32 0x476577696E6E20777572646520626572656974732065696E67657A61686C742E PUSH0 DUP3 ADD MSTORE POP JUMP JUMPDEST PUSH0 PUSH2 0x1672 PUSH1 0x20 DUP4 PUSH2 0x14E8 JUMP JUMPDEST SWAP2 POP PUSH2 0x167D DUP3 PUSH2 0x163E JUMP JUMPDEST PUSH1 0x20 DUP3 ADD SWAP1 POP SWAP2 SWAP1 POP JUMP JUMPDEST PUSH0 PUSH1 0x20 DUP3 ADD SWAP1 POP DUP2 DUP2 SUB PUSH0 DUP4 ADD MSTORE PUSH2 0x169F DUP2 PUSH2 0x1666 JUMP JUMPDEST SWAP1 POP SWAP2 SWAP1 POP JUMP JUMPDEST PUSH32 0x4E487B7100000000000000000000000000000000000000000000000000000000 PUSH0 MSTORE PUSH1 0x12 PUSH1 0x4 MSTORE PUSH1 0x24 PUSH0 REVERT JUMPDEST PUSH32 0x4E487B7100000000000000000000000000000000000000000000000000000000 PUSH0 MSTORE PUSH1 0x11 PUSH1 0x4 MSTORE PUSH1 0x24 PUSH0 REVERT JUMPDEST PUSH0 PUSH2 0x170A DUP3 PUSH2 0x139C JUMP JUMPDEST SWAP2 POP PUSH2 0x1715 DUP4 PUSH2 0x139C JUMP JUMPDEST SWAP3 POP DUP3 PUSH2 0x1725 JUMPI PUSH2 0x1724 PUSH2 0x16A6 JUMP JUMPDEST JUMPDEST DUP3 DUP3 DIV SWAP1 POP SWAP3 SWAP2 POP POP JUMP JUMPDEST PUSH32 0x457320676962742062657265697473204D6974737069656C65722E2041656E64 PUSH0 DUP3 ADD MSTORE PUSH32 0x6572756E67206E69636874206D656872206D6F65676C6963682E000000000000 PUSH1 0x20 DUP3 ADD MSTORE POP JUMP JUMPDEST PUSH0 PUSH2 0x178A PUSH1 0x3A DUP4 PUSH2 0x14E8 JUMP JUMPDEST SWAP2 POP PUSH2 0x1795 DUP3 PUSH2 0x1730 JUMP JUMPDEST PUSH1 0x40 DUP3 ADD SWAP1 POP SWAP2 SWAP1 POP JUMP JUMPDEST PUSH0 PUSH1 0x20 DUP3 ADD SWAP1 POP DUP2 DUP2 SUB PUSH0 DUP4 ADD MSTORE PUSH2 0x17B7 DUP2 PUSH2 0x177E JUMP JUMPDEST SWAP1 POP SWAP2 SWAP1 POP JUMP JUMPDEST PUSH32 0x4B65696E2050726569732070726F204D6974737069656C657200000000000000 PUSH0 DUP3 ADD MSTORE POP JUMP JUMPDEST PUSH0 PUSH2 0x17F2 PUSH1 0x19 DUP4 PUSH2 0x14E8 JUMP JUMPDEST SWAP2 POP PUSH2 0x17FD DUP3 PUSH2 0x17BE JUMP JUMPDEST PUSH1 0x20 DUP3 ADD SWAP1 POP SWAP2 SWAP1 POP JUMP JUMPDEST PUSH0 PUSH1 0x20 DUP3 ADD SWAP1 POP DUP2 DUP2 SUB PUSH0 DUP4 ADD MSTORE PUSH2 0x181F DUP2 PUSH2 0x17E6 JUMP JUMPDEST SWAP1 POP SWAP2 SWAP1 POP JUMP JUMPDEST PUSH32 0x5A7520676572696E6765722045696E7A61686C756E6773626574726167000000 PUSH0 DUP3 ADD MSTORE POP JUMP JUMPDEST PUSH0 PUSH2 0x185A PUSH1 0x1D DUP4 PUSH2 0x14E8 JUMP JUMPDEST SWAP2 POP PUSH2 0x1865 DUP3 PUSH2 0x1826 JUMP JUMPDEST PUSH1 0x20 DUP3 ADD SWAP1 POP SWAP2 SWAP1 POP JUMP JUMPDEST PUSH0 PUSH1 0x20 DUP3 ADD SWAP1 POP DUP2 DUP2 SUB PUSH0 DUP4 ADD MSTORE PUSH2 0x1887 DUP2 PUSH2 0x184E JUMP JUMPDEST SWAP1 POP SWAP2 SWAP1 POP JUMP JUMPDEST PUSH32 0x4265726569747320616C73204D6974737069656C657220726567697374726965 PUSH0 DUP3 ADD MSTORE PUSH32 0x7274000000000000000000000000000000000000000000000000000000000000 PUSH1 0x20 DUP3 ADD MSTORE POP JUMP JUMPDEST PUSH0 PUSH2 0x18E8 PUSH1 0x22 DUP4 PUSH2 0x14E8 JUMP JUMPDEST SWAP2 POP PUSH2 0x18F3 DUP3 PUSH2 0x188E JUMP JUMPDEST PUSH1 0x40 DUP3 ADD SWAP1 POP SWAP2 SWAP1 POP JUMP JUMPDEST PUSH0 PUSH1 0x20 DUP3 ADD SWAP1 POP DUP2 DUP2 SUB PUSH0 DUP4 ADD MSTORE PUSH2 0x1915 DUP2 PUSH2 0x18DC JUMP JUMPDEST SWAP1 POP SWAP2 SWAP1 POP JUMP JUMPDEST PUSH32 0x4D6178696D616C65205465696C6E65686D65727A61686C206572726569636874 PUSH0 DUP3 ADD MSTORE POP JUMP JUMPDEST PUSH0 PUSH2 0x1950 PUSH1 0x20 DUP4 PUSH2 0x14E8 JUMP JUMPDEST SWAP2 POP PUSH2 0x195B DUP3 PUSH2 0x191C JUMP JUMPDEST PUSH1 0x20 DUP3 ADD SWAP1 POP SWAP2 SWAP1 POP JUMP JUMPDEST PUSH0 PUSH1 0x20 DUP3 ADD SWAP1 POP DUP2 DUP2 SUB PUSH0 DUP4 ADD MSTORE PUSH2 0x197D DUP2 PUSH2 0x1944 JUMP JUMPDEST SWAP1 POP SWAP2 SWAP1 POP JUMP JUMPDEST PUSH32 0x476577696E6E20777572646520626572656974732065696E67657A61686C7400 PUSH0 DUP3 ADD MSTORE POP JUMP JUMPDEST PUSH0 PUSH2 0x19B8 PUSH1 0x1F DUP4 PUSH2 0x14E8 JUMP JUMPDEST SWAP2 POP PUSH2 0x19C3 DUP3 PUSH2 0x1984 JUMP JUMPDEST PUSH1 0x20 DUP3 ADD SWAP1 POP SWAP2 SWAP1 POP JUMP JUMPDEST PUSH0 PUSH1 0x20 DUP3 ADD SWAP1 POP DUP2 DUP2 SUB PUSH0 DUP4 ADD MSTORE PUSH2 0x19E5 DUP2 PUSH2 0x19AC JUMP JUMPDEST SWAP1 POP SWAP2 SWAP1 POP JUMP JUMPDEST PUSH0 PUSH2 0x19F6 DUP3 PUSH2 0x139C JUMP JUMPDEST SWAP2 POP PUSH2 0x1A01 DUP4 PUSH2 0x139C JUMP JUMPDEST SWAP3 POP DUP3 DUP3 SUB SWAP1 POP DUP2 DUP2 GT ISZERO PUSH2 0x1A19 JUMPI PUSH2 0x1A18 PUSH2 0x16D3 JUMP JUMPDEST JUMPDEST SWAP3 SWAP2 POP POP JUMP JUMPDEST PUSH0 PUSH2 0x1A29 DUP3 PUSH2 0x139C JUMP JUMPDEST SWAP2 POP PUSH32 0xFFFFFFFFFFFFFFFFFFFFFFFFFFFFFFFFFFFFFFFFFFFFFFFFFFFFFFFFFFFFFFFF DUP3 SUB PUSH2 0x1A5B JUMPI PUSH2 0x1A5A PUSH2 0x16D3 JUMP JUMPDEST JUMPDEST PUSH1 0x1 DUP3 ADD SWAP1 POP SWAP2 SWAP1 POP JUMP JUMPDEST PUSH32 0x457320676962742062657265697473204D6974737069656C65722E2041656E64 PUSH0 DUP3 ADD MSTORE PUSH32 0x6572756E672064657220416E7A61686C20616E204D6974737069656C65726E20 PUSH1 0x20 DUP3 ADD MSTORE PUSH32 0x6E69636874206D656872206D6F65676C6963682E000000000000000000000000 PUSH1 0x40 DUP3 ADD MSTORE POP JUMP JUMPDEST PUSH0 PUSH2 0x1AE6 PUSH1 0x54 DUP4 PUSH2 0x14E8 JUMP JUMPDEST SWAP2 POP PUSH2 0x1AF1 DUP3 PUSH2 0x1A66 JUMP JUMPDEST PUSH1 0x60 DUP3 ADD SWAP1 POP SWAP2 SWAP1 POP JUMP JUMPDEST PUSH0 PUSH1 0x20 DUP3 ADD SWAP1 POP DUP2 DUP2 SUB PUSH0 DUP4 ADD MSTORE PUSH2 0x1B13 DUP2 PUSH2 0x1ADA JUMP JUMPDEST SWAP1 POP SWAP2 SWAP1 POP JUMP JUMPDEST PUSH32 0x4E6F2072652D656E7472616E6379000000000000000000000000000000000000 PUSH0 DUP3 ADD MSTORE POP JUMP JUMPDEST PUSH0 PUSH2 0x1B4E PUSH1 0xE DUP4 PUSH2 0x14E8 JUMP JUMPDEST SWAP2 POP PUSH2 0x1B59 DUP3 PUSH2 0x1B1A JUMP JUMPDEST PUSH1 0x20 DUP3 ADD SWAP1 POP SWAP2 SWAP1 POP JUMP JUMPDEST PUSH0 PUSH1 0x20 DUP3 ADD SWAP1 POP DUP2 DUP2 SUB PUSH0 DUP4 ADD MSTORE PUSH2 0x1B7B DUP2 PUSH2 0x1B42 JUMP JUMPDEST SWAP1 POP SWAP2 SWAP1 POP JUMP JUMPDEST PUSH32 0x476577696E6E206B616E6E206E6F6368206E696368742061626765686F6C7420 PUSH0 DUP3 ADD MSTORE PUSH32 0x77657264656E2E00000000000000000000000000000000000000000000000000 PUSH1 0x20 DUP3 ADD MSTORE POP JUMP JUMPDEST PUSH0 PUSH2 0x1BDC PUSH1 0x27 DUP4 PUSH2 0x14E8 JUMP JUMPDEST SWAP2 POP PUSH2 0x1BE7 DUP3 PUSH2 0x1B82 JUMP JUMPDEST PUSH1 0x40 DUP3 ADD SWAP1 POP SWAP2 SWAP1 POP JUMP JUMPDEST PUSH0 PUSH1 0x20 DUP3 ADD SWAP1 POP DUP2 DUP2 SUB PUSH0 DUP4 ADD MSTORE PUSH2 0x1C09 DUP2 PUSH2 0x1BD0 JUMP JUMPDEST SWAP1 POP SWAP2 SWAP1 POP JUMP JUMPDEST PUSH32 0x4B65696E20476577696E6E207A7572204175737A61686C756E67207665726675 PUSH0 DUP3 ADD MSTORE PUSH32 0x65676261722E0000000000000000000000000000000000000000000000000000 PUSH1 0x20 DUP3 ADD MSTORE POP JUMP JUMPDEST PUSH0 PUSH2 0x1C6A PUSH1 0x26 DUP4 PUSH2 0x14E8 JUMP JUMPDEST SWAP2 POP PUSH2 0x1C75 DUP3 PUSH2 0x1C10 JUMP JUMPDEST PUSH1 0x40 DUP3 ADD SWAP1 POP SWAP2 SWAP1 POP JUMP JUMPDEST PUSH0 PUSH1 0x20 DUP3 ADD SWAP1 POP DUP2 DUP2 SUB PUSH0 DUP4 ADD MSTORE PUSH2 0x1C97 DUP2 PUSH2 0x1C5E JUMP JUMPDEST SWAP1 POP SWAP2 SWAP1 POP JUMP JUMPDEST PUSH32 0x476577696E6E20777572646520626572656974732061626765686F6C742E0000 PUSH0 DUP3 ADD MSTORE POP JUMP JUMPDEST PUSH0 PUSH2 0x1CD2 PUSH1 0x1E DUP4 PUSH2 0x14E8 JUMP JUMPDEST SWAP2 POP PUSH2 0x1CDD DUP3 PUSH2 0x1C9E JUMP JUMPDEST PUSH1 0x20 DUP3 ADD SWAP1 POP SWAP2 SWAP1 POP JUMP JUMPDEST PUSH0 PUSH1 0x20 DUP3 ADD SWAP1 POP DUP2 DUP2 SUB PUSH0 DUP4 ADD MSTORE PUSH2 0x1CFF DUP2 PUSH2 0x1CC6 JUMP JUMPDEST SWAP1 POP SWAP2 SWAP1 POP JUMP JUMPDEST PUSH32 0x4E487B7100000000000000000000000000000000000000000000000000000000 PUSH0 MSTORE PUSH1 0x22 PUSH1 0x4 MSTORE PUSH1 0x24 PUSH0 REVERT JUMPDEST PUSH0 PUSH1 0x2 DUP3 DIV SWAP1 POP PUSH1 0x1 DUP3 AND DUP1 PUSH2 0x1D4A JUMPI PUSH1 0x7F DUP3 AND SWAP2 POP JUMPDEST PUSH1 0x20 DUP3 LT DUP2 SUB PUSH2 0x1D5D JUMPI PUSH2 0x1D5C PUSH2 0x1D06 JUMP JUMPDEST JUMPDEST POP SWAP2 SWAP1 POP JUMP JUMPDEST PUSH32 0x457320676962742062657265697473204D6974737069656C65722E2050726569 PUSH0 DUP3 ADD MSTORE PUSH32 0x7361656E646572756E67206E69636874206D656872206D6F65676C6963682E00 PUSH1 0x20 DUP3 ADD MSTORE POP JUMP JUMPDEST PUSH0 PUSH2 0x1DBD PUSH1 0x3F DUP4 PUSH2 0x14E8 JUMP JUMPDEST SWAP2 POP PUSH2 0x1DC8 DUP3 PUSH2 0x1D63 JUMP JUMPDEST PUSH1 0x40 DUP3 ADD SWAP1 POP SWAP2 SWAP1 POP JUMP JUMPDEST PUSH0 PUSH1 0x20 DUP3 ADD SWAP1 POP DUP2 DUP2 SUB PUSH0 DUP4 ADD MSTORE PUSH2 0x1DEA DUP2 PUSH2 0x1DB1 JUMP JUMPDEST SWAP1 POP SWAP2 SWAP1 POP JUMP JUMPDEST PUSH32 0x47656D65696E736368616674206D7573732061756667656C6F65737420736569 PUSH0 DUP3 ADD MSTORE PUSH32 0x6E2E000000000000000000000000000000000000000000000000000000000000 PUSH1 0x20 DUP3 ADD MSTORE POP JUMP JUMPDEST PUSH0 PUSH2 0x1E4B PUSH1 0x22 DUP4 PUSH2 0x14E8 JUMP JUMPDEST SWAP2 POP PUSH2 0x1E56 DUP3 PUSH2 0x1DF1 JUMP JUMPDEST PUSH1 0x40 DUP3 ADD SWAP1 POP SWAP2 SWAP1 POP JUMP JUMPDEST PUSH0 PUSH1 0x20 DUP3 ADD SWAP1 POP DUP2 DUP2 SUB PUSH0 DUP4 ADD MSTORE PUSH2 0x1E78 DUP2 PUSH2 0x1E3F JUMP JUMPDEST SWAP1 POP SWAP2 SWAP1 POP JUMP JUMPDEST PUSH32 0x45696E7361747A2077757264652062657265697473207A75727565636B67657A PUSH0 DUP3 ADD MSTORE PUSH32 0x61686C742E000000000000000000000000000000000000000000000000000000 PUSH1 0x20 DUP3 ADD MSTORE POP JUMP JUMPDEST PUSH0 PUSH2 0x1ED9 PUSH1 0x25 DUP4 PUSH2 0x14E8 JUMP JUMPDEST SWAP2 POP PUSH2 0x1EE4 DUP3 PUSH2 0x1E7F JUMP JUMPDEST PUSH1 0x40 DUP3 ADD SWAP1 POP SWAP2 SWAP1 POP JUMP JUMPDEST PUSH0 PUSH1 0x20 DUP3 ADD SWAP1 POP DUP2 DUP2 SUB PUSH0 DUP4 ADD MSTORE PUSH2 0x1F06 DUP2 PUSH2 0x1ECD JUMP JUMPDEST SWAP1 POP SWAP2 SWAP1 POP JUMP JUMPDEST PUSH0 DUP2 SWAP1 POP SWAP3 SWAP2 POP POP JUMP JUMPDEST POP JUMP JUMPDEST PUSH0 PUSH2 0x1F25 PUSH0 DUP4 PUSH2 0x1F0D JUMP JUMPDEST SWAP2 POP PUSH2 0x1F30 DUP3 PUSH2 0x1F17 JUMP JUMPDEST PUSH0 DUP3 ADD SWAP1 POP SWAP2 SWAP1 POP JUMP JUMPDEST PUSH0 PUSH2 0x1F44 DUP3 PUSH2 0x1F1A JUMP JUMPDEST SWAP2 POP DUP2 SWAP1 POP SWAP2 SWAP1 POP JUMP JUMPDEST PUSH32 0x527565636B7A61686C756E67206465732045696E7361747A6573206665686C67 PUSH0 DUP3 ADD MSTORE PUSH32 0x657363686C6167656E2E00000000000000000000000000000000000000000000 PUSH1 0x20 DUP3 ADD MSTORE POP JUMP JUMPDEST PUSH0 PUSH2 0x1FA8 PUSH1 0x2A DUP4 PUSH2 0x14E8 JUMP JUMPDEST SWAP2 POP PUSH2 0x1FB3 DUP3 PUSH2 0x1F4E JUMP JUMPDEST PUSH1 0x40 DUP3 ADD SWAP1 POP SWAP2 SWAP1 POP JUMP JUMPDEST PUSH0 PUSH1 0x20 DUP3 ADD SWAP1 POP DUP2 DUP2 SUB PUSH0 DUP4 ADD MSTORE PUSH2 0x1FD5 DUP2 PUSH2 0x1F9C JUMP JUMPDEST SWAP1 POP SWAP2 SWAP1 POP JUMP JUMPDEST PUSH32 0x476577696E6E206D757373206E6F63682061757367657A61686C742077657264 PUSH0 DUP3 ADD MSTORE PUSH32 0x656E000000000000000000000000000000000000000000000000000000000000 PUSH1 0x20 DUP3 ADD MSTORE POP JUMP JUMPDEST PUSH0 PUSH2 0x2036 PUSH1 0x22 DUP4 PUSH2 0x14E8 JUMP JUMPDEST SWAP2 POP PUSH2 0x2041 DUP3 PUSH2 0x1FDC JUMP JUMPDEST PUSH1 0x40 DUP3 ADD SWAP1 POP SWAP2 SWAP1 POP JUMP JUMPDEST PUSH0 PUSH1 0x20 DUP3 ADD SWAP1 POP DUP2 DUP2 SUB PUSH0 DUP4 ADD MSTORE PUSH2 0x2063 DUP2 PUSH2 0x202A JUMP JUMPDEST SWAP1 POP SWAP2 SWAP1 POP JUMP JUMPDEST PUSH32 0x47656D65696E73636861667420626572656974732061756667656C6F65737400 PUSH0 DUP3 ADD MSTORE POP JUMP JUMPDEST PUSH0 PUSH2 0x209E PUSH1 0x1F DUP4 PUSH2 0x14E8 JUMP JUMPDEST SWAP2 POP PUSH2 0x20A9 DUP3 PUSH2 0x206A JUMP JUMPDEST PUSH1 0x20 DUP3 ADD SWAP1 POP SWAP2 SWAP1 POP JUMP JUMPDEST PUSH0 PUSH1 0x20 DUP3 ADD SWAP1 POP DUP2 DUP2 SUB PUSH0 DUP4 ADD MSTORE PUSH2 0x20CB DUP2 PUSH2 0x2092 JUMP JUMPDEST SWAP1 POP SWAP2 SWAP1 POP JUMP INVALID LOG2 PUSH5 0x6970667358 0x22 SLT KECCAK256 PUSH11 0xB1438893F6938EBB04E085 DUP4 0xA8 0xBD 0xD7 0x27 SUB PUSH27 0xCCB79C366EA5933142F6CFE41C64736F6C63430008170033000000 "},"gasEstimates":{"creation":{"codeDepositCost":"1691200","executionCost":"infinite","totalCost":"infinite"},"external":{"anzahlMitspielerAendern(uint256)":"26936","anzahlTeilnehmerAktuell()":"2448","aufgeloest()":"2627","auszahlung()":"2449","einsatzZurueckGezahlt(address)":"2899","einsatzZurueckholen()":"infinite","erlaubteMitspielerAdresseHinzufuegen(address)":"29158","erlaubterMitspieler(address)":"2965","gemeinschaftAufloesen()":"31148","gewinnAbholen()":"infinite","gewinnAusgezahlt(address)":"2922","gewinnEinzahlen(uint256)":"infinite","gewinnKannAbgeholtWerden()":"2534","gewinnProMitspieler()":"2471","gruender()":"2527","maxTeilnehmerAnzahl()":"2536","mitmachen()":"infinite","mitspieler(address)":"2967","nurErlaubteMitspieler()":"2561","preisLottoschein()":"2470","preisLottoscheinAendern(uint256)":"26870","preisProMitspieler()":"2515","spielauftragsNummer()":"infinite","tippgemeinschaftsName()":"infinite"}},"methodIdentifiers":{"anzahlMitspielerAendern(uint256)":"822b8023","anzahlTeilnehmerAktuell()":"3babb15a","aufgeloest()":"e34ad1d7","auszahlung()":"084263f5","einsatzZurueckGezahlt(address)":"bb68a67f","einsatzZurueckholen()":"a299f171","erlaubteMitspielerAdresseHinzufuegen(address)":"43767832","erlaubterMitspieler(address)":"e86c5692","gemeinschaftAufloesen()":"ab76211e","gewinnAbholen()":"833e92cb","gewinnAusgezahlt(address)":"91243239","gewinnEinzahlen(uint256)":"311e73da","gewinnKannAbgeholtWerden()":"2340983f","gewinnProMitspieler()":"0f085e50","gruender()":"ad2c046c","maxTeilnehmerAnzahl()":"70a41bc0","mitmachen()":"526024ea","mitspieler(address)":"36927060","nurErlaubteMitspieler()":"b08c7076","preisLottoschein()":"3f0f5d51","preisLottoscheinAendern(uint256)":"8e5676fd","preisProMitspieler()":"2df368a5","spielauftragsNummer()":"8acb4624","tippgemeinschaftsName()":"d27d06c0"}},"storageLayout":{"storage":[{"astId":160,"contract":"Lottogemeinschaft.sol:Lottogemeinschaft","label":"gruender","offset":0,"slot":"0","type":"t_address"},{"astId":162,"contract":"Lottogemeinschaft.sol:Lottogemeinschaft","label":"tippgemeinschaftsName","offset":0,"slot":"1","type":"t_string_storage"},{"astId":164,"contract":"Lottogemeinschaft.sol:Lottogemeinschaft","label":"maxTeilnehmerAnzahl","offset":0,"slot":"2","type":"t_uint256"},{"astId":166,"contract":"Lottogemeinschaft.sol:Lottogemeinschaft","label":"preisLottoschein","offset":0,"slot":"3","type":"t_uint256"},{"astId":168,"contract":"Lottogemeinschaft.sol:Lottogemeinschaft","label":"preisProMitspieler","offset":0,"slot":"4","type":"t_uint256"},{"astId":170,"contract":"Lottogemeinschaft.sol:Lottogemeinschaft","label":"spielauftragsNummer","offset":0,"slot":"5","type":"t_string_storage"},{"astId":172,"contract":"Lottogemeinschaft.sol:Lottogemeinschaft","label":"auszahlung","offset":0,"slot":"6","type":"t_uint256"},{"astId":176,"contract":"Lottogemeinschaft.sol:Lottogemeinschaft","label":"mitspieler","offset":0,"slot":"7","type":"t_mapping(t_address,t_bool)"},{"astId":180,"contract":"Lottogemeinschaft.sol:Lottogemeinschaft","label":"gewinnAusgezahlt","offset":0,"slot":"8","type":"t_mapping(t_address,t_bool)"},{"astId":184,"contract":"Lottogemeinschaft.sol:Lottogemeinschaft","label":"einsatzZurueckGezahlt","offset":0,"slot":"9","type":"t_mapping(t_address,t_bool)"},{"astId":186,"contract":"Lottogemeinschaft.sol:Lottogemeinschaft","label":"anzahlTeilnehmerAktuell","offset":0,"slot":"10","type":"t_uint256"},{"astId":189,"contract":"Lottogemeinschaft.sol:Lottogemeinschaft","label":"gewinnProMitspieler","offset":0,"slot":"11","type":"t_uint256"},{"astId":192,"contract":"Lottogemeinschaft.sol:Lottogemeinschaft","label":"gewinnKannAbgeholtWerden","offset":0,"slot":"12","type":"t_bool"},{"astId":195,"contract":"Lottogemeinschaft.sol:Lottogemeinschaft","label":"nurErlaubteMitspieler","offset":1,"slot":"12","type":"t_bool"},{"astId":199,"contract":"Lottogemeinschaft.sol:Lottogemeinschaft","label":"erlaubterMitspieler","offset":0,"slot":"13","type":"t_mapping(t_address,t_bool)"},{"astId":201,"contract":"Lottogemeinschaft.sol:Lottogemeinschaft","label":"locked","offset":0,"slot":"14","type":"t_bool"},{"astId":203,"contract":"Lottogemeinschaft.sol:Lottogemeinschaft","label":"aufgeloest","offset":1,"slot":"14","type":"t_bool"}],"types":{"t_address":{"encoding":"inplace","label":"address","numberOfBytes":"20"},"t_bool":{"encoding":"inplace","label":"bool","numberOfBytes":"1"},"t_mapping(t_address,t_bool)":{"encoding":"mapping","key":"t_address","label":"mapping(address => bool)","numberOfBytes":"32","value":"t_bool"},"t_string_storage":{"encoding":"bytes","label":"string","numberOfBytes":"32"},"t_uint256":{"encoding":"inplace","label":"uint256","numberOfBytes":"32"}}},"userdoc":{"kind":"user","methods":{},"version":1}}