{"abi":[{"inputs":[{"internalType":"string","name":"name","type":"string"},{"internalType":"address","name":"ersteller","type":"address"},{"internalType":"uint16","name":"anzahl","type":"uint16"},{"internalType":"uint96","name":"preis","type":"uint96"},{"internalType":"string","name":"scheinNummer","type":"string"},{"internalType":"bool","name":"mitspielerBestimmen","type":"bool"}],"stateMutability":"nonpayable","type":"constructor"},{"inputs":[{"internalType":"uint16","name":"neueAnzahlMaxTeilnehmer","type":"uint16"}],"name":"anzahlMitspielerAendern","outputs":[],"stateMutability":"nonpayable","type":"function"},{"inputs":[],"name":"anzahlTeilnehmerAktuell","outputs":[{"internalType":"uint16","name":"","type":"uint16"}],"stateMutability":"view","type":"function"},{"inputs":[],"name":"aufgeloest","outputs":[{"internalType":"bool","name":"","type":"bool"}],"stateMutability":"view","type":"function"},{"inputs":[],"name":"auszahlung","outputs":[{"internalType":"uint96","name":"","type":"uint96"}],"stateMutability":"view","type":"function"},{"inputs":[],"name":"einsatzAbholen","outputs":[],"stateMutability":"payable","type":"function"},{"inputs":[{"internalType":"address","name":"","type":"address"}],"name":"einsatzZurueckGezahlt","outputs":[{"internalType":"bool","name":"","type":"bool"}],"stateMutability":"view","type":"function"},{"inputs":[],"name":"einsatzZurueckholen","outputs":[],"stateMutability":"payable","type":"function"},{"inputs":[{"internalType":"address","name":"_erlaubterMitspieler","type":"address"}],"name":"erlaubteMitspielerAdresseHinzufuegen","outputs":[],"stateMutability":"nonpayable","type":"function"},{"inputs":[{"internalType":"address","name":"","type":"address"}],"name":"erlaubterMitspieler","outputs":[{"internalType":"bool","name":"","type":"bool"}],"stateMutability":"view","type":"function"},{"inputs":[],"name":"gemeinschaftAufloesen","outputs":[],"stateMutability":"nonpayable","type":"function"},{"inputs":[],"name":"gewinnAbholen","outputs":[],"stateMutability":"nonpayable","type":"function"},{"inputs":[{"internalType":"address","name":"","type":"address"}],"name":"gewinnAusgezahlt","outputs":[{"internalType":"bool","name":"","type":"bool"}],"stateMutability":"view","type":"function"},{"inputs":[{"internalType":"uint48","name":"gewinn","type":"uint48"}],"name":"gewinnEinzahlen","outputs":[],"stateMutability":"payable","type":"function"},{"inputs":[],"name":"gewinnKannAbgeholtWerden","outputs":[{"internalType":"bool","name":"","type":"bool"}],"stateMutability":"view","type":"function"},{"inputs":[],"name":"gewinnProMitspieler","outputs":[{"internalType":"uint48","name":"","type":"uint48"}],"stateMutability":"view","type":"function"},{"inputs":[],"name":"gruender","outputs":[{"internalType":"address","name":"","type":"address"}],"stateMutability":"view","type":"function"},{"inputs":[],"name":"maxTeilnehmerAnzahl","outputs":[{"internalType":"uint16","name":"","type":"uint16"}],"stateMutability":"view","type":"function"},{"inputs":[],"name":"mitmachen","outputs":[],"stateMutability":"payable","type":"function"},{"inputs":[{"internalType":"address","name":"","type":"address"}],"name":"mitspieler","outputs":[{"internalType":"bool","name":"","type":"bool"}],"stateMutability":"view","type":"function"},{"inputs":[],"name":"nurErlaubteMitspieler","outputs":[{"internalType":"bool","name":"","type":"bool"}],"stateMutability":"view","type":"function"},{"inputs":[],"name":"preisLottoschein","outputs":[{"internalType":"uint96","name":"","type":"uint96"}],"stateMutability":"view","type":"function"},{"inputs":[{"internalType":"uint32","name":"neuerPreis","type":"uint32"}],"name":"preisLottoscheinAendern","outputs":[],"stateMutability":"nonpayable","type":"function"},{"inputs":[],"name":"preisProMitspieler","outputs":[{"internalType":"uint96","name":"","type":"uint96"}],"stateMutability":"view","type":"function"},{"inputs":[],"name":"spielauftragsNummer","outputs":[{"internalType":"string","name":"","type":"string"}],"stateMutability":"view","type":"function"},{"inputs":[],"name":"tippgemeinschaftsName","outputs":[{"internalType":"string","name":"","type":"string"}],"stateMutability":"view","type":"function"}],"devdoc":{"kind":"dev","methods":{},"version":1},"evm":{"assembly":"    /* \"Lottogemeinschaft.sol\":1747:7718  contract Lottogemeinschaft {... */\n  mstore(0x40, 0x80)\n    /* \"Lottogemeinschaft.sol\":2273:2274  0 */\n  0x00\n    /* \"Lottogemeinschaft.sol\":2237:2274  uint48 public gewinnProMitspieler = 0 */\n  0x08\n  exp(0x0100, 0x02)\n  dup2\n  sload\n  dup2\n  0xffffffffffff\n  mul\n  not\n  and\n  swap1\n  dup4\n  0xffffffffffff\n  and\n  mul\n  or\n  swap1\n  sstore\n  pop\n    /* \"Lottogemeinschaft.sol\":2317:2322  false */\n  0x00\n    /* \"Lottogemeinschaft.sol\":2280:2322  bool public gewinnKannAbgeholtWerden=false */\n  0x08\n  dup1\n  0x0100\n  exp\n  dup2\n  sload\n  dup2\n  0xff\n  mul\n  not\n  and\n  swap1\n  dup4\n  iszero\n  iszero\n  mul\n  or\n  swap1\n  sstore\n  pop\n    /* \"Lottogemeinschaft.sol\":2362:2367  false */\n  0x00\n    /* \"Lottogemeinschaft.sol\":2328:2367  bool public nurErlaubteMitspieler=false */\n  0x08\n  exp(0x0100, 0x09)\n  dup2\n  sload\n  dup2\n  0xff\n  mul\n  not\n  and\n  swap1\n  dup4\n  iszero\n  iszero\n  mul\n  or\n  swap1\n  sstore\n  pop\n    /* \"Lottogemeinschaft.sol\":2484:3166  constructor (string memory name, address ersteller, uint16 anzahl, uint96 preis, string memory scheinNummer, bool mitspielerBestimmen) {... */\n  callvalue\n  dup1\n  iszero\n  tag_1\n  jumpi\n  0x00\n  dup1\n  revert\ntag_1:\n  pop\n  mload(0x40)\n  sub(codesize, bytecodeSize)\n  dup1\n  bytecodeSize\n  dup4\n  codecopy\n  dup2\n  dup2\n  add\n  0x40\n  mstore\n  dup2\n  add\n  swap1\n  tag_2\n  swap2\n  swap1\n  tag_3\n  jump\t// in\ntag_2:\n    /* \"Lottogemeinschaft.sol\":2646:2651  65535 */\n  0xffff\n    /* \"Lottogemeinschaft.sol\":2637:2643  anzahl */\n  dup5\n    /* \"Lottogemeinschaft.sol\":2637:2651  anzahl < 65535 */\n  0xffff\n  and\n  lt\n    /* \"Lottogemeinschaft.sol\":2629:2688  require(anzahl < 65535, \"Maximal 65534 Mitspieler erlaubt\") */\n  tag_6\n  jumpi\n  mload(0x40)\n  0x08c379a000000000000000000000000000000000000000000000000000000000\n  dup2\n  mstore\n  0x04\n  add\n  tag_7\n  swap1\n  tag_8\n  jump\t// in\ntag_7:\n  mload(0x40)\n  dup1\n  swap2\n  sub\n  swap1\n  revert\ntag_6:\n    /* \"Lottogemeinschaft.sol\":2714:2743  79228162514264337593543950335 */\n  0xffffffffffffffffffffffff\n    /* \"Lottogemeinschaft.sol\":2706:2711  preis */\n  dup4\n    /* \"Lottogemeinschaft.sol\":2706:2743  preis < 79228162514264337593543950335 */\n  0xffffffffffffffffffffffff\n  and\n  lt\n    /* \"Lottogemeinschaft.sol\":2698:2793  require(preis < 79228162514264337593543950335, \"Maximaler Preis 79228162514264337593543950335\") */\n  tag_9\n  jumpi\n  mload(0x40)\n  0x08c379a000000000000000000000000000000000000000000000000000000000\n  dup2\n  mstore\n  0x04\n  add\n  tag_10\n  swap1\n  tag_11\n  jump\t// in\ntag_10:\n  mload(0x40)\n  dup1\n  swap2\n  sub\n  swap1\n  revert\ntag_9:\n    /* \"Lottogemeinschaft.sol\":2814:2823  ersteller */\n  dup5\n    /* \"Lottogemeinschaft.sol\":2803:2811  gruender */\n  0x00\n  dup1\n    /* \"Lottogemeinschaft.sol\":2803:2823  gruender = ersteller */\n  0x0100\n  exp\n  dup2\n  sload\n  dup2\n  0xffffffffffffffffffffffffffffffffffffffff\n  mul\n  not\n  and\n  swap1\n  dup4\n  0xffffffffffffffffffffffffffffffffffffffff\n  and\n  mul\n  or\n  swap1\n  sstore\n  pop\n    /* \"Lottogemeinschaft.sol\":2857:2861  name */\n  dup6\n    /* \"Lottogemeinschaft.sol\":2833:2854  tippgemeinschaftsName */\n  0x01\n    /* \"Lottogemeinschaft.sol\":2833:2861  tippgemeinschaftsName = name */\n  swap1\n  dup2\n  tag_12\n  swap2\n  swap1\n  tag_13\n  jump\t// in\ntag_12:\n  pop\n    /* \"Lottogemeinschaft.sol\":2893:2899  anzahl */\n  dup4\n    /* \"Lottogemeinschaft.sol\":2871:2890  maxTeilnehmerAnzahl */\n  0x02\n  0x00\n    /* \"Lottogemeinschaft.sol\":2871:2899  maxTeilnehmerAnzahl = anzahl */\n  0x0100\n  exp\n  dup2\n  sload\n  dup2\n  0xffff\n  mul\n  not\n  and\n  swap1\n  dup4\n  0xffff\n  and\n  mul\n  or\n  swap1\n  sstore\n  pop\n    /* \"Lottogemeinschaft.sol\":2928:2933  preis */\n  dup3\n    /* \"Lottogemeinschaft.sol\":2909:2925  preisLottoschein */\n  0x02\n  dup1\n    /* \"Lottogemeinschaft.sol\":2909:2933  preisLottoschein = preis */\n  0x0100\n  exp\n  dup2\n  sload\n  dup2\n  0xffffffffffffffffffffffff\n  mul\n  not\n  and\n  swap1\n  dup4\n  0xffffffffffffffffffffffff\n  and\n  mul\n  or\n  swap1\n  sstore\n  pop\n    /* \"Lottogemeinschaft.sol\":2967:2986  mitspielerBestimmen */\n  dup1\n    /* \"Lottogemeinschaft.sol\":2943:2964  nurErlaubteMitspieler */\n  0x08\n  0x09\n    /* \"Lottogemeinschaft.sol\":2943:2986  nurErlaubteMitspieler = mitspielerBestimmen */\n  0x0100\n  exp\n  dup2\n  sload\n  dup2\n  0xff\n  mul\n  not\n  and\n  swap1\n  dup4\n  iszero\n  iszero\n  mul\n  or\n  swap1\n  sstore\n  pop\n    /* \"Lottogemeinschaft.sol\":3018:3030  scheinNummer */\n  dup2\n    /* \"Lottogemeinschaft.sol\":2996:3015  spielauftragsNummer */\n  0x03\n    /* \"Lottogemeinschaft.sol\":2996:3030  spielauftragsNummer = scheinNummer */\n  swap1\n  dup2\n  tag_14\n  swap2\n  swap1\n  tag_13\n  jump\t// in\ntag_14:\n  pop\n    /* \"Lottogemeinschaft.sol\":3125:3129  1e18 */\n  0x0de0b6b3a7640000\n    /* \"Lottogemeinschaft.sol\":3103:3122  maxTeilnehmerAnzahl */\n  0x02\n  0x00\n  swap1\n  sload\n  swap1\n  0x0100\n  exp\n  swap1\n  div\n  0xffff\n  and\n    /* \"Lottogemeinschaft.sol\":3068:3122  uint256(preisLottoschein) * 1e18 / maxTeilnehmerAnzahl */\n  0xffff\n  and\n    /* \"Lottogemeinschaft.sol\":3096:3100  1e18 */\n  0x0de0b6b3a7640000\n    /* \"Lottogemeinschaft.sol\":3076:3092  preisLottoschein */\n  0x02\n  dup1\n  sload\n  swap1\n  0x0100\n  exp\n  swap1\n  div\n  0xffffffffffffffffffffffff\n  and\n    /* \"Lottogemeinschaft.sol\":3068:3093  uint256(preisLottoschein) */\n  0xffffffffffffffffffffffff\n  and\n    /* \"Lottogemeinschaft.sol\":3068:3100  uint256(preisLottoschein) * 1e18 */\n  tag_15\n  swap2\n  swap1\n  tag_16\n  jump\t// in\ntag_15:\n    /* \"Lottogemeinschaft.sol\":3068:3122  uint256(preisLottoschein) * 1e18 / maxTeilnehmerAnzahl */\n  tag_17\n  swap2\n  swap1\n  tag_18\n  jump\t// in\ntag_17:\n    /* \"Lottogemeinschaft.sol\":3068:3129  uint256(preisLottoschein) * 1e18 / maxTeilnehmerAnzahl / 1e18 */\n  tag_19\n  swap2\n  swap1\n  tag_18\n  jump\t// in\ntag_19:\n    /* \"Lottogemeinschaft.sol\":3040:3058  preisProMitspieler */\n  0x02\n  0x0e\n    /* \"Lottogemeinschaft.sol\":3040:3130  preisProMitspieler = uint96(uint256(preisLottoschein) * 1e18 / maxTeilnehmerAnzahl / 1e18) */\n  0x0100\n  exp\n  dup2\n  sload\n  dup2\n  0xffffffffffffffffffffffff\n  mul\n  not\n  and\n  swap1\n  dup4\n  0xffffffffffffffffffffffff\n  and\n  mul\n  or\n  swap1\n  sstore\n  pop\n    /* \"Lottogemeinschaft.sol\":2484:3166  constructor (string memory name, address ersteller, uint16 anzahl, uint96 preis, string memory scheinNummer, bool mitspielerBestimmen) {... */\n  pop\n  pop\n  pop\n  pop\n  pop\n  pop\n    /* \"Lottogemeinschaft.sol\":1747:7718  contract Lottogemeinschaft {... */\n  jump(tag_20)\n    /* \"#utility.yul\":7:82   */\ntag_21:\n    /* \"#utility.yul\":40:46   */\n  0x00\n    /* \"#utility.yul\":73:75   */\n  0x40\n    /* \"#utility.yul\":67:76   */\n  mload\n    /* \"#utility.yul\":57:76   */\n  swap1\n  pop\n    /* \"#utility.yul\":7:82   */\n  swap1\n  jump\t// out\n    /* \"#utility.yul\":88:205   */\ntag_22:\n    /* \"#utility.yul\":197:198   */\n  0x00\n    /* \"#utility.yul\":194:195   */\n  dup1\n    /* \"#utility.yul\":187:199   */\n  revert\n    /* \"#utility.yul\":211:328   */\ntag_23:\n    /* \"#utility.yul\":320:321   */\n  0x00\n    /* \"#utility.yul\":317:318   */\n  dup1\n    /* \"#utility.yul\":310:322   */\n  revert\n    /* \"#utility.yul\":334:451   */\ntag_24:\n    /* \"#utility.yul\":443:444   */\n  0x00\n    /* \"#utility.yul\":440:441   */\n  dup1\n    /* \"#utility.yul\":433:445   */\n  revert\n    /* \"#utility.yul\":457:574   */\ntag_25:\n    /* \"#utility.yul\":566:567   */\n  0x00\n    /* \"#utility.yul\":563:564   */\n  dup1\n    /* \"#utility.yul\":556:568   */\n  revert\n    /* \"#utility.yul\":580:682   */\ntag_26:\n    /* \"#utility.yul\":621:627   */\n  0x00\n    /* \"#utility.yul\":672:674   */\n  0x1f\n    /* \"#utility.yul\":668:675   */\n  not\n    /* \"#utility.yul\":663:665   */\n  0x1f\n    /* \"#utility.yul\":656:661   */\n  dup4\n    /* \"#utility.yul\":652:666   */\n  add\n    /* \"#utility.yul\":648:676   */\n  and\n    /* \"#utility.yul\":638:676   */\n  swap1\n  pop\n    /* \"#utility.yul\":580:682   */\n  swap2\n  swap1\n  pop\n  jump\t// out\n    /* \"#utility.yul\":688:868   */\ntag_27:\n    /* \"#utility.yul\":736:813   */\n  0x4e487b7100000000000000000000000000000000000000000000000000000000\n    /* \"#utility.yul\":733:734   */\n  0x00\n    /* \"#utility.yul\":726:814   */\n  mstore\n    /* \"#utility.yul\":833:837   */\n  0x41\n    /* \"#utility.yul\":830:831   */\n  0x04\n    /* \"#utility.yul\":823:838   */\n  mstore\n    /* \"#utility.yul\":857:861   */\n  0x24\n    /* \"#utility.yul\":854:855   */\n  0x00\n    /* \"#utility.yul\":847:862   */\n  revert\n    /* \"#utility.yul\":874:1155   */\ntag_28:\n    /* \"#utility.yul\":957:984   */\n  tag_82\n    /* \"#utility.yul\":979:983   */\n  dup3\n    /* \"#utility.yul\":957:984   */\n  tag_26\n  jump\t// in\ntag_82:\n    /* \"#utility.yul\":949:955   */\n  dup2\n    /* \"#utility.yul\":945:985   */\n  add\n    /* \"#utility.yul\":1087:1093   */\n  dup2\n    /* \"#utility.yul\":1075:1085   */\n  dup2\n    /* \"#utility.yul\":1072:1094   */\n  lt\n    /* \"#utility.yul\":1051:1069   */\n  0xffffffffffffffff\n    /* \"#utility.yul\":1039:1049   */\n  dup3\n    /* \"#utility.yul\":1036:1070   */\n  gt\n    /* \"#utility.yul\":1033:1095   */\n  or\n    /* \"#utility.yul\":1030:1118   */\n  iszero\n  tag_83\n  jumpi\n    /* \"#utility.yul\":1098:1116   */\n  tag_84\n  tag_27\n  jump\t// in\ntag_84:\n    /* \"#utility.yul\":1030:1118   */\ntag_83:\n    /* \"#utility.yul\":1138:1148   */\n  dup1\n    /* \"#utility.yul\":1134:1136   */\n  0x40\n    /* \"#utility.yul\":1127:1149   */\n  mstore\n    /* \"#utility.yul\":917:1155   */\n  pop\n    /* \"#utility.yul\":874:1155   */\n  pop\n  pop\n  jump\t// out\n    /* \"#utility.yul\":1161:1290   */\ntag_29:\n    /* \"#utility.yul\":1195:1201   */\n  0x00\n    /* \"#utility.yul\":1222:1242   */\n  tag_86\n  tag_21\n  jump\t// in\ntag_86:\n    /* \"#utility.yul\":1212:1242   */\n  swap1\n  pop\n    /* \"#utility.yul\":1251:1284   */\n  tag_87\n    /* \"#utility.yul\":1279:1283   */\n  dup3\n    /* \"#utility.yul\":1271:1277   */\n  dup3\n    /* \"#utility.yul\":1251:1284   */\n  tag_28\n  jump\t// in\ntag_87:\n    /* \"#utility.yul\":1161:1290   */\n  swap2\n  swap1\n  pop\n  jump\t// out\n    /* \"#utility.yul\":1296:1604   */\ntag_30:\n    /* \"#utility.yul\":1358:1362   */\n  0x00\n    /* \"#utility.yul\":1448:1466   */\n  0xffffffffffffffff\n    /* \"#utility.yul\":1440:1446   */\n  dup3\n    /* \"#utility.yul\":1437:1467   */\n  gt\n    /* \"#utility.yul\":1434:1490   */\n  iszero\n  tag_89\n  jumpi\n    /* \"#utility.yul\":1470:1488   */\n  tag_90\n  tag_27\n  jump\t// in\ntag_90:\n    /* \"#utility.yul\":1434:1490   */\ntag_89:\n    /* \"#utility.yul\":1508:1537   */\n  tag_91\n    /* \"#utility.yul\":1530:1536   */\n  dup3\n    /* \"#utility.yul\":1508:1537   */\n  tag_26\n  jump\t// in\ntag_91:\n    /* \"#utility.yul\":1500:1537   */\n  swap1\n  pop\n    /* \"#utility.yul\":1592:1596   */\n  0x20\n    /* \"#utility.yul\":1586:1590   */\n  dup2\n    /* \"#utility.yul\":1582:1597   */\n  add\n    /* \"#utility.yul\":1574:1597   */\n  swap1\n  pop\n    /* \"#utility.yul\":1296:1604   */\n  swap2\n  swap1\n  pop\n  jump\t// out\n    /* \"#utility.yul\":1610:1856   */\ntag_31:\n    /* \"#utility.yul\":1691:1692   */\n  0x00\n    /* \"#utility.yul\":1701:1814   */\ntag_93:\n    /* \"#utility.yul\":1715:1721   */\n  dup4\n    /* \"#utility.yul\":1712:1713   */\n  dup2\n    /* \"#utility.yul\":1709:1722   */\n  lt\n    /* \"#utility.yul\":1701:1814   */\n  iszero\n  tag_95\n  jumpi\n    /* \"#utility.yul\":1800:1801   */\n  dup1\n    /* \"#utility.yul\":1795:1798   */\n  dup3\n    /* \"#utility.yul\":1791:1802   */\n  add\n    /* \"#utility.yul\":1785:1803   */\n  mload\n    /* \"#utility.yul\":1781:1782   */\n  dup2\n    /* \"#utility.yul\":1776:1779   */\n  dup5\n    /* \"#utility.yul\":1772:1783   */\n  add\n    /* \"#utility.yul\":1765:1804   */\n  mstore\n    /* \"#utility.yul\":1737:1739   */\n  0x20\n    /* \"#utility.yul\":1734:1735   */\n  dup2\n    /* \"#utility.yul\":1730:1740   */\n  add\n    /* \"#utility.yul\":1725:1740   */\n  swap1\n  pop\n    /* \"#utility.yul\":1701:1814   */\n  jump(tag_93)\ntag_95:\n    /* \"#utility.yul\":1848:1849   */\n  0x00\n    /* \"#utility.yul\":1839:1845   */\n  dup5\n    /* \"#utility.yul\":1834:1837   */\n  dup5\n    /* \"#utility.yul\":1830:1846   */\n  add\n    /* \"#utility.yul\":1823:1850   */\n  mstore\n    /* \"#utility.yul\":1672:1856   */\n  pop\n    /* \"#utility.yul\":1610:1856   */\n  pop\n  pop\n  pop\n  jump\t// out\n    /* \"#utility.yul\":1862:2296   */\ntag_32:\n    /* \"#utility.yul\":1951:1956   */\n  0x00\n    /* \"#utility.yul\":1976:2042   */\n  tag_97\n    /* \"#utility.yul\":1992:2041   */\n  tag_98\n    /* \"#utility.yul\":2034:2040   */\n  dup5\n    /* \"#utility.yul\":1992:2041   */\n  tag_30\n  jump\t// in\ntag_98:\n    /* \"#utility.yul\":1976:2042   */\n  tag_29\n  jump\t// in\ntag_97:\n    /* \"#utility.yul\":1967:2042   */\n  swap1\n  pop\n    /* \"#utility.yul\":2065:2071   */\n  dup3\n    /* \"#utility.yul\":2058:2063   */\n  dup2\n    /* \"#utility.yul\":2051:2072   */\n  mstore\n    /* \"#utility.yul\":2103:2107   */\n  0x20\n    /* \"#utility.yul\":2096:2101   */\n  dup2\n    /* \"#utility.yul\":2092:2108   */\n  add\n    /* \"#utility.yul\":2141:2144   */\n  dup5\n    /* \"#utility.yul\":2132:2138   */\n  dup5\n    /* \"#utility.yul\":2127:2130   */\n  dup5\n    /* \"#utility.yul\":2123:2139   */\n  add\n    /* \"#utility.yul\":2120:2145   */\n  gt\n    /* \"#utility.yul\":2117:2229   */\n  iszero\n  tag_99\n  jumpi\n    /* \"#utility.yul\":2148:2227   */\n  tag_100\n  tag_25\n  jump\t// in\ntag_100:\n    /* \"#utility.yul\":2117:2229   */\ntag_99:\n    /* \"#utility.yul\":2238:2290   */\n  tag_101\n    /* \"#utility.yul\":2283:2289   */\n  dup5\n    /* \"#utility.yul\":2278:2281   */\n  dup3\n    /* \"#utility.yul\":2273:2276   */\n  dup6\n    /* \"#utility.yul\":2238:2290   */\n  tag_31\n  jump\t// in\ntag_101:\n    /* \"#utility.yul\":1957:2296   */\n  pop\n    /* \"#utility.yul\":1862:2296   */\n  swap4\n  swap3\n  pop\n  pop\n  pop\n  jump\t// out\n    /* \"#utility.yul\":2316:2671   */\ntag_33:\n    /* \"#utility.yul\":2383:2388   */\n  0x00\n    /* \"#utility.yul\":2432:2435   */\n  dup3\n    /* \"#utility.yul\":2425:2429   */\n  0x1f\n    /* \"#utility.yul\":2417:2423   */\n  dup4\n    /* \"#utility.yul\":2413:2430   */\n  add\n    /* \"#utility.yul\":2409:2436   */\n  slt\n    /* \"#utility.yul\":2399:2521   */\n  tag_103\n  jumpi\n    /* \"#utility.yul\":2440:2519   */\n  tag_104\n  tag_24\n  jump\t// in\ntag_104:\n    /* \"#utility.yul\":2399:2521   */\ntag_103:\n    /* \"#utility.yul\":2550:2556   */\n  dup2\n    /* \"#utility.yul\":2544:2557   */\n  mload\n    /* \"#utility.yul\":2575:2665   */\n  tag_105\n    /* \"#utility.yul\":2661:2664   */\n  dup5\n    /* \"#utility.yul\":2653:2659   */\n  dup3\n    /* \"#utility.yul\":2646:2650   */\n  0x20\n    /* \"#utility.yul\":2638:2644   */\n  dup7\n    /* \"#utility.yul\":2634:2651   */\n  add\n    /* \"#utility.yul\":2575:2665   */\n  tag_32\n  jump\t// in\ntag_105:\n    /* \"#utility.yul\":2566:2665   */\n  swap2\n  pop\n    /* \"#utility.yul\":2389:2671   */\n  pop\n    /* \"#utility.yul\":2316:2671   */\n  swap3\n  swap2\n  pop\n  pop\n  jump\t// out\n    /* \"#utility.yul\":2677:2803   */\ntag_34:\n    /* \"#utility.yul\":2714:2721   */\n  0x00\n    /* \"#utility.yul\":2754:2796   */\n  0xffffffffffffffffffffffffffffffffffffffff\n    /* \"#utility.yul\":2747:2752   */\n  dup3\n    /* \"#utility.yul\":2743:2797   */\n  and\n    /* \"#utility.yul\":2732:2797   */\n  swap1\n  pop\n    /* \"#utility.yul\":2677:2803   */\n  swap2\n  swap1\n  pop\n  jump\t// out\n    /* \"#utility.yul\":2809:2905   */\ntag_35:\n    /* \"#utility.yul\":2846:2853   */\n  0x00\n    /* \"#utility.yul\":2875:2899   */\n  tag_108\n    /* \"#utility.yul\":2893:2898   */\n  dup3\n    /* \"#utility.yul\":2875:2899   */\n  tag_34\n  jump\t// in\ntag_108:\n    /* \"#utility.yul\":2864:2899   */\n  swap1\n  pop\n    /* \"#utility.yul\":2809:2905   */\n  swap2\n  swap1\n  pop\n  jump\t// out\n    /* \"#utility.yul\":2911:3033   */\ntag_36:\n    /* \"#utility.yul\":2984:3008   */\n  tag_110\n    /* \"#utility.yul\":3002:3007   */\n  dup2\n    /* \"#utility.yul\":2984:3008   */\n  tag_35\n  jump\t// in\ntag_110:\n    /* \"#utility.yul\":2977:2982   */\n  dup2\n    /* \"#utility.yul\":2974:3009   */\n  eq\n    /* \"#utility.yul\":2964:3027   */\n  tag_111\n  jumpi\n    /* \"#utility.yul\":3023:3024   */\n  0x00\n    /* \"#utility.yul\":3020:3021   */\n  dup1\n    /* \"#utility.yul\":3013:3025   */\n  revert\n    /* \"#utility.yul\":2964:3027   */\ntag_111:\n    /* \"#utility.yul\":2911:3033   */\n  pop\n  jump\t// out\n    /* \"#utility.yul\":3039:3182   */\ntag_37:\n    /* \"#utility.yul\":3096:3101   */\n  0x00\n    /* \"#utility.yul\":3127:3133   */\n  dup2\n    /* \"#utility.yul\":3121:3134   */\n  mload\n    /* \"#utility.yul\":3112:3134   */\n  swap1\n  pop\n    /* \"#utility.yul\":3143:3176   */\n  tag_113\n    /* \"#utility.yul\":3170:3175   */\n  dup2\n    /* \"#utility.yul\":3143:3176   */\n  tag_36\n  jump\t// in\ntag_113:\n    /* \"#utility.yul\":3039:3182   */\n  swap3\n  swap2\n  pop\n  pop\n  jump\t// out\n    /* \"#utility.yul\":3188:3277   */\ntag_38:\n    /* \"#utility.yul\":3224:3231   */\n  0x00\n    /* \"#utility.yul\":3264:3270   */\n  0xffff\n    /* \"#utility.yul\":3257:3262   */\n  dup3\n    /* \"#utility.yul\":3253:3271   */\n  and\n    /* \"#utility.yul\":3242:3271   */\n  swap1\n  pop\n    /* \"#utility.yul\":3188:3277   */\n  swap2\n  swap1\n  pop\n  jump\t// out\n    /* \"#utility.yul\":3283:3403   */\ntag_39:\n    /* \"#utility.yul\":3355:3378   */\n  tag_116\n    /* \"#utility.yul\":3372:3377   */\n  dup2\n    /* \"#utility.yul\":3355:3378   */\n  tag_38\n  jump\t// in\ntag_116:\n    /* \"#utility.yul\":3348:3353   */\n  dup2\n    /* \"#utility.yul\":3345:3379   */\n  eq\n    /* \"#utility.yul\":3335:3397   */\n  tag_117\n  jumpi\n    /* \"#utility.yul\":3393:3394   */\n  0x00\n    /* \"#utility.yul\":3390:3391   */\n  dup1\n    /* \"#utility.yul\":3383:3395   */\n  revert\n    /* \"#utility.yul\":3335:3397   */\ntag_117:\n    /* \"#utility.yul\":3283:3403   */\n  pop\n  jump\t// out\n    /* \"#utility.yul\":3409:3550   */\ntag_40:\n    /* \"#utility.yul\":3465:3470   */\n  0x00\n    /* \"#utility.yul\":3496:3502   */\n  dup2\n    /* \"#utility.yul\":3490:3503   */\n  mload\n    /* \"#utility.yul\":3481:3503   */\n  swap1\n  pop\n    /* \"#utility.yul\":3512:3544   */\n  tag_119\n    /* \"#utility.yul\":3538:3543   */\n  dup2\n    /* \"#utility.yul\":3512:3544   */\n  tag_39\n  jump\t// in\ntag_119:\n    /* \"#utility.yul\":3409:3550   */\n  swap3\n  swap2\n  pop\n  pop\n  jump\t// out\n    /* \"#utility.yul\":3556:3665   */\ntag_41:\n    /* \"#utility.yul\":3592:3599   */\n  0x00\n    /* \"#utility.yul\":3632:3658   */\n  0xffffffffffffffffffffffff\n    /* \"#utility.yul\":3625:3630   */\n  dup3\n    /* \"#utility.yul\":3621:3659   */\n  and\n    /* \"#utility.yul\":3610:3659   */\n  swap1\n  pop\n    /* \"#utility.yul\":3556:3665   */\n  swap2\n  swap1\n  pop\n  jump\t// out\n    /* \"#utility.yul\":3671:3791   */\ntag_42:\n    /* \"#utility.yul\":3743:3766   */\n  tag_122\n    /* \"#utility.yul\":3760:3765   */\n  dup2\n    /* \"#utility.yul\":3743:3766   */\n  tag_41\n  jump\t// in\ntag_122:\n    /* \"#utility.yul\":3736:3741   */\n  dup2\n    /* \"#utility.yul\":3733:3767   */\n  eq\n    /* \"#utility.yul\":3723:3785   */\n  tag_123\n  jumpi\n    /* \"#utility.yul\":3781:3782   */\n  0x00\n    /* \"#utility.yul\":3778:3779   */\n  dup1\n    /* \"#utility.yul\":3771:3783   */\n  revert\n    /* \"#utility.yul\":3723:3785   */\ntag_123:\n    /* \"#utility.yul\":3671:3791   */\n  pop\n  jump\t// out\n    /* \"#utility.yul\":3797:3938   */\ntag_43:\n    /* \"#utility.yul\":3853:3858   */\n  0x00\n    /* \"#utility.yul\":3884:3890   */\n  dup2\n    /* \"#utility.yul\":3878:3891   */\n  mload\n    /* \"#utility.yul\":3869:3891   */\n  swap1\n  pop\n    /* \"#utility.yul\":3900:3932   */\n  tag_125\n    /* \"#utility.yul\":3926:3931   */\n  dup2\n    /* \"#utility.yul\":3900:3932   */\n  tag_42\n  jump\t// in\ntag_125:\n    /* \"#utility.yul\":3797:3938   */\n  swap3\n  swap2\n  pop\n  pop\n  jump\t// out\n    /* \"#utility.yul\":3944:4034   */\ntag_44:\n    /* \"#utility.yul\":3978:3985   */\n  0x00\n    /* \"#utility.yul\":4021:4026   */\n  dup2\n    /* \"#utility.yul\":4014:4027   */\n  iszero\n    /* \"#utility.yul\":4007:4028   */\n  iszero\n    /* \"#utility.yul\":3996:4028   */\n  swap1\n  pop\n    /* \"#utility.yul\":3944:4034   */\n  swap2\n  swap1\n  pop\n  jump\t// out\n    /* \"#utility.yul\":4040:4156   */\ntag_45:\n    /* \"#utility.yul\":4110:4131   */\n  tag_128\n    /* \"#utility.yul\":4125:4130   */\n  dup2\n    /* \"#utility.yul\":4110:4131   */\n  tag_44\n  jump\t// in\ntag_128:\n    /* \"#utility.yul\":4103:4108   */\n  dup2\n    /* \"#utility.yul\":4100:4132   */\n  eq\n    /* \"#utility.yul\":4090:4150   */\n  tag_129\n  jumpi\n    /* \"#utility.yul\":4146:4147   */\n  0x00\n    /* \"#utility.yul\":4143:4144   */\n  dup1\n    /* \"#utility.yul\":4136:4148   */\n  revert\n    /* \"#utility.yul\":4090:4150   */\ntag_129:\n    /* \"#utility.yul\":4040:4156   */\n  pop\n  jump\t// out\n    /* \"#utility.yul\":4162:4299   */\ntag_46:\n    /* \"#utility.yul\":4216:4221   */\n  0x00\n    /* \"#utility.yul\":4247:4253   */\n  dup2\n    /* \"#utility.yul\":4241:4254   */\n  mload\n    /* \"#utility.yul\":4232:4254   */\n  swap1\n  pop\n    /* \"#utility.yul\":4263:4293   */\n  tag_131\n    /* \"#utility.yul\":4287:4292   */\n  dup2\n    /* \"#utility.yul\":4263:4293   */\n  tag_45\n  jump\t// in\ntag_131:\n    /* \"#utility.yul\":4162:4299   */\n  swap3\n  swap2\n  pop\n  pop\n  jump\t// out\n    /* \"#utility.yul\":4305:5775   */\ntag_3:\n    /* \"#utility.yul\":4435:4441   */\n  0x00\n    /* \"#utility.yul\":4443:4449   */\n  dup1\n    /* \"#utility.yul\":4451:4457   */\n  0x00\n    /* \"#utility.yul\":4459:4465   */\n  dup1\n    /* \"#utility.yul\":4467:4473   */\n  0x00\n    /* \"#utility.yul\":4475:4481   */\n  dup1\n    /* \"#utility.yul\":4524:4527   */\n  0xc0\n    /* \"#utility.yul\":4512:4521   */\n  dup8\n    /* \"#utility.yul\":4503:4510   */\n  dup10\n    /* \"#utility.yul\":4499:4522   */\n  sub\n    /* \"#utility.yul\":4495:4528   */\n  slt\n    /* \"#utility.yul\":4492:4612   */\n  iszero\n  tag_133\n  jumpi\n    /* \"#utility.yul\":4531:4610   */\n  tag_134\n  tag_22\n  jump\t// in\ntag_134:\n    /* \"#utility.yul\":4492:4612   */\ntag_133:\n    /* \"#utility.yul\":4672:4673   */\n  0x00\n    /* \"#utility.yul\":4661:4670   */\n  dup8\n    /* \"#utility.yul\":4657:4674   */\n  add\n    /* \"#utility.yul\":4651:4675   */\n  mload\n    /* \"#utility.yul\":4702:4720   */\n  0xffffffffffffffff\n    /* \"#utility.yul\":4694:4700   */\n  dup2\n    /* \"#utility.yul\":4691:4721   */\n  gt\n    /* \"#utility.yul\":4688:4805   */\n  iszero\n  tag_135\n  jumpi\n    /* \"#utility.yul\":4724:4803   */\n  tag_136\n  tag_23\n  jump\t// in\ntag_136:\n    /* \"#utility.yul\":4688:4805   */\ntag_135:\n    /* \"#utility.yul\":4829:4903   */\n  tag_137\n    /* \"#utility.yul\":4895:4902   */\n  dup10\n    /* \"#utility.yul\":4886:4892   */\n  dup3\n    /* \"#utility.yul\":4875:4884   */\n  dup11\n    /* \"#utility.yul\":4871:4893   */\n  add\n    /* \"#utility.yul\":4829:4903   */\n  tag_33\n  jump\t// in\ntag_137:\n    /* \"#utility.yul\":4819:4903   */\n  swap7\n  pop\n    /* \"#utility.yul\":4622:4913   */\n  pop\n    /* \"#utility.yul\":4952:4954   */\n  0x20\n    /* \"#utility.yul\":4978:5042   */\n  tag_138\n    /* \"#utility.yul\":5034:5041   */\n  dup10\n    /* \"#utility.yul\":5025:5031   */\n  dup3\n    /* \"#utility.yul\":5014:5023   */\n  dup11\n    /* \"#utility.yul\":5010:5032   */\n  add\n    /* \"#utility.yul\":4978:5042   */\n  tag_37\n  jump\t// in\ntag_138:\n    /* \"#utility.yul\":4968:5042   */\n  swap6\n  pop\n    /* \"#utility.yul\":4923:5052   */\n  pop\n    /* \"#utility.yul\":5091:5093   */\n  0x40\n    /* \"#utility.yul\":5117:5180   */\n  tag_139\n    /* \"#utility.yul\":5172:5179   */\n  dup10\n    /* \"#utility.yul\":5163:5169   */\n  dup3\n    /* \"#utility.yul\":5152:5161   */\n  dup11\n    /* \"#utility.yul\":5148:5170   */\n  add\n    /* \"#utility.yul\":5117:5180   */\n  tag_40\n  jump\t// in\ntag_139:\n    /* \"#utility.yul\":5107:5180   */\n  swap5\n  pop\n    /* \"#utility.yul\":5062:5190   */\n  pop\n    /* \"#utility.yul\":5229:5231   */\n  0x60\n    /* \"#utility.yul\":5255:5318   */\n  tag_140\n    /* \"#utility.yul\":5310:5317   */\n  dup10\n    /* \"#utility.yul\":5301:5307   */\n  dup3\n    /* \"#utility.yul\":5290:5299   */\n  dup11\n    /* \"#utility.yul\":5286:5308   */\n  add\n    /* \"#utility.yul\":5255:5318   */\n  tag_43\n  jump\t// in\ntag_140:\n    /* \"#utility.yul\":5245:5318   */\n  swap4\n  pop\n    /* \"#utility.yul\":5200:5328   */\n  pop\n    /* \"#utility.yul\":5388:5391   */\n  0x80\n    /* \"#utility.yul\":5377:5386   */\n  dup8\n    /* \"#utility.yul\":5373:5392   */\n  add\n    /* \"#utility.yul\":5367:5393   */\n  mload\n    /* \"#utility.yul\":5420:5438   */\n  0xffffffffffffffff\n    /* \"#utility.yul\":5412:5418   */\n  dup2\n    /* \"#utility.yul\":5409:5439   */\n  gt\n    /* \"#utility.yul\":5406:5523   */\n  iszero\n  tag_141\n  jumpi\n    /* \"#utility.yul\":5442:5521   */\n  tag_142\n  tag_23\n  jump\t// in\ntag_142:\n    /* \"#utility.yul\":5406:5523   */\ntag_141:\n    /* \"#utility.yul\":5547:5621   */\n  tag_143\n    /* \"#utility.yul\":5613:5620   */\n  dup10\n    /* \"#utility.yul\":5604:5610   */\n  dup3\n    /* \"#utility.yul\":5593:5602   */\n  dup11\n    /* \"#utility.yul\":5589:5611   */\n  add\n    /* \"#utility.yul\":5547:5621   */\n  tag_33\n  jump\t// in\ntag_143:\n    /* \"#utility.yul\":5537:5621   */\n  swap3\n  pop\n    /* \"#utility.yul\":5338:5631   */\n  pop\n    /* \"#utility.yul\":5670:5673   */\n  0xa0\n    /* \"#utility.yul\":5697:5758   */\n  tag_144\n    /* \"#utility.yul\":5750:5757   */\n  dup10\n    /* \"#utility.yul\":5741:5747   */\n  dup3\n    /* \"#utility.yul\":5730:5739   */\n  dup11\n    /* \"#utility.yul\":5726:5748   */\n  add\n    /* \"#utility.yul\":5697:5758   */\n  tag_46\n  jump\t// in\ntag_144:\n    /* \"#utility.yul\":5687:5758   */\n  swap2\n  pop\n    /* \"#utility.yul\":5641:5768   */\n  pop\n    /* \"#utility.yul\":4305:5775   */\n  swap3\n  swap6\n  pop\n  swap3\n  swap6\n  pop\n  swap3\n  swap6\n  jump\t// out\n    /* \"#utility.yul\":5781:5950   */\ntag_47:\n    /* \"#utility.yul\":5865:5876   */\n  0x00\n    /* \"#utility.yul\":5899:5905   */\n  dup3\n    /* \"#utility.yul\":5894:5897   */\n  dup3\n    /* \"#utility.yul\":5887:5906   */\n  mstore\n    /* \"#utility.yul\":5939:5943   */\n  0x20\n    /* \"#utility.yul\":5934:5937   */\n  dup3\n    /* \"#utility.yul\":5930:5944   */\n  add\n    /* \"#utility.yul\":5915:5944   */\n  swap1\n  pop\n    /* \"#utility.yul\":5781:5950   */\n  swap3\n  swap2\n  pop\n  pop\n  jump\t// out\n    /* \"#utility.yul\":5956:6138   */\ntag_48:\n    /* \"#utility.yul\":6096:6130   */\n  0x4d6178696d616c203635353334204d6974737069656c65722065726c61756274\n    /* \"#utility.yul\":6092:6093   */\n  0x00\n    /* \"#utility.yul\":6084:6090   */\n  dup3\n    /* \"#utility.yul\":6080:6094   */\n  add\n    /* \"#utility.yul\":6073:6131   */\n  mstore\n    /* \"#utility.yul\":5956:6138   */\n  pop\n  jump\t// out\n    /* \"#utility.yul\":6144:6510   */\ntag_49:\n    /* \"#utility.yul\":6286:6289   */\n  0x00\n    /* \"#utility.yul\":6307:6374   */\n  tag_148\n    /* \"#utility.yul\":6371:6373   */\n  0x20\n    /* \"#utility.yul\":6366:6369   */\n  dup4\n    /* \"#utility.yul\":6307:6374   */\n  tag_47\n  jump\t// in\ntag_148:\n    /* \"#utility.yul\":6300:6374   */\n  swap2\n  pop\n    /* \"#utility.yul\":6383:6476   */\n  tag_149\n    /* \"#utility.yul\":6472:6475   */\n  dup3\n    /* \"#utility.yul\":6383:6476   */\n  tag_48\n  jump\t// in\ntag_149:\n    /* \"#utility.yul\":6501:6503   */\n  0x20\n    /* \"#utility.yul\":6496:6499   */\n  dup3\n    /* \"#utility.yul\":6492:6504   */\n  add\n    /* \"#utility.yul\":6485:6504   */\n  swap1\n  pop\n    /* \"#utility.yul\":6144:6510   */\n  swap2\n  swap1\n  pop\n  jump\t// out\n    /* \"#utility.yul\":6516:6935   */\ntag_8:\n    /* \"#utility.yul\":6682:6686   */\n  0x00\n    /* \"#utility.yul\":6720:6722   */\n  0x20\n    /* \"#utility.yul\":6709:6718   */\n  dup3\n    /* \"#utility.yul\":6705:6723   */\n  add\n    /* \"#utility.yul\":6697:6723   */\n  swap1\n  pop\n    /* \"#utility.yul\":6769:6778   */\n  dup2\n    /* \"#utility.yul\":6763:6767   */\n  dup2\n    /* \"#utility.yul\":6759:6779   */\n  sub\n    /* \"#utility.yul\":6755:6756   */\n  0x00\n    /* \"#utility.yul\":6744:6753   */\n  dup4\n    /* \"#utility.yul\":6740:6757   */\n  add\n    /* \"#utility.yul\":6733:6780   */\n  mstore\n    /* \"#utility.yul\":6797:6928   */\n  tag_151\n    /* \"#utility.yul\":6923:6927   */\n  dup2\n    /* \"#utility.yul\":6797:6928   */\n  tag_49\n  jump\t// in\ntag_151:\n    /* \"#utility.yul\":6789:6928   */\n  swap1\n  pop\n    /* \"#utility.yul\":6516:6935   */\n  swap2\n  swap1\n  pop\n  jump\t// out\n    /* \"#utility.yul\":6941:7173   */\ntag_50:\n    /* \"#utility.yul\":7081:7115   */\n  0x4d6178696d616c65722050726569732037393232383136323531343236343333\n    /* \"#utility.yul\":7077:7078   */\n  0x00\n    /* \"#utility.yul\":7069:7075   */\n  dup3\n    /* \"#utility.yul\":7065:7079   */\n  add\n    /* \"#utility.yul\":7058:7116   */\n  mstore\n    /* \"#utility.yul\":7150:7165   */\n  0x3735393335343339353033333500000000000000000000000000000000000000\n    /* \"#utility.yul\":7145:7147   */\n  0x20\n    /* \"#utility.yul\":7137:7143   */\n  dup3\n    /* \"#utility.yul\":7133:7148   */\n  add\n    /* \"#utility.yul\":7126:7166   */\n  mstore\n    /* \"#utility.yul\":6941:7173   */\n  pop\n  jump\t// out\n    /* \"#utility.yul\":7179:7545   */\ntag_51:\n    /* \"#utility.yul\":7321:7324   */\n  0x00\n    /* \"#utility.yul\":7342:7409   */\n  tag_154\n    /* \"#utility.yul\":7406:7408   */\n  0x2d\n    /* \"#utility.yul\":7401:7404   */\n  dup4\n    /* \"#utility.yul\":7342:7409   */\n  tag_47\n  jump\t// in\ntag_154:\n    /* \"#utility.yul\":7335:7409   */\n  swap2\n  pop\n    /* \"#utility.yul\":7418:7511   */\n  tag_155\n    /* \"#utility.yul\":7507:7510   */\n  dup3\n    /* \"#utility.yul\":7418:7511   */\n  tag_50\n  jump\t// in\ntag_155:\n    /* \"#utility.yul\":7536:7538   */\n  0x40\n    /* \"#utility.yul\":7531:7534   */\n  dup3\n    /* \"#utility.yul\":7527:7539   */\n  add\n    /* \"#utility.yul\":7520:7539   */\n  swap1\n  pop\n    /* \"#utility.yul\":7179:7545   */\n  swap2\n  swap1\n  pop\n  jump\t// out\n    /* \"#utility.yul\":7551:7970   */\ntag_11:\n    /* \"#utility.yul\":7717:7721   */\n  0x00\n    /* \"#utility.yul\":7755:7757   */\n  0x20\n    /* \"#utility.yul\":7744:7753   */\n  dup3\n    /* \"#utility.yul\":7740:7758   */\n  add\n    /* \"#utility.yul\":7732:7758   */\n  swap1\n  pop\n    /* \"#utility.yul\":7804:7813   */\n  dup2\n    /* \"#utility.yul\":7798:7802   */\n  dup2\n    /* \"#utility.yul\":7794:7814   */\n  sub\n    /* \"#utility.yul\":7790:7791   */\n  0x00\n    /* \"#utility.yul\":7779:7788   */\n  dup4\n    /* \"#utility.yul\":7775:7792   */\n  add\n    /* \"#utility.yul\":7768:7815   */\n  mstore\n    /* \"#utility.yul\":7832:7963   */\n  tag_157\n    /* \"#utility.yul\":7958:7962   */\n  dup2\n    /* \"#utility.yul\":7832:7963   */\n  tag_51\n  jump\t// in\ntag_157:\n    /* \"#utility.yul\":7824:7963   */\n  swap1\n  pop\n    /* \"#utility.yul\":7551:7970   */\n  swap2\n  swap1\n  pop\n  jump\t// out\n    /* \"#utility.yul\":7976:8075   */\ntag_52:\n    /* \"#utility.yul\":8028:8034   */\n  0x00\n    /* \"#utility.yul\":8062:8067   */\n  dup2\n    /* \"#utility.yul\":8056:8068   */\n  mload\n    /* \"#utility.yul\":8046:8068   */\n  swap1\n  pop\n    /* \"#utility.yul\":7976:8075   */\n  swap2\n  swap1\n  pop\n  jump\t// out\n    /* \"#utility.yul\":8081:8261   */\ntag_53:\n    /* \"#utility.yul\":8129:8206   */\n  0x4e487b7100000000000000000000000000000000000000000000000000000000\n    /* \"#utility.yul\":8126:8127   */\n  0x00\n    /* \"#utility.yul\":8119:8207   */\n  mstore\n    /* \"#utility.yul\":8226:8230   */\n  0x22\n    /* \"#utility.yul\":8223:8224   */\n  0x04\n    /* \"#utility.yul\":8216:8231   */\n  mstore\n    /* \"#utility.yul\":8250:8254   */\n  0x24\n    /* \"#utility.yul\":8247:8248   */\n  0x00\n    /* \"#utility.yul\":8240:8255   */\n  revert\n    /* \"#utility.yul\":8267:8587   */\ntag_54:\n    /* \"#utility.yul\":8311:8317   */\n  0x00\n    /* \"#utility.yul\":8348:8349   */\n  0x02\n    /* \"#utility.yul\":8342:8346   */\n  dup3\n    /* \"#utility.yul\":8338:8350   */\n  div\n    /* \"#utility.yul\":8328:8350   */\n  swap1\n  pop\n    /* \"#utility.yul\":8395:8396   */\n  0x01\n    /* \"#utility.yul\":8389:8393   */\n  dup3\n    /* \"#utility.yul\":8385:8397   */\n  and\n    /* \"#utility.yul\":8416:8434   */\n  dup1\n    /* \"#utility.yul\":8406:8487   */\n  tag_161\n  jumpi\n    /* \"#utility.yul\":8472:8476   */\n  0x7f\n    /* \"#utility.yul\":8464:8470   */\n  dup3\n    /* \"#utility.yul\":8460:8477   */\n  and\n    /* \"#utility.yul\":8450:8477   */\n  swap2\n  pop\n    /* \"#utility.yul\":8406:8487   */\ntag_161:\n    /* \"#utility.yul\":8534:8536   */\n  0x20\n    /* \"#utility.yul\":8526:8532   */\n  dup3\n    /* \"#utility.yul\":8523:8537   */\n  lt\n    /* \"#utility.yul\":8503:8521   */\n  dup2\n    /* \"#utility.yul\":8500:8538   */\n  sub\n    /* \"#utility.yul\":8497:8581   */\n  tag_162\n  jumpi\n    /* \"#utility.yul\":8553:8571   */\n  tag_163\n  tag_53\n  jump\t// in\ntag_163:\n    /* \"#utility.yul\":8497:8581   */\ntag_162:\n    /* \"#utility.yul\":8318:8587   */\n  pop\n    /* \"#utility.yul\":8267:8587   */\n  swap2\n  swap1\n  pop\n  jump\t// out\n    /* \"#utility.yul\":8593:8734   */\ntag_55:\n    /* \"#utility.yul\":8642:8646   */\n  0x00\n    /* \"#utility.yul\":8665:8668   */\n  dup2\n    /* \"#utility.yul\":8657:8668   */\n  swap1\n  pop\n    /* \"#utility.yul\":8688:8691   */\n  dup2\n    /* \"#utility.yul\":8685:8686   */\n  0x00\n    /* \"#utility.yul\":8678:8692   */\n  mstore\n    /* \"#utility.yul\":8722:8726   */\n  0x20\n    /* \"#utility.yul\":8719:8720   */\n  0x00\n    /* \"#utility.yul\":8709:8727   */\n  keccak256\n    /* \"#utility.yul\":8701:8727   */\n  swap1\n  pop\n    /* \"#utility.yul\":8593:8734   */\n  swap2\n  swap1\n  pop\n  jump\t// out\n    /* \"#utility.yul\":8740:8833   */\ntag_56:\n    /* \"#utility.yul\":8777:8783   */\n  0x00\n    /* \"#utility.yul\":8824:8826   */\n  0x20\n    /* \"#utility.yul\":8819:8821   */\n  0x1f\n    /* \"#utility.yul\":8812:8817   */\n  dup4\n    /* \"#utility.yul\":8808:8822   */\n  add\n    /* \"#utility.yul\":8804:8827   */\n  div\n    /* \"#utility.yul\":8794:8827   */\n  swap1\n  pop\n    /* \"#utility.yul\":8740:8833   */\n  swap2\n  swap1\n  pop\n  jump\t// out\n    /* \"#utility.yul\":8839:8946   */\ntag_57:\n    /* \"#utility.yul\":8883:8891   */\n  0x00\n    /* \"#utility.yul\":8933:8938   */\n  dup3\n    /* \"#utility.yul\":8927:8931   */\n  dup3\n    /* \"#utility.yul\":8923:8939   */\n  shl\n    /* \"#utility.yul\":8902:8939   */\n  swap1\n  pop\n    /* \"#utility.yul\":8839:8946   */\n  swap3\n  swap2\n  pop\n  pop\n  jump\t// out\n    /* \"#utility.yul\":8952:9345   */\ntag_58:\n    /* \"#utility.yul\":9021:9027   */\n  0x00\n    /* \"#utility.yul\":9071:9072   */\n  0x08\n    /* \"#utility.yul\":9059:9069   */\n  dup4\n    /* \"#utility.yul\":9055:9073   */\n  mul\n    /* \"#utility.yul\":9094:9191   */\n  tag_168\n    /* \"#utility.yul\":9124:9190   */\n  0xffffffffffffffffffffffffffffffffffffffffffffffffffffffffffffffff\n    /* \"#utility.yul\":9113:9122   */\n  dup3\n    /* \"#utility.yul\":9094:9191   */\n  tag_57\n  jump\t// in\ntag_168:\n    /* \"#utility.yul\":9212:9251   */\n  tag_169\n    /* \"#utility.yul\":9242:9250   */\n  dup7\n    /* \"#utility.yul\":9231:9240   */\n  dup4\n    /* \"#utility.yul\":9212:9251   */\n  tag_57\n  jump\t// in\ntag_169:\n    /* \"#utility.yul\":9200:9251   */\n  swap6\n  pop\n    /* \"#utility.yul\":9284:9288   */\n  dup1\n    /* \"#utility.yul\":9280:9289   */\n  not\n    /* \"#utility.yul\":9273:9278   */\n  dup5\n    /* \"#utility.yul\":9269:9290   */\n  and\n    /* \"#utility.yul\":9260:9290   */\n  swap4\n  pop\n    /* \"#utility.yul\":9333:9337   */\n  dup1\n    /* \"#utility.yul\":9323:9331   */\n  dup7\n    /* \"#utility.yul\":9319:9338   */\n  and\n    /* \"#utility.yul\":9312:9317   */\n  dup5\n    /* \"#utility.yul\":9309:9339   */\n  or\n    /* \"#utility.yul\":9299:9339   */\n  swap3\n  pop\n    /* \"#utility.yul\":9028:9345   */\n  pop\n  pop\n    /* \"#utility.yul\":8952:9345   */\n  swap4\n  swap3\n  pop\n  pop\n  pop\n  jump\t// out\n    /* \"#utility.yul\":9351:9428   */\ntag_59:\n    /* \"#utility.yul\":9388:9395   */\n  0x00\n    /* \"#utility.yul\":9417:9422   */\n  dup2\n    /* \"#utility.yul\":9406:9422   */\n  swap1\n  pop\n    /* \"#utility.yul\":9351:9428   */\n  swap2\n  swap1\n  pop\n  jump\t// out\n    /* \"#utility.yul\":9434:9494   */\ntag_60:\n    /* \"#utility.yul\":9462:9465   */\n  0x00\n    /* \"#utility.yul\":9483:9488   */\n  dup2\n    /* \"#utility.yul\":9476:9488   */\n  swap1\n  pop\n    /* \"#utility.yul\":9434:9494   */\n  swap2\n  swap1\n  pop\n  jump\t// out\n    /* \"#utility.yul\":9500:9642   */\ntag_61:\n    /* \"#utility.yul\":9550:9559   */\n  0x00\n    /* \"#utility.yul\":9583:9636   */\n  tag_173\n    /* \"#utility.yul\":9601:9635   */\n  tag_174\n    /* \"#utility.yul\":9610:9634   */\n  tag_175\n    /* \"#utility.yul\":9628:9633   */\n  dup5\n    /* \"#utility.yul\":9610:9634   */\n  tag_59\n  jump\t// in\ntag_175:\n    /* \"#utility.yul\":9601:9635   */\n  tag_60\n  jump\t// in\ntag_174:\n    /* \"#utility.yul\":9583:9636   */\n  tag_59\n  jump\t// in\ntag_173:\n    /* \"#utility.yul\":9570:9636   */\n  swap1\n  pop\n    /* \"#utility.yul\":9500:9642   */\n  swap2\n  swap1\n  pop\n  jump\t// out\n    /* \"#utility.yul\":9648:9723   */\ntag_62:\n    /* \"#utility.yul\":9691:9694   */\n  0x00\n    /* \"#utility.yul\":9712:9717   */\n  dup2\n    /* \"#utility.yul\":9705:9717   */\n  swap1\n  pop\n    /* \"#utility.yul\":9648:9723   */\n  swap2\n  swap1\n  pop\n  jump\t// out\n    /* \"#utility.yul\":9729:9998   */\ntag_63:\n    /* \"#utility.yul\":9839:9878   */\n  tag_178\n    /* \"#utility.yul\":9870:9877   */\n  dup4\n    /* \"#utility.yul\":9839:9878   */\n  tag_61\n  jump\t// in\ntag_178:\n    /* \"#utility.yul\":9900:9991   */\n  tag_179\n    /* \"#utility.yul\":9949:9990   */\n  tag_180\n    /* \"#utility.yul\":9973:9989   */\n  dup3\n    /* \"#utility.yul\":9949:9990   */\n  tag_62\n  jump\t// in\ntag_180:\n    /* \"#utility.yul\":9941:9947   */\n  dup5\n    /* \"#utility.yul\":9934:9938   */\n  dup5\n    /* \"#utility.yul\":9928:9939   */\n  sload\n    /* \"#utility.yul\":9900:9991   */\n  tag_58\n  jump\t// in\ntag_179:\n    /* \"#utility.yul\":9894:9898   */\n  dup3\n    /* \"#utility.yul\":9887:9992   */\n  sstore\n    /* \"#utility.yul\":9805:9998   */\n  pop\n    /* \"#utility.yul\":9729:9998   */\n  pop\n  pop\n  pop\n  jump\t// out\n    /* \"#utility.yul\":10004:10077   */\ntag_64:\n    /* \"#utility.yul\":10049:10052   */\n  0x00\n    /* \"#utility.yul\":10004:10077   */\n  swap1\n  jump\t// out\n    /* \"#utility.yul\":10083:10272   */\ntag_65:\n    /* \"#utility.yul\":10160:10192   */\n  tag_183\n  tag_64\n  jump\t// in\ntag_183:\n    /* \"#utility.yul\":10201:10266   */\n  tag_184\n    /* \"#utility.yul\":10259:10265   */\n  dup2\n    /* \"#utility.yul\":10251:10257   */\n  dup5\n    /* \"#utility.yul\":10245:10249   */\n  dup5\n    /* \"#utility.yul\":10201:10266   */\n  tag_63\n  jump\t// in\ntag_184:\n    /* \"#utility.yul\":10136:10272   */\n  pop\n    /* \"#utility.yul\":10083:10272   */\n  pop\n  pop\n  jump\t// out\n    /* \"#utility.yul\":10278:10464   */\ntag_66:\n    /* \"#utility.yul\":10338:10458   */\ntag_186:\n    /* \"#utility.yul\":10355:10358   */\n  dup2\n    /* \"#utility.yul\":10348:10353   */\n  dup2\n    /* \"#utility.yul\":10345:10359   */\n  lt\n    /* \"#utility.yul\":10338:10458   */\n  iszero\n  tag_188\n  jumpi\n    /* \"#utility.yul\":10409:10448   */\n  tag_189\n    /* \"#utility.yul\":10446:10447   */\n  0x00\n    /* \"#utility.yul\":10439:10444   */\n  dup3\n    /* \"#utility.yul\":10409:10448   */\n  tag_65\n  jump\t// in\ntag_189:\n    /* \"#utility.yul\":10382:10383   */\n  0x01\n    /* \"#utility.yul\":10375:10380   */\n  dup2\n    /* \"#utility.yul\":10371:10384   */\n  add\n    /* \"#utility.yul\":10362:10384   */\n  swap1\n  pop\n    /* \"#utility.yul\":10338:10458   */\n  jump(tag_186)\ntag_188:\n    /* \"#utility.yul\":10278:10464   */\n  pop\n  pop\n  jump\t// out\n    /* \"#utility.yul\":10470:11013   */\ntag_67:\n    /* \"#utility.yul\":10571:10573   */\n  0x1f\n    /* \"#utility.yul\":10566:10569   */\n  dup3\n    /* \"#utility.yul\":10563:10574   */\n  gt\n    /* \"#utility.yul\":10560:11006   */\n  iszero\n  tag_191\n  jumpi\n    /* \"#utility.yul\":10605:10643   */\n  tag_192\n    /* \"#utility.yul\":10637:10642   */\n  dup2\n    /* \"#utility.yul\":10605:10643   */\n  tag_55\n  jump\t// in\ntag_192:\n    /* \"#utility.yul\":10689:10718   */\n  tag_193\n    /* \"#utility.yul\":10707:10717   */\n  dup5\n    /* \"#utility.yul\":10689:10718   */\n  tag_56\n  jump\t// in\ntag_193:\n    /* \"#utility.yul\":10679:10687   */\n  dup2\n    /* \"#utility.yul\":10675:10719   */\n  add\n    /* \"#utility.yul\":10872:10874   */\n  0x20\n    /* \"#utility.yul\":10860:10870   */\n  dup6\n    /* \"#utility.yul\":10857:10875   */\n  lt\n    /* \"#utility.yul\":10854:10903   */\n  iszero\n  tag_194\n  jumpi\n    /* \"#utility.yul\":10893:10901   */\n  dup2\n    /* \"#utility.yul\":10878:10901   */\n  swap1\n  pop\n    /* \"#utility.yul\":10854:10903   */\ntag_194:\n    /* \"#utility.yul\":10916:10996   */\n  tag_195\n    /* \"#utility.yul\":10972:10994   */\n  tag_196\n    /* \"#utility.yul\":10990:10993   */\n  dup6\n    /* \"#utility.yul\":10972:10994   */\n  tag_56\n  jump\t// in\ntag_196:\n    /* \"#utility.yul\":10962:10970   */\n  dup4\n    /* \"#utility.yul\":10958:10995   */\n  add\n    /* \"#utility.yul\":10945:10956   */\n  dup3\n    /* \"#utility.yul\":10916:10996   */\n  tag_66\n  jump\t// in\ntag_195:\n    /* \"#utility.yul\":10575:11006   */\n  pop\n  pop\n    /* \"#utility.yul\":10560:11006   */\ntag_191:\n    /* \"#utility.yul\":10470:11013   */\n  pop\n  pop\n  pop\n  jump\t// out\n    /* \"#utility.yul\":11019:11136   */\ntag_68:\n    /* \"#utility.yul\":11073:11081   */\n  0x00\n    /* \"#utility.yul\":11123:11128   */\n  dup3\n    /* \"#utility.yul\":11117:11121   */\n  dup3\n    /* \"#utility.yul\":11113:11129   */\n  shr\n    /* \"#utility.yul\":11092:11129   */\n  swap1\n  pop\n    /* \"#utility.yul\":11019:11136   */\n  swap3\n  swap2\n  pop\n  pop\n  jump\t// out\n    /* \"#utility.yul\":11142:11311   */\ntag_69:\n    /* \"#utility.yul\":11186:11192   */\n  0x00\n    /* \"#utility.yul\":11219:11270   */\n  tag_199\n    /* \"#utility.yul\":11267:11268   */\n  0x00\n    /* \"#utility.yul\":11263:11269   */\n  not\n    /* \"#utility.yul\":11255:11260   */\n  dup5\n    /* \"#utility.yul\":11252:11253   */\n  0x08\n    /* \"#utility.yul\":11248:11261   */\n  mul\n    /* \"#utility.yul\":11219:11270   */\n  tag_68\n  jump\t// in\ntag_199:\n    /* \"#utility.yul\":11215:11271   */\n  not\n    /* \"#utility.yul\":11300:11304   */\n  dup1\n    /* \"#utility.yul\":11294:11298   */\n  dup4\n    /* \"#utility.yul\":11290:11305   */\n  and\n    /* \"#utility.yul\":11280:11305   */\n  swap2\n  pop\n    /* \"#utility.yul\":11193:11311   */\n  pop\n    /* \"#utility.yul\":11142:11311   */\n  swap3\n  swap2\n  pop\n  pop\n  jump\t// out\n    /* \"#utility.yul\":11316:11611   */\ntag_70:\n    /* \"#utility.yul\":11392:11396   */\n  0x00\n    /* \"#utility.yul\":11538:11567   */\n  tag_201\n    /* \"#utility.yul\":11563:11566   */\n  dup4\n    /* \"#utility.yul\":11557:11561   */\n  dup4\n    /* \"#utility.yul\":11538:11567   */\n  tag_69\n  jump\t// in\ntag_201:\n    /* \"#utility.yul\":11530:11567   */\n  swap2\n  pop\n    /* \"#utility.yul\":11600:11603   */\n  dup3\n    /* \"#utility.yul\":11597:11598   */\n  0x02\n    /* \"#utility.yul\":11593:11604   */\n  mul\n    /* \"#utility.yul\":11587:11591   */\n  dup3\n    /* \"#utility.yul\":11584:11605   */\n  or\n    /* \"#utility.yul\":11576:11605   */\n  swap1\n  pop\n    /* \"#utility.yul\":11316:11611   */\n  swap3\n  swap2\n  pop\n  pop\n  jump\t// out\n    /* \"#utility.yul\":11616:13011   */\ntag_13:\n    /* \"#utility.yul\":11733:11770   */\n  tag_203\n    /* \"#utility.yul\":11766:11769   */\n  dup3\n    /* \"#utility.yul\":11733:11770   */\n  tag_52\n  jump\t// in\ntag_203:\n    /* \"#utility.yul\":11835:11853   */\n  0xffffffffffffffff\n    /* \"#utility.yul\":11827:11833   */\n  dup2\n    /* \"#utility.yul\":11824:11854   */\n  gt\n    /* \"#utility.yul\":11821:11877   */\n  iszero\n  tag_204\n  jumpi\n    /* \"#utility.yul\":11857:11875   */\n  tag_205\n  tag_27\n  jump\t// in\ntag_205:\n    /* \"#utility.yul\":11821:11877   */\ntag_204:\n    /* \"#utility.yul\":11901:11939   */\n  tag_206\n    /* \"#utility.yul\":11933:11937   */\n  dup3\n    /* \"#utility.yul\":11927:11938   */\n  sload\n    /* \"#utility.yul\":11901:11939   */\n  tag_54\n  jump\t// in\ntag_206:\n    /* \"#utility.yul\":11986:12053   */\n  tag_207\n    /* \"#utility.yul\":12046:12052   */\n  dup3\n    /* \"#utility.yul\":12038:12044   */\n  dup3\n    /* \"#utility.yul\":12032:12036   */\n  dup6\n    /* \"#utility.yul\":11986:12053   */\n  tag_67\n  jump\t// in\ntag_207:\n    /* \"#utility.yul\":12080:12081   */\n  0x00\n    /* \"#utility.yul\":12104:12108   */\n  0x20\n    /* \"#utility.yul\":12091:12108   */\n  swap1\n  pop\n    /* \"#utility.yul\":12136:12138   */\n  0x1f\n    /* \"#utility.yul\":12128:12134   */\n  dup4\n    /* \"#utility.yul\":12125:12139   */\n  gt\n    /* \"#utility.yul\":12153:12154   */\n  0x01\n    /* \"#utility.yul\":12148:12766   */\n  dup2\n  eq\n  tag_209\n  jumpi\n    /* \"#utility.yul\":12810:12811   */\n  0x00\n    /* \"#utility.yul\":12827:12833   */\n  dup5\n    /* \"#utility.yul\":12824:12901   */\n  iszero\n  tag_210\n  jumpi\n    /* \"#utility.yul\":12876:12885   */\n  dup3\n    /* \"#utility.yul\":12871:12874   */\n  dup8\n    /* \"#utility.yul\":12867:12886   */\n  add\n    /* \"#utility.yul\":12861:12887   */\n  mload\n    /* \"#utility.yul\":12852:12887   */\n  swap1\n  pop\n    /* \"#utility.yul\":12824:12901   */\ntag_210:\n    /* \"#utility.yul\":12927:12994   */\n  tag_211\n    /* \"#utility.yul\":12987:12993   */\n  dup6\n    /* \"#utility.yul\":12980:12985   */\n  dup3\n    /* \"#utility.yul\":12927:12994   */\n  tag_70\n  jump\t// in\ntag_211:\n    /* \"#utility.yul\":12921:12925   */\n  dup7\n    /* \"#utility.yul\":12914:12995   */\n  sstore\n    /* \"#utility.yul\":12783:13005   */\n  pop\n    /* \"#utility.yul\":12118:13005   */\n  jump(tag_208)\n    /* \"#utility.yul\":12148:12766   */\ntag_209:\n    /* \"#utility.yul\":12200:12204   */\n  0x1f\n    /* \"#utility.yul\":12196:12205   */\n  not\n    /* \"#utility.yul\":12188:12194   */\n  dup5\n    /* \"#utility.yul\":12184:12206   */\n  and\n    /* \"#utility.yul\":12234:12271   */\n  tag_212\n    /* \"#utility.yul\":12266:12270   */\n  dup7\n    /* \"#utility.yul\":12234:12271   */\n  tag_55\n  jump\t// in\ntag_212:\n    /* \"#utility.yul\":12293:12294   */\n  0x00\n    /* \"#utility.yul\":12307:12515   */\ntag_213:\n    /* \"#utility.yul\":12321:12328   */\n  dup3\n    /* \"#utility.yul\":12318:12319   */\n  dup2\n    /* \"#utility.yul\":12315:12329   */\n  lt\n    /* \"#utility.yul\":12307:12515   */\n  iszero\n  tag_215\n  jumpi\n    /* \"#utility.yul\":12400:12409   */\n  dup5\n    /* \"#utility.yul\":12395:12398   */\n  dup10\n    /* \"#utility.yul\":12391:12410   */\n  add\n    /* \"#utility.yul\":12385:12411   */\n  mload\n    /* \"#utility.yul\":12377:12383   */\n  dup3\n    /* \"#utility.yul\":12370:12412   */\n  sstore\n    /* \"#utility.yul\":12451:12452   */\n  0x01\n    /* \"#utility.yul\":12443:12449   */\n  dup3\n    /* \"#utility.yul\":12439:12453   */\n  add\n    /* \"#utility.yul\":12429:12453   */\n  swap2\n  pop\n    /* \"#utility.yul\":12498:12500   */\n  0x20\n    /* \"#utility.yul\":12487:12496   */\n  dup6\n    /* \"#utility.yul\":12483:12501   */\n  add\n    /* \"#utility.yul\":12470:12501   */\n  swap5\n  pop\n    /* \"#utility.yul\":12344:12348   */\n  0x20\n    /* \"#utility.yul\":12341:12342   */\n  dup2\n    /* \"#utility.yul\":12337:12349   */\n  add\n    /* \"#utility.yul\":12332:12349   */\n  swap1\n  pop\n    /* \"#utility.yul\":12307:12515   */\n  jump(tag_213)\ntag_215:\n    /* \"#utility.yul\":12543:12549   */\n  dup7\n    /* \"#utility.yul\":12534:12541   */\n  dup4\n    /* \"#utility.yul\":12531:12550   */\n  lt\n    /* \"#utility.yul\":12528:12707   */\n  iszero\n  tag_216\n  jumpi\n    /* \"#utility.yul\":12601:12610   */\n  dup5\n    /* \"#utility.yul\":12596:12599   */\n  dup10\n    /* \"#utility.yul\":12592:12611   */\n  add\n    /* \"#utility.yul\":12586:12612   */\n  mload\n    /* \"#utility.yul\":12644:12692   */\n  tag_217\n    /* \"#utility.yul\":12686:12690   */\n  0x1f\n    /* \"#utility.yul\":12678:12684   */\n  dup10\n    /* \"#utility.yul\":12674:12691   */\n  and\n    /* \"#utility.yul\":12663:12672   */\n  dup3\n    /* \"#utility.yul\":12644:12692   */\n  tag_69\n  jump\t// in\ntag_217:\n    /* \"#utility.yul\":12636:12642   */\n  dup4\n    /* \"#utility.yul\":12629:12693   */\n  sstore\n    /* \"#utility.yul\":12551:12707   */\n  pop\n    /* \"#utility.yul\":12528:12707   */\ntag_216:\n    /* \"#utility.yul\":12753:12754   */\n  0x01\n    /* \"#utility.yul\":12749:12750   */\n  0x02\n    /* \"#utility.yul\":12741:12747   */\n  dup9\n    /* \"#utility.yul\":12737:12751   */\n  mul\n    /* \"#utility.yul\":12733:12755   */\n  add\n    /* \"#utility.yul\":12727:12731   */\n  dup9\n    /* \"#utility.yul\":12720:12756   */\n  sstore\n    /* \"#utility.yul\":12155:12766   */\n  pop\n  pop\n  pop\n    /* \"#utility.yul\":12118:13005   */\ntag_208:\n  pop\n    /* \"#utility.yul\":11708:13011   */\n  pop\n  pop\n  pop\n    /* \"#utility.yul\":11616:13011   */\n  pop\n  pop\n  jump\t// out\n    /* \"#utility.yul\":13017:13197   */\ntag_71:\n    /* \"#utility.yul\":13065:13142   */\n  0x4e487b7100000000000000000000000000000000000000000000000000000000\n    /* \"#utility.yul\":13062:13063   */\n  0x00\n    /* \"#utility.yul\":13055:13143   */\n  mstore\n    /* \"#utility.yul\":13162:13166   */\n  0x11\n    /* \"#utility.yul\":13159:13160   */\n  0x04\n    /* \"#utility.yul\":13152:13167   */\n  mstore\n    /* \"#utility.yul\":13186:13190   */\n  0x24\n    /* \"#utility.yul\":13183:13184   */\n  0x00\n    /* \"#utility.yul\":13176:13191   */\n  revert\n    /* \"#utility.yul\":13203:13613   */\ntag_16:\n    /* \"#utility.yul\":13243:13250   */\n  0x00\n    /* \"#utility.yul\":13266:13286   */\n  tag_220\n    /* \"#utility.yul\":13284:13285   */\n  dup3\n    /* \"#utility.yul\":13266:13286   */\n  tag_59\n  jump\t// in\ntag_220:\n    /* \"#utility.yul\":13261:13286   */\n  swap2\n  pop\n    /* \"#utility.yul\":13300:13320   */\n  tag_221\n    /* \"#utility.yul\":13318:13319   */\n  dup4\n    /* \"#utility.yul\":13300:13320   */\n  tag_59\n  jump\t// in\ntag_221:\n    /* \"#utility.yul\":13295:13320   */\n  swap3\n  pop\n    /* \"#utility.yul\":13355:13356   */\n  dup3\n    /* \"#utility.yul\":13352:13353   */\n  dup3\n    /* \"#utility.yul\":13348:13357   */\n  mul\n    /* \"#utility.yul\":13377:13407   */\n  tag_222\n    /* \"#utility.yul\":13395:13406   */\n  dup2\n    /* \"#utility.yul\":13377:13407   */\n  tag_59\n  jump\t// in\ntag_222:\n    /* \"#utility.yul\":13366:13407   */\n  swap2\n  pop\n    /* \"#utility.yul\":13556:13557   */\n  dup3\n    /* \"#utility.yul\":13547:13554   */\n  dup3\n    /* \"#utility.yul\":13543:13558   */\n  div\n    /* \"#utility.yul\":13540:13541   */\n  dup5\n    /* \"#utility.yul\":13537:13559   */\n  eq\n    /* \"#utility.yul\":13517:13518   */\n  dup4\n    /* \"#utility.yul\":13510:13519   */\n  iszero\n    /* \"#utility.yul\":13490:13573   */\n  or\n    /* \"#utility.yul\":13467:13606   */\n  tag_223\n  jumpi\n    /* \"#utility.yul\":13586:13604   */\n  tag_224\n  tag_71\n  jump\t// in\ntag_224:\n    /* \"#utility.yul\":13467:13606   */\ntag_223:\n    /* \"#utility.yul\":13251:13613   */\n  pop\n    /* \"#utility.yul\":13203:13613   */\n  swap3\n  swap2\n  pop\n  pop\n  jump\t// out\n    /* \"#utility.yul\":13619:13799   */\ntag_72:\n    /* \"#utility.yul\":13667:13744   */\n  0x4e487b7100000000000000000000000000000000000000000000000000000000\n    /* \"#utility.yul\":13664:13665   */\n  0x00\n    /* \"#utility.yul\":13657:13745   */\n  mstore\n    /* \"#utility.yul\":13764:13768   */\n  0x12\n    /* \"#utility.yul\":13761:13762   */\n  0x04\n    /* \"#utility.yul\":13754:13769   */\n  mstore\n    /* \"#utility.yul\":13788:13792   */\n  0x24\n    /* \"#utility.yul\":13785:13786   */\n  0x00\n    /* \"#utility.yul\":13778:13793   */\n  revert\n    /* \"#utility.yul\":13805:13990   */\ntag_18:\n    /* \"#utility.yul\":13845:13846   */\n  0x00\n    /* \"#utility.yul\":13862:13882   */\n  tag_227\n    /* \"#utility.yul\":13880:13881   */\n  dup3\n    /* \"#utility.yul\":13862:13882   */\n  tag_59\n  jump\t// in\ntag_227:\n    /* \"#utility.yul\":13857:13882   */\n  swap2\n  pop\n    /* \"#utility.yul\":13896:13916   */\n  tag_228\n    /* \"#utility.yul\":13914:13915   */\n  dup4\n    /* \"#utility.yul\":13896:13916   */\n  tag_59\n  jump\t// in\ntag_228:\n    /* \"#utility.yul\":13891:13916   */\n  swap3\n  pop\n    /* \"#utility.yul\":13935:13936   */\n  dup3\n    /* \"#utility.yul\":13925:13960   */\n  tag_229\n  jumpi\n    /* \"#utility.yul\":13940:13958   */\n  tag_230\n  tag_72\n  jump\t// in\ntag_230:\n    /* \"#utility.yul\":13925:13960   */\ntag_229:\n    /* \"#utility.yul\":13982:13983   */\n  dup3\n    /* \"#utility.yul\":13979:13980   */\n  dup3\n    /* \"#utility.yul\":13975:13984   */\n  div\n    /* \"#utility.yul\":13970:13984   */\n  swap1\n  pop\n    /* \"#utility.yul\":13805:13990   */\n  swap3\n  swap2\n  pop\n  pop\n  jump\t// out\n    /* \"Lottogemeinschaft.sol\":1747:7718  contract Lottogemeinschaft {... */\ntag_20:\n  dataSize(sub_0)\n  dup1\n  dataOffset(sub_0)\n  0x00\n  codecopy\n  0x00\n  return\nstop\n\nsub_0: assembly {\n        /* \"Lottogemeinschaft.sol\":1747:7718  contract Lottogemeinschaft {... */\n      mstore(0x40, 0x80)\n      jumpi(tag_1, lt(calldatasize, 0x04))\n      shr(0xe0, calldataload(0x00))\n      dup1\n      0x8acb4624\n      gt\n      tag_27\n      jumpi\n      dup1\n      0xbb68a67f\n      gt\n      tag_28\n      jumpi\n      dup1\n      0xd27d06c0\n      gt\n      tag_29\n      jumpi\n      dup1\n      0xd27d06c0\n      eq\n      tag_23\n      jumpi\n      dup1\n      0xe068561a\n      eq\n      tag_24\n      jumpi\n      dup1\n      0xe34ad1d7\n      eq\n      tag_25\n      jumpi\n      dup1\n      0xe86c5692\n      eq\n      tag_26\n      jumpi\n      jump(tag_1)\n    tag_29:\n      dup1\n      0xbb68a67f\n      eq\n      tag_20\n      jumpi\n      dup1\n      0xc6ca9d19\n      eq\n      tag_21\n      jumpi\n      dup1\n      0xc88c8b28\n      eq\n      tag_22\n      jumpi\n      jump(tag_1)\n    tag_28:\n      dup1\n      0x8acb4624\n      eq\n      tag_14\n      jumpi\n      dup1\n      0x91243239\n      eq\n      tag_15\n      jumpi\n      dup1\n      0xa299f171\n      eq\n      tag_16\n      jumpi\n      dup1\n      0xab76211e\n      eq\n      tag_17\n      jumpi\n      dup1\n      0xad2c046c\n      eq\n      tag_18\n      jumpi\n      dup1\n      0xb08c7076\n      eq\n      tag_19\n      jumpi\n      jump(tag_1)\n    tag_27:\n      dup1\n      0x3babb15a\n      gt\n      tag_30\n      jumpi\n      dup1\n      0x3babb15a\n      eq\n      tag_8\n      jumpi\n      dup1\n      0x3f0f5d51\n      eq\n      tag_9\n      jumpi\n      dup1\n      0x43767832\n      eq\n      tag_10\n      jumpi\n      dup1\n      0x526024ea\n      eq\n      tag_11\n      jumpi\n      dup1\n      0x70a41bc0\n      eq\n      tag_12\n      jumpi\n      dup1\n      0x833e92cb\n      eq\n      tag_13\n      jumpi\n      jump(tag_1)\n    tag_30:\n      dup1\n      0x084263f5\n      eq\n      tag_2\n      jumpi\n      dup1\n      0x0f085e50\n      eq\n      tag_3\n      jumpi\n      dup1\n      0x2340983f\n      eq\n      tag_4\n      jumpi\n      dup1\n      0x2df368a5\n      eq\n      tag_5\n      jumpi\n      dup1\n      0x31c45120\n      eq\n      tag_6\n      jumpi\n      dup1\n      0x36927060\n      eq\n      tag_7\n      jumpi\n    tag_1:\n      0x00\n      dup1\n      revert\n        /* \"Lottogemeinschaft.sol\":2003:2027  uint96 public auszahlung */\n    tag_2:\n      callvalue\n      dup1\n      iszero\n      tag_31\n      jumpi\n      0x00\n      dup1\n      revert\n    tag_31:\n      pop\n      tag_32\n      tag_33\n      jump\t// in\n    tag_32:\n      mload(0x40)\n      tag_34\n      swap2\n      swap1\n      tag_35\n      jump\t// in\n    tag_34:\n      mload(0x40)\n      dup1\n      swap2\n      sub\n      swap1\n      return\n        /* \"Lottogemeinschaft.sol\":2237:2274  uint48 public gewinnProMitspieler = 0 */\n    tag_3:\n      callvalue\n      dup1\n      iszero\n      tag_36\n      jumpi\n      0x00\n      dup1\n      revert\n    tag_36:\n      pop\n      tag_37\n      tag_38\n      jump\t// in\n    tag_37:\n      mload(0x40)\n      tag_39\n      swap2\n      swap1\n      tag_40\n      jump\t// in\n    tag_39:\n      mload(0x40)\n      dup1\n      swap2\n      sub\n      swap1\n      return\n        /* \"Lottogemeinschaft.sol\":2280:2322  bool public gewinnKannAbgeholtWerden=false */\n    tag_4:\n      callvalue\n      dup1\n      iszero\n      tag_41\n      jumpi\n      0x00\n      dup1\n      revert\n    tag_41:\n      pop\n      tag_42\n      tag_43\n      jump\t// in\n    tag_42:\n      mload(0x40)\n      tag_44\n      swap2\n      swap1\n      tag_45\n      jump\t// in\n    tag_44:\n      mload(0x40)\n      dup1\n      swap2\n      sub\n      swap1\n      return\n        /* \"Lottogemeinschaft.sol\":1926:1958  uint96 public preisProMitspieler */\n    tag_5:\n      callvalue\n      dup1\n      iszero\n      tag_46\n      jumpi\n      0x00\n      dup1\n      revert\n    tag_46:\n      pop\n      tag_47\n      tag_48\n      jump\t// in\n    tag_47:\n      mload(0x40)\n      tag_49\n      swap2\n      swap1\n      tag_35\n      jump\t// in\n    tag_49:\n      mload(0x40)\n      dup1\n      swap2\n      sub\n      swap1\n      return\n        /* \"Lottogemeinschaft.sol\":5996:6232  function preisLottoscheinAendern(uint32 neuerPreis) public restictedToGruender{... */\n    tag_6:\n      callvalue\n      dup1\n      iszero\n      tag_50\n      jumpi\n      0x00\n      dup1\n      revert\n    tag_50:\n      pop\n      tag_51\n      0x04\n      dup1\n      calldatasize\n      sub\n      dup2\n      add\n      swap1\n      tag_52\n      swap2\n      swap1\n      tag_53\n      jump\t// in\n    tag_52:\n      tag_54\n      jump\t// in\n    tag_51:\n      stop\n        /* \"Lottogemeinschaft.sol\":2033:2075  mapping(address => bool) public mitspieler */\n    tag_7:\n      callvalue\n      dup1\n      iszero\n      tag_55\n      jumpi\n      0x00\n      dup1\n      revert\n    tag_55:\n      pop\n      tag_56\n      0x04\n      dup1\n      calldatasize\n      sub\n      dup2\n      add\n      swap1\n      tag_57\n      swap2\n      swap1\n      tag_58\n      jump\t// in\n    tag_57:\n      tag_59\n      jump\t// in\n    tag_56:\n      mload(0x40)\n      tag_60\n      swap2\n      swap1\n      tag_45\n      jump\t// in\n    tag_60:\n      mload(0x40)\n      dup1\n      swap2\n      sub\n      swap1\n      return\n        /* \"Lottogemeinschaft.sol\":2194:2231  uint16 public anzahlTeilnehmerAktuell */\n    tag_8:\n      callvalue\n      dup1\n      iszero\n      tag_61\n      jumpi\n      0x00\n      dup1\n      revert\n    tag_61:\n      pop\n      tag_62\n      tag_63\n      jump\t// in\n    tag_62:\n      mload(0x40)\n      tag_64\n      swap2\n      swap1\n      tag_65\n      jump\t// in\n    tag_64:\n      mload(0x40)\n      dup1\n      swap2\n      sub\n      swap1\n      return\n        /* \"Lottogemeinschaft.sol\":1890:1920  uint96 public preisLottoschein */\n    tag_9:\n      callvalue\n      dup1\n      iszero\n      tag_66\n      jumpi\n      0x00\n      dup1\n      revert\n    tag_66:\n      pop\n      tag_67\n      tag_68\n      jump\t// in\n    tag_67:\n      mload(0x40)\n      tag_69\n      swap2\n      swap1\n      tag_35\n      jump\t// in\n    tag_69:\n      mload(0x40)\n      dup1\n      swap2\n      sub\n      swap1\n      return\n        /* \"Lottogemeinschaft.sol\":6530:6804  function erlaubteMitspielerAdresseHinzufuegen(address _erlaubterMitspieler) public restictedToGruender{... */\n    tag_10:\n      callvalue\n      dup1\n      iszero\n      tag_70\n      jumpi\n      0x00\n      dup1\n      revert\n    tag_70:\n      pop\n      tag_71\n      0x04\n      dup1\n      calldatasize\n      sub\n      dup2\n      add\n      swap1\n      tag_72\n      swap2\n      swap1\n      tag_58\n      jump\t// in\n    tag_72:\n      tag_73\n      jump\t// in\n    tag_71:\n      stop\n        /* \"Lottogemeinschaft.sol\":3610:4450  function mitmachen() public payable {... */\n    tag_11:\n      tag_74\n      tag_75\n      jump\t// in\n    tag_74:\n      stop\n        /* \"Lottogemeinschaft.sol\":1851:1884  uint16 public maxTeilnehmerAnzahl */\n    tag_12:\n      callvalue\n      dup1\n      iszero\n      tag_76\n      jumpi\n      0x00\n      dup1\n      revert\n    tag_76:\n      pop\n      tag_77\n      tag_78\n      jump\t// in\n    tag_77:\n      mload(0x40)\n      tag_79\n      swap2\n      swap1\n      tag_65\n      jump\t// in\n    tag_79:\n      mload(0x40)\n      dup1\n      swap2\n      sub\n      swap1\n      return\n        /* \"Lottogemeinschaft.sol\":5505:5989  function gewinnAbholen() public restictedToMitspieler nonReentrant {... */\n    tag_13:\n      callvalue\n      dup1\n      iszero\n      tag_80\n      jumpi\n      0x00\n      dup1\n      revert\n    tag_80:\n      pop\n      tag_81\n      tag_82\n      jump\t// in\n    tag_81:\n      stop\n        /* \"Lottogemeinschaft.sol\":1964:1997  string public spielauftragsNummer */\n    tag_14:\n      callvalue\n      dup1\n      iszero\n      tag_83\n      jumpi\n      0x00\n      dup1\n      revert\n    tag_83:\n      pop\n      tag_84\n      tag_85\n      jump\t// in\n    tag_84:\n      mload(0x40)\n      tag_86\n      swap2\n      swap1\n      tag_87\n      jump\t// in\n    tag_86:\n      mload(0x40)\n      dup1\n      swap2\n      sub\n      swap1\n      return\n        /* \"Lottogemeinschaft.sol\":2081:2129  mapping(address => bool) public gewinnAusgezahlt */\n    tag_15:\n      callvalue\n      dup1\n      iszero\n      tag_88\n      jumpi\n      0x00\n      dup1\n      revert\n    tag_88:\n      pop\n      tag_89\n      0x04\n      dup1\n      calldatasize\n      sub\n      dup2\n      add\n      swap1\n      tag_90\n      swap2\n      swap1\n      tag_58\n      jump\t// in\n    tag_90:\n      tag_91\n      jump\t// in\n    tag_89:\n      mload(0x40)\n      tag_92\n      swap2\n      swap1\n      tag_45\n      jump\t// in\n    tag_92:\n      mload(0x40)\n      dup1\n      swap2\n      sub\n      swap1\n      return\n        /* \"Lottogemeinschaft.sol\":7218:7716  function einsatzZurueckholen() public payable restictedToMitspieler nonReentrant {... */\n    tag_16:\n      tag_93\n      tag_94\n      jump\t// in\n    tag_93:\n      stop\n        /* \"Lottogemeinschaft.sol\":6905:7162  function gemeinschaftAufloesen() public restictedToGruender {... */\n    tag_17:\n      callvalue\n      dup1\n      iszero\n      tag_95\n      jumpi\n      0x00\n      dup1\n      revert\n    tag_95:\n      pop\n      tag_96\n      tag_97\n      jump\t// in\n    tag_96:\n      stop\n        /* \"Lottogemeinschaft.sol\":1781:1804  address public gruender */\n    tag_18:\n      callvalue\n      dup1\n      iszero\n      tag_98\n      jumpi\n      0x00\n      dup1\n      revert\n    tag_98:\n      pop\n      tag_99\n      tag_100\n      jump\t// in\n    tag_99:\n      mload(0x40)\n      tag_101\n      swap2\n      swap1\n      tag_102\n      jump\t// in\n    tag_101:\n      mload(0x40)\n      dup1\n      swap2\n      sub\n      swap1\n      return\n        /* \"Lottogemeinschaft.sol\":2328:2367  bool public nurErlaubteMitspieler=false */\n    tag_19:\n      callvalue\n      dup1\n      iszero\n      tag_103\n      jumpi\n      0x00\n      dup1\n      revert\n    tag_103:\n      pop\n      tag_104\n      tag_105\n      jump\t// in\n    tag_104:\n      mload(0x40)\n      tag_106\n      swap2\n      swap1\n      tag_45\n      jump\t// in\n    tag_106:\n      mload(0x40)\n      dup1\n      swap2\n      sub\n      swap1\n      return\n        /* \"Lottogemeinschaft.sol\":2135:2188  mapping(address => bool) public einsatzZurueckGezahlt */\n    tag_20:\n      callvalue\n      dup1\n      iszero\n      tag_107\n      jumpi\n      0x00\n      dup1\n      revert\n    tag_107:\n      pop\n      tag_108\n      0x04\n      dup1\n      calldatasize\n      sub\n      dup2\n      add\n      swap1\n      tag_109\n      swap2\n      swap1\n      tag_58\n      jump\t// in\n    tag_109:\n      tag_110\n      jump\t// in\n    tag_108:\n      mload(0x40)\n      tag_111\n      swap2\n      swap1\n      tag_45\n      jump\t// in\n    tag_111:\n      mload(0x40)\n      dup1\n      swap2\n      sub\n      swap1\n      return\n        /* \"Lottogemeinschaft.sol\":4799:5457  function gewinnEinzahlen(uint48 gewinn) public payable restictedToGruender {... */\n    tag_21:\n      tag_112\n      0x04\n      dup1\n      calldatasize\n      sub\n      dup2\n      add\n      swap1\n      tag_113\n      swap2\n      swap1\n      tag_114\n      jump\t// in\n    tag_113:\n      tag_115\n      jump\t// in\n    tag_112:\n      stop\n        /* \"Lottogemeinschaft.sol\":4456:4750  function einsatzAbholen() public payable nonReentrant restictedToGruender{... */\n    tag_22:\n      tag_116\n      tag_117\n      jump\t// in\n    tag_116:\n      stop\n        /* \"Lottogemeinschaft.sol\":1810:1845  string public tippgemeinschaftsName */\n    tag_23:\n      callvalue\n      dup1\n      iszero\n      tag_118\n      jumpi\n      0x00\n      dup1\n      revert\n    tag_118:\n      pop\n      tag_119\n      tag_120\n      jump\t// in\n    tag_119:\n      mload(0x40)\n      tag_121\n      swap2\n      swap1\n      tag_87\n      jump\t// in\n    tag_121:\n      mload(0x40)\n      dup1\n      swap2\n      sub\n      swap1\n      return\n        /* \"Lottogemeinschaft.sol\":6238:6524  function anzahlMitspielerAendern(uint16 neueAnzahlMaxTeilnehmer) public restictedToGruender{... */\n    tag_24:\n      callvalue\n      dup1\n      iszero\n      tag_122\n      jumpi\n      0x00\n      dup1\n      revert\n    tag_122:\n      pop\n      tag_123\n      0x04\n      dup1\n      calldatasize\n      sub\n      dup2\n      add\n      swap1\n      tag_124\n      swap2\n      swap1\n      tag_125\n      jump\t// in\n    tag_124:\n      tag_126\n      jump\t// in\n    tag_123:\n      stop\n        /* \"Lottogemeinschaft.sol\":2455:2477  bool public aufgeloest */\n    tag_25:\n      callvalue\n      dup1\n      iszero\n      tag_127\n      jumpi\n      0x00\n      dup1\n      revert\n    tag_127:\n      pop\n      tag_128\n      tag_129\n      jump\t// in\n    tag_128:\n      mload(0x40)\n      tag_130\n      swap2\n      swap1\n      tag_45\n      jump\t// in\n    tag_130:\n      mload(0x40)\n      dup1\n      swap2\n      sub\n      swap1\n      return\n        /* \"Lottogemeinschaft.sol\":2373:2424  mapping(address => bool) public erlaubterMitspieler */\n    tag_26:\n      callvalue\n      dup1\n      iszero\n      tag_131\n      jumpi\n      0x00\n      dup1\n      revert\n    tag_131:\n      pop\n      tag_132\n      0x04\n      dup1\n      calldatasize\n      sub\n      dup2\n      add\n      swap1\n      tag_133\n      swap2\n      swap1\n      tag_58\n      jump\t// in\n    tag_133:\n      tag_134\n      jump\t// in\n    tag_132:\n      mload(0x40)\n      tag_135\n      swap2\n      swap1\n      tag_45\n      jump\t// in\n    tag_135:\n      mload(0x40)\n      dup1\n      swap2\n      sub\n      swap1\n      return\n        /* \"Lottogemeinschaft.sol\":2003:2027  uint96 public auszahlung */\n    tag_33:\n      0x04\n      0x00\n      swap1\n      sload\n      swap1\n      0x0100\n      exp\n      swap1\n      div\n      0xffffffffffffffffffffffff\n      and\n      dup2\n      jump\t// out\n        /* \"Lottogemeinschaft.sol\":2237:2274  uint48 public gewinnProMitspieler = 0 */\n    tag_38:\n      0x08\n      0x02\n      swap1\n      sload\n      swap1\n      0x0100\n      exp\n      swap1\n      div\n      0xffffffffffff\n      and\n      dup2\n      jump\t// out\n        /* \"Lottogemeinschaft.sol\":2280:2322  bool public gewinnKannAbgeholtWerden=false */\n    tag_43:\n      0x08\n      dup1\n      sload\n      swap1\n      0x0100\n      exp\n      swap1\n      div\n      0xff\n      and\n      dup2\n      jump\t// out\n        /* \"Lottogemeinschaft.sol\":1926:1958  uint96 public preisProMitspieler */\n    tag_48:\n      0x02\n      0x0e\n      swap1\n      sload\n      swap1\n      0x0100\n      exp\n      swap1\n      div\n      0xffffffffffffffffffffffff\n      and\n      dup2\n      jump\t// out\n        /* \"Lottogemeinschaft.sol\":5996:6232  function preisLottoscheinAendern(uint32 neuerPreis) public restictedToGruender{... */\n    tag_54:\n        /* \"Lottogemeinschaft.sol\":3235:3243  gruender */\n      0x00\n      dup1\n      sload\n      swap1\n      0x0100\n      exp\n      swap1\n      div\n      0xffffffffffffffffffffffffffffffffffffffff\n      and\n        /* \"Lottogemeinschaft.sol\":3221:3243  msg.sender == gruender */\n      0xffffffffffffffffffffffffffffffffffffffff\n      and\n        /* \"Lottogemeinschaft.sol\":3221:3231  msg.sender */\n      caller\n        /* \"Lottogemeinschaft.sol\":3221:3243  msg.sender == gruender */\n      0xffffffffffffffffffffffffffffffffffffffff\n      and\n      eq\n        /* \"Lottogemeinschaft.sol\":3213:3296  require(msg.sender == gruender, \"Nur der Gruender kann diese Funktion ausfuehren.\") */\n      tag_137\n      jumpi\n      mload(0x40)\n      0x08c379a000000000000000000000000000000000000000000000000000000000\n      dup2\n      mstore\n      0x04\n      add\n      tag_138\n      swap1\n      tag_139\n      jump\t// in\n    tag_138:\n      mload(0x40)\n      dup1\n      swap2\n      sub\n      swap1\n      revert\n    tag_137:\n        /* \"Lottogemeinschaft.sol\":6117:6118  0 */\n      0x00\n        /* \"Lottogemeinschaft.sol\":6092:6115  anzahlTeilnehmerAktuell */\n      0x08\n      0x00\n      swap1\n      sload\n      swap1\n      0x0100\n      exp\n      swap1\n      div\n      0xffff\n      and\n        /* \"Lottogemeinschaft.sol\":6092:6118  anzahlTeilnehmerAktuell==0 */\n      0xffff\n      and\n      eq\n        /* \"Lottogemeinschaft.sol\":6084:6186  require(anzahlTeilnehmerAktuell==0, \"Es gibt bereits Mitspieler. Preisaenderung nicht mehr moeglich.\") */\n      tag_141\n      jumpi\n      mload(0x40)\n      0x08c379a000000000000000000000000000000000000000000000000000000000\n      dup2\n      mstore\n      0x04\n      add\n      tag_142\n      swap1\n      tag_143\n      jump\t// in\n    tag_142:\n      mload(0x40)\n      dup1\n      swap2\n      sub\n      swap1\n      revert\n    tag_141:\n        /* \"Lottogemeinschaft.sol\":6215:6225  neuerPreis */\n      dup1\n        /* \"Lottogemeinschaft.sol\":6196:6225  preisLottoschein = neuerPreis */\n      0xffffffff\n      and\n        /* \"Lottogemeinschaft.sol\":6196:6212  preisLottoschein */\n      0x02\n      dup1\n        /* \"Lottogemeinschaft.sol\":6196:6225  preisLottoschein = neuerPreis */\n      0x0100\n      exp\n      dup2\n      sload\n      dup2\n      0xffffffffffffffffffffffff\n      mul\n      not\n      and\n      swap1\n      dup4\n      0xffffffffffffffffffffffff\n      and\n      mul\n      or\n      swap1\n      sstore\n      pop\n        /* \"Lottogemeinschaft.sol\":5996:6232  function preisLottoscheinAendern(uint32 neuerPreis) public restictedToGruender{... */\n      pop\n      jump\t// out\n        /* \"Lottogemeinschaft.sol\":2033:2075  mapping(address => bool) public mitspieler */\n    tag_59:\n      mstore(0x20, 0x05)\n      dup1\n      0x00\n      mstore\n      keccak256(0x00, 0x40)\n      0x00\n      swap2\n      pop\n      sload\n      swap1\n      0x0100\n      exp\n      swap1\n      div\n      0xff\n      and\n      dup2\n      jump\t// out\n        /* \"Lottogemeinschaft.sol\":2194:2231  uint16 public anzahlTeilnehmerAktuell */\n    tag_63:\n      0x08\n      0x00\n      swap1\n      sload\n      swap1\n      0x0100\n      exp\n      swap1\n      div\n      0xffff\n      and\n      dup2\n      jump\t// out\n        /* \"Lottogemeinschaft.sol\":1890:1920  uint96 public preisLottoschein */\n    tag_68:\n      0x02\n      dup1\n      sload\n      swap1\n      0x0100\n      exp\n      swap1\n      div\n      0xffffffffffffffffffffffff\n      and\n      dup2\n      jump\t// out\n        /* \"Lottogemeinschaft.sol\":6530:6804  function erlaubteMitspielerAdresseHinzufuegen(address _erlaubterMitspieler) public restictedToGruender{... */\n    tag_73:\n        /* \"Lottogemeinschaft.sol\":3235:3243  gruender */\n      0x00\n      dup1\n      sload\n      swap1\n      0x0100\n      exp\n      swap1\n      div\n      0xffffffffffffffffffffffffffffffffffffffff\n      and\n        /* \"Lottogemeinschaft.sol\":3221:3243  msg.sender == gruender */\n      0xffffffffffffffffffffffffffffffffffffffff\n      and\n        /* \"Lottogemeinschaft.sol\":3221:3231  msg.sender */\n      caller\n        /* \"Lottogemeinschaft.sol\":3221:3243  msg.sender == gruender */\n      0xffffffffffffffffffffffffffffffffffffffff\n      and\n      eq\n        /* \"Lottogemeinschaft.sol\":3213:3296  require(msg.sender == gruender, \"Nur der Gruender kann diese Funktion ausfuehren.\") */\n      tag_145\n      jumpi\n      mload(0x40)\n      0x08c379a000000000000000000000000000000000000000000000000000000000\n      dup2\n      mstore\n      0x04\n      add\n      tag_146\n      swap1\n      tag_139\n      jump\t// in\n    tag_146:\n      mload(0x40)\n      dup1\n      swap2\n      sub\n      swap1\n      revert\n    tag_145:\n        /* \"Lottogemeinschaft.sol\":6675:6676  0 */\n      0x00\n        /* \"Lottogemeinschaft.sol\":6650:6673  anzahlTeilnehmerAktuell */\n      0x08\n      0x00\n      swap1\n      sload\n      swap1\n      0x0100\n      exp\n      swap1\n      div\n      0xffff\n      and\n        /* \"Lottogemeinschaft.sol\":6650:6676  anzahlTeilnehmerAktuell==0 */\n      0xffff\n      and\n      eq\n        /* \"Lottogemeinschaft.sol\":6642:6739  require(anzahlTeilnehmerAktuell==0, \"Es gibt bereits Mitspieler. Aenderung nicht mehr moeglich.\") */\n      tag_148\n      jumpi\n      mload(0x40)\n      0x08c379a000000000000000000000000000000000000000000000000000000000\n      dup2\n      mstore\n      0x04\n      add\n      tag_149\n      swap1\n      tag_150\n      jump\t// in\n    tag_149:\n      mload(0x40)\n      dup1\n      swap2\n      sub\n      swap1\n      revert\n    tag_148:\n        /* \"Lottogemeinschaft.sol\":6793:6797  true */\n      0x01\n        /* \"Lottogemeinschaft.sol\":6749:6768  erlaubterMitspieler */\n      0x09\n        /* \"Lottogemeinschaft.sol\":6749:6790  erlaubterMitspieler[_erlaubterMitspieler] */\n      0x00\n        /* \"Lottogemeinschaft.sol\":6769:6789  _erlaubterMitspieler */\n      dup4\n        /* \"Lottogemeinschaft.sol\":6749:6790  erlaubterMitspieler[_erlaubterMitspieler] */\n      0xffffffffffffffffffffffffffffffffffffffff\n      and\n      0xffffffffffffffffffffffffffffffffffffffff\n      and\n      dup2\n      mstore\n      0x20\n      add\n      swap1\n      dup2\n      mstore\n      0x20\n      add\n      0x00\n      keccak256\n      0x00\n        /* \"Lottogemeinschaft.sol\":6749:6797  erlaubterMitspieler[_erlaubterMitspieler] = true */\n      0x0100\n      exp\n      dup2\n      sload\n      dup2\n      0xff\n      mul\n      not\n      and\n      swap1\n      dup4\n      iszero\n      iszero\n      mul\n      or\n      swap1\n      sstore\n      pop\n        /* \"Lottogemeinschaft.sol\":6530:6804  function erlaubteMitspielerAdresseHinzufuegen(address _erlaubterMitspieler) public restictedToGruender{... */\n      pop\n      jump\t// out\n        /* \"Lottogemeinschaft.sol\":3610:4450  function mitmachen() public payable {... */\n    tag_75:\n        /* \"Lottogemeinschaft.sol\":3697:3698  0 */\n      0x00\n        /* \"Lottogemeinschaft.sol\":3678:3696  preisProMitspieler */\n      0x02\n      0x0e\n      swap1\n      sload\n      swap1\n      0x0100\n      exp\n      swap1\n      div\n      0xffffffffffffffffffffffff\n      and\n        /* \"Lottogemeinschaft.sol\":3678:3698  preisProMitspieler>0 */\n      0xffffffffffffffffffffffff\n      and\n      gt\n        /* \"Lottogemeinschaft.sol\":3670:3728  require(preisProMitspieler>0, \"Kein Preis pro Mitspieler\") */\n      tag_152\n      jumpi\n      mload(0x40)\n      0x08c379a000000000000000000000000000000000000000000000000000000000\n      dup2\n      mstore\n      0x04\n      add\n      tag_153\n      swap1\n      tag_154\n      jump\t// in\n    tag_153:\n      mload(0x40)\n      dup1\n      swap2\n      sub\n      swap1\n      revert\n    tag_152:\n        /* \"Lottogemeinschaft.sol\":3759:3777  preisProMitspieler */\n      0x02\n      0x0e\n      swap1\n      sload\n      swap1\n      0x0100\n      exp\n      swap1\n      div\n      0xffffffffffffffffffffffff\n      and\n        /* \"Lottogemeinschaft.sol\":3746:3777  msg.value >= preisProMitspieler */\n      0xffffffffffffffffffffffff\n      and\n        /* \"Lottogemeinschaft.sol\":3746:3755  msg.value */\n      callvalue\n        /* \"Lottogemeinschaft.sol\":3746:3777  msg.value >= preisProMitspieler */\n      lt\n      iszero\n        /* \"Lottogemeinschaft.sol\":3738:3811  require(msg.value >= preisProMitspieler, \"Zu geringer Einzahlungsbetrag\") */\n      tag_155\n      jumpi\n      mload(0x40)\n      0x08c379a000000000000000000000000000000000000000000000000000000000\n      dup2\n      mstore\n      0x04\n      add\n      tag_156\n      swap1\n      tag_157\n      jump\t// in\n    tag_156:\n      mload(0x40)\n      dup1\n      swap2\n      sub\n      swap1\n      revert\n    tag_155:\n        /* \"Lottogemeinschaft.sol\":3830:3840  mitspieler */\n      0x05\n        /* \"Lottogemeinschaft.sol\":3830:3852  mitspieler[msg.sender] */\n      0x00\n        /* \"Lottogemeinschaft.sol\":3841:3851  msg.sender */\n      caller\n        /* \"Lottogemeinschaft.sol\":3830:3852  mitspieler[msg.sender] */\n      0xffffffffffffffffffffffffffffffffffffffff\n      and\n      0xffffffffffffffffffffffffffffffffffffffff\n      and\n      dup2\n      mstore\n      0x20\n      add\n      swap1\n      dup2\n      mstore\n      0x20\n      add\n      0x00\n      keccak256\n      0x00\n      swap1\n      sload\n      swap1\n      0x0100\n      exp\n      swap1\n      div\n      0xff\n      and\n        /* \"Lottogemeinschaft.sol\":3829:3852  !mitspieler[msg.sender] */\n      iszero\n        /* \"Lottogemeinschaft.sol\":3821:3891  require(!mitspieler[msg.sender], \"Bereits als Mitspieler registriert\") */\n      tag_158\n      jumpi\n      mload(0x40)\n      0x08c379a000000000000000000000000000000000000000000000000000000000\n      dup2\n      mstore\n      0x04\n      add\n      tag_159\n      swap1\n      tag_160\n      jump\t// in\n    tag_159:\n      mload(0x40)\n      dup1\n      swap2\n      sub\n      swap1\n      revert\n    tag_158:\n        /* \"Lottogemeinschaft.sol\":3935:3954  maxTeilnehmerAnzahl */\n      0x02\n      0x00\n      swap1\n      sload\n      swap1\n      0x0100\n      exp\n      swap1\n      div\n      0xffff\n      and\n        /* \"Lottogemeinschaft.sol\":3909:3954  anzahlTeilnehmerAktuell < maxTeilnehmerAnzahl */\n      0xffff\n      and\n        /* \"Lottogemeinschaft.sol\":3909:3932  anzahlTeilnehmerAktuell */\n      0x08\n      0x00\n      swap1\n      sload\n      swap1\n      0x0100\n      exp\n      swap1\n      div\n      0xffff\n      and\n        /* \"Lottogemeinschaft.sol\":3909:3954  anzahlTeilnehmerAktuell < maxTeilnehmerAnzahl */\n      0xffff\n      and\n      lt\n        /* \"Lottogemeinschaft.sol\":3901:3991  require(anzahlTeilnehmerAktuell < maxTeilnehmerAnzahl, \"Maximale Teilnehmerzahl erreicht\") */\n      tag_161\n      jumpi\n      mload(0x40)\n      0x08c379a000000000000000000000000000000000000000000000000000000000\n      dup2\n      mstore\n      0x04\n      add\n      tag_162\n      swap1\n      tag_163\n      jump\t// in\n    tag_162:\n      mload(0x40)\n      dup1\n      swap2\n      sub\n      swap1\n      revert\n    tag_161:\n        /* \"Lottogemeinschaft.sol\":4030:4031  0 */\n      0x00\n        /* \"Lottogemeinschaft.sol\":4009:4028  gewinnProMitspieler */\n      0x08\n      0x02\n      swap1\n      sload\n      swap1\n      0x0100\n      exp\n      swap1\n      div\n      0xffffffffffff\n      and\n        /* \"Lottogemeinschaft.sol\":4009:4031  gewinnProMitspieler==0 */\n      0xffffffffffff\n      and\n      eq\n        /* \"Lottogemeinschaft.sol\":4001:4067  require(gewinnProMitspieler==0, \"Gewinn wurde bereits eingezahlt\") */\n      tag_164\n      jumpi\n      mload(0x40)\n      0x08c379a000000000000000000000000000000000000000000000000000000000\n      dup2\n      mstore\n      0x04\n      add\n      tag_165\n      swap1\n      tag_166\n      jump\t// in\n    tag_165:\n      mload(0x40)\n      dup1\n      swap2\n      sub\n      swap1\n      revert\n    tag_164:\n        /* \"Lottogemeinschaft.sol\":4081:4102  nurErlaubteMitspieler */\n      0x08\n      0x09\n      swap1\n      sload\n      swap1\n      0x0100\n      exp\n      swap1\n      div\n      0xff\n      and\n        /* \"Lottogemeinschaft.sol\":4077:4168  if (nurErlaubteMitspieler){... */\n      iszero\n      tag_167\n      jumpi\n        /* \"Lottogemeinschaft.sol\":4125:4144  erlaubterMitspieler */\n      0x09\n        /* \"Lottogemeinschaft.sol\":4125:4156  erlaubterMitspieler[msg.sender] */\n      0x00\n        /* \"Lottogemeinschaft.sol\":4145:4155  msg.sender */\n      caller\n        /* \"Lottogemeinschaft.sol\":4125:4156  erlaubterMitspieler[msg.sender] */\n      0xffffffffffffffffffffffffffffffffffffffff\n      and\n      0xffffffffffffffffffffffffffffffffffffffff\n      and\n      dup2\n      mstore\n      0x20\n      add\n      swap1\n      dup2\n      mstore\n      0x20\n      add\n      0x00\n      keccak256\n      0x00\n      swap1\n      sload\n      swap1\n      0x0100\n      exp\n      swap1\n      div\n      0xff\n      and\n        /* \"Lottogemeinschaft.sol\":4117:4157  require(erlaubterMitspieler[msg.sender]) */\n      tag_168\n      jumpi\n      0x00\n      dup1\n      revert\n    tag_168:\n        /* \"Lottogemeinschaft.sol\":4077:4168  if (nurErlaubteMitspieler){... */\n    tag_167:\n        /* \"Lottogemeinschaft.sol\":4199:4215  uint ueberschuss */\n      0x00\n        /* \"Lottogemeinschaft.sol\":4230:4248  preisProMitspieler */\n      0x02\n      0x0e\n      swap1\n      sload\n      swap1\n      0x0100\n      exp\n      swap1\n      div\n      0xffffffffffffffffffffffff\n      and\n        /* \"Lottogemeinschaft.sol\":4218:4248  msg.value - preisProMitspieler */\n      0xffffffffffffffffffffffff\n      and\n        /* \"Lottogemeinschaft.sol\":4218:4227  msg.value */\n      callvalue\n        /* \"Lottogemeinschaft.sol\":4218:4248  msg.value - preisProMitspieler */\n      tag_169\n      swap2\n      swap1\n      tag_170\n      jump\t// in\n    tag_169:\n        /* \"Lottogemeinschaft.sol\":4199:4248  uint ueberschuss = msg.value - preisProMitspieler */\n      swap1\n      pop\n        /* \"Lottogemeinschaft.sol\":4283:4287  true */\n      0x01\n        /* \"Lottogemeinschaft.sol\":4258:4268  mitspieler */\n      0x05\n        /* \"Lottogemeinschaft.sol\":4258:4280  mitspieler[msg.sender] */\n      0x00\n        /* \"Lottogemeinschaft.sol\":4269:4279  msg.sender */\n      caller\n        /* \"Lottogemeinschaft.sol\":4258:4280  mitspieler[msg.sender] */\n      0xffffffffffffffffffffffffffffffffffffffff\n      and\n      0xffffffffffffffffffffffffffffffffffffffff\n      and\n      dup2\n      mstore\n      0x20\n      add\n      swap1\n      dup2\n      mstore\n      0x20\n      add\n      0x00\n      keccak256\n      0x00\n        /* \"Lottogemeinschaft.sol\":4258:4287  mitspieler[msg.sender] = true */\n      0x0100\n      exp\n      dup2\n      sload\n      dup2\n      0xff\n      mul\n      not\n      and\n      swap1\n      dup4\n      iszero\n      iszero\n      mul\n      or\n      swap1\n      sstore\n      pop\n        /* \"Lottogemeinschaft.sol\":4297:4320  anzahlTeilnehmerAktuell */\n      0x08\n      0x00\n        /* \"Lottogemeinschaft.sol\":4297:4322  anzahlTeilnehmerAktuell++ */\n      dup2\n      dup2\n      swap1\n      sload\n      swap1\n      0x0100\n      exp\n      swap1\n      div\n      0xffff\n      and\n      dup1\n      swap3\n      swap2\n      swap1\n      tag_171\n      swap1\n      tag_172\n      jump\t// in\n    tag_171:\n      swap2\n      swap1\n      0x0100\n      exp\n      dup2\n      sload\n      dup2\n      0xffff\n      mul\n      not\n      and\n      swap1\n      dup4\n      0xffff\n      and\n      mul\n      or\n      swap1\n      sstore\n      pop\n      pop\n        /* \"Lottogemeinschaft.sol\":4375:4376  0 */\n      0x00\n        /* \"Lottogemeinschaft.sol\":4361:4372  ueberschuss */\n      dup2\n        /* \"Lottogemeinschaft.sol\":4361:4376  ueberschuss > 0 */\n      gt\n        /* \"Lottogemeinschaft.sol\":4357:4444  if (ueberschuss > 0) {... */\n      iszero\n      tag_173\n      jumpi\n        /* \"Lottogemeinschaft.sol\":4400:4410  msg.sender */\n      caller\n        /* \"Lottogemeinschaft.sol\":4392:4420  payable(msg.sender).transfer */\n      0xffffffffffffffffffffffffffffffffffffffff\n      and\n        /* \"Lottogemeinschaft.sol\":4392:4433  payable(msg.sender).transfer(ueberschuss) */\n      0x08fc\n        /* \"Lottogemeinschaft.sol\":4421:4432  ueberschuss */\n      dup3\n        /* \"Lottogemeinschaft.sol\":4392:4433  payable(msg.sender).transfer(ueberschuss) */\n      swap1\n      dup2\n      iszero\n      mul\n      swap1\n      mload(0x40)\n      0x00\n      mload(0x40)\n      dup1\n      dup4\n      sub\n      dup2\n      dup6\n      dup9\n      dup9\n      call\n      swap4\n      pop\n      pop\n      pop\n      pop\n      iszero\n      dup1\n      iszero\n      tag_175\n      jumpi\n      returndatasize\n      0x00\n      dup1\n      returndatacopy\n      revert(0x00, returndatasize)\n    tag_175:\n      pop\n        /* \"Lottogemeinschaft.sol\":4357:4444  if (ueberschuss > 0) {... */\n    tag_173:\n        /* \"Lottogemeinschaft.sol\":3646:4450  {... */\n      pop\n        /* \"Lottogemeinschaft.sol\":3610:4450  function mitmachen() public payable {... */\n      jump\t// out\n        /* \"Lottogemeinschaft.sol\":1851:1884  uint16 public maxTeilnehmerAnzahl */\n    tag_78:\n      0x02\n      0x00\n      swap1\n      sload\n      swap1\n      0x0100\n      exp\n      swap1\n      div\n      0xffff\n      and\n      dup2\n      jump\t// out\n        /* \"Lottogemeinschaft.sol\":5505:5989  function gewinnAbholen() public restictedToMitspieler nonReentrant {... */\n    tag_82:\n        /* \"Lottogemeinschaft.sol\":3370:3380  mitspieler */\n      0x05\n        /* \"Lottogemeinschaft.sol\":3370:3392  mitspieler[msg.sender] */\n      0x00\n        /* \"Lottogemeinschaft.sol\":3381:3391  msg.sender */\n      caller\n        /* \"Lottogemeinschaft.sol\":3370:3392  mitspieler[msg.sender] */\n      0xffffffffffffffffffffffffffffffffffffffff\n      and\n      0xffffffffffffffffffffffffffffffffffffffff\n      and\n      dup2\n      mstore\n      0x20\n      add\n      swap1\n      dup2\n      mstore\n      0x20\n      add\n      0x00\n      keccak256\n      0x00\n      swap1\n      sload\n      swap1\n      0x0100\n      exp\n      swap1\n      div\n      0xff\n      and\n        /* \"Lottogemeinschaft.sol\":3362:3447  require(mitspieler[msg.sender], \"Nur ein Mitspieler kann diese Funktion ausfuehren.\") */\n      tag_177\n      jumpi\n      mload(0x40)\n      0x08c379a000000000000000000000000000000000000000000000000000000000\n      dup2\n      mstore\n      0x04\n      add\n      tag_178\n      swap1\n      tag_179\n      jump\t// in\n    tag_178:\n      mload(0x40)\n      dup1\n      swap2\n      sub\n      swap1\n      revert\n    tag_177:\n        /* \"Lottogemeinschaft.sol\":3514:3520  locked */\n      0x0a\n      0x00\n      swap1\n      sload\n      swap1\n      0x0100\n      exp\n      swap1\n      div\n      0xff\n      and\n        /* \"Lottogemeinschaft.sol\":3513:3520  !locked */\n      iszero\n        /* \"Lottogemeinschaft.sol\":3505:3539  require(!locked, \"No re-entrancy\") */\n      tag_181\n      jumpi\n      mload(0x40)\n      0x08c379a000000000000000000000000000000000000000000000000000000000\n      dup2\n      mstore\n      0x04\n      add\n      tag_182\n      swap1\n      tag_183\n      jump\t// in\n    tag_182:\n      mload(0x40)\n      dup1\n      swap2\n      sub\n      swap1\n      revert\n    tag_181:\n        /* \"Lottogemeinschaft.sol\":3558:3562  true */\n      0x01\n        /* \"Lottogemeinschaft.sol\":3549:3555  locked */\n      0x0a\n      0x00\n        /* \"Lottogemeinschaft.sol\":3549:3562  locked = true */\n      0x0100\n      exp\n      dup2\n      sload\n      dup2\n      0xff\n      mul\n      not\n      and\n      swap1\n      dup4\n      iszero\n      iszero\n      mul\n      or\n      swap1\n      sstore\n      pop\n        /* \"Lottogemeinschaft.sol\":5590:5614  gewinnKannAbgeholtWerden */\n      0x08\n      dup1\n      sload\n      swap1\n      0x0100\n      exp\n      swap1\n      div\n      0xff\n      and\n        /* \"Lottogemeinschaft.sol\":5582:5658  require(gewinnKannAbgeholtWerden, \"Gewinn kann noch nicht abgeholt werden.\") */\n      tag_185\n      jumpi\n      mload(0x40)\n      0x08c379a000000000000000000000000000000000000000000000000000000000\n      dup2\n      mstore\n      0x04\n      add\n      tag_186\n      swap1\n      tag_187\n      jump\t// in\n    tag_186:\n      mload(0x40)\n      dup1\n      swap2\n      sub\n      swap1\n      revert\n    tag_185:\n        /* \"Lottogemeinschaft.sol\":5698:5699  0 */\n      0x00\n        /* \"Lottogemeinschaft.sol\":5676:5695  gewinnProMitspieler */\n      0x08\n      0x02\n      swap1\n      sload\n      swap1\n      0x0100\n      exp\n      swap1\n      div\n      0xffffffffffff\n      and\n        /* \"Lottogemeinschaft.sol\":5676:5699  gewinnProMitspieler > 0 */\n      0xffffffffffff\n      and\n      gt\n        /* \"Lottogemeinschaft.sol\":5668:5742  require(gewinnProMitspieler > 0, \"Kein Gewinn zur Auszahlung verfuegbar.\") */\n      tag_188\n      jumpi\n      mload(0x40)\n      0x08c379a000000000000000000000000000000000000000000000000000000000\n      dup2\n      mstore\n      0x04\n      add\n      tag_189\n      swap1\n      tag_190\n      jump\t// in\n    tag_189:\n      mload(0x40)\n      dup1\n      swap2\n      sub\n      swap1\n      revert\n    tag_188:\n        /* \"Lottogemeinschaft.sol\":5761:5777  gewinnAusgezahlt */\n      0x06\n        /* \"Lottogemeinschaft.sol\":5761:5789  gewinnAusgezahlt[msg.sender] */\n      0x00\n        /* \"Lottogemeinschaft.sol\":5778:5788  msg.sender */\n      caller\n        /* \"Lottogemeinschaft.sol\":5761:5789  gewinnAusgezahlt[msg.sender] */\n      0xffffffffffffffffffffffffffffffffffffffff\n      and\n      0xffffffffffffffffffffffffffffffffffffffff\n      and\n      dup2\n      mstore\n      0x20\n      add\n      swap1\n      dup2\n      mstore\n      0x20\n      add\n      0x00\n      keccak256\n      0x00\n      swap1\n      sload\n      swap1\n      0x0100\n      exp\n      swap1\n      div\n      0xff\n      and\n        /* \"Lottogemeinschaft.sol\":5760:5789  !gewinnAusgezahlt[msg.sender] */\n      iszero\n        /* \"Lottogemeinschaft.sol\":5752:5824  require(!gewinnAusgezahlt[msg.sender], \"Gewinn wurde bereits abgeholt.\") */\n      tag_191\n      jumpi\n      mload(0x40)\n      0x08c379a000000000000000000000000000000000000000000000000000000000\n      dup2\n      mstore\n      0x04\n      add\n      tag_192\n      swap1\n      tag_193\n      jump\t// in\n    tag_192:\n      mload(0x40)\n      dup1\n      swap2\n      sub\n      swap1\n      revert\n    tag_191:\n        /* \"Lottogemeinschaft.sol\":5866:5870  true */\n      0x01\n        /* \"Lottogemeinschaft.sol\":5835:5851  gewinnAusgezahlt */\n      0x06\n        /* \"Lottogemeinschaft.sol\":5835:5863  gewinnAusgezahlt[msg.sender] */\n      0x00\n        /* \"Lottogemeinschaft.sol\":5852:5862  msg.sender */\n      caller\n        /* \"Lottogemeinschaft.sol\":5835:5863  gewinnAusgezahlt[msg.sender] */\n      0xffffffffffffffffffffffffffffffffffffffff\n      and\n      0xffffffffffffffffffffffffffffffffffffffff\n      and\n      dup2\n      mstore\n      0x20\n      add\n      swap1\n      dup2\n      mstore\n      0x20\n      add\n      0x00\n      keccak256\n      0x00\n        /* \"Lottogemeinschaft.sol\":5835:5870  gewinnAusgezahlt[msg.sender] = true */\n      0x0100\n      exp\n      dup2\n      sload\n      dup2\n      0xff\n      mul\n      not\n      and\n      swap1\n      dup4\n      iszero\n      iszero\n      mul\n      or\n      swap1\n      sstore\n      pop\n        /* \"Lottogemeinschaft.sol\":5881:5903  uint auszahlungsbetrag */\n      0x00\n        /* \"Lottogemeinschaft.sol\":5906:5925  gewinnProMitspieler */\n      0x08\n      0x02\n      swap1\n      sload\n      swap1\n      0x0100\n      exp\n      swap1\n      div\n      0xffffffffffff\n      and\n        /* \"Lottogemeinschaft.sol\":5881:5925  uint auszahlungsbetrag = gewinnProMitspieler */\n      0xffffffffffff\n      and\n      swap1\n      pop\n        /* \"Lottogemeinschaft.sol\":5943:5953  msg.sender */\n      caller\n        /* \"Lottogemeinschaft.sol\":5935:5963  payable(msg.sender).transfer */\n      0xffffffffffffffffffffffffffffffffffffffff\n      and\n        /* \"Lottogemeinschaft.sol\":5935:5982  payable(msg.sender).transfer(auszahlungsbetrag) */\n      0x08fc\n        /* \"Lottogemeinschaft.sol\":5964:5981  auszahlungsbetrag */\n      dup3\n        /* \"Lottogemeinschaft.sol\":5935:5982  payable(msg.sender).transfer(auszahlungsbetrag) */\n      swap1\n      dup2\n      iszero\n      mul\n      swap1\n      mload(0x40)\n      0x00\n      mload(0x40)\n      dup1\n      dup4\n      sub\n      dup2\n      dup6\n      dup9\n      dup9\n      call\n      swap4\n      pop\n      pop\n      pop\n      pop\n      iszero\n      dup1\n      iszero\n      tag_195\n      jumpi\n      returndatasize\n      0x00\n      dup1\n      returndatacopy\n      revert(0x00, returndatasize)\n    tag_195:\n      pop\n        /* \"Lottogemeinschaft.sol\":5572:5989  {... */\n      pop\n        /* \"Lottogemeinschaft.sol\":3592:3597  false */\n      0x00\n        /* \"Lottogemeinschaft.sol\":3583:3589  locked */\n      0x0a\n      0x00\n        /* \"Lottogemeinschaft.sol\":3583:3597  locked = false */\n      0x0100\n      exp\n      dup2\n      sload\n      dup2\n      0xff\n      mul\n      not\n      and\n      swap1\n      dup4\n      iszero\n      iszero\n      mul\n      or\n      swap1\n      sstore\n      pop\n        /* \"Lottogemeinschaft.sol\":5505:5989  function gewinnAbholen() public restictedToMitspieler nonReentrant {... */\n      jump\t// out\n        /* \"Lottogemeinschaft.sol\":1964:1997  string public spielauftragsNummer */\n    tag_85:\n      0x03\n      dup1\n      sload\n      tag_196\n      swap1\n      tag_197\n      jump\t// in\n    tag_196:\n      dup1\n      0x1f\n      add\n      0x20\n      dup1\n      swap2\n      div\n      mul\n      0x20\n      add\n      mload(0x40)\n      swap1\n      dup2\n      add\n      0x40\n      mstore\n      dup1\n      swap3\n      swap2\n      swap1\n      dup2\n      dup2\n      mstore\n      0x20\n      add\n      dup3\n      dup1\n      sload\n      tag_198\n      swap1\n      tag_197\n      jump\t// in\n    tag_198:\n      dup1\n      iszero\n      tag_199\n      jumpi\n      dup1\n      0x1f\n      lt\n      tag_200\n      jumpi\n      0x0100\n      dup1\n      dup4\n      sload\n      div\n      mul\n      dup4\n      mstore\n      swap2\n      0x20\n      add\n      swap2\n      jump(tag_199)\n    tag_200:\n      dup3\n      add\n      swap2\n      swap1\n      0x00\n      mstore\n      keccak256(0x00, 0x20)\n      swap1\n    tag_201:\n      dup2\n      sload\n      dup2\n      mstore\n      swap1\n      0x01\n      add\n      swap1\n      0x20\n      add\n      dup1\n      dup4\n      gt\n      tag_201\n      jumpi\n      dup3\n      swap1\n      sub\n      0x1f\n      and\n      dup3\n      add\n      swap2\n    tag_199:\n      pop\n      pop\n      pop\n      pop\n      pop\n      dup2\n      jump\t// out\n        /* \"Lottogemeinschaft.sol\":2081:2129  mapping(address => bool) public gewinnAusgezahlt */\n    tag_91:\n      mstore(0x20, 0x06)\n      dup1\n      0x00\n      mstore\n      keccak256(0x00, 0x40)\n      0x00\n      swap2\n      pop\n      sload\n      swap1\n      0x0100\n      exp\n      swap1\n      div\n      0xff\n      and\n      dup2\n      jump\t// out\n        /* \"Lottogemeinschaft.sol\":7218:7716  function einsatzZurueckholen() public payable restictedToMitspieler nonReentrant {... */\n    tag_94:\n        /* \"Lottogemeinschaft.sol\":3370:3380  mitspieler */\n      0x05\n        /* \"Lottogemeinschaft.sol\":3370:3392  mitspieler[msg.sender] */\n      0x00\n        /* \"Lottogemeinschaft.sol\":3381:3391  msg.sender */\n      caller\n        /* \"Lottogemeinschaft.sol\":3370:3392  mitspieler[msg.sender] */\n      0xffffffffffffffffffffffffffffffffffffffff\n      and\n      0xffffffffffffffffffffffffffffffffffffffff\n      and\n      dup2\n      mstore\n      0x20\n      add\n      swap1\n      dup2\n      mstore\n      0x20\n      add\n      0x00\n      keccak256\n      0x00\n      swap1\n      sload\n      swap1\n      0x0100\n      exp\n      swap1\n      div\n      0xff\n      and\n        /* \"Lottogemeinschaft.sol\":3362:3447  require(mitspieler[msg.sender], \"Nur ein Mitspieler kann diese Funktion ausfuehren.\") */\n      tag_203\n      jumpi\n      mload(0x40)\n      0x08c379a000000000000000000000000000000000000000000000000000000000\n      dup2\n      mstore\n      0x04\n      add\n      tag_204\n      swap1\n      tag_179\n      jump\t// in\n    tag_204:\n      mload(0x40)\n      dup1\n      swap2\n      sub\n      swap1\n      revert\n    tag_203:\n        /* \"Lottogemeinschaft.sol\":3514:3520  locked */\n      0x0a\n      0x00\n      swap1\n      sload\n      swap1\n      0x0100\n      exp\n      swap1\n      div\n      0xff\n      and\n        /* \"Lottogemeinschaft.sol\":3513:3520  !locked */\n      iszero\n        /* \"Lottogemeinschaft.sol\":3505:3539  require(!locked, \"No re-entrancy\") */\n      tag_206\n      jumpi\n      mload(0x40)\n      0x08c379a000000000000000000000000000000000000000000000000000000000\n      dup2\n      mstore\n      0x04\n      add\n      tag_207\n      swap1\n      tag_183\n      jump\t// in\n    tag_207:\n      mload(0x40)\n      dup1\n      swap2\n      sub\n      swap1\n      revert\n    tag_206:\n        /* \"Lottogemeinschaft.sol\":3558:3562  true */\n      0x01\n        /* \"Lottogemeinschaft.sol\":3549:3555  locked */\n      0x0a\n      0x00\n        /* \"Lottogemeinschaft.sol\":3549:3562  locked = true */\n      0x0100\n      exp\n      dup2\n      sload\n      dup2\n      0xff\n      mul\n      not\n      and\n      swap1\n      dup4\n      iszero\n      iszero\n      mul\n      or\n      swap1\n      sstore\n      pop\n        /* \"Lottogemeinschaft.sol\":7317:7327  aufgeloest */\n      0x0a\n      0x01\n      swap1\n      sload\n      swap1\n      0x0100\n      exp\n      swap1\n      div\n      0xff\n      and\n        /* \"Lottogemeinschaft.sol\":7309:7366  require(aufgeloest, \"Gemeinschaft muss aufgeloest sein.\") */\n      tag_209\n      jumpi\n      mload(0x40)\n      0x08c379a000000000000000000000000000000000000000000000000000000000\n      dup2\n      mstore\n      0x04\n      add\n      tag_210\n      swap1\n      tag_211\n      jump\t// in\n    tag_210:\n      mload(0x40)\n      dup1\n      swap2\n      sub\n      swap1\n      revert\n    tag_209:\n        /* \"Lottogemeinschaft.sol\":7385:7406  einsatzZurueckGezahlt */\n      0x07\n        /* \"Lottogemeinschaft.sol\":7385:7418  einsatzZurueckGezahlt[msg.sender] */\n      0x00\n        /* \"Lottogemeinschaft.sol\":7407:7417  msg.sender */\n      caller\n        /* \"Lottogemeinschaft.sol\":7385:7418  einsatzZurueckGezahlt[msg.sender] */\n      0xffffffffffffffffffffffffffffffffffffffff\n      and\n      0xffffffffffffffffffffffffffffffffffffffff\n      and\n      dup2\n      mstore\n      0x20\n      add\n      swap1\n      dup2\n      mstore\n      0x20\n      add\n      0x00\n      keccak256\n      0x00\n      swap1\n      sload\n      swap1\n      0x0100\n      exp\n      swap1\n      div\n      0xff\n      and\n        /* \"Lottogemeinschaft.sol\":7384:7418  !einsatzZurueckGezahlt[msg.sender] */\n      iszero\n        /* \"Lottogemeinschaft.sol\":7376:7460  require(!einsatzZurueckGezahlt[msg.sender], \"Einsatz wurde bereits zurueckgezahlt.\") */\n      tag_212\n      jumpi\n      mload(0x40)\n      0x08c379a000000000000000000000000000000000000000000000000000000000\n      dup2\n      mstore\n      0x04\n      add\n      tag_213\n      swap1\n      tag_214\n      jump\t// in\n    tag_213:\n      mload(0x40)\n      dup1\n      swap2\n      sub\n      swap1\n      revert\n    tag_212:\n        /* \"Lottogemeinschaft.sol\":7507:7511  true */\n      0x01\n        /* \"Lottogemeinschaft.sol\":7471:7492  einsatzZurueckGezahlt */\n      0x07\n        /* \"Lottogemeinschaft.sol\":7471:7504  einsatzZurueckGezahlt[msg.sender] */\n      0x00\n        /* \"Lottogemeinschaft.sol\":7493:7503  msg.sender */\n      caller\n        /* \"Lottogemeinschaft.sol\":7471:7504  einsatzZurueckGezahlt[msg.sender] */\n      0xffffffffffffffffffffffffffffffffffffffff\n      and\n      0xffffffffffffffffffffffffffffffffffffffff\n      and\n      dup2\n      mstore\n      0x20\n      add\n      swap1\n      dup2\n      mstore\n      0x20\n      add\n      0x00\n      keccak256\n      0x00\n        /* \"Lottogemeinschaft.sol\":7471:7511  einsatzZurueckGezahlt[msg.sender] = true */\n      0x0100\n      exp\n      dup2\n      sload\n      dup2\n      0xff\n      mul\n      not\n      and\n      swap1\n      dup4\n      iszero\n      iszero\n      mul\n      or\n      swap1\n      sstore\n      pop\n        /* \"Lottogemeinschaft.sol\":7522:7546  uint rueckzahlungsbetrag */\n      0x00\n        /* \"Lottogemeinschaft.sol\":7549:7567  preisProMitspieler */\n      0x02\n      0x0e\n      swap1\n      sload\n      swap1\n      0x0100\n      exp\n      swap1\n      div\n      0xffffffffffffffffffffffff\n      and\n        /* \"Lottogemeinschaft.sol\":7522:7567  uint rueckzahlungsbetrag = preisProMitspieler */\n      0xffffffffffffffffffffffff\n      and\n      swap1\n      pop\n        /* \"Lottogemeinschaft.sol\":7578:7587  bool sent */\n      0x00\n        /* \"Lottogemeinschaft.sol\":7593:7603  msg.sender */\n      caller\n        /* \"Lottogemeinschaft.sol\":7593:7608  msg.sender.call */\n      0xffffffffffffffffffffffffffffffffffffffff\n      and\n        /* \"Lottogemeinschaft.sol\":7616:7635  rueckzahlungsbetrag */\n      dup3\n        /* \"Lottogemeinschaft.sol\":7593:7640  msg.sender.call{value: rueckzahlungsbetrag}(\"\") */\n      mload(0x40)\n      tag_215\n      swap1\n      tag_216\n      jump\t// in\n    tag_215:\n      0x00\n      mload(0x40)\n      dup1\n      dup4\n      sub\n      dup2\n      dup6\n      dup8\n      gas\n      call\n      swap3\n      pop\n      pop\n      pop\n      returndatasize\n      dup1\n      0x00\n      dup2\n      eq\n      tag_219\n      jumpi\n      mload(0x40)\n      swap2\n      pop\n      and(add(returndatasize, 0x3f), not(0x1f))\n      dup3\n      add\n      0x40\n      mstore\n      returndatasize\n      dup3\n      mstore\n      returndatasize\n      0x00\n      0x20\n      dup5\n      add\n      returndatacopy\n      jump(tag_218)\n    tag_219:\n      0x60\n      swap2\n      pop\n    tag_218:\n      pop\n        /* \"Lottogemeinschaft.sol\":7577:7640  (bool sent, ) = msg.sender.call{value: rueckzahlungsbetrag}(\"\") */\n      pop\n      swap1\n      pop\n        /* \"Lottogemeinschaft.sol\":7658:7662  sent */\n      dup1\n        /* \"Lottogemeinschaft.sol\":7650:7709  require(sent, \"Rueckzahlung des Einsatzes fehlgeschlagen.\") */\n      tag_220\n      jumpi\n      mload(0x40)\n      0x08c379a000000000000000000000000000000000000000000000000000000000\n      dup2\n      mstore\n      0x04\n      add\n      tag_221\n      swap1\n      tag_222\n      jump\t// in\n    tag_221:\n      mload(0x40)\n      dup1\n      swap2\n      sub\n      swap1\n      revert\n    tag_220:\n        /* \"Lottogemeinschaft.sol\":7299:7716  {... */\n      pop\n      pop\n        /* \"Lottogemeinschaft.sol\":3592:3597  false */\n      0x00\n        /* \"Lottogemeinschaft.sol\":3583:3589  locked */\n      0x0a\n      0x00\n        /* \"Lottogemeinschaft.sol\":3583:3597  locked = false */\n      0x0100\n      exp\n      dup2\n      sload\n      dup2\n      0xff\n      mul\n      not\n      and\n      swap1\n      dup4\n      iszero\n      iszero\n      mul\n      or\n      swap1\n      sstore\n      pop\n        /* \"Lottogemeinschaft.sol\":7218:7716  function einsatzZurueckholen() public payable restictedToMitspieler nonReentrant {... */\n      jump\t// out\n        /* \"Lottogemeinschaft.sol\":6905:7162  function gemeinschaftAufloesen() public restictedToGruender {... */\n    tag_97:\n        /* \"Lottogemeinschaft.sol\":3235:3243  gruender */\n      0x00\n      dup1\n      sload\n      swap1\n      0x0100\n      exp\n      swap1\n      div\n      0xffffffffffffffffffffffffffffffffffffffff\n      and\n        /* \"Lottogemeinschaft.sol\":3221:3243  msg.sender == gruender */\n      0xffffffffffffffffffffffffffffffffffffffff\n      and\n        /* \"Lottogemeinschaft.sol\":3221:3231  msg.sender */\n      caller\n        /* \"Lottogemeinschaft.sol\":3221:3243  msg.sender == gruender */\n      0xffffffffffffffffffffffffffffffffffffffff\n      and\n      eq\n        /* \"Lottogemeinschaft.sol\":3213:3296  require(msg.sender == gruender, \"Nur der Gruender kann diese Funktion ausfuehren.\") */\n      tag_224\n      jumpi\n      mload(0x40)\n      0x08c379a000000000000000000000000000000000000000000000000000000000\n      dup2\n      mstore\n      0x04\n      add\n      tag_225\n      swap1\n      tag_139\n      jump\t// in\n    tag_225:\n      mload(0x40)\n      dup1\n      swap2\n      sub\n      swap1\n      revert\n    tag_224:\n        /* \"Lottogemeinschaft.sol\":7011:7016  false */\n      0x00\n        /* \"Lottogemeinschaft.sol\":6983:7016  gewinnKannAbgeholtWerden == false */\n      iszero\n      iszero\n        /* \"Lottogemeinschaft.sol\":6983:7007  gewinnKannAbgeholtWerden */\n      0x08\n      dup1\n      sload\n      swap1\n      0x0100\n      exp\n      swap1\n      div\n      0xff\n      and\n        /* \"Lottogemeinschaft.sol\":6983:7016  gewinnKannAbgeholtWerden == false */\n      iszero\n      iszero\n      eq\n        /* \"Lottogemeinschaft.sol\":6975:7055  require(gewinnKannAbgeholtWerden == false, \"Gewinn muss noch ausgezahlt werden\") */\n      tag_227\n      jumpi\n      mload(0x40)\n      0x08c379a000000000000000000000000000000000000000000000000000000000\n      dup2\n      mstore\n      0x04\n      add\n      tag_228\n      swap1\n      tag_229\n      jump\t// in\n    tag_228:\n      mload(0x40)\n      dup1\n      swap2\n      sub\n      swap1\n      revert\n    tag_227:\n        /* \"Lottogemeinschaft.sol\":7087:7092  false */\n      0x00\n        /* \"Lottogemeinschaft.sol\":7073:7092  aufgeloest == false */\n      iszero\n      iszero\n        /* \"Lottogemeinschaft.sol\":7073:7083  aufgeloest */\n      0x0a\n      0x01\n      swap1\n      sload\n      swap1\n      0x0100\n      exp\n      swap1\n      div\n      0xff\n      and\n        /* \"Lottogemeinschaft.sol\":7073:7092  aufgeloest == false */\n      iszero\n      iszero\n      eq\n        /* \"Lottogemeinschaft.sol\":7065:7128  require(aufgeloest == false, \"Gemeinschaft bereits aufgeloest\") */\n      tag_230\n      jumpi\n      mload(0x40)\n      0x08c379a000000000000000000000000000000000000000000000000000000000\n      dup2\n      mstore\n      0x04\n      add\n      tag_231\n      swap1\n      tag_232\n      jump\t// in\n    tag_231:\n      mload(0x40)\n      dup1\n      swap2\n      sub\n      swap1\n      revert\n    tag_230:\n        /* \"Lottogemeinschaft.sol\":7151:7155  true */\n      0x01\n        /* \"Lottogemeinschaft.sol\":7138:7148  aufgeloest */\n      0x0a\n      0x01\n        /* \"Lottogemeinschaft.sol\":7138:7155  aufgeloest = true */\n      0x0100\n      exp\n      dup2\n      sload\n      dup2\n      0xff\n      mul\n      not\n      and\n      swap1\n      dup4\n      iszero\n      iszero\n      mul\n      or\n      swap1\n      sstore\n      pop\n        /* \"Lottogemeinschaft.sol\":6905:7162  function gemeinschaftAufloesen() public restictedToGruender {... */\n      jump\t// out\n        /* \"Lottogemeinschaft.sol\":1781:1804  address public gruender */\n    tag_100:\n      0x00\n      dup1\n      sload\n      swap1\n      0x0100\n      exp\n      swap1\n      div\n      0xffffffffffffffffffffffffffffffffffffffff\n      and\n      dup2\n      jump\t// out\n        /* \"Lottogemeinschaft.sol\":2328:2367  bool public nurErlaubteMitspieler=false */\n    tag_105:\n      0x08\n      0x09\n      swap1\n      sload\n      swap1\n      0x0100\n      exp\n      swap1\n      div\n      0xff\n      and\n      dup2\n      jump\t// out\n        /* \"Lottogemeinschaft.sol\":2135:2188  mapping(address => bool) public einsatzZurueckGezahlt */\n    tag_110:\n      mstore(0x20, 0x07)\n      dup1\n      0x00\n      mstore\n      keccak256(0x00, 0x40)\n      0x00\n      swap2\n      pop\n      sload\n      swap1\n      0x0100\n      exp\n      swap1\n      div\n      0xff\n      and\n      dup2\n      jump\t// out\n        /* \"Lottogemeinschaft.sol\":4799:5457  function gewinnEinzahlen(uint48 gewinn) public payable restictedToGruender {... */\n    tag_115:\n        /* \"Lottogemeinschaft.sol\":3235:3243  gruender */\n      0x00\n      dup1\n      sload\n      swap1\n      0x0100\n      exp\n      swap1\n      div\n      0xffffffffffffffffffffffffffffffffffffffff\n      and\n        /* \"Lottogemeinschaft.sol\":3221:3243  msg.sender == gruender */\n      0xffffffffffffffffffffffffffffffffffffffff\n      and\n        /* \"Lottogemeinschaft.sol\":3221:3231  msg.sender */\n      caller\n        /* \"Lottogemeinschaft.sol\":3221:3243  msg.sender == gruender */\n      0xffffffffffffffffffffffffffffffffffffffff\n      and\n      eq\n        /* \"Lottogemeinschaft.sol\":3213:3296  require(msg.sender == gruender, \"Nur der Gruender kann diese Funktion ausfuehren.\") */\n      tag_234\n      jumpi\n      mload(0x40)\n      0x08c379a000000000000000000000000000000000000000000000000000000000\n      dup2\n      mstore\n      0x04\n      add\n      tag_235\n      swap1\n      tag_139\n      jump\t// in\n    tag_235:\n      mload(0x40)\n      dup1\n      swap2\n      sub\n      swap1\n      revert\n    tag_234:\n        /* \"Lottogemeinschaft.sol\":4990:4991  0 */\n      0x00\n        /* \"Lottogemeinschaft.sol\":4978:4987  msg.value */\n      callvalue\n        /* \"Lottogemeinschaft.sol\":4978:4991  msg.value > 0 */\n      gt\n        /* \"Lottogemeinschaft.sol\":4970:5038  require(msg.value > 0, \"Einzahlungsbetrag muss groesser als 0 sein\") */\n      tag_237\n      jumpi\n      mload(0x40)\n      0x08c379a000000000000000000000000000000000000000000000000000000000\n      dup2\n      mstore\n      0x04\n      add\n      tag_238\n      swap1\n      tag_239\n      jump\t// in\n    tag_238:\n      mload(0x40)\n      dup1\n      swap2\n      sub\n      swap1\n      revert\n    tag_237:\n        /* \"Lottogemeinschaft.sol\":5077:5078  0 */\n      0x00\n        /* \"Lottogemeinschaft.sol\":5056:5075  gewinnProMitspieler */\n      0x08\n      0x02\n      swap1\n      sload\n      swap1\n      0x0100\n      exp\n      swap1\n      div\n      0xffffffffffff\n      and\n        /* \"Lottogemeinschaft.sol\":5056:5078  gewinnProMitspieler==0 */\n      0xffffffffffff\n      and\n      eq\n        /* \"Lottogemeinschaft.sol\":5048:5115  require(gewinnProMitspieler==0, \"Gewinn wurde bereits eingezahlt.\") */\n      tag_240\n      jumpi\n      mload(0x40)\n      0x08c379a000000000000000000000000000000000000000000000000000000000\n      dup2\n      mstore\n      0x04\n      add\n      tag_241\n      swap1\n      tag_242\n      jump\t// in\n    tag_241:\n      mload(0x40)\n      dup1\n      swap2\n      sub\n      swap1\n      revert\n    tag_240:\n        /* \"Lottogemeinschaft.sol\":5385:5408  anzahlTeilnehmerAktuell */\n      0x08\n      0x00\n      swap1\n      sload\n      swap1\n      0x0100\n      exp\n      swap1\n      div\n      0xffff\n      and\n        /* \"Lottogemeinschaft.sol\":5376:5408  gewinn / anzahlTeilnehmerAktuell */\n      0xffff\n      and\n        /* \"Lottogemeinschaft.sol\":5376:5382  gewinn */\n      dup2\n        /* \"Lottogemeinschaft.sol\":5376:5408  gewinn / anzahlTeilnehmerAktuell */\n      tag_243\n      swap2\n      swap1\n      tag_244\n      jump\t// in\n    tag_243:\n        /* \"Lottogemeinschaft.sol\":5354:5373  gewinnProMitspieler */\n      0x08\n      0x02\n        /* \"Lottogemeinschaft.sol\":5354:5408  gewinnProMitspieler = gewinn / anzahlTeilnehmerAktuell */\n      0x0100\n      exp\n      dup2\n      sload\n      dup2\n      0xffffffffffff\n      mul\n      not\n      and\n      swap1\n      dup4\n      0xffffffffffff\n      and\n      mul\n      or\n      swap1\n      sstore\n      pop\n        /* \"Lottogemeinschaft.sol\":5445:5449  true */\n      0x01\n        /* \"Lottogemeinschaft.sol\":5418:5442  gewinnKannAbgeholtWerden */\n      0x08\n      dup1\n        /* \"Lottogemeinschaft.sol\":5418:5449  gewinnKannAbgeholtWerden = true */\n      0x0100\n      exp\n      dup2\n      sload\n      dup2\n      0xff\n      mul\n      not\n      and\n      swap1\n      dup4\n      iszero\n      iszero\n      mul\n      or\n      swap1\n      sstore\n      pop\n        /* \"Lottogemeinschaft.sol\":4799:5457  function gewinnEinzahlen(uint48 gewinn) public payable restictedToGruender {... */\n      pop\n      jump\t// out\n        /* \"Lottogemeinschaft.sol\":4456:4750  function einsatzAbholen() public payable nonReentrant restictedToGruender{... */\n    tag_117:\n        /* \"Lottogemeinschaft.sol\":3514:3520  locked */\n      0x0a\n      0x00\n      swap1\n      sload\n      swap1\n      0x0100\n      exp\n      swap1\n      div\n      0xff\n      and\n        /* \"Lottogemeinschaft.sol\":3513:3520  !locked */\n      iszero\n        /* \"Lottogemeinschaft.sol\":3505:3539  require(!locked, \"No re-entrancy\") */\n      tag_246\n      jumpi\n      mload(0x40)\n      0x08c379a000000000000000000000000000000000000000000000000000000000\n      dup2\n      mstore\n      0x04\n      add\n      tag_247\n      swap1\n      tag_183\n      jump\t// in\n    tag_247:\n      mload(0x40)\n      dup1\n      swap2\n      sub\n      swap1\n      revert\n    tag_246:\n        /* \"Lottogemeinschaft.sol\":3558:3562  true */\n      0x01\n        /* \"Lottogemeinschaft.sol\":3549:3555  locked */\n      0x0a\n      0x00\n        /* \"Lottogemeinschaft.sol\":3549:3562  locked = true */\n      0x0100\n      exp\n      dup2\n      sload\n      dup2\n      0xff\n      mul\n      not\n      and\n      swap1\n      dup4\n      iszero\n      iszero\n      mul\n      or\n      swap1\n      sstore\n      pop\n        /* \"Lottogemeinschaft.sol\":3235:3243  gruender */\n      0x00\n      dup1\n      sload\n      swap1\n      0x0100\n      exp\n      swap1\n      div\n      0xffffffffffffffffffffffffffffffffffffffff\n      and\n        /* \"Lottogemeinschaft.sol\":3221:3243  msg.sender == gruender */\n      0xffffffffffffffffffffffffffffffffffffffff\n      and\n        /* \"Lottogemeinschaft.sol\":3221:3231  msg.sender */\n      caller\n        /* \"Lottogemeinschaft.sol\":3221:3243  msg.sender == gruender */\n      0xffffffffffffffffffffffffffffffffffffffff\n      and\n      eq\n        /* \"Lottogemeinschaft.sol\":3213:3296  require(msg.sender == gruender, \"Nur der Gruender kann diese Funktion ausfuehren.\") */\n      tag_249\n      jumpi\n      mload(0x40)\n      0x08c379a000000000000000000000000000000000000000000000000000000000\n      dup2\n      mstore\n      0x04\n      add\n      tag_250\n      swap1\n      tag_139\n      jump\t// in\n    tag_250:\n      mload(0x40)\n      dup1\n      swap2\n      sub\n      swap1\n      revert\n    tag_249:\n        /* \"Lottogemeinschaft.sol\":4548:4572  gewinnKannAbgeholtWerden */\n      0x08\n      dup1\n      sload\n      swap1\n      0x0100\n      exp\n      swap1\n      div\n      0xff\n      and\n        /* \"Lottogemeinschaft.sol\":4547:4572  !gewinnKannAbgeholtWerden */\n      iszero\n        /* \"Lottogemeinschaft.sol\":4539:4633  require(!gewinnKannAbgeholtWerden, \"Gewinn wurde bereits eingezahlt und kann abgeholt werden\") */\n      tag_252\n      jumpi\n      mload(0x40)\n      0x08c379a000000000000000000000000000000000000000000000000000000000\n      dup2\n      mstore\n      0x04\n      add\n      tag_253\n      swap1\n      tag_254\n      jump\t// in\n    tag_253:\n      mload(0x40)\n      dup1\n      swap2\n      sub\n      swap1\n      revert\n    tag_252:\n        /* \"Lottogemeinschaft.sol\":4643:4666  uint256 contractBalance */\n      0x00\n        /* \"Lottogemeinschaft.sol\":4669:4690  address(this).balance */\n      selfbalance\n        /* \"Lottogemeinschaft.sol\":4643:4690  uint256 contractBalance = address(this).balance */\n      swap1\n      pop\n        /* \"Lottogemeinschaft.sol\":4708:4716  gruender */\n      0x00\n      dup1\n      sload\n      swap1\n      0x0100\n      exp\n      swap1\n      div\n      0xffffffffffffffffffffffffffffffffffffffff\n      and\n        /* \"Lottogemeinschaft.sol\":4700:4726  payable(gruender).transfer */\n      0xffffffffffffffffffffffffffffffffffffffff\n      and\n        /* \"Lottogemeinschaft.sol\":4700:4743  payable(gruender).transfer(contractBalance) */\n      0x08fc\n        /* \"Lottogemeinschaft.sol\":4727:4742  contractBalance */\n      dup3\n        /* \"Lottogemeinschaft.sol\":4700:4743  payable(gruender).transfer(contractBalance) */\n      swap1\n      dup2\n      iszero\n      mul\n      swap1\n      mload(0x40)\n      0x00\n      mload(0x40)\n      dup1\n      dup4\n      sub\n      dup2\n      dup6\n      dup9\n      dup9\n      call\n      swap4\n      pop\n      pop\n      pop\n      pop\n      iszero\n      dup1\n      iszero\n      tag_256\n      jumpi\n      returndatasize\n      0x00\n      dup1\n      returndatacopy\n      revert(0x00, returndatasize)\n    tag_256:\n      pop\n        /* \"Lottogemeinschaft.sol\":4529:4750  {... */\n      pop\n        /* \"Lottogemeinschaft.sol\":3592:3597  false */\n      0x00\n        /* \"Lottogemeinschaft.sol\":3583:3589  locked */\n      0x0a\n      0x00\n        /* \"Lottogemeinschaft.sol\":3583:3597  locked = false */\n      0x0100\n      exp\n      dup2\n      sload\n      dup2\n      0xff\n      mul\n      not\n      and\n      swap1\n      dup4\n      iszero\n      iszero\n      mul\n      or\n      swap1\n      sstore\n      pop\n        /* \"Lottogemeinschaft.sol\":4456:4750  function einsatzAbholen() public payable nonReentrant restictedToGruender{... */\n      jump\t// out\n        /* \"Lottogemeinschaft.sol\":1810:1845  string public tippgemeinschaftsName */\n    tag_120:\n      0x01\n      dup1\n      sload\n      tag_257\n      swap1\n      tag_197\n      jump\t// in\n    tag_257:\n      dup1\n      0x1f\n      add\n      0x20\n      dup1\n      swap2\n      div\n      mul\n      0x20\n      add\n      mload(0x40)\n      swap1\n      dup2\n      add\n      0x40\n      mstore\n      dup1\n      swap3\n      swap2\n      swap1\n      dup2\n      dup2\n      mstore\n      0x20\n      add\n      dup3\n      dup1\n      sload\n      tag_258\n      swap1\n      tag_197\n      jump\t// in\n    tag_258:\n      dup1\n      iszero\n      tag_259\n      jumpi\n      dup1\n      0x1f\n      lt\n      tag_260\n      jumpi\n      0x0100\n      dup1\n      dup4\n      sload\n      div\n      mul\n      dup4\n      mstore\n      swap2\n      0x20\n      add\n      swap2\n      jump(tag_259)\n    tag_260:\n      dup3\n      add\n      swap2\n      swap1\n      0x00\n      mstore\n      keccak256(0x00, 0x20)\n      swap1\n    tag_261:\n      dup2\n      sload\n      dup2\n      mstore\n      swap1\n      0x01\n      add\n      swap1\n      0x20\n      add\n      dup1\n      dup4\n      gt\n      tag_261\n      jumpi\n      dup3\n      swap1\n      sub\n      0x1f\n      and\n      dup3\n      add\n      swap2\n    tag_259:\n      pop\n      pop\n      pop\n      pop\n      pop\n      dup2\n      jump\t// out\n        /* \"Lottogemeinschaft.sol\":6238:6524  function anzahlMitspielerAendern(uint16 neueAnzahlMaxTeilnehmer) public restictedToGruender{... */\n    tag_126:\n        /* \"Lottogemeinschaft.sol\":3235:3243  gruender */\n      0x00\n      dup1\n      sload\n      swap1\n      0x0100\n      exp\n      swap1\n      div\n      0xffffffffffffffffffffffffffffffffffffffff\n      and\n        /* \"Lottogemeinschaft.sol\":3221:3243  msg.sender == gruender */\n      0xffffffffffffffffffffffffffffffffffffffff\n      and\n        /* \"Lottogemeinschaft.sol\":3221:3231  msg.sender */\n      caller\n        /* \"Lottogemeinschaft.sol\":3221:3243  msg.sender == gruender */\n      0xffffffffffffffffffffffffffffffffffffffff\n      and\n      eq\n        /* \"Lottogemeinschaft.sol\":3213:3296  require(msg.sender == gruender, \"Nur der Gruender kann diese Funktion ausfuehren.\") */\n      tag_263\n      jumpi\n      mload(0x40)\n      0x08c379a000000000000000000000000000000000000000000000000000000000\n      dup2\n      mstore\n      0x04\n      add\n      tag_264\n      swap1\n      tag_139\n      jump\t// in\n    tag_264:\n      mload(0x40)\n      dup1\n      swap2\n      sub\n      swap1\n      revert\n    tag_263:\n        /* \"Lottogemeinschaft.sol\":6372:6373  0 */\n      0x00\n        /* \"Lottogemeinschaft.sol\":6347:6370  anzahlTeilnehmerAktuell */\n      0x08\n      0x00\n      swap1\n      sload\n      swap1\n      0x0100\n      exp\n      swap1\n      div\n      0xffff\n      and\n        /* \"Lottogemeinschaft.sol\":6347:6373  anzahlTeilnehmerAktuell==0 */\n      0xffff\n      and\n      eq\n        /* \"Lottogemeinschaft.sol\":6339:6462  require(anzahlTeilnehmerAktuell==0, \"Es gibt bereits Mitspieler. Aenderung der Anzahl an Mitspielern nicht mehr moeglich.\") */\n      tag_266\n      jumpi\n      mload(0x40)\n      0x08c379a000000000000000000000000000000000000000000000000000000000\n      dup2\n      mstore\n      0x04\n      add\n      tag_267\n      swap1\n      tag_268\n      jump\t// in\n    tag_267:\n      mload(0x40)\n      dup1\n      swap2\n      sub\n      swap1\n      revert\n    tag_266:\n        /* \"Lottogemeinschaft.sol\":6494:6517  neueAnzahlMaxTeilnehmer */\n      dup1\n        /* \"Lottogemeinschaft.sol\":6472:6491  maxTeilnehmerAnzahl */\n      0x02\n      0x00\n        /* \"Lottogemeinschaft.sol\":6472:6517  maxTeilnehmerAnzahl = neueAnzahlMaxTeilnehmer */\n      0x0100\n      exp\n      dup2\n      sload\n      dup2\n      0xffff\n      mul\n      not\n      and\n      swap1\n      dup4\n      0xffff\n      and\n      mul\n      or\n      swap1\n      sstore\n      pop\n        /* \"Lottogemeinschaft.sol\":6238:6524  function anzahlMitspielerAendern(uint16 neueAnzahlMaxTeilnehmer) public restictedToGruender{... */\n      pop\n      jump\t// out\n        /* \"Lottogemeinschaft.sol\":2455:2477  bool public aufgeloest */\n    tag_129:\n      0x0a\n      0x01\n      swap1\n      sload\n      swap1\n      0x0100\n      exp\n      swap1\n      div\n      0xff\n      and\n      dup2\n      jump\t// out\n        /* \"Lottogemeinschaft.sol\":2373:2424  mapping(address => bool) public erlaubterMitspieler */\n    tag_134:\n      mstore(0x20, 0x09)\n      dup1\n      0x00\n      mstore\n      keccak256(0x00, 0x40)\n      0x00\n      swap2\n      pop\n      sload\n      swap1\n      0x0100\n      exp\n      swap1\n      div\n      0xff\n      and\n      dup2\n      jump\t// out\n        /* \"#utility.yul\":7:116   */\n    tag_269:\n        /* \"#utility.yul\":43:50   */\n      0x00\n        /* \"#utility.yul\":83:109   */\n      0xffffffffffffffffffffffff\n        /* \"#utility.yul\":76:81   */\n      dup3\n        /* \"#utility.yul\":72:110   */\n      and\n        /* \"#utility.yul\":61:110   */\n      swap1\n      pop\n        /* \"#utility.yul\":7:116   */\n      swap2\n      swap1\n      pop\n      jump\t// out\n        /* \"#utility.yul\":122:237   */\n    tag_270:\n        /* \"#utility.yul\":207:230   */\n      tag_351\n        /* \"#utility.yul\":224:229   */\n      dup2\n        /* \"#utility.yul\":207:230   */\n      tag_269\n      jump\t// in\n    tag_351:\n        /* \"#utility.yul\":202:205   */\n      dup3\n        /* \"#utility.yul\":195:231   */\n      mstore\n        /* \"#utility.yul\":122:237   */\n      pop\n      pop\n      jump\t// out\n        /* \"#utility.yul\":243:461   */\n    tag_35:\n        /* \"#utility.yul\":334:338   */\n      0x00\n        /* \"#utility.yul\":372:374   */\n      0x20\n        /* \"#utility.yul\":361:370   */\n      dup3\n        /* \"#utility.yul\":357:375   */\n      add\n        /* \"#utility.yul\":349:375   */\n      swap1\n      pop\n        /* \"#utility.yul\":385:454   */\n      tag_353\n        /* \"#utility.yul\":451:452   */\n      0x00\n        /* \"#utility.yul\":440:449   */\n      dup4\n        /* \"#utility.yul\":436:453   */\n      add\n        /* \"#utility.yul\":427:433   */\n      dup5\n        /* \"#utility.yul\":385:454   */\n      tag_270\n      jump\t// in\n    tag_353:\n        /* \"#utility.yul\":243:461   */\n      swap3\n      swap2\n      pop\n      pop\n      jump\t// out\n        /* \"#utility.yul\":467:564   */\n    tag_271:\n        /* \"#utility.yul\":503:510   */\n      0x00\n        /* \"#utility.yul\":543:557   */\n      0xffffffffffff\n        /* \"#utility.yul\":536:541   */\n      dup3\n        /* \"#utility.yul\":532:558   */\n      and\n        /* \"#utility.yul\":521:558   */\n      swap1\n      pop\n        /* \"#utility.yul\":467:564   */\n      swap2\n      swap1\n      pop\n      jump\t// out\n        /* \"#utility.yul\":570:685   */\n    tag_272:\n        /* \"#utility.yul\":655:678   */\n      tag_356\n        /* \"#utility.yul\":672:677   */\n      dup2\n        /* \"#utility.yul\":655:678   */\n      tag_271\n      jump\t// in\n    tag_356:\n        /* \"#utility.yul\":650:653   */\n      dup3\n        /* \"#utility.yul\":643:679   */\n      mstore\n        /* \"#utility.yul\":570:685   */\n      pop\n      pop\n      jump\t// out\n        /* \"#utility.yul\":691:909   */\n    tag_40:\n        /* \"#utility.yul\":782:786   */\n      0x00\n        /* \"#utility.yul\":820:822   */\n      0x20\n        /* \"#utility.yul\":809:818   */\n      dup3\n        /* \"#utility.yul\":805:823   */\n      add\n        /* \"#utility.yul\":797:823   */\n      swap1\n      pop\n        /* \"#utility.yul\":833:902   */\n      tag_358\n        /* \"#utility.yul\":899:900   */\n      0x00\n        /* \"#utility.yul\":888:897   */\n      dup4\n        /* \"#utility.yul\":884:901   */\n      add\n        /* \"#utility.yul\":875:881   */\n      dup5\n        /* \"#utility.yul\":833:902   */\n      tag_272\n      jump\t// in\n    tag_358:\n        /* \"#utility.yul\":691:909   */\n      swap3\n      swap2\n      pop\n      pop\n      jump\t// out\n        /* \"#utility.yul\":915:1005   */\n    tag_273:\n        /* \"#utility.yul\":949:956   */\n      0x00\n        /* \"#utility.yul\":992:997   */\n      dup2\n        /* \"#utility.yul\":985:998   */\n      iszero\n        /* \"#utility.yul\":978:999   */\n      iszero\n        /* \"#utility.yul\":967:999   */\n      swap1\n      pop\n        /* \"#utility.yul\":915:1005   */\n      swap2\n      swap1\n      pop\n      jump\t// out\n        /* \"#utility.yul\":1011:1120   */\n    tag_274:\n        /* \"#utility.yul\":1092:1113   */\n      tag_361\n        /* \"#utility.yul\":1107:1112   */\n      dup2\n        /* \"#utility.yul\":1092:1113   */\n      tag_273\n      jump\t// in\n    tag_361:\n        /* \"#utility.yul\":1087:1090   */\n      dup3\n        /* \"#utility.yul\":1080:1114   */\n      mstore\n        /* \"#utility.yul\":1011:1120   */\n      pop\n      pop\n      jump\t// out\n        /* \"#utility.yul\":1126:1336   */\n    tag_45:\n        /* \"#utility.yul\":1213:1217   */\n      0x00\n        /* \"#utility.yul\":1251:1253   */\n      0x20\n        /* \"#utility.yul\":1240:1249   */\n      dup3\n        /* \"#utility.yul\":1236:1254   */\n      add\n        /* \"#utility.yul\":1228:1254   */\n      swap1\n      pop\n        /* \"#utility.yul\":1264:1329   */\n      tag_363\n        /* \"#utility.yul\":1326:1327   */\n      0x00\n        /* \"#utility.yul\":1315:1324   */\n      dup4\n        /* \"#utility.yul\":1311:1328   */\n      add\n        /* \"#utility.yul\":1302:1308   */\n      dup5\n        /* \"#utility.yul\":1264:1329   */\n      tag_274\n      jump\t// in\n    tag_363:\n        /* \"#utility.yul\":1126:1336   */\n      swap3\n      swap2\n      pop\n      pop\n      jump\t// out\n        /* \"#utility.yul\":1423:1540   */\n    tag_276:\n        /* \"#utility.yul\":1532:1533   */\n      0x00\n        /* \"#utility.yul\":1529:1530   */\n      dup1\n        /* \"#utility.yul\":1522:1534   */\n      revert\n        /* \"#utility.yul\":1669:1762   */\n    tag_278:\n        /* \"#utility.yul\":1705:1712   */\n      0x00\n        /* \"#utility.yul\":1745:1755   */\n      0xffffffff\n        /* \"#utility.yul\":1738:1743   */\n      dup3\n        /* \"#utility.yul\":1734:1756   */\n      and\n        /* \"#utility.yul\":1723:1756   */\n      swap1\n      pop\n        /* \"#utility.yul\":1669:1762   */\n      swap2\n      swap1\n      pop\n      jump\t// out\n        /* \"#utility.yul\":1768:1888   */\n    tag_279:\n        /* \"#utility.yul\":1840:1863   */\n      tag_369\n        /* \"#utility.yul\":1857:1862   */\n      dup2\n        /* \"#utility.yul\":1840:1863   */\n      tag_278\n      jump\t// in\n    tag_369:\n        /* \"#utility.yul\":1833:1838   */\n      dup2\n        /* \"#utility.yul\":1830:1864   */\n      eq\n        /* \"#utility.yul\":1820:1882   */\n      tag_370\n      jumpi\n        /* \"#utility.yul\":1878:1879   */\n      0x00\n        /* \"#utility.yul\":1875:1876   */\n      dup1\n        /* \"#utility.yul\":1868:1880   */\n      revert\n        /* \"#utility.yul\":1820:1882   */\n    tag_370:\n        /* \"#utility.yul\":1768:1888   */\n      pop\n      jump\t// out\n        /* \"#utility.yul\":1894:2031   */\n    tag_280:\n        /* \"#utility.yul\":1939:1944   */\n      0x00\n        /* \"#utility.yul\":1977:1983   */\n      dup2\n        /* \"#utility.yul\":1964:1984   */\n      calldataload\n        /* \"#utility.yul\":1955:1984   */\n      swap1\n      pop\n        /* \"#utility.yul\":1993:2025   */\n      tag_372\n        /* \"#utility.yul\":2019:2024   */\n      dup2\n        /* \"#utility.yul\":1993:2025   */\n      tag_279\n      jump\t// in\n    tag_372:\n        /* \"#utility.yul\":1894:2031   */\n      swap3\n      swap2\n      pop\n      pop\n      jump\t// out\n        /* \"#utility.yul\":2037:2364   */\n    tag_53:\n        /* \"#utility.yul\":2095:2101   */\n      0x00\n        /* \"#utility.yul\":2144:2146   */\n      0x20\n        /* \"#utility.yul\":2132:2141   */\n      dup3\n        /* \"#utility.yul\":2123:2130   */\n      dup5\n        /* \"#utility.yul\":2119:2142   */\n      sub\n        /* \"#utility.yul\":2115:2147   */\n      slt\n        /* \"#utility.yul\":2112:2231   */\n      iszero\n      tag_374\n      jumpi\n        /* \"#utility.yul\":2150:2229   */\n      tag_375\n      tag_276\n      jump\t// in\n    tag_375:\n        /* \"#utility.yul\":2112:2231   */\n    tag_374:\n        /* \"#utility.yul\":2270:2271   */\n      0x00\n        /* \"#utility.yul\":2295:2347   */\n      tag_376\n        /* \"#utility.yul\":2339:2346   */\n      dup5\n        /* \"#utility.yul\":2330:2336   */\n      dup3\n        /* \"#utility.yul\":2319:2328   */\n      dup6\n        /* \"#utility.yul\":2315:2337   */\n      add\n        /* \"#utility.yul\":2295:2347   */\n      tag_280\n      jump\t// in\n    tag_376:\n        /* \"#utility.yul\":2285:2347   */\n      swap2\n      pop\n        /* \"#utility.yul\":2241:2357   */\n      pop\n        /* \"#utility.yul\":2037:2364   */\n      swap3\n      swap2\n      pop\n      pop\n      jump\t// out\n        /* \"#utility.yul\":2370:2496   */\n    tag_281:\n        /* \"#utility.yul\":2407:2414   */\n      0x00\n        /* \"#utility.yul\":2447:2489   */\n      0xffffffffffffffffffffffffffffffffffffffff\n        /* \"#utility.yul\":2440:2445   */\n      dup3\n        /* \"#utility.yul\":2436:2490   */\n      and\n        /* \"#utility.yul\":2425:2490   */\n      swap1\n      pop\n        /* \"#utility.yul\":2370:2496   */\n      swap2\n      swap1\n      pop\n      jump\t// out\n        /* \"#utility.yul\":2502:2598   */\n    tag_282:\n        /* \"#utility.yul\":2539:2546   */\n      0x00\n        /* \"#utility.yul\":2568:2592   */\n      tag_379\n        /* \"#utility.yul\":2586:2591   */\n      dup3\n        /* \"#utility.yul\":2568:2592   */\n      tag_281\n      jump\t// in\n    tag_379:\n        /* \"#utility.yul\":2557:2592   */\n      swap1\n      pop\n        /* \"#utility.yul\":2502:2598   */\n      swap2\n      swap1\n      pop\n      jump\t// out\n        /* \"#utility.yul\":2604:2726   */\n    tag_283:\n        /* \"#utility.yul\":2677:2701   */\n      tag_381\n        /* \"#utility.yul\":2695:2700   */\n      dup2\n        /* \"#utility.yul\":2677:2701   */\n      tag_282\n      jump\t// in\n    tag_381:\n        /* \"#utility.yul\":2670:2675   */\n      dup2\n        /* \"#utility.yul\":2667:2702   */\n      eq\n        /* \"#utility.yul\":2657:2720   */\n      tag_382\n      jumpi\n        /* \"#utility.yul\":2716:2717   */\n      0x00\n        /* \"#utility.yul\":2713:2714   */\n      dup1\n        /* \"#utility.yul\":2706:2718   */\n      revert\n        /* \"#utility.yul\":2657:2720   */\n    tag_382:\n        /* \"#utility.yul\":2604:2726   */\n      pop\n      jump\t// out\n        /* \"#utility.yul\":2732:2871   */\n    tag_284:\n        /* \"#utility.yul\":2778:2783   */\n      0x00\n        /* \"#utility.yul\":2816:2822   */\n      dup2\n        /* \"#utility.yul\":2803:2823   */\n      calldataload\n        /* \"#utility.yul\":2794:2823   */\n      swap1\n      pop\n        /* \"#utility.yul\":2832:2865   */\n      tag_384\n        /* \"#utility.yul\":2859:2864   */\n      dup2\n        /* \"#utility.yul\":2832:2865   */\n      tag_283\n      jump\t// in\n    tag_384:\n        /* \"#utility.yul\":2732:2871   */\n      swap3\n      swap2\n      pop\n      pop\n      jump\t// out\n        /* \"#utility.yul\":2877:3206   */\n    tag_58:\n        /* \"#utility.yul\":2936:2942   */\n      0x00\n        /* \"#utility.yul\":2985:2987   */\n      0x20\n        /* \"#utility.yul\":2973:2982   */\n      dup3\n        /* \"#utility.yul\":2964:2971   */\n      dup5\n        /* \"#utility.yul\":2960:2983   */\n      sub\n        /* \"#utility.yul\":2956:2988   */\n      slt\n        /* \"#utility.yul\":2953:3072   */\n      iszero\n      tag_386\n      jumpi\n        /* \"#utility.yul\":2991:3070   */\n      tag_387\n      tag_276\n      jump\t// in\n    tag_387:\n        /* \"#utility.yul\":2953:3072   */\n    tag_386:\n        /* \"#utility.yul\":3111:3112   */\n      0x00\n        /* \"#utility.yul\":3136:3189   */\n      tag_388\n        /* \"#utility.yul\":3181:3188   */\n      dup5\n        /* \"#utility.yul\":3172:3178   */\n      dup3\n        /* \"#utility.yul\":3161:3170   */\n      dup6\n        /* \"#utility.yul\":3157:3179   */\n      add\n        /* \"#utility.yul\":3136:3189   */\n      tag_284\n      jump\t// in\n    tag_388:\n        /* \"#utility.yul\":3126:3189   */\n      swap2\n      pop\n        /* \"#utility.yul\":3082:3199   */\n      pop\n        /* \"#utility.yul\":2877:3206   */\n      swap3\n      swap2\n      pop\n      pop\n      jump\t// out\n        /* \"#utility.yul\":3212:3301   */\n    tag_285:\n        /* \"#utility.yul\":3248:3255   */\n      0x00\n        /* \"#utility.yul\":3288:3294   */\n      0xffff\n        /* \"#utility.yul\":3281:3286   */\n      dup3\n        /* \"#utility.yul\":3277:3295   */\n      and\n        /* \"#utility.yul\":3266:3295   */\n      swap1\n      pop\n        /* \"#utility.yul\":3212:3301   */\n      swap2\n      swap1\n      pop\n      jump\t// out\n        /* \"#utility.yul\":3307:3422   */\n    tag_286:\n        /* \"#utility.yul\":3392:3415   */\n      tag_391\n        /* \"#utility.yul\":3409:3414   */\n      dup2\n        /* \"#utility.yul\":3392:3415   */\n      tag_285\n      jump\t// in\n    tag_391:\n        /* \"#utility.yul\":3387:3390   */\n      dup3\n        /* \"#utility.yul\":3380:3416   */\n      mstore\n        /* \"#utility.yul\":3307:3422   */\n      pop\n      pop\n      jump\t// out\n        /* \"#utility.yul\":3428:3646   */\n    tag_65:\n        /* \"#utility.yul\":3519:3523   */\n      0x00\n        /* \"#utility.yul\":3557:3559   */\n      0x20\n        /* \"#utility.yul\":3546:3555   */\n      dup3\n        /* \"#utility.yul\":3542:3560   */\n      add\n        /* \"#utility.yul\":3534:3560   */\n      swap1\n      pop\n        /* \"#utility.yul\":3570:3639   */\n      tag_393\n        /* \"#utility.yul\":3636:3637   */\n      0x00\n        /* \"#utility.yul\":3625:3634   */\n      dup4\n        /* \"#utility.yul\":3621:3638   */\n      add\n        /* \"#utility.yul\":3612:3618   */\n      dup5\n        /* \"#utility.yul\":3570:3639   */\n      tag_286\n      jump\t// in\n    tag_393:\n        /* \"#utility.yul\":3428:3646   */\n      swap3\n      swap2\n      pop\n      pop\n      jump\t// out\n        /* \"#utility.yul\":3652:3751   */\n    tag_287:\n        /* \"#utility.yul\":3704:3710   */\n      0x00\n        /* \"#utility.yul\":3738:3743   */\n      dup2\n        /* \"#utility.yul\":3732:3744   */\n      mload\n        /* \"#utility.yul\":3722:3744   */\n      swap1\n      pop\n        /* \"#utility.yul\":3652:3751   */\n      swap2\n      swap1\n      pop\n      jump\t// out\n        /* \"#utility.yul\":3757:3926   */\n    tag_288:\n        /* \"#utility.yul\":3841:3852   */\n      0x00\n        /* \"#utility.yul\":3875:3881   */\n      dup3\n        /* \"#utility.yul\":3870:3873   */\n      dup3\n        /* \"#utility.yul\":3863:3882   */\n      mstore\n        /* \"#utility.yul\":3915:3919   */\n      0x20\n        /* \"#utility.yul\":3910:3913   */\n      dup3\n        /* \"#utility.yul\":3906:3920   */\n      add\n        /* \"#utility.yul\":3891:3920   */\n      swap1\n      pop\n        /* \"#utility.yul\":3757:3926   */\n      swap3\n      swap2\n      pop\n      pop\n      jump\t// out\n        /* \"#utility.yul\":3932:4178   */\n    tag_289:\n        /* \"#utility.yul\":4013:4014   */\n      0x00\n        /* \"#utility.yul\":4023:4136   */\n    tag_397:\n        /* \"#utility.yul\":4037:4043   */\n      dup4\n        /* \"#utility.yul\":4034:4035   */\n      dup2\n        /* \"#utility.yul\":4031:4044   */\n      lt\n        /* \"#utility.yul\":4023:4136   */\n      iszero\n      tag_399\n      jumpi\n        /* \"#utility.yul\":4122:4123   */\n      dup1\n        /* \"#utility.yul\":4117:4120   */\n      dup3\n        /* \"#utility.yul\":4113:4124   */\n      add\n        /* \"#utility.yul\":4107:4125   */\n      mload\n        /* \"#utility.yul\":4103:4104   */\n      dup2\n        /* \"#utility.yul\":4098:4101   */\n      dup5\n        /* \"#utility.yul\":4094:4105   */\n      add\n        /* \"#utility.yul\":4087:4126   */\n      mstore\n        /* \"#utility.yul\":4059:4061   */\n      0x20\n        /* \"#utility.yul\":4056:4057   */\n      dup2\n        /* \"#utility.yul\":4052:4062   */\n      add\n        /* \"#utility.yul\":4047:4062   */\n      swap1\n      pop\n        /* \"#utility.yul\":4023:4136   */\n      jump(tag_397)\n    tag_399:\n        /* \"#utility.yul\":4170:4171   */\n      0x00\n        /* \"#utility.yul\":4161:4167   */\n      dup5\n        /* \"#utility.yul\":4156:4159   */\n      dup5\n        /* \"#utility.yul\":4152:4168   */\n      add\n        /* \"#utility.yul\":4145:4172   */\n      mstore\n        /* \"#utility.yul\":3994:4178   */\n      pop\n        /* \"#utility.yul\":3932:4178   */\n      pop\n      pop\n      pop\n      jump\t// out\n        /* \"#utility.yul\":4184:4286   */\n    tag_290:\n        /* \"#utility.yul\":4225:4231   */\n      0x00\n        /* \"#utility.yul\":4276:4278   */\n      0x1f\n        /* \"#utility.yul\":4272:4279   */\n      not\n        /* \"#utility.yul\":4267:4269   */\n      0x1f\n        /* \"#utility.yul\":4260:4265   */\n      dup4\n        /* \"#utility.yul\":4256:4270   */\n      add\n        /* \"#utility.yul\":4252:4280   */\n      and\n        /* \"#utility.yul\":4242:4280   */\n      swap1\n      pop\n        /* \"#utility.yul\":4184:4286   */\n      swap2\n      swap1\n      pop\n      jump\t// out\n        /* \"#utility.yul\":4292:4669   */\n    tag_291:\n        /* \"#utility.yul\":4380:4383   */\n      0x00\n        /* \"#utility.yul\":4408:4447   */\n      tag_402\n        /* \"#utility.yul\":4441:4446   */\n      dup3\n        /* \"#utility.yul\":4408:4447   */\n      tag_287\n      jump\t// in\n    tag_402:\n        /* \"#utility.yul\":4463:4534   */\n      tag_403\n        /* \"#utility.yul\":4527:4533   */\n      dup2\n        /* \"#utility.yul\":4522:4525   */\n      dup6\n        /* \"#utility.yul\":4463:4534   */\n      tag_288\n      jump\t// in\n    tag_403:\n        /* \"#utility.yul\":4456:4534   */\n      swap4\n      pop\n        /* \"#utility.yul\":4543:4608   */\n      tag_404\n        /* \"#utility.yul\":4601:4607   */\n      dup2\n        /* \"#utility.yul\":4596:4599   */\n      dup6\n        /* \"#utility.yul\":4589:4593   */\n      0x20\n        /* \"#utility.yul\":4582:4587   */\n      dup7\n        /* \"#utility.yul\":4578:4594   */\n      add\n        /* \"#utility.yul\":4543:4608   */\n      tag_289\n      jump\t// in\n    tag_404:\n        /* \"#utility.yul\":4633:4662   */\n      tag_405\n        /* \"#utility.yul\":4655:4661   */\n      dup2\n        /* \"#utility.yul\":4633:4662   */\n      tag_290\n      jump\t// in\n    tag_405:\n        /* \"#utility.yul\":4628:4631   */\n      dup5\n        /* \"#utility.yul\":4624:4663   */\n      add\n        /* \"#utility.yul\":4617:4663   */\n      swap2\n      pop\n        /* \"#utility.yul\":4384:4669   */\n      pop\n        /* \"#utility.yul\":4292:4669   */\n      swap3\n      swap2\n      pop\n      pop\n      jump\t// out\n        /* \"#utility.yul\":4675:4988   */\n    tag_87:\n        /* \"#utility.yul\":4788:4792   */\n      0x00\n        /* \"#utility.yul\":4826:4828   */\n      0x20\n        /* \"#utility.yul\":4815:4824   */\n      dup3\n        /* \"#utility.yul\":4811:4829   */\n      add\n        /* \"#utility.yul\":4803:4829   */\n      swap1\n      pop\n        /* \"#utility.yul\":4875:4884   */\n      dup2\n        /* \"#utility.yul\":4869:4873   */\n      dup2\n        /* \"#utility.yul\":4865:4885   */\n      sub\n        /* \"#utility.yul\":4861:4862   */\n      0x00\n        /* \"#utility.yul\":4850:4859   */\n      dup4\n        /* \"#utility.yul\":4846:4863   */\n      add\n        /* \"#utility.yul\":4839:4886   */\n      mstore\n        /* \"#utility.yul\":4903:4981   */\n      tag_407\n        /* \"#utility.yul\":4976:4980   */\n      dup2\n        /* \"#utility.yul\":4967:4973   */\n      dup5\n        /* \"#utility.yul\":4903:4981   */\n      tag_291\n      jump\t// in\n    tag_407:\n        /* \"#utility.yul\":4895:4981   */\n      swap1\n      pop\n        /* \"#utility.yul\":4675:4988   */\n      swap3\n      swap2\n      pop\n      pop\n      jump\t// out\n        /* \"#utility.yul\":4994:5112   */\n    tag_292:\n        /* \"#utility.yul\":5081:5105   */\n      tag_409\n        /* \"#utility.yul\":5099:5104   */\n      dup2\n        /* \"#utility.yul\":5081:5105   */\n      tag_282\n      jump\t// in\n    tag_409:\n        /* \"#utility.yul\":5076:5079   */\n      dup3\n        /* \"#utility.yul\":5069:5106   */\n      mstore\n        /* \"#utility.yul\":4994:5112   */\n      pop\n      pop\n      jump\t// out\n        /* \"#utility.yul\":5118:5340   */\n    tag_102:\n        /* \"#utility.yul\":5211:5215   */\n      0x00\n        /* \"#utility.yul\":5249:5251   */\n      0x20\n        /* \"#utility.yul\":5238:5247   */\n      dup3\n        /* \"#utility.yul\":5234:5252   */\n      add\n        /* \"#utility.yul\":5226:5252   */\n      swap1\n      pop\n        /* \"#utility.yul\":5262:5333   */\n      tag_411\n        /* \"#utility.yul\":5330:5331   */\n      0x00\n        /* \"#utility.yul\":5319:5328   */\n      dup4\n        /* \"#utility.yul\":5315:5332   */\n      add\n        /* \"#utility.yul\":5306:5312   */\n      dup5\n        /* \"#utility.yul\":5262:5333   */\n      tag_292\n      jump\t// in\n    tag_411:\n        /* \"#utility.yul\":5118:5340   */\n      swap3\n      swap2\n      pop\n      pop\n      jump\t// out\n        /* \"#utility.yul\":5346:5466   */\n    tag_293:\n        /* \"#utility.yul\":5418:5441   */\n      tag_413\n        /* \"#utility.yul\":5435:5440   */\n      dup2\n        /* \"#utility.yul\":5418:5441   */\n      tag_271\n      jump\t// in\n    tag_413:\n        /* \"#utility.yul\":5411:5416   */\n      dup2\n        /* \"#utility.yul\":5408:5442   */\n      eq\n        /* \"#utility.yul\":5398:5460   */\n      tag_414\n      jumpi\n        /* \"#utility.yul\":5456:5457   */\n      0x00\n        /* \"#utility.yul\":5453:5454   */\n      dup1\n        /* \"#utility.yul\":5446:5458   */\n      revert\n        /* \"#utility.yul\":5398:5460   */\n    tag_414:\n        /* \"#utility.yul\":5346:5466   */\n      pop\n      jump\t// out\n        /* \"#utility.yul\":5472:5609   */\n    tag_294:\n        /* \"#utility.yul\":5517:5522   */\n      0x00\n        /* \"#utility.yul\":5555:5561   */\n      dup2\n        /* \"#utility.yul\":5542:5562   */\n      calldataload\n        /* \"#utility.yul\":5533:5562   */\n      swap1\n      pop\n        /* \"#utility.yul\":5571:5603   */\n      tag_416\n        /* \"#utility.yul\":5597:5602   */\n      dup2\n        /* \"#utility.yul\":5571:5603   */\n      tag_293\n      jump\t// in\n    tag_416:\n        /* \"#utility.yul\":5472:5609   */\n      swap3\n      swap2\n      pop\n      pop\n      jump\t// out\n        /* \"#utility.yul\":5615:5942   */\n    tag_114:\n        /* \"#utility.yul\":5673:5679   */\n      0x00\n        /* \"#utility.yul\":5722:5724   */\n      0x20\n        /* \"#utility.yul\":5710:5719   */\n      dup3\n        /* \"#utility.yul\":5701:5708   */\n      dup5\n        /* \"#utility.yul\":5697:5720   */\n      sub\n        /* \"#utility.yul\":5693:5725   */\n      slt\n        /* \"#utility.yul\":5690:5809   */\n      iszero\n      tag_418\n      jumpi\n        /* \"#utility.yul\":5728:5807   */\n      tag_419\n      tag_276\n      jump\t// in\n    tag_419:\n        /* \"#utility.yul\":5690:5809   */\n    tag_418:\n        /* \"#utility.yul\":5848:5849   */\n      0x00\n        /* \"#utility.yul\":5873:5925   */\n      tag_420\n        /* \"#utility.yul\":5917:5924   */\n      dup5\n        /* \"#utility.yul\":5908:5914   */\n      dup3\n        /* \"#utility.yul\":5897:5906   */\n      dup6\n        /* \"#utility.yul\":5893:5915   */\n      add\n        /* \"#utility.yul\":5873:5925   */\n      tag_294\n      jump\t// in\n    tag_420:\n        /* \"#utility.yul\":5863:5925   */\n      swap2\n      pop\n        /* \"#utility.yul\":5819:5935   */\n      pop\n        /* \"#utility.yul\":5615:5942   */\n      swap3\n      swap2\n      pop\n      pop\n      jump\t// out\n        /* \"#utility.yul\":5948:6068   */\n    tag_295:\n        /* \"#utility.yul\":6020:6043   */\n      tag_422\n        /* \"#utility.yul\":6037:6042   */\n      dup2\n        /* \"#utility.yul\":6020:6043   */\n      tag_285\n      jump\t// in\n    tag_422:\n        /* \"#utility.yul\":6013:6018   */\n      dup2\n        /* \"#utility.yul\":6010:6044   */\n      eq\n        /* \"#utility.yul\":6000:6062   */\n      tag_423\n      jumpi\n        /* \"#utility.yul\":6058:6059   */\n      0x00\n        /* \"#utility.yul\":6055:6056   */\n      dup1\n        /* \"#utility.yul\":6048:6060   */\n      revert\n        /* \"#utility.yul\":6000:6062   */\n    tag_423:\n        /* \"#utility.yul\":5948:6068   */\n      pop\n      jump\t// out\n        /* \"#utility.yul\":6074:6211   */\n    tag_296:\n        /* \"#utility.yul\":6119:6124   */\n      0x00\n        /* \"#utility.yul\":6157:6163   */\n      dup2\n        /* \"#utility.yul\":6144:6164   */\n      calldataload\n        /* \"#utility.yul\":6135:6164   */\n      swap1\n      pop\n        /* \"#utility.yul\":6173:6205   */\n      tag_425\n        /* \"#utility.yul\":6199:6204   */\n      dup2\n        /* \"#utility.yul\":6173:6205   */\n      tag_295\n      jump\t// in\n    tag_425:\n        /* \"#utility.yul\":6074:6211   */\n      swap3\n      swap2\n      pop\n      pop\n      jump\t// out\n        /* \"#utility.yul\":6217:6544   */\n    tag_125:\n        /* \"#utility.yul\":6275:6281   */\n      0x00\n        /* \"#utility.yul\":6324:6326   */\n      0x20\n        /* \"#utility.yul\":6312:6321   */\n      dup3\n        /* \"#utility.yul\":6303:6310   */\n      dup5\n        /* \"#utility.yul\":6299:6322   */\n      sub\n        /* \"#utility.yul\":6295:6327   */\n      slt\n        /* \"#utility.yul\":6292:6411   */\n      iszero\n      tag_427\n      jumpi\n        /* \"#utility.yul\":6330:6409   */\n      tag_428\n      tag_276\n      jump\t// in\n    tag_428:\n        /* \"#utility.yul\":6292:6411   */\n    tag_427:\n        /* \"#utility.yul\":6450:6451   */\n      0x00\n        /* \"#utility.yul\":6475:6527   */\n      tag_429\n        /* \"#utility.yul\":6519:6526   */\n      dup5\n        /* \"#utility.yul\":6510:6516   */\n      dup3\n        /* \"#utility.yul\":6499:6508   */\n      dup6\n        /* \"#utility.yul\":6495:6517   */\n      add\n        /* \"#utility.yul\":6475:6527   */\n      tag_296\n      jump\t// in\n    tag_429:\n        /* \"#utility.yul\":6465:6527   */\n      swap2\n      pop\n        /* \"#utility.yul\":6421:6537   */\n      pop\n        /* \"#utility.yul\":6217:6544   */\n      swap3\n      swap2\n      pop\n      pop\n      jump\t// out\n        /* \"#utility.yul\":6550:6785   */\n    tag_297:\n        /* \"#utility.yul\":6690:6724   */\n      0x4e75722064657220477275656e646572206b616e6e2064696573652046756e6b\n        /* \"#utility.yul\":6686:6687   */\n      0x00\n        /* \"#utility.yul\":6678:6684   */\n      dup3\n        /* \"#utility.yul\":6674:6688   */\n      add\n        /* \"#utility.yul\":6667:6725   */\n      mstore\n        /* \"#utility.yul\":6759:6777   */\n      0x74696f6e206175736675656872656e2e00000000000000000000000000000000\n        /* \"#utility.yul\":6754:6756   */\n      0x20\n        /* \"#utility.yul\":6746:6752   */\n      dup3\n        /* \"#utility.yul\":6742:6757   */\n      add\n        /* \"#utility.yul\":6735:6778   */\n      mstore\n        /* \"#utility.yul\":6550:6785   */\n      pop\n      jump\t// out\n        /* \"#utility.yul\":6791:7157   */\n    tag_298:\n        /* \"#utility.yul\":6933:6936   */\n      0x00\n        /* \"#utility.yul\":6954:7021   */\n      tag_432\n        /* \"#utility.yul\":7018:7020   */\n      0x30\n        /* \"#utility.yul\":7013:7016   */\n      dup4\n        /* \"#utility.yul\":6954:7021   */\n      tag_288\n      jump\t// in\n    tag_432:\n        /* \"#utility.yul\":6947:7021   */\n      swap2\n      pop\n        /* \"#utility.yul\":7030:7123   */\n      tag_433\n        /* \"#utility.yul\":7119:7122   */\n      dup3\n        /* \"#utility.yul\":7030:7123   */\n      tag_297\n      jump\t// in\n    tag_433:\n        /* \"#utility.yul\":7148:7150   */\n      0x40\n        /* \"#utility.yul\":7143:7146   */\n      dup3\n        /* \"#utility.yul\":7139:7151   */\n      add\n        /* \"#utility.yul\":7132:7151   */\n      swap1\n      pop\n        /* \"#utility.yul\":6791:7157   */\n      swap2\n      swap1\n      pop\n      jump\t// out\n        /* \"#utility.yul\":7163:7582   */\n    tag_139:\n        /* \"#utility.yul\":7329:7333   */\n      0x00\n        /* \"#utility.yul\":7367:7369   */\n      0x20\n        /* \"#utility.yul\":7356:7365   */\n      dup3\n        /* \"#utility.yul\":7352:7370   */\n      add\n        /* \"#utility.yul\":7344:7370   */\n      swap1\n      pop\n        /* \"#utility.yul\":7416:7425   */\n      dup2\n        /* \"#utility.yul\":7410:7414   */\n      dup2\n        /* \"#utility.yul\":7406:7426   */\n      sub\n        /* \"#utility.yul\":7402:7403   */\n      0x00\n        /* \"#utility.yul\":7391:7400   */\n      dup4\n        /* \"#utility.yul\":7387:7404   */\n      add\n        /* \"#utility.yul\":7380:7427   */\n      mstore\n        /* \"#utility.yul\":7444:7575   */\n      tag_435\n        /* \"#utility.yul\":7570:7574   */\n      dup2\n        /* \"#utility.yul\":7444:7575   */\n      tag_298\n      jump\t// in\n    tag_435:\n        /* \"#utility.yul\":7436:7575   */\n      swap1\n      pop\n        /* \"#utility.yul\":7163:7582   */\n      swap2\n      swap1\n      pop\n      jump\t// out\n        /* \"#utility.yul\":7588:7838   */\n    tag_299:\n        /* \"#utility.yul\":7728:7762   */\n      0x457320676962742062657265697473204d6974737069656c65722e2050726569\n        /* \"#utility.yul\":7724:7725   */\n      0x00\n        /* \"#utility.yul\":7716:7722   */\n      dup3\n        /* \"#utility.yul\":7712:7726   */\n      add\n        /* \"#utility.yul\":7705:7763   */\n      mstore\n        /* \"#utility.yul\":7797:7830   */\n      0x7361656e646572756e67206e69636874206d656872206d6f65676c6963682e00\n        /* \"#utility.yul\":7792:7794   */\n      0x20\n        /* \"#utility.yul\":7784:7790   */\n      dup3\n        /* \"#utility.yul\":7780:7795   */\n      add\n        /* \"#utility.yul\":7773:7831   */\n      mstore\n        /* \"#utility.yul\":7588:7838   */\n      pop\n      jump\t// out\n        /* \"#utility.yul\":7844:8210   */\n    tag_300:\n        /* \"#utility.yul\":7986:7989   */\n      0x00\n        /* \"#utility.yul\":8007:8074   */\n      tag_438\n        /* \"#utility.yul\":8071:8073   */\n      0x3f\n        /* \"#utility.yul\":8066:8069   */\n      dup4\n        /* \"#utility.yul\":8007:8074   */\n      tag_288\n      jump\t// in\n    tag_438:\n        /* \"#utility.yul\":8000:8074   */\n      swap2\n      pop\n        /* \"#utility.yul\":8083:8176   */\n      tag_439\n        /* \"#utility.yul\":8172:8175   */\n      dup3\n        /* \"#utility.yul\":8083:8176   */\n      tag_299\n      jump\t// in\n    tag_439:\n        /* \"#utility.yul\":8201:8203   */\n      0x40\n        /* \"#utility.yul\":8196:8199   */\n      dup3\n        /* \"#utility.yul\":8192:8204   */\n      add\n        /* \"#utility.yul\":8185:8204   */\n      swap1\n      pop\n        /* \"#utility.yul\":7844:8210   */\n      swap2\n      swap1\n      pop\n      jump\t// out\n        /* \"#utility.yul\":8216:8635   */\n    tag_143:\n        /* \"#utility.yul\":8382:8386   */\n      0x00\n        /* \"#utility.yul\":8420:8422   */\n      0x20\n        /* \"#utility.yul\":8409:8418   */\n      dup3\n        /* \"#utility.yul\":8405:8423   */\n      add\n        /* \"#utility.yul\":8397:8423   */\n      swap1\n      pop\n        /* \"#utility.yul\":8469:8478   */\n      dup2\n        /* \"#utility.yul\":8463:8467   */\n      dup2\n        /* \"#utility.yul\":8459:8479   */\n      sub\n        /* \"#utility.yul\":8455:8456   */\n      0x00\n        /* \"#utility.yul\":8444:8453   */\n      dup4\n        /* \"#utility.yul\":8440:8457   */\n      add\n        /* \"#utility.yul\":8433:8480   */\n      mstore\n        /* \"#utility.yul\":8497:8628   */\n      tag_441\n        /* \"#utility.yul\":8623:8627   */\n      dup2\n        /* \"#utility.yul\":8497:8628   */\n      tag_300\n      jump\t// in\n    tag_441:\n        /* \"#utility.yul\":8489:8628   */\n      swap1\n      pop\n        /* \"#utility.yul\":8216:8635   */\n      swap2\n      swap1\n      pop\n      jump\t// out\n        /* \"#utility.yul\":8641:8886   */\n    tag_301:\n        /* \"#utility.yul\":8781:8815   */\n      0x457320676962742062657265697473204d6974737069656c65722e2041656e64\n        /* \"#utility.yul\":8777:8778   */\n      0x00\n        /* \"#utility.yul\":8769:8775   */\n      dup3\n        /* \"#utility.yul\":8765:8779   */\n      add\n        /* \"#utility.yul\":8758:8816   */\n      mstore\n        /* \"#utility.yul\":8850:8878   */\n      0x6572756e67206e69636874206d656872206d6f65676c6963682e000000000000\n        /* \"#utility.yul\":8845:8847   */\n      0x20\n        /* \"#utility.yul\":8837:8843   */\n      dup3\n        /* \"#utility.yul\":8833:8848   */\n      add\n        /* \"#utility.yul\":8826:8879   */\n      mstore\n        /* \"#utility.yul\":8641:8886   */\n      pop\n      jump\t// out\n        /* \"#utility.yul\":8892:9258   */\n    tag_302:\n        /* \"#utility.yul\":9034:9037   */\n      0x00\n        /* \"#utility.yul\":9055:9122   */\n      tag_444\n        /* \"#utility.yul\":9119:9121   */\n      0x3a\n        /* \"#utility.yul\":9114:9117   */\n      dup4\n        /* \"#utility.yul\":9055:9122   */\n      tag_288\n      jump\t// in\n    tag_444:\n        /* \"#utility.yul\":9048:9122   */\n      swap2\n      pop\n        /* \"#utility.yul\":9131:9224   */\n      tag_445\n        /* \"#utility.yul\":9220:9223   */\n      dup3\n        /* \"#utility.yul\":9131:9224   */\n      tag_301\n      jump\t// in\n    tag_445:\n        /* \"#utility.yul\":9249:9251   */\n      0x40\n        /* \"#utility.yul\":9244:9247   */\n      dup3\n        /* \"#utility.yul\":9240:9252   */\n      add\n        /* \"#utility.yul\":9233:9252   */\n      swap1\n      pop\n        /* \"#utility.yul\":8892:9258   */\n      swap2\n      swap1\n      pop\n      jump\t// out\n        /* \"#utility.yul\":9264:9683   */\n    tag_150:\n        /* \"#utility.yul\":9430:9434   */\n      0x00\n        /* \"#utility.yul\":9468:9470   */\n      0x20\n        /* \"#utility.yul\":9457:9466   */\n      dup3\n        /* \"#utility.yul\":9453:9471   */\n      add\n        /* \"#utility.yul\":9445:9471   */\n      swap1\n      pop\n        /* \"#utility.yul\":9517:9526   */\n      dup2\n        /* \"#utility.yul\":9511:9515   */\n      dup2\n        /* \"#utility.yul\":9507:9527   */\n      sub\n        /* \"#utility.yul\":9503:9504   */\n      0x00\n        /* \"#utility.yul\":9492:9501   */\n      dup4\n        /* \"#utility.yul\":9488:9505   */\n      add\n        /* \"#utility.yul\":9481:9528   */\n      mstore\n        /* \"#utility.yul\":9545:9676   */\n      tag_447\n        /* \"#utility.yul\":9671:9675   */\n      dup2\n        /* \"#utility.yul\":9545:9676   */\n      tag_302\n      jump\t// in\n    tag_447:\n        /* \"#utility.yul\":9537:9676   */\n      swap1\n      pop\n        /* \"#utility.yul\":9264:9683   */\n      swap2\n      swap1\n      pop\n      jump\t// out\n        /* \"#utility.yul\":9689:9864   */\n    tag_303:\n        /* \"#utility.yul\":9829:9856   */\n      0x4b65696e2050726569732070726f204d6974737069656c657200000000000000\n        /* \"#utility.yul\":9825:9826   */\n      0x00\n        /* \"#utility.yul\":9817:9823   */\n      dup3\n        /* \"#utility.yul\":9813:9827   */\n      add\n        /* \"#utility.yul\":9806:9857   */\n      mstore\n        /* \"#utility.yul\":9689:9864   */\n      pop\n      jump\t// out\n        /* \"#utility.yul\":9870:10236   */\n    tag_304:\n        /* \"#utility.yul\":10012:10015   */\n      0x00\n        /* \"#utility.yul\":10033:10100   */\n      tag_450\n        /* \"#utility.yul\":10097:10099   */\n      0x19\n        /* \"#utility.yul\":10092:10095   */\n      dup4\n        /* \"#utility.yul\":10033:10100   */\n      tag_288\n      jump\t// in\n    tag_450:\n        /* \"#utility.yul\":10026:10100   */\n      swap2\n      pop\n        /* \"#utility.yul\":10109:10202   */\n      tag_451\n        /* \"#utility.yul\":10198:10201   */\n      dup3\n        /* \"#utility.yul\":10109:10202   */\n      tag_303\n      jump\t// in\n    tag_451:\n        /* \"#utility.yul\":10227:10229   */\n      0x20\n        /* \"#utility.yul\":10222:10225   */\n      dup3\n        /* \"#utility.yul\":10218:10230   */\n      add\n        /* \"#utility.yul\":10211:10230   */\n      swap1\n      pop\n        /* \"#utility.yul\":9870:10236   */\n      swap2\n      swap1\n      pop\n      jump\t// out\n        /* \"#utility.yul\":10242:10661   */\n    tag_154:\n        /* \"#utility.yul\":10408:10412   */\n      0x00\n        /* \"#utility.yul\":10446:10448   */\n      0x20\n        /* \"#utility.yul\":10435:10444   */\n      dup3\n        /* \"#utility.yul\":10431:10449   */\n      add\n        /* \"#utility.yul\":10423:10449   */\n      swap1\n      pop\n        /* \"#utility.yul\":10495:10504   */\n      dup2\n        /* \"#utility.yul\":10489:10493   */\n      dup2\n        /* \"#utility.yul\":10485:10505   */\n      sub\n        /* \"#utility.yul\":10481:10482   */\n      0x00\n        /* \"#utility.yul\":10470:10479   */\n      dup4\n        /* \"#utility.yul\":10466:10483   */\n      add\n        /* \"#utility.yul\":10459:10506   */\n      mstore\n        /* \"#utility.yul\":10523:10654   */\n      tag_453\n        /* \"#utility.yul\":10649:10653   */\n      dup2\n        /* \"#utility.yul\":10523:10654   */\n      tag_304\n      jump\t// in\n    tag_453:\n        /* \"#utility.yul\":10515:10654   */\n      swap1\n      pop\n        /* \"#utility.yul\":10242:10661   */\n      swap2\n      swap1\n      pop\n      jump\t// out\n        /* \"#utility.yul\":10667:10846   */\n    tag_305:\n        /* \"#utility.yul\":10807:10838   */\n      0x5a7520676572696e6765722045696e7a61686c756e6773626574726167000000\n        /* \"#utility.yul\":10803:10804   */\n      0x00\n        /* \"#utility.yul\":10795:10801   */\n      dup3\n        /* \"#utility.yul\":10791:10805   */\n      add\n        /* \"#utility.yul\":10784:10839   */\n      mstore\n        /* \"#utility.yul\":10667:10846   */\n      pop\n      jump\t// out\n        /* \"#utility.yul\":10852:11218   */\n    tag_306:\n        /* \"#utility.yul\":10994:10997   */\n      0x00\n        /* \"#utility.yul\":11015:11082   */\n      tag_456\n        /* \"#utility.yul\":11079:11081   */\n      0x1d\n        /* \"#utility.yul\":11074:11077   */\n      dup4\n        /* \"#utility.yul\":11015:11082   */\n      tag_288\n      jump\t// in\n    tag_456:\n        /* \"#utility.yul\":11008:11082   */\n      swap2\n      pop\n        /* \"#utility.yul\":11091:11184   */\n      tag_457\n        /* \"#utility.yul\":11180:11183   */\n      dup3\n        /* \"#utility.yul\":11091:11184   */\n      tag_305\n      jump\t// in\n    tag_457:\n        /* \"#utility.yul\":11209:11211   */\n      0x20\n        /* \"#utility.yul\":11204:11207   */\n      dup3\n        /* \"#utility.yul\":11200:11212   */\n      add\n        /* \"#utility.yul\":11193:11212   */\n      swap1\n      pop\n        /* \"#utility.yul\":10852:11218   */\n      swap2\n      swap1\n      pop\n      jump\t// out\n        /* \"#utility.yul\":11224:11643   */\n    tag_157:\n        /* \"#utility.yul\":11390:11394   */\n      0x00\n        /* \"#utility.yul\":11428:11430   */\n      0x20\n        /* \"#utility.yul\":11417:11426   */\n      dup3\n        /* \"#utility.yul\":11413:11431   */\n      add\n        /* \"#utility.yul\":11405:11431   */\n      swap1\n      pop\n        /* \"#utility.yul\":11477:11486   */\n      dup2\n        /* \"#utility.yul\":11471:11475   */\n      dup2\n        /* \"#utility.yul\":11467:11487   */\n      sub\n        /* \"#utility.yul\":11463:11464   */\n      0x00\n        /* \"#utility.yul\":11452:11461   */\n      dup4\n        /* \"#utility.yul\":11448:11465   */\n      add\n        /* \"#utility.yul\":11441:11488   */\n      mstore\n        /* \"#utility.yul\":11505:11636   */\n      tag_459\n        /* \"#utility.yul\":11631:11635   */\n      dup2\n        /* \"#utility.yul\":11505:11636   */\n      tag_306\n      jump\t// in\n    tag_459:\n        /* \"#utility.yul\":11497:11636   */\n      swap1\n      pop\n        /* \"#utility.yul\":11224:11643   */\n      swap2\n      swap1\n      pop\n      jump\t// out\n        /* \"#utility.yul\":11649:11870   */\n    tag_307:\n        /* \"#utility.yul\":11789:11823   */\n      0x4265726569747320616c73204d6974737069656c657220726567697374726965\n        /* \"#utility.yul\":11785:11786   */\n      0x00\n        /* \"#utility.yul\":11777:11783   */\n      dup3\n        /* \"#utility.yul\":11773:11787   */\n      add\n        /* \"#utility.yul\":11766:11824   */\n      mstore\n        /* \"#utility.yul\":11858:11862   */\n      0x7274000000000000000000000000000000000000000000000000000000000000\n        /* \"#utility.yul\":11853:11855   */\n      0x20\n        /* \"#utility.yul\":11845:11851   */\n      dup3\n        /* \"#utility.yul\":11841:11856   */\n      add\n        /* \"#utility.yul\":11834:11863   */\n      mstore\n        /* \"#utility.yul\":11649:11870   */\n      pop\n      jump\t// out\n        /* \"#utility.yul\":11876:12242   */\n    tag_308:\n        /* \"#utility.yul\":12018:12021   */\n      0x00\n        /* \"#utility.yul\":12039:12106   */\n      tag_462\n        /* \"#utility.yul\":12103:12105   */\n      0x22\n        /* \"#utility.yul\":12098:12101   */\n      dup4\n        /* \"#utility.yul\":12039:12106   */\n      tag_288\n      jump\t// in\n    tag_462:\n        /* \"#utility.yul\":12032:12106   */\n      swap2\n      pop\n        /* \"#utility.yul\":12115:12208   */\n      tag_463\n        /* \"#utility.yul\":12204:12207   */\n      dup3\n        /* \"#utility.yul\":12115:12208   */\n      tag_307\n      jump\t// in\n    tag_463:\n        /* \"#utility.yul\":12233:12235   */\n      0x40\n        /* \"#utility.yul\":12228:12231   */\n      dup3\n        /* \"#utility.yul\":12224:12236   */\n      add\n        /* \"#utility.yul\":12217:12236   */\n      swap1\n      pop\n        /* \"#utility.yul\":11876:12242   */\n      swap2\n      swap1\n      pop\n      jump\t// out\n        /* \"#utility.yul\":12248:12667   */\n    tag_160:\n        /* \"#utility.yul\":12414:12418   */\n      0x00\n        /* \"#utility.yul\":12452:12454   */\n      0x20\n        /* \"#utility.yul\":12441:12450   */\n      dup3\n        /* \"#utility.yul\":12437:12455   */\n      add\n        /* \"#utility.yul\":12429:12455   */\n      swap1\n      pop\n        /* \"#utility.yul\":12501:12510   */\n      dup2\n        /* \"#utility.yul\":12495:12499   */\n      dup2\n        /* \"#utility.yul\":12491:12511   */\n      sub\n        /* \"#utility.yul\":12487:12488   */\n      0x00\n        /* \"#utility.yul\":12476:12485   */\n      dup4\n        /* \"#utility.yul\":12472:12489   */\n      add\n        /* \"#utility.yul\":12465:12512   */\n      mstore\n        /* \"#utility.yul\":12529:12660   */\n      tag_465\n        /* \"#utility.yul\":12655:12659   */\n      dup2\n        /* \"#utility.yul\":12529:12660   */\n      tag_308\n      jump\t// in\n    tag_465:\n        /* \"#utility.yul\":12521:12660   */\n      swap1\n      pop\n        /* \"#utility.yul\":12248:12667   */\n      swap2\n      swap1\n      pop\n      jump\t// out\n        /* \"#utility.yul\":12673:12855   */\n    tag_309:\n        /* \"#utility.yul\":12813:12847   */\n      0x4d6178696d616c65205465696c6e65686d65727a61686c206572726569636874\n        /* \"#utility.yul\":12809:12810   */\n      0x00\n        /* \"#utility.yul\":12801:12807   */\n      dup3\n        /* \"#utility.yul\":12797:12811   */\n      add\n        /* \"#utility.yul\":12790:12848   */\n      mstore\n        /* \"#utility.yul\":12673:12855   */\n      pop\n      jump\t// out\n        /* \"#utility.yul\":12861:13227   */\n    tag_310:\n        /* \"#utility.yul\":13003:13006   */\n      0x00\n        /* \"#utility.yul\":13024:13091   */\n      tag_468\n        /* \"#utility.yul\":13088:13090   */\n      0x20\n        /* \"#utility.yul\":13083:13086   */\n      dup4\n        /* \"#utility.yul\":13024:13091   */\n      tag_288\n      jump\t// in\n    tag_468:\n        /* \"#utility.yul\":13017:13091   */\n      swap2\n      pop\n        /* \"#utility.yul\":13100:13193   */\n      tag_469\n        /* \"#utility.yul\":13189:13192   */\n      dup3\n        /* \"#utility.yul\":13100:13193   */\n      tag_309\n      jump\t// in\n    tag_469:\n        /* \"#utility.yul\":13218:13220   */\n      0x20\n        /* \"#utility.yul\":13213:13216   */\n      dup3\n        /* \"#utility.yul\":13209:13221   */\n      add\n        /* \"#utility.yul\":13202:13221   */\n      swap1\n      pop\n        /* \"#utility.yul\":12861:13227   */\n      swap2\n      swap1\n      pop\n      jump\t// out\n        /* \"#utility.yul\":13233:13652   */\n    tag_163:\n        /* \"#utility.yul\":13399:13403   */\n      0x00\n        /* \"#utility.yul\":13437:13439   */\n      0x20\n        /* \"#utility.yul\":13426:13435   */\n      dup3\n        /* \"#utility.yul\":13422:13440   */\n      add\n        /* \"#utility.yul\":13414:13440   */\n      swap1\n      pop\n        /* \"#utility.yul\":13486:13495   */\n      dup2\n        /* \"#utility.yul\":13480:13484   */\n      dup2\n        /* \"#utility.yul\":13476:13496   */\n      sub\n        /* \"#utility.yul\":13472:13473   */\n      0x00\n        /* \"#utility.yul\":13461:13470   */\n      dup4\n        /* \"#utility.yul\":13457:13474   */\n      add\n        /* \"#utility.yul\":13450:13497   */\n      mstore\n        /* \"#utility.yul\":13514:13645   */\n      tag_471\n        /* \"#utility.yul\":13640:13644   */\n      dup2\n        /* \"#utility.yul\":13514:13645   */\n      tag_310\n      jump\t// in\n    tag_471:\n        /* \"#utility.yul\":13506:13645   */\n      swap1\n      pop\n        /* \"#utility.yul\":13233:13652   */\n      swap2\n      swap1\n      pop\n      jump\t// out\n        /* \"#utility.yul\":13658:13839   */\n    tag_311:\n        /* \"#utility.yul\":13798:13831   */\n      0x476577696e6e20777572646520626572656974732065696e67657a61686c7400\n        /* \"#utility.yul\":13794:13795   */\n      0x00\n        /* \"#utility.yul\":13786:13792   */\n      dup3\n        /* \"#utility.yul\":13782:13796   */\n      add\n        /* \"#utility.yul\":13775:13832   */\n      mstore\n        /* \"#utility.yul\":13658:13839   */\n      pop\n      jump\t// out\n        /* \"#utility.yul\":13845:14211   */\n    tag_312:\n        /* \"#utility.yul\":13987:13990   */\n      0x00\n        /* \"#utility.yul\":14008:14075   */\n      tag_474\n        /* \"#utility.yul\":14072:14074   */\n      0x1f\n        /* \"#utility.yul\":14067:14070   */\n      dup4\n        /* \"#utility.yul\":14008:14075   */\n      tag_288\n      jump\t// in\n    tag_474:\n        /* \"#utility.yul\":14001:14075   */\n      swap2\n      pop\n        /* \"#utility.yul\":14084:14177   */\n      tag_475\n        /* \"#utility.yul\":14173:14176   */\n      dup3\n        /* \"#utility.yul\":14084:14177   */\n      tag_311\n      jump\t// in\n    tag_475:\n        /* \"#utility.yul\":14202:14204   */\n      0x20\n        /* \"#utility.yul\":14197:14200   */\n      dup3\n        /* \"#utility.yul\":14193:14205   */\n      add\n        /* \"#utility.yul\":14186:14205   */\n      swap1\n      pop\n        /* \"#utility.yul\":13845:14211   */\n      swap2\n      swap1\n      pop\n      jump\t// out\n        /* \"#utility.yul\":14217:14636   */\n    tag_166:\n        /* \"#utility.yul\":14383:14387   */\n      0x00\n        /* \"#utility.yul\":14421:14423   */\n      0x20\n        /* \"#utility.yul\":14410:14419   */\n      dup3\n        /* \"#utility.yul\":14406:14424   */\n      add\n        /* \"#utility.yul\":14398:14424   */\n      swap1\n      pop\n        /* \"#utility.yul\":14470:14479   */\n      dup2\n        /* \"#utility.yul\":14464:14468   */\n      dup2\n        /* \"#utility.yul\":14460:14480   */\n      sub\n        /* \"#utility.yul\":14456:14457   */\n      0x00\n        /* \"#utility.yul\":14445:14454   */\n      dup4\n        /* \"#utility.yul\":14441:14458   */\n      add\n        /* \"#utility.yul\":14434:14481   */\n      mstore\n        /* \"#utility.yul\":14498:14629   */\n      tag_477\n        /* \"#utility.yul\":14624:14628   */\n      dup2\n        /* \"#utility.yul\":14498:14629   */\n      tag_312\n      jump\t// in\n    tag_477:\n        /* \"#utility.yul\":14490:14629   */\n      swap1\n      pop\n        /* \"#utility.yul\":14217:14636   */\n      swap2\n      swap1\n      pop\n      jump\t// out\n        /* \"#utility.yul\":14642:14719   */\n    tag_313:\n        /* \"#utility.yul\":14679:14686   */\n      0x00\n        /* \"#utility.yul\":14708:14713   */\n      dup2\n        /* \"#utility.yul\":14697:14713   */\n      swap1\n      pop\n        /* \"#utility.yul\":14642:14719   */\n      swap2\n      swap1\n      pop\n      jump\t// out\n        /* \"#utility.yul\":14725:14905   */\n    tag_314:\n        /* \"#utility.yul\":14773:14850   */\n      0x4e487b7100000000000000000000000000000000000000000000000000000000\n        /* \"#utility.yul\":14770:14771   */\n      0x00\n        /* \"#utility.yul\":14763:14851   */\n      mstore\n        /* \"#utility.yul\":14870:14874   */\n      0x11\n        /* \"#utility.yul\":14867:14868   */\n      0x04\n        /* \"#utility.yul\":14860:14875   */\n      mstore\n        /* \"#utility.yul\":14894:14898   */\n      0x24\n        /* \"#utility.yul\":14891:14892   */\n      0x00\n        /* \"#utility.yul\":14884:14899   */\n      revert\n        /* \"#utility.yul\":14911:15105   */\n    tag_170:\n        /* \"#utility.yul\":14951:14955   */\n      0x00\n        /* \"#utility.yul\":14971:14991   */\n      tag_481\n        /* \"#utility.yul\":14989:14990   */\n      dup3\n        /* \"#utility.yul\":14971:14991   */\n      tag_313\n      jump\t// in\n    tag_481:\n        /* \"#utility.yul\":14966:14991   */\n      swap2\n      pop\n        /* \"#utility.yul\":15005:15025   */\n      tag_482\n        /* \"#utility.yul\":15023:15024   */\n      dup4\n        /* \"#utility.yul\":15005:15025   */\n      tag_313\n      jump\t// in\n    tag_482:\n        /* \"#utility.yul\":15000:15025   */\n      swap3\n      pop\n        /* \"#utility.yul\":15049:15050   */\n      dup3\n        /* \"#utility.yul\":15046:15047   */\n      dup3\n        /* \"#utility.yul\":15042:15051   */\n      sub\n        /* \"#utility.yul\":15034:15051   */\n      swap1\n      pop\n        /* \"#utility.yul\":15073:15074   */\n      dup2\n        /* \"#utility.yul\":15067:15071   */\n      dup2\n        /* \"#utility.yul\":15064:15075   */\n      gt\n        /* \"#utility.yul\":15061:15098   */\n      iszero\n      tag_483\n      jumpi\n        /* \"#utility.yul\":15078:15096   */\n      tag_484\n      tag_314\n      jump\t// in\n    tag_484:\n        /* \"#utility.yul\":15061:15098   */\n    tag_483:\n        /* \"#utility.yul\":14911:15105   */\n      swap3\n      swap2\n      pop\n      pop\n      jump\t// out\n        /* \"#utility.yul\":15111:15282   */\n    tag_172:\n        /* \"#utility.yul\":15149:15152   */\n      0x00\n        /* \"#utility.yul\":15172:15195   */\n      tag_486\n        /* \"#utility.yul\":15189:15194   */\n      dup3\n        /* \"#utility.yul\":15172:15195   */\n      tag_285\n      jump\t// in\n    tag_486:\n        /* \"#utility.yul\":15163:15195   */\n      swap2\n      pop\n        /* \"#utility.yul\":15217:15223   */\n      0xffff\n        /* \"#utility.yul\":15210:15215   */\n      dup3\n        /* \"#utility.yul\":15207:15224   */\n      sub\n        /* \"#utility.yul\":15204:15247   */\n      tag_487\n      jumpi\n        /* \"#utility.yul\":15227:15245   */\n      tag_488\n      tag_314\n      jump\t// in\n    tag_488:\n        /* \"#utility.yul\":15204:15247   */\n    tag_487:\n        /* \"#utility.yul\":15274:15275   */\n      0x01\n        /* \"#utility.yul\":15267:15272   */\n      dup3\n        /* \"#utility.yul\":15263:15276   */\n      add\n        /* \"#utility.yul\":15256:15276   */\n      swap1\n      pop\n        /* \"#utility.yul\":15111:15282   */\n      swap2\n      swap1\n      pop\n      jump\t// out\n        /* \"#utility.yul\":15288:15525   */\n    tag_315:\n        /* \"#utility.yul\":15428:15462   */\n      0x4e75722065696e204d6974737069656c6572206b616e6e206469657365204675\n        /* \"#utility.yul\":15424:15425   */\n      0x00\n        /* \"#utility.yul\":15416:15422   */\n      dup3\n        /* \"#utility.yul\":15412:15426   */\n      add\n        /* \"#utility.yul\":15405:15463   */\n      mstore\n        /* \"#utility.yul\":15497:15517   */\n      0x6e6b74696f6e206175736675656872656e2e0000000000000000000000000000\n        /* \"#utility.yul\":15492:15494   */\n      0x20\n        /* \"#utility.yul\":15484:15490   */\n      dup3\n        /* \"#utility.yul\":15480:15495   */\n      add\n        /* \"#utility.yul\":15473:15518   */\n      mstore\n        /* \"#utility.yul\":15288:15525   */\n      pop\n      jump\t// out\n        /* \"#utility.yul\":15531:15897   */\n    tag_316:\n        /* \"#utility.yul\":15673:15676   */\n      0x00\n        /* \"#utility.yul\":15694:15761   */\n      tag_491\n        /* \"#utility.yul\":15758:15760   */\n      0x32\n        /* \"#utility.yul\":15753:15756   */\n      dup4\n        /* \"#utility.yul\":15694:15761   */\n      tag_288\n      jump\t// in\n    tag_491:\n        /* \"#utility.yul\":15687:15761   */\n      swap2\n      pop\n        /* \"#utility.yul\":15770:15863   */\n      tag_492\n        /* \"#utility.yul\":15859:15862   */\n      dup3\n        /* \"#utility.yul\":15770:15863   */\n      tag_315\n      jump\t// in\n    tag_492:\n        /* \"#utility.yul\":15888:15890   */\n      0x40\n        /* \"#utility.yul\":15883:15886   */\n      dup3\n        /* \"#utility.yul\":15879:15891   */\n      add\n        /* \"#utility.yul\":15872:15891   */\n      swap1\n      pop\n        /* \"#utility.yul\":15531:15897   */\n      swap2\n      swap1\n      pop\n      jump\t// out\n        /* \"#utility.yul\":15903:16322   */\n    tag_179:\n        /* \"#utility.yul\":16069:16073   */\n      0x00\n        /* \"#utility.yul\":16107:16109   */\n      0x20\n        /* \"#utility.yul\":16096:16105   */\n      dup3\n        /* \"#utility.yul\":16092:16110   */\n      add\n        /* \"#utility.yul\":16084:16110   */\n      swap1\n      pop\n        /* \"#utility.yul\":16156:16165   */\n      dup2\n        /* \"#utility.yul\":16150:16154   */\n      dup2\n        /* \"#utility.yul\":16146:16166   */\n      sub\n        /* \"#utility.yul\":16142:16143   */\n      0x00\n        /* \"#utility.yul\":16131:16140   */\n      dup4\n        /* \"#utility.yul\":16127:16144   */\n      add\n        /* \"#utility.yul\":16120:16167   */\n      mstore\n        /* \"#utility.yul\":16184:16315   */\n      tag_494\n        /* \"#utility.yul\":16310:16314   */\n      dup2\n        /* \"#utility.yul\":16184:16315   */\n      tag_316\n      jump\t// in\n    tag_494:\n        /* \"#utility.yul\":16176:16315   */\n      swap1\n      pop\n        /* \"#utility.yul\":15903:16322   */\n      swap2\n      swap1\n      pop\n      jump\t// out\n        /* \"#utility.yul\":16328:16492   */\n    tag_317:\n        /* \"#utility.yul\":16468:16484   */\n      0x4e6f2072652d656e7472616e6379000000000000000000000000000000000000\n        /* \"#utility.yul\":16464:16465   */\n      0x00\n        /* \"#utility.yul\":16456:16462   */\n      dup3\n        /* \"#utility.yul\":16452:16466   */\n      add\n        /* \"#utility.yul\":16445:16485   */\n      mstore\n        /* \"#utility.yul\":16328:16492   */\n      pop\n      jump\t// out\n        /* \"#utility.yul\":16498:16864   */\n    tag_318:\n        /* \"#utility.yul\":16640:16643   */\n      0x00\n        /* \"#utility.yul\":16661:16728   */\n      tag_497\n        /* \"#utility.yul\":16725:16727   */\n      0x0e\n        /* \"#utility.yul\":16720:16723   */\n      dup4\n        /* \"#utility.yul\":16661:16728   */\n      tag_288\n      jump\t// in\n    tag_497:\n        /* \"#utility.yul\":16654:16728   */\n      swap2\n      pop\n        /* \"#utility.yul\":16737:16830   */\n      tag_498\n        /* \"#utility.yul\":16826:16829   */\n      dup3\n        /* \"#utility.yul\":16737:16830   */\n      tag_317\n      jump\t// in\n    tag_498:\n        /* \"#utility.yul\":16855:16857   */\n      0x20\n        /* \"#utility.yul\":16850:16853   */\n      dup3\n        /* \"#utility.yul\":16846:16858   */\n      add\n        /* \"#utility.yul\":16839:16858   */\n      swap1\n      pop\n        /* \"#utility.yul\":16498:16864   */\n      swap2\n      swap1\n      pop\n      jump\t// out\n        /* \"#utility.yul\":16870:17289   */\n    tag_183:\n        /* \"#utility.yul\":17036:17040   */\n      0x00\n        /* \"#utility.yul\":17074:17076   */\n      0x20\n        /* \"#utility.yul\":17063:17072   */\n      dup3\n        /* \"#utility.yul\":17059:17077   */\n      add\n        /* \"#utility.yul\":17051:17077   */\n      swap1\n      pop\n        /* \"#utility.yul\":17123:17132   */\n      dup2\n        /* \"#utility.yul\":17117:17121   */\n      dup2\n        /* \"#utility.yul\":17113:17133   */\n      sub\n        /* \"#utility.yul\":17109:17110   */\n      0x00\n        /* \"#utility.yul\":17098:17107   */\n      dup4\n        /* \"#utility.yul\":17094:17111   */\n      add\n        /* \"#utility.yul\":17087:17134   */\n      mstore\n        /* \"#utility.yul\":17151:17282   */\n      tag_500\n        /* \"#utility.yul\":17277:17281   */\n      dup2\n        /* \"#utility.yul\":17151:17282   */\n      tag_318\n      jump\t// in\n    tag_500:\n        /* \"#utility.yul\":17143:17282   */\n      swap1\n      pop\n        /* \"#utility.yul\":16870:17289   */\n      swap2\n      swap1\n      pop\n      jump\t// out\n        /* \"#utility.yul\":17295:17521   */\n    tag_319:\n        /* \"#utility.yul\":17435:17469   */\n      0x476577696e6e206b616e6e206e6f6368206e696368742061626765686f6c7420\n        /* \"#utility.yul\":17431:17432   */\n      0x00\n        /* \"#utility.yul\":17423:17429   */\n      dup3\n        /* \"#utility.yul\":17419:17433   */\n      add\n        /* \"#utility.yul\":17412:17470   */\n      mstore\n        /* \"#utility.yul\":17504:17513   */\n      0x77657264656e2e00000000000000000000000000000000000000000000000000\n        /* \"#utility.yul\":17499:17501   */\n      0x20\n        /* \"#utility.yul\":17491:17497   */\n      dup3\n        /* \"#utility.yul\":17487:17502   */\n      add\n        /* \"#utility.yul\":17480:17514   */\n      mstore\n        /* \"#utility.yul\":17295:17521   */\n      pop\n      jump\t// out\n        /* \"#utility.yul\":17527:17893   */\n    tag_320:\n        /* \"#utility.yul\":17669:17672   */\n      0x00\n        /* \"#utility.yul\":17690:17757   */\n      tag_503\n        /* \"#utility.yul\":17754:17756   */\n      0x27\n        /* \"#utility.yul\":17749:17752   */\n      dup4\n        /* \"#utility.yul\":17690:17757   */\n      tag_288\n      jump\t// in\n    tag_503:\n        /* \"#utility.yul\":17683:17757   */\n      swap2\n      pop\n        /* \"#utility.yul\":17766:17859   */\n      tag_504\n        /* \"#utility.yul\":17855:17858   */\n      dup3\n        /* \"#utility.yul\":17766:17859   */\n      tag_319\n      jump\t// in\n    tag_504:\n        /* \"#utility.yul\":17884:17886   */\n      0x40\n        /* \"#utility.yul\":17879:17882   */\n      dup3\n        /* \"#utility.yul\":17875:17887   */\n      add\n        /* \"#utility.yul\":17868:17887   */\n      swap1\n      pop\n        /* \"#utility.yul\":17527:17893   */\n      swap2\n      swap1\n      pop\n      jump\t// out\n        /* \"#utility.yul\":17899:18318   */\n    tag_187:\n        /* \"#utility.yul\":18065:18069   */\n      0x00\n        /* \"#utility.yul\":18103:18105   */\n      0x20\n        /* \"#utility.yul\":18092:18101   */\n      dup3\n        /* \"#utility.yul\":18088:18106   */\n      add\n        /* \"#utility.yul\":18080:18106   */\n      swap1\n      pop\n        /* \"#utility.yul\":18152:18161   */\n      dup2\n        /* \"#utility.yul\":18146:18150   */\n      dup2\n        /* \"#utility.yul\":18142:18162   */\n      sub\n        /* \"#utility.yul\":18138:18139   */\n      0x00\n        /* \"#utility.yul\":18127:18136   */\n      dup4\n        /* \"#utility.yul\":18123:18140   */\n      add\n        /* \"#utility.yul\":18116:18163   */\n      mstore\n        /* \"#utility.yul\":18180:18311   */\n      tag_506\n        /* \"#utility.yul\":18306:18310   */\n      dup2\n        /* \"#utility.yul\":18180:18311   */\n      tag_320\n      jump\t// in\n    tag_506:\n        /* \"#utility.yul\":18172:18311   */\n      swap1\n      pop\n        /* \"#utility.yul\":17899:18318   */\n      swap2\n      swap1\n      pop\n      jump\t// out\n        /* \"#utility.yul\":18324:18549   */\n    tag_321:\n        /* \"#utility.yul\":18464:18498   */\n      0x4b65696e20476577696e6e207a7572204175737a61686c756e67207665726675\n        /* \"#utility.yul\":18460:18461   */\n      0x00\n        /* \"#utility.yul\":18452:18458   */\n      dup3\n        /* \"#utility.yul\":18448:18462   */\n      add\n        /* \"#utility.yul\":18441:18499   */\n      mstore\n        /* \"#utility.yul\":18533:18541   */\n      0x65676261722e0000000000000000000000000000000000000000000000000000\n        /* \"#utility.yul\":18528:18530   */\n      0x20\n        /* \"#utility.yul\":18520:18526   */\n      dup3\n        /* \"#utility.yul\":18516:18531   */\n      add\n        /* \"#utility.yul\":18509:18542   */\n      mstore\n        /* \"#utility.yul\":18324:18549   */\n      pop\n      jump\t// out\n        /* \"#utility.yul\":18555:18921   */\n    tag_322:\n        /* \"#utility.yul\":18697:18700   */\n      0x00\n        /* \"#utility.yul\":18718:18785   */\n      tag_509\n        /* \"#utility.yul\":18782:18784   */\n      0x26\n        /* \"#utility.yul\":18777:18780   */\n      dup4\n        /* \"#utility.yul\":18718:18785   */\n      tag_288\n      jump\t// in\n    tag_509:\n        /* \"#utility.yul\":18711:18785   */\n      swap2\n      pop\n        /* \"#utility.yul\":18794:18887   */\n      tag_510\n        /* \"#utility.yul\":18883:18886   */\n      dup3\n        /* \"#utility.yul\":18794:18887   */\n      tag_321\n      jump\t// in\n    tag_510:\n        /* \"#utility.yul\":18912:18914   */\n      0x40\n        /* \"#utility.yul\":18907:18910   */\n      dup3\n        /* \"#utility.yul\":18903:18915   */\n      add\n        /* \"#utility.yul\":18896:18915   */\n      swap1\n      pop\n        /* \"#utility.yul\":18555:18921   */\n      swap2\n      swap1\n      pop\n      jump\t// out\n        /* \"#utility.yul\":18927:19346   */\n    tag_190:\n        /* \"#utility.yul\":19093:19097   */\n      0x00\n        /* \"#utility.yul\":19131:19133   */\n      0x20\n        /* \"#utility.yul\":19120:19129   */\n      dup3\n        /* \"#utility.yul\":19116:19134   */\n      add\n        /* \"#utility.yul\":19108:19134   */\n      swap1\n      pop\n        /* \"#utility.yul\":19180:19189   */\n      dup2\n        /* \"#utility.yul\":19174:19178   */\n      dup2\n        /* \"#utility.yul\":19170:19190   */\n      sub\n        /* \"#utility.yul\":19166:19167   */\n      0x00\n        /* \"#utility.yul\":19155:19164   */\n      dup4\n        /* \"#utility.yul\":19151:19168   */\n      add\n        /* \"#utility.yul\":19144:19191   */\n      mstore\n        /* \"#utility.yul\":19208:19339   */\n      tag_512\n        /* \"#utility.yul\":19334:19338   */\n      dup2\n        /* \"#utility.yul\":19208:19339   */\n      tag_322\n      jump\t// in\n    tag_512:\n        /* \"#utility.yul\":19200:19339   */\n      swap1\n      pop\n        /* \"#utility.yul\":18927:19346   */\n      swap2\n      swap1\n      pop\n      jump\t// out\n        /* \"#utility.yul\":19352:19532   */\n    tag_323:\n        /* \"#utility.yul\":19492:19524   */\n      0x476577696e6e20777572646520626572656974732061626765686f6c742e0000\n        /* \"#utility.yul\":19488:19489   */\n      0x00\n        /* \"#utility.yul\":19480:19486   */\n      dup3\n        /* \"#utility.yul\":19476:19490   */\n      add\n        /* \"#utility.yul\":19469:19525   */\n      mstore\n        /* \"#utility.yul\":19352:19532   */\n      pop\n      jump\t// out\n        /* \"#utility.yul\":19538:19904   */\n    tag_324:\n        /* \"#utility.yul\":19680:19683   */\n      0x00\n        /* \"#utility.yul\":19701:19768   */\n      tag_515\n        /* \"#utility.yul\":19765:19767   */\n      0x1e\n        /* \"#utility.yul\":19760:19763   */\n      dup4\n        /* \"#utility.yul\":19701:19768   */\n      tag_288\n      jump\t// in\n    tag_515:\n        /* \"#utility.yul\":19694:19768   */\n      swap2\n      pop\n        /* \"#utility.yul\":19777:19870   */\n      tag_516\n        /* \"#utility.yul\":19866:19869   */\n      dup3\n        /* \"#utility.yul\":19777:19870   */\n      tag_323\n      jump\t// in\n    tag_516:\n        /* \"#utility.yul\":19895:19897   */\n      0x20\n        /* \"#utility.yul\":19890:19893   */\n      dup3\n        /* \"#utility.yul\":19886:19898   */\n      add\n        /* \"#utility.yul\":19879:19898   */\n      swap1\n      pop\n        /* \"#utility.yul\":19538:19904   */\n      swap2\n      swap1\n      pop\n      jump\t// out\n        /* \"#utility.yul\":19910:20329   */\n    tag_193:\n        /* \"#utility.yul\":20076:20080   */\n      0x00\n        /* \"#utility.yul\":20114:20116   */\n      0x20\n        /* \"#utility.yul\":20103:20112   */\n      dup3\n        /* \"#utility.yul\":20099:20117   */\n      add\n        /* \"#utility.yul\":20091:20117   */\n      swap1\n      pop\n        /* \"#utility.yul\":20163:20172   */\n      dup2\n        /* \"#utility.yul\":20157:20161   */\n      dup2\n        /* \"#utility.yul\":20153:20173   */\n      sub\n        /* \"#utility.yul\":20149:20150   */\n      0x00\n        /* \"#utility.yul\":20138:20147   */\n      dup4\n        /* \"#utility.yul\":20134:20151   */\n      add\n        /* \"#utility.yul\":20127:20174   */\n      mstore\n        /* \"#utility.yul\":20191:20322   */\n      tag_518\n        /* \"#utility.yul\":20317:20321   */\n      dup2\n        /* \"#utility.yul\":20191:20322   */\n      tag_324\n      jump\t// in\n    tag_518:\n        /* \"#utility.yul\":20183:20322   */\n      swap1\n      pop\n        /* \"#utility.yul\":19910:20329   */\n      swap2\n      swap1\n      pop\n      jump\t// out\n        /* \"#utility.yul\":20335:20515   */\n    tag_325:\n        /* \"#utility.yul\":20383:20460   */\n      0x4e487b7100000000000000000000000000000000000000000000000000000000\n        /* \"#utility.yul\":20380:20381   */\n      0x00\n        /* \"#utility.yul\":20373:20461   */\n      mstore\n        /* \"#utility.yul\":20480:20484   */\n      0x22\n        /* \"#utility.yul\":20477:20478   */\n      0x04\n        /* \"#utility.yul\":20470:20485   */\n      mstore\n        /* \"#utility.yul\":20504:20508   */\n      0x24\n        /* \"#utility.yul\":20501:20502   */\n      0x00\n        /* \"#utility.yul\":20494:20509   */\n      revert\n        /* \"#utility.yul\":20521:20841   */\n    tag_197:\n        /* \"#utility.yul\":20565:20571   */\n      0x00\n        /* \"#utility.yul\":20602:20603   */\n      0x02\n        /* \"#utility.yul\":20596:20600   */\n      dup3\n        /* \"#utility.yul\":20592:20604   */\n      div\n        /* \"#utility.yul\":20582:20604   */\n      swap1\n      pop\n        /* \"#utility.yul\":20649:20650   */\n      0x01\n        /* \"#utility.yul\":20643:20647   */\n      dup3\n        /* \"#utility.yul\":20639:20651   */\n      and\n        /* \"#utility.yul\":20670:20688   */\n      dup1\n        /* \"#utility.yul\":20660:20741   */\n      tag_521\n      jumpi\n        /* \"#utility.yul\":20726:20730   */\n      0x7f\n        /* \"#utility.yul\":20718:20724   */\n      dup3\n        /* \"#utility.yul\":20714:20731   */\n      and\n        /* \"#utility.yul\":20704:20731   */\n      swap2\n      pop\n        /* \"#utility.yul\":20660:20741   */\n    tag_521:\n        /* \"#utility.yul\":20788:20790   */\n      0x20\n        /* \"#utility.yul\":20780:20786   */\n      dup3\n        /* \"#utility.yul\":20777:20791   */\n      lt\n        /* \"#utility.yul\":20757:20775   */\n      dup2\n        /* \"#utility.yul\":20754:20792   */\n      sub\n        /* \"#utility.yul\":20751:20835   */\n      tag_522\n      jumpi\n        /* \"#utility.yul\":20807:20825   */\n      tag_523\n      tag_325\n      jump\t// in\n    tag_523:\n        /* \"#utility.yul\":20751:20835   */\n    tag_522:\n        /* \"#utility.yul\":20572:20841   */\n      pop\n        /* \"#utility.yul\":20521:20841   */\n      swap2\n      swap1\n      pop\n      jump\t// out\n        /* \"#utility.yul\":20847:21068   */\n    tag_326:\n        /* \"#utility.yul\":20987:21021   */\n      0x47656d65696e736368616674206d7573732061756667656c6f65737420736569\n        /* \"#utility.yul\":20983:20984   */\n      0x00\n        /* \"#utility.yul\":20975:20981   */\n      dup3\n        /* \"#utility.yul\":20971:20985   */\n      add\n        /* \"#utility.yul\":20964:21022   */\n      mstore\n        /* \"#utility.yul\":21056:21060   */\n      0x6e2e000000000000000000000000000000000000000000000000000000000000\n        /* \"#utility.yul\":21051:21053   */\n      0x20\n        /* \"#utility.yul\":21043:21049   */\n      dup3\n        /* \"#utility.yul\":21039:21054   */\n      add\n        /* \"#utility.yul\":21032:21061   */\n      mstore\n        /* \"#utility.yul\":20847:21068   */\n      pop\n      jump\t// out\n        /* \"#utility.yul\":21074:21440   */\n    tag_327:\n        /* \"#utility.yul\":21216:21219   */\n      0x00\n        /* \"#utility.yul\":21237:21304   */\n      tag_526\n        /* \"#utility.yul\":21301:21303   */\n      0x22\n        /* \"#utility.yul\":21296:21299   */\n      dup4\n        /* \"#utility.yul\":21237:21304   */\n      tag_288\n      jump\t// in\n    tag_526:\n        /* \"#utility.yul\":21230:21304   */\n      swap2\n      pop\n        /* \"#utility.yul\":21313:21406   */\n      tag_527\n        /* \"#utility.yul\":21402:21405   */\n      dup3\n        /* \"#utility.yul\":21313:21406   */\n      tag_326\n      jump\t// in\n    tag_527:\n        /* \"#utility.yul\":21431:21433   */\n      0x40\n        /* \"#utility.yul\":21426:21429   */\n      dup3\n        /* \"#utility.yul\":21422:21434   */\n      add\n        /* \"#utility.yul\":21415:21434   */\n      swap1\n      pop\n        /* \"#utility.yul\":21074:21440   */\n      swap2\n      swap1\n      pop\n      jump\t// out\n        /* \"#utility.yul\":21446:21865   */\n    tag_211:\n        /* \"#utility.yul\":21612:21616   */\n      0x00\n        /* \"#utility.yul\":21650:21652   */\n      0x20\n        /* \"#utility.yul\":21639:21648   */\n      dup3\n        /* \"#utility.yul\":21635:21653   */\n      add\n        /* \"#utility.yul\":21627:21653   */\n      swap1\n      pop\n        /* \"#utility.yul\":21699:21708   */\n      dup2\n        /* \"#utility.yul\":21693:21697   */\n      dup2\n        /* \"#utility.yul\":21689:21709   */\n      sub\n        /* \"#utility.yul\":21685:21686   */\n      0x00\n        /* \"#utility.yul\":21674:21683   */\n      dup4\n        /* \"#utility.yul\":21670:21687   */\n      add\n        /* \"#utility.yul\":21663:21710   */\n      mstore\n        /* \"#utility.yul\":21727:21858   */\n      tag_529\n        /* \"#utility.yul\":21853:21857   */\n      dup2\n        /* \"#utility.yul\":21727:21858   */\n      tag_327\n      jump\t// in\n    tag_529:\n        /* \"#utility.yul\":21719:21858   */\n      swap1\n      pop\n        /* \"#utility.yul\":21446:21865   */\n      swap2\n      swap1\n      pop\n      jump\t// out\n        /* \"#utility.yul\":21871:22095   */\n    tag_328:\n        /* \"#utility.yul\":22011:22045   */\n      0x45696e7361747a2077757264652062657265697473207a75727565636b67657a\n        /* \"#utility.yul\":22007:22008   */\n      0x00\n        /* \"#utility.yul\":21999:22005   */\n      dup3\n        /* \"#utility.yul\":21995:22009   */\n      add\n        /* \"#utility.yul\":21988:22046   */\n      mstore\n        /* \"#utility.yul\":22080:22087   */\n      0x61686c742e000000000000000000000000000000000000000000000000000000\n        /* \"#utility.yul\":22075:22077   */\n      0x20\n        /* \"#utility.yul\":22067:22073   */\n      dup3\n        /* \"#utility.yul\":22063:22078   */\n      add\n        /* \"#utility.yul\":22056:22088   */\n      mstore\n        /* \"#utility.yul\":21871:22095   */\n      pop\n      jump\t// out\n        /* \"#utility.yul\":22101:22467   */\n    tag_329:\n        /* \"#utility.yul\":22243:22246   */\n      0x00\n        /* \"#utility.yul\":22264:22331   */\n      tag_532\n        /* \"#utility.yul\":22328:22330   */\n      0x25\n        /* \"#utility.yul\":22323:22326   */\n      dup4\n        /* \"#utility.yul\":22264:22331   */\n      tag_288\n      jump\t// in\n    tag_532:\n        /* \"#utility.yul\":22257:22331   */\n      swap2\n      pop\n        /* \"#utility.yul\":22340:22433   */\n      tag_533\n        /* \"#utility.yul\":22429:22432   */\n      dup3\n        /* \"#utility.yul\":22340:22433   */\n      tag_328\n      jump\t// in\n    tag_533:\n        /* \"#utility.yul\":22458:22460   */\n      0x40\n        /* \"#utility.yul\":22453:22456   */\n      dup3\n        /* \"#utility.yul\":22449:22461   */\n      add\n        /* \"#utility.yul\":22442:22461   */\n      swap1\n      pop\n        /* \"#utility.yul\":22101:22467   */\n      swap2\n      swap1\n      pop\n      jump\t// out\n        /* \"#utility.yul\":22473:22892   */\n    tag_214:\n        /* \"#utility.yul\":22639:22643   */\n      0x00\n        /* \"#utility.yul\":22677:22679   */\n      0x20\n        /* \"#utility.yul\":22666:22675   */\n      dup3\n        /* \"#utility.yul\":22662:22680   */\n      add\n        /* \"#utility.yul\":22654:22680   */\n      swap1\n      pop\n        /* \"#utility.yul\":22726:22735   */\n      dup2\n        /* \"#utility.yul\":22720:22724   */\n      dup2\n        /* \"#utility.yul\":22716:22736   */\n      sub\n        /* \"#utility.yul\":22712:22713   */\n      0x00\n        /* \"#utility.yul\":22701:22710   */\n      dup4\n        /* \"#utility.yul\":22697:22714   */\n      add\n        /* \"#utility.yul\":22690:22737   */\n      mstore\n        /* \"#utility.yul\":22754:22885   */\n      tag_535\n        /* \"#utility.yul\":22880:22884   */\n      dup2\n        /* \"#utility.yul\":22754:22885   */\n      tag_329\n      jump\t// in\n    tag_535:\n        /* \"#utility.yul\":22746:22885   */\n      swap1\n      pop\n        /* \"#utility.yul\":22473:22892   */\n      swap2\n      swap1\n      pop\n      jump\t// out\n        /* \"#utility.yul\":22898:23045   */\n    tag_330:\n        /* \"#utility.yul\":22999:23010   */\n      0x00\n        /* \"#utility.yul\":23036:23039   */\n      dup2\n        /* \"#utility.yul\":23021:23039   */\n      swap1\n      pop\n        /* \"#utility.yul\":22898:23045   */\n      swap3\n      swap2\n      pop\n      pop\n      jump\t// out\n        /* \"#utility.yul\":23051:23165   */\n    tag_331:\n      pop\n      jump\t// out\n        /* \"#utility.yul\":23171:23569   */\n    tag_332:\n        /* \"#utility.yul\":23330:23333   */\n      0x00\n        /* \"#utility.yul\":23351:23434   */\n      tag_539\n        /* \"#utility.yul\":23432:23433   */\n      0x00\n        /* \"#utility.yul\":23427:23430   */\n      dup4\n        /* \"#utility.yul\":23351:23434   */\n      tag_330\n      jump\t// in\n    tag_539:\n        /* \"#utility.yul\":23344:23434   */\n      swap2\n      pop\n        /* \"#utility.yul\":23443:23536   */\n      tag_540\n        /* \"#utility.yul\":23532:23535   */\n      dup3\n        /* \"#utility.yul\":23443:23536   */\n      tag_331\n      jump\t// in\n    tag_540:\n        /* \"#utility.yul\":23561:23562   */\n      0x00\n        /* \"#utility.yul\":23556:23559   */\n      dup3\n        /* \"#utility.yul\":23552:23563   */\n      add\n        /* \"#utility.yul\":23545:23563   */\n      swap1\n      pop\n        /* \"#utility.yul\":23171:23569   */\n      swap2\n      swap1\n      pop\n      jump\t// out\n        /* \"#utility.yul\":23575:23954   */\n    tag_216:\n        /* \"#utility.yul\":23759:23762   */\n      0x00\n        /* \"#utility.yul\":23781:23928   */\n      tag_542\n        /* \"#utility.yul\":23924:23927   */\n      dup3\n        /* \"#utility.yul\":23781:23928   */\n      tag_332\n      jump\t// in\n    tag_542:\n        /* \"#utility.yul\":23774:23928   */\n      swap2\n      pop\n        /* \"#utility.yul\":23945:23948   */\n      dup2\n        /* \"#utility.yul\":23938:23948   */\n      swap1\n      pop\n        /* \"#utility.yul\":23575:23954   */\n      swap2\n      swap1\n      pop\n      jump\t// out\n        /* \"#utility.yul\":23960:24189   */\n    tag_333:\n        /* \"#utility.yul\":24100:24134   */\n      0x527565636b7a61686c756e67206465732045696e7361747a6573206665686c67\n        /* \"#utility.yul\":24096:24097   */\n      0x00\n        /* \"#utility.yul\":24088:24094   */\n      dup3\n        /* \"#utility.yul\":24084:24098   */\n      add\n        /* \"#utility.yul\":24077:24135   */\n      mstore\n        /* \"#utility.yul\":24169:24181   */\n      0x657363686c6167656e2e00000000000000000000000000000000000000000000\n        /* \"#utility.yul\":24164:24166   */\n      0x20\n        /* \"#utility.yul\":24156:24162   */\n      dup3\n        /* \"#utility.yul\":24152:24167   */\n      add\n        /* \"#utility.yul\":24145:24182   */\n      mstore\n        /* \"#utility.yul\":23960:24189   */\n      pop\n      jump\t// out\n        /* \"#utility.yul\":24195:24561   */\n    tag_334:\n        /* \"#utility.yul\":24337:24340   */\n      0x00\n        /* \"#utility.yul\":24358:24425   */\n      tag_545\n        /* \"#utility.yul\":24422:24424   */\n      0x2a\n        /* \"#utility.yul\":24417:24420   */\n      dup4\n        /* \"#utility.yul\":24358:24425   */\n      tag_288\n      jump\t// in\n    tag_545:\n        /* \"#utility.yul\":24351:24425   */\n      swap2\n      pop\n        /* \"#utility.yul\":24434:24527   */\n      tag_546\n        /* \"#utility.yul\":24523:24526   */\n      dup3\n        /* \"#utility.yul\":24434:24527   */\n      tag_333\n      jump\t// in\n    tag_546:\n        /* \"#utility.yul\":24552:24554   */\n      0x40\n        /* \"#utility.yul\":24547:24550   */\n      dup3\n        /* \"#utility.yul\":24543:24555   */\n      add\n        /* \"#utility.yul\":24536:24555   */\n      swap1\n      pop\n        /* \"#utility.yul\":24195:24561   */\n      swap2\n      swap1\n      pop\n      jump\t// out\n        /* \"#utility.yul\":24567:24986   */\n    tag_222:\n        /* \"#utility.yul\":24733:24737   */\n      0x00\n        /* \"#utility.yul\":24771:24773   */\n      0x20\n        /* \"#utility.yul\":24760:24769   */\n      dup3\n        /* \"#utility.yul\":24756:24774   */\n      add\n        /* \"#utility.yul\":24748:24774   */\n      swap1\n      pop\n        /* \"#utility.yul\":24820:24829   */\n      dup2\n        /* \"#utility.yul\":24814:24818   */\n      dup2\n        /* \"#utility.yul\":24810:24830   */\n      sub\n        /* \"#utility.yul\":24806:24807   */\n      0x00\n        /* \"#utility.yul\":24795:24804   */\n      dup4\n        /* \"#utility.yul\":24791:24808   */\n      add\n        /* \"#utility.yul\":24784:24831   */\n      mstore\n        /* \"#utility.yul\":24848:24979   */\n      tag_548\n        /* \"#utility.yul\":24974:24978   */\n      dup2\n        /* \"#utility.yul\":24848:24979   */\n      tag_334\n      jump\t// in\n    tag_548:\n        /* \"#utility.yul\":24840:24979   */\n      swap1\n      pop\n        /* \"#utility.yul\":24567:24986   */\n      swap2\n      swap1\n      pop\n      jump\t// out\n        /* \"#utility.yul\":24992:25213   */\n    tag_335:\n        /* \"#utility.yul\":25132:25166   */\n      0x476577696e6e206d757373206e6f63682061757367657a61686c742077657264\n        /* \"#utility.yul\":25128:25129   */\n      0x00\n        /* \"#utility.yul\":25120:25126   */\n      dup3\n        /* \"#utility.yul\":25116:25130   */\n      add\n        /* \"#utility.yul\":25109:25167   */\n      mstore\n        /* \"#utility.yul\":25201:25205   */\n      0x656e000000000000000000000000000000000000000000000000000000000000\n        /* \"#utility.yul\":25196:25198   */\n      0x20\n        /* \"#utility.yul\":25188:25194   */\n      dup3\n        /* \"#utility.yul\":25184:25199   */\n      add\n        /* \"#utility.yul\":25177:25206   */\n      mstore\n        /* \"#utility.yul\":24992:25213   */\n      pop\n      jump\t// out\n        /* \"#utility.yul\":25219:25585   */\n    tag_336:\n        /* \"#utility.yul\":25361:25364   */\n      0x00\n        /* \"#utility.yul\":25382:25449   */\n      tag_551\n        /* \"#utility.yul\":25446:25448   */\n      0x22\n        /* \"#utility.yul\":25441:25444   */\n      dup4\n        /* \"#utility.yul\":25382:25449   */\n      tag_288\n      jump\t// in\n    tag_551:\n        /* \"#utility.yul\":25375:25449   */\n      swap2\n      pop\n        /* \"#utility.yul\":25458:25551   */\n      tag_552\n        /* \"#utility.yul\":25547:25550   */\n      dup3\n        /* \"#utility.yul\":25458:25551   */\n      tag_335\n      jump\t// in\n    tag_552:\n        /* \"#utility.yul\":25576:25578   */\n      0x40\n        /* \"#utility.yul\":25571:25574   */\n      dup3\n        /* \"#utility.yul\":25567:25579   */\n      add\n        /* \"#utility.yul\":25560:25579   */\n      swap1\n      pop\n        /* \"#utility.yul\":25219:25585   */\n      swap2\n      swap1\n      pop\n      jump\t// out\n        /* \"#utility.yul\":25591:26010   */\n    tag_229:\n        /* \"#utility.yul\":25757:25761   */\n      0x00\n        /* \"#utility.yul\":25795:25797   */\n      0x20\n        /* \"#utility.yul\":25784:25793   */\n      dup3\n        /* \"#utility.yul\":25780:25798   */\n      add\n        /* \"#utility.yul\":25772:25798   */\n      swap1\n      pop\n        /* \"#utility.yul\":25844:25853   */\n      dup2\n        /* \"#utility.yul\":25838:25842   */\n      dup2\n        /* \"#utility.yul\":25834:25854   */\n      sub\n        /* \"#utility.yul\":25830:25831   */\n      0x00\n        /* \"#utility.yul\":25819:25828   */\n      dup4\n        /* \"#utility.yul\":25815:25832   */\n      add\n        /* \"#utility.yul\":25808:25855   */\n      mstore\n        /* \"#utility.yul\":25872:26003   */\n      tag_554\n        /* \"#utility.yul\":25998:26002   */\n      dup2\n        /* \"#utility.yul\":25872:26003   */\n      tag_336\n      jump\t// in\n    tag_554:\n        /* \"#utility.yul\":25864:26003   */\n      swap1\n      pop\n        /* \"#utility.yul\":25591:26010   */\n      swap2\n      swap1\n      pop\n      jump\t// out\n        /* \"#utility.yul\":26016:26197   */\n    tag_337:\n        /* \"#utility.yul\":26156:26189   */\n      0x47656d65696e73636861667420626572656974732061756667656c6f65737400\n        /* \"#utility.yul\":26152:26153   */\n      0x00\n        /* \"#utility.yul\":26144:26150   */\n      dup3\n        /* \"#utility.yul\":26140:26154   */\n      add\n        /* \"#utility.yul\":26133:26190   */\n      mstore\n        /* \"#utility.yul\":26016:26197   */\n      pop\n      jump\t// out\n        /* \"#utility.yul\":26203:26569   */\n    tag_338:\n        /* \"#utility.yul\":26345:26348   */\n      0x00\n        /* \"#utility.yul\":26366:26433   */\n      tag_557\n        /* \"#utility.yul\":26430:26432   */\n      0x1f\n        /* \"#utility.yul\":26425:26428   */\n      dup4\n        /* \"#utility.yul\":26366:26433   */\n      tag_288\n      jump\t// in\n    tag_557:\n        /* \"#utility.yul\":26359:26433   */\n      swap2\n      pop\n        /* \"#utility.yul\":26442:26535   */\n      tag_558\n        /* \"#utility.yul\":26531:26534   */\n      dup3\n        /* \"#utility.yul\":26442:26535   */\n      tag_337\n      jump\t// in\n    tag_558:\n        /* \"#utility.yul\":26560:26562   */\n      0x20\n        /* \"#utility.yul\":26555:26558   */\n      dup3\n        /* \"#utility.yul\":26551:26563   */\n      add\n        /* \"#utility.yul\":26544:26563   */\n      swap1\n      pop\n        /* \"#utility.yul\":26203:26569   */\n      swap2\n      swap1\n      pop\n      jump\t// out\n        /* \"#utility.yul\":26575:26994   */\n    tag_232:\n        /* \"#utility.yul\":26741:26745   */\n      0x00\n        /* \"#utility.yul\":26779:26781   */\n      0x20\n        /* \"#utility.yul\":26768:26777   */\n      dup3\n        /* \"#utility.yul\":26764:26782   */\n      add\n        /* \"#utility.yul\":26756:26782   */\n      swap1\n      pop\n        /* \"#utility.yul\":26828:26837   */\n      dup2\n        /* \"#utility.yul\":26822:26826   */\n      dup2\n        /* \"#utility.yul\":26818:26838   */\n      sub\n        /* \"#utility.yul\":26814:26815   */\n      0x00\n        /* \"#utility.yul\":26803:26812   */\n      dup4\n        /* \"#utility.yul\":26799:26816   */\n      add\n        /* \"#utility.yul\":26792:26839   */\n      mstore\n        /* \"#utility.yul\":26856:26987   */\n      tag_560\n        /* \"#utility.yul\":26982:26986   */\n      dup2\n        /* \"#utility.yul\":26856:26987   */\n      tag_338\n      jump\t// in\n    tag_560:\n        /* \"#utility.yul\":26848:26987   */\n      swap1\n      pop\n        /* \"#utility.yul\":26575:26994   */\n      swap2\n      swap1\n      pop\n      jump\t// out\n        /* \"#utility.yul\":27000:27229   */\n    tag_339:\n        /* \"#utility.yul\":27140:27174   */\n      0x45696e7a61686c756e6773626574726167206d7573732067726f657373657220\n        /* \"#utility.yul\":27136:27137   */\n      0x00\n        /* \"#utility.yul\":27128:27134   */\n      dup3\n        /* \"#utility.yul\":27124:27138   */\n      add\n        /* \"#utility.yul\":27117:27175   */\n      mstore\n        /* \"#utility.yul\":27209:27221   */\n      0x616c732030207365696e00000000000000000000000000000000000000000000\n        /* \"#utility.yul\":27204:27206   */\n      0x20\n        /* \"#utility.yul\":27196:27202   */\n      dup3\n        /* \"#utility.yul\":27192:27207   */\n      add\n        /* \"#utility.yul\":27185:27222   */\n      mstore\n        /* \"#utility.yul\":27000:27229   */\n      pop\n      jump\t// out\n        /* \"#utility.yul\":27235:27601   */\n    tag_340:\n        /* \"#utility.yul\":27377:27380   */\n      0x00\n        /* \"#utility.yul\":27398:27465   */\n      tag_563\n        /* \"#utility.yul\":27462:27464   */\n      0x2a\n        /* \"#utility.yul\":27457:27460   */\n      dup4\n        /* \"#utility.yul\":27398:27465   */\n      tag_288\n      jump\t// in\n    tag_563:\n        /* \"#utility.yul\":27391:27465   */\n      swap2\n      pop\n        /* \"#utility.yul\":27474:27567   */\n      tag_564\n        /* \"#utility.yul\":27563:27566   */\n      dup3\n        /* \"#utility.yul\":27474:27567   */\n      tag_339\n      jump\t// in\n    tag_564:\n        /* \"#utility.yul\":27592:27594   */\n      0x40\n        /* \"#utility.yul\":27587:27590   */\n      dup3\n        /* \"#utility.yul\":27583:27595   */\n      add\n        /* \"#utility.yul\":27576:27595   */\n      swap1\n      pop\n        /* \"#utility.yul\":27235:27601   */\n      swap2\n      swap1\n      pop\n      jump\t// out\n        /* \"#utility.yul\":27607:28026   */\n    tag_239:\n        /* \"#utility.yul\":27773:27777   */\n      0x00\n        /* \"#utility.yul\":27811:27813   */\n      0x20\n        /* \"#utility.yul\":27800:27809   */\n      dup3\n        /* \"#utility.yul\":27796:27814   */\n      add\n        /* \"#utility.yul\":27788:27814   */\n      swap1\n      pop\n        /* \"#utility.yul\":27860:27869   */\n      dup2\n        /* \"#utility.yul\":27854:27858   */\n      dup2\n        /* \"#utility.yul\":27850:27870   */\n      sub\n        /* \"#utility.yul\":27846:27847   */\n      0x00\n        /* \"#utility.yul\":27835:27844   */\n      dup4\n        /* \"#utility.yul\":27831:27848   */\n      add\n        /* \"#utility.yul\":27824:27871   */\n      mstore\n        /* \"#utility.yul\":27888:28019   */\n      tag_566\n        /* \"#utility.yul\":28014:28018   */\n      dup2\n        /* \"#utility.yul\":27888:28019   */\n      tag_340\n      jump\t// in\n    tag_566:\n        /* \"#utility.yul\":27880:28019   */\n      swap1\n      pop\n        /* \"#utility.yul\":27607:28026   */\n      swap2\n      swap1\n      pop\n      jump\t// out\n        /* \"#utility.yul\":28032:28214   */\n    tag_341:\n        /* \"#utility.yul\":28172:28206   */\n      0x476577696e6e20777572646520626572656974732065696e67657a61686c742e\n        /* \"#utility.yul\":28168:28169   */\n      0x00\n        /* \"#utility.yul\":28160:28166   */\n      dup3\n        /* \"#utility.yul\":28156:28170   */\n      add\n        /* \"#utility.yul\":28149:28207   */\n      mstore\n        /* \"#utility.yul\":28032:28214   */\n      pop\n      jump\t// out\n        /* \"#utility.yul\":28220:28586   */\n    tag_342:\n        /* \"#utility.yul\":28362:28365   */\n      0x00\n        /* \"#utility.yul\":28383:28450   */\n      tag_569\n        /* \"#utility.yul\":28447:28449   */\n      0x20\n        /* \"#utility.yul\":28442:28445   */\n      dup4\n        /* \"#utility.yul\":28383:28450   */\n      tag_288\n      jump\t// in\n    tag_569:\n        /* \"#utility.yul\":28376:28450   */\n      swap2\n      pop\n        /* \"#utility.yul\":28459:28552   */\n      tag_570\n        /* \"#utility.yul\":28548:28551   */\n      dup3\n        /* \"#utility.yul\":28459:28552   */\n      tag_341\n      jump\t// in\n    tag_570:\n        /* \"#utility.yul\":28577:28579   */\n      0x20\n        /* \"#utility.yul\":28572:28575   */\n      dup3\n        /* \"#utility.yul\":28568:28580   */\n      add\n        /* \"#utility.yul\":28561:28580   */\n      swap1\n      pop\n        /* \"#utility.yul\":28220:28586   */\n      swap2\n      swap1\n      pop\n      jump\t// out\n        /* \"#utility.yul\":28592:29011   */\n    tag_242:\n        /* \"#utility.yul\":28758:28762   */\n      0x00\n        /* \"#utility.yul\":28796:28798   */\n      0x20\n        /* \"#utility.yul\":28785:28794   */\n      dup3\n        /* \"#utility.yul\":28781:28799   */\n      add\n        /* \"#utility.yul\":28773:28799   */\n      swap1\n      pop\n        /* \"#utility.yul\":28845:28854   */\n      dup2\n        /* \"#utility.yul\":28839:28843   */\n      dup2\n        /* \"#utility.yul\":28835:28855   */\n      sub\n        /* \"#utility.yul\":28831:28832   */\n      0x00\n        /* \"#utility.yul\":28820:28829   */\n      dup4\n        /* \"#utility.yul\":28816:28833   */\n      add\n        /* \"#utility.yul\":28809:28856   */\n      mstore\n        /* \"#utility.yul\":28873:29004   */\n      tag_572\n        /* \"#utility.yul\":28999:29003   */\n      dup2\n        /* \"#utility.yul\":28873:29004   */\n      tag_342\n      jump\t// in\n    tag_572:\n        /* \"#utility.yul\":28865:29004   */\n      swap1\n      pop\n        /* \"#utility.yul\":28592:29011   */\n      swap2\n      swap1\n      pop\n      jump\t// out\n        /* \"#utility.yul\":29017:29197   */\n    tag_343:\n        /* \"#utility.yul\":29065:29142   */\n      0x4e487b7100000000000000000000000000000000000000000000000000000000\n        /* \"#utility.yul\":29062:29063   */\n      0x00\n        /* \"#utility.yul\":29055:29143   */\n      mstore\n        /* \"#utility.yul\":29162:29166   */\n      0x12\n        /* \"#utility.yul\":29159:29160   */\n      0x04\n        /* \"#utility.yul\":29152:29167   */\n      mstore\n        /* \"#utility.yul\":29186:29190   */\n      0x24\n        /* \"#utility.yul\":29183:29184   */\n      0x00\n        /* \"#utility.yul\":29176:29191   */\n      revert\n        /* \"#utility.yul\":29203:29385   */\n    tag_244:\n        /* \"#utility.yul\":29242:29243   */\n      0x00\n        /* \"#utility.yul\":29259:29278   */\n      tag_575\n        /* \"#utility.yul\":29276:29277   */\n      dup3\n        /* \"#utility.yul\":29259:29278   */\n      tag_271\n      jump\t// in\n    tag_575:\n        /* \"#utility.yul\":29254:29278   */\n      swap2\n      pop\n        /* \"#utility.yul\":29292:29311   */\n      tag_576\n        /* \"#utility.yul\":29309:29310   */\n      dup4\n        /* \"#utility.yul\":29292:29311   */\n      tag_271\n      jump\t// in\n    tag_576:\n        /* \"#utility.yul\":29287:29311   */\n      swap3\n      pop\n        /* \"#utility.yul\":29330:29331   */\n      dup3\n        /* \"#utility.yul\":29320:29355   */\n      tag_577\n      jumpi\n        /* \"#utility.yul\":29335:29353   */\n      tag_578\n      tag_343\n      jump\t// in\n    tag_578:\n        /* \"#utility.yul\":29320:29355   */\n    tag_577:\n        /* \"#utility.yul\":29377:29378   */\n      dup3\n        /* \"#utility.yul\":29374:29375   */\n      dup3\n        /* \"#utility.yul\":29370:29379   */\n      div\n        /* \"#utility.yul\":29365:29379   */\n      swap1\n      pop\n        /* \"#utility.yul\":29203:29385   */\n      swap3\n      swap2\n      pop\n      pop\n      jump\t// out\n        /* \"#utility.yul\":29391:29634   */\n    tag_344:\n        /* \"#utility.yul\":29531:29565   */\n      0x476577696e6e20777572646520626572656974732065696e67657a61686c7420\n        /* \"#utility.yul\":29527:29528   */\n      0x00\n        /* \"#utility.yul\":29519:29525   */\n      dup3\n        /* \"#utility.yul\":29515:29529   */\n      add\n        /* \"#utility.yul\":29508:29566   */\n      mstore\n        /* \"#utility.yul\":29600:29626   */\n      0x756e64206b616e6e2061626765686f6c742077657264656e0000000000000000\n        /* \"#utility.yul\":29595:29597   */\n      0x20\n        /* \"#utility.yul\":29587:29593   */\n      dup3\n        /* \"#utility.yul\":29583:29598   */\n      add\n        /* \"#utility.yul\":29576:29627   */\n      mstore\n        /* \"#utility.yul\":29391:29634   */\n      pop\n      jump\t// out\n        /* \"#utility.yul\":29640:30006   */\n    tag_345:\n        /* \"#utility.yul\":29782:29785   */\n      0x00\n        /* \"#utility.yul\":29803:29870   */\n      tag_581\n        /* \"#utility.yul\":29867:29869   */\n      0x38\n        /* \"#utility.yul\":29862:29865   */\n      dup4\n        /* \"#utility.yul\":29803:29870   */\n      tag_288\n      jump\t// in\n    tag_581:\n        /* \"#utility.yul\":29796:29870   */\n      swap2\n      pop\n        /* \"#utility.yul\":29879:29972   */\n      tag_582\n        /* \"#utility.yul\":29968:29971   */\n      dup3\n        /* \"#utility.yul\":29879:29972   */\n      tag_344\n      jump\t// in\n    tag_582:\n        /* \"#utility.yul\":29997:29999   */\n      0x40\n        /* \"#utility.yul\":29992:29995   */\n      dup3\n        /* \"#utility.yul\":29988:30000   */\n      add\n        /* \"#utility.yul\":29981:30000   */\n      swap1\n      pop\n        /* \"#utility.yul\":29640:30006   */\n      swap2\n      swap1\n      pop\n      jump\t// out\n        /* \"#utility.yul\":30012:30431   */\n    tag_254:\n        /* \"#utility.yul\":30178:30182   */\n      0x00\n        /* \"#utility.yul\":30216:30218   */\n      0x20\n        /* \"#utility.yul\":30205:30214   */\n      dup3\n        /* \"#utility.yul\":30201:30219   */\n      add\n        /* \"#utility.yul\":30193:30219   */\n      swap1\n      pop\n        /* \"#utility.yul\":30265:30274   */\n      dup2\n        /* \"#utility.yul\":30259:30263   */\n      dup2\n        /* \"#utility.yul\":30255:30275   */\n      sub\n        /* \"#utility.yul\":30251:30252   */\n      0x00\n        /* \"#utility.yul\":30240:30249   */\n      dup4\n        /* \"#utility.yul\":30236:30253   */\n      add\n        /* \"#utility.yul\":30229:30276   */\n      mstore\n        /* \"#utility.yul\":30293:30424   */\n      tag_584\n        /* \"#utility.yul\":30419:30423   */\n      dup2\n        /* \"#utility.yul\":30293:30424   */\n      tag_345\n      jump\t// in\n    tag_584:\n        /* \"#utility.yul\":30285:30424   */\n      swap1\n      pop\n        /* \"#utility.yul\":30012:30431   */\n      swap2\n      swap1\n      pop\n      jump\t// out\n        /* \"#utility.yul\":30437:30745   */\n    tag_346:\n        /* \"#utility.yul\":30577:30611   */\n      0x457320676962742062657265697473204d6974737069656c65722e2041656e64\n        /* \"#utility.yul\":30573:30574   */\n      0x00\n        /* \"#utility.yul\":30565:30571   */\n      dup3\n        /* \"#utility.yul\":30561:30575   */\n      add\n        /* \"#utility.yul\":30554:30612   */\n      mstore\n        /* \"#utility.yul\":30646:30680   */\n      0x6572756e672064657220416e7a61686c20616e204d6974737069656c65726e20\n        /* \"#utility.yul\":30641:30643   */\n      0x20\n        /* \"#utility.yul\":30633:30639   */\n      dup3\n        /* \"#utility.yul\":30629:30644   */\n      add\n        /* \"#utility.yul\":30622:30681   */\n      mstore\n        /* \"#utility.yul\":30715:30737   */\n      0x6e69636874206d656872206d6f65676c6963682e000000000000000000000000\n        /* \"#utility.yul\":30710:30712   */\n      0x40\n        /* \"#utility.yul\":30702:30708   */\n      dup3\n        /* \"#utility.yul\":30698:30713   */\n      add\n        /* \"#utility.yul\":30691:30738   */\n      mstore\n        /* \"#utility.yul\":30437:30745   */\n      pop\n      jump\t// out\n        /* \"#utility.yul\":30751:31117   */\n    tag_347:\n        /* \"#utility.yul\":30893:30896   */\n      0x00\n        /* \"#utility.yul\":30914:30981   */\n      tag_587\n        /* \"#utility.yul\":30978:30980   */\n      0x54\n        /* \"#utility.yul\":30973:30976   */\n      dup4\n        /* \"#utility.yul\":30914:30981   */\n      tag_288\n      jump\t// in\n    tag_587:\n        /* \"#utility.yul\":30907:30981   */\n      swap2\n      pop\n        /* \"#utility.yul\":30990:31083   */\n      tag_588\n        /* \"#utility.yul\":31079:31082   */\n      dup3\n        /* \"#utility.yul\":30990:31083   */\n      tag_346\n      jump\t// in\n    tag_588:\n        /* \"#utility.yul\":31108:31110   */\n      0x60\n        /* \"#utility.yul\":31103:31106   */\n      dup3\n        /* \"#utility.yul\":31099:31111   */\n      add\n        /* \"#utility.yul\":31092:31111   */\n      swap1\n      pop\n        /* \"#utility.yul\":30751:31117   */\n      swap2\n      swap1\n      pop\n      jump\t// out\n        /* \"#utility.yul\":31123:31542   */\n    tag_268:\n        /* \"#utility.yul\":31289:31293   */\n      0x00\n        /* \"#utility.yul\":31327:31329   */\n      0x20\n        /* \"#utility.yul\":31316:31325   */\n      dup3\n        /* \"#utility.yul\":31312:31330   */\n      add\n        /* \"#utility.yul\":31304:31330   */\n      swap1\n      pop\n        /* \"#utility.yul\":31376:31385   */\n      dup2\n        /* \"#utility.yul\":31370:31374   */\n      dup2\n        /* \"#utility.yul\":31366:31386   */\n      sub\n        /* \"#utility.yul\":31362:31363   */\n      0x00\n        /* \"#utility.yul\":31351:31360   */\n      dup4\n        /* \"#utility.yul\":31347:31364   */\n      add\n        /* \"#utility.yul\":31340:31387   */\n      mstore\n        /* \"#utility.yul\":31404:31535   */\n      tag_590\n        /* \"#utility.yul\":31530:31534   */\n      dup2\n        /* \"#utility.yul\":31404:31535   */\n      tag_347\n      jump\t// in\n    tag_590:\n        /* \"#utility.yul\":31396:31535   */\n      swap1\n      pop\n        /* \"#utility.yul\":31123:31542   */\n      swap2\n      swap1\n      pop\n      jump\t// out\n\n    auxdata: 0xa2646970667358221220ef163431633ab43b44c2fcbdcb7535f5dcde27d82fcadfc8c5f664e30428eb2364736f6c63430008170033\n}\n","bytecode":{"linkReferences":{},"object":"60806040525f600860026101000a81548165ffffffffffff021916908365ffffffffffff1602179055505f6008806101000a81548160ff0219169083151502179055505f600860096101000a81548160ff02191690831515021790555034801562000068575f80fd5b50604051620034c8380380620034c883398181016040528101906200008e919062000550565b61ffff8461ffff1610620000d9576040517f08c379a0000000000000000000000000000000000000000000000000000000008152600401620000d09062000684565b60405180910390fd5b6bffffffffffffffffffffffff836bffffffffffffffffffffffff161062000138576040517f08c379a00000000000000000000000000000000000000000000000000000000081526004016200012f9062000718565b60405180910390fd5b845f806101000a81548173ffffffffffffffffffffffffffffffffffffffff021916908373ffffffffffffffffffffffffffffffffffffffff16021790555085600190816200018891906200096f565b508360025f6101000a81548161ffff021916908361ffff160217905550826002806101000a8154816bffffffffffffffffffffffff02191690836bffffffffffffffffffffffff16021790555080600860096101000a81548160ff02191690831515021790555081600390816200020091906200096f565b50670de0b6b3a764000060025f9054906101000a900461ffff1661ffff16670de0b6b3a764000060028054906101000a90046bffffffffffffffffffffffff166bffffffffffffffffffffffff166200025a919062000a80565b62000266919062000af7565b62000272919062000af7565b6002600e6101000a8154816bffffffffffffffffffffffff02191690836bffffffffffffffffffffffff16021790555050505050505062000b2e565b5f604051905090565b5f80fd5b5f80fd5b5f80fd5b5f80fd5b5f601f19601f8301169050919050565b7f4e487b71000000000000000000000000000000000000000000000000000000005f52604160045260245ffd5b6200030f82620002c7565b810181811067ffffffffffffffff82111715620003315762000330620002d7565b5b80604052505050565b5f62000345620002ae565b905062000353828262000304565b919050565b5f67ffffffffffffffff821115620003755762000374620002d7565b5b6200038082620002c7565b9050602081019050919050565b5f5b83811015620003ac5780820151818401526020810190506200038f565b5f8484015250505050565b5f620003cd620003c78462000358565b6200033a565b905082815260208101848484011115620003ec57620003eb620002c3565b5b620003f98482856200038d565b509392505050565b5f82601f830112620004185762000417620002bf565b5b81516200042a848260208601620003b7565b91505092915050565b5f73ffffffffffffffffffffffffffffffffffffffff82169050919050565b5f6200045e8262000433565b9050919050565b620004708162000452565b81146200047b575f80fd5b50565b5f815190506200048e8162000465565b92915050565b5f61ffff82169050919050565b620004ac8162000494565b8114620004b7575f80fd5b50565b5f81519050620004ca81620004a1565b92915050565b5f6bffffffffffffffffffffffff82169050919050565b620004f281620004d0565b8114620004fd575f80fd5b50565b5f815190506200051081620004e7565b92915050565b5f8115159050919050565b6200052c8162000516565b811462000537575f80fd5b50565b5f815190506200054a8162000521565b92915050565b5f805f805f8060c087890312156200056d576200056c620002b7565b5b5f87015167ffffffffffffffff8111156200058d576200058c620002bb565b5b6200059b89828a0162000401565b9650506020620005ae89828a016200047e565b9550506040620005c189828a01620004ba565b9450506060620005d489828a0162000500565b935050608087015167ffffffffffffffff811115620005f857620005f7620002bb565b5b6200060689828a0162000401565b92505060a06200061989828a016200053a565b9150509295509295509295565b5f82825260208201905092915050565b7f4d6178696d616c203635353334204d6974737069656c65722065726c617562745f82015250565b5f6200066c60208362000626565b9150620006798262000636565b602082019050919050565b5f6020820190508181035f8301526200069d816200065e565b9050919050565b7f4d6178696d616c657220507265697320373932323831363235313432363433335f8201527f3735393335343339353033333500000000000000000000000000000000000000602082015250565b5f62000700602d8362000626565b91506200070d82620006a4565b604082019050919050565b5f6020820190508181035f8301526200073181620006f2565b9050919050565b5f81519050919050565b7f4e487b71000000000000000000000000000000000000000000000000000000005f52602260045260245ffd5b5f60028204905060018216806200078757607f821691505b6020821081036200079d576200079c62000742565b5b50919050565b5f819050815f5260205f209050919050565b5f6020601f8301049050919050565b5f82821b905092915050565b5f60088302620008017fffffffffffffffffffffffffffffffffffffffffffffffffffffffffffffffff82620007c4565b6200080d8683620007c4565b95508019841693508086168417925050509392505050565b5f819050919050565b5f819050919050565b5f62000857620008516200084b8462000825565b6200082e565b62000825565b9050919050565b5f819050919050565b620008728362000837565b6200088a62000881826200085e565b848454620007d0565b825550505050565b5f90565b620008a062000892565b620008ad81848462000867565b505050565b5b81811015620008d457620008c85f8262000896565b600181019050620008b3565b5050565b601f8211156200092357620008ed81620007a3565b620008f884620007b5565b8101602085101562000908578190505b620009206200091785620007b5565b830182620008b2565b50505b505050565b5f82821c905092915050565b5f620009455f198460080262000928565b1980831691505092915050565b5f6200095f838362000934565b9150826002028217905092915050565b6200097a8262000738565b67ffffffffffffffff811115620009965762000995620002d7565b5b620009a282546200076f565b620009af828285620008d8565b5f60209050601f831160018114620009e5575f8415620009d0578287015190505b620009dc858262000952565b86555062000a4b565b601f198416620009f586620007a3565b5f5b8281101562000a1e57848901518255600182019150602085019450602081019050620009f7565b8683101562000a3e578489015162000a3a601f89168262000934565b8355505b6001600288020188555050505b505050505050565b7f4e487b71000000000000000000000000000000000000000000000000000000005f52601160045260245ffd5b5f62000a8c8262000825565b915062000a998362000825565b925082820262000aa98162000825565b9150828204841483151762000ac35762000ac262000a53565b5b5092915050565b7f4e487b71000000000000000000000000000000000000000000000000000000005f52601260045260245ffd5b5f62000b038262000825565b915062000b108362000825565b92508262000b235762000b2262000aca565b5b828204905092915050565b61298c8062000b3c5f395ff3fe608060405260043610610165575f3560e01c80638acb4624116100d0578063bb68a67f11610089578063d27d06c011610063578063d27d06c014610477578063e068561a146104a1578063e34ad1d7146104c9578063e86c5692146104f357610165565b8063bb68a67f14610415578063c6ca9d1914610451578063c88c8b281461046d57610165565b80638acb46241461033b5780639124323914610365578063a299f171146103a1578063ab76211e146103ab578063ad2c046c146103c1578063b08c7076146103eb57610165565b80633babb15a116101225780633babb15a146102755780633f0f5d511461029f57806343767832146102c9578063526024ea146102f157806370a41bc0146102fb578063833e92cb1461032557610165565b8063084263f5146101695780630f085e50146101935780632340983f146101bd5780632df368a5146101e757806331c45120146102115780633692706014610239575b5f80fd5b348015610174575f80fd5b5061017d61052f565b60405161018a919061197c565b60405180910390f35b34801561019e575f80fd5b506101a761054c565b6040516101b491906119b5565b60405180910390f35b3480156101c8575f80fd5b506101d1610564565b6040516101de91906119e8565b60405180910390f35b3480156101f2575f80fd5b506101fb610575565b604051610208919061197c565b60405180910390f35b34801561021c575f80fd5b5061023760048036038101906102329190611a3e565b610593565b005b348015610244575f80fd5b5061025f600480360381019061025a9190611ac3565b6106ae565b60405161026c91906119e8565b60405180910390f35b348015610280575f80fd5b506102896106cb565b6040516102969190611b0a565b60405180910390f35b3480156102aa575f80fd5b506102b36106de565b6040516102c0919061197c565b60405180910390f35b3480156102d4575f80fd5b506102ef60048036038101906102ea9190611ac3565b6106fa565b005b6102f9610834565b005b348015610306575f80fd5b5061030f610bd7565b60405161031c9190611b0a565b60405180910390f35b348015610330575f80fd5b50610339610bea565b005b348015610346575f80fd5b5061034f610ee6565b60405161035c9190611bad565b60405180910390f35b348015610370575f80fd5b5061038b60048036038101906103869190611ac3565b610f72565b60405161039891906119e8565b60405180910390f35b6103a9610f8f565b005b3480156103b6575f80fd5b506103bf6112a0565b005b3480156103cc575f80fd5b506103d56113f2565b6040516103e29190611bdc565b60405180910390f35b3480156103f6575f80fd5b506103ff611415565b60405161040c91906119e8565b60405180910390f35b348015610420575f80fd5b5061043b60048036038101906104369190611ac3565b611428565b60405161044891906119e8565b60405180910390f35b61046b60048036038101906104669190611c1f565b611445565b005b6104756115d2565b005b348015610482575f80fd5b5061048b611799565b6040516104989190611bad565b60405180910390f35b3480156104ac575f80fd5b506104c760048036038101906104c29190611c74565b611825565b005b3480156104d4575f80fd5b506104dd611926565b6040516104ea91906119e8565b60405180910390f35b3480156104fe575f80fd5b5061051960048036038101906105149190611ac3565b611939565b60405161052691906119e8565b60405180910390f35b60045f9054906101000a90046bffffffffffffffffffffffff1681565b600860029054906101000a900465ffffffffffff1681565b60088054906101000a900460ff1681565b6002600e9054906101000a90046bffffffffffffffffffffffff1681565b5f8054906101000a900473ffffffffffffffffffffffffffffffffffffffff1673ffffffffffffffffffffffffffffffffffffffff163373ffffffffffffffffffffffffffffffffffffffff1614610620576040517f08c379a000000000000000000000000000000000000000000000000000000000815260040161061790611d0f565b60405180910390fd5b5f60085f9054906101000a900461ffff1661ffff1614610675576040517f08c379a000000000000000000000000000000000000000000000000000000000815260040161066c90611d9d565b60405180910390fd5b8063ffffffff166002806101000a8154816bffffffffffffffffffffffff02191690836bffffffffffffffffffffffff16021790555050565b6005602052805f5260405f205f915054906101000a900460ff1681565b60085f9054906101000a900461ffff1681565b60028054906101000a90046bffffffffffffffffffffffff1681565b5f8054906101000a900473ffffffffffffffffffffffffffffffffffffffff1673ffffffffffffffffffffffffffffffffffffffff163373ffffffffffffffffffffffffffffffffffffffff1614610787576040517f08c379a000000000000000000000000000000000000000000000000000000000815260040161077e90611d0f565b60405180910390fd5b5f60085f9054906101000a900461ffff1661ffff16146107dc576040517f08c379a00000000000000000000000000000000000000000000000000000000081526004016107d390611e2b565b60405180910390fd5b600160095f8373ffffffffffffffffffffffffffffffffffffffff1673ffffffffffffffffffffffffffffffffffffffff1681526020019081526020015f205f6101000a81548160ff02191690831515021790555050565b5f6002600e9054906101000a90046bffffffffffffffffffffffff166bffffffffffffffffffffffff161161089e576040517f08c379a000000000000000000000000000000000000000000000000000000000815260040161089590611e93565b60405180910390fd5b6002600e9054906101000a90046bffffffffffffffffffffffff166bffffffffffffffffffffffff16341015610909576040517f08c379a000000000000000000000000000000000000000000000000000000000815260040161090090611efb565b60405180910390fd5b60055f3373ffffffffffffffffffffffffffffffffffffffff1673ffffffffffffffffffffffffffffffffffffffff1681526020019081526020015f205f9054906101000a900460ff1615610993576040517f08c379a000000000000000000000000000000000000000000000000000000000815260040161098a90611f89565b60405180910390fd5b60025f9054906101000a900461ffff1661ffff1660085f9054906101000a900461ffff1661ffff16106109fb576040517f08c379a00000000000000000000000000000000000000000000000000000000081526004016109f290611ff1565b60405180910390fd5b5f600860029054906101000a900465ffffffffffff1665ffffffffffff1614610a59576040517f08c379a0000000000000000000000000000000000000000000000000000000008152600401610a5090612059565b60405180910390fd5b600860099054906101000a900460ff1615610ac15760095f3373ffffffffffffffffffffffffffffffffffffffff1673ffffffffffffffffffffffffffffffffffffffff1681526020019081526020015f205f9054906101000a900460ff16610ac0575f80fd5b5b5f6002600e9054906101000a90046bffffffffffffffffffffffff166bffffffffffffffffffffffff1634610af691906120ad565b9050600160055f3373ffffffffffffffffffffffffffffffffffffffff1673ffffffffffffffffffffffffffffffffffffffff1681526020019081526020015f205f6101000a81548160ff02191690831515021790555060085f81819054906101000a900461ffff1680929190610b6c906120e0565b91906101000a81548161ffff021916908361ffff160217905550505f811115610bd4573373ffffffffffffffffffffffffffffffffffffffff166108fc8290811502906040515f60405180830381858888f19350505050158015610bd2573d5f803e3d5ffd5b505b50565b60025f9054906101000a900461ffff1681565b60055f3373ffffffffffffffffffffffffffffffffffffffff1673ffffffffffffffffffffffffffffffffffffffff1681526020019081526020015f205f9054906101000a900460ff16610c73576040517f08c379a0000000000000000000000000000000000000000000000000000000008152600401610c6a90612179565b60405180910390fd5b600a5f9054906101000a900460ff1615610cc2576040517f08c379a0000000000000000000000000000000000000000000000000000000008152600401610cb9906121e1565b60405180910390fd5b6001600a5f6101000a81548160ff02191690831515021790555060088054906101000a900460ff16610d29576040517f08c379a0000000000000000000000000000000000000000000000000000000008152600401610d209061226f565b60405180910390fd5b5f600860029054906101000a900465ffffffffffff1665ffffffffffff1611610d87576040517f08c379a0000000000000000000000000000000000000000000000000000000008152600401610d7e906122fd565b60405180910390fd5b60065f3373ffffffffffffffffffffffffffffffffffffffff1673ffffffffffffffffffffffffffffffffffffffff1681526020019081526020015f205f9054906101000a900460ff1615610e11576040517f08c379a0000000000000000000000000000000000000000000000000000000008152600401610e0890612365565b60405180910390fd5b600160065f3373ffffffffffffffffffffffffffffffffffffffff1673ffffffffffffffffffffffffffffffffffffffff1681526020019081526020015f205f6101000a81548160ff0219169083151502179055505f600860029054906101000a900465ffffffffffff1665ffffffffffff1690503373ffffffffffffffffffffffffffffffffffffffff166108fc8290811502906040515f60405180830381858888f19350505050158015610ec9573d5f803e3d5ffd5b50505f600a5f6101000a81548160ff021916908315150217905550565b60038054610ef3906123b0565b80601f0160208091040260200160405190810160405280929190818152602001828054610f1f906123b0565b8015610f6a5780601f10610f4157610100808354040283529160200191610f6a565b820191905f5260205f20905b815481529060010190602001808311610f4d57829003601f168201915b505050505081565b6006602052805f5260405f205f915054906101000a900460ff1681565b60055f3373ffffffffffffffffffffffffffffffffffffffff1673ffffffffffffffffffffffffffffffffffffffff1681526020019081526020015f205f9054906101000a900460ff16611018576040517f08c379a000000000000000000000000000000000000000000000000000000000815260040161100f90612179565b60405180910390fd5b600a5f9054906101000a900460ff1615611067576040517f08c379a000000000000000000000000000000000000000000000000000000000815260040161105e906121e1565b60405180910390fd5b6001600a5f6101000a81548160ff021916908315150217905550600a60019054906101000a900460ff166110d0576040517f08c379a00000000000000000000000000000000000000000000000000000000081526004016110c790612450565b60405180910390fd5b60075f3373ffffffffffffffffffffffffffffffffffffffff1673ffffffffffffffffffffffffffffffffffffffff1681526020019081526020015f205f9054906101000a900460ff161561115a576040517f08c379a0000000000000000000000000000000000000000000000000000000008152600401611151906124de565b60405180910390fd5b600160075f3373ffffffffffffffffffffffffffffffffffffffff1673ffffffffffffffffffffffffffffffffffffffff1681526020019081526020015f205f6101000a81548160ff0219169083151502179055505f6002600e9054906101000a90046bffffffffffffffffffffffff166bffffffffffffffffffffffff1690505f3373ffffffffffffffffffffffffffffffffffffffff168260405161120090612529565b5f6040518083038185875af1925050503d805f811461123a576040519150601f19603f3d011682016040523d82523d5f602084013e61123f565b606091505b5050905080611283576040517f08c379a000000000000000000000000000000000000000000000000000000000815260040161127a906125ad565b60405180910390fd5b50505f600a5f6101000a81548160ff021916908315150217905550565b5f8054906101000a900473ffffffffffffffffffffffffffffffffffffffff1673ffffffffffffffffffffffffffffffffffffffff163373ffffffffffffffffffffffffffffffffffffffff161461132d576040517f08c379a000000000000000000000000000000000000000000000000000000000815260040161132490611d0f565b60405180910390fd5b5f151560088054906101000a900460ff16151514611380576040517f08c379a00000000000000000000000000000000000000000000000000000000081526004016113779061263b565b60405180910390fd5b5f1515600a60019054906101000a900460ff161515146113d5576040517f08c379a00000000000000000000000000000000000000000000000000000000081526004016113cc906126a3565b60405180910390fd5b6001600a60016101000a81548160ff021916908315150217905550565b5f8054906101000a900473ffffffffffffffffffffffffffffffffffffffff1681565b600860099054906101000a900460ff1681565b6007602052805f5260405f205f915054906101000a900460ff1681565b5f8054906101000a900473ffffffffffffffffffffffffffffffffffffffff1673ffffffffffffffffffffffffffffffffffffffff163373ffffffffffffffffffffffffffffffffffffffff16146114d2576040517f08c379a00000000000000000000000000000000000000000000000000000000081526004016114c990611d0f565b60405180910390fd5b5f3411611514576040517f08c379a000000000000000000000000000000000000000000000000000000000815260040161150b90612731565b60405180910390fd5b5f600860029054906101000a900465ffffffffffff1665ffffffffffff1614611572576040517f08c379a000000000000000000000000000000000000000000000000000000000815260040161156990612799565b60405180910390fd5b60085f9054906101000a900461ffff1661ffff168161159191906127e4565b600860026101000a81548165ffffffffffff021916908365ffffffffffff16021790555060016008806101000a81548160ff02191690831515021790555050565b600a5f9054906101000a900460ff1615611621576040517f08c379a0000000000000000000000000000000000000000000000000000000008152600401611618906121e1565b60405180910390fd5b6001600a5f6101000a81548160ff0219169083151502179055505f8054906101000a900473ffffffffffffffffffffffffffffffffffffffff1673ffffffffffffffffffffffffffffffffffffffff163373ffffffffffffffffffffffffffffffffffffffff16146116c8576040517f08c379a00000000000000000000000000000000000000000000000000000000081526004016116bf90611d0f565b60405180910390fd5b60088054906101000a900460ff1615611716576040517f08c379a000000000000000000000000000000000000000000000000000000000815260040161170d90612884565b60405180910390fd5b5f4790505f8054906101000a900473ffffffffffffffffffffffffffffffffffffffff1673ffffffffffffffffffffffffffffffffffffffff166108fc8290811502906040515f60405180830381858888f1935050505015801561177c573d5f803e3d5ffd5b50505f600a5f6101000a81548160ff021916908315150217905550565b600180546117a6906123b0565b80601f01602080910402602001604051908101604052809291908181526020018280546117d2906123b0565b801561181d5780601f106117f45761010080835404028352916020019161181d565b820191905f5260205f20905b81548152906001019060200180831161180057829003601f168201915b505050505081565b5f8054906101000a900473ffffffffffffffffffffffffffffffffffffffff1673ffffffffffffffffffffffffffffffffffffffff163373ffffffffffffffffffffffffffffffffffffffff16146118b2576040517f08c379a00000000000000000000000000000000000000000000000000000000081526004016118a990611d0f565b60405180910390fd5b5f60085f9054906101000a900461ffff1661ffff1614611907576040517f08c379a00000000000000000000000000000000000000000000000000000000081526004016118fe90612938565b60405180910390fd5b8060025f6101000a81548161ffff021916908361ffff16021790555050565b600a60019054906101000a900460ff1681565b6009602052805f5260405f205f915054906101000a900460ff1681565b5f6bffffffffffffffffffffffff82169050919050565b61197681611956565b82525050565b5f60208201905061198f5f83018461196d565b92915050565b5f65ffffffffffff82169050919050565b6119af81611995565b82525050565b5f6020820190506119c85f8301846119a6565b92915050565b5f8115159050919050565b6119e2816119ce565b82525050565b5f6020820190506119fb5f8301846119d9565b92915050565b5f80fd5b5f63ffffffff82169050919050565b611a1d81611a05565b8114611a27575f80fd5b50565b5f81359050611a3881611a14565b92915050565b5f60208284031215611a5357611a52611a01565b5b5f611a6084828501611a2a565b91505092915050565b5f73ffffffffffffffffffffffffffffffffffffffff82169050919050565b5f611a9282611a69565b9050919050565b611aa281611a88565b8114611aac575f80fd5b50565b5f81359050611abd81611a99565b92915050565b5f60208284031215611ad857611ad7611a01565b5b5f611ae584828501611aaf565b91505092915050565b5f61ffff82169050919050565b611b0481611aee565b82525050565b5f602082019050611b1d5f830184611afb565b92915050565b5f81519050919050565b5f82825260208201905092915050565b5f5b83811015611b5a578082015181840152602081019050611b3f565b5f8484015250505050565b5f601f19601f8301169050919050565b5f611b7f82611b23565b611b898185611b2d565b9350611b99818560208601611b3d565b611ba281611b65565b840191505092915050565b5f6020820190508181035f830152611bc58184611b75565b905092915050565b611bd681611a88565b82525050565b5f602082019050611bef5f830184611bcd565b92915050565b611bfe81611995565b8114611c08575f80fd5b50565b5f81359050611c1981611bf5565b92915050565b5f60208284031215611c3457611c33611a01565b5b5f611c4184828501611c0b565b91505092915050565b611c5381611aee565b8114611c5d575f80fd5b50565b5f81359050611c6e81611c4a565b92915050565b5f60208284031215611c8957611c88611a01565b5b5f611c9684828501611c60565b91505092915050565b7f4e75722064657220477275656e646572206b616e6e2064696573652046756e6b5f8201527f74696f6e206175736675656872656e2e00000000000000000000000000000000602082015250565b5f611cf9603083611b2d565b9150611d0482611c9f565b604082019050919050565b5f6020820190508181035f830152611d2681611ced565b9050919050565b7f457320676962742062657265697473204d6974737069656c65722e20507265695f8201527f7361656e646572756e67206e69636874206d656872206d6f65676c6963682e00602082015250565b5f611d87603f83611b2d565b9150611d9282611d2d565b604082019050919050565b5f6020820190508181035f830152611db481611d7b565b9050919050565b7f457320676962742062657265697473204d6974737069656c65722e2041656e645f8201527f6572756e67206e69636874206d656872206d6f65676c6963682e000000000000602082015250565b5f611e15603a83611b2d565b9150611e2082611dbb565b604082019050919050565b5f6020820190508181035f830152611e4281611e09565b9050919050565b7f4b65696e2050726569732070726f204d6974737069656c6572000000000000005f82015250565b5f611e7d601983611b2d565b9150611e8882611e49565b602082019050919050565b5f6020820190508181035f830152611eaa81611e71565b9050919050565b7f5a7520676572696e6765722045696e7a61686c756e67736265747261670000005f82015250565b5f611ee5601d83611b2d565b9150611ef082611eb1565b602082019050919050565b5f6020820190508181035f830152611f1281611ed9565b9050919050565b7f4265726569747320616c73204d6974737069656c6572207265676973747269655f8201527f7274000000000000000000000000000000000000000000000000000000000000602082015250565b5f611f73602283611b2d565b9150611f7e82611f19565b604082019050919050565b5f6020820190508181035f830152611fa081611f67565b9050919050565b7f4d6178696d616c65205465696c6e65686d65727a61686c2065727265696368745f82015250565b5f611fdb602083611b2d565b9150611fe682611fa7565b602082019050919050565b5f6020820190508181035f83015261200881611fcf565b9050919050565b7f476577696e6e20777572646520626572656974732065696e67657a61686c74005f82015250565b5f612043601f83611b2d565b915061204e8261200f565b602082019050919050565b5f6020820190508181035f83015261207081612037565b9050919050565b5f819050919050565b7f4e487b71000000000000000000000000000000000000000000000000000000005f52601160045260245ffd5b5f6120b782612077565b91506120c283612077565b92508282039050818111156120da576120d9612080565b5b92915050565b5f6120ea82611aee565b915061ffff82036120fe576120fd612080565b5b600182019050919050565b7f4e75722065696e204d6974737069656c6572206b616e6e2064696573652046755f8201527f6e6b74696f6e206175736675656872656e2e0000000000000000000000000000602082015250565b5f612163603283611b2d565b915061216e82612109565b604082019050919050565b5f6020820190508181035f83015261219081612157565b9050919050565b7f4e6f2072652d656e7472616e63790000000000000000000000000000000000005f82015250565b5f6121cb600e83611b2d565b91506121d682612197565b602082019050919050565b5f6020820190508181035f8301526121f8816121bf565b9050919050565b7f476577696e6e206b616e6e206e6f6368206e696368742061626765686f6c74205f8201527f77657264656e2e00000000000000000000000000000000000000000000000000602082015250565b5f612259602783611b2d565b9150612264826121ff565b604082019050919050565b5f6020820190508181035f8301526122868161224d565b9050919050565b7f4b65696e20476577696e6e207a7572204175737a61686c756e672076657266755f8201527f65676261722e0000000000000000000000000000000000000000000000000000602082015250565b5f6122e7602683611b2d565b91506122f28261228d565b604082019050919050565b5f6020820190508181035f830152612314816122db565b9050919050565b7f476577696e6e20777572646520626572656974732061626765686f6c742e00005f82015250565b5f61234f601e83611b2d565b915061235a8261231b565b602082019050919050565b5f6020820190508181035f83015261237c81612343565b9050919050565b7f4e487b71000000000000000000000000000000000000000000000000000000005f52602260045260245ffd5b5f60028204905060018216806123c757607f821691505b6020821081036123da576123d9612383565b5b50919050565b7f47656d65696e736368616674206d7573732061756667656c6f657374207365695f8201527f6e2e000000000000000000000000000000000000000000000000000000000000602082015250565b5f61243a602283611b2d565b9150612445826123e0565b604082019050919050565b5f6020820190508181035f8301526124678161242e565b9050919050565b7f45696e7361747a2077757264652062657265697473207a75727565636b67657a5f8201527f61686c742e000000000000000000000000000000000000000000000000000000602082015250565b5f6124c8602583611b2d565b91506124d38261246e565b604082019050919050565b5f6020820190508181035f8301526124f5816124bc565b9050919050565b5f81905092915050565b50565b5f6125145f836124fc565b915061251f82612506565b5f82019050919050565b5f61253382612509565b9150819050919050565b7f527565636b7a61686c756e67206465732045696e7361747a6573206665686c675f8201527f657363686c6167656e2e00000000000000000000000000000000000000000000602082015250565b5f612597602a83611b2d565b91506125a28261253d565b604082019050919050565b5f6020820190508181035f8301526125c48161258b565b9050919050565b7f476577696e6e206d757373206e6f63682061757367657a61686c7420776572645f8201527f656e000000000000000000000000000000000000000000000000000000000000602082015250565b5f612625602283611b2d565b9150612630826125cb565b604082019050919050565b5f6020820190508181035f83015261265281612619565b9050919050565b7f47656d65696e73636861667420626572656974732061756667656c6f657374005f82015250565b5f61268d601f83611b2d565b915061269882612659565b602082019050919050565b5f6020820190508181035f8301526126ba81612681565b9050919050565b7f45696e7a61686c756e6773626574726167206d7573732067726f6573736572205f8201527f616c732030207365696e00000000000000000000000000000000000000000000602082015250565b5f61271b602a83611b2d565b9150612726826126c1565b604082019050919050565b5f6020820190508181035f8301526127488161270f565b9050919050565b7f476577696e6e20777572646520626572656974732065696e67657a61686c742e5f82015250565b5f612783602083611b2d565b915061278e8261274f565b602082019050919050565b5f6020820190508181035f8301526127b081612777565b9050919050565b7f4e487b71000000000000000000000000000000000000000000000000000000005f52601260045260245ffd5b5f6127ee82611995565b91506127f983611995565b925082612809576128086127b7565b5b828204905092915050565b7f476577696e6e20777572646520626572656974732065696e67657a61686c74205f8201527f756e64206b616e6e2061626765686f6c742077657264656e0000000000000000602082015250565b5f61286e603883611b2d565b915061287982612814565b604082019050919050565b5f6020820190508181035f83015261289b81612862565b9050919050565b7f457320676962742062657265697473204d6974737069656c65722e2041656e645f8201527f6572756e672064657220416e7a61686c20616e204d6974737069656c65726e2060208201527f6e69636874206d656872206d6f65676c6963682e000000000000000000000000604082015250565b5f612922605483611b2d565b915061292d826128a2565b606082019050919050565b5f6020820190508181035f83015261294f81612916565b905091905056fea2646970667358221220ef163431633ab43b44c2fcbdcb7535f5dcde27d82fcadfc8c5f664e30428eb2364736f6c63430008170033","opcodes":"PUSH1 0x80 PUSH1 0x40 MSTORE PUSH0 PUSH1 0x8 PUSH1 0x2 PUSH2 0x100 EXP DUP2 SLOAD DUP2 PUSH6 0xFFFFFFFFFFFF MUL NOT AND SWAP1 DUP4 PUSH6 0xFFFFFFFFFFFF AND MUL OR SWAP1 SSTORE POP PUSH0 PUSH1 0x8 DUP1 PUSH2 0x100 EXP DUP2 SLOAD DUP2 PUSH1 0xFF MUL NOT AND SWAP1 DUP4 ISZERO ISZERO MUL OR SWAP1 SSTORE POP PUSH0 PUSH1 0x8 PUSH1 0x9 PUSH2 0x100 EXP DUP2 SLOAD DUP2 PUSH1 0xFF MUL NOT AND SWAP1 DUP4 ISZERO ISZERO MUL OR SWAP1 SSTORE POP CALLVALUE DUP1 ISZERO PUSH3 0x68 JUMPI PUSH0 DUP1 REVERT JUMPDEST POP PUSH1 0x40 MLOAD PUSH3 0x34C8 CODESIZE SUB DUP1 PUSH3 0x34C8 DUP4 CODECOPY DUP2 DUP2 ADD PUSH1 0x40 MSTORE DUP2 ADD SWAP1 PUSH3 0x8E SWAP2 SWAP1 PUSH3 0x550 JUMP JUMPDEST PUSH2 0xFFFF DUP5 PUSH2 0xFFFF AND LT PUSH3 0xD9 JUMPI PUSH1 0x40 MLOAD PUSH32 0x8C379A000000000000000000000000000000000000000000000000000000000 DUP2 MSTORE PUSH1 0x4 ADD PUSH3 0xD0 SWAP1 PUSH3 0x684 JUMP JUMPDEST PUSH1 0x40 MLOAD DUP1 SWAP2 SUB SWAP1 REVERT JUMPDEST PUSH12 0xFFFFFFFFFFFFFFFFFFFFFFFF DUP4 PUSH12 0xFFFFFFFFFFFFFFFFFFFFFFFF AND LT PUSH3 0x138 JUMPI PUSH1 0x40 MLOAD PUSH32 0x8C379A000000000000000000000000000000000000000000000000000000000 DUP2 MSTORE PUSH1 0x4 ADD PUSH3 0x12F SWAP1 PUSH3 0x718 JUMP JUMPDEST PUSH1 0x40 MLOAD DUP1 SWAP2 SUB SWAP1 REVERT JUMPDEST DUP5 PUSH0 DUP1 PUSH2 0x100 EXP DUP2 SLOAD DUP2 PUSH20 0xFFFFFFFFFFFFFFFFFFFFFFFFFFFFFFFFFFFFFFFF MUL NOT AND SWAP1 DUP4 PUSH20 0xFFFFFFFFFFFFFFFFFFFFFFFFFFFFFFFFFFFFFFFF AND MUL OR SWAP1 SSTORE POP DUP6 PUSH1 0x1 SWAP1 DUP2 PUSH3 0x188 SWAP2 SWAP1 PUSH3 0x96F JUMP JUMPDEST POP DUP4 PUSH1 0x2 PUSH0 PUSH2 0x100 EXP DUP2 SLOAD DUP2 PUSH2 0xFFFF MUL NOT AND SWAP1 DUP4 PUSH2 0xFFFF AND MUL OR SWAP1 SSTORE POP DUP3 PUSH1 0x2 DUP1 PUSH2 0x100 EXP DUP2 SLOAD DUP2 PUSH12 0xFFFFFFFFFFFFFFFFFFFFFFFF MUL NOT AND SWAP1 DUP4 PUSH12 0xFFFFFFFFFFFFFFFFFFFFFFFF AND MUL OR SWAP1 SSTORE POP DUP1 PUSH1 0x8 PUSH1 0x9 PUSH2 0x100 EXP DUP2 SLOAD DUP2 PUSH1 0xFF MUL NOT AND SWAP1 DUP4 ISZERO ISZERO MUL OR SWAP1 SSTORE POP DUP2 PUSH1 0x3 SWAP1 DUP2 PUSH3 0x200 SWAP2 SWAP1 PUSH3 0x96F JUMP JUMPDEST POP PUSH8 0xDE0B6B3A7640000 PUSH1 0x2 PUSH0 SWAP1 SLOAD SWAP1 PUSH2 0x100 EXP SWAP1 DIV PUSH2 0xFFFF AND PUSH2 0xFFFF AND PUSH8 0xDE0B6B3A7640000 PUSH1 0x2 DUP1 SLOAD SWAP1 PUSH2 0x100 EXP SWAP1 DIV PUSH12 0xFFFFFFFFFFFFFFFFFFFFFFFF AND PUSH12 0xFFFFFFFFFFFFFFFFFFFFFFFF AND PUSH3 0x25A SWAP2 SWAP1 PUSH3 0xA80 JUMP JUMPDEST PUSH3 0x266 SWAP2 SWAP1 PUSH3 0xAF7 JUMP JUMPDEST PUSH3 0x272 SWAP2 SWAP1 PUSH3 0xAF7 JUMP JUMPDEST PUSH1 0x2 PUSH1 0xE PUSH2 0x100 EXP DUP2 SLOAD DUP2 PUSH12 0xFFFFFFFFFFFFFFFFFFFFFFFF MUL NOT AND SWAP1 DUP4 PUSH12 0xFFFFFFFFFFFFFFFFFFFFFFFF AND MUL OR SWAP1 SSTORE POP POP POP POP POP POP POP PUSH3 0xB2E JUMP JUMPDEST PUSH0 PUSH1 0x40 MLOAD SWAP1 POP SWAP1 JUMP JUMPDEST PUSH0 DUP1 REVERT JUMPDEST PUSH0 DUP1 REVERT JUMPDEST PUSH0 DUP1 REVERT JUMPDEST PUSH0 DUP1 REVERT JUMPDEST PUSH0 PUSH1 0x1F NOT PUSH1 0x1F DUP4 ADD AND SWAP1 POP SWAP2 SWAP1 POP JUMP JUMPDEST PUSH32 0x4E487B7100000000000000000000000000000000000000000000000000000000 PUSH0 MSTORE PUSH1 0x41 PUSH1 0x4 MSTORE PUSH1 0x24 PUSH0 REVERT JUMPDEST PUSH3 0x30F DUP3 PUSH3 0x2C7 JUMP JUMPDEST DUP2 ADD DUP2 DUP2 LT PUSH8 0xFFFFFFFFFFFFFFFF DUP3 GT OR ISZERO PUSH3 0x331 JUMPI PUSH3 0x330 PUSH3 0x2D7 JUMP JUMPDEST JUMPDEST DUP1 PUSH1 0x40 MSTORE POP POP POP JUMP JUMPDEST PUSH0 PUSH3 0x345 PUSH3 0x2AE JUMP JUMPDEST SWAP1 POP PUSH3 0x353 DUP3 DUP3 PUSH3 0x304 JUMP JUMPDEST SWAP2 SWAP1 POP JUMP JUMPDEST PUSH0 PUSH8 0xFFFFFFFFFFFFFFFF DUP3 GT ISZERO PUSH3 0x375 JUMPI PUSH3 0x374 PUSH3 0x2D7 JUMP JUMPDEST JUMPDEST PUSH3 0x380 DUP3 PUSH3 0x2C7 JUMP JUMPDEST SWAP1 POP PUSH1 0x20 DUP2 ADD SWAP1 POP SWAP2 SWAP1 POP JUMP JUMPDEST PUSH0 JUMPDEST DUP4 DUP2 LT ISZERO PUSH3 0x3AC JUMPI DUP1 DUP3 ADD MLOAD DUP2 DUP5 ADD MSTORE PUSH1 0x20 DUP2 ADD SWAP1 POP PUSH3 0x38F JUMP JUMPDEST PUSH0 DUP5 DUP5 ADD MSTORE POP POP POP POP JUMP JUMPDEST PUSH0 PUSH3 0x3CD PUSH3 0x3C7 DUP5 PUSH3 0x358 JUMP JUMPDEST PUSH3 0x33A JUMP JUMPDEST SWAP1 POP DUP3 DUP2 MSTORE PUSH1 0x20 DUP2 ADD DUP5 DUP5 DUP5 ADD GT ISZERO PUSH3 0x3EC JUMPI PUSH3 0x3EB PUSH3 0x2C3 JUMP JUMPDEST JUMPDEST PUSH3 0x3F9 DUP5 DUP3 DUP6 PUSH3 0x38D JUMP JUMPDEST POP SWAP4 SWAP3 POP POP POP JUMP JUMPDEST PUSH0 DUP3 PUSH1 0x1F DUP4 ADD SLT PUSH3 0x418 JUMPI PUSH3 0x417 PUSH3 0x2BF JUMP JUMPDEST JUMPDEST DUP2 MLOAD PUSH3 0x42A DUP5 DUP3 PUSH1 0x20 DUP7 ADD PUSH3 0x3B7 JUMP JUMPDEST SWAP2 POP POP SWAP3 SWAP2 POP POP JUMP JUMPDEST PUSH0 PUSH20 0xFFFFFFFFFFFFFFFFFFFFFFFFFFFFFFFFFFFFFFFF DUP3 AND SWAP1 POP SWAP2 SWAP1 POP JUMP JUMPDEST PUSH0 PUSH3 0x45E DUP3 PUSH3 0x433 JUMP JUMPDEST SWAP1 POP SWAP2 SWAP1 POP JUMP JUMPDEST PUSH3 0x470 DUP2 PUSH3 0x452 JUMP JUMPDEST DUP2 EQ PUSH3 0x47B JUMPI PUSH0 DUP1 REVERT JUMPDEST POP JUMP JUMPDEST PUSH0 DUP2 MLOAD SWAP1 POP PUSH3 0x48E DUP2 PUSH3 0x465 JUMP JUMPDEST SWAP3 SWAP2 POP POP JUMP JUMPDEST PUSH0 PUSH2 0xFFFF DUP3 AND SWAP1 POP SWAP2 SWAP1 POP JUMP JUMPDEST PUSH3 0x4AC DUP2 PUSH3 0x494 JUMP JUMPDEST DUP2 EQ PUSH3 0x4B7 JUMPI PUSH0 DUP1 REVERT JUMPDEST POP JUMP JUMPDEST PUSH0 DUP2 MLOAD SWAP1 POP PUSH3 0x4CA DUP2 PUSH3 0x4A1 JUMP JUMPDEST SWAP3 SWAP2 POP POP JUMP JUMPDEST PUSH0 PUSH12 0xFFFFFFFFFFFFFFFFFFFFFFFF DUP3 AND SWAP1 POP SWAP2 SWAP1 POP JUMP JUMPDEST PUSH3 0x4F2 DUP2 PUSH3 0x4D0 JUMP JUMPDEST DUP2 EQ PUSH3 0x4FD JUMPI PUSH0 DUP1 REVERT JUMPDEST POP JUMP JUMPDEST PUSH0 DUP2 MLOAD SWAP1 POP PUSH3 0x510 DUP2 PUSH3 0x4E7 JUMP JUMPDEST SWAP3 SWAP2 POP POP JUMP JUMPDEST PUSH0 DUP2 ISZERO ISZERO SWAP1 POP SWAP2 SWAP1 POP JUMP JUMPDEST PUSH3 0x52C DUP2 PUSH3 0x516 JUMP JUMPDEST DUP2 EQ PUSH3 0x537 JUMPI PUSH0 DUP1 REVERT JUMPDEST POP JUMP JUMPDEST PUSH0 DUP2 MLOAD SWAP1 POP PUSH3 0x54A DUP2 PUSH3 0x521 JUMP JUMPDEST SWAP3 SWAP2 POP POP JUMP JUMPDEST PUSH0 DUP1 PUSH0 DUP1 PUSH0 DUP1 PUSH1 0xC0 DUP8 DUP10 SUB SLT ISZERO PUSH3 0x56D JUMPI PUSH3 0x56C PUSH3 0x2B7 JUMP JUMPDEST JUMPDEST PUSH0 DUP8 ADD MLOAD PUSH8 0xFFFFFFFFFFFFFFFF DUP2 GT ISZERO PUSH3 0x58D JUMPI PUSH3 0x58C PUSH3 0x2BB JUMP JUMPDEST JUMPDEST PUSH3 0x59B DUP10 DUP3 DUP11 ADD PUSH3 0x401 JUMP JUMPDEST SWAP7 POP POP PUSH1 0x20 PUSH3 0x5AE DUP10 DUP3 DUP11 ADD PUSH3 0x47E JUMP JUMPDEST SWAP6 POP POP PUSH1 0x40 PUSH3 0x5C1 DUP10 DUP3 DUP11 ADD PUSH3 0x4BA JUMP JUMPDEST SWAP5 POP POP PUSH1 0x60 PUSH3 0x5D4 DUP10 DUP3 DUP11 ADD PUSH3 0x500 JUMP JUMPDEST SWAP4 POP POP PUSH1 0x80 DUP8 ADD MLOAD PUSH8 0xFFFFFFFFFFFFFFFF DUP2 GT ISZERO PUSH3 0x5F8 JUMPI PUSH3 0x5F7 PUSH3 0x2BB JUMP JUMPDEST JUMPDEST PUSH3 0x606 DUP10 DUP3 DUP11 ADD PUSH3 0x401 JUMP JUMPDEST SWAP3 POP POP PUSH1 0xA0 PUSH3 0x619 DUP10 DUP3 DUP11 ADD PUSH3 0x53A JUMP JUMPDEST SWAP2 POP POP SWAP3 SWAP6 POP SWAP3 SWAP6 POP SWAP3 SWAP6 JUMP JUMPDEST PUSH0 DUP3 DUP3 MSTORE PUSH1 0x20 DUP3 ADD SWAP1 POP SWAP3 SWAP2 POP POP JUMP JUMPDEST PUSH32 0x4D6178696D616C203635353334204D6974737069656C65722065726C61756274 PUSH0 DUP3 ADD MSTORE POP JUMP JUMPDEST PUSH0 PUSH3 0x66C PUSH1 0x20 DUP4 PUSH3 0x626 JUMP JUMPDEST SWAP2 POP PUSH3 0x679 DUP3 PUSH3 0x636 JUMP JUMPDEST PUSH1 0x20 DUP3 ADD SWAP1 POP SWAP2 SWAP1 POP JUMP JUMPDEST PUSH0 PUSH1 0x20 DUP3 ADD SWAP1 POP DUP2 DUP2 SUB PUSH0 DUP4 ADD MSTORE PUSH3 0x69D DUP2 PUSH3 0x65E JUMP JUMPDEST SWAP1 POP SWAP2 SWAP1 POP JUMP JUMPDEST PUSH32 0x4D6178696D616C65722050726569732037393232383136323531343236343333 PUSH0 DUP3 ADD MSTORE PUSH32 0x3735393335343339353033333500000000000000000000000000000000000000 PUSH1 0x20 DUP3 ADD MSTORE POP JUMP JUMPDEST PUSH0 PUSH3 0x700 PUSH1 0x2D DUP4 PUSH3 0x626 JUMP JUMPDEST SWAP2 POP PUSH3 0x70D DUP3 PUSH3 0x6A4 JUMP JUMPDEST PUSH1 0x40 DUP3 ADD SWAP1 POP SWAP2 SWAP1 POP JUMP JUMPDEST PUSH0 PUSH1 0x20 DUP3 ADD SWAP1 POP DUP2 DUP2 SUB PUSH0 DUP4 ADD MSTORE PUSH3 0x731 DUP2 PUSH3 0x6F2 JUMP JUMPDEST SWAP1 POP SWAP2 SWAP1 POP JUMP JUMPDEST PUSH0 DUP2 MLOAD SWAP1 POP SWAP2 SWAP1 POP JUMP JUMPDEST PUSH32 0x4E487B7100000000000000000000000000000000000000000000000000000000 PUSH0 MSTORE PUSH1 0x22 PUSH1 0x4 MSTORE PUSH1 0x24 PUSH0 REVERT JUMPDEST PUSH0 PUSH1 0x2 DUP3 DIV SWAP1 POP PUSH1 0x1 DUP3 AND DUP1 PUSH3 0x787 JUMPI PUSH1 0x7F DUP3 AND SWAP2 POP JUMPDEST PUSH1 0x20 DUP3 LT DUP2 SUB PUSH3 0x79D JUMPI PUSH3 0x79C PUSH3 0x742 JUMP JUMPDEST JUMPDEST POP SWAP2 SWAP1 POP JUMP JUMPDEST PUSH0 DUP2 SWAP1 POP DUP2 PUSH0 MSTORE PUSH1 0x20 PUSH0 KECCAK256 SWAP1 POP SWAP2 SWAP1 POP JUMP JUMPDEST PUSH0 PUSH1 0x20 PUSH1 0x1F DUP4 ADD DIV SWAP1 POP SWAP2 SWAP1 POP JUMP JUMPDEST PUSH0 DUP3 DUP3 SHL SWAP1 POP SWAP3 SWAP2 POP POP JUMP JUMPDEST PUSH0 PUSH1 0x8 DUP4 MUL PUSH3 0x801 PUSH32 0xFFFFFFFFFFFFFFFFFFFFFFFFFFFFFFFFFFFFFFFFFFFFFFFFFFFFFFFFFFFFFFFF DUP3 PUSH3 0x7C4 JUMP JUMPDEST PUSH3 0x80D DUP7 DUP4 PUSH3 0x7C4 JUMP JUMPDEST SWAP6 POP DUP1 NOT DUP5 AND SWAP4 POP DUP1 DUP7 AND DUP5 OR SWAP3 POP POP POP SWAP4 SWAP3 POP POP POP JUMP JUMPDEST PUSH0 DUP2 SWAP1 POP SWAP2 SWAP1 POP JUMP JUMPDEST PUSH0 DUP2 SWAP1 POP SWAP2 SWAP1 POP JUMP JUMPDEST PUSH0 PUSH3 0x857 PUSH3 0x851 PUSH3 0x84B DUP5 PUSH3 0x825 JUMP JUMPDEST PUSH3 0x82E JUMP JUMPDEST PUSH3 0x825 JUMP JUMPDEST SWAP1 POP SWAP2 SWAP1 POP JUMP JUMPDEST PUSH0 DUP2 SWAP1 POP SWAP2 SWAP1 POP JUMP JUMPDEST PUSH3 0x872 DUP4 PUSH3 0x837 JUMP JUMPDEST PUSH3 0x88A PUSH3 0x881 DUP3 PUSH3 0x85E JUMP JUMPDEST DUP5 DUP5 SLOAD PUSH3 0x7D0 JUMP JUMPDEST DUP3 SSTORE POP POP POP POP JUMP JUMPDEST PUSH0 SWAP1 JUMP JUMPDEST PUSH3 0x8A0 PUSH3 0x892 JUMP JUMPDEST PUSH3 0x8AD DUP2 DUP5 DUP5 PUSH3 0x867 JUMP JUMPDEST POP POP POP JUMP JUMPDEST JUMPDEST DUP2 DUP2 LT ISZERO PUSH3 0x8D4 JUMPI PUSH3 0x8C8 PUSH0 DUP3 PUSH3 0x896 JUMP JUMPDEST PUSH1 0x1 DUP2 ADD SWAP1 POP PUSH3 0x8B3 JUMP JUMPDEST POP POP JUMP JUMPDEST PUSH1 0x1F DUP3 GT ISZERO PUSH3 0x923 JUMPI PUSH3 0x8ED DUP2 PUSH3 0x7A3 JUMP JUMPDEST PUSH3 0x8F8 DUP5 PUSH3 0x7B5 JUMP JUMPDEST DUP2 ADD PUSH1 0x20 DUP6 LT ISZERO PUSH3 0x908 JUMPI DUP2 SWAP1 POP JUMPDEST PUSH3 0x920 PUSH3 0x917 DUP6 PUSH3 0x7B5 JUMP JUMPDEST DUP4 ADD DUP3 PUSH3 0x8B2 JUMP JUMPDEST POP POP JUMPDEST POP POP POP JUMP JUMPDEST PUSH0 DUP3 DUP3 SHR SWAP1 POP SWAP3 SWAP2 POP POP JUMP JUMPDEST PUSH0 PUSH3 0x945 PUSH0 NOT DUP5 PUSH1 0x8 MUL PUSH3 0x928 JUMP JUMPDEST NOT DUP1 DUP4 AND SWAP2 POP POP SWAP3 SWAP2 POP POP JUMP JUMPDEST PUSH0 PUSH3 0x95F DUP4 DUP4 PUSH3 0x934 JUMP JUMPDEST SWAP2 POP DUP3 PUSH1 0x2 MUL DUP3 OR SWAP1 POP SWAP3 SWAP2 POP POP JUMP JUMPDEST PUSH3 0x97A DUP3 PUSH3 0x738 JUMP JUMPDEST PUSH8 0xFFFFFFFFFFFFFFFF DUP2 GT ISZERO PUSH3 0x996 JUMPI PUSH3 0x995 PUSH3 0x2D7 JUMP JUMPDEST JUMPDEST PUSH3 0x9A2 DUP3 SLOAD PUSH3 0x76F JUMP JUMPDEST PUSH3 0x9AF DUP3 DUP3 DUP6 PUSH3 0x8D8 JUMP JUMPDEST PUSH0 PUSH1 0x20 SWAP1 POP PUSH1 0x1F DUP4 GT PUSH1 0x1 DUP2 EQ PUSH3 0x9E5 JUMPI PUSH0 DUP5 ISZERO PUSH3 0x9D0 JUMPI DUP3 DUP8 ADD MLOAD SWAP1 POP JUMPDEST PUSH3 0x9DC DUP6 DUP3 PUSH3 0x952 JUMP JUMPDEST DUP7 SSTORE POP PUSH3 0xA4B JUMP JUMPDEST PUSH1 0x1F NOT DUP5 AND PUSH3 0x9F5 DUP7 PUSH3 0x7A3 JUMP JUMPDEST PUSH0 JUMPDEST DUP3 DUP2 LT ISZERO PUSH3 0xA1E JUMPI DUP5 DUP10 ADD MLOAD DUP3 SSTORE PUSH1 0x1 DUP3 ADD SWAP2 POP PUSH1 0x20 DUP6 ADD SWAP5 POP PUSH1 0x20 DUP2 ADD SWAP1 POP PUSH3 0x9F7 JUMP JUMPDEST DUP7 DUP4 LT ISZERO PUSH3 0xA3E JUMPI DUP5 DUP10 ADD MLOAD PUSH3 0xA3A PUSH1 0x1F DUP10 AND DUP3 PUSH3 0x934 JUMP JUMPDEST DUP4 SSTORE POP JUMPDEST PUSH1 0x1 PUSH1 0x2 DUP9 MUL ADD DUP9 SSTORE POP POP POP JUMPDEST POP POP POP POP POP POP JUMP JUMPDEST PUSH32 0x4E487B7100000000000000000000000000000000000000000000000000000000 PUSH0 MSTORE PUSH1 0x11 PUSH1 0x4 MSTORE PUSH1 0x24 PUSH0 REVERT JUMPDEST PUSH0 PUSH3 0xA8C DUP3 PUSH3 0x825 JUMP JUMPDEST SWAP2 POP PUSH3 0xA99 DUP4 PUSH3 0x825 JUMP JUMPDEST SWAP3 POP DUP3 DUP3 MUL PUSH3 0xAA9 DUP2 PUSH3 0x825 JUMP JUMPDEST SWAP2 POP DUP3 DUP3 DIV DUP5 EQ DUP4 ISZERO OR PUSH3 0xAC3 JUMPI PUSH3 0xAC2 PUSH3 0xA53 JUMP JUMPDEST JUMPDEST POP SWAP3 SWAP2 POP POP JUMP JUMPDEST PUSH32 0x4E487B7100000000000000000000000000000000000000000000000000000000 PUSH0 MSTORE PUSH1 0x12 PUSH1 0x4 MSTORE PUSH1 0x24 PUSH0 REVERT JUMPDEST PUSH0 PUSH3 0xB03 DUP3 PUSH3 0x825 JUMP JUMPDEST SWAP2 POP PUSH3 0xB10 DUP4 PUSH3 0x825 JUMP JUMPDEST SWAP3 POP DUP3 PUSH3 0xB23 JUMPI PUSH3 0xB22 PUSH3 0xACA JUMP JUMPDEST JUMPDEST DUP3 DUP3 DIV SWAP1 POP SWAP3 SWAP2 POP POP JUMP JUMPDEST PUSH2 0x298C DUP1 PUSH3 0xB3C PUSH0 CODECOPY PUSH0 RETURN INVALID PUSH1 0x80 PUSH1 0x40 MSTORE PUSH1 0x4 CALLDATASIZE LT PUSH2 0x165 JUMPI PUSH0 CALLDATALOAD PUSH1 0xE0 SHR DUP1 PUSH4 0x8ACB4624 GT PUSH2 0xD0 JUMPI DUP1 PUSH4 0xBB68A67F GT PUSH2 0x89 JUMPI DUP1 PUSH4 0xD27D06C0 GT PUSH2 0x63 JUMPI DUP1 PUSH4 0xD27D06C0 EQ PUSH2 0x477 JUMPI DUP1 PUSH4 0xE068561A EQ PUSH2 0x4A1 JUMPI DUP1 PUSH4 0xE34AD1D7 EQ PUSH2 0x4C9 JUMPI DUP1 PUSH4 0xE86C5692 EQ PUSH2 0x4F3 JUMPI PUSH2 0x165 JUMP JUMPDEST DUP1 PUSH4 0xBB68A67F EQ PUSH2 0x415 JUMPI DUP1 PUSH4 0xC6CA9D19 EQ PUSH2 0x451 JUMPI DUP1 PUSH4 0xC88C8B28 EQ PUSH2 0x46D JUMPI PUSH2 0x165 JUMP JUMPDEST DUP1 PUSH4 0x8ACB4624 EQ PUSH2 0x33B JUMPI DUP1 PUSH4 0x91243239 EQ PUSH2 0x365 JUMPI DUP1 PUSH4 0xA299F171 EQ PUSH2 0x3A1 JUMPI DUP1 PUSH4 0xAB76211E EQ PUSH2 0x3AB JUMPI DUP1 PUSH4 0xAD2C046C EQ PUSH2 0x3C1 JUMPI DUP1 PUSH4 0xB08C7076 EQ PUSH2 0x3EB JUMPI PUSH2 0x165 JUMP JUMPDEST DUP1 PUSH4 0x3BABB15A GT PUSH2 0x122 JUMPI DUP1 PUSH4 0x3BABB15A EQ PUSH2 0x275 JUMPI DUP1 PUSH4 0x3F0F5D51 EQ PUSH2 0x29F JUMPI DUP1 PUSH4 0x43767832 EQ PUSH2 0x2C9 JUMPI DUP1 PUSH4 0x526024EA EQ PUSH2 0x2F1 JUMPI DUP1 PUSH4 0x70A41BC0 EQ PUSH2 0x2FB JUMPI DUP1 PUSH4 0x833E92CB EQ PUSH2 0x325 JUMPI PUSH2 0x165 JUMP JUMPDEST DUP1 PUSH4 0x84263F5 EQ PUSH2 0x169 JUMPI DUP1 PUSH4 0xF085E50 EQ PUSH2 0x193 JUMPI DUP1 PUSH4 0x2340983F EQ PUSH2 0x1BD JUMPI DUP1 PUSH4 0x2DF368A5 EQ PUSH2 0x1E7 JUMPI DUP1 PUSH4 0x31C45120 EQ PUSH2 0x211 JUMPI DUP1 PUSH4 0x36927060 EQ PUSH2 0x239 JUMPI JUMPDEST PUSH0 DUP1 REVERT JUMPDEST CALLVALUE DUP1 ISZERO PUSH2 0x174 JUMPI PUSH0 DUP1 REVERT JUMPDEST POP PUSH2 0x17D PUSH2 0x52F JUMP JUMPDEST PUSH1 0x40 MLOAD PUSH2 0x18A SWAP2 SWAP1 PUSH2 0x197C JUMP JUMPDEST PUSH1 0x40 MLOAD DUP1 SWAP2 SUB SWAP1 RETURN JUMPDEST CALLVALUE DUP1 ISZERO PUSH2 0x19E JUMPI PUSH0 DUP1 REVERT JUMPDEST POP PUSH2 0x1A7 PUSH2 0x54C JUMP JUMPDEST PUSH1 0x40 MLOAD PUSH2 0x1B4 SWAP2 SWAP1 PUSH2 0x19B5 JUMP JUMPDEST PUSH1 0x40 MLOAD DUP1 SWAP2 SUB SWAP1 RETURN JUMPDEST CALLVALUE DUP1 ISZERO PUSH2 0x1C8 JUMPI PUSH0 DUP1 REVERT JUMPDEST POP PUSH2 0x1D1 PUSH2 0x564 JUMP JUMPDEST PUSH1 0x40 MLOAD PUSH2 0x1DE SWAP2 SWAP1 PUSH2 0x19E8 JUMP JUMPDEST PUSH1 0x40 MLOAD DUP1 SWAP2 SUB SWAP1 RETURN JUMPDEST CALLVALUE DUP1 ISZERO PUSH2 0x1F2 JUMPI PUSH0 DUP1 REVERT JUMPDEST POP PUSH2 0x1FB PUSH2 0x575 JUMP JUMPDEST PUSH1 0x40 MLOAD PUSH2 0x208 SWAP2 SWAP1 PUSH2 0x197C JUMP JUMPDEST PUSH1 0x40 MLOAD DUP1 SWAP2 SUB SWAP1 RETURN JUMPDEST CALLVALUE DUP1 ISZERO PUSH2 0x21C JUMPI PUSH0 DUP1 REVERT JUMPDEST POP PUSH2 0x237 PUSH1 0x4 DUP1 CALLDATASIZE SUB DUP2 ADD SWAP1 PUSH2 0x232 SWAP2 SWAP1 PUSH2 0x1A3E JUMP JUMPDEST PUSH2 0x593 JUMP JUMPDEST STOP JUMPDEST CALLVALUE DUP1 ISZERO PUSH2 0x244 JUMPI PUSH0 DUP1 REVERT JUMPDEST POP PUSH2 0x25F PUSH1 0x4 DUP1 CALLDATASIZE SUB DUP2 ADD SWAP1 PUSH2 0x25A SWAP2 SWAP1 PUSH2 0x1AC3 JUMP JUMPDEST PUSH2 0x6AE JUMP JUMPDEST PUSH1 0x40 MLOAD PUSH2 0x26C SWAP2 SWAP1 PUSH2 0x19E8 JUMP JUMPDEST PUSH1 0x40 MLOAD DUP1 SWAP2 SUB SWAP1 RETURN JUMPDEST CALLVALUE DUP1 ISZERO PUSH2 0x280 JUMPI PUSH0 DUP1 REVERT JUMPDEST POP PUSH2 0x289 PUSH2 0x6CB JUMP JUMPDEST PUSH1 0x40 MLOAD PUSH2 0x296 SWAP2 SWAP1 PUSH2 0x1B0A JUMP JUMPDEST PUSH1 0x40 MLOAD DUP1 SWAP2 SUB SWAP1 RETURN JUMPDEST CALLVALUE DUP1 ISZERO PUSH2 0x2AA JUMPI PUSH0 DUP1 REVERT JUMPDEST POP PUSH2 0x2B3 PUSH2 0x6DE JUMP JUMPDEST PUSH1 0x40 MLOAD PUSH2 0x2C0 SWAP2 SWAP1 PUSH2 0x197C JUMP JUMPDEST PUSH1 0x40 MLOAD DUP1 SWAP2 SUB SWAP1 RETURN JUMPDEST CALLVALUE DUP1 ISZERO PUSH2 0x2D4 JUMPI PUSH0 DUP1 REVERT JUMPDEST POP PUSH2 0x2EF PUSH1 0x4 DUP1 CALLDATASIZE SUB DUP2 ADD SWAP1 PUSH2 0x2EA SWAP2 SWAP1 PUSH2 0x1AC3 JUMP JUMPDEST PUSH2 0x6FA JUMP JUMPDEST STOP JUMPDEST PUSH2 0x2F9 PUSH2 0x834 JUMP JUMPDEST STOP JUMPDEST CALLVALUE DUP1 ISZERO PUSH2 0x306 JUMPI PUSH0 DUP1 REVERT JUMPDEST POP PUSH2 0x30F PUSH2 0xBD7 JUMP JUMPDEST PUSH1 0x40 MLOAD PUSH2 0x31C SWAP2 SWAP1 PUSH2 0x1B0A JUMP JUMPDEST PUSH1 0x40 MLOAD DUP1 SWAP2 SUB SWAP1 RETURN JUMPDEST CALLVALUE DUP1 ISZERO PUSH2 0x330 JUMPI PUSH0 DUP1 REVERT JUMPDEST POP PUSH2 0x339 PUSH2 0xBEA JUMP JUMPDEST STOP JUMPDEST CALLVALUE DUP1 ISZERO PUSH2 0x346 JUMPI PUSH0 DUP1 REVERT JUMPDEST POP PUSH2 0x34F PUSH2 0xEE6 JUMP JUMPDEST PUSH1 0x40 MLOAD PUSH2 0x35C SWAP2 SWAP1 PUSH2 0x1BAD JUMP JUMPDEST PUSH1 0x40 MLOAD DUP1 SWAP2 SUB SWAP1 RETURN JUMPDEST CALLVALUE DUP1 ISZERO PUSH2 0x370 JUMPI PUSH0 DUP1 REVERT JUMPDEST POP PUSH2 0x38B PUSH1 0x4 DUP1 CALLDATASIZE SUB DUP2 ADD SWAP1 PUSH2 0x386 SWAP2 SWAP1 PUSH2 0x1AC3 JUMP JUMPDEST PUSH2 0xF72 JUMP JUMPDEST PUSH1 0x40 MLOAD PUSH2 0x398 SWAP2 SWAP1 PUSH2 0x19E8 JUMP JUMPDEST PUSH1 0x40 MLOAD DUP1 SWAP2 SUB SWAP1 RETURN JUMPDEST PUSH2 0x3A9 PUSH2 0xF8F JUMP JUMPDEST STOP JUMPDEST CALLVALUE DUP1 ISZERO PUSH2 0x3B6 JUMPI PUSH0 DUP1 REVERT JUMPDEST POP PUSH2 0x3BF PUSH2 0x12A0 JUMP JUMPDEST STOP JUMPDEST CALLVALUE DUP1 ISZERO PUSH2 0x3CC JUMPI PUSH0 DUP1 REVERT JUMPDEST POP PUSH2 0x3D5 PUSH2 0x13F2 JUMP JUMPDEST PUSH1 0x40 MLOAD PUSH2 0x3E2 SWAP2 SWAP1 PUSH2 0x1BDC JUMP JUMPDEST PUSH1 0x40 MLOAD DUP1 SWAP2 SUB SWAP1 RETURN JUMPDEST CALLVALUE DUP1 ISZERO PUSH2 0x3F6 JUMPI PUSH0 DUP1 REVERT JUMPDEST POP PUSH2 0x3FF PUSH2 0x1415 JUMP JUMPDEST PUSH1 0x40 MLOAD PUSH2 0x40C SWAP2 SWAP1 PUSH2 0x19E8 JUMP JUMPDEST PUSH1 0x40 MLOAD DUP1 SWAP2 SUB SWAP1 RETURN JUMPDEST CALLVALUE DUP1 ISZERO PUSH2 0x420 JUMPI PUSH0 DUP1 REVERT JUMPDEST POP PUSH2 0x43B PUSH1 0x4 DUP1 CALLDATASIZE SUB DUP2 ADD SWAP1 PUSH2 0x436 SWAP2 SWAP1 PUSH2 0x1AC3 JUMP JUMPDEST PUSH2 0x1428 JUMP JUMPDEST PUSH1 0x40 MLOAD PUSH2 0x448 SWAP2 SWAP1 PUSH2 0x19E8 JUMP JUMPDEST PUSH1 0x40 MLOAD DUP1 SWAP2 SUB SWAP1 RETURN JUMPDEST PUSH2 0x46B PUSH1 0x4 DUP1 CALLDATASIZE SUB DUP2 ADD SWAP1 PUSH2 0x466 SWAP2 SWAP1 PUSH2 0x1C1F JUMP JUMPDEST PUSH2 0x1445 JUMP JUMPDEST STOP JUMPDEST PUSH2 0x475 PUSH2 0x15D2 JUMP JUMPDEST STOP JUMPDEST CALLVALUE DUP1 ISZERO PUSH2 0x482 JUMPI PUSH0 DUP1 REVERT JUMPDEST POP PUSH2 0x48B PUSH2 0x1799 JUMP JUMPDEST PUSH1 0x40 MLOAD PUSH2 0x498 SWAP2 SWAP1 PUSH2 0x1BAD JUMP JUMPDEST PUSH1 0x40 MLOAD DUP1 SWAP2 SUB SWAP1 RETURN JUMPDEST CALLVALUE DUP1 ISZERO PUSH2 0x4AC JUMPI PUSH0 DUP1 REVERT JUMPDEST POP PUSH2 0x4C7 PUSH1 0x4 DUP1 CALLDATASIZE SUB DUP2 ADD SWAP1 PUSH2 0x4C2 SWAP2 SWAP1 PUSH2 0x1C74 JUMP JUMPDEST PUSH2 0x1825 JUMP JUMPDEST STOP JUMPDEST CALLVALUE DUP1 ISZERO PUSH2 0x4D4 JUMPI PUSH0 DUP1 REVERT JUMPDEST POP PUSH2 0x4DD PUSH2 0x1926 JUMP JUMPDEST PUSH1 0x40 MLOAD PUSH2 0x4EA SWAP2 SWAP1 PUSH2 0x19E8 JUMP JUMPDEST PUSH1 0x40 MLOAD DUP1 SWAP2 SUB SWAP1 RETURN JUMPDEST CALLVALUE DUP1 ISZERO PUSH2 0x4FE JUMPI PUSH0 DUP1 REVERT JUMPDEST POP PUSH2 0x519 PUSH1 0x4 DUP1 CALLDATASIZE SUB DUP2 ADD SWAP1 PUSH2 0x514 SWAP2 SWAP1 PUSH2 0x1AC3 JUMP JUMPDEST PUSH2 0x1939 JUMP JUMPDEST PUSH1 0x40 MLOAD PUSH2 0x526 SWAP2 SWAP1 PUSH2 0x19E8 JUMP JUMPDEST PUSH1 0x40 MLOAD DUP1 SWAP2 SUB SWAP1 RETURN JUMPDEST PUSH1 0x4 PUSH0 SWAP1 SLOAD SWAP1 PUSH2 0x100 EXP SWAP1 DIV PUSH12 0xFFFFFFFFFFFFFFFFFFFFFFFF AND DUP2 JUMP JUMPDEST PUSH1 0x8 PUSH1 0x2 SWAP1 SLOAD SWAP1 PUSH2 0x100 EXP SWAP1 DIV PUSH6 0xFFFFFFFFFFFF AND DUP2 JUMP JUMPDEST PUSH1 0x8 DUP1 SLOAD SWAP1 PUSH2 0x100 EXP SWAP1 DIV PUSH1 0xFF AND DUP2 JUMP JUMPDEST PUSH1 0x2 PUSH1 0xE SWAP1 SLOAD SWAP1 PUSH2 0x100 EXP SWAP1 DIV PUSH12 0xFFFFFFFFFFFFFFFFFFFFFFFF AND DUP2 JUMP JUMPDEST PUSH0 DUP1 SLOAD SWAP1 PUSH2 0x100 EXP SWAP1 DIV PUSH20 0xFFFFFFFFFFFFFFFFFFFFFFFFFFFFFFFFFFFFFFFF AND PUSH20 0xFFFFFFFFFFFFFFFFFFFFFFFFFFFFFFFFFFFFFFFF AND CALLER PUSH20 0xFFFFFFFFFFFFFFFFFFFFFFFFFFFFFFFFFFFFFFFF AND EQ PUSH2 0x620 JUMPI PUSH1 0x40 MLOAD PUSH32 0x8C379A000000000000000000000000000000000000000000000000000000000 DUP2 MSTORE PUSH1 0x4 ADD PUSH2 0x617 SWAP1 PUSH2 0x1D0F JUMP JUMPDEST PUSH1 0x40 MLOAD DUP1 SWAP2 SUB SWAP1 REVERT JUMPDEST PUSH0 PUSH1 0x8 PUSH0 SWAP1 SLOAD SWAP1 PUSH2 0x100 EXP SWAP1 DIV PUSH2 0xFFFF AND PUSH2 0xFFFF AND EQ PUSH2 0x675 JUMPI PUSH1 0x40 MLOAD PUSH32 0x8C379A000000000000000000000000000000000000000000000000000000000 DUP2 MSTORE PUSH1 0x4 ADD PUSH2 0x66C SWAP1 PUSH2 0x1D9D JUMP JUMPDEST PUSH1 0x40 MLOAD DUP1 SWAP2 SUB SWAP1 REVERT JUMPDEST DUP1 PUSH4 0xFFFFFFFF AND PUSH1 0x2 DUP1 PUSH2 0x100 EXP DUP2 SLOAD DUP2 PUSH12 0xFFFFFFFFFFFFFFFFFFFFFFFF MUL NOT AND SWAP1 DUP4 PUSH12 0xFFFFFFFFFFFFFFFFFFFFFFFF AND MUL OR SWAP1 SSTORE POP POP JUMP JUMPDEST PUSH1 0x5 PUSH1 0x20 MSTORE DUP1 PUSH0 MSTORE PUSH1 0x40 PUSH0 KECCAK256 PUSH0 SWAP2 POP SLOAD SWAP1 PUSH2 0x100 EXP SWAP1 DIV PUSH1 0xFF AND DUP2 JUMP JUMPDEST PUSH1 0x8 PUSH0 SWAP1 SLOAD SWAP1 PUSH2 0x100 EXP SWAP1 DIV PUSH2 0xFFFF AND DUP2 JUMP JUMPDEST PUSH1 0x2 DUP1 SLOAD SWAP1 PUSH2 0x100 EXP SWAP1 DIV PUSH12 0xFFFFFFFFFFFFFFFFFFFFFFFF AND DUP2 JUMP JUMPDEST PUSH0 DUP1 SLOAD SWAP1 PUSH2 0x100 EXP SWAP1 DIV PUSH20 0xFFFFFFFFFFFFFFFFFFFFFFFFFFFFFFFFFFFFFFFF AND PUSH20 0xFFFFFFFFFFFFFFFFFFFFFFFFFFFFFFFFFFFFFFFF AND CALLER PUSH20 0xFFFFFFFFFFFFFFFFFFFFFFFFFFFFFFFFFFFFFFFF AND EQ PUSH2 0x787 JUMPI PUSH1 0x40 MLOAD PUSH32 0x8C379A000000000000000000000000000000000000000000000000000000000 DUP2 MSTORE PUSH1 0x4 ADD PUSH2 0x77E SWAP1 PUSH2 0x1D0F JUMP JUMPDEST PUSH1 0x40 MLOAD DUP1 SWAP2 SUB SWAP1 REVERT JUMPDEST PUSH0 PUSH1 0x8 PUSH0 SWAP1 SLOAD SWAP1 PUSH2 0x100 EXP SWAP1 DIV PUSH2 0xFFFF AND PUSH2 0xFFFF AND EQ PUSH2 0x7DC JUMPI PUSH1 0x40 MLOAD PUSH32 0x8C379A000000000000000000000000000000000000000000000000000000000 DUP2 MSTORE PUSH1 0x4 ADD PUSH2 0x7D3 SWAP1 PUSH2 0x1E2B JUMP JUMPDEST PUSH1 0x40 MLOAD DUP1 SWAP2 SUB SWAP1 REVERT JUMPDEST PUSH1 0x1 PUSH1 0x9 PUSH0 DUP4 PUSH20 0xFFFFFFFFFFFFFFFFFFFFFFFFFFFFFFFFFFFFFFFF AND PUSH20 0xFFFFFFFFFFFFFFFFFFFFFFFFFFFFFFFFFFFFFFFF AND DUP2 MSTORE PUSH1 0x20 ADD SWAP1 DUP2 MSTORE PUSH1 0x20 ADD PUSH0 KECCAK256 PUSH0 PUSH2 0x100 EXP DUP2 SLOAD DUP2 PUSH1 0xFF MUL NOT AND SWAP1 DUP4 ISZERO ISZERO MUL OR SWAP1 SSTORE POP POP JUMP JUMPDEST PUSH0 PUSH1 0x2 PUSH1 0xE SWAP1 SLOAD SWAP1 PUSH2 0x100 EXP SWAP1 DIV PUSH12 0xFFFFFFFFFFFFFFFFFFFFFFFF AND PUSH12 0xFFFFFFFFFFFFFFFFFFFFFFFF AND GT PUSH2 0x89E JUMPI PUSH1 0x40 MLOAD PUSH32 0x8C379A000000000000000000000000000000000000000000000000000000000 DUP2 MSTORE PUSH1 0x4 ADD PUSH2 0x895 SWAP1 PUSH2 0x1E93 JUMP JUMPDEST PUSH1 0x40 MLOAD DUP1 SWAP2 SUB SWAP1 REVERT JUMPDEST PUSH1 0x2 PUSH1 0xE SWAP1 SLOAD SWAP1 PUSH2 0x100 EXP SWAP1 DIV PUSH12 0xFFFFFFFFFFFFFFFFFFFFFFFF AND PUSH12 0xFFFFFFFFFFFFFFFFFFFFFFFF AND CALLVALUE LT ISZERO PUSH2 0x909 JUMPI PUSH1 0x40 MLOAD PUSH32 0x8C379A000000000000000000000000000000000000000000000000000000000 DUP2 MSTORE PUSH1 0x4 ADD PUSH2 0x900 SWAP1 PUSH2 0x1EFB JUMP JUMPDEST PUSH1 0x40 MLOAD DUP1 SWAP2 SUB SWAP1 REVERT JUMPDEST PUSH1 0x5 PUSH0 CALLER PUSH20 0xFFFFFFFFFFFFFFFFFFFFFFFFFFFFFFFFFFFFFFFF AND PUSH20 0xFFFFFFFFFFFFFFFFFFFFFFFFFFFFFFFFFFFFFFFF AND DUP2 MSTORE PUSH1 0x20 ADD SWAP1 DUP2 MSTORE PUSH1 0x20 ADD PUSH0 KECCAK256 PUSH0 SWAP1 SLOAD SWAP1 PUSH2 0x100 EXP SWAP1 DIV PUSH1 0xFF AND ISZERO PUSH2 0x993 JUMPI PUSH1 0x40 MLOAD PUSH32 0x8C379A000000000000000000000000000000000000000000000000000000000 DUP2 MSTORE PUSH1 0x4 ADD PUSH2 0x98A SWAP1 PUSH2 0x1F89 JUMP JUMPDEST PUSH1 0x40 MLOAD DUP1 SWAP2 SUB SWAP1 REVERT JUMPDEST PUSH1 0x2 PUSH0 SWAP1 SLOAD SWAP1 PUSH2 0x100 EXP SWAP1 DIV PUSH2 0xFFFF AND PUSH2 0xFFFF AND PUSH1 0x8 PUSH0 SWAP1 SLOAD SWAP1 PUSH2 0x100 EXP SWAP1 DIV PUSH2 0xFFFF AND PUSH2 0xFFFF AND LT PUSH2 0x9FB JUMPI PUSH1 0x40 MLOAD PUSH32 0x8C379A000000000000000000000000000000000000000000000000000000000 DUP2 MSTORE PUSH1 0x4 ADD PUSH2 0x9F2 SWAP1 PUSH2 0x1FF1 JUMP JUMPDEST PUSH1 0x40 MLOAD DUP1 SWAP2 SUB SWAP1 REVERT JUMPDEST PUSH0 PUSH1 0x8 PUSH1 0x2 SWAP1 SLOAD SWAP1 PUSH2 0x100 EXP SWAP1 DIV PUSH6 0xFFFFFFFFFFFF AND PUSH6 0xFFFFFFFFFFFF AND EQ PUSH2 0xA59 JUMPI PUSH1 0x40 MLOAD PUSH32 0x8C379A000000000000000000000000000000000000000000000000000000000 DUP2 MSTORE PUSH1 0x4 ADD PUSH2 0xA50 SWAP1 PUSH2 0x2059 JUMP JUMPDEST PUSH1 0x40 MLOAD DUP1 SWAP2 SUB SWAP1 REVERT JUMPDEST PUSH1 0x8 PUSH1 0x9 SWAP1 SLOAD SWAP1 PUSH2 0x100 EXP SWAP1 DIV PUSH1 0xFF AND ISZERO PUSH2 0xAC1 JUMPI PUSH1 0x9 PUSH0 CALLER PUSH20 0xFFFFFFFFFFFFFFFFFFFFFFFFFFFFFFFFFFFFFFFF AND PUSH20 0xFFFFFFFFFFFFFFFFFFFFFFFFFFFFFFFFFFFFFFFF AND DUP2 MSTORE PUSH1 0x20 ADD SWAP1 DUP2 MSTORE PUSH1 0x20 ADD PUSH0 KECCAK256 PUSH0 SWAP1 SLOAD SWAP1 PUSH2 0x100 EXP SWAP1 DIV PUSH1 0xFF AND PUSH2 0xAC0 JUMPI PUSH0 DUP1 REVERT JUMPDEST JUMPDEST PUSH0 PUSH1 0x2 PUSH1 0xE SWAP1 SLOAD SWAP1 PUSH2 0x100 EXP SWAP1 DIV PUSH12 0xFFFFFFFFFFFFFFFFFFFFFFFF AND PUSH12 0xFFFFFFFFFFFFFFFFFFFFFFFF AND CALLVALUE PUSH2 0xAF6 SWAP2 SWAP1 PUSH2 0x20AD JUMP JUMPDEST SWAP1 POP PUSH1 0x1 PUSH1 0x5 PUSH0 CALLER PUSH20 0xFFFFFFFFFFFFFFFFFFFFFFFFFFFFFFFFFFFFFFFF AND PUSH20 0xFFFFFFFFFFFFFFFFFFFFFFFFFFFFFFFFFFFFFFFF AND DUP2 MSTORE PUSH1 0x20 ADD SWAP1 DUP2 MSTORE PUSH1 0x20 ADD PUSH0 KECCAK256 PUSH0 PUSH2 0x100 EXP DUP2 SLOAD DUP2 PUSH1 0xFF MUL NOT AND SWAP1 DUP4 ISZERO ISZERO MUL OR SWAP1 SSTORE POP PUSH1 0x8 PUSH0 DUP2 DUP2 SWAP1 SLOAD SWAP1 PUSH2 0x100 EXP SWAP1 DIV PUSH2 0xFFFF AND DUP1 SWAP3 SWAP2 SWAP1 PUSH2 0xB6C SWAP1 PUSH2 0x20E0 JUMP JUMPDEST SWAP2 SWAP1 PUSH2 0x100 EXP DUP2 SLOAD DUP2 PUSH2 0xFFFF MUL NOT AND SWAP1 DUP4 PUSH2 0xFFFF AND MUL OR SWAP1 SSTORE POP POP PUSH0 DUP2 GT ISZERO PUSH2 0xBD4 JUMPI CALLER PUSH20 0xFFFFFFFFFFFFFFFFFFFFFFFFFFFFFFFFFFFFFFFF AND PUSH2 0x8FC DUP3 SWAP1 DUP2 ISZERO MUL SWAP1 PUSH1 0x40 MLOAD PUSH0 PUSH1 0x40 MLOAD DUP1 DUP4 SUB DUP2 DUP6 DUP9 DUP9 CALL SWAP4 POP POP POP POP ISZERO DUP1 ISZERO PUSH2 0xBD2 JUMPI RETURNDATASIZE PUSH0 DUP1 RETURNDATACOPY RETURNDATASIZE PUSH0 REVERT JUMPDEST POP JUMPDEST POP JUMP JUMPDEST PUSH1 0x2 PUSH0 SWAP1 SLOAD SWAP1 PUSH2 0x100 EXP SWAP1 DIV PUSH2 0xFFFF AND DUP2 JUMP JUMPDEST PUSH1 0x5 PUSH0 CALLER PUSH20 0xFFFFFFFFFFFFFFFFFFFFFFFFFFFFFFFFFFFFFFFF AND PUSH20 0xFFFFFFFFFFFFFFFFFFFFFFFFFFFFFFFFFFFFFFFF AND DUP2 MSTORE PUSH1 0x20 ADD SWAP1 DUP2 MSTORE PUSH1 0x20 ADD PUSH0 KECCAK256 PUSH0 SWAP1 SLOAD SWAP1 PUSH2 0x100 EXP SWAP1 DIV PUSH1 0xFF AND PUSH2 0xC73 JUMPI PUSH1 0x40 MLOAD PUSH32 0x8C379A000000000000000000000000000000000000000000000000000000000 DUP2 MSTORE PUSH1 0x4 ADD PUSH2 0xC6A SWAP1 PUSH2 0x2179 JUMP JUMPDEST PUSH1 0x40 MLOAD DUP1 SWAP2 SUB SWAP1 REVERT JUMPDEST PUSH1 0xA PUSH0 SWAP1 SLOAD SWAP1 PUSH2 0x100 EXP SWAP1 DIV PUSH1 0xFF AND ISZERO PUSH2 0xCC2 JUMPI PUSH1 0x40 MLOAD PUSH32 0x8C379A000000000000000000000000000000000000000000000000000000000 DUP2 MSTORE PUSH1 0x4 ADD PUSH2 0xCB9 SWAP1 PUSH2 0x21E1 JUMP JUMPDEST PUSH1 0x40 MLOAD DUP1 SWAP2 SUB SWAP1 REVERT JUMPDEST PUSH1 0x1 PUSH1 0xA PUSH0 PUSH2 0x100 EXP DUP2 SLOAD DUP2 PUSH1 0xFF MUL NOT AND SWAP1 DUP4 ISZERO ISZERO MUL OR SWAP1 SSTORE POP PUSH1 0x8 DUP1 SLOAD SWAP1 PUSH2 0x100 EXP SWAP1 DIV PUSH1 0xFF AND PUSH2 0xD29 JUMPI PUSH1 0x40 MLOAD PUSH32 0x8C379A000000000000000000000000000000000000000000000000000000000 DUP2 MSTORE PUSH1 0x4 ADD PUSH2 0xD20 SWAP1 PUSH2 0x226F JUMP JUMPDEST PUSH1 0x40 MLOAD DUP1 SWAP2 SUB SWAP1 REVERT JUMPDEST PUSH0 PUSH1 0x8 PUSH1 0x2 SWAP1 SLOAD SWAP1 PUSH2 0x100 EXP SWAP1 DIV PUSH6 0xFFFFFFFFFFFF AND PUSH6 0xFFFFFFFFFFFF AND GT PUSH2 0xD87 JUMPI PUSH1 0x40 MLOAD PUSH32 0x8C379A000000000000000000000000000000000000000000000000000000000 DUP2 MSTORE PUSH1 0x4 ADD PUSH2 0xD7E SWAP1 PUSH2 0x22FD JUMP JUMPDEST PUSH1 0x40 MLOAD DUP1 SWAP2 SUB SWAP1 REVERT JUMPDEST PUSH1 0x6 PUSH0 CALLER PUSH20 0xFFFFFFFFFFFFFFFFFFFFFFFFFFFFFFFFFFFFFFFF AND PUSH20 0xFFFFFFFFFFFFFFFFFFFFFFFFFFFFFFFFFFFFFFFF AND DUP2 MSTORE PUSH1 0x20 ADD SWAP1 DUP2 MSTORE PUSH1 0x20 ADD PUSH0 KECCAK256 PUSH0 SWAP1 SLOAD SWAP1 PUSH2 0x100 EXP SWAP1 DIV PUSH1 0xFF AND ISZERO PUSH2 0xE11 JUMPI PUSH1 0x40 MLOAD PUSH32 0x8C379A000000000000000000000000000000000000000000000000000000000 DUP2 MSTORE PUSH1 0x4 ADD PUSH2 0xE08 SWAP1 PUSH2 0x2365 JUMP JUMPDEST PUSH1 0x40 MLOAD DUP1 SWAP2 SUB SWAP1 REVERT JUMPDEST PUSH1 0x1 PUSH1 0x6 PUSH0 CALLER PUSH20 0xFFFFFFFFFFFFFFFFFFFFFFFFFFFFFFFFFFFFFFFF AND PUSH20 0xFFFFFFFFFFFFFFFFFFFFFFFFFFFFFFFFFFFFFFFF AND DUP2 MSTORE PUSH1 0x20 ADD SWAP1 DUP2 MSTORE PUSH1 0x20 ADD PUSH0 KECCAK256 PUSH0 PUSH2 0x100 EXP DUP2 SLOAD DUP2 PUSH1 0xFF MUL NOT AND SWAP1 DUP4 ISZERO ISZERO MUL OR SWAP1 SSTORE POP PUSH0 PUSH1 0x8 PUSH1 0x2 SWAP1 SLOAD SWAP1 PUSH2 0x100 EXP SWAP1 DIV PUSH6 0xFFFFFFFFFFFF AND PUSH6 0xFFFFFFFFFFFF AND SWAP1 POP CALLER PUSH20 0xFFFFFFFFFFFFFFFFFFFFFFFFFFFFFFFFFFFFFFFF AND PUSH2 0x8FC DUP3 SWAP1 DUP2 ISZERO MUL SWAP1 PUSH1 0x40 MLOAD PUSH0 PUSH1 0x40 MLOAD DUP1 DUP4 SUB DUP2 DUP6 DUP9 DUP9 CALL SWAP4 POP POP POP POP ISZERO DUP1 ISZERO PUSH2 0xEC9 JUMPI RETURNDATASIZE PUSH0 DUP1 RETURNDATACOPY RETURNDATASIZE PUSH0 REVERT JUMPDEST POP POP PUSH0 PUSH1 0xA PUSH0 PUSH2 0x100 EXP DUP2 SLOAD DUP2 PUSH1 0xFF MUL NOT AND SWAP1 DUP4 ISZERO ISZERO MUL OR SWAP1 SSTORE POP JUMP JUMPDEST PUSH1 0x3 DUP1 SLOAD PUSH2 0xEF3 SWAP1 PUSH2 0x23B0 JUMP JUMPDEST DUP1 PUSH1 0x1F ADD PUSH1 0x20 DUP1 SWAP2 DIV MUL PUSH1 0x20 ADD PUSH1 0x40 MLOAD SWAP1 DUP2 ADD PUSH1 0x40 MSTORE DUP1 SWAP3 SWAP2 SWAP1 DUP2 DUP2 MSTORE PUSH1 0x20 ADD DUP3 DUP1 SLOAD PUSH2 0xF1F SWAP1 PUSH2 0x23B0 JUMP JUMPDEST DUP1 ISZERO PUSH2 0xF6A JUMPI DUP1 PUSH1 0x1F LT PUSH2 0xF41 JUMPI PUSH2 0x100 DUP1 DUP4 SLOAD DIV MUL DUP4 MSTORE SWAP2 PUSH1 0x20 ADD SWAP2 PUSH2 0xF6A JUMP JUMPDEST DUP3 ADD SWAP2 SWAP1 PUSH0 MSTORE PUSH1 0x20 PUSH0 KECCAK256 SWAP1 JUMPDEST DUP2 SLOAD DUP2 MSTORE SWAP1 PUSH1 0x1 ADD SWAP1 PUSH1 0x20 ADD DUP1 DUP4 GT PUSH2 0xF4D JUMPI DUP3 SWAP1 SUB PUSH1 0x1F AND DUP3 ADD SWAP2 JUMPDEST POP POP POP POP POP DUP2 JUMP JUMPDEST PUSH1 0x6 PUSH1 0x20 MSTORE DUP1 PUSH0 MSTORE PUSH1 0x40 PUSH0 KECCAK256 PUSH0 SWAP2 POP SLOAD SWAP1 PUSH2 0x100 EXP SWAP1 DIV PUSH1 0xFF AND DUP2 JUMP JUMPDEST PUSH1 0x5 PUSH0 CALLER PUSH20 0xFFFFFFFFFFFFFFFFFFFFFFFFFFFFFFFFFFFFFFFF AND PUSH20 0xFFFFFFFFFFFFFFFFFFFFFFFFFFFFFFFFFFFFFFFF AND DUP2 MSTORE PUSH1 0x20 ADD SWAP1 DUP2 MSTORE PUSH1 0x20 ADD PUSH0 KECCAK256 PUSH0 SWAP1 SLOAD SWAP1 PUSH2 0x100 EXP SWAP1 DIV PUSH1 0xFF AND PUSH2 0x1018 JUMPI PUSH1 0x40 MLOAD PUSH32 0x8C379A000000000000000000000000000000000000000000000000000000000 DUP2 MSTORE PUSH1 0x4 ADD PUSH2 0x100F SWAP1 PUSH2 0x2179 JUMP JUMPDEST PUSH1 0x40 MLOAD DUP1 SWAP2 SUB SWAP1 REVERT JUMPDEST PUSH1 0xA PUSH0 SWAP1 SLOAD SWAP1 PUSH2 0x100 EXP SWAP1 DIV PUSH1 0xFF AND ISZERO PUSH2 0x1067 JUMPI PUSH1 0x40 MLOAD PUSH32 0x8C379A000000000000000000000000000000000000000000000000000000000 DUP2 MSTORE PUSH1 0x4 ADD PUSH2 0x105E SWAP1 PUSH2 0x21E1 JUMP JUMPDEST PUSH1 0x40 MLOAD DUP1 SWAP2 SUB SWAP1 REVERT JUMPDEST PUSH1 0x1 PUSH1 0xA PUSH0 PUSH2 0x100 EXP DUP2 SLOAD DUP2 PUSH1 0xFF MUL NOT AND SWAP1 DUP4 ISZERO ISZERO MUL OR SWAP1 SSTORE POP PUSH1 0xA PUSH1 0x1 SWAP1 SLOAD SWAP1 PUSH2 0x100 EXP SWAP1 DIV PUSH1 0xFF AND PUSH2 0x10D0 JUMPI PUSH1 0x40 MLOAD PUSH32 0x8C379A000000000000000000000000000000000000000000000000000000000 DUP2 MSTORE PUSH1 0x4 ADD PUSH2 0x10C7 SWAP1 PUSH2 0x2450 JUMP JUMPDEST PUSH1 0x40 MLOAD DUP1 SWAP2 SUB SWAP1 REVERT JUMPDEST PUSH1 0x7 PUSH0 CALLER PUSH20 0xFFFFFFFFFFFFFFFFFFFFFFFFFFFFFFFFFFFFFFFF AND PUSH20 0xFFFFFFFFFFFFFFFFFFFFFFFFFFFFFFFFFFFFFFFF AND DUP2 MSTORE PUSH1 0x20 ADD SWAP1 DUP2 MSTORE PUSH1 0x20 ADD PUSH0 KECCAK256 PUSH0 SWAP1 SLOAD SWAP1 PUSH2 0x100 EXP SWAP1 DIV PUSH1 0xFF AND ISZERO PUSH2 0x115A JUMPI PUSH1 0x40 MLOAD PUSH32 0x8C379A000000000000000000000000000000000000000000000000000000000 DUP2 MSTORE PUSH1 0x4 ADD PUSH2 0x1151 SWAP1 PUSH2 0x24DE JUMP JUMPDEST PUSH1 0x40 MLOAD DUP1 SWAP2 SUB SWAP1 REVERT JUMPDEST PUSH1 0x1 PUSH1 0x7 PUSH0 CALLER PUSH20 0xFFFFFFFFFFFFFFFFFFFFFFFFFFFFFFFFFFFFFFFF AND PUSH20 0xFFFFFFFFFFFFFFFFFFFFFFFFFFFFFFFFFFFFFFFF AND DUP2 MSTORE PUSH1 0x20 ADD SWAP1 DUP2 MSTORE PUSH1 0x20 ADD PUSH0 KECCAK256 PUSH0 PUSH2 0x100 EXP DUP2 SLOAD DUP2 PUSH1 0xFF MUL NOT AND SWAP1 DUP4 ISZERO ISZERO MUL OR SWAP1 SSTORE POP PUSH0 PUSH1 0x2 PUSH1 0xE SWAP1 SLOAD SWAP1 PUSH2 0x100 EXP SWAP1 DIV PUSH12 0xFFFFFFFFFFFFFFFFFFFFFFFF AND PUSH12 0xFFFFFFFFFFFFFFFFFFFFFFFF AND SWAP1 POP PUSH0 CALLER PUSH20 0xFFFFFFFFFFFFFFFFFFFFFFFFFFFFFFFFFFFFFFFF AND DUP3 PUSH1 0x40 MLOAD PUSH2 0x1200 SWAP1 PUSH2 0x2529 JUMP JUMPDEST PUSH0 PUSH1 0x40 MLOAD DUP1 DUP4 SUB DUP2 DUP6 DUP8 GAS CALL SWAP3 POP POP POP RETURNDATASIZE DUP1 PUSH0 DUP2 EQ PUSH2 0x123A JUMPI PUSH1 0x40 MLOAD SWAP2 POP PUSH1 0x1F NOT PUSH1 0x3F RETURNDATASIZE ADD AND DUP3 ADD PUSH1 0x40 MSTORE RETURNDATASIZE DUP3 MSTORE RETURNDATASIZE PUSH0 PUSH1 0x20 DUP5 ADD RETURNDATACOPY PUSH2 0x123F JUMP JUMPDEST PUSH1 0x60 SWAP2 POP JUMPDEST POP POP SWAP1 POP DUP1 PUSH2 0x1283 JUMPI PUSH1 0x40 MLOAD PUSH32 0x8C379A000000000000000000000000000000000000000000000000000000000 DUP2 MSTORE PUSH1 0x4 ADD PUSH2 0x127A SWAP1 PUSH2 0x25AD JUMP JUMPDEST PUSH1 0x40 MLOAD DUP1 SWAP2 SUB SWAP1 REVERT JUMPDEST POP POP PUSH0 PUSH1 0xA PUSH0 PUSH2 0x100 EXP DUP2 SLOAD DUP2 PUSH1 0xFF MUL NOT AND SWAP1 DUP4 ISZERO ISZERO MUL OR SWAP1 SSTORE POP JUMP JUMPDEST PUSH0 DUP1 SLOAD SWAP1 PUSH2 0x100 EXP SWAP1 DIV PUSH20 0xFFFFFFFFFFFFFFFFFFFFFFFFFFFFFFFFFFFFFFFF AND PUSH20 0xFFFFFFFFFFFFFFFFFFFFFFFFFFFFFFFFFFFFFFFF AND CALLER PUSH20 0xFFFFFFFFFFFFFFFFFFFFFFFFFFFFFFFFFFFFFFFF AND EQ PUSH2 0x132D JUMPI PUSH1 0x40 MLOAD PUSH32 0x8C379A000000000000000000000000000000000000000000000000000000000 DUP2 MSTORE PUSH1 0x4 ADD PUSH2 0x1324 SWAP1 PUSH2 0x1D0F JUMP JUMPDEST PUSH1 0x40 MLOAD DUP1 SWAP2 SUB SWAP1 REVERT JUMPDEST PUSH0 ISZERO ISZERO PUSH1 0x8 DUP1 SLOAD SWAP1 PUSH2 0x100 EXP SWAP1 DIV PUSH1 0xFF AND ISZERO ISZERO EQ PUSH2 0x1380 JUMPI PUSH1 0x40 MLOAD PUSH32 0x8C379A000000000000000000000000000000000000000000000000000000000 DUP2 MSTORE PUSH1 0x4 ADD PUSH2 0x1377 SWAP1 PUSH2 0x263B JUMP JUMPDEST PUSH1 0x40 MLOAD DUP1 SWAP2 SUB SWAP1 REVERT JUMPDEST PUSH0 ISZERO ISZERO PUSH1 0xA PUSH1 0x1 SWAP1 SLOAD SWAP1 PUSH2 0x100 EXP SWAP1 DIV PUSH1 0xFF AND ISZERO ISZERO EQ PUSH2 0x13D5 JUMPI PUSH1 0x40 MLOAD PUSH32 0x8C379A000000000000000000000000000000000000000000000000000000000 DUP2 MSTORE PUSH1 0x4 ADD PUSH2 0x13CC SWAP1 PUSH2 0x26A3 JUMP JUMPDEST PUSH1 0x40 MLOAD DUP1 SWAP2 SUB SWAP1 REVERT JUMPDEST PUSH1 0x1 PUSH1 0xA PUSH1 0x1 PUSH2 0x100 EXP DUP2 SLOAD DUP2 PUSH1 0xFF MUL NOT AND SWAP1 DUP4 ISZERO ISZERO MUL OR SWAP1 SSTORE POP JUMP JUMPDEST PUSH0 DUP1 SLOAD SWAP1 PUSH2 0x100 EXP SWAP1 DIV PUSH20 0xFFFFFFFFFFFFFFFFFFFFFFFFFFFFFFFFFFFFFFFF AND DUP2 JUMP JUMPDEST PUSH1 0x8 PUSH1 0x9 SWAP1 SLOAD SWAP1 PUSH2 0x100 EXP SWAP1 DIV PUSH1 0xFF AND DUP2 JUMP JUMPDEST PUSH1 0x7 PUSH1 0x20 MSTORE DUP1 PUSH0 MSTORE PUSH1 0x40 PUSH0 KECCAK256 PUSH0 SWAP2 POP SLOAD SWAP1 PUSH2 0x100 EXP SWAP1 DIV PUSH1 0xFF AND DUP2 JUMP JUMPDEST PUSH0 DUP1 SLOAD SWAP1 PUSH2 0x100 EXP SWAP1 DIV PUSH20 0xFFFFFFFFFFFFFFFFFFFFFFFFFFFFFFFFFFFFFFFF AND PUSH20 0xFFFFFFFFFFFFFFFFFFFFFFFFFFFFFFFFFFFFFFFF AND CALLER PUSH20 0xFFFFFFFFFFFFFFFFFFFFFFFFFFFFFFFFFFFFFFFF AND EQ PUSH2 0x14D2 JUMPI PUSH1 0x40 MLOAD PUSH32 0x8C379A000000000000000000000000000000000000000000000000000000000 DUP2 MSTORE PUSH1 0x4 ADD PUSH2 0x14C9 SWAP1 PUSH2 0x1D0F JUMP JUMPDEST PUSH1 0x40 MLOAD DUP1 SWAP2 SUB SWAP1 REVERT JUMPDEST PUSH0 CALLVALUE GT PUSH2 0x1514 JUMPI PUSH1 0x40 MLOAD PUSH32 0x8C379A000000000000000000000000000000000000000000000000000000000 DUP2 MSTORE PUSH1 0x4 ADD PUSH2 0x150B SWAP1 PUSH2 0x2731 JUMP JUMPDEST PUSH1 0x40 MLOAD DUP1 SWAP2 SUB SWAP1 REVERT JUMPDEST PUSH0 PUSH1 0x8 PUSH1 0x2 SWAP1 SLOAD SWAP1 PUSH2 0x100 EXP SWAP1 DIV PUSH6 0xFFFFFFFFFFFF AND PUSH6 0xFFFFFFFFFFFF AND EQ PUSH2 0x1572 JUMPI PUSH1 0x40 MLOAD PUSH32 0x8C379A000000000000000000000000000000000000000000000000000000000 DUP2 MSTORE PUSH1 0x4 ADD PUSH2 0x1569 SWAP1 PUSH2 0x2799 JUMP JUMPDEST PUSH1 0x40 MLOAD DUP1 SWAP2 SUB SWAP1 REVERT JUMPDEST PUSH1 0x8 PUSH0 SWAP1 SLOAD SWAP1 PUSH2 0x100 EXP SWAP1 DIV PUSH2 0xFFFF AND PUSH2 0xFFFF AND DUP2 PUSH2 0x1591 SWAP2 SWAP1 PUSH2 0x27E4 JUMP JUMPDEST PUSH1 0x8 PUSH1 0x2 PUSH2 0x100 EXP DUP2 SLOAD DUP2 PUSH6 0xFFFFFFFFFFFF MUL NOT AND SWAP1 DUP4 PUSH6 0xFFFFFFFFFFFF AND MUL OR SWAP1 SSTORE POP PUSH1 0x1 PUSH1 0x8 DUP1 PUSH2 0x100 EXP DUP2 SLOAD DUP2 PUSH1 0xFF MUL NOT AND SWAP1 DUP4 ISZERO ISZERO MUL OR SWAP1 SSTORE POP POP JUMP JUMPDEST PUSH1 0xA PUSH0 SWAP1 SLOAD SWAP1 PUSH2 0x100 EXP SWAP1 DIV PUSH1 0xFF AND ISZERO PUSH2 0x1621 JUMPI PUSH1 0x40 MLOAD PUSH32 0x8C379A000000000000000000000000000000000000000000000000000000000 DUP2 MSTORE PUSH1 0x4 ADD PUSH2 0x1618 SWAP1 PUSH2 0x21E1 JUMP JUMPDEST PUSH1 0x40 MLOAD DUP1 SWAP2 SUB SWAP1 REVERT JUMPDEST PUSH1 0x1 PUSH1 0xA PUSH0 PUSH2 0x100 EXP DUP2 SLOAD DUP2 PUSH1 0xFF MUL NOT AND SWAP1 DUP4 ISZERO ISZERO MUL OR SWAP1 SSTORE POP PUSH0 DUP1 SLOAD SWAP1 PUSH2 0x100 EXP SWAP1 DIV PUSH20 0xFFFFFFFFFFFFFFFFFFFFFFFFFFFFFFFFFFFFFFFF AND PUSH20 0xFFFFFFFFFFFFFFFFFFFFFFFFFFFFFFFFFFFFFFFF AND CALLER PUSH20 0xFFFFFFFFFFFFFFFFFFFFFFFFFFFFFFFFFFFFFFFF AND EQ PUSH2 0x16C8 JUMPI PUSH1 0x40 MLOAD PUSH32 0x8C379A000000000000000000000000000000000000000000000000000000000 DUP2 MSTORE PUSH1 0x4 ADD PUSH2 0x16BF SWAP1 PUSH2 0x1D0F JUMP JUMPDEST PUSH1 0x40 MLOAD DUP1 SWAP2 SUB SWAP1 REVERT JUMPDEST PUSH1 0x8 DUP1 SLOAD SWAP1 PUSH2 0x100 EXP SWAP1 DIV PUSH1 0xFF AND ISZERO PUSH2 0x1716 JUMPI PUSH1 0x40 MLOAD PUSH32 0x8C379A000000000000000000000000000000000000000000000000000000000 DUP2 MSTORE PUSH1 0x4 ADD PUSH2 0x170D SWAP1 PUSH2 0x2884 JUMP JUMPDEST PUSH1 0x40 MLOAD DUP1 SWAP2 SUB SWAP1 REVERT JUMPDEST PUSH0 SELFBALANCE SWAP1 POP PUSH0 DUP1 SLOAD SWAP1 PUSH2 0x100 EXP SWAP1 DIV PUSH20 0xFFFFFFFFFFFFFFFFFFFFFFFFFFFFFFFFFFFFFFFF AND PUSH20 0xFFFFFFFFFFFFFFFFFFFFFFFFFFFFFFFFFFFFFFFF AND PUSH2 0x8FC DUP3 SWAP1 DUP2 ISZERO MUL SWAP1 PUSH1 0x40 MLOAD PUSH0 PUSH1 0x40 MLOAD DUP1 DUP4 SUB DUP2 DUP6 DUP9 DUP9 CALL SWAP4 POP POP POP POP ISZERO DUP1 ISZERO PUSH2 0x177C JUMPI RETURNDATASIZE PUSH0 DUP1 RETURNDATACOPY RETURNDATASIZE PUSH0 REVERT JUMPDEST POP POP PUSH0 PUSH1 0xA PUSH0 PUSH2 0x100 EXP DUP2 SLOAD DUP2 PUSH1 0xFF MUL NOT AND SWAP1 DUP4 ISZERO ISZERO MUL OR SWAP1 SSTORE POP JUMP JUMPDEST PUSH1 0x1 DUP1 SLOAD PUSH2 0x17A6 SWAP1 PUSH2 0x23B0 JUMP JUMPDEST DUP1 PUSH1 0x1F ADD PUSH1 0x20 DUP1 SWAP2 DIV MUL PUSH1 0x20 ADD PUSH1 0x40 MLOAD SWAP1 DUP2 ADD PUSH1 0x40 MSTORE DUP1 SWAP3 SWAP2 SWAP1 DUP2 DUP2 MSTORE PUSH1 0x20 ADD DUP3 DUP1 SLOAD PUSH2 0x17D2 SWAP1 PUSH2 0x23B0 JUMP JUMPDEST DUP1 ISZERO PUSH2 0x181D JUMPI DUP1 PUSH1 0x1F LT PUSH2 0x17F4 JUMPI PUSH2 0x100 DUP1 DUP4 SLOAD DIV MUL DUP4 MSTORE SWAP2 PUSH1 0x20 ADD SWAP2 PUSH2 0x181D JUMP JUMPDEST DUP3 ADD SWAP2 SWAP1 PUSH0 MSTORE PUSH1 0x20 PUSH0 KECCAK256 SWAP1 JUMPDEST DUP2 SLOAD DUP2 MSTORE SWAP1 PUSH1 0x1 ADD SWAP1 PUSH1 0x20 ADD DUP1 DUP4 GT PUSH2 0x1800 JUMPI DUP3 SWAP1 SUB PUSH1 0x1F AND DUP3 ADD SWAP2 JUMPDEST POP POP POP POP POP DUP2 JUMP JUMPDEST PUSH0 DUP1 SLOAD SWAP1 PUSH2 0x100 EXP SWAP1 DIV PUSH20 0xFFFFFFFFFFFFFFFFFFFFFFFFFFFFFFFFFFFFFFFF AND PUSH20 0xFFFFFFFFFFFFFFFFFFFFFFFFFFFFFFFFFFFFFFFF AND CALLER PUSH20 0xFFFFFFFFFFFFFFFFFFFFFFFFFFFFFFFFFFFFFFFF AND EQ PUSH2 0x18B2 JUMPI PUSH1 0x40 MLOAD PUSH32 0x8C379A000000000000000000000000000000000000000000000000000000000 DUP2 MSTORE PUSH1 0x4 ADD PUSH2 0x18A9 SWAP1 PUSH2 0x1D0F JUMP JUMPDEST PUSH1 0x40 MLOAD DUP1 SWAP2 SUB SWAP1 REVERT JUMPDEST PUSH0 PUSH1 0x8 PUSH0 SWAP1 SLOAD SWAP1 PUSH2 0x100 EXP SWAP1 DIV PUSH2 0xFFFF AND PUSH2 0xFFFF AND EQ PUSH2 0x1907 JUMPI PUSH1 0x40 MLOAD PUSH32 0x8C379A000000000000000000000000000000000000000000000000000000000 DUP2 MSTORE PUSH1 0x4 ADD PUSH2 0x18FE SWAP1 PUSH2 0x2938 JUMP JUMPDEST PUSH1 0x40 MLOAD DUP1 SWAP2 SUB SWAP1 REVERT JUMPDEST DUP1 PUSH1 0x2 PUSH0 PUSH2 0x100 EXP DUP2 SLOAD DUP2 PUSH2 0xFFFF MUL NOT AND SWAP1 DUP4 PUSH2 0xFFFF AND MUL OR SWAP1 SSTORE POP POP JUMP JUMPDEST PUSH1 0xA PUSH1 0x1 SWAP1 SLOAD SWAP1 PUSH2 0x100 EXP SWAP1 DIV PUSH1 0xFF AND DUP2 JUMP JUMPDEST PUSH1 0x9 PUSH1 0x20 MSTORE DUP1 PUSH0 MSTORE PUSH1 0x40 PUSH0 KECCAK256 PUSH0 SWAP2 POP SLOAD SWAP1 PUSH2 0x100 EXP SWAP1 DIV PUSH1 0xFF AND DUP2 JUMP JUMPDEST PUSH0 PUSH12 0xFFFFFFFFFFFFFFFFFFFFFFFF DUP3 AND SWAP1 POP SWAP2 SWAP1 POP JUMP JUMPDEST PUSH2 0x1976 DUP2 PUSH2 0x1956 JUMP JUMPDEST DUP3 MSTORE POP POP JUMP JUMPDEST PUSH0 PUSH1 0x20 DUP3 ADD SWAP1 POP PUSH2 0x198F PUSH0 DUP4 ADD DUP5 PUSH2 0x196D JUMP JUMPDEST SWAP3 SWAP2 POP POP JUMP JUMPDEST PUSH0 PUSH6 0xFFFFFFFFFFFF DUP3 AND SWAP1 POP SWAP2 SWAP1 POP JUMP JUMPDEST PUSH2 0x19AF DUP2 PUSH2 0x1995 JUMP JUMPDEST DUP3 MSTORE POP POP JUMP JUMPDEST PUSH0 PUSH1 0x20 DUP3 ADD SWAP1 POP PUSH2 0x19C8 PUSH0 DUP4 ADD DUP5 PUSH2 0x19A6 JUMP JUMPDEST SWAP3 SWAP2 POP POP JUMP JUMPDEST PUSH0 DUP2 ISZERO ISZERO SWAP1 POP SWAP2 SWAP1 POP JUMP JUMPDEST PUSH2 0x19E2 DUP2 PUSH2 0x19CE JUMP JUMPDEST DUP3 MSTORE POP POP JUMP JUMPDEST PUSH0 PUSH1 0x20 DUP3 ADD SWAP1 POP PUSH2 0x19FB PUSH0 DUP4 ADD DUP5 PUSH2 0x19D9 JUMP JUMPDEST SWAP3 SWAP2 POP POP JUMP JUMPDEST PUSH0 DUP1 REVERT JUMPDEST PUSH0 PUSH4 0xFFFFFFFF DUP3 AND SWAP1 POP SWAP2 SWAP1 POP JUMP JUMPDEST PUSH2 0x1A1D DUP2 PUSH2 0x1A05 JUMP JUMPDEST DUP2 EQ PUSH2 0x1A27 JUMPI PUSH0 DUP1 REVERT JUMPDEST POP JUMP JUMPDEST PUSH0 DUP2 CALLDATALOAD SWAP1 POP PUSH2 0x1A38 DUP2 PUSH2 0x1A14 JUMP JUMPDEST SWAP3 SWAP2 POP POP JUMP JUMPDEST PUSH0 PUSH1 0x20 DUP3 DUP5 SUB SLT ISZERO PUSH2 0x1A53 JUMPI PUSH2 0x1A52 PUSH2 0x1A01 JUMP JUMPDEST JUMPDEST PUSH0 PUSH2 0x1A60 DUP5 DUP3 DUP6 ADD PUSH2 0x1A2A JUMP JUMPDEST SWAP2 POP POP SWAP3 SWAP2 POP POP JUMP JUMPDEST PUSH0 PUSH20 0xFFFFFFFFFFFFFFFFFFFFFFFFFFFFFFFFFFFFFFFF DUP3 AND SWAP1 POP SWAP2 SWAP1 POP JUMP JUMPDEST PUSH0 PUSH2 0x1A92 DUP3 PUSH2 0x1A69 JUMP JUMPDEST SWAP1 POP SWAP2 SWAP1 POP JUMP JUMPDEST PUSH2 0x1AA2 DUP2 PUSH2 0x1A88 JUMP JUMPDEST DUP2 EQ PUSH2 0x1AAC JUMPI PUSH0 DUP1 REVERT JUMPDEST POP JUMP JUMPDEST PUSH0 DUP2 CALLDATALOAD SWAP1 POP PUSH2 0x1ABD DUP2 PUSH2 0x1A99 JUMP JUMPDEST SWAP3 SWAP2 POP POP JUMP JUMPDEST PUSH0 PUSH1 0x20 DUP3 DUP5 SUB SLT ISZERO PUSH2 0x1AD8 JUMPI PUSH2 0x1AD7 PUSH2 0x1A01 JUMP JUMPDEST JUMPDEST PUSH0 PUSH2 0x1AE5 DUP5 DUP3 DUP6 ADD PUSH2 0x1AAF JUMP JUMPDEST SWAP2 POP POP SWAP3 SWAP2 POP POP JUMP JUMPDEST PUSH0 PUSH2 0xFFFF DUP3 AND SWAP1 POP SWAP2 SWAP1 POP JUMP JUMPDEST PUSH2 0x1B04 DUP2 PUSH2 0x1AEE JUMP JUMPDEST DUP3 MSTORE POP POP JUMP JUMPDEST PUSH0 PUSH1 0x20 DUP3 ADD SWAP1 POP PUSH2 0x1B1D PUSH0 DUP4 ADD DUP5 PUSH2 0x1AFB JUMP JUMPDEST SWAP3 SWAP2 POP POP JUMP JUMPDEST PUSH0 DUP2 MLOAD SWAP1 POP SWAP2 SWAP1 POP JUMP JUMPDEST PUSH0 DUP3 DUP3 MSTORE PUSH1 0x20 DUP3 ADD SWAP1 POP SWAP3 SWAP2 POP POP JUMP JUMPDEST PUSH0 JUMPDEST DUP4 DUP2 LT ISZERO PUSH2 0x1B5A JUMPI DUP1 DUP3 ADD MLOAD DUP2 DUP5 ADD MSTORE PUSH1 0x20 DUP2 ADD SWAP1 POP PUSH2 0x1B3F JUMP JUMPDEST PUSH0 DUP5 DUP5 ADD MSTORE POP POP POP POP JUMP JUMPDEST PUSH0 PUSH1 0x1F NOT PUSH1 0x1F DUP4 ADD AND SWAP1 POP SWAP2 SWAP1 POP JUMP JUMPDEST PUSH0 PUSH2 0x1B7F DUP3 PUSH2 0x1B23 JUMP JUMPDEST PUSH2 0x1B89 DUP2 DUP6 PUSH2 0x1B2D JUMP JUMPDEST SWAP4 POP PUSH2 0x1B99 DUP2 DUP6 PUSH1 0x20 DUP7 ADD PUSH2 0x1B3D JUMP JUMPDEST PUSH2 0x1BA2 DUP2 PUSH2 0x1B65 JUMP JUMPDEST DUP5 ADD SWAP2 POP POP SWAP3 SWAP2 POP POP JUMP JUMPDEST PUSH0 PUSH1 0x20 DUP3 ADD SWAP1 POP DUP2 DUP2 SUB PUSH0 DUP4 ADD MSTORE PUSH2 0x1BC5 DUP2 DUP5 PUSH2 0x1B75 JUMP JUMPDEST SWAP1 POP SWAP3 SWAP2 POP POP JUMP JUMPDEST PUSH2 0x1BD6 DUP2 PUSH2 0x1A88 JUMP JUMPDEST DUP3 MSTORE POP POP JUMP JUMPDEST PUSH0 PUSH1 0x20 DUP3 ADD SWAP1 POP PUSH2 0x1BEF PUSH0 DUP4 ADD DUP5 PUSH2 0x1BCD JUMP JUMPDEST SWAP3 SWAP2 POP POP JUMP JUMPDEST PUSH2 0x1BFE DUP2 PUSH2 0x1995 JUMP JUMPDEST DUP2 EQ PUSH2 0x1C08 JUMPI PUSH0 DUP1 REVERT JUMPDEST POP JUMP JUMPDEST PUSH0 DUP2 CALLDATALOAD SWAP1 POP PUSH2 0x1C19 DUP2 PUSH2 0x1BF5 JUMP JUMPDEST SWAP3 SWAP2 POP POP JUMP JUMPDEST PUSH0 PUSH1 0x20 DUP3 DUP5 SUB SLT ISZERO PUSH2 0x1C34 JUMPI PUSH2 0x1C33 PUSH2 0x1A01 JUMP JUMPDEST JUMPDEST PUSH0 PUSH2 0x1C41 DUP5 DUP3 DUP6 ADD PUSH2 0x1C0B JUMP JUMPDEST SWAP2 POP POP SWAP3 SWAP2 POP POP JUMP JUMPDEST PUSH2 0x1C53 DUP2 PUSH2 0x1AEE JUMP JUMPDEST DUP2 EQ PUSH2 0x1C5D JUMPI PUSH0 DUP1 REVERT JUMPDEST POP JUMP JUMPDEST PUSH0 DUP2 CALLDATALOAD SWAP1 POP PUSH2 0x1C6E DUP2 PUSH2 0x1C4A JUMP JUMPDEST SWAP3 SWAP2 POP POP JUMP JUMPDEST PUSH0 PUSH1 0x20 DUP3 DUP5 SUB SLT ISZERO PUSH2 0x1C89 JUMPI PUSH2 0x1C88 PUSH2 0x1A01 JUMP JUMPDEST JUMPDEST PUSH0 PUSH2 0x1C96 DUP5 DUP3 DUP6 ADD PUSH2 0x1C60 JUMP JUMPDEST SWAP2 POP POP SWAP3 SWAP2 POP POP JUMP JUMPDEST PUSH32 0x4E75722064657220477275656E646572206B616E6E2064696573652046756E6B PUSH0 DUP3 ADD MSTORE PUSH32 0x74696F6E206175736675656872656E2E00000000000000000000000000000000 PUSH1 0x20 DUP3 ADD MSTORE POP JUMP JUMPDEST PUSH0 PUSH2 0x1CF9 PUSH1 0x30 DUP4 PUSH2 0x1B2D JUMP JUMPDEST SWAP2 POP PUSH2 0x1D04 DUP3 PUSH2 0x1C9F JUMP JUMPDEST PUSH1 0x40 DUP3 ADD SWAP1 POP SWAP2 SWAP1 POP JUMP JUMPDEST PUSH0 PUSH1 0x20 DUP3 ADD SWAP1 POP DUP2 DUP2 SUB PUSH0 DUP4 ADD MSTORE PUSH2 0x1D26 DUP2 PUSH2 0x1CED JUMP JUMPDEST SWAP1 POP SWAP2 SWAP1 POP JUMP JUMPDEST PUSH32 0x457320676962742062657265697473204D6974737069656C65722E2050726569 PUSH0 DUP3 ADD MSTORE PUSH32 0x7361656E646572756E67206E69636874206D656872206D6F65676C6963682E00 PUSH1 0x20 DUP3 ADD MSTORE POP JUMP JUMPDEST PUSH0 PUSH2 0x1D87 PUSH1 0x3F DUP4 PUSH2 0x1B2D JUMP JUMPDEST SWAP2 POP PUSH2 0x1D92 DUP3 PUSH2 0x1D2D JUMP JUMPDEST PUSH1 0x40 DUP3 ADD SWAP1 POP SWAP2 SWAP1 POP JUMP JUMPDEST PUSH0 PUSH1 0x20 DUP3 ADD SWAP1 POP DUP2 DUP2 SUB PUSH0 DUP4 ADD MSTORE PUSH2 0x1DB4 DUP2 PUSH2 0x1D7B JUMP JUMPDEST SWAP1 POP SWAP2 SWAP1 POP JUMP JUMPDEST PUSH32 0x457320676962742062657265697473204D6974737069656C65722E2041656E64 PUSH0 DUP3 ADD MSTORE PUSH32 0x6572756E67206E69636874206D656872206D6F65676C6963682E000000000000 PUSH1 0x20 DUP3 ADD MSTORE POP JUMP JUMPDEST PUSH0 PUSH2 0x1E15 PUSH1 0x3A DUP4 PUSH2 0x1B2D JUMP JUMPDEST SWAP2 POP PUSH2 0x1E20 DUP3 PUSH2 0x1DBB JUMP JUMPDEST PUSH1 0x40 DUP3 ADD SWAP1 POP SWAP2 SWAP1 POP JUMP JUMPDEST PUSH0 PUSH1 0x20 DUP3 ADD SWAP1 POP DUP2 DUP2 SUB PUSH0 DUP4 ADD MSTORE PUSH2 0x1E42 DUP2 PUSH2 0x1E09 JUMP JUMPDEST SWAP1 POP SWAP2 SWAP1 POP JUMP JUMPDEST PUSH32 0x4B65696E2050726569732070726F204D6974737069656C657200000000000000 PUSH0 DUP3 ADD MSTORE POP JUMP JUMPDEST PUSH0 PUSH2 0x1E7D PUSH1 0x19 DUP4 PUSH2 0x1B2D JUMP JUMPDEST SWAP2 POP PUSH2 0x1E88 DUP3 PUSH2 0x1E49 JUMP JUMPDEST PUSH1 0x20 DUP3 ADD SWAP1 POP SWAP2 SWAP1 POP JUMP JUMPDEST PUSH0 PUSH1 0x20 DUP3 ADD SWAP1 POP DUP2 DUP2 SUB PUSH0 DUP4 ADD MSTORE PUSH2 0x1EAA DUP2 PUSH2 0x1E71 JUMP JUMPDEST SWAP1 POP SWAP2 SWAP1 POP JUMP JUMPDEST PUSH32 0x5A7520676572696E6765722045696E7A61686C756E6773626574726167000000 PUSH0 DUP3 ADD MSTORE POP JUMP JUMPDEST PUSH0 PUSH2 0x1EE5 PUSH1 0x1D DUP4 PUSH2 0x1B2D JUMP JUMPDEST SWAP2 POP PUSH2 0x1EF0 DUP3 PUSH2 0x1EB1 JUMP JUMPDEST PUSH1 0x20 DUP3 ADD SWAP1 POP SWAP2 SWAP1 POP JUMP JUMPDEST PUSH0 PUSH1 0x20 DUP3 ADD SWAP1 POP DUP2 DUP2 SUB PUSH0 DUP4 ADD MSTORE PUSH2 0x1F12 DUP2 PUSH2 0x1ED9 JUMP JUMPDEST SWAP1 POP SWAP2 SWAP1 POP JUMP JUMPDEST PUSH32 0x4265726569747320616C73204D6974737069656C657220726567697374726965 PUSH0 DUP3 ADD MSTORE PUSH32 0x7274000000000000000000000000000000000000000000000000000000000000 PUSH1 0x20 DUP3 ADD MSTORE POP JUMP JUMPDEST PUSH0 PUSH2 0x1F73 PUSH1 0x22 DUP4 PUSH2 0x1B2D JUMP JUMPDEST SWAP2 POP PUSH2 0x1F7E DUP3 PUSH2 0x1F19 JUMP JUMPDEST PUSH1 0x40 DUP3 ADD SWAP1 POP SWAP2 SWAP1 POP JUMP JUMPDEST PUSH0 PUSH1 0x20 DUP3 ADD SWAP1 POP DUP2 DUP2 SUB PUSH0 DUP4 ADD MSTORE PUSH2 0x1FA0 DUP2 PUSH2 0x1F67 JUMP JUMPDEST SWAP1 POP SWAP2 SWAP1 POP JUMP JUMPDEST PUSH32 0x4D6178696D616C65205465696C6E65686D65727A61686C206572726569636874 PUSH0 DUP3 ADD MSTORE POP JUMP JUMPDEST PUSH0 PUSH2 0x1FDB PUSH1 0x20 DUP4 PUSH2 0x1B2D JUMP JUMPDEST SWAP2 POP PUSH2 0x1FE6 DUP3 PUSH2 0x1FA7 JUMP JUMPDEST PUSH1 0x20 DUP3 ADD SWAP1 POP SWAP2 SWAP1 POP JUMP JUMPDEST PUSH0 PUSH1 0x20 DUP3 ADD SWAP1 POP DUP2 DUP2 SUB PUSH0 DUP4 ADD MSTORE PUSH2 0x2008 DUP2 PUSH2 0x1FCF JUMP JUMPDEST SWAP1 POP SWAP2 SWAP1 POP JUMP JUMPDEST PUSH32 0x476577696E6E20777572646520626572656974732065696E67657A61686C7400 PUSH0 DUP3 ADD MSTORE POP JUMP JUMPDEST PUSH0 PUSH2 0x2043 PUSH1 0x1F DUP4 PUSH2 0x1B2D JUMP JUMPDEST SWAP2 POP PUSH2 0x204E DUP3 PUSH2 0x200F JUMP JUMPDEST PUSH1 0x20 DUP3 ADD SWAP1 POP SWAP2 SWAP1 POP JUMP JUMPDEST PUSH0 PUSH1 0x20 DUP3 ADD SWAP1 POP DUP2 DUP2 SUB PUSH0 DUP4 ADD MSTORE PUSH2 0x2070 DUP2 PUSH2 0x2037 JUMP JUMPDEST SWAP1 POP SWAP2 SWAP1 POP JUMP JUMPDEST PUSH0 DUP2 SWAP1 POP SWAP2 SWAP1 POP JUMP JUMPDEST PUSH32 0x4E487B7100000000000000000000000000000000000000000000000000000000 PUSH0 MSTORE PUSH1 0x11 PUSH1 0x4 MSTORE PUSH1 0x24 PUSH0 REVERT JUMPDEST PUSH0 PUSH2 0x20B7 DUP3 PUSH2 0x2077 JUMP JUMPDEST SWAP2 POP PUSH2 0x20C2 DUP4 PUSH2 0x2077 JUMP JUMPDEST SWAP3 POP DUP3 DUP3 SUB SWAP1 POP DUP2 DUP2 GT ISZERO PUSH2 0x20DA JUMPI PUSH2 0x20D9 PUSH2 0x2080 JUMP JUMPDEST JUMPDEST SWAP3 SWAP2 POP POP JUMP JUMPDEST PUSH0 PUSH2 0x20EA DUP3 PUSH2 0x1AEE JUMP JUMPDEST SWAP2 POP PUSH2 0xFFFF DUP3 SUB PUSH2 0x20FE JUMPI PUSH2 0x20FD PUSH2 0x2080 JUMP JUMPDEST JUMPDEST PUSH1 0x1 DUP3 ADD SWAP1 POP SWAP2 SWAP1 POP JUMP JUMPDEST PUSH32 0x4E75722065696E204D6974737069656C6572206B616E6E206469657365204675 PUSH0 DUP3 ADD MSTORE PUSH32 0x6E6B74696F6E206175736675656872656E2E0000000000000000000000000000 PUSH1 0x20 DUP3 ADD MSTORE POP JUMP JUMPDEST PUSH0 PUSH2 0x2163 PUSH1 0x32 DUP4 PUSH2 0x1B2D JUMP JUMPDEST SWAP2 POP PUSH2 0x216E DUP3 PUSH2 0x2109 JUMP JUMPDEST PUSH1 0x40 DUP3 ADD SWAP1 POP SWAP2 SWAP1 POP JUMP JUMPDEST PUSH0 PUSH1 0x20 DUP3 ADD SWAP1 POP DUP2 DUP2 SUB PUSH0 DUP4 ADD MSTORE PUSH2 0x2190 DUP2 PUSH2 0x2157 JUMP JUMPDEST SWAP1 POP SWAP2 SWAP1 POP JUMP JUMPDEST PUSH32 0x4E6F2072652D656E7472616E6379000000000000000000000000000000000000 PUSH0 DUP3 ADD MSTORE POP JUMP JUMPDEST PUSH0 PUSH2 0x21CB PUSH1 0xE DUP4 PUSH2 0x1B2D JUMP JUMPDEST SWAP2 POP PUSH2 0x21D6 DUP3 PUSH2 0x2197 JUMP JUMPDEST PUSH1 0x20 DUP3 ADD SWAP1 POP SWAP2 SWAP1 POP JUMP JUMPDEST PUSH0 PUSH1 0x20 DUP3 ADD SWAP1 POP DUP2 DUP2 SUB PUSH0 DUP4 ADD MSTORE PUSH2 0x21F8 DUP2 PUSH2 0x21BF JUMP JUMPDEST SWAP1 POP SWAP2 SWAP1 POP JUMP JUMPDEST PUSH32 0x476577696E6E206B616E6E206E6F6368206E696368742061626765686F6C7420 PUSH0 DUP3 ADD MSTORE PUSH32 0x77657264656E2E00000000000000000000000000000000000000000000000000 PUSH1 0x20 DUP3 ADD MSTORE POP JUMP JUMPDEST PUSH0 PUSH2 0x2259 PUSH1 0x27 DUP4 PUSH2 0x1B2D JUMP JUMPDEST SWAP2 POP PUSH2 0x2264 DUP3 PUSH2 0x21FF JUMP JUMPDEST PUSH1 0x40 DUP3 ADD SWAP1 POP SWAP2 SWAP1 POP JUMP JUMPDEST PUSH0 PUSH1 0x20 DUP3 ADD SWAP1 POP DUP2 DUP2 SUB PUSH0 DUP4 ADD MSTORE PUSH2 0x2286 DUP2 PUSH2 0x224D JUMP JUMPDEST SWAP1 POP SWAP2 SWAP1 POP JUMP JUMPDEST PUSH32 0x4B65696E20476577696E6E207A7572204175737A61686C756E67207665726675 PUSH0 DUP3 ADD MSTORE PUSH32 0x65676261722E0000000000000000000000000000000000000000000000000000 PUSH1 0x20 DUP3 ADD MSTORE POP JUMP JUMPDEST PUSH0 PUSH2 0x22E7 PUSH1 0x26 DUP4 PUSH2 0x1B2D JUMP JUMPDEST SWAP2 POP PUSH2 0x22F2 DUP3 PUSH2 0x228D JUMP JUMPDEST PUSH1 0x40 DUP3 ADD SWAP1 POP SWAP2 SWAP1 POP JUMP JUMPDEST PUSH0 PUSH1 0x20 DUP3 ADD SWAP1 POP DUP2 DUP2 SUB PUSH0 DUP4 ADD MSTORE PUSH2 0x2314 DUP2 PUSH2 0x22DB JUMP JUMPDEST SWAP1 POP SWAP2 SWAP1 POP JUMP JUMPDEST PUSH32 0x476577696E6E20777572646520626572656974732061626765686F6C742E0000 PUSH0 DUP3 ADD MSTORE POP JUMP JUMPDEST PUSH0 PUSH2 0x234F PUSH1 0x1E DUP4 PUSH2 0x1B2D JUMP JUMPDEST SWAP2 POP PUSH2 0x235A DUP3 PUSH2 0x231B JUMP JUMPDEST PUSH1 0x20 DUP3 ADD SWAP1 POP SWAP2 SWAP1 POP JUMP JUMPDEST PUSH0 PUSH1 0x20 DUP3 ADD SWAP1 POP DUP2 DUP2 SUB PUSH0 DUP4 ADD MSTORE PUSH2 0x237C DUP2 PUSH2 0x2343 JUMP JUMPDEST SWAP1 POP SWAP2 SWAP1 POP JUMP JUMPDEST PUSH32 0x4E487B7100000000000000000000000000000000000000000000000000000000 PUSH0 MSTORE PUSH1 0x22 PUSH1 0x4 MSTORE PUSH1 0x24 PUSH0 REVERT JUMPDEST PUSH0 PUSH1 0x2 DUP3 DIV SWAP1 POP PUSH1 0x1 DUP3 AND DUP1 PUSH2 0x23C7 JUMPI PUSH1 0x7F DUP3 AND SWAP2 POP JUMPDEST PUSH1 0x20 DUP3 LT DUP2 SUB PUSH2 0x23DA JUMPI PUSH2 0x23D9 PUSH2 0x2383 JUMP JUMPDEST JUMPDEST POP SWAP2 SWAP1 POP JUMP JUMPDEST PUSH32 0x47656D65696E736368616674206D7573732061756667656C6F65737420736569 PUSH0 DUP3 ADD MSTORE PUSH32 0x6E2E000000000000000000000000000000000000000000000000000000000000 PUSH1 0x20 DUP3 ADD MSTORE POP JUMP JUMPDEST PUSH0 PUSH2 0x243A PUSH1 0x22 DUP4 PUSH2 0x1B2D JUMP JUMPDEST SWAP2 POP PUSH2 0x2445 DUP3 PUSH2 0x23E0 JUMP JUMPDEST PUSH1 0x40 DUP3 ADD SWAP1 POP SWAP2 SWAP1 POP JUMP JUMPDEST PUSH0 PUSH1 0x20 DUP3 ADD SWAP1 POP DUP2 DUP2 SUB PUSH0 DUP4 ADD MSTORE PUSH2 0x2467 DUP2 PUSH2 0x242E JUMP JUMPDEST SWAP1 POP SWAP2 SWAP1 POP JUMP JUMPDEST PUSH32 0x45696E7361747A2077757264652062657265697473207A75727565636B67657A PUSH0 DUP3 ADD MSTORE PUSH32 0x61686C742E000000000000000000000000000000000000000000000000000000 PUSH1 0x20 DUP3 ADD MSTORE POP JUMP JUMPDEST PUSH0 PUSH2 0x24C8 PUSH1 0x25 DUP4 PUSH2 0x1B2D JUMP JUMPDEST SWAP2 POP PUSH2 0x24D3 DUP3 PUSH2 0x246E JUMP JUMPDEST PUSH1 0x40 DUP3 ADD SWAP1 POP SWAP2 SWAP1 POP JUMP JUMPDEST PUSH0 PUSH1 0x20 DUP3 ADD SWAP1 POP DUP2 DUP2 SUB PUSH0 DUP4 ADD MSTORE PUSH2 0x24F5 DUP2 PUSH2 0x24BC JUMP JUMPDEST SWAP1 POP SWAP2 SWAP1 POP JUMP JUMPDEST PUSH0 DUP2 SWAP1 POP SWAP3 SWAP2 POP POP JUMP JUMPDEST POP JUMP JUMPDEST PUSH0 PUSH2 0x2514 PUSH0 DUP4 PUSH2 0x24FC JUMP JUMPDEST SWAP2 POP PUSH2 0x251F DUP3 PUSH2 0x2506 JUMP JUMPDEST PUSH0 DUP3 ADD SWAP1 POP SWAP2 SWAP1 POP JUMP JUMPDEST PUSH0 PUSH2 0x2533 DUP3 PUSH2 0x2509 JUMP JUMPDEST SWAP2 POP DUP2 SWAP1 POP SWAP2 SWAP1 POP JUMP JUMPDEST PUSH32 0x527565636B7A61686C756E67206465732045696E7361747A6573206665686C67 PUSH0 DUP3 ADD MSTORE PUSH32 0x657363686C6167656E2E00000000000000000000000000000000000000000000 PUSH1 0x20 DUP3 ADD MSTORE POP JUMP JUMPDEST PUSH0 PUSH2 0x2597 PUSH1 0x2A DUP4 PUSH2 0x1B2D JUMP JUMPDEST SWAP2 POP PUSH2 0x25A2 DUP3 PUSH2 0x253D JUMP JUMPDEST PUSH1 0x40 DUP3 ADD SWAP1 POP SWAP2 SWAP1 POP JUMP JUMPDEST PUSH0 PUSH1 0x20 DUP3 ADD SWAP1 POP DUP2 DUP2 SUB PUSH0 DUP4 ADD MSTORE PUSH2 0x25C4 DUP2 PUSH2 0x258B JUMP JUMPDEST SWAP1 POP SWAP2 SWAP1 POP JUMP JUMPDEST PUSH32 0x476577696E6E206D757373206E6F63682061757367657A61686C742077657264 PUSH0 DUP3 ADD MSTORE PUSH32 0x656E000000000000000000000000000000000000000000000000000000000000 PUSH1 0x20 DUP3 ADD MSTORE POP JUMP JUMPDEST PUSH0 PUSH2 0x2625 PUSH1 0x22 DUP4 PUSH2 0x1B2D JUMP JUMPDEST SWAP2 POP PUSH2 0x2630 DUP3 PUSH2 0x25CB JUMP JUMPDEST PUSH1 0x40 DUP3 ADD SWAP1 POP SWAP2 SWAP1 POP JUMP JUMPDEST PUSH0 PUSH1 0x20 DUP3 ADD SWAP1 POP DUP2 DUP2 SUB PUSH0 DUP4 ADD MSTORE PUSH2 0x2652 DUP2 PUSH2 0x2619 JUMP JUMPDEST SWAP1 POP SWAP2 SWAP1 POP JUMP JUMPDEST PUSH32 0x47656D65696E73636861667420626572656974732061756667656C6F65737400 PUSH0 DUP3 ADD MSTORE POP JUMP JUMPDEST PUSH0 PUSH2 0x268D PUSH1 0x1F DUP4 PUSH2 0x1B2D JUMP JUMPDEST SWAP2 POP PUSH2 0x2698 DUP3 PUSH2 0x2659 JUMP JUMPDEST PUSH1 0x20 DUP3 ADD SWAP1 POP SWAP2 SWAP1 POP JUMP JUMPDEST PUSH0 PUSH1 0x20 DUP3 ADD SWAP1 POP DUP2 DUP2 SUB PUSH0 DUP4 ADD MSTORE PUSH2 0x26BA DUP2 PUSH2 0x2681 JUMP JUMPDEST SWAP1 POP SWAP2 SWAP1 POP JUMP JUMPDEST PUSH32 0x45696E7A61686C756E6773626574726167206D7573732067726F657373657220 PUSH0 DUP3 ADD MSTORE PUSH32 0x616C732030207365696E00000000000000000000000000000000000000000000 PUSH1 0x20 DUP3 ADD MSTORE POP JUMP JUMPDEST PUSH0 PUSH2 0x271B PUSH1 0x2A DUP4 PUSH2 0x1B2D JUMP JUMPDEST SWAP2 POP PUSH2 0x2726 DUP3 PUSH2 0x26C1 JUMP JUMPDEST PUSH1 0x40 DUP3 ADD SWAP1 POP SWAP2 SWAP1 POP JUMP JUMPDEST PUSH0 PUSH1 0x20 DUP3 ADD SWAP1 POP DUP2 DUP2 SUB PUSH0 DUP4 ADD MSTORE PUSH2 0x2748 DUP2 PUSH2 0x270F JUMP JUMPDEST SWAP1 POP SWAP2 SWAP1 POP JUMP JUMPDEST PUSH32 0x476577696E6E20777572646520626572656974732065696E67657A61686C742E PUSH0 DUP3 ADD MSTORE POP JUMP JUMPDEST PUSH0 PUSH2 0x2783 PUSH1 0x20 DUP4 PUSH2 0x1B2D JUMP JUMPDEST SWAP2 POP PUSH2 0x278E DUP3 PUSH2 0x274F JUMP JUMPDEST PUSH1 0x20 DUP3 ADD SWAP1 POP SWAP2 SWAP1 POP JUMP JUMPDEST PUSH0 PUSH1 0x20 DUP3 ADD SWAP1 POP DUP2 DUP2 SUB PUSH0 DUP4 ADD MSTORE PUSH2 0x27B0 DUP2 PUSH2 0x2777 JUMP JUMPDEST SWAP1 POP SWAP2 SWAP1 POP JUMP JUMPDEST PUSH32 0x4E487B7100000000000000000000000000000000000000000000000000000000 PUSH0 MSTORE PUSH1 0x12 PUSH1 0x4 MSTORE PUSH1 0x24 PUSH0 REVERT JUMPDEST PUSH0 PUSH2 0x27EE DUP3 PUSH2 0x1995 JUMP JUMPDEST SWAP2 POP PUSH2 0x27F9 DUP4 PUSH2 0x1995 JUMP JUMPDEST SWAP3 POP DUP3 PUSH2 0x2809 JUMPI PUSH2 0x2808 PUSH2 0x27B7 JUMP JUMPDEST JUMPDEST DUP3 DUP3 DIV SWAP1 POP SWAP3 SWAP2 POP POP JUMP JUMPDEST PUSH32 0x476577696E6E20777572646520626572656974732065696E67657A61686C7420 PUSH0 DUP3 ADD MSTORE PUSH32 0x756E64206B616E6E2061626765686F6C742077657264656E0000000000000000 PUSH1 0x20 DUP3 ADD MSTORE POP JUMP JUMPDEST PUSH0 PUSH2 0x286E PUSH1 0x38 DUP4 PUSH2 0x1B2D JUMP JUMPDEST SWAP2 POP PUSH2 0x2879 DUP3 PUSH2 0x2814 JUMP JUMPDEST PUSH1 0x40 DUP3 ADD SWAP1 POP SWAP2 SWAP1 POP JUMP JUMPDEST PUSH0 PUSH1 0x20 DUP3 ADD SWAP1 POP DUP2 DUP2 SUB PUSH0 DUP4 ADD MSTORE PUSH2 0x289B DUP2 PUSH2 0x2862 JUMP JUMPDEST SWAP1 POP SWAP2 SWAP1 POP JUMP JUMPDEST PUSH32 0x457320676962742062657265697473204D6974737069656C65722E2041656E64 PUSH0 DUP3 ADD MSTORE PUSH32 0x6572756E672064657220416E7A61686C20616E204D6974737069656C65726E20 PUSH1 0x20 DUP3 ADD MSTORE PUSH32 0x6E69636874206D656872206D6F65676C6963682E000000000000000000000000 PUSH1 0x40 DUP3 ADD MSTORE POP JUMP JUMPDEST PUSH0 PUSH2 0x2922 PUSH1 0x54 DUP4 PUSH2 0x1B2D JUMP JUMPDEST SWAP2 POP PUSH2 0x292D DUP3 PUSH2 0x28A2 JUMP JUMPDEST PUSH1 0x60 DUP3 ADD SWAP1 POP SWAP2 SWAP1 POP JUMP JUMPDEST PUSH0 PUSH1 0x20 DUP3 ADD SWAP1 POP DUP2 DUP2 SUB PUSH0 DUP4 ADD MSTORE PUSH2 0x294F DUP2 PUSH2 0x2916 JUMP JUMPDEST SWAP1 POP SWAP2 SWAP1 POP JUMP INVALID LOG2 PUSH5 0x6970667358 0x22 SLT KECCAK256 0xEF AND CALLVALUE BALANCE PUSH4 0x3AB43B44 0xC2 0xFC 0xBD 0xCB PUSH22 0x35F5DCDE27D82FCADFC8C5F664E30428EB2364736F6C PUSH4 0x43000817 STOP CALLER "},"gasEstimates":{"creation":{"codeDepositCost":"2127200","executionCost":"infinite","totalCost":"infinite"},"external":{"anzahlMitspielerAendern(uint16)":"29068","anzahlTeilnehmerAktuell()":"2489","aufgeloest()":"2605","auszahlung()":"2490","einsatzAbholen()":"infinite","einsatzZurueckGezahlt(address)":"2878","einsatzZurueckholen()":"infinite","erlaubteMitspielerAdresseHinzufuegen(address)":"29199","erlaubterMitspieler(address)":"2943","gemeinschaftAufloesen()":"31152","gewinnAbholen()":"infinite","gewinnAusgezahlt(address)":"2878","gewinnEinzahlen(uint48)":"infinite","gewinnKannAbgeholtWerden()":"2582","gewinnProMitspieler()":"2563","gruender()":"2616","maxTeilnehmerAnzahl()":"2577","mitmachen()":"infinite","mitspieler(address)":"2967","nurErlaubteMitspieler()":"2650","preisLottoschein()":"2559","preisLottoscheinAendern(uint32)":"29171","preisProMitspieler()":"2607","spielauftragsNummer()":"infinite","tippgemeinschaftsName()":"infinite"}},"methodIdentifiers":{"anzahlMitspielerAendern(uint16)":"e068561a","anzahlTeilnehmerAktuell()":"3babb15a","aufgeloest()":"e34ad1d7","auszahlung()":"084263f5","einsatzAbholen()":"c88c8b28","einsatzZurueckGezahlt(address)":"bb68a67f","einsatzZurueckholen()":"a299f171","erlaubteMitspielerAdresseHinzufuegen(address)":"43767832","erlaubterMitspieler(address)":"e86c5692","gemeinschaftAufloesen()":"ab76211e","gewinnAbholen()":"833e92cb","gewinnAusgezahlt(address)":"91243239","gewinnEinzahlen(uint48)":"c6ca9d19","gewinnKannAbgeholtWerden()":"2340983f","gewinnProMitspieler()":"0f085e50","gruender()":"ad2c046c","maxTeilnehmerAnzahl()":"70a41bc0","mitmachen()":"526024ea","mitspieler(address)":"36927060","nurErlaubteMitspieler()":"b08c7076","preisLottoschein()":"3f0f5d51","preisLottoscheinAendern(uint32)":"31c45120","preisProMitspieler()":"2df368a5","spielauftragsNummer()":"8acb4624","tippgemeinschaftsName()":"d27d06c0"}},"storageLayout":{"storage":[{"astId":160,"contract":"Lottogemeinschaft.sol:Lottogemeinschaft","label":"gruender","offset":0,"slot":"0","type":"t_address"},{"astId":162,"contract":"Lottogemeinschaft.sol:Lottogemeinschaft","label":"tippgemeinschaftsName","offset":0,"slot":"1","type":"t_string_storage"},{"astId":164,"contract":"Lottogemeinschaft.sol:Lottogemeinschaft","label":"maxTeilnehmerAnzahl","offset":0,"slot":"2","type":"t_uint16"},{"astId":166,"contract":"Lottogemeinschaft.sol:Lottogemeinschaft","label":"preisLottoschein","offset":2,"slot":"2","type":"t_uint96"},{"astId":168,"contract":"Lottogemeinschaft.sol:Lottogemeinschaft","label":"preisProMitspieler","offset":14,"slot":"2","type":"t_uint96"},{"astId":170,"contract":"Lottogemeinschaft.sol:Lottogemeinschaft","label":"spielauftragsNummer","offset":0,"slot":"3","type":"t_string_storage"},{"astId":172,"contract":"Lottogemeinschaft.sol:Lottogemeinschaft","label":"auszahlung","offset":0,"slot":"4","type":"t_uint96"},{"astId":176,"contract":"Lottogemeinschaft.sol:Lottogemeinschaft","label":"mitspieler","offset":0,"slot":"5","type":"t_mapping(t_address,t_bool)"},{"astId":180,"contract":"Lottogemeinschaft.sol:Lottogemeinschaft","label":"gewinnAusgezahlt","offset":0,"slot":"6","type":"t_mapping(t_address,t_bool)"},{"astId":184,"contract":"Lottogemeinschaft.sol:Lottogemeinschaft","label":"einsatzZurueckGezahlt","offset":0,"slot":"7","type":"t_mapping(t_address,t_bool)"},{"astId":186,"contract":"Lottogemeinschaft.sol:Lottogemeinschaft","label":"anzahlTeilnehmerAktuell","offset":0,"slot":"8","type":"t_uint16"},{"astId":189,"contract":"Lottogemeinschaft.sol:Lottogemeinschaft","label":"gewinnProMitspieler","offset":2,"slot":"8","type":"t_uint48"},{"astId":192,"contract":"Lottogemeinschaft.sol:Lottogemeinschaft","label":"gewinnKannAbgeholtWerden","offset":8,"slot":"8","type":"t_bool"},{"astId":195,"contract":"Lottogemeinschaft.sol:Lottogemeinschaft","label":"nurErlaubteMitspieler","offset":9,"slot":"8","type":"t_bool"},{"astId":199,"contract":"Lottogemeinschaft.sol:Lottogemeinschaft","label":"erlaubterMitspieler","offset":0,"slot":"9","type":"t_mapping(t_address,t_bool)"},{"astId":201,"contract":"Lottogemeinschaft.sol:Lottogemeinschaft","label":"locked","offset":0,"slot":"10","type":"t_bool"},{"astId":203,"contract":"Lottogemeinschaft.sol:Lottogemeinschaft","label":"aufgeloest","offset":1,"slot":"10","type":"t_bool"}],"types":{"t_address":{"encoding":"inplace","label":"address","numberOfBytes":"20"},"t_bool":{"encoding":"inplace","label":"bool","numberOfBytes":"1"},"t_mapping(t_address,t_bool)":{"encoding":"mapping","key":"t_address","label":"mapping(address => bool)","numberOfBytes":"32","value":"t_bool"},"t_string_storage":{"encoding":"bytes","label":"string","numberOfBytes":"32"},"t_uint16":{"encoding":"inplace","label":"uint16","numberOfBytes":"2"},"t_uint48":{"encoding":"inplace","label":"uint48","numberOfBytes":"6"},"t_uint96":{"encoding":"inplace","label":"uint96","numberOfBytes":"12"}}},"userdoc":{"kind":"user","methods":{},"version":1}}